{
  "transactions": [
    {
      "hash": "0x204cf41fc27bf083bbf18f52c7d5f157219654009e10e6dce03a15f2dd29a3c5",
      "transactionType": "CREATE",
      "contractName": "UBIFeeSplitter",
      "contractAddress": "0x76d05f58d14c0838ec630c8140edc5ab7cd159dc",
      "function": null,
      "arguments": [
        "0x36C02dA8a0983159322a80FFE9F24b1acfF8B570",
        "0xf39Fd6e51aad88F6F4ce6aB8827279cffFb92266",
        "0xf39Fd6e51aad88F6F4ce6aB8827279cffFb92266"
      ],
      "transaction": {
        "from": "0xf39fd6e51aad88f6f4ce6ab8827279cfffb92266",
        "gas": "0x1650f7",
        "value": "0x0",
        "input": "0x60803460b857601f6111c438819003918201601f19168301916001600160401b0383118484101760bc5780849260609460405283398101031260b85760428160d0565b906057604060516020840160d0565b920160d0565b610d056001556106836002555f80546001600160a01b03199081166001600160a01b0395861617909155600380548216938516938417905560048054821694909216939093179055600680549092161790556040516110e090816100e48239f35b5f80fd5b634e487b7160e01b5f52604160045260245ffd5b51906001600160a01b038216820360b85756fe6080604052600436101561001a575b3615610018575f80fd5b005b5f5f3560e01c8063078a8be914610da55780630fc1c0c014610d4c578063119e5bf314610d25578063212e7c3114610bac5780632957b4bd14610b8f57806360c6d8ae14610b7257806364d6def91461091c57806366521893146108fe5780637c393cfd146108e05780637cb4eea2146105ad5780637d61958b146105845780637e6335c714610507578063803db96d146104de57806383c1c526146104855780638581ddf514610467578063bb6a99d914610423578063c33f0d4e146103fa578063c4f4542314610362578063c7888a6d146102de578063dea05bad1461029f578063e086e5ec1461019a578063f0f442601461014d5763f851a44014610122575061000e565b3461014a578060031936011261014a576004546040516001600160a01b039091168152602090f35b80fd5b503461014a57602036600319011261014a57610167610eef565b61017c60018060a01b03600454163314610f47565b60018060a01b03166001600160601b0360a01b600354161760035580f35b503461014a578060031936011261014a576101c060018060a01b03600454163314610f47565b4780156102715760035482918291829182916001600160a01b03165af13d1561026c573d67ffffffffffffffff8111610258576040519061020b601f8201601f191660200183610fba565b81528260203d92013e5b1561021d5780f35b60405162461bcd60e51b8152602060048201526013602482015272115512081d1c985b9cd9995c8819985a5b1959606a1b6044820152606490fd5b634e487b7160e01b83526041600452602483fd5b610215565b60405162461bcd60e51b81526020600482015260066024820152650dcde408aa8960d31b6044820152606490fd5b503461014a57602036600319011261014a5760209060ff906040906001600160a01b036102ca610eef565b168152600784522054166040519015158152f35b503461014a57602036600319011261014a576102f8610eef565b61030d60018060a01b03600454163314610f47565b6001600160a01b0316610321811515610f7f565b81546001600160a01b03198116821783556001600160a01b03167fd511f9596ede52c0682115223470c4bdd21d4d183744ce5dcef883cf02ae159c8380a380f35b503461014a578060031936011261014a5780546040516370a0823160e01b81523060048201529190602090839060249082906001600160a01b03165afa9081156103ee57906103b7575b602090604051908152f35b506020813d6020116103e6575b816103d160209383610fba565b810103126103e257602090516103ac565b5f80fd5b3d91506103c4565b604051903d90823e3d90fd5b503461014a578060031936011261014a576006546040516001600160a01b039091168152602090f35b503461014a57602036600319011261014a576004359060085482101561014a57602061044e83610f1b565b905460405160039290921b1c6001600160a01b03168152f35b503461014a578060031936011261014a576020600a54604051908152f35b503461014a57602036600319011261014a5761049f610eef565b6104b460018060a01b03600454163314610f47565b6001600160a01b03166104c8811515610f7f565b6001600160601b0360a01b600554161760055580f35b503461014a578060031936011261014a576003546040516001600160a01b039091168152602090f35b503461014a57604036600319011261014a576004356024359061053560018060a01b03600454163314610f47565b612710610542838361109d565b116105505760015560025580f35b60405162461bcd60e51b815260206004820152600c60248201526b45786365656473203130302560a01b6044820152606490fd5b503461014a578060031936011261014a576005546040516001600160a01b039091168152602090f35b503461014a57606036600319011261014a576004356105ca610f05565b906044356001600160a01b038116908190036108dc576105eb821515611032565b6006546001600160a01b0316156108a05761271061060b60015484611069565b049161271061061c60025483611069565b04936106318561062c8685611090565b611090565b6040516323b872dd60e01b8152336004820152306024820152604481018490529093906020816064818b865af190811561083b578891610881575b50156108465760065460405163a9059cbb60e01b81526001600160a01b03909116600482015260248101869052906020826044818b855af191821561083b576106f6926106c0918a916107ea575b50610ff4565b60035460405163a9059cbb60e01b81526001600160a01b0390911660048201526024810188905291602090839081906044820190565b03818b855af190811561083b576107529361071b87936020958c916108245750610ff4565b60405163a9059cbb60e01b81526001600160a01b0390911660048201526024810192909252909283919082908a9082906044820190565b03925af19081156108195790610773916107e6959697916107ea5750610ff4565b61077f8160095461109d565b600955604080519182526020820185905281018590526060810182905233907f0dbf6466fc85a1dfc483035dd7c09f8326cee61f37a6cfa6c7097da85140e0609080608081015b0390a2604051938493846040919493926060820195825260208201520152565b0390f35b61080c915060203d602011610812575b6108048183610fba565b810190610fdc565b5f6106ba565b503d6107fa565b6040513d88823e3d90fd5b61080c9150863d8811610812576108048183610fba565b6040513d8a823e3d90fd5b60405162461bcd60e51b81526020600482015260136024820152721d1c985b9cd9995c919c9bdb4819985a5b1959606a1b6044820152606490fd5b61089a915060203d602011610812576108048183610fba565b5f61066c565b60405162461bcd60e51b81526020600482015260146024820152731d589a549958da5c1a595b9d081b9bdd081cd95d60621b6044820152606490fd5b8380fd5b503461014a578060031936011261014a576020600254604051908152f35b503461014a578060031936011261014a576020600154604051908152f35b50346103e25760403660031901126103e257600435610939610f05565b610944821515611032565b61271061095360015484611069565b049061271061096460025485611069565b04926109748461062c8584611090565b5f80546040516323b872dd60e01b8152336004820152306024820152604481018590529294929160209183916064918391906001600160a01b03165af18015610b4a57610b55575b505f546001600160a01b0316803b156103e2575f80916024604051809481936383adc2ff60e01b83528a60048401525af18015610b4a57610b35575b50855460035460405163a9059cbb60e01b81526001600160a01b0391821660048201526024810188905291602091839160449183918c91165af18015610b2a57610a8c92610a5086926020948b91610b135750610ff4565b885460405163a9059cbb60e01b81526001600160a01b0392831660048201526024810193909352919384929091169082908a9082906044820190565b03925af19081156108195790610aad916107e6959697916107ea5750610ff4565b610ab98160095461109d565b600955610ac884600a5461109d565b600a55604080519182526020820185905281018590526060810182905233907f0dbf6466fc85a1dfc483035dd7c09f8326cee61f37a6cfa6c7097da85140e0609080608081016107c6565b61080c9150853d8711610812576108048183610fba565b6040513d89823e3d90fd5b610b429196505f90610fba565b5f945f6109f8565b6040513d5f823e3d90fd5b610b6d9060203d602011610812576108048183610fba565b6109bc565b346103e2575f3660031901126103e2576020600954604051908152f35b346103e2575f3660031901126103e2576020600854604051908152f35b346103e25760403660031901126103e257610bc5610eef565b60055460243591906001600160a01b03163303610cf1575f546040516370a0823160e01b81523060048201526001600160a01b039091169290602081602481875afa908115610b4a575f91610cbf575b508111610c835760405163a9059cbb60e01b81526001600160a01b03929092166004830152602482015290602090829060449082905f905af18015610b4a57610018915f91610c645750610ff4565b610c7d915060203d602011610812576108048183610fba565b826106ba565b60405162461bcd60e51b8152602060048201526014602482015273696e73756666696369656e742062616c616e636560601b6044820152606490fd5b90506020813d602011610ce9575b81610cda60209383610fba565b810103126103e2575184610c15565b3d9150610ccd565b60405162461bcd60e51b815260206004820152600c60248201526b4e6f7420554249436c61696d60a01b6044820152606490fd5b346103e2575f3660031901126103e2575f546040516001600160a01b039091168152602090f35b346103e25760203660031901126103e257610d65610eef565b610d7a60018060a01b03600454163314610f47565b6001600160a01b0316610d8e811515610f7f565b6001600160601b0360a01b60065416176006555f80f35b346103e25760403660031901126103e257610dbe610eef565b60243567ffffffffffffffff81116103e257366023820112156103e25780600401359167ffffffffffffffff83116103e25736602484840101116103e257610e1160018060a01b03600454163314610f47565b6001600160a01b03165f8181526007602052604090205490929060ff1615610e3557005b825f52600760205260405f20600160ff1982541617905560085468010000000000000000811015610edb577f1b452462b371f0b1fe9691fc8b7ba96e05962067f6beb9a744cd2c78be0322dc92602492610e9783600160409501600855610f1b565b81549060031b9088821b9160018060a01b03901b19161790558083519485936020855282602086015201848401375f828201840152601f01601f19168101030190a2005b634e487b7160e01b5f52604160045260245ffd5b600435906001600160a01b03821682036103e257565b602435906001600160a01b03821682036103e257565b600854811015610f335760085f5260205f2001905f90565b634e487b7160e01b5f52603260045260245ffd5b15610f4e57565b60405162461bcd60e51b81526020600482015260096024820152682737ba1030b236b4b760b91b6044820152606490fd5b15610f8657565b60405162461bcd60e51b815260206004820152600c60248201526b7a65726f206164647265737360a01b6044820152606490fd5b90601f8019910116810190811067ffffffffffffffff821117610edb57604052565b908160209103126103e2575180151581036103e25790565b15610ffb57565b60405162461bcd60e51b815260206004820152600f60248201526e1d1c985b9cd9995c8819985a5b1959608a1b6044820152606490fd5b1561103957565b60405162461bcd60e51b81526020600482015260086024820152675a65726f2066656560c01b6044820152606490fd5b8181029291811591840414171561107c57565b634e487b7160e01b5f52601160045260245ffd5b9190820391821161107c57565b9190820180921161107c5756fea2646970667358221220a93c73e6c67e455ef2ae74bc297e06552f612a54c75593f8519721537f7973a064736f6c6343000821003300000000000000000000000036c02da8a0983159322a80ffe9f24b1acff8b570000000000000000000000000f39fd6e51aad88f6f4ce6ab8827279cfffb92266000000000000000000000000f39fd6e51aad88f6f4ce6ab8827279cfffb92266",
        "nonce": "0x2ec",
        "chainId": "0xa455"
      },
      "additionalContracts": [],
      "isFixedGasLimit": false
    },
    {
      "hash": "0x390dd9091e306502316de20b303d4f87b94272a92b9e1643d245389b45e0a37e",
      "transactionType": "CREATE",
      "contractName": "PerpEngine",
      "contractAddress": "0xe8c3f27d20472e4f3c546a3f73c04b54dd72871d",
      "function": null,
      "arguments": [
        "0xB22C255250d74B0ADD1bfB936676D2a299BF48Bd",
        "0xFD2Cf3b56a73c75A7535fFe44EBABe7723c64719",
        "0xf5c4a909455C00B99A90d93b48736F3196DB5621",
        "0x76d05F58D14c0838EC630C8140eDC5aB7CD159Dc",
        "0xf39Fd6e51aad88F6F4ce6aB8827279cffFb92266"
      ],
      "transaction": {
        "from": "0xf39fd6e51aad88f6f4ce6ab8827279cfffb92266",
        "gas": "0x2217f0",
        "value": "0x0",
        "input": "0x610100346101a357601f611f7638819003918201601f19168301916001600160401b038311848410176101a75780849260a0946040528339810103126101a357610048816101bb565b90610055602082016101bb565b91610062604083016101bb565b61007a6080610073606086016101bb565b94016101bb565b6001600160a01b03909216938415610194576001600160a01b0316908115610194576001600160a01b0316918215610194576001600160a01b03841615610194576001600160a01b03169384156101945760805260a05260c05260e0525f80546001600160a01b031916919091179055604051611da690816101d0823960805181818161012c015281816104ac01528181610b8401528181611b290152611c95015260a0518181816101d6015281816103b7015281816107d301528181610c820152818161133d01528181611696015281816118550152611a32015260c0518181816102eb015281816107070152818161094101528181610bee0152818161160a01526117c6015260e051818181610a430152610e6f0152f35b63d92e233d60e01b5f5260045ffd5b5f80fd5b634e487b7160e01b5f52604160045260245ffd5b51906001600160a01b03821682036101a35756fe60806040526004361015610011575f80fd5b5f5f3560e01c80630e18b6811461146957806316c38b3c1461141b5780632292477314611265578063249d39e914611248578063267822471461121f5780633dc8f14414610ab45780635838bff714610a985780635c975abb14610a725780636052970c14610a2d57806371a5c55414610a0557806375829def146109705780637dc0d1d01461092b57806383c666dc146108fb5780639185f598146108df578063a126d601146106c4578063b1283e7714610653578063bcbaf48714610293578063c1be667714610205578063cb4c86b7146101c0578063ec979082146101a2578063ecd1dae614610185578063f851a4401461015e5763fbfa77cf14610117575f80fd5b3461015b578060031936011261015b576040517f00000000000000000000000000000000000000000000000000000000000000006001600160a01b03168152602090f35b80fd5b503461015b578060031936011261015b57546040516001600160a01b039091168152602090f35b503461015b578060031936011261015b5760206040516101f48152f35b503461015b578060031936011261015b576020600254604051908152f35b503461015b578060031936011261015b576040517f00000000000000000000000000000000000000000000000000000000000000006001600160a01b03168152602090f35b503461015b57604036600319011261015b5760e0906040906001600160a01b0361022d6114e9565b16815260036020528181206024358252602052208054906001810154906002810154600382015490600560048401549301549360ff604051968181161515885260081c161515602087015260408601526060850152608084015260a083015260c0820152f35b503461015b57604036600319011261015b576102ad6114e9565b6024359060ff60015460a01c166106445760018060a01b03811690818452600360205260408420838552602052604084209060ff82541615610635577f00000000000000000000000000000000000000000000000000000000000000006001600160a01b03169161031d856114ff565b5054926040519363832321bf60e01b85526004850152602084602481845afa9384156105c3578794610601575b5060206001610358886114ff565b50015460246040518094819363832321bf60e01b835260048301525afa9081156105c35787916105ce575b506040516248537360e31b8152600481018790526024810185905260448101919091526020816064818a6001600160a01b037f0000000000000000000000000000000000000000000000000000000000000000165af180156105c357610590575b506103f08386846119bb565b916104086103fe84846115a0565b600383015461175a565b90888213908115610589576127108302908382046127101484151715610575576001015461043591611551565b60c881101561055e57508589915f1461054e5750506101f48102908082046101f4149015171561053a57879392610473928861271088940495611ab6565b806104aa575b50506040519081527fa457abeae7105eb8bccbb20968069d940e939bc0c8d8b9c2c13aaed4755e68c360203392a480f35b7f00000000000000000000000000000000000000000000000000000000000000006001600160a01b031690813b156105365782916064839260405194859384926317d5759960e31b84528a600485015233602485015260448401525af1801561052b5715610479578161051c9161152f565b61052757835f610479565b8380fd5b6040513d84823e3d90fd5b8280fd5b634e487b7160e01b88526011600452602488fd5b9150939261047392888695611ab6565b6301f7d11160e21b8a5260045260c8602452604489fd5b634e487b7160e01b8b52601160045260248bfd5b5088610435565b6020813d6020116105bb575b816105a96020938361152f565b810103126105b757516103e4565b5f80fd5b3d915061059c565b6040513d89823e3d90fd5b90506020813d6020116105f9575b816105e96020938361152f565b810103126105b757516020610383565b3d91506105dc565b9093506020813d60201161062d575b8161061d6020938361152f565b810103126105b75751925f61034a565b3d9150610610565b63556729af60e01b8552600485fd5b6313d0ff5960e31b8352600483fd5b503461015b57602036600319011261015b576004359060025482101561015b5760c061067e836114ff565b50805490600181015490600281015460ff6003830154169060056004840154930154936040519586526020860152604085015215156060840152608083015260a0820152f35b503461015b57602036600319011261015b5760043560ff60015460a01c166108d05733825260036020526040822081835260205260ff604083205416156108c1577f00000000000000000000000000000000000000000000000000000000000000006001600160a01b031690610739816114ff565b5054906040519163832321bf60e01b83526004830152602082602481865afa91821561084d57849261088d575b5060206001610774836114ff565b50015460246040518096819363832321bf60e01b835260048301525afa92831561084d578493610858575b506040516248537360e31b815260048101829052602481018390526044810193909352602083606481876001600160a01b037f0000000000000000000000000000000000000000000000000000000000000000165af1801561084d5761081a575b61081792506108108282336119bb565b9133611ab6565b80f35b6020833d602011610845575b816108336020938361152f565b810103126105b7576108179250610800565b3d9150610826565b6040513d86823e3d90fd5b92506020833d602011610885575b816108736020938361152f565b810103126105b757915191602061079f565b3d9150610866565b9091506020813d6020116108b9575b816108a96020938361152f565b810103126105b75751905f610766565b3d915061089c565b63556729af60e01b8252600482fd5b6313d0ff5960e31b8252600482fd5b503461015b578060031936011261015b576020604051600a8152f35b503461015b57604036600319011261015b57602061092361091a6114e9565b60243590611775565b604051908152f35b503461015b578060031936011261015b576040517f00000000000000000000000000000000000000000000000000000000000000006001600160a01b03168152602090f35b503461015b57602036600319011261015b5761098a6114e9565b81546001600160a01b031690338290036109f6576001600160a01b03169081156109e757600180546001600160a01b031916831790557fb4d7bcb4d9a5d6ef6e827e3b1554e5a2578ad9ca843903d42b05d08bfa3458948380a380f35b63d92e233d60e01b8352600483fd5b637bfa4b9f60e01b8352600483fd5b503461015b57604036600319011261015b576020610923610a246114e9565b602435906115b8565b503461015b578060031936011261015b576040517f00000000000000000000000000000000000000000000000000000000000000006001600160a01b03168152602090f35b503461015b578060031936011261015b57602060ff60015460a01c166040519015158152f35b503461015b578060031936011261015b57602060405160c88152f35b503461015b57608036600319011261015b5760443590602435821515600435818503610527576064359060ff60015460a01c1661121057831592838015611208575b6111f957610b03826114ff565b509360ff600386015416156111ea57338752600360205260408720838852602052604087209060ff8254166111db5760028601548086028681048214871517156111c75788116111a75750600a870290878204600a14171561053a57612710900495610b6f878661156f565b6040516327e235e360e01b81523360048201527f00000000000000000000000000000000000000000000000000000000000000006001600160a01b03169791906020816024818c5afa90811561119c579082918c91611167575b50106110f25750805460405163832321bf60e01b8152600481019190915298998a99937f00000000000000000000000000000000000000000000000000000000000000006001600160a01b0316602086602481845afa958615611037578c966110bb575b506020600185015460246040518094819363832321bf60e01b835260048301525afa908115611037578c91611082575b506040516248537360e31b8152600481018990526024810187905260448101919091527f00000000000000000000000000000000000000000000000000000000000000006001600160a01b0316906020818e8180606481015b0391865af1801561107757611042575b5060206024916001845461ff008b60081b169061ffff1916171784558660018501558760028501558a6003850155604051928380926313778db960e11b82528c60048301525afa908115611037578c91611000575b50600482015560050186905515610feb57600401610d3a82825461156f565b90555b604051928352602083015283604083015260608201527f5cf8fa4a8e333990018876ad3a82065e68b3859d46c3198b692b77fc3043808b60803392a3813b15610f4e576040516331b5f13d60e11b81523360048201526024810191909152838160448183865af190811561084d578491610fd6575b505081610dbd575050f35b803b15610f95576040516331b5f13d60e11b815233600482015260248101839052838160448183865af190811561084d578491610fc1575b5050803b15610f9557604051637a040c5b60e11b815230600482015260248101839052838160448183865af190811561084d578491610fac575b505060206004916040519283809263d8dfeb4560e01b82525afa908115610fa1578391610f5b575b5060405163095ea7b360e01b81526001600160a01b037f000000000000000000000000000000000000000000000000000000000000000081811660048401526024830185905292602091839160449183918991165af1801561084d57610f1b575b50604460609260405194859384926364d6def960e01b8452600484015230602484015260018060a01b03165af1801561052b57610ef3575080f35b606090813d8311610f14575b610f09818361152f565b8101031261015b5780f35b503d610eff565b6020813d602011610f53575b81610f346020938361152f565b81010312610f4e57518015158103610f4e57506044610eb8565b505050fd5b3d9150610f27565b90506020813d602011610f99575b81610f766020938361152f565b81010312610f9557516001600160a01b0381168103610f95575f610e57565b5050fd5b3d9150610f69565b6040513d85823e3d90fd5b81610fb69161152f565b610f9557825f610e2f565b81610fcb9161152f565b610f9557825f610df5565b81610fe09161152f565b610f9557825f610db2565b600501610ff982825461156f565b9055610d3d565b9b505060208b3d60201161102f575b8161101c6020938361152f565b810103126105b75799518b9a9087610d1b565b3d915061100f565b6040513d8e823e3d90fd5b9b5060208c3d60201161106f575b8161105d6020938361152f565b810103126105b7578c9b506020610cc6565b3d9150611050565b6040513d8f823e3d90fd5b9b505060208b3d6020116110b3575b8161109e6020938361152f565b810103126105b75799518b9a90610cb6610c5d565b3d9150611091565b9b50945060208b3d6020116110ea575b816110d86020938361152f565b810103126105b7578b9a51945f610c2d565b3d91506110cb565b6040516327e235e360e01b8152336004820152908a906020836024818d5afa801561052b578290611134575b633af8647b60e01b835260045260245260449150fd5b506020833d60201161115f575b8161114e6020938361152f565b810103126105b7576044925161111e565b3d9150611141565b9150506020813d602011611194575b816111836020938361152f565b810103126105b7578190515f610bc9565b3d9150611176565b6040513d8d823e3d90fd5b886044916111b5888b611551565b633b7b1e4b60e01b8352600452602452fd5b634e487b7160e01b8a52601160045260248afd5b631f19c11d60e01b8852600488fd5b635a90bb8d60e11b8752600487fd5b631f2a200560e01b8652600486fd5b508215610af6565b6313d0ff5960e31b8552600485fd5b503461015b578060031936011261015b576001546040516001600160a01b039091168152602090f35b503461015b578060031936011261015b5760206040516127108152f35b346105b75760603660031901126105b7575f5460043590604435906001600160a01b0316330361140c576002549060405160c0810181811067ffffffffffffffff8211176113f8576040528381526020810190602435825260408101838152606082016001815260808301905f825260a08401925f8452680100000000000000008810156113f857600188016002556112fd886114ff565b9690966113e557600595518755516001870155516002860155600385019051151560ff801983541691161790555160048401555191015560018060a01b037f000000000000000000000000000000000000000000000000000000000000000016803b156105b7575f809160246040518094819363f11db84560e01b83528860048401525af180156113da5760209484937ff7154dd385fd97f5acd402bbddfc43353a65d67ed869dc6e507a9f99d6a2040d936040936113ca575b50825191825286820152a2604051908152f35b5f6113d49161152f565b5f6113b7565b6040513d5f823e3d90fd5b634e487b7160e01b5f525f60045260245ffd5b634e487b7160e01b5f52604160045260245ffd5b637bfa4b9f60e01b5f5260045ffd5b346105b75760203660031901126105b7576004358015158091036105b7575f546001600160a01b0316330361140c576001805460ff60a01b191660a09290921b60ff60a01b16919091179055005b346105b7575f3660031901126105b7576001546001600160a01b03811690338290036114da575f80546001600160a01b0319808216851783559092166001556001600160a01b03909116907ff8ccb027dfcd135e000e9d45e6cc2d662578a8825d4c45b5e32e0adf67e79ec69080a3005b63058d9a1b60e01b5f5260045ffd5b600435906001600160a01b03821682036105b757565b60025481101561151b5760025f52600660205f20910201905f90565b634e487b7160e01b5f52603260045260245ffd5b90601f8019910116810190811067ffffffffffffffff8211176113f857604052565b811561155b570490565b634e487b7160e01b5f52601260045260245ffd5b9190820180921161157c57565b634e487b7160e01b5f52601160045260245ffd5b600160ff1b811461157c575f0390565b81810392915f13801582851316918412161761157c57565b60018060a01b03165f52600360205260405f20815f5260205260405f2080549060ff821615611753576115ea836114ff565b505460405163832321bf60e01b81526004810191909152906020826024817f00000000000000000000000000000000000000000000000000000000000000006001600160a01b03165afa9182156113da575f9261171e575b5060ff61165160209383611954565b9360081c16156117095760046001820154915b01546040516345eab49560e01b8152600481019290925260248201526044810193909352826064816001600160a01b037f0000000000000000000000000000000000000000000000000000000000000000165afa9081156113da575f916116d3575b6116d092506115a0565b90565b90506020823d602011611701575b816116ee6020938361152f565b810103126105b7576116d09151906116c6565b3d91506116e1565b60046117186001830154611590565b91611664565b91506020823d60201161174b575b816117396020938361152f565b810103126105b75790519060ff611642565b3d915061172c565b5050505f90565b9190915f838201938412911290801582169115161761157c57565b60018060a01b03165f52600360205260405f20815f5260205260405f2090815460ff81161561194c576117a7826114ff565b505460405163832321bf60e01b815260048101919091526020816024817f00000000000000000000000000000000000000000000000000000000000000006001600160a01b03165afa9081156113da575f91611918575b5061180b60ff9185611954565b9160081c161561190457602060018401545b6004858101546040516345eab49560e01b81529182019290925260248101919091526044810193909352826064816001600160a01b037f0000000000000000000000000000000000000000000000000000000000000000165afa9182156113da575f926118ce575b509061189861189d92600385015461175a565b6115a0565b5f8113156118c857612710810290808204612710149015171561157c5760016116d092015490611551565b50505f90565b91506020823d6020116118fc575b816118e96020938361152f565b810103126105b757905190611898611885565b3d91506118dc565b60206119136001850154611590565b61181d565b90506020813d602011611944575b816119336020938361152f565b810103126105b7575161180b6117fe565b3d9150611926565b5050505f1990565b90611964600283015480926115a0565b600183015480820292915f8212600160ff1b82141661157c57818405149015171561157c57801561155b57600160ff1b82145f1982141661157c5760ff9105915460081c165f146119b25790565b6116d090611590565b6001600160a01b03165f908152600360209081526040808320848452825290912093926119e89085611954565b9360ff815460081c165f14611a945760046001820154915b01546040516345eab49560e01b8152600481019290925260248201526044810192909252816064816001600160a01b037f0000000000000000000000000000000000000000000000000000000000000000165afa9081156113da575f91611a65575090565b90506020813d602011611a8c575b81611a806020938361152f565b810103126105b7575190565b3d9150611a73565b6004611aa36001830154611590565b91611a00565b9190820391821161157c57565b93929190925f9460018060a01b03811693845f52600360205260405f20865f52602052611b1560405f2091611aea886114ff565b50835460081c60ff1615611d5557611b0c600460018601549201918254611aa9565b90555b856115a0565b86865f8312611c42575050600391909101547f00000000000000000000000000000000000000000000000000000000000000006001600160a01b031691611b5b9161156f565b91813b15611c3e5760405163ef6506db60e01b81526001600160a01b03919091166004820152602481019290925286908290604490829084905af18015611c335791868694928694611c11575b50507f16783b3f0676d6e63220b161cedd5415bd909d2f96353db363fbd217a00971b4916040915b82519182526020820152a382526003602052604082209082526020526005604082208281558260018201558260028201558260038201558260048201550155565b81939550611c2092945061152f565b611c2f5783918391865f611ba8565b8480fd5b6040513d88823e3d90fd5b8780fd5b949291611c5460039197959297611590565b92015491828110611c8d575b5050507f16783b3f0676d6e63220b161cedd5415bd909d2f96353db363fbd217a00971b491604091611bd0565b9395509193507f00000000000000000000000000000000000000000000000000000000000000006001600160a01b031692611cc791611aa9565b823b156105b75760405163ef6506db60e01b81526001600160a01b039290921660048301526024820152905f908290604490829084905af180156113da57611d16575b91839183808795611c60565b8391955060408593611d495f7f16783b3f0676d6e63220b161cedd5415bd909d2f96353db363fbd217a00971b49461152f565b5f979350935050611d0a565b611d69600560018601549201918254611aa9565b9055611b0f56fea2646970667358221220ba298b9044c727d47fab173453f7e8da9b89ee4d33c4d2435e832d485a7bafb564736f6c63430008210033000000000000000000000000b22c255250d74b0add1bfb936676d2a299bf48bd000000000000000000000000fd2cf3b56a73c75a7535ffe44ebabe7723c64719000000000000000000000000f5c4a909455c00b99a90d93b48736f3196db562100000000000000000000000076d05f58d14c0838ec630c8140edc5ab7cd159dc000000000000000000000000f39fd6e51aad88f6f4ce6ab8827279cfffb92266",
        "nonce": "0x2ed",
        "chainId": "0xa455"
      },
      "additionalContracts": [],
      "isFixedGasLimit": false
    },
    {
      "hash": "0x3c634cf35e1b4f93b8aec0de633dec4e3b1d8e09da96046de317694293770612",
      "transactionType": "CALL",
      "contractName": null,
      "contractAddress": "0xfd2cf3b56a73c75a7535ffe44ebabe7723c64719",
      "function": "setPerpEngine(address)",
      "arguments": [
        "0xe8c3F27D20472e4f3C546A3f73C04B54DD72871d"
      ],
      "transaction": {
        "from": "0xf39fd6e51aad88f6f4ce6ab8827279cfffb92266",
        "to": "0xfd2cf3b56a73c75a7535ffe44ebabe7723c64719",
        "gas": "0xa538",
        "value": "0x0",
        "input": "0xb619daf7000000000000000000000000e8c3f27d20472e4f3c546a3f73c04b54dd72871d",
        "nonce": "0x2ee",
        "chainId": "0xa455"
      },
      "additionalContracts": [],
      "isFixedGasLimit": false
    },
    {
      "hash": "0x3023e4a0dc14c1037459f219e1d0a9d66b7d8f294d8c378d9c3b3e1dc11c0f05",
      "transactionType": "CALL",
      "contractName": null,
      "contractAddress": "0xb22c255250d74b0add1bfb936676d2a299bf48bd",
      "function": "setPerpEngine(address)",
      "arguments": [
        "0xe8c3F27D20472e4f3C546A3f73C04B54DD72871d"
      ],
      "transaction": {
        "from": "0xf39fd6e51aad88f6f4ce6ab8827279cfffb92266",
        "to": "0xb22c255250d74b0add1bfb936676d2a299bf48bd",
        "gas": "0xa55b",
        "value": "0x0",
        "input": "0xb619daf7000000000000000000000000e8c3f27d20472e4f3c546a3f73c04b54dd72871d",
        "nonce": "0x2ef",
        "chainId": "0xa455"
      },
      "additionalContracts": [],
      "isFixedGasLimit": false
    },
    {
      "hash": "0x7eca83dafe656fd5716ecd3a3024bcf9609cb910f8b83ad5552aa9cf47dc9be2",
      "transactionType": "CALL",
      "contractName": "PerpEngine",
      "contractAddress": "0xe8c3f27d20472e4f3c546a3f73c04b54dd72871d",
      "function": "createMarket(bytes32,bytes32,uint256)",
      "arguments": [
        "0xe98e2830be1a7e4156d656a7505e65d08c67660dc618072422e9c78053c261e9",
        "0xe98e2830be1a7e4156d656a7505e65d08c67660dc618072422e9c78053c261e9",
        "50"
      ],
      "transaction": {
        "from": "0xf39fd6e51aad88f6f4ce6ab8827279cfffb92266",
        "to": "0xe8c3f27d20472e4f3c546a3f73c04b54dd72871d",
        "gas": "0x3728a",
        "value": "0x0",
        "input": "0x22924773e98e2830be1a7e4156d656a7505e65d08c67660dc618072422e9c78053c261e9e98e2830be1a7e4156d656a7505e65d08c67660dc618072422e9c78053c261e90000000000000000000000000000000000000000000000000000000000000032",
        "nonce": "0x2f0",
        "chainId": "0xa455"
      },
      "additionalContracts": [],
      "isFixedGasLimit": false
    },
    {
      "hash": "0xd0f70b1165a10670b7365abf9b851473373426a06de3f89119584213eee8b308",
      "transactionType": "CALL",
      "contractName": "PerpEngine",
      "contractAddress": "0xe8c3f27d20472e4f3c546a3f73c04b54dd72871d",
      "function": "createMarket(bytes32,bytes32,uint256)",
      "arguments": [
        "0xaaaebeba3810b1e6b70781f14b2d72c1cb89c0b2b320c43bb67ff79f562f5ff4",
        "0xaaaebeba3810b1e6b70781f14b2d72c1cb89c0b2b320c43bb67ff79f562f5ff4",
        "50"
      ],
      "transaction": {
        "from": "0xf39fd6e51aad88f6f4ce6ab8827279cfffb92266",
        "to": "0xe8c3f27d20472e4f3c546a3f73c04b54dd72871d",
        "gas": "0x2e53f",
        "value": "0x0",
        "input": "0x22924773aaaebeba3810b1e6b70781f14b2d72c1cb89c0b2b320c43bb67ff79f562f5ff4aaaebeba3810b1e6b70781f14b2d72c1cb89c0b2b320c43bb67ff79f562f5ff40000000000000000000000000000000000000000000000000000000000000032",
        "nonce": "0x2f1",
        "chainId": "0xa455"
      },
      "additionalContracts": [],
      "isFixedGasLimit": false
    },
    {
      "hash": "0x9ca988ce6da85ee14db29e0fafbd37aa34d1eea3faae2e0762e9b7f07b691669",
      "transactionType": "CALL",
      "contractName": "PerpEngine",
      "contractAddress": "0xe8c3f27d20472e4f3c546a3f73c04b54dd72871d",
      "function": "createMarket(bytes32,bytes32,uint256)",
      "arguments": [
        "0x0a3ec4fc70eaf64faf6eeda4e9b2bd4742a785464053aa23afad8bd24650e86f",
        "0x0a3ec4fc70eaf64faf6eeda4e9b2bd4742a785464053aa23afad8bd24650e86f",
        "25"
      ],
      "transaction": {
        "from": "0xf39fd6e51aad88f6f4ce6ab8827279cfffb92266",
        "to": "0xe8c3f27d20472e4f3c546a3f73c04b54dd72871d",
        "gas": "0x2e53f",
        "value": "0x0",
        "input": "0x229247730a3ec4fc70eaf64faf6eeda4e9b2bd4742a785464053aa23afad8bd24650e86f0a3ec4fc70eaf64faf6eeda4e9b2bd4742a785464053aa23afad8bd24650e86f0000000000000000000000000000000000000000000000000000000000000019",
        "nonce": "0x2f2",
        "chainId": "0xa455"
      },
      "additionalContracts": [],
      "isFixedGasLimit": false
    },
    {
      "hash": "0xb1d98860de07a6589697db4ef5994dbff3e252d0d8d7cbf9b266557d184e8db9",
      "transactionType": "CALL",
      "contractName": "PerpEngine",
      "contractAddress": "0xe8c3f27d20472e4f3c546a3f73c04b54dd72871d",
      "function": "createMarket(bytes32,bytes32,uint256)",
      "arguments": [
        "0x3ed03c38e59dc60c7b69c2a4bf68f9214acd953252b5a90e8f5f59583e9bc3ae",
        "0x3ed03c38e59dc60c7b69c2a4bf68f9214acd953252b5a90e8f5f59583e9bc3ae",
        "25"
      ],
      "transaction": {
        "from": "0xf39fd6e51aad88f6f4ce6ab8827279cfffb92266",
        "to": "0xe8c3f27d20472e4f3c546a3f73c04b54dd72871d",
        "gas": "0x2e53f",
        "value": "0x0",
        "input": "0x229247733ed03c38e59dc60c7b69c2a4bf68f9214acd953252b5a90e8f5f59583e9bc3ae3ed03c38e59dc60c7b69c2a4bf68f9214acd953252b5a90e8f5f59583e9bc3ae0000000000000000000000000000000000000000000000000000000000000019",
        "nonce": "0x2f3",
        "chainId": "0xa455"
      },
      "additionalContracts": [],
      "isFixedGasLimit": false
    },
    {
      "hash": "0x1213f098f15b8a6416915247ec483ba8a8ab15479fee773f9c83c503b4bb9f4b",
      "transactionType": "CALL",
      "contractName": "PerpEngine",
      "contractAddress": "0xe8c3f27d20472e4f3c546a3f73c04b54dd72871d",
      "function": "createMarket(bytes32,bytes32,uint256)",
      "arguments": [
        "0xa6a7de01e8b7ba6a4a61c782a73188d808fc1f3cf5743fadb68a02ed884b594f",
        "0xa6a7de01e8b7ba6a4a61c782a73188d808fc1f3cf5743fadb68a02ed884b594f",
        "20"
      ],
      "transaction": {
        "from": "0xf39fd6e51aad88f6f4ce6ab8827279cfffb92266",
        "to": "0xe8c3f27d20472e4f3c546a3f73c04b54dd72871d",
        "gas": "0x2e53f",
        "value": "0x0",
        "input": "0x22924773a6a7de01e8b7ba6a4a61c782a73188d808fc1f3cf5743fadb68a02ed884b594fa6a7de01e8b7ba6a4a61c782a73188d808fc1f3cf5743fadb68a02ed884b594f0000000000000000000000000000000000000000000000000000000000000014",
        "nonce": "0x2f4",
        "chainId": "0xa455"
      },
      "additionalContracts": [],
      "isFixedGasLimit": false
    },
    {
      "hash": "0x5d6a2e0b6d461fafb40d35015689b81c933ace788005ee368d7e6b9dd44a2b89",
      "transactionType": "CALL",
      "contractName": "PerpEngine",
      "contractAddress": "0xe8c3f27d20472e4f3c546a3f73c04b54dd72871d",
      "function": "createMarket(bytes32,bytes32,uint256)",
      "arguments": [
        "0xc07524b7a4eecc2784fc7ac17ff2730f877f3cf7a2ceb4e2375fa40a103115d0",
        "0xc07524b7a4eecc2784fc7ac17ff2730f877f3cf7a2ceb4e2375fa40a103115d0",
        "20"
      ],
      "transaction": {
        "from": "0xf39fd6e51aad88f6f4ce6ab8827279cfffb92266",
        "to": "0xe8c3f27d20472e4f3c546a3f73c04b54dd72871d",
        "gas": "0x2e53f",
        "value": "0x0",
        "input": "0x22924773c07524b7a4eecc2784fc7ac17ff2730f877f3cf7a2ceb4e2375fa40a103115d0c07524b7a4eecc2784fc7ac17ff2730f877f3cf7a2ceb4e2375fa40a103115d00000000000000000000000000000000000000000000000000000000000000014",
        "nonce": "0x2f5",
        "chainId": "0xa455"
      },
      "additionalContracts": [],
      "isFixedGasLimit": false
    }
  ],
  "receipts": [
    {
      "status": "0x1",
      "cumulativeGasUsed": "0x112a97",
      "logs": [],
      "logsBloom": "0x00000000000000000000000000000000000000000000000000000000000000000000000000000000000000000000000000000000000000000000000000000000000000000000000000000000000000000000000000000000000000000000000000000000000000000000000000000000000000000000000000000000000000000000000000000000000000000000000000000000000000000000000000000000000000000000000000000000000000000000000000000000000000000000000000000000000000000000000000000000000000000000000000000000000000000000000000000000000000000000000000000000000000000000000000000000",
      "type": "0x0",
      "transactionHash": "0x204cf41fc27bf083bbf18f52c7d5f157219654009e10e6dce03a15f2dd29a3c5",
      "transactionIndex": "0x0",
      "blockHash": "0x36e57d5d905864fc23ea645894affa659f7506edaeed2ec7b6b864c48616d0b4",
      "blockNumber": "0xe6ed",
      "gasUsed": "0x112a97",
      "effectiveGasPrice": "0x3b9aca07",
      "blobGasPrice": "0x1",
      "from": "0xf39fd6e51aad88f6f4ce6ab8827279cfffb92266",
      "to": null,
      "contractAddress": "0x76d05f58d14c0838ec630c8140edc5ab7cd159dc",
      "blockTimestamp": 1775445511
    },
    {
      "status": "0x1",
      "cumulativeGasUsed": "0x2b6464",
      "logs": [],
      "logsBloom": "0x00000000000000000000000000000000000000000000000000000000000000000000000000000000000000000000000000000000000000000000000000000000000000000000000000000000000000000000000000000000000000000000000000000000000000000000000000000000000000000000000000000000000000000000000000000000000000000000000000000000000000000000000000000000000000000000000000000000000000000000000000000000000000000000000000000000000000000000000000000000000000000000000000000000000000000000000000000000000000000000000000000000000000000000000000000000",
      "type": "0x0",
      "transactionHash": "0x390dd9091e306502316de20b303d4f87b94272a92b9e1643d245389b45e0a37e",
      "transactionIndex": "0x1",
      "blockHash": "0x36e57d5d905864fc23ea645894affa659f7506edaeed2ec7b6b864c48616d0b4",
      "blockNumber": "0xe6ed",
      "gasUsed": "0x1a39cd",
      "effectiveGasPrice": "0x3b9aca07",
      "blobGasPrice": "0x1",
      "from": "0xf39fd6e51aad88f6f4ce6ab8827279cfffb92266",
      "to": null,
      "contractAddress": "0xe8c3f27d20472e4f3c546a3f73c04b54dd72871d",
      "blockTimestamp": 1775445511
    },
    {
      "status": "0x1",
      "cumulativeGasUsed": "0x2bd55d",
      "logs": [],
      "logsBloom": "0x00000000000000000000000000000000000000000000000000000000000000000000000000000000000000000000000000000000000000000000000000000000000000000000000000000000000000000000000000000000000000000000000000000000000000000000000000000000000000000000000000000000000000000000000000000000000000000000000000000000000000000000000000000000000000000000000000000000000000000000000000000000000000000000000000000000000000000000000000000000000000000000000000000000000000000000000000000000000000000000000000000000000000000000000000000000",
      "type": "0x0",
      "transactionHash": "0x9ca988ce6da85ee14db29e0fafbd37aa34d1eea3faae2e0762e9b7f07b691669",
      "transactionIndex": "0x2",
      "blockHash": "0x36e57d5d905864fc23ea645894affa659f7506edaeed2ec7b6b864c48616d0b4",
      "blockNumber": "0xe6ed",
      "gasUsed": "0x70f9",
      "effectiveGasPrice": "0x3b9aca07",
      "blobGasPrice": "0x1",
      "from": "0xf39fd6e51aad88f6f4ce6ab8827279cfffb92266",
      "to": "0xfd2cf3b56a73c75a7535ffe44ebabe7723c64719",
      "contractAddress": null,
      "blockTimestamp": 1775445511
    },
    {
      "status": "0x1",
      "cumulativeGasUsed": "0x2c466e",
      "logs": [],
      "logsBloom": "0x00000000000000000000000000000000000000000000000000000000000000000000000000000000000000000000000000000000000000000000000000000000000000000000000000000000000000000000000000000000000000000000000000000000000000000000000000000000000000000000000000000000000000000000000000000000000000000000000000000000000000000000000000000000000000000000000000000000000000000000000000000000000000000000000000000000000000000000000000000000000000000000000000000000000000000000000000000000000000000000000000000000000000000000000000000000",
      "type": "0x0",
      "transactionHash": "0x7eca83dafe656fd5716ecd3a3024bcf9609cb910f8b83ad5552aa9cf47dc9be2",
      "transactionIndex": "0x3",
      "blockHash": "0x36e57d5d905864fc23ea645894affa659f7506edaeed2ec7b6b864c48616d0b4",
      "blockNumber": "0xe6ed",
      "gasUsed": "0x7111",
      "effectiveGasPrice": "0x3b9aca07",
      "blobGasPrice": "0x1",
      "from": "0xf39fd6e51aad88f6f4ce6ab8827279cfffb92266",
      "to": "0xb22c255250d74b0add1bfb936676d2a299bf48bd",
      "contractAddress": null,
      "blockTimestamp": 1775445511
    },
    {
      "status": "0x1",
      "cumulativeGasUsed": "0x2ea1e1",
      "logs": [
        {
          "address": "0xe8c3f27d20472e4f3c546a3f73c04b54dd72871d",
          "topics": [
            "0xf7154dd385fd97f5acd402bbddfc43353a65d67ed869dc6e507a9f99d6a2040d",
            "0x0000000000000000000000000000000000000000000000000000000000000000"
          ],
          "data": "0xe98e2830be1a7e4156d656a7505e65d08c67660dc618072422e9c78053c261e90000000000000000000000000000000000000000000000000000000000000032",
          "blockHash": "0x36e57d5d905864fc23ea645894affa659f7506edaeed2ec7b6b864c48616d0b4",
          "blockNumber": "0xe6ed",
          "blockTimestamp": "0x69d32607",
          "transactionHash": "0xb1d98860de07a6589697db4ef5994dbff3e252d0d8d7cbf9b266557d184e8db9",
          "transactionIndex": "0x4",
          "logIndex": "0x0",
          "removed": false
        }
      ],
      "logsBloom": "0x00000000000000000000000000000000000000000000000000000000000000000000000000000000000000000000000000000000000000008000000000000000000000000000000000000000000010200000000000000000000000000000000000000000020000000000000000000800000000000000000000000000000000000000000000000000000000000000000000000000000000400000000000000000000000000000000000200000000000000000000000000000000000000000000000800000000000000000000000000000000000000000000000000000000020000000000000000000000000000000000000000000000000000000000000000000",
      "type": "0x0",
      "transactionHash": "0xb1d98860de07a6589697db4ef5994dbff3e252d0d8d7cbf9b266557d184e8db9",
      "transactionIndex": "0x4",
      "blockHash": "0x36e57d5d905864fc23ea645894affa659f7506edaeed2ec7b6b864c48616d0b4",
      "blockNumber": "0xe6ed",
      "gasUsed": "0x25b73",
      "effectiveGasPrice": "0x3b9aca07",
      "blobGasPrice": "0x1",
      "from": "0xf39fd6e51aad88f6f4ce6ab8827279cfffb92266",
      "to": "0xe8c3f27d20472e4f3c546a3f73c04b54dd72871d",
      "contractAddress": null,
      "blockTimestamp": 1775445511
    },
    {
      "status": "0x1",
      "cumulativeGasUsed": "0x30ba88",
      "logs": [
        {
          "address": "0xe8c3f27d20472e4f3c546a3f73c04b54dd72871d",
          "topics": [
            "0xf7154dd385fd97f5acd402bbddfc43353a65d67ed869dc6e507a9f99d6a2040d",
            "0x0000000000000000000000000000000000000000000000000000000000000001"
          ],
          "data": "0xaaaebeba3810b1e6b70781f14b2d72c1cb89c0b2b320c43bb67ff79f562f5ff40000000000000000000000000000000000000000000000000000000000000032",
          "blockHash": "0x36e57d5d905864fc23ea645894affa659f7506edaeed2ec7b6b864c48616d0b4",
          "blockNumber": "0xe6ed",
          "blockTimestamp": "0x69d32607",
          "transactionHash": "0x3023e4a0dc14c1037459f219e1d0a9d66b7d8f294d8c378d9c3b3e1dc11c0f05",
          "transactionIndex": "0x5",
          "logIndex": "0x1",
          "removed": false
        }
      ],
      "logsBloom": "0x00000000000000000000000000000000000000000000000000000000000000000000000000000000000000000000000000000000000000008000000000040000000000000000000000000000000010200000000000040000000000000000000000000000000000000000000000000000000000000000000000000000000000000000000000000000000000000000000000000000000000400000000000000000000000000000000000200000000000000000000000000000000000000000000000800000000000000000000000000000000000000000000000000000000040000000000000000000000000000000000000000000000000000000000000000000",
      "type": "0x0",
      "transactionHash": "0x3023e4a0dc14c1037459f219e1d0a9d66b7d8f294d8c378d9c3b3e1dc11c0f05",
      "transactionIndex": "0x5",
      "blockHash": "0x36e57d5d905864fc23ea645894affa659f7506edaeed2ec7b6b864c48616d0b4",
      "blockNumber": "0xe6ed",
      "gasUsed": "0x218a7",
      "effectiveGasPrice": "0x3b9aca07",
      "blobGasPrice": "0x1",
      "from": "0xf39fd6e51aad88f6f4ce6ab8827279cfffb92266",
      "to": "0xe8c3f27d20472e4f3c546a3f73c04b54dd72871d",
      "contractAddress": null,
      "blockTimestamp": 1775445511
    },
    {
      "status": "0x1",
      "cumulativeGasUsed": "0x32d32f",
      "logs": [
        {
          "address": "0xe8c3f27d20472e4f3c546a3f73c04b54dd72871d",
          "topics": [
            "0xf7154dd385fd97f5acd402bbddfc43353a65d67ed869dc6e507a9f99d6a2040d",
            "0x0000000000000000000000000000000000000000000000000000000000000002"
          ],
          "data": "0x0a3ec4fc70eaf64faf6eeda4e9b2bd4742a785464053aa23afad8bd24650e86f0000000000000000000000000000000000000000000000000000000000000019",
          "blockHash": "0x36e57d5d905864fc23ea645894affa659f7506edaeed2ec7b6b864c48616d0b4",
          "blockNumber": "0xe6ed",
          "blockTimestamp": "0x69d32607",
          "transactionHash": "0xd0f70b1165a10670b7365abf9b851473373426a06de3f89119584213eee8b308",
          "transactionIndex": "0x6",
          "logIndex": "0x2",
          "removed": false
        }
      ],
      "logsBloom": "0x04000000000000000000000000000000000000000000000000000000000000000000000000000000000000000000000000000000000000008000000000000000000000000000000000000000000010200000000000000000000000000000000000000000000000000000000000000000000000000000000000000000000000000000000000000000000000000000000000000000000000400000000000000000000000000000000000200100000000000000000000000000000000000000000000800000000000000000000000000000000000000000000000000000000000000000000000000000000000000000000000000000008000000000000000000000",
      "type": "0x0",
      "transactionHash": "0xd0f70b1165a10670b7365abf9b851473373426a06de3f89119584213eee8b308",
      "transactionIndex": "0x6",
      "blockHash": "0x36e57d5d905864fc23ea645894affa659f7506edaeed2ec7b6b864c48616d0b4",
      "blockNumber": "0xe6ed",
      "gasUsed": "0x218a7",
      "effectiveGasPrice": "0x3b9aca07",
      "blobGasPrice": "0x1",
      "from": "0xf39fd6e51aad88f6f4ce6ab8827279cfffb92266",
      "to": "0xe8c3f27d20472e4f3c546a3f73c04b54dd72871d",
      "contractAddress": null,
      "blockTimestamp": 1775445511
    },
    {
      "status": "0x1",
      "cumulativeGasUsed": "0x34ebd6",
      "logs": [
        {
          "address": "0xe8c3f27d20472e4f3c546a3f73c04b54dd72871d",
          "topics": [
            "0xf7154dd385fd97f5acd402bbddfc43353a65d67ed869dc6e507a9f99d6a2040d",
            "0x0000000000000000000000000000000000000000000000000000000000000003"
          ],
          "data": "0x3ed03c38e59dc60c7b69c2a4bf68f9214acd953252b5a90e8f5f59583e9bc3ae0000000000000000000000000000000000000000000000000000000000000019",
          "blockHash": "0x36e57d5d905864fc23ea645894affa659f7506edaeed2ec7b6b864c48616d0b4",
          "blockNumber": "0xe6ed",
          "blockTimestamp": "0x69d32607",
          "transactionHash": "0x5d6a2e0b6d461fafb40d35015689b81c933ace788005ee368d7e6b9dd44a2b89",
          "transactionIndex": "0x7",
          "logIndex": "0x3",
          "removed": false
        }
      ],
      "logsBloom": "0x00000000000000000000000000000000000000000000000000000000000000000000000000000000000000000000000000000000020000008000000000000000000000000000000000000000000010200000000000000000000000000000000000000000000000000000000000000000000000000000000000000000000000000000000000000000000000000000000000000000000000400000000000000000000000000000000000200000000000000000000000800000000000000000400000800000000000000000000000000000000000000000000000000000000000000000000000000000000000000000000000000000000000000000000000000000",
      "type": "0x0",
      "transactionHash": "0x5d6a2e0b6d461fafb40d35015689b81c933ace788005ee368d7e6b9dd44a2b89",
      "transactionIndex": "0x7",
      "blockHash": "0x36e57d5d905864fc23ea645894affa659f7506edaeed2ec7b6b864c48616d0b4",
      "blockNumber": "0xe6ed",
      "gasUsed": "0x218a7",
      "effectiveGasPrice": "0x3b9aca07",
      "blobGasPrice": "0x1",
      "from": "0xf39fd6e51aad88f6f4ce6ab8827279cfffb92266",
      "to": "0xe8c3f27d20472e4f3c546a3f73c04b54dd72871d",
      "contractAddress": null,
      "blockTimestamp": 1775445511
    },
    {
      "status": "0x1",
      "cumulativeGasUsed": "0x37047d",
      "logs": [
        {
          "address": "0xe8c3f27d20472e4f3c546a3f73c04b54dd72871d",
          "topics": [
            "0xf7154dd385fd97f5acd402bbddfc43353a65d67ed869dc6e507a9f99d6a2040d",
            "0x0000000000000000000000000000000000000000000000000000000000000004"
          ],
          "data": "0xa6a7de01e8b7ba6a4a61c782a73188d808fc1f3cf5743fadb68a02ed884b594f0000000000000000000000000000000000000000000000000000000000000014",
          "blockHash": "0x36e57d5d905864fc23ea645894affa659f7506edaeed2ec7b6b864c48616d0b4",
          "blockNumber": "0xe6ed",
          "blockTimestamp": "0x69d32607",
          "transactionHash": "0x1213f098f15b8a6416915247ec483ba8a8ab15479fee773f9c83c503b4bb9f4b",
          "transactionIndex": "0x8",
          "logIndex": "0x4",
          "removed": false
        }
      ],
      "logsBloom": "0x00000000000000000000000000000000000000000000000000000000000000000000000000000000000000000000000000000000000000008000000000000000000000000000000000000000000010200000000000000000000000000000000008000000000000000000000000000000000000000000000000000000000000000000000000000000000000000000000000000000000000400000000000000000000000000000000000200000000000000000000000000000002000000000000000800000000000000000000000000000000000008000000000000000000000000000000000000000000000000000000000000000000000000000000000000000",
      "type": "0x0",
      "transactionHash": "0x1213f098f15b8a6416915247ec483ba8a8ab15479fee773f9c83c503b4bb9f4b",
      "transactionIndex": "0x8",
      "blockHash": "0x36e57d5d905864fc23ea645894affa659f7506edaeed2ec7b6b864c48616d0b4",
      "blockNumber": "0xe6ed",
      "gasUsed": "0x218a7",
      "effectiveGasPrice": "0x3b9aca07",
      "blobGasPrice": "0x1",
      "from": "0xf39fd6e51aad88f6f4ce6ab8827279cfffb92266",
      "to": "0xe8c3f27d20472e4f3c546a3f73c04b54dd72871d",
      "contractAddress": null,
      "blockTimestamp": 1775445511
    },
    {
      "status": "0x1",
      "cumulativeGasUsed": "0x391d24",
      "logs": [
        {
          "address": "0xe8c3f27d20472e4f3c546a3f73c04b54dd72871d",
          "topics": [
            "0xf7154dd385fd97f5acd402bbddfc43353a65d67ed869dc6e507a9f99d6a2040d",
            "0x0000000000000000000000000000000000000000000000000000000000000005"
          ],
          "data": "0xc07524b7a4eecc2784fc7ac17ff2730f877f3cf7a2ceb4e2375fa40a103115d00000000000000000000000000000000000000000000000000000000000000014",
          "blockHash": "0x36e57d5d905864fc23ea645894affa659f7506edaeed2ec7b6b864c48616d0b4",
          "blockNumber": "0xe6ed",
          "blockTimestamp": "0x69d32607",
          "transactionHash": "0x3c634cf35e1b4f93b8aec0de633dec4e3b1d8e09da96046de317694293770612",
          "transactionIndex": "0x9",
          "logIndex": "0x5",
          "removed": false
        }
      ],
      "logsBloom": "0x00000000000000000000000000000000000000000000000000000000000000000000000000000000000000000000000000000000000000008000000000000000000010000000000000000000000010200000000000000000000000000000000000000000000000000000000000000000000000000000000000000000000000000000000000000000000000000000001000000800000000400000000000000000000000000000000000200000000000000000000000000000000000000000000000800000000000000000000000000000000000000000000000000000000000000000000000000000000000000000000000000000000000000000000000000000",
      "type": "0x0",
      "transactionHash": "0x3c634cf35e1b4f93b8aec0de633dec4e3b1d8e09da96046de317694293770612",
      "transactionIndex": "0x9",
      "blockHash": "0x36e57d5d905864fc23ea645894affa659f7506edaeed2ec7b6b864c48616d0b4",
      "blockNumber": "0xe6ed",
      "gasUsed": "0x218a7",
      "effectiveGasPrice": "0x3b9aca07",
      "blobGasPrice": "0x1",
      "from": "0xf39fd6e51aad88f6f4ce6ab8827279cfffb92266",
      "to": "0xe8c3f27d20472e4f3c546a3f73c04b54dd72871d",
      "contractAddress": null,
      "blockTimestamp": 1775445511
    }
  ],
  "libraries": [],
  "pending": [],
  "returns": {},
  "timestamp": 1775445511762,
  "chain": 42069,
  "commit": "3c7e1b4"
}