{
  "transactions": [
    {
      "hash": "0x84425eb16a583262036cabd09c2f47cb0b1a49834dd9d1dde8ca96ed144922fe",
      "transactionType": "CREATE",
      "contractName": "MockERC20",
      "contractAddress": "0x5eb3bc0a489c5a8288765d2336659ebca68fcd00",
      "function": null,
      "arguments": [
        "GoodDollar",
        "G$",
        "18"
      ],
      "transaction": {
        "from": "0xf39fd6e51aad88f6f4ce6ab8827279cfffb92266",
        "gas": "0x995d6",
        "value": "0x0",
        "input": "0x608060405234610341576109fd8038038061001981610345565b9283398101906060818303126103415780516001600160401b038111610341578261004591830161036a565b60208201519092906001600160401b0381116103415760409161006991840161036a565b91015160ff81168091036103415782516001600160401b03811161024a575f54600181811c91168015610337575b602082101461022c57601f81116102ca575b506020601f821160011461026957819293945f9261025e575b50508160011b915f199060031b1c1916175f555b81516001600160401b03811161024a57600154600181811c91168015610240575b602082101461022c57601f81116101be575b50602092601f821160011461015d57928192935f92610152575b50508160011b915f199060031b1c1916176001555b60ff19600254161760025560405161064190816103bc8239f35b015190505f80610123565b601f1982169360015f52805f20915f5b8681106101a6575083600195961061018e575b505050811b01600155610138565b01515f1960f88460031b161c191690555f8080610180565b9192602060018192868501518155019401920161016d565b818111156101095760015f52601f820160051c7fb10e2d527612073b26eecdfd717e6a320cf44b4afac2b0732d9fcbe2b7fa0cf660208410610224575b81601f9101920160051c03905f5b828110610217575050610109565b5f82820155600101610209565b5f91506101fb565b634e487b7160e01b5f52602260045260245ffd5b90607f16906100f7565b634e487b7160e01b5f52604160045260245ffd5b015190505f806100c2565b601f198216905f8052805f20915f5b8181106102b25750958360019596971061029a575b505050811b015f556100d6565b01515f1960f88460031b161c191690555f808061028d565b9192602060018192868b015181550194019201610278565b818111156100a9575f8052601f820160051c7f290decd9548b62a8d60345a988386fc84ba6bc95484008f6362f93160ef3e5636020841061032f575b81601f9101920160051c03905f5b8281106103225750506100a9565b5f82820155600101610314565b5f9150610306565b90607f1690610097565b5f80fd5b6040519190601f01601f191682016001600160401b0381118382101761024a57604052565b81601f82011215610341578051906001600160401b03821161024a57610399601f8301601f1916602001610345565b928284526020838301011161034157815f9260208093018386015e830101529056fe60806040526004361015610011575f80fd5b5f3560e01c806306fdde03146104b5578063095ea7b31461043c57806318160ddd1461041f57806323b872dd1461035a578063313ce5671461033a57806340c10f19146102c057806370a082311461028857806395d89b411461016a578063a9059cbb146100db5763dd62ed3e14610087575f80fd5b346100d75760403660031901126100d7576100a06105b1565b6100a86105c7565b6001600160a01b039182165f908152600560209081526040808320949093168252928352819020549051908152f35b5f80fd5b346100d75760403660031901126100d7576100f46105b1565b60243590335f52600460205260405f2061010f8382546105dd565b905560018060a01b031690815f52600460205260405f206101318282546105fe565b90556040519081527fddf252ad1be2c89b69c2b068fc378daa952ba7f163c4a11628f55a4df523b3ef60203392a3602060405160018152f35b346100d7575f3660031901126100d7576040515f6001548060011c9060018116801561027e575b60208310811461026a5782855290811561024e57506001146101f8575b50819003601f01601f191681019067ffffffffffffffff8211818310176101e457604082905281906101e09082610587565b0390f35b634e487b7160e01b5f52604160045260245ffd5b60015f9081529091507fb10e2d527612073b26eecdfd717e6a320cf44b4afac2b0732d9fcbe2b7fa0cf65b828210610238575060209150820101826101ae565b6001816020925483858801015201910190610223565b90506020925060ff191682840152151560051b820101826101ae565b634e487b7160e01b5f52602260045260245ffd5b91607f1691610191565b346100d75760203660031901126100d7576001600160a01b036102a96105b1565b165f526004602052602060405f2054604051908152f35b346100d75760403660031901126100d7576102d96105b1565b5f7fddf252ad1be2c89b69c2b068fc378daa952ba7f163c4a11628f55a4df523b3ef60206024359361030d856003546105fe565b60035560018060a01b031693848452600482526040842061032f8282546105fe565b9055604051908152a3005b346100d7575f3660031901126100d757602060ff60025416604051908152f35b346100d75760603660031901126100d7576103736105b1565b61037b6105c7565b7fddf252ad1be2c89b69c2b068fc378daa952ba7f163c4a11628f55a4df523b3ef60206044359360018060a01b031692835f526005825260405f2060018060a01b0333165f52825260405f206103d28682546105dd565b9055835f526004825260405f206103ea8682546105dd565b905560018060a01b031693845f526004825260405f2061040b8282546105fe565b9055604051908152a3602060405160018152f35b346100d7575f3660031901126100d7576020600354604051908152f35b346100d75760403660031901126100d7576104556105b1565b335f8181526005602090815260408083206001600160a01b03909516808452948252918290206024359081905591519182527f8c5be1e5ebec7d5bd14f71427d1e84f3dd0314c0f7b2291e5b200ac8c7c3b92591a3602060405160018152f35b346100d7575f3660031901126100d7576040515f5f548060011c9060018116801561057d575b60208310811461026a5782855290811561024e57506001146105295750819003601f01601f191681019067ffffffffffffffff8211818310176101e457604082905281906101e09082610587565b5f8080529091507f290decd9548b62a8d60345a988386fc84ba6bc95484008f6362f93160ef3e5635b828210610567575060209150820101826101ae565b6001816020925483858801015201910190610552565b91607f16916104db565b602060409281835280519182918282860152018484015e5f828201840152601f01601f1916010190565b600435906001600160a01b03821682036100d757565b602435906001600160a01b03821682036100d757565b919082039182116105ea57565b634e487b7160e01b5f52601160045260245ffd5b919082018092116105ea5756fea2646970667358221220294c7542b90c422ea87911ee0a4d666c9bf5f0b23086cc0fe9a398ccd2bf3d7264736f6c63430008210033000000000000000000000000000000000000000000000000000000000000006000000000000000000000000000000000000000000000000000000000000000a00000000000000000000000000000000000000000000000000000000000000012000000000000000000000000000000000000000000000000000000000000000a476f6f64446f6c6c61720000000000000000000000000000000000000000000000000000000000000000000000000000000000000000000000000000000000024724000000000000000000000000000000000000000000000000000000000000",
        "nonce": "0x2e",
        "chainId": "0xa455"
      },
      "additionalContracts": [],
      "isFixedGasLimit": false
    },
    {
      "hash": "0xb046c5235f932129bf0d6b02f2ffe2777eb1fb084b887a4f64cacc91ef17e392",
      "transactionType": "CALL",
      "contractName": "MockERC20",
      "contractAddress": "0x5eb3bc0a489c5a8288765d2336659ebca68fcd00",
      "function": "mint(address,uint256)",
      "arguments": [
        "0xf39Fd6e51aad88F6F4ce6aB8827279cffFb92266",
        "4000000000000000000000000"
      ],
      "transaction": {
        "from": "0xf39fd6e51aad88f6f4ce6ab8827279cfffb92266",
        "to": "0x5eb3bc0a489c5a8288765d2336659ebca68fcd00",
        "gas": "0x16fd8",
        "value": "0x0",
        "input": "0x40c10f19000000000000000000000000f39fd6e51aad88f6f4ce6ab8827279cfffb92266000000000000000000000000000000000000000000034f086f3b33b684000000",
        "nonce": "0x2f",
        "chainId": "0xa455"
      },
      "additionalContracts": [],
      "isFixedGasLimit": false
    },
    {
      "hash": "0x9a7fc2321def854c0cbf48b5509527318ac8444907e8151977f6fbedf6310389",
      "transactionType": "CREATE",
      "contractName": "MockERC20",
      "contractAddress": "0x809d550fca64d94bd9f66e60752a544199cfac3d",
      "function": null,
      "arguments": [
        "Wrapped Ether",
        "WETH",
        "18"
      ],
      "transaction": {
        "from": "0xf39fd6e51aad88f6f4ce6ab8827279cfffb92266",
        "gas": "0x99624",
        "value": "0x0",
        "input": "0x608060405234610341576109fd8038038061001981610345565b9283398101906060818303126103415780516001600160401b038111610341578261004591830161036a565b60208201519092906001600160401b0381116103415760409161006991840161036a565b91015160ff81168091036103415782516001600160401b03811161024a575f54600181811c91168015610337575b602082101461022c57601f81116102ca575b506020601f821160011461026957819293945f9261025e575b50508160011b915f199060031b1c1916175f555b81516001600160401b03811161024a57600154600181811c91168015610240575b602082101461022c57601f81116101be575b50602092601f821160011461015d57928192935f92610152575b50508160011b915f199060031b1c1916176001555b60ff19600254161760025560405161064190816103bc8239f35b015190505f80610123565b601f1982169360015f52805f20915f5b8681106101a6575083600195961061018e575b505050811b01600155610138565b01515f1960f88460031b161c191690555f8080610180565b9192602060018192868501518155019401920161016d565b818111156101095760015f52601f820160051c7fb10e2d527612073b26eecdfd717e6a320cf44b4afac2b0732d9fcbe2b7fa0cf660208410610224575b81601f9101920160051c03905f5b828110610217575050610109565b5f82820155600101610209565b5f91506101fb565b634e487b7160e01b5f52602260045260245ffd5b90607f16906100f7565b634e487b7160e01b5f52604160045260245ffd5b015190505f806100c2565b601f198216905f8052805f20915f5b8181106102b25750958360019596971061029a575b505050811b015f556100d6565b01515f1960f88460031b161c191690555f808061028d565b9192602060018192868b015181550194019201610278565b818111156100a9575f8052601f820160051c7f290decd9548b62a8d60345a988386fc84ba6bc95484008f6362f93160ef3e5636020841061032f575b81601f9101920160051c03905f5b8281106103225750506100a9565b5f82820155600101610314565b5f9150610306565b90607f1690610097565b5f80fd5b6040519190601f01601f191682016001600160401b0381118382101761024a57604052565b81601f82011215610341578051906001600160401b03821161024a57610399601f8301601f1916602001610345565b928284526020838301011161034157815f9260208093018386015e830101529056fe60806040526004361015610011575f80fd5b5f3560e01c806306fdde03146104b5578063095ea7b31461043c57806318160ddd1461041f57806323b872dd1461035a578063313ce5671461033a57806340c10f19146102c057806370a082311461028857806395d89b411461016a578063a9059cbb146100db5763dd62ed3e14610087575f80fd5b346100d75760403660031901126100d7576100a06105b1565b6100a86105c7565b6001600160a01b039182165f908152600560209081526040808320949093168252928352819020549051908152f35b5f80fd5b346100d75760403660031901126100d7576100f46105b1565b60243590335f52600460205260405f2061010f8382546105dd565b905560018060a01b031690815f52600460205260405f206101318282546105fe565b90556040519081527fddf252ad1be2c89b69c2b068fc378daa952ba7f163c4a11628f55a4df523b3ef60203392a3602060405160018152f35b346100d7575f3660031901126100d7576040515f6001548060011c9060018116801561027e575b60208310811461026a5782855290811561024e57506001146101f8575b50819003601f01601f191681019067ffffffffffffffff8211818310176101e457604082905281906101e09082610587565b0390f35b634e487b7160e01b5f52604160045260245ffd5b60015f9081529091507fb10e2d527612073b26eecdfd717e6a320cf44b4afac2b0732d9fcbe2b7fa0cf65b828210610238575060209150820101826101ae565b6001816020925483858801015201910190610223565b90506020925060ff191682840152151560051b820101826101ae565b634e487b7160e01b5f52602260045260245ffd5b91607f1691610191565b346100d75760203660031901126100d7576001600160a01b036102a96105b1565b165f526004602052602060405f2054604051908152f35b346100d75760403660031901126100d7576102d96105b1565b5f7fddf252ad1be2c89b69c2b068fc378daa952ba7f163c4a11628f55a4df523b3ef60206024359361030d856003546105fe565b60035560018060a01b031693848452600482526040842061032f8282546105fe565b9055604051908152a3005b346100d7575f3660031901126100d757602060ff60025416604051908152f35b346100d75760603660031901126100d7576103736105b1565b61037b6105c7565b7fddf252ad1be2c89b69c2b068fc378daa952ba7f163c4a11628f55a4df523b3ef60206044359360018060a01b031692835f526005825260405f2060018060a01b0333165f52825260405f206103d28682546105dd565b9055835f526004825260405f206103ea8682546105dd565b905560018060a01b031693845f526004825260405f2061040b8282546105fe565b9055604051908152a3602060405160018152f35b346100d7575f3660031901126100d7576020600354604051908152f35b346100d75760403660031901126100d7576104556105b1565b335f8181526005602090815260408083206001600160a01b03909516808452948252918290206024359081905591519182527f8c5be1e5ebec7d5bd14f71427d1e84f3dd0314c0f7b2291e5b200ac8c7c3b92591a3602060405160018152f35b346100d7575f3660031901126100d7576040515f5f548060011c9060018116801561057d575b60208310811461026a5782855290811561024e57506001146105295750819003601f01601f191681019067ffffffffffffffff8211818310176101e457604082905281906101e09082610587565b5f8080529091507f290decd9548b62a8d60345a988386fc84ba6bc95484008f6362f93160ef3e5635b828210610567575060209150820101826101ae565b6001816020925483858801015201910190610552565b91607f16916104db565b602060409281835280519182918282860152018484015e5f828201840152601f01601f1916010190565b600435906001600160a01b03821682036100d757565b602435906001600160a01b03821682036100d757565b919082039182116105ea57565b634e487b7160e01b5f52601160045260245ffd5b919082018092116105ea5756fea2646970667358221220294c7542b90c422ea87911ee0a4d666c9bf5f0b23086cc0fe9a398ccd2bf3d7264736f6c63430008210033000000000000000000000000000000000000000000000000000000000000006000000000000000000000000000000000000000000000000000000000000000a00000000000000000000000000000000000000000000000000000000000000012000000000000000000000000000000000000000000000000000000000000000d577261707065642045746865720000000000000000000000000000000000000000000000000000000000000000000000000000000000000000000000000000045745544800000000000000000000000000000000000000000000000000000000",
        "nonce": "0x30",
        "chainId": "0xa455"
      },
      "additionalContracts": [],
      "isFixedGasLimit": false
    },
    {
      "hash": "0xdcea5b306c75b9db958a84d43949893ef2c3ef0585a4c6573bfe9ea93b4e2789",
      "transactionType": "CALL",
      "contractName": "MockERC20",
      "contractAddress": "0x809d550fca64d94bd9f66e60752a544199cfac3d",
      "function": "mint(address,uint256)",
      "arguments": [
        "0xf39Fd6e51aad88F6F4ce6aB8827279cffFb92266",
        "2000000000000000000000"
      ],
      "transaction": {
        "from": "0xf39fd6e51aad88f6f4ce6ab8827279cfffb92266",
        "to": "0x809d550fca64d94bd9f66e60752a544199cfac3d",
        "gas": "0x16fc7",
        "value": "0x0",
        "input": "0x40c10f19000000000000000000000000f39fd6e51aad88f6f4ce6ab8827279cfffb9226600000000000000000000000000000000000000000000006c6b935b8bbd400000",
        "nonce": "0x31",
        "chainId": "0xa455"
      },
      "additionalContracts": [],
      "isFixedGasLimit": false
    },
    {
      "hash": "0x108118cdb43889ae3153361d4d1eda57158d37197e48b6df9e522c919807c5b0",
      "transactionType": "CREATE",
      "contractName": "MockERC20",
      "contractAddress": "0x1291be112d480055dafd8a610b7d1e203891c274",
      "function": null,
      "arguments": [
        "USD Coin",
        "USDC",
        "6"
      ],
      "transaction": {
        "from": "0xf39fd6e51aad88f6f4ce6ab8827279cfffb92266",
        "gas": "0x995d6",
        "value": "0x0",
        "input": "0x608060405234610341576109fd8038038061001981610345565b9283398101906060818303126103415780516001600160401b038111610341578261004591830161036a565b60208201519092906001600160401b0381116103415760409161006991840161036a565b91015160ff81168091036103415782516001600160401b03811161024a575f54600181811c91168015610337575b602082101461022c57601f81116102ca575b506020601f821160011461026957819293945f9261025e575b50508160011b915f199060031b1c1916175f555b81516001600160401b03811161024a57600154600181811c91168015610240575b602082101461022c57601f81116101be575b50602092601f821160011461015d57928192935f92610152575b50508160011b915f199060031b1c1916176001555b60ff19600254161760025560405161064190816103bc8239f35b015190505f80610123565b601f1982169360015f52805f20915f5b8681106101a6575083600195961061018e575b505050811b01600155610138565b01515f1960f88460031b161c191690555f8080610180565b9192602060018192868501518155019401920161016d565b818111156101095760015f52601f820160051c7fb10e2d527612073b26eecdfd717e6a320cf44b4afac2b0732d9fcbe2b7fa0cf660208410610224575b81601f9101920160051c03905f5b828110610217575050610109565b5f82820155600101610209565b5f91506101fb565b634e487b7160e01b5f52602260045260245ffd5b90607f16906100f7565b634e487b7160e01b5f52604160045260245ffd5b015190505f806100c2565b601f198216905f8052805f20915f5b8181106102b25750958360019596971061029a575b505050811b015f556100d6565b01515f1960f88460031b161c191690555f808061028d565b9192602060018192868b015181550194019201610278565b818111156100a9575f8052601f820160051c7f290decd9548b62a8d60345a988386fc84ba6bc95484008f6362f93160ef3e5636020841061032f575b81601f9101920160051c03905f5b8281106103225750506100a9565b5f82820155600101610314565b5f9150610306565b90607f1690610097565b5f80fd5b6040519190601f01601f191682016001600160401b0381118382101761024a57604052565b81601f82011215610341578051906001600160401b03821161024a57610399601f8301601f1916602001610345565b928284526020838301011161034157815f9260208093018386015e830101529056fe60806040526004361015610011575f80fd5b5f3560e01c806306fdde03146104b5578063095ea7b31461043c57806318160ddd1461041f57806323b872dd1461035a578063313ce5671461033a57806340c10f19146102c057806370a082311461028857806395d89b411461016a578063a9059cbb146100db5763dd62ed3e14610087575f80fd5b346100d75760403660031901126100d7576100a06105b1565b6100a86105c7565b6001600160a01b039182165f908152600560209081526040808320949093168252928352819020549051908152f35b5f80fd5b346100d75760403660031901126100d7576100f46105b1565b60243590335f52600460205260405f2061010f8382546105dd565b905560018060a01b031690815f52600460205260405f206101318282546105fe565b90556040519081527fddf252ad1be2c89b69c2b068fc378daa952ba7f163c4a11628f55a4df523b3ef60203392a3602060405160018152f35b346100d7575f3660031901126100d7576040515f6001548060011c9060018116801561027e575b60208310811461026a5782855290811561024e57506001146101f8575b50819003601f01601f191681019067ffffffffffffffff8211818310176101e457604082905281906101e09082610587565b0390f35b634e487b7160e01b5f52604160045260245ffd5b60015f9081529091507fb10e2d527612073b26eecdfd717e6a320cf44b4afac2b0732d9fcbe2b7fa0cf65b828210610238575060209150820101826101ae565b6001816020925483858801015201910190610223565b90506020925060ff191682840152151560051b820101826101ae565b634e487b7160e01b5f52602260045260245ffd5b91607f1691610191565b346100d75760203660031901126100d7576001600160a01b036102a96105b1565b165f526004602052602060405f2054604051908152f35b346100d75760403660031901126100d7576102d96105b1565b5f7fddf252ad1be2c89b69c2b068fc378daa952ba7f163c4a11628f55a4df523b3ef60206024359361030d856003546105fe565b60035560018060a01b031693848452600482526040842061032f8282546105fe565b9055604051908152a3005b346100d7575f3660031901126100d757602060ff60025416604051908152f35b346100d75760603660031901126100d7576103736105b1565b61037b6105c7565b7fddf252ad1be2c89b69c2b068fc378daa952ba7f163c4a11628f55a4df523b3ef60206044359360018060a01b031692835f526005825260405f2060018060a01b0333165f52825260405f206103d28682546105dd565b9055835f526004825260405f206103ea8682546105dd565b905560018060a01b031693845f526004825260405f2061040b8282546105fe565b9055604051908152a3602060405160018152f35b346100d7575f3660031901126100d7576020600354604051908152f35b346100d75760403660031901126100d7576104556105b1565b335f8181526005602090815260408083206001600160a01b03909516808452948252918290206024359081905591519182527f8c5be1e5ebec7d5bd14f71427d1e84f3dd0314c0f7b2291e5b200ac8c7c3b92591a3602060405160018152f35b346100d7575f3660031901126100d7576040515f5f548060011c9060018116801561057d575b60208310811461026a5782855290811561024e57506001146105295750819003601f01601f191681019067ffffffffffffffff8211818310176101e457604082905281906101e09082610587565b5f8080529091507f290decd9548b62a8d60345a988386fc84ba6bc95484008f6362f93160ef3e5635b828210610567575060209150820101826101ae565b6001816020925483858801015201910190610552565b91607f16916104db565b602060409281835280519182918282860152018484015e5f828201840152601f01601f1916010190565b600435906001600160a01b03821682036100d757565b602435906001600160a01b03821682036100d757565b919082039182116105ea57565b634e487b7160e01b5f52601160045260245ffd5b919082018092116105ea5756fea2646970667358221220294c7542b90c422ea87911ee0a4d666c9bf5f0b23086cc0fe9a398ccd2bf3d7264736f6c63430008210033000000000000000000000000000000000000000000000000000000000000006000000000000000000000000000000000000000000000000000000000000000a00000000000000000000000000000000000000000000000000000000000000006000000000000000000000000000000000000000000000000000000000000000855534420436f696e00000000000000000000000000000000000000000000000000000000000000000000000000000000000000000000000000000000000000045553444300000000000000000000000000000000000000000000000000000000",
        "nonce": "0x32",
        "chainId": "0xa455"
      },
      "additionalContracts": [],
      "isFixedGasLimit": false
    },
    {
      "hash": "0x34a321a84765dd21260a8607d5110f03e47e18f7dfbf6ff884664a8bf2597653",
      "transactionType": "CALL",
      "contractName": "MockERC20",
      "contractAddress": "0x1291be112d480055dafd8a610b7d1e203891c274",
      "function": "mint(address,uint256)",
      "arguments": [
        "0xf39Fd6e51aad88F6F4ce6aB8827279cffFb92266",
        "4000000000000"
      ],
      "transaction": {
        "from": "0xf39fd6e51aad88f6f4ce6ab8827279cfffb92266",
        "to": "0x1291be112d480055dafd8a610b7d1e203891c274",
        "gas": "0x16fa5",
        "value": "0x0",
        "input": "0x40c10f19000000000000000000000000f39fd6e51aad88f6f4ce6ab8827279cfffb92266000000000000000000000000000000000000000000000000000003a352944000",
        "nonce": "0x33",
        "chainId": "0xa455"
      },
      "additionalContracts": [],
      "isFixedGasLimit": false
    },
    {
      "hash": "0x5e951dac1a91c2b4b3c89335b0249ec074b6f8675c783aefeaee39ba1f52d57f",
      "transactionType": "CREATE",
      "contractName": "GoodPool",
      "contractAddress": "0xb7278a61aa25c888815afc32ad3cc52ff24fe575",
      "function": null,
      "arguments": [
        "0x5eb3Bc0a489C5A8288765d2336659EbCA68FCd00",
        "0x809d550fca64d94Bd9F66E60752A544199cfAC3D",
        "0xf39Fd6e51aad88F6F4ce6aB8827279cffFb92266"
      ],
      "transaction": {
        "from": "0xf39fd6e51aad88f6f4ce6ab8827279cfffb92266",
        "gas": "0x114f69",
        "value": "0x0",
        "input": "0x60c03461014d57601f610fd538819003918201601f19168301916001600160401b038311848410176101515780849260609460405283398101031261014d5761004781610165565b90610060604061005960208401610165565b9201610165565b916001600160a01b0382811690821680821461010857101561010357905b60a052608052600180546001600160a01b0319166001600160a01b0392909216919091179055604051610e5b908161017a823960805181818160f60152818161023601528181610673015281816109840152610c76015260a0518181816101b201528181610298015281816105ee015281816106d2015281816109de0152610b330152f35b61007e565b60405162461bcd60e51b815260206004820152601a60248201527f476f6f64506f6f6c3a206964656e746963616c20746f6b656e730000000000006044820152606490fd5b5f80fd5b634e487b7160e01b5f52604160045260245ffd5b51906001600160a01b038216820361014d5756fe6080806040526004361015610012575f80fd5b5f3560e01c9081630fc63d1014610c645750806315770f9214610c4757806319e36f3b14610c2a578063398482d814610c10578063492fb34314610be95780635a0a3d8214610b625780635f64b55b14610b1e5780638da5cb5b14610af65780639c8f9f23146108c35780639cd441da1461061d5780639f1d0f591461021b578063b8c876b1146101e3578063ca706bcf146100d75763dc5fa6c5146100b6575f80fd5b346100d3575f3660031901126100d3576020600254604051908152f35b5f80fd5b346100d35760403660031901126100d3576100f0610ca5565b602435907f00000000000000000000000000000000000000000000000000000000000000006001600160a01b0390811691169081149061013990829081156101b0575b50610d93565b156101a35760025490600354915b601e8202828104601e148315171561018f5760209361017b61017461018795612710610181950490610d2b565b8092610cbb565b92610d86565b90610cce565b604051908152f35b634e487b7160e01b5f52601160045260245ffd5b6003549060025491610147565b7f00000000000000000000000000000000000000000000000000000000000000006001600160a01b031614905084610133565b346100d35760203660031901126100d3576001600160a01b03610204610ca5565b165f526005602052602060405f2054604051908152f35b346100d35760603660031901126100d357610234610ca5565b7f00000000000000000000000000000000000000000000000000000000000000006001600160a01b038181169216918214916024358380156105eb575b61027a90610d93565b80156105af5783156105a25760025490600354935b851561059c57507f0000000000000000000000000000000000000000000000000000000000000000945b6040516323b872dd60e01b8152336004820152306024820152604481018390526020816064815f895af180156104225761057f575b50601e8202828104601e0361018f5761271090049261031f6103108585610d2b565b916101818361017b818b610cbb565b95604435871061053a578610156104f5575f548492906001600160a01b031680610459575b501561042d5761035f9161035791610d86565b600254610d86565b60025561036e84600354610d2b565b6003555b60405163a9059cbb60e01b81523360048201526024810185905294602090869060449082905f906001600160a01b03165af1948515610422576020956103f7575b506040519283528483015282604083015260608201527f9734819749a91fc3be03ea83205f924ee08479bd3f0da48efc91d94d050cac1e60803392a2604051908152f35b61041690863d881161041b575b61040e8183610d38565b810190610d6e565b6103b3565b503d610404565b6040513d5f823e3d90fd5b6104429161043a91610d86565b600354610d86565b60035561045184600254610d2b565b600255610372565b909192610d0502858104610d05148615171561018f5761271090049081610485575b8593929150610344565b60405163a9059cbb60e01b81526001600160a01b039190911660048201526024810182905292949192916020836044815f8b5af1928315610422576104cf936104d8575b50610d2b565b9290878061047b565b6104f09060203d60201161041b5761040e8183610d38565b6104c9565b60405162461bcd60e51b815260206004820152601f60248201527f476f6f64506f6f6c3a20696e73756666696369656e74207265736572766573006044820152606490fd5b60405162461bcd60e51b815260206004820152601b60248201527f476f6f64506f6f6c3a20736c69707061676520657863656564656400000000006044820152606490fd5b6105979060203d60201161041b5761040e8183610d38565b6102ee565b946102b9565b600354906002549361028f565b60405162461bcd60e51b815260206004820152601460248201527311dbdbd9141bdbdb0e881e995c9bc81a5b9c1d5d60621b6044820152606490fd5b507f00000000000000000000000000000000000000000000000000000000000000006001600160a01b03168214610271565b346100d35760403660031901126100d357600435602435811515806108ba575b1561087d576040516323b872dd60e01b8152336004820152306024820152604481018390526020816064815f6001600160a01b037f0000000000000000000000000000000000000000000000000000000000000000165af1801561042257610860575b506040516323b872dd60e01b8152336004820152306024820152604481018290526020816064815f6001600160a01b037f0000000000000000000000000000000000000000000000000000000000000000165af1801561042257610843575b5060045491826108005761071b6107168383610cbb565b610ddf565b915b82156107ab57827f64b83944e79c3ce8d4c297411de637c3e102d064677aac0c163976ebdcd6f50e916107708260209761075987600254610d86565b60025561076884600354610d86565b600355610d86565b600455335f526005865260405f20610789838254610d86565b90556040805194855260208501919091528301523391606090a2604051908152f35b60405162461bcd60e51b815260206004820152602760248201527f476f6f64506f6f6c3a20696e73756666696369656e74206c6971756964697479604482015266081b5a5b9d195960ca1b6064820152608490fd5b61081661080d8483610cbb565b60025490610cce565b61082c6108238585610cbb565b60035490610cce565b8082101561083c57505b9161071d565b9050610836565b61085b9060203d60201161041b5761040e8183610d38565b6106ff565b6108789060203d60201161041b5761040e8183610d38565b6106a0565b60405162461bcd60e51b815260206004820152601560248201527411dbdbd9141bdbdb0e881e995c9bc8185b5bdd5b9d605a1b6044820152606490fd5b5080151561063d565b346100d35760203660031901126100d35760043580151580610ae0575b15610a9b576108f160025482610cbb565b6109136109016004548093610cce565b9161090e60035485610cbb565b610cce565b335f52600560205260405f2061092a848254610d2b565b905561093883600454610d2b565b60045561094782600254610d2b565b60025561095681600354610d2b565b60035560405163a9059cbb60e01b8152336004820152602481018390526020816044815f6001600160a01b037f0000000000000000000000000000000000000000000000000000000000000000165af1801561042257610a7e575b5060405163a9059cbb60e01b815233600482015260248101829052926020846044815f6001600160a01b037f0000000000000000000000000000000000000000000000000000000000000000165af193841561042257604094610a61575b507f1dc8bb69df2b8e91fbdcbfcf93d951b3f0000f085a95fe3f7946d6161439245d845180610a5233948688846040919493926060820195825260208201520152565b0390a282519182526020820152f35b610a799060203d60201161041b5761040e8183610d38565b610a0f565b610a969060203d60201161041b5761040e8183610d38565b6109b1565b60405162461bcd60e51b815260206004820152601760248201527f476f6f64506f6f6c3a20626164206c7020616d6f756e740000000000000000006044820152606490fd5b50335f52600560205260405f20548111156108e0565b346100d3575f3660031901126100d3576001546040516001600160a01b039091168152602090f35b346100d3575f3660031901126100d3576040517f00000000000000000000000000000000000000000000000000000000000000006001600160a01b03168152602090f35b346100d35760203660031901126100d357610b7b610ca5565b6001546001600160a01b03163303610bae575f80546001600160a01b0319166001600160a01b0392909216919091179055005b60405162461bcd60e51b815260206004820152601360248201527223b7b7b22837b7b61d103737ba1037bbb732b960691b6044820152606490fd5b346100d3575f3660031901126100d3575f546040516001600160a01b039091168152602090f35b346100d3575f3660031901126100d3576020610187610cec565b346100d3575f3660031901126100d3576020600354604051908152f35b346100d3575f3660031901126100d3576020600454604051908152f35b346100d3575f3660031901126100d3577f00000000000000000000000000000000000000000000000000000000000000006001600160a01b03168152602090f35b600435906001600160a01b03821682036100d357565b8181029291811591840414171561018f57565b8115610cd8570490565b634e487b7160e01b5f52601260045260245ffd5b6002548015610d265760035490670de0b6b3a7640000820291808304670de0b6b3a7640000149015171561018f57610d2391610cce565b90565b505f90565b9190820391821161018f57565b90601f8019910116810190811067ffffffffffffffff821117610d5a57604052565b634e487b7160e01b5f52604160045260245ffd5b908160209103126100d3575180151581036100d35790565b9190820180921161018f57565b15610d9a57565b60405162461bcd60e51b815260206004820152601760248201527f476f6f64506f6f6c3a20696e76616c696420746f6b656e0000000000000000006044820152606490fd5b908115610e20576001820180831161018f5760011c825b838210610e01575050565b909250610e1783610e128184610cce565b610d86565b60011c90610df6565b5f915056fea2646970667358221220b34aa96537253762bccca5ebb91c107eea12bc165dc716778c2e5ea83841e72064736f6c634300082100330000000000000000000000005eb3bc0a489c5a8288765d2336659ebca68fcd00000000000000000000000000809d550fca64d94bd9f66e60752a544199cfac3d000000000000000000000000f39fd6e51aad88f6f4ce6ab8827279cfffb92266",
        "nonce": "0x34",
        "chainId": "0xa455"
      },
      "additionalContracts": [],
      "isFixedGasLimit": false
    },
    {
      "hash": "0x0ceb06af401f9aea24b56d26e3d1afc6bdfe5ed871fcf5427bd76991dfbee433",
      "transactionType": "CREATE",
      "contractName": "GoodPool",
      "contractAddress": "0xcd8a1c3ba11cf5ecfa6267617243239504a98d90",
      "function": null,
      "arguments": [
        "0x5eb3Bc0a489C5A8288765d2336659EbCA68FCd00",
        "0x1291Be112d480055DaFd8a610b7d1e203891C274",
        "0xf39Fd6e51aad88F6F4ce6aB8827279cffFb92266"
      ],
      "transaction": {
        "from": "0xf39fd6e51aad88f6f4ce6ab8827279cfffb92266",
        "gas": "0x114f65",
        "value": "0x0",
        "input": "0x60c03461014d57601f610fd538819003918201601f19168301916001600160401b038311848410176101515780849260609460405283398101031261014d5761004781610165565b90610060604061005960208401610165565b9201610165565b916001600160a01b0382811690821680821461010857101561010357905b60a052608052600180546001600160a01b0319166001600160a01b0392909216919091179055604051610e5b908161017a823960805181818160f60152818161023601528181610673015281816109840152610c76015260a0518181816101b201528181610298015281816105ee015281816106d2015281816109de0152610b330152f35b61007e565b60405162461bcd60e51b815260206004820152601a60248201527f476f6f64506f6f6c3a206964656e746963616c20746f6b656e730000000000006044820152606490fd5b5f80fd5b634e487b7160e01b5f52604160045260245ffd5b51906001600160a01b038216820361014d5756fe6080806040526004361015610012575f80fd5b5f3560e01c9081630fc63d1014610c645750806315770f9214610c4757806319e36f3b14610c2a578063398482d814610c10578063492fb34314610be95780635a0a3d8214610b625780635f64b55b14610b1e5780638da5cb5b14610af65780639c8f9f23146108c35780639cd441da1461061d5780639f1d0f591461021b578063b8c876b1146101e3578063ca706bcf146100d75763dc5fa6c5146100b6575f80fd5b346100d3575f3660031901126100d3576020600254604051908152f35b5f80fd5b346100d35760403660031901126100d3576100f0610ca5565b602435907f00000000000000000000000000000000000000000000000000000000000000006001600160a01b0390811691169081149061013990829081156101b0575b50610d93565b156101a35760025490600354915b601e8202828104601e148315171561018f5760209361017b61017461018795612710610181950490610d2b565b8092610cbb565b92610d86565b90610cce565b604051908152f35b634e487b7160e01b5f52601160045260245ffd5b6003549060025491610147565b7f00000000000000000000000000000000000000000000000000000000000000006001600160a01b031614905084610133565b346100d35760203660031901126100d3576001600160a01b03610204610ca5565b165f526005602052602060405f2054604051908152f35b346100d35760603660031901126100d357610234610ca5565b7f00000000000000000000000000000000000000000000000000000000000000006001600160a01b038181169216918214916024358380156105eb575b61027a90610d93565b80156105af5783156105a25760025490600354935b851561059c57507f0000000000000000000000000000000000000000000000000000000000000000945b6040516323b872dd60e01b8152336004820152306024820152604481018390526020816064815f895af180156104225761057f575b50601e8202828104601e0361018f5761271090049261031f6103108585610d2b565b916101818361017b818b610cbb565b95604435871061053a578610156104f5575f548492906001600160a01b031680610459575b501561042d5761035f9161035791610d86565b600254610d86565b60025561036e84600354610d2b565b6003555b60405163a9059cbb60e01b81523360048201526024810185905294602090869060449082905f906001600160a01b03165af1948515610422576020956103f7575b506040519283528483015282604083015260608201527f9734819749a91fc3be03ea83205f924ee08479bd3f0da48efc91d94d050cac1e60803392a2604051908152f35b61041690863d881161041b575b61040e8183610d38565b810190610d6e565b6103b3565b503d610404565b6040513d5f823e3d90fd5b6104429161043a91610d86565b600354610d86565b60035561045184600254610d2b565b600255610372565b909192610d0502858104610d05148615171561018f5761271090049081610485575b8593929150610344565b60405163a9059cbb60e01b81526001600160a01b039190911660048201526024810182905292949192916020836044815f8b5af1928315610422576104cf936104d8575b50610d2b565b9290878061047b565b6104f09060203d60201161041b5761040e8183610d38565b6104c9565b60405162461bcd60e51b815260206004820152601f60248201527f476f6f64506f6f6c3a20696e73756666696369656e74207265736572766573006044820152606490fd5b60405162461bcd60e51b815260206004820152601b60248201527f476f6f64506f6f6c3a20736c69707061676520657863656564656400000000006044820152606490fd5b6105979060203d60201161041b5761040e8183610d38565b6102ee565b946102b9565b600354906002549361028f565b60405162461bcd60e51b815260206004820152601460248201527311dbdbd9141bdbdb0e881e995c9bc81a5b9c1d5d60621b6044820152606490fd5b507f00000000000000000000000000000000000000000000000000000000000000006001600160a01b03168214610271565b346100d35760403660031901126100d357600435602435811515806108ba575b1561087d576040516323b872dd60e01b8152336004820152306024820152604481018390526020816064815f6001600160a01b037f0000000000000000000000000000000000000000000000000000000000000000165af1801561042257610860575b506040516323b872dd60e01b8152336004820152306024820152604481018290526020816064815f6001600160a01b037f0000000000000000000000000000000000000000000000000000000000000000165af1801561042257610843575b5060045491826108005761071b6107168383610cbb565b610ddf565b915b82156107ab57827f64b83944e79c3ce8d4c297411de637c3e102d064677aac0c163976ebdcd6f50e916107708260209761075987600254610d86565b60025561076884600354610d86565b600355610d86565b600455335f526005865260405f20610789838254610d86565b90556040805194855260208501919091528301523391606090a2604051908152f35b60405162461bcd60e51b815260206004820152602760248201527f476f6f64506f6f6c3a20696e73756666696369656e74206c6971756964697479604482015266081b5a5b9d195960ca1b6064820152608490fd5b61081661080d8483610cbb565b60025490610cce565b61082c6108238585610cbb565b60035490610cce565b8082101561083c57505b9161071d565b9050610836565b61085b9060203d60201161041b5761040e8183610d38565b6106ff565b6108789060203d60201161041b5761040e8183610d38565b6106a0565b60405162461bcd60e51b815260206004820152601560248201527411dbdbd9141bdbdb0e881e995c9bc8185b5bdd5b9d605a1b6044820152606490fd5b5080151561063d565b346100d35760203660031901126100d35760043580151580610ae0575b15610a9b576108f160025482610cbb565b6109136109016004548093610cce565b9161090e60035485610cbb565b610cce565b335f52600560205260405f2061092a848254610d2b565b905561093883600454610d2b565b60045561094782600254610d2b565b60025561095681600354610d2b565b60035560405163a9059cbb60e01b8152336004820152602481018390526020816044815f6001600160a01b037f0000000000000000000000000000000000000000000000000000000000000000165af1801561042257610a7e575b5060405163a9059cbb60e01b815233600482015260248101829052926020846044815f6001600160a01b037f0000000000000000000000000000000000000000000000000000000000000000165af193841561042257604094610a61575b507f1dc8bb69df2b8e91fbdcbfcf93d951b3f0000f085a95fe3f7946d6161439245d845180610a5233948688846040919493926060820195825260208201520152565b0390a282519182526020820152f35b610a799060203d60201161041b5761040e8183610d38565b610a0f565b610a969060203d60201161041b5761040e8183610d38565b6109b1565b60405162461bcd60e51b815260206004820152601760248201527f476f6f64506f6f6c3a20626164206c7020616d6f756e740000000000000000006044820152606490fd5b50335f52600560205260405f20548111156108e0565b346100d3575f3660031901126100d3576001546040516001600160a01b039091168152602090f35b346100d3575f3660031901126100d3576040517f00000000000000000000000000000000000000000000000000000000000000006001600160a01b03168152602090f35b346100d35760203660031901126100d357610b7b610ca5565b6001546001600160a01b03163303610bae575f80546001600160a01b0319166001600160a01b0392909216919091179055005b60405162461bcd60e51b815260206004820152601360248201527223b7b7b22837b7b61d103737ba1037bbb732b960691b6044820152606490fd5b346100d3575f3660031901126100d3575f546040516001600160a01b039091168152602090f35b346100d3575f3660031901126100d3576020610187610cec565b346100d3575f3660031901126100d3576020600354604051908152f35b346100d3575f3660031901126100d3576020600454604051908152f35b346100d3575f3660031901126100d3577f00000000000000000000000000000000000000000000000000000000000000006001600160a01b03168152602090f35b600435906001600160a01b03821682036100d357565b8181029291811591840414171561018f57565b8115610cd8570490565b634e487b7160e01b5f52601260045260245ffd5b6002548015610d265760035490670de0b6b3a7640000820291808304670de0b6b3a7640000149015171561018f57610d2391610cce565b90565b505f90565b9190820391821161018f57565b90601f8019910116810190811067ffffffffffffffff821117610d5a57604052565b634e487b7160e01b5f52604160045260245ffd5b908160209103126100d3575180151581036100d35790565b9190820180921161018f57565b15610d9a57565b60405162461bcd60e51b815260206004820152601760248201527f476f6f64506f6f6c3a20696e76616c696420746f6b656e0000000000000000006044820152606490fd5b908115610e20576001820180831161018f5760011c825b838210610e01575050565b909250610e1783610e128184610cce565b610d86565b60011c90610df6565b5f915056fea2646970667358221220b34aa96537253762bccca5ebb91c107eea12bc165dc716778c2e5ea83841e72064736f6c634300082100330000000000000000000000005eb3bc0a489c5a8288765d2336659ebca68fcd000000000000000000000000001291be112d480055dafd8a610b7d1e203891c274000000000000000000000000f39fd6e51aad88f6f4ce6ab8827279cfffb92266",
        "nonce": "0x35",
        "chainId": "0xa455"
      },
      "additionalContracts": [],
      "isFixedGasLimit": false
    },
    {
      "hash": "0x76ce4265e6f2c3dc48b2d937a105476a1614ef43d6e8746047e53849de760752",
      "transactionType": "CREATE",
      "contractName": "GoodPool",
      "contractAddress": "0x82e01223d51eb87e16a03e24687edf0f294da6f1",
      "function": null,
      "arguments": [
        "0x809d550fca64d94Bd9F66E60752A544199cfAC3D",
        "0x1291Be112d480055DaFd8a610b7d1e203891C274",
        "0xf39Fd6e51aad88F6F4ce6aB8827279cffFb92266"
      ],
      "transaction": {
        "from": "0xf39fd6e51aad88f6f4ce6ab8827279cfffb92266",
        "gas": "0x114f74",
        "value": "0x0",
        "input": "0x60c03461014d57601f610fd538819003918201601f19168301916001600160401b038311848410176101515780849260609460405283398101031261014d5761004781610165565b90610060604061005960208401610165565b9201610165565b916001600160a01b0382811690821680821461010857101561010357905b60a052608052600180546001600160a01b0319166001600160a01b0392909216919091179055604051610e5b908161017a823960805181818160f60152818161023601528181610673015281816109840152610c76015260a0518181816101b201528181610298015281816105ee015281816106d2015281816109de0152610b330152f35b61007e565b60405162461bcd60e51b815260206004820152601a60248201527f476f6f64506f6f6c3a206964656e746963616c20746f6b656e730000000000006044820152606490fd5b5f80fd5b634e487b7160e01b5f52604160045260245ffd5b51906001600160a01b038216820361014d5756fe6080806040526004361015610012575f80fd5b5f3560e01c9081630fc63d1014610c645750806315770f9214610c4757806319e36f3b14610c2a578063398482d814610c10578063492fb34314610be95780635a0a3d8214610b625780635f64b55b14610b1e5780638da5cb5b14610af65780639c8f9f23146108c35780639cd441da1461061d5780639f1d0f591461021b578063b8c876b1146101e3578063ca706bcf146100d75763dc5fa6c5146100b6575f80fd5b346100d3575f3660031901126100d3576020600254604051908152f35b5f80fd5b346100d35760403660031901126100d3576100f0610ca5565b602435907f00000000000000000000000000000000000000000000000000000000000000006001600160a01b0390811691169081149061013990829081156101b0575b50610d93565b156101a35760025490600354915b601e8202828104601e148315171561018f5760209361017b61017461018795612710610181950490610d2b565b8092610cbb565b92610d86565b90610cce565b604051908152f35b634e487b7160e01b5f52601160045260245ffd5b6003549060025491610147565b7f00000000000000000000000000000000000000000000000000000000000000006001600160a01b031614905084610133565b346100d35760203660031901126100d3576001600160a01b03610204610ca5565b165f526005602052602060405f2054604051908152f35b346100d35760603660031901126100d357610234610ca5565b7f00000000000000000000000000000000000000000000000000000000000000006001600160a01b038181169216918214916024358380156105eb575b61027a90610d93565b80156105af5783156105a25760025490600354935b851561059c57507f0000000000000000000000000000000000000000000000000000000000000000945b6040516323b872dd60e01b8152336004820152306024820152604481018390526020816064815f895af180156104225761057f575b50601e8202828104601e0361018f5761271090049261031f6103108585610d2b565b916101818361017b818b610cbb565b95604435871061053a578610156104f5575f548492906001600160a01b031680610459575b501561042d5761035f9161035791610d86565b600254610d86565b60025561036e84600354610d2b565b6003555b60405163a9059cbb60e01b81523360048201526024810185905294602090869060449082905f906001600160a01b03165af1948515610422576020956103f7575b506040519283528483015282604083015260608201527f9734819749a91fc3be03ea83205f924ee08479bd3f0da48efc91d94d050cac1e60803392a2604051908152f35b61041690863d881161041b575b61040e8183610d38565b810190610d6e565b6103b3565b503d610404565b6040513d5f823e3d90fd5b6104429161043a91610d86565b600354610d86565b60035561045184600254610d2b565b600255610372565b909192610d0502858104610d05148615171561018f5761271090049081610485575b8593929150610344565b60405163a9059cbb60e01b81526001600160a01b039190911660048201526024810182905292949192916020836044815f8b5af1928315610422576104cf936104d8575b50610d2b565b9290878061047b565b6104f09060203d60201161041b5761040e8183610d38565b6104c9565b60405162461bcd60e51b815260206004820152601f60248201527f476f6f64506f6f6c3a20696e73756666696369656e74207265736572766573006044820152606490fd5b60405162461bcd60e51b815260206004820152601b60248201527f476f6f64506f6f6c3a20736c69707061676520657863656564656400000000006044820152606490fd5b6105979060203d60201161041b5761040e8183610d38565b6102ee565b946102b9565b600354906002549361028f565b60405162461bcd60e51b815260206004820152601460248201527311dbdbd9141bdbdb0e881e995c9bc81a5b9c1d5d60621b6044820152606490fd5b507f00000000000000000000000000000000000000000000000000000000000000006001600160a01b03168214610271565b346100d35760403660031901126100d357600435602435811515806108ba575b1561087d576040516323b872dd60e01b8152336004820152306024820152604481018390526020816064815f6001600160a01b037f0000000000000000000000000000000000000000000000000000000000000000165af1801561042257610860575b506040516323b872dd60e01b8152336004820152306024820152604481018290526020816064815f6001600160a01b037f0000000000000000000000000000000000000000000000000000000000000000165af1801561042257610843575b5060045491826108005761071b6107168383610cbb565b610ddf565b915b82156107ab57827f64b83944e79c3ce8d4c297411de637c3e102d064677aac0c163976ebdcd6f50e916107708260209761075987600254610d86565b60025561076884600354610d86565b600355610d86565b600455335f526005865260405f20610789838254610d86565b90556040805194855260208501919091528301523391606090a2604051908152f35b60405162461bcd60e51b815260206004820152602760248201527f476f6f64506f6f6c3a20696e73756666696369656e74206c6971756964697479604482015266081b5a5b9d195960ca1b6064820152608490fd5b61081661080d8483610cbb565b60025490610cce565b61082c6108238585610cbb565b60035490610cce565b8082101561083c57505b9161071d565b9050610836565b61085b9060203d60201161041b5761040e8183610d38565b6106ff565b6108789060203d60201161041b5761040e8183610d38565b6106a0565b60405162461bcd60e51b815260206004820152601560248201527411dbdbd9141bdbdb0e881e995c9bc8185b5bdd5b9d605a1b6044820152606490fd5b5080151561063d565b346100d35760203660031901126100d35760043580151580610ae0575b15610a9b576108f160025482610cbb565b6109136109016004548093610cce565b9161090e60035485610cbb565b610cce565b335f52600560205260405f2061092a848254610d2b565b905561093883600454610d2b565b60045561094782600254610d2b565b60025561095681600354610d2b565b60035560405163a9059cbb60e01b8152336004820152602481018390526020816044815f6001600160a01b037f0000000000000000000000000000000000000000000000000000000000000000165af1801561042257610a7e575b5060405163a9059cbb60e01b815233600482015260248101829052926020846044815f6001600160a01b037f0000000000000000000000000000000000000000000000000000000000000000165af193841561042257604094610a61575b507f1dc8bb69df2b8e91fbdcbfcf93d951b3f0000f085a95fe3f7946d6161439245d845180610a5233948688846040919493926060820195825260208201520152565b0390a282519182526020820152f35b610a799060203d60201161041b5761040e8183610d38565b610a0f565b610a969060203d60201161041b5761040e8183610d38565b6109b1565b60405162461bcd60e51b815260206004820152601760248201527f476f6f64506f6f6c3a20626164206c7020616d6f756e740000000000000000006044820152606490fd5b50335f52600560205260405f20548111156108e0565b346100d3575f3660031901126100d3576001546040516001600160a01b039091168152602090f35b346100d3575f3660031901126100d3576040517f00000000000000000000000000000000000000000000000000000000000000006001600160a01b03168152602090f35b346100d35760203660031901126100d357610b7b610ca5565b6001546001600160a01b03163303610bae575f80546001600160a01b0319166001600160a01b0392909216919091179055005b60405162461bcd60e51b815260206004820152601360248201527223b7b7b22837b7b61d103737ba1037bbb732b960691b6044820152606490fd5b346100d3575f3660031901126100d3575f546040516001600160a01b039091168152602090f35b346100d3575f3660031901126100d3576020610187610cec565b346100d3575f3660031901126100d3576020600354604051908152f35b346100d3575f3660031901126100d3576020600454604051908152f35b346100d3575f3660031901126100d3577f00000000000000000000000000000000000000000000000000000000000000006001600160a01b03168152602090f35b600435906001600160a01b03821682036100d357565b8181029291811591840414171561018f57565b8115610cd8570490565b634e487b7160e01b5f52601260045260245ffd5b6002548015610d265760035490670de0b6b3a7640000820291808304670de0b6b3a7640000149015171561018f57610d2391610cce565b90565b505f90565b9190820391821161018f57565b90601f8019910116810190811067ffffffffffffffff821117610d5a57604052565b634e487b7160e01b5f52604160045260245ffd5b908160209103126100d3575180151581036100d35790565b9190820180921161018f57565b15610d9a57565b60405162461bcd60e51b815260206004820152601760248201527f476f6f64506f6f6c3a20696e76616c696420746f6b656e0000000000000000006044820152606490fd5b908115610e20576001820180831161018f5760011c825b838210610e01575050565b909250610e1783610e128184610cce565b610d86565b60011c90610df6565b5f915056fea2646970667358221220b34aa96537253762bccca5ebb91c107eea12bc165dc716778c2e5ea83841e72064736f6c63430008210033000000000000000000000000809d550fca64d94bd9f66e60752a544199cfac3d0000000000000000000000001291be112d480055dafd8a610b7d1e203891c274000000000000000000000000f39fd6e51aad88f6f4ce6ab8827279cfffb92266",
        "nonce": "0x36",
        "chainId": "0xa455"
      },
      "additionalContracts": [],
      "isFixedGasLimit": false
    },
    {
      "hash": "0x25b5d140e6eeb64234f769bbbfe68692f79b9ccd28c0c9c594f5b16dd5da152c",
      "transactionType": "CALL",
      "contractName": "MockERC20",
      "contractAddress": "0x5eb3bc0a489c5a8288765d2336659ebca68fcd00",
      "function": "approve(address,uint256)",
      "arguments": [
        "0xb7278A61aa25c888815aFC32Ad3cC52fF24fE575",
        "3000000000000000000000000"
      ],
      "transaction": {
        "from": "0xf39fd6e51aad88f6f4ce6ab8827279cfffb92266",
        "to": "0x5eb3bc0a489c5a8288765d2336659ebca68fcd00",
        "gas": "0x10691",
        "value": "0x0",
        "input": "0x095ea7b3000000000000000000000000b7278a61aa25c888815afc32ad3cc52ff24fe575000000000000000000000000000000000000000000027b46536c66c8e3000000",
        "nonce": "0x37",
        "chainId": "0xa455"
      },
      "additionalContracts": [],
      "isFixedGasLimit": false
    },
    {
      "hash": "0xede23d7fac4b40a18a33cb2e5216e3504e17fe6611eec31b2a73b939431ca759",
      "transactionType": "CALL",
      "contractName": "MockERC20",
      "contractAddress": "0x809d550fca64d94bd9f66e60752a544199cfac3d",
      "function": "approve(address,uint256)",
      "arguments": [
        "0xb7278A61aa25c888815aFC32Ad3cC52fF24fE575",
        "1000000000000000000000"
      ],
      "transaction": {
        "from": "0xf39fd6e51aad88f6f4ce6ab8827279cfffb92266",
        "to": "0x809d550fca64d94bd9f66e60752a544199cfac3d",
        "gas": "0xf7ea",
        "value": "0x0",
        "input": "0x095ea7b3000000000000000000000000b7278a61aa25c888815afc32ad3cc52ff24fe57500000000000000000000000000000000000000000000003635c9adc5dea00000",
        "nonce": "0x38",
        "chainId": "0xa455"
      },
      "additionalContracts": [],
      "isFixedGasLimit": false
    },
    {
      "hash": "0xc42e6a3a3f03b1a0050a1a7d02ae64e4e4c0114814594919cdd2aac75ed22c76",
      "transactionType": "CALL",
      "contractName": "GoodPool",
      "contractAddress": "0xb7278a61aa25c888815afc32ad3cc52ff24fe575",
      "function": "addLiquidity(uint256,uint256)",
      "arguments": [
        "3000000000000000000000000",
        "1000000000000000000000"
      ],
      "transaction": {
        "from": "0xf39fd6e51aad88f6f4ce6ab8827279cfffb92266",
        "to": "0xb7278a61aa25c888815afc32ad3cc52ff24fe575",
        "gas": "0x44bc5",
        "value": "0x0",
        "input": "0x9cd441da000000000000000000000000000000000000000000027b46536c66c8e300000000000000000000000000000000000000000000000000003635c9adc5dea00000",
        "nonce": "0x39",
        "chainId": "0xa455"
      },
      "additionalContracts": [],
      "isFixedGasLimit": false
    },
    {
      "hash": "0x70cedc4e3729bdcc27a844d29d20fc350c08502344c8a51e4165826e26c867f0",
      "transactionType": "CALL",
      "contractName": "MockERC20",
      "contractAddress": "0x5eb3bc0a489c5a8288765d2336659ebca68fcd00",
      "function": "approve(address,uint256)",
      "arguments": [
        "0xCD8a1C3ba11CF5ECfa6267617243239504a98d90",
        "1000000000000000000000000"
      ],
      "transaction": {
        "from": "0xf39fd6e51aad88f6f4ce6ab8827279cfffb92266",
        "to": "0x5eb3bc0a489c5a8288765d2336659ebca68fcd00",
        "gas": "0xf7ea",
        "value": "0x0",
        "input": "0x095ea7b3000000000000000000000000cd8a1c3ba11cf5ecfa6267617243239504a98d9000000000000000000000000000000000000000000000d3c21bcecceda1000000",
        "nonce": "0x3a",
        "chainId": "0xa455"
      },
      "additionalContracts": [],
      "isFixedGasLimit": false
    },
    {
      "hash": "0x2f182f4ec747cc55895a5d8cafd01b1818d2a630d979616e8e2ebbb1e2ff01f5",
      "transactionType": "CALL",
      "contractName": "MockERC20",
      "contractAddress": "0x1291be112d480055dafd8a610b7d1e203891c274",
      "function": "approve(address,uint256)",
      "arguments": [
        "0xCD8a1C3ba11CF5ECfa6267617243239504a98d90",
        "1000000000000"
      ],
      "transaction": {
        "from": "0xf39fd6e51aad88f6f4ce6ab8827279cfffb92266",
        "to": "0x1291be112d480055dafd8a610b7d1e203891c274",
        "gas": "0x1064b",
        "value": "0x0",
        "input": "0x095ea7b3000000000000000000000000cd8a1c3ba11cf5ecfa6267617243239504a98d90000000000000000000000000000000000000000000000000000000e8d4a51000",
        "nonce": "0x3b",
        "chainId": "0xa455"
      },
      "additionalContracts": [],
      "isFixedGasLimit": false
    },
    {
      "hash": "0x6d7087fa76b20599cb0a154c90c90c5fe91bacae9b4ef63bfdda7b80c768a4a6",
      "transactionType": "CALL",
      "contractName": "GoodPool",
      "contractAddress": "0xcd8a1c3ba11cf5ecfa6267617243239504a98d90",
      "function": "addLiquidity(uint256,uint256)",
      "arguments": [
        "1000000000000",
        "1000000000000000000000000"
      ],
      "transaction": {
        "from": "0xf39fd6e51aad88f6f4ce6ab8827279cfffb92266",
        "to": "0xcd8a1c3ba11cf5ecfa6267617243239504a98d90",
        "gas": "0x42088",
        "value": "0x0",
        "input": "0x9cd441da000000000000000000000000000000000000000000000000000000e8d4a5100000000000000000000000000000000000000000000000d3c21bcecceda1000000",
        "nonce": "0x3c",
        "chainId": "0xa455"
      },
      "additionalContracts": [],
      "isFixedGasLimit": false
    },
    {
      "hash": "0xda1789990f4dc92f27950386f0a826bf5b490b6424895b630e089540ad437d12",
      "transactionType": "CALL",
      "contractName": "MockERC20",
      "contractAddress": "0x809d550fca64d94bd9f66e60752a544199cfac3d",
      "function": "approve(address,uint256)",
      "arguments": [
        "0x82e01223d51Eb87e16A03E24687EDF0F294da6f1",
        "1000000000000000000000"
      ],
      "transaction": {
        "from": "0xf39fd6e51aad88f6f4ce6ab8827279cfffb92266",
        "to": "0x809d550fca64d94bd9f66e60752a544199cfac3d",
        "gas": "0xf7ea",
        "value": "0x0",
        "input": "0x095ea7b300000000000000000000000082e01223d51eb87e16a03e24687edf0f294da6f100000000000000000000000000000000000000000000003635c9adc5dea00000",
        "nonce": "0x3d",
        "chainId": "0xa455"
      },
      "additionalContracts": [],
      "isFixedGasLimit": false
    },
    {
      "hash": "0xf987f591c9de3b033b83f2fa9b72eb9ae39b30e64cf3f8d8623baf537a4c875e",
      "transactionType": "CALL",
      "contractName": "MockERC20",
      "contractAddress": "0x1291be112d480055dafd8a610b7d1e203891c274",
      "function": "approve(address,uint256)",
      "arguments": [
        "0x82e01223d51Eb87e16A03E24687EDF0F294da6f1",
        "3000000000000"
      ],
      "transaction": {
        "from": "0xf39fd6e51aad88f6f4ce6ab8827279cfffb92266",
        "to": "0x1291be112d480055dafd8a610b7d1e203891c274",
        "gas": "0xf7c9",
        "value": "0x0",
        "input": "0x095ea7b300000000000000000000000082e01223d51eb87e16a03e24687edf0f294da6f1000000000000000000000000000000000000000000000000000002ba7def3000",
        "nonce": "0x3e",
        "chainId": "0xa455"
      },
      "additionalContracts": [],
      "isFixedGasLimit": false
    },
    {
      "hash": "0x1a3862367272713cc9ad27f8a921e21b9c4f85b276a26ad9240144ba05157372",
      "transactionType": "CALL",
      "contractName": "GoodPool",
      "contractAddress": "0x82e01223d51eb87e16a03e24687edf0f294da6f1",
      "function": "addLiquidity(uint256,uint256)",
      "arguments": [
        "3000000000000",
        "1000000000000000000000"
      ],
      "transaction": {
        "from": "0xf39fd6e51aad88f6f4ce6ab8827279cfffb92266",
        "to": "0x82e01223d51eb87e16a03e24687edf0f294da6f1",
        "gas": "0x3c76b",
        "value": "0x0",
        "input": "0x9cd441da000000000000000000000000000000000000000000000000000002ba7def300000000000000000000000000000000000000000000000003635c9adc5dea00000",
        "nonce": "0x3f",
        "chainId": "0xa455"
      },
      "additionalContracts": [],
      "isFixedGasLimit": false
    }
  ],
  "receipts": [
    {
      "status": "0x1",
      "cumulativeGasUsed": "0x75f91",
      "logs": [],
      "logsBloom": "0x00000000000000000000000000000000000000000000000000000000000000000000000000000000000000000000000000000000000000000000000000000000000000000000000000000000000000000000000000000000000000000000000000000000000000000000000000000000000000000000000000000000000000000000000000000000000000000000000000000000000000000000000000000000000000000000000000000000000000000000000000000000000000000000000000000000000000000000000000000000000000000000000000000000000000000000000000000000000000000000000000000000000000000000000000000000",
      "type": "0x2",
      "transactionHash": "0x9a7fc2321def854c0cbf48b5509527318ac8444907e8151977f6fbedf6310389",
      "transactionIndex": "0x0",
      "blockHash": "0xef83ab7e74f5932ca4e00acfcac8245f827aeecdfbf659ba916d2e79407696f6",
      "blockNumber": "0x3d2a",
      "gasUsed": "0x75f91",
      "effectiveGasPrice": "0x8",
      "blobGasPrice": "0x1",
      "from": "0xf39fd6e51aad88f6f4ce6ab8827279cfffb92266",
      "to": null,
      "contractAddress": "0x5eb3bc0a489c5a8288765d2336659ebca68fcd00"
    },
    {
      "status": "0x1",
      "cumulativeGasUsed": "0x869e1",
      "logs": [
        {
          "address": "0x5eb3bc0a489c5a8288765d2336659ebca68fcd00",
          "topics": [
            "0xddf252ad1be2c89b69c2b068fc378daa952ba7f163c4a11628f55a4df523b3ef",
            "0x0000000000000000000000000000000000000000000000000000000000000000",
            "0x000000000000000000000000f39fd6e51aad88f6f4ce6ab8827279cfffb92266"
          ],
          "data": "0x000000000000000000000000000000000000000000034f086f3b33b684000000",
          "blockHash": "0xef83ab7e74f5932ca4e00acfcac8245f827aeecdfbf659ba916d2e79407696f6",
          "blockNumber": "0x3d2a",
          "blockTimestamp": "0x6a01aa79",
          "transactionHash": "0xdcea5b306c75b9db958a84d43949893ef2c3ef0585a4c6573bfe9ea93b4e2789",
          "transactionIndex": "0x1",
          "logIndex": "0x0",
          "removed": false
        }
      ],
      "logsBloom": "0x00000000000000000000000000000008000000000000000000000000000000000000000000000000000000000000000000000000000000000000000000000000004000000000000000000008000000000000000000000000004000000000000000000000020000000000000100000800000000000000000000000010000000000000000000000000000000000000000000000000000000000000000000000000000000000000000000000000000000000000000000000000000000000000000000000002000000200000000000000000000000002000000000000000000020000000000000000000000000000000000000000000000000000000000000000000",
      "type": "0x2",
      "transactionHash": "0xdcea5b306c75b9db958a84d43949893ef2c3ef0585a4c6573bfe9ea93b4e2789",
      "transactionIndex": "0x1",
      "blockHash": "0xef83ab7e74f5932ca4e00acfcac8245f827aeecdfbf659ba916d2e79407696f6",
      "blockNumber": "0x3d2a",
      "gasUsed": "0x10a50",
      "effectiveGasPrice": "0x8",
      "blobGasPrice": "0x1",
      "from": "0xf39fd6e51aad88f6f4ce6ab8827279cfffb92266",
      "to": "0x5eb3bc0a489c5a8288765d2336659ebca68fcd00",
      "contractAddress": null
    },
    {
      "status": "0x1",
      "cumulativeGasUsed": "0xfc9ae",
      "logs": [],
      "logsBloom": "0x00000000000000000000000000000000000000000000000000000000000000000000000000000000000000000000000000000000000000000000000000000000000000000000000000000000000000000000000000000000000000000000000000000000000000000000000000000000000000000000000000000000000000000000000000000000000000000000000000000000000000000000000000000000000000000000000000000000000000000000000000000000000000000000000000000000000000000000000000000000000000000000000000000000000000000000000000000000000000000000000000000000000000000000000000000000",
      "type": "0x2",
      "transactionHash": "0x5e951dac1a91c2b4b3c89335b0249ec074b6f8675c783aefeaee39ba1f52d57f",
      "transactionIndex": "0x2",
      "blockHash": "0xef83ab7e74f5932ca4e00acfcac8245f827aeecdfbf659ba916d2e79407696f6",
      "blockNumber": "0x3d2a",
      "gasUsed": "0x75fcd",
      "effectiveGasPrice": "0x8",
      "blobGasPrice": "0x1",
      "from": "0xf39fd6e51aad88f6f4ce6ab8827279cfffb92266",
      "to": null,
      "contractAddress": "0x809d550fca64d94bd9f66e60752a544199cfac3d"
    },
    {
      "status": "0x1",
      "cumulativeGasUsed": "0x10d3f2",
      "logs": [
        {
          "address": "0x809d550fca64d94bd9f66e60752a544199cfac3d",
          "topics": [
            "0xddf252ad1be2c89b69c2b068fc378daa952ba7f163c4a11628f55a4df523b3ef",
            "0x0000000000000000000000000000000000000000000000000000000000000000",
            "0x000000000000000000000000f39fd6e51aad88f6f4ce6ab8827279cfffb92266"
          ],
          "data": "0x00000000000000000000000000000000000000000000006c6b935b8bbd400000",
          "blockHash": "0xef83ab7e74f5932ca4e00acfcac8245f827aeecdfbf659ba916d2e79407696f6",
          "blockNumber": "0x3d2a",
          "blockTimestamp": "0x6a01aa79",
          "transactionHash": "0x108118cdb43889ae3153361d4d1eda57158d37197e48b6df9e522c919807c5b0",
          "transactionIndex": "0x3",
          "logIndex": "0x1",
          "removed": false
        }
      ],
      "logsBloom": "0x00000000000000000000000000000000000000000000000000000000000000000000000000000000000000000000000000000000000000000000000000000000000000000000000000000008000000000000000000000000000000400000000000000000028000000000000100000800000000000000000000000010000000000000000000000000000000000000000000000000000000000000000000000000000000000000000000000000000000000000000000000000000000000000000000000002000000200000000000000000000000002000000200000000000020000000000000000000000000000000000000000000000000000000000000000000",
      "type": "0x2",
      "transactionHash": "0x108118cdb43889ae3153361d4d1eda57158d37197e48b6df9e522c919807c5b0",
      "transactionIndex": "0x3",
      "blockHash": "0xef83ab7e74f5932ca4e00acfcac8245f827aeecdfbf659ba916d2e79407696f6",
      "blockNumber": "0x3d2a",
      "gasUsed": "0x10a44",
      "effectiveGasPrice": "0x8",
      "blobGasPrice": "0x1",
      "from": "0xf39fd6e51aad88f6f4ce6ab8827279cfffb92266",
      "to": "0x809d550fca64d94bd9f66e60752a544199cfac3d",
      "contractAddress": null
    },
    {
      "status": "0x1",
      "cumulativeGasUsed": "0x183383",
      "logs": [],
      "logsBloom": "0x00000000000000000000000000000000000000000000000000000000000000000000000000000000000000000000000000000000000000000000000000000000000000000000000000000000000000000000000000000000000000000000000000000000000000000000000000000000000000000000000000000000000000000000000000000000000000000000000000000000000000000000000000000000000000000000000000000000000000000000000000000000000000000000000000000000000000000000000000000000000000000000000000000000000000000000000000000000000000000000000000000000000000000000000000000000",
      "type": "0x2",
      "transactionHash": "0x34a321a84765dd21260a8607d5110f03e47e18f7dfbf6ff884664a8bf2597653",
      "transactionIndex": "0x4",
      "blockHash": "0xef83ab7e74f5932ca4e00acfcac8245f827aeecdfbf659ba916d2e79407696f6",
      "blockNumber": "0x3d2a",
      "gasUsed": "0x75f91",
      "effectiveGasPrice": "0x8",
      "blobGasPrice": "0x1",
      "from": "0xf39fd6e51aad88f6f4ce6ab8827279cfffb92266",
      "to": null,
      "contractAddress": "0x1291be112d480055dafd8a610b7d1e203891c274"
    },
    {
      "status": "0x1",
      "cumulativeGasUsed": "0x193daf",
      "logs": [
        {
          "address": "0x1291be112d480055dafd8a610b7d1e203891c274",
          "topics": [
            "0xddf252ad1be2c89b69c2b068fc378daa952ba7f163c4a11628f55a4df523b3ef",
            "0x0000000000000000000000000000000000000000000000000000000000000000",
            "0x000000000000000000000000f39fd6e51aad88f6f4ce6ab8827279cfffb92266"
          ],
          "data": "0x000000000000000000000000000000000000000000000000000003a352944000",
          "blockHash": "0xef83ab7e74f5932ca4e00acfcac8245f827aeecdfbf659ba916d2e79407696f6",
          "blockNumber": "0x3d2a",
          "blockTimestamp": "0x6a01aa79",
          "transactionHash": "0x0ceb06af401f9aea24b56d26e3d1afc6bdfe5ed871fcf5427bd76991dfbee433",
          "transactionIndex": "0x5",
          "logIndex": "0x2",
          "removed": false
        }
      ],
      "logsBloom": "0x00000000000000000000000000000000000000000000000000000000000800000000000000000000000000000000000000000000000000000000000000000000000000000000000000040008000000000000000000000000000000000000000000000000020000000000000100000800000000000000000000000010000000000000000000000000000000000000000000000000000000000000000000000000000000000000000000000000000000000000000000000000000000000000000000000002080000200000000000000000000000002000000000000000000020000000000000000000000000000000000000000000000000000000000000000000",
      "type": "0x2",
      "transactionHash": "0x0ceb06af401f9aea24b56d26e3d1afc6bdfe5ed871fcf5427bd76991dfbee433",
      "transactionIndex": "0x5",
      "blockHash": "0xef83ab7e74f5932ca4e00acfcac8245f827aeecdfbf659ba916d2e79407696f6",
      "blockNumber": "0x3d2a",
      "gasUsed": "0x10a2c",
      "effectiveGasPrice": "0x8",
      "blobGasPrice": "0x1",
      "from": "0xf39fd6e51aad88f6f4ce6ab8827279cfffb92266",
      "to": "0x1291be112d480055dafd8a610b7d1e203891c274",
      "contractAddress": null
    },
    {
      "status": "0x1",
      "cumulativeGasUsed": "0x268e76",
      "logs": [],
      "logsBloom": "0x00000000000000000000000000000000000000000000000000000000000000000000000000000000000000000000000000000000000000000000000000000000000000000000000000000000000000000000000000000000000000000000000000000000000000000000000000000000000000000000000000000000000000000000000000000000000000000000000000000000000000000000000000000000000000000000000000000000000000000000000000000000000000000000000000000000000000000000000000000000000000000000000000000000000000000000000000000000000000000000000000000000000000000000000000000000",
      "type": "0x2",
      "transactionHash": "0x2f182f4ec747cc55895a5d8cafd01b1818d2a630d979616e8e2ebbb1e2ff01f5",
      "transactionIndex": "0x6",
      "blockHash": "0xef83ab7e74f5932ca4e00acfcac8245f827aeecdfbf659ba916d2e79407696f6",
      "blockNumber": "0x3d2a",
      "gasUsed": "0xd50c7",
      "effectiveGasPrice": "0x8",
      "blobGasPrice": "0x1",
      "from": "0xf39fd6e51aad88f6f4ce6ab8827279cfffb92266",
      "to": null,
      "contractAddress": "0xb7278a61aa25c888815afc32ad3cc52ff24fe575"
    },
    {
      "status": "0x1",
      "cumulativeGasUsed": "0x33df3a",
      "logs": [],
      "logsBloom": "0x00000000000000000000000000000000000000000000000000000000000000000000000000000000000000000000000000000000000000000000000000000000000000000000000000000000000000000000000000000000000000000000000000000000000000000000000000000000000000000000000000000000000000000000000000000000000000000000000000000000000000000000000000000000000000000000000000000000000000000000000000000000000000000000000000000000000000000000000000000000000000000000000000000000000000000000000000000000000000000000000000000000000000000000000000000000",
      "type": "0x2",
      "transactionHash": "0x84425eb16a583262036cabd09c2f47cb0b1a49834dd9d1dde8ca96ed144922fe",
      "transactionIndex": "0x7",
      "blockHash": "0xef83ab7e74f5932ca4e00acfcac8245f827aeecdfbf659ba916d2e79407696f6",
      "blockNumber": "0x3d2a",
      "gasUsed": "0xd50c4",
      "effectiveGasPrice": "0x8",
      "blobGasPrice": "0x1",
      "from": "0xf39fd6e51aad88f6f4ce6ab8827279cfffb92266",
      "to": null,
      "contractAddress": "0xcd8a1c3ba11cf5ecfa6267617243239504a98d90"
    },
    {
      "status": "0x1",
      "cumulativeGasUsed": "0x41300a",
      "logs": [],
      "logsBloom": "0x00000000000000000000000000000000000000000000000000000000000000000000000000000000000000000000000000000000000000000000000000000000000000000000000000000000000000000000000000000000000000000000000000000000000000000000000000000000000000000000000000000000000000000000000000000000000000000000000000000000000000000000000000000000000000000000000000000000000000000000000000000000000000000000000000000000000000000000000000000000000000000000000000000000000000000000000000000000000000000000000000000000000000000000000000000000",
      "type": "0x2",
      "transactionHash": "0xb046c5235f932129bf0d6b02f2ffe2777eb1fb084b887a4f64cacc91ef17e392",
      "transactionIndex": "0x8",
      "blockHash": "0xef83ab7e74f5932ca4e00acfcac8245f827aeecdfbf659ba916d2e79407696f6",
      "blockNumber": "0x3d2a",
      "gasUsed": "0xd50d0",
      "effectiveGasPrice": "0x8",
      "blobGasPrice": "0x1",
      "from": "0xf39fd6e51aad88f6f4ce6ab8827279cfffb92266",
      "to": null,
      "contractAddress": "0x82e01223d51eb87e16a03e24687edf0f294da6f1"
    },
    {
      "status": "0x1",
      "cumulativeGasUsed": "0x41e393",
      "logs": [
        {
          "address": "0x5eb3bc0a489c5a8288765d2336659ebca68fcd00",
          "topics": [
            "0x8c5be1e5ebec7d5bd14f71427d1e84f3dd0314c0f7b2291e5b200ac8c7c3b925",
            "0x000000000000000000000000f39fd6e51aad88f6f4ce6ab8827279cfffb92266",
            "0x000000000000000000000000b7278a61aa25c888815afc32ad3cc52ff24fe575"
          ],
          "data": "0x000000000000000000000000000000000000000000027b46536c66c8e3000000",
          "blockHash": "0xef83ab7e74f5932ca4e00acfcac8245f827aeecdfbf659ba916d2e79407696f6",
          "blockNumber": "0x3d2a",
          "blockTimestamp": "0x6a01aa79",
          "transactionHash": "0x1a3862367272713cc9ad27f8a921e21b9c4f85b276a26ad9240144ba05157372",
          "transactionIndex": "0x9",
          "logIndex": "0x3",
          "removed": false
        }
      ],
      "logsBloom": "0x00000000000000000000000000000008000000000000000000000000000000000000000000000000000000000000000000000000000000000000000000200000004000000000000400000000000000000000000000000000004000000000000000000000000000000000000100000000000000000000000000000000000000000000000000000000000000000000000000000000000000000000000000000000020000000000000000000000000000000000000000000000000000000000000000000000000000200000000000000000000000002000000000000000000000000010000000000000800000000000000000000000000000000000000000000000",
      "type": "0x2",
      "transactionHash": "0x1a3862367272713cc9ad27f8a921e21b9c4f85b276a26ad9240144ba05157372",
      "transactionIndex": "0x9",
      "blockHash": "0xef83ab7e74f5932ca4e00acfcac8245f827aeecdfbf659ba916d2e79407696f6",
      "blockNumber": "0x3d2a",
      "gasUsed": "0xb389",
      "effectiveGasPrice": "0x8",
      "blobGasPrice": "0x1",
      "from": "0xf39fd6e51aad88f6f4ce6ab8827279cfffb92266",
      "to": "0x5eb3bc0a489c5a8288765d2336659ebca68fcd00",
      "contractAddress": null
    },
    {
      "status": "0x1",
      "cumulativeGasUsed": "0x429710",
      "logs": [
        {
          "address": "0x809d550fca64d94bd9f66e60752a544199cfac3d",
          "topics": [
            "0x8c5be1e5ebec7d5bd14f71427d1e84f3dd0314c0f7b2291e5b200ac8c7c3b925",
            "0x000000000000000000000000f39fd6e51aad88f6f4ce6ab8827279cfffb92266",
            "0x000000000000000000000000b7278a61aa25c888815afc32ad3cc52ff24fe575"
          ],
          "data": "0x00000000000000000000000000000000000000000000003635c9adc5dea00000",
          "blockHash": "0xef83ab7e74f5932ca4e00acfcac8245f827aeecdfbf659ba916d2e79407696f6",
          "blockNumber": "0x3d2a",
          "blockTimestamp": "0x6a01aa79",
          "transactionHash": "0x70cedc4e3729bdcc27a844d29d20fc350c08502344c8a51e4165826e26c867f0",
          "transactionIndex": "0xa",
          "logIndex": "0x4",
          "removed": false
        }
      ],
      "logsBloom": "0x00000000000000000000000000000000000000000000000000000000000000000000000000000000000000000000000000000000000000000000000000200000000000000000000400000000000000000000000000000000000000400000000000000000008000000000000100000000000000000000000000000000000000000000000000000000000000000000000000000000000000000000000000000000020000000000000000000000000000000000000000000000000000000000000000000000000000200000000000000000000000002000000200000000000000000010000000000000800000000000000000000000000000000000000000000000",
      "type": "0x2",
      "transactionHash": "0x70cedc4e3729bdcc27a844d29d20fc350c08502344c8a51e4165826e26c867f0",
      "transactionIndex": "0xa",
      "blockHash": "0xef83ab7e74f5932ca4e00acfcac8245f827aeecdfbf659ba916d2e79407696f6",
      "blockNumber": "0x3d2a",
      "gasUsed": "0xb37d",
      "effectiveGasPrice": "0x8",
      "blobGasPrice": "0x1",
      "from": "0xf39fd6e51aad88f6f4ce6ab8827279cfffb92266",
      "to": "0x809d550fca64d94bd9f66e60752a544199cfac3d",
      "contractAddress": null
    },
    {
      "status": "0x1",
      "cumulativeGasUsed": "0x45870b",
      "logs": [
        {
          "address": "0x5eb3bc0a489c5a8288765d2336659ebca68fcd00",
          "topics": [
            "0xddf252ad1be2c89b69c2b068fc378daa952ba7f163c4a11628f55a4df523b3ef",
            "0x000000000000000000000000f39fd6e51aad88f6f4ce6ab8827279cfffb92266",
            "0x000000000000000000000000b7278a61aa25c888815afc32ad3cc52ff24fe575"
          ],
          "data": "0x000000000000000000000000000000000000000000027b46536c66c8e3000000",
          "blockHash": "0xef83ab7e74f5932ca4e00acfcac8245f827aeecdfbf659ba916d2e79407696f6",
          "blockNumber": "0x3d2a",
          "blockTimestamp": "0x6a01aa79",
          "transactionHash": "0xc42e6a3a3f03b1a0050a1a7d02ae64e4e4c0114814594919cdd2aac75ed22c76",
          "transactionIndex": "0xb",
          "logIndex": "0x5",
          "removed": false
        },
        {
          "address": "0x809d550fca64d94bd9f66e60752a544199cfac3d",
          "topics": [
            "0xddf252ad1be2c89b69c2b068fc378daa952ba7f163c4a11628f55a4df523b3ef",
            "0x000000000000000000000000f39fd6e51aad88f6f4ce6ab8827279cfffb92266",
            "0x000000000000000000000000b7278a61aa25c888815afc32ad3cc52ff24fe575"
          ],
          "data": "0x00000000000000000000000000000000000000000000003635c9adc5dea00000",
          "blockHash": "0xef83ab7e74f5932ca4e00acfcac8245f827aeecdfbf659ba916d2e79407696f6",
          "blockNumber": "0x3d2a",
          "blockTimestamp": "0x6a01aa79",
          "transactionHash": "0xc42e6a3a3f03b1a0050a1a7d02ae64e4e4c0114814594919cdd2aac75ed22c76",
          "transactionIndex": "0xb",
          "logIndex": "0x6",
          "removed": false
        },
        {
          "address": "0xb7278a61aa25c888815afc32ad3cc52ff24fe575",
          "topics": [
            "0x64b83944e79c3ce8d4c297411de637c3e102d064677aac0c163976ebdcd6f50e",
            "0x000000000000000000000000f39fd6e51aad88f6f4ce6ab8827279cfffb92266"
          ],
          "data": "0x000000000000000000000000000000000000000000027b46536c66c8e300000000000000000000000000000000000000000000000000003635c9adc5dea00000000000000000000000000000000000000000000000000b9935be393f250ded20",
          "blockHash": "0xef83ab7e74f5932ca4e00acfcac8245f827aeecdfbf659ba916d2e79407696f6",
          "blockNumber": "0x3d2a",
          "blockTimestamp": "0x6a01aa79",
          "transactionHash": "0xc42e6a3a3f03b1a0050a1a7d02ae64e4e4c0114814594919cdd2aac75ed22c76",
          "transactionIndex": "0xb",
          "logIndex": "0x7",
          "removed": false
        }
      ],
      "logsBloom": "0x00000000000000000000000000000008000000000000000000000000000000000000000000000000000000000000000000000000000000000000000000200000004001000000000400000008800000001000000000000000004000400000000000000000008000000000000100000000000000000000000000000010000000000000000000000000000000000000000000000000000000000000000000000000000000000000000000000000000000000000000000080000000000000000000000000002000000200000000000000000000000002080000200000000020000000000000000000000800000000000000000000000000000000000000000000000",
      "type": "0x2",
      "transactionHash": "0xc42e6a3a3f03b1a0050a1a7d02ae64e4e4c0114814594919cdd2aac75ed22c76",
      "transactionIndex": "0xb",
      "blockHash": "0xef83ab7e74f5932ca4e00acfcac8245f827aeecdfbf659ba916d2e79407696f6",
      "blockNumber": "0x3d2a",
      "gasUsed": "0x2effb",
      "effectiveGasPrice": "0x8",
      "blobGasPrice": "0x1",
      "from": "0xf39fd6e51aad88f6f4ce6ab8827279cfffb92266",
      "to": "0xb7278a61aa25c888815afc32ad3cc52ff24fe575",
      "contractAddress": null
    },
    {
      "status": "0x1",
      "cumulativeGasUsed": "0x463a88",
      "logs": [
        {
          "address": "0x5eb3bc0a489c5a8288765d2336659ebca68fcd00",
          "topics": [
            "0x8c5be1e5ebec7d5bd14f71427d1e84f3dd0314c0f7b2291e5b200ac8c7c3b925",
            "0x000000000000000000000000f39fd6e51aad88f6f4ce6ab8827279cfffb92266",
            "0x000000000000000000000000cd8a1c3ba11cf5ecfa6267617243239504a98d90"
          ],
          "data": "0x00000000000000000000000000000000000000000000d3c21bcecceda1000000",
          "blockHash": "0xef83ab7e74f5932ca4e00acfcac8245f827aeecdfbf659ba916d2e79407696f6",
          "blockNumber": "0x3d2a",
          "blockTimestamp": "0x6a01aa79",
          "transactionHash": "0xede23d7fac4b40a18a33cb2e5216e3504e17fe6611eec31b2a73b939431ca759",
          "transactionIndex": "0xc",
          "logIndex": "0x8",
          "removed": false
        }
      ],
      "logsBloom": "0x00000000000000000000000000000008000000000000000000000000000000000000000000000000000000000000000000000000000000000000000000200000004000000000000000000000000000000000000000000000004000000000000000000000000000000000000100000000000000000000000000000800000000000000000000000000000000000000000000000000000000000000000000000000020000000000000000000000000000000000000000000000200000000000000000000000000000200000000000000000000040002000000000000000000000000010000000000000000000000000000000000000000000000000000000000000",
      "type": "0x2",
      "transactionHash": "0xede23d7fac4b40a18a33cb2e5216e3504e17fe6611eec31b2a73b939431ca759",
      "transactionIndex": "0xc",
      "blockHash": "0xef83ab7e74f5932ca4e00acfcac8245f827aeecdfbf659ba916d2e79407696f6",
      "blockNumber": "0x3d2a",
      "gasUsed": "0xb37d",
      "effectiveGasPrice": "0x8",
      "blobGasPrice": "0x1",
      "from": "0xf39fd6e51aad88f6f4ce6ab8827279cfffb92266",
      "to": "0x5eb3bc0a489c5a8288765d2336659ebca68fcd00",
      "contractAddress": null
    },
    {
      "status": "0x1",
      "cumulativeGasUsed": "0x46ede1",
      "logs": [
        {
          "address": "0x1291be112d480055dafd8a610b7d1e203891c274",
          "topics": [
            "0x8c5be1e5ebec7d5bd14f71427d1e84f3dd0314c0f7b2291e5b200ac8c7c3b925",
            "0x000000000000000000000000f39fd6e51aad88f6f4ce6ab8827279cfffb92266",
            "0x000000000000000000000000cd8a1c3ba11cf5ecfa6267617243239504a98d90"
          ],
          "data": "0x000000000000000000000000000000000000000000000000000000e8d4a51000",
          "blockHash": "0xef83ab7e74f5932ca4e00acfcac8245f827aeecdfbf659ba916d2e79407696f6",
          "blockNumber": "0x3d2a",
          "blockTimestamp": "0x6a01aa79",
          "transactionHash": "0x6d7087fa76b20599cb0a154c90c90c5fe91bacae9b4ef63bfdda7b80c768a4a6",
          "transactionIndex": "0xd",
          "logIndex": "0x9",
          "removed": false
        }
      ],
      "logsBloom": "0x00000000000000000000000000000000000000000000000000000000000800000000000000000000000000000000000000000000000000000000000000200000000000000000000000040000000000000000000000000000000000000000000000000000000000000000000100000000000000000000000000000800000000000000000000000000000000000000000000000000000000000000000000000000020000000000000000000000000000000000000000000000200000000000000000000000080000200000000000000000000040002000000000000000000000000010000000000000000000000000000000000000000000000000000000000000",
      "type": "0x2",
      "transactionHash": "0x6d7087fa76b20599cb0a154c90c90c5fe91bacae9b4ef63bfdda7b80c768a4a6",
      "transactionIndex": "0xd",
      "blockHash": "0xef83ab7e74f5932ca4e00acfcac8245f827aeecdfbf659ba916d2e79407696f6",
      "blockNumber": "0x3d2a",
      "gasUsed": "0xb359",
      "effectiveGasPrice": "0x8",
      "blobGasPrice": "0x1",
      "from": "0xf39fd6e51aad88f6f4ce6ab8827279cfffb92266",
      "to": "0x1291be112d480055dafd8a610b7d1e203891c274",
      "contractAddress": null
    },
    {
      "status": "0x1",
      "cumulativeGasUsed": "0x49c04c",
      "logs": [
        {
          "address": "0x1291be112d480055dafd8a610b7d1e203891c274",
          "topics": [
            "0xddf252ad1be2c89b69c2b068fc378daa952ba7f163c4a11628f55a4df523b3ef",
            "0x000000000000000000000000f39fd6e51aad88f6f4ce6ab8827279cfffb92266",
            "0x000000000000000000000000cd8a1c3ba11cf5ecfa6267617243239504a98d90"
          ],
          "data": "0x000000000000000000000000000000000000000000000000000000e8d4a51000",
          "blockHash": "0xef83ab7e74f5932ca4e00acfcac8245f827aeecdfbf659ba916d2e79407696f6",
          "blockNumber": "0x3d2a",
          "blockTimestamp": "0x6a01aa79",
          "transactionHash": "0xf987f591c9de3b033b83f2fa9b72eb9ae39b30e64cf3f8d8623baf537a4c875e",
          "transactionIndex": "0xe",
          "logIndex": "0xa",
          "removed": false
        },
        {
          "address": "0x5eb3bc0a489c5a8288765d2336659ebca68fcd00",
          "topics": [
            "0xddf252ad1be2c89b69c2b068fc378daa952ba7f163c4a11628f55a4df523b3ef",
            "0x000000000000000000000000f39fd6e51aad88f6f4ce6ab8827279cfffb92266",
            "0x000000000000000000000000cd8a1c3ba11cf5ecfa6267617243239504a98d90"
          ],
          "data": "0x00000000000000000000000000000000000000000000d3c21bcecceda1000000",
          "blockHash": "0xef83ab7e74f5932ca4e00acfcac8245f827aeecdfbf659ba916d2e79407696f6",
          "blockNumber": "0x3d2a",
          "blockTimestamp": "0x6a01aa79",
          "transactionHash": "0xf987f591c9de3b033b83f2fa9b72eb9ae39b30e64cf3f8d8623baf537a4c875e",
          "transactionIndex": "0xe",
          "logIndex": "0xb",
          "removed": false
        },
        {
          "address": "0xcd8a1c3ba11cf5ecfa6267617243239504a98d90",
          "topics": [
            "0x64b83944e79c3ce8d4c297411de637c3e102d064677aac0c163976ebdcd6f50e",
            "0x000000000000000000000000f39fd6e51aad88f6f4ce6ab8827279cfffb92266"
          ],
          "data": "0x000000000000000000000000000000000000000000000000000000e8d4a5100000000000000000000000000000000000000000000000d3c21bcecceda10000000000000000000000000000000000000000000000000000000de0b6b3a7640000",
          "blockHash": "0xef83ab7e74f5932ca4e00acfcac8245f827aeecdfbf659ba916d2e79407696f6",
          "blockNumber": "0x3d2a",
          "blockTimestamp": "0x6a01aa79",
          "transactionHash": "0xf987f591c9de3b033b83f2fa9b72eb9ae39b30e64cf3f8d8623baf537a4c875e",
          "transactionIndex": "0xe",
          "logIndex": "0xc",
          "removed": false
        }
      ],
      "logsBloom": "0x00000000000000000000008000000008002000000000000000000000000800000000000000000004000000000000000000000000000000000000000000000000004001000000000000040008800000000000000000000000004000000000000000000000000000000000000100000000000000000000000000000810000000000000000000000000000000000000000000000000000000000000000000000000000000000000000000000000000000000000000000000000200000000000000000000002080000200000000000000000000040002000000000000000020000000000000000000000000000000000000000000000000000000000000000000000",
      "type": "0x2",
      "transactionHash": "0xf987f591c9de3b033b83f2fa9b72eb9ae39b30e64cf3f8d8623baf537a4c875e",
      "transactionIndex": "0xe",
      "blockHash": "0xef83ab7e74f5932ca4e00acfcac8245f827aeecdfbf659ba916d2e79407696f6",
      "blockNumber": "0x3d2a",
      "gasUsed": "0x2d26b",
      "effectiveGasPrice": "0x8",
      "blobGasPrice": "0x1",
      "from": "0xf39fd6e51aad88f6f4ce6ab8827279cfffb92266",
      "to": "0xcd8a1c3ba11cf5ecfa6267617243239504a98d90",
      "contractAddress": null
    },
    {
      "status": "0x1",
      "cumulativeGasUsed": "0x4a73c9",
      "logs": [
        {
          "address": "0x809d550fca64d94bd9f66e60752a544199cfac3d",
          "topics": [
            "0x8c5be1e5ebec7d5bd14f71427d1e84f3dd0314c0f7b2291e5b200ac8c7c3b925",
            "0x000000000000000000000000f39fd6e51aad88f6f4ce6ab8827279cfffb92266",
            "0x00000000000000000000000082e01223d51eb87e16a03e24687edf0f294da6f1"
          ],
          "data": "0x00000000000000000000000000000000000000000000003635c9adc5dea00000",
          "blockHash": "0xef83ab7e74f5932ca4e00acfcac8245f827aeecdfbf659ba916d2e79407696f6",
          "blockNumber": "0x3d2a",
          "blockTimestamp": "0x6a01aa79",
          "transactionHash": "0x76ce4265e6f2c3dc48b2d937a105476a1614ef43d6e8746047e53849de760752",
          "transactionIndex": "0xf",
          "logIndex": "0xd",
          "removed": false
        }
      ],
      "logsBloom": "0x00000000000000000000000000000000000000000000000000000000000000000000000000000000000000000000000000000000000000000000000000200000000000000000000000000000000000000000000000000000000000400000000000000000008000000000000100000000000000000100000000000000000000000000000000000000000000000000000000000000000000000000000000000040020000000000000000000000000000000000000000000000000000000000000000000000010000200000000000000000000000002000000200000000000000000010000000000000000000000000000000000000000000000000000000000000",
      "type": "0x2",
      "transactionHash": "0x76ce4265e6f2c3dc48b2d937a105476a1614ef43d6e8746047e53849de760752",
      "transactionIndex": "0xf",
      "blockHash": "0xef83ab7e74f5932ca4e00acfcac8245f827aeecdfbf659ba916d2e79407696f6",
      "blockNumber": "0x3d2a",
      "gasUsed": "0xb37d",
      "effectiveGasPrice": "0x8",
      "blobGasPrice": "0x1",
      "from": "0xf39fd6e51aad88f6f4ce6ab8827279cfffb92266",
      "to": "0x809d550fca64d94bd9f66e60752a544199cfac3d",
      "contractAddress": null
    },
    {
      "status": "0x1",
      "cumulativeGasUsed": "0x4b272e",
      "logs": [
        {
          "address": "0x1291be112d480055dafd8a610b7d1e203891c274",
          "topics": [
            "0x8c5be1e5ebec7d5bd14f71427d1e84f3dd0314c0f7b2291e5b200ac8c7c3b925",
            "0x000000000000000000000000f39fd6e51aad88f6f4ce6ab8827279cfffb92266",
            "0x00000000000000000000000082e01223d51eb87e16a03e24687edf0f294da6f1"
          ],
          "data": "0x000000000000000000000000000000000000000000000000000002ba7def3000",
          "blockHash": "0xef83ab7e74f5932ca4e00acfcac8245f827aeecdfbf659ba916d2e79407696f6",
          "blockNumber": "0x3d2a",
          "blockTimestamp": "0x6a01aa79",
          "transactionHash": "0x25b5d140e6eeb64234f769bbbfe68692f79b9ccd28c0c9c594f5b16dd5da152c",
          "transactionIndex": "0x10",
          "logIndex": "0xe",
          "removed": false
        }
      ],
      "logsBloom": "0x00000000000000000000000000000000000000000000000000000000000800000000000000000000000000000000000000000000000000000000000000200000000000000000000000040000000000000000000000000000000000000000000000000000000000000000000100000000000000000100000000000000000000000000000000000000000000000000000000000000000000000000000000000040020000000000000000000000000000000000000000000000000000000000000000000000090000200000000000000000000000002000000000000000000000000010000000000000000000000000000000000000000000000000000000000000",
      "type": "0x2",
      "transactionHash": "0x25b5d140e6eeb64234f769bbbfe68692f79b9ccd28c0c9c594f5b16dd5da152c",
      "transactionIndex": "0x10",
      "blockHash": "0xef83ab7e74f5932ca4e00acfcac8245f827aeecdfbf659ba916d2e79407696f6",
      "blockNumber": "0x3d2a",
      "gasUsed": "0xb365",
      "effectiveGasPrice": "0x8",
      "blobGasPrice": "0x1",
      "from": "0xf39fd6e51aad88f6f4ce6ab8827279cfffb92266",
      "to": "0x1291be112d480055dafd8a610b7d1e203891c274",
      "contractAddress": null
    },
    {
      "status": "0x1",
      "cumulativeGasUsed": "0x4de393",
      "logs": [
        {
          "address": "0x1291be112d480055dafd8a610b7d1e203891c274",
          "topics": [
            "0xddf252ad1be2c89b69c2b068fc378daa952ba7f163c4a11628f55a4df523b3ef",
            "0x000000000000000000000000f39fd6e51aad88f6f4ce6ab8827279cfffb92266",
            "0x00000000000000000000000082e01223d51eb87e16a03e24687edf0f294da6f1"
          ],
          "data": "0x000000000000000000000000000000000000000000000000000002ba7def3000",
          "blockHash": "0xef83ab7e74f5932ca4e00acfcac8245f827aeecdfbf659ba916d2e79407696f6",
          "blockNumber": "0x3d2a",
          "blockTimestamp": "0x6a01aa79",
          "transactionHash": "0xda1789990f4dc92f27950386f0a826bf5b490b6424895b630e089540ad437d12",
          "transactionIndex": "0x11",
          "logIndex": "0xf",
          "removed": false
        },
        {
          "address": "0x809d550fca64d94bd9f66e60752a544199cfac3d",
          "topics": [
            "0xddf252ad1be2c89b69c2b068fc378daa952ba7f163c4a11628f55a4df523b3ef",
            "0x000000000000000000000000f39fd6e51aad88f6f4ce6ab8827279cfffb92266",
            "0x00000000000000000000000082e01223d51eb87e16a03e24687edf0f294da6f1"
          ],
          "data": "0x00000000000000000000000000000000000000000000003635c9adc5dea00000",
          "blockHash": "0xef83ab7e74f5932ca4e00acfcac8245f827aeecdfbf659ba916d2e79407696f6",
          "blockNumber": "0x3d2a",
          "blockTimestamp": "0x6a01aa79",
          "transactionHash": "0xda1789990f4dc92f27950386f0a826bf5b490b6424895b630e089540ad437d12",
          "transactionIndex": "0x11",
          "logIndex": "0x10",
          "removed": false
        },
        {
          "address": "0x82e01223d51eb87e16a03e24687edf0f294da6f1",
          "topics": [
            "0x64b83944e79c3ce8d4c297411de637c3e102d064677aac0c163976ebdcd6f50e",
            "0x000000000000000000000000f39fd6e51aad88f6f4ce6ab8827279cfffb92266"
          ],
          "data": "0x000000000000000000000000000000000000000000000000000002ba7def300000000000000000000000000000000000000000000000003635c9adc5dea0000000000000000000000000000000000000000000000000000000c297138f8e6f83",
          "blockHash": "0xef83ab7e74f5932ca4e00acfcac8245f827aeecdfbf659ba916d2e79407696f6",
          "blockNumber": "0x3d2a",
          "blockTimestamp": "0x6a01aa79",
          "transactionHash": "0xda1789990f4dc92f27950386f0a826bf5b490b6424895b630e089540ad437d12",
          "transactionIndex": "0x11",
          "logIndex": "0x11",
          "removed": false
        }
      ],
      "logsBloom": "0x00000000000000000000000000000000000000000000000000000000000800000000000000000000000000000000000000000000000000000000000000000000000001000000000000040008800000000000000000000000000000400000000000000000008000000000000100000000000100000100000000000010000000000000000000000000000000000000000000000000000000000000000000000040000000000000000000000000000800000000000000000000000000000000000000000002090000200000000000000000000000002000000200010000020000000000000000000000000000000000000000000000000000000000000000000000",
      "type": "0x2",
      "transactionHash": "0xda1789990f4dc92f27950386f0a826bf5b490b6424895b630e089540ad437d12",
      "transactionIndex": "0x11",
      "blockHash": "0xef83ab7e74f5932ca4e00acfcac8245f827aeecdfbf659ba916d2e79407696f6",
      "blockNumber": "0x3d2a",
      "gasUsed": "0x2bc65",
      "effectiveGasPrice": "0x8",
      "blobGasPrice": "0x1",
      "from": "0xf39fd6e51aad88f6f4ce6ab8827279cfffb92266",
      "to": "0x82e01223d51eb87e16a03e24687edf0f294da6f1",
      "contractAddress": null
    }
  ],
  "libraries": [],
  "pending": [],
  "returns": {},
  "timestamp": 1778494073831,
  "chain": 42069,
  "commit": "34edb5e"
}