{
  "transactions": [
    {
      "hash": "0x38064e9d5c9f8d4a6c391ccf60650e82686ad921f45ff23289b94d3df0f51e0b",
      "transactionType": "CREATE",
      "contractName": "AgentRegistry",
      "contractAddress": "0x0b306bf915c4d645ff596e518faf3f9669b97016",
      "function": null,
      "arguments": null,
      "transaction": {
        "from": "0xf39fd6e51aad88f6f4ce6ab8827279cfffb92266",
        "gas": "0x2d4c18",
        "value": "0x0",
        "input": "0x60808060405234603257610d056002556103e86003555f80546001600160a01b0319163317905561271690816100378239f35b5f80fdfe6080806040526004361015610012575f80fd5b5f3560e01c9081630a34d63714612151575080630e18b6811461209c578063152052b014611e495780632678224714611e215780632bfa4e0814611d875780632de5aaf714611d69578063388ae35614611cb15780633a41429a14611c74578063513856c814611c325780635de5c21214611bc15780635e02cb7d14611b495780635f81a57c14611b2c5780636652189314611b0f57806369f1324d1461162c57806375829def1461156f5780638bcdcbf3146114f157806391cab63e146114d45780639d5a39411461118c578063a2f6805c14611156578063a4efe69e146110db578063ae14e62714611055578063af537a2f14611038578063b0a0a92714610f84578063b1e29ea414610c23578063b896f22214610b73578063bbe1562714610a8b578063c3c5a54714610a4e578063c505371214610a31578063dd8755f214610927578063e031ed2b1461090c578063e275c997146108ef578063e2f11e61146101b25763f851a44014610187575f80fd5b346101ae575f3660031901126101ae575f546040516001600160a01b039091168152602090f35b5f80fd5b346101ae5760803660031901126101ae576101cb61216b565b6024356001600160401b0381116101ae576101ea90369060040161225c565b90335f52600960205260ff60405f20541680156108dc575b61020b90612687565b6001600160a01b0383165f9081526005602052604090205460ff1615610438575b60025460643580820293918115918504141715610424576127107fe569346dc44a549a2dba8bdb890e3ad5f8b19481c95faf552e6c4684f90f369c93049360018060a01b0381165f52600760205260405f206102888154612506565b905560018060a01b0381165f526007602052600160405f20016102ae60443582546126d3565b905560018060a01b0381165f526007602052600260405f20016102d460643582546126d3565b905560018060a01b0381165f526007602052600360405f20016102f88682546126d3565b90556001600160a01b0381165f908152600760209081526040808320426006909101556008825291829020915191829085878337858201908152030190206103408154612506565b905560018060a01b0381165f526008602052600160405f206020604051809286888337868201908152030190200161037b60443582546126d3565b905560018060a01b0381165f526008602052600260405f20602060405180928688833786820190815203019020016103b660643582546126d3565b90556103c3600c54612506565b600c556103d4604435600d546126d3565b600d556103e385600e546126d3565b600e556103fd604051938493608085526080850191612572565b6044356020840152606435604084015260608301959095526001600160a01b0316930390a2005b634e487b7160e01b5f52601160045260245ffd5b61044760045460035411612475565b6001600160a01b0383165f908152600560205260409020805460ff19166001179055610472836124c1565b61047d600b54612506565b600b5560405161048c816121a5565b6040805161049a82826121f6565b600f81526e105b9bdb9e5b5bdd5cc81059d95b9d608a1b602082015282526020918151906104c884836121f6565b5f825283810191825282516104dd85826121f6565b5f8082528285019182526001600160a01b03891660608401818152426080860152600160a0860152908252600687529085902083518051919592939291906001600160401b0382116107f75761053d826105378954612370565b89612514565b8890601f83116001146108795761056b92915f918361080b575b50508160011b915f199060031b1c19161790565b85555b51805160018601916001600160401b0382116107f757610598826105928554612370565b85612514565b8890601f8311600114610816576105c592915f918361080b5750508160011b915f199060031b1c19161790565b90555b518051906001600160401b0382116107f7576105f4826105eb6002880154612370565b60028801612514565b8690601f831160011461076e57936e105b9bdb9e5b5bdd5cc81059d95b9d608a1b9695936106408460059560a095610691995f926107635750508160011b915f199060031b1c19161790565b60028601555b600180841b039051166003850190600180851b03166bffffffffffffffffffffffff841b825416179055608081015160048501550151151591019060ff801983541691151516179055565b805161069c816121c0565b5f81526006876107168684015f81528585015f8152606086015f815260808701915f835260a08801936001855260c089019642885260018060a01b03165f5260078c52895f2098518955516001890155516002880155516003870155516004860155511515600585019060ff801983541691151516179055565b519101558051838152600f938101939093528201526001600160a01b0384169081907f6cf3badcf1a10c54709f13ad2475d8b3a44ebcb1b93b38e7257f98505323504090606090a361022c565b015190508f80610557565b90600286015f52875f20915f5b89601f19861682106107e15750509360018460a09461069198946e105b9bdb9e5b5bdd5cc81059d95b9d608a1b9b9a98600598601f198116106107c9575b505050811b016002860155610646565b01515f1960f88460031b161c191690558e80806107b9565b600184958293958501518155019401920161077b565b634e487b7160e01b5f52604160045260245ffd5b015190508d80610557565b90601f19831691845f528a5f20925f5b8c82821061086357505090846001959493921061084b575b505050811b0190556105c8565b01515f1960f88460031b161c191690558c808061083e565b6001859682939686015181550195019301610826565b90601f19831691885f528a5f20925f5b8c8282106108c65750509084600195949392106108ae575b505050811b01855561056e565b01515f1960f88460031b161c191690558c80806108a1565b6001859682939686015181550195019301610889565b505f546001600160a01b03163314610202565b346101ae575f3660031901126101ae576020600c54604051908152f35b346101ae575f3660031901126101ae57602060405160328152f35b346101ae5760203660031901126101ae5761094061216b565b61095460018060a01b035f54163314612429565b6001600160a01b03165f8181526009602052604090205460ff166109ec57805f52600960205260405f20600160ff19825416179055600a54600160401b8110156107f7578060016109aa9201600a55600a6122a1565b81546001600160a01b0360039290921b91821b19169083901b1790557f52824c4a4d431c73d6d24a91f775d722860111c6d30da30b0b21e062fb4c73655f80a2005b60405162461bcd60e51b815260206004820152601f60248201527f4167656e7452656769737472793a20616c7265616479207265706f72746572006044820152606490fd5b346101ae575f3660031901126101ae576020600b54604051908152f35b346101ae5760203660031901126101ae576001600160a01b03610a6f61216b565b165f526005602052602060ff60405f2054166040519015158152f35b346101ae5760203660031901126101ae576001600160a01b03610aac61216b565b165f526006602052610b4160405f2060405190610ad482610acd81846123a8565b03836121f6565b604051610aef81610ae881600186016123a8565b03826121f6565b60405191610b0b83610b0481600285016123a8565b03846121f6565b610b5d60018060a01b0360038301541693610b4f60ff60056004860154950154169460405198899860c08a5260c08a0190612181565b9088820360208a0152612181565b908682036040880152612181565b9260608501526080840152151560a08301520390f35b346101ae5760603660031901126101ae57610b8c61216b565b60443580151581036101ae57610c0e91335f52600960205260ff60405f2054168015610c10575b610bbc90612687565b6001600160a01b03165f81815260056020526040902054610bdf9060ff16612592565b5f9081526007602052604090206024356004820155600501805491151560ff1660ff1992909216919091179055565b005b505f546001600160a01b03163314610bb3565b346101ae5760203660031901126101ae5760043560328111610f7c575b600454808211610f74575b610c548261262a565b90610c6260405192836121f6565b828252610c6e8361262a565b602083019390601f1901368537610c848161262a565b610c9160405191826121f6565b818152601f19610ca08361262a565b015f5b818110610f63575050610cb582612641565b610cbe83612641565b92610cc881612641565b94610cd28161262a565b610cdf60405191826121f6565b818152601f19610cee8361262a565b013660208301375f5b838110610dd6575b505050506040519460a086019060a087525180915260c0860196905f5b818110610db7575050508486036020860152815180875260208701906020808260051b8a01019401915f905b828210610d8b578880610d878a610d798b610d6b8c8c878203604089015261233d565b90858203606087015261233d565b90838203608085015261233d565b0390f35b90919294602080610da96001938d601f199082030186528951612181565b970192019201909291610d48565b82516001600160a01b0316895260209889019890920191600101610d1c565b5f908180805b868110610ea757505015610ea157610e01826001610dfb819587612673565b52612289565b838060a01b0391549060031b1c1680610e1a838d612673565b52805f526006602052610ae8610e3960405f20604051928380926123a8565b610e43838a612673565b52610e4e8289612673565b50805f526007602052600360405f200154610e698389612673565b52805f5260076020528260405f200154610e83838b612673565b525f52600760205260405f2054610e9a828b612673565b5201610cf7565b50610cff565b610eb18187612673565b511580610f33575b80610f02575b610ecc575b600101610ddc565b9350505081610eda81612289565b9054600391821b1c6001600160a01b03165f9081526007602052604090200154600191610ec4565b50610f0c81612289565b9054600391821b1c6001600160a01b03165f90815260076020526040902001548210610ebf565b50610f3d81612289565b60018060a01b0391549060031b1c165f52600660205260ff600560405f20015416610eb9565b806060602080938601015201610ca3565b905080610c4b565b506032610c40565b346101ae5760203660031901126101ae576001600160a01b03610fa561216b565b16805f526005602052610fbe60ff60405f205416612592565b805f52600660205260018060a01b03600360405f2001541633148015611025575b610fe8906125de565b805f526006602052600560405f200160ff1981541690557fa58c733780f5c1527d6106ff1e731cbf2e9ffc0eb11ad399ca33ea55f057ddf45f80a2005b505f546001600160a01b03163314610fdf565b346101ae575f3660031901126101ae576020600e54604051908152f35b346101ae5760203660031901126101ae5760043561107d60018060a01b035f54163314612429565b600454811061108b57600355005b60405162461bcd60e51b815260206004820152602260248201527f4167656e7452656769737472793a2062656c6f772063757272656e7420636f756044820152611b9d60f21b6064820152608490fd5b346101ae5760203660031901126101ae5760043561110360018060a01b035f54163314612429565b612710811161111157600255005b60405162461bcd60e51b815260206004820152601b60248201527f4167656e7452656769737472793a2062707320746f6f206869676800000000006044820152606490fd5b346101ae575f3660031901126101ae576080600b54600c54600d54600e5491604051938452602084015260408301526060820152f35b346101ae5761119a366122b6565b9394909560018060a01b031694855f5260056020526111bf60ff60405f205416612592565b855f52600660205260018060a01b03600360405f20015416331480156114c1575b6111e9906125de565b806113f2575b505080611320575b505080611249575b50805f5260066020527fb915c10d80f3a5a64f9cf6b674511d7c794c3419680d92ddf18339ae793ffb5761124460405f206040519182916020835260208301906123a8565b0390a2005b815f526006602052600260405f2001906001600160401b0381116107f75761127b816112758454612370565b84612514565b5f601f82116001146112be5781906112a99394955f926112b35750508160011b915f199060031b1c19161790565b90555b80826111ff565b013590508580610557565b601f19821694835f5260205f20915f5b8781106113085750836001959697106112ef575b505050811b0190556112ac565b01355f19600384901b60f8161c191690558480806112e2565b909260206001819286860135815501940191016112ce565b835f526006602052600160405f2001916001600160401b0382116107f75761134c826105928554612370565b5f90601f831160011461138e5761137992915f91836113835750508160011b915f199060031b1c19161790565b90555b83806111f7565b013590508780610557565b601f19831691845f5260205f20925f5b8181106113da57509084600195949392106113c1575b505050811b01905561137c565b01355f19600384901b60f8161c191690558680806113b4565b9193602060018192878701358155019501920161139e565b855f52600660205260405f20916001600160401b0382116107f75761141b826105928554612370565b5f90601f831160011461145d5761144892915f91836114525750508160011b915f199060031b1c19161790565b90555b85806111ef565b013590508980610557565b601f19831691845f5260205f20925f5b8181106114a95750908460019594939210611490575b505050811b01905561144b565b01355f19600384901b60f8161c19169055888080611483565b9193602060018192878701358155019501920161146d565b505f546001600160a01b031633146111e0565b346101ae575f3660031901126101ae576020600454604051908152f35b346101ae5760203660031901126101ae576001600160a01b0361151261216b565b165f52600760205260e060405f2080549060018101549060028101546003820154600483015491600660ff600586015416940154946040519687526020870152604086015260608501526080840152151560a083015260c0820152f35b346101ae5760203660031901126101ae5761158861216b565b5f546001600160a01b03169061159f338314612429565b6001600160a01b03169081156115e757600180546001600160a01b031916831790557fb4d7bcb4d9a5d6ef6e827e3b1554e5a2578ad9ca843903d42b05d08bfa3458945f80a3005b60405162461bcd60e51b815260206004820152601960248201527f4167656e7452656769737472793a207a65726f2061646d696e000000000000006044820152606490fd5b346101ae5761163a366122b6565b91929060018060a0989796981b03861695865f52600560205260ff60405f205416611ac0578715611a7b576116d99261169b6116ca9261167f60045460035411612475565b895f52600560205260405f20600160ff198254161790556124c1565b6116a6600b54612506565b600b55604051956116b6876121a5565b6116c1368b8a612217565b87523691612217565b92602085019384523691612217565b6040830190815260608301338152608084019142835260a085019360018552875f52600660205260405f2095518051906001600160401b0382116107f75761172b826117258a54612370565b8a612514565b602090601f8311600114611a185761175992915f91836119aa5750508160011b915f199060031b1c19161790565b86555b51805160018701916001600160401b0382116107f757611780826105928554612370565b602090601f83116001146119b5576117ae92915f91836119aa5750508160011b915f199060031b1c19161790565b90555b51805160028601916001600160401b0382116107f7576117d5826105928554612370565b602090601f83116001146119185793600593611833847f6cf3badcf1a10c54709f13ad2475d8b3a44ebcb1b93b38e7257f9850532350409b999561187799956119139c995f926107635750508160011b915f199060031b1c19161790565b90555b516003850180546001600160a01b039092166001600160a01b0319909216919091179055516004840155519101805460ff191691151560ff16919091179055565b604051611883816121c0565b5f81526006602082015f81526118f9604084015f8152606085015f815260808601905f825260a08701926001845260c08801954287528c5f52600760205260405f2098518955516001890155516002880155516003870155516004860155511515600585019060ff801983541691151516179055565b519101556040519182916020835233966020840191612572565b0390a3005b90601f19831691845f52815f20925f5b81811061199257508461187798946119139b9894600598947f6cf3badcf1a10c54709f13ad2475d8b3a44ebcb1b93b38e7257f9850532350409e9c986001951061197a575b505050811b019055611836565b01515f1960f88460031b161c191690558e808061196d565b92936020600181928786015181550195019301611928565b015190508c80610557565b90601f19831691845f52815f20925f5b818110611a0057509084600195949392106119e8575b505050811b0190556117b1565b01515f1960f88460031b161c191690558b80806119db565b929360206001819287860151815501950193016119c5565b90601f19831691895f52815f20925f5b818110611a635750908460019594939210611a4b575b505050811b01865561175c565b01515f1960f88460031b161c191690558b8080611a3e565b92936020600181928786015181550195019301611a28565b60405162461bcd60e51b815260206004820152601c60248201527f4167656e7452656769737472793a206e616d65207265717569726564000000006044820152606490fd5b60405162461bcd60e51b815260206004820152602160248201527f4167656e7452656769737472793a20616c7265616479207265676973746572656044820152601960fa1b6064820152608490fd5b346101ae575f3660031901126101ae576020600254604051908152f35b346101ae575f3660031901126101ae576020600d54604051908152f35b346101ae5760203660031901126101ae57600435600a548110156101ae57600a54811015611bad57600a5f527fc65a7bb8d6351c1cf70c95a316cc6a92839c986682d98bc35f958f4883f9d2a801546040516001600160a01b039091168152602090f35b634e487b7160e01b5f52603260045260245ffd5b346101ae5760203660031901126101ae57611bda61216b565b611bee60018060a01b035f54163314612429565b6001600160a01b03165f818152600960205260408120805460ff191690557ff125aa5e6cb22c17ea0de4e1f86d2ff289ddd6a37e791b9ad29d0091cba06ac89080a2005b346101ae5760203660031901126101ae576004356004548110156101ae57611c5b602091612289565b905460405160039290921b1c6001600160a01b03168152f35b346101ae5760203660031901126101ae576001600160a01b03611c9561216b565b165f526009602052602060ff60405f2054166040519015158152f35b346101ae5760403660031901126101ae57611cca61216b565b602435906001600160401b0382116101ae576020611cee606093369060040161225c565b925f60408051611cfd816121db565b8281528286820152015260018060a01b03165f526008825260405f20836040519485938437820190815203019020604051611d37816121db565b815491828252604060026001830154926020850193845201549201918252604051928352516020830152516040820152f35b346101ae5760203660031901126101ae576020611c5b600435612289565b346101ae5760403660031901126101ae57611da061216b565b602435906001600160401b0382116101ae57366023830112156101ae5760208091611dd76060943690602481600401359101612217565b9060018060a01b03165f526008825260405f20604051938285935191829101845e820190815203019020805490600260018201549101549060405192835260208301526040820152f35b346101ae575f3660031901126101ae576001546040516001600160a01b039091168152602090f35b346101ae5760203660031901126101ae57611e6261216b565b604051611e6e816121a5565b6060815260208101606090526040810160609052606081015f9052608081015f905260a0015f9052604051611ea2816121c0565b5f8152602081015f9052604081015f9052606081015f9052608081015f905260a081015f905260c0015f9052600160a01b6001900316805f52600660205260405f20905f52600760205260405f209060405190611efe826121a5565b60405180611f0c81846123a8565b03611f1790826121f6565b82526040519283611f2b81600185016123a8565b03611f3690856121f6565b602083019384526040519081611f4f81600286016123a8565b03611f5a90836121f6565b60408401918252600160a01b600190036003840154169260608501938452600481015490608086019182526005015460ff1660a086019015158152604051611fa1816121c0565b83548152600184015460208201908152600285015491604081019283526003860154936060820194855260048701549560808301968752600588015460ff169760a084019815158952600601549860c08401998a526040519c8d9c6101008e52518d610100810160c090526101c00161201991612181565b90518d820360ff19016101208f01526120329190612181565b90518c820360ff19016101408e015261204b9190612181565b99516001600160a01b03166101608c0152516101808b01525115156101a08a01525160208901525160408801525160608701525160808601525160a085015251151560c08401525160e08301520390f35b346101ae575f3660031901126101ae576001546001600160a01b038116903382900361210d575f80546001600160a01b0319808216851783559092166001556001600160a01b03909116907ff8ccb027dfcd135e000e9d45e6cc2d662578a8825d4c45b5e32e0adf67e79ec69080a3005b606460405162461bcd60e51b815260206004820152602060248201527f4167656e7452656769737472793a206e6f742070656e64696e672061646d696e6044820152fd5b346101ae575f3660031901126101ae576020906003548152f35b600435906001600160a01b03821682036101ae57565b805180835260209291819084018484015e5f828201840152601f01601f1916010190565b60c081019081106001600160401b038211176107f757604052565b60e081019081106001600160401b038211176107f757604052565b606081019081106001600160401b038211176107f757604052565b90601f801991011681019081106001600160401b038211176107f757604052565b9291926001600160401b0382116107f75760405191612240601f8201601f1916602001846121f6565b8294818452818301116101ae578281602093845f960137010152565b9181601f840112156101ae578235916001600160401b0383116101ae57602083818601950101116101ae57565b600454811015611bad5760045f5260205f2001905f90565b8054821015611bad575f5260205f2001905f90565b9060806003198301126101ae576004356001600160a01b03811681036101ae57916024356001600160401b0381116101ae57816122f59160040161225c565b929092916044356001600160401b0381116101ae57816123179160040161225c565b92909291606435906001600160401b0382116101ae576123399160040161225c565b9091565b90602080835192838152019201905f5b81811061235a5750505090565b825184526020938401939092019160010161234d565b90600182811c9216801561239e575b602083101461238a57565b634e487b7160e01b5f52602260045260245ffd5b91607f169161237f565b5f92918154916123b783612370565b808352926001811690811561240c57506001146123d357505050565b5f9081526020812093945091925b8383106123f2575060209250010190565b6001816020929493945483858701015201910191906123e1565b915050602093945060ff929192191683830152151560051b010190565b1561243057565b60405162461bcd60e51b815260206004820152601860248201527f4167656e7452656769737472793a206e6f742061646d696e00000000000000006044820152606490fd5b1561247c57565b60405162461bcd60e51b815260206004820152601f60248201527f4167656e7452656769737472793a2063617061636974792072656163686564006044820152606490fd5b600454600160401b8110156107f7578060016124e2920160045560046122a1565b81546001600160a01b0393841660039290921b91821b9390911b1916919091179055565b5f1981146104245760010190565b919091601f8311612525575b505050565b81831161253157505050565b5f5260205f206020601f830160051c921061256a575b81601f9101920160051c03905f5b82811015612520575f82820155600101612555565b5f9150612547565b908060209392818452848401375f828201840152601f01601f1916010190565b1561259957565b60405162461bcd60e51b815260206004820152601d60248201527f4167656e7452656769737472793a206e6f7420726567697374657265640000006044820152606490fd5b156125e557565b60405162461bcd60e51b815260206004820152601860248201527f4167656e7452656769737472793a206e6f74206f776e657200000000000000006044820152606490fd5b6001600160401b0381116107f75760051b60200190565b9061264b8261262a565b61265860405191826121f6565b8281528092612669601f199161262a565b0190602036910137565b8051821015611bad5760209160051b010190565b1561268e57565b60405162461bcd60e51b815260206004820152601b60248201527f4167656e7452656769737472793a206e6f74207265706f7274657200000000006044820152606490fd5b919082018092116104245756fea2646970667358221220f3419afccd94c8b8099e180b374d9b326e509e645065b231e0a811952fd7af8a64736f6c63430008210033",
        "nonce": "0xf",
        "chainId": "0xa455"
      },
      "additionalContracts": [],
      "isFixedGasLimit": false
    },
    {
      "hash": "0x9f9901846f2b5e7d8c5ac7437a803dc08172ff8eda5f40efdac01d2fb95efc7f",
      "transactionType": "CALL",
      "contractName": "AgentRegistry",
      "contractAddress": "0x0b306bf915c4d645ff596e518faf3f9669b97016",
      "function": "registerAgent(address,string,string,string)",
      "arguments": [
        "0x0000000000000000000000000000000000001001",
        "AlphaTrader",
        "https://api.dicebear.com/7.x/bottts/svg?seed=alpha",
        "Momentum trading on perps with trend-following signals"
      ],
      "transaction": {
        "from": "0xf39fd6e51aad88f6f4ce6ab8827279cfffb92266",
        "to": "0x0b306bf915c4d645ff596e518faf3f9669b97016",
        "gas": "0x8669b",
        "value": "0x0",
        "input": "0x69f1324d0000000000000000000000000000000000000000000000000000000000001001000000000000000000000000000000000000000000000000000000000000008000000000000000000000000000000000000000000000000000000000000000c00000000000000000000000000000000000000000000000000000000000000120000000000000000000000000000000000000000000000000000000000000000b416c706861547261646572000000000000000000000000000000000000000000000000000000000000000000000000000000000000000000000000000000003268747470733a2f2f6170692e64696365626561722e636f6d2f372e782f626f747474732f7376673f736565643d616c706861000000000000000000000000000000000000000000000000000000000000000000000000000000000000000000364d6f6d656e74756d2074726164696e67206f6e2070657270732077697468207472656e642d666f6c6c6f77696e67207369676e616c7300000000000000000000",
        "nonce": "0x10",
        "chainId": "0xa455"
      },
      "additionalContracts": [],
      "isFixedGasLimit": false
    },
    {
      "hash": "0x5428e97f104840a0d4e0bb284763cad99fe7c96e2dc834535503c80458bd4af4",
      "transactionType": "CALL",
      "contractName": "AgentRegistry",
      "contractAddress": "0x0b306bf915c4d645ff596e518faf3f9669b97016",
      "function": "registerAgent(address,string,string,string)",
      "arguments": [
        "0x0000000000000000000000000000000000001002",
        "YieldMaxi",
        "https://api.dicebear.com/7.x/bottts/svg?seed=yield",
        "Auto-compounding yield optimizer across lending and vaults"
      ],
      "transaction": {
        "from": "0xf39fd6e51aad88f6f4ce6ab8827279cfffb92266",
        "to": "0x0b306bf915c4d645ff596e518faf3f9669b97016",
        "gas": "0x7ae35",
        "value": "0x0",
        "input": "0x69f1324d0000000000000000000000000000000000000000000000000000000000001002000000000000000000000000000000000000000000000000000000000000008000000000000000000000000000000000000000000000000000000000000000c0000000000000000000000000000000000000000000000000000000000000012000000000000000000000000000000000000000000000000000000000000000095969656c644d6178690000000000000000000000000000000000000000000000000000000000000000000000000000000000000000000000000000000000003268747470733a2f2f6170692e64696365626561722e636f6d2f372e782f626f747474732f7376673f736565643d7969656c640000000000000000000000000000000000000000000000000000000000000000000000000000000000000000003a4175746f2d636f6d706f756e64696e67207969656c64206f7074696d697a6572206163726f7373206c656e64696e6720616e64207661756c7473000000000000",
        "nonce": "0x11",
        "chainId": "0xa455"
      },
      "additionalContracts": [],
      "isFixedGasLimit": false
    },
    {
      "hash": "0x5552b0e9a5a479fdd1420f9a8bfd2b2c3c79b18e76d4f22e01566e0c0cc15b5a",
      "transactionType": "CALL",
      "contractName": "AgentRegistry",
      "contractAddress": "0x0b306bf915c4d645ff596e518faf3f9669b97016",
      "function": "registerAgent(address,string,string,string)",
      "arguments": [
        "0x0000000000000000000000000000000000001003",
        "PredictOracleBot",
        "https://api.dicebear.com/7.x/bottts/svg?seed=predict",
        "Prediction market arbitrage using sentiment analysis"
      ],
      "transaction": {
        "from": "0xf39fd6e51aad88f6f4ce6ab8827279cfffb92266",
        "to": "0x0b306bf915c4d645ff596e518faf3f9669b97016",
        "gas": "0x7ae67",
        "value": "0x0",
        "input": "0x69f1324d0000000000000000000000000000000000000000000000000000000000001003000000000000000000000000000000000000000000000000000000000000008000000000000000000000000000000000000000000000000000000000000000c000000000000000000000000000000000000000000000000000000000000001200000000000000000000000000000000000000000000000000000000000000010507265646963744f7261636c65426f7400000000000000000000000000000000000000000000000000000000000000000000000000000000000000000000003468747470733a2f2f6170692e64696365626561722e636f6d2f372e782f626f747474732f7376673f736565643d70726564696374000000000000000000000000000000000000000000000000000000000000000000000000000000000000003450726564696374696f6e206d61726b657420617262697472616765207573696e672073656e74696d656e7420616e616c79736973000000000000000000000000",
        "nonce": "0x12",
        "chainId": "0xa455"
      },
      "additionalContracts": [],
      "isFixedGasLimit": false
    },
    {
      "hash": "0xbc8c7265618df73a5cdbc0d1bcbc4cdbb5a39a5b98f38ff2f9c6b502565722af",
      "transactionType": "CALL",
      "contractName": "AgentRegistry",
      "contractAddress": "0x0b306bf915c4d645ff596e518faf3f9669b97016",
      "function": "registerAgent(address,string,string,string)",
      "arguments": [
        "0x0000000000000000000000000000000000001004",
        "DeltaNeutral",
        "https://api.dicebear.com/7.x/bottts/svg?seed=delta",
        "Delta-neutral strategies: long spot + short perps"
      ],
      "transaction": {
        "from": "0xf39fd6e51aad88f6f4ce6ab8827279cfffb92266",
        "to": "0x0b306bf915c4d645ff596e518faf3f9669b97016",
        "gas": "0x7add1",
        "value": "0x0",
        "input": "0x69f1324d0000000000000000000000000000000000000000000000000000000000001004000000000000000000000000000000000000000000000000000000000000008000000000000000000000000000000000000000000000000000000000000000c00000000000000000000000000000000000000000000000000000000000000120000000000000000000000000000000000000000000000000000000000000000c44656c74614e65757472616c0000000000000000000000000000000000000000000000000000000000000000000000000000000000000000000000000000003268747470733a2f2f6170692e64696365626561722e636f6d2f372e782f626f747474732f7376673f736565643d64656c74610000000000000000000000000000000000000000000000000000000000000000000000000000000000000000003144656c74612d6e65757472616c20737472617465676965733a206c6f6e672073706f74202b2073686f7274207065727073000000000000000000000000000000",
        "nonce": "0x13",
        "chainId": "0xa455"
      },
      "additionalContracts": [],
      "isFixedGasLimit": false
    },
    {
      "hash": "0x9b3df961917e6bb2f3796bd45fb37511464452939c48d58d2ab71cc6605e4280",
      "transactionType": "CALL",
      "contractName": "AgentRegistry",
      "contractAddress": "0x0b306bf915c4d645ff596e518faf3f9669b97016",
      "function": "registerAgent(address,string,string,string)",
      "arguments": [
        "0x0000000000000000000000000000000000001005",
        "UBIMaximizer",
        "https://api.dicebear.com/7.x/bottts/svg?seed=ubi",
        "High-frequency swaps to maximize UBI fee generation"
      ],
      "transaction": {
        "from": "0xf39fd6e51aad88f6f4ce6ab8827279cfffb92266",
        "to": "0x0b306bf915c4d645ff596e518faf3f9669b97016",
        "gas": "0x7add1",
        "value": "0x0",
        "input": "0x69f1324d0000000000000000000000000000000000000000000000000000000000001005000000000000000000000000000000000000000000000000000000000000008000000000000000000000000000000000000000000000000000000000000000c00000000000000000000000000000000000000000000000000000000000000120000000000000000000000000000000000000000000000000000000000000000c5542494d6178696d697a65720000000000000000000000000000000000000000000000000000000000000000000000000000000000000000000000000000003068747470733a2f2f6170692e64696365626561722e636f6d2f372e782f626f747474732f7376673f736565643d756269000000000000000000000000000000000000000000000000000000000000000000000000000000000000000000000033486967682d6672657175656e637920737761707320746f206d6178696d697a6520554249206665652067656e65726174696f6e00000000000000000000000000",
        "nonce": "0x14",
        "chainId": "0xa455"
      },
      "additionalContracts": [],
      "isFixedGasLimit": false
    },
    {
      "hash": "0x78d637c8d25f67828869cbc4a609f643955a0349b2d5532e86793dfbab8f107f",
      "transactionType": "CALL",
      "contractName": "AgentRegistry",
      "contractAddress": "0x0b306bf915c4d645ff596e518faf3f9669b97016",
      "function": "recordActivity(address,string,uint256,uint256)",
      "arguments": [
        "0x0000000000000000000000000000000000001001",
        "perps",
        "500000000000000000000",
        "1500000000000000000"
      ],
      "transaction": {
        "from": "0xf39fd6e51aad88f6f4ce6ab8827279cfffb92266",
        "to": "0x0b306bf915c4d645ff596e518faf3f9669b97016",
        "gas": "0x57951",
        "value": "0x0",
        "input": "0xe2f11e610000000000000000000000000000000000000000000000000000000000001001000000000000000000000000000000000000000000000000000000000000008000000000000000000000000000000000000000000000001b1ae4d6e2ef50000000000000000000000000000000000000000000000000000014d1120d7b16000000000000000000000000000000000000000000000000000000000000000000057065727073000000000000000000000000000000000000000000000000000000",
        "nonce": "0x15",
        "chainId": "0xa455"
      },
      "additionalContracts": [],
      "isFixedGasLimit": false
    },
    {
      "hash": "0x54a75e6ccfc14856a000bb560d8e640daf14277402f02f8d2e36f06a57e1c9ac",
      "transactionType": "CALL",
      "contractName": "AgentRegistry",
      "contractAddress": "0x0b306bf915c4d645ff596e518faf3f9669b97016",
      "function": "recordActivity(address,string,uint256,uint256)",
      "arguments": [
        "0x0000000000000000000000000000000000001001",
        "perps",
        "300000000000000000000",
        "900000000000000000"
      ],
      "transaction": {
        "from": "0xf39fd6e51aad88f6f4ce6ab8827279cfffb92266",
        "to": "0x0b306bf915c4d645ff596e518faf3f9669b97016",
        "gas": "0x1deb0",
        "value": "0x0",
        "input": "0xe2f11e610000000000000000000000000000000000000000000000000000000000001001000000000000000000000000000000000000000000000000000000000000008000000000000000000000000000000000000000000000001043561a88293000000000000000000000000000000000000000000000000000000c7d713b49da000000000000000000000000000000000000000000000000000000000000000000057065727073000000000000000000000000000000000000000000000000000000",
        "nonce": "0x16",
        "chainId": "0xa455"
      },
      "additionalContracts": [],
      "isFixedGasLimit": false
    },
    {
      "hash": "0x7a8c274f45e783a58896f17664be3e3abe822f0de94a221820f0be482b0fef8f",
      "transactionType": "CALL",
      "contractName": "AgentRegistry",
      "contractAddress": "0x0b306bf915c4d645ff596e518faf3f9669b97016",
      "function": "recordActivity(address,string,uint256,uint256)",
      "arguments": [
        "0x0000000000000000000000000000000000001001",
        "swap",
        "50000000000000000000",
        "150000000000000000"
      ],
      "transaction": {
        "from": "0xf39fd6e51aad88f6f4ce6ab8827279cfffb92266",
        "to": "0x0b306bf915c4d645ff596e518faf3f9669b97016",
        "gas": "0x2f369",
        "value": "0x0",
        "input": "0xe2f11e6100000000000000000000000000000000000000000000000000000000000010010000000000000000000000000000000000000000000000000000000000000080000000000000000000000000000000000000000000000002b5e3af16b18800000000000000000000000000000000000000000000000000000214e8348c4f000000000000000000000000000000000000000000000000000000000000000000047377617000000000000000000000000000000000000000000000000000000000",
        "nonce": "0x17",
        "chainId": "0xa455"
      },
      "additionalContracts": [],
      "isFixedGasLimit": false
    },
    {
      "hash": "0xfcfc5ca993cea633f7d63ac862641bf29d616475c2989b76a35ada15350e3ee3",
      "transactionType": "CALL",
      "contractName": "AgentRegistry",
      "contractAddress": "0x0b306bf915c4d645ff596e518faf3f9669b97016",
      "function": "recordPnL(address,uint256,bool)",
      "arguments": [
        "0x0000000000000000000000000000000000001001",
        "12000000000000000000",
        "true"
      ],
      "transaction": {
        "from": "0xf39fd6e51aad88f6f4ce6ab8827279cfffb92266",
        "to": "0x0b306bf915c4d645ff596e518faf3f9669b97016",
        "gas": "0x12005",
        "value": "0x0",
        "input": "0xb896f2220000000000000000000000000000000000000000000000000000000000001001000000000000000000000000000000000000000000000000a688906bd8b000000000000000000000000000000000000000000000000000000000000000000001",
        "nonce": "0x18",
        "chainId": "0xa455"
      },
      "additionalContracts": [],
      "isFixedGasLimit": false
    },
    {
      "hash": "0xd5632a89301cfb2c80acd7247ef314a216e58642720f5a2c653988751af383f3",
      "transactionType": "CALL",
      "contractName": "AgentRegistry",
      "contractAddress": "0x0b306bf915c4d645ff596e518faf3f9669b97016",
      "function": "recordActivity(address,string,uint256,uint256)",
      "arguments": [
        "0x0000000000000000000000000000000000001002",
        "lend",
        "200000000000000000000",
        "600000000000000000"
      ],
      "transaction": {
        "from": "0xf39fd6e51aad88f6f4ce6ab8827279cfffb92266",
        "to": "0x0b306bf915c4d645ff596e518faf3f9669b97016",
        "gas": "0x46476",
        "value": "0x0",
        "input": "0xe2f11e610000000000000000000000000000000000000000000000000000000000001002000000000000000000000000000000000000000000000000000000000000008000000000000000000000000000000000000000000000000ad78ebc5ac62000000000000000000000000000000000000000000000000000000853a0d2313c000000000000000000000000000000000000000000000000000000000000000000046c656e6400000000000000000000000000000000000000000000000000000000",
        "nonce": "0x19",
        "chainId": "0xa455"
      },
      "additionalContracts": [],
      "isFixedGasLimit": false
    },
    {
      "hash": "0x405a606c6035e15247a24e66336ff93faec58b1d87bf2348f4b7325d5eff0b43",
      "transactionType": "CALL",
      "contractName": "AgentRegistry",
      "contractAddress": "0x0b306bf915c4d645ff596e518faf3f9669b97016",
      "function": "recordActivity(address,string,uint256,uint256)",
      "arguments": [
        "0x0000000000000000000000000000000000001002",
        "yield",
        "150000000000000000000",
        "450000000000000000"
      ],
      "transaction": {
        "from": "0xf39fd6e51aad88f6f4ce6ab8827279cfffb92266",
        "to": "0x0b306bf915c4d645ff596e518faf3f9669b97016",
        "gas": "0x2f37a",
        "value": "0x0",
        "input": "0xe2f11e610000000000000000000000000000000000000000000000000000000000001002000000000000000000000000000000000000000000000000000000000000008000000000000000000000000000000000000000000000000821ab0d4414980000000000000000000000000000000000000000000000000000063eb89da4ed000000000000000000000000000000000000000000000000000000000000000000057969656c64000000000000000000000000000000000000000000000000000000",
        "nonce": "0x1a",
        "chainId": "0xa455"
      },
      "additionalContracts": [],
      "isFixedGasLimit": false
    },
    {
      "hash": "0x22e01575412f1e1dc32d4db36e8fa7d988a2cc613c785eed6ef807a07922f044",
      "transactionType": "CALL",
      "contractName": "AgentRegistry",
      "contractAddress": "0x0b306bf915c4d645ff596e518faf3f9669b97016",
      "function": "recordActivity(address,string,uint256,uint256)",
      "arguments": [
        "0x0000000000000000000000000000000000001002",
        "swap",
        "80000000000000000000",
        "240000000000000000"
      ],
      "transaction": {
        "from": "0xf39fd6e51aad88f6f4ce6ab8827279cfffb92266",
        "to": "0x0b306bf915c4d645ff596e518faf3f9669b97016",
        "gas": "0x2f369",
        "value": "0x0",
        "input": "0xe2f11e6100000000000000000000000000000000000000000000000000000000000010020000000000000000000000000000000000000000000000000000000000000080000000000000000000000000000000000000000000000004563918244f4000000000000000000000000000000000000000000000000000000354a6ba7a18000000000000000000000000000000000000000000000000000000000000000000047377617000000000000000000000000000000000000000000000000000000000",
        "nonce": "0x1b",
        "chainId": "0xa455"
      },
      "additionalContracts": [],
      "isFixedGasLimit": false
    },
    {
      "hash": "0xbdaf56aaab2e2b10410c947e27c100b69f5432014a0c4431c08b098abcaf117b",
      "transactionType": "CALL",
      "contractName": "AgentRegistry",
      "contractAddress": "0x0b306bf915c4d645ff596e518faf3f9669b97016",
      "function": "recordPnL(address,uint256,bool)",
      "arguments": [
        "0x0000000000000000000000000000000000001002",
        "8500000000000000000",
        "true"
      ],
      "transaction": {
        "from": "0xf39fd6e51aad88f6f4ce6ab8827279cfffb92266",
        "to": "0x0b306bf915c4d645ff596e518faf3f9669b97016",
        "gas": "0x12005",
        "value": "0x0",
        "input": "0xb896f222000000000000000000000000000000000000000000000000000000000000100200000000000000000000000000000000000000000000000075f610f70ed200000000000000000000000000000000000000000000000000000000000000000001",
        "nonce": "0x1c",
        "chainId": "0xa455"
      },
      "additionalContracts": [],
      "isFixedGasLimit": false
    },
    {
      "hash": "0x5c0769e9cfd532388eb7859ebca5b2a9cb12a4384ae64a28f89dfcdd9240fea6",
      "transactionType": "CALL",
      "contractName": "AgentRegistry",
      "contractAddress": "0x0b306bf915c4d645ff596e518faf3f9669b97016",
      "function": "recordActivity(address,string,uint256,uint256)",
      "arguments": [
        "0x0000000000000000000000000000000000001003",
        "predict",
        "100000000000000000000",
        "300000000000000000"
      ],
      "transaction": {
        "from": "0xf39fd6e51aad88f6f4ce6ab8827279cfffb92266",
        "to": "0x0b306bf915c4d645ff596e518faf3f9669b97016",
        "gas": "0x464a8",
        "value": "0x0",
        "input": "0xe2f11e61000000000000000000000000000000000000000000000000000000000000100300000000000000000000000000000000000000000000000000000000000000800000000000000000000000000000000000000000000000056bc75e2d631000000000000000000000000000000000000000000000000000000429d069189e000000000000000000000000000000000000000000000000000000000000000000077072656469637400000000000000000000000000000000000000000000000000",
        "nonce": "0x1d",
        "chainId": "0xa455"
      },
      "additionalContracts": [],
      "isFixedGasLimit": false
    },
    {
      "hash": "0x011b84ebce7ec70bcb8cb50b9e1b9760178cba6e4d9c0b401c13dba7c056e413",
      "transactionType": "CALL",
      "contractName": "AgentRegistry",
      "contractAddress": "0x0b306bf915c4d645ff596e518faf3f9669b97016",
      "function": "recordActivity(address,string,uint256,uint256)",
      "arguments": [
        "0x0000000000000000000000000000000000001003",
        "predict",
        "75000000000000000000",
        "225000000000000000"
      ],
      "transaction": {
        "from": "0xf39fd6e51aad88f6f4ce6ab8827279cfffb92266",
        "to": "0x0b306bf915c4d645ff596e518faf3f9669b97016",
        "gas": "0x1dee1",
        "value": "0x0",
        "input": "0xe2f11e610000000000000000000000000000000000000000000000000000000000001003000000000000000000000000000000000000000000000000000000000000008000000000000000000000000000000000000000000000000410d586a20a4c0000000000000000000000000000000000000000000000000000031f5c4ed276800000000000000000000000000000000000000000000000000000000000000000077072656469637400000000000000000000000000000000000000000000000000",
        "nonce": "0x1e",
        "chainId": "0xa455"
      },
      "additionalContracts": [],
      "isFixedGasLimit": false
    },
    {
      "hash": "0x155a264f63840bedc39132134586e44f193a442c7a814b25cf173fdc9b1b464e",
      "transactionType": "CALL",
      "contractName": "AgentRegistry",
      "contractAddress": "0x0b306bf915c4d645ff596e518faf3f9669b97016",
      "function": "recordActivity(address,string,uint256,uint256)",
      "arguments": [
        "0x0000000000000000000000000000000000001003",
        "swap",
        "30000000000000000000",
        "90000000000000000"
      ],
      "transaction": {
        "from": "0xf39fd6e51aad88f6f4ce6ab8827279cfffb92266",
        "to": "0x0b306bf915c4d645ff596e518faf3f9669b97016",
        "gas": "0x2f369",
        "value": "0x0",
        "input": "0xe2f11e6100000000000000000000000000000000000000000000000000000000000010030000000000000000000000000000000000000000000000000000000000000080000000000000000000000000000000000000000000000001a055690d9db80000000000000000000000000000000000000000000000000000013fbe85edc9000000000000000000000000000000000000000000000000000000000000000000047377617000000000000000000000000000000000000000000000000000000000",
        "nonce": "0x1f",
        "chainId": "0xa455"
      },
      "additionalContracts": [],
      "isFixedGasLimit": false
    },
    {
      "hash": "0x531112319189a54748cba138404809945fc2ed3c1b66a910e8140c555eda3f45",
      "transactionType": "CALL",
      "contractName": "AgentRegistry",
      "contractAddress": "0x0b306bf915c4d645ff596e518faf3f9669b97016",
      "function": "recordPnL(address,uint256,bool)",
      "arguments": [
        "0x0000000000000000000000000000000000001003",
        "5200000000000000000",
        "true"
      ],
      "transaction": {
        "from": "0xf39fd6e51aad88f6f4ce6ab8827279cfffb92266",
        "to": "0x0b306bf915c4d645ff596e518faf3f9669b97016",
        "gas": "0x130e5",
        "value": "0x0",
        "input": "0xb896f2220000000000000000000000000000000000000000000000000000000000001003000000000000000000000000000000000000000000000000482a1c73000800000000000000000000000000000000000000000000000000000000000000000001",
        "nonce": "0x20",
        "chainId": "0xa455"
      },
      "additionalContracts": [],
      "isFixedGasLimit": false
    },
    {
      "hash": "0x335385b0527319c5e5b92804e318e280c51fed38f8b8df28a1375b079b6257a2",
      "transactionType": "CALL",
      "contractName": "AgentRegistry",
      "contractAddress": "0x0b306bf915c4d645ff596e518faf3f9669b97016",
      "function": "recordActivity(address,string,uint256,uint256)",
      "arguments": [
        "0x0000000000000000000000000000000000001004",
        "perps",
        "400000000000000000000",
        "1200000000000000000"
      ],
      "transaction": {
        "from": "0xf39fd6e51aad88f6f4ce6ab8827279cfffb92266",
        "to": "0x0b306bf915c4d645ff596e518faf3f9669b97016",
        "gas": "0x46487",
        "value": "0x0",
        "input": "0xe2f11e6100000000000000000000000000000000000000000000000000000000000010040000000000000000000000000000000000000000000000000000000000000080000000000000000000000000000000000000000000000015af1d78b58c40000000000000000000000000000000000000000000000000000010a741a46278000000000000000000000000000000000000000000000000000000000000000000057065727073000000000000000000000000000000000000000000000000000000",
        "nonce": "0x21",
        "chainId": "0xa455"
      },
      "additionalContracts": [],
      "isFixedGasLimit": false
    },
    {
      "hash": "0xc8a0d70fe438b9f5ea78f3e2c3bf179904c1a737fc98586e51a8a6addc55d48d",
      "transactionType": "CALL",
      "contractName": "AgentRegistry",
      "contractAddress": "0x0b306bf915c4d645ff596e518faf3f9669b97016",
      "function": "recordActivity(address,string,uint256,uint256)",
      "arguments": [
        "0x0000000000000000000000000000000000001004",
        "swap",
        "400000000000000000000",
        "1200000000000000000"
      ],
      "transaction": {
        "from": "0xf39fd6e51aad88f6f4ce6ab8827279cfffb92266",
        "to": "0x0b306bf915c4d645ff596e518faf3f9669b97016",
        "gas": "0x2f369",
        "value": "0x0",
        "input": "0xe2f11e6100000000000000000000000000000000000000000000000000000000000010040000000000000000000000000000000000000000000000000000000000000080000000000000000000000000000000000000000000000015af1d78b58c40000000000000000000000000000000000000000000000000000010a741a46278000000000000000000000000000000000000000000000000000000000000000000047377617000000000000000000000000000000000000000000000000000000000",
        "nonce": "0x22",
        "chainId": "0xa455"
      },
      "additionalContracts": [],
      "isFixedGasLimit": false
    },
    {
      "hash": "0x2da45840d69c55dd74a53d54c751d84bc62a779a0c34849b9b9689952b0ba4bb",
      "transactionType": "CALL",
      "contractName": "AgentRegistry",
      "contractAddress": "0x0b306bf915c4d645ff596e518faf3f9669b97016",
      "function": "recordActivity(address,string,uint256,uint256)",
      "arguments": [
        "0x0000000000000000000000000000000000001004",
        "lend",
        "100000000000000000000",
        "300000000000000000"
      ],
      "transaction": {
        "from": "0xf39fd6e51aad88f6f4ce6ab8827279cfffb92266",
        "to": "0x0b306bf915c4d645ff596e518faf3f9669b97016",
        "gas": "0x2f369",
        "value": "0x0",
        "input": "0xe2f11e61000000000000000000000000000000000000000000000000000000000000100400000000000000000000000000000000000000000000000000000000000000800000000000000000000000000000000000000000000000056bc75e2d631000000000000000000000000000000000000000000000000000000429d069189e000000000000000000000000000000000000000000000000000000000000000000046c656e6400000000000000000000000000000000000000000000000000000000",
        "nonce": "0x23",
        "chainId": "0xa455"
      },
      "additionalContracts": [],
      "isFixedGasLimit": false
    },
    {
      "hash": "0xa44a7699cfab4ba78f4af25c42e82a65e633080a77b15e10463e038e084bfc4b",
      "transactionType": "CALL",
      "contractName": "AgentRegistry",
      "contractAddress": "0x0b306bf915c4d645ff596e518faf3f9669b97016",
      "function": "recordPnL(address,uint256,bool)",
      "arguments": [
        "0x0000000000000000000000000000000000001004",
        "300000000000000000",
        "false"
      ],
      "transaction": {
        "from": "0xf39fd6e51aad88f6f4ce6ab8827279cfffb92266",
        "to": "0x0b306bf915c4d645ff596e518faf3f9669b97016",
        "gas": "0x12578",
        "value": "0x0",
        "input": "0xb896f22200000000000000000000000000000000000000000000000000000000000010040000000000000000000000000000000000000000000000000429d069189e00000000000000000000000000000000000000000000000000000000000000000000",
        "nonce": "0x24",
        "chainId": "0xa455"
      },
      "additionalContracts": [],
      "isFixedGasLimit": false
    },
    {
      "hash": "0x42c1a36e9ceed4b36b6757b4fde6f64e5648057ff7330c419fc18d0a401cbce7",
      "transactionType": "CALL",
      "contractName": "AgentRegistry",
      "contractAddress": "0x0b306bf915c4d645ff596e518faf3f9669b97016",
      "function": "recordActivity(address,string,uint256,uint256)",
      "arguments": [
        "0x0000000000000000000000000000000000001005",
        "swap",
        "20000000000000000000",
        "60000000000000000"
      ],
      "transaction": {
        "from": "0xf39fd6e51aad88f6f4ce6ab8827279cfffb92266",
        "to": "0x0b306bf915c4d645ff596e518faf3f9669b97016",
        "gas": "0x46466",
        "value": "0x0",
        "input": "0xe2f11e6100000000000000000000000000000000000000000000000000000000000010050000000000000000000000000000000000000000000000000000000000000080000000000000000000000000000000000000000000000001158e460913d0000000000000000000000000000000000000000000000000000000d529ae9e86000000000000000000000000000000000000000000000000000000000000000000047377617000000000000000000000000000000000000000000000000000000000",
        "nonce": "0x25",
        "chainId": "0xa455"
      },
      "additionalContracts": [],
      "isFixedGasLimit": false
    },
    {
      "hash": "0x62e2855d61d54f2f4c074f2cd1f4ca2758f2a2c156730e18594ac2da3cc218b3",
      "transactionType": "CALL",
      "contractName": "AgentRegistry",
      "contractAddress": "0x0b306bf915c4d645ff596e518faf3f9669b97016",
      "function": "recordActivity(address,string,uint256,uint256)",
      "arguments": [
        "0x0000000000000000000000000000000000001005",
        "swap",
        "20000000000000000000",
        "60000000000000000"
      ],
      "transaction": {
        "from": "0xf39fd6e51aad88f6f4ce6ab8827279cfffb92266",
        "to": "0x0b306bf915c4d645ff596e518faf3f9669b97016",
        "gas": "0x1de8e",
        "value": "0x0",
        "input": "0xe2f11e6100000000000000000000000000000000000000000000000000000000000010050000000000000000000000000000000000000000000000000000000000000080000000000000000000000000000000000000000000000001158e460913d0000000000000000000000000000000000000000000000000000000d529ae9e86000000000000000000000000000000000000000000000000000000000000000000047377617000000000000000000000000000000000000000000000000000000000",
        "nonce": "0x26",
        "chainId": "0xa455"
      },
      "additionalContracts": [],
      "isFixedGasLimit": false
    },
    {
      "hash": "0xd19e4c0a14e55379d003f23c0be25f6fe6223dc033e4b78bf5029c55fb4512a3",
      "transactionType": "CALL",
      "contractName": "AgentRegistry",
      "contractAddress": "0x0b306bf915c4d645ff596e518faf3f9669b97016",
      "function": "recordActivity(address,string,uint256,uint256)",
      "arguments": [
        "0x0000000000000000000000000000000000001005",
        "swap",
        "20000000000000000000",
        "60000000000000000"
      ],
      "transaction": {
        "from": "0xf39fd6e51aad88f6f4ce6ab8827279cfffb92266",
        "to": "0x0b306bf915c4d645ff596e518faf3f9669b97016",
        "gas": "0x1de8e",
        "value": "0x0",
        "input": "0xe2f11e6100000000000000000000000000000000000000000000000000000000000010050000000000000000000000000000000000000000000000000000000000000080000000000000000000000000000000000000000000000001158e460913d0000000000000000000000000000000000000000000000000000000d529ae9e86000000000000000000000000000000000000000000000000000000000000000000047377617000000000000000000000000000000000000000000000000000000000",
        "nonce": "0x27",
        "chainId": "0xa455"
      },
      "additionalContracts": [],
      "isFixedGasLimit": false
    },
    {
      "hash": "0xea24a7cc2699abc69c266dc1217895faa591ee6f9d20c89f095e8f2841f35efc",
      "transactionType": "CALL",
      "contractName": "AgentRegistry",
      "contractAddress": "0x0b306bf915c4d645ff596e518faf3f9669b97016",
      "function": "recordActivity(address,string,uint256,uint256)",
      "arguments": [
        "0x0000000000000000000000000000000000001005",
        "swap",
        "20000000000000000000",
        "60000000000000000"
      ],
      "transaction": {
        "from": "0xf39fd6e51aad88f6f4ce6ab8827279cfffb92266",
        "to": "0x0b306bf915c4d645ff596e518faf3f9669b97016",
        "gas": "0x1de8e",
        "value": "0x0",
        "input": "0xe2f11e6100000000000000000000000000000000000000000000000000000000000010050000000000000000000000000000000000000000000000000000000000000080000000000000000000000000000000000000000000000001158e460913d0000000000000000000000000000000000000000000000000000000d529ae9e86000000000000000000000000000000000000000000000000000000000000000000047377617000000000000000000000000000000000000000000000000000000000",
        "nonce": "0x28",
        "chainId": "0xa455"
      },
      "additionalContracts": [],
      "isFixedGasLimit": false
    },
    {
      "hash": "0x2d99d99da9bc36d69923e9ed3242d265cd361fbe9e4ea7fec5695c01ad723032",
      "transactionType": "CALL",
      "contractName": "AgentRegistry",
      "contractAddress": "0x0b306bf915c4d645ff596e518faf3f9669b97016",
      "function": "recordActivity(address,string,uint256,uint256)",
      "arguments": [
        "0x0000000000000000000000000000000000001005",
        "swap",
        "20000000000000000000",
        "60000000000000000"
      ],
      "transaction": {
        "from": "0xf39fd6e51aad88f6f4ce6ab8827279cfffb92266",
        "to": "0x0b306bf915c4d645ff596e518faf3f9669b97016",
        "gas": "0x1de8e",
        "value": "0x0",
        "input": "0xe2f11e6100000000000000000000000000000000000000000000000000000000000010050000000000000000000000000000000000000000000000000000000000000080000000000000000000000000000000000000000000000001158e460913d0000000000000000000000000000000000000000000000000000000d529ae9e86000000000000000000000000000000000000000000000000000000000000000000047377617000000000000000000000000000000000000000000000000000000000",
        "nonce": "0x29",
        "chainId": "0xa455"
      },
      "additionalContracts": [],
      "isFixedGasLimit": false
    },
    {
      "hash": "0x4eb1f305d85971090c0b3b30c00986c8ffac7d9ee3532a16117f7a30f98f7917",
      "transactionType": "CALL",
      "contractName": "AgentRegistry",
      "contractAddress": "0x0b306bf915c4d645ff596e518faf3f9669b97016",
      "function": "recordActivity(address,string,uint256,uint256)",
      "arguments": [
        "0x0000000000000000000000000000000000001005",
        "swap",
        "20000000000000000000",
        "60000000000000000"
      ],
      "transaction": {
        "from": "0xf39fd6e51aad88f6f4ce6ab8827279cfffb92266",
        "to": "0x0b306bf915c4d645ff596e518faf3f9669b97016",
        "gas": "0x1de8e",
        "value": "0x0",
        "input": "0xe2f11e6100000000000000000000000000000000000000000000000000000000000010050000000000000000000000000000000000000000000000000000000000000080000000000000000000000000000000000000000000000001158e460913d0000000000000000000000000000000000000000000000000000000d529ae9e86000000000000000000000000000000000000000000000000000000000000000000047377617000000000000000000000000000000000000000000000000000000000",
        "nonce": "0x2a",
        "chainId": "0xa455"
      },
      "additionalContracts": [],
      "isFixedGasLimit": false
    },
    {
      "hash": "0x085c39e687bbb9ee36b969d29eb98bb3e618771895f9f8c98ae580e2731a2a57",
      "transactionType": "CALL",
      "contractName": "AgentRegistry",
      "contractAddress": "0x0b306bf915c4d645ff596e518faf3f9669b97016",
      "function": "recordActivity(address,string,uint256,uint256)",
      "arguments": [
        "0x0000000000000000000000000000000000001005",
        "swap",
        "20000000000000000000",
        "60000000000000000"
      ],
      "transaction": {
        "from": "0xf39fd6e51aad88f6f4ce6ab8827279cfffb92266",
        "to": "0x0b306bf915c4d645ff596e518faf3f9669b97016",
        "gas": "0x1de8e",
        "value": "0x0",
        "input": "0xe2f11e6100000000000000000000000000000000000000000000000000000000000010050000000000000000000000000000000000000000000000000000000000000080000000000000000000000000000000000000000000000001158e460913d0000000000000000000000000000000000000000000000000000000d529ae9e86000000000000000000000000000000000000000000000000000000000000000000047377617000000000000000000000000000000000000000000000000000000000",
        "nonce": "0x2b",
        "chainId": "0xa455"
      },
      "additionalContracts": [],
      "isFixedGasLimit": false
    },
    {
      "hash": "0xcc6b3ecbc1f7ee63cdc5915ed5826f8ad6dbff2de15d16a760efd47124b2c18d",
      "transactionType": "CALL",
      "contractName": "AgentRegistry",
      "contractAddress": "0x0b306bf915c4d645ff596e518faf3f9669b97016",
      "function": "recordActivity(address,string,uint256,uint256)",
      "arguments": [
        "0x0000000000000000000000000000000000001005",
        "swap",
        "20000000000000000000",
        "60000000000000000"
      ],
      "transaction": {
        "from": "0xf39fd6e51aad88f6f4ce6ab8827279cfffb92266",
        "to": "0x0b306bf915c4d645ff596e518faf3f9669b97016",
        "gas": "0x1de8e",
        "value": "0x0",
        "input": "0xe2f11e6100000000000000000000000000000000000000000000000000000000000010050000000000000000000000000000000000000000000000000000000000000080000000000000000000000000000000000000000000000001158e460913d0000000000000000000000000000000000000000000000000000000d529ae9e86000000000000000000000000000000000000000000000000000000000000000000047377617000000000000000000000000000000000000000000000000000000000",
        "nonce": "0x2c",
        "chainId": "0xa455"
      },
      "additionalContracts": [],
      "isFixedGasLimit": false
    },
    {
      "hash": "0x29ac89c538bb085cae5d5cb710318878b4b864fd192a19473a37aeafe5f0e8f6",
      "transactionType": "CALL",
      "contractName": "AgentRegistry",
      "contractAddress": "0x0b306bf915c4d645ff596e518faf3f9669b97016",
      "function": "recordActivity(address,string,uint256,uint256)",
      "arguments": [
        "0x0000000000000000000000000000000000001005",
        "swap",
        "20000000000000000000",
        "60000000000000000"
      ],
      "transaction": {
        "from": "0xf39fd6e51aad88f6f4ce6ab8827279cfffb92266",
        "to": "0x0b306bf915c4d645ff596e518faf3f9669b97016",
        "gas": "0x1de8e",
        "value": "0x0",
        "input": "0xe2f11e6100000000000000000000000000000000000000000000000000000000000010050000000000000000000000000000000000000000000000000000000000000080000000000000000000000000000000000000000000000001158e460913d0000000000000000000000000000000000000000000000000000000d529ae9e86000000000000000000000000000000000000000000000000000000000000000000047377617000000000000000000000000000000000000000000000000000000000",
        "nonce": "0x2d",
        "chainId": "0xa455"
      },
      "additionalContracts": [],
      "isFixedGasLimit": false
    },
    {
      "hash": "0x14057965dc14521692fadc9e40e2fe09844b9417af64bc632df460be8d184e54",
      "transactionType": "CALL",
      "contractName": "AgentRegistry",
      "contractAddress": "0x0b306bf915c4d645ff596e518faf3f9669b97016",
      "function": "recordActivity(address,string,uint256,uint256)",
      "arguments": [
        "0x0000000000000000000000000000000000001005",
        "swap",
        "20000000000000000000",
        "60000000000000000"
      ],
      "transaction": {
        "from": "0xf39fd6e51aad88f6f4ce6ab8827279cfffb92266",
        "to": "0x0b306bf915c4d645ff596e518faf3f9669b97016",
        "gas": "0x1de8e",
        "value": "0x0",
        "input": "0xe2f11e6100000000000000000000000000000000000000000000000000000000000010050000000000000000000000000000000000000000000000000000000000000080000000000000000000000000000000000000000000000001158e460913d0000000000000000000000000000000000000000000000000000000d529ae9e86000000000000000000000000000000000000000000000000000000000000000000047377617000000000000000000000000000000000000000000000000000000000",
        "nonce": "0x2e",
        "chainId": "0xa455"
      },
      "additionalContracts": [],
      "isFixedGasLimit": false
    },
    {
      "hash": "0x97630209c8fdb5c5e7be2586e4725d5f92ffd39600b8d398e72af1cab8c4eb3c",
      "transactionType": "CALL",
      "contractName": "AgentRegistry",
      "contractAddress": "0x0b306bf915c4d645ff596e518faf3f9669b97016",
      "function": "recordActivity(address,string,uint256,uint256)",
      "arguments": [
        "0x0000000000000000000000000000000000001005",
        "predict",
        "50000000000000000000",
        "150000000000000000"
      ],
      "transaction": {
        "from": "0xf39fd6e51aad88f6f4ce6ab8827279cfffb92266",
        "to": "0x0b306bf915c4d645ff596e518faf3f9669b97016",
        "gas": "0x2f39a",
        "value": "0x0",
        "input": "0xe2f11e6100000000000000000000000000000000000000000000000000000000000010050000000000000000000000000000000000000000000000000000000000000080000000000000000000000000000000000000000000000002b5e3af16b18800000000000000000000000000000000000000000000000000000214e8348c4f000000000000000000000000000000000000000000000000000000000000000000077072656469637400000000000000000000000000000000000000000000000000",
        "nonce": "0x2f",
        "chainId": "0xa455"
      },
      "additionalContracts": [],
      "isFixedGasLimit": false
    },
    {
      "hash": "0x1f6a45f25f41821623e8c6e6a66807e90cf435e46a5f5effacb6f661280cd50c",
      "transactionType": "CALL",
      "contractName": "AgentRegistry",
      "contractAddress": "0x0b306bf915c4d645ff596e518faf3f9669b97016",
      "function": "recordPnL(address,uint256,bool)",
      "arguments": [
        "0x0000000000000000000000000000000000001005",
        "1800000000000000000",
        "true"
      ],
      "transaction": {
        "from": "0xf39fd6e51aad88f6f4ce6ab8827279cfffb92266",
        "to": "0x0b306bf915c4d645ff596e518faf3f9669b97016",
        "gas": "0x12005",
        "value": "0x0",
        "input": "0xb896f222000000000000000000000000000000000000000000000000000000000000100500000000000000000000000000000000000000000000000018fae27693b400000000000000000000000000000000000000000000000000000000000000000001",
        "nonce": "0x30",
        "chainId": "0xa455"
      },
      "additionalContracts": [],
      "isFixedGasLimit": false
    }
  ],
  "receipts": [
    {
      "status": "0x1",
      "cumulativeGasUsed": "0x22d813",
      "logs": [],
      "logsBloom": "0x00000000000000000000000000000000000000000000000000000000000000000000000000000000000000000000000000000000000000000000000000000000000000000000000000000000000000000000000000000000000000000000000000000000000000000000000000000000000000000000000000000000000000000000000000000000000000000000000000000000000000000000000000000000000000000000000000000000000000000000000000000000000000000000000000000000000000000000000000000000000000000000000000000000000000000000000000000000000000000000000000000000000000000000000000000000",
      "type": "0x0",
      "transactionHash": "0x38064e9d5c9f8d4a6c391ccf60650e82686ad921f45ff23289b94d3df0f51e0b",
      "transactionIndex": "0x0",
      "blockHash": "0x31202431fa76f7a173a2990f3791c22570cd3f80765bb0ff5a9c3b006ea3ccf1",
      "blockNumber": "0x15",
      "gasUsed": "0x22d813",
      "effectiveGasPrice": "0x3fe8aa51",
      "blobGasPrice": "0x1",
      "from": "0xf39fd6e51aad88f6f4ce6ab8827279cfffb92266",
      "to": null,
      "contractAddress": "0x0b306bf915c4d645ff596e518faf3f9669b97016"
    },
    {
      "status": "0x1",
      "cumulativeGasUsed": "0x28ed13",
      "logs": [
        {
          "address": "0x0b306bf915c4d645ff596e518faf3f9669b97016",
          "topics": [
            "0x6cf3badcf1a10c54709f13ad2475d8b3a44ebcb1b93b38e7257f985053235040",
            "0x0000000000000000000000000000000000000000000000000000000000001001",
            "0x000000000000000000000000f39fd6e51aad88f6f4ce6ab8827279cfffb92266"
          ],
          "data": "0x0000000000000000000000000000000000000000000000000000000000000020000000000000000000000000000000000000000000000000000000000000000b416c706861547261646572000000000000000000000000000000000000000000",
          "blockHash": "0x31202431fa76f7a173a2990f3791c22570cd3f80765bb0ff5a9c3b006ea3ccf1",
          "blockNumber": "0x15",
          "blockTimestamp": "0x69f528dd",
          "transactionHash": "0x9f9901846f2b5e7d8c5ac7437a803dc08172ff8eda5f40efdac01d2fb95efc7f",
          "transactionIndex": "0x1",
          "logIndex": "0x0",
          "removed": false
        }
      ],
      "logsBloom": "0x00000000000000001000000000000000000000000000000000000000000000002000000000000000000000000000000000000000000000000000000000000000000000000000000000000000000100000000000000000000000000000000000000000000000000000020000100000000000000000000000000000000000000000000000000000000000000000000000000000000008000000000000000000000000000800000000000000000000000000000000200000000000200000000000000000000000000200000000000000000000000002000000000000000000000000000000000000000000000000000010000000000000000000000000000000000",
      "type": "0x0",
      "transactionHash": "0x9f9901846f2b5e7d8c5ac7437a803dc08172ff8eda5f40efdac01d2fb95efc7f",
      "transactionIndex": "0x1",
      "blockHash": "0x31202431fa76f7a173a2990f3791c22570cd3f80765bb0ff5a9c3b006ea3ccf1",
      "blockNumber": "0x15",
      "gasUsed": "0x61500",
      "effectiveGasPrice": "0x3fe8aa51",
      "blobGasPrice": "0x1",
      "from": "0xf39fd6e51aad88f6f4ce6ab8827279cfffb92266",
      "to": "0x0b306bf915c4d645ff596e518faf3f9669b97016",
      "contractAddress": null
    },
    {
      "status": "0x1",
      "cumulativeGasUsed": "0x2e7c93",
      "logs": [
        {
          "address": "0x0b306bf915c4d645ff596e518faf3f9669b97016",
          "topics": [
            "0x6cf3badcf1a10c54709f13ad2475d8b3a44ebcb1b93b38e7257f985053235040",
            "0x0000000000000000000000000000000000000000000000000000000000001002",
            "0x000000000000000000000000f39fd6e51aad88f6f4ce6ab8827279cfffb92266"
          ],
          "data": "0x000000000000000000000000000000000000000000000000000000000000002000000000000000000000000000000000000000000000000000000000000000095969656c644d6178690000000000000000000000000000000000000000000000",
          "blockHash": "0x31202431fa76f7a173a2990f3791c22570cd3f80765bb0ff5a9c3b006ea3ccf1",
          "blockNumber": "0x15",
          "blockTimestamp": "0x69f528dd",
          "transactionHash": "0x5428e97f104840a0d4e0bb284763cad99fe7c96e2dc834535503c80458bd4af4",
          "transactionIndex": "0x2",
          "logIndex": "0x1",
          "removed": false
        }
      ],
      "logsBloom": "0x00000000000000001000000000000000000000000000000000000000000000002000000000000000000000000000000000000000000000000000000000000000000000000000000000000000000000000000000000000000000000000000000000000000000000000000000100000000000000000000000200000000001000000000000000000000000000000000000000000000008000000000000000000000000000000000000000000000000000000000000200000000000200000000000000000000040000200000000000000000000000002000000000000000000000000000000000000000000000000000010000000000000000000000000000000000",
      "type": "0x0",
      "transactionHash": "0x5428e97f104840a0d4e0bb284763cad99fe7c96e2dc834535503c80458bd4af4",
      "transactionIndex": "0x2",
      "blockHash": "0x31202431fa76f7a173a2990f3791c22570cd3f80765bb0ff5a9c3b006ea3ccf1",
      "blockNumber": "0x15",
      "gasUsed": "0x58f80",
      "effectiveGasPrice": "0x3fe8aa51",
      "blobGasPrice": "0x1",
      "from": "0xf39fd6e51aad88f6f4ce6ab8827279cfffb92266",
      "to": "0x0b306bf915c4d645ff596e518faf3f9669b97016",
      "contractAddress": null
    },
    {
      "status": "0x1",
      "cumulativeGasUsed": "0x340c37",
      "logs": [
        {
          "address": "0x0b306bf915c4d645ff596e518faf3f9669b97016",
          "topics": [
            "0x6cf3badcf1a10c54709f13ad2475d8b3a44ebcb1b93b38e7257f985053235040",
            "0x0000000000000000000000000000000000000000000000000000000000001003",
            "0x000000000000000000000000f39fd6e51aad88f6f4ce6ab8827279cfffb92266"
          ],
          "data": "0x00000000000000000000000000000000000000000000000000000000000000200000000000000000000000000000000000000000000000000000000000000010507265646963744f7261636c65426f7400000000000000000000000000000000",
          "blockHash": "0x31202431fa76f7a173a2990f3791c22570cd3f80765bb0ff5a9c3b006ea3ccf1",
          "blockNumber": "0x15",
          "blockTimestamp": "0x69f528dd",
          "transactionHash": "0x54a75e6ccfc14856a000bb560d8e640daf14277402f02f8d2e36f06a57e1c9ac",
          "transactionIndex": "0x3",
          "logIndex": "0x2",
          "removed": false
        }
      ],
      "logsBloom": "0x00000000000000001000000000000000000000000000000000000000010000002000000000000000000000000000000000000000000000000000000000000000000000000000000000000000000000000000000000000000000000000000000000000000000000000000000100000000000000000000000000000000000000000000000000000000000000000000000000000000008000000000000000000000000000000000000000000000000000000000000200000000000200000000000000000000000000200000000000000000000000002000000000000000000000000000000000020000000000000000010020000000000000000000000000000000",
      "type": "0x0",
      "transactionHash": "0x54a75e6ccfc14856a000bb560d8e640daf14277402f02f8d2e36f06a57e1c9ac",
      "transactionIndex": "0x3",
      "blockHash": "0x31202431fa76f7a173a2990f3791c22570cd3f80765bb0ff5a9c3b006ea3ccf1",
      "blockNumber": "0x15",
      "gasUsed": "0x58fa4",
      "effectiveGasPrice": "0x3fe8aa51",
      "blobGasPrice": "0x1",
      "from": "0xf39fd6e51aad88f6f4ce6ab8827279cfffb92266",
      "to": "0x0b306bf915c4d645ff596e518faf3f9669b97016",
      "contractAddress": null
    },
    {
      "status": "0x1",
      "cumulativeGasUsed": "0x399b6f",
      "logs": [
        {
          "address": "0x0b306bf915c4d645ff596e518faf3f9669b97016",
          "topics": [
            "0x6cf3badcf1a10c54709f13ad2475d8b3a44ebcb1b93b38e7257f985053235040",
            "0x0000000000000000000000000000000000000000000000000000000000001004",
            "0x000000000000000000000000f39fd6e51aad88f6f4ce6ab8827279cfffb92266"
          ],
          "data": "0x0000000000000000000000000000000000000000000000000000000000000020000000000000000000000000000000000000000000000000000000000000000c44656c74614e65757472616c0000000000000000000000000000000000000000",
          "blockHash": "0x31202431fa76f7a173a2990f3791c22570cd3f80765bb0ff5a9c3b006ea3ccf1",
          "blockNumber": "0x15",
          "blockTimestamp": "0x69f528dd",
          "transactionHash": "0xd5632a89301cfb2c80acd7247ef314a216e58642720f5a2c653988751af383f3",
          "transactionIndex": "0x4",
          "logIndex": "0x3",
          "removed": false
        }
      ],
      "logsBloom": "0x00000000000000001000000000000000000000000000000000400000000000002000000000000000000000000000000000000000000000000000000000000000000000000000000000000000000000000000000000000000000000000000000000000000000000000000000100000000000000000000000000000000000000000000000000000000000000000000000000000000008000000000000040000000000000000000000000000000000000000000000200000000000200000008000000000000000000200000000000000000000000002000000000000000000000000000000000000000000000000000010000000000000000000000000000000000",
      "type": "0x0",
      "transactionHash": "0xd5632a89301cfb2c80acd7247ef314a216e58642720f5a2c653988751af383f3",
      "transactionIndex": "0x4",
      "blockHash": "0x31202431fa76f7a173a2990f3791c22570cd3f80765bb0ff5a9c3b006ea3ccf1",
      "blockNumber": "0x15",
      "gasUsed": "0x58f38",
      "effectiveGasPrice": "0x3fe8aa51",
      "blobGasPrice": "0x1",
      "from": "0xf39fd6e51aad88f6f4ce6ab8827279cfffb92266",
      "to": "0x0b306bf915c4d645ff596e518faf3f9669b97016",
      "contractAddress": null
    },
    {
      "status": "0x1",
      "cumulativeGasUsed": "0x3f2aa7",
      "logs": [
        {
          "address": "0x0b306bf915c4d645ff596e518faf3f9669b97016",
          "topics": [
            "0x6cf3badcf1a10c54709f13ad2475d8b3a44ebcb1b93b38e7257f985053235040",
            "0x0000000000000000000000000000000000000000000000000000000000001005",
            "0x000000000000000000000000f39fd6e51aad88f6f4ce6ab8827279cfffb92266"
          ],
          "data": "0x0000000000000000000000000000000000000000000000000000000000000020000000000000000000000000000000000000000000000000000000000000000c5542494d6178696d697a65720000000000000000000000000000000000000000",
          "blockHash": "0x31202431fa76f7a173a2990f3791c22570cd3f80765bb0ff5a9c3b006ea3ccf1",
          "blockNumber": "0x15",
          "blockTimestamp": "0x69f528dd",
          "transactionHash": "0x22e01575412f1e1dc32d4db36e8fa7d988a2cc613c785eed6ef807a07922f044",
          "transactionIndex": "0x5",
          "logIndex": "0x4",
          "removed": false
        }
      ],
      "logsBloom": "0x00000000000000001000000000000000000000000000000000000000000000002000000000000000000000000000000000000000000000000000000000000000000000000000000000004000000000000800080000000000000000000000000000000000000000000000000100000000000000000000000000000000000000000000000000000000000000000000000000000000008000000000000000000000000000000000000000000000000000000000000200000000000200000000000000000000000000200000000000000000000000002000000000000000000000000000000000000000000000000000010000000000000000000000000000000000",
      "type": "0x0",
      "transactionHash": "0x22e01575412f1e1dc32d4db36e8fa7d988a2cc613c785eed6ef807a07922f044",
      "transactionIndex": "0x5",
      "blockHash": "0x31202431fa76f7a173a2990f3791c22570cd3f80765bb0ff5a9c3b006ea3ccf1",
      "blockNumber": "0x15",
      "gasUsed": "0x58f38",
      "effectiveGasPrice": "0x3fe8aa51",
      "blobGasPrice": "0x1",
      "from": "0xf39fd6e51aad88f6f4ce6ab8827279cfffb92266",
      "to": "0x0b306bf915c4d645ff596e518faf3f9669b97016",
      "contractAddress": null
    },
    {
      "status": "0x1",
      "cumulativeGasUsed": "0x43212f",
      "logs": [
        {
          "address": "0x0b306bf915c4d645ff596e518faf3f9669b97016",
          "topics": [
            "0xe569346dc44a549a2dba8bdb890e3ad5f8b19481c95faf552e6c4684f90f369c",
            "0x0000000000000000000000000000000000000000000000000000000000001001"
          ],
          "data": "0x000000000000000000000000000000000000000000000000000000000000008000000000000000000000000000000000000000000000001b1ae4d6e2ef50000000000000000000000000000000000000000000000000000014d1120d7b16000000000000000000000000000000000000000000000000000006f02de04b74e00000000000000000000000000000000000000000000000000000000000000000057065727073000000000000000000000000000000000000000000000000000000",
          "blockHash": "0x31202431fa76f7a173a2990f3791c22570cd3f80765bb0ff5a9c3b006ea3ccf1",
          "blockNumber": "0x15",
          "blockTimestamp": "0x69f528dd",
          "transactionHash": "0x5c0769e9cfd532388eb7859ebca5b2a9cb12a4384ae64a28f89dfcdd9240fea6",
          "transactionIndex": "0x6",
          "logIndex": "0x5",
          "removed": false
        }
      ],
      "logsBloom": "0x00000000000000001000000000000000100000000000000000000000000000000000000000000000000000000000000000000000000000000000000000000000000000000000000000000000000100000000000000000000000000000000000000000000000000000020000000000000000000020000000000000000000000000000000000000000000000000000000000000000008000000000000000000000000000800000000000000000000000000000000000000000000000000000000000000000000000000000000000000000000000000000000000000000000000000000000000000000000000000000010000000000000000000000000000000002",
      "type": "0x0",
      "transactionHash": "0x5c0769e9cfd532388eb7859ebca5b2a9cb12a4384ae64a28f89dfcdd9240fea6",
      "transactionIndex": "0x6",
      "blockHash": "0x31202431fa76f7a173a2990f3791c22570cd3f80765bb0ff5a9c3b006ea3ccf1",
      "blockNumber": "0x15",
      "gasUsed": "0x3f688",
      "effectiveGasPrice": "0x3fe8aa51",
      "blobGasPrice": "0x1",
      "from": "0xf39fd6e51aad88f6f4ce6ab8827279cfffb92266",
      "to": "0x0b306bf915c4d645ff596e518faf3f9669b97016",
      "contractAddress": null
    },
    {
      "status": "0x1",
      "cumulativeGasUsed": "0x447bbf",
      "logs": [
        {
          "address": "0x0b306bf915c4d645ff596e518faf3f9669b97016",
          "topics": [
            "0xe569346dc44a549a2dba8bdb890e3ad5f8b19481c95faf552e6c4684f90f369c",
            "0x0000000000000000000000000000000000000000000000000000000000001001"
          ],
          "data": "0x000000000000000000000000000000000000000000000000000000000000008000000000000000000000000000000000000000000000001043561a88293000000000000000000000000000000000000000000000000000000c7d713b49da00000000000000000000000000000000000000000000000000000429b5202d46200000000000000000000000000000000000000000000000000000000000000000057065727073000000000000000000000000000000000000000000000000000000",
          "blockHash": "0x31202431fa76f7a173a2990f3791c22570cd3f80765bb0ff5a9c3b006ea3ccf1",
          "blockNumber": "0x15",
          "blockTimestamp": "0x69f528dd",
          "transactionHash": "0x155a264f63840bedc39132134586e44f193a442c7a814b25cf173fdc9b1b464e",
          "transactionIndex": "0x7",
          "logIndex": "0x6",
          "removed": false
        }
      ],
      "logsBloom": "0x00000000000000001000000000000000100000000000000000000000000000000000000000000000000000000000000000000000000000000000000000000000000000000000000000000000000100000000000000000000000000000000000000000000000000000020000000000000000000020000000000000000000000000000000000000000000000000000000000000000008000000000000000000000000000800000000000000000000000000000000000000000000000000000000000000000000000000000000000000000000000000000000000000000000000000000000000000000000000000000010000000000000000000000000000000002",
      "type": "0x0",
      "transactionHash": "0x155a264f63840bedc39132134586e44f193a442c7a814b25cf173fdc9b1b464e",
      "transactionIndex": "0x7",
      "blockHash": "0x31202431fa76f7a173a2990f3791c22570cd3f80765bb0ff5a9c3b006ea3ccf1",
      "blockNumber": "0x15",
      "gasUsed": "0x15a90",
      "effectiveGasPrice": "0x3fe8aa51",
      "blobGasPrice": "0x1",
      "from": "0xf39fd6e51aad88f6f4ce6ab8827279cfffb92266",
      "to": "0x0b306bf915c4d645ff596e518faf3f9669b97016",
      "contractAddress": null
    },
    {
      "status": "0x1",
      "cumulativeGasUsed": "0x469ea7",
      "logs": [
        {
          "address": "0x0b306bf915c4d645ff596e518faf3f9669b97016",
          "topics": [
            "0xe569346dc44a549a2dba8bdb890e3ad5f8b19481c95faf552e6c4684f90f369c",
            "0x0000000000000000000000000000000000000000000000000000000000001001"
          ],
          "data": "0x0000000000000000000000000000000000000000000000000000000000000080000000000000000000000000000000000000000000000002b5e3af16b18800000000000000000000000000000000000000000000000000000214e8348c4f000000000000000000000000000000000000000000000000000000b19e30078bb00000000000000000000000000000000000000000000000000000000000000000047377617000000000000000000000000000000000000000000000000000000000",
          "blockHash": "0x31202431fa76f7a173a2990f3791c22570cd3f80765bb0ff5a9c3b006ea3ccf1",
          "blockNumber": "0x15",
          "blockTimestamp": "0x69f528dd",
          "transactionHash": "0x531112319189a54748cba138404809945fc2ed3c1b66a910e8140c555eda3f45",
          "transactionIndex": "0x8",
          "logIndex": "0x7",
          "removed": false
        }
      ],
      "logsBloom": "0x00000000000000001000000000000000100000000000000000000000000000000000000000000000000000000000000000000000000000000000000000000000000000000000000000000000000100000000000000000000000000000000000000000000000000000020000000000000000000020000000000000000000000000000000000000000000000000000000000000000008000000000000000000000000000800000000000000000000000000000000000000000000000000000000000000000000000000000000000000000000000000000000000000000000000000000000000000000000000000000010000000000000000000000000000000002",
      "type": "0x0",
      "transactionHash": "0x531112319189a54748cba138404809945fc2ed3c1b66a910e8140c555eda3f45",
      "transactionIndex": "0x8",
      "blockHash": "0x31202431fa76f7a173a2990f3791c22570cd3f80765bb0ff5a9c3b006ea3ccf1",
      "blockNumber": "0x15",
      "gasUsed": "0x222e8",
      "effectiveGasPrice": "0x3fe8aa51",
      "blobGasPrice": "0x1",
      "from": "0xf39fd6e51aad88f6f4ce6ab8827279cfffb92266",
      "to": "0x0b306bf915c4d645ff596e518faf3f9669b97016",
      "contractAddress": null
    },
    {
      "status": "0x1",
      "cumulativeGasUsed": "0x476f2d",
      "logs": [],
      "logsBloom": "0x00000000000000000000000000000000000000000000000000000000000000000000000000000000000000000000000000000000000000000000000000000000000000000000000000000000000000000000000000000000000000000000000000000000000000000000000000000000000000000000000000000000000000000000000000000000000000000000000000000000000000000000000000000000000000000000000000000000000000000000000000000000000000000000000000000000000000000000000000000000000000000000000000000000000000000000000000000000000000000000000000000000000000000000000000000000",
      "type": "0x0",
      "transactionHash": "0xc8a0d70fe438b9f5ea78f3e2c3bf179904c1a737fc98586e51a8a6addc55d48d",
      "transactionIndex": "0x9",
      "blockHash": "0x31202431fa76f7a173a2990f3791c22570cd3f80765bb0ff5a9c3b006ea3ccf1",
      "blockNumber": "0x15",
      "gasUsed": "0xd086",
      "effectiveGasPrice": "0x3fe8aa51",
      "blobGasPrice": "0x1",
      "from": "0xf39fd6e51aad88f6f4ce6ab8827279cfffb92266",
      "to": "0x0b306bf915c4d645ff596e518faf3f9669b97016",
      "contractAddress": null
    },
    {
      "status": "0x1",
      "cumulativeGasUsed": "0x4a9d45",
      "logs": [
        {
          "address": "0x0b306bf915c4d645ff596e518faf3f9669b97016",
          "topics": [
            "0xe569346dc44a549a2dba8bdb890e3ad5f8b19481c95faf552e6c4684f90f369c",
            "0x0000000000000000000000000000000000000000000000000000000000001002"
          ],
          "data": "0x000000000000000000000000000000000000000000000000000000000000008000000000000000000000000000000000000000000000000ad78ebc5ac62000000000000000000000000000000000000000000000000000000853a0d2313c000000000000000000000000000000000000000000000000000002c678c01e2ec00000000000000000000000000000000000000000000000000000000000000000046c656e6400000000000000000000000000000000000000000000000000000000",
          "blockHash": "0x31202431fa76f7a173a2990f3791c22570cd3f80765bb0ff5a9c3b006ea3ccf1",
          "blockNumber": "0x15",
          "blockTimestamp": "0x69f528dd",
          "transactionHash": "0xbc8c7265618df73a5cdbc0d1bcbc4cdbb5a39a5b98f38ff2f9c6b502565722af",
          "transactionIndex": "0xa",
          "logIndex": "0x8",
          "removed": false
        }
      ],
      "logsBloom": "0x00000000000000001000000000000000100000000000000000000000000000000000000000000000000000000000000000000000000000000000000000000000000000000000000000000000000000000000000000000000000000000000000000000000000000000000000000000000000000020000000200000000001000000000000000000000000000000000000000000000008000000000000000000000000000000000000000000000000000000000000000000000000000000000000000000000040000000000000000000000000000000000000000000000000000000000000000000000000000000000010000000000000000000000000000000002",
      "type": "0x0",
      "transactionHash": "0xbc8c7265618df73a5cdbc0d1bcbc4cdbb5a39a5b98f38ff2f9c6b502565722af",
      "transactionIndex": "0xa",
      "blockHash": "0x31202431fa76f7a173a2990f3791c22570cd3f80765bb0ff5a9c3b006ea3ccf1",
      "blockNumber": "0x15",
      "gasUsed": "0x32e18",
      "effectiveGasPrice": "0x3fe8aa51",
      "blobGasPrice": "0x1",
      "from": "0xf39fd6e51aad88f6f4ce6ab8827279cfffb92266",
      "to": "0x0b306bf915c4d645ff596e518faf3f9669b97016",
      "contractAddress": null
    },
    {
      "status": "0x1",
      "cumulativeGasUsed": "0x4cc039",
      "logs": [
        {
          "address": "0x0b306bf915c4d645ff596e518faf3f9669b97016",
          "topics": [
            "0xe569346dc44a549a2dba8bdb890e3ad5f8b19481c95faf552e6c4684f90f369c",
            "0x0000000000000000000000000000000000000000000000000000000000001002"
          ],
          "data": "0x000000000000000000000000000000000000000000000000000000000000008000000000000000000000000000000000000000000000000821ab0d4414980000000000000000000000000000000000000000000000000000063eb89da4ed00000000000000000000000000000000000000000000000000000214da9016a3100000000000000000000000000000000000000000000000000000000000000000057969656c64000000000000000000000000000000000000000000000000000000",
          "blockHash": "0x31202431fa76f7a173a2990f3791c22570cd3f80765bb0ff5a9c3b006ea3ccf1",
          "blockNumber": "0x15",
          "blockTimestamp": "0x69f528dd",
          "transactionHash": "0x9b3df961917e6bb2f3796bd45fb37511464452939c48d58d2ab71cc6605e4280",
          "transactionIndex": "0xb",
          "logIndex": "0x9",
          "removed": false
        }
      ],
      "logsBloom": "0x00000000000000001000000000000000100000000000000000000000000000000000000000000000000000000000000000000000000000000000000000000000000000000000000000000000000000000000000000000000000000000000000000000000000000000000000000000000000000020000000200000000001000000000000000000000000000000000000000000000008000000000000000000000000000000000000000000000000000000000000000000000000000000000000000000000040000000000000000000000000000000000000000000000000000000000000000000000000000000000010000000000000000000000000000000002",
      "type": "0x0",
      "transactionHash": "0x9b3df961917e6bb2f3796bd45fb37511464452939c48d58d2ab71cc6605e4280",
      "transactionIndex": "0xb",
      "blockHash": "0x31202431fa76f7a173a2990f3791c22570cd3f80765bb0ff5a9c3b006ea3ccf1",
      "blockNumber": "0x15",
      "gasUsed": "0x222f4",
      "effectiveGasPrice": "0x3fe8aa51",
      "blobGasPrice": "0x1",
      "from": "0xf39fd6e51aad88f6f4ce6ab8827279cfffb92266",
      "to": "0x0b306bf915c4d645ff596e518faf3f9669b97016",
      "contractAddress": null
    },
    {
      "status": "0x1",
      "cumulativeGasUsed": "0x4ee321",
      "logs": [
        {
          "address": "0x0b306bf915c4d645ff596e518faf3f9669b97016",
          "topics": [
            "0xe569346dc44a549a2dba8bdb890e3ad5f8b19481c95faf552e6c4684f90f369c",
            "0x0000000000000000000000000000000000000000000000000000000000001002"
          ],
          "data": "0x0000000000000000000000000000000000000000000000000000000000000080000000000000000000000000000000000000000000000004563918244f4000000000000000000000000000000000000000000000000000000354a6ba7a180000000000000000000000000000000000000000000000000000011c304cd8df800000000000000000000000000000000000000000000000000000000000000000047377617000000000000000000000000000000000000000000000000000000000",
          "blockHash": "0x31202431fa76f7a173a2990f3791c22570cd3f80765bb0ff5a9c3b006ea3ccf1",
          "blockNumber": "0x15",
          "blockTimestamp": "0x69f528dd",
          "transactionHash": "0x78d637c8d25f67828869cbc4a609f643955a0349b2d5532e86793dfbab8f107f",
          "transactionIndex": "0xc",
          "logIndex": "0xa",
          "removed": false
        }
      ],
      "logsBloom": "0x00000000000000001000000000000000100000000000000000000000000000000000000000000000000000000000000000000000000000000000000000000000000000000000000000000000000000000000000000000000000000000000000000000000000000000000000000000000000000020000000200000000001000000000000000000000000000000000000000000000008000000000000000000000000000000000000000000000000000000000000000000000000000000000000000000000040000000000000000000000000000000000000000000000000000000000000000000000000000000000010000000000000000000000000000000002",
      "type": "0x0",
      "transactionHash": "0x78d637c8d25f67828869cbc4a609f643955a0349b2d5532e86793dfbab8f107f",
      "transactionIndex": "0xc",
      "blockHash": "0x31202431fa76f7a173a2990f3791c22570cd3f80765bb0ff5a9c3b006ea3ccf1",
      "blockNumber": "0x15",
      "gasUsed": "0x222e8",
      "effectiveGasPrice": "0x3fe8aa51",
      "blobGasPrice": "0x1",
      "from": "0xf39fd6e51aad88f6f4ce6ab8827279cfffb92266",
      "to": "0x0b306bf915c4d645ff596e518faf3f9669b97016",
      "contractAddress": null
    },
    {
      "status": "0x1",
      "cumulativeGasUsed": "0x4fb3a7",
      "logs": [],
      "logsBloom": "0x00000000000000000000000000000000000000000000000000000000000000000000000000000000000000000000000000000000000000000000000000000000000000000000000000000000000000000000000000000000000000000000000000000000000000000000000000000000000000000000000000000000000000000000000000000000000000000000000000000000000000000000000000000000000000000000000000000000000000000000000000000000000000000000000000000000000000000000000000000000000000000000000000000000000000000000000000000000000000000000000000000000000000000000000000000000",
      "type": "0x0",
      "transactionHash": "0xfcfc5ca993cea633f7d63ac862641bf29d616475c2989b76a35ada15350e3ee3",
      "transactionIndex": "0xd",
      "blockHash": "0x31202431fa76f7a173a2990f3791c22570cd3f80765bb0ff5a9c3b006ea3ccf1",
      "blockNumber": "0x15",
      "gasUsed": "0xd086",
      "effectiveGasPrice": "0x3fe8aa51",
      "blobGasPrice": "0x1",
      "from": "0xf39fd6e51aad88f6f4ce6ab8827279cfffb92266",
      "to": "0x0b306bf915c4d645ff596e518faf3f9669b97016",
      "contractAddress": null
    },
    {
      "status": "0x1",
      "cumulativeGasUsed": "0x52e1e3",
      "logs": [
        {
          "address": "0x0b306bf915c4d645ff596e518faf3f9669b97016",
          "topics": [
            "0xe569346dc44a549a2dba8bdb890e3ad5f8b19481c95faf552e6c4684f90f369c",
            "0x0000000000000000000000000000000000000000000000000000000000001003"
          ],
          "data": "0x00000000000000000000000000000000000000000000000000000000000000800000000000000000000000000000000000000000000000056bc75e2d631000000000000000000000000000000000000000000000000000000429d069189e000000000000000000000000000000000000000000000000000001633c600f17600000000000000000000000000000000000000000000000000000000000000000077072656469637400000000000000000000000000000000000000000000000000",
          "blockHash": "0x31202431fa76f7a173a2990f3791c22570cd3f80765bb0ff5a9c3b006ea3ccf1",
          "blockNumber": "0x15",
          "blockTimestamp": "0x69f528dd",
          "transactionHash": "0x405a606c6035e15247a24e66336ff93faec58b1d87bf2348f4b7325d5eff0b43",
          "transactionIndex": "0xe",
          "logIndex": "0xb",
          "removed": false
        }
      ],
      "logsBloom": "0x00000000000000001000000000000000100000000000000000000000010000000000000000000000000000000000000000000000000000000000000000000000000000000000000000000000000000000000000000000000000000000000000000000000000000000000000000000000000000020000000000000000000000000000000000000000000000000000000000000000008000000000000000000000000000000000000000000000000000000000000000000000000000000000000000000000000000000000000000000000000000000000000000000000000000000000000000020000000000000000010020000000000000000000000000000002",
      "type": "0x0",
      "transactionHash": "0x405a606c6035e15247a24e66336ff93faec58b1d87bf2348f4b7325d5eff0b43",
      "transactionIndex": "0xe",
      "blockHash": "0x31202431fa76f7a173a2990f3791c22570cd3f80765bb0ff5a9c3b006ea3ccf1",
      "blockNumber": "0x15",
      "gasUsed": "0x32e3c",
      "effectiveGasPrice": "0x3fe8aa51",
      "blobGasPrice": "0x1",
      "from": "0xf39fd6e51aad88f6f4ce6ab8827279cfffb92266",
      "to": "0x0b306bf915c4d645ff596e518faf3f9669b97016",
      "contractAddress": null
    },
    {
      "status": "0x1",
      "cumulativeGasUsed": "0x543c97",
      "logs": [
        {
          "address": "0x0b306bf915c4d645ff596e518faf3f9669b97016",
          "topics": [
            "0xe569346dc44a549a2dba8bdb890e3ad5f8b19481c95faf552e6c4684f90f369c",
            "0x0000000000000000000000000000000000000000000000000000000000001003"
          ],
          "data": "0x000000000000000000000000000000000000000000000000000000000000008000000000000000000000000000000000000000000000000410d586a20a4c0000000000000000000000000000000000000000000000000000031f5c4ed2768000000000000000000000000000000000000000000000000000010a6d480b51880000000000000000000000000000000000000000000000000000000000000000077072656469637400000000000000000000000000000000000000000000000000",
          "blockHash": "0x31202431fa76f7a173a2990f3791c22570cd3f80765bb0ff5a9c3b006ea3ccf1",
          "blockNumber": "0x15",
          "blockTimestamp": "0x69f528dd",
          "transactionHash": "0xbdaf56aaab2e2b10410c947e27c100b69f5432014a0c4431c08b098abcaf117b",
          "transactionIndex": "0xf",
          "logIndex": "0xc",
          "removed": false
        }
      ],
      "logsBloom": "0x00000000000000001000000000000000100000000000000000000000010000000000000000000000000000000000000000000000000000000000000000000000000000000000000000000000000000000000000000000000000000000000000000000000000000000000000000000000000000020000000000000000000000000000000000000000000000000000000000000000008000000000000000000000000000000000000000000000000000000000000000000000000000000000000000000000000000000000000000000000000000000000000000000000000000000000000000020000000000000000010020000000000000000000000000000002",
      "type": "0x0",
      "transactionHash": "0xbdaf56aaab2e2b10410c947e27c100b69f5432014a0c4431c08b098abcaf117b",
      "transactionIndex": "0xf",
      "blockHash": "0x31202431fa76f7a173a2990f3791c22570cd3f80765bb0ff5a9c3b006ea3ccf1",
      "blockNumber": "0x15",
      "gasUsed": "0x15ab4",
      "effectiveGasPrice": "0x3fe8aa51",
      "blobGasPrice": "0x1",
      "from": "0xf39fd6e51aad88f6f4ce6ab8827279cfffb92266",
      "to": "0x0b306bf915c4d645ff596e518faf3f9669b97016",
      "contractAddress": null
    },
    {
      "status": "0x1",
      "cumulativeGasUsed": "0x565f7f",
      "logs": [
        {
          "address": "0x0b306bf915c4d645ff596e518faf3f9669b97016",
          "topics": [
            "0xe569346dc44a549a2dba8bdb890e3ad5f8b19481c95faf552e6c4684f90f369c",
            "0x0000000000000000000000000000000000000000000000000000000000001003"
          ],
          "data": "0x0000000000000000000000000000000000000000000000000000000000000080000000000000000000000000000000000000000000000001a055690d9db80000000000000000000000000000000000000000000000000000013fbe85edc90000000000000000000000000000000000000000000000000000006a921cd153d00000000000000000000000000000000000000000000000000000000000000000047377617000000000000000000000000000000000000000000000000000000000",
          "blockHash": "0x31202431fa76f7a173a2990f3791c22570cd3f80765bb0ff5a9c3b006ea3ccf1",
          "blockNumber": "0x15",
          "blockTimestamp": "0x69f528dd",
          "transactionHash": "0x011b84ebce7ec70bcb8cb50b9e1b9760178cba6e4d9c0b401c13dba7c056e413",
          "transactionIndex": "0x10",
          "logIndex": "0xd",
          "removed": false
        }
      ],
      "logsBloom": "0x00000000000000001000000000000000100000000000000000000000010000000000000000000000000000000000000000000000000000000000000000000000000000000000000000000000000000000000000000000000000000000000000000000000000000000000000000000000000000020000000000000000000000000000000000000000000000000000000000000000008000000000000000000000000000000000000000000000000000000000000000000000000000000000000000000000000000000000000000000000000000000000000000000000000000000000000000020000000000000000010020000000000000000000000000000002",
      "type": "0x0",
      "transactionHash": "0x011b84ebce7ec70bcb8cb50b9e1b9760178cba6e4d9c0b401c13dba7c056e413",
      "transactionIndex": "0x10",
      "blockHash": "0x31202431fa76f7a173a2990f3791c22570cd3f80765bb0ff5a9c3b006ea3ccf1",
      "blockNumber": "0x15",
      "gasUsed": "0x222e8",
      "effectiveGasPrice": "0x3fe8aa51",
      "blobGasPrice": "0x1",
      "from": "0xf39fd6e51aad88f6f4ce6ab8827279cfffb92266",
      "to": "0x0b306bf915c4d645ff596e518faf3f9669b97016",
      "contractAddress": null
    },
    {
      "status": "0x1",
      "cumulativeGasUsed": "0x572ff9",
      "logs": [],
      "logsBloom": "0x00000000000000000000000000000000000000000000000000000000000000000000000000000000000000000000000000000000000000000000000000000000000000000000000000000000000000000000000000000000000000000000000000000000000000000000000000000000000000000000000000000000000000000000000000000000000000000000000000000000000000000000000000000000000000000000000000000000000000000000000000000000000000000000000000000000000000000000000000000000000000000000000000000000000000000000000000000000000000000000000000000000000000000000000000000000",
      "type": "0x0",
      "transactionHash": "0x1f6a45f25f41821623e8c6e6a66807e90cf435e46a5f5effacb6f661280cd50c",
      "transactionIndex": "0x11",
      "blockHash": "0x31202431fa76f7a173a2990f3791c22570cd3f80765bb0ff5a9c3b006ea3ccf1",
      "blockNumber": "0x15",
      "gasUsed": "0xd07a",
      "effectiveGasPrice": "0x3fe8aa51",
      "blobGasPrice": "0x1",
      "from": "0xf39fd6e51aad88f6f4ce6ab8827279cfffb92266",
      "to": "0x0b306bf915c4d645ff596e518faf3f9669b97016",
      "contractAddress": null
    },
    {
      "status": "0x1",
      "cumulativeGasUsed": "0x5a5e1d",
      "logs": [
        {
          "address": "0x0b306bf915c4d645ff596e518faf3f9669b97016",
          "topics": [
            "0xe569346dc44a549a2dba8bdb890e3ad5f8b19481c95faf552e6c4684f90f369c",
            "0x0000000000000000000000000000000000000000000000000000000000001004"
          ],
          "data": "0x0000000000000000000000000000000000000000000000000000000000000080000000000000000000000000000000000000000000000015af1d78b58c40000000000000000000000000000000000000000000000000000010a741a462780000000000000000000000000000000000000000000000000000058cf1803c5d800000000000000000000000000000000000000000000000000000000000000000057065727073000000000000000000000000000000000000000000000000000000",
          "blockHash": "0x31202431fa76f7a173a2990f3791c22570cd3f80765bb0ff5a9c3b006ea3ccf1",
          "blockNumber": "0x15",
          "blockTimestamp": "0x69f528dd",
          "transactionHash": "0x335385b0527319c5e5b92804e318e280c51fed38f8b8df28a1375b079b6257a2",
          "transactionIndex": "0x12",
          "logIndex": "0xe",
          "removed": false
        }
      ],
      "logsBloom": "0x00000000000000001000000000000000100000000000000000400000000000000000000000000000000000000000000000000000000000000000000000000000000000000000000000000000000000000000000000000000000000000000000000000000000000000000000000000000000000020000000000000000000000000000000000000000000000000000000000000000008000000000000040000000000000000000000000000000000000000000000000000000000000000008000000000000000000000000000000000000000000000000000000000000000000000000000000000000000000000000010000000000000000000000000000000002",
      "type": "0x0",
      "transactionHash": "0x335385b0527319c5e5b92804e318e280c51fed38f8b8df28a1375b079b6257a2",
      "transactionIndex": "0x12",
      "blockHash": "0x31202431fa76f7a173a2990f3791c22570cd3f80765bb0ff5a9c3b006ea3ccf1",
      "blockNumber": "0x15",
      "gasUsed": "0x32e24",
      "effectiveGasPrice": "0x3fe8aa51",
      "blobGasPrice": "0x1",
      "from": "0xf39fd6e51aad88f6f4ce6ab8827279cfffb92266",
      "to": "0x0b306bf915c4d645ff596e518faf3f9669b97016",
      "contractAddress": null
    },
    {
      "status": "0x1",
      "cumulativeGasUsed": "0x5c8105",
      "logs": [
        {
          "address": "0x0b306bf915c4d645ff596e518faf3f9669b97016",
          "topics": [
            "0xe569346dc44a549a2dba8bdb890e3ad5f8b19481c95faf552e6c4684f90f369c",
            "0x0000000000000000000000000000000000000000000000000000000000001004"
          ],
          "data": "0x0000000000000000000000000000000000000000000000000000000000000080000000000000000000000000000000000000000000000015af1d78b58c40000000000000000000000000000000000000000000000000000010a741a462780000000000000000000000000000000000000000000000000000058cf1803c5d800000000000000000000000000000000000000000000000000000000000000000047377617000000000000000000000000000000000000000000000000000000000",
          "blockHash": "0x31202431fa76f7a173a2990f3791c22570cd3f80765bb0ff5a9c3b006ea3ccf1",
          "blockNumber": "0x15",
          "blockTimestamp": "0x69f528dd",
          "transactionHash": "0x2da45840d69c55dd74a53d54c751d84bc62a779a0c34849b9b9689952b0ba4bb",
          "transactionIndex": "0x13",
          "logIndex": "0xf",
          "removed": false
        }
      ],
      "logsBloom": "0x00000000000000001000000000000000100000000000000000400000000000000000000000000000000000000000000000000000000000000000000000000000000000000000000000000000000000000000000000000000000000000000000000000000000000000000000000000000000000020000000000000000000000000000000000000000000000000000000000000000008000000000000040000000000000000000000000000000000000000000000000000000000000000008000000000000000000000000000000000000000000000000000000000000000000000000000000000000000000000000010000000000000000000000000000000002",
      "type": "0x0",
      "transactionHash": "0x2da45840d69c55dd74a53d54c751d84bc62a779a0c34849b9b9689952b0ba4bb",
      "transactionIndex": "0x13",
      "blockHash": "0x31202431fa76f7a173a2990f3791c22570cd3f80765bb0ff5a9c3b006ea3ccf1",
      "blockNumber": "0x15",
      "gasUsed": "0x222e8",
      "effectiveGasPrice": "0x3fe8aa51",
      "blobGasPrice": "0x1",
      "from": "0xf39fd6e51aad88f6f4ce6ab8827279cfffb92266",
      "to": "0x0b306bf915c4d645ff596e518faf3f9669b97016",
      "contractAddress": null
    },
    {
      "status": "0x1",
      "cumulativeGasUsed": "0x5ea3ed",
      "logs": [
        {
          "address": "0x0b306bf915c4d645ff596e518faf3f9669b97016",
          "topics": [
            "0xe569346dc44a549a2dba8bdb890e3ad5f8b19481c95faf552e6c4684f90f369c",
            "0x0000000000000000000000000000000000000000000000000000000000001004"
          ],
          "data": "0x00000000000000000000000000000000000000000000000000000000000000800000000000000000000000000000000000000000000000056bc75e2d631000000000000000000000000000000000000000000000000000000429d069189e000000000000000000000000000000000000000000000000000001633c600f17600000000000000000000000000000000000000000000000000000000000000000046c656e6400000000000000000000000000000000000000000000000000000000",
          "blockHash": "0x31202431fa76f7a173a2990f3791c22570cd3f80765bb0ff5a9c3b006ea3ccf1",
          "blockNumber": "0x15",
          "blockTimestamp": "0x69f528dd",
          "transactionHash": "0x5552b0e9a5a479fdd1420f9a8bfd2b2c3c79b18e76d4f22e01566e0c0cc15b5a",
          "transactionIndex": "0x14",
          "logIndex": "0x10",
          "removed": false
        }
      ],
      "logsBloom": "0x00000000000000001000000000000000100000000000000000400000000000000000000000000000000000000000000000000000000000000000000000000000000000000000000000000000000000000000000000000000000000000000000000000000000000000000000000000000000000020000000000000000000000000000000000000000000000000000000000000000008000000000000040000000000000000000000000000000000000000000000000000000000000000008000000000000000000000000000000000000000000000000000000000000000000000000000000000000000000000000010000000000000000000000000000000002",
      "type": "0x0",
      "transactionHash": "0x5552b0e9a5a479fdd1420f9a8bfd2b2c3c79b18e76d4f22e01566e0c0cc15b5a",
      "transactionIndex": "0x14",
      "blockHash": "0x31202431fa76f7a173a2990f3791c22570cd3f80765bb0ff5a9c3b006ea3ccf1",
      "blockNumber": "0x15",
      "gasUsed": "0x222e8",
      "effectiveGasPrice": "0x3fe8aa51",
      "blobGasPrice": "0x1",
      "from": "0xf39fd6e51aad88f6f4ce6ab8827279cfffb92266",
      "to": "0x0b306bf915c4d645ff596e518faf3f9669b97016",
      "contractAddress": null
    },
    {
      "status": "0x1",
      "cumulativeGasUsed": "0x5f6c97",
      "logs": [],
      "logsBloom": "0x00000000000000000000000000000000000000000000000000000000000000000000000000000000000000000000000000000000000000000000000000000000000000000000000000000000000000000000000000000000000000000000000000000000000000000000000000000000000000000000000000000000000000000000000000000000000000000000000000000000000000000000000000000000000000000000000000000000000000000000000000000000000000000000000000000000000000000000000000000000000000000000000000000000000000000000000000000000000000000000000000000000000000000000000000000000",
      "type": "0x0",
      "transactionHash": "0x7a8c274f45e783a58896f17664be3e3abe822f0de94a221820f0be482b0fef8f",
      "transactionIndex": "0x15",
      "blockHash": "0x31202431fa76f7a173a2990f3791c22570cd3f80765bb0ff5a9c3b006ea3ccf1",
      "blockNumber": "0x15",
      "gasUsed": "0xc8aa",
      "effectiveGasPrice": "0x3fe8aa51",
      "blobGasPrice": "0x1",
      "from": "0xf39fd6e51aad88f6f4ce6ab8827279cfffb92266",
      "to": "0x0b306bf915c4d645ff596e518faf3f9669b97016",
      "contractAddress": null
    },
    {
      "status": "0x1",
      "cumulativeGasUsed": "0x629aa3",
      "logs": [
        {
          "address": "0x0b306bf915c4d645ff596e518faf3f9669b97016",
          "topics": [
            "0xe569346dc44a549a2dba8bdb890e3ad5f8b19481c95faf552e6c4684f90f369c",
            "0x0000000000000000000000000000000000000000000000000000000000001005"
          ],
          "data": "0x0000000000000000000000000000000000000000000000000000000000000080000000000000000000000000000000000000000000000001158e460913d0000000000000000000000000000000000000000000000000000000d529ae9e86000000000000000000000000000000000000000000000000000000470c133637e00000000000000000000000000000000000000000000000000000000000000000047377617000000000000000000000000000000000000000000000000000000000",
          "blockHash": "0x31202431fa76f7a173a2990f3791c22570cd3f80765bb0ff5a9c3b006ea3ccf1",
          "blockNumber": "0x15",
          "blockTimestamp": "0x69f528dd",
          "transactionHash": "0xea24a7cc2699abc69c266dc1217895faa591ee6f9d20c89f095e8f2841f35efc",
          "transactionIndex": "0x16",
          "logIndex": "0x11",
          "removed": false
        }
      ],
      "logsBloom": "0x00000000000000001000000000000000100000000000000000000000000000000000000000000000000000000000000000000000000000000000000000000000000000000000000000004000000000000800080000000000000000000000000000000000000000000000000000000000000000020000000000000000000000000000000000000000000000000000000000000000008000000000000000000000000000000000000000000000000000000000000000000000000000000000000000000000000000000000000000000000000000000000000000000000000000000000000000000000000000000000010000000000000000000000000000000002",
      "type": "0x0",
      "transactionHash": "0xea24a7cc2699abc69c266dc1217895faa591ee6f9d20c89f095e8f2841f35efc",
      "transactionIndex": "0x16",
      "blockHash": "0x31202431fa76f7a173a2990f3791c22570cd3f80765bb0ff5a9c3b006ea3ccf1",
      "blockNumber": "0x15",
      "gasUsed": "0x32e0c",
      "effectiveGasPrice": "0x3fe8aa51",
      "blobGasPrice": "0x1",
      "from": "0xf39fd6e51aad88f6f4ce6ab8827279cfffb92266",
      "to": "0x0b306bf915c4d645ff596e518faf3f9669b97016",
      "contractAddress": null
    },
    {
      "status": "0x1",
      "cumulativeGasUsed": "0x63f51b",
      "logs": [
        {
          "address": "0x0b306bf915c4d645ff596e518faf3f9669b97016",
          "topics": [
            "0xe569346dc44a549a2dba8bdb890e3ad5f8b19481c95faf552e6c4684f90f369c",
            "0x0000000000000000000000000000000000000000000000000000000000001005"
          ],
          "data": "0x0000000000000000000000000000000000000000000000000000000000000080000000000000000000000000000000000000000000000001158e460913d0000000000000000000000000000000000000000000000000000000d529ae9e86000000000000000000000000000000000000000000000000000000470c133637e00000000000000000000000000000000000000000000000000000000000000000047377617000000000000000000000000000000000000000000000000000000000",
          "blockHash": "0x31202431fa76f7a173a2990f3791c22570cd3f80765bb0ff5a9c3b006ea3ccf1",
          "blockNumber": "0x15",
          "blockTimestamp": "0x69f528dd",
          "transactionHash": "0x085c39e687bbb9ee36b969d29eb98bb3e618771895f9f8c98ae580e2731a2a57",
          "transactionIndex": "0x17",
          "logIndex": "0x12",
          "removed": false
        }
      ],
      "logsBloom": "0x00000000000000001000000000000000100000000000000000000000000000000000000000000000000000000000000000000000000000000000000000000000000000000000000000004000000000000800080000000000000000000000000000000000000000000000000000000000000000020000000000000000000000000000000000000000000000000000000000000000008000000000000000000000000000000000000000000000000000000000000000000000000000000000000000000000000000000000000000000000000000000000000000000000000000000000000000000000000000000000010000000000000000000000000000000002",
      "type": "0x0",
      "transactionHash": "0x085c39e687bbb9ee36b969d29eb98bb3e618771895f9f8c98ae580e2731a2a57",
      "transactionIndex": "0x17",
      "blockHash": "0x31202431fa76f7a173a2990f3791c22570cd3f80765bb0ff5a9c3b006ea3ccf1",
      "blockNumber": "0x15",
      "gasUsed": "0x15a78",
      "effectiveGasPrice": "0x3fe8aa51",
      "blobGasPrice": "0x1",
      "from": "0xf39fd6e51aad88f6f4ce6ab8827279cfffb92266",
      "to": "0x0b306bf915c4d645ff596e518faf3f9669b97016",
      "contractAddress": null
    },
    {
      "status": "0x1",
      "cumulativeGasUsed": "0x654f93",
      "logs": [
        {
          "address": "0x0b306bf915c4d645ff596e518faf3f9669b97016",
          "topics": [
            "0xe569346dc44a549a2dba8bdb890e3ad5f8b19481c95faf552e6c4684f90f369c",
            "0x0000000000000000000000000000000000000000000000000000000000001005"
          ],
          "data": "0x0000000000000000000000000000000000000000000000000000000000000080000000000000000000000000000000000000000000000001158e460913d0000000000000000000000000000000000000000000000000000000d529ae9e86000000000000000000000000000000000000000000000000000000470c133637e00000000000000000000000000000000000000000000000000000000000000000047377617000000000000000000000000000000000000000000000000000000000",
          "blockHash": "0x31202431fa76f7a173a2990f3791c22570cd3f80765bb0ff5a9c3b006ea3ccf1",
          "blockNumber": "0x15",
          "blockTimestamp": "0x69f528dd",
          "transactionHash": "0x97630209c8fdb5c5e7be2586e4725d5f92ffd39600b8d398e72af1cab8c4eb3c",
          "transactionIndex": "0x18",
          "logIndex": "0x13",
          "removed": false
        }
      ],
      "logsBloom": "0x00000000000000001000000000000000100000000000000000000000000000000000000000000000000000000000000000000000000000000000000000000000000000000000000000004000000000000800080000000000000000000000000000000000000000000000000000000000000000020000000000000000000000000000000000000000000000000000000000000000008000000000000000000000000000000000000000000000000000000000000000000000000000000000000000000000000000000000000000000000000000000000000000000000000000000000000000000000000000000000010000000000000000000000000000000002",
      "type": "0x0",
      "transactionHash": "0x97630209c8fdb5c5e7be2586e4725d5f92ffd39600b8d398e72af1cab8c4eb3c",
      "transactionIndex": "0x18",
      "blockHash": "0x31202431fa76f7a173a2990f3791c22570cd3f80765bb0ff5a9c3b006ea3ccf1",
      "blockNumber": "0x15",
      "gasUsed": "0x15a78",
      "effectiveGasPrice": "0x3fe8aa51",
      "blobGasPrice": "0x1",
      "from": "0xf39fd6e51aad88f6f4ce6ab8827279cfffb92266",
      "to": "0x0b306bf915c4d645ff596e518faf3f9669b97016",
      "contractAddress": null
    },
    {
      "status": "0x1",
      "cumulativeGasUsed": "0x66aa0b",
      "logs": [
        {
          "address": "0x0b306bf915c4d645ff596e518faf3f9669b97016",
          "topics": [
            "0xe569346dc44a549a2dba8bdb890e3ad5f8b19481c95faf552e6c4684f90f369c",
            "0x0000000000000000000000000000000000000000000000000000000000001005"
          ],
          "data": "0x0000000000000000000000000000000000000000000000000000000000000080000000000000000000000000000000000000000000000001158e460913d0000000000000000000000000000000000000000000000000000000d529ae9e86000000000000000000000000000000000000000000000000000000470c133637e00000000000000000000000000000000000000000000000000000000000000000047377617000000000000000000000000000000000000000000000000000000000",
          "blockHash": "0x31202431fa76f7a173a2990f3791c22570cd3f80765bb0ff5a9c3b006ea3ccf1",
          "blockNumber": "0x15",
          "blockTimestamp": "0x69f528dd",
          "transactionHash": "0x62e2855d61d54f2f4c074f2cd1f4ca2758f2a2c156730e18594ac2da3cc218b3",
          "transactionIndex": "0x19",
          "logIndex": "0x14",
          "removed": false
        }
      ],
      "logsBloom": "0x00000000000000001000000000000000100000000000000000000000000000000000000000000000000000000000000000000000000000000000000000000000000000000000000000004000000000000800080000000000000000000000000000000000000000000000000000000000000000020000000000000000000000000000000000000000000000000000000000000000008000000000000000000000000000000000000000000000000000000000000000000000000000000000000000000000000000000000000000000000000000000000000000000000000000000000000000000000000000000000010000000000000000000000000000000002",
      "type": "0x0",
      "transactionHash": "0x62e2855d61d54f2f4c074f2cd1f4ca2758f2a2c156730e18594ac2da3cc218b3",
      "transactionIndex": "0x19",
      "blockHash": "0x31202431fa76f7a173a2990f3791c22570cd3f80765bb0ff5a9c3b006ea3ccf1",
      "blockNumber": "0x15",
      "gasUsed": "0x15a78",
      "effectiveGasPrice": "0x3fe8aa51",
      "blobGasPrice": "0x1",
      "from": "0xf39fd6e51aad88f6f4ce6ab8827279cfffb92266",
      "to": "0x0b306bf915c4d645ff596e518faf3f9669b97016",
      "contractAddress": null
    },
    {
      "status": "0x1",
      "cumulativeGasUsed": "0x680483",
      "logs": [
        {
          "address": "0x0b306bf915c4d645ff596e518faf3f9669b97016",
          "topics": [
            "0xe569346dc44a549a2dba8bdb890e3ad5f8b19481c95faf552e6c4684f90f369c",
            "0x0000000000000000000000000000000000000000000000000000000000001005"
          ],
          "data": "0x0000000000000000000000000000000000000000000000000000000000000080000000000000000000000000000000000000000000000001158e460913d0000000000000000000000000000000000000000000000000000000d529ae9e86000000000000000000000000000000000000000000000000000000470c133637e00000000000000000000000000000000000000000000000000000000000000000047377617000000000000000000000000000000000000000000000000000000000",
          "blockHash": "0x31202431fa76f7a173a2990f3791c22570cd3f80765bb0ff5a9c3b006ea3ccf1",
          "blockNumber": "0x15",
          "blockTimestamp": "0x69f528dd",
          "transactionHash": "0xd19e4c0a14e55379d003f23c0be25f6fe6223dc033e4b78bf5029c55fb4512a3",
          "transactionIndex": "0x1a",
          "logIndex": "0x15",
          "removed": false
        }
      ],
      "logsBloom": "0x00000000000000001000000000000000100000000000000000000000000000000000000000000000000000000000000000000000000000000000000000000000000000000000000000004000000000000800080000000000000000000000000000000000000000000000000000000000000000020000000000000000000000000000000000000000000000000000000000000000008000000000000000000000000000000000000000000000000000000000000000000000000000000000000000000000000000000000000000000000000000000000000000000000000000000000000000000000000000000000010000000000000000000000000000000002",
      "type": "0x0",
      "transactionHash": "0xd19e4c0a14e55379d003f23c0be25f6fe6223dc033e4b78bf5029c55fb4512a3",
      "transactionIndex": "0x1a",
      "blockHash": "0x31202431fa76f7a173a2990f3791c22570cd3f80765bb0ff5a9c3b006ea3ccf1",
      "blockNumber": "0x15",
      "gasUsed": "0x15a78",
      "effectiveGasPrice": "0x3fe8aa51",
      "blobGasPrice": "0x1",
      "from": "0xf39fd6e51aad88f6f4ce6ab8827279cfffb92266",
      "to": "0x0b306bf915c4d645ff596e518faf3f9669b97016",
      "contractAddress": null
    },
    {
      "status": "0x1",
      "cumulativeGasUsed": "0x695efb",
      "logs": [
        {
          "address": "0x0b306bf915c4d645ff596e518faf3f9669b97016",
          "topics": [
            "0xe569346dc44a549a2dba8bdb890e3ad5f8b19481c95faf552e6c4684f90f369c",
            "0x0000000000000000000000000000000000000000000000000000000000001005"
          ],
          "data": "0x0000000000000000000000000000000000000000000000000000000000000080000000000000000000000000000000000000000000000001158e460913d0000000000000000000000000000000000000000000000000000000d529ae9e86000000000000000000000000000000000000000000000000000000470c133637e00000000000000000000000000000000000000000000000000000000000000000047377617000000000000000000000000000000000000000000000000000000000",
          "blockHash": "0x31202431fa76f7a173a2990f3791c22570cd3f80765bb0ff5a9c3b006ea3ccf1",
          "blockNumber": "0x15",
          "blockTimestamp": "0x69f528dd",
          "transactionHash": "0x2d99d99da9bc36d69923e9ed3242d265cd361fbe9e4ea7fec5695c01ad723032",
          "transactionIndex": "0x1b",
          "logIndex": "0x16",
          "removed": false
        }
      ],
      "logsBloom": "0x00000000000000001000000000000000100000000000000000000000000000000000000000000000000000000000000000000000000000000000000000000000000000000000000000004000000000000800080000000000000000000000000000000000000000000000000000000000000000020000000000000000000000000000000000000000000000000000000000000000008000000000000000000000000000000000000000000000000000000000000000000000000000000000000000000000000000000000000000000000000000000000000000000000000000000000000000000000000000000000010000000000000000000000000000000002",
      "type": "0x0",
      "transactionHash": "0x2d99d99da9bc36d69923e9ed3242d265cd361fbe9e4ea7fec5695c01ad723032",
      "transactionIndex": "0x1b",
      "blockHash": "0x31202431fa76f7a173a2990f3791c22570cd3f80765bb0ff5a9c3b006ea3ccf1",
      "blockNumber": "0x15",
      "gasUsed": "0x15a78",
      "effectiveGasPrice": "0x3fe8aa51",
      "blobGasPrice": "0x1",
      "from": "0xf39fd6e51aad88f6f4ce6ab8827279cfffb92266",
      "to": "0x0b306bf915c4d645ff596e518faf3f9669b97016",
      "contractAddress": null
    },
    {
      "status": "0x1",
      "cumulativeGasUsed": "0x6ab973",
      "logs": [
        {
          "address": "0x0b306bf915c4d645ff596e518faf3f9669b97016",
          "topics": [
            "0xe569346dc44a549a2dba8bdb890e3ad5f8b19481c95faf552e6c4684f90f369c",
            "0x0000000000000000000000000000000000000000000000000000000000001005"
          ],
          "data": "0x0000000000000000000000000000000000000000000000000000000000000080000000000000000000000000000000000000000000000001158e460913d0000000000000000000000000000000000000000000000000000000d529ae9e86000000000000000000000000000000000000000000000000000000470c133637e00000000000000000000000000000000000000000000000000000000000000000047377617000000000000000000000000000000000000000000000000000000000",
          "blockHash": "0x31202431fa76f7a173a2990f3791c22570cd3f80765bb0ff5a9c3b006ea3ccf1",
          "blockNumber": "0x15",
          "blockTimestamp": "0x69f528dd",
          "transactionHash": "0xcc6b3ecbc1f7ee63cdc5915ed5826f8ad6dbff2de15d16a760efd47124b2c18d",
          "transactionIndex": "0x1c",
          "logIndex": "0x17",
          "removed": false
        }
      ],
      "logsBloom": "0x00000000000000001000000000000000100000000000000000000000000000000000000000000000000000000000000000000000000000000000000000000000000000000000000000004000000000000800080000000000000000000000000000000000000000000000000000000000000000020000000000000000000000000000000000000000000000000000000000000000008000000000000000000000000000000000000000000000000000000000000000000000000000000000000000000000000000000000000000000000000000000000000000000000000000000000000000000000000000000000010000000000000000000000000000000002",
      "type": "0x0",
      "transactionHash": "0xcc6b3ecbc1f7ee63cdc5915ed5826f8ad6dbff2de15d16a760efd47124b2c18d",
      "transactionIndex": "0x1c",
      "blockHash": "0x31202431fa76f7a173a2990f3791c22570cd3f80765bb0ff5a9c3b006ea3ccf1",
      "blockNumber": "0x15",
      "gasUsed": "0x15a78",
      "effectiveGasPrice": "0x3fe8aa51",
      "blobGasPrice": "0x1",
      "from": "0xf39fd6e51aad88f6f4ce6ab8827279cfffb92266",
      "to": "0x0b306bf915c4d645ff596e518faf3f9669b97016",
      "contractAddress": null
    },
    {
      "status": "0x1",
      "cumulativeGasUsed": "0x6c13eb",
      "logs": [
        {
          "address": "0x0b306bf915c4d645ff596e518faf3f9669b97016",
          "topics": [
            "0xe569346dc44a549a2dba8bdb890e3ad5f8b19481c95faf552e6c4684f90f369c",
            "0x0000000000000000000000000000000000000000000000000000000000001005"
          ],
          "data": "0x0000000000000000000000000000000000000000000000000000000000000080000000000000000000000000000000000000000000000001158e460913d0000000000000000000000000000000000000000000000000000000d529ae9e86000000000000000000000000000000000000000000000000000000470c133637e00000000000000000000000000000000000000000000000000000000000000000047377617000000000000000000000000000000000000000000000000000000000",
          "blockHash": "0x31202431fa76f7a173a2990f3791c22570cd3f80765bb0ff5a9c3b006ea3ccf1",
          "blockNumber": "0x15",
          "blockTimestamp": "0x69f528dd",
          "transactionHash": "0x4eb1f305d85971090c0b3b30c00986c8ffac7d9ee3532a16117f7a30f98f7917",
          "transactionIndex": "0x1d",
          "logIndex": "0x18",
          "removed": false
        }
      ],
      "logsBloom": "0x00000000000000001000000000000000100000000000000000000000000000000000000000000000000000000000000000000000000000000000000000000000000000000000000000004000000000000800080000000000000000000000000000000000000000000000000000000000000000020000000000000000000000000000000000000000000000000000000000000000008000000000000000000000000000000000000000000000000000000000000000000000000000000000000000000000000000000000000000000000000000000000000000000000000000000000000000000000000000000000010000000000000000000000000000000002",
      "type": "0x0",
      "transactionHash": "0x4eb1f305d85971090c0b3b30c00986c8ffac7d9ee3532a16117f7a30f98f7917",
      "transactionIndex": "0x1d",
      "blockHash": "0x31202431fa76f7a173a2990f3791c22570cd3f80765bb0ff5a9c3b006ea3ccf1",
      "blockNumber": "0x15",
      "gasUsed": "0x15a78",
      "effectiveGasPrice": "0x3fe8aa51",
      "blobGasPrice": "0x1",
      "from": "0xf39fd6e51aad88f6f4ce6ab8827279cfffb92266",
      "to": "0x0b306bf915c4d645ff596e518faf3f9669b97016",
      "contractAddress": null
    },
    {
      "status": "0x1",
      "cumulativeGasUsed": "0x6d6e63",
      "logs": [
        {
          "address": "0x0b306bf915c4d645ff596e518faf3f9669b97016",
          "topics": [
            "0xe569346dc44a549a2dba8bdb890e3ad5f8b19481c95faf552e6c4684f90f369c",
            "0x0000000000000000000000000000000000000000000000000000000000001005"
          ],
          "data": "0x0000000000000000000000000000000000000000000000000000000000000080000000000000000000000000000000000000000000000001158e460913d0000000000000000000000000000000000000000000000000000000d529ae9e86000000000000000000000000000000000000000000000000000000470c133637e00000000000000000000000000000000000000000000000000000000000000000047377617000000000000000000000000000000000000000000000000000000000",
          "blockHash": "0x31202431fa76f7a173a2990f3791c22570cd3f80765bb0ff5a9c3b006ea3ccf1",
          "blockNumber": "0x15",
          "blockTimestamp": "0x69f528dd",
          "transactionHash": "0x14057965dc14521692fadc9e40e2fe09844b9417af64bc632df460be8d184e54",
          "transactionIndex": "0x1e",
          "logIndex": "0x19",
          "removed": false
        }
      ],
      "logsBloom": "0x00000000000000001000000000000000100000000000000000000000000000000000000000000000000000000000000000000000000000000000000000000000000000000000000000004000000000000800080000000000000000000000000000000000000000000000000000000000000000020000000000000000000000000000000000000000000000000000000000000000008000000000000000000000000000000000000000000000000000000000000000000000000000000000000000000000000000000000000000000000000000000000000000000000000000000000000000000000000000000000010000000000000000000000000000000002",
      "type": "0x0",
      "transactionHash": "0x14057965dc14521692fadc9e40e2fe09844b9417af64bc632df460be8d184e54",
      "transactionIndex": "0x1e",
      "blockHash": "0x31202431fa76f7a173a2990f3791c22570cd3f80765bb0ff5a9c3b006ea3ccf1",
      "blockNumber": "0x15",
      "gasUsed": "0x15a78",
      "effectiveGasPrice": "0x3fe8aa51",
      "blobGasPrice": "0x1",
      "from": "0xf39fd6e51aad88f6f4ce6ab8827279cfffb92266",
      "to": "0x0b306bf915c4d645ff596e518faf3f9669b97016",
      "contractAddress": null
    },
    {
      "status": "0x1",
      "cumulativeGasUsed": "0x6ec8db",
      "logs": [
        {
          "address": "0x0b306bf915c4d645ff596e518faf3f9669b97016",
          "topics": [
            "0xe569346dc44a549a2dba8bdb890e3ad5f8b19481c95faf552e6c4684f90f369c",
            "0x0000000000000000000000000000000000000000000000000000000000001005"
          ],
          "data": "0x0000000000000000000000000000000000000000000000000000000000000080000000000000000000000000000000000000000000000001158e460913d0000000000000000000000000000000000000000000000000000000d529ae9e86000000000000000000000000000000000000000000000000000000470c133637e00000000000000000000000000000000000000000000000000000000000000000047377617000000000000000000000000000000000000000000000000000000000",
          "blockHash": "0x31202431fa76f7a173a2990f3791c22570cd3f80765bb0ff5a9c3b006ea3ccf1",
          "blockNumber": "0x15",
          "blockTimestamp": "0x69f528dd",
          "transactionHash": "0xa44a7699cfab4ba78f4af25c42e82a65e633080a77b15e10463e038e084bfc4b",
          "transactionIndex": "0x1f",
          "logIndex": "0x1a",
          "removed": false
        }
      ],
      "logsBloom": "0x00000000000000001000000000000000100000000000000000000000000000000000000000000000000000000000000000000000000000000000000000000000000000000000000000004000000000000800080000000000000000000000000000000000000000000000000000000000000000020000000000000000000000000000000000000000000000000000000000000000008000000000000000000000000000000000000000000000000000000000000000000000000000000000000000000000000000000000000000000000000000000000000000000000000000000000000000000000000000000000010000000000000000000000000000000002",
      "type": "0x0",
      "transactionHash": "0xa44a7699cfab4ba78f4af25c42e82a65e633080a77b15e10463e038e084bfc4b",
      "transactionIndex": "0x1f",
      "blockHash": "0x31202431fa76f7a173a2990f3791c22570cd3f80765bb0ff5a9c3b006ea3ccf1",
      "blockNumber": "0x15",
      "gasUsed": "0x15a78",
      "effectiveGasPrice": "0x3fe8aa51",
      "blobGasPrice": "0x1",
      "from": "0xf39fd6e51aad88f6f4ce6ab8827279cfffb92266",
      "to": "0x0b306bf915c4d645ff596e518faf3f9669b97016",
      "contractAddress": null
    },
    {
      "status": "0x1",
      "cumulativeGasUsed": "0x70ebe7",
      "logs": [
        {
          "address": "0x0b306bf915c4d645ff596e518faf3f9669b97016",
          "topics": [
            "0xe569346dc44a549a2dba8bdb890e3ad5f8b19481c95faf552e6c4684f90f369c",
            "0x0000000000000000000000000000000000000000000000000000000000001005"
          ],
          "data": "0x0000000000000000000000000000000000000000000000000000000000000080000000000000000000000000000000000000000000000002b5e3af16b18800000000000000000000000000000000000000000000000000000214e8348c4f000000000000000000000000000000000000000000000000000000b19e30078bb00000000000000000000000000000000000000000000000000000000000000000077072656469637400000000000000000000000000000000000000000000000000",
          "blockHash": "0x31202431fa76f7a173a2990f3791c22570cd3f80765bb0ff5a9c3b006ea3ccf1",
          "blockNumber": "0x15",
          "blockTimestamp": "0x69f528dd",
          "transactionHash": "0x42c1a36e9ceed4b36b6757b4fde6f64e5648057ff7330c419fc18d0a401cbce7",
          "transactionIndex": "0x20",
          "logIndex": "0x1b",
          "removed": false
        }
      ],
      "logsBloom": "0x00000000000000001000000000000000100000000000000000000000000000000000000000000000000000000000000000000000000000000000000000000000000000000000000000004000000000000800080000000000000000000000000000000000000000000000000000000000000000020000000000000000000000000000000000000000000000000000000000000000008000000000000000000000000000000000000000000000000000000000000000000000000000000000000000000000000000000000000000000000000000000000000000000000000000000000000000000000000000000000010000000000000000000000000000000002",
      "type": "0x0",
      "transactionHash": "0x42c1a36e9ceed4b36b6757b4fde6f64e5648057ff7330c419fc18d0a401cbce7",
      "transactionIndex": "0x20",
      "blockHash": "0x31202431fa76f7a173a2990f3791c22570cd3f80765bb0ff5a9c3b006ea3ccf1",
      "blockNumber": "0x15",
      "gasUsed": "0x2230c",
      "effectiveGasPrice": "0x3fe8aa51",
      "blobGasPrice": "0x1",
      "from": "0xf39fd6e51aad88f6f4ce6ab8827279cfffb92266",
      "to": "0x0b306bf915c4d645ff596e518faf3f9669b97016",
      "contractAddress": null
    },
    {
      "status": "0x1",
      "cumulativeGasUsed": "0x71bc6d",
      "logs": [],
      "logsBloom": "0x00000000000000000000000000000000000000000000000000000000000000000000000000000000000000000000000000000000000000000000000000000000000000000000000000000000000000000000000000000000000000000000000000000000000000000000000000000000000000000000000000000000000000000000000000000000000000000000000000000000000000000000000000000000000000000000000000000000000000000000000000000000000000000000000000000000000000000000000000000000000000000000000000000000000000000000000000000000000000000000000000000000000000000000000000000000",
      "type": "0x0",
      "transactionHash": "0x29ac89c538bb085cae5d5cb710318878b4b864fd192a19473a37aeafe5f0e8f6",
      "transactionIndex": "0x21",
      "blockHash": "0x31202431fa76f7a173a2990f3791c22570cd3f80765bb0ff5a9c3b006ea3ccf1",
      "blockNumber": "0x15",
      "gasUsed": "0xd086",
      "effectiveGasPrice": "0x3fe8aa51",
      "blobGasPrice": "0x1",
      "from": "0xf39fd6e51aad88f6f4ce6ab8827279cfffb92266",
      "to": "0x0b306bf915c4d645ff596e518faf3f9669b97016",
      "contractAddress": null
    }
  ],
  "libraries": [],
  "pending": [],
  "returns": {},
  "timestamp": 1777674461668,
  "chain": 42069,
  "commit": "34edb5e"
}