{
  "transactions": [
    {
      "hash": "0x9ce19a624716c95da008f3c0a5d2446b28cc12173fbda18a3f18ef7889a40bb4",
      "transactionType": "CREATE",
      "contractName": "AgentRegistry",
      "contractAddress": "0xf8e31cb472bc70500f08cd84917e5a1912ec8397",
      "function": null,
      "arguments": null,
      "transaction": {
        "from": "0xf39fd6e51aad88f6f4ce6ab8827279cfffb92266",
        "gas": "0x2bc6ac",
        "value": "0x0",
        "input": "0x60808060405234603257610d056001556127106002555f80546001600160a01b031916331790556125b390816100378239f35b5f80fdfe6080806040526004361015610012575f80fd5b5f3560e01c9081630a34d63714611fee57508063152052b014611d9b5780632bfa4e0814611d015780632de5aaf714611ce3578063388ae35614611c2b5780633a41429a14611bee578063513856c814611bac5780635de5c21214611b3b5780635e02cb7d14611ac35780635f81a57c14611aa65780636652189314611a8957806369f1324d146115a7578063704b6c02146115595780638bcdcbf3146114db57806391cab63e146114be5780639d5a394114611176578063a2f6805c14611140578063a4efe69e146110c5578063ae14e6271461103f578063af537a2f14611022578063b0a0a92714610f6e578063b1e29ea414610c0d578063b896f22214610b5d578063bbe1562714610a75578063c3c5a54714610a38578063c505371214610a1b578063dd8755f214610911578063e031ed2b146108f6578063e275c997146108d9578063e2f11e611461019c5763f851a44014610171575f80fd5b34610198575f366003190112610198575f546040516001600160a01b039091168152602090f35b5f80fd5b34610198576080366003190112610198576101b5612008565b6024356001600160401b038111610198576101d49036906004016120f9565b90335f52600860205260ff60405f20541680156108c6575b6101f590612524565b6001600160a01b0383165f9081526004602052604090205460ff1615610423575b6001546064358082029391811591850414171561040f576127107fe569346dc44a549a2dba8bdb890e3ad5f8b19481c95faf552e6c4684f90f369c93049360018060a01b0381165f52600660205260405f2061027281546123a3565b905560018060a01b0381165f526006602052600160405f20016102986044358254612570565b905560018060a01b0381165f526006602052600260405f20016102be6064358254612570565b905560018060a01b0381165f526006602052600360405f20016102e2868254612570565b90556001600160a01b0381165f908152600660208181526040808420429301929092556007815291819020905191908290858783378582019081520301902061032b81546123a3565b905560018060a01b0381165f526007602052600160405f20602060405180928688833786820190815203019020016103666044358254612570565b905560018060a01b0381165f526007602052600260405f20602060405180928688833786820190815203019020016103a16064358254612570565b90556103ae600b546123a3565b600b556103bf604435600c54612570565b600c556103ce85600d54612570565b600d556103e860405193849360808552608085019161240f565b6044356020840152606435604084015260608301959095526001600160a01b0316930390a2005b634e487b7160e01b5f52601160045260245ffd5b61043260035460025411612312565b6001600160a01b0383165f908152600460205260409020805460ff1916600117905561045d8361235e565b610468600a546123a3565b600a5560405161047781612042565b604080516104858282612093565b600f81526e105b9bdb9e5b5bdd5cc81059d95b9d608a1b602082015282526020918151906104b38483612093565b5f825283810191825282516104c88582612093565b5f8082528285019182526001600160a01b03891660608401818152426080860152600160a0860152908252600587529085902083518051919592939291906001600160401b0382116107e15761052882610522895461220d565b896123b1565b8890601f83116001146108635761055692915f91836107f5575b50508160011b915f199060031b1c19161790565b85555b51805160018601916001600160401b0382116107e1576105838261057d855461220d565b856123b1565b8890601f8311600114610800576105b092915f91836107f55750508160011b915f199060031b1c19161790565b90555b518051906001600160401b0382116107e1576105df826105d6600288015461220d565b600288016123b1565b8690601f831160011461075857936e105b9bdb9e5b5bdd5cc81059d95b9d608a1b96959361062b8460059560a09561067c995f9261074d5750508160011b915f199060031b1c19161790565b60028601555b600180841b039051166003850190600180851b03166bffffffffffffffffffffffff841b825416179055608081015160048501550151151591019060ff801983541691151516179055565b80516106878161205d565b5f81526006876107008684015f81528585015f8152606086015f815260808701915f835260a08801936001855260c089019642885260018060a01b03165f52878c52895f2098518955516001890155516002880155516003870155516004860155511515600585019060ff801983541691151516179055565b519101558051838152600f938101939093528201526001600160a01b0384169081907f6cf3badcf1a10c54709f13ad2475d8b3a44ebcb1b93b38e7257f98505323504090606090a3610216565b015190508f80610542565b90600286015f52875f20915f5b89601f19861682106107cb5750509360018460a09461067c98946e105b9bdb9e5b5bdd5cc81059d95b9d608a1b9b9a98600598601f198116106107b3575b505050811b016002860155610631565b01515f1960f88460031b161c191690558e80806107a3565b6001849582939585015181550194019201610765565b634e487b7160e01b5f52604160045260245ffd5b015190508d80610542565b90601f19831691845f528a5f20925f5b8c82821061084d575050908460019594939210610835575b505050811b0190556105b3565b01515f1960f88460031b161c191690558c8080610828565b6001859682939686015181550195019301610810565b90601f19831691885f528a5f20925f5b8c8282106108b0575050908460019594939210610898575b505050811b018555610559565b01515f1960f88460031b161c191690558c808061088b565b6001859682939686015181550195019301610873565b505f546001600160a01b031633146101ec565b34610198575f366003190112610198576020600b54604051908152f35b34610198575f36600319011261019857602060405160c88152f35b346101985760203660031901126101985761092a612008565b61093e60018060a01b035f541633146122c6565b6001600160a01b03165f8181526008602052604090205460ff166109d657805f52600860205260405f20600160ff19825416179055600954600160401b8110156107e1578060016109949201600955600961213e565b81546001600160a01b0360039290921b91821b19169083901b1790557f52824c4a4d431c73d6d24a91f775d722860111c6d30da30b0b21e062fb4c73655f80a2005b60405162461bcd60e51b815260206004820152601f60248201527f4167656e7452656769737472793a20616c7265616479207265706f72746572006044820152606490fd5b34610198575f366003190112610198576020600a54604051908152f35b34610198576020366003190112610198576001600160a01b03610a59612008565b165f526004602052602060ff60405f2054166040519015158152f35b34610198576020366003190112610198576001600160a01b03610a96612008565b165f526005602052610b2b60405f2060405190610abe82610ab78184612245565b0383612093565b604051610ad981610ad28160018601612245565b0382612093565b60405191610af583610aee8160028501612245565b0384612093565b610b4760018060a01b0360038301541693610b3960ff60056004860154950154169460405198899860c08a5260c08a019061201e565b9088820360208a015261201e565b90868203604088015261201e565b9260608501526080840152151560a08301520390f35b3461019857606036600319011261019857610b76612008565b604435801515810361019857610bf891335f52600860205260ff60405f2054168015610bfa575b610ba690612524565b6001600160a01b03165f81815260046020526040902054610bc99060ff1661242f565b5f9081526006602052604090206024356004820155600501805491151560ff1660ff1992909216919091179055565b005b505f546001600160a01b03163314610b9d565b346101985760203660031901126101985760043560c88111610f66575b600354808211610f5e575b610c3e826124c7565b90610c4c6040519283612093565b828252610c58836124c7565b602083019390601f1901368537610c6e816124c7565b610c7b6040519182612093565b818152601f19610c8a836124c7565b015f5b818110610f4d575050610c9f826124de565b610ca8836124de565b92610cb2816124de565b94610cbc816124c7565b610cc96040519182612093565b818152601f19610cd8836124c7565b013660208301375f5b838110610dc0575b505050506040519460a086019060a087525180915260c0860196905f5b818110610da1575050508486036020860152815180875260208701906020808260051b8a01019401915f905b828210610d75578880610d718a610d638b610d558c8c87820360408901526121da565b9085820360608701526121da565b9083820360808501526121da565b0390f35b90919294602080610d936001938d601f19908203018652895161201e565b970192019201909291610d32565b82516001600160a01b0316895260209889019890920191600101610d06565b5f908180805b868110610e9157505015610e8b57610deb826001610de5819587612510565b52612126565b838060a01b0391549060031b1c1680610e04838d612510565b52805f526005602052610ad2610e2360405f2060405192838092612245565b610e2d838a612510565b52610e388289612510565b50805f526006602052600360405f200154610e538389612510565b52805f5260066020528260405f200154610e6d838b612510565b525f52600660205260405f2054610e84828b612510565b5201610ce1565b50610ce9565b610e9b8187612510565b511580610f1d575b80610eec575b610eb6575b600101610dc6565b9350505081610ec481612126565b9054600391821b1c6001600160a01b03165f9081526006602052604090200154600191610eae565b50610ef681612126565b9054600391821b1c6001600160a01b03165f90815260066020526040902001548210610ea9565b50610f2781612126565b60018060a01b0391549060031b1c165f52600560205260ff600560405f20015416610ea3565b806060602080938601015201610c8d565b905080610c35565b5060c8610c2a565b34610198576020366003190112610198576001600160a01b03610f8f612008565b16805f526004602052610fa860ff60405f20541661242f565b805f52600560205260018060a01b03600360405f200154163314801561100f575b610fd29061247b565b805f526005602052600560405f200160ff1981541690557fa58c733780f5c1527d6106ff1e731cbf2e9ffc0eb11ad399ca33ea55f057ddf45f80a2005b505f546001600160a01b03163314610fc9565b34610198575f366003190112610198576020600d54604051908152f35b346101985760203660031901126101985760043561106760018060a01b035f541633146122c6565b600354811061107557600255005b60405162461bcd60e51b815260206004820152602260248201527f4167656e7452656769737472793a2062656c6f772063757272656e7420636f756044820152611b9d60f21b6064820152608490fd5b34610198576020366003190112610198576004356110ed60018060a01b035f541633146122c6565b61271081116110fb57600155005b60405162461bcd60e51b815260206004820152601b60248201527f4167656e7452656769737472793a2062707320746f6f206869676800000000006044820152606490fd5b34610198575f366003190112610198576080600a54600b54600c54600d5491604051938452602084015260408301526060820152f35b346101985761118436612153565b9394909560018060a01b031694855f5260046020526111a960ff60405f20541661242f565b855f52600560205260018060a01b03600360405f20015416331480156114ab575b6111d39061247b565b806113dc575b50508061130a575b505080611233575b50805f5260056020527fb915c10d80f3a5a64f9cf6b674511d7c794c3419680d92ddf18339ae793ffb5761122e60405f20604051918291602083526020830190612245565b0390a2005b815f526005602052600260405f2001906001600160401b0381116107e1576112658161125f845461220d565b846123b1565b5f601f82116001146112a85781906112939394955f9261129d5750508160011b915f199060031b1c19161790565b90555b80826111e9565b013590508580610542565b601f19821694835f5260205f20915f5b8781106112f25750836001959697106112d9575b505050811b019055611296565b01355f19600384901b60f8161c191690558480806112cc565b909260206001819286860135815501940191016112b8565b835f526005602052600160405f2001916001600160401b0382116107e1576113368261057d855461220d565b5f90601f83116001146113785761136392915f918361136d5750508160011b915f199060031b1c19161790565b90555b83806111e1565b013590508780610542565b601f19831691845f5260205f20925f5b8181106113c457509084600195949392106113ab575b505050811b019055611366565b01355f19600384901b60f8161c1916905586808061139e565b91936020600181928787013581550195019201611388565b855f52600560205260405f20916001600160401b0382116107e1576114058261057d855461220d565b5f90601f83116001146114475761143292915f918361143c5750508160011b915f199060031b1c19161790565b90555b85806111d9565b013590508980610542565b601f19831691845f5260205f20925f5b818110611493575090846001959493921061147a575b505050811b019055611435565b01355f19600384901b60f8161c1916905588808061146d565b91936020600181928787013581550195019201611457565b505f546001600160a01b031633146111ca565b34610198575f366003190112610198576020600354604051908152f35b34610198576020366003190112610198576001600160a01b036114fc612008565b165f52600660205260e060405f2080549060018101549060028101546003820154600483015491600660ff600586015416940154946040519687526020870152604086015260608501526080840152151560a083015260c0820152f35b3461019857602036600319011261019857611572612008565b61158660018060a01b035f541633146122c6565b5f80546001600160a01b0319166001600160a01b0392909216919091179055005b34610198576115b536612153565b91929060018060a0989796981b03861695865f52600460205260ff60405f205416611a3a5787156119f55761165492611616611645926115fa60035460025411612312565b895f52600460205260405f20600160ff1982541617905561235e565b611621600a546123a3565b600a556040519561163187612042565b61163c368b8a6120b4565b875236916120b4565b926020850193845236916120b4565b6040830190815260608301338152608084019142835260a085019360018552875f52600560205260405f2095518051906001600160401b0382116107e1576116a6826116a08a5461220d565b8a6123b1565b602090601f8311600114611992576116d492915f91836119245750508160011b915f199060031b1c19161790565b86555b51805160018701916001600160401b0382116107e1576116fb8261057d855461220d565b602090601f831160011461192f5761172992915f91836119245750508160011b915f199060031b1c19161790565b90555b51805160028601916001600160401b0382116107e1576117508261057d855461220d565b602090601f831160011461189257936005936117ae847f6cf3badcf1a10c54709f13ad2475d8b3a44ebcb1b93b38e7257f9850532350409b99956117f2999561188d9c995f9261074d5750508160011b915f199060031b1c19161790565b90555b516003850180546001600160a01b039092166001600160a01b0319909216919091179055516004840155519101805460ff191691151560ff16919091179055565b6040516117fe8161205d565b5f81526006602082015f8152611873604084015f8152606085015f815260808601905f825260a08701926001845260c08801954287528c5f528760205260405f2098518955516001890155516002880155516003870155516004860155511515600585019060ff801983541691151516179055565b51910155604051918291602083523396602084019161240f565b0390a3005b90601f19831691845f52815f20925f5b81811061190c5750846117f2989461188d9b9894600598947f6cf3badcf1a10c54709f13ad2475d8b3a44ebcb1b93b38e7257f9850532350409e9c98600195106118f4575b505050811b0190556117b1565b01515f1960f88460031b161c191690558e80806118e7565b929360206001819287860151815501950193016118a2565b015190508c80610542565b90601f19831691845f52815f20925f5b81811061197a5750908460019594939210611962575b505050811b01905561172c565b01515f1960f88460031b161c191690558b8080611955565b9293602060018192878601518155019501930161193f565b90601f19831691895f52815f20925f5b8181106119dd57509084600195949392106119c5575b505050811b0186556116d7565b01515f1960f88460031b161c191690558b80806119b8565b929360206001819287860151815501950193016119a2565b60405162461bcd60e51b815260206004820152601c60248201527f4167656e7452656769737472793a206e616d65207265717569726564000000006044820152606490fd5b60405162461bcd60e51b815260206004820152602160248201527f4167656e7452656769737472793a20616c7265616479207265676973746572656044820152601960fa1b6064820152608490fd5b34610198575f366003190112610198576020600154604051908152f35b34610198575f366003190112610198576020600c54604051908152f35b346101985760203660031901126101985760043560095481101561019857600954811015611b275760095f527f6e1540171b6c0c960b71a7020d9f60077f6af931a8bbf590da0223dacf75c7af01546040516001600160a01b039091168152602090f35b634e487b7160e01b5f52603260045260245ffd5b3461019857602036600319011261019857611b54612008565b611b6860018060a01b035f541633146122c6565b6001600160a01b03165f818152600860205260408120805460ff191690557ff125aa5e6cb22c17ea0de4e1f86d2ff289ddd6a37e791b9ad29d0091cba06ac89080a2005b346101985760203660031901126101985760043560035481101561019857611bd5602091612126565b905460405160039290921b1c6001600160a01b03168152f35b34610198576020366003190112610198576001600160a01b03611c0f612008565b165f526008602052602060ff60405f2054166040519015158152f35b3461019857604036600319011261019857611c44612008565b602435906001600160401b038211610198576020611c6860609336906004016120f9565b925f60408051611c7781612078565b8281528286820152015260018060a01b03165f526007825260405f20836040519485938437820190815203019020604051611cb181612078565b815491828252604060026001830154926020850193845201549201918252604051928352516020830152516040820152f35b34610198576020366003190112610198576020611bd5600435612126565b3461019857604036600319011261019857611d1a612008565b602435906001600160401b03821161019857366023830112156101985760208091611d5160609436906024816004013591016120b4565b9060018060a01b03165f526007825260405f20604051938285935191829101845e820190815203019020805490600260018201549101549060405192835260208301526040820152f35b3461019857602036600319011261019857611db4612008565b604051611dc081612042565b6060815260208101606090526040810160609052606081015f9052608081015f905260a0015f9052604051611df48161205d565b5f8152602081015f9052604081015f9052606081015f9052608081015f905260a081015f905260c0015f9052600160a01b6001900316805f52600560205260405f20905f52600660205260405f209060405190611e5082612042565b60405180611e5e8184612245565b03611e699082612093565b82526040519283611e7d8160018501612245565b03611e889085612093565b602083019384526040519081611ea18160028601612245565b03611eac9083612093565b60408401918252600160a01b600190036003840154169260608501938452600481015490608086019182526005015460ff1660a086019015158152604051611ef38161205d565b83548152600184015460208201908152600285015491604081019283526003860154936060820194855260048701549560808301968752600588015460ff169760a084019815158952600601549860c08401998a526040519c8d9c6101008e52518d610100810160c090526101c001611f6b9161201e565b90518d820360ff19016101208f0152611f84919061201e565b90518c820360ff19016101408e0152611f9d919061201e565b99516001600160a01b03166101608c0152516101808b01525115156101a08a01525160208901525160408801525160608701525160808601525160a085015251151560c08401525160e08301520390f35b34610198575f366003190112610198576020906002548152f35b600435906001600160a01b038216820361019857565b805180835260209291819084018484015e5f828201840152601f01601f1916010190565b60c081019081106001600160401b038211176107e157604052565b60e081019081106001600160401b038211176107e157604052565b606081019081106001600160401b038211176107e157604052565b90601f801991011681019081106001600160401b038211176107e157604052565b9291926001600160401b0382116107e157604051916120dd601f8201601f191660200184612093565b829481845281830111610198578281602093845f960137010152565b9181601f84011215610198578235916001600160401b038311610198576020838186019501011161019857565b600354811015611b275760035f5260205f2001905f90565b8054821015611b27575f5260205f2001905f90565b906080600319830112610198576004356001600160a01b038116810361019857916024356001600160401b0381116101985781612192916004016120f9565b929092916044356001600160401b03811161019857816121b4916004016120f9565b92909291606435906001600160401b038211610198576121d6916004016120f9565b9091565b90602080835192838152019201905f5b8181106121f75750505090565b82518452602093840193909201916001016121ea565b90600182811c9216801561223b575b602083101461222757565b634e487b7160e01b5f52602260045260245ffd5b91607f169161221c565b5f92918154916122548361220d565b80835292600181169081156122a9575060011461227057505050565b5f9081526020812093945091925b83831061228f575060209250010190565b60018160209294939454838587010152019101919061227e565b915050602093945060ff929192191683830152151560051b010190565b156122cd57565b60405162461bcd60e51b815260206004820152601860248201527f4167656e7452656769737472793a206e6f742061646d696e00000000000000006044820152606490fd5b1561231957565b60405162461bcd60e51b815260206004820152601f60248201527f4167656e7452656769737472793a2063617061636974792072656163686564006044820152606490fd5b600354600160401b8110156107e15780600161237f9201600355600361213e565b81546001600160a01b0393841660039290921b91821b9390911b1916919091179055565b5f19811461040f5760010190565b919091601f83116123c2575b505050565b8183116123ce57505050565b5f5260205f206020601f830160051c9210612407575b81601f9101920160051c03905f5b828110156123bd575f828201556001016123f2565b5f91506123e4565b908060209392818452848401375f828201840152601f01601f1916010190565b1561243657565b60405162461bcd60e51b815260206004820152601d60248201527f4167656e7452656769737472793a206e6f7420726567697374657265640000006044820152606490fd5b1561248257565b60405162461bcd60e51b815260206004820152601860248201527f4167656e7452656769737472793a206e6f74206f776e657200000000000000006044820152606490fd5b6001600160401b0381116107e15760051b60200190565b906124e8826124c7565b6124f56040519182612093565b8281528092612506601f19916124c7565b0190602036910137565b8051821015611b275760209160051b010190565b1561252b57565b60405162461bcd60e51b815260206004820152601b60248201527f4167656e7452656769737472793a206e6f74207265706f7274657200000000006044820152606490fd5b9190820180921161040f5756fea26469706673582212206309581ef0bc2a67de1a0e6d798729f5976db6882debc45e032455138c64882d64736f6c63430008210033",
        "nonce": "0x6a",
        "chainId": "0xa455"
      },
      "additionalContracts": [],
      "isFixedGasLimit": false
    },
    {
      "hash": "0x8f9e3819f97b3ac531302e72923164159fecb6b7dc977cd15ccad3359bf7e12a",
      "transactionType": "CALL",
      "contractName": "AgentRegistry",
      "contractAddress": "0xf8e31cb472bc70500f08cd84917e5a1912ec8397",
      "function": "registerAgent(address,string,string,string)",
      "arguments": [
        "0x0000000000000000000000000000000000001001",
        "AlphaTrader",
        "https://api.dicebear.com/7.x/bottts/svg?seed=alpha",
        "Momentum trading on perps with trend-following signals"
      ],
      "transaction": {
        "from": "0xf39fd6e51aad88f6f4ce6ab8827279cfffb92266",
        "to": "0xf8e31cb472bc70500f08cd84917e5a1912ec8397",
        "gas": "0x8665e",
        "value": "0x0",
        "input": "0x69f1324d0000000000000000000000000000000000000000000000000000000000001001000000000000000000000000000000000000000000000000000000000000008000000000000000000000000000000000000000000000000000000000000000c00000000000000000000000000000000000000000000000000000000000000120000000000000000000000000000000000000000000000000000000000000000b416c706861547261646572000000000000000000000000000000000000000000000000000000000000000000000000000000000000000000000000000000003268747470733a2f2f6170692e64696365626561722e636f6d2f372e782f626f747474732f7376673f736565643d616c706861000000000000000000000000000000000000000000000000000000000000000000000000000000000000000000364d6f6d656e74756d2074726164696e67206f6e2070657270732077697468207472656e642d666f6c6c6f77696e67207369676e616c7300000000000000000000",
        "nonce": "0x6b",
        "chainId": "0xa455"
      },
      "additionalContracts": [],
      "isFixedGasLimit": false
    },
    {
      "hash": "0x87761e7c98bb6bb10e7c3b7f83d9bfe754ce1e232a08497c165be7fab3eb7eb8",
      "transactionType": "CALL",
      "contractName": "AgentRegistry",
      "contractAddress": "0xf8e31cb472bc70500f08cd84917e5a1912ec8397",
      "function": "registerAgent(address,string,string,string)",
      "arguments": [
        "0x0000000000000000000000000000000000001002",
        "YieldMaxi",
        "https://api.dicebear.com/7.x/bottts/svg?seed=yield",
        "Auto-compounding yield optimizer across lending and vaults"
      ],
      "transaction": {
        "from": "0xf39fd6e51aad88f6f4ce6ab8827279cfffb92266",
        "to": "0xf8e31cb472bc70500f08cd84917e5a1912ec8397",
        "gas": "0x7adf8",
        "value": "0x0",
        "input": "0x69f1324d0000000000000000000000000000000000000000000000000000000000001002000000000000000000000000000000000000000000000000000000000000008000000000000000000000000000000000000000000000000000000000000000c0000000000000000000000000000000000000000000000000000000000000012000000000000000000000000000000000000000000000000000000000000000095969656c644d6178690000000000000000000000000000000000000000000000000000000000000000000000000000000000000000000000000000000000003268747470733a2f2f6170692e64696365626561722e636f6d2f372e782f626f747474732f7376673f736565643d7969656c640000000000000000000000000000000000000000000000000000000000000000000000000000000000000000003a4175746f2d636f6d706f756e64696e67207969656c64206f7074696d697a6572206163726f7373206c656e64696e6720616e64207661756c7473000000000000",
        "nonce": "0x6c",
        "chainId": "0xa455"
      },
      "additionalContracts": [],
      "isFixedGasLimit": false
    },
    {
      "hash": "0x7470c86c8f16cd7c24354fa0c3457e2f6aa906181d9369cb49a8edef4d0656ff",
      "transactionType": "CALL",
      "contractName": "AgentRegistry",
      "contractAddress": "0xf8e31cb472bc70500f08cd84917e5a1912ec8397",
      "function": "registerAgent(address,string,string,string)",
      "arguments": [
        "0x0000000000000000000000000000000000001003",
        "PredictOracleBot",
        "https://api.dicebear.com/7.x/bottts/svg?seed=predict",
        "Prediction market arbitrage using sentiment analysis"
      ],
      "transaction": {
        "from": "0xf39fd6e51aad88f6f4ce6ab8827279cfffb92266",
        "to": "0xf8e31cb472bc70500f08cd84917e5a1912ec8397",
        "gas": "0x7ae29",
        "value": "0x0",
        "input": "0x69f1324d0000000000000000000000000000000000000000000000000000000000001003000000000000000000000000000000000000000000000000000000000000008000000000000000000000000000000000000000000000000000000000000000c000000000000000000000000000000000000000000000000000000000000001200000000000000000000000000000000000000000000000000000000000000010507265646963744f7261636c65426f7400000000000000000000000000000000000000000000000000000000000000000000000000000000000000000000003468747470733a2f2f6170692e64696365626561722e636f6d2f372e782f626f747474732f7376673f736565643d70726564696374000000000000000000000000000000000000000000000000000000000000000000000000000000000000003450726564696374696f6e206d61726b657420617262697472616765207573696e672073656e74696d656e7420616e616c79736973000000000000000000000000",
        "nonce": "0x6d",
        "chainId": "0xa455"
      },
      "additionalContracts": [],
      "isFixedGasLimit": false
    },
    {
      "hash": "0x3e85efed44ac4502db770ddb8d048a18bbe725853cdef2625989914b6d3f4fab",
      "transactionType": "CALL",
      "contractName": "AgentRegistry",
      "contractAddress": "0xf8e31cb472bc70500f08cd84917e5a1912ec8397",
      "function": "registerAgent(address,string,string,string)",
      "arguments": [
        "0x0000000000000000000000000000000000001004",
        "DeltaNeutral",
        "https://api.dicebear.com/7.x/bottts/svg?seed=delta",
        "Delta-neutral strategies: long spot + short perps"
      ],
      "transaction": {
        "from": "0xf39fd6e51aad88f6f4ce6ab8827279cfffb92266",
        "to": "0xf8e31cb472bc70500f08cd84917e5a1912ec8397",
        "gas": "0x7ad94",
        "value": "0x0",
        "input": "0x69f1324d0000000000000000000000000000000000000000000000000000000000001004000000000000000000000000000000000000000000000000000000000000008000000000000000000000000000000000000000000000000000000000000000c00000000000000000000000000000000000000000000000000000000000000120000000000000000000000000000000000000000000000000000000000000000c44656c74614e65757472616c0000000000000000000000000000000000000000000000000000000000000000000000000000000000000000000000000000003268747470733a2f2f6170692e64696365626561722e636f6d2f372e782f626f747474732f7376673f736565643d64656c74610000000000000000000000000000000000000000000000000000000000000000000000000000000000000000003144656c74612d6e65757472616c20737472617465676965733a206c6f6e672073706f74202b2073686f7274207065727073000000000000000000000000000000",
        "nonce": "0x6e",
        "chainId": "0xa455"
      },
      "additionalContracts": [],
      "isFixedGasLimit": false
    },
    {
      "hash": "0xc664be537b4245d362921cab55ce12cc78ef3ae5fb68777020cccc1138ff0e44",
      "transactionType": "CALL",
      "contractName": "AgentRegistry",
      "contractAddress": "0xf8e31cb472bc70500f08cd84917e5a1912ec8397",
      "function": "registerAgent(address,string,string,string)",
      "arguments": [
        "0x0000000000000000000000000000000000001005",
        "UBIMaximizer",
        "https://api.dicebear.com/7.x/bottts/svg?seed=ubi",
        "High-frequency swaps to maximize UBI fee generation"
      ],
      "transaction": {
        "from": "0xf39fd6e51aad88f6f4ce6ab8827279cfffb92266",
        "to": "0xf8e31cb472bc70500f08cd84917e5a1912ec8397",
        "gas": "0x7ad94",
        "value": "0x0",
        "input": "0x69f1324d0000000000000000000000000000000000000000000000000000000000001005000000000000000000000000000000000000000000000000000000000000008000000000000000000000000000000000000000000000000000000000000000c00000000000000000000000000000000000000000000000000000000000000120000000000000000000000000000000000000000000000000000000000000000c5542494d6178696d697a65720000000000000000000000000000000000000000000000000000000000000000000000000000000000000000000000000000003068747470733a2f2f6170692e64696365626561722e636f6d2f372e782f626f747474732f7376673f736565643d756269000000000000000000000000000000000000000000000000000000000000000000000000000000000000000000000033486967682d6672657175656e637920737761707320746f206d6178696d697a6520554249206665652067656e65726174696f6e00000000000000000000000000",
        "nonce": "0x6f",
        "chainId": "0xa455"
      },
      "additionalContracts": [],
      "isFixedGasLimit": false
    },
    {
      "hash": "0x68c4335b2151bc51651376e007387c3846615245024883ea33489f13b9d65d22",
      "transactionType": "CALL",
      "contractName": "AgentRegistry",
      "contractAddress": "0xf8e31cb472bc70500f08cd84917e5a1912ec8397",
      "function": "recordActivity(address,string,uint256,uint256)",
      "arguments": [
        "0x0000000000000000000000000000000000001001",
        "perps",
        "500000000000000000000",
        "1500000000000000000"
      ],
      "transaction": {
        "from": "0xf39fd6e51aad88f6f4ce6ab8827279cfffb92266",
        "to": "0xf8e31cb472bc70500f08cd84917e5a1912ec8397",
        "gas": "0x5cb88",
        "value": "0x0",
        "input": "0xe2f11e610000000000000000000000000000000000000000000000000000000000001001000000000000000000000000000000000000000000000000000000000000008000000000000000000000000000000000000000000000001b1ae4d6e2ef50000000000000000000000000000000000000000000000000000014d1120d7b16000000000000000000000000000000000000000000000000000000000000000000057065727073000000000000000000000000000000000000000000000000000000",
        "nonce": "0x70",
        "chainId": "0xa455"
      },
      "additionalContracts": [],
      "isFixedGasLimit": false
    },
    {
      "hash": "0x7c197d8bcf2a13a75c13b9d4a5a28b725e407c2121ce78aea5068c55d6a5db29",
      "transactionType": "CALL",
      "contractName": "AgentRegistry",
      "contractAddress": "0xf8e31cb472bc70500f08cd84917e5a1912ec8397",
      "function": "recordActivity(address,string,uint256,uint256)",
      "arguments": [
        "0x0000000000000000000000000000000000001001",
        "perps",
        "300000000000000000000",
        "900000000000000000"
      ],
      "transaction": {
        "from": "0xf39fd6e51aad88f6f4ce6ab8827279cfffb92266",
        "to": "0xf8e31cb472bc70500f08cd84917e5a1912ec8397",
        "gas": "0x1faa1",
        "value": "0x0",
        "input": "0xe2f11e610000000000000000000000000000000000000000000000000000000000001001000000000000000000000000000000000000000000000000000000000000008000000000000000000000000000000000000000000000001043561a88293000000000000000000000000000000000000000000000000000000c7d713b49da000000000000000000000000000000000000000000000000000000000000000000057065727073000000000000000000000000000000000000000000000000000000",
        "nonce": "0x71",
        "chainId": "0xa455"
      },
      "additionalContracts": [],
      "isFixedGasLimit": false
    },
    {
      "hash": "0xafd05d4990dce713b7232425d30150792eb3d0bbae29fab9de0bbec8a1d68901",
      "transactionType": "CALL",
      "contractName": "AgentRegistry",
      "contractAddress": "0xf8e31cb472bc70500f08cd84917e5a1912ec8397",
      "function": "recordActivity(address,string,uint256,uint256)",
      "arguments": [
        "0x0000000000000000000000000000000000001001",
        "swap",
        "50000000000000000000",
        "150000000000000000"
      ],
      "transaction": {
        "from": "0xf39fd6e51aad88f6f4ce6ab8827279cfffb92266",
        "to": "0xf8e31cb472bc70500f08cd84917e5a1912ec8397",
        "gas": "0x31fa1",
        "value": "0x0",
        "input": "0xe2f11e6100000000000000000000000000000000000000000000000000000000000010010000000000000000000000000000000000000000000000000000000000000080000000000000000000000000000000000000000000000002b5e3af16b18800000000000000000000000000000000000000000000000000000214e8348c4f000000000000000000000000000000000000000000000000000000000000000000047377617000000000000000000000000000000000000000000000000000000000",
        "nonce": "0x72",
        "chainId": "0xa455"
      },
      "additionalContracts": [],
      "isFixedGasLimit": false
    },
    {
      "hash": "0xce6b89d53a9ca5943d17f28d6f996bd7004261ffa94a4a09b03236e7600b9afe",
      "transactionType": "CALL",
      "contractName": "AgentRegistry",
      "contractAddress": "0xf8e31cb472bc70500f08cd84917e5a1912ec8397",
      "function": "recordPnL(address,uint256,bool)",
      "arguments": [
        "0x0000000000000000000000000000000000001001",
        "12000000000000000000",
        "true"
      ],
      "transaction": {
        "from": "0xf39fd6e51aad88f6f4ce6ab8827279cfffb92266",
        "to": "0xf8e31cb472bc70500f08cd84917e5a1912ec8397",
        "gas": "0x130b6",
        "value": "0x0",
        "input": "0xb896f2220000000000000000000000000000000000000000000000000000000000001001000000000000000000000000000000000000000000000000a688906bd8b000000000000000000000000000000000000000000000000000000000000000000001",
        "nonce": "0x73",
        "chainId": "0xa455"
      },
      "additionalContracts": [],
      "isFixedGasLimit": false
    },
    {
      "hash": "0xa0574c78390bcefe47564e4600e08a6d279d113a98faecd20aed153a7775b5e1",
      "transactionType": "CALL",
      "contractName": "AgentRegistry",
      "contractAddress": "0xf8e31cb472bc70500f08cd84917e5a1912ec8397",
      "function": "recordActivity(address,string,uint256,uint256)",
      "arguments": [
        "0x0000000000000000000000000000000000001002",
        "lend",
        "200000000000000000000",
        "600000000000000000"
      ],
      "transaction": {
        "from": "0xf39fd6e51aad88f6f4ce6ab8827279cfffb92266",
        "to": "0xf8e31cb472bc70500f08cd84917e5a1912ec8397",
        "gas": "0x4a664",
        "value": "0x0",
        "input": "0xe2f11e610000000000000000000000000000000000000000000000000000000000001002000000000000000000000000000000000000000000000000000000000000008000000000000000000000000000000000000000000000000ad78ebc5ac62000000000000000000000000000000000000000000000000000000853a0d2313c000000000000000000000000000000000000000000000000000000000000000000046c656e6400000000000000000000000000000000000000000000000000000000",
        "nonce": "0x74",
        "chainId": "0xa455"
      },
      "additionalContracts": [],
      "isFixedGasLimit": false
    },
    {
      "hash": "0xec72adb45a788fb73ac9e37fa1be5a6b5326e10cdf3c1fda57bfcbcc04f88c69",
      "transactionType": "CALL",
      "contractName": "AgentRegistry",
      "contractAddress": "0xf8e31cb472bc70500f08cd84917e5a1912ec8397",
      "function": "recordActivity(address,string,uint256,uint256)",
      "arguments": [
        "0x0000000000000000000000000000000000001002",
        "yield",
        "150000000000000000000",
        "450000000000000000"
      ],
      "transaction": {
        "from": "0xf39fd6e51aad88f6f4ce6ab8827279cfffb92266",
        "to": "0xf8e31cb472bc70500f08cd84917e5a1912ec8397",
        "gas": "0x2f345",
        "value": "0x0",
        "input": "0xe2f11e610000000000000000000000000000000000000000000000000000000000001002000000000000000000000000000000000000000000000000000000000000008000000000000000000000000000000000000000000000000821ab0d4414980000000000000000000000000000000000000000000000000000063eb89da4ed000000000000000000000000000000000000000000000000000000000000000000057969656c64000000000000000000000000000000000000000000000000000000",
        "nonce": "0x75",
        "chainId": "0xa455"
      },
      "additionalContracts": [],
      "isFixedGasLimit": false
    },
    {
      "hash": "0x3db6ef3945ce287d6cbcad6ea40db8451a608e7097c6bf259573bf0433d30277",
      "transactionType": "CALL",
      "contractName": "AgentRegistry",
      "contractAddress": "0xf8e31cb472bc70500f08cd84917e5a1912ec8397",
      "function": "recordActivity(address,string,uint256,uint256)",
      "arguments": [
        "0x0000000000000000000000000000000000001002",
        "swap",
        "80000000000000000000",
        "240000000000000000"
      ],
      "transaction": {
        "from": "0xf39fd6e51aad88f6f4ce6ab8827279cfffb92266",
        "to": "0xf8e31cb472bc70500f08cd84917e5a1912ec8397",
        "gas": "0x31fa1",
        "value": "0x0",
        "input": "0xe2f11e6100000000000000000000000000000000000000000000000000000000000010020000000000000000000000000000000000000000000000000000000000000080000000000000000000000000000000000000000000000004563918244f4000000000000000000000000000000000000000000000000000000354a6ba7a18000000000000000000000000000000000000000000000000000000000000000000047377617000000000000000000000000000000000000000000000000000000000",
        "nonce": "0x76",
        "chainId": "0xa455"
      },
      "additionalContracts": [],
      "isFixedGasLimit": false
    },
    {
      "hash": "0xf5d4568318b8c681fae098dbe6c370a35285019e49533502df313e35ee8008c8",
      "transactionType": "CALL",
      "contractName": "AgentRegistry",
      "contractAddress": "0xf8e31cb472bc70500f08cd84917e5a1912ec8397",
      "function": "recordPnL(address,uint256,bool)",
      "arguments": [
        "0x0000000000000000000000000000000000001002",
        "8500000000000000000",
        "true"
      ],
      "transaction": {
        "from": "0xf39fd6e51aad88f6f4ce6ab8827279cfffb92266",
        "to": "0xf8e31cb472bc70500f08cd84917e5a1912ec8397",
        "gas": "0x130b6",
        "value": "0x0",
        "input": "0xb896f222000000000000000000000000000000000000000000000000000000000000100200000000000000000000000000000000000000000000000075f610f70ed200000000000000000000000000000000000000000000000000000000000000000001",
        "nonce": "0x77",
        "chainId": "0xa455"
      },
      "additionalContracts": [],
      "isFixedGasLimit": false
    },
    {
      "hash": "0x149d53f3f330bcd61eec470e5dd9f49fe51f7a12a46259b5e34e9fe3843d981a",
      "transactionType": "CALL",
      "contractName": "AgentRegistry",
      "contractAddress": "0xf8e31cb472bc70500f08cd84917e5a1912ec8397",
      "function": "recordActivity(address,string,uint256,uint256)",
      "arguments": [
        "0x0000000000000000000000000000000000001003",
        "predict",
        "100000000000000000000",
        "300000000000000000"
      ],
      "transaction": {
        "from": "0xf39fd6e51aad88f6f4ce6ab8827279cfffb92266",
        "to": "0xf8e31cb472bc70500f08cd84917e5a1912ec8397",
        "gas": "0x46474",
        "value": "0x0",
        "input": "0xe2f11e61000000000000000000000000000000000000000000000000000000000000100300000000000000000000000000000000000000000000000000000000000000800000000000000000000000000000000000000000000000056bc75e2d631000000000000000000000000000000000000000000000000000000429d069189e000000000000000000000000000000000000000000000000000000000000000000077072656469637400000000000000000000000000000000000000000000000000",
        "nonce": "0x78",
        "chainId": "0xa455"
      },
      "additionalContracts": [],
      "isFixedGasLimit": false
    },
    {
      "hash": "0x7c7a426886521b8d999df8baac18de9580d5cc6a3f3dacbf29e164263918ee63",
      "transactionType": "CALL",
      "contractName": "AgentRegistry",
      "contractAddress": "0xf8e31cb472bc70500f08cd84917e5a1912ec8397",
      "function": "recordActivity(address,string,uint256,uint256)",
      "arguments": [
        "0x0000000000000000000000000000000000001003",
        "predict",
        "75000000000000000000",
        "225000000000000000"
      ],
      "transaction": {
        "from": "0xf39fd6e51aad88f6f4ce6ab8827279cfffb92266",
        "to": "0xf8e31cb472bc70500f08cd84917e5a1912ec8397",
        "gas": "0x1deac",
        "value": "0x0",
        "input": "0xe2f11e610000000000000000000000000000000000000000000000000000000000001003000000000000000000000000000000000000000000000000000000000000008000000000000000000000000000000000000000000000000410d586a20a4c0000000000000000000000000000000000000000000000000000031f5c4ed276800000000000000000000000000000000000000000000000000000000000000000077072656469637400000000000000000000000000000000000000000000000000",
        "nonce": "0x79",
        "chainId": "0xa455"
      },
      "additionalContracts": [],
      "isFixedGasLimit": false
    },
    {
      "hash": "0x21f7f461b3af4da8c4458d72a171c92d6a61b9811b7a149bbf26a3f0986a53a7",
      "transactionType": "CALL",
      "contractName": "AgentRegistry",
      "contractAddress": "0xf8e31cb472bc70500f08cd84917e5a1912ec8397",
      "function": "recordActivity(address,string,uint256,uint256)",
      "arguments": [
        "0x0000000000000000000000000000000000001003",
        "swap",
        "30000000000000000000",
        "90000000000000000"
      ],
      "transaction": {
        "from": "0xf39fd6e51aad88f6f4ce6ab8827279cfffb92266",
        "to": "0xf8e31cb472bc70500f08cd84917e5a1912ec8397",
        "gas": "0x31fa1",
        "value": "0x0",
        "input": "0xe2f11e6100000000000000000000000000000000000000000000000000000000000010030000000000000000000000000000000000000000000000000000000000000080000000000000000000000000000000000000000000000001a055690d9db80000000000000000000000000000000000000000000000000000013fbe85edc9000000000000000000000000000000000000000000000000000000000000000000047377617000000000000000000000000000000000000000000000000000000000",
        "nonce": "0x7a",
        "chainId": "0xa455"
      },
      "additionalContracts": [],
      "isFixedGasLimit": false
    },
    {
      "hash": "0x6820138ffb93859b831b3984b1177cfc92f9d2b694e9d6f22287ac16ebf8533b",
      "transactionType": "CALL",
      "contractName": "AgentRegistry",
      "contractAddress": "0xf8e31cb472bc70500f08cd84917e5a1912ec8397",
      "function": "recordPnL(address,uint256,bool)",
      "arguments": [
        "0x0000000000000000000000000000000000001003",
        "5200000000000000000",
        "true"
      ],
      "transaction": {
        "from": "0xf39fd6e51aad88f6f4ce6ab8827279cfffb92266",
        "to": "0xf8e31cb472bc70500f08cd84917e5a1912ec8397",
        "gas": "0x11fb7",
        "value": "0x0",
        "input": "0xb896f2220000000000000000000000000000000000000000000000000000000000001003000000000000000000000000000000000000000000000000482a1c73000800000000000000000000000000000000000000000000000000000000000000000001",
        "nonce": "0x7b",
        "chainId": "0xa455"
      },
      "additionalContracts": [],
      "isFixedGasLimit": false
    },
    {
      "hash": "0xfc8f8defa62182dc03bc0545292a6073f411b3bf6cf6d0e978ddf31f6076f353",
      "transactionType": "CALL",
      "contractName": "AgentRegistry",
      "contractAddress": "0xf8e31cb472bc70500f08cd84917e5a1912ec8397",
      "function": "recordActivity(address,string,uint256,uint256)",
      "arguments": [
        "0x0000000000000000000000000000000000001004",
        "perps",
        "400000000000000000000",
        "1200000000000000000"
      ],
      "transaction": {
        "from": "0xf39fd6e51aad88f6f4ce6ab8827279cfffb92266",
        "to": "0xf8e31cb472bc70500f08cd84917e5a1912ec8397",
        "gas": "0x46452",
        "value": "0x0",
        "input": "0xe2f11e6100000000000000000000000000000000000000000000000000000000000010040000000000000000000000000000000000000000000000000000000000000080000000000000000000000000000000000000000000000015af1d78b58c40000000000000000000000000000000000000000000000000000010a741a46278000000000000000000000000000000000000000000000000000000000000000000057065727073000000000000000000000000000000000000000000000000000000",
        "nonce": "0x7c",
        "chainId": "0xa455"
      },
      "additionalContracts": [],
      "isFixedGasLimit": false
    },
    {
      "hash": "0x843e3500623ce4e4119a8f78ae5e3b176675e6f4d71ff1f7ada1093fd9a0e0f9",
      "transactionType": "CALL",
      "contractName": "AgentRegistry",
      "contractAddress": "0xf8e31cb472bc70500f08cd84917e5a1912ec8397",
      "function": "recordActivity(address,string,uint256,uint256)",
      "arguments": [
        "0x0000000000000000000000000000000000001004",
        "swap",
        "400000000000000000000",
        "1200000000000000000"
      ],
      "transaction": {
        "from": "0xf39fd6e51aad88f6f4ce6ab8827279cfffb92266",
        "to": "0xf8e31cb472bc70500f08cd84917e5a1912ec8397",
        "gas": "0x31fa1",
        "value": "0x0",
        "input": "0xe2f11e6100000000000000000000000000000000000000000000000000000000000010040000000000000000000000000000000000000000000000000000000000000080000000000000000000000000000000000000000000000015af1d78b58c40000000000000000000000000000000000000000000000000000010a741a46278000000000000000000000000000000000000000000000000000000000000000000047377617000000000000000000000000000000000000000000000000000000000",
        "nonce": "0x7d",
        "chainId": "0xa455"
      },
      "additionalContracts": [],
      "isFixedGasLimit": false
    },
    {
      "hash": "0x669a8b72099e65c79385c266a2f76e74f3dcaf40f932f30d12e68db2106ed68d",
      "transactionType": "CALL",
      "contractName": "AgentRegistry",
      "contractAddress": "0xf8e31cb472bc70500f08cd84917e5a1912ec8397",
      "function": "recordActivity(address,string,uint256,uint256)",
      "arguments": [
        "0x0000000000000000000000000000000000001004",
        "lend",
        "100000000000000000000",
        "300000000000000000"
      ],
      "transaction": {
        "from": "0xf39fd6e51aad88f6f4ce6ab8827279cfffb92266",
        "to": "0xf8e31cb472bc70500f08cd84917e5a1912ec8397",
        "gas": "0x31fa1",
        "value": "0x0",
        "input": "0xe2f11e61000000000000000000000000000000000000000000000000000000000000100400000000000000000000000000000000000000000000000000000000000000800000000000000000000000000000000000000000000000056bc75e2d631000000000000000000000000000000000000000000000000000000429d069189e000000000000000000000000000000000000000000000000000000000000000000046c656e6400000000000000000000000000000000000000000000000000000000",
        "nonce": "0x7e",
        "chainId": "0xa455"
      },
      "additionalContracts": [],
      "isFixedGasLimit": false
    },
    {
      "hash": "0xb753e0a5cefebc019df36c42a45a24564749c1f92b961b8d076ff2087d96d9f1",
      "transactionType": "CALL",
      "contractName": "AgentRegistry",
      "contractAddress": "0xf8e31cb472bc70500f08cd84917e5a1912ec8397",
      "function": "recordPnL(address,uint256,bool)",
      "arguments": [
        "0x0000000000000000000000000000000000001004",
        "300000000000000000",
        "false"
      ],
      "transaction": {
        "from": "0xf39fd6e51aad88f6f4ce6ab8827279cfffb92266",
        "to": "0xf8e31cb472bc70500f08cd84917e5a1912ec8397",
        "gas": "0x114ec",
        "value": "0x0",
        "input": "0xb896f22200000000000000000000000000000000000000000000000000000000000010040000000000000000000000000000000000000000000000000429d069189e00000000000000000000000000000000000000000000000000000000000000000000",
        "nonce": "0x7f",
        "chainId": "0xa455"
      },
      "additionalContracts": [],
      "isFixedGasLimit": false
    },
    {
      "hash": "0xc1d0503efffda477a60c96641da7757266bc7d7e97f67e1df4aac2f017f641c1",
      "transactionType": "CALL",
      "contractName": "AgentRegistry",
      "contractAddress": "0xf8e31cb472bc70500f08cd84917e5a1912ec8397",
      "function": "recordActivity(address,string,uint256,uint256)",
      "arguments": [
        "0x0000000000000000000000000000000000001005",
        "swap",
        "20000000000000000000",
        "60000000000000000"
      ],
      "transaction": {
        "from": "0xf39fd6e51aad88f6f4ce6ab8827279cfffb92266",
        "to": "0xf8e31cb472bc70500f08cd84917e5a1912ec8397",
        "gas": "0x46432",
        "value": "0x0",
        "input": "0xe2f11e6100000000000000000000000000000000000000000000000000000000000010050000000000000000000000000000000000000000000000000000000000000080000000000000000000000000000000000000000000000001158e460913d0000000000000000000000000000000000000000000000000000000d529ae9e86000000000000000000000000000000000000000000000000000000000000000000047377617000000000000000000000000000000000000000000000000000000000",
        "nonce": "0x80",
        "chainId": "0xa455"
      },
      "additionalContracts": [],
      "isFixedGasLimit": false
    },
    {
      "hash": "0xd3edbca0f303639679f7a4fc4a08c67993c764cf6dbd6fdabbfe28c214b95545",
      "transactionType": "CALL",
      "contractName": "AgentRegistry",
      "contractAddress": "0xf8e31cb472bc70500f08cd84917e5a1912ec8397",
      "function": "recordActivity(address,string,uint256,uint256)",
      "arguments": [
        "0x0000000000000000000000000000000000001005",
        "swap",
        "20000000000000000000",
        "60000000000000000"
      ],
      "transaction": {
        "from": "0xf39fd6e51aad88f6f4ce6ab8827279cfffb92266",
        "to": "0xf8e31cb472bc70500f08cd84917e5a1912ec8397",
        "gas": "0x1fa7e",
        "value": "0x0",
        "input": "0xe2f11e6100000000000000000000000000000000000000000000000000000000000010050000000000000000000000000000000000000000000000000000000000000080000000000000000000000000000000000000000000000001158e460913d0000000000000000000000000000000000000000000000000000000d529ae9e86000000000000000000000000000000000000000000000000000000000000000000047377617000000000000000000000000000000000000000000000000000000000",
        "nonce": "0x81",
        "chainId": "0xa455"
      },
      "additionalContracts": [],
      "isFixedGasLimit": false
    },
    {
      "hash": "0x25c07ba0fa37854d6cad5640f40573820b0bdb1b24355e354a95d2c7845c9d4b",
      "transactionType": "CALL",
      "contractName": "AgentRegistry",
      "contractAddress": "0xf8e31cb472bc70500f08cd84917e5a1912ec8397",
      "function": "recordActivity(address,string,uint256,uint256)",
      "arguments": [
        "0x0000000000000000000000000000000000001005",
        "swap",
        "20000000000000000000",
        "60000000000000000"
      ],
      "transaction": {
        "from": "0xf39fd6e51aad88f6f4ce6ab8827279cfffb92266",
        "to": "0xf8e31cb472bc70500f08cd84917e5a1912ec8397",
        "gas": "0x1fa7e",
        "value": "0x0",
        "input": "0xe2f11e6100000000000000000000000000000000000000000000000000000000000010050000000000000000000000000000000000000000000000000000000000000080000000000000000000000000000000000000000000000001158e460913d0000000000000000000000000000000000000000000000000000000d529ae9e86000000000000000000000000000000000000000000000000000000000000000000047377617000000000000000000000000000000000000000000000000000000000",
        "nonce": "0x82",
        "chainId": "0xa455"
      },
      "additionalContracts": [],
      "isFixedGasLimit": false
    },
    {
      "hash": "0x7bf502a46b51ef23aa17d73c345d83d1035bbe7d152d60e5c75d678f2ceb1c78",
      "transactionType": "CALL",
      "contractName": "AgentRegistry",
      "contractAddress": "0xf8e31cb472bc70500f08cd84917e5a1912ec8397",
      "function": "recordActivity(address,string,uint256,uint256)",
      "arguments": [
        "0x0000000000000000000000000000000000001005",
        "swap",
        "20000000000000000000",
        "60000000000000000"
      ],
      "transaction": {
        "from": "0xf39fd6e51aad88f6f4ce6ab8827279cfffb92266",
        "to": "0xf8e31cb472bc70500f08cd84917e5a1912ec8397",
        "gas": "0x1fa7e",
        "value": "0x0",
        "input": "0xe2f11e6100000000000000000000000000000000000000000000000000000000000010050000000000000000000000000000000000000000000000000000000000000080000000000000000000000000000000000000000000000001158e460913d0000000000000000000000000000000000000000000000000000000d529ae9e86000000000000000000000000000000000000000000000000000000000000000000047377617000000000000000000000000000000000000000000000000000000000",
        "nonce": "0x83",
        "chainId": "0xa455"
      },
      "additionalContracts": [],
      "isFixedGasLimit": false
    },
    {
      "hash": "0x121c789a54fbc0714f16673eea8ed9d328dbd8f8119a2ac0addbdb71be83c2f5",
      "transactionType": "CALL",
      "contractName": "AgentRegistry",
      "contractAddress": "0xf8e31cb472bc70500f08cd84917e5a1912ec8397",
      "function": "recordActivity(address,string,uint256,uint256)",
      "arguments": [
        "0x0000000000000000000000000000000000001005",
        "swap",
        "20000000000000000000",
        "60000000000000000"
      ],
      "transaction": {
        "from": "0xf39fd6e51aad88f6f4ce6ab8827279cfffb92266",
        "to": "0xf8e31cb472bc70500f08cd84917e5a1912ec8397",
        "gas": "0x1fa7e",
        "value": "0x0",
        "input": "0xe2f11e6100000000000000000000000000000000000000000000000000000000000010050000000000000000000000000000000000000000000000000000000000000080000000000000000000000000000000000000000000000001158e460913d0000000000000000000000000000000000000000000000000000000d529ae9e86000000000000000000000000000000000000000000000000000000000000000000047377617000000000000000000000000000000000000000000000000000000000",
        "nonce": "0x84",
        "chainId": "0xa455"
      },
      "additionalContracts": [],
      "isFixedGasLimit": false
    },
    {
      "hash": "0x32cef81e3d6d5cade0f0af7870d48278f60c73b68edc8cce357ca3a81f5b98f3",
      "transactionType": "CALL",
      "contractName": "AgentRegistry",
      "contractAddress": "0xf8e31cb472bc70500f08cd84917e5a1912ec8397",
      "function": "recordActivity(address,string,uint256,uint256)",
      "arguments": [
        "0x0000000000000000000000000000000000001005",
        "swap",
        "20000000000000000000",
        "60000000000000000"
      ],
      "transaction": {
        "from": "0xf39fd6e51aad88f6f4ce6ab8827279cfffb92266",
        "to": "0xf8e31cb472bc70500f08cd84917e5a1912ec8397",
        "gas": "0x1fa7e",
        "value": "0x0",
        "input": "0xe2f11e6100000000000000000000000000000000000000000000000000000000000010050000000000000000000000000000000000000000000000000000000000000080000000000000000000000000000000000000000000000001158e460913d0000000000000000000000000000000000000000000000000000000d529ae9e86000000000000000000000000000000000000000000000000000000000000000000047377617000000000000000000000000000000000000000000000000000000000",
        "nonce": "0x85",
        "chainId": "0xa455"
      },
      "additionalContracts": [],
      "isFixedGasLimit": false
    },
    {
      "hash": "0x402878f575ed9994beb08f5563de7a61c2fc9c9442d89153e94108cf6c176532",
      "transactionType": "CALL",
      "contractName": "AgentRegistry",
      "contractAddress": "0xf8e31cb472bc70500f08cd84917e5a1912ec8397",
      "function": "recordActivity(address,string,uint256,uint256)",
      "arguments": [
        "0x0000000000000000000000000000000000001005",
        "swap",
        "20000000000000000000",
        "60000000000000000"
      ],
      "transaction": {
        "from": "0xf39fd6e51aad88f6f4ce6ab8827279cfffb92266",
        "to": "0xf8e31cb472bc70500f08cd84917e5a1912ec8397",
        "gas": "0x1fa7e",
        "value": "0x0",
        "input": "0xe2f11e6100000000000000000000000000000000000000000000000000000000000010050000000000000000000000000000000000000000000000000000000000000080000000000000000000000000000000000000000000000001158e460913d0000000000000000000000000000000000000000000000000000000d529ae9e86000000000000000000000000000000000000000000000000000000000000000000047377617000000000000000000000000000000000000000000000000000000000",
        "nonce": "0x86",
        "chainId": "0xa455"
      },
      "additionalContracts": [],
      "isFixedGasLimit": false
    },
    {
      "hash": "0x24409018d7b08eeffb83f5dbe635ad356ec0517bed5685f40262380bc0bcfb90",
      "transactionType": "CALL",
      "contractName": "AgentRegistry",
      "contractAddress": "0xf8e31cb472bc70500f08cd84917e5a1912ec8397",
      "function": "recordActivity(address,string,uint256,uint256)",
      "arguments": [
        "0x0000000000000000000000000000000000001005",
        "swap",
        "20000000000000000000",
        "60000000000000000"
      ],
      "transaction": {
        "from": "0xf39fd6e51aad88f6f4ce6ab8827279cfffb92266",
        "to": "0xf8e31cb472bc70500f08cd84917e5a1912ec8397",
        "gas": "0x1fa7e",
        "value": "0x0",
        "input": "0xe2f11e6100000000000000000000000000000000000000000000000000000000000010050000000000000000000000000000000000000000000000000000000000000080000000000000000000000000000000000000000000000001158e460913d0000000000000000000000000000000000000000000000000000000d529ae9e86000000000000000000000000000000000000000000000000000000000000000000047377617000000000000000000000000000000000000000000000000000000000",
        "nonce": "0x87",
        "chainId": "0xa455"
      },
      "additionalContracts": [],
      "isFixedGasLimit": false
    },
    {
      "hash": "0x7b9f85e24ea6c8c3d3d7563b883842664830ba5f427887f6313e56136aec91c9",
      "transactionType": "CALL",
      "contractName": "AgentRegistry",
      "contractAddress": "0xf8e31cb472bc70500f08cd84917e5a1912ec8397",
      "function": "recordActivity(address,string,uint256,uint256)",
      "arguments": [
        "0x0000000000000000000000000000000000001005",
        "swap",
        "20000000000000000000",
        "60000000000000000"
      ],
      "transaction": {
        "from": "0xf39fd6e51aad88f6f4ce6ab8827279cfffb92266",
        "to": "0xf8e31cb472bc70500f08cd84917e5a1912ec8397",
        "gas": "0x1fa7e",
        "value": "0x0",
        "input": "0xe2f11e6100000000000000000000000000000000000000000000000000000000000010050000000000000000000000000000000000000000000000000000000000000080000000000000000000000000000000000000000000000001158e460913d0000000000000000000000000000000000000000000000000000000d529ae9e86000000000000000000000000000000000000000000000000000000000000000000047377617000000000000000000000000000000000000000000000000000000000",
        "nonce": "0x88",
        "chainId": "0xa455"
      },
      "additionalContracts": [],
      "isFixedGasLimit": false
    },
    {
      "hash": "0x67a92c7e9a808cac203bdd454d9746bbb539375b12a0827e5576ab4a0e51be40",
      "transactionType": "CALL",
      "contractName": "AgentRegistry",
      "contractAddress": "0xf8e31cb472bc70500f08cd84917e5a1912ec8397",
      "function": "recordActivity(address,string,uint256,uint256)",
      "arguments": [
        "0x0000000000000000000000000000000000001005",
        "swap",
        "20000000000000000000",
        "60000000000000000"
      ],
      "transaction": {
        "from": "0xf39fd6e51aad88f6f4ce6ab8827279cfffb92266",
        "to": "0xf8e31cb472bc70500f08cd84917e5a1912ec8397",
        "gas": "0x1fa7e",
        "value": "0x0",
        "input": "0xe2f11e6100000000000000000000000000000000000000000000000000000000000010050000000000000000000000000000000000000000000000000000000000000080000000000000000000000000000000000000000000000001158e460913d0000000000000000000000000000000000000000000000000000000d529ae9e86000000000000000000000000000000000000000000000000000000000000000000047377617000000000000000000000000000000000000000000000000000000000",
        "nonce": "0x89",
        "chainId": "0xa455"
      },
      "additionalContracts": [],
      "isFixedGasLimit": false
    },
    {
      "hash": "0x9f05d169d4439f9d0aa092168272db6f54149fc680b73dd802394d3ad110f3a8",
      "transactionType": "CALL",
      "contractName": "AgentRegistry",
      "contractAddress": "0xf8e31cb472bc70500f08cd84917e5a1912ec8397",
      "function": "recordActivity(address,string,uint256,uint256)",
      "arguments": [
        "0x0000000000000000000000000000000000001005",
        "predict",
        "50000000000000000000",
        "150000000000000000"
      ],
      "transaction": {
        "from": "0xf39fd6e51aad88f6f4ce6ab8827279cfffb92266",
        "to": "0xf8e31cb472bc70500f08cd84917e5a1912ec8397",
        "gas": "0x2f366",
        "value": "0x0",
        "input": "0xe2f11e6100000000000000000000000000000000000000000000000000000000000010050000000000000000000000000000000000000000000000000000000000000080000000000000000000000000000000000000000000000002b5e3af16b18800000000000000000000000000000000000000000000000000000214e8348c4f000000000000000000000000000000000000000000000000000000000000000000077072656469637400000000000000000000000000000000000000000000000000",
        "nonce": "0x8a",
        "chainId": "0xa455"
      },
      "additionalContracts": [],
      "isFixedGasLimit": false
    },
    {
      "hash": "0x8ed08dc3aed9314bf31b1c3cabe3037a4e561c5c76e57dcb5acd4330ca30ce3e",
      "transactionType": "CALL",
      "contractName": "AgentRegistry",
      "contractAddress": "0xf8e31cb472bc70500f08cd84917e5a1912ec8397",
      "function": "recordPnL(address,uint256,bool)",
      "arguments": [
        "0x0000000000000000000000000000000000001005",
        "1800000000000000000",
        "true"
      ],
      "transaction": {
        "from": "0xf39fd6e51aad88f6f4ce6ab8827279cfffb92266",
        "to": "0xf8e31cb472bc70500f08cd84917e5a1912ec8397",
        "gas": "0x130b6",
        "value": "0x0",
        "input": "0xb896f222000000000000000000000000000000000000000000000000000000000000100500000000000000000000000000000000000000000000000018fae27693b400000000000000000000000000000000000000000000000000000000000000000001",
        "nonce": "0x8b",
        "chainId": "0xa455"
      },
      "additionalContracts": [],
      "isFixedGasLimit": false
    }
  ],
  "receipts": [
    {
      "status": "0x1",
      "cumulativeGasUsed": "0x21ac85",
      "logs": [],
      "logsBloom": "0x00000000000000000000000000000000000000000000000000000000000000000000000000000000000000000000000000000000000000000000000000000000000000000000000000000000000000000000000000000000000000000000000000000000000000000000000000000000000000000000000000000000000000000000000000000000000000000000000000000000000000000000000000000000000000000000000000000000000000000000000000000000000000000000000000000000000000000000000000000000000000000000000000000000000000000000000000000000000000000000000000000000000000000000000000000000",
      "type": "0x2",
      "transactionHash": "0x8f9e3819f97b3ac531302e72923164159fecb6b7dc977cd15ccad3359bf7e12a",
      "transactionIndex": "0x0",
      "blockHash": "0x944f3aca53cb27d3c52e9abcfb60b49f525fb87b9183d4a191b20ce8ff1a0ea3",
      "blockNumber": "0x4d",
      "gasUsed": "0x21ac85",
      "effectiveGasPrice": "0xdb0d",
      "blobGasPrice": "0x1",
      "from": "0xf39fd6e51aad88f6f4ce6ab8827279cfffb92266",
      "to": null,
      "contractAddress": "0xf8e31cb472bc70500f08cd84917e5a1912ec8397",
      "blockTimestamp": 1775327416
    },
    {
      "status": "0x1",
      "cumulativeGasUsed": "0x27c159",
      "logs": [
        {
          "address": "0xf8e31cb472bc70500f08cd84917e5a1912ec8397",
          "topics": [
            "0x6cf3badcf1a10c54709f13ad2475d8b3a44ebcb1b93b38e7257f985053235040",
            "0x0000000000000000000000000000000000000000000000000000000000001001",
            "0x000000000000000000000000f39fd6e51aad88f6f4ce6ab8827279cfffb92266"
          ],
          "data": "0x0000000000000000000000000000000000000000000000000000000000000020000000000000000000000000000000000000000000000000000000000000000b416c706861547261646572000000000000000000000000000000000000000000",
          "blockHash": "0x944f3aca53cb27d3c52e9abcfb60b49f525fb87b9183d4a191b20ce8ff1a0ea3",
          "blockNumber": "0x4d",
          "blockTimestamp": "0x69d158b8",
          "transactionHash": "0xce6b89d53a9ca5943d17f28d6f996bd7004261ffa94a4a09b03236e7600b9afe",
          "transactionIndex": "0x1",
          "logIndex": "0x0",
          "removed": false
        }
      ],
      "logsBloom": "0x00000000000000000000000000000000000000000000000000000000000000002000000000000000000000000000000000000000000000000000000000000000000000000000000000000000000100000000000000000000000000000000000000000000000000000020000100000000000000000000000000000000000000000000000000000000000000000000000000000000000000000000000000000000000000800000000400000000000000000000000200000000000200000000000000000000000000200000000000000000000800002000000000000000000000800000000000000000000000000000000000000000000000000000000000000000",
      "type": "0x2",
      "transactionHash": "0xce6b89d53a9ca5943d17f28d6f996bd7004261ffa94a4a09b03236e7600b9afe",
      "transactionIndex": "0x1",
      "blockHash": "0x944f3aca53cb27d3c52e9abcfb60b49f525fb87b9183d4a191b20ce8ff1a0ea3",
      "blockNumber": "0x4d",
      "gasUsed": "0x614d4",
      "effectiveGasPrice": "0xdb0d",
      "blobGasPrice": "0x1",
      "from": "0xf39fd6e51aad88f6f4ce6ab8827279cfffb92266",
      "to": "0xf8e31cb472bc70500f08cd84917e5a1912ec8397",
      "contractAddress": null,
      "blockTimestamp": 1775327416
    },
    {
      "status": "0x1",
      "cumulativeGasUsed": "0x2d50ad",
      "logs": [
        {
          "address": "0xf8e31cb472bc70500f08cd84917e5a1912ec8397",
          "topics": [
            "0x6cf3badcf1a10c54709f13ad2475d8b3a44ebcb1b93b38e7257f985053235040",
            "0x0000000000000000000000000000000000000000000000000000000000001002",
            "0x000000000000000000000000f39fd6e51aad88f6f4ce6ab8827279cfffb92266"
          ],
          "data": "0x000000000000000000000000000000000000000000000000000000000000002000000000000000000000000000000000000000000000000000000000000000095969656c644d6178690000000000000000000000000000000000000000000000",
          "blockHash": "0x944f3aca53cb27d3c52e9abcfb60b49f525fb87b9183d4a191b20ce8ff1a0ea3",
          "blockNumber": "0x4d",
          "blockTimestamp": "0x69d158b8",
          "transactionHash": "0xafd05d4990dce713b7232425d30150792eb3d0bbae29fab9de0bbec8a1d68901",
          "transactionIndex": "0x2",
          "logIndex": "0x1",
          "removed": false
        }
      ],
      "logsBloom": "0x00000000000000000000000000000000000000000000000000000000000000002000000000000000000000000000000000000000000000000000000000000000000000000000000000000000000000000000000000000000000000000000000000000000000000000000000100000000000000000000000200000000001000000000000000000000000000000000000000000000000000000000000000000000000000000000000400000000000000000000000200000000000200000000000000000000040000200000000000000000000800002000000000000000000000800000000000000000000000000000000000000000000000000000000000000000",
      "type": "0x2",
      "transactionHash": "0xafd05d4990dce713b7232425d30150792eb3d0bbae29fab9de0bbec8a1d68901",
      "transactionIndex": "0x2",
      "blockHash": "0x944f3aca53cb27d3c52e9abcfb60b49f525fb87b9183d4a191b20ce8ff1a0ea3",
      "blockNumber": "0x4d",
      "gasUsed": "0x58f54",
      "effectiveGasPrice": "0xdb0d",
      "blobGasPrice": "0x1",
      "from": "0xf39fd6e51aad88f6f4ce6ab8827279cfffb92266",
      "to": "0xf8e31cb472bc70500f08cd84917e5a1912ec8397",
      "contractAddress": null,
      "blockTimestamp": 1775327416
    },
    {
      "status": "0x1",
      "cumulativeGasUsed": "0x32e025",
      "logs": [
        {
          "address": "0xf8e31cb472bc70500f08cd84917e5a1912ec8397",
          "topics": [
            "0x6cf3badcf1a10c54709f13ad2475d8b3a44ebcb1b93b38e7257f985053235040",
            "0x0000000000000000000000000000000000000000000000000000000000001003",
            "0x000000000000000000000000f39fd6e51aad88f6f4ce6ab8827279cfffb92266"
          ],
          "data": "0x00000000000000000000000000000000000000000000000000000000000000200000000000000000000000000000000000000000000000000000000000000010507265646963744f7261636c65426f7400000000000000000000000000000000",
          "blockHash": "0x944f3aca53cb27d3c52e9abcfb60b49f525fb87b9183d4a191b20ce8ff1a0ea3",
          "blockNumber": "0x4d",
          "blockTimestamp": "0x69d158b8",
          "transactionHash": "0x3db6ef3945ce287d6cbcad6ea40db8451a608e7097c6bf259573bf0433d30277",
          "transactionIndex": "0x3",
          "logIndex": "0x2",
          "removed": false
        }
      ],
      "logsBloom": "0x00000000000000000000000000000000000000000000000000000000010000002000000000000000000000000000000000000000000000000000000000000000000000000000000000000000000000000000000000000000000000000000000000000000000000000000000100000000000000000000000000000000000000000000000000000000000000000000000000000000000000000000000000000000000000000000000400000000000000000000000200000000000200000000000000000000000000200000000000000000000800002000000000000000000000800000000000020000000000000000000020000000000000000000000000000000",
      "type": "0x2",
      "transactionHash": "0x3db6ef3945ce287d6cbcad6ea40db8451a608e7097c6bf259573bf0433d30277",
      "transactionIndex": "0x3",
      "blockHash": "0x944f3aca53cb27d3c52e9abcfb60b49f525fb87b9183d4a191b20ce8ff1a0ea3",
      "blockNumber": "0x4d",
      "gasUsed": "0x58f78",
      "effectiveGasPrice": "0xdb0d",
      "blobGasPrice": "0x1",
      "from": "0xf39fd6e51aad88f6f4ce6ab8827279cfffb92266",
      "to": "0xf8e31cb472bc70500f08cd84917e5a1912ec8397",
      "contractAddress": null,
      "blockTimestamp": 1775327416
    },
    {
      "status": "0x1",
      "cumulativeGasUsed": "0x386f31",
      "logs": [
        {
          "address": "0xf8e31cb472bc70500f08cd84917e5a1912ec8397",
          "topics": [
            "0x6cf3badcf1a10c54709f13ad2475d8b3a44ebcb1b93b38e7257f985053235040",
            "0x0000000000000000000000000000000000000000000000000000000000001004",
            "0x000000000000000000000000f39fd6e51aad88f6f4ce6ab8827279cfffb92266"
          ],
          "data": "0x0000000000000000000000000000000000000000000000000000000000000020000000000000000000000000000000000000000000000000000000000000000c44656c74614e65757472616c0000000000000000000000000000000000000000",
          "blockHash": "0x944f3aca53cb27d3c52e9abcfb60b49f525fb87b9183d4a191b20ce8ff1a0ea3",
          "blockNumber": "0x4d",
          "blockTimestamp": "0x69d158b8",
          "transactionHash": "0x21f7f461b3af4da8c4458d72a171c92d6a61b9811b7a149bbf26a3f0986a53a7",
          "transactionIndex": "0x4",
          "logIndex": "0x3",
          "removed": false
        }
      ],
      "logsBloom": "0x00000000000000000000000000000000000000000000000000400000000000002000000000000000000000000000000000000000000000000000000000000000000000000000000000000000000000000000000000000000000000000000000000000000000000000000000100000000000000000000000000000000000000000000000000000000000000000000000000000000000000000000000040000000000000000000000400000000000000000000000200000000000200000008000000000000000000200000000000000000000800002000000000000000000000800000000000000000000000000000000000000000000000000000000000000000",
      "type": "0x2",
      "transactionHash": "0x21f7f461b3af4da8c4458d72a171c92d6a61b9811b7a149bbf26a3f0986a53a7",
      "transactionIndex": "0x4",
      "blockHash": "0x944f3aca53cb27d3c52e9abcfb60b49f525fb87b9183d4a191b20ce8ff1a0ea3",
      "blockNumber": "0x4d",
      "gasUsed": "0x58f0c",
      "effectiveGasPrice": "0xdb0d",
      "blobGasPrice": "0x1",
      "from": "0xf39fd6e51aad88f6f4ce6ab8827279cfffb92266",
      "to": "0xf8e31cb472bc70500f08cd84917e5a1912ec8397",
      "contractAddress": null,
      "blockTimestamp": 1775327416
    },
    {
      "status": "0x1",
      "cumulativeGasUsed": "0x3dfe3d",
      "logs": [
        {
          "address": "0xf8e31cb472bc70500f08cd84917e5a1912ec8397",
          "topics": [
            "0x6cf3badcf1a10c54709f13ad2475d8b3a44ebcb1b93b38e7257f985053235040",
            "0x0000000000000000000000000000000000000000000000000000000000001005",
            "0x000000000000000000000000f39fd6e51aad88f6f4ce6ab8827279cfffb92266"
          ],
          "data": "0x0000000000000000000000000000000000000000000000000000000000000020000000000000000000000000000000000000000000000000000000000000000c5542494d6178696d697a65720000000000000000000000000000000000000000",
          "blockHash": "0x944f3aca53cb27d3c52e9abcfb60b49f525fb87b9183d4a191b20ce8ff1a0ea3",
          "blockNumber": "0x4d",
          "blockTimestamp": "0x69d158b8",
          "transactionHash": "0x149d53f3f330bcd61eec470e5dd9f49fe51f7a12a46259b5e34e9fe3843d981a",
          "transactionIndex": "0x5",
          "logIndex": "0x4",
          "removed": false
        }
      ],
      "logsBloom": "0x00000000000000000000000000000000000000000000000000000000000000002000000000000000000000000000000000000000000000000000000000000000000000000000000000004000000000000800080000000000000000000000000000000000000000000000000100000000000000000000000000000000000000000000000000000000000000000000000000000000000000000000000000000000000000000000000400000000000000000000000200000000000200000000000000000000000000200000000000000000000800002000000000000000000000800000000000000000000000000000000000000000000000000000000000000000",
      "type": "0x2",
      "transactionHash": "0x149d53f3f330bcd61eec470e5dd9f49fe51f7a12a46259b5e34e9fe3843d981a",
      "transactionIndex": "0x5",
      "blockHash": "0x944f3aca53cb27d3c52e9abcfb60b49f525fb87b9183d4a191b20ce8ff1a0ea3",
      "blockNumber": "0x4d",
      "gasUsed": "0x58f0c",
      "effectiveGasPrice": "0xdb0d",
      "blobGasPrice": "0x1",
      "from": "0xf39fd6e51aad88f6f4ce6ab8827279cfffb92266",
      "to": "0xf8e31cb472bc70500f08cd84917e5a1912ec8397",
      "contractAddress": null,
      "blockTimestamp": 1775327416
    },
    {
      "status": "0x1",
      "cumulativeGasUsed": "0x41f49f",
      "logs": [
        {
          "address": "0xf8e31cb472bc70500f08cd84917e5a1912ec8397",
          "topics": [
            "0xe569346dc44a549a2dba8bdb890e3ad5f8b19481c95faf552e6c4684f90f369c",
            "0x0000000000000000000000000000000000000000000000000000000000001001"
          ],
          "data": "0x000000000000000000000000000000000000000000000000000000000000008000000000000000000000000000000000000000000000001b1ae4d6e2ef50000000000000000000000000000000000000000000000000000014d1120d7b16000000000000000000000000000000000000000000000000000006f02de04b74e00000000000000000000000000000000000000000000000000000000000000000057065727073000000000000000000000000000000000000000000000000000000",
          "blockHash": "0x944f3aca53cb27d3c52e9abcfb60b49f525fb87b9183d4a191b20ce8ff1a0ea3",
          "blockNumber": "0x4d",
          "blockTimestamp": "0x69d158b8",
          "transactionHash": "0x7c7a426886521b8d999df8baac18de9580d5cc6a3f3dacbf29e164263918ee63",
          "transactionIndex": "0x6",
          "logIndex": "0x5",
          "removed": false
        }
      ],
      "logsBloom": "0x00000000000000000000000000000000100000000000000000000000000000000000000000000000000000000000000000000000000000000000000000000000000000000000000000000000000100000000000000000000000000000000000000000000000000000020000000000000000000020000000000000000000000000000000000000000000000000000000000000000000000000000000000000000000000800000000400000000000000000000000000000000000000000000000000000000000000000000000000000000000800000000000000000000000000800000000000000000000000000000000000000000000000000000000000000002",
      "type": "0x2",
      "transactionHash": "0x7c7a426886521b8d999df8baac18de9580d5cc6a3f3dacbf29e164263918ee63",
      "transactionIndex": "0x6",
      "blockHash": "0x944f3aca53cb27d3c52e9abcfb60b49f525fb87b9183d4a191b20ce8ff1a0ea3",
      "blockNumber": "0x4d",
      "gasUsed": "0x3f662",
      "effectiveGasPrice": "0xdb0d",
      "blobGasPrice": "0x1",
      "from": "0xf39fd6e51aad88f6f4ce6ab8827279cfffb92266",
      "to": "0xf8e31cb472bc70500f08cd84917e5a1912ec8397",
      "contractAddress": null,
      "blockTimestamp": 1775327416
    },
    {
      "status": "0x1",
      "cumulativeGasUsed": "0x434f09",
      "logs": [
        {
          "address": "0xf8e31cb472bc70500f08cd84917e5a1912ec8397",
          "topics": [
            "0xe569346dc44a549a2dba8bdb890e3ad5f8b19481c95faf552e6c4684f90f369c",
            "0x0000000000000000000000000000000000000000000000000000000000001001"
          ],
          "data": "0x000000000000000000000000000000000000000000000000000000000000008000000000000000000000000000000000000000000000001043561a88293000000000000000000000000000000000000000000000000000000c7d713b49da00000000000000000000000000000000000000000000000000000429b5202d46200000000000000000000000000000000000000000000000000000000000000000057065727073000000000000000000000000000000000000000000000000000000",
          "blockHash": "0x944f3aca53cb27d3c52e9abcfb60b49f525fb87b9183d4a191b20ce8ff1a0ea3",
          "blockNumber": "0x4d",
          "blockTimestamp": "0x69d158b8",
          "transactionHash": "0x25c07ba0fa37854d6cad5640f40573820b0bdb1b24355e354a95d2c7845c9d4b",
          "transactionIndex": "0x7",
          "logIndex": "0x6",
          "removed": false
        }
      ],
      "logsBloom": "0x00000000000000000000000000000000100000000000000000000000000000000000000000000000000000000000000000000000000000000000000000000000000000000000000000000000000100000000000000000000000000000000000000000000000000000020000000000000000000020000000000000000000000000000000000000000000000000000000000000000000000000000000000000000000000800000000400000000000000000000000000000000000000000000000000000000000000000000000000000000000800000000000000000000000000800000000000000000000000000000000000000000000000000000000000000002",
      "type": "0x2",
      "transactionHash": "0x25c07ba0fa37854d6cad5640f40573820b0bdb1b24355e354a95d2c7845c9d4b",
      "transactionIndex": "0x7",
      "blockHash": "0x944f3aca53cb27d3c52e9abcfb60b49f525fb87b9183d4a191b20ce8ff1a0ea3",
      "blockNumber": "0x4d",
      "gasUsed": "0x15a6a",
      "effectiveGasPrice": "0xdb0d",
      "blobGasPrice": "0x1",
      "from": "0xf39fd6e51aad88f6f4ce6ab8827279cfffb92266",
      "to": "0xf8e31cb472bc70500f08cd84917e5a1912ec8397",
      "contractAddress": null,
      "blockTimestamp": 1775327416
    },
    {
      "status": "0x1",
      "cumulativeGasUsed": "0x4571cb",
      "logs": [
        {
          "address": "0xf8e31cb472bc70500f08cd84917e5a1912ec8397",
          "topics": [
            "0xe569346dc44a549a2dba8bdb890e3ad5f8b19481c95faf552e6c4684f90f369c",
            "0x0000000000000000000000000000000000000000000000000000000000001001"
          ],
          "data": "0x0000000000000000000000000000000000000000000000000000000000000080000000000000000000000000000000000000000000000002b5e3af16b18800000000000000000000000000000000000000000000000000000214e8348c4f000000000000000000000000000000000000000000000000000000b19e30078bb00000000000000000000000000000000000000000000000000000000000000000047377617000000000000000000000000000000000000000000000000000000000",
          "blockHash": "0x944f3aca53cb27d3c52e9abcfb60b49f525fb87b9183d4a191b20ce8ff1a0ea3",
          "blockNumber": "0x4d",
          "blockTimestamp": "0x69d158b8",
          "transactionHash": "0x6820138ffb93859b831b3984b1177cfc92f9d2b694e9d6f22287ac16ebf8533b",
          "transactionIndex": "0x8",
          "logIndex": "0x7",
          "removed": false
        }
      ],
      "logsBloom": "0x00000000000000000000000000000000100000000000000000000000000000000000000000000000000000000000000000000000000000000000000000000000000000000000000000000000000100000000000000000000000000000000000000000000000000000020000000000000000000020000000000000000000000000000000000000000000000000000000000000000000000000000000000000000000000800000000400000000000000000000000000000000000000000000000000000000000000000000000000000000000800000000000000000000000000800000000000000000000000000000000000000000000000000000000000000002",
      "type": "0x2",
      "transactionHash": "0x6820138ffb93859b831b3984b1177cfc92f9d2b694e9d6f22287ac16ebf8533b",
      "transactionIndex": "0x8",
      "blockHash": "0x944f3aca53cb27d3c52e9abcfb60b49f525fb87b9183d4a191b20ce8ff1a0ea3",
      "blockNumber": "0x4d",
      "gasUsed": "0x222c2",
      "effectiveGasPrice": "0xdb0d",
      "blobGasPrice": "0x1",
      "from": "0xf39fd6e51aad88f6f4ce6ab8827279cfffb92266",
      "to": "0xf8e31cb472bc70500f08cd84917e5a1912ec8397",
      "contractAddress": null,
      "blockTimestamp": 1775327416
    },
    {
      "status": "0x1",
      "cumulativeGasUsed": "0x464225",
      "logs": [],
      "logsBloom": "0x00000000000000000000000000000000000000000000000000000000000000000000000000000000000000000000000000000000000000000000000000000000000000000000000000000000000000000000000000000000000000000000000000000000000000000000000000000000000000000000000000000000000000000000000000000000000000000000000000000000000000000000000000000000000000000000000000000000000000000000000000000000000000000000000000000000000000000000000000000000000000000000000000000000000000000000000000000000000000000000000000000000000000000000000000000000",
      "type": "0x2",
      "transactionHash": "0xfc8f8defa62182dc03bc0545292a6073f411b3bf6cf6d0e978ddf31f6076f353",
      "transactionIndex": "0x9",
      "blockHash": "0x944f3aca53cb27d3c52e9abcfb60b49f525fb87b9183d4a191b20ce8ff1a0ea3",
      "blockNumber": "0x4d",
      "gasUsed": "0xd05a",
      "effectiveGasPrice": "0xdb0d",
      "blobGasPrice": "0x1",
      "from": "0xf39fd6e51aad88f6f4ce6ab8827279cfffb92266",
      "to": "0xf8e31cb472bc70500f08cd84917e5a1912ec8397",
      "contractAddress": null,
      "blockTimestamp": 1775327416
    },
    {
      "status": "0x1",
      "cumulativeGasUsed": "0x497017",
      "logs": [
        {
          "address": "0xf8e31cb472bc70500f08cd84917e5a1912ec8397",
          "topics": [
            "0xe569346dc44a549a2dba8bdb890e3ad5f8b19481c95faf552e6c4684f90f369c",
            "0x0000000000000000000000000000000000000000000000000000000000001002"
          ],
          "data": "0x000000000000000000000000000000000000000000000000000000000000008000000000000000000000000000000000000000000000000ad78ebc5ac62000000000000000000000000000000000000000000000000000000853a0d2313c000000000000000000000000000000000000000000000000000002c678c01e2ec00000000000000000000000000000000000000000000000000000000000000000046c656e6400000000000000000000000000000000000000000000000000000000",
          "blockHash": "0x944f3aca53cb27d3c52e9abcfb60b49f525fb87b9183d4a191b20ce8ff1a0ea3",
          "blockNumber": "0x4d",
          "blockTimestamp": "0x69d158b8",
          "transactionHash": "0xf5d4568318b8c681fae098dbe6c370a35285019e49533502df313e35ee8008c8",
          "transactionIndex": "0xa",
          "logIndex": "0x8",
          "removed": false
        }
      ],
      "logsBloom": "0x00000000000000000000000000000000100000000000000000000000000000000000000000000000000000000000000000000000000000000000000000000000000000000000000000000000000000000000000000000000000000000000000000000000000000000000000000000000000000020000000200000000001000000000000000000000000000000000000000000000000000000000000000000000000000000000000400000000000000000000000000000000000000000000000000000000040000000000000000000000000800000000000000000000000000800000000000000000000000000000000000000000000000000000000000000002",
      "type": "0x2",
      "transactionHash": "0xf5d4568318b8c681fae098dbe6c370a35285019e49533502df313e35ee8008c8",
      "transactionIndex": "0xa",
      "blockHash": "0x944f3aca53cb27d3c52e9abcfb60b49f525fb87b9183d4a191b20ce8ff1a0ea3",
      "blockNumber": "0x4d",
      "gasUsed": "0x32df2",
      "effectiveGasPrice": "0xdb0d",
      "blobGasPrice": "0x1",
      "from": "0xf39fd6e51aad88f6f4ce6ab8827279cfffb92266",
      "to": "0xf8e31cb472bc70500f08cd84917e5a1912ec8397",
      "contractAddress": null,
      "blockTimestamp": 1775327416
    },
    {
      "status": "0x1",
      "cumulativeGasUsed": "0x4b92e5",
      "logs": [
        {
          "address": "0xf8e31cb472bc70500f08cd84917e5a1912ec8397",
          "topics": [
            "0xe569346dc44a549a2dba8bdb890e3ad5f8b19481c95faf552e6c4684f90f369c",
            "0x0000000000000000000000000000000000000000000000000000000000001002"
          ],
          "data": "0x000000000000000000000000000000000000000000000000000000000000008000000000000000000000000000000000000000000000000821ab0d4414980000000000000000000000000000000000000000000000000000063eb89da4ed00000000000000000000000000000000000000000000000000000214da9016a3100000000000000000000000000000000000000000000000000000000000000000057969656c64000000000000000000000000000000000000000000000000000000",
          "blockHash": "0x944f3aca53cb27d3c52e9abcfb60b49f525fb87b9183d4a191b20ce8ff1a0ea3",
          "blockNumber": "0x4d",
          "blockTimestamp": "0x69d158b8",
          "transactionHash": "0x87761e7c98bb6bb10e7c3b7f83d9bfe754ce1e232a08497c165be7fab3eb7eb8",
          "transactionIndex": "0xb",
          "logIndex": "0x9",
          "removed": false
        }
      ],
      "logsBloom": "0x00000000000000000000000000000000100000000000000000000000000000000000000000000000000000000000000000000000000000000000000000000000000000000000000000000000000000000000000000000000000000000000000000000000000000000000000000000000000000020000000200000000001000000000000000000000000000000000000000000000000000000000000000000000000000000000000400000000000000000000000000000000000000000000000000000000040000000000000000000000000800000000000000000000000000800000000000000000000000000000000000000000000000000000000000000002",
      "type": "0x2",
      "transactionHash": "0x87761e7c98bb6bb10e7c3b7f83d9bfe754ce1e232a08497c165be7fab3eb7eb8",
      "transactionIndex": "0xb",
      "blockHash": "0x944f3aca53cb27d3c52e9abcfb60b49f525fb87b9183d4a191b20ce8ff1a0ea3",
      "blockNumber": "0x4d",
      "gasUsed": "0x222ce",
      "effectiveGasPrice": "0xdb0d",
      "blobGasPrice": "0x1",
      "from": "0xf39fd6e51aad88f6f4ce6ab8827279cfffb92266",
      "to": "0xf8e31cb472bc70500f08cd84917e5a1912ec8397",
      "contractAddress": null,
      "blockTimestamp": 1775327416
    },
    {
      "status": "0x1",
      "cumulativeGasUsed": "0x4db5a7",
      "logs": [
        {
          "address": "0xf8e31cb472bc70500f08cd84917e5a1912ec8397",
          "topics": [
            "0xe569346dc44a549a2dba8bdb890e3ad5f8b19481c95faf552e6c4684f90f369c",
            "0x0000000000000000000000000000000000000000000000000000000000001002"
          ],
          "data": "0x0000000000000000000000000000000000000000000000000000000000000080000000000000000000000000000000000000000000000004563918244f4000000000000000000000000000000000000000000000000000000354a6ba7a180000000000000000000000000000000000000000000000000000011c304cd8df800000000000000000000000000000000000000000000000000000000000000000047377617000000000000000000000000000000000000000000000000000000000",
          "blockHash": "0x944f3aca53cb27d3c52e9abcfb60b49f525fb87b9183d4a191b20ce8ff1a0ea3",
          "blockNumber": "0x4d",
          "blockTimestamp": "0x69d158b8",
          "transactionHash": "0x7470c86c8f16cd7c24354fa0c3457e2f6aa906181d9369cb49a8edef4d0656ff",
          "transactionIndex": "0xc",
          "logIndex": "0xa",
          "removed": false
        }
      ],
      "logsBloom": "0x00000000000000000000000000000000100000000000000000000000000000000000000000000000000000000000000000000000000000000000000000000000000000000000000000000000000000000000000000000000000000000000000000000000000000000000000000000000000000020000000200000000001000000000000000000000000000000000000000000000000000000000000000000000000000000000000400000000000000000000000000000000000000000000000000000000040000000000000000000000000800000000000000000000000000800000000000000000000000000000000000000000000000000000000000000002",
      "type": "0x2",
      "transactionHash": "0x7470c86c8f16cd7c24354fa0c3457e2f6aa906181d9369cb49a8edef4d0656ff",
      "transactionIndex": "0xc",
      "blockHash": "0x944f3aca53cb27d3c52e9abcfb60b49f525fb87b9183d4a191b20ce8ff1a0ea3",
      "blockNumber": "0x4d",
      "gasUsed": "0x222c2",
      "effectiveGasPrice": "0xdb0d",
      "blobGasPrice": "0x1",
      "from": "0xf39fd6e51aad88f6f4ce6ab8827279cfffb92266",
      "to": "0xf8e31cb472bc70500f08cd84917e5a1912ec8397",
      "contractAddress": null,
      "blockTimestamp": 1775327416
    },
    {
      "status": "0x1",
      "cumulativeGasUsed": "0x4e8601",
      "logs": [],
      "logsBloom": "0x00000000000000000000000000000000000000000000000000000000000000000000000000000000000000000000000000000000000000000000000000000000000000000000000000000000000000000000000000000000000000000000000000000000000000000000000000000000000000000000000000000000000000000000000000000000000000000000000000000000000000000000000000000000000000000000000000000000000000000000000000000000000000000000000000000000000000000000000000000000000000000000000000000000000000000000000000000000000000000000000000000000000000000000000000000000",
      "type": "0x2",
      "transactionHash": "0x121c789a54fbc0714f16673eea8ed9d328dbd8f8119a2ac0addbdb71be83c2f5",
      "transactionIndex": "0xd",
      "blockHash": "0x944f3aca53cb27d3c52e9abcfb60b49f525fb87b9183d4a191b20ce8ff1a0ea3",
      "blockNumber": "0x4d",
      "gasUsed": "0xd05a",
      "effectiveGasPrice": "0xdb0d",
      "blobGasPrice": "0x1",
      "from": "0xf39fd6e51aad88f6f4ce6ab8827279cfffb92266",
      "to": "0xf8e31cb472bc70500f08cd84917e5a1912ec8397",
      "contractAddress": null,
      "blockTimestamp": 1775327416
    },
    {
      "status": "0x1",
      "cumulativeGasUsed": "0x51b417",
      "logs": [
        {
          "address": "0xf8e31cb472bc70500f08cd84917e5a1912ec8397",
          "topics": [
            "0xe569346dc44a549a2dba8bdb890e3ad5f8b19481c95faf552e6c4684f90f369c",
            "0x0000000000000000000000000000000000000000000000000000000000001003"
          ],
          "data": "0x00000000000000000000000000000000000000000000000000000000000000800000000000000000000000000000000000000000000000056bc75e2d631000000000000000000000000000000000000000000000000000000429d069189e000000000000000000000000000000000000000000000000000001633c600f17600000000000000000000000000000000000000000000000000000000000000000077072656469637400000000000000000000000000000000000000000000000000",
          "blockHash": "0x944f3aca53cb27d3c52e9abcfb60b49f525fb87b9183d4a191b20ce8ff1a0ea3",
          "blockNumber": "0x4d",
          "blockTimestamp": "0x69d158b8",
          "transactionHash": "0xb753e0a5cefebc019df36c42a45a24564749c1f92b961b8d076ff2087d96d9f1",
          "transactionIndex": "0xe",
          "logIndex": "0xb",
          "removed": false
        }
      ],
      "logsBloom": "0x00000000000000000000000000000000100000000000000000000000010000000000000000000000000000000000000000000000000000000000000000000000000000000000000000000000000000000000000000000000000000000000000000000000000000000000000000000000000000020000000000000000000000000000000000000000000000000000000000000000000000000000000000000000000000000000000400000000000000000000000000000000000000000000000000000000000000000000000000000000000800000000000000000000000000800000000000020000000000000000000020000000000000000000000000000002",
      "type": "0x2",
      "transactionHash": "0xb753e0a5cefebc019df36c42a45a24564749c1f92b961b8d076ff2087d96d9f1",
      "transactionIndex": "0xe",
      "blockHash": "0x944f3aca53cb27d3c52e9abcfb60b49f525fb87b9183d4a191b20ce8ff1a0ea3",
      "blockNumber": "0x4d",
      "gasUsed": "0x32e16",
      "effectiveGasPrice": "0xdb0d",
      "blobGasPrice": "0x1",
      "from": "0xf39fd6e51aad88f6f4ce6ab8827279cfffb92266",
      "to": "0xf8e31cb472bc70500f08cd84917e5a1912ec8397",
      "contractAddress": null,
      "blockTimestamp": 1775327416
    },
    {
      "status": "0x1",
      "cumulativeGasUsed": "0x530ea5",
      "logs": [
        {
          "address": "0xf8e31cb472bc70500f08cd84917e5a1912ec8397",
          "topics": [
            "0xe569346dc44a549a2dba8bdb890e3ad5f8b19481c95faf552e6c4684f90f369c",
            "0x0000000000000000000000000000000000000000000000000000000000001003"
          ],
          "data": "0x000000000000000000000000000000000000000000000000000000000000008000000000000000000000000000000000000000000000000410d586a20a4c0000000000000000000000000000000000000000000000000000031f5c4ed2768000000000000000000000000000000000000000000000000000010a6d480b51880000000000000000000000000000000000000000000000000000000000000000077072656469637400000000000000000000000000000000000000000000000000",
          "blockHash": "0x944f3aca53cb27d3c52e9abcfb60b49f525fb87b9183d4a191b20ce8ff1a0ea3",
          "blockNumber": "0x4d",
          "blockTimestamp": "0x69d158b8",
          "transactionHash": "0x669a8b72099e65c79385c266a2f76e74f3dcaf40f932f30d12e68db2106ed68d",
          "transactionIndex": "0xf",
          "logIndex": "0xc",
          "removed": false
        }
      ],
      "logsBloom": "0x00000000000000000000000000000000100000000000000000000000010000000000000000000000000000000000000000000000000000000000000000000000000000000000000000000000000000000000000000000000000000000000000000000000000000000000000000000000000000020000000000000000000000000000000000000000000000000000000000000000000000000000000000000000000000000000000400000000000000000000000000000000000000000000000000000000000000000000000000000000000800000000000000000000000000800000000000020000000000000000000020000000000000000000000000000002",
      "type": "0x2",
      "transactionHash": "0x669a8b72099e65c79385c266a2f76e74f3dcaf40f932f30d12e68db2106ed68d",
      "transactionIndex": "0xf",
      "blockHash": "0x944f3aca53cb27d3c52e9abcfb60b49f525fb87b9183d4a191b20ce8ff1a0ea3",
      "blockNumber": "0x4d",
      "gasUsed": "0x15a8e",
      "effectiveGasPrice": "0xdb0d",
      "blobGasPrice": "0x1",
      "from": "0xf39fd6e51aad88f6f4ce6ab8827279cfffb92266",
      "to": "0xf8e31cb472bc70500f08cd84917e5a1912ec8397",
      "contractAddress": null,
      "blockTimestamp": 1775327416
    },
    {
      "status": "0x1",
      "cumulativeGasUsed": "0x553167",
      "logs": [
        {
          "address": "0xf8e31cb472bc70500f08cd84917e5a1912ec8397",
          "topics": [
            "0xe569346dc44a549a2dba8bdb890e3ad5f8b19481c95faf552e6c4684f90f369c",
            "0x0000000000000000000000000000000000000000000000000000000000001003"
          ],
          "data": "0x0000000000000000000000000000000000000000000000000000000000000080000000000000000000000000000000000000000000000001a055690d9db80000000000000000000000000000000000000000000000000000013fbe85edc90000000000000000000000000000000000000000000000000000006a921cd153d00000000000000000000000000000000000000000000000000000000000000000047377617000000000000000000000000000000000000000000000000000000000",
          "blockHash": "0x944f3aca53cb27d3c52e9abcfb60b49f525fb87b9183d4a191b20ce8ff1a0ea3",
          "blockNumber": "0x4d",
          "blockTimestamp": "0x69d158b8",
          "transactionHash": "0x843e3500623ce4e4119a8f78ae5e3b176675e6f4d71ff1f7ada1093fd9a0e0f9",
          "transactionIndex": "0x10",
          "logIndex": "0xd",
          "removed": false
        }
      ],
      "logsBloom": "0x00000000000000000000000000000000100000000000000000000000010000000000000000000000000000000000000000000000000000000000000000000000000000000000000000000000000000000000000000000000000000000000000000000000000000000000000000000000000000020000000000000000000000000000000000000000000000000000000000000000000000000000000000000000000000000000000400000000000000000000000000000000000000000000000000000000000000000000000000000000000800000000000000000000000000800000000000020000000000000000000020000000000000000000000000000002",
      "type": "0x2",
      "transactionHash": "0x843e3500623ce4e4119a8f78ae5e3b176675e6f4d71ff1f7ada1093fd9a0e0f9",
      "transactionIndex": "0x10",
      "blockHash": "0x944f3aca53cb27d3c52e9abcfb60b49f525fb87b9183d4a191b20ce8ff1a0ea3",
      "blockNumber": "0x4d",
      "gasUsed": "0x222c2",
      "effectiveGasPrice": "0xdb0d",
      "blobGasPrice": "0x1",
      "from": "0xf39fd6e51aad88f6f4ce6ab8827279cfffb92266",
      "to": "0xf8e31cb472bc70500f08cd84917e5a1912ec8397",
      "contractAddress": null,
      "blockTimestamp": 1775327416
    },
    {
      "status": "0x1",
      "cumulativeGasUsed": "0x5601b5",
      "logs": [],
      "logsBloom": "0x00000000000000000000000000000000000000000000000000000000000000000000000000000000000000000000000000000000000000000000000000000000000000000000000000000000000000000000000000000000000000000000000000000000000000000000000000000000000000000000000000000000000000000000000000000000000000000000000000000000000000000000000000000000000000000000000000000000000000000000000000000000000000000000000000000000000000000000000000000000000000000000000000000000000000000000000000000000000000000000000000000000000000000000000000000000",
      "type": "0x2",
      "transactionHash": "0x32cef81e3d6d5cade0f0af7870d48278f60c73b68edc8cce357ca3a81f5b98f3",
      "transactionIndex": "0x11",
      "blockHash": "0x944f3aca53cb27d3c52e9abcfb60b49f525fb87b9183d4a191b20ce8ff1a0ea3",
      "blockNumber": "0x4d",
      "gasUsed": "0xd04e",
      "effectiveGasPrice": "0xdb0d",
      "blobGasPrice": "0x1",
      "from": "0xf39fd6e51aad88f6f4ce6ab8827279cfffb92266",
      "to": "0xf8e31cb472bc70500f08cd84917e5a1912ec8397",
      "contractAddress": null,
      "blockTimestamp": 1775327416
    },
    {
      "status": "0x1",
      "cumulativeGasUsed": "0x592fb3",
      "logs": [
        {
          "address": "0xf8e31cb472bc70500f08cd84917e5a1912ec8397",
          "topics": [
            "0xe569346dc44a549a2dba8bdb890e3ad5f8b19481c95faf552e6c4684f90f369c",
            "0x0000000000000000000000000000000000000000000000000000000000001004"
          ],
          "data": "0x0000000000000000000000000000000000000000000000000000000000000080000000000000000000000000000000000000000000000015af1d78b58c40000000000000000000000000000000000000000000000000000010a741a462780000000000000000000000000000000000000000000000000000058cf1803c5d800000000000000000000000000000000000000000000000000000000000000000057065727073000000000000000000000000000000000000000000000000000000",
          "blockHash": "0x944f3aca53cb27d3c52e9abcfb60b49f525fb87b9183d4a191b20ce8ff1a0ea3",
          "blockNumber": "0x4d",
          "blockTimestamp": "0x69d158b8",
          "transactionHash": "0xc1d0503efffda477a60c96641da7757266bc7d7e97f67e1df4aac2f017f641c1",
          "transactionIndex": "0x12",
          "logIndex": "0xe",
          "removed": false
        }
      ],
      "logsBloom": "0x00000000000000000000000000000000100000000000000000400000000000000000000000000000000000000000000000000000000000000000000000000000000000000000000000000000000000000000000000000000000000000000000000000000000000000000000000000000000000020000000000000000000000000000000000000000000000000000000000000000000000000000000040000000000000000000000400000000000000000000000000000000000000000008000000000000000000000000000000000000000800000000000000000000000000800000000000000000000000000000000000000000000000000000000000000002",
      "type": "0x2",
      "transactionHash": "0xc1d0503efffda477a60c96641da7757266bc7d7e97f67e1df4aac2f017f641c1",
      "transactionIndex": "0x12",
      "blockHash": "0x944f3aca53cb27d3c52e9abcfb60b49f525fb87b9183d4a191b20ce8ff1a0ea3",
      "blockNumber": "0x4d",
      "gasUsed": "0x32dfe",
      "effectiveGasPrice": "0xdb0d",
      "blobGasPrice": "0x1",
      "from": "0xf39fd6e51aad88f6f4ce6ab8827279cfffb92266",
      "to": "0xf8e31cb472bc70500f08cd84917e5a1912ec8397",
      "contractAddress": null,
      "blockTimestamp": 1775327416
    },
    {
      "status": "0x1",
      "cumulativeGasUsed": "0x5b5275",
      "logs": [
        {
          "address": "0xf8e31cb472bc70500f08cd84917e5a1912ec8397",
          "topics": [
            "0xe569346dc44a549a2dba8bdb890e3ad5f8b19481c95faf552e6c4684f90f369c",
            "0x0000000000000000000000000000000000000000000000000000000000001004"
          ],
          "data": "0x0000000000000000000000000000000000000000000000000000000000000080000000000000000000000000000000000000000000000015af1d78b58c40000000000000000000000000000000000000000000000000000010a741a462780000000000000000000000000000000000000000000000000000058cf1803c5d800000000000000000000000000000000000000000000000000000000000000000047377617000000000000000000000000000000000000000000000000000000000",
          "blockHash": "0x944f3aca53cb27d3c52e9abcfb60b49f525fb87b9183d4a191b20ce8ff1a0ea3",
          "blockNumber": "0x4d",
          "blockTimestamp": "0x69d158b8",
          "transactionHash": "0x24409018d7b08eeffb83f5dbe635ad356ec0517bed5685f40262380bc0bcfb90",
          "transactionIndex": "0x13",
          "logIndex": "0xf",
          "removed": false
        }
      ],
      "logsBloom": "0x00000000000000000000000000000000100000000000000000400000000000000000000000000000000000000000000000000000000000000000000000000000000000000000000000000000000000000000000000000000000000000000000000000000000000000000000000000000000000020000000000000000000000000000000000000000000000000000000000000000000000000000000040000000000000000000000400000000000000000000000000000000000000000008000000000000000000000000000000000000000800000000000000000000000000800000000000000000000000000000000000000000000000000000000000000002",
      "type": "0x2",
      "transactionHash": "0x24409018d7b08eeffb83f5dbe635ad356ec0517bed5685f40262380bc0bcfb90",
      "transactionIndex": "0x13",
      "blockHash": "0x944f3aca53cb27d3c52e9abcfb60b49f525fb87b9183d4a191b20ce8ff1a0ea3",
      "blockNumber": "0x4d",
      "gasUsed": "0x222c2",
      "effectiveGasPrice": "0xdb0d",
      "blobGasPrice": "0x1",
      "from": "0xf39fd6e51aad88f6f4ce6ab8827279cfffb92266",
      "to": "0xf8e31cb472bc70500f08cd84917e5a1912ec8397",
      "contractAddress": null,
      "blockTimestamp": 1775327416
    },
    {
      "status": "0x1",
      "cumulativeGasUsed": "0x5d7537",
      "logs": [
        {
          "address": "0xf8e31cb472bc70500f08cd84917e5a1912ec8397",
          "topics": [
            "0xe569346dc44a549a2dba8bdb890e3ad5f8b19481c95faf552e6c4684f90f369c",
            "0x0000000000000000000000000000000000000000000000000000000000001004"
          ],
          "data": "0x00000000000000000000000000000000000000000000000000000000000000800000000000000000000000000000000000000000000000056bc75e2d631000000000000000000000000000000000000000000000000000000429d069189e000000000000000000000000000000000000000000000000000001633c600f17600000000000000000000000000000000000000000000000000000000000000000046c656e6400000000000000000000000000000000000000000000000000000000",
          "blockHash": "0x944f3aca53cb27d3c52e9abcfb60b49f525fb87b9183d4a191b20ce8ff1a0ea3",
          "blockNumber": "0x4d",
          "blockTimestamp": "0x69d158b8",
          "transactionHash": "0x402878f575ed9994beb08f5563de7a61c2fc9c9442d89153e94108cf6c176532",
          "transactionIndex": "0x14",
          "logIndex": "0x10",
          "removed": false
        }
      ],
      "logsBloom": "0x00000000000000000000000000000000100000000000000000400000000000000000000000000000000000000000000000000000000000000000000000000000000000000000000000000000000000000000000000000000000000000000000000000000000000000000000000000000000000020000000000000000000000000000000000000000000000000000000000000000000000000000000040000000000000000000000400000000000000000000000000000000000000000008000000000000000000000000000000000000000800000000000000000000000000800000000000000000000000000000000000000000000000000000000000000002",
      "type": "0x2",
      "transactionHash": "0x402878f575ed9994beb08f5563de7a61c2fc9c9442d89153e94108cf6c176532",
      "transactionIndex": "0x14",
      "blockHash": "0x944f3aca53cb27d3c52e9abcfb60b49f525fb87b9183d4a191b20ce8ff1a0ea3",
      "blockNumber": "0x4d",
      "gasUsed": "0x222c2",
      "effectiveGasPrice": "0xdb0d",
      "blobGasPrice": "0x1",
      "from": "0xf39fd6e51aad88f6f4ce6ab8827279cfffb92266",
      "to": "0xf8e31cb472bc70500f08cd84917e5a1912ec8397",
      "contractAddress": null,
      "blockTimestamp": 1775327416
    },
    {
      "status": "0x1",
      "cumulativeGasUsed": "0x5e3db5",
      "logs": [],
      "logsBloom": "0x00000000000000000000000000000000000000000000000000000000000000000000000000000000000000000000000000000000000000000000000000000000000000000000000000000000000000000000000000000000000000000000000000000000000000000000000000000000000000000000000000000000000000000000000000000000000000000000000000000000000000000000000000000000000000000000000000000000000000000000000000000000000000000000000000000000000000000000000000000000000000000000000000000000000000000000000000000000000000000000000000000000000000000000000000000000",
      "type": "0x2",
      "transactionHash": "0xd3edbca0f303639679f7a4fc4a08c67993c764cf6dbd6fdabbfe28c214b95545",
      "transactionIndex": "0x15",
      "blockHash": "0x944f3aca53cb27d3c52e9abcfb60b49f525fb87b9183d4a191b20ce8ff1a0ea3",
      "blockNumber": "0x4d",
      "gasUsed": "0xc87e",
      "effectiveGasPrice": "0xdb0d",
      "blobGasPrice": "0x1",
      "from": "0xf39fd6e51aad88f6f4ce6ab8827279cfffb92266",
      "to": "0xf8e31cb472bc70500f08cd84917e5a1912ec8397",
      "contractAddress": null,
      "blockTimestamp": 1775327416
    },
    {
      "status": "0x1",
      "cumulativeGasUsed": "0x616b9b",
      "logs": [
        {
          "address": "0xf8e31cb472bc70500f08cd84917e5a1912ec8397",
          "topics": [
            "0xe569346dc44a549a2dba8bdb890e3ad5f8b19481c95faf552e6c4684f90f369c",
            "0x0000000000000000000000000000000000000000000000000000000000001005"
          ],
          "data": "0x0000000000000000000000000000000000000000000000000000000000000080000000000000000000000000000000000000000000000001158e460913d0000000000000000000000000000000000000000000000000000000d529ae9e86000000000000000000000000000000000000000000000000000000470c133637e00000000000000000000000000000000000000000000000000000000000000000047377617000000000000000000000000000000000000000000000000000000000",
          "blockHash": "0x944f3aca53cb27d3c52e9abcfb60b49f525fb87b9183d4a191b20ce8ff1a0ea3",
          "blockNumber": "0x4d",
          "blockTimestamp": "0x69d158b8",
          "transactionHash": "0x7bf502a46b51ef23aa17d73c345d83d1035bbe7d152d60e5c75d678f2ceb1c78",
          "transactionIndex": "0x16",
          "logIndex": "0x11",
          "removed": false
        }
      ],
      "logsBloom": "0x00000000000000000000000000000000100000000000000000000000000000000000000000000000000000000000000000000000000000000000000000000000000000000000000000004000000000000800080000000000000000000000000000000000000000000000000000000000000000020000000000000000000000000000000000000000000000000000000000000000000000000000000000000000000000000000000400000000000000000000000000000000000000000000000000000000000000000000000000000000000800000000000000000000000000800000000000000000000000000000000000000000000000000000000000000002",
      "type": "0x2",
      "transactionHash": "0x7bf502a46b51ef23aa17d73c345d83d1035bbe7d152d60e5c75d678f2ceb1c78",
      "transactionIndex": "0x16",
      "blockHash": "0x944f3aca53cb27d3c52e9abcfb60b49f525fb87b9183d4a191b20ce8ff1a0ea3",
      "blockNumber": "0x4d",
      "gasUsed": "0x32de6",
      "effectiveGasPrice": "0xdb0d",
      "blobGasPrice": "0x1",
      "from": "0xf39fd6e51aad88f6f4ce6ab8827279cfffb92266",
      "to": "0xf8e31cb472bc70500f08cd84917e5a1912ec8397",
      "contractAddress": null,
      "blockTimestamp": 1775327416
    },
    {
      "status": "0x1",
      "cumulativeGasUsed": "0x62c5ed",
      "logs": [
        {
          "address": "0xf8e31cb472bc70500f08cd84917e5a1912ec8397",
          "topics": [
            "0xe569346dc44a549a2dba8bdb890e3ad5f8b19481c95faf552e6c4684f90f369c",
            "0x0000000000000000000000000000000000000000000000000000000000001005"
          ],
          "data": "0x0000000000000000000000000000000000000000000000000000000000000080000000000000000000000000000000000000000000000001158e460913d0000000000000000000000000000000000000000000000000000000d529ae9e86000000000000000000000000000000000000000000000000000000470c133637e00000000000000000000000000000000000000000000000000000000000000000047377617000000000000000000000000000000000000000000000000000000000",
          "blockHash": "0x944f3aca53cb27d3c52e9abcfb60b49f525fb87b9183d4a191b20ce8ff1a0ea3",
          "blockNumber": "0x4d",
          "blockTimestamp": "0x69d158b8",
          "transactionHash": "0x3e85efed44ac4502db770ddb8d048a18bbe725853cdef2625989914b6d3f4fab",
          "transactionIndex": "0x17",
          "logIndex": "0x12",
          "removed": false
        }
      ],
      "logsBloom": "0x00000000000000000000000000000000100000000000000000000000000000000000000000000000000000000000000000000000000000000000000000000000000000000000000000004000000000000800080000000000000000000000000000000000000000000000000000000000000000020000000000000000000000000000000000000000000000000000000000000000000000000000000000000000000000000000000400000000000000000000000000000000000000000000000000000000000000000000000000000000000800000000000000000000000000800000000000000000000000000000000000000000000000000000000000000002",
      "type": "0x2",
      "transactionHash": "0x3e85efed44ac4502db770ddb8d048a18bbe725853cdef2625989914b6d3f4fab",
      "transactionIndex": "0x17",
      "blockHash": "0x944f3aca53cb27d3c52e9abcfb60b49f525fb87b9183d4a191b20ce8ff1a0ea3",
      "blockNumber": "0x4d",
      "gasUsed": "0x15a52",
      "effectiveGasPrice": "0xdb0d",
      "blobGasPrice": "0x1",
      "from": "0xf39fd6e51aad88f6f4ce6ab8827279cfffb92266",
      "to": "0xf8e31cb472bc70500f08cd84917e5a1912ec8397",
      "contractAddress": null,
      "blockTimestamp": 1775327416
    },
    {
      "status": "0x1",
      "cumulativeGasUsed": "0x64203f",
      "logs": [
        {
          "address": "0xf8e31cb472bc70500f08cd84917e5a1912ec8397",
          "topics": [
            "0xe569346dc44a549a2dba8bdb890e3ad5f8b19481c95faf552e6c4684f90f369c",
            "0x0000000000000000000000000000000000000000000000000000000000001005"
          ],
          "data": "0x0000000000000000000000000000000000000000000000000000000000000080000000000000000000000000000000000000000000000001158e460913d0000000000000000000000000000000000000000000000000000000d529ae9e86000000000000000000000000000000000000000000000000000000470c133637e00000000000000000000000000000000000000000000000000000000000000000047377617000000000000000000000000000000000000000000000000000000000",
          "blockHash": "0x944f3aca53cb27d3c52e9abcfb60b49f525fb87b9183d4a191b20ce8ff1a0ea3",
          "blockNumber": "0x4d",
          "blockTimestamp": "0x69d158b8",
          "transactionHash": "0x9f05d169d4439f9d0aa092168272db6f54149fc680b73dd802394d3ad110f3a8",
          "transactionIndex": "0x18",
          "logIndex": "0x13",
          "removed": false
        }
      ],
      "logsBloom": "0x00000000000000000000000000000000100000000000000000000000000000000000000000000000000000000000000000000000000000000000000000000000000000000000000000004000000000000800080000000000000000000000000000000000000000000000000000000000000000020000000000000000000000000000000000000000000000000000000000000000000000000000000000000000000000000000000400000000000000000000000000000000000000000000000000000000000000000000000000000000000800000000000000000000000000800000000000000000000000000000000000000000000000000000000000000002",
      "type": "0x2",
      "transactionHash": "0x9f05d169d4439f9d0aa092168272db6f54149fc680b73dd802394d3ad110f3a8",
      "transactionIndex": "0x18",
      "blockHash": "0x944f3aca53cb27d3c52e9abcfb60b49f525fb87b9183d4a191b20ce8ff1a0ea3",
      "blockNumber": "0x4d",
      "gasUsed": "0x15a52",
      "effectiveGasPrice": "0xdb0d",
      "blobGasPrice": "0x1",
      "from": "0xf39fd6e51aad88f6f4ce6ab8827279cfffb92266",
      "to": "0xf8e31cb472bc70500f08cd84917e5a1912ec8397",
      "contractAddress": null,
      "blockTimestamp": 1775327416
    },
    {
      "status": "0x1",
      "cumulativeGasUsed": "0x657a91",
      "logs": [
        {
          "address": "0xf8e31cb472bc70500f08cd84917e5a1912ec8397",
          "topics": [
            "0xe569346dc44a549a2dba8bdb890e3ad5f8b19481c95faf552e6c4684f90f369c",
            "0x0000000000000000000000000000000000000000000000000000000000001005"
          ],
          "data": "0x0000000000000000000000000000000000000000000000000000000000000080000000000000000000000000000000000000000000000001158e460913d0000000000000000000000000000000000000000000000000000000d529ae9e86000000000000000000000000000000000000000000000000000000470c133637e00000000000000000000000000000000000000000000000000000000000000000047377617000000000000000000000000000000000000000000000000000000000",
          "blockHash": "0x944f3aca53cb27d3c52e9abcfb60b49f525fb87b9183d4a191b20ce8ff1a0ea3",
          "blockNumber": "0x4d",
          "blockTimestamp": "0x69d158b8",
          "transactionHash": "0x9ce19a624716c95da008f3c0a5d2446b28cc12173fbda18a3f18ef7889a40bb4",
          "transactionIndex": "0x19",
          "logIndex": "0x14",
          "removed": false
        }
      ],
      "logsBloom": "0x00000000000000000000000000000000100000000000000000000000000000000000000000000000000000000000000000000000000000000000000000000000000000000000000000004000000000000800080000000000000000000000000000000000000000000000000000000000000000020000000000000000000000000000000000000000000000000000000000000000000000000000000000000000000000000000000400000000000000000000000000000000000000000000000000000000000000000000000000000000000800000000000000000000000000800000000000000000000000000000000000000000000000000000000000000002",
      "type": "0x2",
      "transactionHash": "0x9ce19a624716c95da008f3c0a5d2446b28cc12173fbda18a3f18ef7889a40bb4",
      "transactionIndex": "0x19",
      "blockHash": "0x944f3aca53cb27d3c52e9abcfb60b49f525fb87b9183d4a191b20ce8ff1a0ea3",
      "blockNumber": "0x4d",
      "gasUsed": "0x15a52",
      "effectiveGasPrice": "0xdb0d",
      "blobGasPrice": "0x1",
      "from": "0xf39fd6e51aad88f6f4ce6ab8827279cfffb92266",
      "to": "0xf8e31cb472bc70500f08cd84917e5a1912ec8397",
      "contractAddress": null,
      "blockTimestamp": 1775327416
    },
    {
      "status": "0x1",
      "cumulativeGasUsed": "0x66d4e3",
      "logs": [
        {
          "address": "0xf8e31cb472bc70500f08cd84917e5a1912ec8397",
          "topics": [
            "0xe569346dc44a549a2dba8bdb890e3ad5f8b19481c95faf552e6c4684f90f369c",
            "0x0000000000000000000000000000000000000000000000000000000000001005"
          ],
          "data": "0x0000000000000000000000000000000000000000000000000000000000000080000000000000000000000000000000000000000000000001158e460913d0000000000000000000000000000000000000000000000000000000d529ae9e86000000000000000000000000000000000000000000000000000000470c133637e00000000000000000000000000000000000000000000000000000000000000000047377617000000000000000000000000000000000000000000000000000000000",
          "blockHash": "0x944f3aca53cb27d3c52e9abcfb60b49f525fb87b9183d4a191b20ce8ff1a0ea3",
          "blockNumber": "0x4d",
          "blockTimestamp": "0x69d158b8",
          "transactionHash": "0xc664be537b4245d362921cab55ce12cc78ef3ae5fb68777020cccc1138ff0e44",
          "transactionIndex": "0x1a",
          "logIndex": "0x15",
          "removed": false
        }
      ],
      "logsBloom": "0x00000000000000000000000000000000100000000000000000000000000000000000000000000000000000000000000000000000000000000000000000000000000000000000000000004000000000000800080000000000000000000000000000000000000000000000000000000000000000020000000000000000000000000000000000000000000000000000000000000000000000000000000000000000000000000000000400000000000000000000000000000000000000000000000000000000000000000000000000000000000800000000000000000000000000800000000000000000000000000000000000000000000000000000000000000002",
      "type": "0x2",
      "transactionHash": "0xc664be537b4245d362921cab55ce12cc78ef3ae5fb68777020cccc1138ff0e44",
      "transactionIndex": "0x1a",
      "blockHash": "0x944f3aca53cb27d3c52e9abcfb60b49f525fb87b9183d4a191b20ce8ff1a0ea3",
      "blockNumber": "0x4d",
      "gasUsed": "0x15a52",
      "effectiveGasPrice": "0xdb0d",
      "blobGasPrice": "0x1",
      "from": "0xf39fd6e51aad88f6f4ce6ab8827279cfffb92266",
      "to": "0xf8e31cb472bc70500f08cd84917e5a1912ec8397",
      "contractAddress": null,
      "blockTimestamp": 1775327416
    },
    {
      "status": "0x1",
      "cumulativeGasUsed": "0x682f35",
      "logs": [
        {
          "address": "0xf8e31cb472bc70500f08cd84917e5a1912ec8397",
          "topics": [
            "0xe569346dc44a549a2dba8bdb890e3ad5f8b19481c95faf552e6c4684f90f369c",
            "0x0000000000000000000000000000000000000000000000000000000000001005"
          ],
          "data": "0x0000000000000000000000000000000000000000000000000000000000000080000000000000000000000000000000000000000000000001158e460913d0000000000000000000000000000000000000000000000000000000d529ae9e86000000000000000000000000000000000000000000000000000000470c133637e00000000000000000000000000000000000000000000000000000000000000000047377617000000000000000000000000000000000000000000000000000000000",
          "blockHash": "0x944f3aca53cb27d3c52e9abcfb60b49f525fb87b9183d4a191b20ce8ff1a0ea3",
          "blockNumber": "0x4d",
          "blockTimestamp": "0x69d158b8",
          "transactionHash": "0x68c4335b2151bc51651376e007387c3846615245024883ea33489f13b9d65d22",
          "transactionIndex": "0x1b",
          "logIndex": "0x16",
          "removed": false
        }
      ],
      "logsBloom": "0x00000000000000000000000000000000100000000000000000000000000000000000000000000000000000000000000000000000000000000000000000000000000000000000000000004000000000000800080000000000000000000000000000000000000000000000000000000000000000020000000000000000000000000000000000000000000000000000000000000000000000000000000000000000000000000000000400000000000000000000000000000000000000000000000000000000000000000000000000000000000800000000000000000000000000800000000000000000000000000000000000000000000000000000000000000002",
      "type": "0x2",
      "transactionHash": "0x68c4335b2151bc51651376e007387c3846615245024883ea33489f13b9d65d22",
      "transactionIndex": "0x1b",
      "blockHash": "0x944f3aca53cb27d3c52e9abcfb60b49f525fb87b9183d4a191b20ce8ff1a0ea3",
      "blockNumber": "0x4d",
      "gasUsed": "0x15a52",
      "effectiveGasPrice": "0xdb0d",
      "blobGasPrice": "0x1",
      "from": "0xf39fd6e51aad88f6f4ce6ab8827279cfffb92266",
      "to": "0xf8e31cb472bc70500f08cd84917e5a1912ec8397",
      "contractAddress": null,
      "blockTimestamp": 1775327416
    },
    {
      "status": "0x1",
      "cumulativeGasUsed": "0x698987",
      "logs": [
        {
          "address": "0xf8e31cb472bc70500f08cd84917e5a1912ec8397",
          "topics": [
            "0xe569346dc44a549a2dba8bdb890e3ad5f8b19481c95faf552e6c4684f90f369c",
            "0x0000000000000000000000000000000000000000000000000000000000001005"
          ],
          "data": "0x0000000000000000000000000000000000000000000000000000000000000080000000000000000000000000000000000000000000000001158e460913d0000000000000000000000000000000000000000000000000000000d529ae9e86000000000000000000000000000000000000000000000000000000470c133637e00000000000000000000000000000000000000000000000000000000000000000047377617000000000000000000000000000000000000000000000000000000000",
          "blockHash": "0x944f3aca53cb27d3c52e9abcfb60b49f525fb87b9183d4a191b20ce8ff1a0ea3",
          "blockNumber": "0x4d",
          "blockTimestamp": "0x69d158b8",
          "transactionHash": "0x7c197d8bcf2a13a75c13b9d4a5a28b725e407c2121ce78aea5068c55d6a5db29",
          "transactionIndex": "0x1c",
          "logIndex": "0x17",
          "removed": false
        }
      ],
      "logsBloom": "0x00000000000000000000000000000000100000000000000000000000000000000000000000000000000000000000000000000000000000000000000000000000000000000000000000004000000000000800080000000000000000000000000000000000000000000000000000000000000000020000000000000000000000000000000000000000000000000000000000000000000000000000000000000000000000000000000400000000000000000000000000000000000000000000000000000000000000000000000000000000000800000000000000000000000000800000000000000000000000000000000000000000000000000000000000000002",
      "type": "0x2",
      "transactionHash": "0x7c197d8bcf2a13a75c13b9d4a5a28b725e407c2121ce78aea5068c55d6a5db29",
      "transactionIndex": "0x1c",
      "blockHash": "0x944f3aca53cb27d3c52e9abcfb60b49f525fb87b9183d4a191b20ce8ff1a0ea3",
      "blockNumber": "0x4d",
      "gasUsed": "0x15a52",
      "effectiveGasPrice": "0xdb0d",
      "blobGasPrice": "0x1",
      "from": "0xf39fd6e51aad88f6f4ce6ab8827279cfffb92266",
      "to": "0xf8e31cb472bc70500f08cd84917e5a1912ec8397",
      "contractAddress": null,
      "blockTimestamp": 1775327416
    },
    {
      "status": "0x1",
      "cumulativeGasUsed": "0x6ae3d9",
      "logs": [
        {
          "address": "0xf8e31cb472bc70500f08cd84917e5a1912ec8397",
          "topics": [
            "0xe569346dc44a549a2dba8bdb890e3ad5f8b19481c95faf552e6c4684f90f369c",
            "0x0000000000000000000000000000000000000000000000000000000000001005"
          ],
          "data": "0x0000000000000000000000000000000000000000000000000000000000000080000000000000000000000000000000000000000000000001158e460913d0000000000000000000000000000000000000000000000000000000d529ae9e86000000000000000000000000000000000000000000000000000000470c133637e00000000000000000000000000000000000000000000000000000000000000000047377617000000000000000000000000000000000000000000000000000000000",
          "blockHash": "0x944f3aca53cb27d3c52e9abcfb60b49f525fb87b9183d4a191b20ce8ff1a0ea3",
          "blockNumber": "0x4d",
          "blockTimestamp": "0x69d158b8",
          "transactionHash": "0x67a92c7e9a808cac203bdd454d9746bbb539375b12a0827e5576ab4a0e51be40",
          "transactionIndex": "0x1d",
          "logIndex": "0x18",
          "removed": false
        }
      ],
      "logsBloom": "0x00000000000000000000000000000000100000000000000000000000000000000000000000000000000000000000000000000000000000000000000000000000000000000000000000004000000000000800080000000000000000000000000000000000000000000000000000000000000000020000000000000000000000000000000000000000000000000000000000000000000000000000000000000000000000000000000400000000000000000000000000000000000000000000000000000000000000000000000000000000000800000000000000000000000000800000000000000000000000000000000000000000000000000000000000000002",
      "type": "0x2",
      "transactionHash": "0x67a92c7e9a808cac203bdd454d9746bbb539375b12a0827e5576ab4a0e51be40",
      "transactionIndex": "0x1d",
      "blockHash": "0x944f3aca53cb27d3c52e9abcfb60b49f525fb87b9183d4a191b20ce8ff1a0ea3",
      "blockNumber": "0x4d",
      "gasUsed": "0x15a52",
      "effectiveGasPrice": "0xdb0d",
      "blobGasPrice": "0x1",
      "from": "0xf39fd6e51aad88f6f4ce6ab8827279cfffb92266",
      "to": "0xf8e31cb472bc70500f08cd84917e5a1912ec8397",
      "contractAddress": null,
      "blockTimestamp": 1775327416
    },
    {
      "status": "0x1",
      "cumulativeGasUsed": "0x6c3e2b",
      "logs": [
        {
          "address": "0xf8e31cb472bc70500f08cd84917e5a1912ec8397",
          "topics": [
            "0xe569346dc44a549a2dba8bdb890e3ad5f8b19481c95faf552e6c4684f90f369c",
            "0x0000000000000000000000000000000000000000000000000000000000001005"
          ],
          "data": "0x0000000000000000000000000000000000000000000000000000000000000080000000000000000000000000000000000000000000000001158e460913d0000000000000000000000000000000000000000000000000000000d529ae9e86000000000000000000000000000000000000000000000000000000470c133637e00000000000000000000000000000000000000000000000000000000000000000047377617000000000000000000000000000000000000000000000000000000000",
          "blockHash": "0x944f3aca53cb27d3c52e9abcfb60b49f525fb87b9183d4a191b20ce8ff1a0ea3",
          "blockNumber": "0x4d",
          "blockTimestamp": "0x69d158b8",
          "transactionHash": "0xa0574c78390bcefe47564e4600e08a6d279d113a98faecd20aed153a7775b5e1",
          "transactionIndex": "0x1e",
          "logIndex": "0x19",
          "removed": false
        }
      ],
      "logsBloom": "0x00000000000000000000000000000000100000000000000000000000000000000000000000000000000000000000000000000000000000000000000000000000000000000000000000004000000000000800080000000000000000000000000000000000000000000000000000000000000000020000000000000000000000000000000000000000000000000000000000000000000000000000000000000000000000000000000400000000000000000000000000000000000000000000000000000000000000000000000000000000000800000000000000000000000000800000000000000000000000000000000000000000000000000000000000000002",
      "type": "0x2",
      "transactionHash": "0xa0574c78390bcefe47564e4600e08a6d279d113a98faecd20aed153a7775b5e1",
      "transactionIndex": "0x1e",
      "blockHash": "0x944f3aca53cb27d3c52e9abcfb60b49f525fb87b9183d4a191b20ce8ff1a0ea3",
      "blockNumber": "0x4d",
      "gasUsed": "0x15a52",
      "effectiveGasPrice": "0xdb0d",
      "blobGasPrice": "0x1",
      "from": "0xf39fd6e51aad88f6f4ce6ab8827279cfffb92266",
      "to": "0xf8e31cb472bc70500f08cd84917e5a1912ec8397",
      "contractAddress": null,
      "blockTimestamp": 1775327416
    },
    {
      "status": "0x1",
      "cumulativeGasUsed": "0x6d987d",
      "logs": [
        {
          "address": "0xf8e31cb472bc70500f08cd84917e5a1912ec8397",
          "topics": [
            "0xe569346dc44a549a2dba8bdb890e3ad5f8b19481c95faf552e6c4684f90f369c",
            "0x0000000000000000000000000000000000000000000000000000000000001005"
          ],
          "data": "0x0000000000000000000000000000000000000000000000000000000000000080000000000000000000000000000000000000000000000001158e460913d0000000000000000000000000000000000000000000000000000000d529ae9e86000000000000000000000000000000000000000000000000000000470c133637e00000000000000000000000000000000000000000000000000000000000000000047377617000000000000000000000000000000000000000000000000000000000",
          "blockHash": "0x944f3aca53cb27d3c52e9abcfb60b49f525fb87b9183d4a191b20ce8ff1a0ea3",
          "blockNumber": "0x4d",
          "blockTimestamp": "0x69d158b8",
          "transactionHash": "0x8ed08dc3aed9314bf31b1c3cabe3037a4e561c5c76e57dcb5acd4330ca30ce3e",
          "transactionIndex": "0x1f",
          "logIndex": "0x1a",
          "removed": false
        }
      ],
      "logsBloom": "0x00000000000000000000000000000000100000000000000000000000000000000000000000000000000000000000000000000000000000000000000000000000000000000000000000004000000000000800080000000000000000000000000000000000000000000000000000000000000000020000000000000000000000000000000000000000000000000000000000000000000000000000000000000000000000000000000400000000000000000000000000000000000000000000000000000000000000000000000000000000000800000000000000000000000000800000000000000000000000000000000000000000000000000000000000000002",
      "type": "0x2",
      "transactionHash": "0x8ed08dc3aed9314bf31b1c3cabe3037a4e561c5c76e57dcb5acd4330ca30ce3e",
      "transactionIndex": "0x1f",
      "blockHash": "0x944f3aca53cb27d3c52e9abcfb60b49f525fb87b9183d4a191b20ce8ff1a0ea3",
      "blockNumber": "0x4d",
      "gasUsed": "0x15a52",
      "effectiveGasPrice": "0xdb0d",
      "blobGasPrice": "0x1",
      "from": "0xf39fd6e51aad88f6f4ce6ab8827279cfffb92266",
      "to": "0xf8e31cb472bc70500f08cd84917e5a1912ec8397",
      "contractAddress": null,
      "blockTimestamp": 1775327416
    },
    {
      "status": "0x1",
      "cumulativeGasUsed": "0x6fbb63",
      "logs": [
        {
          "address": "0xf8e31cb472bc70500f08cd84917e5a1912ec8397",
          "topics": [
            "0xe569346dc44a549a2dba8bdb890e3ad5f8b19481c95faf552e6c4684f90f369c",
            "0x0000000000000000000000000000000000000000000000000000000000001005"
          ],
          "data": "0x0000000000000000000000000000000000000000000000000000000000000080000000000000000000000000000000000000000000000002b5e3af16b18800000000000000000000000000000000000000000000000000000214e8348c4f000000000000000000000000000000000000000000000000000000b19e30078bb00000000000000000000000000000000000000000000000000000000000000000077072656469637400000000000000000000000000000000000000000000000000",
          "blockHash": "0x944f3aca53cb27d3c52e9abcfb60b49f525fb87b9183d4a191b20ce8ff1a0ea3",
          "blockNumber": "0x4d",
          "blockTimestamp": "0x69d158b8",
          "transactionHash": "0xec72adb45a788fb73ac9e37fa1be5a6b5326e10cdf3c1fda57bfcbcc04f88c69",
          "transactionIndex": "0x20",
          "logIndex": "0x1b",
          "removed": false
        }
      ],
      "logsBloom": "0x00000000000000000000000000000000100000000000000000000000000000000000000000000000000000000000000000000000000000000000000000000000000000000000000000004000000000000800080000000000000000000000000000000000000000000000000000000000000000020000000000000000000000000000000000000000000000000000000000000000000000000000000000000000000000000000000400000000000000000000000000000000000000000000000000000000000000000000000000000000000800000000000000000000000000800000000000000000000000000000000000000000000000000000000000000002",
      "type": "0x2",
      "transactionHash": "0xec72adb45a788fb73ac9e37fa1be5a6b5326e10cdf3c1fda57bfcbcc04f88c69",
      "transactionIndex": "0x20",
      "blockHash": "0x944f3aca53cb27d3c52e9abcfb60b49f525fb87b9183d4a191b20ce8ff1a0ea3",
      "blockNumber": "0x4d",
      "gasUsed": "0x222e6",
      "effectiveGasPrice": "0xdb0d",
      "blobGasPrice": "0x1",
      "from": "0xf39fd6e51aad88f6f4ce6ab8827279cfffb92266",
      "to": "0xf8e31cb472bc70500f08cd84917e5a1912ec8397",
      "contractAddress": null,
      "blockTimestamp": 1775327416
    },
    {
      "status": "0x1",
      "cumulativeGasUsed": "0x708bbd",
      "logs": [],
      "logsBloom": "0x00000000000000000000000000000000000000000000000000000000000000000000000000000000000000000000000000000000000000000000000000000000000000000000000000000000000000000000000000000000000000000000000000000000000000000000000000000000000000000000000000000000000000000000000000000000000000000000000000000000000000000000000000000000000000000000000000000000000000000000000000000000000000000000000000000000000000000000000000000000000000000000000000000000000000000000000000000000000000000000000000000000000000000000000000000000",
      "type": "0x2",
      "transactionHash": "0x7b9f85e24ea6c8c3d3d7563b883842664830ba5f427887f6313e56136aec91c9",
      "transactionIndex": "0x21",
      "blockHash": "0x944f3aca53cb27d3c52e9abcfb60b49f525fb87b9183d4a191b20ce8ff1a0ea3",
      "blockNumber": "0x4d",
      "gasUsed": "0xd05a",
      "effectiveGasPrice": "0xdb0d",
      "blobGasPrice": "0x1",
      "from": "0xf39fd6e51aad88f6f4ce6ab8827279cfffb92266",
      "to": "0xf8e31cb472bc70500f08cd84917e5a1912ec8397",
      "contractAddress": null,
      "blockTimestamp": 1775327416
    }
  ],
  "libraries": [],
  "pending": [],
  "returns": {},
  "timestamp": 1775327416866,
  "chain": 42069,
  "commit": "366a9f4"
}