{
  "transactions": [
    {
      "hash": "0x03dbe58ad6b4cd9f3570b951d9b2ec5ac4b1e1ac562e62b5d8b8a47450bc0c8f",
      "transactionType": "CREATE",
      "contractName": "PerpPriceOracle",
      "contractAddress": "0x0355b7b8cb128fa5692729ab3aaa199c1753f726",
      "function": null,
      "arguments": [
        "0xf39Fd6e51aad88F6F4ce6aB8827279cffFb92266"
      ],
      "transaction": {
        "from": "0xf39fd6e51aad88f6f4ce6ab8827279cfffb92266",
        "gas": "0x11e22f",
        "value": "0x0",
        "input": "0x60803460a057601f610e6438819003918201601f19168301916001600160401b0383118484101760a45780849260209460405283398101031260a057516001600160a01b0381169081900360a05760786004556107d060055580156091578060018060a01b03195f5416175f555f52600160205260405f20600160ff19825416179055604051610dab90816100b98239f35b63d92e233d60e01b5f5260045ffd5b5f80fd5b634e487b7160e01b5f52604160045260245ffdfe6080806040526004361015610012575f80fd5b5f3560e01c9081630a16191a146108a3575080630df1d5ed14610840578063100bc9e1146107e3578063249d39e9146107c75780633bbd64bc1461078a5780633ee7a7011461076d57806343fa6211146106c057806360846bc61461066457806365312f181461062b578063704b6c02146105e05780637698aa331461057a57806380626ad1146105a0578063832321bf1461057a57806387cf46961461055d578063b70946011461052e578063d1b9e85314610492578063d94414e6146102e2578063dddbc04914610285578063ecc191bb1461025d578063f229fece1461012e5763f851a44014610103575f80fd5b3461012a575f36600319011261012a575f546040516001600160a01b039091168152602090f35b5f80fd5b3461012a57606036600319011261012a575f546004359060243590604435906001600160a01b0316330361024e57825f52600360205260ff60405f2054161561023b5781158015610233575b610224577fd1e0ff31b5a8e9db7a93db8b63d84e896cce257bc637e6d369f43178eedd98ce916040916102176101ae610be6565b8381526020810183815260ff6003878401934285526060810194600186526080820194600186528c5f5260026020528a5f20925183555160018301555160028201550192511660ff1983541617825551151561ff00825491151560081b169061ff001916179055565b82519182526020820152a2005b634dfba02360e01b5f5260045ffd5b50801561017a565b82631b37612760e21b5f5260045260245ffd5b637bfa4b9f60e01b5f5260045ffd5b3461012a57602036600319011261012a57602061027b600435610c5d565b6040519015158152f35b3461012a57602036600319011261012a575f54600435906001600160a01b0316330361024e577fea7b0359048504e79474eaaa05294b49265fc4e7b0a0c3737aaa22412e90f16e60406005548151908152836020820152a1600555005b3461012a57608036600319011261012a5760043560243560643560443560ff821680830361012a57335f52600160205260ff60405f205416158061047e575b61046f57845f52600360205260ff60405f2054161561045c5783158015610454575b610224577fc7061c903e2c36b50c20c3af3c54f4a781394e15a68ba49ee82125a240ad419b9361040261042b92875f52600260205260405f20838154918215159081610441575b50610430575b505061039a610be6565b83815260ff60036020830192888452604081014281526060820195865260808201945f86528d5f52600260205260405f20925183555160018301555160028201550192511660ff1983541617825551151561ff00825491151560081b169061ff001916179055565b6040519384934292859094939260ff906060936080840197845260208401521660408201520152565b0390a2005b61043a918a610c9f565b8883610390565b60ff91506003015460081c16158b61038a565b508115610343565b84631b37612760e21b5f5260045260245ffd5b631ea2564f60e31b5f5260045ffd5b505f546001600160a01b0316331415610321565b3461012a57604036600319011261012a576104ab610b9e565b6024359081151580920361012a575f546001600160a01b0316330361024e576001600160a01b031690811561051f5760207f786c9db967bf0c6b16c7c91adae8a8c554b15a57d373fa2059607300f4616c0091835f526001825260405f2060ff1981541660ff8316179055604051908152a2005b63d92e233d60e01b5f5260045ffd5b3461012a57602036600319011261012a576004355f526003602052602060ff60405f2054166040519015158152f35b3461012a575f36600319011261012a576020600454604051908152f35b3461012a57602036600319011261012a576020610598600435610c1a565b604051908152f35b3461012a57602036600319011261012a575f546001600160a01b0316330361024e576004355f908152600260205260409020600301805461ff0019169055005b3461012a57602036600319011261012a576105f9610b9e565b5f54906001600160a01b038216330361024e576001600160a01b031690811561051f576001600160a01b031916175f55005b3461012a57602036600319011261012a57600435805f52600260205260405f209060018201549081156102245760209261059891610d2b565b3461012a57602036600319011261012a576004355f52600260205260a060405f2060ff815491600181015490600360028201549101549160405194855260208501526040840152818116606084015260081c1615156080820152f35b3461012a57602036600319011261012a575f60806106dc610be6565b82815282602082015282604082015282606082015201526004355f52600260205260a060405f2061070b610be6565b9060ff8154928381526001830154926020820193845260036002820154916040840192835201549383608060608501948288168652019560081c1615158552604051958652516020860152516040850152511660608301525115156080820152f35b3461012a575f36600319011261012a576020600554604051908152f35b3461012a57602036600319011261012a576001600160a01b036107ab610b9e565b165f526001602052602060ff60405f2054166040519015158152f35b3461012a575f36600319011261012a5760206040516127108152f35b3461012a57602036600319011261012a575f54600435906001600160a01b0316330361024e577f9843f62f065b46649ec181ada7772d5c94055361bc052184193831e5cbcb9f6560406004548151908152836020820152a1600455005b3461012a57602036600319011261012a575f54600435906001600160a01b0316330361024e57805f52600360205260405f20600160ff198254161790557fd4a2ffd4212ea97bb981aae1f4a20d5170df470d2ed811c1b393882bc1d9f0fa5f80a2005b3461012a57608036600319011261012a5760043567ffffffffffffffff811161012a576108d4903690600401610b6d565b909160243567ffffffffffffffff811161012a576108f6903690600401610b6d565b60449291923567ffffffffffffffff811161012a57610919903690600401610b6d565b95909160643567ffffffffffffffff811161012a5761093c903690600401610b6d565b979094335f52600160205260ff60405f2054161580610b59575b61046f5782881480610b50575b80610b47575b15610b1357505f5b87811061097a57005b610985818986610bb4565b359061099281858a610bb4565b359161099f828589610bb4565b35815f52600360205260ff60405f20541615610b005783158015610af8575b610224576001937fc7061c903e2c36b50c20c3af3c54f4a781394e15a68ba49ee82125a240ad419b91610acb610aa38f87610a27918f895f52600260205260405f20888154918215159081610ae5575b50610ad4575b5050610a9e610a2c610a27858585610bb4565b610bd8565b8b60ff6003610a39610be6565b8d8152602081018d8152604082019042825284606084019716875260808301955f87525f52600260205260405f20925183555160018301555160028201550192511660ff1983541617825551151561ff00825491151560081b169061ff001916179055565b610bb4565b60408051948552602085019390935260ff169183019190915242606083015281906080820190565b0390a201610971565b610ade918c610c9f565b5f88610a14565b60ff91506003015460081c16155f610a0e565b5080156109be565b50631b37612760e21b5f5260045260245ffd5b62461bcd60e51b815260206004820152600f60248201526e0d8cadccee8d040dad2e6dac2e8c6d608b1b6044820152606490fd5b50888814610969565b50818814610963565b505f546001600160a01b0316331415610956565b9181601f8401121561012a5782359167ffffffffffffffff831161012a576020808501948460051b01011161012a57565b600435906001600160a01b038216820361012a57565b9190811015610bc45760051b0190565b634e487b7160e01b5f52603260045260245ffd5b3560ff8116810361012a5790565b6040519060a0820182811067ffffffffffffffff821117610c0657604052565b634e487b7160e01b5f52604160045260245ffd5b805f52600260205260405f2090815491821561022457610c3991610d2b565b90565b91908203918211610c4957565b634e487b7160e01b5f52601160045260245ffd5b5f52600260205260405f20805415610c9a5760ff600382015460081c16610c94576002610c8c91015442610c3c565b600454101590565b50600190565b505f90565b9180821115610d1c57610cb28183610c3c565b6127108102908082046127101490151715610c49578215610d0857829004916005548311610ce05750505050565b608494506040519363bdecbfb760e01b85526004850152602484015260448301526064820152fd5b634e487b7160e01b5f52601260045260245ffd5b610d268282610c3c565b610cb2565b9060ff600382015460081c16610d71576002610d4991015442610c3c565b60045491828211610d5957505050565b6357fd6bcb60e11b5f5260045260245260445260645ffd5b505056fea2646970667358221220b17298141c6a719ccf5010baf91b5f72e5deaf9f6617c2ecb6e3c7968f6e0ca064736f6c63430008210033000000000000000000000000f39fd6e51aad88f6f4ce6ab8827279cfffb92266",
        "nonce": "0x4d",
        "chainId": "0xa455"
      },
      "additionalContracts": [],
      "isFixedGasLimit": false
    },
    {
      "hash": "0xa576e70260b0d4f691e09aa8d3c94c35f09a8bc58020ac1ec9f07d159029533b",
      "transactionType": "CREATE",
      "contractName": "FundingRate",
      "contractAddress": "0x202cce504e04bed6fc0521238ddf04bc9e8e15ab",
      "function": null,
      "arguments": [
        "0xf39Fd6e51aad88F6F4ce6aB8827279cffFb92266"
      ],
      "transaction": {
        "from": "0xf39fd6e51aad88f6f4ce6ab8827279cfffb92266",
        "gas": "0x819b9",
        "value": "0x0",
        "input": "0x608034608357601f61069538819003918201601f19168301916001600160401b03831184841017608757808492602094604052833981010312608357516001600160a01b0381169081900360835780156074575f80546001600160a01b0319169190911790556040516105f9908161009c8239f35b63d92e233d60e01b5f5260045ffd5b5f80fd5b634e487b7160e01b5f52604160045260245ffdfe60806040526004361015610011575f80fd5b5f3560e01c806302429b98146104075780630e18b68114610387578063267822471461035f57806326ef1b721461033557806345eab495146102be57806348ba4d2b1461029657806355efb2871461027a57806375829def14610203578063b619daf71461018c578063e03e0d8514610162578063f11db845146100f4578063f40f2a79146100d35763f851a440146100a8575f80fd5b346100cf575f3660031901126100cf575f546040516001600160a01b039091168152602090f35b5f80fd5b346100cf575f3660031901126100cf5760206040516601c6bf526340008152f35b346100cf5760203660031901126100cf5760043560018060a01b03600254163314158061014e575b61013f57805f5260046020524260405f20555f5260036020525f60408120555f80f35b63027da19960e41b5f5260045ffd5b505f546001600160a01b031633141561011c565b346100cf5760203660031901126100cf576004355f526004602052602060405f2054604051908152f35b346100cf5760203660031901126100cf576004356001600160a01b038116908190036100cf575f546001600160a01b031633036101f45780156101e5576bffffffffffffffffffffffff60a01b60025416176002555f80f35b63d92e233d60e01b5f5260045ffd5b637bfa4b9f60e01b5f5260045ffd5b346100cf5760203660031901126100cf576004356001600160a01b038116908190036100cf575f546001600160a01b0316338190036101f45781156101e557600180546001600160a01b031916831790557fb4d7bcb4d9a5d6ef6e827e3b1554e5a2578ad9ca843903d42b05d08bfa3458945f80a3005b346100cf575f3660031901126100cf5760206040516170808152f35b346100cf575f3660031901126100cf576002546040516001600160a01b039091168152602090f35b346100cf5760603660031901126100cf576004356044355f5260036020526102ec60243560405f2054610460565b81810291905f8212600160ff1b82141661032157818305149015171561032157670de0b6b3a764000060209105604051908152f35b634e487b7160e01b5f52601160045260245ffd5b346100cf5760203660031901126100cf576004355f526003602052602060405f2054604051908152f35b346100cf575f3660031901126100cf576001546040516001600160a01b039091168152602090f35b346100cf575f3660031901126100cf576001546001600160a01b03811690338290036103f8575f80546001600160a01b0319808216851783559092166001556001600160a01b03909116907ff8ccb027dfcd135e000e9d45e6cc2d662578a8825d4c45b5e32e0adf67e79ec69080a3005b63058d9a1b60e01b5f5260045ffd5b346100cf5760603660031901126100cf576002546001600160a01b03163314158061044c575b61013f576020610444604435602435600435610478565b604051908152f35b505f546001600160a01b031633141561042d565b81810392915f13801582851316918412161761032157565b929190835f52600460205260405f20544203428111610321576170801161058357835f52600460205260405f208054916170808301809311610321576104c092849255610460565b90670de0b6b3a7640000820291808305670de0b6b3a7640000149015171561032157801561056f57600160ff1b82145f1982141661032157610502910561058a565b91805f52600360205260405f20805490848201915f86841291129080158216911516176103215755805f5260036020527f5bc77c157525d548a8a52d79d0ab879a816749d39b746f1bf2489ad250335eee606060405f2054604051908682526020820152426040820152a2565b634e487b7160e01b5f52601260045260245ffd5b505f925050565b6601c6bf52633fff1981126105b6576601c6bf5263400081136105aa5790565b506601c6bf5263400090565b506601c6bf52633fff199056fea26469706673582212207b3380f7e8829b986eb79d23ed190048c8229297eb4e884d2107de5610d9386464736f6c63430008210033000000000000000000000000f39fd6e51aad88f6f4ce6ab8827279cfffb92266",
        "nonce": "0x4e",
        "chainId": "0xa455"
      },
      "additionalContracts": [],
      "isFixedGasLimit": false
    },
    {
      "hash": "0x132d24d4b24a7d34e7aea9b415f30cbeff79d32c55f5b52bb872029f344d308c",
      "transactionType": "CREATE",
      "contractName": "MarginVault",
      "contractAddress": "0xf4b146fba71f41e0592668ffbf264f1d186b2ca8",
      "function": null,
      "arguments": [
        "0x36C02dA8a0983159322a80FFE9F24b1acfF8B570",
        "0xf39Fd6e51aad88F6F4ce6aB8827279cffFb92266"
      ],
      "transaction": {
        "from": "0xf39fd6e51aad88f6f4ce6ab8827279cfffb92266",
        "gas": "0xb9bc5",
        "value": "0x0",
        "input": "0x60a0346100c757601f610a1d38819003918201601f19168301916001600160401b038311848410176100cb5780849260409485528339810103126100c757610052602061004b836100df565b92016100df565b6001600160a01b039091169081156100b8576001600160a01b03169081156100b857608052600180546001600160a01b03191691909117905560405161092990816100f48239608051818181610172015281816102ba015281816103e201526106de0152f35b63d92e233d60e01b5f5260045ffd5b5f80fd5b634e487b7160e01b5f52604160045260245ffd5b51906001600160a01b03821682036100c75756fe60806040526004361015610011575f80fd5b5f3560e01c80630e18b681146107e357806326782247146107bb57806327e235e3146107835780632e1a7d4d1461065a57806348ba4d2b14610633578063636be27a1461057d57806375829def14610507578063b619daf7146104a4578063b6b55f251461039f578063beabacc8146102e9578063d8dfeb45146102a5578063ef6506db14610219578063f40818b614610107578063f851a440146100df5763ff50abdc146100be575f80fd5b346100db575f3660031901126100db576020600454604051908152f35b5f80fd5b346100db575f3660031901126100db576001546040516001600160a01b039091168152602090f35b346100db5760403660031901126100db57610120610861565b5f546001600160a01b0316330361020a576001600160a01b038116156101fb5760405163a9059cbb60e01b81526001600160a01b0390911660048201526024803590820152602081806044810103815f7f00000000000000000000000000000000000000000000000000000000000000006001600160a01b03165af19081156101f0575f916101c1575b50156101b257005b6312171d8360e31b5f5260045ffd5b6101e3915060203d6020116101e9575b6101db8183610898565b8101906108ce565b816101aa565b503d6101d1565b6040513d5f823e3d90fd5b63d92e233d60e01b5f5260045ffd5b63027da19960e41b5f5260045ffd5b346100db5760403660031901126100db57610232610861565b5f5460243591906001600160a01b0316330361020a5760207f9f7132b931bb99c5679b120dd9dc04eab8b1e91f4be7f2c40da4c0876823f4dc9160018060a01b031692835f526003825260405f2061028b8282546108e6565b9055610299816004546108e6565b600455604051908152a2005b346100db575f3660031901126100db576040517f00000000000000000000000000000000000000000000000000000000000000006001600160a01b03168152602090f35b346100db5760603660031901126100db57610302610861565b6024356001600160a01b038116908190036100db575f5460443592906001600160a01b0316330361020a576001600160a01b03165f81815260036020526040902054831161037c575f52600360205260405f20610360838254610877565b90555f52600360205261037860405f209182546108e6565b9055005b90505f52600360205260405f205463cf47918160e01b5f5260045260245260445ffd5b346100db5760203660031901126100db576004358015610495576040516323b872dd60e01b8152336004820152306024820152604481018290526020816064815f7f00000000000000000000000000000000000000000000000000000000000000006001600160a01b03165af19081156101f0575f91610476575b50156101b257335f52600360205260405f206104378282546108e6565b9055610445816004546108e6565b6004556040519081527f2da466a7b24304f47e87fa2e1e5a81b9831ce54fec19055ce277ca2f39ba42c460203392a2005b61048f915060203d6020116101e9576101db8183610898565b8261041a565b631f2a200560e01b5f5260045ffd5b346100db5760203660031901126100db576104bd610861565b6001546001600160a01b031633036104f8576001600160a01b031680156101fb576bffffffffffffffffffffffff60a01b5f5416175f555f80f35b637bfa4b9f60e01b5f5260045ffd5b346100db5760203660031901126100db57610520610861565b6001546001600160a01b031690338290036104f8576001600160a01b03169081156101fb57600280546001600160a01b031916831790557fb4d7bcb4d9a5d6ef6e827e3b1554e5a2578ad9ca843903d42b05d08bfa3458945f80a3005b346100db5760403660031901126100db57610596610861565b5f5460243591906001600160a01b0316330361020a5760018060a01b031690815f5260036020528060405f2054106106105760207fc1bcf241560b7da56189cf02ba2c78298ad5afb7dd45b8a47e3c6930b389a23091835f526003825260405f20610602828254610877565b905561029981600454610877565b5f9182526003602052604082205463cf47918160e01b8352600452602452604490fd5b346100db575f3660031901126100db575f546040516001600160a01b039091168152602090f35b346100db5760203660031901126100db57600435801561049557335f5260036020528060405f20541061076157335f52600360205260405f2061069e828254610877565b90556106ac81600454610877565b600490815560405163a9059cbb60e01b81523391810191909152602481018290526020816044815f6001600160a01b037f0000000000000000000000000000000000000000000000000000000000000000165af19081156101f0575f91610742575b50156101b2576040519081527f7084f5476618d8e60b11ef0d7d3f06914655adb8793e28ff7f018d4c76d505d560203392a2005b61075b915060203d6020116101e9576101db8183610898565b8261070e565b335f52600360205260405f205463cf47918160e01b5f5260045260245260445ffd5b346100db5760203660031901126100db576001600160a01b036107a4610861565b165f526003602052602060405f2054604051908152f35b346100db575f3660031901126100db576002546040516001600160a01b039091168152602090f35b346100db575f3660031901126100db576002546001600160a01b038116903382900361085257600180546001600160a01b0319808216851790925591166002556001600160a01b03167ff8ccb027dfcd135e000e9d45e6cc2d662578a8825d4c45b5e32e0adf67e79ec65f80a3005b63058d9a1b60e01b5f5260045ffd5b600435906001600160a01b03821682036100db57565b9190820391821161088457565b634e487b7160e01b5f52601160045260245ffd5b90601f8019910116810190811067ffffffffffffffff8211176108ba57604052565b634e487b7160e01b5f52604160045260245ffd5b908160209103126100db575180151581036100db5790565b919082018092116108845756fea2646970667358221220108b37b7ed6c761ff629ab09a4bcf5cc09efed094df43c736d48a2aa1627217464736f6c6343000821003300000000000000000000000036c02da8a0983159322a80ffe9f24b1acff8b570000000000000000000000000f39fd6e51aad88f6f4ce6ab8827279cfffb92266",
        "nonce": "0x4f",
        "chainId": "0xa455"
      },
      "additionalContracts": [],
      "isFixedGasLimit": false
    },
    {
      "hash": "0x1dc1b5497f2a2eb37cc3322271f981f2cb5f5cfac3dbeb708b97e3d1ea10585b",
      "transactionType": "CREATE",
      "contractName": "PerpEngine",
      "contractAddress": "0x172076e0166d1f9cc711c77adf8488051744980c",
      "function": null,
      "arguments": [
        "0xf4B146FbA71F41E0592668ffbF264F1D186b2Ca8",
        "0x202CCe504e04bEd6fC0521238dDf04Bc9E8E15aB",
        "0x0355B7B8cb128fA5692729Ab3AAa199C1753f726",
        "0x3abBB0D6ad848d64c8956edC9Bf6f18aC22E1485",
        "0xf39Fd6e51aad88F6F4ce6aB8827279cffFb92266"
      ],
      "transaction": {
        "from": "0xf39fd6e51aad88f6f4ce6ab8827279cfffb92266",
        "gas": "0x249ebf",
        "value": "0x0",
        "input": "0x610100346101aa57601f6121cb38819003918201601f19168301916001600160401b038311848410176101ae5780849260a0946040528339810103126101aa57610048816101c2565b90610055602082016101c2565b91610062604083016101c2565b61007a6080610073606086016101c2565b94016101c2565b6001600160a01b0390921693841561019b576001600160a01b031690811561019b576001600160a01b031691821561019b576001600160a01b0384161561019b576001600160a01b031693841561019b5760805260a05260c05260e0525f80546001600160a01b031916919091179055604051611ff490816101d7823960805181818161012c015281816104ac01528181610d6a01528181611d820152611ee3015260a0518181816101d6015281816103b7015281816109c401528181610e6801528181611544015281816118ef01528181611aae0152611c8b015260c0518181816102eb015281816108f801528181610b2701528181610dd4015281816118630152611a1f015260e05181818161052401528181610c29015261102b0152f35b63d92e233d60e01b5f5260045ffd5b5f80fd5b634e487b7160e01b5f52604160045260245ffd5b51906001600160a01b03821682036101aa5756fe60806040526004361015610011575f80fd5b5f5f3560e01c80630e18b6811461167057806316c38b3c14611622578063229247731461146c578063249d39e91461144f57806326782247146114265780633dc8f14414610c9a5780635838bff714610c7e5780635c975abb14610c585780636052970c14610c1357806371a5c55414610beb57806375829def14610b565780637dc0d1d014610b1157806383c666dc14610ae15780639185f59814610ac5578063a126d601146108b5578063b1283e7714610844578063bcbaf48714610293578063c1be667714610205578063cb4c86b7146101c0578063ec979082146101a2578063ecd1dae614610185578063f851a4401461015e5763fbfa77cf14610117575f80fd5b3461015b578060031936011261015b576040517f00000000000000000000000000000000000000000000000000000000000000006001600160a01b03168152602090f35b80fd5b503461015b578060031936011261015b57546040516001600160a01b039091168152602090f35b503461015b578060031936011261015b5760206040516101f48152f35b503461015b578060031936011261015b576020600254604051908152f35b503461015b578060031936011261015b576040517f00000000000000000000000000000000000000000000000000000000000000006001600160a01b03168152602090f35b503461015b57604036600319011261015b5760e0906040906001600160a01b0361022d6116f0565b16815260036020528181206024358252602052208054906001810154906002810154600382015490600560048401549301549360ff604051968181161515885260081c161515602087015260408601526060850152608084015260a083015260c0820152f35b503461015b57604036600319011261015b576102ad6116f0565b6024359060ff60015460a01c166108355760018060a01b03811690818452600360205260408420838552602052604084209060ff82541615610826577f00000000000000000000000000000000000000000000000000000000000000006001600160a01b03169161031d85611706565b5054926040519363832321bf60e01b85526004850152602084602481845afa9384156107b45787946107f2575b506020600161035888611706565b50015460246040518094819363832321bf60e01b835260048301525afa9081156107b45787916107bf575b506040516248537360e31b8152600481018790526024810185905260448101919091526020816064818a6001600160a01b037f0000000000000000000000000000000000000000000000000000000000000000165af180156107b457610781575b506103f0838684611c14565b916104086103fe84846117f9565b60038301546119b3565b9088821390811561077a576127108302908382046127101484151715610766576001015461043591611758565b60c881101561074f57508589915f1461073f5750506101f48102908082046101f4149015171561072b57879392610473928861271088940495611d0f565b806104aa575b50506040519081527fa457abeae7105eb8bccbb20968069d940e939bc0c8d8b9c2c13aaed4755e68c360203392a480f35b7f00000000000000000000000000000000000000000000000000000000000000006001600160a01b0316803b15610727578280916064604051809481936317d5759960e31b83528a60048401523060248401528760448401525af190811561071c578391610703575b505060405163119e5bf360e01b81527f000000000000000000000000000000000000000000000000000000000000000091906001600160a01b03831690602081600481855afa90811561066b5785916106d4575b5060405163095ea7b360e01b81526004810183905260248101869052906001600160a01b031660208260448189855af19081156106c9576105e49560209386936106ae575b5060405163095ea7b360e01b81526001600160a01b039091166004820152602481019290925290948591908290889082906044820190565b03925af19182156106a35760609361062693610676575b506040516364d6def960e01b8152600481019190915233602482015293849283919082906044820190565b03925af1801561066b5761063c575b8490610479565b61065d9060603d606011610664575b6106558183611736565b8101906117ce565b5050610635565b503d61064b565b6040513d87823e3d90fd5b6106979060203d60201161069c575b61068f8183611736565b8101906117b6565b6105fb565b503d610685565b6040513d86823e3d90fd5b6106c490853d871161069c5761068f8183611736565b6105ac565b6040513d88823e3d90fd5b6106f6915060203d6020116106fc575b6106ee8183611736565b810190611797565b5f610567565b503d6106e4565b8161070d91611736565b61071857815f610513565b5080fd5b6040513d85823e3d90fd5b8280fd5b634e487b7160e01b88526011600452602488fd5b9150939261047392888695611d0f565b6301f7d11160e21b8a5260045260c8602452604489fd5b634e487b7160e01b8b52601160045260248bfd5b5088610435565b6020813d6020116107ac575b8161079a60209383611736565b810103126107a857516103e4565b5f80fd5b3d915061078d565b6040513d89823e3d90fd5b90506020813d6020116107ea575b816107da60209383611736565b810103126107a857516020610383565b3d91506107cd565b9093506020813d60201161081e575b8161080e60209383611736565b810103126107a85751925f61034a565b3d9150610801565b63556729af60e01b8552600485fd5b6313d0ff5960e31b8352600483fd5b503461015b57602036600319011261015b576004359060025482101561015b5760c061086f83611706565b50805490600181015490600281015460ff6003830154169060056004840154930154936040519586526020860152604085015215156060840152608083015260a0820152f35b503461015b57602036600319011261015b5760043560ff60015460a01c16610ab65733825260036020526040822081835260205260ff60408320541615610aa7577f00000000000000000000000000000000000000000000000000000000000000006001600160a01b03169061092a81611706565b5054906040519163832321bf60e01b83526004830152602082602481865afa9182156106a3578492610a73575b506020600161096583611706565b50015460246040518096819363832321bf60e01b835260048301525afa9283156106a3578493610a3e575b506040516248537360e31b815260048101829052602481018390526044810193909352602083606481876001600160a01b037f0000000000000000000000000000000000000000000000000000000000000000165af180156106a357610a0b575b610a089250610a01828233611c14565b9133611d0f565b80f35b6020833d602011610a36575b81610a2460209383611736565b810103126107a857610a0892506109f1565b3d9150610a17565b92506020833d602011610a6b575b81610a5960209383611736565b810103126107a8579151916020610990565b3d9150610a4c565b9091506020813d602011610a9f575b81610a8f60209383611736565b810103126107a85751905f610957565b3d9150610a82565b63556729af60e01b8252600482fd5b6313d0ff5960e31b8252600482fd5b503461015b578060031936011261015b576020604051600a8152f35b503461015b57604036600319011261015b576020610b09610b006116f0565b602435906119ce565b604051908152f35b503461015b578060031936011261015b576040517f00000000000000000000000000000000000000000000000000000000000000006001600160a01b03168152602090f35b503461015b57602036600319011261015b57610b706116f0565b81546001600160a01b03169033829003610bdc576001600160a01b0316908115610bcd57600180546001600160a01b031916831790557fb4d7bcb4d9a5d6ef6e827e3b1554e5a2578ad9ca843903d42b05d08bfa3458948380a380f35b63d92e233d60e01b8352600483fd5b637bfa4b9f60e01b8352600483fd5b503461015b57604036600319011261015b576020610b09610c0a6116f0565b60243590611811565b503461015b578060031936011261015b576040517f00000000000000000000000000000000000000000000000000000000000000006001600160a01b03168152602090f35b503461015b578060031936011261015b57602060ff60015460a01c166040519015158152f35b503461015b578060031936011261015b57602060405160c88152f35b503461015b57608036600319011261015b5760443590602435821515600435818503611422576064359060ff60015460a01c166114135783159283801561140b575b6113fc57610ce982611706565b509360ff600386015416156113ed57338752600360205260408720838852602052604087209060ff8254166113de5760028601548086028681048214871517156113ca5788116113aa5750600a870290878204600a14171561072b57612710900495610d558786611776565b6040516327e235e360e01b81523360048201527f00000000000000000000000000000000000000000000000000000000000000006001600160a01b03169791906020816024818c5afa90811561139f579082918c9161136a575b50106112f55750805460405163832321bf60e01b8152600481019190915298998a99937f00000000000000000000000000000000000000000000000000000000000000006001600160a01b0316602086602481845afa95861561123a578c966112be575b506020600185015460246040518094819363832321bf60e01b835260048301525afa90811561123a578c91611285575b506040516248537360e31b8152600481018990526024810187905260448101919091527f00000000000000000000000000000000000000000000000000000000000000006001600160a01b0316906020818e8180606481015b0391865af1801561127a57611245575b5060206024916001845461ff008b60081b169061ffff1916171784558660018501558760028501558a6003850155604051928380926313778db960e11b82528c60048301525afa90811561123a578c91611203575b506004820155600501869055156111ee57600401610f20828254611776565b90555b604051928352602083015283604083015260608201527f5cf8fa4a8e333990018876ad3a82065e68b3859d46c3198b692b77fc3043808b60803392a3813b156111e9576040516331b5f13d60e11b81523360048201526024810191909152838160448183865af19081156106a35784916111d4575b505081610fa3575050f35b803b156111bb576040516331b5f13d60e11b815233600482015260248101839052838160448183865af19081156106a35784916111bf575b5050803b156111bb57604051637a040c5b60e11b8152306004820152602481018390529083908290604490829084905af190811561071c5783916111a3575b505060405163119e5bf360e01b81527f000000000000000000000000000000000000000000000000000000000000000091906001600160a01b03831690602081600481855afa90811561066b578591611184575b5060405163095ea7b360e01b81526004810183905260248101869052906001600160a01b031660208260448189855af19081156106c9576110ea9560209386936106ae575060405163095ea7b360e01b81526001600160a01b039091166004820152602481019290925290948591908290889082906044820190565b03925af19182156106a35760609361112c93611167575b506040516364d6def960e01b8152600481019190915230602482015293849283919082906044820190565b03925af1801561115c5761113e575080f35b6111569060603d606011610664576106558183611736565b50505080f35b6040513d84823e3d90fd5b61117f9060203d60201161069c5761068f8183611736565b611101565b61119d915060203d6020116106fc576106ee8183611736565b5f61106e565b816111ad91611736565b6111b857815f61101a565b50fd5b5050fd5b816111c991611736565b6111bb57825f610fdb565b816111de91611736565b6111bb57825f610f98565b505050fd5b6005016111fc828254611776565b9055610f23565b9b505060208b3d602011611232575b8161121f60209383611736565b810103126107a85799518b9a9087610f01565b3d9150611212565b6040513d8e823e3d90fd5b9b5060208c3d602011611272575b8161126060209383611736565b810103126107a8578c9b506020610eac565b3d9150611253565b6040513d8f823e3d90fd5b9b505060208b3d6020116112b6575b816112a160209383611736565b810103126107a85799518b9a90610e9c610e43565b3d9150611294565b9b50945060208b3d6020116112ed575b816112db60209383611736565b810103126107a8578b9a51945f610e13565b3d91506112ce565b6040516327e235e360e01b8152336004820152908a906020836024818d5afa801561115c578290611337575b633af8647b60e01b835260045260245260449150fd5b506020833d602011611362575b8161135160209383611736565b810103126107a85760449251611321565b3d9150611344565b9150506020813d602011611397575b8161138660209383611736565b810103126107a8578190515f610daf565b3d9150611379565b6040513d8d823e3d90fd5b886044916113b8888b611758565b633b7b1e4b60e01b8352600452602452fd5b634e487b7160e01b8a52601160045260248afd5b631f19c11d60e01b8852600488fd5b635a90bb8d60e11b8752600487fd5b631f2a200560e01b8652600486fd5b508215610cdc565b6313d0ff5960e31b8552600485fd5b8380fd5b503461015b578060031936011261015b576001546040516001600160a01b039091168152602090f35b503461015b578060031936011261015b5760206040516127108152f35b346107a85760603660031901126107a8575f5460043590604435906001600160a01b03163303611613576002549060405160c0810181811067ffffffffffffffff8211176115ff576040528381526020810190602435825260408101838152606082016001815260808301905f825260a08401925f8452680100000000000000008810156115ff576001880160025561150488611706565b9690966115ec57600595518755516001870155516002860155600385019051151560ff801983541691161790555160048401555191015560018060a01b037f000000000000000000000000000000000000000000000000000000000000000016803b156107a8575f809160246040518094819363f11db84560e01b83528860048401525af180156115e15760209484937ff7154dd385fd97f5acd402bbddfc43353a65d67ed869dc6e507a9f99d6a2040d936040936115d1575b50825191825286820152a2604051908152f35b5f6115db91611736565b5f6115be565b6040513d5f823e3d90fd5b634e487b7160e01b5f525f60045260245ffd5b634e487b7160e01b5f52604160045260245ffd5b637bfa4b9f60e01b5f5260045ffd5b346107a85760203660031901126107a8576004358015158091036107a8575f546001600160a01b03163303611613576001805460ff60a01b191660a09290921b60ff60a01b16919091179055005b346107a8575f3660031901126107a8576001546001600160a01b03811690338290036116e1575f80546001600160a01b0319808216851783559092166001556001600160a01b03909116907ff8ccb027dfcd135e000e9d45e6cc2d662578a8825d4c45b5e32e0adf67e79ec69080a3005b63058d9a1b60e01b5f5260045ffd5b600435906001600160a01b03821682036107a857565b6002548110156117225760025f52600660205f20910201905f90565b634e487b7160e01b5f52603260045260245ffd5b90601f8019910116810190811067ffffffffffffffff8211176115ff57604052565b8115611762570490565b634e487b7160e01b5f52601260045260245ffd5b9190820180921161178357565b634e487b7160e01b5f52601160045260245ffd5b908160209103126107a857516001600160a01b03811681036107a85790565b908160209103126107a8575180151581036107a85790565b908160609103126107a8578051916040602083015192015190565b600160ff1b8114611783575f0390565b81810392915f13801582851316918412161761178357565b60018060a01b03165f52600360205260405f20815f5260205260405f2080549060ff8216156119ac5761184383611706565b505460405163832321bf60e01b81526004810191909152906020826024817f00000000000000000000000000000000000000000000000000000000000000006001600160a01b03165afa9182156115e1575f92611977575b5060ff6118aa60209383611bad565b9360081c16156119625760046001820154915b01546040516345eab49560e01b8152600481019290925260248201526044810193909352826064816001600160a01b037f0000000000000000000000000000000000000000000000000000000000000000165afa9081156115e1575f9161192c575b61192992506117f9565b90565b90506020823d60201161195a575b8161194760209383611736565b810103126107a85761192991519061191f565b3d915061193a565b600461197160018301546117e9565b916118bd565b91506020823d6020116119a4575b8161199260209383611736565b810103126107a85790519060ff61189b565b3d9150611985565b5050505f90565b9190915f838201938412911290801582169115161761178357565b60018060a01b03165f52600360205260405f20815f5260205260405f2090815460ff811615611ba557611a0082611706565b505460405163832321bf60e01b815260048101919091526020816024817f00000000000000000000000000000000000000000000000000000000000000006001600160a01b03165afa9081156115e1575f91611b71575b50611a6460ff9185611bad565b9160081c1615611b5d57602060018401545b6004858101546040516345eab49560e01b81529182019290925260248101919091526044810193909352826064816001600160a01b037f0000000000000000000000000000000000000000000000000000000000000000165afa9182156115e1575f92611b27575b5090611af1611af69260038501546119b3565b6117f9565b5f811315611b2157612710810290808204612710149015171561178357600161192992015490611758565b50505f90565b91506020823d602011611b55575b81611b4260209383611736565b810103126107a857905190611af1611ade565b3d9150611b35565b6020611b6c60018501546117e9565b611a76565b90506020813d602011611b9d575b81611b8c60209383611736565b810103126107a85751611a64611a57565b3d9150611b7f565b5050505f1990565b90611bbd600283015480926117f9565b600183015480820292915f8212600160ff1b82141661178357818405149015171561178357801561176257600160ff1b82145f198214166117835760ff9105915460081c165f14611c0b5790565b611929906117e9565b6001600160a01b03165f90815260036020908152604080832084845282529091209392611c419085611bad565b9360ff815460081c165f14611ced5760046001820154915b01546040516345eab49560e01b8152600481019290925260248201526044810192909252816064816001600160a01b037f0000000000000000000000000000000000000000000000000000000000000000165afa9081156115e1575f91611cbe575090565b90506020813d602011611ce5575b81611cd960209383611736565b810103126107a8575190565b3d9150611ccc565b6004611cfc60018301546117e9565b91611c59565b9190820391821161178357565b93929190925f9460018060a01b03811693845f52600360205260405f20865f52602052611d6e60405f2091611d4388611706565b50835460081c60ff1615611fa357611d65600460018601549201918254611d02565b90555b856117f9565b86865f8312611e90575050600391909101547f00000000000000000000000000000000000000000000000000000000000000006001600160a01b031691611db491611776565b91813b15611e8c5760405163ef6506db60e01b81526001600160a01b03919091166004820152602481019290925286908290604490829084905af180156106c95791868694928694611e6a575b50507f16783b3f0676d6e63220b161cedd5415bd909d2f96353db363fbd217a00971b4916040915b82519182526020820152a382526003602052604082209082526020526005604082208281558260018201558260028201558260038201558260048201550155565b81939550611e79929450611736565b611e885783918391865f611e01565b8480fd5b8780fd5b949291611ea2600391979592976117e9565b92015491828110611edb575b5050507f16783b3f0676d6e63220b161cedd5415bd909d2f96353db363fbd217a00971b491604091611e29565b9395509193507f00000000000000000000000000000000000000000000000000000000000000006001600160a01b031692611f1591611d02565b823b156107a85760405163ef6506db60e01b81526001600160a01b039290921660048301526024820152905f908290604490829084905af180156115e157611f64575b91839183808795611eae565b8391955060408593611f975f7f16783b3f0676d6e63220b161cedd5415bd909d2f96353db363fbd217a00971b494611736565b5f979350935050611f58565b611fb7600560018601549201918254611d02565b9055611d6856fea2646970667358221220a0613a111a5e9db271b1ac746b15325f741ab8cef8c896d803d5f24d830e964e64736f6c63430008210033000000000000000000000000f4b146fba71f41e0592668ffbf264f1d186b2ca8000000000000000000000000202cce504e04bed6fc0521238ddf04bc9e8e15ab0000000000000000000000000355b7b8cb128fa5692729ab3aaa199c1753f7260000000000000000000000003abbb0d6ad848d64c8956edc9bf6f18ac22e1485000000000000000000000000f39fd6e51aad88f6f4ce6ab8827279cfffb92266",
        "nonce": "0x50",
        "chainId": "0xa455"
      },
      "additionalContracts": [],
      "isFixedGasLimit": false
    },
    {
      "hash": "0x3e6e84e4837eb6f9de39085eefde1648809e992062d216dc99c9ff1174d91949",
      "transactionType": "CALL",
      "contractName": "FundingRate",
      "contractAddress": "0x202cce504e04bed6fc0521238ddf04bc9e8e15ab",
      "function": "setPerpEngine(address)",
      "arguments": [
        "0x172076E0166D1F9Cc711C77Adf8488051744980C"
      ],
      "transaction": {
        "from": "0xf39fd6e51aad88f6f4ce6ab8827279cfffb92266",
        "to": "0x202cce504e04bed6fc0521238ddf04bc9e8e15ab",
        "gas": "0x10729",
        "value": "0x0",
        "input": "0xb619daf7000000000000000000000000172076e0166d1f9cc711c77adf8488051744980c",
        "nonce": "0x51",
        "chainId": "0xa455"
      },
      "additionalContracts": [],
      "isFixedGasLimit": false
    },
    {
      "hash": "0x0b75382b54fe4350053dba06315d5ca57af3b5782a647b0ff873a0b8409b32aa",
      "transactionType": "CALL",
      "contractName": "MarginVault",
      "contractAddress": "0xf4b146fba71f41e0592668ffbf264f1d186b2ca8",
      "function": "setPerpEngine(address)",
      "arguments": [
        "0x172076E0166D1F9Cc711C77Adf8488051744980C"
      ],
      "transaction": {
        "from": "0xf39fd6e51aad88f6f4ce6ab8827279cfffb92266",
        "to": "0xf4b146fba71f41e0592668ffbf264f1d186b2ca8",
        "gas": "0x10741",
        "value": "0x0",
        "input": "0xb619daf7000000000000000000000000172076e0166d1f9cc711c77adf8488051744980c",
        "nonce": "0x52",
        "chainId": "0xa455"
      },
      "additionalContracts": [],
      "isFixedGasLimit": false
    },
    {
      "hash": "0xd912c98c0f62f1609d3ad95f116d4176c4ce40ac9249538524af3a6922d76367",
      "transactionType": "CALL",
      "contractName": "PerpPriceOracle",
      "contractAddress": "0x0355b7b8cb128fa5692729ab3aaa199c1753f726",
      "function": "registerMarket(bytes32)",
      "arguments": [
        "0xe98e2830be1a7e4156d656a7505e65d08c67660dc618072422e9c78053c261e9"
      ],
      "transaction": {
        "from": "0xf39fd6e51aad88f6f4ce6ab8827279cfffb92266",
        "to": "0x0355b7b8cb128fa5692729ab3aaa199c1753f726",
        "gas": "0x10d9b",
        "value": "0x0",
        "input": "0x0df1d5ede98e2830be1a7e4156d656a7505e65d08c67660dc618072422e9c78053c261e9",
        "nonce": "0x53",
        "chainId": "0xa455"
      },
      "additionalContracts": [],
      "isFixedGasLimit": false
    },
    {
      "hash": "0xab84c3a6ba3613b5ffb4de97c6a30222d9924c3714b841c103183711a48adb01",
      "transactionType": "CALL",
      "contractName": "PerpPriceOracle",
      "contractAddress": "0x0355b7b8cb128fa5692729ab3aaa199c1753f726",
      "function": "setManualPrice(bytes32,uint256,uint256)",
      "arguments": [
        "0xe98e2830be1a7e4156d656a7505e65d08c67660dc618072422e9c78053c261e9",
        "6500000000000",
        "6498000000000"
      ],
      "transaction": {
        "from": "0xf39fd6e51aad88f6f4ce6ab8827279cfffb92266",
        "to": "0x0355b7b8cb128fa5692729ab3aaa199c1753f726",
        "gas": "0x29fb4",
        "value": "0x0",
        "input": "0xf229fecee98e2830be1a7e4156d656a7505e65d08c67660dc618072422e9c78053c261e9000000000000000000000000000000000000000000000000000005e96630e800000000000000000000000000000000000000000000000000000005e8eefb5400",
        "nonce": "0x54",
        "chainId": "0xa455"
      },
      "additionalContracts": [],
      "isFixedGasLimit": false
    },
    {
      "hash": "0xe33a18b2be7e4f47ecb39c29dfab48940234438b8972584bad29df8c88041b8d",
      "transactionType": "CALL",
      "contractName": "PerpEngine",
      "contractAddress": "0x172076e0166d1f9cc711c77adf8488051744980c",
      "function": "createMarket(bytes32,bytes32,uint256)",
      "arguments": [
        "0xe98e2830be1a7e4156d656a7505e65d08c67660dc618072422e9c78053c261e9",
        "0xe98e2830be1a7e4156d656a7505e65d08c67660dc618072422e9c78053c261e9",
        "50"
      ],
      "transaction": {
        "from": "0xf39fd6e51aad88f6f4ce6ab8827279cfffb92266",
        "to": "0x172076e0166d1f9cc711c77adf8488051744980c",
        "gas": "0x3d47c",
        "value": "0x0",
        "input": "0x22924773e98e2830be1a7e4156d656a7505e65d08c67660dc618072422e9c78053c261e9e98e2830be1a7e4156d656a7505e65d08c67660dc618072422e9c78053c261e90000000000000000000000000000000000000000000000000000000000000032",
        "nonce": "0x55",
        "chainId": "0xa455"
      },
      "additionalContracts": [],
      "isFixedGasLimit": false
    },
    {
      "hash": "0xb94c0ac1e6ef2b0f3e3a44daed6a9bc002b531d9890b694c975a5036c0301e78",
      "transactionType": "CALL",
      "contractName": "PerpPriceOracle",
      "contractAddress": "0x0355b7b8cb128fa5692729ab3aaa199c1753f726",
      "function": "registerMarket(bytes32)",
      "arguments": [
        "0xaaaebeba3810b1e6b70781f14b2d72c1cb89c0b2b320c43bb67ff79f562f5ff4"
      ],
      "transaction": {
        "from": "0xf39fd6e51aad88f6f4ce6ab8827279cfffb92266",
        "to": "0x0355b7b8cb128fa5692729ab3aaa199c1753f726",
        "gas": "0x10d9b",
        "value": "0x0",
        "input": "0x0df1d5edaaaebeba3810b1e6b70781f14b2d72c1cb89c0b2b320c43bb67ff79f562f5ff4",
        "nonce": "0x56",
        "chainId": "0xa455"
      },
      "additionalContracts": [],
      "isFixedGasLimit": false
    },
    {
      "hash": "0xd75b32f64ef761753be2ba9833ec70b7f76c94108c092a7c2176806c2018412b",
      "transactionType": "CALL",
      "contractName": "PerpPriceOracle",
      "contractAddress": "0x0355b7b8cb128fa5692729ab3aaa199c1753f726",
      "function": "setManualPrice(bytes32,uint256,uint256)",
      "arguments": [
        "0xaaaebeba3810b1e6b70781f14b2d72c1cb89c0b2b320c43bb67ff79f562f5ff4",
        "320000000000",
        "319800000000"
      ],
      "transaction": {
        "from": "0xf39fd6e51aad88f6f4ce6ab8827279cfffb92266",
        "to": "0x0355b7b8cb128fa5692729ab3aaa199c1753f726",
        "gas": "0x29f91",
        "value": "0x0",
        "input": "0xf229feceaaaebeba3810b1e6b70781f14b2d72c1cb89c0b2b320c43bb67ff79f562f5ff40000000000000000000000000000000000000000000000000000004a817c80000000000000000000000000000000000000000000000000000000004a7590be00",
        "nonce": "0x57",
        "chainId": "0xa455"
      },
      "additionalContracts": [],
      "isFixedGasLimit": false
    },
    {
      "hash": "0x4d26134efdbba0264b229505454badfc00314683bea960bd69bb621815729855",
      "transactionType": "CALL",
      "contractName": "PerpEngine",
      "contractAddress": "0x172076e0166d1f9cc711c77adf8488051744980c",
      "function": "createMarket(bytes32,bytes32,uint256)",
      "arguments": [
        "0xaaaebeba3810b1e6b70781f14b2d72c1cb89c0b2b320c43bb67ff79f562f5ff4",
        "0xaaaebeba3810b1e6b70781f14b2d72c1cb89c0b2b320c43bb67ff79f562f5ff4",
        "50"
      ],
      "transaction": {
        "from": "0xf39fd6e51aad88f6f4ce6ab8827279cfffb92266",
        "to": "0x172076e0166d1f9cc711c77adf8488051744980c",
        "gas": "0x341bf",
        "value": "0x0",
        "input": "0x22924773aaaebeba3810b1e6b70781f14b2d72c1cb89c0b2b320c43bb67ff79f562f5ff4aaaebeba3810b1e6b70781f14b2d72c1cb89c0b2b320c43bb67ff79f562f5ff40000000000000000000000000000000000000000000000000000000000000032",
        "nonce": "0x58",
        "chainId": "0xa455"
      },
      "additionalContracts": [],
      "isFixedGasLimit": false
    },
    {
      "hash": "0x9c2cedb30939d842ae2eb8f3e54459d9efdddfaa98ead5b02b9c90a57e059a98",
      "transactionType": "CALL",
      "contractName": "PerpPriceOracle",
      "contractAddress": "0x0355b7b8cb128fa5692729ab3aaa199c1753f726",
      "function": "registerMarket(bytes32)",
      "arguments": [
        "0x0a3ec4fc70eaf64faf6eeda4e9b2bd4742a785464053aa23afad8bd24650e86f"
      ],
      "transaction": {
        "from": "0xf39fd6e51aad88f6f4ce6ab8827279cfffb92266",
        "to": "0x0355b7b8cb128fa5692729ab3aaa199c1753f726",
        "gas": "0x10d9b",
        "value": "0x0",
        "input": "0x0df1d5ed0a3ec4fc70eaf64faf6eeda4e9b2bd4742a785464053aa23afad8bd24650e86f",
        "nonce": "0x59",
        "chainId": "0xa455"
      },
      "additionalContracts": [],
      "isFixedGasLimit": false
    },
    {
      "hash": "0x6d8ebf61aa2bcedb02da24dd6f61c54522c4b695da101853a5daa6595513d553",
      "transactionType": "CALL",
      "contractName": "PerpPriceOracle",
      "contractAddress": "0x0355b7b8cb128fa5692729ab3aaa199c1753f726",
      "function": "setManualPrice(bytes32,uint256,uint256)",
      "arguments": [
        "0x0a3ec4fc70eaf64faf6eeda4e9b2bd4742a785464053aa23afad8bd24650e86f",
        "18000000000",
        "17990000000"
      ],
      "transaction": {
        "from": "0xf39fd6e51aad88f6f4ce6ab8827279cfffb92266",
        "to": "0x0355b7b8cb128fa5692729ab3aaa199c1753f726",
        "gas": "0x27a51",
        "value": "0x0",
        "input": "0xf229fece0a3ec4fc70eaf64faf6eeda4e9b2bd4742a785464053aa23afad8bd24650e86f0000000000000000000000000000000000000000000000000000000430e234000000000000000000000000000000000000000000000000000000000430499d80",
        "nonce": "0x5a",
        "chainId": "0xa455"
      },
      "additionalContracts": [],
      "isFixedGasLimit": false
    },
    {
      "hash": "0x8b80378736629b89a66ebfff0679ebd2cca33f464941bda39fad710406d05f7e",
      "transactionType": "CALL",
      "contractName": "PerpEngine",
      "contractAddress": "0x172076e0166d1f9cc711c77adf8488051744980c",
      "function": "createMarket(bytes32,bytes32,uint256)",
      "arguments": [
        "0x0a3ec4fc70eaf64faf6eeda4e9b2bd4742a785464053aa23afad8bd24650e86f",
        "0x0a3ec4fc70eaf64faf6eeda4e9b2bd4742a785464053aa23afad8bd24650e86f",
        "25"
      ],
      "transaction": {
        "from": "0xf39fd6e51aad88f6f4ce6ab8827279cfffb92266",
        "to": "0x172076e0166d1f9cc711c77adf8488051744980c",
        "gas": "0x341bf",
        "value": "0x0",
        "input": "0x229247730a3ec4fc70eaf64faf6eeda4e9b2bd4742a785464053aa23afad8bd24650e86f0a3ec4fc70eaf64faf6eeda4e9b2bd4742a785464053aa23afad8bd24650e86f0000000000000000000000000000000000000000000000000000000000000019",
        "nonce": "0x5b",
        "chainId": "0xa455"
      },
      "additionalContracts": [],
      "isFixedGasLimit": false
    },
    {
      "hash": "0x01ff6b9ed3c21a817fcbae8ebdc6bd9a032c6c07c80e1644ab1b2b56290af536",
      "transactionType": "CALL",
      "contractName": "PerpPriceOracle",
      "contractAddress": "0x0355b7b8cb128fa5692729ab3aaa199c1753f726",
      "function": "registerMarket(bytes32)",
      "arguments": [
        "0x3ed03c38e59dc60c7b69c2a4bf68f9214acd953252b5a90e8f5f59583e9bc3ae"
      ],
      "transaction": {
        "from": "0xf39fd6e51aad88f6f4ce6ab8827279cfffb92266",
        "to": "0x0355b7b8cb128fa5692729ab3aaa199c1753f726",
        "gas": "0x10d9b",
        "value": "0x0",
        "input": "0x0df1d5ed3ed03c38e59dc60c7b69c2a4bf68f9214acd953252b5a90e8f5f59583e9bc3ae",
        "nonce": "0x5c",
        "chainId": "0xa455"
      },
      "additionalContracts": [],
      "isFixedGasLimit": false
    },
    {
      "hash": "0x4f1eac4755af7050a10bdaf504659b85dc8ef56b9579bef4d647801d90afa918",
      "transactionType": "CALL",
      "contractName": "PerpPriceOracle",
      "contractAddress": "0x0355b7b8cb128fa5692729ab3aaa199c1753f726",
      "function": "setManualPrice(bytes32,uint256,uint256)",
      "arguments": [
        "0x3ed03c38e59dc60c7b69c2a4bf68f9214acd953252b5a90e8f5f59583e9bc3ae",
        "60000000000",
        "59980000000"
      ],
      "transaction": {
        "from": "0xf39fd6e51aad88f6f4ce6ab8827279cfffb92266",
        "to": "0x0355b7b8cb128fa5692729ab3aaa199c1753f726",
        "gas": "0x29f91",
        "value": "0x0",
        "input": "0xf229fece3ed03c38e59dc60c7b69c2a4bf68f9214acd953252b5a90e8f5f59583e9bc3ae0000000000000000000000000000000000000000000000000000000df84758000000000000000000000000000000000000000000000000000000000df7162b00",
        "nonce": "0x5d",
        "chainId": "0xa455"
      },
      "additionalContracts": [],
      "isFixedGasLimit": false
    },
    {
      "hash": "0x2bdd5b84b69eb4ce90dd939d69c4810f1ea77e96e86e934bbae696158c1793bd",
      "transactionType": "CALL",
      "contractName": "PerpEngine",
      "contractAddress": "0x172076e0166d1f9cc711c77adf8488051744980c",
      "function": "createMarket(bytes32,bytes32,uint256)",
      "arguments": [
        "0x3ed03c38e59dc60c7b69c2a4bf68f9214acd953252b5a90e8f5f59583e9bc3ae",
        "0x3ed03c38e59dc60c7b69c2a4bf68f9214acd953252b5a90e8f5f59583e9bc3ae",
        "25"
      ],
      "transaction": {
        "from": "0xf39fd6e51aad88f6f4ce6ab8827279cfffb92266",
        "to": "0x172076e0166d1f9cc711c77adf8488051744980c",
        "gas": "0x341bf",
        "value": "0x0",
        "input": "0x229247733ed03c38e59dc60c7b69c2a4bf68f9214acd953252b5a90e8f5f59583e9bc3ae3ed03c38e59dc60c7b69c2a4bf68f9214acd953252b5a90e8f5f59583e9bc3ae0000000000000000000000000000000000000000000000000000000000000019",
        "nonce": "0x5e",
        "chainId": "0xa455"
      },
      "additionalContracts": [],
      "isFixedGasLimit": false
    },
    {
      "hash": "0xd1ac3df91234eb670ab1c3be2606591bd1f7d055fb77b89e47b3649b9cc19b40",
      "transactionType": "CALL",
      "contractName": "PerpPriceOracle",
      "contractAddress": "0x0355b7b8cb128fa5692729ab3aaa199c1753f726",
      "function": "registerMarket(bytes32)",
      "arguments": [
        "0xa6a7de01e8b7ba6a4a61c782a73188d808fc1f3cf5743fadb68a02ed884b594f"
      ],
      "transaction": {
        "from": "0xf39fd6e51aad88f6f4ce6ab8827279cfffb92266",
        "to": "0x0355b7b8cb128fa5692729ab3aaa199c1753f726",
        "gas": "0x10d9b",
        "value": "0x0",
        "input": "0x0df1d5eda6a7de01e8b7ba6a4a61c782a73188d808fc1f3cf5743fadb68a02ed884b594f",
        "nonce": "0x5f",
        "chainId": "0xa455"
      },
      "additionalContracts": [],
      "isFixedGasLimit": false
    },
    {
      "hash": "0x3000878c55563f146c050bc55daa95f8fb38e96c634c8afbc7f0f2032806d51d",
      "transactionType": "CALL",
      "contractName": "PerpPriceOracle",
      "contractAddress": "0x0355b7b8cb128fa5692729ab3aaa199c1753f726",
      "function": "setManualPrice(bytes32,uint256,uint256)",
      "arguments": [
        "0xa6a7de01e8b7ba6a4a61c782a73188d808fc1f3cf5743fadb68a02ed884b594f",
        "90000000",
        "89500000"
      ],
      "transaction": {
        "from": "0xf39fd6e51aad88f6f4ce6ab8827279cfffb92266",
        "to": "0x0355b7b8cb128fa5692729ab3aaa199c1753f726",
        "gas": "0x29f91",
        "value": "0x0",
        "input": "0xf229fecea6a7de01e8b7ba6a4a61c782a73188d808fc1f3cf5743fadb68a02ed884b594f00000000000000000000000000000000000000000000000000000000055d4a80000000000000000000000000000000000000000000000000000000000555a960",
        "nonce": "0x60",
        "chainId": "0xa455"
      },
      "additionalContracts": [],
      "isFixedGasLimit": false
    },
    {
      "hash": "0xf2a44ade91c05d97010109da63dc2b01e0c4c0657a72aaec5e44a203431567e2",
      "transactionType": "CALL",
      "contractName": "PerpEngine",
      "contractAddress": "0x172076e0166d1f9cc711c77adf8488051744980c",
      "function": "createMarket(bytes32,bytes32,uint256)",
      "arguments": [
        "0xa6a7de01e8b7ba6a4a61c782a73188d808fc1f3cf5743fadb68a02ed884b594f",
        "0xa6a7de01e8b7ba6a4a61c782a73188d808fc1f3cf5743fadb68a02ed884b594f",
        "20"
      ],
      "transaction": {
        "from": "0xf39fd6e51aad88f6f4ce6ab8827279cfffb92266",
        "to": "0x172076e0166d1f9cc711c77adf8488051744980c",
        "gas": "0x341bf",
        "value": "0x0",
        "input": "0x22924773a6a7de01e8b7ba6a4a61c782a73188d808fc1f3cf5743fadb68a02ed884b594fa6a7de01e8b7ba6a4a61c782a73188d808fc1f3cf5743fadb68a02ed884b594f0000000000000000000000000000000000000000000000000000000000000014",
        "nonce": "0x61",
        "chainId": "0xa455"
      },
      "additionalContracts": [],
      "isFixedGasLimit": false
    },
    {
      "hash": "0xa850bb8e01b5690f2c752e191946e03c2afb4b254de54d6cc06ba4b5051e145e",
      "transactionType": "CALL",
      "contractName": "PerpPriceOracle",
      "contractAddress": "0x0355b7b8cb128fa5692729ab3aaa199c1753f726",
      "function": "registerMarket(bytes32)",
      "arguments": [
        "0xc07524b7a4eecc2784fc7ac17ff2730f877f3cf7a2ceb4e2375fa40a103115d0"
      ],
      "transaction": {
        "from": "0xf39fd6e51aad88f6f4ce6ab8827279cfffb92266",
        "to": "0x0355b7b8cb128fa5692729ab3aaa199c1753f726",
        "gas": "0x10d9b",
        "value": "0x0",
        "input": "0x0df1d5edc07524b7a4eecc2784fc7ac17ff2730f877f3cf7a2ceb4e2375fa40a103115d0",
        "nonce": "0x62",
        "chainId": "0xa455"
      },
      "additionalContracts": [],
      "isFixedGasLimit": false
    },
    {
      "hash": "0xa9addf15219b66ddbd2300ce551d5bb2c6a556a2af3951807c83214b9809b935",
      "transactionType": "CALL",
      "contractName": "PerpPriceOracle",
      "contractAddress": "0x0355b7b8cb128fa5692729ab3aaa199c1753f726",
      "function": "setManualPrice(bytes32,uint256,uint256)",
      "arguments": [
        "0xc07524b7a4eecc2784fc7ac17ff2730f877f3cf7a2ceb4e2375fa40a103115d0",
        "120000000",
        "119800000"
      ],
      "transaction": {
        "from": "0xf39fd6e51aad88f6f4ce6ab8827279cfffb92266",
        "to": "0x0355b7b8cb128fa5692729ab3aaa199c1753f726",
        "gas": "0x29f6e",
        "value": "0x0",
        "input": "0xf229fecec07524b7a4eecc2784fc7ac17ff2730f877f3cf7a2ceb4e2375fa40a103115d00000000000000000000000000000000000000000000000000000000007270e0000000000000000000000000000000000000000000000000000000000072400c0",
        "nonce": "0x63",
        "chainId": "0xa455"
      },
      "additionalContracts": [],
      "isFixedGasLimit": false
    },
    {
      "hash": "0xb7254a210c2a63ea2c1a7913cdb3b2aa12daf5a1a0da99e9f2457217401d359b",
      "transactionType": "CALL",
      "contractName": "PerpEngine",
      "contractAddress": "0x172076e0166d1f9cc711c77adf8488051744980c",
      "function": "createMarket(bytes32,bytes32,uint256)",
      "arguments": [
        "0xc07524b7a4eecc2784fc7ac17ff2730f877f3cf7a2ceb4e2375fa40a103115d0",
        "0xc07524b7a4eecc2784fc7ac17ff2730f877f3cf7a2ceb4e2375fa40a103115d0",
        "20"
      ],
      "transaction": {
        "from": "0xf39fd6e51aad88f6f4ce6ab8827279cfffb92266",
        "to": "0x172076e0166d1f9cc711c77adf8488051744980c",
        "gas": "0x341bf",
        "value": "0x0",
        "input": "0x22924773c07524b7a4eecc2784fc7ac17ff2730f877f3cf7a2ceb4e2375fa40a103115d0c07524b7a4eecc2784fc7ac17ff2730f877f3cf7a2ceb4e2375fa40a103115d00000000000000000000000000000000000000000000000000000000000000014",
        "nonce": "0x64",
        "chainId": "0xa455"
      },
      "additionalContracts": [],
      "isFixedGasLimit": false
    }
  ],
  "receipts": [
    {
      "status": "0x1",
      "cumulativeGasUsed": "0xdc1ae",
      "logs": [],
      "logsBloom": "0x00000000000000000000000000000000000000000000000000000000000000000000000000000000000000000000000000000000000000000000000000000000000000000000000000000000000000000000000000000000000000000000000000000000000000000000000000000000000000000000000000000000000000000000000000000000000000000000000000000000000000000000000000000000000000000000000000000000000000000000000000000000000000000000000000000000000000000000000000000000000000000000000000000000000000000000000000000000000000000000000000000000000000000000000000000000",
      "type": "0x0",
      "transactionHash": "0x03dbe58ad6b4cd9f3570b951d9b2ec5ac4b1e1ac562e62b5d8b8a47450bc0c8f",
      "transactionIndex": "0x0",
      "blockHash": "0xff71ecd21ab35f99a15aeeaa82242a8a773631fdf7cd37c30005040b653035e4",
      "blockNumber": "0x81",
      "gasUsed": "0xdc1ae",
      "effectiveGasPrice": "0x3b9aca37",
      "blobGasPrice": "0x1",
      "from": "0xf39fd6e51aad88f6f4ce6ab8827279cfffb92266",
      "to": null,
      "contractAddress": "0x0355b7b8cb128fa5692729ab3aaa199c1753f726",
      "blockTimestamp": 1778702030
    },
    {
      "status": "0x1",
      "cumulativeGasUsed": "0x13fcda",
      "logs": [],
      "logsBloom": "0x00000000000000000000000000000000000000000000000000000000000000000000000000000000000000000000000000000000000000000000000000000000000000000000000000000000000000000000000000000000000000000000000000000000000000000000000000000000000000000000000000000000000000000000000000000000000000000000000000000000000000000000000000000000000000000000000000000000000000000000000000000000000000000000000000000000000000000000000000000000000000000000000000000000000000000000000000000000000000000000000000000000000000000000000000000000",
      "type": "0x0",
      "transactionHash": "0x9c2cedb30939d842ae2eb8f3e54459d9efdddfaa98ead5b02b9c90a57e059a98",
      "transactionIndex": "0x1",
      "blockHash": "0xff71ecd21ab35f99a15aeeaa82242a8a773631fdf7cd37c30005040b653035e4",
      "blockNumber": "0x81",
      "gasUsed": "0x63b2c",
      "effectiveGasPrice": "0x3b9aca37",
      "blobGasPrice": "0x1",
      "from": "0xf39fd6e51aad88f6f4ce6ab8827279cfffb92266",
      "to": null,
      "contractAddress": "0x202cce504e04bed6fc0521238ddf04bc9e8e15ab",
      "blockTimestamp": 1778702030
    },
    {
      "status": "0x1",
      "cumulativeGasUsed": "0x1cead4",
      "logs": [],
      "logsBloom": "0x00000000000000000000000000000000000000000000000000000000000000000000000000000000000000000000000000000000000000000000000000000000000000000000000000000000000000000000000000000000000000000000000000000000000000000000000000000000000000000000000000000000000000000000000000000000000000000000000000000000000000000000000000000000000000000000000000000000000000000000000000000000000000000000000000000000000000000000000000000000000000000000000000000000000000000000000000000000000000000000000000000000000000000000000000000000",
      "type": "0x0",
      "transactionHash": "0x2bdd5b84b69eb4ce90dd939d69c4810f1ea77e96e86e934bbae696158c1793bd",
      "transactionIndex": "0x2",
      "blockHash": "0xff71ecd21ab35f99a15aeeaa82242a8a773631fdf7cd37c30005040b653035e4",
      "blockNumber": "0x81",
      "gasUsed": "0x8edfa",
      "effectiveGasPrice": "0x3b9aca37",
      "blobGasPrice": "0x1",
      "from": "0xf39fd6e51aad88f6f4ce6ab8827279cfffb92266",
      "to": null,
      "contractAddress": "0xf4b146fba71f41e0592668ffbf264f1d186b2ca8",
      "blockTimestamp": 1778702030
    },
    {
      "status": "0x1",
      "cumulativeGasUsed": "0x39162c",
      "logs": [],
      "logsBloom": "0x00000000000000000000000000000000000000000000000000000000000000000000000000000000000000000000000000000000000000000000000000000000000000000000000000000000000000000000000000000000000000000000000000000000000000000000000000000000000000000000000000000000000000000000000000000000000000000000000000000000000000000000000000000000000000000000000000000000000000000000000000000000000000000000000000000000000000000000000000000000000000000000000000000000000000000000000000000000000000000000000000000000000000000000000000000000",
      "type": "0x0",
      "transactionHash": "0xa850bb8e01b5690f2c752e191946e03c2afb4b254de54d6cc06ba4b5051e145e",
      "transactionIndex": "0x3",
      "blockHash": "0xff71ecd21ab35f99a15aeeaa82242a8a773631fdf7cd37c30005040b653035e4",
      "blockNumber": "0x81",
      "gasUsed": "0x1c2b58",
      "effectiveGasPrice": "0x3b9aca37",
      "blobGasPrice": "0x1",
      "from": "0xf39fd6e51aad88f6f4ce6ab8827279cfffb92266",
      "to": null,
      "contractAddress": "0x172076e0166d1f9cc711c77adf8488051744980c",
      "blockTimestamp": 1778702030
    },
    {
      "status": "0x1",
      "cumulativeGasUsed": "0x39ca1d",
      "logs": [],
      "logsBloom": "0x00000000000000000000000000000000000000000000000000000000000000000000000000000000000000000000000000000000000000000000000000000000000000000000000000000000000000000000000000000000000000000000000000000000000000000000000000000000000000000000000000000000000000000000000000000000000000000000000000000000000000000000000000000000000000000000000000000000000000000000000000000000000000000000000000000000000000000000000000000000000000000000000000000000000000000000000000000000000000000000000000000000000000000000000000000000",
      "type": "0x0",
      "transactionHash": "0x4f1eac4755af7050a10bdaf504659b85dc8ef56b9579bef4d647801d90afa918",
      "transactionIndex": "0x4",
      "blockHash": "0xff71ecd21ab35f99a15aeeaa82242a8a773631fdf7cd37c30005040b653035e4",
      "blockNumber": "0x81",
      "gasUsed": "0xb3f1",
      "effectiveGasPrice": "0x3b9aca37",
      "blobGasPrice": "0x1",
      "from": "0xf39fd6e51aad88f6f4ce6ab8827279cfffb92266",
      "to": "0x202cce504e04bed6fc0521238ddf04bc9e8e15ab",
      "contractAddress": null,
      "blockTimestamp": 1778702030
    },
    {
      "status": "0x1",
      "cumulativeGasUsed": "0x3a7e1e",
      "logs": [],
      "logsBloom": "0x00000000000000000000000000000000000000000000000000000000000000000000000000000000000000000000000000000000000000000000000000000000000000000000000000000000000000000000000000000000000000000000000000000000000000000000000000000000000000000000000000000000000000000000000000000000000000000000000000000000000000000000000000000000000000000000000000000000000000000000000000000000000000000000000000000000000000000000000000000000000000000000000000000000000000000000000000000000000000000000000000000000000000000000000000000000",
      "type": "0x0",
      "transactionHash": "0x1dc1b5497f2a2eb37cc3322271f981f2cb5f5cfac3dbeb708b97e3d1ea10585b",
      "transactionIndex": "0x5",
      "blockHash": "0xff71ecd21ab35f99a15aeeaa82242a8a773631fdf7cd37c30005040b653035e4",
      "blockNumber": "0x81",
      "gasUsed": "0xb401",
      "effectiveGasPrice": "0x3b9aca37",
      "blobGasPrice": "0x1",
      "from": "0xf39fd6e51aad88f6f4ce6ab8827279cfffb92266",
      "to": "0xf4b146fba71f41e0592668ffbf264f1d186b2ca8",
      "contractAddress": null,
      "blockTimestamp": 1778702030
    },
    {
      "status": "0x1",
      "cumulativeGasUsed": "0x3b3677",
      "logs": [
        {
          "address": "0x0355b7b8cb128fa5692729ab3aaa199c1753f726",
          "topics": [
            "0xd4a2ffd4212ea97bb981aae1f4a20d5170df470d2ed811c1b393882bc1d9f0fa",
            "0xe98e2830be1a7e4156d656a7505e65d08c67660dc618072422e9c78053c261e9"
          ],
          "data": "0x",
          "blockHash": "0xff71ecd21ab35f99a15aeeaa82242a8a773631fdf7cd37c30005040b653035e4",
          "blockNumber": "0x81",
          "blockTimestamp": "0x6a04d6ce",
          "transactionHash": "0xd75b32f64ef761753be2ba9833ec70b7f76c94108c092a7c2176806c2018412b",
          "transactionIndex": "0x6",
          "logIndex": "0x0",
          "removed": false
        }
      ],
      "logsBloom": "0x00000000000000000000000000000000000000000000000000000000000000000000000000000000002000000000000000000000000000000000004000000000000000000000000000000000000000000000080000000000000000000000000000000000000000000000000000000000000000000000000000000000000000000000002000000000000000000000000000000000000000000000000000000000004004000000000000000000000000000000000000000000000000000000000000000000000000000000000000000000000000000000000000000000000000000000000000000000000500000000000000000000000000000000000000400000",
      "type": "0x0",
      "transactionHash": "0xd75b32f64ef761753be2ba9833ec70b7f76c94108c092a7c2176806c2018412b",
      "transactionIndex": "0x6",
      "blockHash": "0xff71ecd21ab35f99a15aeeaa82242a8a773631fdf7cd37c30005040b653035e4",
      "blockNumber": "0x81",
      "gasUsed": "0xb859",
      "effectiveGasPrice": "0x3b9aca37",
      "blobGasPrice": "0x1",
      "from": "0xf39fd6e51aad88f6f4ce6ab8827279cfffb92266",
      "to": "0x0355b7b8cb128fa5692729ab3aaa199c1753f726",
      "contractAddress": null,
      "blockTimestamp": 1778702030
    },
    {
      "status": "0x1",
      "cumulativeGasUsed": "0x3d01c0",
      "logs": [
        {
          "address": "0x0355b7b8cb128fa5692729ab3aaa199c1753f726",
          "topics": [
            "0xd1e0ff31b5a8e9db7a93db8b63d84e896cce257bc637e6d369f43178eedd98ce",
            "0xe98e2830be1a7e4156d656a7505e65d08c67660dc618072422e9c78053c261e9"
          ],
          "data": "0x000000000000000000000000000000000000000000000000000005e96630e800000000000000000000000000000000000000000000000000000005e8eefb5400",
          "blockHash": "0xff71ecd21ab35f99a15aeeaa82242a8a773631fdf7cd37c30005040b653035e4",
          "blockNumber": "0x81",
          "blockTimestamp": "0x6a04d6ce",
          "transactionHash": "0xb94c0ac1e6ef2b0f3e3a44daed6a9bc002b531d9890b694c975a5036c0301e78",
          "transactionIndex": "0x7",
          "logIndex": "0x1",
          "removed": false
        }
      ],
      "logsBloom": "0x00000000000000000000000000000000000000000000000000000000000000000000000000000000002000000000000000000000000000000000004000000000000000000000000000000000000000000000000000000000000000001000000000000000000000000000000000000000000000000000000000000000000000000001002000000000000000000000000000000000000000000000000000000000000004000000000000000000020000000000000000000000000000000000000000000000000000000000000000000000000000000000000000000000000000000000000000000000000100000000000000000000000000000000000000400000",
      "type": "0x0",
      "transactionHash": "0xb94c0ac1e6ef2b0f3e3a44daed6a9bc002b531d9890b694c975a5036c0301e78",
      "transactionIndex": "0x7",
      "blockHash": "0xff71ecd21ab35f99a15aeeaa82242a8a773631fdf7cd37c30005040b653035e4",
      "blockNumber": "0x81",
      "gasUsed": "0x1cb49",
      "effectiveGasPrice": "0x3b9aca37",
      "blobGasPrice": "0x1",
      "from": "0xf39fd6e51aad88f6f4ce6ab8827279cfffb92266",
      "to": "0x0355b7b8cb128fa5692729ab3aaa199c1753f726",
      "contractAddress": null,
      "blockTimestamp": 1778702030
    },
    {
      "status": "0x1",
      "cumulativeGasUsed": "0x3fa02b",
      "logs": [
        {
          "address": "0x172076e0166d1f9cc711c77adf8488051744980c",
          "topics": [
            "0xf7154dd385fd97f5acd402bbddfc43353a65d67ed869dc6e507a9f99d6a2040d",
            "0x0000000000000000000000000000000000000000000000000000000000000000"
          ],
          "data": "0xe98e2830be1a7e4156d656a7505e65d08c67660dc618072422e9c78053c261e90000000000000000000000000000000000000000000000000000000000000032",
          "blockHash": "0xff71ecd21ab35f99a15aeeaa82242a8a773631fdf7cd37c30005040b653035e4",
          "blockNumber": "0x81",
          "blockTimestamp": "0x6a04d6ce",
          "transactionHash": "0xd912c98c0f62f1609d3ad95f116d4176c4ce40ac9249538524af3a6922d76367",
          "transactionIndex": "0x8",
          "logIndex": "0x2",
          "removed": false
        }
      ],
      "logsBloom": "0x00000000000000000000000000000000000000000000000000000000000000000000000000000000000000000000000000000000008000000000000000000000000000000000000000000000000010200000000000000000000000000000000000000000120000000000000000000800000000000000000000000000000000000000000000000000000000000000004000000000000000000000000000000000000000000000000000000000000000000000000000000000000000000000000000800000000000000000000000000000000000000000000000000000000020000000000000000000000000000000000000000000000000000000000000000000",
      "type": "0x0",
      "transactionHash": "0xd912c98c0f62f1609d3ad95f116d4176c4ce40ac9249538524af3a6922d76367",
      "transactionIndex": "0x8",
      "blockHash": "0xff71ecd21ab35f99a15aeeaa82242a8a773631fdf7cd37c30005040b653035e4",
      "blockNumber": "0x81",
      "gasUsed": "0x29e6b",
      "effectiveGasPrice": "0x3b9aca37",
      "blobGasPrice": "0x1",
      "from": "0xf39fd6e51aad88f6f4ce6ab8827279cfffb92266",
      "to": "0x172076e0166d1f9cc711c77adf8488051744980c",
      "contractAddress": null,
      "blockTimestamp": 1778702030
    },
    {
      "status": "0x1",
      "cumulativeGasUsed": "0x405884",
      "logs": [
        {
          "address": "0x0355b7b8cb128fa5692729ab3aaa199c1753f726",
          "topics": [
            "0xd4a2ffd4212ea97bb981aae1f4a20d5170df470d2ed811c1b393882bc1d9f0fa",
            "0xaaaebeba3810b1e6b70781f14b2d72c1cb89c0b2b320c43bb67ff79f562f5ff4"
          ],
          "data": "0x",
          "blockHash": "0xff71ecd21ab35f99a15aeeaa82242a8a773631fdf7cd37c30005040b653035e4",
          "blockNumber": "0x81",
          "blockTimestamp": "0x6a04d6ce",
          "transactionHash": "0x0b75382b54fe4350053dba06315d5ca57af3b5782a647b0ff873a0b8409b32aa",
          "transactionIndex": "0x9",
          "logIndex": "0x3",
          "removed": false
        }
      ],
      "logsBloom": "0x00000000000000000000000000000000000000000000000000000000000000000000000000000000000000000000000000000000000000000000004000000000000000000000000000000000000000000000080000000000000000000000000000000000000000000000000000000000000000040000000000000000000000000000002000000000000000008000000000000000000000000000000000000000004004000000000000000000000000000000000000000000000000000000000000000000000000000000000000000000000000000000000000001000000000000000000000000000000400000000000000000000000000000000000000000000",
      "type": "0x0",
      "transactionHash": "0x0b75382b54fe4350053dba06315d5ca57af3b5782a647b0ff873a0b8409b32aa",
      "transactionIndex": "0x9",
      "blockHash": "0xff71ecd21ab35f99a15aeeaa82242a8a773631fdf7cd37c30005040b653035e4",
      "blockNumber": "0x81",
      "gasUsed": "0xb859",
      "effectiveGasPrice": "0x3b9aca37",
      "blobGasPrice": "0x1",
      "from": "0xf39fd6e51aad88f6f4ce6ab8827279cfffb92266",
      "to": "0x0355b7b8cb128fa5692729ab3aaa199c1753f726",
      "contractAddress": null,
      "blockTimestamp": 1778702030
    },
    {
      "status": "0x1",
      "cumulativeGasUsed": "0x4223b5",
      "logs": [
        {
          "address": "0x0355b7b8cb128fa5692729ab3aaa199c1753f726",
          "topics": [
            "0xd1e0ff31b5a8e9db7a93db8b63d84e896cce257bc637e6d369f43178eedd98ce",
            "0xaaaebeba3810b1e6b70781f14b2d72c1cb89c0b2b320c43bb67ff79f562f5ff4"
          ],
          "data": "0x0000000000000000000000000000000000000000000000000000004a817c80000000000000000000000000000000000000000000000000000000004a7590be00",
          "blockHash": "0xff71ecd21ab35f99a15aeeaa82242a8a773631fdf7cd37c30005040b653035e4",
          "blockNumber": "0x81",
          "blockTimestamp": "0x6a04d6ce",
          "transactionHash": "0xb7254a210c2a63ea2c1a7913cdb3b2aa12daf5a1a0da99e9f2457217401d359b",
          "transactionIndex": "0xa",
          "logIndex": "0x4",
          "removed": false
        }
      ],
      "logsBloom": "0x00000000000000000000000000000000000000000000000000000000000000000000000000000000000000000000000000000000000000000000004000000000000000000000000000000000000000000000000000000000000000001000000000000000000000000000000000000000000000040000000000000000000000000001002000000000000000008000000000000000000000000000000000000000000004000000000000000000020000000000000000000000000000000000000000000000000000000000000000000000000000000000000000001000000000000000000000000000000000000000000000000000000000000000000000000000",
      "type": "0x0",
      "transactionHash": "0xb7254a210c2a63ea2c1a7913cdb3b2aa12daf5a1a0da99e9f2457217401d359b",
      "transactionIndex": "0xa",
      "blockHash": "0xff71ecd21ab35f99a15aeeaa82242a8a773631fdf7cd37c30005040b653035e4",
      "blockNumber": "0x81",
      "gasUsed": "0x1cb31",
      "effectiveGasPrice": "0x3b9aca37",
      "blobGasPrice": "0x1",
      "from": "0xf39fd6e51aad88f6f4ce6ab8827279cfffb92266",
      "to": "0x0355b7b8cb128fa5692729ab3aaa199c1753f726",
      "contractAddress": null,
      "blockTimestamp": 1778702030
    },
    {
      "status": "0x1",
      "cumulativeGasUsed": "0x447f54",
      "logs": [
        {
          "address": "0x172076e0166d1f9cc711c77adf8488051744980c",
          "topics": [
            "0xf7154dd385fd97f5acd402bbddfc43353a65d67ed869dc6e507a9f99d6a2040d",
            "0x0000000000000000000000000000000000000000000000000000000000000001"
          ],
          "data": "0xaaaebeba3810b1e6b70781f14b2d72c1cb89c0b2b320c43bb67ff79f562f5ff40000000000000000000000000000000000000000000000000000000000000032",
          "blockHash": "0xff71ecd21ab35f99a15aeeaa82242a8a773631fdf7cd37c30005040b653035e4",
          "blockNumber": "0x81",
          "blockTimestamp": "0x6a04d6ce",
          "transactionHash": "0xd1ac3df91234eb670ab1c3be2606591bd1f7d055fb77b89e47b3649b9cc19b40",
          "transactionIndex": "0xb",
          "logIndex": "0x5",
          "removed": false
        }
      ],
      "logsBloom": "0x00000000000000000000000000000000000000000000000000000000000000000000000000000000000000000000000000000000008000000000000000040000000000000000000000000000000010200000000000040000000000000000000000000000100000000000000000000000000000000000000000000000000000000000000000000000000000000000004000000000000000000000000000000000000000000000000000000000000000000000000000000000000000000000000000800000000000000000000000000000000000000000000000000000000040000000000000000000000000000000000000000000000000000000000000000000",
      "type": "0x0",
      "transactionHash": "0xd1ac3df91234eb670ab1c3be2606591bd1f7d055fb77b89e47b3649b9cc19b40",
      "transactionIndex": "0xb",
      "blockHash": "0xff71ecd21ab35f99a15aeeaa82242a8a773631fdf7cd37c30005040b653035e4",
      "blockNumber": "0x81",
      "gasUsed": "0x25b9f",
      "effectiveGasPrice": "0x3b9aca37",
      "blobGasPrice": "0x1",
      "from": "0xf39fd6e51aad88f6f4ce6ab8827279cfffb92266",
      "to": "0x172076e0166d1f9cc711c77adf8488051744980c",
      "contractAddress": null,
      "blockTimestamp": 1778702030
    },
    {
      "status": "0x1",
      "cumulativeGasUsed": "0x4537ad",
      "logs": [
        {
          "address": "0x0355b7b8cb128fa5692729ab3aaa199c1753f726",
          "topics": [
            "0xd4a2ffd4212ea97bb981aae1f4a20d5170df470d2ed811c1b393882bc1d9f0fa",
            "0x0a3ec4fc70eaf64faf6eeda4e9b2bd4742a785464053aa23afad8bd24650e86f"
          ],
          "data": "0x",
          "blockHash": "0xff71ecd21ab35f99a15aeeaa82242a8a773631fdf7cd37c30005040b653035e4",
          "blockNumber": "0x81",
          "blockTimestamp": "0x6a04d6ce",
          "transactionHash": "0x132d24d4b24a7d34e7aea9b415f30cbeff79d32c55f5b52bb872029f344d308c",
          "transactionIndex": "0xc",
          "logIndex": "0x6",
          "removed": false
        }
      ],
      "logsBloom": "0x00000000000000000000000000000000000000000000000000000000000000000000000000000002000000000000000000000000000000000000004000000000000000000000000000000000000000000000080000000000000000000000000000000000000000000000000000000000000000000000000000000000000000000000002000000000000000000000000000000000000000000000000000000000004004000000000000000000000000000000000000000000000000000000000000000000000000000000000000000000000008000000000000000000000040000000000000000000000400000000000000000000000000000000000000000000",
      "type": "0x0",
      "transactionHash": "0x132d24d4b24a7d34e7aea9b415f30cbeff79d32c55f5b52bb872029f344d308c",
      "transactionIndex": "0xc",
      "blockHash": "0xff71ecd21ab35f99a15aeeaa82242a8a773631fdf7cd37c30005040b653035e4",
      "blockNumber": "0x81",
      "gasUsed": "0xb859",
      "effectiveGasPrice": "0x3b9aca37",
      "blobGasPrice": "0x1",
      "from": "0xf39fd6e51aad88f6f4ce6ab8827279cfffb92266",
      "to": "0x0355b7b8cb128fa5692729ab3aaa199c1753f726",
      "contractAddress": null,
      "blockTimestamp": 1778702030
    },
    {
      "status": "0x1",
      "cumulativeGasUsed": "0x4702ea",
      "logs": [
        {
          "address": "0x0355b7b8cb128fa5692729ab3aaa199c1753f726",
          "topics": [
            "0xd1e0ff31b5a8e9db7a93db8b63d84e896cce257bc637e6d369f43178eedd98ce",
            "0x0a3ec4fc70eaf64faf6eeda4e9b2bd4742a785464053aa23afad8bd24650e86f"
          ],
          "data": "0x0000000000000000000000000000000000000000000000000000000430e234000000000000000000000000000000000000000000000000000000000430499d80",
          "blockHash": "0xff71ecd21ab35f99a15aeeaa82242a8a773631fdf7cd37c30005040b653035e4",
          "blockNumber": "0x81",
          "blockTimestamp": "0x6a04d6ce",
          "transactionHash": "0x8b80378736629b89a66ebfff0679ebd2cca33f464941bda39fad710406d05f7e",
          "transactionIndex": "0xd",
          "logIndex": "0x7",
          "removed": false
        }
      ],
      "logsBloom": "0x00000000000000000000000000000000000000000000000000000000000000000000000000000002000000000000000000000000000000000000004000000000000000000000000000000000000000000000000000000000000000001000000000000000000000000000000000000000000000000000000000000000000000000001002000000000000000000000000000000000000000000000000000000000000004000000000000000000020000000000000000000000000000000000000000000000000000000000000000000000000008000000000000000000000040000000000000000000000000000000000000000000000000000000000000000000",
      "type": "0x0",
      "transactionHash": "0x8b80378736629b89a66ebfff0679ebd2cca33f464941bda39fad710406d05f7e",
      "transactionIndex": "0xd",
      "blockHash": "0xff71ecd21ab35f99a15aeeaa82242a8a773631fdf7cd37c30005040b653035e4",
      "blockNumber": "0x81",
      "gasUsed": "0x1cb3d",
      "effectiveGasPrice": "0x3b9aca37",
      "blobGasPrice": "0x1",
      "from": "0xf39fd6e51aad88f6f4ce6ab8827279cfffb92266",
      "to": "0x0355b7b8cb128fa5692729ab3aaa199c1753f726",
      "contractAddress": null,
      "blockTimestamp": 1778702030
    },
    {
      "status": "0x1",
      "cumulativeGasUsed": "0x495e89",
      "logs": [
        {
          "address": "0x172076e0166d1f9cc711c77adf8488051744980c",
          "topics": [
            "0xf7154dd385fd97f5acd402bbddfc43353a65d67ed869dc6e507a9f99d6a2040d",
            "0x0000000000000000000000000000000000000000000000000000000000000002"
          ],
          "data": "0x0a3ec4fc70eaf64faf6eeda4e9b2bd4742a785464053aa23afad8bd24650e86f0000000000000000000000000000000000000000000000000000000000000019",
          "blockHash": "0xff71ecd21ab35f99a15aeeaa82242a8a773631fdf7cd37c30005040b653035e4",
          "blockNumber": "0x81",
          "blockTimestamp": "0x6a04d6ce",
          "transactionHash": "0x4d26134efdbba0264b229505454badfc00314683bea960bd69bb621815729855",
          "transactionIndex": "0xe",
          "logIndex": "0x8",
          "removed": false
        }
      ],
      "logsBloom": "0x04000000000000000000000000000000000000000000000000000000000000000000000000000000000000000000000000000000008000000000000000000000000000000000000000000000000010200000000000000000000000000000000000000000100000000000000000000000000000000000000000000000000000000000000000000000000000000000004000000000000000000000000000000000000000000000000000000100000000000000000000000000000000000000000000800000000000000000000000000000000000000000000000000000000000000000000000000000000000000000000000000000008000000000000000000000",
      "type": "0x0",
      "transactionHash": "0x4d26134efdbba0264b229505454badfc00314683bea960bd69bb621815729855",
      "transactionIndex": "0xe",
      "blockHash": "0xff71ecd21ab35f99a15aeeaa82242a8a773631fdf7cd37c30005040b653035e4",
      "blockNumber": "0x81",
      "gasUsed": "0x25b9f",
      "effectiveGasPrice": "0x3b9aca37",
      "blobGasPrice": "0x1",
      "from": "0xf39fd6e51aad88f6f4ce6ab8827279cfffb92266",
      "to": "0x172076e0166d1f9cc711c77adf8488051744980c",
      "contractAddress": null,
      "blockTimestamp": 1778702030
    },
    {
      "status": "0x1",
      "cumulativeGasUsed": "0x4a16e2",
      "logs": [
        {
          "address": "0x0355b7b8cb128fa5692729ab3aaa199c1753f726",
          "topics": [
            "0xd4a2ffd4212ea97bb981aae1f4a20d5170df470d2ed811c1b393882bc1d9f0fa",
            "0x3ed03c38e59dc60c7b69c2a4bf68f9214acd953252b5a90e8f5f59583e9bc3ae"
          ],
          "data": "0x",
          "blockHash": "0xff71ecd21ab35f99a15aeeaa82242a8a773631fdf7cd37c30005040b653035e4",
          "blockNumber": "0x81",
          "blockTimestamp": "0x6a04d6ce",
          "transactionHash": "0xab84c3a6ba3613b5ffb4de97c6a30222d9924c3714b841c103183711a48adb01",
          "transactionIndex": "0xf",
          "logIndex": "0x9",
          "removed": false
        }
      ],
      "logsBloom": "0x00000000000000000000000000000000000000000000000000000000000000000000000000000000000100000000000000000000000000000000004000000000000000000000000000000000000000000000080000000000000000000000000000000000000000000000000000000000000000000000000000000000000000000020002000000000000000000000000000000000000000000000000000008000004004000000000000000000000000000000000000000000000000000000000000000000000000000000000000000000000000000000000000000000000000000000000000000000000400000000000000000000000000000000000000000000",
      "type": "0x0",
      "transactionHash": "0xab84c3a6ba3613b5ffb4de97c6a30222d9924c3714b841c103183711a48adb01",
      "transactionIndex": "0xf",
      "blockHash": "0xff71ecd21ab35f99a15aeeaa82242a8a773631fdf7cd37c30005040b653035e4",
      "blockNumber": "0x81",
      "gasUsed": "0xb859",
      "effectiveGasPrice": "0x3b9aca37",
      "blobGasPrice": "0x1",
      "from": "0xf39fd6e51aad88f6f4ce6ab8827279cfffb92266",
      "to": "0x0355b7b8cb128fa5692729ab3aaa199c1753f726",
      "contractAddress": null,
      "blockTimestamp": 1778702030
    },
    {
      "status": "0x1",
      "cumulativeGasUsed": "0x4be213",
      "logs": [
        {
          "address": "0x0355b7b8cb128fa5692729ab3aaa199c1753f726",
          "topics": [
            "0xd1e0ff31b5a8e9db7a93db8b63d84e896cce257bc637e6d369f43178eedd98ce",
            "0x3ed03c38e59dc60c7b69c2a4bf68f9214acd953252b5a90e8f5f59583e9bc3ae"
          ],
          "data": "0x0000000000000000000000000000000000000000000000000000000df84758000000000000000000000000000000000000000000000000000000000df7162b00",
          "blockHash": "0xff71ecd21ab35f99a15aeeaa82242a8a773631fdf7cd37c30005040b653035e4",
          "blockNumber": "0x81",
          "blockTimestamp": "0x6a04d6ce",
          "transactionHash": "0xa9addf15219b66ddbd2300ce551d5bb2c6a556a2af3951807c83214b9809b935",
          "transactionIndex": "0x10",
          "logIndex": "0xa",
          "removed": false
        }
      ],
      "logsBloom": "0x00000000000000000000000000000000000000000000000000000000000000000000000000000000000100000000000000000000000000000000004000000000000000000000000000000000000000000000000000000000000000001000000000000000000000000000000000000000000000000000000000000000000000000021002000000000000000000000000000000000000000000000000000008000000004000000000000000000020000000000000000000000000000000000000000000000000000000000000000000000000000000000000000000000000000000000000000000000000000000000000000000000000000000000000000000000",
      "type": "0x0",
      "transactionHash": "0xa9addf15219b66ddbd2300ce551d5bb2c6a556a2af3951807c83214b9809b935",
      "transactionIndex": "0x10",
      "blockHash": "0xff71ecd21ab35f99a15aeeaa82242a8a773631fdf7cd37c30005040b653035e4",
      "blockNumber": "0x81",
      "gasUsed": "0x1cb31",
      "effectiveGasPrice": "0x3b9aca37",
      "blobGasPrice": "0x1",
      "from": "0xf39fd6e51aad88f6f4ce6ab8827279cfffb92266",
      "to": "0x0355b7b8cb128fa5692729ab3aaa199c1753f726",
      "contractAddress": null,
      "blockTimestamp": 1778702030
    },
    {
      "status": "0x1",
      "cumulativeGasUsed": "0x4e3db2",
      "logs": [
        {
          "address": "0x172076e0166d1f9cc711c77adf8488051744980c",
          "topics": [
            "0xf7154dd385fd97f5acd402bbddfc43353a65d67ed869dc6e507a9f99d6a2040d",
            "0x0000000000000000000000000000000000000000000000000000000000000003"
          ],
          "data": "0x3ed03c38e59dc60c7b69c2a4bf68f9214acd953252b5a90e8f5f59583e9bc3ae0000000000000000000000000000000000000000000000000000000000000019",
          "blockHash": "0xff71ecd21ab35f99a15aeeaa82242a8a773631fdf7cd37c30005040b653035e4",
          "blockNumber": "0x81",
          "blockTimestamp": "0x6a04d6ce",
          "transactionHash": "0xa576e70260b0d4f691e09aa8d3c94c35f09a8bc58020ac1ec9f07d159029533b",
          "transactionIndex": "0x11",
          "logIndex": "0xb",
          "removed": false
        }
      ],
      "logsBloom": "0x00000000000000000000000000000000000000000000000000000000000000000000000000000000000000000000000000000000028000000000000000000000000000000000000000000000000010200000000000000000000000000000000000000000100000000000000000000000000000000000000000000000000000000000000000000000000000000000004000000000000000000000000000000000000000000000000000000000000000000000000000800000000000000000400000800000000000000000000000000000000000000000000000000000000000000000000000000000000000000000000000000000000000000000000000000000",
      "type": "0x0",
      "transactionHash": "0xa576e70260b0d4f691e09aa8d3c94c35f09a8bc58020ac1ec9f07d159029533b",
      "transactionIndex": "0x11",
      "blockHash": "0xff71ecd21ab35f99a15aeeaa82242a8a773631fdf7cd37c30005040b653035e4",
      "blockNumber": "0x81",
      "gasUsed": "0x25b9f",
      "effectiveGasPrice": "0x3b9aca37",
      "blobGasPrice": "0x1",
      "from": "0xf39fd6e51aad88f6f4ce6ab8827279cfffb92266",
      "to": "0x172076e0166d1f9cc711c77adf8488051744980c",
      "contractAddress": null,
      "blockTimestamp": 1778702030
    },
    {
      "status": "0x1",
      "cumulativeGasUsed": "0x4ef60b",
      "logs": [
        {
          "address": "0x0355b7b8cb128fa5692729ab3aaa199c1753f726",
          "topics": [
            "0xd4a2ffd4212ea97bb981aae1f4a20d5170df470d2ed811c1b393882bc1d9f0fa",
            "0xa6a7de01e8b7ba6a4a61c782a73188d808fc1f3cf5743fadb68a02ed884b594f"
          ],
          "data": "0x",
          "blockHash": "0xff71ecd21ab35f99a15aeeaa82242a8a773631fdf7cd37c30005040b653035e4",
          "blockNumber": "0x81",
          "blockTimestamp": "0x6a04d6ce",
          "transactionHash": "0xe33a18b2be7e4f47ecb39c29dfab48940234438b8972584bad29df8c88041b8d",
          "transactionIndex": "0x12",
          "logIndex": "0xc",
          "removed": false
        }
      ],
      "logsBloom": "0x00000000000000000000000000000000000000000000000000000000000000000000000000000000000000000000000000000000000000000000004000000000000000000000000000000000000000000000080000000000000000000000400000000000000000000000000000000000000000000000000000000040000000000000002000000000000000000000000000000000000000000000000000000000004004000000000000000000000000000000000000000000000000000000000000000000000000000000000000010000000000000000000000000000000000000000000000000000000400000000000000000000000000000000000000000000",
      "type": "0x0",
      "transactionHash": "0xe33a18b2be7e4f47ecb39c29dfab48940234438b8972584bad29df8c88041b8d",
      "transactionIndex": "0x12",
      "blockHash": "0xff71ecd21ab35f99a15aeeaa82242a8a773631fdf7cd37c30005040b653035e4",
      "blockNumber": "0x81",
      "gasUsed": "0xb859",
      "effectiveGasPrice": "0x3b9aca37",
      "blobGasPrice": "0x1",
      "from": "0xf39fd6e51aad88f6f4ce6ab8827279cfffb92266",
      "to": "0x0355b7b8cb128fa5692729ab3aaa199c1753f726",
      "contractAddress": null,
      "blockTimestamp": 1778702030
    },
    {
      "status": "0x1",
      "cumulativeGasUsed": "0x50c13c",
      "logs": [
        {
          "address": "0x0355b7b8cb128fa5692729ab3aaa199c1753f726",
          "topics": [
            "0xd1e0ff31b5a8e9db7a93db8b63d84e896cce257bc637e6d369f43178eedd98ce",
            "0xa6a7de01e8b7ba6a4a61c782a73188d808fc1f3cf5743fadb68a02ed884b594f"
          ],
          "data": "0x00000000000000000000000000000000000000000000000000000000055d4a80000000000000000000000000000000000000000000000000000000000555a960",
          "blockHash": "0xff71ecd21ab35f99a15aeeaa82242a8a773631fdf7cd37c30005040b653035e4",
          "blockNumber": "0x81",
          "blockTimestamp": "0x6a04d6ce",
          "transactionHash": "0xf2a44ade91c05d97010109da63dc2b01e0c4c0657a72aaec5e44a203431567e2",
          "transactionIndex": "0x13",
          "logIndex": "0xd",
          "removed": false
        }
      ],
      "logsBloom": "0x00000000000000000000000000000000000000000000000000000000000000000000000000000000000000000000000000000000000000000000004000000000000000000000000000000000000000000000000000000000000000001000400000000000000000000000000000000000000000000000000000000040000000000001002000000000000000000000000000000000000000000000000000000000000004000000000000000000020000000000000000000000000000000000000000000000000000000000000000010000000000000000000000000000000000000000000000000000000000000000000000000000000000000000000000000000",
      "type": "0x0",
      "transactionHash": "0xf2a44ade91c05d97010109da63dc2b01e0c4c0657a72aaec5e44a203431567e2",
      "transactionIndex": "0x13",
      "blockHash": "0xff71ecd21ab35f99a15aeeaa82242a8a773631fdf7cd37c30005040b653035e4",
      "blockNumber": "0x81",
      "gasUsed": "0x1cb31",
      "effectiveGasPrice": "0x3b9aca37",
      "blobGasPrice": "0x1",
      "from": "0xf39fd6e51aad88f6f4ce6ab8827279cfffb92266",
      "to": "0x0355b7b8cb128fa5692729ab3aaa199c1753f726",
      "contractAddress": null,
      "blockTimestamp": 1778702030
    },
    {
      "status": "0x1",
      "cumulativeGasUsed": "0x531cdb",
      "logs": [
        {
          "address": "0x172076e0166d1f9cc711c77adf8488051744980c",
          "topics": [
            "0xf7154dd385fd97f5acd402bbddfc43353a65d67ed869dc6e507a9f99d6a2040d",
            "0x0000000000000000000000000000000000000000000000000000000000000004"
          ],
          "data": "0xa6a7de01e8b7ba6a4a61c782a73188d808fc1f3cf5743fadb68a02ed884b594f0000000000000000000000000000000000000000000000000000000000000014",
          "blockHash": "0xff71ecd21ab35f99a15aeeaa82242a8a773631fdf7cd37c30005040b653035e4",
          "blockNumber": "0x81",
          "blockTimestamp": "0x6a04d6ce",
          "transactionHash": "0x3000878c55563f146c050bc55daa95f8fb38e96c634c8afbc7f0f2032806d51d",
          "transactionIndex": "0x14",
          "logIndex": "0xe",
          "removed": false
        }
      ],
      "logsBloom": "0x00000000000000000000000000000000000000000000000000000000000000000000000000000000000000000000000000000000008000000000000000000000000000000000000000000000000010200000000000000000000000000000000008000000100000000000000000000000000000000000000000000000000000000000000000000000000000000000004000000000000000000000000000000000000000000000000000000000000000000000000000000000002000000000000000800000000000000000000000000000000000008000000000000000000000000000000000000000000000000000000000000000000000000000000000000000",
      "type": "0x0",
      "transactionHash": "0x3000878c55563f146c050bc55daa95f8fb38e96c634c8afbc7f0f2032806d51d",
      "transactionIndex": "0x14",
      "blockHash": "0xff71ecd21ab35f99a15aeeaa82242a8a773631fdf7cd37c30005040b653035e4",
      "blockNumber": "0x81",
      "gasUsed": "0x25b9f",
      "effectiveGasPrice": "0x3b9aca37",
      "blobGasPrice": "0x1",
      "from": "0xf39fd6e51aad88f6f4ce6ab8827279cfffb92266",
      "to": "0x172076e0166d1f9cc711c77adf8488051744980c",
      "contractAddress": null,
      "blockTimestamp": 1778702030
    },
    {
      "status": "0x1",
      "cumulativeGasUsed": "0x53d534",
      "logs": [
        {
          "address": "0x0355b7b8cb128fa5692729ab3aaa199c1753f726",
          "topics": [
            "0xd4a2ffd4212ea97bb981aae1f4a20d5170df470d2ed811c1b393882bc1d9f0fa",
            "0xc07524b7a4eecc2784fc7ac17ff2730f877f3cf7a2ceb4e2375fa40a103115d0"
          ],
          "data": "0x",
          "blockHash": "0xff71ecd21ab35f99a15aeeaa82242a8a773631fdf7cd37c30005040b653035e4",
          "blockNumber": "0x81",
          "blockTimestamp": "0x6a04d6ce",
          "transactionHash": "0x3e6e84e4837eb6f9de39085eefde1648809e992062d216dc99c9ff1174d91949",
          "transactionIndex": "0x15",
          "logIndex": "0xf",
          "removed": false
        }
      ],
      "logsBloom": "0x00000000000000000000000000000000000000000000000000000000000000000000000000000000000000000000000000000000000000000000004000000000000000000000000000000000000000000000080000000000000000000000000000000000000000000000000000000000000000000000000000000000000000000000002000000000000000000000000000000000000000000000004000000000004004000000000000000000000000000000000000000000002000000000000000000000000000000000000000000000000000000000080000000000000000000000000000000000000400000000000000000000000000000000000000000000",
      "type": "0x0",
      "transactionHash": "0x3e6e84e4837eb6f9de39085eefde1648809e992062d216dc99c9ff1174d91949",
      "transactionIndex": "0x15",
      "blockHash": "0xff71ecd21ab35f99a15aeeaa82242a8a773631fdf7cd37c30005040b653035e4",
      "blockNumber": "0x81",
      "gasUsed": "0xb859",
      "effectiveGasPrice": "0x3b9aca37",
      "blobGasPrice": "0x1",
      "from": "0xf39fd6e51aad88f6f4ce6ab8827279cfffb92266",
      "to": "0x0355b7b8cb128fa5692729ab3aaa199c1753f726",
      "contractAddress": null,
      "blockTimestamp": 1778702030
    },
    {
      "status": "0x1",
      "cumulativeGasUsed": "0x55a04d",
      "logs": [
        {
          "address": "0x0355b7b8cb128fa5692729ab3aaa199c1753f726",
          "topics": [
            "0xd1e0ff31b5a8e9db7a93db8b63d84e896cce257bc637e6d369f43178eedd98ce",
            "0xc07524b7a4eecc2784fc7ac17ff2730f877f3cf7a2ceb4e2375fa40a103115d0"
          ],
          "data": "0x0000000000000000000000000000000000000000000000000000000007270e0000000000000000000000000000000000000000000000000000000000072400c0",
          "blockHash": "0xff71ecd21ab35f99a15aeeaa82242a8a773631fdf7cd37c30005040b653035e4",
          "blockNumber": "0x81",
          "blockTimestamp": "0x6a04d6ce",
          "transactionHash": "0x6d8ebf61aa2bcedb02da24dd6f61c54522c4b695da101853a5daa6595513d553",
          "transactionIndex": "0x16",
          "logIndex": "0x10",
          "removed": false
        }
      ],
      "logsBloom": "0x00000000000000000000000000000000000000000000000000000000000000000000000000000000000000000000000000000000000000000000004000000000000000000000000000000000000000000000000000000000000000001000000000000000000000000000000000000000000000000000000000000000000000000001002000000000000000000000000000000000000000000000004000000000000004000000000000000000020000000000000000000000002000000000000000000000000000000000000000000000000000000000080000000000000000000000000000000000000000000000000000000000000000000000000000000000",
      "type": "0x0",
      "transactionHash": "0x6d8ebf61aa2bcedb02da24dd6f61c54522c4b695da101853a5daa6595513d553",
      "transactionIndex": "0x16",
      "blockHash": "0xff71ecd21ab35f99a15aeeaa82242a8a773631fdf7cd37c30005040b653035e4",
      "blockNumber": "0x81",
      "gasUsed": "0x1cb19",
      "effectiveGasPrice": "0x3b9aca37",
      "blobGasPrice": "0x1",
      "from": "0xf39fd6e51aad88f6f4ce6ab8827279cfffb92266",
      "to": "0x0355b7b8cb128fa5692729ab3aaa199c1753f726",
      "contractAddress": null,
      "blockTimestamp": 1778702030
    },
    {
      "status": "0x1",
      "cumulativeGasUsed": "0x57fbec",
      "logs": [
        {
          "address": "0x172076e0166d1f9cc711c77adf8488051744980c",
          "topics": [
            "0xf7154dd385fd97f5acd402bbddfc43353a65d67ed869dc6e507a9f99d6a2040d",
            "0x0000000000000000000000000000000000000000000000000000000000000005"
          ],
          "data": "0xc07524b7a4eecc2784fc7ac17ff2730f877f3cf7a2ceb4e2375fa40a103115d00000000000000000000000000000000000000000000000000000000000000014",
          "blockHash": "0xff71ecd21ab35f99a15aeeaa82242a8a773631fdf7cd37c30005040b653035e4",
          "blockNumber": "0x81",
          "blockTimestamp": "0x6a04d6ce",
          "transactionHash": "0x01ff6b9ed3c21a817fcbae8ebdc6bd9a032c6c07c80e1644ab1b2b56290af536",
          "transactionIndex": "0x17",
          "logIndex": "0x11",
          "removed": false
        }
      ],
      "logsBloom": "0x00000000000000000000000000000000000000000000000000000000000000000000000000000000000000000000000000000000008000000000000000000000000010000000000000000000000010200000000000000000000000000000000000000000100000000000000000000000000000000000000000000000000000000000000000000000000000000000005000000800000000000000000000000000000000000000000000000000000000000000000000000000000000000000000000800000000000000000000000000000000000000000000000000000000000000000000000000000000000000000000000000000000000000000000000000000",
      "type": "0x0",
      "transactionHash": "0x01ff6b9ed3c21a817fcbae8ebdc6bd9a032c6c07c80e1644ab1b2b56290af536",
      "transactionIndex": "0x17",
      "blockHash": "0xff71ecd21ab35f99a15aeeaa82242a8a773631fdf7cd37c30005040b653035e4",
      "blockNumber": "0x81",
      "gasUsed": "0x25b9f",
      "effectiveGasPrice": "0x3b9aca37",
      "blobGasPrice": "0x1",
      "from": "0xf39fd6e51aad88f6f4ce6ab8827279cfffb92266",
      "to": "0x172076e0166d1f9cc711c77adf8488051744980c",
      "contractAddress": null,
      "blockTimestamp": 1778702030
    }
  ],
  "libraries": [],
  "pending": [],
  "returns": {},
  "timestamp": 1778702030547,
  "chain": 42069,
  "commit": "34edb5e"
}