{
  "transactions": [
    {
      "hash": "0x1ce7c6dff94229977f514d381705e8c8737ba559e4f346795d959f9bc55100ca",
      "transactionType": "CREATE",
      "contractName": "PerpPriceOracle",
      "contractAddress": "0xf5c4a909455c00b99a90d93b48736f3196db5621",
      "function": null,
      "arguments": [
        "0xf39Fd6e51aad88F6F4ce6aB8827279cffFb92266"
      ],
      "transaction": {
        "from": "0xf39fd6e51aad88f6f4ce6ab8827279cfffb92266",
        "gas": "0x11e22f",
        "value": "0x0",
        "input": "0x60803460a057601f610e6438819003918201601f19168301916001600160401b0383118484101760a45780849260209460405283398101031260a057516001600160a01b0381169081900360a05760786004556107d060055580156091578060018060a01b03195f5416175f555f52600160205260405f20600160ff19825416179055604051610dab90816100b98239f35b63d92e233d60e01b5f5260045ffd5b5f80fd5b634e487b7160e01b5f52604160045260245ffdfe6080806040526004361015610012575f80fd5b5f3560e01c9081630a16191a146108a3575080630df1d5ed14610840578063100bc9e1146107e3578063249d39e9146107c75780633bbd64bc1461078a5780633ee7a7011461076d57806343fa6211146106c057806360846bc61461066457806365312f181461062b578063704b6c02146105e05780637698aa331461057a57806380626ad1146105a0578063832321bf1461057a57806387cf46961461055d578063b70946011461052e578063d1b9e85314610492578063d94414e6146102e2578063dddbc04914610285578063ecc191bb1461025d578063f229fece1461012e5763f851a44014610103575f80fd5b3461012a575f36600319011261012a575f546040516001600160a01b039091168152602090f35b5f80fd5b3461012a57606036600319011261012a575f546004359060243590604435906001600160a01b0316330361024e57825f52600360205260ff60405f2054161561023b5781158015610233575b610224577fd1e0ff31b5a8e9db7a93db8b63d84e896cce257bc637e6d369f43178eedd98ce916040916102176101ae610be6565b8381526020810183815260ff6003878401934285526060810194600186526080820194600186528c5f5260026020528a5f20925183555160018301555160028201550192511660ff1983541617825551151561ff00825491151560081b169061ff001916179055565b82519182526020820152a2005b634dfba02360e01b5f5260045ffd5b50801561017a565b82631b37612760e21b5f5260045260245ffd5b637bfa4b9f60e01b5f5260045ffd5b3461012a57602036600319011261012a57602061027b600435610c5d565b6040519015158152f35b3461012a57602036600319011261012a575f54600435906001600160a01b0316330361024e577fea7b0359048504e79474eaaa05294b49265fc4e7b0a0c3737aaa22412e90f16e60406005548151908152836020820152a1600555005b3461012a57608036600319011261012a5760043560243560643560443560ff821680830361012a57335f52600160205260ff60405f205416158061047e575b61046f57845f52600360205260ff60405f2054161561045c5783158015610454575b610224577fc7061c903e2c36b50c20c3af3c54f4a781394e15a68ba49ee82125a240ad419b9361040261042b92875f52600260205260405f20838154918215159081610441575b50610430575b505061039a610be6565b83815260ff60036020830192888452604081014281526060820195865260808201945f86528d5f52600260205260405f20925183555160018301555160028201550192511660ff1983541617825551151561ff00825491151560081b169061ff001916179055565b6040519384934292859094939260ff906060936080840197845260208401521660408201520152565b0390a2005b61043a918a610c9f565b8883610390565b60ff91506003015460081c16158b61038a565b508115610343565b84631b37612760e21b5f5260045260245ffd5b631ea2564f60e31b5f5260045ffd5b505f546001600160a01b0316331415610321565b3461012a57604036600319011261012a576104ab610b9e565b6024359081151580920361012a575f546001600160a01b0316330361024e576001600160a01b031690811561051f5760207f786c9db967bf0c6b16c7c91adae8a8c554b15a57d373fa2059607300f4616c0091835f526001825260405f2060ff1981541660ff8316179055604051908152a2005b63d92e233d60e01b5f5260045ffd5b3461012a57602036600319011261012a576004355f526003602052602060ff60405f2054166040519015158152f35b3461012a575f36600319011261012a576020600454604051908152f35b3461012a57602036600319011261012a576020610598600435610c1a565b604051908152f35b3461012a57602036600319011261012a575f546001600160a01b0316330361024e576004355f908152600260205260409020600301805461ff0019169055005b3461012a57602036600319011261012a576105f9610b9e565b5f54906001600160a01b038216330361024e576001600160a01b031690811561051f576001600160a01b031916175f55005b3461012a57602036600319011261012a57600435805f52600260205260405f209060018201549081156102245760209261059891610d2b565b3461012a57602036600319011261012a576004355f52600260205260a060405f2060ff815491600181015490600360028201549101549160405194855260208501526040840152818116606084015260081c1615156080820152f35b3461012a57602036600319011261012a575f60806106dc610be6565b82815282602082015282604082015282606082015201526004355f52600260205260a060405f2061070b610be6565b9060ff8154928381526001830154926020820193845260036002820154916040840192835201549383608060608501948288168652019560081c1615158552604051958652516020860152516040850152511660608301525115156080820152f35b3461012a575f36600319011261012a576020600554604051908152f35b3461012a57602036600319011261012a576001600160a01b036107ab610b9e565b165f526001602052602060ff60405f2054166040519015158152f35b3461012a575f36600319011261012a5760206040516127108152f35b3461012a57602036600319011261012a575f54600435906001600160a01b0316330361024e577f9843f62f065b46649ec181ada7772d5c94055361bc052184193831e5cbcb9f6560406004548151908152836020820152a1600455005b3461012a57602036600319011261012a575f54600435906001600160a01b0316330361024e57805f52600360205260405f20600160ff198254161790557fd4a2ffd4212ea97bb981aae1f4a20d5170df470d2ed811c1b393882bc1d9f0fa5f80a2005b3461012a57608036600319011261012a5760043567ffffffffffffffff811161012a576108d4903690600401610b6d565b909160243567ffffffffffffffff811161012a576108f6903690600401610b6d565b60449291923567ffffffffffffffff811161012a57610919903690600401610b6d565b95909160643567ffffffffffffffff811161012a5761093c903690600401610b6d565b979094335f52600160205260ff60405f2054161580610b59575b61046f5782881480610b50575b80610b47575b15610b1357505f5b87811061097a57005b610985818986610bb4565b359061099281858a610bb4565b359161099f828589610bb4565b35815f52600360205260ff60405f20541615610b005783158015610af8575b610224576001937fc7061c903e2c36b50c20c3af3c54f4a781394e15a68ba49ee82125a240ad419b91610acb610aa38f87610a27918f895f52600260205260405f20888154918215159081610ae5575b50610ad4575b5050610a9e610a2c610a27858585610bb4565b610bd8565b8b60ff6003610a39610be6565b8d8152602081018d8152604082019042825284606084019716875260808301955f87525f52600260205260405f20925183555160018301555160028201550192511660ff1983541617825551151561ff00825491151560081b169061ff001916179055565b610bb4565b60408051948552602085019390935260ff169183019190915242606083015281906080820190565b0390a201610971565b610ade918c610c9f565b5f88610a14565b60ff91506003015460081c16155f610a0e565b5080156109be565b50631b37612760e21b5f5260045260245ffd5b62461bcd60e51b815260206004820152600f60248201526e0d8cadccee8d040dad2e6dac2e8c6d608b1b6044820152606490fd5b50888814610969565b50818814610963565b505f546001600160a01b0316331415610956565b9181601f8401121561012a5782359167ffffffffffffffff831161012a576020808501948460051b01011161012a57565b600435906001600160a01b038216820361012a57565b9190811015610bc45760051b0190565b634e487b7160e01b5f52603260045260245ffd5b3560ff8116810361012a5790565b6040519060a0820182811067ffffffffffffffff821117610c0657604052565b634e487b7160e01b5f52604160045260245ffd5b805f52600260205260405f2090815491821561022457610c3991610d2b565b90565b91908203918211610c4957565b634e487b7160e01b5f52601160045260245ffd5b5f52600260205260405f20805415610c9a5760ff600382015460081c16610c94576002610c8c91015442610c3c565b600454101590565b50600190565b505f90565b9180821115610d1c57610cb28183610c3c565b6127108102908082046127101490151715610c49578215610d0857829004916005548311610ce05750505050565b608494506040519363bdecbfb760e01b85526004850152602484015260448301526064820152fd5b634e487b7160e01b5f52601260045260245ffd5b610d268282610c3c565b610cb2565b9060ff600382015460081c16610d71576002610d4991015442610c3c565b60045491828211610d5957505050565b6357fd6bcb60e11b5f5260045260245260445260645ffd5b505056fea2646970667358221220b17298141c6a719ccf5010baf91b5f72e5deaf9f6617c2ecb6e3c7968f6e0ca064736f6c63430008210033000000000000000000000000f39fd6e51aad88f6f4ce6ab8827279cfffb92266",
        "nonce": "0x11f",
        "chainId": "0xa455"
      },
      "additionalContracts": [],
      "isFixedGasLimit": false
    },
    {
      "hash": "0x8de1df01ec21ae1b818ffa701bebe976a8a49001fdef1bf9c4d810975886f369",
      "transactionType": "CREATE",
      "contractName": "FundingRate",
      "contractAddress": "0xfd2cf3b56a73c75a7535ffe44ebabe7723c64719",
      "function": null,
      "arguments": [
        "0xf39Fd6e51aad88F6F4ce6aB8827279cffFb92266"
      ],
      "transaction": {
        "from": "0xf39fd6e51aad88f6f4ce6ab8827279cfffb92266",
        "gas": "0x70aec",
        "value": "0x0",
        "input": "0x608034608357601f61059e38819003918201601f19168301916001600160401b03831184841017608757808492602094604052833981010312608357516001600160a01b0381169081900360835780156074575f80546001600160a01b031916919091179055604051610502908161009c8239f35b63d92e233d60e01b5f5260045ffd5b5f80fd5b634e487b7160e01b5f52604160045260245ffdfe60806040526004361015610011575f80fd5b5f3560e01c806302429b981461031f57806326ef1b72146102f557806345eab4951461027e57806348ba4d2b1461025657806355efb2871461023a578063704b6c02146101ed578063b619daf714610176578063e03e0d851461014c578063f11db845146100de578063f40f2a79146100bd5763f851a44014610092575f80fd5b346100b9575f3660031901126100b9575f546040516001600160a01b039091168152602090f35b5f80fd5b346100b9575f3660031901126100b95760206040516601c6bf526340008152f35b346100b95760203660031901126100b95760043560018060a01b036001541633141580610138575b61012957805f5260036020524260405f20555f5260026020525f60408120555f80f35b63027da19960e41b5f5260045ffd5b505f546001600160a01b0316331415610106565b346100b95760203660031901126100b9576004355f526003602052602060405f2054604051908152f35b346100b95760203660031901126100b9576004356001600160a01b038116908190036100b9575f546001600160a01b031633036101de5780156101cf576bffffffffffffffffffffffff60a01b60015416176001555f80f35b63d92e233d60e01b5f5260045ffd5b637bfa4b9f60e01b5f5260045ffd5b346100b95760203660031901126100b9576004356001600160a01b038116908190036100b9575f546001600160a01b03811633036101de5781156101cf576001600160a01b031916175f55005b346100b9575f3660031901126100b95760206040516170808152f35b346100b9575f3660031901126100b9576001546040516001600160a01b039091168152602090f35b346100b95760603660031901126100b9576004356044355f5260026020526102ac60243560405f2054610378565b81810291905f8212600160ff1b8214166102e15781830514901517156102e157670de0b6b3a764000060209105604051908152f35b634e487b7160e01b5f52601160045260245ffd5b346100b95760203660031901126100b9576004355f526002602052602060405f2054604051908152f35b346100b95760603660031901126100b9576001546001600160a01b031633141580610364575b61012957602061035c604435602435600435610390565b604051908152f35b505f546001600160a01b0316331415610345565b81810392915f1380158285131691841216176102e157565b929190835f52600360205260405f205442034281116102e1576170801161048c57816103c991855f5260036020524260405f2055610378565b90670de0b6b3a7640000820291808305670de0b6b3a764000014901517156102e157801561047857600160ff1b82145f198214166102e15761040b9105610493565b91805f52600260205260405f20805490848201915f86841291129080158216911516176102e15755805f5260026020527f5bc77c157525d548a8a52d79d0ab879a816749d39b746f1bf2489ad250335eee606060405f2054604051908682526020820152426040820152a2565b634e487b7160e01b5f52601260045260245ffd5b505f925050565b6601c6bf52633fff1981126104bf576601c6bf5263400081136104b35790565b506601c6bf5263400090565b506601c6bf52633fff199056fea26469706673582212205259cee3b71a38760836877ee334068610b41ede406663394f6899d84fd7749964736f6c63430008210033000000000000000000000000f39fd6e51aad88f6f4ce6ab8827279cfffb92266",
        "nonce": "0x120",
        "chainId": "0xa455"
      },
      "additionalContracts": [],
      "isFixedGasLimit": false
    },
    {
      "hash": "0x07e53086f2057497c19a91f2c4ad3879ce1dcc1520b3f445221d46cb31e7dc91",
      "transactionType": "CREATE",
      "contractName": "MarginVault",
      "contractAddress": "0xb22c255250d74b0add1bfb936676d2a299bf48bd",
      "function": null,
      "arguments": [
        "0x36C02dA8a0983159322a80FFE9F24b1acfF8B570",
        "0xf39Fd6e51aad88F6F4ce6aB8827279cffFb92266"
      ],
      "transaction": {
        "from": "0xf39fd6e51aad88f6f4ce6ab8827279cfffb92266",
        "gas": "0xa9b14",
        "value": "0x0",
        "input": "0x60a0346100c757601f61093338819003918201601f19168301916001600160401b038311848410176100cb5780849260409485528339810103126100c757610052602061004b836100df565b92016100df565b6001600160a01b039091169081156100b8576001600160a01b03169081156100b857608052600180546001600160a01b03191691909117905560405161083f90816100f4823960805181818161015f015281816102a7015281816103cf015261069e0152f35b63d92e233d60e01b5f5260045ffd5b5f80fd5b634e487b7160e01b5f52604160045260245ffd5b51906001600160a01b03821682036100c75756fe6080806040526004361015610012575f80fd5b5f3560e01c90816327e235e314610743575080632e1a7d4d1461061e57806348ba4d2b146105f7578063636be27a14610541578063704b6c02146104f4578063b619daf714610491578063b6b55f251461038c578063beabacc8146102d6578063d8dfeb4514610292578063ef6506db14610206578063f40818b6146100f4578063f851a440146100cc5763ff50abdc146100ab575f80fd5b346100c8575f3660031901126100c8576020600354604051908152f35b5f80fd5b346100c8575f3660031901126100c8576001546040516001600160a01b039091168152602090f35b346100c85760403660031901126100c85761010d610777565b5f546001600160a01b031633036101f7576001600160a01b038116156101e85760405163a9059cbb60e01b81526001600160a01b0390911660048201526024803590820152602081806044810103815f7f00000000000000000000000000000000000000000000000000000000000000006001600160a01b03165af19081156101dd575f916101ae575b501561019f57005b6312171d8360e31b5f5260045ffd5b6101d0915060203d6020116101d6575b6101c881836107ae565b8101906107e4565b81610197565b503d6101be565b6040513d5f823e3d90fd5b63d92e233d60e01b5f5260045ffd5b63027da19960e41b5f5260045ffd5b346100c85760403660031901126100c85761021f610777565b5f5460243591906001600160a01b031633036101f75760207f9f7132b931bb99c5679b120dd9dc04eab8b1e91f4be7f2c40da4c0876823f4dc9160018060a01b031692835f526002825260405f206102788282546107fc565b9055610286816003546107fc565b600355604051908152a2005b346100c8575f3660031901126100c8576040517f00000000000000000000000000000000000000000000000000000000000000006001600160a01b03168152602090f35b346100c85760603660031901126100c8576102ef610777565b6024356001600160a01b038116908190036100c8575f5460443592906001600160a01b031633036101f7576001600160a01b03165f818152600260205260409020548311610369575f52600260205260405f2061034d83825461078d565b90555f52600260205261036560405f209182546107fc565b9055005b90505f52600260205260405f205463cf47918160e01b5f5260045260245260445ffd5b346100c85760203660031901126100c8576004358015610482576040516323b872dd60e01b8152336004820152306024820152604481018290526020816064815f7f00000000000000000000000000000000000000000000000000000000000000006001600160a01b03165af19081156101dd575f91610463575b501561019f57335f52600260205260405f206104248282546107fc565b9055610432816003546107fc565b6003556040519081527f2da466a7b24304f47e87fa2e1e5a81b9831ce54fec19055ce277ca2f39ba42c460203392a2005b61047c915060203d6020116101d6576101c881836107ae565b82610407565b631f2a200560e01b5f5260045ffd5b346100c85760203660031901126100c8576104aa610777565b6001546001600160a01b031633036104e5576001600160a01b031680156101e8576bffffffffffffffffffffffff60a01b5f5416175f555f80f35b637bfa4b9f60e01b5f5260045ffd5b346100c85760203660031901126100c85761050d610777565b600154906001600160a01b03821633036104e5576001600160a01b03169081156101e8576001600160a01b03191617600155005b346100c85760403660031901126100c85761055a610777565b5f5460243591906001600160a01b031633036101f75760018060a01b031690815f5260026020528060405f2054106105d45760207fc1bcf241560b7da56189cf02ba2c78298ad5afb7dd45b8a47e3c6930b389a23091835f526002825260405f206105c682825461078d565b90556102868160035461078d565b5f9182526002602052604082205463cf47918160e01b8352600452602452604490fd5b346100c8575f3660031901126100c8575f546040516001600160a01b039091168152602090f35b346100c85760203660031901126100c857600435801561048257335f5260026020528060405f20541061072157335f52600260205260405f2061066282825461078d565b90556106708160035461078d565b60035560405163a9059cbb60e01b8152336004820152602481018290526020816044815f6001600160a01b037f0000000000000000000000000000000000000000000000000000000000000000165af19081156101dd575f91610702575b501561019f576040519081527f7084f5476618d8e60b11ef0d7d3f06914655adb8793e28ff7f018d4c76d505d560203392a2005b61071b915060203d6020116101d6576101c881836107ae565b826106ce565b335f52600260205260405f205463cf47918160e01b5f5260045260245260445ffd5b346100c85760203660031901126100c8576020906001600160a01b03610767610777565b165f526002825260405f20548152f35b600435906001600160a01b03821682036100c857565b9190820391821161079a57565b634e487b7160e01b5f52601160045260245ffd5b90601f8019910116810190811067ffffffffffffffff8211176107d057604052565b634e487b7160e01b5f52604160045260245ffd5b908160209103126100c8575180151581036100c85790565b9190820180921161079a5756fea264697066735822122085429181f284a2a187ef9be8e12659ae149674914907e5251cde5066f815992e64736f6c6343000821003300000000000000000000000036c02da8a0983159322a80ffe9f24b1acff8b570000000000000000000000000f39fd6e51aad88f6f4ce6ab8827279cfffb92266",
        "nonce": "0x121",
        "chainId": "0xa455"
      },
      "additionalContracts": [],
      "isFixedGasLimit": false
    },
    {
      "hash": "0x5cc07c15148851bae10f038d3f31741447eac299ad4556c67050aee8fa853da5",
      "transactionType": "CREATE",
      "contractName": "PerpEngine",
      "contractAddress": "0x666d0c3da3dbc946d5128d06115bb4eed4595580",
      "function": null,
      "arguments": [
        "0xB22C255250d74B0ADD1bfB936676D2a299BF48Bd",
        "0xFD2Cf3b56a73c75A7535fFe44EBABe7723c64719",
        "0xf5c4a909455C00B99A90d93b48736F3196DB5621",
        "0x976fcd02f7C4773dd89C309fBF55D5923B4c98a1",
        "0xf39Fd6e51aad88F6F4ce6aB8827279cffFb92266"
      ],
      "transaction": {
        "from": "0xf39fd6e51aad88f6f4ce6ab8827279cfffb92266",
        "gas": "0x1cada4",
        "value": "0x0",
        "input": "0x6101003461018e57601f611a6f38819003918201601f19168301916001600160401b038311848410176101925780849260a09460405283398101031261018e57610048816101a6565b90610055602082016101a6565b91610062604083016101a6565b61007a6080610073606086016101a6565b94016101a6565b6001600160a01b0390921693841561017f576001600160a01b031690811561017f576001600160a01b031691821561017f576001600160a01b0384161561017f576001600160a01b031693841561017f5760805260a05260c05260e0525f80546001600160a01b0319169190911790556040516118b490816101bb8239608051818181610116015281816105c501528181610b08015281816115cd015281816116e1015261178f015260a0518181816102780152818161038801528181610bce01526114d2015260c0518181816104c3015281816107e1015281816108f401528181610b720152818161123f015261132b015260e0518181816109cc0152610dd20152f35b63d92e233d60e01b5f5260045ffd5b5f80fd5b634e487b7160e01b5f52604160045260245ffd5b51906001600160a01b038216820361018e5756fe60806040526004361015610011575f80fd5b5f5f3560e01c806316c38b3c146110ed578063249d39e9146110d15780633dc8f14414610a3c5780635838bff714610a205780635c975abb146109fb5780636052970c146109b6578063704b6c021461094b57806371a5c554146109235780637dc0d1d0146108de57806383c666dc146108ae5780639185f59814610892578063a126d60114610778578063b1283e7714610712578063bcbaf48714610445578063c1be6677146103b7578063cb4c86b714610372578063d2883325146101aa578063ec9790821461018c578063ecd1dae61461016f578063f851a440146101485763fbfa77cf14610101575f80fd5b346101455780600319360112610145576040517f00000000000000000000000000000000000000000000000000000000000000006001600160a01b03168152602090f35b80fd5b5034610145578060031936011261014557546040516001600160a01b039091168152602090f35b503461014557806003193601126101455760206040516101f48152f35b50346101455780600319360112610145576020600154604051908152f35b50346101455760403660031901126101455780546004359190602435906001600160a01b03163303610363576001549160405160a0810181811067ffffffffffffffff82111761034f57604052848152602081018381526040820160018152606083019084825260808401928584526801000000000000000088101561033b576001880160015561023a8861115d565b9590956103275790600494939291518655516001860155600285019051151560ff801983541691161790555160038401555191015560018060a01b037f000000000000000000000000000000000000000000000000000000000000000016803b156103235781809160246040518094819363f11db84560e01b83528960048401525af1801561031857610303575b602084807ff7154dd385fd97f5acd402bbddfc43353a65d67ed869dc6e507a9f99d6a2040d60408988825191825286820152a2604051908152f35b61030e8280926111b8565b61014557806102c8565b6040513d84823e3d90fd5b5080fd5b634e487b7160e01b87526004879052602487fd5b634e487b7160e01b86526041600452602486fd5b634e487b7160e01b83526041600452602483fd5b637bfa4b9f60e01b8252600482fd5b50346101455780600319360112610145576040517f00000000000000000000000000000000000000000000000000000000000000006001600160a01b03168152602090f35b50346101455760403660031901126101455760e0906040906001600160a01b036103df611147565b16815260026020528181206024358252602052208054906001810154906002810154600382015490600560048401549301549360ff604051968181161515885260081c161515602087015260408601526060850152608084015260a083015260c0820152f35b50346101455760403660031901126101455761045f611147565b6024359060ff835460a01c166107035760018060a01b03811690818452600260205260408420838552602052604084209060ff825416156106f4576104a38461115d565b505460405163832321bf60e01b81526004810191909152916020836024817f00000000000000000000000000000000000000000000000000000000000000006001600160a01b03165afa9283156106e95786936106b1575b50610507838684611466565b9161051f61051584846113d7565b60038301546112c0565b908882139081156106aa576127108302908382046127101484151715610696576001015461054c9161118d565b60c881101561067f575085901561067357506101f48102908082046101f4149015171561065f57908688612710879594045b806105be575b505061058f9461155e565b6040519081527fa457abeae7105eb8bccbb20968069d940e939bc0c8d8b9c2c13aaed4755e68c360203392a480f35b90945090507f00000000000000000000000000000000000000000000000000000000000000006001600160a01b0316803b1561065b576064859260405196879384926317d5759960e31b84528c600485015233602485015260448401525af188811561064f57869489921561058457819396955061063c92506111b8565b61064b5783919286885f610584565b8680fd5b604051903d90823e3d90fd5b8480fd5b634e487b7160e01b88526011600452602488fd5b9291905086888061057e565b6301f7d11160e21b8a5260045260c8602452604489fd5b634e487b7160e01b8b52601160045260248bfd5b508861054c565b9092506020813d6020116106e1575b816106cd602093836111b8565b810103126106dd5751915f6104fb565b5f80fd5b3d91506106c0565b6040513d88823e3d90fd5b63556729af60e01b8552600485fd5b6313d0ff5960e31b8352600483fd5b503461014557602036600319011261014557600435906001548210156101455760a061073d8361115d565b5080549060018101549060ff600282015416600460038301549201549260405194855260208501521515604084015260608301526080820152f35b50346101455760203660031901126101455760043560ff825460a01c166108835733825260026020526040822081835260205260ff60408320541615610874576107c18161115d565b505460405163832321bf60e01b81526004810191909152906020826024817f00000000000000000000000000000000000000000000000000000000000000006001600160a01b03165afa908115610869578391610833575b6108309250610829828233611466565b913361155e565b80f35b90506020823d602011610861575b8161084e602093836111b8565b810103126106dd57610830915190610819565b3d9150610841565b6040513d85823e3d90fd5b63556729af60e01b8252600482fd5b6313d0ff5960e31b8252600482fd5b50346101455780600319360112610145576020604051600a8152f35b50346101455760403660031901126101455760206108d66108cd611147565b602435906112db565b604051908152f35b50346101455780600319360112610145576040517f00000000000000000000000000000000000000000000000000000000000000006001600160a01b03168152602090f35b50346101455760403660031901126101455760206108d6610942611147565b602435906111ee565b503461014557602036600319011261014557610965611147565b8154906001600160a01b03821633036109a7576001600160a01b0316908115610998576001600160a01b03191617815580f35b63d92e233d60e01b8352600483fd5b637bfa4b9f60e01b8352600483fd5b50346101455780600319360112610145576040517f00000000000000000000000000000000000000000000000000000000000000006001600160a01b03168152602090f35b503461014557806003193601126101455760ff6020915460a01c166040519015158152f35b5034610145578060031936011261014557602060405160c88152f35b50346106dd5760803660031901126106dd57600435602435604435801515918282036106dd576064359060ff5f5460a01c166110c2578015928380156110ba575b6110ab57610a8a8661115d565b509060ff6002830154161561109c57335f52600260205260405f20875f5260205260405f209460ff86541661108d57610ac3858561118d565b600184015490818111611078575050600a840290848204600a14171561106457612710900494610af386866111ab565b6040516327e235e360e01b81523360048201527f00000000000000000000000000000000000000000000000000000000000000006001600160a01b0316929190602081602481875afa8015610f4f5782915f9161102f575b5010610fbd5750835460405163832321bf60e01b81526004810191909152966020886024817f00000000000000000000000000000000000000000000000000000000000000006001600160a01b03165afa978815610f4f575f98610f89575b506040516248537360e31b8152600481018b905260248101899052604481018990527f00000000000000000000000000000000000000000000000000000000000000006001600160a01b031693906020816064815f895af18015610f4f57610f5a575b5081610d21575b505060206024926001835461ff008c60081b169061ffff191617178355866001840155886002840155876003840155604051938480926313778db960e11b82528d60048301525afa8015610d165789928b91610cde575b5060048201556005015515610cc957600301610c888282546111ab565b90555b6040519384526020840152604083015260608201527f5cf8fa4a8e333990018876ad3a82065e68b3859d46c3198b692b77fc3043808b60803392a380f35b600401610cd78282546111ab565b9055610c8b565b919250506020813d602011610d0e575b81610cfb602093836111b8565b810103126106dd57518891906005610c6b565b3d9150610cee565b6040513d8c823e3d90fd5b803b156106dd576040516331b5f13d60e11b8152336004820152602481018390525f8160448183865af18015610f4f57610f38575b5090818c923b15610f1757604051637a040c5b60e11b815230600482015260248101839052838160448183865af1908115610ed2578491610f23575b505060206004916040519283809263d8dfeb4560e01b82525afa908115610869578391610edd575b5060405163095ea7b360e01b81526001600160a01b037f000000000000000000000000000000000000000000000000000000000000000081811660048401526024830185905292602091839160449183918991165af18015610ed257610e93575b50604460609260405194859384926364d6def960e01b8452600484015230602484015260018060a01b03165af18015610e8857610e59575b80610c14565b606090813d8311610e81575b610e6f81836111b8565b81010312610e7d575f610e53565b8980fd5b503d610e65565b6040513d8d823e3d90fd5b6020813d602011610eca575b81610eac602093836111b8565b81010312610ec657518015158103610ec657506044610e1b565b8380fd5b3d9150610e9f565b6040513d86823e3d90fd5b90506020813d602011610f1b575b81610ef8602093836111b8565b81010312610f1757516001600160a01b0381168103610f17575f610dba565b8280fd5b3d9150610eeb565b81610f2d916111b8565b610f1757825f610d92565b610f4691929c505f906111b8565b5f9a905f610d56565b6040513d5f823e3d90fd5b6020813d602011610f81575b81610f73602093836111b8565b810103126106dd5751610c0d565b3d9150610f66565b9097506020813d602011610fb5575b81610fa5602093836111b8565b810103126106dd5751965f610baa565b3d9150610f98565b6040516327e235e360e01b8152336004820152602081602481875afa908115610f4f575f91610ffd575b50633af8647b60e01b5f5260045260245260445ffd5b90506020813d602011611027575b81611018602093836111b8565b810103126106dd575182610fe7565b3d915061100b565b9150506020813d60201161105c575b8161104b602093836111b8565b810103126106dd578190515f610b4b565b3d915061103e565b634e487b7160e01b5f52601160045260245ffd5b633b7b1e4b60e01b5f5260045260245260445ffd5b631f19c11d60e01b5f5260045ffd5b635a90bb8d60e11b5f5260045ffd5b631f2a200560e01b5f5260045ffd5b508215610a7d565b6313d0ff5960e31b5f5260045ffd5b346106dd575f3660031901126106dd5760206040516127108152f35b346106dd5760203660031901126106dd576004358015158091036106dd575f54906001600160a01b03821633036111385760ff60a01b1990911660a09190911b60ff60a01b16175f55005b637bfa4b9f60e01b5f5260045ffd5b600435906001600160a01b03821682036106dd57565b6001548110156111795760015f52600560205f20910201905f90565b634e487b7160e01b5f52603260045260245ffd5b8115611197570490565b634e487b7160e01b5f52601260045260245ffd5b9190820180921161106457565b90601f8019910116810190811067ffffffffffffffff8211176111da57604052565b634e487b7160e01b5f52604160045260245ffd5b60018060a01b03165f52600260205260405f20815f5260205260405f209060ff825416156112ba5761121f9061115d565b505460405163832321bf60e01b81526004810191909152906020826024817f00000000000000000000000000000000000000000000000000000000000000006001600160a01b03165afa908115610f4f575f91611284575b61128192506113ff565b90565b90506020823d6020116112b2575b8161129f602093836111b8565b810103126106dd57611281915190611277565b3d9150611292565b50505f90565b9190915f838201938412911290801582169115161761106457565b60018060a01b03165f52600260205260405f20815f5260205260405f209060ff825416156113d05761130c9061115d565b505460405163832321bf60e01b815260048101919091526020816024817f00000000000000000000000000000000000000000000000000000000000000006001600160a01b03165afa908115610f4f575f9161139c575b5061051561137191836113ff565b5f8113156112ba5761271081029080820461271014901517156110645760016112819201549061118d565b90506020813d6020116113c8575b816113b7602093836111b8565b810103126106dd5751610515611363565b3d91506113aa565b50505f1990565b81810392915f13801582851316918412161761106457565b600160ff1b8114611064575f0390565b9061140f600283015480926113d7565b600183015480820292915f8212600160ff1b82141661106457818405149015171561106457801561119757600160ff1b82145f198214166110645760ff9105915460081c165f1461145d5790565b611281906113ef565b9291909260018060a01b03165f52600260205260405f20835f5260205261149160405f2091826113ff565b9260ff825460081c165f1461153c5760046001830154925b01546040516345eab49560e01b81526004810193909352602483015260448201526020816064817f00000000000000000000000000000000000000000000000000000000000000006001600160a01b03165afa908115610f4f575f9161150d575090565b90506020813d602011611534575b81611528602093836111b8565b810103126106dd575190565b3d915061151b565b600461154b60018401546113ef565b926114a9565b9190820391821161106457565b93929190925f9460018060a01b03811693845f52600260205260405f20865f526020526115bd60405f20916115928861115d565b50835460081c60ff1615611843576115b4600360018601549201918254611551565b90555b856113d7565b5f81126116c457600391909101547f00000000000000000000000000000000000000000000000000000000000000006001600160a01b0316916115ff916111ab565b91813b156116c05760405163ef6506db60e01b81526001600160a01b03919091166004820152602481019290925286908290604490829084905af180156106e957918686949286946116a2575b50505f51602061185f5f395f51905f52916040915b82519182526020820152a382526002602052604082209082526020526005604082208281558260018201558260028201558260038201558260048201550155565b819395506116b19294506111b8565b61065b5783918391865f61164c565b8780fd5b6116cf6003916113ef565b91018054909190811061178d575054907f00000000000000000000000000000000000000000000000000000000000000006001600160a01b031690813b156116c0576040516331b5f13d60e11b81526001600160a01b03919091166004820152602481019290925286908290604490829084905af180156106e9579186869492869461176f575b50505f51602061185f5f395f51905f5291604091611661565b8193955061177e9294506111b8565b61065b5783918391865f611756565b7f00000000000000000000000000000000000000000000000000000000000000006001600160a01b0316929150823b156106dd576040516331b5f13d60e11b81526001600160a01b039290921660048301526024820152905f908290604490829084905af18015610f4f57611817575b505f51602061185f5f395f51905f52604085938593611661565b83919550604085936118375f5f51602061185f5f395f51905f52946111b8565b5f9793509350506117fd565b611857600460018601549201918254611551565b90556115b756fe16783b3f0676d6e63220b161cedd5415bd909d2f96353db363fbd217a00971b4a2646970667358221220388a325c860c73acd97f00c8df9fcd9cf2eea6f499f3840bf23ca4df94c0ccb364736f6c63430008210033000000000000000000000000b22c255250d74b0add1bfb936676d2a299bf48bd000000000000000000000000fd2cf3b56a73c75a7535ffe44ebabe7723c64719000000000000000000000000f5c4a909455c00b99a90d93b48736f3196db5621000000000000000000000000976fcd02f7c4773dd89c309fbf55d5923b4c98a1000000000000000000000000f39fd6e51aad88f6f4ce6ab8827279cfffb92266",
        "nonce": "0x122",
        "chainId": "0xa455"
      },
      "additionalContracts": [],
      "isFixedGasLimit": false
    },
    {
      "hash": "0x38bf5363ae2f25f6074bc8ad867fda1f56eef9709f077e873c0eaafca4690ee2",
      "transactionType": "CALL",
      "contractName": "FundingRate",
      "contractAddress": "0xfd2cf3b56a73c75a7535ffe44ebabe7723c64719",
      "function": "setPerpEngine(address)",
      "arguments": [
        "0x666D0c3da3dBc946D5128D06115bb4eed4595580"
      ],
      "transaction": {
        "from": "0xf39fd6e51aad88f6f4ce6ab8827279cfffb92266",
        "to": "0xfd2cf3b56a73c75a7535ffe44ebabe7723c64719",
        "gas": "0xf84e",
        "value": "0x0",
        "input": "0xb619daf7000000000000000000000000666d0c3da3dbc946d5128d06115bb4eed4595580",
        "nonce": "0x123",
        "chainId": "0xa455"
      },
      "additionalContracts": [],
      "isFixedGasLimit": false
    },
    {
      "hash": "0x6cc5314f9f72a7da38d661980b69657bcf51438352628cf13079393f16b32f7d",
      "transactionType": "CALL",
      "contractName": "MarginVault",
      "contractAddress": "0xb22c255250d74b0add1bfb936676d2a299bf48bd",
      "function": "setPerpEngine(address)",
      "arguments": [
        "0x666D0c3da3dBc946D5128D06115bb4eed4595580"
      ],
      "transaction": {
        "from": "0xf39fd6e51aad88f6f4ce6ab8827279cfffb92266",
        "to": "0xb22c255250d74b0add1bfb936676d2a299bf48bd",
        "gas": "0xf86e",
        "value": "0x0",
        "input": "0xb619daf7000000000000000000000000666d0c3da3dbc946d5128d06115bb4eed4595580",
        "nonce": "0x124",
        "chainId": "0xa455"
      },
      "additionalContracts": [],
      "isFixedGasLimit": false
    },
    {
      "hash": "0xe98237eaa08098d70a7827c6a2889250cbcedb9822a20c1454a7fecccec2184d",
      "transactionType": "CALL",
      "contractName": "PerpPriceOracle",
      "contractAddress": "0xf5c4a909455c00b99a90d93b48736f3196db5621",
      "function": "registerMarket(bytes32)",
      "arguments": [
        "0xe98e2830be1a7e4156d656a7505e65d08c67660dc618072422e9c78053c261e9"
      ],
      "transaction": {
        "from": "0xf39fd6e51aad88f6f4ce6ab8827279cfffb92266",
        "to": "0xf5c4a909455c00b99a90d93b48736f3196db5621",
        "gas": "0x10d9b",
        "value": "0x0",
        "input": "0x0df1d5ede98e2830be1a7e4156d656a7505e65d08c67660dc618072422e9c78053c261e9",
        "nonce": "0x125",
        "chainId": "0xa455"
      },
      "additionalContracts": [],
      "isFixedGasLimit": false
    },
    {
      "hash": "0xae9dec878ba9d15fdd1b44e37272212b6f4deef8d38ed84291c38cd252a8ce2e",
      "transactionType": "CALL",
      "contractName": "PerpPriceOracle",
      "contractAddress": "0xf5c4a909455c00b99a90d93b48736f3196db5621",
      "function": "setManualPrice(bytes32,uint256,uint256)",
      "arguments": [
        "0xe98e2830be1a7e4156d656a7505e65d08c67660dc618072422e9c78053c261e9",
        "6500000000000",
        "6498000000000"
      ],
      "transaction": {
        "from": "0xf39fd6e51aad88f6f4ce6ab8827279cfffb92266",
        "to": "0xf5c4a909455c00b99a90d93b48736f3196db5621",
        "gas": "0x29fb4",
        "value": "0x0",
        "input": "0xf229fecee98e2830be1a7e4156d656a7505e65d08c67660dc618072422e9c78053c261e9000000000000000000000000000000000000000000000000000005e96630e800000000000000000000000000000000000000000000000000000005e8eefb5400",
        "nonce": "0x126",
        "chainId": "0xa455"
      },
      "additionalContracts": [],
      "isFixedGasLimit": false
    },
    {
      "hash": "0x44ad6b70c473ff95e20d01197b5b420330de001d65d29e8398fde274dc0f5c00",
      "transactionType": "CALL",
      "contractName": "PerpEngine",
      "contractAddress": "0x666d0c3da3dbc946d5128d06115bb4eed4595580",
      "function": "createMarket(bytes32,uint256)",
      "arguments": [
        "0xe98e2830be1a7e4156d656a7505e65d08c67660dc618072422e9c78053c261e9",
        "50"
      ],
      "transaction": {
        "from": "0xf39fd6e51aad88f6f4ce6ab8827279cfffb92266",
        "to": "0x666d0c3da3dbc946d5128d06115bb4eed4595580",
        "gas": "0x354c8",
        "value": "0x0",
        "input": "0xd2883325e98e2830be1a7e4156d656a7505e65d08c67660dc618072422e9c78053c261e90000000000000000000000000000000000000000000000000000000000000032",
        "nonce": "0x127",
        "chainId": "0xa455"
      },
      "additionalContracts": [],
      "isFixedGasLimit": false
    },
    {
      "hash": "0xa38b4801257aca00a48edade4daff93be6750f1e1d02f87e1289b4f94a35215e",
      "transactionType": "CALL",
      "contractName": "PerpPriceOracle",
      "contractAddress": "0xf5c4a909455c00b99a90d93b48736f3196db5621",
      "function": "registerMarket(bytes32)",
      "arguments": [
        "0xaaaebeba3810b1e6b70781f14b2d72c1cb89c0b2b320c43bb67ff79f562f5ff4"
      ],
      "transaction": {
        "from": "0xf39fd6e51aad88f6f4ce6ab8827279cfffb92266",
        "to": "0xf5c4a909455c00b99a90d93b48736f3196db5621",
        "gas": "0x10d9b",
        "value": "0x0",
        "input": "0x0df1d5edaaaebeba3810b1e6b70781f14b2d72c1cb89c0b2b320c43bb67ff79f562f5ff4",
        "nonce": "0x128",
        "chainId": "0xa455"
      },
      "additionalContracts": [],
      "isFixedGasLimit": false
    },
    {
      "hash": "0x31a1c0f258859948ceb9723ba34c981dccf54efaf07c822f85c9a8d90788b0fd",
      "transactionType": "CALL",
      "contractName": "PerpPriceOracle",
      "contractAddress": "0xf5c4a909455c00b99a90d93b48736f3196db5621",
      "function": "setManualPrice(bytes32,uint256,uint256)",
      "arguments": [
        "0xaaaebeba3810b1e6b70781f14b2d72c1cb89c0b2b320c43bb67ff79f562f5ff4",
        "320000000000",
        "319800000000"
      ],
      "transaction": {
        "from": "0xf39fd6e51aad88f6f4ce6ab8827279cfffb92266",
        "to": "0xf5c4a909455c00b99a90d93b48736f3196db5621",
        "gas": "0x29f91",
        "value": "0x0",
        "input": "0xf229feceaaaebeba3810b1e6b70781f14b2d72c1cb89c0b2b320c43bb67ff79f562f5ff40000000000000000000000000000000000000000000000000000004a817c80000000000000000000000000000000000000000000000000000000004a7590be00",
        "nonce": "0x129",
        "chainId": "0xa455"
      },
      "additionalContracts": [],
      "isFixedGasLimit": false
    },
    {
      "hash": "0x89fb2886ba5526eef7306ab3be32bf8d5daa72e530f3c3c960eebf0f61e7b454",
      "transactionType": "CALL",
      "contractName": "PerpEngine",
      "contractAddress": "0x666d0c3da3dbc946d5128d06115bb4eed4595580",
      "function": "createMarket(bytes32,uint256)",
      "arguments": [
        "0xaaaebeba3810b1e6b70781f14b2d72c1cb89c0b2b320c43bb67ff79f562f5ff4",
        "50"
      ],
      "transaction": {
        "from": "0xf39fd6e51aad88f6f4ce6ab8827279cfffb92266",
        "to": "0x666d0c3da3dbc946d5128d06115bb4eed4595580",
        "gas": "0x2c924",
        "value": "0x0",
        "input": "0xd2883325aaaebeba3810b1e6b70781f14b2d72c1cb89c0b2b320c43bb67ff79f562f5ff40000000000000000000000000000000000000000000000000000000000000032",
        "nonce": "0x12a",
        "chainId": "0xa455"
      },
      "additionalContracts": [],
      "isFixedGasLimit": false
    },
    {
      "hash": "0x3a326e748e01f918c56c98a108c8bf831d9559e66a3ef45cb2603d0e9df316b6",
      "transactionType": "CALL",
      "contractName": "PerpPriceOracle",
      "contractAddress": "0xf5c4a909455c00b99a90d93b48736f3196db5621",
      "function": "registerMarket(bytes32)",
      "arguments": [
        "0x0a3ec4fc70eaf64faf6eeda4e9b2bd4742a785464053aa23afad8bd24650e86f"
      ],
      "transaction": {
        "from": "0xf39fd6e51aad88f6f4ce6ab8827279cfffb92266",
        "to": "0xf5c4a909455c00b99a90d93b48736f3196db5621",
        "gas": "0x10d9b",
        "value": "0x0",
        "input": "0x0df1d5ed0a3ec4fc70eaf64faf6eeda4e9b2bd4742a785464053aa23afad8bd24650e86f",
        "nonce": "0x12b",
        "chainId": "0xa455"
      },
      "additionalContracts": [],
      "isFixedGasLimit": false
    },
    {
      "hash": "0xfb2f4e2b7907a48c9c0e9b11dd6dee5edea9d0d272df65f1c9f2379655469cb6",
      "transactionType": "CALL",
      "contractName": "PerpPriceOracle",
      "contractAddress": "0xf5c4a909455c00b99a90d93b48736f3196db5621",
      "function": "setManualPrice(bytes32,uint256,uint256)",
      "arguments": [
        "0x0a3ec4fc70eaf64faf6eeda4e9b2bd4742a785464053aa23afad8bd24650e86f",
        "18000000000",
        "17990000000"
      ],
      "transaction": {
        "from": "0xf39fd6e51aad88f6f4ce6ab8827279cfffb92266",
        "to": "0xf5c4a909455c00b99a90d93b48736f3196db5621",
        "gas": "0x27a51",
        "value": "0x0",
        "input": "0xf229fece0a3ec4fc70eaf64faf6eeda4e9b2bd4742a785464053aa23afad8bd24650e86f0000000000000000000000000000000000000000000000000000000430e234000000000000000000000000000000000000000000000000000000000430499d80",
        "nonce": "0x12c",
        "chainId": "0xa455"
      },
      "additionalContracts": [],
      "isFixedGasLimit": false
    },
    {
      "hash": "0xb146b2d3d0821182401dfad2f384ce73d01e74259338ee9adc62c396d4625fcc",
      "transactionType": "CALL",
      "contractName": "PerpEngine",
      "contractAddress": "0x666d0c3da3dbc946d5128d06115bb4eed4595580",
      "function": "createMarket(bytes32,uint256)",
      "arguments": [
        "0x0a3ec4fc70eaf64faf6eeda4e9b2bd4742a785464053aa23afad8bd24650e86f",
        "25"
      ],
      "transaction": {
        "from": "0xf39fd6e51aad88f6f4ce6ab8827279cfffb92266",
        "to": "0x666d0c3da3dbc946d5128d06115bb4eed4595580",
        "gas": "0x2c924",
        "value": "0x0",
        "input": "0xd28833250a3ec4fc70eaf64faf6eeda4e9b2bd4742a785464053aa23afad8bd24650e86f0000000000000000000000000000000000000000000000000000000000000019",
        "nonce": "0x12d",
        "chainId": "0xa455"
      },
      "additionalContracts": [],
      "isFixedGasLimit": false
    },
    {
      "hash": "0x07373e6a53280fe84534e283ac93afaf3341c224c05c14507a113929aaf14a38",
      "transactionType": "CALL",
      "contractName": "PerpPriceOracle",
      "contractAddress": "0xf5c4a909455c00b99a90d93b48736f3196db5621",
      "function": "registerMarket(bytes32)",
      "arguments": [
        "0x3ed03c38e59dc60c7b69c2a4bf68f9214acd953252b5a90e8f5f59583e9bc3ae"
      ],
      "transaction": {
        "from": "0xf39fd6e51aad88f6f4ce6ab8827279cfffb92266",
        "to": "0xf5c4a909455c00b99a90d93b48736f3196db5621",
        "gas": "0x10d9b",
        "value": "0x0",
        "input": "0x0df1d5ed3ed03c38e59dc60c7b69c2a4bf68f9214acd953252b5a90e8f5f59583e9bc3ae",
        "nonce": "0x12e",
        "chainId": "0xa455"
      },
      "additionalContracts": [],
      "isFixedGasLimit": false
    },
    {
      "hash": "0xd926182668dbf21b6fb0aee684787ce0e5d229ed3e6543a77f32ed658f943b8b",
      "transactionType": "CALL",
      "contractName": "PerpPriceOracle",
      "contractAddress": "0xf5c4a909455c00b99a90d93b48736f3196db5621",
      "function": "setManualPrice(bytes32,uint256,uint256)",
      "arguments": [
        "0x3ed03c38e59dc60c7b69c2a4bf68f9214acd953252b5a90e8f5f59583e9bc3ae",
        "60000000000",
        "59980000000"
      ],
      "transaction": {
        "from": "0xf39fd6e51aad88f6f4ce6ab8827279cfffb92266",
        "to": "0xf5c4a909455c00b99a90d93b48736f3196db5621",
        "gas": "0x29f91",
        "value": "0x0",
        "input": "0xf229fece3ed03c38e59dc60c7b69c2a4bf68f9214acd953252b5a90e8f5f59583e9bc3ae0000000000000000000000000000000000000000000000000000000df84758000000000000000000000000000000000000000000000000000000000df7162b00",
        "nonce": "0x12f",
        "chainId": "0xa455"
      },
      "additionalContracts": [],
      "isFixedGasLimit": false
    },
    {
      "hash": "0x34de97b7c5e9a3f7491876a734031c305b67db7904485867d5b53a8d947780a3",
      "transactionType": "CALL",
      "contractName": "PerpEngine",
      "contractAddress": "0x666d0c3da3dbc946d5128d06115bb4eed4595580",
      "function": "createMarket(bytes32,uint256)",
      "arguments": [
        "0x3ed03c38e59dc60c7b69c2a4bf68f9214acd953252b5a90e8f5f59583e9bc3ae",
        "25"
      ],
      "transaction": {
        "from": "0xf39fd6e51aad88f6f4ce6ab8827279cfffb92266",
        "to": "0x666d0c3da3dbc946d5128d06115bb4eed4595580",
        "gas": "0x2c924",
        "value": "0x0",
        "input": "0xd28833253ed03c38e59dc60c7b69c2a4bf68f9214acd953252b5a90e8f5f59583e9bc3ae0000000000000000000000000000000000000000000000000000000000000019",
        "nonce": "0x130",
        "chainId": "0xa455"
      },
      "additionalContracts": [],
      "isFixedGasLimit": false
    },
    {
      "hash": "0xd03de014a3a37b221c8f22e6b36fd2ed27e6e88c6c32e26f3c822593a88e2c1d",
      "transactionType": "CALL",
      "contractName": "PerpPriceOracle",
      "contractAddress": "0xf5c4a909455c00b99a90d93b48736f3196db5621",
      "function": "registerMarket(bytes32)",
      "arguments": [
        "0xa6a7de01e8b7ba6a4a61c782a73188d808fc1f3cf5743fadb68a02ed884b594f"
      ],
      "transaction": {
        "from": "0xf39fd6e51aad88f6f4ce6ab8827279cfffb92266",
        "to": "0xf5c4a909455c00b99a90d93b48736f3196db5621",
        "gas": "0x10d9b",
        "value": "0x0",
        "input": "0x0df1d5eda6a7de01e8b7ba6a4a61c782a73188d808fc1f3cf5743fadb68a02ed884b594f",
        "nonce": "0x131",
        "chainId": "0xa455"
      },
      "additionalContracts": [],
      "isFixedGasLimit": false
    },
    {
      "hash": "0xffc192e25c3f6c41b06f75d44004703812973fa23359115f4c24f86898044bdf",
      "transactionType": "CALL",
      "contractName": "PerpPriceOracle",
      "contractAddress": "0xf5c4a909455c00b99a90d93b48736f3196db5621",
      "function": "setManualPrice(bytes32,uint256,uint256)",
      "arguments": [
        "0xa6a7de01e8b7ba6a4a61c782a73188d808fc1f3cf5743fadb68a02ed884b594f",
        "90000000",
        "89500000"
      ],
      "transaction": {
        "from": "0xf39fd6e51aad88f6f4ce6ab8827279cfffb92266",
        "to": "0xf5c4a909455c00b99a90d93b48736f3196db5621",
        "gas": "0x29f91",
        "value": "0x0",
        "input": "0xf229fecea6a7de01e8b7ba6a4a61c782a73188d808fc1f3cf5743fadb68a02ed884b594f00000000000000000000000000000000000000000000000000000000055d4a80000000000000000000000000000000000000000000000000000000000555a960",
        "nonce": "0x132",
        "chainId": "0xa455"
      },
      "additionalContracts": [],
      "isFixedGasLimit": false
    },
    {
      "hash": "0x9e5825cf480a9282b48d01581e756907b2d058cb3924569e454bbbe82416b399",
      "transactionType": "CALL",
      "contractName": "PerpEngine",
      "contractAddress": "0x666d0c3da3dbc946d5128d06115bb4eed4595580",
      "function": "createMarket(bytes32,uint256)",
      "arguments": [
        "0xa6a7de01e8b7ba6a4a61c782a73188d808fc1f3cf5743fadb68a02ed884b594f",
        "20"
      ],
      "transaction": {
        "from": "0xf39fd6e51aad88f6f4ce6ab8827279cfffb92266",
        "to": "0x666d0c3da3dbc946d5128d06115bb4eed4595580",
        "gas": "0x2c924",
        "value": "0x0",
        "input": "0xd2883325a6a7de01e8b7ba6a4a61c782a73188d808fc1f3cf5743fadb68a02ed884b594f0000000000000000000000000000000000000000000000000000000000000014",
        "nonce": "0x133",
        "chainId": "0xa455"
      },
      "additionalContracts": [],
      "isFixedGasLimit": false
    },
    {
      "hash": "0x17963aa6b581a4b9c4398300929aa431540072ef4d6d46f9965837b3bd17fe02",
      "transactionType": "CALL",
      "contractName": "PerpPriceOracle",
      "contractAddress": "0xf5c4a909455c00b99a90d93b48736f3196db5621",
      "function": "registerMarket(bytes32)",
      "arguments": [
        "0xc07524b7a4eecc2784fc7ac17ff2730f877f3cf7a2ceb4e2375fa40a103115d0"
      ],
      "transaction": {
        "from": "0xf39fd6e51aad88f6f4ce6ab8827279cfffb92266",
        "to": "0xf5c4a909455c00b99a90d93b48736f3196db5621",
        "gas": "0x10d9b",
        "value": "0x0",
        "input": "0x0df1d5edc07524b7a4eecc2784fc7ac17ff2730f877f3cf7a2ceb4e2375fa40a103115d0",
        "nonce": "0x134",
        "chainId": "0xa455"
      },
      "additionalContracts": [],
      "isFixedGasLimit": false
    },
    {
      "hash": "0x7022395f8a0c76243a0ffa5631642a5754e33b8d5922379cf2b7e9f423ca0c6b",
      "transactionType": "CALL",
      "contractName": "PerpPriceOracle",
      "contractAddress": "0xf5c4a909455c00b99a90d93b48736f3196db5621",
      "function": "setManualPrice(bytes32,uint256,uint256)",
      "arguments": [
        "0xc07524b7a4eecc2784fc7ac17ff2730f877f3cf7a2ceb4e2375fa40a103115d0",
        "120000000",
        "119800000"
      ],
      "transaction": {
        "from": "0xf39fd6e51aad88f6f4ce6ab8827279cfffb92266",
        "to": "0xf5c4a909455c00b99a90d93b48736f3196db5621",
        "gas": "0x29f6e",
        "value": "0x0",
        "input": "0xf229fecec07524b7a4eecc2784fc7ac17ff2730f877f3cf7a2ceb4e2375fa40a103115d00000000000000000000000000000000000000000000000000000000007270e0000000000000000000000000000000000000000000000000000000000072400c0",
        "nonce": "0x135",
        "chainId": "0xa455"
      },
      "additionalContracts": [],
      "isFixedGasLimit": false
    },
    {
      "hash": "0xbd0d5271f8b72203884caeb886ced4d7847a620650d2d2b81e4bfe6e4b306138",
      "transactionType": "CALL",
      "contractName": "PerpEngine",
      "contractAddress": "0x666d0c3da3dbc946d5128d06115bb4eed4595580",
      "function": "createMarket(bytes32,uint256)",
      "arguments": [
        "0xc07524b7a4eecc2784fc7ac17ff2730f877f3cf7a2ceb4e2375fa40a103115d0",
        "20"
      ],
      "transaction": {
        "from": "0xf39fd6e51aad88f6f4ce6ab8827279cfffb92266",
        "to": "0x666d0c3da3dbc946d5128d06115bb4eed4595580",
        "gas": "0x2c924",
        "value": "0x0",
        "input": "0xd2883325c07524b7a4eecc2784fc7ac17ff2730f877f3cf7a2ceb4e2375fa40a103115d00000000000000000000000000000000000000000000000000000000000000014",
        "nonce": "0x136",
        "chainId": "0xa455"
      },
      "additionalContracts": [],
      "isFixedGasLimit": false
    }
  ],
  "receipts": [
    {
      "status": "0x1",
      "cumulativeGasUsed": "0xdc1ae",
      "logs": [],
      "logsBloom": "0x00000000000000000000000000000000000000000000000000000000000000000000000000000000000000000000000000000000000000000000000000000000000000000000000000000000000000000000000000000000000000000000000000000000000000000000000000000000000000000000000000000000000000000000000000000000000000000000000000000000000000000000000000000000000000000000000000000000000000000000000000000000000000000000000000000000000000000000000000000000000000000000000000000000000000000000000000000000000000000000000000000000000000000000000000000000",
      "type": "0x0",
      "transactionHash": "0x1ce7c6dff94229977f514d381705e8c8737ba559e4f346795d959f9bc55100ca",
      "transactionIndex": "0x0",
      "blockHash": "0xb7c2e151ab1a646449da17b189586f5282b4cc01fec12470820cbd89c7eae468",
      "blockNumber": "0x3ac8",
      "gasUsed": "0xdc1ae",
      "effectiveGasPrice": "0x3b9aca07",
      "blobGasPrice": "0x1",
      "from": "0xf39fd6e51aad88f6f4ce6ab8827279cfffb92266",
      "to": null,
      "contractAddress": "0xf5c4a909455c00b99a90d93b48736f3196db5621",
      "blockTimestamp": 1775357358
    },
    {
      "status": "0x1",
      "cumulativeGasUsed": "0x132c8b",
      "logs": [],
      "logsBloom": "0x00000000000000000000000000000000000000000000000000000000000000000000000000000000000000000000000000000000000000000000000000000000000000000000000000000000000000000000000000000000000000000000000000000000000000000000000000000000000000000000000000000000000000000000000000000000000000000000000000000000000000000000000000000000000000000000000000000000000000000000000000000000000000000000000000000000000000000000000000000000000000000000000000000000000000000000000000000000000000000000000000000000000000000000000000000000",
      "type": "0x0",
      "transactionHash": "0xe98237eaa08098d70a7827c6a2889250cbcedb9822a20c1454a7fecccec2184d",
      "transactionIndex": "0x1",
      "blockHash": "0xb7c2e151ab1a646449da17b189586f5282b4cc01fec12470820cbd89c7eae468",
      "blockNumber": "0x3ac8",
      "gasUsed": "0x56add",
      "effectiveGasPrice": "0x3b9aca07",
      "blobGasPrice": "0x1",
      "from": "0xf39fd6e51aad88f6f4ce6ab8827279cfffb92266",
      "to": null,
      "contractAddress": "0xfd2cf3b56a73c75a7535ffe44ebabe7723c64719",
      "blockTimestamp": 1775357358
    },
    {
      "status": "0x1",
      "cumulativeGasUsed": "0x1b5511",
      "logs": [],
      "logsBloom": "0x00000000000000000000000000000000000000000000000000000000000000000000000000000000000000000000000000000000000000000000000000000000000000000000000000000000000000000000000000000000000000000000000000000000000000000000000000000000000000000000000000000000000000000000000000000000000000000000000000000000000000000000000000000000000000000000000000000000000000000000000000000000000000000000000000000000000000000000000000000000000000000000000000000000000000000000000000000000000000000000000000000000000000000000000000000000",
      "type": "0x0",
      "transactionHash": "0x07373e6a53280fe84534e283ac93afaf3341c224c05c14507a113929aaf14a38",
      "transactionIndex": "0x2",
      "blockHash": "0xb7c2e151ab1a646449da17b189586f5282b4cc01fec12470820cbd89c7eae468",
      "blockNumber": "0x3ac8",
      "gasUsed": "0x82886",
      "effectiveGasPrice": "0x3b9aca07",
      "blobGasPrice": "0x1",
      "from": "0xf39fd6e51aad88f6f4ce6ab8827279cfffb92266",
      "to": null,
      "contractAddress": "0xb22c255250d74b0add1bfb936676d2a299bf48bd",
      "blockTimestamp": 1775357358
    },
    {
      "status": "0x1",
      "cumulativeGasUsed": "0x31647c",
      "logs": [],
      "logsBloom": "0x00000000000000000000000000000000000000000000000000000000000000000000000000000000000000000000000000000000000000000000000000000000000000000000000000000000000000000000000000000000000000000000000000000000000000000000000000000000000000000000000000000000000000000000000000000000000000000000000000000000000000000000000000000000000000000000000000000000000000000000000000000000000000000000000000000000000000000000000000000000000000000000000000000000000000000000000000000000000000000000000000000000000000000000000000000000",
      "type": "0x0",
      "transactionHash": "0x9e5825cf480a9282b48d01581e756907b2d058cb3924569e454bbbe82416b399",
      "transactionIndex": "0x3",
      "blockHash": "0xb7c2e151ab1a646449da17b189586f5282b4cc01fec12470820cbd89c7eae468",
      "blockNumber": "0x3ac8",
      "gasUsed": "0x160f6b",
      "effectiveGasPrice": "0x3b9aca07",
      "blobGasPrice": "0x1",
      "from": "0xf39fd6e51aad88f6f4ce6ab8827279cfffb92266",
      "to": null,
      "contractAddress": "0x666d0c3da3dbc946d5128d06115bb4eed4595580",
      "blockTimestamp": 1775357358
    },
    {
      "status": "0x1",
      "cumulativeGasUsed": "0x321841",
      "logs": [],
      "logsBloom": "0x00000000000000000000000000000000000000000000000000000000000000000000000000000000000000000000000000000000000000000000000000000000000000000000000000000000000000000000000000000000000000000000000000000000000000000000000000000000000000000000000000000000000000000000000000000000000000000000000000000000000000000000000000000000000000000000000000000000000000000000000000000000000000000000000000000000000000000000000000000000000000000000000000000000000000000000000000000000000000000000000000000000000000000000000000000000",
      "type": "0x0",
      "transactionHash": "0xd926182668dbf21b6fb0aee684787ce0e5d229ed3e6543a77f32ed658f943b8b",
      "transactionIndex": "0x4",
      "blockHash": "0xb7c2e151ab1a646449da17b189586f5282b4cc01fec12470820cbd89c7eae468",
      "blockNumber": "0x3ac8",
      "gasUsed": "0xb3c5",
      "effectiveGasPrice": "0x3b9aca07",
      "blobGasPrice": "0x1",
      "from": "0xf39fd6e51aad88f6f4ce6ab8827279cfffb92266",
      "to": "0xfd2cf3b56a73c75a7535ffe44ebabe7723c64719",
      "contractAddress": null,
      "blockTimestamp": 1775357358
    },
    {
      "status": "0x1",
      "cumulativeGasUsed": "0x32cc1e",
      "logs": [],
      "logsBloom": "0x00000000000000000000000000000000000000000000000000000000000000000000000000000000000000000000000000000000000000000000000000000000000000000000000000000000000000000000000000000000000000000000000000000000000000000000000000000000000000000000000000000000000000000000000000000000000000000000000000000000000000000000000000000000000000000000000000000000000000000000000000000000000000000000000000000000000000000000000000000000000000000000000000000000000000000000000000000000000000000000000000000000000000000000000000000000",
      "type": "0x0",
      "transactionHash": "0x34de97b7c5e9a3f7491876a734031c305b67db7904485867d5b53a8d947780a3",
      "transactionIndex": "0x5",
      "blockHash": "0xb7c2e151ab1a646449da17b189586f5282b4cc01fec12470820cbd89c7eae468",
      "blockNumber": "0x3ac8",
      "gasUsed": "0xb3dd",
      "effectiveGasPrice": "0x3b9aca07",
      "blobGasPrice": "0x1",
      "from": "0xf39fd6e51aad88f6f4ce6ab8827279cfffb92266",
      "to": "0xb22c255250d74b0add1bfb936676d2a299bf48bd",
      "contractAddress": null,
      "blockTimestamp": 1775357358
    },
    {
      "status": "0x1",
      "cumulativeGasUsed": "0x338477",
      "logs": [
        {
          "address": "0xf5c4a909455c00b99a90d93b48736f3196db5621",
          "topics": [
            "0xd4a2ffd4212ea97bb981aae1f4a20d5170df470d2ed811c1b393882bc1d9f0fa",
            "0xe98e2830be1a7e4156d656a7505e65d08c67660dc618072422e9c78053c261e9"
          ],
          "data": "0x",
          "blockHash": "0xb7c2e151ab1a646449da17b189586f5282b4cc01fec12470820cbd89c7eae468",
          "blockNumber": "0x3ac8",
          "blockTimestamp": "0x69d1cdae",
          "transactionHash": "0x3a326e748e01f918c56c98a108c8bf831d9559e66a3ef45cb2603d0e9df316b6",
          "transactionIndex": "0x6",
          "logIndex": "0x0",
          "removed": false
        }
      ],
      "logsBloom": "0x00000000000000000000000000000000000000000000000000000000000000000000000000000000002000000000000000000000000000000000000001000000000000000000000000000000000000000000080000000000000000000000000000000400000000000000000000000000000000000000000000000000000000000000000000000000000000000000000000000000000000000000000000000000004000000000000000000000000000000000000000000000000000000000000000000000000000000000000000200000000000000000000000000000000000000000000000000000000500000000000000000000000000000000000000400000",
      "type": "0x0",
      "transactionHash": "0x3a326e748e01f918c56c98a108c8bf831d9559e66a3ef45cb2603d0e9df316b6",
      "transactionIndex": "0x6",
      "blockHash": "0xb7c2e151ab1a646449da17b189586f5282b4cc01fec12470820cbd89c7eae468",
      "blockNumber": "0x3ac8",
      "gasUsed": "0xb859",
      "effectiveGasPrice": "0x3b9aca07",
      "blobGasPrice": "0x1",
      "from": "0xf39fd6e51aad88f6f4ce6ab8827279cfffb92266",
      "to": "0xf5c4a909455c00b99a90d93b48736f3196db5621",
      "contractAddress": null,
      "blockTimestamp": 1775357358
    },
    {
      "status": "0x1",
      "cumulativeGasUsed": "0x354fc0",
      "logs": [
        {
          "address": "0xf5c4a909455c00b99a90d93b48736f3196db5621",
          "topics": [
            "0xd1e0ff31b5a8e9db7a93db8b63d84e896cce257bc637e6d369f43178eedd98ce",
            "0xe98e2830be1a7e4156d656a7505e65d08c67660dc618072422e9c78053c261e9"
          ],
          "data": "0x000000000000000000000000000000000000000000000000000005e96630e800000000000000000000000000000000000000000000000000000005e8eefb5400",
          "blockHash": "0xb7c2e151ab1a646449da17b189586f5282b4cc01fec12470820cbd89c7eae468",
          "blockNumber": "0x3ac8",
          "blockTimestamp": "0x69d1cdae",
          "transactionHash": "0xb146b2d3d0821182401dfad2f384ce73d01e74259338ee9adc62c396d4625fcc",
          "transactionIndex": "0x7",
          "logIndex": "0x1",
          "removed": false
        }
      ],
      "logsBloom": "0x00000000000000000000000000000000000000000000000000000000000000000000000000000000002000000000000000000000000000000000000001000000000000000000000000000000000000000000000000000000000000001000000000000400000000000000000000000000000000000000000000000000000000000001000000000000000000000000000000000000000000000000000000000000000000000000000000000000020000000000000000000000000000000000000000000000000000000000000000200000000000000000000000000000000000000000000000000000000100000000000000000000000000000000000000400000",
      "type": "0x0",
      "transactionHash": "0xb146b2d3d0821182401dfad2f384ce73d01e74259338ee9adc62c396d4625fcc",
      "transactionIndex": "0x7",
      "blockHash": "0xb7c2e151ab1a646449da17b189586f5282b4cc01fec12470820cbd89c7eae468",
      "blockNumber": "0x3ac8",
      "gasUsed": "0x1cb49",
      "effectiveGasPrice": "0x3b9aca07",
      "blobGasPrice": "0x1",
      "from": "0xf39fd6e51aad88f6f4ce6ab8827279cfffb92266",
      "to": "0xf5c4a909455c00b99a90d93b48736f3196db5621",
      "contractAddress": null,
      "blockTimestamp": 1775357358
    },
    {
      "status": "0x1",
      "cumulativeGasUsed": "0x3796da",
      "logs": [
        {
          "address": "0x666d0c3da3dbc946d5128d06115bb4eed4595580",
          "topics": [
            "0xf7154dd385fd97f5acd402bbddfc43353a65d67ed869dc6e507a9f99d6a2040d",
            "0x0000000000000000000000000000000000000000000000000000000000000000"
          ],
          "data": "0xe98e2830be1a7e4156d656a7505e65d08c67660dc618072422e9c78053c261e90000000000000000000000000000000000000000000000000000000000000032",
          "blockHash": "0xb7c2e151ab1a646449da17b189586f5282b4cc01fec12470820cbd89c7eae468",
          "blockNumber": "0x3ac8",
          "blockTimestamp": "0x69d1cdae",
          "transactionHash": "0x8de1df01ec21ae1b818ffa701bebe976a8a49001fdef1bf9c4d810975886f369",
          "transactionIndex": "0x8",
          "logIndex": "0x2",
          "removed": false
        }
      ],
      "logsBloom": "0x00000000000000000000000000000000000000000000000000000000000000000000000000000000000000000000000000000000000000000000000000000000000000000000000000000000000010200000000000000000000000000000000000000000020000000000000000000800000000000000000000000000000000000000000000000000000000000000000000000000000000000000000000000000000000000000000000000000004000000000000000000000000000000010000000800000000000000000000000000000000000000000000000000000000020000000000000000000000000000000000000000000200000000000000000000000",
      "type": "0x0",
      "transactionHash": "0x8de1df01ec21ae1b818ffa701bebe976a8a49001fdef1bf9c4d810975886f369",
      "transactionIndex": "0x8",
      "blockHash": "0xb7c2e151ab1a646449da17b189586f5282b4cc01fec12470820cbd89c7eae468",
      "blockNumber": "0x3ac8",
      "gasUsed": "0x2471a",
      "effectiveGasPrice": "0x3b9aca07",
      "blobGasPrice": "0x1",
      "from": "0xf39fd6e51aad88f6f4ce6ab8827279cfffb92266",
      "to": "0x666d0c3da3dbc946d5128d06115bb4eed4595580",
      "contractAddress": null,
      "blockTimestamp": 1775357358
    },
    {
      "status": "0x1",
      "cumulativeGasUsed": "0x384f33",
      "logs": [
        {
          "address": "0xf5c4a909455c00b99a90d93b48736f3196db5621",
          "topics": [
            "0xd4a2ffd4212ea97bb981aae1f4a20d5170df470d2ed811c1b393882bc1d9f0fa",
            "0xaaaebeba3810b1e6b70781f14b2d72c1cb89c0b2b320c43bb67ff79f562f5ff4"
          ],
          "data": "0x",
          "blockHash": "0xb7c2e151ab1a646449da17b189586f5282b4cc01fec12470820cbd89c7eae468",
          "blockNumber": "0x3ac8",
          "blockTimestamp": "0x69d1cdae",
          "transactionHash": "0xd03de014a3a37b221c8f22e6b36fd2ed27e6e88c6c32e26f3c822593a88e2c1d",
          "transactionIndex": "0x9",
          "logIndex": "0x3",
          "removed": false
        }
      ],
      "logsBloom": "0x00000000000000000000000000000000000000000000000000000000000000000000000000000000000000000000000000000000000000000000000001000000000000000000000000000000000000000000080000000000000000000000000000000400000000000000000000000000000000040000000000000000000000000000000000000000000000008000000000000000000000000000000000000000004000000000000000000000000000000000000000000000000000000000000000000000000000000000000000200000000000000000000000001000000000000000000000000000000400000000000000000000000000000000000000000000",
      "type": "0x0",
      "transactionHash": "0xd03de014a3a37b221c8f22e6b36fd2ed27e6e88c6c32e26f3c822593a88e2c1d",
      "transactionIndex": "0x9",
      "blockHash": "0xb7c2e151ab1a646449da17b189586f5282b4cc01fec12470820cbd89c7eae468",
      "blockNumber": "0x3ac8",
      "gasUsed": "0xb859",
      "effectiveGasPrice": "0x3b9aca07",
      "blobGasPrice": "0x1",
      "from": "0xf39fd6e51aad88f6f4ce6ab8827279cfffb92266",
      "to": "0xf5c4a909455c00b99a90d93b48736f3196db5621",
      "contractAddress": null,
      "blockTimestamp": 1775357358
    },
    {
      "status": "0x1",
      "cumulativeGasUsed": "0x3a1a64",
      "logs": [
        {
          "address": "0xf5c4a909455c00b99a90d93b48736f3196db5621",
          "topics": [
            "0xd1e0ff31b5a8e9db7a93db8b63d84e896cce257bc637e6d369f43178eedd98ce",
            "0xaaaebeba3810b1e6b70781f14b2d72c1cb89c0b2b320c43bb67ff79f562f5ff4"
          ],
          "data": "0x0000000000000000000000000000000000000000000000000000004a817c80000000000000000000000000000000000000000000000000000000004a7590be00",
          "blockHash": "0xb7c2e151ab1a646449da17b189586f5282b4cc01fec12470820cbd89c7eae468",
          "blockNumber": "0x3ac8",
          "blockTimestamp": "0x69d1cdae",
          "transactionHash": "0xbd0d5271f8b72203884caeb886ced4d7847a620650d2d2b81e4bfe6e4b306138",
          "transactionIndex": "0xa",
          "logIndex": "0x4",
          "removed": false
        }
      ],
      "logsBloom": "0x00000000000000000000000000000000000000000000000000000000000000000000000000000000000000000000000000000000000000000000000001000000000000000000000000000000000000000000000000000000000000001000000000000400000000000000000000000000000000040000000000000000000000000001000000000000000000008000000000000000000000000000000000000000000000000000000000000000020000000000000000000000000000000000000000000000000000000000000000200000000000000000000000001000000000000000000000000000000000000000000000000000000000000000000000000000",
      "type": "0x0",
      "transactionHash": "0xbd0d5271f8b72203884caeb886ced4d7847a620650d2d2b81e4bfe6e4b306138",
      "transactionIndex": "0xa",
      "blockHash": "0xb7c2e151ab1a646449da17b189586f5282b4cc01fec12470820cbd89c7eae468",
      "blockNumber": "0x3ac8",
      "gasUsed": "0x1cb31",
      "effectiveGasPrice": "0x3b9aca07",
      "blobGasPrice": "0x1",
      "from": "0xf39fd6e51aad88f6f4ce6ab8827279cfffb92266",
      "to": "0xf5c4a909455c00b99a90d93b48736f3196db5621",
      "contractAddress": null,
      "blockTimestamp": 1775357358
    },
    {
      "status": "0x1",
      "cumulativeGasUsed": "0x3c1eb2",
      "logs": [
        {
          "address": "0x666d0c3da3dbc946d5128d06115bb4eed4595580",
          "topics": [
            "0xf7154dd385fd97f5acd402bbddfc43353a65d67ed869dc6e507a9f99d6a2040d",
            "0x0000000000000000000000000000000000000000000000000000000000000001"
          ],
          "data": "0xaaaebeba3810b1e6b70781f14b2d72c1cb89c0b2b320c43bb67ff79f562f5ff40000000000000000000000000000000000000000000000000000000000000032",
          "blockHash": "0xb7c2e151ab1a646449da17b189586f5282b4cc01fec12470820cbd89c7eae468",
          "blockNumber": "0x3ac8",
          "blockTimestamp": "0x69d1cdae",
          "transactionHash": "0x89fb2886ba5526eef7306ab3be32bf8d5daa72e530f3c3c960eebf0f61e7b454",
          "transactionIndex": "0xb",
          "logIndex": "0x5",
          "removed": false
        }
      ],
      "logsBloom": "0x00000000000000000000000000000000000000000000000000000000000000000000000000000000000000000000000000000000000000000000000000040000000000000000000000000000000010200000000000040000000000000000000000000000000000000000000000000000000000000000000000000000000000000000000000000000000000000000000000000000000000000000000000000000000000000000000000000000004000000000000000000000000000000010000000800000000000000000000000000000000000000000000000000000000040000000000000000000000000000000000000000000200000000000000000000000",
      "type": "0x0",
      "transactionHash": "0x89fb2886ba5526eef7306ab3be32bf8d5daa72e530f3c3c960eebf0f61e7b454",
      "transactionIndex": "0xb",
      "blockHash": "0xb7c2e151ab1a646449da17b189586f5282b4cc01fec12470820cbd89c7eae468",
      "blockNumber": "0x3ac8",
      "gasUsed": "0x2044e",
      "effectiveGasPrice": "0x3b9aca07",
      "blobGasPrice": "0x1",
      "from": "0xf39fd6e51aad88f6f4ce6ab8827279cfffb92266",
      "to": "0x666d0c3da3dbc946d5128d06115bb4eed4595580",
      "contractAddress": null,
      "blockTimestamp": 1775357358
    },
    {
      "status": "0x1",
      "cumulativeGasUsed": "0x3cd70b",
      "logs": [
        {
          "address": "0xf5c4a909455c00b99a90d93b48736f3196db5621",
          "topics": [
            "0xd4a2ffd4212ea97bb981aae1f4a20d5170df470d2ed811c1b393882bc1d9f0fa",
            "0x0a3ec4fc70eaf64faf6eeda4e9b2bd4742a785464053aa23afad8bd24650e86f"
          ],
          "data": "0x",
          "blockHash": "0xb7c2e151ab1a646449da17b189586f5282b4cc01fec12470820cbd89c7eae468",
          "blockNumber": "0x3ac8",
          "blockTimestamp": "0x69d1cdae",
          "transactionHash": "0x6cc5314f9f72a7da38d661980b69657bcf51438352628cf13079393f16b32f7d",
          "transactionIndex": "0xc",
          "logIndex": "0x6",
          "removed": false
        }
      ],
      "logsBloom": "0x00000000000000000000000000000000000000000000000000000000000000000000000000000002000000000000000000000000000000000000000001000000000000000000000000000000000000000000080000000000000000000000000000000400000000000000000000000000000000000000000000000000000000000000000000000000000000000000000000000000000000000000000000000000004000000000000000000000000000000000000000000000000000000000000000000000000000000000000000200000000008000000000000000000000040000000000000000000000400000000000000000000000000000000000000000000",
      "type": "0x0",
      "transactionHash": "0x6cc5314f9f72a7da38d661980b69657bcf51438352628cf13079393f16b32f7d",
      "transactionIndex": "0xc",
      "blockHash": "0xb7c2e151ab1a646449da17b189586f5282b4cc01fec12470820cbd89c7eae468",
      "blockNumber": "0x3ac8",
      "gasUsed": "0xb859",
      "effectiveGasPrice": "0x3b9aca07",
      "blobGasPrice": "0x1",
      "from": "0xf39fd6e51aad88f6f4ce6ab8827279cfffb92266",
      "to": "0xf5c4a909455c00b99a90d93b48736f3196db5621",
      "contractAddress": null,
      "blockTimestamp": 1775357358
    },
    {
      "status": "0x1",
      "cumulativeGasUsed": "0x3ea248",
      "logs": [
        {
          "address": "0xf5c4a909455c00b99a90d93b48736f3196db5621",
          "topics": [
            "0xd1e0ff31b5a8e9db7a93db8b63d84e896cce257bc637e6d369f43178eedd98ce",
            "0x0a3ec4fc70eaf64faf6eeda4e9b2bd4742a785464053aa23afad8bd24650e86f"
          ],
          "data": "0x0000000000000000000000000000000000000000000000000000000430e234000000000000000000000000000000000000000000000000000000000430499d80",
          "blockHash": "0xb7c2e151ab1a646449da17b189586f5282b4cc01fec12470820cbd89c7eae468",
          "blockNumber": "0x3ac8",
          "blockTimestamp": "0x69d1cdae",
          "transactionHash": "0x17963aa6b581a4b9c4398300929aa431540072ef4d6d46f9965837b3bd17fe02",
          "transactionIndex": "0xd",
          "logIndex": "0x7",
          "removed": false
        }
      ],
      "logsBloom": "0x00000000000000000000000000000000000000000000000000000000000000000000000000000002000000000000000000000000000000000000000001000000000000000000000000000000000000000000000000000000000000001000000000000400000000000000000000000000000000000000000000000000000000000001000000000000000000000000000000000000000000000000000000000000000000000000000000000000020000000000000000000000000000000000000000000000000000000000000000200000000008000000000000000000000040000000000000000000000000000000000000000000000000000000000000000000",
      "type": "0x0",
      "transactionHash": "0x17963aa6b581a4b9c4398300929aa431540072ef4d6d46f9965837b3bd17fe02",
      "transactionIndex": "0xd",
      "blockHash": "0xb7c2e151ab1a646449da17b189586f5282b4cc01fec12470820cbd89c7eae468",
      "blockNumber": "0x3ac8",
      "gasUsed": "0x1cb3d",
      "effectiveGasPrice": "0x3b9aca07",
      "blobGasPrice": "0x1",
      "from": "0xf39fd6e51aad88f6f4ce6ab8827279cfffb92266",
      "to": "0xf5c4a909455c00b99a90d93b48736f3196db5621",
      "contractAddress": null,
      "blockTimestamp": 1775357358
    },
    {
      "status": "0x1",
      "cumulativeGasUsed": "0x40a696",
      "logs": [
        {
          "address": "0x666d0c3da3dbc946d5128d06115bb4eed4595580",
          "topics": [
            "0xf7154dd385fd97f5acd402bbddfc43353a65d67ed869dc6e507a9f99d6a2040d",
            "0x0000000000000000000000000000000000000000000000000000000000000002"
          ],
          "data": "0x0a3ec4fc70eaf64faf6eeda4e9b2bd4742a785464053aa23afad8bd24650e86f0000000000000000000000000000000000000000000000000000000000000019",
          "blockHash": "0xb7c2e151ab1a646449da17b189586f5282b4cc01fec12470820cbd89c7eae468",
          "blockNumber": "0x3ac8",
          "blockTimestamp": "0x69d1cdae",
          "transactionHash": "0xae9dec878ba9d15fdd1b44e37272212b6f4deef8d38ed84291c38cd252a8ce2e",
          "transactionIndex": "0xe",
          "logIndex": "0x8",
          "removed": false
        }
      ],
      "logsBloom": "0x04000000000000000000000000000000000000000000000000000000000000000000000000000000000000000000000000000000000000000000000000000000000000000000000000000000000010200000000000000000000000000000000000000000000000000000000000000000000000000000000000000000000000000000000000000000000000000000000000000000000000000000000000000000000000000000000000000100004000000000000000000000000000000010000000800000000000000000000000000000000000000000000000000000000000000000000000000000000000000000000000000000208000000000000000000000",
      "type": "0x0",
      "transactionHash": "0xae9dec878ba9d15fdd1b44e37272212b6f4deef8d38ed84291c38cd252a8ce2e",
      "transactionIndex": "0xe",
      "blockHash": "0xb7c2e151ab1a646449da17b189586f5282b4cc01fec12470820cbd89c7eae468",
      "blockNumber": "0x3ac8",
      "gasUsed": "0x2044e",
      "effectiveGasPrice": "0x3b9aca07",
      "blobGasPrice": "0x1",
      "from": "0xf39fd6e51aad88f6f4ce6ab8827279cfffb92266",
      "to": "0x666d0c3da3dbc946d5128d06115bb4eed4595580",
      "contractAddress": null,
      "blockTimestamp": 1775357358
    },
    {
      "status": "0x1",
      "cumulativeGasUsed": "0x415eef",
      "logs": [
        {
          "address": "0xf5c4a909455c00b99a90d93b48736f3196db5621",
          "topics": [
            "0xd4a2ffd4212ea97bb981aae1f4a20d5170df470d2ed811c1b393882bc1d9f0fa",
            "0x3ed03c38e59dc60c7b69c2a4bf68f9214acd953252b5a90e8f5f59583e9bc3ae"
          ],
          "data": "0x",
          "blockHash": "0xb7c2e151ab1a646449da17b189586f5282b4cc01fec12470820cbd89c7eae468",
          "blockNumber": "0x3ac8",
          "blockTimestamp": "0x69d1cdae",
          "transactionHash": "0x7022395f8a0c76243a0ffa5631642a5754e33b8d5922379cf2b7e9f423ca0c6b",
          "transactionIndex": "0xf",
          "logIndex": "0x9",
          "removed": false
        }
      ],
      "logsBloom": "0x00000000000000000000000000000000000000000000000000000000000000000000000000000000000100000000000000000000000000000000000001000000000000000000000000000000000000000000080000000000000000000000000000000400000000000000000000000000000000000000000000000000000000000020000000000000000000000000000000000000000000000000000000008000004000000000000000000000000000000000000000000000000000000000000000000000000000000000000000200000000000000000000000000000000000000000000000000000000400000000000000000000000000000000000000000000",
      "type": "0x0",
      "transactionHash": "0x7022395f8a0c76243a0ffa5631642a5754e33b8d5922379cf2b7e9f423ca0c6b",
      "transactionIndex": "0xf",
      "blockHash": "0xb7c2e151ab1a646449da17b189586f5282b4cc01fec12470820cbd89c7eae468",
      "blockNumber": "0x3ac8",
      "gasUsed": "0xb859",
      "effectiveGasPrice": "0x3b9aca07",
      "blobGasPrice": "0x1",
      "from": "0xf39fd6e51aad88f6f4ce6ab8827279cfffb92266",
      "to": "0xf5c4a909455c00b99a90d93b48736f3196db5621",
      "contractAddress": null,
      "blockTimestamp": 1775357358
    },
    {
      "status": "0x1",
      "cumulativeGasUsed": "0x432a20",
      "logs": [
        {
          "address": "0xf5c4a909455c00b99a90d93b48736f3196db5621",
          "topics": [
            "0xd1e0ff31b5a8e9db7a93db8b63d84e896cce257bc637e6d369f43178eedd98ce",
            "0x3ed03c38e59dc60c7b69c2a4bf68f9214acd953252b5a90e8f5f59583e9bc3ae"
          ],
          "data": "0x0000000000000000000000000000000000000000000000000000000df84758000000000000000000000000000000000000000000000000000000000df7162b00",
          "blockHash": "0xb7c2e151ab1a646449da17b189586f5282b4cc01fec12470820cbd89c7eae468",
          "blockNumber": "0x3ac8",
          "blockTimestamp": "0x69d1cdae",
          "transactionHash": "0x5cc07c15148851bae10f038d3f31741447eac299ad4556c67050aee8fa853da5",
          "transactionIndex": "0x10",
          "logIndex": "0xa",
          "removed": false
        }
      ],
      "logsBloom": "0x00000000000000000000000000000000000000000000000000000000000000000000000000000000000100000000000000000000000000000000000001000000000000000000000000000000000000000000000000000000000000001000000000000400000000000000000000000000000000000000000000000000000000000021000000000000000000000000000000000000000000000000000000008000000000000000000000000000020000000000000000000000000000000000000000000000000000000000000000200000000000000000000000000000000000000000000000000000000000000000000000000000000000000000000000000000",
      "type": "0x0",
      "transactionHash": "0x5cc07c15148851bae10f038d3f31741447eac299ad4556c67050aee8fa853da5",
      "transactionIndex": "0x10",
      "blockHash": "0xb7c2e151ab1a646449da17b189586f5282b4cc01fec12470820cbd89c7eae468",
      "blockNumber": "0x3ac8",
      "gasUsed": "0x1cb31",
      "effectiveGasPrice": "0x3b9aca07",
      "blobGasPrice": "0x1",
      "from": "0xf39fd6e51aad88f6f4ce6ab8827279cfffb92266",
      "to": "0xf5c4a909455c00b99a90d93b48736f3196db5621",
      "contractAddress": null,
      "blockTimestamp": 1775357358
    },
    {
      "status": "0x1",
      "cumulativeGasUsed": "0x452e6e",
      "logs": [
        {
          "address": "0x666d0c3da3dbc946d5128d06115bb4eed4595580",
          "topics": [
            "0xf7154dd385fd97f5acd402bbddfc43353a65d67ed869dc6e507a9f99d6a2040d",
            "0x0000000000000000000000000000000000000000000000000000000000000003"
          ],
          "data": "0x3ed03c38e59dc60c7b69c2a4bf68f9214acd953252b5a90e8f5f59583e9bc3ae0000000000000000000000000000000000000000000000000000000000000019",
          "blockHash": "0xb7c2e151ab1a646449da17b189586f5282b4cc01fec12470820cbd89c7eae468",
          "blockNumber": "0x3ac8",
          "blockTimestamp": "0x69d1cdae",
          "transactionHash": "0x44ad6b70c473ff95e20d01197b5b420330de001d65d29e8398fde274dc0f5c00",
          "transactionIndex": "0x11",
          "logIndex": "0xb",
          "removed": false
        }
      ],
      "logsBloom": "0x00000000000000000000000000000000000000000000000000000000000000000000000000000000000000000000000000000000020000000000000000000000000000000000000000000000000010200000000000000000000000000000000000000000000000000000000000000000000000000000000000000000000000000000000000000000000000000000000000000000000000000000000000000000000000000000000000000000004000000000000000800000000000000010400000800000000000000000000000000000000000000000000000000000000000000000000000000000000000000000000000000000200000000000000000000000",
      "type": "0x0",
      "transactionHash": "0x44ad6b70c473ff95e20d01197b5b420330de001d65d29e8398fde274dc0f5c00",
      "transactionIndex": "0x11",
      "blockHash": "0xb7c2e151ab1a646449da17b189586f5282b4cc01fec12470820cbd89c7eae468",
      "blockNumber": "0x3ac8",
      "gasUsed": "0x2044e",
      "effectiveGasPrice": "0x3b9aca07",
      "blobGasPrice": "0x1",
      "from": "0xf39fd6e51aad88f6f4ce6ab8827279cfffb92266",
      "to": "0x666d0c3da3dbc946d5128d06115bb4eed4595580",
      "contractAddress": null,
      "blockTimestamp": 1775357358
    },
    {
      "status": "0x1",
      "cumulativeGasUsed": "0x45e6c7",
      "logs": [
        {
          "address": "0xf5c4a909455c00b99a90d93b48736f3196db5621",
          "topics": [
            "0xd4a2ffd4212ea97bb981aae1f4a20d5170df470d2ed811c1b393882bc1d9f0fa",
            "0xa6a7de01e8b7ba6a4a61c782a73188d808fc1f3cf5743fadb68a02ed884b594f"
          ],
          "data": "0x",
          "blockHash": "0xb7c2e151ab1a646449da17b189586f5282b4cc01fec12470820cbd89c7eae468",
          "blockNumber": "0x3ac8",
          "blockTimestamp": "0x69d1cdae",
          "transactionHash": "0x38bf5363ae2f25f6074bc8ad867fda1f56eef9709f077e873c0eaafca4690ee2",
          "transactionIndex": "0x12",
          "logIndex": "0xc",
          "removed": false
        }
      ],
      "logsBloom": "0x00000000000000000000000000000000000000000000000000000000000000000000000000000000000000000000000000000000000000000000000001000000000000000000000000000000000000000000080000000000000000000000400000000400000000000000000000000000000000000000000000000040000000000000000000000000000000000000000000000000000000000000000000000000004000000000000000000000000000000000000000000000000000000000000000000000000000000000000000210000000000000000000000000000000000000000000000000000000400000000000000000000000000000000000000000000",
      "type": "0x0",
      "transactionHash": "0x38bf5363ae2f25f6074bc8ad867fda1f56eef9709f077e873c0eaafca4690ee2",
      "transactionIndex": "0x12",
      "blockHash": "0xb7c2e151ab1a646449da17b189586f5282b4cc01fec12470820cbd89c7eae468",
      "blockNumber": "0x3ac8",
      "gasUsed": "0xb859",
      "effectiveGasPrice": "0x3b9aca07",
      "blobGasPrice": "0x1",
      "from": "0xf39fd6e51aad88f6f4ce6ab8827279cfffb92266",
      "to": "0xf5c4a909455c00b99a90d93b48736f3196db5621",
      "contractAddress": null,
      "blockTimestamp": 1775357358
    },
    {
      "status": "0x1",
      "cumulativeGasUsed": "0x47b1f8",
      "logs": [
        {
          "address": "0xf5c4a909455c00b99a90d93b48736f3196db5621",
          "topics": [
            "0xd1e0ff31b5a8e9db7a93db8b63d84e896cce257bc637e6d369f43178eedd98ce",
            "0xa6a7de01e8b7ba6a4a61c782a73188d808fc1f3cf5743fadb68a02ed884b594f"
          ],
          "data": "0x00000000000000000000000000000000000000000000000000000000055d4a80000000000000000000000000000000000000000000000000000000000555a960",
          "blockHash": "0xb7c2e151ab1a646449da17b189586f5282b4cc01fec12470820cbd89c7eae468",
          "blockNumber": "0x3ac8",
          "blockTimestamp": "0x69d1cdae",
          "transactionHash": "0xffc192e25c3f6c41b06f75d44004703812973fa23359115f4c24f86898044bdf",
          "transactionIndex": "0x13",
          "logIndex": "0xd",
          "removed": false
        }
      ],
      "logsBloom": "0x00000000000000000000000000000000000000000000000000000000000000000000000000000000000000000000000000000000000000000000000001000000000000000000000000000000000000000000000000000000000000001000400000000400000000000000000000000000000000000000000000000040000000000001000000000000000000000000000000000000000000000000000000000000000000000000000000000000020000000000000000000000000000000000000000000000000000000000000000210000000000000000000000000000000000000000000000000000000000000000000000000000000000000000000000000000",
      "type": "0x0",
      "transactionHash": "0xffc192e25c3f6c41b06f75d44004703812973fa23359115f4c24f86898044bdf",
      "transactionIndex": "0x13",
      "blockHash": "0xb7c2e151ab1a646449da17b189586f5282b4cc01fec12470820cbd89c7eae468",
      "blockNumber": "0x3ac8",
      "gasUsed": "0x1cb31",
      "effectiveGasPrice": "0x3b9aca07",
      "blobGasPrice": "0x1",
      "from": "0xf39fd6e51aad88f6f4ce6ab8827279cfffb92266",
      "to": "0xf5c4a909455c00b99a90d93b48736f3196db5621",
      "contractAddress": null,
      "blockTimestamp": 1775357358
    },
    {
      "status": "0x1",
      "cumulativeGasUsed": "0x49b646",
      "logs": [
        {
          "address": "0x666d0c3da3dbc946d5128d06115bb4eed4595580",
          "topics": [
            "0xf7154dd385fd97f5acd402bbddfc43353a65d67ed869dc6e507a9f99d6a2040d",
            "0x0000000000000000000000000000000000000000000000000000000000000004"
          ],
          "data": "0xa6a7de01e8b7ba6a4a61c782a73188d808fc1f3cf5743fadb68a02ed884b594f0000000000000000000000000000000000000000000000000000000000000014",
          "blockHash": "0xb7c2e151ab1a646449da17b189586f5282b4cc01fec12470820cbd89c7eae468",
          "blockNumber": "0x3ac8",
          "blockTimestamp": "0x69d1cdae",
          "transactionHash": "0xa38b4801257aca00a48edade4daff93be6750f1e1d02f87e1289b4f94a35215e",
          "transactionIndex": "0x14",
          "logIndex": "0xe",
          "removed": false
        }
      ],
      "logsBloom": "0x00000000000000000000000000000000000000000000000000000000000000000000000000000000000000000000000000000000000000000000000000000000000000000000000000000000000010200000000000000000000000000000000008000000000000000000000000000000000000000000000000000000000000000000000000000000000000000000000000000000000000000000000000000000000000000000000000000000004000000000000000000000002000000010000000800000000000000000000000000000000000008000000000000000000000000000000000000000000000000000000000000000200000000000000000000000",
      "type": "0x0",
      "transactionHash": "0xa38b4801257aca00a48edade4daff93be6750f1e1d02f87e1289b4f94a35215e",
      "transactionIndex": "0x14",
      "blockHash": "0xb7c2e151ab1a646449da17b189586f5282b4cc01fec12470820cbd89c7eae468",
      "blockNumber": "0x3ac8",
      "gasUsed": "0x2044e",
      "effectiveGasPrice": "0x3b9aca07",
      "blobGasPrice": "0x1",
      "from": "0xf39fd6e51aad88f6f4ce6ab8827279cfffb92266",
      "to": "0x666d0c3da3dbc946d5128d06115bb4eed4595580",
      "contractAddress": null,
      "blockTimestamp": 1775357358
    },
    {
      "status": "0x1",
      "cumulativeGasUsed": "0x4a6e9f",
      "logs": [
        {
          "address": "0xf5c4a909455c00b99a90d93b48736f3196db5621",
          "topics": [
            "0xd4a2ffd4212ea97bb981aae1f4a20d5170df470d2ed811c1b393882bc1d9f0fa",
            "0xc07524b7a4eecc2784fc7ac17ff2730f877f3cf7a2ceb4e2375fa40a103115d0"
          ],
          "data": "0x",
          "blockHash": "0xb7c2e151ab1a646449da17b189586f5282b4cc01fec12470820cbd89c7eae468",
          "blockNumber": "0x3ac8",
          "blockTimestamp": "0x69d1cdae",
          "transactionHash": "0x07e53086f2057497c19a91f2c4ad3879ce1dcc1520b3f445221d46cb31e7dc91",
          "transactionIndex": "0x15",
          "logIndex": "0xf",
          "removed": false
        }
      ],
      "logsBloom": "0x00000000000000000000000000000000000000000000000000000000000000000000000000000000000000000000000000000000000000000000000001000000000000000000000000000000000000000000080000000000000000000000000000000400000000000000000000000000000000000000000000000000000000000000000000000000000000000000000000000000000000000000004000000000004000000000000000000000000000000000000000000000002000000000000000000000000000000000000000200000000000000000080000000000000000000000000000000000000400000000000000000000000000000000000000000000",
      "type": "0x0",
      "transactionHash": "0x07e53086f2057497c19a91f2c4ad3879ce1dcc1520b3f445221d46cb31e7dc91",
      "transactionIndex": "0x15",
      "blockHash": "0xb7c2e151ab1a646449da17b189586f5282b4cc01fec12470820cbd89c7eae468",
      "blockNumber": "0x3ac8",
      "gasUsed": "0xb859",
      "effectiveGasPrice": "0x3b9aca07",
      "blobGasPrice": "0x1",
      "from": "0xf39fd6e51aad88f6f4ce6ab8827279cfffb92266",
      "to": "0xf5c4a909455c00b99a90d93b48736f3196db5621",
      "contractAddress": null,
      "blockTimestamp": 1775357358
    },
    {
      "status": "0x1",
      "cumulativeGasUsed": "0x4c39b8",
      "logs": [
        {
          "address": "0xf5c4a909455c00b99a90d93b48736f3196db5621",
          "topics": [
            "0xd1e0ff31b5a8e9db7a93db8b63d84e896cce257bc637e6d369f43178eedd98ce",
            "0xc07524b7a4eecc2784fc7ac17ff2730f877f3cf7a2ceb4e2375fa40a103115d0"
          ],
          "data": "0x0000000000000000000000000000000000000000000000000000000007270e0000000000000000000000000000000000000000000000000000000000072400c0",
          "blockHash": "0xb7c2e151ab1a646449da17b189586f5282b4cc01fec12470820cbd89c7eae468",
          "blockNumber": "0x3ac8",
          "blockTimestamp": "0x69d1cdae",
          "transactionHash": "0x31a1c0f258859948ceb9723ba34c981dccf54efaf07c822f85c9a8d90788b0fd",
          "transactionIndex": "0x16",
          "logIndex": "0x10",
          "removed": false
        }
      ],
      "logsBloom": "0x00000000000000000000000000000000000000000000000000000000000000000000000000000000000000000000000000000000000000000000000001000000000000000000000000000000000000000000000000000000000000001000000000000400000000000000000000000000000000000000000000000000000000000001000000000000000000000000000000000000000000000000004000000000000000000000000000000000020000000000000000000000002000000000000000000000000000000000000000200000000000000000080000000000000000000000000000000000000000000000000000000000000000000000000000000000",
      "type": "0x0",
      "transactionHash": "0x31a1c0f258859948ceb9723ba34c981dccf54efaf07c822f85c9a8d90788b0fd",
      "transactionIndex": "0x16",
      "blockHash": "0xb7c2e151ab1a646449da17b189586f5282b4cc01fec12470820cbd89c7eae468",
      "blockNumber": "0x3ac8",
      "gasUsed": "0x1cb19",
      "effectiveGasPrice": "0x3b9aca07",
      "blobGasPrice": "0x1",
      "from": "0xf39fd6e51aad88f6f4ce6ab8827279cfffb92266",
      "to": "0xf5c4a909455c00b99a90d93b48736f3196db5621",
      "contractAddress": null,
      "blockTimestamp": 1775357358
    },
    {
      "status": "0x1",
      "cumulativeGasUsed": "0x4e3e06",
      "logs": [
        {
          "address": "0x666d0c3da3dbc946d5128d06115bb4eed4595580",
          "topics": [
            "0xf7154dd385fd97f5acd402bbddfc43353a65d67ed869dc6e507a9f99d6a2040d",
            "0x0000000000000000000000000000000000000000000000000000000000000005"
          ],
          "data": "0xc07524b7a4eecc2784fc7ac17ff2730f877f3cf7a2ceb4e2375fa40a103115d00000000000000000000000000000000000000000000000000000000000000014",
          "blockHash": "0xb7c2e151ab1a646449da17b189586f5282b4cc01fec12470820cbd89c7eae468",
          "blockNumber": "0x3ac8",
          "blockTimestamp": "0x69d1cdae",
          "transactionHash": "0xfb2f4e2b7907a48c9c0e9b11dd6dee5edea9d0d272df65f1c9f2379655469cb6",
          "transactionIndex": "0x17",
          "logIndex": "0x11",
          "removed": false
        }
      ],
      "logsBloom": "0x00000000000000000000000000000000000000000000000000000000000000000000000000000000000000000000000000000000000000000000000000000000000010000000000000000000000010200000000000000000000000000000000000000000000000000000000000000000000000000000000000000000000000000000000000000000000000000000001000000800000000000000000000000000000000000000000000000000004000000000000000000000000000000010000000800000000000000000000000000000000000000000000000000000000000000000000000000000000000000000000000000000200000000000000000000000",
      "type": "0x0",
      "transactionHash": "0xfb2f4e2b7907a48c9c0e9b11dd6dee5edea9d0d272df65f1c9f2379655469cb6",
      "transactionIndex": "0x17",
      "blockHash": "0xb7c2e151ab1a646449da17b189586f5282b4cc01fec12470820cbd89c7eae468",
      "blockNumber": "0x3ac8",
      "gasUsed": "0x2044e",
      "effectiveGasPrice": "0x3b9aca07",
      "blobGasPrice": "0x1",
      "from": "0xf39fd6e51aad88f6f4ce6ab8827279cfffb92266",
      "to": "0x666d0c3da3dbc946d5128d06115bb4eed4595580",
      "contractAddress": null,
      "blockTimestamp": 1775357358
    }
  ],
  "libraries": [],
  "pending": [],
  "returns": {},
  "timestamp": 1775357358929,
  "chain": 42069,
  "commit": "656f8fc"
}