{
  "transactions": [
    {
      "hash": "0xb5c642733d4bcd53ffd0f295f3abd1d1c4e787100fe3869fa90afb7b23d6f71c",
      "transactionType": "CREATE",
      "contractName": "PerpPriceOracle",
      "contractAddress": "0x81f4f47aa3bbd154171c877b4d70f6c9eecab216",
      "function": null,
      "arguments": [
        "0xf39Fd6e51aad88F6F4ce6aB8827279cffFb92266"
      ],
      "transaction": {
        "from": "0xf39fd6e51aad88f6f4ce6ab8827279cfffb92266",
        "gas": "0x11e22f",
        "value": "0x0",
        "input": "0x60803460a057601f610e6438819003918201601f19168301916001600160401b0383118484101760a45780849260209460405283398101031260a057516001600160a01b0381169081900360a05760786004556107d060055580156091578060018060a01b03195f5416175f555f52600160205260405f20600160ff19825416179055604051610dab90816100b98239f35b63d92e233d60e01b5f5260045ffd5b5f80fd5b634e487b7160e01b5f52604160045260245ffdfe6080806040526004361015610012575f80fd5b5f3560e01c9081630a16191a146108a3575080630df1d5ed14610840578063100bc9e1146107e3578063249d39e9146107c75780633bbd64bc1461078a5780633ee7a7011461076d57806343fa6211146106c057806360846bc61461066457806365312f181461062b578063704b6c02146105e05780637698aa331461057a57806380626ad1146105a0578063832321bf1461057a57806387cf46961461055d578063b70946011461052e578063d1b9e85314610492578063d94414e6146102e2578063dddbc04914610285578063ecc191bb1461025d578063f229fece1461012e5763f851a44014610103575f80fd5b3461012a575f36600319011261012a575f546040516001600160a01b039091168152602090f35b5f80fd5b3461012a57606036600319011261012a575f546004359060243590604435906001600160a01b0316330361024e57825f52600360205260ff60405f2054161561023b5781158015610233575b610224577fd1e0ff31b5a8e9db7a93db8b63d84e896cce257bc637e6d369f43178eedd98ce916040916102176101ae610be6565b8381526020810183815260ff6003878401934285526060810194600186526080820194600186528c5f5260026020528a5f20925183555160018301555160028201550192511660ff1983541617825551151561ff00825491151560081b169061ff001916179055565b82519182526020820152a2005b634dfba02360e01b5f5260045ffd5b50801561017a565b82631b37612760e21b5f5260045260245ffd5b637bfa4b9f60e01b5f5260045ffd5b3461012a57602036600319011261012a57602061027b600435610c5d565b6040519015158152f35b3461012a57602036600319011261012a575f54600435906001600160a01b0316330361024e577fea7b0359048504e79474eaaa05294b49265fc4e7b0a0c3737aaa22412e90f16e60406005548151908152836020820152a1600555005b3461012a57608036600319011261012a5760043560243560643560443560ff821680830361012a57335f52600160205260ff60405f205416158061047e575b61046f57845f52600360205260ff60405f2054161561045c5783158015610454575b610224577fc7061c903e2c36b50c20c3af3c54f4a781394e15a68ba49ee82125a240ad419b9361040261042b92875f52600260205260405f20838154918215159081610441575b50610430575b505061039a610be6565b83815260ff60036020830192888452604081014281526060820195865260808201945f86528d5f52600260205260405f20925183555160018301555160028201550192511660ff1983541617825551151561ff00825491151560081b169061ff001916179055565b6040519384934292859094939260ff906060936080840197845260208401521660408201520152565b0390a2005b61043a918a610c9f565b8883610390565b60ff91506003015460081c16158b61038a565b508115610343565b84631b37612760e21b5f5260045260245ffd5b631ea2564f60e31b5f5260045ffd5b505f546001600160a01b0316331415610321565b3461012a57604036600319011261012a576104ab610b9e565b6024359081151580920361012a575f546001600160a01b0316330361024e576001600160a01b031690811561051f5760207f786c9db967bf0c6b16c7c91adae8a8c554b15a57d373fa2059607300f4616c0091835f526001825260405f2060ff1981541660ff8316179055604051908152a2005b63d92e233d60e01b5f5260045ffd5b3461012a57602036600319011261012a576004355f526003602052602060ff60405f2054166040519015158152f35b3461012a575f36600319011261012a576020600454604051908152f35b3461012a57602036600319011261012a576020610598600435610c1a565b604051908152f35b3461012a57602036600319011261012a575f546001600160a01b0316330361024e576004355f908152600260205260409020600301805461ff0019169055005b3461012a57602036600319011261012a576105f9610b9e565b5f54906001600160a01b038216330361024e576001600160a01b031690811561051f576001600160a01b031916175f55005b3461012a57602036600319011261012a57600435805f52600260205260405f209060018201549081156102245760209261059891610d2b565b3461012a57602036600319011261012a576004355f52600260205260a060405f2060ff815491600181015490600360028201549101549160405194855260208501526040840152818116606084015260081c1615156080820152f35b3461012a57602036600319011261012a575f60806106dc610be6565b82815282602082015282604082015282606082015201526004355f52600260205260a060405f2061070b610be6565b9060ff8154928381526001830154926020820193845260036002820154916040840192835201549383608060608501948288168652019560081c1615158552604051958652516020860152516040850152511660608301525115156080820152f35b3461012a575f36600319011261012a576020600554604051908152f35b3461012a57602036600319011261012a576001600160a01b036107ab610b9e565b165f526001602052602060ff60405f2054166040519015158152f35b3461012a575f36600319011261012a5760206040516127108152f35b3461012a57602036600319011261012a575f54600435906001600160a01b0316330361024e577f9843f62f065b46649ec181ada7772d5c94055361bc052184193831e5cbcb9f6560406004548151908152836020820152a1600455005b3461012a57602036600319011261012a575f54600435906001600160a01b0316330361024e57805f52600360205260405f20600160ff198254161790557fd4a2ffd4212ea97bb981aae1f4a20d5170df470d2ed811c1b393882bc1d9f0fa5f80a2005b3461012a57608036600319011261012a5760043567ffffffffffffffff811161012a576108d4903690600401610b6d565b909160243567ffffffffffffffff811161012a576108f6903690600401610b6d565b60449291923567ffffffffffffffff811161012a57610919903690600401610b6d565b95909160643567ffffffffffffffff811161012a5761093c903690600401610b6d565b979094335f52600160205260ff60405f2054161580610b59575b61046f5782881480610b50575b80610b47575b15610b1357505f5b87811061097a57005b610985818986610bb4565b359061099281858a610bb4565b359161099f828589610bb4565b35815f52600360205260ff60405f20541615610b005783158015610af8575b610224576001937fc7061c903e2c36b50c20c3af3c54f4a781394e15a68ba49ee82125a240ad419b91610acb610aa38f87610a27918f895f52600260205260405f20888154918215159081610ae5575b50610ad4575b5050610a9e610a2c610a27858585610bb4565b610bd8565b8b60ff6003610a39610be6565b8d8152602081018d8152604082019042825284606084019716875260808301955f87525f52600260205260405f20925183555160018301555160028201550192511660ff1983541617825551151561ff00825491151560081b169061ff001916179055565b610bb4565b60408051948552602085019390935260ff169183019190915242606083015281906080820190565b0390a201610971565b610ade918c610c9f565b5f88610a14565b60ff91506003015460081c16155f610a0e565b5080156109be565b50631b37612760e21b5f5260045260245ffd5b62461bcd60e51b815260206004820152600f60248201526e0d8cadccee8d040dad2e6dac2e8c6d608b1b6044820152606490fd5b50888814610969565b50818814610963565b505f546001600160a01b0316331415610956565b9181601f8401121561012a5782359167ffffffffffffffff831161012a576020808501948460051b01011161012a57565b600435906001600160a01b038216820361012a57565b9190811015610bc45760051b0190565b634e487b7160e01b5f52603260045260245ffd5b3560ff8116810361012a5790565b6040519060a0820182811067ffffffffffffffff821117610c0657604052565b634e487b7160e01b5f52604160045260245ffd5b805f52600260205260405f2090815491821561022457610c3991610d2b565b90565b91908203918211610c4957565b634e487b7160e01b5f52601160045260245ffd5b5f52600260205260405f20805415610c9a5760ff600382015460081c16610c94576002610c8c91015442610c3c565b600454101590565b50600190565b505f90565b9180821115610d1c57610cb28183610c3c565b6127108102908082046127101490151715610c49578215610d0857829004916005548311610ce05750505050565b608494506040519363bdecbfb760e01b85526004850152602484015260448301526064820152fd5b634e487b7160e01b5f52601260045260245ffd5b610d268282610c3c565b610cb2565b9060ff600382015460081c16610d71576002610d4991015442610c3c565b60045491828211610d5957505050565b6357fd6bcb60e11b5f5260045260245260445260645ffd5b505056fea2646970667358221220b17298141c6a719ccf5010baf91b5f72e5deaf9f6617c2ecb6e3c7968f6e0ca064736f6c63430008210033000000000000000000000000f39fd6e51aad88f6f4ce6ab8827279cfffb92266",
        "nonce": "0x2ca",
        "chainId": "0xa455"
      },
      "additionalContracts": [],
      "isFixedGasLimit": false
    },
    {
      "hash": "0xb2cf361db2c94b8747c92fd90d3613bfaf59c680c49bdd335dfc9890ba47dc6a",
      "transactionType": "CREATE",
      "contractName": "FundingRate",
      "contractAddress": "0x2ce1f0e20c1f69e9d9aea83b25f0ceb69e2aa2b5",
      "function": null,
      "arguments": [
        "0xf39Fd6e51aad88F6F4ce6aB8827279cffFb92266"
      ],
      "transaction": {
        "from": "0xf39fd6e51aad88f6f4ce6ab8827279cfffb92266",
        "gas": "0x819b9",
        "value": "0x0",
        "input": "0x608034608357601f61069538819003918201601f19168301916001600160401b03831184841017608757808492602094604052833981010312608357516001600160a01b0381169081900360835780156074575f80546001600160a01b0319169190911790556040516105f9908161009c8239f35b63d92e233d60e01b5f5260045ffd5b5f80fd5b634e487b7160e01b5f52604160045260245ffdfe60806040526004361015610011575f80fd5b5f3560e01c806302429b98146104075780630e18b68114610387578063267822471461035f57806326ef1b721461033557806345eab495146102be57806348ba4d2b1461029657806355efb2871461027a57806375829def14610203578063b619daf71461018c578063e03e0d8514610162578063f11db845146100f4578063f40f2a79146100d35763f851a440146100a8575f80fd5b346100cf575f3660031901126100cf575f546040516001600160a01b039091168152602090f35b5f80fd5b346100cf575f3660031901126100cf5760206040516601c6bf526340008152f35b346100cf5760203660031901126100cf5760043560018060a01b03600254163314158061014e575b61013f57805f5260046020524260405f20555f5260036020525f60408120555f80f35b63027da19960e41b5f5260045ffd5b505f546001600160a01b031633141561011c565b346100cf5760203660031901126100cf576004355f526004602052602060405f2054604051908152f35b346100cf5760203660031901126100cf576004356001600160a01b038116908190036100cf575f546001600160a01b031633036101f45780156101e5576bffffffffffffffffffffffff60a01b60025416176002555f80f35b63d92e233d60e01b5f5260045ffd5b637bfa4b9f60e01b5f5260045ffd5b346100cf5760203660031901126100cf576004356001600160a01b038116908190036100cf575f546001600160a01b0316338190036101f45781156101e557600180546001600160a01b031916831790557fb4d7bcb4d9a5d6ef6e827e3b1554e5a2578ad9ca843903d42b05d08bfa3458945f80a3005b346100cf575f3660031901126100cf5760206040516170808152f35b346100cf575f3660031901126100cf576002546040516001600160a01b039091168152602090f35b346100cf5760603660031901126100cf576004356044355f5260036020526102ec60243560405f2054610460565b81810291905f8212600160ff1b82141661032157818305149015171561032157670de0b6b3a764000060209105604051908152f35b634e487b7160e01b5f52601160045260245ffd5b346100cf5760203660031901126100cf576004355f526003602052602060405f2054604051908152f35b346100cf575f3660031901126100cf576001546040516001600160a01b039091168152602090f35b346100cf575f3660031901126100cf576001546001600160a01b03811690338290036103f8575f80546001600160a01b0319808216851783559092166001556001600160a01b03909116907ff8ccb027dfcd135e000e9d45e6cc2d662578a8825d4c45b5e32e0adf67e79ec69080a3005b63058d9a1b60e01b5f5260045ffd5b346100cf5760603660031901126100cf576002546001600160a01b03163314158061044c575b61013f576020610444604435602435600435610478565b604051908152f35b505f546001600160a01b031633141561042d565b81810392915f13801582851316918412161761032157565b929190835f52600460205260405f20544203428111610321576170801161058357835f52600460205260405f208054916170808301809311610321576104c092849255610460565b90670de0b6b3a7640000820291808305670de0b6b3a7640000149015171561032157801561056f57600160ff1b82145f1982141661032157610502910561058a565b91805f52600360205260405f20805490848201915f86841291129080158216911516176103215755805f5260036020527f5bc77c157525d548a8a52d79d0ab879a816749d39b746f1bf2489ad250335eee606060405f2054604051908682526020820152426040820152a2565b634e487b7160e01b5f52601260045260245ffd5b505f925050565b6601c6bf52633fff1981126105b6576601c6bf5263400081136105aa5790565b506601c6bf5263400090565b506601c6bf52633fff199056fea26469706673582212207b3380f7e8829b986eb79d23ed190048c8229297eb4e884d2107de5610d9386464736f6c63430008210033000000000000000000000000f39fd6e51aad88f6f4ce6ab8827279cfffb92266",
        "nonce": "0x2cb",
        "chainId": "0xa455"
      },
      "additionalContracts": [],
      "isFixedGasLimit": false
    },
    {
      "hash": "0xd18e2921c6e3c48c69574f913e6cd479c31c1e2e148b5bda8f3614c1aa20c83d",
      "transactionType": "CREATE",
      "contractName": "MarginVault",
      "contractAddress": "0xe5b6f5e695ba6e4aed92b68c4cc8df1160d69a81",
      "function": null,
      "arguments": [
        "0x36C02dA8a0983159322a80FFE9F24b1acfF8B570",
        "0xf39Fd6e51aad88F6F4ce6aB8827279cffFb92266"
      ],
      "transaction": {
        "from": "0xf39fd6e51aad88f6f4ce6ab8827279cfffb92266",
        "gas": "0xb9bc5",
        "value": "0x0",
        "input": "0x60a0346100c757601f610a1d38819003918201601f19168301916001600160401b038311848410176100cb5780849260409485528339810103126100c757610052602061004b836100df565b92016100df565b6001600160a01b039091169081156100b8576001600160a01b03169081156100b857608052600180546001600160a01b03191691909117905560405161092990816100f48239608051818181610172015281816102ba015281816103e201526106de0152f35b63d92e233d60e01b5f5260045ffd5b5f80fd5b634e487b7160e01b5f52604160045260245ffd5b51906001600160a01b03821682036100c75756fe60806040526004361015610011575f80fd5b5f3560e01c80630e18b681146107e357806326782247146107bb57806327e235e3146107835780632e1a7d4d1461065a57806348ba4d2b14610633578063636be27a1461057d57806375829def14610507578063b619daf7146104a4578063b6b55f251461039f578063beabacc8146102e9578063d8dfeb45146102a5578063ef6506db14610219578063f40818b614610107578063f851a440146100df5763ff50abdc146100be575f80fd5b346100db575f3660031901126100db576020600454604051908152f35b5f80fd5b346100db575f3660031901126100db576001546040516001600160a01b039091168152602090f35b346100db5760403660031901126100db57610120610861565b5f546001600160a01b0316330361020a576001600160a01b038116156101fb5760405163a9059cbb60e01b81526001600160a01b0390911660048201526024803590820152602081806044810103815f7f00000000000000000000000000000000000000000000000000000000000000006001600160a01b03165af19081156101f0575f916101c1575b50156101b257005b6312171d8360e31b5f5260045ffd5b6101e3915060203d6020116101e9575b6101db8183610898565b8101906108ce565b816101aa565b503d6101d1565b6040513d5f823e3d90fd5b63d92e233d60e01b5f5260045ffd5b63027da19960e41b5f5260045ffd5b346100db5760403660031901126100db57610232610861565b5f5460243591906001600160a01b0316330361020a5760207f9f7132b931bb99c5679b120dd9dc04eab8b1e91f4be7f2c40da4c0876823f4dc9160018060a01b031692835f526003825260405f2061028b8282546108e6565b9055610299816004546108e6565b600455604051908152a2005b346100db575f3660031901126100db576040517f00000000000000000000000000000000000000000000000000000000000000006001600160a01b03168152602090f35b346100db5760603660031901126100db57610302610861565b6024356001600160a01b038116908190036100db575f5460443592906001600160a01b0316330361020a576001600160a01b03165f81815260036020526040902054831161037c575f52600360205260405f20610360838254610877565b90555f52600360205261037860405f209182546108e6565b9055005b90505f52600360205260405f205463cf47918160e01b5f5260045260245260445ffd5b346100db5760203660031901126100db576004358015610495576040516323b872dd60e01b8152336004820152306024820152604481018290526020816064815f7f00000000000000000000000000000000000000000000000000000000000000006001600160a01b03165af19081156101f0575f91610476575b50156101b257335f52600360205260405f206104378282546108e6565b9055610445816004546108e6565b6004556040519081527f2da466a7b24304f47e87fa2e1e5a81b9831ce54fec19055ce277ca2f39ba42c460203392a2005b61048f915060203d6020116101e9576101db8183610898565b8261041a565b631f2a200560e01b5f5260045ffd5b346100db5760203660031901126100db576104bd610861565b6001546001600160a01b031633036104f8576001600160a01b031680156101fb576bffffffffffffffffffffffff60a01b5f5416175f555f80f35b637bfa4b9f60e01b5f5260045ffd5b346100db5760203660031901126100db57610520610861565b6001546001600160a01b031690338290036104f8576001600160a01b03169081156101fb57600280546001600160a01b031916831790557fb4d7bcb4d9a5d6ef6e827e3b1554e5a2578ad9ca843903d42b05d08bfa3458945f80a3005b346100db5760403660031901126100db57610596610861565b5f5460243591906001600160a01b0316330361020a5760018060a01b031690815f5260036020528060405f2054106106105760207fc1bcf241560b7da56189cf02ba2c78298ad5afb7dd45b8a47e3c6930b389a23091835f526003825260405f20610602828254610877565b905561029981600454610877565b5f9182526003602052604082205463cf47918160e01b8352600452602452604490fd5b346100db575f3660031901126100db575f546040516001600160a01b039091168152602090f35b346100db5760203660031901126100db57600435801561049557335f5260036020528060405f20541061076157335f52600360205260405f2061069e828254610877565b90556106ac81600454610877565b600490815560405163a9059cbb60e01b81523391810191909152602481018290526020816044815f6001600160a01b037f0000000000000000000000000000000000000000000000000000000000000000165af19081156101f0575f91610742575b50156101b2576040519081527f7084f5476618d8e60b11ef0d7d3f06914655adb8793e28ff7f018d4c76d505d560203392a2005b61075b915060203d6020116101e9576101db8183610898565b8261070e565b335f52600360205260405f205463cf47918160e01b5f5260045260245260445ffd5b346100db5760203660031901126100db576001600160a01b036107a4610861565b165f526003602052602060405f2054604051908152f35b346100db575f3660031901126100db576002546040516001600160a01b039091168152602090f35b346100db575f3660031901126100db576002546001600160a01b038116903382900361085257600180546001600160a01b0319808216851790925591166002556001600160a01b03167ff8ccb027dfcd135e000e9d45e6cc2d662578a8825d4c45b5e32e0adf67e79ec65f80a3005b63058d9a1b60e01b5f5260045ffd5b600435906001600160a01b03821682036100db57565b9190820391821161088457565b634e487b7160e01b5f52601160045260245ffd5b90601f8019910116810190811067ffffffffffffffff8211176108ba57604052565b634e487b7160e01b5f52604160045260245ffd5b908160209103126100db575180151581036100db5790565b919082018092116108845756fea2646970667358221220108b37b7ed6c761ff629ab09a4bcf5cc09efed094df43c736d48a2aa1627217464736f6c6343000821003300000000000000000000000036c02da8a0983159322a80ffe9f24b1acff8b570000000000000000000000000f39fd6e51aad88f6f4ce6ab8827279cfffb92266",
        "nonce": "0x2cc",
        "chainId": "0xa455"
      },
      "additionalContracts": [],
      "isFixedGasLimit": false
    },
    {
      "hash": "0xfb22134fbbf1bd34249bad6d7d0cb5f1ae856b72c9fa5b43014856ae34887c13",
      "transactionType": "CREATE",
      "contractName": "PerpEngine",
      "contractAddress": "0x9be634797af98cb560db23260b5f7c6e98accacf",
      "function": null,
      "arguments": [
        "0xE5b6F5e695BA6E4aeD92B68c4CC8Df1160D69A81",
        "0x2ce1F0e20C1f69E9d9AEA83b25F0cEB69e2AA2b5",
        "0x81f4f47aa3bBd154171C877b4d70F6C9EeCAb216",
        "0x3abBB0D6ad848d64c8956edC9Bf6f18aC22E1485",
        "0xf39Fd6e51aad88F6F4ce6aB8827279cffFb92266"
      ],
      "transaction": {
        "from": "0xf39fd6e51aad88f6f4ce6ab8827279cfffb92266",
        "gas": "0x221800",
        "value": "0x0",
        "input": "0x610100346101a357601f611f7638819003918201601f19168301916001600160401b038311848410176101a75780849260a0946040528339810103126101a357610048816101bb565b90610055602082016101bb565b91610062604083016101bb565b61007a6080610073606086016101bb565b94016101bb565b6001600160a01b03909216938415610194576001600160a01b0316908115610194576001600160a01b0316918215610194576001600160a01b03841615610194576001600160a01b03169384156101945760805260a05260c05260e0525f80546001600160a01b031916919091179055604051611da690816101d0823960805181818161012c015281816104ac01528181610b8401528181611b290152611c95015260a0518181816101d6015281816103b7015281816107d301528181610c820152818161133d01528181611696015281816118550152611a32015260c0518181816102eb015281816107070152818161094101528181610bee0152818161160a01526117c6015260e051818181610a430152610e6f0152f35b63d92e233d60e01b5f5260045ffd5b5f80fd5b634e487b7160e01b5f52604160045260245ffd5b51906001600160a01b03821682036101a35756fe60806040526004361015610011575f80fd5b5f5f3560e01c80630e18b6811461146957806316c38b3c1461141b5780632292477314611265578063249d39e914611248578063267822471461121f5780633dc8f14414610ab45780635838bff714610a985780635c975abb14610a725780636052970c14610a2d57806371a5c55414610a0557806375829def146109705780637dc0d1d01461092b57806383c666dc146108fb5780639185f598146108df578063a126d601146106c4578063b1283e7714610653578063bcbaf48714610293578063c1be667714610205578063cb4c86b7146101c0578063ec979082146101a2578063ecd1dae614610185578063f851a4401461015e5763fbfa77cf14610117575f80fd5b3461015b578060031936011261015b576040517f00000000000000000000000000000000000000000000000000000000000000006001600160a01b03168152602090f35b80fd5b503461015b578060031936011261015b57546040516001600160a01b039091168152602090f35b503461015b578060031936011261015b5760206040516101f48152f35b503461015b578060031936011261015b576020600254604051908152f35b503461015b578060031936011261015b576040517f00000000000000000000000000000000000000000000000000000000000000006001600160a01b03168152602090f35b503461015b57604036600319011261015b5760e0906040906001600160a01b0361022d6114e9565b16815260036020528181206024358252602052208054906001810154906002810154600382015490600560048401549301549360ff604051968181161515885260081c161515602087015260408601526060850152608084015260a083015260c0820152f35b503461015b57604036600319011261015b576102ad6114e9565b6024359060ff60015460a01c166106445760018060a01b03811690818452600360205260408420838552602052604084209060ff82541615610635577f00000000000000000000000000000000000000000000000000000000000000006001600160a01b03169161031d856114ff565b5054926040519363832321bf60e01b85526004850152602084602481845afa9384156105c3578794610601575b5060206001610358886114ff565b50015460246040518094819363832321bf60e01b835260048301525afa9081156105c35787916105ce575b506040516248537360e31b8152600481018790526024810185905260448101919091526020816064818a6001600160a01b037f0000000000000000000000000000000000000000000000000000000000000000165af180156105c357610590575b506103f08386846119bb565b916104086103fe84846115a0565b600383015461175a565b90888213908115610589576127108302908382046127101484151715610575576001015461043591611551565b60c881101561055e57508589915f1461054e5750506101f48102908082046101f4149015171561053a57879392610473928861271088940495611ab6565b806104aa575b50506040519081527fa457abeae7105eb8bccbb20968069d940e939bc0c8d8b9c2c13aaed4755e68c360203392a480f35b7f00000000000000000000000000000000000000000000000000000000000000006001600160a01b031690813b156105365782916064839260405194859384926317d5759960e31b84528a600485015233602485015260448401525af1801561052b5715610479578161051c9161152f565b61052757835f610479565b8380fd5b6040513d84823e3d90fd5b8280fd5b634e487b7160e01b88526011600452602488fd5b9150939261047392888695611ab6565b6301f7d11160e21b8a5260045260c8602452604489fd5b634e487b7160e01b8b52601160045260248bfd5b5088610435565b6020813d6020116105bb575b816105a96020938361152f565b810103126105b757516103e4565b5f80fd5b3d915061059c565b6040513d89823e3d90fd5b90506020813d6020116105f9575b816105e96020938361152f565b810103126105b757516020610383565b3d91506105dc565b9093506020813d60201161062d575b8161061d6020938361152f565b810103126105b75751925f61034a565b3d9150610610565b63556729af60e01b8552600485fd5b6313d0ff5960e31b8352600483fd5b503461015b57602036600319011261015b576004359060025482101561015b5760c061067e836114ff565b50805490600181015490600281015460ff6003830154169060056004840154930154936040519586526020860152604085015215156060840152608083015260a0820152f35b503461015b57602036600319011261015b5760043560ff60015460a01c166108d05733825260036020526040822081835260205260ff604083205416156108c1577f00000000000000000000000000000000000000000000000000000000000000006001600160a01b031690610739816114ff565b5054906040519163832321bf60e01b83526004830152602082602481865afa91821561084d57849261088d575b5060206001610774836114ff565b50015460246040518096819363832321bf60e01b835260048301525afa92831561084d578493610858575b506040516248537360e31b815260048101829052602481018390526044810193909352602083606481876001600160a01b037f0000000000000000000000000000000000000000000000000000000000000000165af1801561084d5761081a575b61081792506108108282336119bb565b9133611ab6565b80f35b6020833d602011610845575b816108336020938361152f565b810103126105b7576108179250610800565b3d9150610826565b6040513d86823e3d90fd5b92506020833d602011610885575b816108736020938361152f565b810103126105b757915191602061079f565b3d9150610866565b9091506020813d6020116108b9575b816108a96020938361152f565b810103126105b75751905f610766565b3d915061089c565b63556729af60e01b8252600482fd5b6313d0ff5960e31b8252600482fd5b503461015b578060031936011261015b576020604051600a8152f35b503461015b57604036600319011261015b57602061092361091a6114e9565b60243590611775565b604051908152f35b503461015b578060031936011261015b576040517f00000000000000000000000000000000000000000000000000000000000000006001600160a01b03168152602090f35b503461015b57602036600319011261015b5761098a6114e9565b81546001600160a01b031690338290036109f6576001600160a01b03169081156109e757600180546001600160a01b031916831790557fb4d7bcb4d9a5d6ef6e827e3b1554e5a2578ad9ca843903d42b05d08bfa3458948380a380f35b63d92e233d60e01b8352600483fd5b637bfa4b9f60e01b8352600483fd5b503461015b57604036600319011261015b576020610923610a246114e9565b602435906115b8565b503461015b578060031936011261015b576040517f00000000000000000000000000000000000000000000000000000000000000006001600160a01b03168152602090f35b503461015b578060031936011261015b57602060ff60015460a01c166040519015158152f35b503461015b578060031936011261015b57602060405160c88152f35b503461015b57608036600319011261015b5760443590602435821515600435818503610527576064359060ff60015460a01c1661121057831592838015611208575b6111f957610b03826114ff565b509360ff600386015416156111ea57338752600360205260408720838852602052604087209060ff8254166111db5760028601548086028681048214871517156111c75788116111a75750600a870290878204600a14171561053a57612710900495610b6f878661156f565b6040516327e235e360e01b81523360048201527f00000000000000000000000000000000000000000000000000000000000000006001600160a01b03169791906020816024818c5afa90811561119c579082918c91611167575b50106110f25750805460405163832321bf60e01b8152600481019190915298998a99937f00000000000000000000000000000000000000000000000000000000000000006001600160a01b0316602086602481845afa958615611037578c966110bb575b506020600185015460246040518094819363832321bf60e01b835260048301525afa908115611037578c91611082575b506040516248537360e31b8152600481018990526024810187905260448101919091527f00000000000000000000000000000000000000000000000000000000000000006001600160a01b0316906020818e8180606481015b0391865af1801561107757611042575b5060206024916001845461ff008b60081b169061ffff1916171784558660018501558760028501558a6003850155604051928380926313778db960e11b82528c60048301525afa908115611037578c91611000575b50600482015560050186905515610feb57600401610d3a82825461156f565b90555b604051928352602083015283604083015260608201527f5cf8fa4a8e333990018876ad3a82065e68b3859d46c3198b692b77fc3043808b60803392a3813b15610f4e576040516331b5f13d60e11b81523360048201526024810191909152838160448183865af190811561084d578491610fd6575b505081610dbd575050f35b803b15610f95576040516331b5f13d60e11b815233600482015260248101839052838160448183865af190811561084d578491610fc1575b5050803b15610f9557604051637a040c5b60e11b815230600482015260248101839052838160448183865af190811561084d578491610fac575b505060206004916040519283809263d8dfeb4560e01b82525afa908115610fa1578391610f5b575b5060405163095ea7b360e01b81526001600160a01b037f000000000000000000000000000000000000000000000000000000000000000081811660048401526024830185905292602091839160449183918991165af1801561084d57610f1b575b50604460609260405194859384926364d6def960e01b8452600484015230602484015260018060a01b03165af1801561052b57610ef3575080f35b606090813d8311610f14575b610f09818361152f565b8101031261015b5780f35b503d610eff565b6020813d602011610f53575b81610f346020938361152f565b81010312610f4e57518015158103610f4e57506044610eb8565b505050fd5b3d9150610f27565b90506020813d602011610f99575b81610f766020938361152f565b81010312610f9557516001600160a01b0381168103610f95575f610e57565b5050fd5b3d9150610f69565b6040513d85823e3d90fd5b81610fb69161152f565b610f9557825f610e2f565b81610fcb9161152f565b610f9557825f610df5565b81610fe09161152f565b610f9557825f610db2565b600501610ff982825461156f565b9055610d3d565b9b505060208b3d60201161102f575b8161101c6020938361152f565b810103126105b75799518b9a9087610d1b565b3d915061100f565b6040513d8e823e3d90fd5b9b5060208c3d60201161106f575b8161105d6020938361152f565b810103126105b7578c9b506020610cc6565b3d9150611050565b6040513d8f823e3d90fd5b9b505060208b3d6020116110b3575b8161109e6020938361152f565b810103126105b75799518b9a90610cb6610c5d565b3d9150611091565b9b50945060208b3d6020116110ea575b816110d86020938361152f565b810103126105b7578b9a51945f610c2d565b3d91506110cb565b6040516327e235e360e01b8152336004820152908a906020836024818d5afa801561052b578290611134575b633af8647b60e01b835260045260245260449150fd5b506020833d60201161115f575b8161114e6020938361152f565b810103126105b7576044925161111e565b3d9150611141565b9150506020813d602011611194575b816111836020938361152f565b810103126105b7578190515f610bc9565b3d9150611176565b6040513d8d823e3d90fd5b886044916111b5888b611551565b633b7b1e4b60e01b8352600452602452fd5b634e487b7160e01b8a52601160045260248afd5b631f19c11d60e01b8852600488fd5b635a90bb8d60e11b8752600487fd5b631f2a200560e01b8652600486fd5b508215610af6565b6313d0ff5960e31b8552600485fd5b503461015b578060031936011261015b576001546040516001600160a01b039091168152602090f35b503461015b578060031936011261015b5760206040516127108152f35b346105b75760603660031901126105b7575f5460043590604435906001600160a01b0316330361140c576002549060405160c0810181811067ffffffffffffffff8211176113f8576040528381526020810190602435825260408101838152606082016001815260808301905f825260a08401925f8452680100000000000000008810156113f857600188016002556112fd886114ff565b9690966113e557600595518755516001870155516002860155600385019051151560ff801983541691161790555160048401555191015560018060a01b037f000000000000000000000000000000000000000000000000000000000000000016803b156105b7575f809160246040518094819363f11db84560e01b83528860048401525af180156113da5760209484937ff7154dd385fd97f5acd402bbddfc43353a65d67ed869dc6e507a9f99d6a2040d936040936113ca575b50825191825286820152a2604051908152f35b5f6113d49161152f565b5f6113b7565b6040513d5f823e3d90fd5b634e487b7160e01b5f525f60045260245ffd5b634e487b7160e01b5f52604160045260245ffd5b637bfa4b9f60e01b5f5260045ffd5b346105b75760203660031901126105b7576004358015158091036105b7575f546001600160a01b0316330361140c576001805460ff60a01b191660a09290921b60ff60a01b16919091179055005b346105b7575f3660031901126105b7576001546001600160a01b03811690338290036114da575f80546001600160a01b0319808216851783559092166001556001600160a01b03909116907ff8ccb027dfcd135e000e9d45e6cc2d662578a8825d4c45b5e32e0adf67e79ec69080a3005b63058d9a1b60e01b5f5260045ffd5b600435906001600160a01b03821682036105b757565b60025481101561151b5760025f52600660205f20910201905f90565b634e487b7160e01b5f52603260045260245ffd5b90601f8019910116810190811067ffffffffffffffff8211176113f857604052565b811561155b570490565b634e487b7160e01b5f52601260045260245ffd5b9190820180921161157c57565b634e487b7160e01b5f52601160045260245ffd5b600160ff1b811461157c575f0390565b81810392915f13801582851316918412161761157c57565b60018060a01b03165f52600360205260405f20815f5260205260405f2080549060ff821615611753576115ea836114ff565b505460405163832321bf60e01b81526004810191909152906020826024817f00000000000000000000000000000000000000000000000000000000000000006001600160a01b03165afa9182156113da575f9261171e575b5060ff61165160209383611954565b9360081c16156117095760046001820154915b01546040516345eab49560e01b8152600481019290925260248201526044810193909352826064816001600160a01b037f0000000000000000000000000000000000000000000000000000000000000000165afa9081156113da575f916116d3575b6116d092506115a0565b90565b90506020823d602011611701575b816116ee6020938361152f565b810103126105b7576116d09151906116c6565b3d91506116e1565b60046117186001830154611590565b91611664565b91506020823d60201161174b575b816117396020938361152f565b810103126105b75790519060ff611642565b3d915061172c565b5050505f90565b9190915f838201938412911290801582169115161761157c57565b60018060a01b03165f52600360205260405f20815f5260205260405f2090815460ff81161561194c576117a7826114ff565b505460405163832321bf60e01b815260048101919091526020816024817f00000000000000000000000000000000000000000000000000000000000000006001600160a01b03165afa9081156113da575f91611918575b5061180b60ff9185611954565b9160081c161561190457602060018401545b6004858101546040516345eab49560e01b81529182019290925260248101919091526044810193909352826064816001600160a01b037f0000000000000000000000000000000000000000000000000000000000000000165afa9182156113da575f926118ce575b509061189861189d92600385015461175a565b6115a0565b5f8113156118c857612710810290808204612710149015171561157c5760016116d092015490611551565b50505f90565b91506020823d6020116118fc575b816118e96020938361152f565b810103126105b757905190611898611885565b3d91506118dc565b60206119136001850154611590565b61181d565b90506020813d602011611944575b816119336020938361152f565b810103126105b7575161180b6117fe565b3d9150611926565b5050505f1990565b90611964600283015480926115a0565b600183015480820292915f8212600160ff1b82141661157c57818405149015171561157c57801561155b57600160ff1b82145f1982141661157c5760ff9105915460081c165f146119b25790565b6116d090611590565b6001600160a01b03165f908152600360209081526040808320848452825290912093926119e89085611954565b9360ff815460081c165f14611a945760046001820154915b01546040516345eab49560e01b8152600481019290925260248201526044810192909252816064816001600160a01b037f0000000000000000000000000000000000000000000000000000000000000000165afa9081156113da575f91611a65575090565b90506020813d602011611a8c575b81611a806020938361152f565b810103126105b7575190565b3d9150611a73565b6004611aa36001830154611590565b91611a00565b9190820391821161157c57565b93929190925f9460018060a01b03811693845f52600360205260405f20865f52602052611b1560405f2091611aea886114ff565b50835460081c60ff1615611d5557611b0c600460018601549201918254611aa9565b90555b856115a0565b86865f8312611c42575050600391909101547f00000000000000000000000000000000000000000000000000000000000000006001600160a01b031691611b5b9161156f565b91813b15611c3e5760405163ef6506db60e01b81526001600160a01b03919091166004820152602481019290925286908290604490829084905af18015611c335791868694928694611c11575b50507f16783b3f0676d6e63220b161cedd5415bd909d2f96353db363fbd217a00971b4916040915b82519182526020820152a382526003602052604082209082526020526005604082208281558260018201558260028201558260038201558260048201550155565b81939550611c2092945061152f565b611c2f5783918391865f611ba8565b8480fd5b6040513d88823e3d90fd5b8780fd5b949291611c5460039197959297611590565b92015491828110611c8d575b5050507f16783b3f0676d6e63220b161cedd5415bd909d2f96353db363fbd217a00971b491604091611bd0565b9395509193507f00000000000000000000000000000000000000000000000000000000000000006001600160a01b031692611cc791611aa9565b823b156105b75760405163ef6506db60e01b81526001600160a01b039290921660048301526024820152905f908290604490829084905af180156113da57611d16575b91839183808795611c60565b8391955060408593611d495f7f16783b3f0676d6e63220b161cedd5415bd909d2f96353db363fbd217a00971b49461152f565b5f979350935050611d0a565b611d69600560018601549201918254611aa9565b9055611b0f56fea2646970667358221220ba298b9044c727d47fab173453f7e8da9b89ee4d33c4d2435e832d485a7bafb564736f6c63430008210033000000000000000000000000e5b6f5e695ba6e4aed92b68c4cc8df1160d69a810000000000000000000000002ce1f0e20c1f69e9d9aea83b25f0ceb69e2aa2b500000000000000000000000081f4f47aa3bbd154171c877b4d70f6c9eecab2160000000000000000000000003abbb0d6ad848d64c8956edc9bf6f18ac22e1485000000000000000000000000f39fd6e51aad88f6f4ce6ab8827279cfffb92266",
        "nonce": "0x2cd",
        "chainId": "0xa455"
      },
      "additionalContracts": [],
      "isFixedGasLimit": false
    },
    {
      "hash": "0xb6243148982541f1aa533b5ea2e30c6e205fc3c899181b6e9a32e97d1579a70d",
      "transactionType": "CALL",
      "contractName": "FundingRate",
      "contractAddress": "0x2ce1f0e20c1f69e9d9aea83b25f0ceb69e2aa2b5",
      "function": "setPerpEngine(address)",
      "arguments": [
        "0x9bE634797af98cB560DB23260b5f7C6e98AcCAcf"
      ],
      "transaction": {
        "from": "0xf39fd6e51aad88f6f4ce6ab8827279cfffb92266",
        "to": "0x2ce1f0e20c1f69e9d9aea83b25f0ceb69e2aa2b5",
        "gas": "0x10729",
        "value": "0x0",
        "input": "0xb619daf70000000000000000000000009be634797af98cb560db23260b5f7c6e98accacf",
        "nonce": "0x2ce",
        "chainId": "0xa455"
      },
      "additionalContracts": [],
      "isFixedGasLimit": false
    },
    {
      "hash": "0x6f881556efdff9a28c377909254413e0297dabdad3a0764904ba6b82e29e946b",
      "transactionType": "CALL",
      "contractName": "MarginVault",
      "contractAddress": "0xe5b6f5e695ba6e4aed92b68c4cc8df1160d69a81",
      "function": "setPerpEngine(address)",
      "arguments": [
        "0x9bE634797af98cB560DB23260b5f7C6e98AcCAcf"
      ],
      "transaction": {
        "from": "0xf39fd6e51aad88f6f4ce6ab8827279cfffb92266",
        "to": "0xe5b6f5e695ba6e4aed92b68c4cc8df1160d69a81",
        "gas": "0x10741",
        "value": "0x0",
        "input": "0xb619daf70000000000000000000000009be634797af98cb560db23260b5f7c6e98accacf",
        "nonce": "0x2cf",
        "chainId": "0xa455"
      },
      "additionalContracts": [],
      "isFixedGasLimit": false
    },
    {
      "hash": "0xe39eefd9081c54fb7330b2963d2f6e10c9e69987e3218916b527a1b11a461c58",
      "transactionType": "CALL",
      "contractName": "PerpPriceOracle",
      "contractAddress": "0x81f4f47aa3bbd154171c877b4d70f6c9eecab216",
      "function": "registerMarket(bytes32)",
      "arguments": [
        "0xe98e2830be1a7e4156d656a7505e65d08c67660dc618072422e9c78053c261e9"
      ],
      "transaction": {
        "from": "0xf39fd6e51aad88f6f4ce6ab8827279cfffb92266",
        "to": "0x81f4f47aa3bbd154171c877b4d70f6c9eecab216",
        "gas": "0x10d9b",
        "value": "0x0",
        "input": "0x0df1d5ede98e2830be1a7e4156d656a7505e65d08c67660dc618072422e9c78053c261e9",
        "nonce": "0x2d0",
        "chainId": "0xa455"
      },
      "additionalContracts": [],
      "isFixedGasLimit": false
    },
    {
      "hash": "0x8ae1781674b8eaa3f2e8a0e249a478ba708a3decc0048d4c6392f1745068ee57",
      "transactionType": "CALL",
      "contractName": "PerpPriceOracle",
      "contractAddress": "0x81f4f47aa3bbd154171c877b4d70f6c9eecab216",
      "function": "setManualPrice(bytes32,uint256,uint256)",
      "arguments": [
        "0xe98e2830be1a7e4156d656a7505e65d08c67660dc618072422e9c78053c261e9",
        "6500000000000",
        "6498000000000"
      ],
      "transaction": {
        "from": "0xf39fd6e51aad88f6f4ce6ab8827279cfffb92266",
        "to": "0x81f4f47aa3bbd154171c877b4d70f6c9eecab216",
        "gas": "0x29fb4",
        "value": "0x0",
        "input": "0xf229fecee98e2830be1a7e4156d656a7505e65d08c67660dc618072422e9c78053c261e9000000000000000000000000000000000000000000000000000005e96630e800000000000000000000000000000000000000000000000000000005e8eefb5400",
        "nonce": "0x2d1",
        "chainId": "0xa455"
      },
      "additionalContracts": [],
      "isFixedGasLimit": false
    },
    {
      "hash": "0x985708622232eab86df6c34984faa46a2b1f48ab10ff1b5d66c908d9bf27b118",
      "transactionType": "CALL",
      "contractName": "PerpEngine",
      "contractAddress": "0x9be634797af98cb560db23260b5f7c6e98accacf",
      "function": "createMarket(bytes32,bytes32,uint256)",
      "arguments": [
        "0xe98e2830be1a7e4156d656a7505e65d08c67660dc618072422e9c78053c261e9",
        "0xe98e2830be1a7e4156d656a7505e65d08c67660dc618072422e9c78053c261e9",
        "50"
      ],
      "transaction": {
        "from": "0xf39fd6e51aad88f6f4ce6ab8827279cfffb92266",
        "to": "0x9be634797af98cb560db23260b5f7c6e98accacf",
        "gas": "0x3d47c",
        "value": "0x0",
        "input": "0x22924773e98e2830be1a7e4156d656a7505e65d08c67660dc618072422e9c78053c261e9e98e2830be1a7e4156d656a7505e65d08c67660dc618072422e9c78053c261e90000000000000000000000000000000000000000000000000000000000000032",
        "nonce": "0x2d2",
        "chainId": "0xa455"
      },
      "additionalContracts": [],
      "isFixedGasLimit": false
    },
    {
      "hash": "0xea36dae42b5505c3d073ea899b160ad08b30873c7f50b286491cbd5217480a52",
      "transactionType": "CALL",
      "contractName": "PerpPriceOracle",
      "contractAddress": "0x81f4f47aa3bbd154171c877b4d70f6c9eecab216",
      "function": "registerMarket(bytes32)",
      "arguments": [
        "0xaaaebeba3810b1e6b70781f14b2d72c1cb89c0b2b320c43bb67ff79f562f5ff4"
      ],
      "transaction": {
        "from": "0xf39fd6e51aad88f6f4ce6ab8827279cfffb92266",
        "to": "0x81f4f47aa3bbd154171c877b4d70f6c9eecab216",
        "gas": "0x10d9b",
        "value": "0x0",
        "input": "0x0df1d5edaaaebeba3810b1e6b70781f14b2d72c1cb89c0b2b320c43bb67ff79f562f5ff4",
        "nonce": "0x2d3",
        "chainId": "0xa455"
      },
      "additionalContracts": [],
      "isFixedGasLimit": false
    },
    {
      "hash": "0x60edbfe3cd149dbbde489caf217cb2d1a0852cdc46b486845935c8db94d4ac61",
      "transactionType": "CALL",
      "contractName": "PerpPriceOracle",
      "contractAddress": "0x81f4f47aa3bbd154171c877b4d70f6c9eecab216",
      "function": "setManualPrice(bytes32,uint256,uint256)",
      "arguments": [
        "0xaaaebeba3810b1e6b70781f14b2d72c1cb89c0b2b320c43bb67ff79f562f5ff4",
        "320000000000",
        "319800000000"
      ],
      "transaction": {
        "from": "0xf39fd6e51aad88f6f4ce6ab8827279cfffb92266",
        "to": "0x81f4f47aa3bbd154171c877b4d70f6c9eecab216",
        "gas": "0x29f91",
        "value": "0x0",
        "input": "0xf229feceaaaebeba3810b1e6b70781f14b2d72c1cb89c0b2b320c43bb67ff79f562f5ff40000000000000000000000000000000000000000000000000000004a817c80000000000000000000000000000000000000000000000000000000004a7590be00",
        "nonce": "0x2d4",
        "chainId": "0xa455"
      },
      "additionalContracts": [],
      "isFixedGasLimit": false
    },
    {
      "hash": "0xb651bc8538fb04a89cf784e1b00790c173c5002030f50261ee88352dd49714c4",
      "transactionType": "CALL",
      "contractName": "PerpEngine",
      "contractAddress": "0x9be634797af98cb560db23260b5f7c6e98accacf",
      "function": "createMarket(bytes32,bytes32,uint256)",
      "arguments": [
        "0xaaaebeba3810b1e6b70781f14b2d72c1cb89c0b2b320c43bb67ff79f562f5ff4",
        "0xaaaebeba3810b1e6b70781f14b2d72c1cb89c0b2b320c43bb67ff79f562f5ff4",
        "50"
      ],
      "transaction": {
        "from": "0xf39fd6e51aad88f6f4ce6ab8827279cfffb92266",
        "to": "0x9be634797af98cb560db23260b5f7c6e98accacf",
        "gas": "0x341bf",
        "value": "0x0",
        "input": "0x22924773aaaebeba3810b1e6b70781f14b2d72c1cb89c0b2b320c43bb67ff79f562f5ff4aaaebeba3810b1e6b70781f14b2d72c1cb89c0b2b320c43bb67ff79f562f5ff40000000000000000000000000000000000000000000000000000000000000032",
        "nonce": "0x2d5",
        "chainId": "0xa455"
      },
      "additionalContracts": [],
      "isFixedGasLimit": false
    },
    {
      "hash": "0x2b05375c7e7c6e3fde7f2b7680b32f33f56c410dc3b156ff524dc5724b6397ec",
      "transactionType": "CALL",
      "contractName": "PerpPriceOracle",
      "contractAddress": "0x81f4f47aa3bbd154171c877b4d70f6c9eecab216",
      "function": "registerMarket(bytes32)",
      "arguments": [
        "0x0a3ec4fc70eaf64faf6eeda4e9b2bd4742a785464053aa23afad8bd24650e86f"
      ],
      "transaction": {
        "from": "0xf39fd6e51aad88f6f4ce6ab8827279cfffb92266",
        "to": "0x81f4f47aa3bbd154171c877b4d70f6c9eecab216",
        "gas": "0x10d9b",
        "value": "0x0",
        "input": "0x0df1d5ed0a3ec4fc70eaf64faf6eeda4e9b2bd4742a785464053aa23afad8bd24650e86f",
        "nonce": "0x2d6",
        "chainId": "0xa455"
      },
      "additionalContracts": [],
      "isFixedGasLimit": false
    },
    {
      "hash": "0x058df4be246ee333bff9799dc6285364cbb614b0856a794d0f8e17635eb4eb7a",
      "transactionType": "CALL",
      "contractName": "PerpPriceOracle",
      "contractAddress": "0x81f4f47aa3bbd154171c877b4d70f6c9eecab216",
      "function": "setManualPrice(bytes32,uint256,uint256)",
      "arguments": [
        "0x0a3ec4fc70eaf64faf6eeda4e9b2bd4742a785464053aa23afad8bd24650e86f",
        "18000000000",
        "17990000000"
      ],
      "transaction": {
        "from": "0xf39fd6e51aad88f6f4ce6ab8827279cfffb92266",
        "to": "0x81f4f47aa3bbd154171c877b4d70f6c9eecab216",
        "gas": "0x27a51",
        "value": "0x0",
        "input": "0xf229fece0a3ec4fc70eaf64faf6eeda4e9b2bd4742a785464053aa23afad8bd24650e86f0000000000000000000000000000000000000000000000000000000430e234000000000000000000000000000000000000000000000000000000000430499d80",
        "nonce": "0x2d7",
        "chainId": "0xa455"
      },
      "additionalContracts": [],
      "isFixedGasLimit": false
    },
    {
      "hash": "0xee62a3c1062c72456a32a391ccd76b790048b1efe2e819e3a4c28345bcdd4949",
      "transactionType": "CALL",
      "contractName": "PerpEngine",
      "contractAddress": "0x9be634797af98cb560db23260b5f7c6e98accacf",
      "function": "createMarket(bytes32,bytes32,uint256)",
      "arguments": [
        "0x0a3ec4fc70eaf64faf6eeda4e9b2bd4742a785464053aa23afad8bd24650e86f",
        "0x0a3ec4fc70eaf64faf6eeda4e9b2bd4742a785464053aa23afad8bd24650e86f",
        "25"
      ],
      "transaction": {
        "from": "0xf39fd6e51aad88f6f4ce6ab8827279cfffb92266",
        "to": "0x9be634797af98cb560db23260b5f7c6e98accacf",
        "gas": "0x341bf",
        "value": "0x0",
        "input": "0x229247730a3ec4fc70eaf64faf6eeda4e9b2bd4742a785464053aa23afad8bd24650e86f0a3ec4fc70eaf64faf6eeda4e9b2bd4742a785464053aa23afad8bd24650e86f0000000000000000000000000000000000000000000000000000000000000019",
        "nonce": "0x2d8",
        "chainId": "0xa455"
      },
      "additionalContracts": [],
      "isFixedGasLimit": false
    },
    {
      "hash": "0xe23893a736471190f23607403ef9cf8913be5fd828bc7100027d35cb36557b1c",
      "transactionType": "CALL",
      "contractName": "PerpPriceOracle",
      "contractAddress": "0x81f4f47aa3bbd154171c877b4d70f6c9eecab216",
      "function": "registerMarket(bytes32)",
      "arguments": [
        "0x3ed03c38e59dc60c7b69c2a4bf68f9214acd953252b5a90e8f5f59583e9bc3ae"
      ],
      "transaction": {
        "from": "0xf39fd6e51aad88f6f4ce6ab8827279cfffb92266",
        "to": "0x81f4f47aa3bbd154171c877b4d70f6c9eecab216",
        "gas": "0x10d9b",
        "value": "0x0",
        "input": "0x0df1d5ed3ed03c38e59dc60c7b69c2a4bf68f9214acd953252b5a90e8f5f59583e9bc3ae",
        "nonce": "0x2d9",
        "chainId": "0xa455"
      },
      "additionalContracts": [],
      "isFixedGasLimit": false
    },
    {
      "hash": "0xaa834bca9722736570fb0f4660b760584a3b380aa2623c88f28542ebc0283c54",
      "transactionType": "CALL",
      "contractName": "PerpPriceOracle",
      "contractAddress": "0x81f4f47aa3bbd154171c877b4d70f6c9eecab216",
      "function": "setManualPrice(bytes32,uint256,uint256)",
      "arguments": [
        "0x3ed03c38e59dc60c7b69c2a4bf68f9214acd953252b5a90e8f5f59583e9bc3ae",
        "60000000000",
        "59980000000"
      ],
      "transaction": {
        "from": "0xf39fd6e51aad88f6f4ce6ab8827279cfffb92266",
        "to": "0x81f4f47aa3bbd154171c877b4d70f6c9eecab216",
        "gas": "0x29f91",
        "value": "0x0",
        "input": "0xf229fece3ed03c38e59dc60c7b69c2a4bf68f9214acd953252b5a90e8f5f59583e9bc3ae0000000000000000000000000000000000000000000000000000000df84758000000000000000000000000000000000000000000000000000000000df7162b00",
        "nonce": "0x2da",
        "chainId": "0xa455"
      },
      "additionalContracts": [],
      "isFixedGasLimit": false
    },
    {
      "hash": "0xaafff1ae5b86dc7cf39838596e7f25879c0657ed1ba017c43b6170f165504b23",
      "transactionType": "CALL",
      "contractName": "PerpEngine",
      "contractAddress": "0x9be634797af98cb560db23260b5f7c6e98accacf",
      "function": "createMarket(bytes32,bytes32,uint256)",
      "arguments": [
        "0x3ed03c38e59dc60c7b69c2a4bf68f9214acd953252b5a90e8f5f59583e9bc3ae",
        "0x3ed03c38e59dc60c7b69c2a4bf68f9214acd953252b5a90e8f5f59583e9bc3ae",
        "25"
      ],
      "transaction": {
        "from": "0xf39fd6e51aad88f6f4ce6ab8827279cfffb92266",
        "to": "0x9be634797af98cb560db23260b5f7c6e98accacf",
        "gas": "0x341bf",
        "value": "0x0",
        "input": "0x229247733ed03c38e59dc60c7b69c2a4bf68f9214acd953252b5a90e8f5f59583e9bc3ae3ed03c38e59dc60c7b69c2a4bf68f9214acd953252b5a90e8f5f59583e9bc3ae0000000000000000000000000000000000000000000000000000000000000019",
        "nonce": "0x2db",
        "chainId": "0xa455"
      },
      "additionalContracts": [],
      "isFixedGasLimit": false
    },
    {
      "hash": "0xf161a9bd969b1c180af8fba2a0f9f5229d3a4044e976973a9f0572ca44172cff",
      "transactionType": "CALL",
      "contractName": "PerpPriceOracle",
      "contractAddress": "0x81f4f47aa3bbd154171c877b4d70f6c9eecab216",
      "function": "registerMarket(bytes32)",
      "arguments": [
        "0xa6a7de01e8b7ba6a4a61c782a73188d808fc1f3cf5743fadb68a02ed884b594f"
      ],
      "transaction": {
        "from": "0xf39fd6e51aad88f6f4ce6ab8827279cfffb92266",
        "to": "0x81f4f47aa3bbd154171c877b4d70f6c9eecab216",
        "gas": "0x10d9b",
        "value": "0x0",
        "input": "0x0df1d5eda6a7de01e8b7ba6a4a61c782a73188d808fc1f3cf5743fadb68a02ed884b594f",
        "nonce": "0x2dc",
        "chainId": "0xa455"
      },
      "additionalContracts": [],
      "isFixedGasLimit": false
    },
    {
      "hash": "0xae9c92fafa94f6bb95b1b5b2ea93a776ed96bfaff18047b9a791d288947e1f78",
      "transactionType": "CALL",
      "contractName": "PerpPriceOracle",
      "contractAddress": "0x81f4f47aa3bbd154171c877b4d70f6c9eecab216",
      "function": "setManualPrice(bytes32,uint256,uint256)",
      "arguments": [
        "0xa6a7de01e8b7ba6a4a61c782a73188d808fc1f3cf5743fadb68a02ed884b594f",
        "90000000",
        "89500000"
      ],
      "transaction": {
        "from": "0xf39fd6e51aad88f6f4ce6ab8827279cfffb92266",
        "to": "0x81f4f47aa3bbd154171c877b4d70f6c9eecab216",
        "gas": "0x29f91",
        "value": "0x0",
        "input": "0xf229fecea6a7de01e8b7ba6a4a61c782a73188d808fc1f3cf5743fadb68a02ed884b594f00000000000000000000000000000000000000000000000000000000055d4a80000000000000000000000000000000000000000000000000000000000555a960",
        "nonce": "0x2dd",
        "chainId": "0xa455"
      },
      "additionalContracts": [],
      "isFixedGasLimit": false
    },
    {
      "hash": "0x6a7db9127492d6c264adb960c2a52cd1a2e35c70157eaa90ec1d1a552cbecf09",
      "transactionType": "CALL",
      "contractName": "PerpEngine",
      "contractAddress": "0x9be634797af98cb560db23260b5f7c6e98accacf",
      "function": "createMarket(bytes32,bytes32,uint256)",
      "arguments": [
        "0xa6a7de01e8b7ba6a4a61c782a73188d808fc1f3cf5743fadb68a02ed884b594f",
        "0xa6a7de01e8b7ba6a4a61c782a73188d808fc1f3cf5743fadb68a02ed884b594f",
        "20"
      ],
      "transaction": {
        "from": "0xf39fd6e51aad88f6f4ce6ab8827279cfffb92266",
        "to": "0x9be634797af98cb560db23260b5f7c6e98accacf",
        "gas": "0x341bf",
        "value": "0x0",
        "input": "0x22924773a6a7de01e8b7ba6a4a61c782a73188d808fc1f3cf5743fadb68a02ed884b594fa6a7de01e8b7ba6a4a61c782a73188d808fc1f3cf5743fadb68a02ed884b594f0000000000000000000000000000000000000000000000000000000000000014",
        "nonce": "0x2de",
        "chainId": "0xa455"
      },
      "additionalContracts": [],
      "isFixedGasLimit": false
    },
    {
      "hash": "0x6b6f5d23fc9a2f537dc80adafe967884a451b18a8cff1600dcb5a6374016319a",
      "transactionType": "CALL",
      "contractName": "PerpPriceOracle",
      "contractAddress": "0x81f4f47aa3bbd154171c877b4d70f6c9eecab216",
      "function": "registerMarket(bytes32)",
      "arguments": [
        "0xc07524b7a4eecc2784fc7ac17ff2730f877f3cf7a2ceb4e2375fa40a103115d0"
      ],
      "transaction": {
        "from": "0xf39fd6e51aad88f6f4ce6ab8827279cfffb92266",
        "to": "0x81f4f47aa3bbd154171c877b4d70f6c9eecab216",
        "gas": "0x10d9b",
        "value": "0x0",
        "input": "0x0df1d5edc07524b7a4eecc2784fc7ac17ff2730f877f3cf7a2ceb4e2375fa40a103115d0",
        "nonce": "0x2df",
        "chainId": "0xa455"
      },
      "additionalContracts": [],
      "isFixedGasLimit": false
    },
    {
      "hash": "0x204ae18657b01e9a3509919a02ce8455948d6c9463ae080403fd6395de32038c",
      "transactionType": "CALL",
      "contractName": "PerpPriceOracle",
      "contractAddress": "0x81f4f47aa3bbd154171c877b4d70f6c9eecab216",
      "function": "setManualPrice(bytes32,uint256,uint256)",
      "arguments": [
        "0xc07524b7a4eecc2784fc7ac17ff2730f877f3cf7a2ceb4e2375fa40a103115d0",
        "120000000",
        "119800000"
      ],
      "transaction": {
        "from": "0xf39fd6e51aad88f6f4ce6ab8827279cfffb92266",
        "to": "0x81f4f47aa3bbd154171c877b4d70f6c9eecab216",
        "gas": "0x29f6e",
        "value": "0x0",
        "input": "0xf229fecec07524b7a4eecc2784fc7ac17ff2730f877f3cf7a2ceb4e2375fa40a103115d00000000000000000000000000000000000000000000000000000000007270e0000000000000000000000000000000000000000000000000000000000072400c0",
        "nonce": "0x2e0",
        "chainId": "0xa455"
      },
      "additionalContracts": [],
      "isFixedGasLimit": false
    },
    {
      "hash": "0x51163e43520392ca89f07a896351a5c56d88fafb741cb71837a2dbc64a6ae29d",
      "transactionType": "CALL",
      "contractName": "PerpEngine",
      "contractAddress": "0x9be634797af98cb560db23260b5f7c6e98accacf",
      "function": "createMarket(bytes32,bytes32,uint256)",
      "arguments": [
        "0xc07524b7a4eecc2784fc7ac17ff2730f877f3cf7a2ceb4e2375fa40a103115d0",
        "0xc07524b7a4eecc2784fc7ac17ff2730f877f3cf7a2ceb4e2375fa40a103115d0",
        "20"
      ],
      "transaction": {
        "from": "0xf39fd6e51aad88f6f4ce6ab8827279cfffb92266",
        "to": "0x9be634797af98cb560db23260b5f7c6e98accacf",
        "gas": "0x341bf",
        "value": "0x0",
        "input": "0x22924773c07524b7a4eecc2784fc7ac17ff2730f877f3cf7a2ceb4e2375fa40a103115d0c07524b7a4eecc2784fc7ac17ff2730f877f3cf7a2ceb4e2375fa40a103115d00000000000000000000000000000000000000000000000000000000000000014",
        "nonce": "0x2e1",
        "chainId": "0xa455"
      },
      "additionalContracts": [],
      "isFixedGasLimit": false
    }
  ],
  "receipts": [
    {
      "status": "0x1",
      "cumulativeGasUsed": "0xdc1ae",
      "logs": [],
      "logsBloom": "0x00000000000000000000000000000000000000000000000000000000000000000000000000000000000000000000000000000000000000000000000000000000000000000000000000000000000000000000000000000000000000000000000000000000000000000000000000000000000000000000000000000000000000000000000000000000000000000000000000000000000000000000000000000000000000000000000000000000000000000000000000000000000000000000000000000000000000000000000000000000000000000000000000000000000000000000000000000000000000000000000000000000000000000000000000000000",
      "type": "0x2",
      "transactionHash": "0xb5c642733d4bcd53ffd0f295f3abd1d1c4e787100fe3869fa90afb7b23d6f71c",
      "transactionIndex": "0x0",
      "blockHash": "0x3593206478133a2f103a641613914ef00c951152d235d4770cc6e240ce3e2b1a",
      "blockNumber": "0xdfe3",
      "gasUsed": "0xdc1ae",
      "effectiveGasPrice": "0x8",
      "blobGasPrice": "0x1",
      "from": "0xf39fd6e51aad88f6f4ce6ab8827279cfffb92266",
      "to": null,
      "contractAddress": "0x81f4f47aa3bbd154171c877b4d70f6c9eecab216",
      "blockTimestamp": 1775441903
    },
    {
      "status": "0x1",
      "cumulativeGasUsed": "0x13fcda",
      "logs": [],
      "logsBloom": "0x00000000000000000000000000000000000000000000000000000000000000000000000000000000000000000000000000000000000000000000000000000000000000000000000000000000000000000000000000000000000000000000000000000000000000000000000000000000000000000000000000000000000000000000000000000000000000000000000000000000000000000000000000000000000000000000000000000000000000000000000000000000000000000000000000000000000000000000000000000000000000000000000000000000000000000000000000000000000000000000000000000000000000000000000000000000",
      "type": "0x2",
      "transactionHash": "0xb2cf361db2c94b8747c92fd90d3613bfaf59c680c49bdd335dfc9890ba47dc6a",
      "transactionIndex": "0x1",
      "blockHash": "0x3593206478133a2f103a641613914ef00c951152d235d4770cc6e240ce3e2b1a",
      "blockNumber": "0xdfe3",
      "gasUsed": "0x63b2c",
      "effectiveGasPrice": "0x8",
      "blobGasPrice": "0x1",
      "from": "0xf39fd6e51aad88f6f4ce6ab8827279cfffb92266",
      "to": null,
      "contractAddress": "0x2ce1f0e20c1f69e9d9aea83b25f0ceb69e2aa2b5",
      "blockTimestamp": 1775441903
    },
    {
      "status": "0x1",
      "cumulativeGasUsed": "0x1cead4",
      "logs": [],
      "logsBloom": "0x00000000000000000000000000000000000000000000000000000000000000000000000000000000000000000000000000000000000000000000000000000000000000000000000000000000000000000000000000000000000000000000000000000000000000000000000000000000000000000000000000000000000000000000000000000000000000000000000000000000000000000000000000000000000000000000000000000000000000000000000000000000000000000000000000000000000000000000000000000000000000000000000000000000000000000000000000000000000000000000000000000000000000000000000000000000",
      "type": "0x2",
      "transactionHash": "0xd18e2921c6e3c48c69574f913e6cd479c31c1e2e148b5bda8f3614c1aa20c83d",
      "transactionIndex": "0x2",
      "blockHash": "0x3593206478133a2f103a641613914ef00c951152d235d4770cc6e240ce3e2b1a",
      "blockNumber": "0xdfe3",
      "gasUsed": "0x8edfa",
      "effectiveGasPrice": "0x8",
      "blobGasPrice": "0x1",
      "from": "0xf39fd6e51aad88f6f4ce6ab8827279cfffb92266",
      "to": null,
      "contractAddress": "0xe5b6f5e695ba6e4aed92b68c4cc8df1160d69a81",
      "blockTimestamp": 1775441903
    },
    {
      "status": "0x1",
      "cumulativeGasUsed": "0x3724ad",
      "logs": [],
      "logsBloom": "0x00000000000000000000000000000000000000000000000000000000000000000000000000000000000000000000000000000000000000000000000000000000000000000000000000000000000000000000000000000000000000000000000000000000000000000000000000000000000000000000000000000000000000000000000000000000000000000000000000000000000000000000000000000000000000000000000000000000000000000000000000000000000000000000000000000000000000000000000000000000000000000000000000000000000000000000000000000000000000000000000000000000000000000000000000000000",
      "type": "0x2",
      "transactionHash": "0xb6243148982541f1aa533b5ea2e30c6e205fc3c899181b6e9a32e97d1579a70d",
      "transactionIndex": "0x3",
      "blockHash": "0x3593206478133a2f103a641613914ef00c951152d235d4770cc6e240ce3e2b1a",
      "blockNumber": "0xdfe3",
      "gasUsed": "0x1a39d9",
      "effectiveGasPrice": "0x8",
      "blobGasPrice": "0x1",
      "from": "0xf39fd6e51aad88f6f4ce6ab8827279cfffb92266",
      "to": null,
      "contractAddress": "0x9be634797af98cb560db23260b5f7c6e98accacf",
      "blockTimestamp": 1775441903
    },
    {
      "status": "0x1",
      "cumulativeGasUsed": "0x37d89e",
      "logs": [],
      "logsBloom": "0x00000000000000000000000000000000000000000000000000000000000000000000000000000000000000000000000000000000000000000000000000000000000000000000000000000000000000000000000000000000000000000000000000000000000000000000000000000000000000000000000000000000000000000000000000000000000000000000000000000000000000000000000000000000000000000000000000000000000000000000000000000000000000000000000000000000000000000000000000000000000000000000000000000000000000000000000000000000000000000000000000000000000000000000000000000000",
      "type": "0x2",
      "transactionHash": "0xfb22134fbbf1bd34249bad6d7d0cb5f1ae856b72c9fa5b43014856ae34887c13",
      "transactionIndex": "0x4",
      "blockHash": "0x3593206478133a2f103a641613914ef00c951152d235d4770cc6e240ce3e2b1a",
      "blockNumber": "0xdfe3",
      "gasUsed": "0xb3f1",
      "effectiveGasPrice": "0x8",
      "blobGasPrice": "0x1",
      "from": "0xf39fd6e51aad88f6f4ce6ab8827279cfffb92266",
      "to": "0x2ce1f0e20c1f69e9d9aea83b25f0ceb69e2aa2b5",
      "contractAddress": null,
      "blockTimestamp": 1775441903
    },
    {
      "status": "0x1",
      "cumulativeGasUsed": "0x388c9f",
      "logs": [],
      "logsBloom": "0x00000000000000000000000000000000000000000000000000000000000000000000000000000000000000000000000000000000000000000000000000000000000000000000000000000000000000000000000000000000000000000000000000000000000000000000000000000000000000000000000000000000000000000000000000000000000000000000000000000000000000000000000000000000000000000000000000000000000000000000000000000000000000000000000000000000000000000000000000000000000000000000000000000000000000000000000000000000000000000000000000000000000000000000000000000000",
      "type": "0x2",
      "transactionHash": "0x6f881556efdff9a28c377909254413e0297dabdad3a0764904ba6b82e29e946b",
      "transactionIndex": "0x5",
      "blockHash": "0x3593206478133a2f103a641613914ef00c951152d235d4770cc6e240ce3e2b1a",
      "blockNumber": "0xdfe3",
      "gasUsed": "0xb401",
      "effectiveGasPrice": "0x8",
      "blobGasPrice": "0x1",
      "from": "0xf39fd6e51aad88f6f4ce6ab8827279cfffb92266",
      "to": "0xe5b6f5e695ba6e4aed92b68c4cc8df1160d69a81",
      "contractAddress": null,
      "blockTimestamp": 1775441903
    },
    {
      "status": "0x1",
      "cumulativeGasUsed": "0x3944f8",
      "logs": [
        {
          "address": "0x81f4f47aa3bbd154171c877b4d70f6c9eecab216",
          "topics": [
            "0xd4a2ffd4212ea97bb981aae1f4a20d5170df470d2ed811c1b393882bc1d9f0fa",
            "0xe98e2830be1a7e4156d656a7505e65d08c67660dc618072422e9c78053c261e9"
          ],
          "data": "0x",
          "blockHash": "0x3593206478133a2f103a641613914ef00c951152d235d4770cc6e240ce3e2b1a",
          "blockNumber": "0xdfe3",
          "blockTimestamp": "0x69d317ef",
          "transactionHash": "0xe39eefd9081c54fb7330b2963d2f6e10c9e69987e3218916b527a1b11a461c58",
          "transactionIndex": "0x6",
          "logIndex": "0x0",
          "removed": false
        }
      ],
      "logsBloom": "0x00000000000000000000000000000000000000000000000000000000000000000000000000000000002000000000000000000000000000000000000000000000000000000000000000000000000000000000080000000000000000000000000000000000000000000000000000000000000000000000000000000000000000000000000000000000000000000000000000000000000000000000002000000000004000000000000000000000000000000000000000000000000000000000000002000000000000000000000000000000000000000000000000000100000000000000000000000000000500000000000000000000000000000000000000400000",
      "type": "0x2",
      "transactionHash": "0xe39eefd9081c54fb7330b2963d2f6e10c9e69987e3218916b527a1b11a461c58",
      "transactionIndex": "0x6",
      "blockHash": "0x3593206478133a2f103a641613914ef00c951152d235d4770cc6e240ce3e2b1a",
      "blockNumber": "0xdfe3",
      "gasUsed": "0xb859",
      "effectiveGasPrice": "0x8",
      "blobGasPrice": "0x1",
      "from": "0xf39fd6e51aad88f6f4ce6ab8827279cfffb92266",
      "to": "0x81f4f47aa3bbd154171c877b4d70f6c9eecab216",
      "contractAddress": null,
      "blockTimestamp": 1775441903
    },
    {
      "status": "0x1",
      "cumulativeGasUsed": "0x3b1041",
      "logs": [
        {
          "address": "0x81f4f47aa3bbd154171c877b4d70f6c9eecab216",
          "topics": [
            "0xd1e0ff31b5a8e9db7a93db8b63d84e896cce257bc637e6d369f43178eedd98ce",
            "0xe98e2830be1a7e4156d656a7505e65d08c67660dc618072422e9c78053c261e9"
          ],
          "data": "0x000000000000000000000000000000000000000000000000000005e96630e800000000000000000000000000000000000000000000000000000005e8eefb5400",
          "blockHash": "0x3593206478133a2f103a641613914ef00c951152d235d4770cc6e240ce3e2b1a",
          "blockNumber": "0xdfe3",
          "blockTimestamp": "0x69d317ef",
          "transactionHash": "0x8ae1781674b8eaa3f2e8a0e249a478ba708a3decc0048d4c6392f1745068ee57",
          "transactionIndex": "0x7",
          "logIndex": "0x1",
          "removed": false
        }
      ],
      "logsBloom": "0x00000000000000000000000000000000000000000000000000000000000000000000000000000000002000000000000000000000000000000000000000000000000000000000000000000000000000000000000000000000000000001000000000000000000000000000000000000000000000000000000000000000000000000001000000000000000000000000000000000000000000000000002000000000000000000000000000000000020000000000000000000000000000000000000002000000000000000000000000000000000000000000000000000100000000000000000000000000000100000000000000000000000000000000000000400000",
      "type": "0x2",
      "transactionHash": "0x8ae1781674b8eaa3f2e8a0e249a478ba708a3decc0048d4c6392f1745068ee57",
      "transactionIndex": "0x7",
      "blockHash": "0x3593206478133a2f103a641613914ef00c951152d235d4770cc6e240ce3e2b1a",
      "blockNumber": "0xdfe3",
      "gasUsed": "0x1cb49",
      "effectiveGasPrice": "0x8",
      "blobGasPrice": "0x1",
      "from": "0xf39fd6e51aad88f6f4ce6ab8827279cfffb92266",
      "to": "0x81f4f47aa3bbd154171c877b4d70f6c9eecab216",
      "contractAddress": null,
      "blockTimestamp": 1775441903
    },
    {
      "status": "0x1",
      "cumulativeGasUsed": "0x3daeac",
      "logs": [
        {
          "address": "0x9be634797af98cb560db23260b5f7c6e98accacf",
          "topics": [
            "0xf7154dd385fd97f5acd402bbddfc43353a65d67ed869dc6e507a9f99d6a2040d",
            "0x0000000000000000000000000000000000000000000000000000000000000000"
          ],
          "data": "0xe98e2830be1a7e4156d656a7505e65d08c67660dc618072422e9c78053c261e90000000000000000000000000000000000000000000000000000000000000032",
          "blockHash": "0x3593206478133a2f103a641613914ef00c951152d235d4770cc6e240ce3e2b1a",
          "blockNumber": "0xdfe3",
          "blockTimestamp": "0x69d317ef",
          "transactionHash": "0xf161a9bd969b1c180af8fba2a0f9f5229d3a4044e976973a9f0572ca44172cff",
          "transactionIndex": "0x8",
          "logIndex": "0x2",
          "removed": false
        }
      ],
      "logsBloom": "0x00000000000000000000000000000000000000000000000100000000000000000000000000010000000000000000000000000000000000000000000000000000000000000000000000000000000010200000000000000000000000000000000000000000020000000000000000000800000000000000000000000000000000000000000000000000000000000000000000000000000000000000000000000000000000000000000000000000000000000000000000000000000000000000000000800000000000000000000000000000000000000001000000000000000020000000000000000000000000000000000000000000000000000000000000000000",
      "type": "0x2",
      "transactionHash": "0xf161a9bd969b1c180af8fba2a0f9f5229d3a4044e976973a9f0572ca44172cff",
      "transactionIndex": "0x8",
      "blockHash": "0x3593206478133a2f103a641613914ef00c951152d235d4770cc6e240ce3e2b1a",
      "blockNumber": "0xdfe3",
      "gasUsed": "0x29e6b",
      "effectiveGasPrice": "0x8",
      "blobGasPrice": "0x1",
      "from": "0xf39fd6e51aad88f6f4ce6ab8827279cfffb92266",
      "to": "0x9be634797af98cb560db23260b5f7c6e98accacf",
      "contractAddress": null,
      "blockTimestamp": 1775441903
    },
    {
      "status": "0x1",
      "cumulativeGasUsed": "0x3e6705",
      "logs": [
        {
          "address": "0x81f4f47aa3bbd154171c877b4d70f6c9eecab216",
          "topics": [
            "0xd4a2ffd4212ea97bb981aae1f4a20d5170df470d2ed811c1b393882bc1d9f0fa",
            "0xaaaebeba3810b1e6b70781f14b2d72c1cb89c0b2b320c43bb67ff79f562f5ff4"
          ],
          "data": "0x",
          "blockHash": "0x3593206478133a2f103a641613914ef00c951152d235d4770cc6e240ce3e2b1a",
          "blockNumber": "0xdfe3",
          "blockTimestamp": "0x69d317ef",
          "transactionHash": "0xe23893a736471190f23607403ef9cf8913be5fd828bc7100027d35cb36557b1c",
          "transactionIndex": "0x9",
          "logIndex": "0x3",
          "removed": false
        }
      ],
      "logsBloom": "0x00000000000000000000000000000000000000000000000000000000000000000000000000000000000000000000000000000000000000000000000000000000000000000000000000000000000000000000080000000000000000000000000000000000000000000000000000000000000000040000000000000000000000000000000000000000000000008000000000000000000000000000002000000000004000000000000000000000000000000000000000000000000000000000000002000000000000000000000000000000000000000000000000001100000000000000000000000000000400000000000000000000000000000000000000000000",
      "type": "0x2",
      "transactionHash": "0xe23893a736471190f23607403ef9cf8913be5fd828bc7100027d35cb36557b1c",
      "transactionIndex": "0x9",
      "blockHash": "0x3593206478133a2f103a641613914ef00c951152d235d4770cc6e240ce3e2b1a",
      "blockNumber": "0xdfe3",
      "gasUsed": "0xb859",
      "effectiveGasPrice": "0x8",
      "blobGasPrice": "0x1",
      "from": "0xf39fd6e51aad88f6f4ce6ab8827279cfffb92266",
      "to": "0x81f4f47aa3bbd154171c877b4d70f6c9eecab216",
      "contractAddress": null,
      "blockTimestamp": 1775441903
    },
    {
      "status": "0x1",
      "cumulativeGasUsed": "0x403236",
      "logs": [
        {
          "address": "0x81f4f47aa3bbd154171c877b4d70f6c9eecab216",
          "topics": [
            "0xd1e0ff31b5a8e9db7a93db8b63d84e896cce257bc637e6d369f43178eedd98ce",
            "0xaaaebeba3810b1e6b70781f14b2d72c1cb89c0b2b320c43bb67ff79f562f5ff4"
          ],
          "data": "0x0000000000000000000000000000000000000000000000000000004a817c80000000000000000000000000000000000000000000000000000000004a7590be00",
          "blockHash": "0x3593206478133a2f103a641613914ef00c951152d235d4770cc6e240ce3e2b1a",
          "blockNumber": "0xdfe3",
          "blockTimestamp": "0x69d317ef",
          "transactionHash": "0x058df4be246ee333bff9799dc6285364cbb614b0856a794d0f8e17635eb4eb7a",
          "transactionIndex": "0xa",
          "logIndex": "0x4",
          "removed": false
        }
      ],
      "logsBloom": "0x00000000000000000000000000000000000000000000000000000000000000000000000000000000000000000000000000000000000000000000000000000000000000000000000000000000000000000000000000000000000000001000000000000000000000000000000000000000000000040000000000000000000000000001000000000000000000008000000000000000000000000000002000000000000000000000000000000000020000000000000000000000000000000000000002000000000000000000000000000000000000000000000000001100000000000000000000000000000000000000000000000000000000000000000000000000",
      "type": "0x2",
      "transactionHash": "0x058df4be246ee333bff9799dc6285364cbb614b0856a794d0f8e17635eb4eb7a",
      "transactionIndex": "0xa",
      "blockHash": "0x3593206478133a2f103a641613914ef00c951152d235d4770cc6e240ce3e2b1a",
      "blockNumber": "0xdfe3",
      "gasUsed": "0x1cb31",
      "effectiveGasPrice": "0x8",
      "blobGasPrice": "0x1",
      "from": "0xf39fd6e51aad88f6f4ce6ab8827279cfffb92266",
      "to": "0x81f4f47aa3bbd154171c877b4d70f6c9eecab216",
      "contractAddress": null,
      "blockTimestamp": 1775441903
    },
    {
      "status": "0x1",
      "cumulativeGasUsed": "0x428dd5",
      "logs": [
        {
          "address": "0x9be634797af98cb560db23260b5f7c6e98accacf",
          "topics": [
            "0xf7154dd385fd97f5acd402bbddfc43353a65d67ed869dc6e507a9f99d6a2040d",
            "0x0000000000000000000000000000000000000000000000000000000000000001"
          ],
          "data": "0xaaaebeba3810b1e6b70781f14b2d72c1cb89c0b2b320c43bb67ff79f562f5ff40000000000000000000000000000000000000000000000000000000000000032",
          "blockHash": "0x3593206478133a2f103a641613914ef00c951152d235d4770cc6e240ce3e2b1a",
          "blockNumber": "0xdfe3",
          "blockTimestamp": "0x69d317ef",
          "transactionHash": "0xee62a3c1062c72456a32a391ccd76b790048b1efe2e819e3a4c28345bcdd4949",
          "transactionIndex": "0xb",
          "logIndex": "0x5",
          "removed": false
        }
      ],
      "logsBloom": "0x00000000000000000000000000000000000000000000000100000000000000000000000000010000000000000000000000000000000000000000000000040000000000000000000000000000000010200000000000040000000000000000000000000000000000000000000000000000000000000000000000000000000000000000000000000000000000000000000000000000000000000000000000000000000000000000000000000000000000000000000000000000000000000000000000800000000000000000000000000000000000000001000000000000000040000000000000000000000000000000000000000000000000000000000000000000",
      "type": "0x2",
      "transactionHash": "0xee62a3c1062c72456a32a391ccd76b790048b1efe2e819e3a4c28345bcdd4949",
      "transactionIndex": "0xb",
      "blockHash": "0x3593206478133a2f103a641613914ef00c951152d235d4770cc6e240ce3e2b1a",
      "blockNumber": "0xdfe3",
      "gasUsed": "0x25b9f",
      "effectiveGasPrice": "0x8",
      "blobGasPrice": "0x1",
      "from": "0xf39fd6e51aad88f6f4ce6ab8827279cfffb92266",
      "to": "0x9be634797af98cb560db23260b5f7c6e98accacf",
      "contractAddress": null,
      "blockTimestamp": 1775441903
    },
    {
      "status": "0x1",
      "cumulativeGasUsed": "0x43462e",
      "logs": [
        {
          "address": "0x81f4f47aa3bbd154171c877b4d70f6c9eecab216",
          "topics": [
            "0xd4a2ffd4212ea97bb981aae1f4a20d5170df470d2ed811c1b393882bc1d9f0fa",
            "0x0a3ec4fc70eaf64faf6eeda4e9b2bd4742a785464053aa23afad8bd24650e86f"
          ],
          "data": "0x",
          "blockHash": "0x3593206478133a2f103a641613914ef00c951152d235d4770cc6e240ce3e2b1a",
          "blockNumber": "0xdfe3",
          "blockTimestamp": "0x69d317ef",
          "transactionHash": "0xaa834bca9722736570fb0f4660b760584a3b380aa2623c88f28542ebc0283c54",
          "transactionIndex": "0xc",
          "logIndex": "0x6",
          "removed": false
        }
      ],
      "logsBloom": "0x00000000000000000000000000000000000000000000000000000000000000000000000000000002000000000000000000000000000000000000000000000000000000000000000000000000000000000000080000000000000000000000000000000000000000000000000000000000000000000000000000000000000000000000000000000000000000000000000000000000000000000000002000000000004000000000000000000000000000000000000000000000000000000000000002000000000000000000000000000000000008000000000000000100000040000000000000000000000400000000000000000000000000000000000000000000",
      "type": "0x2",
      "transactionHash": "0xaa834bca9722736570fb0f4660b760584a3b380aa2623c88f28542ebc0283c54",
      "transactionIndex": "0xc",
      "blockHash": "0x3593206478133a2f103a641613914ef00c951152d235d4770cc6e240ce3e2b1a",
      "blockNumber": "0xdfe3",
      "gasUsed": "0xb859",
      "effectiveGasPrice": "0x8",
      "blobGasPrice": "0x1",
      "from": "0xf39fd6e51aad88f6f4ce6ab8827279cfffb92266",
      "to": "0x81f4f47aa3bbd154171c877b4d70f6c9eecab216",
      "contractAddress": null,
      "blockTimestamp": 1775441903
    },
    {
      "status": "0x1",
      "cumulativeGasUsed": "0x45116b",
      "logs": [
        {
          "address": "0x81f4f47aa3bbd154171c877b4d70f6c9eecab216",
          "topics": [
            "0xd1e0ff31b5a8e9db7a93db8b63d84e896cce257bc637e6d369f43178eedd98ce",
            "0x0a3ec4fc70eaf64faf6eeda4e9b2bd4742a785464053aa23afad8bd24650e86f"
          ],
          "data": "0x0000000000000000000000000000000000000000000000000000000430e234000000000000000000000000000000000000000000000000000000000430499d80",
          "blockHash": "0x3593206478133a2f103a641613914ef00c951152d235d4770cc6e240ce3e2b1a",
          "blockNumber": "0xdfe3",
          "blockTimestamp": "0x69d317ef",
          "transactionHash": "0xae9c92fafa94f6bb95b1b5b2ea93a776ed96bfaff18047b9a791d288947e1f78",
          "transactionIndex": "0xd",
          "logIndex": "0x7",
          "removed": false
        }
      ],
      "logsBloom": "0x00000000000000000000000000000000000000000000000000000000000000000000000000000002000000000000000000000000000000000000000000000000000000000000000000000000000000000000000000000000000000001000000000000000000000000000000000000000000000000000000000000000000000000001000000000000000000000000000000000000000000000000002000000000000000000000000000000000020000000000000000000000000000000000000002000000000000000000000000000000000008000000000000000100000040000000000000000000000000000000000000000000000000000000000000000000",
      "type": "0x2",
      "transactionHash": "0xae9c92fafa94f6bb95b1b5b2ea93a776ed96bfaff18047b9a791d288947e1f78",
      "transactionIndex": "0xd",
      "blockHash": "0x3593206478133a2f103a641613914ef00c951152d235d4770cc6e240ce3e2b1a",
      "blockNumber": "0xdfe3",
      "gasUsed": "0x1cb3d",
      "effectiveGasPrice": "0x8",
      "blobGasPrice": "0x1",
      "from": "0xf39fd6e51aad88f6f4ce6ab8827279cfffb92266",
      "to": "0x81f4f47aa3bbd154171c877b4d70f6c9eecab216",
      "contractAddress": null,
      "blockTimestamp": 1775441903
    },
    {
      "status": "0x1",
      "cumulativeGasUsed": "0x476d0a",
      "logs": [
        {
          "address": "0x9be634797af98cb560db23260b5f7c6e98accacf",
          "topics": [
            "0xf7154dd385fd97f5acd402bbddfc43353a65d67ed869dc6e507a9f99d6a2040d",
            "0x0000000000000000000000000000000000000000000000000000000000000002"
          ],
          "data": "0x0a3ec4fc70eaf64faf6eeda4e9b2bd4742a785464053aa23afad8bd24650e86f0000000000000000000000000000000000000000000000000000000000000019",
          "blockHash": "0x3593206478133a2f103a641613914ef00c951152d235d4770cc6e240ce3e2b1a",
          "blockNumber": "0xdfe3",
          "blockTimestamp": "0x69d317ef",
          "transactionHash": "0xea36dae42b5505c3d073ea899b160ad08b30873c7f50b286491cbd5217480a52",
          "transactionIndex": "0xe",
          "logIndex": "0x8",
          "removed": false
        }
      ],
      "logsBloom": "0x04000000000000000000000000000000000000000000000100000000000000000000000000010000000000000000000000000000000000000000000000000000000000000000000000000000000010200000000000000000000000000000000000000000000000000000000000000000000000000000000000000000000000000000000000000000000000000000000000000000000000000000000000000000000000000000000000000100000000000000000000000000000000000000000000800000000000000000000000000000000000000001000000000000000000000000000000000000000000000000000000000000008000000000000000000000",
      "type": "0x2",
      "transactionHash": "0xea36dae42b5505c3d073ea899b160ad08b30873c7f50b286491cbd5217480a52",
      "transactionIndex": "0xe",
      "blockHash": "0x3593206478133a2f103a641613914ef00c951152d235d4770cc6e240ce3e2b1a",
      "blockNumber": "0xdfe3",
      "gasUsed": "0x25b9f",
      "effectiveGasPrice": "0x8",
      "blobGasPrice": "0x1",
      "from": "0xf39fd6e51aad88f6f4ce6ab8827279cfffb92266",
      "to": "0x9be634797af98cb560db23260b5f7c6e98accacf",
      "contractAddress": null,
      "blockTimestamp": 1775441903
    },
    {
      "status": "0x1",
      "cumulativeGasUsed": "0x482563",
      "logs": [
        {
          "address": "0x81f4f47aa3bbd154171c877b4d70f6c9eecab216",
          "topics": [
            "0xd4a2ffd4212ea97bb981aae1f4a20d5170df470d2ed811c1b393882bc1d9f0fa",
            "0x3ed03c38e59dc60c7b69c2a4bf68f9214acd953252b5a90e8f5f59583e9bc3ae"
          ],
          "data": "0x",
          "blockHash": "0x3593206478133a2f103a641613914ef00c951152d235d4770cc6e240ce3e2b1a",
          "blockNumber": "0xdfe3",
          "blockTimestamp": "0x69d317ef",
          "transactionHash": "0x60edbfe3cd149dbbde489caf217cb2d1a0852cdc46b486845935c8db94d4ac61",
          "transactionIndex": "0xf",
          "logIndex": "0x9",
          "removed": false
        }
      ],
      "logsBloom": "0x00000000000000000000000000000000000000000000000000000000000000000000000000000000000100000000000000000000000000000000000000000000000000000000000000000000000000000000080000000000000000000000000000000000000000000000000000000000000000000000000000000000000000000020000000000000000000000000000000000000000000000000002000008000004000000000000000000000000000000000000000000000000000000000000002000000000000000000000000000000000000000000000000000100000000000000000000000000000400000000000000000000000000000000000000000000",
      "type": "0x2",
      "transactionHash": "0x60edbfe3cd149dbbde489caf217cb2d1a0852cdc46b486845935c8db94d4ac61",
      "transactionIndex": "0xf",
      "blockHash": "0x3593206478133a2f103a641613914ef00c951152d235d4770cc6e240ce3e2b1a",
      "blockNumber": "0xdfe3",
      "gasUsed": "0xb859",
      "effectiveGasPrice": "0x8",
      "blobGasPrice": "0x1",
      "from": "0xf39fd6e51aad88f6f4ce6ab8827279cfffb92266",
      "to": "0x81f4f47aa3bbd154171c877b4d70f6c9eecab216",
      "contractAddress": null,
      "blockTimestamp": 1775441903
    },
    {
      "status": "0x1",
      "cumulativeGasUsed": "0x49f094",
      "logs": [
        {
          "address": "0x81f4f47aa3bbd154171c877b4d70f6c9eecab216",
          "topics": [
            "0xd1e0ff31b5a8e9db7a93db8b63d84e896cce257bc637e6d369f43178eedd98ce",
            "0x3ed03c38e59dc60c7b69c2a4bf68f9214acd953252b5a90e8f5f59583e9bc3ae"
          ],
          "data": "0x0000000000000000000000000000000000000000000000000000000df84758000000000000000000000000000000000000000000000000000000000df7162b00",
          "blockHash": "0x3593206478133a2f103a641613914ef00c951152d235d4770cc6e240ce3e2b1a",
          "blockNumber": "0xdfe3",
          "blockTimestamp": "0x69d317ef",
          "transactionHash": "0xb651bc8538fb04a89cf784e1b00790c173c5002030f50261ee88352dd49714c4",
          "transactionIndex": "0x10",
          "logIndex": "0xa",
          "removed": false
        }
      ],
      "logsBloom": "0x00000000000000000000000000000000000000000000000000000000000000000000000000000000000100000000000000000000000000000000000000000000000000000000000000000000000000000000000000000000000000001000000000000000000000000000000000000000000000000000000000000000000000000021000000000000000000000000000000000000000000000000002000008000000000000000000000000000020000000000000000000000000000000000000002000000000000000000000000000000000000000000000000000100000000000000000000000000000000000000000000000000000000000000000000000000",
      "type": "0x2",
      "transactionHash": "0xb651bc8538fb04a89cf784e1b00790c173c5002030f50261ee88352dd49714c4",
      "transactionIndex": "0x10",
      "blockHash": "0x3593206478133a2f103a641613914ef00c951152d235d4770cc6e240ce3e2b1a",
      "blockNumber": "0xdfe3",
      "gasUsed": "0x1cb31",
      "effectiveGasPrice": "0x8",
      "blobGasPrice": "0x1",
      "from": "0xf39fd6e51aad88f6f4ce6ab8827279cfffb92266",
      "to": "0x81f4f47aa3bbd154171c877b4d70f6c9eecab216",
      "contractAddress": null,
      "blockTimestamp": 1775441903
    },
    {
      "status": "0x1",
      "cumulativeGasUsed": "0x4c4c33",
      "logs": [
        {
          "address": "0x9be634797af98cb560db23260b5f7c6e98accacf",
          "topics": [
            "0xf7154dd385fd97f5acd402bbddfc43353a65d67ed869dc6e507a9f99d6a2040d",
            "0x0000000000000000000000000000000000000000000000000000000000000003"
          ],
          "data": "0x3ed03c38e59dc60c7b69c2a4bf68f9214acd953252b5a90e8f5f59583e9bc3ae0000000000000000000000000000000000000000000000000000000000000019",
          "blockHash": "0x3593206478133a2f103a641613914ef00c951152d235d4770cc6e240ce3e2b1a",
          "blockNumber": "0xdfe3",
          "blockTimestamp": "0x69d317ef",
          "transactionHash": "0x2b05375c7e7c6e3fde7f2b7680b32f33f56c410dc3b156ff524dc5724b6397ec",
          "transactionIndex": "0x11",
          "logIndex": "0xb",
          "removed": false
        }
      ],
      "logsBloom": "0x00000000000000000000000000000000000000000000000100000000000000000000000000010000000000000000000000000000020000000000000000000000000000000000000000000000000010200000000000000000000000000000000000000000000000000000000000000000000000000000000000000000000000000000000000000000000000000000000000000000000000000000000000000000000000000000000000000000000000000000000000800000000000000000400000800000000000000000000000000000000000000001000000000000000000000000000000000000000000000000000000000000000000000000000000000000",
      "type": "0x2",
      "transactionHash": "0x2b05375c7e7c6e3fde7f2b7680b32f33f56c410dc3b156ff524dc5724b6397ec",
      "transactionIndex": "0x11",
      "blockHash": "0x3593206478133a2f103a641613914ef00c951152d235d4770cc6e240ce3e2b1a",
      "blockNumber": "0xdfe3",
      "gasUsed": "0x25b9f",
      "effectiveGasPrice": "0x8",
      "blobGasPrice": "0x1",
      "from": "0xf39fd6e51aad88f6f4ce6ab8827279cfffb92266",
      "to": "0x9be634797af98cb560db23260b5f7c6e98accacf",
      "contractAddress": null,
      "blockTimestamp": 1775441903
    },
    {
      "status": "0x1",
      "cumulativeGasUsed": "0x4d048c",
      "logs": [
        {
          "address": "0x81f4f47aa3bbd154171c877b4d70f6c9eecab216",
          "topics": [
            "0xd4a2ffd4212ea97bb981aae1f4a20d5170df470d2ed811c1b393882bc1d9f0fa",
            "0xa6a7de01e8b7ba6a4a61c782a73188d808fc1f3cf5743fadb68a02ed884b594f"
          ],
          "data": "0x",
          "blockHash": "0x3593206478133a2f103a641613914ef00c951152d235d4770cc6e240ce3e2b1a",
          "blockNumber": "0xdfe3",
          "blockTimestamp": "0x69d317ef",
          "transactionHash": "0x985708622232eab86df6c34984faa46a2b1f48ab10ff1b5d66c908d9bf27b118",
          "transactionIndex": "0x12",
          "logIndex": "0xc",
          "removed": false
        }
      ],
      "logsBloom": "0x00000000000000000000000000000000000000000000000000000000000000000000000000000000000000000000000000000000000000000000000000000000000000000000000000000000000000000000080000000000000000000000400000000000000000000000000000000000000000000000000000000040000000000000000000000000000000000000000000000000000000000000002000000000004000000000000000000000000000000000000000000000000000000000000002000000000000000000000000010000000000000000000000000100000000000000000000000000000400000000000000000000000000000000000000000000",
      "type": "0x2",
      "transactionHash": "0x985708622232eab86df6c34984faa46a2b1f48ab10ff1b5d66c908d9bf27b118",
      "transactionIndex": "0x12",
      "blockHash": "0x3593206478133a2f103a641613914ef00c951152d235d4770cc6e240ce3e2b1a",
      "blockNumber": "0xdfe3",
      "gasUsed": "0xb859",
      "effectiveGasPrice": "0x8",
      "blobGasPrice": "0x1",
      "from": "0xf39fd6e51aad88f6f4ce6ab8827279cfffb92266",
      "to": "0x81f4f47aa3bbd154171c877b4d70f6c9eecab216",
      "contractAddress": null,
      "blockTimestamp": 1775441903
    },
    {
      "status": "0x1",
      "cumulativeGasUsed": "0x4ecfbd",
      "logs": [
        {
          "address": "0x81f4f47aa3bbd154171c877b4d70f6c9eecab216",
          "topics": [
            "0xd1e0ff31b5a8e9db7a93db8b63d84e896cce257bc637e6d369f43178eedd98ce",
            "0xa6a7de01e8b7ba6a4a61c782a73188d808fc1f3cf5743fadb68a02ed884b594f"
          ],
          "data": "0x00000000000000000000000000000000000000000000000000000000055d4a80000000000000000000000000000000000000000000000000000000000555a960",
          "blockHash": "0x3593206478133a2f103a641613914ef00c951152d235d4770cc6e240ce3e2b1a",
          "blockNumber": "0xdfe3",
          "blockTimestamp": "0x69d317ef",
          "transactionHash": "0x6a7db9127492d6c264adb960c2a52cd1a2e35c70157eaa90ec1d1a552cbecf09",
          "transactionIndex": "0x13",
          "logIndex": "0xd",
          "removed": false
        }
      ],
      "logsBloom": "0x00000000000000000000000000000000000000000000000000000000000000000000000000000000000000000000000000000000000000000000000000000000000000000000000000000000000000000000000000000000000000001000400000000000000000000000000000000000000000000000000000000040000000000001000000000000000000000000000000000000000000000000002000000000000000000000000000000000020000000000000000000000000000000000000002000000000000000000000000010000000000000000000000000100000000000000000000000000000000000000000000000000000000000000000000000000",
      "type": "0x2",
      "transactionHash": "0x6a7db9127492d6c264adb960c2a52cd1a2e35c70157eaa90ec1d1a552cbecf09",
      "transactionIndex": "0x13",
      "blockHash": "0x3593206478133a2f103a641613914ef00c951152d235d4770cc6e240ce3e2b1a",
      "blockNumber": "0xdfe3",
      "gasUsed": "0x1cb31",
      "effectiveGasPrice": "0x8",
      "blobGasPrice": "0x1",
      "from": "0xf39fd6e51aad88f6f4ce6ab8827279cfffb92266",
      "to": "0x81f4f47aa3bbd154171c877b4d70f6c9eecab216",
      "contractAddress": null,
      "blockTimestamp": 1775441903
    },
    {
      "status": "0x1",
      "cumulativeGasUsed": "0x512b5c",
      "logs": [
        {
          "address": "0x9be634797af98cb560db23260b5f7c6e98accacf",
          "topics": [
            "0xf7154dd385fd97f5acd402bbddfc43353a65d67ed869dc6e507a9f99d6a2040d",
            "0x0000000000000000000000000000000000000000000000000000000000000004"
          ],
          "data": "0xa6a7de01e8b7ba6a4a61c782a73188d808fc1f3cf5743fadb68a02ed884b594f0000000000000000000000000000000000000000000000000000000000000014",
          "blockHash": "0x3593206478133a2f103a641613914ef00c951152d235d4770cc6e240ce3e2b1a",
          "blockNumber": "0xdfe3",
          "blockTimestamp": "0x69d317ef",
          "transactionHash": "0xaafff1ae5b86dc7cf39838596e7f25879c0657ed1ba017c43b6170f165504b23",
          "transactionIndex": "0x14",
          "logIndex": "0xe",
          "removed": false
        }
      ],
      "logsBloom": "0x00000000000000000000000000000000000000000000000100000000000000000000000000010000000000000000000000000000000000000000000000000000000000000000000000000000000010200000000000000000000000000000000008000000000000000000000000000000000000000000000000000000000000000000000000000000000000000000000000000000000000000000000000000000000000000000000000000000000000000000000000000000002000000000000000800000000000000000000000000000000000008001000000000000000000000000000000000000000000000000000000000000000000000000000000000000",
      "type": "0x2",
      "transactionHash": "0xaafff1ae5b86dc7cf39838596e7f25879c0657ed1ba017c43b6170f165504b23",
      "transactionIndex": "0x14",
      "blockHash": "0x3593206478133a2f103a641613914ef00c951152d235d4770cc6e240ce3e2b1a",
      "blockNumber": "0xdfe3",
      "gasUsed": "0x25b9f",
      "effectiveGasPrice": "0x8",
      "blobGasPrice": "0x1",
      "from": "0xf39fd6e51aad88f6f4ce6ab8827279cfffb92266",
      "to": "0x9be634797af98cb560db23260b5f7c6e98accacf",
      "contractAddress": null,
      "blockTimestamp": 1775441903
    },
    {
      "status": "0x1",
      "cumulativeGasUsed": "0x51e3b5",
      "logs": [
        {
          "address": "0x81f4f47aa3bbd154171c877b4d70f6c9eecab216",
          "topics": [
            "0xd4a2ffd4212ea97bb981aae1f4a20d5170df470d2ed811c1b393882bc1d9f0fa",
            "0xc07524b7a4eecc2784fc7ac17ff2730f877f3cf7a2ceb4e2375fa40a103115d0"
          ],
          "data": "0x",
          "blockHash": "0x3593206478133a2f103a641613914ef00c951152d235d4770cc6e240ce3e2b1a",
          "blockNumber": "0xdfe3",
          "blockTimestamp": "0x69d317ef",
          "transactionHash": "0x6b6f5d23fc9a2f537dc80adafe967884a451b18a8cff1600dcb5a6374016319a",
          "transactionIndex": "0x15",
          "logIndex": "0xf",
          "removed": false
        }
      ],
      "logsBloom": "0x00000000000000000000000000000000000000000000000000000000000000000000000000000000000000000000000000000000000000000000000000000000000000000000000000000000000000000000080000000000000000000000000000000000000000000000000000000000000000000000000000000000000000000000000000000000000000000000000000000000000000000000006000000000004000000000000000000000000000000000000000000000002000000000000002000000000000000000000000000000000000000000080000000100000000000000000000000000000400000000000000000000000000000000000000000000",
      "type": "0x2",
      "transactionHash": "0x6b6f5d23fc9a2f537dc80adafe967884a451b18a8cff1600dcb5a6374016319a",
      "transactionIndex": "0x15",
      "blockHash": "0x3593206478133a2f103a641613914ef00c951152d235d4770cc6e240ce3e2b1a",
      "blockNumber": "0xdfe3",
      "gasUsed": "0xb859",
      "effectiveGasPrice": "0x8",
      "blobGasPrice": "0x1",
      "from": "0xf39fd6e51aad88f6f4ce6ab8827279cfffb92266",
      "to": "0x81f4f47aa3bbd154171c877b4d70f6c9eecab216",
      "contractAddress": null,
      "blockTimestamp": 1775441903
    },
    {
      "status": "0x1",
      "cumulativeGasUsed": "0x53aece",
      "logs": [
        {
          "address": "0x81f4f47aa3bbd154171c877b4d70f6c9eecab216",
          "topics": [
            "0xd1e0ff31b5a8e9db7a93db8b63d84e896cce257bc637e6d369f43178eedd98ce",
            "0xc07524b7a4eecc2784fc7ac17ff2730f877f3cf7a2ceb4e2375fa40a103115d0"
          ],
          "data": "0x0000000000000000000000000000000000000000000000000000000007270e0000000000000000000000000000000000000000000000000000000000072400c0",
          "blockHash": "0x3593206478133a2f103a641613914ef00c951152d235d4770cc6e240ce3e2b1a",
          "blockNumber": "0xdfe3",
          "blockTimestamp": "0x69d317ef",
          "transactionHash": "0x204ae18657b01e9a3509919a02ce8455948d6c9463ae080403fd6395de32038c",
          "transactionIndex": "0x16",
          "logIndex": "0x10",
          "removed": false
        }
      ],
      "logsBloom": "0x00000000000000000000000000000000000000000000000000000000000000000000000000000000000000000000000000000000000000000000000000000000000000000000000000000000000000000000000000000000000000001000000000000000000000000000000000000000000000000000000000000000000000000001000000000000000000000000000000000000000000000000006000000000000000000000000000000000020000000000000000000000002000000000000002000000000000000000000000000000000000000000080000000100000000000000000000000000000000000000000000000000000000000000000000000000",
      "type": "0x2",
      "transactionHash": "0x204ae18657b01e9a3509919a02ce8455948d6c9463ae080403fd6395de32038c",
      "transactionIndex": "0x16",
      "blockHash": "0x3593206478133a2f103a641613914ef00c951152d235d4770cc6e240ce3e2b1a",
      "blockNumber": "0xdfe3",
      "gasUsed": "0x1cb19",
      "effectiveGasPrice": "0x8",
      "blobGasPrice": "0x1",
      "from": "0xf39fd6e51aad88f6f4ce6ab8827279cfffb92266",
      "to": "0x81f4f47aa3bbd154171c877b4d70f6c9eecab216",
      "contractAddress": null,
      "blockTimestamp": 1775441903
    },
    {
      "status": "0x1",
      "cumulativeGasUsed": "0x560a6d",
      "logs": [
        {
          "address": "0x9be634797af98cb560db23260b5f7c6e98accacf",
          "topics": [
            "0xf7154dd385fd97f5acd402bbddfc43353a65d67ed869dc6e507a9f99d6a2040d",
            "0x0000000000000000000000000000000000000000000000000000000000000005"
          ],
          "data": "0xc07524b7a4eecc2784fc7ac17ff2730f877f3cf7a2ceb4e2375fa40a103115d00000000000000000000000000000000000000000000000000000000000000014",
          "blockHash": "0x3593206478133a2f103a641613914ef00c951152d235d4770cc6e240ce3e2b1a",
          "blockNumber": "0xdfe3",
          "blockTimestamp": "0x69d317ef",
          "transactionHash": "0x51163e43520392ca89f07a896351a5c56d88fafb741cb71837a2dbc64a6ae29d",
          "transactionIndex": "0x17",
          "logIndex": "0x11",
          "removed": false
        }
      ],
      "logsBloom": "0x00000000000000000000000000000000000000000000000100000000000000000000000000010000000000000000000000000000000000000000000000000000000010000000000000000000000010200000000000000000000000000000000000000000000000000000000000000000000000000000000000000000000000000000000000000000000000000000001000000800000000000000000000000000000000000000000000000000000000000000000000000000000000000000000000800000000000000000000000000000000000000001000000000000000000000000000000000000000000000000000000000000000000000000000000000000",
      "type": "0x2",
      "transactionHash": "0x51163e43520392ca89f07a896351a5c56d88fafb741cb71837a2dbc64a6ae29d",
      "transactionIndex": "0x17",
      "blockHash": "0x3593206478133a2f103a641613914ef00c951152d235d4770cc6e240ce3e2b1a",
      "blockNumber": "0xdfe3",
      "gasUsed": "0x25b9f",
      "effectiveGasPrice": "0x8",
      "blobGasPrice": "0x1",
      "from": "0xf39fd6e51aad88f6f4ce6ab8827279cfffb92266",
      "to": "0x9be634797af98cb560db23260b5f7c6e98accacf",
      "contractAddress": null,
      "blockTimestamp": 1775441903
    }
  ],
  "libraries": [],
  "pending": [],
  "returns": {},
  "timestamp": 1775441903874,
  "chain": 42069,
  "commit": "3c7e1b4"
}