{
  "transactions": [
    {
      "hash": "0x1ec8de4b25824951c03b5cc43d432c9c3464b324d9f84fdaea9ede01e0051240",
      "transactionType": "CREATE",
      "contractName": "PerpPriceOracle",
      "contractAddress": "0xa4d0806d597146df93796a38435abb2a3cb96677",
      "function": null,
      "arguments": [
        "0xf39Fd6e51aad88F6F4ce6aB8827279cffFb92266"
      ],
      "transaction": {
        "from": "0xf39fd6e51aad88f6f4ce6ab8827279cfffb92266",
        "gas": "0x11e22f",
        "value": "0x0",
        "input": "0x60803460a057601f610e6438819003918201601f19168301916001600160401b0383118484101760a45780849260209460405283398101031260a057516001600160a01b0381169081900360a05760786004556107d060055580156091578060018060a01b03195f5416175f555f52600160205260405f20600160ff19825416179055604051610dab90816100b98239f35b63d92e233d60e01b5f5260045ffd5b5f80fd5b634e487b7160e01b5f52604160045260245ffdfe6080806040526004361015610012575f80fd5b5f3560e01c9081630a16191a146108a3575080630df1d5ed14610840578063100bc9e1146107e3578063249d39e9146107c75780633bbd64bc1461078a5780633ee7a7011461076d57806343fa6211146106c057806360846bc61461066457806365312f181461062b578063704b6c02146105e05780637698aa331461057a57806380626ad1146105a0578063832321bf1461057a57806387cf46961461055d578063b70946011461052e578063d1b9e85314610492578063d94414e6146102e2578063dddbc04914610285578063ecc191bb1461025d578063f229fece1461012e5763f851a44014610103575f80fd5b3461012a575f36600319011261012a575f546040516001600160a01b039091168152602090f35b5f80fd5b3461012a57606036600319011261012a575f546004359060243590604435906001600160a01b0316330361024e57825f52600360205260ff60405f2054161561023b5781158015610233575b610224577fd1e0ff31b5a8e9db7a93db8b63d84e896cce257bc637e6d369f43178eedd98ce916040916102176101ae610be6565b8381526020810183815260ff6003878401934285526060810194600186526080820194600186528c5f5260026020528a5f20925183555160018301555160028201550192511660ff1983541617825551151561ff00825491151560081b169061ff001916179055565b82519182526020820152a2005b634dfba02360e01b5f5260045ffd5b50801561017a565b82631b37612760e21b5f5260045260245ffd5b637bfa4b9f60e01b5f5260045ffd5b3461012a57602036600319011261012a57602061027b600435610c5d565b6040519015158152f35b3461012a57602036600319011261012a575f54600435906001600160a01b0316330361024e577fea7b0359048504e79474eaaa05294b49265fc4e7b0a0c3737aaa22412e90f16e60406005548151908152836020820152a1600555005b3461012a57608036600319011261012a5760043560243560643560443560ff821680830361012a57335f52600160205260ff60405f205416158061047e575b61046f57845f52600360205260ff60405f2054161561045c5783158015610454575b610224577fc7061c903e2c36b50c20c3af3c54f4a781394e15a68ba49ee82125a240ad419b9361040261042b92875f52600260205260405f20838154918215159081610441575b50610430575b505061039a610be6565b83815260ff60036020830192888452604081014281526060820195865260808201945f86528d5f52600260205260405f20925183555160018301555160028201550192511660ff1983541617825551151561ff00825491151560081b169061ff001916179055565b6040519384934292859094939260ff906060936080840197845260208401521660408201520152565b0390a2005b61043a918a610c9f565b8883610390565b60ff91506003015460081c16158b61038a565b508115610343565b84631b37612760e21b5f5260045260245ffd5b631ea2564f60e31b5f5260045ffd5b505f546001600160a01b0316331415610321565b3461012a57604036600319011261012a576104ab610b9e565b6024359081151580920361012a575f546001600160a01b0316330361024e576001600160a01b031690811561051f5760207f786c9db967bf0c6b16c7c91adae8a8c554b15a57d373fa2059607300f4616c0091835f526001825260405f2060ff1981541660ff8316179055604051908152a2005b63d92e233d60e01b5f5260045ffd5b3461012a57602036600319011261012a576004355f526003602052602060ff60405f2054166040519015158152f35b3461012a575f36600319011261012a576020600454604051908152f35b3461012a57602036600319011261012a576020610598600435610c1a565b604051908152f35b3461012a57602036600319011261012a575f546001600160a01b0316330361024e576004355f908152600260205260409020600301805461ff0019169055005b3461012a57602036600319011261012a576105f9610b9e565b5f54906001600160a01b038216330361024e576001600160a01b031690811561051f576001600160a01b031916175f55005b3461012a57602036600319011261012a57600435805f52600260205260405f209060018201549081156102245760209261059891610d2b565b3461012a57602036600319011261012a576004355f52600260205260a060405f2060ff815491600181015490600360028201549101549160405194855260208501526040840152818116606084015260081c1615156080820152f35b3461012a57602036600319011261012a575f60806106dc610be6565b82815282602082015282604082015282606082015201526004355f52600260205260a060405f2061070b610be6565b9060ff8154928381526001830154926020820193845260036002820154916040840192835201549383608060608501948288168652019560081c1615158552604051958652516020860152516040850152511660608301525115156080820152f35b3461012a575f36600319011261012a576020600554604051908152f35b3461012a57602036600319011261012a576001600160a01b036107ab610b9e565b165f526001602052602060ff60405f2054166040519015158152f35b3461012a575f36600319011261012a5760206040516127108152f35b3461012a57602036600319011261012a575f54600435906001600160a01b0316330361024e577f9843f62f065b46649ec181ada7772d5c94055361bc052184193831e5cbcb9f6560406004548151908152836020820152a1600455005b3461012a57602036600319011261012a575f54600435906001600160a01b0316330361024e57805f52600360205260405f20600160ff198254161790557fd4a2ffd4212ea97bb981aae1f4a20d5170df470d2ed811c1b393882bc1d9f0fa5f80a2005b3461012a57608036600319011261012a5760043567ffffffffffffffff811161012a576108d4903690600401610b6d565b909160243567ffffffffffffffff811161012a576108f6903690600401610b6d565b60449291923567ffffffffffffffff811161012a57610919903690600401610b6d565b95909160643567ffffffffffffffff811161012a5761093c903690600401610b6d565b979094335f52600160205260ff60405f2054161580610b59575b61046f5782881480610b50575b80610b47575b15610b1357505f5b87811061097a57005b610985818986610bb4565b359061099281858a610bb4565b359161099f828589610bb4565b35815f52600360205260ff60405f20541615610b005783158015610af8575b610224576001937fc7061c903e2c36b50c20c3af3c54f4a781394e15a68ba49ee82125a240ad419b91610acb610aa38f87610a27918f895f52600260205260405f20888154918215159081610ae5575b50610ad4575b5050610a9e610a2c610a27858585610bb4565b610bd8565b8b60ff6003610a39610be6565b8d8152602081018d8152604082019042825284606084019716875260808301955f87525f52600260205260405f20925183555160018301555160028201550192511660ff1983541617825551151561ff00825491151560081b169061ff001916179055565b610bb4565b60408051948552602085019390935260ff169183019190915242606083015281906080820190565b0390a201610971565b610ade918c610c9f565b5f88610a14565b60ff91506003015460081c16155f610a0e565b5080156109be565b50631b37612760e21b5f5260045260245ffd5b62461bcd60e51b815260206004820152600f60248201526e0d8cadccee8d040dad2e6dac2e8c6d608b1b6044820152606490fd5b50888814610969565b50818814610963565b505f546001600160a01b0316331415610956565b9181601f8401121561012a5782359167ffffffffffffffff831161012a576020808501948460051b01011161012a57565b600435906001600160a01b038216820361012a57565b9190811015610bc45760051b0190565b634e487b7160e01b5f52603260045260245ffd5b3560ff8116810361012a5790565b6040519060a0820182811067ffffffffffffffff821117610c0657604052565b634e487b7160e01b5f52604160045260245ffd5b805f52600260205260405f2090815491821561022457610c3991610d2b565b90565b91908203918211610c4957565b634e487b7160e01b5f52601160045260245ffd5b5f52600260205260405f20805415610c9a5760ff600382015460081c16610c94576002610c8c91015442610c3c565b600454101590565b50600190565b505f90565b9180821115610d1c57610cb28183610c3c565b6127108102908082046127101490151715610c49578215610d0857829004916005548311610ce05750505050565b608494506040519363bdecbfb760e01b85526004850152602484015260448301526064820152fd5b634e487b7160e01b5f52601260045260245ffd5b610d268282610c3c565b610cb2565b9060ff600382015460081c16610d71576002610d4991015442610c3c565b60045491828211610d5957505050565b6357fd6bcb60e11b5f5260045260245260445260645ffd5b505056fea2646970667358221220fd5280775690830167c2b7616abd71901fbf08ee13c6987f5cf645844b11bc9864736f6c63430008210033000000000000000000000000f39fd6e51aad88f6f4ce6ab8827279cfffb92266",
        "nonce": "0x258",
        "chainId": "0xa455"
      },
      "additionalContracts": [],
      "isFixedGasLimit": false
    },
    {
      "hash": "0x1f8ebe78f7cdef3201ffd404d173e31e65c3eeaf22950d4de292e43707fa45fc",
      "transactionType": "CREATE",
      "contractName": "FundingRate",
      "contractAddress": "0xae246e208ea35b3f23de72b697d47044fc594d5f",
      "function": null,
      "arguments": [
        "0xf39Fd6e51aad88F6F4ce6aB8827279cffFb92266"
      ],
      "transaction": {
        "from": "0xf39fd6e51aad88f6f4ce6ab8827279cfffb92266",
        "gas": "0x819c8",
        "value": "0x0",
        "input": "0x608034608357601f61069538819003918201601f19168301916001600160401b03831184841017608757808492602094604052833981010312608357516001600160a01b0381169081900360835780156074575f80546001600160a01b0319169190911790556040516105f9908161009c8239f35b63d92e233d60e01b5f5260045ffd5b5f80fd5b634e487b7160e01b5f52604160045260245ffdfe60806040526004361015610011575f80fd5b5f3560e01c806302429b98146104075780630e18b68114610387578063267822471461035f57806326ef1b721461033557806345eab495146102be57806348ba4d2b1461029657806355efb2871461027a57806375829def14610203578063b619daf71461018c578063e03e0d8514610162578063f11db845146100f4578063f40f2a79146100d35763f851a440146100a8575f80fd5b346100cf575f3660031901126100cf575f546040516001600160a01b039091168152602090f35b5f80fd5b346100cf575f3660031901126100cf5760206040516601c6bf526340008152f35b346100cf5760203660031901126100cf5760043560018060a01b03600254163314158061014e575b61013f57805f5260046020524260405f20555f5260036020525f60408120555f80f35b63027da19960e41b5f5260045ffd5b505f546001600160a01b031633141561011c565b346100cf5760203660031901126100cf576004355f526004602052602060405f2054604051908152f35b346100cf5760203660031901126100cf576004356001600160a01b038116908190036100cf575f546001600160a01b031633036101f45780156101e5576bffffffffffffffffffffffff60a01b60025416176002555f80f35b63d92e233d60e01b5f5260045ffd5b637bfa4b9f60e01b5f5260045ffd5b346100cf5760203660031901126100cf576004356001600160a01b038116908190036100cf575f546001600160a01b0316338190036101f45781156101e557600180546001600160a01b031916831790557fb4d7bcb4d9a5d6ef6e827e3b1554e5a2578ad9ca843903d42b05d08bfa3458945f80a3005b346100cf575f3660031901126100cf5760206040516170808152f35b346100cf575f3660031901126100cf576002546040516001600160a01b039091168152602090f35b346100cf5760603660031901126100cf576004356044355f5260036020526102ec60243560405f2054610460565b81810291905f8212600160ff1b82141661032157818305149015171561032157670de0b6b3a764000060209105604051908152f35b634e487b7160e01b5f52601160045260245ffd5b346100cf5760203660031901126100cf576004355f526003602052602060405f2054604051908152f35b346100cf575f3660031901126100cf576001546040516001600160a01b039091168152602090f35b346100cf575f3660031901126100cf576001546001600160a01b03811690338290036103f8575f80546001600160a01b0319808216851783559092166001556001600160a01b03909116907ff8ccb027dfcd135e000e9d45e6cc2d662578a8825d4c45b5e32e0adf67e79ec69080a3005b63058d9a1b60e01b5f5260045ffd5b346100cf5760603660031901126100cf576002546001600160a01b03163314158061044c575b61013f576020610444604435602435600435610478565b604051908152f35b505f546001600160a01b031633141561042d565b81810392915f13801582851316918412161761032157565b929190835f52600460205260405f20544203428111610321576170801161058357835f52600460205260405f208054916170808301809311610321576104c092849255610460565b90670de0b6b3a7640000820291808305670de0b6b3a7640000149015171561032157801561056f57600160ff1b82145f1982141661032157610502910561058a565b91805f52600360205260405f20805490848201915f86841291129080158216911516176103215755805f5260036020527f5bc77c157525d548a8a52d79d0ab879a816749d39b746f1bf2489ad250335eee606060405f2054604051908682526020820152426040820152a2565b634e487b7160e01b5f52601260045260245ffd5b505f925050565b6601c6bf52633fff1981126105b6576601c6bf5263400081136105aa5790565b506601c6bf5263400090565b506601c6bf52633fff199056fea2646970667358221220caad58ee29f94bc0c9f169fa4a16109842c7a2300c186f4bcb933481c025f0de64736f6c63430008210033000000000000000000000000f39fd6e51aad88f6f4ce6ab8827279cfffb92266",
        "nonce": "0x259",
        "chainId": "0xa455"
      },
      "additionalContracts": [],
      "isFixedGasLimit": false
    },
    {
      "hash": "0x7a24244080a9a34ca18f1046a5f9414b5202469d8f53a64e05746b21f2ba3d4c",
      "transactionType": "CREATE",
      "contractName": "MarginVault",
      "contractAddress": "0x82bbaa3b0982d88741b275ae1752db85cafe3c65",
      "function": null,
      "arguments": [
        "0x8f86403A4DE0BB5791fa46B8e795C547942fE4Cf",
        "0xf39Fd6e51aad88F6F4ce6aB8827279cffFb92266"
      ],
      "transaction": {
        "from": "0xf39fd6e51aad88f6f4ce6ab8827279cfffb92266",
        "gas": "0xc9218",
        "value": "0x0",
        "input": "0x60a0346100cb57601f610a9b38819003918201601f19168301916001600160401b038311848410176100cf5780849260409485528339810103126100cb57610052602061004b836100e3565b92016100e3565b60015f556001600160a01b039091169081156100bc576001600160a01b03169081156100bc57608052600280546001600160a01b0319169190911790556040516109a390816100f8823960805181818161017b015281816102c8015281816103f901526107000152f35b63d92e233d60e01b5f5260045ffd5b5f80fd5b634e487b7160e01b5f52604160045260245ffd5b51906001600160a01b03821682036100cb5756fe60806040526004361015610011575f80fd5b5f3560e01c80630e18b6811461080957806326782247146107e157806327e235e3146107a95780632e1a7d4d1461067857806348ba4d2b14610650578063636be27a1461059a57806375829def14610524578063b619daf7146104bf578063b6b55f25146103ae578063beabacc8146102f7578063d8dfeb45146102b3578063ef6506db14610226578063f40818b614610107578063f851a440146100df5763ff50abdc146100be575f80fd5b346100db575f3660031901126100db576020600554604051908152f35b5f80fd5b346100db575f3660031901126100db576002546040516001600160a01b039091168152602090f35b346100db5760403660031901126100db57610120610887565b6001546001600160a01b031633036102175761013a610919565b6001600160a01b038116156102085760405163a9059cbb60e01b81526001600160a01b0390911660048201526024803590820152602081806044810103815f7f00000000000000000000000000000000000000000000000000000000000000006001600160a01b03165af19081156101fd575f916101ce575b50156101bf5760015f55005b6312171d8360e31b5f5260045ffd5b6101f0915060203d6020116101f6575b6101e881836108be565b8101906108f4565b816101b3565b503d6101de565b6040513d5f823e3d90fd5b63d92e233d60e01b5f5260045ffd5b63027da19960e41b5f5260045ffd5b346100db5760403660031901126100db5761023f610887565b60015460243591906001600160a01b031633036102175760207f9f7132b931bb99c5679b120dd9dc04eab8b1e91f4be7f2c40da4c0876823f4dc9160018060a01b031692835f526004825260405f2061029982825461090c565b90556102a78160055461090c565b600555604051908152a2005b346100db575f3660031901126100db576040517f00000000000000000000000000000000000000000000000000000000000000006001600160a01b03168152602090f35b346100db5760603660031901126100db57610310610887565b6024356001600160a01b038116908190036100db5760015460443592906001600160a01b03163303610217576001600160a01b03165f81815260046020526040902054831161038b575f52600460205260405f2061036f83825461089d565b90555f52600460205261038760405f2091825461090c565b9055005b90505f52600460205260405f205463cf47918160e01b5f5260045260245260445ffd5b346100db5760203660031901126100db576004356103ca610919565b80156104b0576040516323b872dd60e01b8152336004820152306024820152604481018290526020816064815f7f00000000000000000000000000000000000000000000000000000000000000006001600160a01b03165af19081156101fd575f91610491575b50156101bf57335f52600460205260405f2061044e82825461090c565b905561045c8160055461090c565b6005556040519081527f2da466a7b24304f47e87fa2e1e5a81b9831ce54fec19055ce277ca2f39ba42c460203392a260015f55005b6104aa915060203d6020116101f6576101e881836108be565b82610431565b631f2a200560e01b5f5260045ffd5b346100db5760203660031901126100db576104d8610887565b6002546001600160a01b03163303610515576001600160a01b03168015610208576bffffffffffffffffffffffff60a01b60015416176001555f80f35b637bfa4b9f60e01b5f5260045ffd5b346100db5760203660031901126100db5761053d610887565b6002546001600160a01b03169033829003610515576001600160a01b031690811561020857600380546001600160a01b031916831790557fb4d7bcb4d9a5d6ef6e827e3b1554e5a2578ad9ca843903d42b05d08bfa3458945f80a3005b346100db5760403660031901126100db576105b3610887565b60015460243591906001600160a01b031633036102175760018060a01b031690815f5260046020528060405f20541061062e5760207fc1bcf241560b7da56189cf02ba2c78298ad5afb7dd45b8a47e3c6930b389a23091835f526004825260405f2061062082825461089d565b90556102a78160055461089d565b905f52600460205260405f205463cf47918160e01b5f5260045260245260445ffd5b346100db575f3660031901126100db576001546040516001600160a01b039091168152602090f35b346100db5760203660031901126100db57600435610694610919565b80156104b057335f5260046020528060405f20541061078757335f52600460205260405f206106c482825461089d565b90556106d28160055461089d565b60055560405163a9059cbb60e01b8152336004820152602481018290526020816044815f6001600160a01b037f0000000000000000000000000000000000000000000000000000000000000000165af19081156101fd575f91610768575b50156101bf576040519081527f7084f5476618d8e60b11ef0d7d3f06914655adb8793e28ff7f018d4c76d505d560203392a260015f55005b610781915060203d6020116101f6576101e881836108be565b82610730565b335f52600460205260405f205463cf47918160e01b5f5260045260245260445ffd5b346100db5760203660031901126100db576001600160a01b036107ca610887565b165f526004602052602060405f2054604051908152f35b346100db575f3660031901126100db576003546040516001600160a01b039091168152602090f35b346100db575f3660031901126100db576003546001600160a01b038116903382900361087857600280546001600160a01b0319808216851790925591166003556001600160a01b03167ff8ccb027dfcd135e000e9d45e6cc2d662578a8825d4c45b5e32e0adf67e79ec65f80a3005b63058d9a1b60e01b5f5260045ffd5b600435906001600160a01b03821682036100db57565b919082039182116108aa57565b634e487b7160e01b5f52601160045260245ffd5b90601f8019910116810190811067ffffffffffffffff8211176108e057604052565b634e487b7160e01b5f52604160045260245ffd5b908160209103126100db575180151581036100db5790565b919082018092116108aa57565b60025f54146109285760025f55565b60405162461bcd60e51b815260206004820152601f60248201527f5265656e7472616e637947756172643a207265656e7472616e742063616c6c006044820152606490fdfea26469706673582212200a162b97bbb600dd33276a00dba56f492e496a814e67456e43edf9aae7a6cdc364736f6c634300082100330000000000000000000000008f86403a4de0bb5791fa46b8e795c547942fe4cf000000000000000000000000f39fd6e51aad88f6f4ce6ab8827279cfffb92266",
        "nonce": "0x25a",
        "chainId": "0xa455"
      },
      "additionalContracts": [],
      "isFixedGasLimit": false
    },
    {
      "hash": "0xd0a13ae824272ed65673159602d15deeb28d34561c5df26064774a92e738e1fc",
      "transactionType": "CREATE",
      "contractName": "PerpEngine",
      "contractAddress": "0x084815d1330ecc3ef94193a19ec222c0c73dff2d",
      "function": null,
      "arguments": [
        "0x82BBAA3B0982D88741B275aE1752DB85CAfe3c65",
        "0xAE246E208ea35B3F23dE72b697D47044FC594D5F",
        "0xa4d0806d597146df93796A38435ABB2a3cb96677",
        "0x809d550fca64d94Bd9F66E60752A544199cfAC3D",
        "0xf39Fd6e51aad88F6F4ce6aB8827279cffFb92266"
      ],
      "transaction": {
        "from": "0xf39fd6e51aad88f6f4ce6ab8827279cfffb92266",
        "gas": "0x26e66b",
        "value": "0x0",
        "input": "0x610100346101af57601f61237d38819003918201601f19168301916001600160401b038311848410176101b35780849260a0946040528339810103126101af57610048816101c7565b90610055602082016101c7565b91610062604083016101c7565b61007a6080610073606086016101c7565b94016101c7565b60015f556001600160a01b039092169384156101a0576001600160a01b03169081156101a0576001600160a01b03169182156101a0576001600160a01b038416156101a0576001600160a01b03169384156101a05760805260a05260c05260e052600180546001600160a01b0319169190911790556040516121a190816101dc823960805181818161012c015281816104bc01528181610e4901528181611f330152612090015260a0518181816101d8015281816103c001528181610a8b01528181610f520152818161165701528181611a4c01528181611c0b0152611e3c015260c0518181816102f4015281816109bf01528181610bfd01528181610eb6015281816119c00152611b7c015260e05181818161057501528181610d0001526111090152f35b63d92e233d60e01b5f5260045ffd5b5f80fd5b634e487b7160e01b5f52604160045260245ffd5b51906001600160a01b03821682036101af5756fe60806040526004361015610011575f80fd5b5f5f3560e01c80630e18b6811461178457806316c38b3c14611735578063229247731461157e578063249d39e91461156157806326782247146115385780633dc8f14414610d715780635838bff714610d555780635c975abb14610d2f5780636052970c14610cea57806371a5c55414610cc257806375829def14610c2c5780637dc0d1d014610be757806383c666dc14610bb75780639185f59814610b9b578063a126d60114610974578063b1283e7714610903578063bcbaf48714610295578063c1be667714610207578063cb4c86b7146101c2578063ec979082146101a4578063ecd1dae614610187578063f851a4401461015e5763fbfa77cf14610117575f80fd5b3461015b578060031936011261015b576040517f00000000000000000000000000000000000000000000000000000000000000006001600160a01b03168152602090f35b80fd5b503461015b578060031936011261015b576001546040516001600160a01b039091168152602090f35b503461015b578060031936011261015b5760206040516101f48152f35b503461015b578060031936011261015b576020600354604051908152f35b503461015b578060031936011261015b576040517f00000000000000000000000000000000000000000000000000000000000000006001600160a01b03168152602090f35b503461015b57604036600319011261015b5760e0906040906001600160a01b0361022f611802565b16815260046020528181206024358252602052208054906001810154906002810154600382015490600560048401549301549360ff604051968181161515885260081c161515602087015260408601526060850152608084015260a083015260c0820152f35b503461015b57604036600319011261015b576102af611802565b6024359060ff60025460a01c166108f4576102c8611d0a565b60018060a01b038116908184526004602052604084208385526020526040842060ff815416156108e5577f00000000000000000000000000000000000000000000000000000000000000006001600160a01b03169161032685611818565b5054926040519363832321bf60e01b85526004850152602084602481845afa93841561073d5787946108b1575b506020600161036188611818565b50015460246040518094819363832321bf60e01b835260048301525afa90811561073d57879161087e575b506040516248537360e31b8152600481018790526024810185905260448101919091526020816064818a6001600160a01b037f0000000000000000000000000000000000000000000000000000000000000000165af1801561073d5761084b575b506103f9838683611dc5565b90926104126104088386611956565b6003830154611b10565b90888213908115610844576127108302908382046127101484151715610830576001015461043f9161186a565b60c881101561081957508589915f1461080a5750506101f48102908082046101f414901517156107f6578488939261271061047e9304955b8985611ec0565b826104ba575b5050506040519081527fa457abeae7105eb8bccbb20968069d940e939bc0c8d8b9c2c13aaed4755e68c360203392a46001815580f35b7f00000000000000000000000000000000000000000000000000000000000000006001600160a01b031690813b156107f2576040516331b5f13d60e11b81526001600160a01b0391909116600482015260248101849052828160448183865af19081156107e75783916107d2575b5050803b156107ce57604051637a040c5b60e11b8152306004820152602481018490529082908290604490829084905af180156107c3576107aa575b505060405163119e5bf360e01b81527f00000000000000000000000000000000000000000000000000000000000000006001600160a01b03811691602081600481865afa90811561079f578891610770575b5060405163095ea7b360e01b81526004810184905260248101899052906001600160a01b03166020826044818c855af19081156107655761063d9361060687936020958d91610748575b506118e0565b60405163095ea7b360e01b81526001600160a01b0390911660048201526024810192909252909283919082908b9082906044820190565b03925af190811561073d57879161070e575b50156106ca576040516364d6def960e01b815260048101929092523360248301526060908290604490829089905af180156106bf57610690575b8481610484565b6106b19060603d6060116106b8575b6106a98183611848565b81019061192b565b5050610689565b503d61069f565b6040513d87823e3d90fd5b606460405162461bcd60e51b815260206004820152602060248201527f50657270456e67696e653a20617070726f766520626f6e7573206661696c65646044820152fd5b610730915060203d602011610736575b6107288183611848565b8101906118c8565b5f61064f565b503d61071e565b6040513d89823e3d90fd5b61075f9150863d8811610736576107288183611848565b5f610600565b6040513d8b823e3d90fd5b610792915060203d602011610798575b61078a8183611848565b8101906118a9565b5f6105b6565b503d610780565b6040513d8a823e3d90fd5b816107b491611848565b6107bf57845f610564565b8480fd5b6040513d84823e3d90fd5b5080fd5b816107dc91611848565b6107ce57815f610528565b6040513d85823e3d90fd5b8280fd5b634e487b7160e01b88526011600452602488fd5b90939261047e92508495610477565b6301f7d11160e21b8a5260045260c8602452604489fd5b634e487b7160e01b8b52601160045260248bfd5b508861043f565b6020813d602011610876575b8161086460209383611848565b8101031261087257516103ed565b5f80fd5b3d9150610857565b90506020813d6020116108a9575b8161089960209383611848565b810103126108725751602061038c565b3d915061088c565b9093506020813d6020116108dd575b816108cd60209383611848565b810103126108725751925f610353565b3d91506108c0565b63556729af60e01b8552600485fd5b6313d0ff5960e31b8352600483fd5b503461015b57602036600319011261015b576004359060035482101561015b5760c061092e83611818565b50805490600181015490600281015460ff6003830154169060056004840154930154936040519586526020860152604085015215156060840152608083015260a0820152f35b503461015b57602036600319011261015b5760043560ff60025460a01c16610b8c5761099e611d0a565b33825260046020526040822081835260205260ff60408320541615610b7d577f00000000000000000000000000000000000000000000000000000000000000006001600160a01b0316906109f181611818565b5054906040519163832321bf60e01b83526004830152602082602481865afa918215610b09578492610b49575b5060206001610a2c83611818565b50015460246040518096819363832321bf60e01b835260048301525afa928315610b09578493610b14575b506040516248537360e31b815260048101829052602481018390526044810193909352602083606481876001600160a01b037f0000000000000000000000000000000000000000000000000000000000000000165af18015610b0957610ad6575b610acf9250610ac8828233611dc5565b9133611ec0565b6001815580f35b6020833d602011610b01575b81610aef60209383611848565b8101031261087257610acf9250610ab8565b3d9150610ae2565b6040513d86823e3d90fd5b92506020833d602011610b41575b81610b2f60209383611848565b81010312610872579151916020610a57565b3d9150610b22565b9091506020813d602011610b75575b81610b6560209383611848565b810103126108725751905f610a1e565b3d9150610b58565b63556729af60e01b8252600482fd5b6313d0ff5960e31b8252600482fd5b503461015b578060031936011261015b576020604051600a8152f35b503461015b57604036600319011261015b576020610bdf610bd6611802565b60243590611b2b565b604051908152f35b503461015b578060031936011261015b576040517f00000000000000000000000000000000000000000000000000000000000000006001600160a01b03168152602090f35b503461015b57602036600319011261015b57610c46611802565b6001546001600160a01b03169033829003610cb3576001600160a01b0316908115610ca457600280546001600160a01b031916831790557fb4d7bcb4d9a5d6ef6e827e3b1554e5a2578ad9ca843903d42b05d08bfa3458948380a380f35b63d92e233d60e01b8352600483fd5b637bfa4b9f60e01b8352600483fd5b503461015b57604036600319011261015b576020610bdf610ce1611802565b6024359061196e565b503461015b578060031936011261015b576040517f00000000000000000000000000000000000000000000000000000000000000006001600160a01b03168152602090f35b503461015b578060031936011261015b57602060ff60025460a01c166040519015158152f35b503461015b578060031936011261015b57602060405160c88152f35b503461015b57608036600319011261015b5760443590602435821515600435818503611534576064359060ff60025460a01c1661152557610db0611d0a565b83159283801561151d575b61150e57610dc882611818565b509360ff600386015416156114ff57338752600460205260408720838852602052604087209060ff8254166114f05760028601548086028681048214871517156114dc5788116114bc5750600a870290878204600a1417156107f657612710900495610e348786611888565b6040516327e235e360e01b81523360048201527f00000000000000000000000000000000000000000000000000000000000000006001600160a01b03169791906020816024818c5afa90811561135b579082918c91611487575b50106114125750805460405163832321bf60e01b81526004810191909152989997988a9890937f00000000000000000000000000000000000000000000000000000000000000006001600160a01b0316602086602481845afa95861561135b578b966113db575b506020600185015460246040518094819363832321bf60e01b835260048301525afa90811561135b578b916113a6575b506040516248537360e31b8152600481018990526024810187905260448101919091526001600160a01b037f000000000000000000000000000000000000000000000000000000000000000016906020816064818f865af1801561139b57611366575b5060206024916001845461ff008b60081b169061ffff1916171784558660018501558760028501558a6003850155604051928380926313778db960e11b82528c60048301525afa90811561135b578b91611324575b5060048201556005018690551561130f57600401610ffc828254611888565b90555b604051928352602083015283604083015260608201527f5cf8fa4a8e333990018876ad3a82065e68b3859d46c3198b692b77fc3043808b60803392a3813b156107f2576040516331b5f13d60e11b81523360048201526024810191909152828160448183865af19081156107e75783916112fa575b505082611084575b506001815580f35b803b156107ce576040516331b5f13d60e11b815233600482015260248101849052828160448183865af19081156107e75783916112e5575b5050803b156107ce57604051637a040c5b60e11b8152306004820152602481018490529082908290604490829084905af180156107c3576112d0575b505060405163119e5bf360e01b81527f00000000000000000000000000000000000000000000000000000000000000006001600160a01b03811691602081600481865afa9081156106bf5785916112b1575b5060405163095ea7b360e01b81526004810184905260248101869052906001600160a01b031660208260448189855af19081156112a6576111d09361119987936020958a9161074857506118e0565b60405163095ea7b360e01b81526001600160a01b039091166004820152602481019290925290928391908290889082906044820190565b03925af1908115610b09578491611287575b5015611242576040516364d6def960e01b815260048101929092523060248301526060908290604490829086905af180156107c357611223575b818161107c565b61123b9060603d6060116106b8576106a98183611848565b505061121c565b60405162461bcd60e51b815260206004820152601e60248201527f50657270456e67696e653a20617070726f766520666565206661696c656400006044820152606490fd5b6112a0915060203d602011610736576107288183611848565b5f6111e2565b6040513d88823e3d90fd5b6112ca915060203d6020116107985761078a8183611848565b5f61114a565b816112da91611848565b6107ce57815f6110f8565b816112ef91611848565b6107ce57815f6110bc565b8161130491611848565b6107ce57815f611074565b60050161131d828254611888565b9055610fff565b9a505060208a3d602011611353575b8161134060209383611848565b810103126108725798518b999087610fdd565b3d9150611333565b6040513d8d823e3d90fd5b9a5060208b3d602011611393575b8161138160209383611848565b81010312610872578c9a506020610f88565b3d9150611374565b6040513d8e823e3d90fd5b9a505060208a3d6020116113d3575b816113c260209383611848565b81010312610872578b99515f610f25565b3d91506113b5565b9a50945060208a3d60201161140a575b816113f860209383611848565b81010312610872578b9951945f610ef5565b3d91506113eb565b6040516327e235e360e01b8152336004820152908a906020836024818d5afa80156107c3578290611454575b633af8647b60e01b835260045260245260449150fd5b506020833d60201161147f575b8161146e60209383611848565b81010312610872576044925161143e565b3d9150611461565b9150506020813d6020116114b4575b816114a360209383611848565b81010312610872578190515f610e8e565b3d9150611496565b886044916114ca888b61186a565b633b7b1e4b60e01b8352600452602452fd5b634e487b7160e01b8a52601160045260248afd5b631f19c11d60e01b8852600488fd5b635a90bb8d60e11b8752600487fd5b631f2a200560e01b8652600486fd5b508215610dbb565b6313d0ff5960e31b8552600485fd5b8380fd5b503461015b578060031936011261015b576002546040516001600160a01b039091168152602090f35b503461015b578060031936011261015b5760206040516127108152f35b346108725760603660031901126108725760015460043590604435906001600160a01b03163303611726576003549060405160c0810181811067ffffffffffffffff821117611712576040528381526020810190602435825260408101838152606082016001815260808301905f825260a08401925f845268010000000000000000881015611712576001880160035561161788611818565b9690966116ff57600595518755516001870155516002860155600385019051151560ff801983541691161790555160048401555191015560018060a01b037f000000000000000000000000000000000000000000000000000000000000000016803b15610872575f809160246040518094819363f11db84560e01b83528860048401525af180156116f45760209484937ff7154dd385fd97f5acd402bbddfc43353a65d67ed869dc6e507a9f99d6a2040d936040936116e4575b50825191825286820152a2604051908152f35b5f6116ee91611848565b5f6116d1565b6040513d5f823e3d90fd5b634e487b7160e01b5f525f60045260245ffd5b634e487b7160e01b5f52604160045260245ffd5b637bfa4b9f60e01b5f5260045ffd5b3461087257602036600319011261087257600435801515809103610872576001546001600160a01b03163303611726576002805460ff60a01b191660a09290921b60ff60a01b16919091179055005b34610872575f366003190112610872576002546001600160a01b03811690338290036117f357600180546001600160a01b0319808216851790925591166002556001600160a01b03167ff8ccb027dfcd135e000e9d45e6cc2d662578a8825d4c45b5e32e0adf67e79ec65f80a3005b63058d9a1b60e01b5f5260045ffd5b600435906001600160a01b038216820361087257565b6003548110156118345760035f52600660205f20910201905f90565b634e487b7160e01b5f52603260045260245ffd5b90601f8019910116810190811067ffffffffffffffff82111761171257604052565b8115611874570490565b634e487b7160e01b5f52601260045260245ffd5b9190820180921161189557565b634e487b7160e01b5f52601160045260245ffd5b9081602091031261087257516001600160a01b03811681036108725790565b90816020910312610872575180151581036108725790565b156118e757565b606460405162461bcd60e51b815260206004820152602060248201527f50657270456e67696e653a20617070726f7665207265736574206661696c65646044820152fd5b90816060910312610872578051916040602083015192015190565b600160ff1b8114611895575f0390565b81810392915f13801582851316918412161761189557565b60018060a01b03165f52600460205260405f20815f5260205260405f2080549060ff821615611b09576119a083611818565b505460405163832321bf60e01b81526004810191909152906020826024817f00000000000000000000000000000000000000000000000000000000000000006001600160a01b03165afa9182156116f4575f92611ad4575b5060ff611a0760209383611d5e565b9360081c1615611abf5760046001820154915b01546040516345eab49560e01b8152600481019290925260248201526044810193909352826064816001600160a01b037f0000000000000000000000000000000000000000000000000000000000000000165afa9081156116f4575f91611a89575b611a869250611956565b90565b90506020823d602011611ab7575b81611aa460209383611848565b8101031261087257611a86915190611a7c565b3d9150611a97565b6004611ace6001830154611946565b91611a1a565b91506020823d602011611b01575b81611aef60209383611848565b810103126108725790519060ff6119f8565b3d9150611ae2565b5050505f90565b9190915f838201938412911290801582169115161761189557565b60018060a01b03165f52600460205260405f20815f5260205260405f2090815460ff811615611d0257611b5d82611818565b505460405163832321bf60e01b815260048101919091526020816024817f00000000000000000000000000000000000000000000000000000000000000006001600160a01b03165afa9081156116f4575f91611cce575b50611bc160ff9185611d5e565b9160081c1615611cba57602060018401545b6004858101546040516345eab49560e01b81529182019290925260248101919091526044810193909352826064816001600160a01b037f0000000000000000000000000000000000000000000000000000000000000000165afa9182156116f4575f92611c84575b5090611c4e611c53926003850154611b10565b611956565b5f811315611c7e576127108102908082046127101490151715611895576001611a869201549061186a565b50505f90565b91506020823d602011611cb2575b81611c9f60209383611848565b8101031261087257905190611c4e611c3b565b3d9150611c92565b6020611cc96001850154611946565b611bd3565b90506020813d602011611cfa575b81611ce960209383611848565b810103126108725751611bc1611bb4565b3d9150611cdc565b5050505f1990565b60025f5414611d195760025f55565b60405162461bcd60e51b815260206004820152601f60248201527f5265656e7472616e637947756172643a207265656e7472616e742063616c6c006044820152606490fd5b90611d6e60028301548092611956565b600183015480820292915f8212600160ff1b82141661189557818405149015171561189557801561187457600160ff1b82145f198214166118955760ff9105915460081c165f14611dbc5790565b611a8690611946565b6001600160a01b03165f90815260046020908152604080832084845282529091209392611df29085611d5e565b9360ff815460081c165f14611e9e5760046001820154915b01546040516345eab49560e01b8152600481019290925260248201526044810192909252816064816001600160a01b037f0000000000000000000000000000000000000000000000000000000000000000165afa9081156116f4575f91611e6f575090565b90506020813d602011611e96575b81611e8a60209383611848565b81010312610872575190565b3d9150611e7d565b6004611ead6001830154611946565b91611e0a565b9190820391821161189557565b93929190925f9460018060a01b03811693845f52600460205260405f20865f52602052611f1f60405f2091611ef488611818565b50835460081c60ff161561215057611f16600460018601549201918254611eb3565b90555b85611956565b86865f831261203d575050600391909101547f00000000000000000000000000000000000000000000000000000000000000006001600160a01b031691611f6591611888565b91813b156120395760405163ef6506db60e01b81526001600160a01b03919091166004820152602481019290925286908290604490829084905af180156112a6579186869492869461201b575b50507f16783b3f0676d6e63220b161cedd5415bd909d2f96353db363fbd217a00971b4916040915b82519182526020820152a382526004602052604082209082526020526005604082208281558260018201558260028201558260038201558260048201550155565b8193955061202a929450611848565b6107bf5783918391865f611fb2565b8780fd5b94929161204f60039197959297611946565b92015491828110612088575b5050507f16783b3f0676d6e63220b161cedd5415bd909d2f96353db363fbd217a00971b491604091611fda565b9395509193507f00000000000000000000000000000000000000000000000000000000000000006001600160a01b0316926120c291611eb3565b823b156108725760405163ef6506db60e01b81526001600160a01b039290921660048301526024820152905f908290604490829084905af180156116f457612111575b9183918380879561205b565b83919550604085936121445f7f16783b3f0676d6e63220b161cedd5415bd909d2f96353db363fbd217a00971b494611848565b5f979350935050612105565b612164600560018601549201918254611eb3565b9055611f1956fea2646970667358221220826b99e74fc72ce07b9239e046643281c848a461e280e43427932ce6d077fe0a64736f6c6343000821003300000000000000000000000082bbaa3b0982d88741b275ae1752db85cafe3c65000000000000000000000000ae246e208ea35b3f23de72b697d47044fc594d5f000000000000000000000000a4d0806d597146df93796a38435abb2a3cb96677000000000000000000000000809d550fca64d94bd9f66e60752a544199cfac3d000000000000000000000000f39fd6e51aad88f6f4ce6ab8827279cfffb92266",
        "nonce": "0x25b",
        "chainId": "0xa455"
      },
      "additionalContracts": [],
      "isFixedGasLimit": false
    },
    {
      "hash": "0x12f4737169cb9697bc719a8c2f464e6701c9d9a9ac4d7a63db384e606bc996f5",
      "transactionType": "CALL",
      "contractName": "FundingRate",
      "contractAddress": "0xae246e208ea35b3f23de72b697d47044fc594d5f",
      "function": "setPerpEngine(address)",
      "arguments": [
        "0x084815D1330eCC3eF94193a19Ec222C0C73dFf2d"
      ],
      "transaction": {
        "from": "0xf39fd6e51aad88f6f4ce6ab8827279cfffb92266",
        "to": "0xae246e208ea35b3f23de72b697d47044fc594d5f",
        "gas": "0x10729",
        "value": "0x0",
        "input": "0xb619daf7000000000000000000000000084815d1330ecc3ef94193a19ec222c0c73dff2d",
        "nonce": "0x25c",
        "chainId": "0xa455"
      },
      "additionalContracts": [],
      "isFixedGasLimit": false
    },
    {
      "hash": "0xdc2a3ee3efdcee19b18066c5e06d793b388ea857620acee2f325c806625de85d",
      "transactionType": "CALL",
      "contractName": "MarginVault",
      "contractAddress": "0x82bbaa3b0982d88741b275ae1752db85cafe3c65",
      "function": "setPerpEngine(address)",
      "arguments": [
        "0x084815D1330eCC3eF94193a19Ec222C0C73dFf2d"
      ],
      "transaction": {
        "from": "0xf39fd6e51aad88f6f4ce6ab8827279cfffb92266",
        "to": "0x82bbaa3b0982d88741b275ae1752db85cafe3c65",
        "gas": "0x10743",
        "value": "0x0",
        "input": "0xb619daf7000000000000000000000000084815d1330ecc3ef94193a19ec222c0c73dff2d",
        "nonce": "0x25d",
        "chainId": "0xa455"
      },
      "additionalContracts": [],
      "isFixedGasLimit": false
    },
    {
      "hash": "0x1168f7b4727c551dccef3aac7e9a30b3a539fae782504b15fe8b4d9435ec7861",
      "transactionType": "CALL",
      "contractName": "PerpPriceOracle",
      "contractAddress": "0xa4d0806d597146df93796a38435abb2a3cb96677",
      "function": "registerMarket(bytes32)",
      "arguments": [
        "0xe98e2830be1a7e4156d656a7505e65d08c67660dc618072422e9c78053c261e9"
      ],
      "transaction": {
        "from": "0xf39fd6e51aad88f6f4ce6ab8827279cfffb92266",
        "to": "0xa4d0806d597146df93796a38435abb2a3cb96677",
        "gas": "0x10d9b",
        "value": "0x0",
        "input": "0x0df1d5ede98e2830be1a7e4156d656a7505e65d08c67660dc618072422e9c78053c261e9",
        "nonce": "0x25e",
        "chainId": "0xa455"
      },
      "additionalContracts": [],
      "isFixedGasLimit": false
    },
    {
      "hash": "0x43834127a3747b281f184f97338ffd0e1c319af9f14f7f20b786b22b33a6fa78",
      "transactionType": "CALL",
      "contractName": "PerpPriceOracle",
      "contractAddress": "0xa4d0806d597146df93796a38435abb2a3cb96677",
      "function": "setManualPrice(bytes32,uint256,uint256)",
      "arguments": [
        "0xe98e2830be1a7e4156d656a7505e65d08c67660dc618072422e9c78053c261e9",
        "6500000000000",
        "6498000000000"
      ],
      "transaction": {
        "from": "0xf39fd6e51aad88f6f4ce6ab8827279cfffb92266",
        "to": "0xa4d0806d597146df93796a38435abb2a3cb96677",
        "gas": "0x29fb4",
        "value": "0x0",
        "input": "0xf229fecee98e2830be1a7e4156d656a7505e65d08c67660dc618072422e9c78053c261e9000000000000000000000000000000000000000000000000000005e96630e800000000000000000000000000000000000000000000000000000005e8eefb5400",
        "nonce": "0x25f",
        "chainId": "0xa455"
      },
      "additionalContracts": [],
      "isFixedGasLimit": false
    },
    {
      "hash": "0x7797a99e3aed6f0e02729b743d65bf20323ed0ce87891b3c0ec1010f796398a4",
      "transactionType": "CALL",
      "contractName": "PerpEngine",
      "contractAddress": "0x084815d1330ecc3ef94193a19ec222c0c73dff2d",
      "function": "createMarket(bytes32,bytes32,uint256)",
      "arguments": [
        "0xe98e2830be1a7e4156d656a7505e65d08c67660dc618072422e9c78053c261e9",
        "0xe98e2830be1a7e4156d656a7505e65d08c67660dc618072422e9c78053c261e9",
        "50"
      ],
      "transaction": {
        "from": "0xf39fd6e51aad88f6f4ce6ab8827279cfffb92266",
        "to": "0x084815d1330ecc3ef94193a19ec222c0c73dff2d",
        "gas": "0x39e04",
        "value": "0x0",
        "input": "0x22924773e98e2830be1a7e4156d656a7505e65d08c67660dc618072422e9c78053c261e9e98e2830be1a7e4156d656a7505e65d08c67660dc618072422e9c78053c261e90000000000000000000000000000000000000000000000000000000000000032",
        "nonce": "0x260",
        "chainId": "0xa455"
      },
      "additionalContracts": [],
      "isFixedGasLimit": false
    },
    {
      "hash": "0xca713293be4a9edd3e10b448c4c7c7b633cfa941dbb403a9cc974a9caef5fdb1",
      "transactionType": "CALL",
      "contractName": "PerpPriceOracle",
      "contractAddress": "0xa4d0806d597146df93796a38435abb2a3cb96677",
      "function": "registerMarket(bytes32)",
      "arguments": [
        "0xaaaebeba3810b1e6b70781f14b2d72c1cb89c0b2b320c43bb67ff79f562f5ff4"
      ],
      "transaction": {
        "from": "0xf39fd6e51aad88f6f4ce6ab8827279cfffb92266",
        "to": "0xa4d0806d597146df93796a38435abb2a3cb96677",
        "gas": "0x10d9b",
        "value": "0x0",
        "input": "0x0df1d5edaaaebeba3810b1e6b70781f14b2d72c1cb89c0b2b320c43bb67ff79f562f5ff4",
        "nonce": "0x261",
        "chainId": "0xa455"
      },
      "additionalContracts": [],
      "isFixedGasLimit": false
    },
    {
      "hash": "0x7c3c0e5b1e3f27b9014d637b311389f9e4702f3f10d5c9dd541b0b541df026df",
      "transactionType": "CALL",
      "contractName": "PerpPriceOracle",
      "contractAddress": "0xa4d0806d597146df93796a38435abb2a3cb96677",
      "function": "setManualPrice(bytes32,uint256,uint256)",
      "arguments": [
        "0xaaaebeba3810b1e6b70781f14b2d72c1cb89c0b2b320c43bb67ff79f562f5ff4",
        "320000000000",
        "319800000000"
      ],
      "transaction": {
        "from": "0xf39fd6e51aad88f6f4ce6ab8827279cfffb92266",
        "to": "0xa4d0806d597146df93796a38435abb2a3cb96677",
        "gas": "0x29f91",
        "value": "0x0",
        "input": "0xf229feceaaaebeba3810b1e6b70781f14b2d72c1cb89c0b2b320c43bb67ff79f562f5ff40000000000000000000000000000000000000000000000000000004a817c80000000000000000000000000000000000000000000000000000000004a7590be00",
        "nonce": "0x262",
        "chainId": "0xa455"
      },
      "additionalContracts": [],
      "isFixedGasLimit": false
    },
    {
      "hash": "0xc38b3203d47884ef5d7487266eb6624d9c76d8d77cd294b43827acf270ac9604",
      "transactionType": "CALL",
      "contractName": "PerpEngine",
      "contractAddress": "0x084815d1330ecc3ef94193a19ec222c0c73dff2d",
      "function": "createMarket(bytes32,bytes32,uint256)",
      "arguments": [
        "0xaaaebeba3810b1e6b70781f14b2d72c1cb89c0b2b320c43bb67ff79f562f5ff4",
        "0xaaaebeba3810b1e6b70781f14b2d72c1cb89c0b2b320c43bb67ff79f562f5ff4",
        "50"
      ],
      "transaction": {
        "from": "0xf39fd6e51aad88f6f4ce6ab8827279cfffb92266",
        "to": "0x084815d1330ecc3ef94193a19ec222c0c73dff2d",
        "gas": "0x341c1",
        "value": "0x0",
        "input": "0x22924773aaaebeba3810b1e6b70781f14b2d72c1cb89c0b2b320c43bb67ff79f562f5ff4aaaebeba3810b1e6b70781f14b2d72c1cb89c0b2b320c43bb67ff79f562f5ff40000000000000000000000000000000000000000000000000000000000000032",
        "nonce": "0x263",
        "chainId": "0xa455"
      },
      "additionalContracts": [],
      "isFixedGasLimit": false
    },
    {
      "hash": "0xb4217b07f3b151493a1774e64ff673587157b9c509f1b2cd430f995993ee0f50",
      "transactionType": "CALL",
      "contractName": "PerpPriceOracle",
      "contractAddress": "0xa4d0806d597146df93796a38435abb2a3cb96677",
      "function": "registerMarket(bytes32)",
      "arguments": [
        "0x0a3ec4fc70eaf64faf6eeda4e9b2bd4742a785464053aa23afad8bd24650e86f"
      ],
      "transaction": {
        "from": "0xf39fd6e51aad88f6f4ce6ab8827279cfffb92266",
        "to": "0xa4d0806d597146df93796a38435abb2a3cb96677",
        "gas": "0x10d9b",
        "value": "0x0",
        "input": "0x0df1d5ed0a3ec4fc70eaf64faf6eeda4e9b2bd4742a785464053aa23afad8bd24650e86f",
        "nonce": "0x264",
        "chainId": "0xa455"
      },
      "additionalContracts": [],
      "isFixedGasLimit": false
    },
    {
      "hash": "0x61d0e1ce5602a86614d455054e7643cbe058e83250bebffc15ad5e16707db11e",
      "transactionType": "CALL",
      "contractName": "PerpPriceOracle",
      "contractAddress": "0xa4d0806d597146df93796a38435abb2a3cb96677",
      "function": "setManualPrice(bytes32,uint256,uint256)",
      "arguments": [
        "0x0a3ec4fc70eaf64faf6eeda4e9b2bd4742a785464053aa23afad8bd24650e86f",
        "18000000000",
        "17990000000"
      ],
      "transaction": {
        "from": "0xf39fd6e51aad88f6f4ce6ab8827279cfffb92266",
        "to": "0xa4d0806d597146df93796a38435abb2a3cb96677",
        "gas": "0x27a51",
        "value": "0x0",
        "input": "0xf229fece0a3ec4fc70eaf64faf6eeda4e9b2bd4742a785464053aa23afad8bd24650e86f0000000000000000000000000000000000000000000000000000000430e234000000000000000000000000000000000000000000000000000000000430499d80",
        "nonce": "0x265",
        "chainId": "0xa455"
      },
      "additionalContracts": [],
      "isFixedGasLimit": false
    },
    {
      "hash": "0x36192a91006509f2e4ddae8dcfb1d2e152bb84869ddb491ab9eb345e7b1a3387",
      "transactionType": "CALL",
      "contractName": "PerpEngine",
      "contractAddress": "0x084815d1330ecc3ef94193a19ec222c0c73dff2d",
      "function": "createMarket(bytes32,bytes32,uint256)",
      "arguments": [
        "0x0a3ec4fc70eaf64faf6eeda4e9b2bd4742a785464053aa23afad8bd24650e86f",
        "0x0a3ec4fc70eaf64faf6eeda4e9b2bd4742a785464053aa23afad8bd24650e86f",
        "25"
      ],
      "transaction": {
        "from": "0xf39fd6e51aad88f6f4ce6ab8827279cfffb92266",
        "to": "0x084815d1330ecc3ef94193a19ec222c0c73dff2d",
        "gas": "0x341c1",
        "value": "0x0",
        "input": "0x229247730a3ec4fc70eaf64faf6eeda4e9b2bd4742a785464053aa23afad8bd24650e86f0a3ec4fc70eaf64faf6eeda4e9b2bd4742a785464053aa23afad8bd24650e86f0000000000000000000000000000000000000000000000000000000000000019",
        "nonce": "0x266",
        "chainId": "0xa455"
      },
      "additionalContracts": [],
      "isFixedGasLimit": false
    },
    {
      "hash": "0x80eaab47b670b14c27d78a62bc6f02cef82dc5fe009a4e808d4d2c52de8735d4",
      "transactionType": "CALL",
      "contractName": "PerpPriceOracle",
      "contractAddress": "0xa4d0806d597146df93796a38435abb2a3cb96677",
      "function": "registerMarket(bytes32)",
      "arguments": [
        "0x3ed03c38e59dc60c7b69c2a4bf68f9214acd953252b5a90e8f5f59583e9bc3ae"
      ],
      "transaction": {
        "from": "0xf39fd6e51aad88f6f4ce6ab8827279cfffb92266",
        "to": "0xa4d0806d597146df93796a38435abb2a3cb96677",
        "gas": "0x10d9b",
        "value": "0x0",
        "input": "0x0df1d5ed3ed03c38e59dc60c7b69c2a4bf68f9214acd953252b5a90e8f5f59583e9bc3ae",
        "nonce": "0x267",
        "chainId": "0xa455"
      },
      "additionalContracts": [],
      "isFixedGasLimit": false
    },
    {
      "hash": "0x6df0070104a485201c64f386b1c2506a10d546cdf080f19a6783af92f2d030dd",
      "transactionType": "CALL",
      "contractName": "PerpPriceOracle",
      "contractAddress": "0xa4d0806d597146df93796a38435abb2a3cb96677",
      "function": "setManualPrice(bytes32,uint256,uint256)",
      "arguments": [
        "0x3ed03c38e59dc60c7b69c2a4bf68f9214acd953252b5a90e8f5f59583e9bc3ae",
        "60000000000",
        "59980000000"
      ],
      "transaction": {
        "from": "0xf39fd6e51aad88f6f4ce6ab8827279cfffb92266",
        "to": "0xa4d0806d597146df93796a38435abb2a3cb96677",
        "gas": "0x29f91",
        "value": "0x0",
        "input": "0xf229fece3ed03c38e59dc60c7b69c2a4bf68f9214acd953252b5a90e8f5f59583e9bc3ae0000000000000000000000000000000000000000000000000000000df84758000000000000000000000000000000000000000000000000000000000df7162b00",
        "nonce": "0x268",
        "chainId": "0xa455"
      },
      "additionalContracts": [],
      "isFixedGasLimit": false
    },
    {
      "hash": "0xee73b11fe8bc10c323bac2c9970aadbc80bc07411d47d7630acca740825bd8af",
      "transactionType": "CALL",
      "contractName": "PerpEngine",
      "contractAddress": "0x084815d1330ecc3ef94193a19ec222c0c73dff2d",
      "function": "createMarket(bytes32,bytes32,uint256)",
      "arguments": [
        "0x3ed03c38e59dc60c7b69c2a4bf68f9214acd953252b5a90e8f5f59583e9bc3ae",
        "0x3ed03c38e59dc60c7b69c2a4bf68f9214acd953252b5a90e8f5f59583e9bc3ae",
        "25"
      ],
      "transaction": {
        "from": "0xf39fd6e51aad88f6f4ce6ab8827279cfffb92266",
        "to": "0x084815d1330ecc3ef94193a19ec222c0c73dff2d",
        "gas": "0x341c1",
        "value": "0x0",
        "input": "0x229247733ed03c38e59dc60c7b69c2a4bf68f9214acd953252b5a90e8f5f59583e9bc3ae3ed03c38e59dc60c7b69c2a4bf68f9214acd953252b5a90e8f5f59583e9bc3ae0000000000000000000000000000000000000000000000000000000000000019",
        "nonce": "0x269",
        "chainId": "0xa455"
      },
      "additionalContracts": [],
      "isFixedGasLimit": false
    },
    {
      "hash": "0xb54c02b2fc0dd6f076c1a026cdb510e4457646c577e9a3342281e2cb671f94e5",
      "transactionType": "CALL",
      "contractName": "PerpPriceOracle",
      "contractAddress": "0xa4d0806d597146df93796a38435abb2a3cb96677",
      "function": "registerMarket(bytes32)",
      "arguments": [
        "0xa6a7de01e8b7ba6a4a61c782a73188d808fc1f3cf5743fadb68a02ed884b594f"
      ],
      "transaction": {
        "from": "0xf39fd6e51aad88f6f4ce6ab8827279cfffb92266",
        "to": "0xa4d0806d597146df93796a38435abb2a3cb96677",
        "gas": "0x10d9b",
        "value": "0x0",
        "input": "0x0df1d5eda6a7de01e8b7ba6a4a61c782a73188d808fc1f3cf5743fadb68a02ed884b594f",
        "nonce": "0x26a",
        "chainId": "0xa455"
      },
      "additionalContracts": [],
      "isFixedGasLimit": false
    },
    {
      "hash": "0xca963434acaf9df8525bca9e6869c2e964b22cf661dc4708d09e088583180ce4",
      "transactionType": "CALL",
      "contractName": "PerpPriceOracle",
      "contractAddress": "0xa4d0806d597146df93796a38435abb2a3cb96677",
      "function": "setManualPrice(bytes32,uint256,uint256)",
      "arguments": [
        "0xa6a7de01e8b7ba6a4a61c782a73188d808fc1f3cf5743fadb68a02ed884b594f",
        "90000000",
        "89500000"
      ],
      "transaction": {
        "from": "0xf39fd6e51aad88f6f4ce6ab8827279cfffb92266",
        "to": "0xa4d0806d597146df93796a38435abb2a3cb96677",
        "gas": "0x29f91",
        "value": "0x0",
        "input": "0xf229fecea6a7de01e8b7ba6a4a61c782a73188d808fc1f3cf5743fadb68a02ed884b594f00000000000000000000000000000000000000000000000000000000055d4a80000000000000000000000000000000000000000000000000000000000555a960",
        "nonce": "0x26b",
        "chainId": "0xa455"
      },
      "additionalContracts": [],
      "isFixedGasLimit": false
    },
    {
      "hash": "0xdec17ab84b940893fe6e9a7a74b1a793ced316531ae801b3fc2315bcb676346e",
      "transactionType": "CALL",
      "contractName": "PerpEngine",
      "contractAddress": "0x084815d1330ecc3ef94193a19ec222c0c73dff2d",
      "function": "createMarket(bytes32,bytes32,uint256)",
      "arguments": [
        "0xa6a7de01e8b7ba6a4a61c782a73188d808fc1f3cf5743fadb68a02ed884b594f",
        "0xa6a7de01e8b7ba6a4a61c782a73188d808fc1f3cf5743fadb68a02ed884b594f",
        "20"
      ],
      "transaction": {
        "from": "0xf39fd6e51aad88f6f4ce6ab8827279cfffb92266",
        "to": "0x084815d1330ecc3ef94193a19ec222c0c73dff2d",
        "gas": "0x341c1",
        "value": "0x0",
        "input": "0x22924773a6a7de01e8b7ba6a4a61c782a73188d808fc1f3cf5743fadb68a02ed884b594fa6a7de01e8b7ba6a4a61c782a73188d808fc1f3cf5743fadb68a02ed884b594f0000000000000000000000000000000000000000000000000000000000000014",
        "nonce": "0x26c",
        "chainId": "0xa455"
      },
      "additionalContracts": [],
      "isFixedGasLimit": false
    },
    {
      "hash": "0xb5267d4afade17d24175839f008bff93b231a1b844948ed16158b95678a74640",
      "transactionType": "CALL",
      "contractName": "PerpPriceOracle",
      "contractAddress": "0xa4d0806d597146df93796a38435abb2a3cb96677",
      "function": "registerMarket(bytes32)",
      "arguments": [
        "0xc07524b7a4eecc2784fc7ac17ff2730f877f3cf7a2ceb4e2375fa40a103115d0"
      ],
      "transaction": {
        "from": "0xf39fd6e51aad88f6f4ce6ab8827279cfffb92266",
        "to": "0xa4d0806d597146df93796a38435abb2a3cb96677",
        "gas": "0x10d9b",
        "value": "0x0",
        "input": "0x0df1d5edc07524b7a4eecc2784fc7ac17ff2730f877f3cf7a2ceb4e2375fa40a103115d0",
        "nonce": "0x26d",
        "chainId": "0xa455"
      },
      "additionalContracts": [],
      "isFixedGasLimit": false
    },
    {
      "hash": "0x4f058aa04f81adbee9de74d3e17487b1d2ab6ace8d378a0ea170d95f990f8d4b",
      "transactionType": "CALL",
      "contractName": "PerpPriceOracle",
      "contractAddress": "0xa4d0806d597146df93796a38435abb2a3cb96677",
      "function": "setManualPrice(bytes32,uint256,uint256)",
      "arguments": [
        "0xc07524b7a4eecc2784fc7ac17ff2730f877f3cf7a2ceb4e2375fa40a103115d0",
        "120000000",
        "119800000"
      ],
      "transaction": {
        "from": "0xf39fd6e51aad88f6f4ce6ab8827279cfffb92266",
        "to": "0xa4d0806d597146df93796a38435abb2a3cb96677",
        "gas": "0x29f6e",
        "value": "0x0",
        "input": "0xf229fecec07524b7a4eecc2784fc7ac17ff2730f877f3cf7a2ceb4e2375fa40a103115d00000000000000000000000000000000000000000000000000000000007270e0000000000000000000000000000000000000000000000000000000000072400c0",
        "nonce": "0x26e",
        "chainId": "0xa455"
      },
      "additionalContracts": [],
      "isFixedGasLimit": false
    },
    {
      "hash": "0xf6c75725203858d555688bd4d02095c5a62c3c19a9a9f33319edaf75f047e570",
      "transactionType": "CALL",
      "contractName": "PerpEngine",
      "contractAddress": "0x084815d1330ecc3ef94193a19ec222c0c73dff2d",
      "function": "createMarket(bytes32,bytes32,uint256)",
      "arguments": [
        "0xc07524b7a4eecc2784fc7ac17ff2730f877f3cf7a2ceb4e2375fa40a103115d0",
        "0xc07524b7a4eecc2784fc7ac17ff2730f877f3cf7a2ceb4e2375fa40a103115d0",
        "20"
      ],
      "transaction": {
        "from": "0xf39fd6e51aad88f6f4ce6ab8827279cfffb92266",
        "to": "0x084815d1330ecc3ef94193a19ec222c0c73dff2d",
        "gas": "0x341c1",
        "value": "0x0",
        "input": "0x22924773c07524b7a4eecc2784fc7ac17ff2730f877f3cf7a2ceb4e2375fa40a103115d0c07524b7a4eecc2784fc7ac17ff2730f877f3cf7a2ceb4e2375fa40a103115d00000000000000000000000000000000000000000000000000000000000000014",
        "nonce": "0x26f",
        "chainId": "0xa455"
      },
      "additionalContracts": [],
      "isFixedGasLimit": false
    }
  ],
  "receipts": [
    {
      "status": "0x1",
      "cumulativeGasUsed": "0xdc1ae",
      "logs": [],
      "logsBloom": "0x00000000000000000000000000000000000000000000000000000000000000000000000000000000000000000000000000000000000000000000000000000000000000000000000000000000000000000000000000000000000000000000000000000000000000000000000000000000000000000000000000000000000000000000000000000000000000000000000000000000000000000000000000000000000000000000000000000000000000000000000000000000000000000000000000000000000000000000000000000000000000000000000000000000000000000000000000000000000000000000000000000000000000000000000000000000",
      "type": "0x0",
      "transactionHash": "0x1ec8de4b25824951c03b5cc43d432c9c3464b324d9f84fdaea9ede01e0051240",
      "transactionIndex": "0x0",
      "blockHash": "0xb00cac39cbb90f083f5985cbdc542eb5c6daa8a5e97354a687e65229fb99d446",
      "blockNumber": "0x13e92",
      "gasUsed": "0xdc1ae",
      "effectiveGasPrice": "0x3b9aca07",
      "blobGasPrice": "0x1",
      "from": "0xf39fd6e51aad88f6f4ce6ab8827279cfffb92266",
      "to": null,
      "contractAddress": "0xa4d0806d597146df93796a38435abb2a3cb96677",
      "blockTimestamp": 1778864880
    },
    {
      "status": "0x1",
      "cumulativeGasUsed": "0x13fce6",
      "logs": [],
      "logsBloom": "0x00000000000000000000000000000000000000000000000000000000000000000000000000000000000000000000000000000000000000000000000000000000000000000000000000000000000000000000000000000000000000000000000000000000000000000000000000000000000000000000000000000000000000000000000000000000000000000000000000000000000000000000000000000000000000000000000000000000000000000000000000000000000000000000000000000000000000000000000000000000000000000000000000000000000000000000000000000000000000000000000000000000000000000000000000000000",
      "type": "0x0",
      "transactionHash": "0x1f8ebe78f7cdef3201ffd404d173e31e65c3eeaf22950d4de292e43707fa45fc",
      "transactionIndex": "0x1",
      "blockHash": "0xb00cac39cbb90f083f5985cbdc542eb5c6daa8a5e97354a687e65229fb99d446",
      "blockNumber": "0x13e92",
      "gasUsed": "0x63b38",
      "effectiveGasPrice": "0x3b9aca07",
      "blobGasPrice": "0x1",
      "from": "0xf39fd6e51aad88f6f4ce6ab8827279cfffb92266",
      "to": null,
      "contractAddress": "0xae246e208ea35b3f23de72b697d47044fc594d5f",
      "blockTimestamp": 1778864880
    },
    {
      "status": "0x1",
      "cumulativeGasUsed": "0x1da85b",
      "logs": [],
      "logsBloom": "0x00000000000000000000000000000000000000000000000000000000000000000000000000000000000000000000000000000000000000000000000000000000000000000000000000000000000000000000000000000000000000000000000000000000000000000000000000000000000000000000000000000000000000000000000000000000000000000000000000000000000000000000000000000000000000000000000000000000000000000000000000000000000000000000000000000000000000000000000000000000000000000000000000000000000000000000000000000000000000000000000000000000000000000000000000000000",
      "type": "0x0",
      "transactionHash": "0x6df0070104a485201c64f386b1c2506a10d546cdf080f19a6783af92f2d030dd",
      "transactionIndex": "0x2",
      "blockHash": "0xb00cac39cbb90f083f5985cbdc542eb5c6daa8a5e97354a687e65229fb99d446",
      "blockNumber": "0x13e92",
      "gasUsed": "0x9ab75",
      "effectiveGasPrice": "0x3b9aca07",
      "blobGasPrice": "0x1",
      "from": "0xf39fd6e51aad88f6f4ce6ab8827279cfffb92266",
      "to": null,
      "contractAddress": "0x82bbaa3b0982d88741b275ae1752db85cafe3c65",
      "blockTimestamp": 1778864880
    },
    {
      "status": "0x1",
      "cumulativeGasUsed": "0x3b94ae",
      "logs": [],
      "logsBloom": "0x00000000000000000000000000000000000000000000000000000000000000000000000000000000000000000000000000000000000000000000000000000000000000000000000000000000000000000000000000000000000000000000000000000000000000000000000000000000000000000000000000000000000000000000000000000000000000000000000000000000000000000000000000000000000000000000000000000000000000000000000000000000000000000000000000000000000000000000000000000000000000000000000000000000000000000000000000000000000000000000000000000000000000000000000000000000",
      "type": "0x0",
      "transactionHash": "0x7a24244080a9a34ca18f1046a5f9414b5202469d8f53a64e05746b21f2ba3d4c",
      "transactionIndex": "0x3",
      "blockHash": "0xb00cac39cbb90f083f5985cbdc542eb5c6daa8a5e97354a687e65229fb99d446",
      "blockNumber": "0x13e92",
      "gasUsed": "0x1dec53",
      "effectiveGasPrice": "0x3b9aca07",
      "blobGasPrice": "0x1",
      "from": "0xf39fd6e51aad88f6f4ce6ab8827279cfffb92266",
      "to": null,
      "contractAddress": "0x084815d1330ecc3ef94193a19ec222c0c73dff2d",
      "blockTimestamp": 1778864880
    },
    {
      "status": "0x1",
      "cumulativeGasUsed": "0x3c489f",
      "logs": [],
      "logsBloom": "0x00000000000000000000000000000000000000000000000000000000000000000000000000000000000000000000000000000000000000000000000000000000000000000000000000000000000000000000000000000000000000000000000000000000000000000000000000000000000000000000000000000000000000000000000000000000000000000000000000000000000000000000000000000000000000000000000000000000000000000000000000000000000000000000000000000000000000000000000000000000000000000000000000000000000000000000000000000000000000000000000000000000000000000000000000000000",
      "type": "0x0",
      "transactionHash": "0xc38b3203d47884ef5d7487266eb6624d9c76d8d77cd294b43827acf270ac9604",
      "transactionIndex": "0x4",
      "blockHash": "0xb00cac39cbb90f083f5985cbdc542eb5c6daa8a5e97354a687e65229fb99d446",
      "blockNumber": "0x13e92",
      "gasUsed": "0xb3f1",
      "effectiveGasPrice": "0x3b9aca07",
      "blobGasPrice": "0x1",
      "from": "0xf39fd6e51aad88f6f4ce6ab8827279cfffb92266",
      "to": "0xae246e208ea35b3f23de72b697d47044fc594d5f",
      "contractAddress": null,
      "blockTimestamp": 1778864880
    },
    {
      "status": "0x1",
      "cumulativeGasUsed": "0x3cfca2",
      "logs": [],
      "logsBloom": "0x00000000000000000000000000000000000000000000000000000000000000000000000000000000000000000000000000000000000000000000000000000000000000000000000000000000000000000000000000000000000000000000000000000000000000000000000000000000000000000000000000000000000000000000000000000000000000000000000000000000000000000000000000000000000000000000000000000000000000000000000000000000000000000000000000000000000000000000000000000000000000000000000000000000000000000000000000000000000000000000000000000000000000000000000000000000",
      "type": "0x0",
      "transactionHash": "0xca713293be4a9edd3e10b448c4c7c7b633cfa941dbb403a9cc974a9caef5fdb1",
      "transactionIndex": "0x5",
      "blockHash": "0xb00cac39cbb90f083f5985cbdc542eb5c6daa8a5e97354a687e65229fb99d446",
      "blockNumber": "0x13e92",
      "gasUsed": "0xb403",
      "effectiveGasPrice": "0x3b9aca07",
      "blobGasPrice": "0x1",
      "from": "0xf39fd6e51aad88f6f4ce6ab8827279cfffb92266",
      "to": "0x82bbaa3b0982d88741b275ae1752db85cafe3c65",
      "contractAddress": null,
      "blockTimestamp": 1778864880
    },
    {
      "status": "0x1",
      "cumulativeGasUsed": "0x3db4fb",
      "logs": [
        {
          "address": "0xa4d0806d597146df93796a38435abb2a3cb96677",
          "topics": [
            "0xd4a2ffd4212ea97bb981aae1f4a20d5170df470d2ed811c1b393882bc1d9f0fa",
            "0xe98e2830be1a7e4156d656a7505e65d08c67660dc618072422e9c78053c261e9"
          ],
          "data": "0x",
          "blockHash": "0xb00cac39cbb90f083f5985cbdc542eb5c6daa8a5e97354a687e65229fb99d446",
          "blockNumber": "0x13e92",
          "blockTimestamp": "0x6a0752f0",
          "transactionHash": "0xf6c75725203858d555688bd4d02095c5a62c3c19a9a9f33319edaf75f047e570",
          "transactionIndex": "0x6",
          "logIndex": "0x0",
          "removed": false
        }
      ],
      "logsBloom": "0x00040000000000000000000000000000000000000000000000000000000000000000000000000000002000000000000000000000000000000000000000000000000000000000000000000000000000000000080000000000000000000000000000000000000000000000000000000000000000000000000000000000000000000000000000000000000000000000000000000000000000000000000000000000004000000000000000000000000000000000000000000000000000000000000000000000000000000000040000000000000000000000000000000000000000000000000000000200000500000000000000000000000000000000000000400000",
      "type": "0x0",
      "transactionHash": "0xf6c75725203858d555688bd4d02095c5a62c3c19a9a9f33319edaf75f047e570",
      "transactionIndex": "0x6",
      "blockHash": "0xb00cac39cbb90f083f5985cbdc542eb5c6daa8a5e97354a687e65229fb99d446",
      "blockNumber": "0x13e92",
      "gasUsed": "0xb859",
      "effectiveGasPrice": "0x3b9aca07",
      "blobGasPrice": "0x1",
      "from": "0xf39fd6e51aad88f6f4ce6ab8827279cfffb92266",
      "to": "0xa4d0806d597146df93796a38435abb2a3cb96677",
      "contractAddress": null,
      "blockTimestamp": 1778864880
    },
    {
      "status": "0x1",
      "cumulativeGasUsed": "0x3f8044",
      "logs": [
        {
          "address": "0xa4d0806d597146df93796a38435abb2a3cb96677",
          "topics": [
            "0xd1e0ff31b5a8e9db7a93db8b63d84e896cce257bc637e6d369f43178eedd98ce",
            "0xe98e2830be1a7e4156d656a7505e65d08c67660dc618072422e9c78053c261e9"
          ],
          "data": "0x000000000000000000000000000000000000000000000000000005e96630e800000000000000000000000000000000000000000000000000000005e8eefb5400",
          "blockHash": "0xb00cac39cbb90f083f5985cbdc542eb5c6daa8a5e97354a687e65229fb99d446",
          "blockNumber": "0x13e92",
          "blockTimestamp": "0x6a0752f0",
          "transactionHash": "0xdc2a3ee3efdcee19b18066c5e06d793b388ea857620acee2f325c806625de85d",
          "transactionIndex": "0x7",
          "logIndex": "0x1",
          "removed": false
        }
      ],
      "logsBloom": "0x00040000000000000000000000000000000000000000000000000000000000000000000000000000002000000000000000000000000000000000000000000000000000000000000000000000000000000000000000000000000000001000000000000000000000000000000000000000000000000000000000000000000000000001000000000000000000000000000000000000000000000000000000000000000000000000000000000000020000000000000000000000000000000000000000000000000000000000040000000000000000000000000000000000000000000000000000000200000100000000000000000000000000000000000000400000",
      "type": "0x0",
      "transactionHash": "0xdc2a3ee3efdcee19b18066c5e06d793b388ea857620acee2f325c806625de85d",
      "transactionIndex": "0x7",
      "blockHash": "0xb00cac39cbb90f083f5985cbdc542eb5c6daa8a5e97354a687e65229fb99d446",
      "blockNumber": "0x13e92",
      "gasUsed": "0x1cb49",
      "effectiveGasPrice": "0x3b9aca07",
      "blobGasPrice": "0x1",
      "from": "0xf39fd6e51aad88f6f4ce6ab8827279cfffb92266",
      "to": "0xa4d0806d597146df93796a38435abb2a3cb96677",
      "contractAddress": null,
      "blockTimestamp": 1778864880
    },
    {
      "status": "0x1",
      "cumulativeGasUsed": "0x421eb0",
      "logs": [
        {
          "address": "0x084815d1330ecc3ef94193a19ec222c0c73dff2d",
          "topics": [
            "0xf7154dd385fd97f5acd402bbddfc43353a65d67ed869dc6e507a9f99d6a2040d",
            "0x0000000000000000000000000000000000000000000000000000000000000000"
          ],
          "data": "0xe98e2830be1a7e4156d656a7505e65d08c67660dc618072422e9c78053c261e90000000000000000000000000000000000000000000000000000000000000032",
          "blockHash": "0xb00cac39cbb90f083f5985cbdc542eb5c6daa8a5e97354a687e65229fb99d446",
          "blockNumber": "0x13e92",
          "blockTimestamp": "0x6a0752f0",
          "transactionHash": "0x12f4737169cb9697bc719a8c2f464e6701c9d9a9ac4d7a63db384e606bc996f5",
          "transactionIndex": "0x8",
          "logIndex": "0x2",
          "removed": false
        }
      ],
      "logsBloom": "0x00000000000000000000000000400000000000000000000000000000000000000000000000000000000000000000000000000000000000000000000000000000000000000000000000000000000010200000000000000000000000000000000000000000020000000000000000000800000000000000000000000000000000000000000000000000000000000000000000000000000000000000000000004000000000000000000000000000000000000000000000000000000000000000000000800000000000000000000000000000000000000000000000000000000020000000000000000000000000000000040000000000000000000000000000000000",
      "type": "0x0",
      "transactionHash": "0x12f4737169cb9697bc719a8c2f464e6701c9d9a9ac4d7a63db384e606bc996f5",
      "transactionIndex": "0x8",
      "blockHash": "0xb00cac39cbb90f083f5985cbdc542eb5c6daa8a5e97354a687e65229fb99d446",
      "blockNumber": "0x13e92",
      "gasUsed": "0x29e6c",
      "effectiveGasPrice": "0x3b9aca07",
      "blobGasPrice": "0x1",
      "from": "0xf39fd6e51aad88f6f4ce6ab8827279cfffb92266",
      "to": "0x084815d1330ecc3ef94193a19ec222c0c73dff2d",
      "contractAddress": null,
      "blockTimestamp": 1778864880
    },
    {
      "status": "0x1",
      "cumulativeGasUsed": "0x42d709",
      "logs": [
        {
          "address": "0xa4d0806d597146df93796a38435abb2a3cb96677",
          "topics": [
            "0xd4a2ffd4212ea97bb981aae1f4a20d5170df470d2ed811c1b393882bc1d9f0fa",
            "0xaaaebeba3810b1e6b70781f14b2d72c1cb89c0b2b320c43bb67ff79f562f5ff4"
          ],
          "data": "0x",
          "blockHash": "0xb00cac39cbb90f083f5985cbdc542eb5c6daa8a5e97354a687e65229fb99d446",
          "blockNumber": "0x13e92",
          "blockTimestamp": "0x6a0752f0",
          "transactionHash": "0xb54c02b2fc0dd6f076c1a026cdb510e4457646c577e9a3342281e2cb671f94e5",
          "transactionIndex": "0x9",
          "logIndex": "0x3",
          "removed": false
        }
      ],
      "logsBloom": "0x00040000000000000000000000000000000000000000000000000000000000000000000000000000000000000000000000000000000000000000000000000000000000000000000000000000000000000000080000000000000000000000000000000000000000000000000000000000000000040000000000000000000000000000000000000000000000008000000000000000000000000000000000000000004000000000000000000000000000000000000000000000000000000000000000000000000000000000040000000000000000000000000000001000000000000000000000000200000400000000000000000000000000000000000000000000",
      "type": "0x0",
      "transactionHash": "0xb54c02b2fc0dd6f076c1a026cdb510e4457646c577e9a3342281e2cb671f94e5",
      "transactionIndex": "0x9",
      "blockHash": "0xb00cac39cbb90f083f5985cbdc542eb5c6daa8a5e97354a687e65229fb99d446",
      "blockNumber": "0x13e92",
      "gasUsed": "0xb859",
      "effectiveGasPrice": "0x3b9aca07",
      "blobGasPrice": "0x1",
      "from": "0xf39fd6e51aad88f6f4ce6ab8827279cfffb92266",
      "to": "0xa4d0806d597146df93796a38435abb2a3cb96677",
      "contractAddress": null,
      "blockTimestamp": 1778864880
    },
    {
      "status": "0x1",
      "cumulativeGasUsed": "0x44a23a",
      "logs": [
        {
          "address": "0xa4d0806d597146df93796a38435abb2a3cb96677",
          "topics": [
            "0xd1e0ff31b5a8e9db7a93db8b63d84e896cce257bc637e6d369f43178eedd98ce",
            "0xaaaebeba3810b1e6b70781f14b2d72c1cb89c0b2b320c43bb67ff79f562f5ff4"
          ],
          "data": "0x0000000000000000000000000000000000000000000000000000004a817c80000000000000000000000000000000000000000000000000000000004a7590be00",
          "blockHash": "0xb00cac39cbb90f083f5985cbdc542eb5c6daa8a5e97354a687e65229fb99d446",
          "blockNumber": "0x13e92",
          "blockTimestamp": "0x6a0752f0",
          "transactionHash": "0x43834127a3747b281f184f97338ffd0e1c319af9f14f7f20b786b22b33a6fa78",
          "transactionIndex": "0xa",
          "logIndex": "0x4",
          "removed": false
        }
      ],
      "logsBloom": "0x00040000000000000000000000000000000000000000000000000000000000000000000000000000000000000000000000000000000000000000000000000000000000000000000000000000000000000000000000000000000000001000000000000000000000000000000000000000000000040000000000000000000000000001000000000000000000008000000000000000000000000000000000000000000000000000000000000000020000000000000000000000000000000000000000000000000000000000040000000000000000000000000000001000000000000000000000000200000000000000000000000000000000000000000000000000",
      "type": "0x0",
      "transactionHash": "0x43834127a3747b281f184f97338ffd0e1c319af9f14f7f20b786b22b33a6fa78",
      "transactionIndex": "0xa",
      "blockHash": "0xb00cac39cbb90f083f5985cbdc542eb5c6daa8a5e97354a687e65229fb99d446",
      "blockNumber": "0x13e92",
      "gasUsed": "0x1cb31",
      "effectiveGasPrice": "0x3b9aca07",
      "blobGasPrice": "0x1",
      "from": "0xf39fd6e51aad88f6f4ce6ab8827279cfffb92266",
      "to": "0xa4d0806d597146df93796a38435abb2a3cb96677",
      "contractAddress": null,
      "blockTimestamp": 1778864880
    },
    {
      "status": "0x1",
      "cumulativeGasUsed": "0x46fdda",
      "logs": [
        {
          "address": "0x084815d1330ecc3ef94193a19ec222c0c73dff2d",
          "topics": [
            "0xf7154dd385fd97f5acd402bbddfc43353a65d67ed869dc6e507a9f99d6a2040d",
            "0x0000000000000000000000000000000000000000000000000000000000000001"
          ],
          "data": "0xaaaebeba3810b1e6b70781f14b2d72c1cb89c0b2b320c43bb67ff79f562f5ff40000000000000000000000000000000000000000000000000000000000000032",
          "blockHash": "0xb00cac39cbb90f083f5985cbdc542eb5c6daa8a5e97354a687e65229fb99d446",
          "blockNumber": "0x13e92",
          "blockTimestamp": "0x6a0752f0",
          "transactionHash": "0xd0a13ae824272ed65673159602d15deeb28d34561c5df26064774a92e738e1fc",
          "transactionIndex": "0xb",
          "logIndex": "0x5",
          "removed": false
        }
      ],
      "logsBloom": "0x00000000000000000000000000400000000000000000000000000000000000000000000000000000000000000000000000000000000000000000000000040000000000000000000000000000000010200000000000040000000000000000000000000000000000000000000000000000000000000000000000000000000000000000000000000000000000000000000000000000000000000000000000004000000000000000000000000000000000000000000000000000000000000000000000800000000000000000000000000000000000000000000000000000000040000000000000000000000000000000040000000000000000000000000000000000",
      "type": "0x0",
      "transactionHash": "0xd0a13ae824272ed65673159602d15deeb28d34561c5df26064774a92e738e1fc",
      "transactionIndex": "0xb",
      "blockHash": "0xb00cac39cbb90f083f5985cbdc542eb5c6daa8a5e97354a687e65229fb99d446",
      "blockNumber": "0x13e92",
      "gasUsed": "0x25ba0",
      "effectiveGasPrice": "0x3b9aca07",
      "blobGasPrice": "0x1",
      "from": "0xf39fd6e51aad88f6f4ce6ab8827279cfffb92266",
      "to": "0x084815d1330ecc3ef94193a19ec222c0c73dff2d",
      "contractAddress": null,
      "blockTimestamp": 1778864880
    },
    {
      "status": "0x1",
      "cumulativeGasUsed": "0x47b633",
      "logs": [
        {
          "address": "0xa4d0806d597146df93796a38435abb2a3cb96677",
          "topics": [
            "0xd4a2ffd4212ea97bb981aae1f4a20d5170df470d2ed811c1b393882bc1d9f0fa",
            "0x0a3ec4fc70eaf64faf6eeda4e9b2bd4742a785464053aa23afad8bd24650e86f"
          ],
          "data": "0x",
          "blockHash": "0xb00cac39cbb90f083f5985cbdc542eb5c6daa8a5e97354a687e65229fb99d446",
          "blockNumber": "0x13e92",
          "blockTimestamp": "0x6a0752f0",
          "transactionHash": "0xdec17ab84b940893fe6e9a7a74b1a793ced316531ae801b3fc2315bcb676346e",
          "transactionIndex": "0xc",
          "logIndex": "0x6",
          "removed": false
        }
      ],
      "logsBloom": "0x00040000000000000000000000000000000000000000000000000000000000000000000000000002000000000000000000000000000000000000000000000000000000000000000000000000000000000000080000000000000000000000000000000000000000000000000000000000000000000000000000000000000000000000000000000000000000000000000000000000000000000000000000000000004000000000000000000000000000000000000000000000000000000000000000000000000000000000040000000000000008000000000000000000000040000000000000000200000400000000000000000000000000000000000000000000",
      "type": "0x0",
      "transactionHash": "0xdec17ab84b940893fe6e9a7a74b1a793ced316531ae801b3fc2315bcb676346e",
      "transactionIndex": "0xc",
      "blockHash": "0xb00cac39cbb90f083f5985cbdc542eb5c6daa8a5e97354a687e65229fb99d446",
      "blockNumber": "0x13e92",
      "gasUsed": "0xb859",
      "effectiveGasPrice": "0x3b9aca07",
      "blobGasPrice": "0x1",
      "from": "0xf39fd6e51aad88f6f4ce6ab8827279cfffb92266",
      "to": "0xa4d0806d597146df93796a38435abb2a3cb96677",
      "contractAddress": null,
      "blockTimestamp": 1778864880
    },
    {
      "status": "0x1",
      "cumulativeGasUsed": "0x498170",
      "logs": [
        {
          "address": "0xa4d0806d597146df93796a38435abb2a3cb96677",
          "topics": [
            "0xd1e0ff31b5a8e9db7a93db8b63d84e896cce257bc637e6d369f43178eedd98ce",
            "0x0a3ec4fc70eaf64faf6eeda4e9b2bd4742a785464053aa23afad8bd24650e86f"
          ],
          "data": "0x0000000000000000000000000000000000000000000000000000000430e234000000000000000000000000000000000000000000000000000000000430499d80",
          "blockHash": "0xb00cac39cbb90f083f5985cbdc542eb5c6daa8a5e97354a687e65229fb99d446",
          "blockNumber": "0x13e92",
          "blockTimestamp": "0x6a0752f0",
          "transactionHash": "0x7c3c0e5b1e3f27b9014d637b311389f9e4702f3f10d5c9dd541b0b541df026df",
          "transactionIndex": "0xd",
          "logIndex": "0x7",
          "removed": false
        }
      ],
      "logsBloom": "0x00040000000000000000000000000000000000000000000000000000000000000000000000000002000000000000000000000000000000000000000000000000000000000000000000000000000000000000000000000000000000001000000000000000000000000000000000000000000000000000000000000000000000000001000000000000000000000000000000000000000000000000000000000000000000000000000000000000020000000000000000000000000000000000000000000000000000000000040000000000000008000000000000000000000040000000000000000200000000000000000000000000000000000000000000000000",
      "type": "0x0",
      "transactionHash": "0x7c3c0e5b1e3f27b9014d637b311389f9e4702f3f10d5c9dd541b0b541df026df",
      "transactionIndex": "0xd",
      "blockHash": "0xb00cac39cbb90f083f5985cbdc542eb5c6daa8a5e97354a687e65229fb99d446",
      "blockNumber": "0x13e92",
      "gasUsed": "0x1cb3d",
      "effectiveGasPrice": "0x3b9aca07",
      "blobGasPrice": "0x1",
      "from": "0xf39fd6e51aad88f6f4ce6ab8827279cfffb92266",
      "to": "0xa4d0806d597146df93796a38435abb2a3cb96677",
      "contractAddress": null,
      "blockTimestamp": 1778864880
    },
    {
      "status": "0x1",
      "cumulativeGasUsed": "0x4bdd10",
      "logs": [
        {
          "address": "0x084815d1330ecc3ef94193a19ec222c0c73dff2d",
          "topics": [
            "0xf7154dd385fd97f5acd402bbddfc43353a65d67ed869dc6e507a9f99d6a2040d",
            "0x0000000000000000000000000000000000000000000000000000000000000002"
          ],
          "data": "0x0a3ec4fc70eaf64faf6eeda4e9b2bd4742a785464053aa23afad8bd24650e86f0000000000000000000000000000000000000000000000000000000000000019",
          "blockHash": "0xb00cac39cbb90f083f5985cbdc542eb5c6daa8a5e97354a687e65229fb99d446",
          "blockNumber": "0x13e92",
          "blockTimestamp": "0x6a0752f0",
          "transactionHash": "0xb5267d4afade17d24175839f008bff93b231a1b844948ed16158b95678a74640",
          "transactionIndex": "0xe",
          "logIndex": "0x8",
          "removed": false
        }
      ],
      "logsBloom": "0x04000000000000000000000000400000000000000000000000000000000000000000000000000000000000000000000000000000000000000000000000000000000000000000000000000000000010200000000000000000000000000000000000000000000000000000000000000000000000000000000000000000000000000000000000000000000000000000000000000000000000000000000000004000000000000000000000000100000000000000000000000000000000000000000000800000000000000000000000000000000000000000000000000000000000000000000000000000000000000000040000000000008000000000000000000000",
      "type": "0x0",
      "transactionHash": "0xb5267d4afade17d24175839f008bff93b231a1b844948ed16158b95678a74640",
      "transactionIndex": "0xe",
      "blockHash": "0xb00cac39cbb90f083f5985cbdc542eb5c6daa8a5e97354a687e65229fb99d446",
      "blockNumber": "0x13e92",
      "gasUsed": "0x25ba0",
      "effectiveGasPrice": "0x3b9aca07",
      "blobGasPrice": "0x1",
      "from": "0xf39fd6e51aad88f6f4ce6ab8827279cfffb92266",
      "to": "0x084815d1330ecc3ef94193a19ec222c0c73dff2d",
      "contractAddress": null,
      "blockTimestamp": 1778864880
    },
    {
      "status": "0x1",
      "cumulativeGasUsed": "0x4c9569",
      "logs": [
        {
          "address": "0xa4d0806d597146df93796a38435abb2a3cb96677",
          "topics": [
            "0xd4a2ffd4212ea97bb981aae1f4a20d5170df470d2ed811c1b393882bc1d9f0fa",
            "0x3ed03c38e59dc60c7b69c2a4bf68f9214acd953252b5a90e8f5f59583e9bc3ae"
          ],
          "data": "0x",
          "blockHash": "0xb00cac39cbb90f083f5985cbdc542eb5c6daa8a5e97354a687e65229fb99d446",
          "blockNumber": "0x13e92",
          "blockTimestamp": "0x6a0752f0",
          "transactionHash": "0x4f058aa04f81adbee9de74d3e17487b1d2ab6ace8d378a0ea170d95f990f8d4b",
          "transactionIndex": "0xf",
          "logIndex": "0x9",
          "removed": false
        }
      ],
      "logsBloom": "0x00040000000000000000000000000000000000000000000000000000000000000000000000000000000100000000000000000000000000000000000000000000000000000000000000000000000000000000080000000000000000000000000000000000000000000000000000000000000000000000000000000000000000000020000000000000000000000000000000000000000000000000000000008000004000000000000000000000000000000000000000000000000000000000000000000000000000000000040000000000000000000000000000000000000000000000000000000200000400000000000000000000000000000000000000000000",
      "type": "0x0",
      "transactionHash": "0x4f058aa04f81adbee9de74d3e17487b1d2ab6ace8d378a0ea170d95f990f8d4b",
      "transactionIndex": "0xf",
      "blockHash": "0xb00cac39cbb90f083f5985cbdc542eb5c6daa8a5e97354a687e65229fb99d446",
      "blockNumber": "0x13e92",
      "gasUsed": "0xb859",
      "effectiveGasPrice": "0x3b9aca07",
      "blobGasPrice": "0x1",
      "from": "0xf39fd6e51aad88f6f4ce6ab8827279cfffb92266",
      "to": "0xa4d0806d597146df93796a38435abb2a3cb96677",
      "contractAddress": null,
      "blockTimestamp": 1778864880
    },
    {
      "status": "0x1",
      "cumulativeGasUsed": "0x4e609a",
      "logs": [
        {
          "address": "0xa4d0806d597146df93796a38435abb2a3cb96677",
          "topics": [
            "0xd1e0ff31b5a8e9db7a93db8b63d84e896cce257bc637e6d369f43178eedd98ce",
            "0x3ed03c38e59dc60c7b69c2a4bf68f9214acd953252b5a90e8f5f59583e9bc3ae"
          ],
          "data": "0x0000000000000000000000000000000000000000000000000000000df84758000000000000000000000000000000000000000000000000000000000df7162b00",
          "blockHash": "0xb00cac39cbb90f083f5985cbdc542eb5c6daa8a5e97354a687e65229fb99d446",
          "blockNumber": "0x13e92",
          "blockTimestamp": "0x6a0752f0",
          "transactionHash": "0xb4217b07f3b151493a1774e64ff673587157b9c509f1b2cd430f995993ee0f50",
          "transactionIndex": "0x10",
          "logIndex": "0xa",
          "removed": false
        }
      ],
      "logsBloom": "0x00040000000000000000000000000000000000000000000000000000000000000000000000000000000100000000000000000000000000000000000000000000000000000000000000000000000000000000000000000000000000001000000000000000000000000000000000000000000000000000000000000000000000000021000000000000000000000000000000000000000000000000000000008000000000000000000000000000020000000000000000000000000000000000000000000000000000000000040000000000000000000000000000000000000000000000000000000200000000000000000000000000000000000000000000000000",
      "type": "0x0",
      "transactionHash": "0xb4217b07f3b151493a1774e64ff673587157b9c509f1b2cd430f995993ee0f50",
      "transactionIndex": "0x10",
      "blockHash": "0xb00cac39cbb90f083f5985cbdc542eb5c6daa8a5e97354a687e65229fb99d446",
      "blockNumber": "0x13e92",
      "gasUsed": "0x1cb31",
      "effectiveGasPrice": "0x3b9aca07",
      "blobGasPrice": "0x1",
      "from": "0xf39fd6e51aad88f6f4ce6ab8827279cfffb92266",
      "to": "0xa4d0806d597146df93796a38435abb2a3cb96677",
      "contractAddress": null,
      "blockTimestamp": 1778864880
    },
    {
      "status": "0x1",
      "cumulativeGasUsed": "0x50bc3a",
      "logs": [
        {
          "address": "0x084815d1330ecc3ef94193a19ec222c0c73dff2d",
          "topics": [
            "0xf7154dd385fd97f5acd402bbddfc43353a65d67ed869dc6e507a9f99d6a2040d",
            "0x0000000000000000000000000000000000000000000000000000000000000003"
          ],
          "data": "0x3ed03c38e59dc60c7b69c2a4bf68f9214acd953252b5a90e8f5f59583e9bc3ae0000000000000000000000000000000000000000000000000000000000000019",
          "blockHash": "0xb00cac39cbb90f083f5985cbdc542eb5c6daa8a5e97354a687e65229fb99d446",
          "blockNumber": "0x13e92",
          "blockTimestamp": "0x6a0752f0",
          "transactionHash": "0x1168f7b4727c551dccef3aac7e9a30b3a539fae782504b15fe8b4d9435ec7861",
          "transactionIndex": "0x11",
          "logIndex": "0xb",
          "removed": false
        }
      ],
      "logsBloom": "0x00000000000000000000000000400000000000000000000000000000000000000000000000000000000000000000000000000000020000000000000000000000000000000000000000000000000010200000000000000000000000000000000000000000000000000000000000000000000000000000000000000000000000000000000000000000000000000000000000000000000000000000000000004000000000000000000000000000000000000000000000800000000000000000400000800000000000000000000000000000000000000000000000000000000000000000000000000000000000000000040000000000000000000000000000000000",
      "type": "0x0",
      "transactionHash": "0x1168f7b4727c551dccef3aac7e9a30b3a539fae782504b15fe8b4d9435ec7861",
      "transactionIndex": "0x11",
      "blockHash": "0xb00cac39cbb90f083f5985cbdc542eb5c6daa8a5e97354a687e65229fb99d446",
      "blockNumber": "0x13e92",
      "gasUsed": "0x25ba0",
      "effectiveGasPrice": "0x3b9aca07",
      "blobGasPrice": "0x1",
      "from": "0xf39fd6e51aad88f6f4ce6ab8827279cfffb92266",
      "to": "0x084815d1330ecc3ef94193a19ec222c0c73dff2d",
      "contractAddress": null,
      "blockTimestamp": 1778864880
    },
    {
      "status": "0x1",
      "cumulativeGasUsed": "0x517493",
      "logs": [
        {
          "address": "0xa4d0806d597146df93796a38435abb2a3cb96677",
          "topics": [
            "0xd4a2ffd4212ea97bb981aae1f4a20d5170df470d2ed811c1b393882bc1d9f0fa",
            "0xa6a7de01e8b7ba6a4a61c782a73188d808fc1f3cf5743fadb68a02ed884b594f"
          ],
          "data": "0x",
          "blockHash": "0xb00cac39cbb90f083f5985cbdc542eb5c6daa8a5e97354a687e65229fb99d446",
          "blockNumber": "0x13e92",
          "blockTimestamp": "0x6a0752f0",
          "transactionHash": "0x80eaab47b670b14c27d78a62bc6f02cef82dc5fe009a4e808d4d2c52de8735d4",
          "transactionIndex": "0x12",
          "logIndex": "0xc",
          "removed": false
        }
      ],
      "logsBloom": "0x00040000000000000000000000000000000000000000000000000000000000000000000000000000000000000000000000000000000000000000000000000000000000000000000000000000000000000000080000000000000000000000400000000000000000000000000000000000000000000000000000000040000000000000000000000000000000000000000000000000000000000000000000000000004000000000000000000000000000000000000000000000000000000000000000000000000000000000040000010000000000000000000000000000000000000000000000000200000400000000000000000000000000000000000000000000",
      "type": "0x0",
      "transactionHash": "0x80eaab47b670b14c27d78a62bc6f02cef82dc5fe009a4e808d4d2c52de8735d4",
      "transactionIndex": "0x12",
      "blockHash": "0xb00cac39cbb90f083f5985cbdc542eb5c6daa8a5e97354a687e65229fb99d446",
      "blockNumber": "0x13e92",
      "gasUsed": "0xb859",
      "effectiveGasPrice": "0x3b9aca07",
      "blobGasPrice": "0x1",
      "from": "0xf39fd6e51aad88f6f4ce6ab8827279cfffb92266",
      "to": "0xa4d0806d597146df93796a38435abb2a3cb96677",
      "contractAddress": null,
      "blockTimestamp": 1778864880
    },
    {
      "status": "0x1",
      "cumulativeGasUsed": "0x533fc4",
      "logs": [
        {
          "address": "0xa4d0806d597146df93796a38435abb2a3cb96677",
          "topics": [
            "0xd1e0ff31b5a8e9db7a93db8b63d84e896cce257bc637e6d369f43178eedd98ce",
            "0xa6a7de01e8b7ba6a4a61c782a73188d808fc1f3cf5743fadb68a02ed884b594f"
          ],
          "data": "0x00000000000000000000000000000000000000000000000000000000055d4a80000000000000000000000000000000000000000000000000000000000555a960",
          "blockHash": "0xb00cac39cbb90f083f5985cbdc542eb5c6daa8a5e97354a687e65229fb99d446",
          "blockNumber": "0x13e92",
          "blockTimestamp": "0x6a0752f0",
          "transactionHash": "0x7797a99e3aed6f0e02729b743d65bf20323ed0ce87891b3c0ec1010f796398a4",
          "transactionIndex": "0x13",
          "logIndex": "0xd",
          "removed": false
        }
      ],
      "logsBloom": "0x00040000000000000000000000000000000000000000000000000000000000000000000000000000000000000000000000000000000000000000000000000000000000000000000000000000000000000000000000000000000000001000400000000000000000000000000000000000000000000000000000000040000000000001000000000000000000000000000000000000000000000000000000000000000000000000000000000000020000000000000000000000000000000000000000000000000000000000040000010000000000000000000000000000000000000000000000000200000000000000000000000000000000000000000000000000",
      "type": "0x0",
      "transactionHash": "0x7797a99e3aed6f0e02729b743d65bf20323ed0ce87891b3c0ec1010f796398a4",
      "transactionIndex": "0x13",
      "blockHash": "0xb00cac39cbb90f083f5985cbdc542eb5c6daa8a5e97354a687e65229fb99d446",
      "blockNumber": "0x13e92",
      "gasUsed": "0x1cb31",
      "effectiveGasPrice": "0x3b9aca07",
      "blobGasPrice": "0x1",
      "from": "0xf39fd6e51aad88f6f4ce6ab8827279cfffb92266",
      "to": "0xa4d0806d597146df93796a38435abb2a3cb96677",
      "contractAddress": null,
      "blockTimestamp": 1778864880
    },
    {
      "status": "0x1",
      "cumulativeGasUsed": "0x559b64",
      "logs": [
        {
          "address": "0x084815d1330ecc3ef94193a19ec222c0c73dff2d",
          "topics": [
            "0xf7154dd385fd97f5acd402bbddfc43353a65d67ed869dc6e507a9f99d6a2040d",
            "0x0000000000000000000000000000000000000000000000000000000000000004"
          ],
          "data": "0xa6a7de01e8b7ba6a4a61c782a73188d808fc1f3cf5743fadb68a02ed884b594f0000000000000000000000000000000000000000000000000000000000000014",
          "blockHash": "0xb00cac39cbb90f083f5985cbdc542eb5c6daa8a5e97354a687e65229fb99d446",
          "blockNumber": "0x13e92",
          "blockTimestamp": "0x6a0752f0",
          "transactionHash": "0xee73b11fe8bc10c323bac2c9970aadbc80bc07411d47d7630acca740825bd8af",
          "transactionIndex": "0x14",
          "logIndex": "0xe",
          "removed": false
        }
      ],
      "logsBloom": "0x00000000000000000000000000400000000000000000000000000000000000000000000000000000000000000000000000000000000000000000000000000000000000000000000000000000000010200000000000000000000000000000000008000000000000000000000000000000000000000000000000000000000000000000000000000000000000000000000000000000000000000000000000004000000000000000000000000000000000000000000000000000002000000000000000800000000000000000000000000000000000008000000000000000000000000000000000000000000000000000040000000000000000000000000000000000",
      "type": "0x0",
      "transactionHash": "0xee73b11fe8bc10c323bac2c9970aadbc80bc07411d47d7630acca740825bd8af",
      "transactionIndex": "0x14",
      "blockHash": "0xb00cac39cbb90f083f5985cbdc542eb5c6daa8a5e97354a687e65229fb99d446",
      "blockNumber": "0x13e92",
      "gasUsed": "0x25ba0",
      "effectiveGasPrice": "0x3b9aca07",
      "blobGasPrice": "0x1",
      "from": "0xf39fd6e51aad88f6f4ce6ab8827279cfffb92266",
      "to": "0x084815d1330ecc3ef94193a19ec222c0c73dff2d",
      "contractAddress": null,
      "blockTimestamp": 1778864880
    },
    {
      "status": "0x1",
      "cumulativeGasUsed": "0x5653bd",
      "logs": [
        {
          "address": "0xa4d0806d597146df93796a38435abb2a3cb96677",
          "topics": [
            "0xd4a2ffd4212ea97bb981aae1f4a20d5170df470d2ed811c1b393882bc1d9f0fa",
            "0xc07524b7a4eecc2784fc7ac17ff2730f877f3cf7a2ceb4e2375fa40a103115d0"
          ],
          "data": "0x",
          "blockHash": "0xb00cac39cbb90f083f5985cbdc542eb5c6daa8a5e97354a687e65229fb99d446",
          "blockNumber": "0x13e92",
          "blockTimestamp": "0x6a0752f0",
          "transactionHash": "0xca963434acaf9df8525bca9e6869c2e964b22cf661dc4708d09e088583180ce4",
          "transactionIndex": "0x15",
          "logIndex": "0xf",
          "removed": false
        }
      ],
      "logsBloom": "0x00040000000000000000000000000000000000000000000000000000000000000000000000000000000000000000000000000000000000000000000000000000000000000000000000000000000000000000080000000000000000000000000000000000000000000000000000000000000000000000000000000000000000000000000000000000000000000000000000000000000000000000004000000000004000000000000000000000000000000000000000000000002000000000000000000000000000000000040000000000000000000000080000000000000000000000000000000200000400000000000000000000000000000000000000000000",
      "type": "0x0",
      "transactionHash": "0xca963434acaf9df8525bca9e6869c2e964b22cf661dc4708d09e088583180ce4",
      "transactionIndex": "0x15",
      "blockHash": "0xb00cac39cbb90f083f5985cbdc542eb5c6daa8a5e97354a687e65229fb99d446",
      "blockNumber": "0x13e92",
      "gasUsed": "0xb859",
      "effectiveGasPrice": "0x3b9aca07",
      "blobGasPrice": "0x1",
      "from": "0xf39fd6e51aad88f6f4ce6ab8827279cfffb92266",
      "to": "0xa4d0806d597146df93796a38435abb2a3cb96677",
      "contractAddress": null,
      "blockTimestamp": 1778864880
    },
    {
      "status": "0x1",
      "cumulativeGasUsed": "0x581ed6",
      "logs": [
        {
          "address": "0xa4d0806d597146df93796a38435abb2a3cb96677",
          "topics": [
            "0xd1e0ff31b5a8e9db7a93db8b63d84e896cce257bc637e6d369f43178eedd98ce",
            "0xc07524b7a4eecc2784fc7ac17ff2730f877f3cf7a2ceb4e2375fa40a103115d0"
          ],
          "data": "0x0000000000000000000000000000000000000000000000000000000007270e0000000000000000000000000000000000000000000000000000000000072400c0",
          "blockHash": "0xb00cac39cbb90f083f5985cbdc542eb5c6daa8a5e97354a687e65229fb99d446",
          "blockNumber": "0x13e92",
          "blockTimestamp": "0x6a0752f0",
          "transactionHash": "0x36192a91006509f2e4ddae8dcfb1d2e152bb84869ddb491ab9eb345e7b1a3387",
          "transactionIndex": "0x16",
          "logIndex": "0x10",
          "removed": false
        }
      ],
      "logsBloom": "0x00040000000000000000000000000000000000000000000000000000000000000000000000000000000000000000000000000000000000000000000000000000000000000000000000000000000000000000000000000000000000001000000000000000000000000000000000000000000000000000000000000000000000000001000000000000000000000000000000000000000000000000004000000000000000000000000000000000020000000000000000000000002000000000000000000000000000000000040000000000000000000000080000000000000000000000000000000200000000000000000000000000000000000000000000000000",
      "type": "0x0",
      "transactionHash": "0x36192a91006509f2e4ddae8dcfb1d2e152bb84869ddb491ab9eb345e7b1a3387",
      "transactionIndex": "0x16",
      "blockHash": "0xb00cac39cbb90f083f5985cbdc542eb5c6daa8a5e97354a687e65229fb99d446",
      "blockNumber": "0x13e92",
      "gasUsed": "0x1cb19",
      "effectiveGasPrice": "0x3b9aca07",
      "blobGasPrice": "0x1",
      "from": "0xf39fd6e51aad88f6f4ce6ab8827279cfffb92266",
      "to": "0xa4d0806d597146df93796a38435abb2a3cb96677",
      "contractAddress": null,
      "blockTimestamp": 1778864880
    },
    {
      "status": "0x1",
      "cumulativeGasUsed": "0x5a7a76",
      "logs": [
        {
          "address": "0x084815d1330ecc3ef94193a19ec222c0c73dff2d",
          "topics": [
            "0xf7154dd385fd97f5acd402bbddfc43353a65d67ed869dc6e507a9f99d6a2040d",
            "0x0000000000000000000000000000000000000000000000000000000000000005"
          ],
          "data": "0xc07524b7a4eecc2784fc7ac17ff2730f877f3cf7a2ceb4e2375fa40a103115d00000000000000000000000000000000000000000000000000000000000000014",
          "blockHash": "0xb00cac39cbb90f083f5985cbdc542eb5c6daa8a5e97354a687e65229fb99d446",
          "blockNumber": "0x13e92",
          "blockTimestamp": "0x6a0752f0",
          "transactionHash": "0x61d0e1ce5602a86614d455054e7643cbe058e83250bebffc15ad5e16707db11e",
          "transactionIndex": "0x17",
          "logIndex": "0x11",
          "removed": false
        }
      ],
      "logsBloom": "0x00000000000000000000000000400000000000000000000000000000000000000000000000000000000000000000000000000000000000000000000000000000000010000000000000000000000010200000000000000000000000000000000000000000000000000000000000000000000000000000000000000000000000000000000000000000000000000000001000000800000000000000000000004000000000000000000000000000000000000000000000000000000000000000000000800000000000000000000000000000000000000000000000000000000000000000000000000000000000000000040000000000000000000000000000000000",
      "type": "0x0",
      "transactionHash": "0x61d0e1ce5602a86614d455054e7643cbe058e83250bebffc15ad5e16707db11e",
      "transactionIndex": "0x17",
      "blockHash": "0xb00cac39cbb90f083f5985cbdc542eb5c6daa8a5e97354a687e65229fb99d446",
      "blockNumber": "0x13e92",
      "gasUsed": "0x25ba0",
      "effectiveGasPrice": "0x3b9aca07",
      "blobGasPrice": "0x1",
      "from": "0xf39fd6e51aad88f6f4ce6ab8827279cfffb92266",
      "to": "0x084815d1330ecc3ef94193a19ec222c0c73dff2d",
      "contractAddress": null,
      "blockTimestamp": 1778864880
    }
  ],
  "libraries": [],
  "pending": [],
  "returns": {},
  "timestamp": 1778864880725,
  "chain": 42069,
  "commit": "2065785"
}