{
  "transactions": [
    {
      "hash": "0x1cc06b314b03d1992e2145b972e2b9134f95fe3378ed434348cdc1b41bf49a21",
      "transactionType": "CREATE",
      "contractName": "CollateralVault",
      "contractAddress": "0xbfd3c8a956afb7a9754c951d03c9adda7ec5d638",
      "function": null,
      "arguments": [
        "0x36C02dA8a0983159322a80FFE9F24b1acfF8B570",
        "0x20d7B364E8Ed1F4260b5B90C41c2deC3C1F6D367",
        "0x3abBB0D6ad848d64c8956edC9Bf6f18aC22E1485",
        "0xf39Fd6e51aad88F6F4ce6aB8827279cffFb92266"
      ],
      "transaction": {
        "from": "0xf39fd6e51aad88f6f4ce6ab8827279cfffb92266",
        "gas": "0x241a4c",
        "value": "0x0",
        "input": "0x60e03461017a57601f61212838819003918201601f19168301916001600160401b0383118484101761017e5780849260809460405283398101031261017a5761004781610192565b9061005460208201610192565b9161006d606061006660408501610192565b9301610192565b6001600160a01b0390911692831561016b576001600160a01b031690811561016b576001600160a01b0383161561016b576001600160a01b031692831561016b5760805260a05260c0525f80546001600160a01b031916919091179055604051611f8190816101a7823960805181818161067601528181610746015281816110b3015281816111ca015281816113da0152818161161101528181611a950152611c29015260a0518181816104880152818161097c01528181610bb801528181610e7f0152818161149b0152818161183201528181611d290152611e81015260c05181818161070301528181610ca70152818161106e0152611ae30152f35b63d92e233d60e01b5f5260045ffd5b5f80fd5b634e487b7160e01b5f52604160045260245ffd5b51906001600160a01b038216820361017a5756fe60806040526004361015610011575f80fd5b5f5f3560e01c8063056b01ce14611640578063119e5bf3146115fc57806316c38b3c146115a25780631ce967121461130d5780631f33a88814610dd15780631fbe11f914610d8e578063249d39e914610d7157806329a723ee14610d2e5780633272569614610cfb5780635c975abb14610cd65780636052970c14610c915780636dc827d914610c6f578063704b6c0214610c045780637a9fffb714610be75780637dc0d1d014610ba25780638c2261ad14610a8e5780639185f59814610a72578063b1ad0fa0146108cc578063b48272cc146103f3578063c4323fea146103d6578063c44bac0214610352578063c63e3835146102cd578063e1e158a5146102ab578063ecd1dae61461028e578063f32cd63014610264578063f851a4401461023d578063fbaf72101461017a5763ffe3142e1461014e575f80fd5b346101775760203660031901126101775760406020916004358152600383522054604051908152f35b80fd5b5034610177576080366003190112610177576101946116d1565b60243567ffffffffffffffff811161023957906080926101c46101be610204943690600401611670565b90611923565b916101d160443584611cfb565b94909360018060a01b03831684526001602052604084208185526020526101fe6064356040862054611916565b92611e2e565b908181111561023257610217925061172b565b60405192828452602084015280604084015210156060820152f35b5050610217565b8280fd5b5034610177578060031936011261017757546040516001600160a01b039091168152602090f35b50346101775760203660031901126101775760406020916004358152600583522054604051908152f35b503461017757806003193601126101775760206040516103e88152f35b5034610177578060031936011261017757602060405166038d7ea4c680008152f35b5034610177576102dc3661169e565b90929160ff835460a01c166103435781156103345766038d7ea4c68000821061031557610312929361030d91611923565b611bd9565b80f35b63253bf97d60e11b8352600482905266038d7ea4c68000602452604483fd5b631f2a200560e01b8352600483fd5b6313d0ff5960e31b8352600483fd5b50346101775760603660031901126101775760043567ffffffffffffffff81116103d257610384903690600401611670565b6024359160ff845460a01c166103c35761031292916103a291611923565b90806103b3575b5060443590611951565b6103bd9082611bd9565b5f6103a9565b6313d0ff5960e31b8452600484fd5b5080fd5b50346101775780600319360112610177576020604051612ee08152f35b5034610177576104023661169e565b9160ff845460a01c166103c35782156108bd579061041f91611923565b808352600460205260408320549091906001600160a01b031680156108a9573384526002602052604084208385526020526040842054908183116108925783855260056020908152604080872054905163832321bf60e01b8152600481019190915290816024817f00000000000000000000000000000000000000000000000000000000000000006001600160a01b03165afa9081156106e957869161085a575b506104d4670de0b6b3a7640000918561176e565b04670de0b6b3a7640000810290808204670de0b6b3a76400001490151715610846576305f5e1009004601e810290808204601e14901517156108465761053f6127108792049333835260016020526040832087845260205261053a86604085205461176e565b611781565b8381111561083a57836105519161172b565b915b3382526002602052604082208683526020526040822061057486825461172b565b90556105808484611916565b3383526001602052604083208784526020526105a16040842091825461172b565b90556105ad8484611916565b86835260036020526105c46040842091825461172b565b9055803b156103d257604051632770a7eb60e21b8152336004820152602481018690529082908290604490829084905af1801561082f57610816575b5050816106f4575b8061064b575b60408051938452602084019190915282015233907ffbb68f61002cbf89cfd4502b79ed21c0d08c91666d4b22825cc11bf41333648e90606090a380f35b60405163a9059cbb60e01b815233600482015260248101829052602081604481896001600160a01b037f0000000000000000000000000000000000000000000000000000000000000000165af19081156106e95786916106ba575b5061060e576312171d8360e31b8552600485fd5b6106dc915060203d6020116106e2575b6106d48183611738565b81019061179f565b5f6106a6565b503d6106ca565b6040513d88823e3d90fd5b60405163095ea7b360e01b81527f00000000000000000000000000000000000000000000000000000000000000006001600160a01b03811660048301526024820184905290602081806044810103818a7f00000000000000000000000000000000000000000000000000000000000000006001600160a01b03165af1801561080b576107ee575b506040516364d6def960e01b81526004810184905230602482015290606090829060449082908a906001600160a01b03165af180156106e9576107bf575b50610608565b6107e09060603d6060116107e7575b6107d88183611738565b8101906117b7565b50506107b9565b503d6107ce565b6108069060203d6020116106e2576106d48183611738565b61077b565b6040513d89823e3d90fd5b8161082091611738565b61082b57845f610600565b8480fd5b6040513d84823e3d90fd5b50909150848092610553565b634e487b7160e01b86526011600452602486fd5b90506020813d60201161088a575b8161087560209383611738565b8101031261088657516104d46104c0565b5f80fd5b3d9150610868565b6044858484636943054d60e11b8352600452602452fd5b6326ef68cf60e01b84526004839052602484fd5b631f2a200560e01b8452600484fd5b5034610177576108e8906108df366116e7565b91939190611923565b9160018060a01b031690818152600160205260408120838252602052604081205491815260026020526040812083825260205260408120549283155f1461095257505061094e5f195b604051938493846040919493926060820195825260208201520152565b0390f35b815260056020908152604080832054905163832321bf60e01b8152600481019190915290816024817f00000000000000000000000000000000000000000000000000000000000000006001600160a01b03165afa90811561082f578291610a3e575b506109c8670de0b6b3a7640000918561176e565b04906305f5e10083028381046305f5e1001484151715610a2a57670de0b6b3a76400009004906127108202918083046127101490151715610a16575061094e91610a1191611781565b610931565b634e487b7160e01b81526011600452602490fd5b634e487b7160e01b82526011600452602482fd5b90506020813d602011610a6a575b81610a5960209383611738565b8101031261088657516109c86109b4565b3d9150610a4c565b50346101775780600319360112610177576020604051601e8152f35b50346101775760403660031901126101775760043567ffffffffffffffff81116103d257610ac0903690600401611670565b6024356001600160a01b0381169290839003610b9e5783546001600160a01b03163303610b8f578215610b80579060608282610b1d817f9190ede1bbf154005e1cdc753cb24ff7912bf4412bf72342e5ab03ee770facf096611923565b95868852600460205260408820816bffffffffffffffffffffffff60a01b8254161790558688526005602052866040892055604051948593604085528160408601528585013782820184018890526020830152601f01601f19168101030190a280f35b63d92e233d60e01b8452600484fd5b637bfa4b9f60e01b8452600484fd5b8380fd5b50346101775780600319360112610177576040517f00000000000000000000000000000000000000000000000000000000000000006001600160a01b03168152602090f35b50346101775780600319360112610177576020604051613a988152f35b503461017757602036600319011261017757610c1e6116d1565b8154906001600160a01b0382163303610c60576001600160a01b0316908115610c51576001600160a01b03191617815580f35b63d92e233d60e01b8352600483fd5b637bfa4b9f60e01b8352600483fd5b5034610177576020610c89610c83366116e7565b916117d2565b604051908152f35b50346101775780600319360112610177576040517f00000000000000000000000000000000000000000000000000000000000000006001600160a01b03168152602090f35b503461017757806003193601126101775760ff6020915460a01c166040519015158152f35b503461017757602036600319011261017757602090600435815260048252604060018060a01b0391205416604051908152f35b5034610177576040366003190112610177576020906040906001600160a01b03610d566116d1565b16815260018352818120602435825283522054604051908152f35b503461017757806003193601126101775760206040516127108152f35b5034610177576040366003190112610177576020906040906001600160a01b03610db66116d1565b16815260028352818120602435825283522054604051908152f35b503461088657610de0366116e7565b60ff5f5460a01c166112fe57610df591611923565b90815f52600460205260018060a01b0360405f2054169081156112eb5760018060a01b031690815f52600260205260405f20835f5260205260405f205490825f52600160205260405f20845f5260205260405f205482156112cf57845f52600560205260405f20546040519063832321bf60e01b8252600482015260208160248160018060a01b037f0000000000000000000000000000000000000000000000000000000000000000165afa90811561125b575f9161129b575b50610ec3670de0b6b3a7640000918561176e565b046305f5e10082028281046305f5e100148315171561126f57670de0b6b3a76400009004612710810290808204612710149015171561126f5781610f0691611781565b612ee08110156112835750670de0b6b3a7640000810290808204670de0b6b3a7640000149015171561126f576305f5e1009004906103e882028281046103e8148315171561126f57612710610f5c910483611916565b92818411611266575b610f6f848361172b565b91865f52600160205260405f20885f526020525f6040812055865f52600260205260405f20885f526020525f6040812055875f526003602052610fb760405f2091825461172b565b9055803b1561088657604051632770a7eb60e21b815233600482015260248101869052905f908290604490829084905af1801561125b57611242575b50908291879361119a575b8061105f575b507f050df5bd39b9045b183cf260962616d90dc134df2b0da18110a7c2bc6c68468a9250808211156110575761103a908261172b565b905b6040805194855260208501919091528301523391606090a480f35b50859061103c565b60405163095ea7b360e01b81527f00000000000000000000000000000000000000000000000000000000000000006001600160a01b03811660048301526024820183905290919060208380604481010381897f00000000000000000000000000000000000000000000000000000000000000006001600160a01b03165af19182156106e95760609361111b9361117d575b506040516364d6def960e01b8152600481019190915230602482015295869283919082906044820190565b03926001600160a01b03165af192831561080b577f050df5bd39b9045b183cf260962616d90dc134df2b0da18110a7c2bc6c68468a9361115e575b879350611004565b6111769060603d6060116107e7576107d88183611738565b5050611156565b6111959060203d6020116106e2576106d48183611738565b6110f0565b60405163a9059cbb60e01b81523360048201526024810184905292935090916020816044818b6001600160a01b037f0000000000000000000000000000000000000000000000000000000000000000165af1908115611237578891611218575b50156112095790869291610ffe565b6312171d8360e31b8752600487fd5b611231915060203d6020116106e2576106d48183611738565b5f6111fa565b6040513d8a823e3d90fd5b61125191939297505f90611738565b5f9590915f610ff3565b6040513d5f823e3d90fd5b92508092610f65565b634e487b7160e01b5f52601160045260245ffd5b6301f7d11160e21b5f52600452612ee060245260445ffd5b90506020813d6020116112c7575b816112b660209383611738565b810103126108865751610ec3610eaf565b3d91506112a9565b6301f7d11160e21b5f9081525f19600452612ee0602452604490fd5b826326ef68cf60e01b5f5260045260245ffd5b6313d0ff5960e31b5f5260045ffd5b346108865761131b3661169e565b919060ff5f5460a01c166112fe5782156115935761133891611923565b90335f52600160205260405f20825f5260205260405f205481811061157e57816113619161172b565b335f52600260205260405f20835f5260205260405f20548061146c575b50335f52600160205260405f20835f5260205260405f2055815f52600360205260405f206113ad82825461172b565b905560405163a9059cbb60e01b8152336004820152602481018290526020816044815f6001600160a01b037f0000000000000000000000000000000000000000000000000000000000000000165af190811561125b575f9161144d575b501561143e576040519081527fe69cdf29a59dd324317b598bee3a9ed1fcffb99cc506db72633ed07b59dc6d0460203392a3005b6312171d8360e31b5f5260045ffd5b611466915060203d6020116106e2576106d48183611738565b8361140a565b835f52600560205260405f20546040519063832321bf60e01b8252600482015260208160248160018060a01b037f0000000000000000000000000000000000000000000000000000000000000000165afa90811561125b575f91611544575b506114df90670de0b6b3a76400009261176e565b046305f5e10082028281046305f5e100148315171561126f57670de0b6b3a7640000900490612710820291808304612710149015171561126f5761152291611781565b613a9881101561137e57636a5a2d9160e11b5f52600452613a9860245260445ffd5b90506020813d602011611576575b8161155f60209383611738565b810103126108865751670de0b6b3a76400006114cb565b3d9150611552565b632c1f8ef160e21b5f5260045260245260445ffd5b631f2a200560e01b5f5260045ffd5b3461088657602036600319011261088657600435801515809103610886575f54906001600160a01b03821633036115ed5760ff60a01b1990911660a09190911b60ff60a01b16175f55005b637bfa4b9f60e01b5f5260045ffd5b34610886575f366003190112610886576040517f00000000000000000000000000000000000000000000000000000000000000006001600160a01b03168152602090f35b346108865761164e3661169e565b909160ff5f5460a01c166112fe5761166e9261166991611923565b611951565b005b9181601f840112156108865782359167ffffffffffffffff8311610886576020838186019501011161088657565b6040600319820112610886576004359067ffffffffffffffff8211610886576116c991600401611670565b909160243590565b600435906001600160a01b038216820361088657565b906040600319830112610886576004356001600160a01b038116810361088657916024359067ffffffffffffffff82116108865761172791600401611670565b9091565b9190820391821161126f57565b90601f8019910116810190811067ffffffffffffffff82111761175a57604052565b634e487b7160e01b5f52604160045260245ffd5b8181029291811591840414171561126f57565b811561178b570490565b634e487b7160e01b5f52601260045260245ffd5b90816020910312610886575180151581036108865790565b90816060910312610886578051916040602083015192015190565b916117dc91611923565b9060018060a01b031690815f52600260205260405f20815f5260205260405f2054801561190e57815f52600560205260405f20546040519063832321bf60e01b8252600482015260208160248160018060a01b037f0000000000000000000000000000000000000000000000000000000000000000165afa90811561125b575f916118d4575b5061187690670de0b6b3a76400009261176e565b04915f52600160205260405f20905f5260205260405f20546305f5e1008102908082046305f5e100149015171561126f57670de0b6b3a7640000900490612710820291808304612710149015171561126f576118d191611781565b90565b90506020813d602011611906575b816118ef60209383611738565b810103126108865751670de0b6b3a7640000611862565b3d91506118e2565b5050505f1990565b9190820180921161126f57565b9061194b602060405183819483830196873781015f838201520301601f198101835282611738565b51902090565b908015611593575f828152600460205260409020546001600160a01b031680156112eb5761197f8284611cfb565b90335f52600160205260405f20855f5260205260405f20546119a18633611e2e565b80821115611bd1576119b29161172b565b81811061157e5750335f52600260205260405f20855f5260205260405f206119db858254611916565b905581611a6b575b823b15610886576040516340c10f1960e01b815233600482015260248101859052925f908490604490829084905af192831561125b577fafa80970438fa6a8ad54574239a8d28d0cc4b50da6e4473eab194dea551c6c8793611a5b575b506040805194855260208501919091528301523391606090a3565b5f611a6591611738565b5f611a40565b6040516323b872dd60e01b8152336004820152306024820152604481018390526001600160a01b037f000000000000000000000000000000000000000000000000000000000000000016906020816064815f865af190811561125b575f91611bb2575b501561143e5760405163095ea7b360e01b81527f00000000000000000000000000000000000000000000000000000000000000006001600160a01b03811660048301526024820185905291602090829060449082905f905af1801561125b57611b95575b506040516364d6def960e01b81526004810184905230602482015290606090829060449082905f906001600160a01b03165af1801561125b57611b76575b506119e3565b611b8e9060603d6060116107e7576107d88183611738565b5050611b70565b611bad9060203d6020116106e2576106d48183611738565b611b32565b611bcb915060203d6020116106e2576106d48183611738565b5f611ace565b50505f6119b2565b5f818152600460205260409020549091906001600160a01b031615611ce8576040516323b872dd60e01b8152336004820152306024820152604481018290526020816064815f6001600160a01b037f0000000000000000000000000000000000000000000000000000000000000000165af190811561125b575f91611cc9575b501561143e57335f52600160205260405f20825f5260205260405f20611c80828254611916565b9055815f52600360205260405f20611c99828254611916565b90556040519081527f88df26d296ecbf594c8609f433503d1436d24afe03c0d9e5e29c8f6ed92ef9b460203392a3565b611ce2915060203d6020116106e2576106d48183611738565b5f611c59565b506326ef68cf60e01b5f5260045260245ffd5b5f52600560205260405f20546040519063832321bf60e01b8252600482015260208160248160018060a01b037f0000000000000000000000000000000000000000000000000000000000000000165afa90811561125b575f91611df4575b50611d6d90670de0b6b3a76400009261176e565b0490613a98820291801592818104613a981484171561126f576127109004670de0b6b3a7640000810290808204670de0b6b3a7640000149015171561126f576305f5e100900492670de0b6b3a76400008202918204670de0b6b3a764000014171561126f576305f5e1009004601e810290808204601e149015171561126f57612710900490565b90506020813d602011611e26575b81611e0f60209383611738565b810103126108865751670de0b6b3a7640000611d59565b3d9150611e02565b60018060a01b03165f52600260205260405f20815f5260205260405f2054908115611f45575f52600560205260405f20546040519063832321bf60e01b8252600482015260208160248160018060a01b037f0000000000000000000000000000000000000000000000000000000000000000165afa90811561125b575f91611f0b575b50611ec590670de0b6b3a76400009261176e565b04613a98810290808204613a98149015171561126f576127109004670de0b6b3a7640000810290808204670de0b6b3a7640000149015171561126f576305f5e100900490565b90506020813d602011611f3d575b81611f2660209383611738565b810103126108865751670de0b6b3a7640000611eb1565b3d9150611f19565b50505f9056fea264697066735822122016c47eadaec8ca11951e0615bb12a3f7490dc1de1f314fb9d6b17a217561187e64736f6c6343000821003300000000000000000000000036c02da8a0983159322a80ffe9f24b1acff8b57000000000000000000000000020d7b364e8ed1f4260b5b90c41c2dec3c1f6d3670000000000000000000000003abbb0d6ad848d64c8956edc9bf6f18ac22e1485000000000000000000000000f39fd6e51aad88f6f4ce6ab8827279cfffb92266",
        "nonce": "0x200",
        "chainId": "0xa455"
      },
      "additionalContracts": [],
      "isFixedGasLimit": false
    },
    {
      "hash": "0x967424ddd6db0b8ff62bb0aa55d3a956b0975bdc1e6d7efec63a9fca276ab549",
      "transactionType": "CALL",
      "contractName": null,
      "contractAddress": "0x2d13826359803522cce7a4cfa2c1b582303dd0b4",
      "function": "delistAsset(string)",
      "arguments": [
        "AAPL"
      ],
      "transaction": {
        "from": "0xf39fd6e51aad88f6f4ce6ab8827279cfffb92266",
        "to": "0x2d13826359803522cce7a4cfa2c1b582303dd0b4",
        "gas": "0xd91a",
        "value": "0x0",
        "input": "0x0f56add4000000000000000000000000000000000000000000000000000000000000002000000000000000000000000000000000000000000000000000000000000000044141504c00000000000000000000000000000000000000000000000000000000",
        "nonce": "0x201",
        "chainId": "0xa455"
      },
      "additionalContracts": [],
      "isFixedGasLimit": false
    },
    {
      "hash": "0x47bb1bafccd42f63130b36ee5785a6c89141a2f343292376cb9db07c7f258b93",
      "transactionType": "CALL",
      "contractName": null,
      "contractAddress": "0x2d13826359803522cce7a4cfa2c1b582303dd0b4",
      "function": "delistAsset(string)",
      "arguments": [
        "TSLA"
      ],
      "transaction": {
        "from": "0xf39fd6e51aad88f6f4ce6ab8827279cfffb92266",
        "to": "0x2d13826359803522cce7a4cfa2c1b582303dd0b4",
        "gas": "0xe62b",
        "value": "0x0",
        "input": "0x0f56add40000000000000000000000000000000000000000000000000000000000000020000000000000000000000000000000000000000000000000000000000000000454534c4100000000000000000000000000000000000000000000000000000000",
        "nonce": "0x202",
        "chainId": "0xa455"
      },
      "additionalContracts": [],
      "isFixedGasLimit": false
    },
    {
      "hash": "0xb8eefe85fd7dbb84379b5a75619eab5e65a3b3382d7d9839c7804f3300a66ad6",
      "transactionType": "CALL",
      "contractName": null,
      "contractAddress": "0x2d13826359803522cce7a4cfa2c1b582303dd0b4",
      "function": "delistAsset(string)",
      "arguments": [
        "NVDA"
      ],
      "transaction": {
        "from": "0xf39fd6e51aad88f6f4ce6ab8827279cfffb92266",
        "to": "0x2d13826359803522cce7a4cfa2c1b582303dd0b4",
        "gas": "0xe643",
        "value": "0x0",
        "input": "0x0f56add4000000000000000000000000000000000000000000000000000000000000002000000000000000000000000000000000000000000000000000000000000000044e56444100000000000000000000000000000000000000000000000000000000",
        "nonce": "0x203",
        "chainId": "0xa455"
      },
      "additionalContracts": [],
      "isFixedGasLimit": false
    },
    {
      "hash": "0xf3d5b159b7b319f7ba2dd708085f4ee9122c887ea4741f14874cebc63907e9a0",
      "transactionType": "CALL",
      "contractName": null,
      "contractAddress": "0x2d13826359803522cce7a4cfa2c1b582303dd0b4",
      "function": "delistAsset(string)",
      "arguments": [
        "MSFT"
      ],
      "transaction": {
        "from": "0xf39fd6e51aad88f6f4ce6ab8827279cfffb92266",
        "to": "0x2d13826359803522cce7a4cfa2c1b582303dd0b4",
        "gas": "0xf324",
        "value": "0x0",
        "input": "0x0f56add4000000000000000000000000000000000000000000000000000000000000002000000000000000000000000000000000000000000000000000000000000000044d53465400000000000000000000000000000000000000000000000000000000",
        "nonce": "0x204",
        "chainId": "0xa455"
      },
      "additionalContracts": [],
      "isFixedGasLimit": false
    },
    {
      "hash": "0x2a511b5576522a2633f6be2dfb64e7f86d87221cbc45198fac58d7fab0b11b6e",
      "transactionType": "CALL",
      "contractName": null,
      "contractAddress": "0x2d13826359803522cce7a4cfa2c1b582303dd0b4",
      "function": "delistAsset(string)",
      "arguments": [
        "AMZN"
      ],
      "transaction": {
        "from": "0xf39fd6e51aad88f6f4ce6ab8827279cfffb92266",
        "to": "0x2d13826359803522cce7a4cfa2c1b582303dd0b4",
        "gas": "0x10f14",
        "value": "0x0",
        "input": "0x0f56add400000000000000000000000000000000000000000000000000000000000000200000000000000000000000000000000000000000000000000000000000000004414d5a4e00000000000000000000000000000000000000000000000000000000",
        "nonce": "0x205",
        "chainId": "0xa455"
      },
      "additionalContracts": [],
      "isFixedGasLimit": false
    },
    {
      "hash": "0xd30fca1c74235d4eddd72f6e3e51453825aa159d0647c88b8a42c008bdd74dc1",
      "transactionType": "CALL",
      "contractName": null,
      "contractAddress": "0x2d13826359803522cce7a4cfa2c1b582303dd0b4",
      "function": "delistAsset(string)",
      "arguments": [
        "GOOGL"
      ],
      "transaction": {
        "from": "0xf39fd6e51aad88f6f4ce6ab8827279cfffb92266",
        "to": "0x2d13826359803522cce7a4cfa2c1b582303dd0b4",
        "gas": "0x11cc9",
        "value": "0x0",
        "input": "0x0f56add400000000000000000000000000000000000000000000000000000000000000200000000000000000000000000000000000000000000000000000000000000005474f4f474c000000000000000000000000000000000000000000000000000000",
        "nonce": "0x206",
        "chainId": "0xa455"
      },
      "additionalContracts": [],
      "isFixedGasLimit": false
    },
    {
      "hash": "0xdfd1688f17e3230108862721b44f2b609342861caeaa8edde98d7b0a911a2bf6",
      "transactionType": "CALL",
      "contractName": null,
      "contractAddress": "0x2d13826359803522cce7a4cfa2c1b582303dd0b4",
      "function": "delistAsset(string)",
      "arguments": [
        "META"
      ],
      "transaction": {
        "from": "0xf39fd6e51aad88f6f4ce6ab8827279cfffb92266",
        "to": "0x2d13826359803522cce7a4cfa2c1b582303dd0b4",
        "gas": "0xf2ff",
        "value": "0x0",
        "input": "0x0f56add4000000000000000000000000000000000000000000000000000000000000002000000000000000000000000000000000000000000000000000000000000000044d45544100000000000000000000000000000000000000000000000000000000",
        "nonce": "0x207",
        "chainId": "0xa455"
      },
      "additionalContracts": [],
      "isFixedGasLimit": false
    },
    {
      "hash": "0x58e99227a625dee06f568ce20b9112726f19f050e226f60c3c07bdefb530720f",
      "transactionType": "CALL",
      "contractName": null,
      "contractAddress": "0x2d13826359803522cce7a4cfa2c1b582303dd0b4",
      "function": "delistAsset(string)",
      "arguments": [
        "JPM"
      ],
      "transaction": {
        "from": "0xf39fd6e51aad88f6f4ce6ab8827279cfffb92266",
        "to": "0x2d13826359803522cce7a4cfa2c1b582303dd0b4",
        "gas": "0xe60d",
        "value": "0x0",
        "input": "0x0f56add4000000000000000000000000000000000000000000000000000000000000002000000000000000000000000000000000000000000000000000000000000000034a504d0000000000000000000000000000000000000000000000000000000000",
        "nonce": "0x208",
        "chainId": "0xa455"
      },
      "additionalContracts": [],
      "isFixedGasLimit": false
    },
    {
      "hash": "0xe74988ebe941d14a6259d2f95964705552311e1d00bc3f7f5a98dd690aee4ece",
      "transactionType": "CALL",
      "contractName": null,
      "contractAddress": "0x2d13826359803522cce7a4cfa2c1b582303dd0b4",
      "function": "delistAsset(string)",
      "arguments": [
        "V"
      ],
      "transaction": {
        "from": "0xf39fd6e51aad88f6f4ce6ab8827279cfffb92266",
        "to": "0x2d13826359803522cce7a4cfa2c1b582303dd0b4",
        "gas": "0xd90c",
        "value": "0x0",
        "input": "0x0f56add4000000000000000000000000000000000000000000000000000000000000002000000000000000000000000000000000000000000000000000000000000000015600000000000000000000000000000000000000000000000000000000000000",
        "nonce": "0x209",
        "chainId": "0xa455"
      },
      "additionalContracts": [],
      "isFixedGasLimit": false
    },
    {
      "hash": "0x81e9e3910fac81dc35c1449ab419ddd7fbd59a0f73f9a77cfb85bc1c4ac867ba",
      "transactionType": "CALL",
      "contractName": null,
      "contractAddress": "0x2d13826359803522cce7a4cfa2c1b582303dd0b4",
      "function": "delistAsset(string)",
      "arguments": [
        "DIS"
      ],
      "transaction": {
        "from": "0xf39fd6e51aad88f6f4ce6ab8827279cfffb92266",
        "to": "0x2d13826359803522cce7a4cfa2c1b582303dd0b4",
        "gas": "0xcce0",
        "value": "0x0",
        "input": "0x0f56add4000000000000000000000000000000000000000000000000000000000000002000000000000000000000000000000000000000000000000000000000000000034449530000000000000000000000000000000000000000000000000000000000",
        "nonce": "0x20a",
        "chainId": "0xa455"
      },
      "additionalContracts": [],
      "isFixedGasLimit": false
    },
    {
      "hash": "0x4f8de9a44ae1a61e1544471173d031ed2840ee73f3915b0d7eec1105b1d83218",
      "transactionType": "CALL",
      "contractName": null,
      "contractAddress": "0x2d13826359803522cce7a4cfa2c1b582303dd0b4",
      "function": "delistAsset(string)",
      "arguments": [
        "NFLX"
      ],
      "transaction": {
        "from": "0xf39fd6e51aad88f6f4ce6ab8827279cfffb92266",
        "to": "0x2d13826359803522cce7a4cfa2c1b582303dd0b4",
        "gas": "0xc29f",
        "value": "0x0",
        "input": "0x0f56add4000000000000000000000000000000000000000000000000000000000000002000000000000000000000000000000000000000000000000000000000000000044e464c5800000000000000000000000000000000000000000000000000000000",
        "nonce": "0x20b",
        "chainId": "0xa455"
      },
      "additionalContracts": [],
      "isFixedGasLimit": false
    },
    {
      "hash": "0x380f1c01dfa155396b37dba0cfdaa0f8bbce2cb36c90299f1f2248a488ad89d8",
      "transactionType": "CALL",
      "contractName": null,
      "contractAddress": "0x2d13826359803522cce7a4cfa2c1b582303dd0b4",
      "function": "delistAsset(string)",
      "arguments": [
        "AMD"
      ],
      "transaction": {
        "from": "0xf39fd6e51aad88f6f4ce6ab8827279cfffb92266",
        "to": "0x2d13826359803522cce7a4cfa2c1b582303dd0b4",
        "gas": "0xc31c",
        "value": "0x0",
        "input": "0x0f56add400000000000000000000000000000000000000000000000000000000000000200000000000000000000000000000000000000000000000000000000000000003414d440000000000000000000000000000000000000000000000000000000000",
        "nonce": "0x20c",
        "chainId": "0xa455"
      },
      "additionalContracts": [],
      "isFixedGasLimit": false
    },
    {
      "hash": "0xc98169df45c873698278168618a318ba233f6886eccebe5c6322e5311650db9d",
      "transactionType": "CALL",
      "contractName": null,
      "contractAddress": "0x2d13826359803522cce7a4cfa2c1b582303dd0b4",
      "function": "listAsset(string,string,address)",
      "arguments": [
        "AAPL",
        "Synthetic Apple Inc.",
        "0xbFD3c8A956AFB7a9754C951D03C9aDdA7EC5d638"
      ],
      "transaction": {
        "from": "0xf39fd6e51aad88f6f4ce6ab8827279cfffb92266",
        "to": "0x2d13826359803522cce7a4cfa2c1b582303dd0b4",
        "gas": "0x46b75",
        "value": "0x0",
        "input": "0x9b7fd154000000000000000000000000000000000000000000000000000000000000006000000000000000000000000000000000000000000000000000000000000000a0000000000000000000000000bfd3c8a956afb7a9754c951d03c9adda7ec5d63800000000000000000000000000000000000000000000000000000000000000044141504c00000000000000000000000000000000000000000000000000000000000000000000000000000000000000000000000000000000000000000000001453796e746865746963204170706c6520496e632e000000000000000000000000",
        "nonce": "0x20d",
        "chainId": "0xa455"
      },
      "additionalContracts": [
        {
          "transactionType": "CREATE",
          "contractName": null,
          "address": "0xfd195eec3adb4d9484065dcde04d9f657a5f8c45",
          "initCode": "0x3d602d80600a3d3981f3363d3d373d3d3d363d73839e84bfa5999b94cabc59ffa56e0e08bda16ea85af43d82803e903d91602b57fd5bf3"
        }
      ],
      "isFixedGasLimit": false
    },
    {
      "hash": "0x33837700c2610825cdafcf5f0dec8cf459ef580144356a43a102ac41b48dc26a",
      "transactionType": "CALL",
      "contractName": "CollateralVault",
      "contractAddress": "0xbfd3c8a956afb7a9754c951d03c9adda7ec5d638",
      "function": "registerAsset(string,address)",
      "arguments": [
        "AAPL",
        "0xfD195EeC3ADB4D9484065dcde04D9F657a5F8c45"
      ],
      "transaction": {
        "from": "0xf39fd6e51aad88f6f4ce6ab8827279cfffb92266",
        "to": "0xbfd3c8a956afb7a9754c951d03c9adda7ec5d638",
        "gas": "0x1829e",
        "value": "0x0",
        "input": "0x8c2261ad0000000000000000000000000000000000000000000000000000000000000040000000000000000000000000fd195eec3adb4d9484065dcde04d9f657a5f8c4500000000000000000000000000000000000000000000000000000000000000044141504c00000000000000000000000000000000000000000000000000000000",
        "nonce": "0x20e",
        "chainId": "0xa455"
      },
      "additionalContracts": [],
      "isFixedGasLimit": false
    },
    {
      "hash": "0xee59282eb7071d31a380aa3187cd9ffc448abfcfccf5b5b6569c172bf0e6b06b",
      "transactionType": "CALL",
      "contractName": null,
      "contractAddress": "0x2d13826359803522cce7a4cfa2c1b582303dd0b4",
      "function": "listAsset(string,string,address)",
      "arguments": [
        "TSLA",
        "Synthetic Tesla Inc.",
        "0xbFD3c8A956AFB7a9754C951D03C9aDdA7EC5d638"
      ],
      "transaction": {
        "from": "0xf39fd6e51aad88f6f4ce6ab8827279cfffb92266",
        "to": "0x2d13826359803522cce7a4cfa2c1b582303dd0b4",
        "gas": "0x40f31",
        "value": "0x0",
        "input": "0x9b7fd154000000000000000000000000000000000000000000000000000000000000006000000000000000000000000000000000000000000000000000000000000000a0000000000000000000000000bfd3c8a956afb7a9754c951d03c9adda7ec5d638000000000000000000000000000000000000000000000000000000000000000454534c4100000000000000000000000000000000000000000000000000000000000000000000000000000000000000000000000000000000000000000000001453796e746865746963205465736c6120496e632e000000000000000000000000",
        "nonce": "0x20f",
        "chainId": "0xa455"
      },
      "additionalContracts": [
        {
          "transactionType": "CREATE",
          "contractName": null,
          "address": "0xab8c68e77d2584437b8f2ced454d33e6b7d1ef48",
          "initCode": "0x3d602d80600a3d3981f3363d3d373d3d3d363d73839e84bfa5999b94cabc59ffa56e0e08bda16ea85af43d82803e903d91602b57fd5bf3"
        }
      ],
      "isFixedGasLimit": false
    },
    {
      "hash": "0x72db33f5dbca10ac52b218e63f01c6de5814585a5f19f270b8aaa60cbad9f0ea",
      "transactionType": "CALL",
      "contractName": "CollateralVault",
      "contractAddress": "0xbfd3c8a956afb7a9754c951d03c9adda7ec5d638",
      "function": "registerAsset(string,address)",
      "arguments": [
        "TSLA",
        "0xAB8C68E77d2584437b8F2ceD454D33e6B7d1eF48"
      ],
      "transaction": {
        "from": "0xf39fd6e51aad88f6f4ce6ab8827279cfffb92266",
        "to": "0xbfd3c8a956afb7a9754c951d03c9adda7ec5d638",
        "gas": "0x1829e",
        "value": "0x0",
        "input": "0x8c2261ad0000000000000000000000000000000000000000000000000000000000000040000000000000000000000000ab8c68e77d2584437b8f2ced454d33e6b7d1ef48000000000000000000000000000000000000000000000000000000000000000454534c4100000000000000000000000000000000000000000000000000000000",
        "nonce": "0x210",
        "chainId": "0xa455"
      },
      "additionalContracts": [],
      "isFixedGasLimit": false
    },
    {
      "hash": "0x60b3f9abcc4ee065b8099b7ab9f7196e1804fce2e6e9d236ce3c1c269b588488",
      "transactionType": "CALL",
      "contractName": null,
      "contractAddress": "0x2d13826359803522cce7a4cfa2c1b582303dd0b4",
      "function": "listAsset(string,string,address)",
      "arguments": [
        "NVDA",
        "Synthetic NVIDIA Corp.",
        "0xbFD3c8A956AFB7a9754C951D03C9aDdA7EC5d638"
      ],
      "transaction": {
        "from": "0xf39fd6e51aad88f6f4ce6ab8827279cfffb92266",
        "to": "0x2d13826359803522cce7a4cfa2c1b582303dd0b4",
        "gas": "0x40f53",
        "value": "0x0",
        "input": "0x9b7fd154000000000000000000000000000000000000000000000000000000000000006000000000000000000000000000000000000000000000000000000000000000a0000000000000000000000000bfd3c8a956afb7a9754c951d03c9adda7ec5d63800000000000000000000000000000000000000000000000000000000000000044e56444100000000000000000000000000000000000000000000000000000000000000000000000000000000000000000000000000000000000000000000001653796e746865746963204e564944494120436f72702e00000000000000000000",
        "nonce": "0x211",
        "chainId": "0xa455"
      },
      "additionalContracts": [
        {
          "transactionType": "CREATE",
          "contractName": null,
          "address": "0x60f83010b4a0509ea8c7a7993471e9a4b3c82dbc",
          "initCode": "0x3d602d80600a3d3981f3363d3d373d3d3d363d73839e84bfa5999b94cabc59ffa56e0e08bda16ea85af43d82803e903d91602b57fd5bf3"
        }
      ],
      "isFixedGasLimit": false
    },
    {
      "hash": "0x7a9e13328a8cfb1ddfa03cf9587fc30e3d821263d239812cf4279b6bdda000f2",
      "transactionType": "CALL",
      "contractName": "CollateralVault",
      "contractAddress": "0xbfd3c8a956afb7a9754c951d03c9adda7ec5d638",
      "function": "registerAsset(string,address)",
      "arguments": [
        "NVDA",
        "0x60f83010b4a0509ea8c7a7993471e9a4B3C82dBc"
      ],
      "transaction": {
        "from": "0xf39fd6e51aad88f6f4ce6ab8827279cfffb92266",
        "to": "0xbfd3c8a956afb7a9754c951d03c9adda7ec5d638",
        "gas": "0x1829e",
        "value": "0x0",
        "input": "0x8c2261ad000000000000000000000000000000000000000000000000000000000000004000000000000000000000000060f83010b4a0509ea8c7a7993471e9a4b3c82dbc00000000000000000000000000000000000000000000000000000000000000044e56444100000000000000000000000000000000000000000000000000000000",
        "nonce": "0x212",
        "chainId": "0xa455"
      },
      "additionalContracts": [],
      "isFixedGasLimit": false
    },
    {
      "hash": "0xf385bc90bb4140f4bf298d64237465a067c21e4af21bb67cecb8595f437d1ab9",
      "transactionType": "CALL",
      "contractName": null,
      "contractAddress": "0x2d13826359803522cce7a4cfa2c1b582303dd0b4",
      "function": "listAsset(string,string,address)",
      "arguments": [
        "MSFT",
        "Synthetic Microsoft Corp.",
        "0xbFD3c8A956AFB7a9754C951D03C9aDdA7EC5d638"
      ],
      "transaction": {
        "from": "0xf39fd6e51aad88f6f4ce6ab8827279cfffb92266",
        "to": "0x2d13826359803522cce7a4cfa2c1b582303dd0b4",
        "gas": "0x40f84",
        "value": "0x0",
        "input": "0x9b7fd154000000000000000000000000000000000000000000000000000000000000006000000000000000000000000000000000000000000000000000000000000000a0000000000000000000000000bfd3c8a956afb7a9754c951d03c9adda7ec5d63800000000000000000000000000000000000000000000000000000000000000044d53465400000000000000000000000000000000000000000000000000000000000000000000000000000000000000000000000000000000000000000000001953796e746865746963204d6963726f736f667420436f72702e00000000000000",
        "nonce": "0x213",
        "chainId": "0xa455"
      },
      "additionalContracts": [
        {
          "transactionType": "CREATE",
          "contractName": null,
          "address": "0xc15476cfc8559fd9528141abea459a709d86b586",
          "initCode": "0x3d602d80600a3d3981f3363d3d373d3d3d363d73839e84bfa5999b94cabc59ffa56e0e08bda16ea85af43d82803e903d91602b57fd5bf3"
        }
      ],
      "isFixedGasLimit": false
    },
    {
      "hash": "0xd07d424fa16b6e47aa2752cdcc2e95f85c626ff4e1331c5e0572c56b4dddd513",
      "transactionType": "CALL",
      "contractName": "CollateralVault",
      "contractAddress": "0xbfd3c8a956afb7a9754c951d03c9adda7ec5d638",
      "function": "registerAsset(string,address)",
      "arguments": [
        "MSFT",
        "0xC15476cFC8559FD9528141aBea459A709d86b586"
      ],
      "transaction": {
        "from": "0xf39fd6e51aad88f6f4ce6ab8827279cfffb92266",
        "to": "0xbfd3c8a956afb7a9754c951d03c9adda7ec5d638",
        "gas": "0x1829e",
        "value": "0x0",
        "input": "0x8c2261ad0000000000000000000000000000000000000000000000000000000000000040000000000000000000000000c15476cfc8559fd9528141abea459a709d86b58600000000000000000000000000000000000000000000000000000000000000044d53465400000000000000000000000000000000000000000000000000000000",
        "nonce": "0x214",
        "chainId": "0xa455"
      },
      "additionalContracts": [],
      "isFixedGasLimit": false
    },
    {
      "hash": "0x30a04e597ad64d220443971678801f09eb85c9c8196d56e7e99a26347d406245",
      "transactionType": "CALL",
      "contractName": null,
      "contractAddress": "0x2d13826359803522cce7a4cfa2c1b582303dd0b4",
      "function": "listAsset(string,string,address)",
      "arguments": [
        "AMZN",
        "Synthetic Amazon.com Inc.",
        "0xbFD3c8A956AFB7a9754C951D03C9aDdA7EC5d638"
      ],
      "transaction": {
        "from": "0xf39fd6e51aad88f6f4ce6ab8827279cfffb92266",
        "to": "0x2d13826359803522cce7a4cfa2c1b582303dd0b4",
        "gas": "0x40f84",
        "value": "0x0",
        "input": "0x9b7fd154000000000000000000000000000000000000000000000000000000000000006000000000000000000000000000000000000000000000000000000000000000a0000000000000000000000000bfd3c8a956afb7a9754c951d03c9adda7ec5d6380000000000000000000000000000000000000000000000000000000000000004414d5a4e00000000000000000000000000000000000000000000000000000000000000000000000000000000000000000000000000000000000000000000001953796e74686574696320416d617a6f6e2e636f6d20496e632e00000000000000",
        "nonce": "0x215",
        "chainId": "0xa455"
      },
      "additionalContracts": [
        {
          "transactionType": "CREATE",
          "contractName": null,
          "address": "0xb701cdea95f11bad434eb5f4fad1320ed3544394",
          "initCode": "0x3d602d80600a3d3981f3363d3d373d3d3d363d73839e84bfa5999b94cabc59ffa56e0e08bda16ea85af43d82803e903d91602b57fd5bf3"
        }
      ],
      "isFixedGasLimit": false
    },
    {
      "hash": "0x8747289f25bf1a19690b8050ab196c3d19b514cdbbbf7406590fc1388c148961",
      "transactionType": "CALL",
      "contractName": "CollateralVault",
      "contractAddress": "0xbfd3c8a956afb7a9754c951d03c9adda7ec5d638",
      "function": "registerAsset(string,address)",
      "arguments": [
        "AMZN",
        "0xB701cDEA95F11bad434eb5F4fAd1320ED3544394"
      ],
      "transaction": {
        "from": "0xf39fd6e51aad88f6f4ce6ab8827279cfffb92266",
        "to": "0xbfd3c8a956afb7a9754c951d03c9adda7ec5d638",
        "gas": "0x1829e",
        "value": "0x0",
        "input": "0x8c2261ad0000000000000000000000000000000000000000000000000000000000000040000000000000000000000000b701cdea95f11bad434eb5f4fad1320ed35443940000000000000000000000000000000000000000000000000000000000000004414d5a4e00000000000000000000000000000000000000000000000000000000",
        "nonce": "0x216",
        "chainId": "0xa455"
      },
      "additionalContracts": [],
      "isFixedGasLimit": false
    },
    {
      "hash": "0x82f7d25b4143f921ea20208aa480b489ea742d27b47438817921b97c4f5e4818",
      "transactionType": "CALL",
      "contractName": null,
      "contractAddress": "0x2d13826359803522cce7a4cfa2c1b582303dd0b4",
      "function": "listAsset(string,string,address)",
      "arguments": [
        "GOOGL",
        "Synthetic Alphabet Inc.",
        "0xbFD3c8A956AFB7a9754C951D03C9aDdA7EC5d638"
      ],
      "transaction": {
        "from": "0xf39fd6e51aad88f6f4ce6ab8827279cfffb92266",
        "to": "0x2d13826359803522cce7a4cfa2c1b582303dd0b4",
        "gas": "0x40f73",
        "value": "0x0",
        "input": "0x9b7fd154000000000000000000000000000000000000000000000000000000000000006000000000000000000000000000000000000000000000000000000000000000a0000000000000000000000000bfd3c8a956afb7a9754c951d03c9adda7ec5d6380000000000000000000000000000000000000000000000000000000000000005474f4f474c000000000000000000000000000000000000000000000000000000000000000000000000000000000000000000000000000000000000000000001753796e74686574696320416c70686162657420496e632e000000000000000000",
        "nonce": "0x217",
        "chainId": "0xa455"
      },
      "additionalContracts": [
        {
          "transactionType": "CREATE",
          "contractName": null,
          "address": "0xfc97f96f115d4411821bd64be4c6ad670f7c0818",
          "initCode": "0x3d602d80600a3d3981f3363d3d373d3d3d363d73839e84bfa5999b94cabc59ffa56e0e08bda16ea85af43d82803e903d91602b57fd5bf3"
        }
      ],
      "isFixedGasLimit": false
    },
    {
      "hash": "0x0b88baa64e9a4c583c1e6c7fcc92b4aaaacebba432ccf3886ffa14da3a54174f",
      "transactionType": "CALL",
      "contractName": "CollateralVault",
      "contractAddress": "0xbfd3c8a956afb7a9754c951d03c9adda7ec5d638",
      "function": "registerAsset(string,address)",
      "arguments": [
        "GOOGL",
        "0xfC97F96F115d4411821BD64Be4C6Ad670F7c0818"
      ],
      "transaction": {
        "from": "0xf39fd6e51aad88f6f4ce6ab8827279cfffb92266",
        "to": "0xbfd3c8a956afb7a9754c951d03c9adda7ec5d638",
        "gas": "0x182af",
        "value": "0x0",
        "input": "0x8c2261ad0000000000000000000000000000000000000000000000000000000000000040000000000000000000000000fc97f96f115d4411821bd64be4c6ad670f7c08180000000000000000000000000000000000000000000000000000000000000005474f4f474c000000000000000000000000000000000000000000000000000000",
        "nonce": "0x218",
        "chainId": "0xa455"
      },
      "additionalContracts": [],
      "isFixedGasLimit": false
    },
    {
      "hash": "0x9110c016801378c1f1331e2cffac32ac0c1a43b40546a025ed9aec8c433f65ba",
      "transactionType": "CALL",
      "contractName": null,
      "contractAddress": "0x2d13826359803522cce7a4cfa2c1b582303dd0b4",
      "function": "listAsset(string,string,address)",
      "arguments": [
        "META",
        "Synthetic Meta Platforms",
        "0xbFD3c8A956AFB7a9754C951D03C9aDdA7EC5d638"
      ],
      "transaction": {
        "from": "0xf39fd6e51aad88f6f4ce6ab8827279cfffb92266",
        "to": "0x2d13826359803522cce7a4cfa2c1b582303dd0b4",
        "gas": "0x40f73",
        "value": "0x0",
        "input": "0x9b7fd154000000000000000000000000000000000000000000000000000000000000006000000000000000000000000000000000000000000000000000000000000000a0000000000000000000000000bfd3c8a956afb7a9754c951d03c9adda7ec5d63800000000000000000000000000000000000000000000000000000000000000044d45544100000000000000000000000000000000000000000000000000000000000000000000000000000000000000000000000000000000000000000000001853796e746865746963204d65746120506c6174666f726d730000000000000000",
        "nonce": "0x219",
        "chainId": "0xa455"
      },
      "additionalContracts": [
        {
          "transactionType": "CREATE",
          "contractName": null,
          "address": "0xa9859e16d4de5e71649f5d28cd47dddce2af40cb",
          "initCode": "0x3d602d80600a3d3981f3363d3d373d3d3d363d73839e84bfa5999b94cabc59ffa56e0e08bda16ea85af43d82803e903d91602b57fd5bf3"
        }
      ],
      "isFixedGasLimit": false
    },
    {
      "hash": "0x6b7c1f126aba538758a9ba9ec531cbdad136abd4949383f5b272651e2306693f",
      "transactionType": "CALL",
      "contractName": "CollateralVault",
      "contractAddress": "0xbfd3c8a956afb7a9754c951d03c9adda7ec5d638",
      "function": "registerAsset(string,address)",
      "arguments": [
        "META",
        "0xa9859e16D4DE5e71649F5D28cd47Dddce2af40CB"
      ],
      "transaction": {
        "from": "0xf39fd6e51aad88f6f4ce6ab8827279cfffb92266",
        "to": "0xbfd3c8a956afb7a9754c951d03c9adda7ec5d638",
        "gas": "0x1829e",
        "value": "0x0",
        "input": "0x8c2261ad0000000000000000000000000000000000000000000000000000000000000040000000000000000000000000a9859e16d4de5e71649f5d28cd47dddce2af40cb00000000000000000000000000000000000000000000000000000000000000044d45544100000000000000000000000000000000000000000000000000000000",
        "nonce": "0x21a",
        "chainId": "0xa455"
      },
      "additionalContracts": [],
      "isFixedGasLimit": false
    },
    {
      "hash": "0x9ad236066b58b8f46dccc4cd5563ced87fbee6856fe851a2225eb05fb63e764a",
      "transactionType": "CALL",
      "contractName": null,
      "contractAddress": "0x2d13826359803522cce7a4cfa2c1b582303dd0b4",
      "function": "listAsset(string,string,address)",
      "arguments": [
        "JPM",
        "Synthetic JPMorgan Chase",
        "0xbFD3c8A956AFB7a9754C951D03C9aDdA7EC5d638"
      ],
      "transaction": {
        "from": "0xf39fd6e51aad88f6f4ce6ab8827279cfffb92266",
        "to": "0x2d13826359803522cce7a4cfa2c1b582303dd0b4",
        "gas": "0x40f64",
        "value": "0x0",
        "input": "0x9b7fd154000000000000000000000000000000000000000000000000000000000000006000000000000000000000000000000000000000000000000000000000000000a0000000000000000000000000bfd3c8a956afb7a9754c951d03c9adda7ec5d63800000000000000000000000000000000000000000000000000000000000000034a504d0000000000000000000000000000000000000000000000000000000000000000000000000000000000000000000000000000000000000000000000001853796e746865746963204a504d6f7267616e2043686173650000000000000000",
        "nonce": "0x21b",
        "chainId": "0xa455"
      },
      "additionalContracts": [
        {
          "transactionType": "CREATE",
          "contractName": null,
          "address": "0x9511722bf565df7420ab739b8e49894c5471fb28",
          "initCode": "0x3d602d80600a3d3981f3363d3d373d3d3d363d73839e84bfa5999b94cabc59ffa56e0e08bda16ea85af43d82803e903d91602b57fd5bf3"
        }
      ],
      "isFixedGasLimit": false
    },
    {
      "hash": "0x318efc15724b37586dbce8ddb36ffa473cbf34503a1bc3756694b92259c68689",
      "transactionType": "CALL",
      "contractName": "CollateralVault",
      "contractAddress": "0xbfd3c8a956afb7a9754c951d03c9adda7ec5d638",
      "function": "registerAsset(string,address)",
      "arguments": [
        "JPM",
        "0x9511722bF565DF7420AB739B8e49894c5471Fb28"
      ],
      "transaction": {
        "from": "0xf39fd6e51aad88f6f4ce6ab8827279cfffb92266",
        "to": "0xbfd3c8a956afb7a9754c951d03c9adda7ec5d638",
        "gas": "0x1828d",
        "value": "0x0",
        "input": "0x8c2261ad00000000000000000000000000000000000000000000000000000000000000400000000000000000000000009511722bf565df7420ab739b8e49894c5471fb2800000000000000000000000000000000000000000000000000000000000000034a504d0000000000000000000000000000000000000000000000000000000000",
        "nonce": "0x21c",
        "chainId": "0xa455"
      },
      "additionalContracts": [],
      "isFixedGasLimit": false
    },
    {
      "hash": "0xde2e37d069e86485756670799c16632d2db0b193eeedf068b6962fe170a3d4ec",
      "transactionType": "CALL",
      "contractName": null,
      "contractAddress": "0x2d13826359803522cce7a4cfa2c1b582303dd0b4",
      "function": "listAsset(string,string,address)",
      "arguments": [
        "V",
        "Synthetic Visa Inc.",
        "0xbFD3c8A956AFB7a9754C951D03C9aDdA7EC5d638"
      ],
      "transaction": {
        "from": "0xf39fd6e51aad88f6f4ce6ab8827279cfffb92266",
        "to": "0x2d13826359803522cce7a4cfa2c1b582303dd0b4",
        "gas": "0x40eef",
        "value": "0x0",
        "input": "0x9b7fd154000000000000000000000000000000000000000000000000000000000000006000000000000000000000000000000000000000000000000000000000000000a0000000000000000000000000bfd3c8a956afb7a9754c951d03c9adda7ec5d63800000000000000000000000000000000000000000000000000000000000000015600000000000000000000000000000000000000000000000000000000000000000000000000000000000000000000000000000000000000000000000000001353796e746865746963205669736120496e632e00000000000000000000000000",
        "nonce": "0x21d",
        "chainId": "0xa455"
      },
      "additionalContracts": [
        {
          "transactionType": "CREATE",
          "contractName": null,
          "address": "0x6efed18c2878f48179f9b52b251c7d4c834bbc0a",
          "initCode": "0x3d602d80600a3d3981f3363d3d373d3d3d363d73839e84bfa5999b94cabc59ffa56e0e08bda16ea85af43d82803e903d91602b57fd5bf3"
        }
      ],
      "isFixedGasLimit": false
    },
    {
      "hash": "0x74fba1dec0133f5873ef881fc5279514ea240a8becbad82c8ad119f04bbe2cd7",
      "transactionType": "CALL",
      "contractName": "CollateralVault",
      "contractAddress": "0xbfd3c8a956afb7a9754c951d03c9adda7ec5d638",
      "function": "registerAsset(string,address)",
      "arguments": [
        "V",
        "0x6efeD18c2878F48179F9B52b251c7d4C834BBC0A"
      ],
      "transaction": {
        "from": "0xf39fd6e51aad88f6f4ce6ab8827279cfffb92266",
        "to": "0xbfd3c8a956afb7a9754c951d03c9adda7ec5d638",
        "gas": "0x1826c",
        "value": "0x0",
        "input": "0x8c2261ad00000000000000000000000000000000000000000000000000000000000000400000000000000000000000006efed18c2878f48179f9b52b251c7d4c834bbc0a00000000000000000000000000000000000000000000000000000000000000015600000000000000000000000000000000000000000000000000000000000000",
        "nonce": "0x21e",
        "chainId": "0xa455"
      },
      "additionalContracts": [],
      "isFixedGasLimit": false
    },
    {
      "hash": "0x17ad0e1e51801d3cb32d0fcf630dccca02d59b170b5052fa629e43e8b3c070f4",
      "transactionType": "CALL",
      "contractName": null,
      "contractAddress": "0x2d13826359803522cce7a4cfa2c1b582303dd0b4",
      "function": "listAsset(string,string,address)",
      "arguments": [
        "DIS",
        "Synthetic Walt Disney Co.",
        "0xbFD3c8A956AFB7a9754C951D03C9aDdA7EC5d638"
      ],
      "transaction": {
        "from": "0xf39fd6e51aad88f6f4ce6ab8827279cfffb92266",
        "to": "0x2d13826359803522cce7a4cfa2c1b582303dd0b4",
        "gas": "0x40f73",
        "value": "0x0",
        "input": "0x9b7fd154000000000000000000000000000000000000000000000000000000000000006000000000000000000000000000000000000000000000000000000000000000a0000000000000000000000000bfd3c8a956afb7a9754c951d03c9adda7ec5d63800000000000000000000000000000000000000000000000000000000000000034449530000000000000000000000000000000000000000000000000000000000000000000000000000000000000000000000000000000000000000000000001953796e7468657469632057616c74204469736e657920436f2e00000000000000",
        "nonce": "0x21f",
        "chainId": "0xa455"
      },
      "additionalContracts": [
        {
          "transactionType": "CREATE",
          "contractName": null,
          "address": "0x3fdc5a01c707ef3b708dcdab36014af3e229e473",
          "initCode": "0x3d602d80600a3d3981f3363d3d373d3d3d363d73839e84bfa5999b94cabc59ffa56e0e08bda16ea85af43d82803e903d91602b57fd5bf3"
        }
      ],
      "isFixedGasLimit": false
    },
    {
      "hash": "0xa24daed937debeef2fd3ec7349856f9061acec2869cfd3633763b055dc68eb57",
      "transactionType": "CALL",
      "contractName": "CollateralVault",
      "contractAddress": "0xbfd3c8a956afb7a9754c951d03c9adda7ec5d638",
      "function": "registerAsset(string,address)",
      "arguments": [
        "DIS",
        "0x3FDc5a01c707Ef3B708Dcdab36014aF3e229E473"
      ],
      "transaction": {
        "from": "0xf39fd6e51aad88f6f4ce6ab8827279cfffb92266",
        "to": "0xbfd3c8a956afb7a9754c951d03c9adda7ec5d638",
        "gas": "0x1828d",
        "value": "0x0",
        "input": "0x8c2261ad00000000000000000000000000000000000000000000000000000000000000400000000000000000000000003fdc5a01c707ef3b708dcdab36014af3e229e47300000000000000000000000000000000000000000000000000000000000000034449530000000000000000000000000000000000000000000000000000000000",
        "nonce": "0x220",
        "chainId": "0xa455"
      },
      "additionalContracts": [],
      "isFixedGasLimit": false
    },
    {
      "hash": "0x37177f26dd392183858e276fe81e40845b80f624dbcd46ccc8d430f0ecf26b7b",
      "transactionType": "CALL",
      "contractName": null,
      "contractAddress": "0x2d13826359803522cce7a4cfa2c1b582303dd0b4",
      "function": "listAsset(string,string,address)",
      "arguments": [
        "NFLX",
        "Synthetic Netflix Inc.",
        "0xbFD3c8A956AFB7a9754C951D03C9aDdA7EC5d638"
      ],
      "transaction": {
        "from": "0xf39fd6e51aad88f6f4ce6ab8827279cfffb92266",
        "to": "0x2d13826359803522cce7a4cfa2c1b582303dd0b4",
        "gas": "0x40f53",
        "value": "0x0",
        "input": "0x9b7fd154000000000000000000000000000000000000000000000000000000000000006000000000000000000000000000000000000000000000000000000000000000a0000000000000000000000000bfd3c8a956afb7a9754c951d03c9adda7ec5d63800000000000000000000000000000000000000000000000000000000000000044e464c5800000000000000000000000000000000000000000000000000000000000000000000000000000000000000000000000000000000000000000000001653796e746865746963204e6574666c697820496e632e00000000000000000000",
        "nonce": "0x221",
        "chainId": "0xa455"
      },
      "additionalContracts": [
        {
          "transactionType": "CREATE",
          "contractName": null,
          "address": "0x3b156d26a707de6e792af47d5890e11d124f8d6c",
          "initCode": "0x3d602d80600a3d3981f3363d3d373d3d3d363d73839e84bfa5999b94cabc59ffa56e0e08bda16ea85af43d82803e903d91602b57fd5bf3"
        }
      ],
      "isFixedGasLimit": false
    },
    {
      "hash": "0x72b72dae29cb8a8e96ce6a90af0b99b598d1a5e7fe93231de9997fa61d9cecc1",
      "transactionType": "CALL",
      "contractName": "CollateralVault",
      "contractAddress": "0xbfd3c8a956afb7a9754c951d03c9adda7ec5d638",
      "function": "registerAsset(string,address)",
      "arguments": [
        "NFLX",
        "0x3B156D26a707de6E792Af47D5890E11D124F8D6C"
      ],
      "transaction": {
        "from": "0xf39fd6e51aad88f6f4ce6ab8827279cfffb92266",
        "to": "0xbfd3c8a956afb7a9754c951d03c9adda7ec5d638",
        "gas": "0x1829e",
        "value": "0x0",
        "input": "0x8c2261ad00000000000000000000000000000000000000000000000000000000000000400000000000000000000000003b156d26a707de6e792af47d5890e11d124f8d6c00000000000000000000000000000000000000000000000000000000000000044e464c5800000000000000000000000000000000000000000000000000000000",
        "nonce": "0x222",
        "chainId": "0xa455"
      },
      "additionalContracts": [],
      "isFixedGasLimit": false
    },
    {
      "hash": "0xe2f6c11af447a7dedc7383933c2dbdbd6acbddafa6097294fd05507a7aa05576",
      "transactionType": "CALL",
      "contractName": null,
      "contractAddress": "0x2d13826359803522cce7a4cfa2c1b582303dd0b4",
      "function": "listAsset(string,string,address)",
      "arguments": [
        "AMD",
        "Synthetic Advanced Micro Devices",
        "0xbFD3c8A956AFB7a9754C951D03C9aDdA7EC5d638"
      ],
      "transaction": {
        "from": "0xf39fd6e51aad88f6f4ce6ab8827279cfffb92266",
        "to": "0x2d13826359803522cce7a4cfa2c1b582303dd0b4",
        "gas": "0x487ae",
        "value": "0x0",
        "input": "0x9b7fd154000000000000000000000000000000000000000000000000000000000000006000000000000000000000000000000000000000000000000000000000000000a0000000000000000000000000bfd3c8a956afb7a9754c951d03c9adda7ec5d6380000000000000000000000000000000000000000000000000000000000000003414d440000000000000000000000000000000000000000000000000000000000000000000000000000000000000000000000000000000000000000000000002053796e74686574696320416476616e636564204d6963726f2044657669636573",
        "nonce": "0x223",
        "chainId": "0xa455"
      },
      "additionalContracts": [
        {
          "transactionType": "CREATE",
          "contractName": null,
          "address": "0x85ed4d86a147a281569dac55da64d74d9ff53409",
          "initCode": "0x3d602d80600a3d3981f3363d3d373d3d3d363d73839e84bfa5999b94cabc59ffa56e0e08bda16ea85af43d82803e903d91602b57fd5bf3"
        }
      ],
      "isFixedGasLimit": false
    },
    {
      "hash": "0x72915ae524b43daa3ba3be1abfce855c90044c184db40c7b3bc4fa20f72ad4de",
      "transactionType": "CALL",
      "contractName": "CollateralVault",
      "contractAddress": "0xbfd3c8a956afb7a9754c951d03c9adda7ec5d638",
      "function": "registerAsset(string,address)",
      "arguments": [
        "AMD",
        "0x85eD4d86A147a281569Dac55DA64D74d9fF53409"
      ],
      "transaction": {
        "from": "0xf39fd6e51aad88f6f4ce6ab8827279cfffb92266",
        "to": "0xbfd3c8a956afb7a9754c951d03c9adda7ec5d638",
        "gas": "0x1828d",
        "value": "0x0",
        "input": "0x8c2261ad000000000000000000000000000000000000000000000000000000000000004000000000000000000000000085ed4d86a147a281569dac55da64d74d9ff534090000000000000000000000000000000000000000000000000000000000000003414d440000000000000000000000000000000000000000000000000000000000",
        "nonce": "0x224",
        "chainId": "0xa455"
      },
      "additionalContracts": [],
      "isFixedGasLimit": false
    }
  ],
  "receipts": [
    {
      "status": "0x1",
      "cumulativeGasUsed": "0x1bc576",
      "logs": [],
      "logsBloom": "0x00000000000000000000000000000000000000000000000000000000000000000000000000000000000000000000000000000000000000000000000000000000000000000000000000000000000000000000000000000000000000000000000000000000000000000000000000000000000000000000000000000000000000000000000000000000000000000000000000000000000000000000000000000000000000000000000000000000000000000000000000000000000000000000000000000000000000000000000000000000000000000000000000000000000000000000000000000000000000000000000000000000000000000000000000000000",
      "type": "0x0",
      "transactionHash": "0x967424ddd6db0b8ff62bb0aa55d3a956b0975bdc1e6d7efec63a9fca276ab549",
      "transactionIndex": "0x0",
      "blockHash": "0xf3cdff93d4a5809b1a6fd7e760b8d925154e3c907d0652383a7bbc7512e2655c",
      "blockNumber": "0xab8d",
      "gasUsed": "0x1bc576",
      "effectiveGasPrice": "0x3b9aca07",
      "blobGasPrice": "0x1",
      "from": "0xf39fd6e51aad88f6f4ce6ab8827279cfffb92266",
      "to": null,
      "contractAddress": "0xbfd3c8a956afb7a9754c951d03c9adda7ec5d638",
      "blockTimestamp": 1775415100
    },
    {
      "status": "0x1",
      "cumulativeGasUsed": "0x1c59e9",
      "logs": [
        {
          "address": "0x2d13826359803522cce7a4cfa2c1b582303dd0b4",
          "topics": [
            "0x5bfa22150d2c3165c86da018685d9bd9dea01a28670324e4b6055b7b1edfde0d",
            "0x3a54a9a690616fbc26cfc409bf11f89d51f1d57a4ab2791fb86026cee74ed2f3"
          ],
          "data": "0x0000000000000000000000005cd50ea9490889cd9bf0be5e4b7d14d10bafca2b",
          "blockHash": "0xf3cdff93d4a5809b1a6fd7e760b8d925154e3c907d0652383a7bbc7512e2655c",
          "blockNumber": "0xab8d",
          "blockTimestamp": "0x69d2af3c",
          "transactionHash": "0xdfd1688f17e3230108862721b44f2b609342861caeaa8edde98d7b0a911a2bf6",
          "transactionIndex": "0x1",
          "logIndex": "0x0",
          "removed": false
        }
      ],
      "logsBloom": "0x00000000000000000000000000000000000108000000000000000000000000000000000000000000000000000000000000000000000000000002008000000000000000000000000000000000000000000000000000000000000000000000000000000000000000000000000000000000000000080000000000000000000000000000000000000000000000000000000000000000000000000000000000000000000000000000020000040000000000000100000000000000000000000000000000000000000000000000000001000000000000000000000000000000000000000000000000000000000000000000000000000000000000000000000000000000",
      "type": "0x0",
      "transactionHash": "0xdfd1688f17e3230108862721b44f2b609342861caeaa8edde98d7b0a911a2bf6",
      "transactionIndex": "0x1",
      "blockHash": "0xf3cdff93d4a5809b1a6fd7e760b8d925154e3c907d0652383a7bbc7512e2655c",
      "blockNumber": "0xab8d",
      "gasUsed": "0x9473",
      "effectiveGasPrice": "0x3b9aca07",
      "blobGasPrice": "0x1",
      "from": "0xf39fd6e51aad88f6f4ce6ab8827279cfffb92266",
      "to": "0x2d13826359803522cce7a4cfa2c1b582303dd0b4",
      "contractAddress": null,
      "blockTimestamp": 1775415100
    },
    {
      "status": "0x1",
      "cumulativeGasUsed": "0x1cf74b",
      "logs": [
        {
          "address": "0x2d13826359803522cce7a4cfa2c1b582303dd0b4",
          "topics": [
            "0x5bfa22150d2c3165c86da018685d9bd9dea01a28670324e4b6055b7b1edfde0d",
            "0x0a8f1f385fed9c77a2e0daa363ccc865e971bdbe4458bb570cc0acb068d7c0f2"
          ],
          "data": "0x00000000000000000000000065703fc15c25bf6cc2d6b8c17b50020f14f0de01",
          "blockHash": "0xf3cdff93d4a5809b1a6fd7e760b8d925154e3c907d0652383a7bbc7512e2655c",
          "blockNumber": "0xab8d",
          "blockTimestamp": "0x69d2af3c",
          "transactionHash": "0x1cc06b314b03d1992e2145b972e2b9134f95fe3378ed434348cdc1b41bf49a21",
          "transactionIndex": "0x2",
          "logIndex": "0x1",
          "removed": false
        }
      ],
      "logsBloom": "0x00000000000000000000000000000000000108000000000000000000000000000000000000000001000000000000000000000000000000000000008000000000000000000000000000000000000000000000000000000000000000000000000000000000000000000000000000000000000000080000000000000000000000000000000000000000000000000000000000000000000000000000000000000000000000000000020000040000000000000004002000000000000000000000000000000000000000000000000000000000000000000000000000000000000000000000000000000000000000000000000000000000000000000000000000000000",
      "type": "0x0",
      "transactionHash": "0x1cc06b314b03d1992e2145b972e2b9134f95fe3378ed434348cdc1b41bf49a21",
      "transactionIndex": "0x2",
      "blockHash": "0xf3cdff93d4a5809b1a6fd7e760b8d925154e3c907d0652383a7bbc7512e2655c",
      "blockNumber": "0xab8d",
      "gasUsed": "0x9d62",
      "effectiveGasPrice": "0x3b9aca07",
      "blobGasPrice": "0x1",
      "from": "0xf39fd6e51aad88f6f4ce6ab8827279cfffb92266",
      "to": "0x2d13826359803522cce7a4cfa2c1b582303dd0b4",
      "contractAddress": null,
      "blockTimestamp": 1775415100
    },
    {
      "status": "0x1",
      "cumulativeGasUsed": "0x1d9e00",
      "logs": [
        {
          "address": "0x2d13826359803522cce7a4cfa2c1b582303dd0b4",
          "topics": [
            "0x5bfa22150d2c3165c86da018685d9bd9dea01a28670324e4b6055b7b1edfde0d",
            "0xe108948b9667048232851f26a1427d3a908b22da622562906ca50ea536c2ecfb"
          ],
          "data": "0x000000000000000000000000f31b86a295a6006c81c795d00f123feb5afdf472",
          "blockHash": "0xf3cdff93d4a5809b1a6fd7e760b8d925154e3c907d0652383a7bbc7512e2655c",
          "blockNumber": "0xab8d",
          "blockTimestamp": "0x69d2af3c",
          "transactionHash": "0xe74988ebe941d14a6259d2f95964705552311e1d00bc3f7f5a98dd690aee4ece",
          "transactionIndex": "0x3",
          "logIndex": "0x2",
          "removed": false
        }
      ],
      "logsBloom": "0x00000000000000000000000000000000000108000000000000000000000000000000000000000000000000000000000000000000000000000000008000000000000000000000000000000000000000000000000000000000000000000000000000480000000000000000000000000000000000080000000000000000000000000000000000000000000000000000000000000000000000000000000000000000000000000000020000040000000000000000000000000000000000000000000000000000000000000000000000000000000000000000000000000000000000001000000000000000000000000000000000000000000000000000000000000000",
      "type": "0x0",
      "transactionHash": "0xe74988ebe941d14a6259d2f95964705552311e1d00bc3f7f5a98dd690aee4ece",
      "transactionIndex": "0x3",
      "blockHash": "0xf3cdff93d4a5809b1a6fd7e760b8d925154e3c907d0652383a7bbc7512e2655c",
      "blockNumber": "0xab8d",
      "gasUsed": "0xa6b5",
      "effectiveGasPrice": "0x3b9aca07",
      "blobGasPrice": "0x1",
      "from": "0xf39fd6e51aad88f6f4ce6ab8827279cfffb92266",
      "to": "0x2d13826359803522cce7a4cfa2c1b582303dd0b4",
      "contractAddress": null,
      "blockTimestamp": 1775415100
    },
    {
      "status": "0x1",
      "cumulativeGasUsed": "0x1e4e08",
      "logs": [
        {
          "address": "0x2d13826359803522cce7a4cfa2c1b582303dd0b4",
          "topics": [
            "0x5bfa22150d2c3165c86da018685d9bd9dea01a28670324e4b6055b7b1edfde0d",
            "0xb2023082f01404dd0ce6937cab03c4f5d6db9ba8b1fac7e7ee6d8d6d899f4e3d"
          ],
          "data": "0x00000000000000000000000099f3d3f8fee4e5aca92927c5e8d0495b8d008480",
          "blockHash": "0xf3cdff93d4a5809b1a6fd7e760b8d925154e3c907d0652383a7bbc7512e2655c",
          "blockNumber": "0xab8d",
          "blockTimestamp": "0x69d2af3c",
          "transactionHash": "0x58e99227a625dee06f568ce20b9112726f19f050e226f60c3c07bdefb530720f",
          "transactionIndex": "0x4",
          "logIndex": "0x3",
          "removed": false
        }
      ],
      "logsBloom": "0x00000000000000000000000000080000000108000000000000000000000000000000000000000000000000000000000000000000000000000000008000000000000000000000000000000000000000000000000000000000000000000000000000000000000000000000000000000000000000080000000000000000000000000000000000000000000000000000000000000000000000000000000000200000000000000000020000040000000000000000000000000000000000000000000000000000000000000000000000000000000000000000020000000000000000000000000000000000000000000000000000000000000000000000000000000000",
      "type": "0x0",
      "transactionHash": "0x58e99227a625dee06f568ce20b9112726f19f050e226f60c3c07bdefb530720f",
      "transactionIndex": "0x4",
      "blockHash": "0xf3cdff93d4a5809b1a6fd7e760b8d925154e3c907d0652383a7bbc7512e2655c",
      "blockNumber": "0xab8d",
      "gasUsed": "0xb008",
      "effectiveGasPrice": "0x3b9aca07",
      "blobGasPrice": "0x1",
      "from": "0xf39fd6e51aad88f6f4ce6ab8827279cfffb92266",
      "to": "0x2d13826359803522cce7a4cfa2c1b582303dd0b4",
      "contractAddress": null,
      "blockTimestamp": 1775415100
    },
    {
      "status": "0x1",
      "cumulativeGasUsed": "0x1f0763",
      "logs": [
        {
          "address": "0x2d13826359803522cce7a4cfa2c1b582303dd0b4",
          "topics": [
            "0x5bfa22150d2c3165c86da018685d9bd9dea01a28670324e4b6055b7b1edfde0d",
            "0x6c755094f1cdd95e2e4170549dc12e7555151536b32029b8d94678134de2ef0d"
          ],
          "data": "0x00000000000000000000000066e356591fcf2a44d85fb48a0dcb89b4eafef39d",
          "blockHash": "0xf3cdff93d4a5809b1a6fd7e760b8d925154e3c907d0652383a7bbc7512e2655c",
          "blockNumber": "0xab8d",
          "blockTimestamp": "0x69d2af3c",
          "transactionHash": "0x81e9e3910fac81dc35c1449ab419ddd7fbd59a0f73f9a77cfb85bc1c4ac867ba",
          "transactionIndex": "0x5",
          "logIndex": "0x4",
          "removed": false
        }
      ],
      "logsBloom": "0x00000000000000000000000000000000000108000000000000000000000000000000000000000000000000000000000000000000000000000000008000000000000000000000080000000000000000000000000000000001000000000000000000000000000000000000000000000000000000080000000000000000000000000000000000000000000000000000000000000000000000000000000000000000000000000000020000040000000000000000000000000000000000000000000000000000000000000000000000000000000000000000000000000000000000000000000000004000000000000000000000000000000000000000000000000000",
      "type": "0x0",
      "transactionHash": "0x81e9e3910fac81dc35c1449ab419ddd7fbd59a0f73f9a77cfb85bc1c4ac867ba",
      "transactionIndex": "0x5",
      "blockHash": "0xf3cdff93d4a5809b1a6fd7e760b8d925154e3c907d0652383a7bbc7512e2655c",
      "blockNumber": "0xab8d",
      "gasUsed": "0xb95b",
      "effectiveGasPrice": "0x3b9aca07",
      "blobGasPrice": "0x1",
      "from": "0xf39fd6e51aad88f6f4ce6ab8827279cfffb92266",
      "to": "0x2d13826359803522cce7a4cfa2c1b582303dd0b4",
      "contractAddress": null,
      "blockTimestamp": 1775415100
    },
    {
      "status": "0x1",
      "cumulativeGasUsed": "0x1fca1d",
      "logs": [
        {
          "address": "0x2d13826359803522cce7a4cfa2c1b582303dd0b4",
          "topics": [
            "0x5bfa22150d2c3165c86da018685d9bd9dea01a28670324e4b6055b7b1edfde0d",
            "0x5480d4740314d9a5fa65eac6dab758c3c95d65be45311b45c3551575d760e7d8"
          ],
          "data": "0x000000000000000000000000525679c456c772ea5a44ac83696677b473fcb7ea",
          "blockHash": "0xf3cdff93d4a5809b1a6fd7e760b8d925154e3c907d0652383a7bbc7512e2655c",
          "blockNumber": "0xab8d",
          "blockTimestamp": "0x69d2af3c",
          "transactionHash": "0xb8eefe85fd7dbb84379b5a75619eab5e65a3b3382d7d9839c7804f3300a66ad6",
          "transactionIndex": "0x6",
          "logIndex": "0x5",
          "removed": false
        }
      ],
      "logsBloom": "0x00000000000000000000000000000000000108000000000000000000000000000000000000000000000000000000000000000000000000000000008000000000000000000000000000000000000000000000000000000000000000000008000000000000000000000000000000000000000000080000000000000000000000000000000000000000000000000000000000000000000000000000000000000000000000000000020000040000000000000000100000000000000800000000000000000000000000000000000000000000000000000000000000000000000000000000000000000000000000000000000000000000000000000000000000000000",
      "type": "0x0",
      "transactionHash": "0xb8eefe85fd7dbb84379b5a75619eab5e65a3b3382d7d9839c7804f3300a66ad6",
      "transactionIndex": "0x6",
      "blockHash": "0xf3cdff93d4a5809b1a6fd7e760b8d925154e3c907d0652383a7bbc7512e2655c",
      "blockNumber": "0xab8d",
      "gasUsed": "0xc2ba",
      "effectiveGasPrice": "0x3b9aca07",
      "blobGasPrice": "0x1",
      "from": "0xf39fd6e51aad88f6f4ce6ab8827279cfffb92266",
      "to": "0x2d13826359803522cce7a4cfa2c1b582303dd0b4",
      "contractAddress": null,
      "blockTimestamp": 1775415100
    },
    {
      "status": "0x1",
      "cumulativeGasUsed": "0x207a0b",
      "logs": [
        {
          "address": "0x2d13826359803522cce7a4cfa2c1b582303dd0b4",
          "topics": [
            "0x5bfa22150d2c3165c86da018685d9bd9dea01a28670324e4b6055b7b1edfde0d",
            "0x0057355892fab25ddc63a7482ec1696d6ada670339b1ae464da8f6b958ddbee8"
          ],
          "data": "0x000000000000000000000000863ddb1dd6d87ca97ecdee7a330890914c185e01",
          "blockHash": "0xf3cdff93d4a5809b1a6fd7e760b8d925154e3c907d0652383a7bbc7512e2655c",
          "blockNumber": "0xab8d",
          "blockTimestamp": "0x69d2af3c",
          "transactionHash": "0x47bb1bafccd42f63130b36ee5785a6c89141a2f343292376cb9db07c7f258b93",
          "transactionIndex": "0x7",
          "logIndex": "0x6",
          "removed": false
        }
      ],
      "logsBloom": "0x00000000000000000000000000000000000108000000000000000000000000000000000000000000000000000000000000000000000000000000008000000000000000000000000000000000000000000000000000000000000000000000000000000000100000000000000008000000000000080000000000000000000000000000000000000000000000000000000000000000000000000000000000000000000000000000020000040000000000000000000000000000000000000000000000000000000000000000000000000000000000000000000000000000000000400000000000000000000000000000000000000000000000000000000000000000",
      "type": "0x0",
      "transactionHash": "0x47bb1bafccd42f63130b36ee5785a6c89141a2f343292376cb9db07c7f258b93",
      "transactionIndex": "0x7",
      "blockHash": "0xf3cdff93d4a5809b1a6fd7e760b8d925154e3c907d0652383a7bbc7512e2655c",
      "blockNumber": "0xab8d",
      "gasUsed": "0xafee",
      "effectiveGasPrice": "0x3b9aca07",
      "blobGasPrice": "0x1",
      "from": "0xf39fd6e51aad88f6f4ce6ab8827279cfffb92266",
      "to": "0x2d13826359803522cce7a4cfa2c1b582303dd0b4",
      "contractAddress": null,
      "blockTimestamp": 1775415100
    },
    {
      "status": "0x1",
      "cumulativeGasUsed": "0x21209a",
      "logs": [
        {
          "address": "0x2d13826359803522cce7a4cfa2c1b582303dd0b4",
          "topics": [
            "0x5bfa22150d2c3165c86da018685d9bd9dea01a28670324e4b6055b7b1edfde0d",
            "0x7c66dfce614e9a88c33dd01ffd47e917575e527015d5ead8069719869ba53f20"
          ],
          "data": "0x0000000000000000000000000e4cfda4118d7b73619ccce1f7e7d83bdab6ba84",
          "blockHash": "0xf3cdff93d4a5809b1a6fd7e760b8d925154e3c907d0652383a7bbc7512e2655c",
          "blockNumber": "0xab8d",
          "blockTimestamp": "0x69d2af3c",
          "transactionHash": "0x4f8de9a44ae1a61e1544471173d031ed2840ee73f3915b0d7eec1105b1d83218",
          "transactionIndex": "0x8",
          "logIndex": "0x7",
          "removed": false
        }
      ],
      "logsBloom": "0x00000000000000000000000000000000000108000000000000000000000000000000000000004000000000000000000080000000000000000000008000000000000000000000000000000000000000000000000000000000000000000000000000000000000000000000000000000000000000080000000000000000000000000000000000000000000000000000000000000000000000000000000000000000000000000000020000040000000000000000000000000000000000000000010000000000000000000000000000000000000000000000000000000000000000000000000000000000000000000000000000000000000000000000000000000000",
      "type": "0x0",
      "transactionHash": "0x4f8de9a44ae1a61e1544471173d031ed2840ee73f3915b0d7eec1105b1d83218",
      "transactionIndex": "0x8",
      "blockHash": "0xf3cdff93d4a5809b1a6fd7e760b8d925154e3c907d0652383a7bbc7512e2655c",
      "blockNumber": "0xab8d",
      "gasUsed": "0xa68f",
      "effectiveGasPrice": "0x3b9aca07",
      "blobGasPrice": "0x1",
      "from": "0xf39fd6e51aad88f6f4ce6ab8827279cfffb92266",
      "to": "0x2d13826359803522cce7a4cfa2c1b582303dd0b4",
      "contractAddress": null,
      "blockTimestamp": 1775415100
    },
    {
      "status": "0x1",
      "cumulativeGasUsed": "0x21bdbe",
      "logs": [
        {
          "address": "0x2d13826359803522cce7a4cfa2c1b582303dd0b4",
          "topics": [
            "0x5bfa22150d2c3165c86da018685d9bd9dea01a28670324e4b6055b7b1edfde0d",
            "0xf0da850a6b7c61a66cdd43ac7529affc6000442af1c1bdda1db3bb7220bf7613"
          ],
          "data": "0x000000000000000000000000b30c073428d029af183475f44beaed4bbfa0a039",
          "blockHash": "0xf3cdff93d4a5809b1a6fd7e760b8d925154e3c907d0652383a7bbc7512e2655c",
          "blockNumber": "0xab8d",
          "blockTimestamp": "0x69d2af3c",
          "transactionHash": "0x380f1c01dfa155396b37dba0cfdaa0f8bbce2cb36c90299f1f2248a488ad89d8",
          "transactionIndex": "0x9",
          "logIndex": "0x8",
          "removed": false
        }
      ],
      "logsBloom": "0x00000000000000000008000000000000000108000000000000000000000000000000000000000000000000000000000000000000000000000000008000000000000000000000000000000000000000000000000000000000000000000000000000000000000000000000000000000000000000080000000000000000000000000000000000000000000200000400000000000000000000000000000000000000000000000000020000040000000000000000000000000000000000000000000000000000000000000000000000000000000000000000000000000000000000000000000000000000000000000000000000000000000000000000000000000000",
      "type": "0x0",
      "transactionHash": "0x380f1c01dfa155396b37dba0cfdaa0f8bbce2cb36c90299f1f2248a488ad89d8",
      "transactionIndex": "0x9",
      "blockHash": "0xf3cdff93d4a5809b1a6fd7e760b8d925154e3c907d0652383a7bbc7512e2655c",
      "blockNumber": "0xab8d",
      "gasUsed": "0x9d24",
      "effectiveGasPrice": "0x3b9aca07",
      "blobGasPrice": "0x1",
      "from": "0xf39fd6e51aad88f6f4ce6ab8827279cfffb92266",
      "to": "0x2d13826359803522cce7a4cfa2c1b582303dd0b4",
      "contractAddress": null,
      "blockTimestamp": 1775415100
    },
    {
      "status": "0x1",
      "cumulativeGasUsed": "0x225212",
      "logs": [
        {
          "address": "0x2d13826359803522cce7a4cfa2c1b582303dd0b4",
          "topics": [
            "0x5bfa22150d2c3165c86da018685d9bd9dea01a28670324e4b6055b7b1edfde0d",
            "0x1ee390a6c6917753ffa9bb0bd83cc313e935b13e3daaba67038caf0e47f928f1"
          ],
          "data": "0x000000000000000000000000b32580ebf3d5ae6365b191d19233777a324dcc0f",
          "blockHash": "0xf3cdff93d4a5809b1a6fd7e760b8d925154e3c907d0652383a7bbc7512e2655c",
          "blockNumber": "0xab8d",
          "blockTimestamp": "0x69d2af3c",
          "transactionHash": "0xee59282eb7071d31a380aa3187cd9ffc448abfcfccf5b5b6569c172bf0e6b06b",
          "transactionIndex": "0xa",
          "logIndex": "0x9",
          "removed": false
        }
      ],
      "logsBloom": "0x00000000000000000000000000000000000108000000000000000000000000000000000000000000000000000000000000000000000000000000008000000000000000000000000000000000000000000000000000000000000000000000000000000000000000000000000000000000000000080000000000000000000000000000000000000000000000000000000000000000000000000000000000000200000000000000020100040000000000010000000000000000000000000000000000000000000000000000000000000000000000000000000000000000000000000000000000000000000000000000000000000000000000000000000000000000",
      "type": "0x0",
      "transactionHash": "0xee59282eb7071d31a380aa3187cd9ffc448abfcfccf5b5b6569c172bf0e6b06b",
      "transactionIndex": "0xa",
      "blockHash": "0xf3cdff93d4a5809b1a6fd7e760b8d925154e3c907d0652383a7bbc7512e2655c",
      "blockNumber": "0xab8d",
      "gasUsed": "0x9454",
      "effectiveGasPrice": "0x3b9aca07",
      "blobGasPrice": "0x1",
      "from": "0xf39fd6e51aad88f6f4ce6ab8827279cfffb92266",
      "to": "0x2d13826359803522cce7a4cfa2c1b582303dd0b4",
      "contractAddress": null,
      "blockTimestamp": 1775415100
    },
    {
      "status": "0x1",
      "cumulativeGasUsed": "0x22defa",
      "logs": [
        {
          "address": "0x2d13826359803522cce7a4cfa2c1b582303dd0b4",
          "topics": [
            "0x5bfa22150d2c3165c86da018685d9bd9dea01a28670324e4b6055b7b1edfde0d",
            "0x93524d81bcb78d74875943b3fa28cf64070d7736f6e1b17397c7ff43eaf73cfb"
          ],
          "data": "0x000000000000000000000000e86b8e2b0952b04885df6063df92484bc2006b0a",
          "blockHash": "0xf3cdff93d4a5809b1a6fd7e760b8d925154e3c907d0652383a7bbc7512e2655c",
          "blockNumber": "0xab8d",
          "blockTimestamp": "0x69d2af3c",
          "transactionHash": "0x60b3f9abcc4ee065b8099b7ab9f7196e1804fce2e6e9d236ce3c1c269b588488",
          "transactionIndex": "0xb",
          "logIndex": "0xa",
          "removed": false
        }
      ],
      "logsBloom": "0x00200000000000000000000000000000000108000000000000000000000000000000000000000000000000000000000000000000000000000000008000000000000000000000000000000000000000000000000000000000000000000000000000000000000000000000000000000000000000080000000000000000000000000000000000000000000000000000000000000000000000000000000000000000000000000000020000840000000000000000000000000000000000000000000000000000000000000000000000000000000000000000000000000000000000000000000000000000000000000000000000000000000000000100000000000000",
      "type": "0x0",
      "transactionHash": "0x60b3f9abcc4ee065b8099b7ab9f7196e1804fce2e6e9d236ce3c1c269b588488",
      "transactionIndex": "0xb",
      "blockHash": "0xf3cdff93d4a5809b1a6fd7e760b8d925154e3c907d0652383a7bbc7512e2655c",
      "blockNumber": "0xab8d",
      "gasUsed": "0x8ce8",
      "effectiveGasPrice": "0x3b9aca07",
      "blobGasPrice": "0x1",
      "from": "0xf39fd6e51aad88f6f4ce6ab8827279cfffb92266",
      "to": "0x2d13826359803522cce7a4cfa2c1b582303dd0b4",
      "contractAddress": null,
      "blockTimestamp": 1775415100
    },
    {
      "status": "0x1",
      "cumulativeGasUsed": "0x236463",
      "logs": [
        {
          "address": "0x2d13826359803522cce7a4cfa2c1b582303dd0b4",
          "topics": [
            "0x5bfa22150d2c3165c86da018685d9bd9dea01a28670324e4b6055b7b1edfde0d",
            "0x7dc334e1540f8915732d66591fe866306abf9102ccd56a9c3bebab2f76f305fb"
          ],
          "data": "0x000000000000000000000000d327c8301a078daa271dd357ddd63a8432219308",
          "blockHash": "0xf3cdff93d4a5809b1a6fd7e760b8d925154e3c907d0652383a7bbc7512e2655c",
          "blockNumber": "0xab8d",
          "blockTimestamp": "0x69d2af3c",
          "transactionHash": "0x33837700c2610825cdafcf5f0dec8cf459ef580144356a43a102ac41b48dc26a",
          "transactionIndex": "0xc",
          "logIndex": "0xb",
          "removed": false
        }
      ],
      "logsBloom": "0x00000000000000000000000000000000000108000400000000000000000000000000000000000000000000000000000000000000000000000000008000000000000000000000000000000000000000000000000000000000000000000000000000000000000000000000000000000000000000080000000000000000000000000000000000000000000000000000000000000000000000000000004000000000000000000000020000040000000000000000000000000000000000000000000000000000000000000000000000000000000000000000000000000000000000000000000000000000000000000000000000000000000000002000000000000000",
      "type": "0x0",
      "transactionHash": "0x33837700c2610825cdafcf5f0dec8cf459ef580144356a43a102ac41b48dc26a",
      "transactionIndex": "0xc",
      "blockHash": "0xf3cdff93d4a5809b1a6fd7e760b8d925154e3c907d0652383a7bbc7512e2655c",
      "blockNumber": "0xab8d",
      "gasUsed": "0x8569",
      "effectiveGasPrice": "0x3b9aca07",
      "blobGasPrice": "0x1",
      "from": "0xf39fd6e51aad88f6f4ce6ab8827279cfffb92266",
      "to": "0x2d13826359803522cce7a4cfa2c1b582303dd0b4",
      "contractAddress": null,
      "blockTimestamp": 1775415100
    },
    {
      "status": "0x1",
      "cumulativeGasUsed": "0x26978b",
      "logs": [
        {
          "address": "0x2d13826359803522cce7a4cfa2c1b582303dd0b4",
          "topics": [
            "0xe5f9c5663822b3882e2fa8f5fcbc56db18ccc15ec0ad63010c1e27bff6eb9269",
            "0x3a54a9a690616fbc26cfc409bf11f89d51f1d57a4ab2791fb86026cee74ed2f3"
          ],
          "data": "0x000000000000000000000000fd195eec3adb4d9484065dcde04d9f657a5f8c45000000000000000000000000bfd3c8a956afb7a9754c951d03c9adda7ec5d638",
          "blockHash": "0xf3cdff93d4a5809b1a6fd7e760b8d925154e3c907d0652383a7bbc7512e2655c",
          "blockNumber": "0xab8d",
          "blockTimestamp": "0x69d2af3c",
          "transactionHash": "0x72db33f5dbca10ac52b218e63f01c6de5814585a5f19f270b8aaa60cbad9f0ea",
          "transactionIndex": "0xd",
          "logIndex": "0xc",
          "removed": false
        }
      ],
      "logsBloom": "0x00000000000000000000000000000000000100000000000000000000000000000000000000000000000000000000000000000000000000000002008000000000000000000000000000000000000000000000000000000000000000000000000000000000000000000000000000000000000000000000000000000000000000000000000000000000000000000000000000000000000000000000000000000000000000000000000000040000000000000100000000000000000000000000000000000000000000000000000001000000000000000000000000200000000000000000000000000000000000000000800000000100000000000000000000000000",
      "type": "0x0",
      "transactionHash": "0x72db33f5dbca10ac52b218e63f01c6de5814585a5f19f270b8aaa60cbad9f0ea",
      "transactionIndex": "0xd",
      "blockHash": "0xf3cdff93d4a5809b1a6fd7e760b8d925154e3c907d0652383a7bbc7512e2655c",
      "blockNumber": "0xab8d",
      "gasUsed": "0x33328",
      "effectiveGasPrice": "0x3b9aca07",
      "blobGasPrice": "0x1",
      "from": "0xf39fd6e51aad88f6f4ce6ab8827279cfffb92266",
      "to": "0x2d13826359803522cce7a4cfa2c1b582303dd0b4",
      "contractAddress": null,
      "blockTimestamp": 1775415100
    },
    {
      "status": "0x1",
      "cumulativeGasUsed": "0x27af73",
      "logs": [
        {
          "address": "0xbfd3c8a956afb7a9754c951d03c9adda7ec5d638",
          "topics": [
            "0x9190ede1bbf154005e1cdc753cb24ff7912bf4412bf72342e5ab03ee770facf0",
            "0x3a54a9a690616fbc26cfc409bf11f89d51f1d57a4ab2791fb86026cee74ed2f3"
          ],
          "data": "0x0000000000000000000000000000000000000000000000000000000000000040000000000000000000000000fd195eec3adb4d9484065dcde04d9f657a5f8c4500000000000000000000000000000000000000000000000000000000000000044141504c00000000000000000000000000000000000000000000000000000000",
          "blockHash": "0xf3cdff93d4a5809b1a6fd7e760b8d925154e3c907d0652383a7bbc7512e2655c",
          "blockNumber": "0xab8d",
          "blockTimestamp": "0x69d2af3c",
          "transactionHash": "0x7a9e13328a8cfb1ddfa03cf9587fc30e3d821263d239812cf4279b6bdda000f2",
          "transactionIndex": "0xe",
          "logIndex": "0xd",
          "removed": false
        }
      ],
      "logsBloom": "0x00000000000000000000000000000000000000000000002000000000000000000000000000000000000000000000000000000000000000000002000000000000000000000000000000001000000000000000000000000000000000000000000000000000000000000000000000000000000000000000000000000000000000000000000000000000000000000000000000000000000000000000000000000000000000000000000000000000000000000100000000000000000000000000000000000008000000000000000001000000000000000000000000000000000000000000000000020000000000000000000000000008080000000000000000000000",
      "type": "0x0",
      "transactionHash": "0x7a9e13328a8cfb1ddfa03cf9587fc30e3d821263d239812cf4279b6bdda000f2",
      "transactionIndex": "0xe",
      "blockHash": "0xf3cdff93d4a5809b1a6fd7e760b8d925154e3c907d0652383a7bbc7512e2655c",
      "blockNumber": "0xab8d",
      "gasUsed": "0x117e8",
      "effectiveGasPrice": "0x3b9aca07",
      "blobGasPrice": "0x1",
      "from": "0xf39fd6e51aad88f6f4ce6ab8827279cfffb92266",
      "to": "0xbfd3c8a956afb7a9754c951d03c9adda7ec5d638",
      "contractAddress": null,
      "blockTimestamp": 1775415100
    },
    {
      "status": "0x1",
      "cumulativeGasUsed": "0x2a9fcf",
      "logs": [
        {
          "address": "0x2d13826359803522cce7a4cfa2c1b582303dd0b4",
          "topics": [
            "0xe5f9c5663822b3882e2fa8f5fcbc56db18ccc15ec0ad63010c1e27bff6eb9269",
            "0x0a8f1f385fed9c77a2e0daa363ccc865e971bdbe4458bb570cc0acb068d7c0f2"
          ],
          "data": "0x000000000000000000000000ab8c68e77d2584437b8f2ced454d33e6b7d1ef48000000000000000000000000bfd3c8a956afb7a9754c951d03c9adda7ec5d638",
          "blockHash": "0xf3cdff93d4a5809b1a6fd7e760b8d925154e3c907d0652383a7bbc7512e2655c",
          "blockNumber": "0xab8d",
          "blockTimestamp": "0x69d2af3c",
          "transactionHash": "0xf3d5b159b7b319f7ba2dd708085f4ee9122c887ea4741f14874cebc63907e9a0",
          "transactionIndex": "0xf",
          "logIndex": "0xe",
          "removed": false
        }
      ],
      "logsBloom": "0x00000000000000000000000000000000000100000000000000000000000000000000000000000001000000000000000000000000000000000000008000000000000000000000000000000000000000000000000000000000000000000000000000000000000000000000000000000000000000000000000000000000000000000000000000000000000000000000000000000000000000000000000000000000000000000000000000040000000000000004002000000000000000000000000000000000000000000000000000000000000000000000000000200000000000000000000000000000000000000000800000000100000000000000000000000000",
      "type": "0x0",
      "transactionHash": "0xf3d5b159b7b319f7ba2dd708085f4ee9122c887ea4741f14874cebc63907e9a0",
      "transactionIndex": "0xf",
      "blockHash": "0xf3cdff93d4a5809b1a6fd7e760b8d925154e3c907d0652383a7bbc7512e2655c",
      "blockNumber": "0xab8d",
      "gasUsed": "0x2f05c",
      "effectiveGasPrice": "0x3b9aca07",
      "blobGasPrice": "0x1",
      "from": "0xf39fd6e51aad88f6f4ce6ab8827279cfffb92266",
      "to": "0x2d13826359803522cce7a4cfa2c1b582303dd0b4",
      "contractAddress": null,
      "blockTimestamp": 1775415100
    },
    {
      "status": "0x1",
      "cumulativeGasUsed": "0x2bb7b7",
      "logs": [
        {
          "address": "0xbfd3c8a956afb7a9754c951d03c9adda7ec5d638",
          "topics": [
            "0x9190ede1bbf154005e1cdc753cb24ff7912bf4412bf72342e5ab03ee770facf0",
            "0x0a8f1f385fed9c77a2e0daa363ccc865e971bdbe4458bb570cc0acb068d7c0f2"
          ],
          "data": "0x0000000000000000000000000000000000000000000000000000000000000040000000000000000000000000ab8c68e77d2584437b8f2ced454d33e6b7d1ef48000000000000000000000000000000000000000000000000000000000000000454534c4100000000000000000000000000000000000000000000000000000000",
          "blockHash": "0xf3cdff93d4a5809b1a6fd7e760b8d925154e3c907d0652383a7bbc7512e2655c",
          "blockNumber": "0xab8d",
          "blockTimestamp": "0x69d2af3c",
          "transactionHash": "0xc98169df45c873698278168618a318ba233f6886eccebe5c6322e5311650db9d",
          "transactionIndex": "0x10",
          "logIndex": "0xf",
          "removed": false
        }
      ],
      "logsBloom": "0x00000000000000000000000000000000000000000000002000000000000000000000000000000001000000000000000000000000000000000000000000000000000000000000000000001000000000000000000000000000000000000000000000000000000000000000000000000000000000000000000000000000000000000000000000000000000000000000000000000000000000000000000000000000000000000000000000000000000000000004002000000000000000000000000000000008000000000000000000000000000000000000000000000000000000000000000000020000000000000000000000000008080000000000000000000000",
      "type": "0x0",
      "transactionHash": "0xc98169df45c873698278168618a318ba233f6886eccebe5c6322e5311650db9d",
      "transactionIndex": "0x10",
      "blockHash": "0xf3cdff93d4a5809b1a6fd7e760b8d925154e3c907d0652383a7bbc7512e2655c",
      "blockNumber": "0xab8d",
      "gasUsed": "0x117e8",
      "effectiveGasPrice": "0x3b9aca07",
      "blobGasPrice": "0x1",
      "from": "0xf39fd6e51aad88f6f4ce6ab8827279cfffb92266",
      "to": "0xbfd3c8a956afb7a9754c951d03c9adda7ec5d638",
      "contractAddress": null,
      "blockTimestamp": 1775415100
    },
    {
      "status": "0x1",
      "cumulativeGasUsed": "0x2ea82b",
      "logs": [
        {
          "address": "0x2d13826359803522cce7a4cfa2c1b582303dd0b4",
          "topics": [
            "0xe5f9c5663822b3882e2fa8f5fcbc56db18ccc15ec0ad63010c1e27bff6eb9269",
            "0xe108948b9667048232851f26a1427d3a908b22da622562906ca50ea536c2ecfb"
          ],
          "data": "0x00000000000000000000000060f83010b4a0509ea8c7a7993471e9a4b3c82dbc000000000000000000000000bfd3c8a956afb7a9754c951d03c9adda7ec5d638",
          "blockHash": "0xf3cdff93d4a5809b1a6fd7e760b8d925154e3c907d0652383a7bbc7512e2655c",
          "blockNumber": "0xab8d",
          "blockTimestamp": "0x69d2af3c",
          "transactionHash": "0xf385bc90bb4140f4bf298d64237465a067c21e4af21bb67cecb8595f437d1ab9",
          "transactionIndex": "0x11",
          "logIndex": "0x10",
          "removed": false
        }
      ],
      "logsBloom": "0x00000000000000000000000000000000000100000000000000000000000000000000000000000000000000000000000000000000000000000000008000000000000000000000000000000000000000000000000000000000000000000000000000480000000000000000000000000000000000000000000000000000000000000000000000000000000000000000000000000000000000000000000000000000000000000000000000040000000000000000000000000000000000000000000000000000000000000000000000000000000000000000000000200000000000001000000000000000000000000000800000000100000000000000000000000000",
      "type": "0x0",
      "transactionHash": "0xf385bc90bb4140f4bf298d64237465a067c21e4af21bb67cecb8595f437d1ab9",
      "transactionIndex": "0x11",
      "blockHash": "0xf3cdff93d4a5809b1a6fd7e760b8d925154e3c907d0652383a7bbc7512e2655c",
      "blockNumber": "0xab8d",
      "gasUsed": "0x2f074",
      "effectiveGasPrice": "0x3b9aca07",
      "blobGasPrice": "0x1",
      "from": "0xf39fd6e51aad88f6f4ce6ab8827279cfffb92266",
      "to": "0x2d13826359803522cce7a4cfa2c1b582303dd0b4",
      "contractAddress": null,
      "blockTimestamp": 1775415100
    },
    {
      "status": "0x1",
      "cumulativeGasUsed": "0x2fc013",
      "logs": [
        {
          "address": "0xbfd3c8a956afb7a9754c951d03c9adda7ec5d638",
          "topics": [
            "0x9190ede1bbf154005e1cdc753cb24ff7912bf4412bf72342e5ab03ee770facf0",
            "0xe108948b9667048232851f26a1427d3a908b22da622562906ca50ea536c2ecfb"
          ],
          "data": "0x000000000000000000000000000000000000000000000000000000000000004000000000000000000000000060f83010b4a0509ea8c7a7993471e9a4b3c82dbc00000000000000000000000000000000000000000000000000000000000000044e56444100000000000000000000000000000000000000000000000000000000",
          "blockHash": "0xf3cdff93d4a5809b1a6fd7e760b8d925154e3c907d0652383a7bbc7512e2655c",
          "blockNumber": "0xab8d",
          "blockTimestamp": "0x69d2af3c",
          "transactionHash": "0xd07d424fa16b6e47aa2752cdcc2e95f85c626ff4e1331c5e0572c56b4dddd513",
          "transactionIndex": "0x12",
          "logIndex": "0x11",
          "removed": false
        }
      ],
      "logsBloom": "0x00000000000000000000000000000000000000000000002000000000000000000000000000000000000000000000000000000000000000000000000000000000000000000000000000001000000000000000000000000000000000000000000000480000000000000000000000000000000000000000000000000000000000000000000000000000000000000000000000000000000000000000000000000000000000000000000000000000000000000000000000000000000000000000000000000008000000000000000000000000000000000000000000000000000000001000000000020000000000000000000000000008080000000000000000000000",
      "type": "0x0",
      "transactionHash": "0xd07d424fa16b6e47aa2752cdcc2e95f85c626ff4e1331c5e0572c56b4dddd513",
      "transactionIndex": "0x12",
      "blockHash": "0xf3cdff93d4a5809b1a6fd7e760b8d925154e3c907d0652383a7bbc7512e2655c",
      "blockNumber": "0xab8d",
      "gasUsed": "0x117e8",
      "effectiveGasPrice": "0x3b9aca07",
      "blobGasPrice": "0x1",
      "from": "0xf39fd6e51aad88f6f4ce6ab8827279cfffb92266",
      "to": "0xbfd3c8a956afb7a9754c951d03c9adda7ec5d638",
      "contractAddress": null,
      "blockTimestamp": 1775415100
    },
    {
      "status": "0x1",
      "cumulativeGasUsed": "0x32b0ab",
      "logs": [
        {
          "address": "0x2d13826359803522cce7a4cfa2c1b582303dd0b4",
          "topics": [
            "0xe5f9c5663822b3882e2fa8f5fcbc56db18ccc15ec0ad63010c1e27bff6eb9269",
            "0xb2023082f01404dd0ce6937cab03c4f5d6db9ba8b1fac7e7ee6d8d6d899f4e3d"
          ],
          "data": "0x000000000000000000000000c15476cfc8559fd9528141abea459a709d86b586000000000000000000000000bfd3c8a956afb7a9754c951d03c9adda7ec5d638",
          "blockHash": "0xf3cdff93d4a5809b1a6fd7e760b8d925154e3c907d0652383a7bbc7512e2655c",
          "blockNumber": "0xab8d",
          "blockTimestamp": "0x69d2af3c",
          "transactionHash": "0x30a04e597ad64d220443971678801f09eb85c9c8196d56e7e99a26347d406245",
          "transactionIndex": "0x13",
          "logIndex": "0x12",
          "removed": false
        }
      ],
      "logsBloom": "0x00000000000000000000000000080000000100000000000000000000000000000000000000000000000000000000000000000000000000000000008000000000000000000000000000000000000000000000000000000000000000000000000000000000000000000000000000000000000000000000000000000000000000000000000000000000000000000000000000000000000000000000000000200000000000000000000000040000000000000000000000000000000000000000000000000000000000000000000000000000000000000000020000200000000000000000000000000000000000000000800000000100000000000000000000000000",
      "type": "0x0",
      "transactionHash": "0x30a04e597ad64d220443971678801f09eb85c9c8196d56e7e99a26347d406245",
      "transactionIndex": "0x13",
      "blockHash": "0xf3cdff93d4a5809b1a6fd7e760b8d925154e3c907d0652383a7bbc7512e2655c",
      "blockNumber": "0xab8d",
      "gasUsed": "0x2f098",
      "effectiveGasPrice": "0x3b9aca07",
      "blobGasPrice": "0x1",
      "from": "0xf39fd6e51aad88f6f4ce6ab8827279cfffb92266",
      "to": "0x2d13826359803522cce7a4cfa2c1b582303dd0b4",
      "contractAddress": null,
      "blockTimestamp": 1775415100
    },
    {
      "status": "0x1",
      "cumulativeGasUsed": "0x33c893",
      "logs": [
        {
          "address": "0xbfd3c8a956afb7a9754c951d03c9adda7ec5d638",
          "topics": [
            "0x9190ede1bbf154005e1cdc753cb24ff7912bf4412bf72342e5ab03ee770facf0",
            "0xb2023082f01404dd0ce6937cab03c4f5d6db9ba8b1fac7e7ee6d8d6d899f4e3d"
          ],
          "data": "0x0000000000000000000000000000000000000000000000000000000000000040000000000000000000000000c15476cfc8559fd9528141abea459a709d86b58600000000000000000000000000000000000000000000000000000000000000044d53465400000000000000000000000000000000000000000000000000000000",
          "blockHash": "0xf3cdff93d4a5809b1a6fd7e760b8d925154e3c907d0652383a7bbc7512e2655c",
          "blockNumber": "0xab8d",
          "blockTimestamp": "0x69d2af3c",
          "transactionHash": "0x0b88baa64e9a4c583c1e6c7fcc92b4aaaacebba432ccf3886ffa14da3a54174f",
          "transactionIndex": "0x14",
          "logIndex": "0x13",
          "removed": false
        }
      ],
      "logsBloom": "0x00000000000000000000000000080000000000000000002000000000000000000000000000000000000000000000000000000000000000000000000000000000000000000000000000001000000000000000000000000000000000000000000000000000000000000000000000000000000000000000000000000000000000000000000000000000000000000000000000000000000000000000000000200000000000000000000000000000000000000000000000000000000000000000000000000008000000000000000000000000000000000000020000000000000000000000000000020000000000000000000000000008080000000000000000000000",
      "type": "0x0",
      "transactionHash": "0x0b88baa64e9a4c583c1e6c7fcc92b4aaaacebba432ccf3886ffa14da3a54174f",
      "transactionIndex": "0x14",
      "blockHash": "0xf3cdff93d4a5809b1a6fd7e760b8d925154e3c907d0652383a7bbc7512e2655c",
      "blockNumber": "0xab8d",
      "gasUsed": "0x117e8",
      "effectiveGasPrice": "0x3b9aca07",
      "blobGasPrice": "0x1",
      "from": "0xf39fd6e51aad88f6f4ce6ab8827279cfffb92266",
      "to": "0xbfd3c8a956afb7a9754c951d03c9adda7ec5d638",
      "contractAddress": null,
      "blockTimestamp": 1775415100
    },
    {
      "status": "0x1",
      "cumulativeGasUsed": "0x36b92b",
      "logs": [
        {
          "address": "0x2d13826359803522cce7a4cfa2c1b582303dd0b4",
          "topics": [
            "0xe5f9c5663822b3882e2fa8f5fcbc56db18ccc15ec0ad63010c1e27bff6eb9269",
            "0x6c755094f1cdd95e2e4170549dc12e7555151536b32029b8d94678134de2ef0d"
          ],
          "data": "0x000000000000000000000000b701cdea95f11bad434eb5f4fad1320ed3544394000000000000000000000000bfd3c8a956afb7a9754c951d03c9adda7ec5d638",
          "blockHash": "0xf3cdff93d4a5809b1a6fd7e760b8d925154e3c907d0652383a7bbc7512e2655c",
          "blockNumber": "0xab8d",
          "blockTimestamp": "0x69d2af3c",
          "transactionHash": "0x8747289f25bf1a19690b8050ab196c3d19b514cdbbbf7406590fc1388c148961",
          "transactionIndex": "0x15",
          "logIndex": "0x14",
          "removed": false
        }
      ],
      "logsBloom": "0x00000000000000000000000000000000000100000000000000000000000000000000000000000000000000000000000000000000000000000000008000000000000000000000080000000000000000000000000000000001000000000000000000000000000000000000000000000000000000000000000000000000000000000000000000000000000000000000000000000000000000000000000000000000000000000000000000040000000000000000000000000000000000000000000000000000000000000000000000000000000000000000000000200000000000000000000000004000000000000000800000000100000000000000000000000000",
      "type": "0x0",
      "transactionHash": "0x8747289f25bf1a19690b8050ab196c3d19b514cdbbbf7406590fc1388c148961",
      "transactionIndex": "0x15",
      "blockHash": "0xf3cdff93d4a5809b1a6fd7e760b8d925154e3c907d0652383a7bbc7512e2655c",
      "blockNumber": "0xab8d",
      "gasUsed": "0x2f098",
      "effectiveGasPrice": "0x3b9aca07",
      "blobGasPrice": "0x1",
      "from": "0xf39fd6e51aad88f6f4ce6ab8827279cfffb92266",
      "to": "0x2d13826359803522cce7a4cfa2c1b582303dd0b4",
      "contractAddress": null,
      "blockTimestamp": 1775415100
    },
    {
      "status": "0x1",
      "cumulativeGasUsed": "0x37d113",
      "logs": [
        {
          "address": "0xbfd3c8a956afb7a9754c951d03c9adda7ec5d638",
          "topics": [
            "0x9190ede1bbf154005e1cdc753cb24ff7912bf4412bf72342e5ab03ee770facf0",
            "0x6c755094f1cdd95e2e4170549dc12e7555151536b32029b8d94678134de2ef0d"
          ],
          "data": "0x0000000000000000000000000000000000000000000000000000000000000040000000000000000000000000b701cdea95f11bad434eb5f4fad1320ed35443940000000000000000000000000000000000000000000000000000000000000004414d5a4e00000000000000000000000000000000000000000000000000000000",
          "blockHash": "0xf3cdff93d4a5809b1a6fd7e760b8d925154e3c907d0652383a7bbc7512e2655c",
          "blockNumber": "0xab8d",
          "blockTimestamp": "0x69d2af3c",
          "transactionHash": "0x82f7d25b4143f921ea20208aa480b489ea742d27b47438817921b97c4f5e4818",
          "transactionIndex": "0x16",
          "logIndex": "0x15",
          "removed": false
        }
      ],
      "logsBloom": "0x00000000000000000000000000000000000000000000002000000000000000000000000000000000000000000000000000000000000000000000000000000000000000000000080000001000000000000000000000000001000000000000000000000000000000000000000000000000000000000000000000000000000000000000000000000000000000000000000000000000000000000000000000000000000000000000000000000000000000000000000000000000000000000000000000000008000000000000000000000000000000000000000000000000000000000000000000024000000000000000000000000008080000000000000000000000",
      "type": "0x0",
      "transactionHash": "0x82f7d25b4143f921ea20208aa480b489ea742d27b47438817921b97c4f5e4818",
      "transactionIndex": "0x16",
      "blockHash": "0xf3cdff93d4a5809b1a6fd7e760b8d925154e3c907d0652383a7bbc7512e2655c",
      "blockNumber": "0xab8d",
      "gasUsed": "0x117e8",
      "effectiveGasPrice": "0x3b9aca07",
      "blobGasPrice": "0x1",
      "from": "0xf39fd6e51aad88f6f4ce6ab8827279cfffb92266",
      "to": "0xbfd3c8a956afb7a9754c951d03c9adda7ec5d638",
      "contractAddress": null,
      "blockTimestamp": 1775415100
    },
    {
      "status": "0x1",
      "cumulativeGasUsed": "0x3ac19f",
      "logs": [
        {
          "address": "0x2d13826359803522cce7a4cfa2c1b582303dd0b4",
          "topics": [
            "0xe5f9c5663822b3882e2fa8f5fcbc56db18ccc15ec0ad63010c1e27bff6eb9269",
            "0x5480d4740314d9a5fa65eac6dab758c3c95d65be45311b45c3551575d760e7d8"
          ],
          "data": "0x000000000000000000000000fc97f96f115d4411821bd64be4c6ad670f7c0818000000000000000000000000bfd3c8a956afb7a9754c951d03c9adda7ec5d638",
          "blockHash": "0xf3cdff93d4a5809b1a6fd7e760b8d925154e3c907d0652383a7bbc7512e2655c",
          "blockNumber": "0xab8d",
          "blockTimestamp": "0x69d2af3c",
          "transactionHash": "0x17ad0e1e51801d3cb32d0fcf630dccca02d59b170b5052fa629e43e8b3c070f4",
          "transactionIndex": "0x17",
          "logIndex": "0x16",
          "removed": false
        }
      ],
      "logsBloom": "0x00000000000000000000000000000000000100000000000000000000000000000000000000000000000000000000000000000000000000000000008000000000000000000000000000000000000000000000000000000000000000000008000000000000000000000000000000000000000000000000000000000000000000000000000000000000000000000000000000000000000000000000000000000000000000000000000000040000000000000000100000000000000800000000000000000000000000000000000000000000000000000000000000200000000000000000000000000000000000000000800000000100000000000000000000000000",
      "type": "0x0",
      "transactionHash": "0x17ad0e1e51801d3cb32d0fcf630dccca02d59b170b5052fa629e43e8b3c070f4",
      "transactionIndex": "0x17",
      "blockHash": "0xf3cdff93d4a5809b1a6fd7e760b8d925154e3c907d0652383a7bbc7512e2655c",
      "blockNumber": "0xab8d",
      "gasUsed": "0x2f08c",
      "effectiveGasPrice": "0x3b9aca07",
      "blobGasPrice": "0x1",
      "from": "0xf39fd6e51aad88f6f4ce6ab8827279cfffb92266",
      "to": "0x2d13826359803522cce7a4cfa2c1b582303dd0b4",
      "contractAddress": null,
      "blockTimestamp": 1775415100
    },
    {
      "status": "0x1",
      "cumulativeGasUsed": "0x3bd993",
      "logs": [
        {
          "address": "0xbfd3c8a956afb7a9754c951d03c9adda7ec5d638",
          "topics": [
            "0x9190ede1bbf154005e1cdc753cb24ff7912bf4412bf72342e5ab03ee770facf0",
            "0x5480d4740314d9a5fa65eac6dab758c3c95d65be45311b45c3551575d760e7d8"
          ],
          "data": "0x0000000000000000000000000000000000000000000000000000000000000040000000000000000000000000fc97f96f115d4411821bd64be4c6ad670f7c08180000000000000000000000000000000000000000000000000000000000000005474f4f474c000000000000000000000000000000000000000000000000000000",
          "blockHash": "0xf3cdff93d4a5809b1a6fd7e760b8d925154e3c907d0652383a7bbc7512e2655c",
          "blockNumber": "0xab8d",
          "blockTimestamp": "0x69d2af3c",
          "transactionHash": "0x6b7c1f126aba538758a9ba9ec531cbdad136abd4949383f5b272651e2306693f",
          "transactionIndex": "0x18",
          "logIndex": "0x17",
          "removed": false
        }
      ],
      "logsBloom": "0x00000000000000000000000000000000000000000000002000000000000000000000000000000000000000000000000000000000000000000000000000000000000000000000000000001000000000000000000000000000000000000008000000000000000000000000000000000000000000000000000000000000000000000000000000000000000000000000000000000000000000000000000000000000000000000000000000000000000000000000100000000000000800000000000000000008000000000000000000000000000000000000000000000000000000000000000000020000000000000000000000000008080000000000000000000000",
      "type": "0x0",
      "transactionHash": "0x6b7c1f126aba538758a9ba9ec531cbdad136abd4949383f5b272651e2306693f",
      "transactionIndex": "0x18",
      "blockHash": "0xf3cdff93d4a5809b1a6fd7e760b8d925154e3c907d0652383a7bbc7512e2655c",
      "blockNumber": "0xab8d",
      "gasUsed": "0x117f4",
      "effectiveGasPrice": "0x3b9aca07",
      "blobGasPrice": "0x1",
      "from": "0xf39fd6e51aad88f6f4ce6ab8827279cfffb92266",
      "to": "0xbfd3c8a956afb7a9754c951d03c9adda7ec5d638",
      "contractAddress": null,
      "blockTimestamp": 1775415100
    },
    {
      "status": "0x1",
      "cumulativeGasUsed": "0x3eca1f",
      "logs": [
        {
          "address": "0x2d13826359803522cce7a4cfa2c1b582303dd0b4",
          "topics": [
            "0xe5f9c5663822b3882e2fa8f5fcbc56db18ccc15ec0ad63010c1e27bff6eb9269",
            "0x0057355892fab25ddc63a7482ec1696d6ada670339b1ae464da8f6b958ddbee8"
          ],
          "data": "0x000000000000000000000000a9859e16d4de5e71649f5d28cd47dddce2af40cb000000000000000000000000bfd3c8a956afb7a9754c951d03c9adda7ec5d638",
          "blockHash": "0xf3cdff93d4a5809b1a6fd7e760b8d925154e3c907d0652383a7bbc7512e2655c",
          "blockNumber": "0xab8d",
          "blockTimestamp": "0x69d2af3c",
          "transactionHash": "0x318efc15724b37586dbce8ddb36ffa473cbf34503a1bc3756694b92259c68689",
          "transactionIndex": "0x19",
          "logIndex": "0x18",
          "removed": false
        }
      ],
      "logsBloom": "0x00000000000000000000000000000000000100000000000000000000000000000000000000000000000000000000000000000000000000000000008000000000000000000000000000000000000000000000000000000000000000000000000000000000100000000000000008000000000000000000000000000000000000000000000000000000000000000000000000000000000000000000000000000000000000000000000000040000000000000000000000000000000000000000000000000000000000000000000000000000000000000000000000200000000000400000000000000000000000000000800000000100000000000000000000000000",
      "type": "0x0",
      "transactionHash": "0x318efc15724b37586dbce8ddb36ffa473cbf34503a1bc3756694b92259c68689",
      "transactionIndex": "0x19",
      "blockHash": "0xf3cdff93d4a5809b1a6fd7e760b8d925154e3c907d0652383a7bbc7512e2655c",
      "blockNumber": "0xab8d",
      "gasUsed": "0x2f08c",
      "effectiveGasPrice": "0x3b9aca07",
      "blobGasPrice": "0x1",
      "from": "0xf39fd6e51aad88f6f4ce6ab8827279cfffb92266",
      "to": "0x2d13826359803522cce7a4cfa2c1b582303dd0b4",
      "contractAddress": null,
      "blockTimestamp": 1775415100
    },
    {
      "status": "0x1",
      "cumulativeGasUsed": "0x3fe207",
      "logs": [
        {
          "address": "0xbfd3c8a956afb7a9754c951d03c9adda7ec5d638",
          "topics": [
            "0x9190ede1bbf154005e1cdc753cb24ff7912bf4412bf72342e5ab03ee770facf0",
            "0x0057355892fab25ddc63a7482ec1696d6ada670339b1ae464da8f6b958ddbee8"
          ],
          "data": "0x0000000000000000000000000000000000000000000000000000000000000040000000000000000000000000a9859e16d4de5e71649f5d28cd47dddce2af40cb00000000000000000000000000000000000000000000000000000000000000044d45544100000000000000000000000000000000000000000000000000000000",
          "blockHash": "0xf3cdff93d4a5809b1a6fd7e760b8d925154e3c907d0652383a7bbc7512e2655c",
          "blockNumber": "0xab8d",
          "blockTimestamp": "0x69d2af3c",
          "transactionHash": "0xa24daed937debeef2fd3ec7349856f9061acec2869cfd3633763b055dc68eb57",
          "transactionIndex": "0x1a",
          "logIndex": "0x19",
          "removed": false
        }
      ],
      "logsBloom": "0x00000000000000000000000000000000000000000000002000000000000000000000000000000000000000000000000000000000000000000000000000000000000000000000000000001000000000000000000000000000000000000000000000000000100000000000000008000000000000000000000000000000000000000000000000000000000000000000000000000000000000000000000000000000000000000000000000000000000000000000000000000000000000000000000000000008000000000000000000000000000000000000000000000000000000400000000000020000000000000000000000000008080000000000000000000000",
      "type": "0x0",
      "transactionHash": "0xa24daed937debeef2fd3ec7349856f9061acec2869cfd3633763b055dc68eb57",
      "transactionIndex": "0x1a",
      "blockHash": "0xf3cdff93d4a5809b1a6fd7e760b8d925154e3c907d0652383a7bbc7512e2655c",
      "blockNumber": "0xab8d",
      "gasUsed": "0x117e8",
      "effectiveGasPrice": "0x3b9aca07",
      "blobGasPrice": "0x1",
      "from": "0xf39fd6e51aad88f6f4ce6ab8827279cfffb92266",
      "to": "0xbfd3c8a956afb7a9754c951d03c9adda7ec5d638",
      "contractAddress": null,
      "blockTimestamp": 1775415100
    },
    {
      "status": "0x1",
      "cumulativeGasUsed": "0x42d287",
      "logs": [
        {
          "address": "0x2d13826359803522cce7a4cfa2c1b582303dd0b4",
          "topics": [
            "0xe5f9c5663822b3882e2fa8f5fcbc56db18ccc15ec0ad63010c1e27bff6eb9269",
            "0x7c66dfce614e9a88c33dd01ffd47e917575e527015d5ead8069719869ba53f20"
          ],
          "data": "0x0000000000000000000000009511722bf565df7420ab739b8e49894c5471fb28000000000000000000000000bfd3c8a956afb7a9754c951d03c9adda7ec5d638",
          "blockHash": "0xf3cdff93d4a5809b1a6fd7e760b8d925154e3c907d0652383a7bbc7512e2655c",
          "blockNumber": "0xab8d",
          "blockTimestamp": "0x69d2af3c",
          "transactionHash": "0x9110c016801378c1f1331e2cffac32ac0c1a43b40546a025ed9aec8c433f65ba",
          "transactionIndex": "0x1b",
          "logIndex": "0x1a",
          "removed": false
        }
      ],
      "logsBloom": "0x00000000000000000000000000000000000100000000000000000000000000000000000000004000000000000000000080000000000000000000008000000000000000000000000000000000000000000000000000000000000000000000000000000000000000000000000000000000000000000000000000000000000000000000000000000000000000000000000000000000000000000000000000000000000000000000000000040000000000000000000000000000000000000000010000000000000000000000000000000000000000000000000000200000000000000000000000000000000000000000800000000100000000000000000000000000",
      "type": "0x0",
      "transactionHash": "0x9110c016801378c1f1331e2cffac32ac0c1a43b40546a025ed9aec8c433f65ba",
      "transactionIndex": "0x1b",
      "blockHash": "0xf3cdff93d4a5809b1a6fd7e760b8d925154e3c907d0652383a7bbc7512e2655c",
      "blockNumber": "0xab8d",
      "gasUsed": "0x2f080",
      "effectiveGasPrice": "0x3b9aca07",
      "blobGasPrice": "0x1",
      "from": "0xf39fd6e51aad88f6f4ce6ab8827279cfffb92266",
      "to": "0x2d13826359803522cce7a4cfa2c1b582303dd0b4",
      "contractAddress": null,
      "blockTimestamp": 1775415100
    },
    {
      "status": "0x1",
      "cumulativeGasUsed": "0x43ea63",
      "logs": [
        {
          "address": "0xbfd3c8a956afb7a9754c951d03c9adda7ec5d638",
          "topics": [
            "0x9190ede1bbf154005e1cdc753cb24ff7912bf4412bf72342e5ab03ee770facf0",
            "0x7c66dfce614e9a88c33dd01ffd47e917575e527015d5ead8069719869ba53f20"
          ],
          "data": "0x00000000000000000000000000000000000000000000000000000000000000400000000000000000000000009511722bf565df7420ab739b8e49894c5471fb2800000000000000000000000000000000000000000000000000000000000000034a504d0000000000000000000000000000000000000000000000000000000000",
          "blockHash": "0xf3cdff93d4a5809b1a6fd7e760b8d925154e3c907d0652383a7bbc7512e2655c",
          "blockNumber": "0xab8d",
          "blockTimestamp": "0x69d2af3c",
          "transactionHash": "0xde2e37d069e86485756670799c16632d2db0b193eeedf068b6962fe170a3d4ec",
          "transactionIndex": "0x1c",
          "logIndex": "0x1b",
          "removed": false
        }
      ],
      "logsBloom": "0x00000000000000000000000000000000000000000000002000000000000000000000000000004000000000000000000080000000000000000000000000000000000000000000000000001000000000000000000000000000000000000000000000000000000000000000000000000000000000000000000000000000000000000000000000000000000000000000000000000000000000000000000000000000000000000000000000000000000000000000000000000000000000000000010000000008000000000000000000000000000000000000000000000000000000000000000000020000000000000000000000000008080000000000000000000000",
      "type": "0x0",
      "transactionHash": "0xde2e37d069e86485756670799c16632d2db0b193eeedf068b6962fe170a3d4ec",
      "transactionIndex": "0x1c",
      "blockHash": "0xf3cdff93d4a5809b1a6fd7e760b8d925154e3c907d0652383a7bbc7512e2655c",
      "blockNumber": "0xab8d",
      "gasUsed": "0x117dc",
      "effectiveGasPrice": "0x3b9aca07",
      "blobGasPrice": "0x1",
      "from": "0xf39fd6e51aad88f6f4ce6ab8827279cfffb92266",
      "to": "0xbfd3c8a956afb7a9754c951d03c9adda7ec5d638",
      "contractAddress": null,
      "blockTimestamp": 1775415100
    },
    {
      "status": "0x1",
      "cumulativeGasUsed": "0x46da8f",
      "logs": [
        {
          "address": "0x2d13826359803522cce7a4cfa2c1b582303dd0b4",
          "topics": [
            "0xe5f9c5663822b3882e2fa8f5fcbc56db18ccc15ec0ad63010c1e27bff6eb9269",
            "0xf0da850a6b7c61a66cdd43ac7529affc6000442af1c1bdda1db3bb7220bf7613"
          ],
          "data": "0x0000000000000000000000006efed18c2878f48179f9b52b251c7d4c834bbc0a000000000000000000000000bfd3c8a956afb7a9754c951d03c9adda7ec5d638",
          "blockHash": "0xf3cdff93d4a5809b1a6fd7e760b8d925154e3c907d0652383a7bbc7512e2655c",
          "blockNumber": "0xab8d",
          "blockTimestamp": "0x69d2af3c",
          "transactionHash": "0x37177f26dd392183858e276fe81e40845b80f624dbcd46ccc8d430f0ecf26b7b",
          "transactionIndex": "0x1d",
          "logIndex": "0x1c",
          "removed": false
        }
      ],
      "logsBloom": "0x00000000000000000008000000000000000100000000000000000000000000000000000000000000000000000000000000000000000000000000008000000000000000000000000000000000000000000000000000000000000000000000000000000000000000000000000000000000000000000000000000000000000000000000000000000000000200000400000000000000000000000000000000000000000000000000000000040000000000000000000000000000000000000000000000000000000000000000000000000000000000000000000000200000000000000000000000000000000000000000800000000100000000000000000000000000",
      "type": "0x0",
      "transactionHash": "0x37177f26dd392183858e276fe81e40845b80f624dbcd46ccc8d430f0ecf26b7b",
      "transactionIndex": "0x1d",
      "blockHash": "0xf3cdff93d4a5809b1a6fd7e760b8d925154e3c907d0652383a7bbc7512e2655c",
      "blockNumber": "0xab8d",
      "gasUsed": "0x2f02c",
      "effectiveGasPrice": "0x3b9aca07",
      "blobGasPrice": "0x1",
      "from": "0xf39fd6e51aad88f6f4ce6ab8827279cfffb92266",
      "to": "0x2d13826359803522cce7a4cfa2c1b582303dd0b4",
      "contractAddress": null,
      "blockTimestamp": 1775415100
    },
    {
      "status": "0x1",
      "cumulativeGasUsed": "0x47f253",
      "logs": [
        {
          "address": "0xbfd3c8a956afb7a9754c951d03c9adda7ec5d638",
          "topics": [
            "0x9190ede1bbf154005e1cdc753cb24ff7912bf4412bf72342e5ab03ee770facf0",
            "0xf0da850a6b7c61a66cdd43ac7529affc6000442af1c1bdda1db3bb7220bf7613"
          ],
          "data": "0x00000000000000000000000000000000000000000000000000000000000000400000000000000000000000006efed18c2878f48179f9b52b251c7d4c834bbc0a00000000000000000000000000000000000000000000000000000000000000015600000000000000000000000000000000000000000000000000000000000000",
          "blockHash": "0xf3cdff93d4a5809b1a6fd7e760b8d925154e3c907d0652383a7bbc7512e2655c",
          "blockNumber": "0xab8d",
          "blockTimestamp": "0x69d2af3c",
          "transactionHash": "0x9ad236066b58b8f46dccc4cd5563ced87fbee6856fe851a2225eb05fb63e764a",
          "transactionIndex": "0x1e",
          "logIndex": "0x1d",
          "removed": false
        }
      ],
      "logsBloom": "0x00000000000000000008000000000000000000000000002000000000000000000000000000000000000000000000000000000000000000000000000000000000000000000000000000001000000000000000000000000000000000000000000000000000000000000000000000000000000000000000000000000000000000000000000000000000000200000400000000000000000000000000000000000000000000000000000000000000000000000000000000000000000000000000000000000008000000000000000000000000000000000000000000000000000000000000000000020000000000000000000000000008080000000000000000000000",
      "type": "0x0",
      "transactionHash": "0x9ad236066b58b8f46dccc4cd5563ced87fbee6856fe851a2225eb05fb63e764a",
      "transactionIndex": "0x1e",
      "blockHash": "0xf3cdff93d4a5809b1a6fd7e760b8d925154e3c907d0652383a7bbc7512e2655c",
      "blockNumber": "0xab8d",
      "gasUsed": "0x117c4",
      "effectiveGasPrice": "0x3b9aca07",
      "blobGasPrice": "0x1",
      "from": "0xf39fd6e51aad88f6f4ce6ab8827279cfffb92266",
      "to": "0xbfd3c8a956afb7a9754c951d03c9adda7ec5d638",
      "contractAddress": null,
      "blockTimestamp": 1775415100
    },
    {
      "status": "0x1",
      "cumulativeGasUsed": "0x4ae2df",
      "logs": [
        {
          "address": "0x2d13826359803522cce7a4cfa2c1b582303dd0b4",
          "topics": [
            "0xe5f9c5663822b3882e2fa8f5fcbc56db18ccc15ec0ad63010c1e27bff6eb9269",
            "0x1ee390a6c6917753ffa9bb0bd83cc313e935b13e3daaba67038caf0e47f928f1"
          ],
          "data": "0x0000000000000000000000003fdc5a01c707ef3b708dcdab36014af3e229e473000000000000000000000000bfd3c8a956afb7a9754c951d03c9adda7ec5d638",
          "blockHash": "0xf3cdff93d4a5809b1a6fd7e760b8d925154e3c907d0652383a7bbc7512e2655c",
          "blockNumber": "0xab8d",
          "blockTimestamp": "0x69d2af3c",
          "transactionHash": "0x2a511b5576522a2633f6be2dfb64e7f86d87221cbc45198fac58d7fab0b11b6e",
          "transactionIndex": "0x1f",
          "logIndex": "0x1e",
          "removed": false
        }
      ],
      "logsBloom": "0x00000000000000000000000000000000000100000000000000000000000000000000000000000000000000000000000000000000000000000000008000000000000000000000000000000000000000000000000000000000000000000000000000000000000000000000000000000000000000000000000000000000000000000000000000000000000000000000000000000000000000000000000000000200000000000000000100040000000000010000000000000000000000000000000000000000000000000000000000000000000000000000000000200000000000000000000000000000000000000000800000000100000000000000000000000000",
      "type": "0x0",
      "transactionHash": "0x2a511b5576522a2633f6be2dfb64e7f86d87221cbc45198fac58d7fab0b11b6e",
      "transactionIndex": "0x1f",
      "blockHash": "0xf3cdff93d4a5809b1a6fd7e760b8d925154e3c907d0652383a7bbc7512e2655c",
      "blockNumber": "0xab8d",
      "gasUsed": "0x2f08c",
      "effectiveGasPrice": "0x3b9aca07",
      "blobGasPrice": "0x1",
      "from": "0xf39fd6e51aad88f6f4ce6ab8827279cfffb92266",
      "to": "0x2d13826359803522cce7a4cfa2c1b582303dd0b4",
      "contractAddress": null,
      "blockTimestamp": 1775415100
    },
    {
      "status": "0x1",
      "cumulativeGasUsed": "0x4bfabb",
      "logs": [
        {
          "address": "0xbfd3c8a956afb7a9754c951d03c9adda7ec5d638",
          "topics": [
            "0x9190ede1bbf154005e1cdc753cb24ff7912bf4412bf72342e5ab03ee770facf0",
            "0x1ee390a6c6917753ffa9bb0bd83cc313e935b13e3daaba67038caf0e47f928f1"
          ],
          "data": "0x00000000000000000000000000000000000000000000000000000000000000400000000000000000000000003fdc5a01c707ef3b708dcdab36014af3e229e47300000000000000000000000000000000000000000000000000000000000000034449530000000000000000000000000000000000000000000000000000000000",
          "blockHash": "0xf3cdff93d4a5809b1a6fd7e760b8d925154e3c907d0652383a7bbc7512e2655c",
          "blockNumber": "0xab8d",
          "blockTimestamp": "0x69d2af3c",
          "transactionHash": "0x72b72dae29cb8a8e96ce6a90af0b99b598d1a5e7fe93231de9997fa61d9cecc1",
          "transactionIndex": "0x20",
          "logIndex": "0x1f",
          "removed": false
        }
      ],
      "logsBloom": "0x00000000000000000000000000000000000000000000002000000000000000000000000000000000000000000000000000000000000000000000000000000000000000000000000000001000000000000000000000000000000000000000000000000000000000000000000000000000000000000000000000000000000000000000000000000000000000000000000000000000000000000000000000000200000000000000000100000000000000010000000000000000000000000000000000000008000000000000000000000000000000000000000000000000000000000000000000020000000000000000000000000008080000000000000000000000",
      "type": "0x0",
      "transactionHash": "0x72b72dae29cb8a8e96ce6a90af0b99b598d1a5e7fe93231de9997fa61d9cecc1",
      "transactionIndex": "0x20",
      "blockHash": "0xf3cdff93d4a5809b1a6fd7e760b8d925154e3c907d0652383a7bbc7512e2655c",
      "blockNumber": "0xab8d",
      "gasUsed": "0x117dc",
      "effectiveGasPrice": "0x3b9aca07",
      "blobGasPrice": "0x1",
      "from": "0xf39fd6e51aad88f6f4ce6ab8827279cfffb92266",
      "to": "0xbfd3c8a956afb7a9754c951d03c9adda7ec5d638",
      "contractAddress": null,
      "blockTimestamp": 1775415100
    },
    {
      "status": "0x1",
      "cumulativeGasUsed": "0x4eeb2f",
      "logs": [
        {
          "address": "0x2d13826359803522cce7a4cfa2c1b582303dd0b4",
          "topics": [
            "0xe5f9c5663822b3882e2fa8f5fcbc56db18ccc15ec0ad63010c1e27bff6eb9269",
            "0x93524d81bcb78d74875943b3fa28cf64070d7736f6e1b17397c7ff43eaf73cfb"
          ],
          "data": "0x0000000000000000000000003b156d26a707de6e792af47d5890e11d124f8d6c000000000000000000000000bfd3c8a956afb7a9754c951d03c9adda7ec5d638",
          "blockHash": "0xf3cdff93d4a5809b1a6fd7e760b8d925154e3c907d0652383a7bbc7512e2655c",
          "blockNumber": "0xab8d",
          "blockTimestamp": "0x69d2af3c",
          "transactionHash": "0x74fba1dec0133f5873ef881fc5279514ea240a8becbad82c8ad119f04bbe2cd7",
          "transactionIndex": "0x21",
          "logIndex": "0x20",
          "removed": false
        }
      ],
      "logsBloom": "0x00200000000000000000000000000000000100000000000000000000000000000000000000000000000000000000000000000000000000000000008000000000000000000000000000000000000000000000000000000000000000000000000000000000000000000000000000000000000000000000000000000000000000000000000000000000000000000000000000000000000000000000000000000000000000000000000000840000000000000000000000000000000000000000000000000000000000000000000000000000000000000000000000200000000000000000000000000000000000000000800000000100000000000100000000000000",
      "type": "0x0",
      "transactionHash": "0x74fba1dec0133f5873ef881fc5279514ea240a8becbad82c8ad119f04bbe2cd7",
      "transactionIndex": "0x21",
      "blockHash": "0xf3cdff93d4a5809b1a6fd7e760b8d925154e3c907d0652383a7bbc7512e2655c",
      "blockNumber": "0xab8d",
      "gasUsed": "0x2f074",
      "effectiveGasPrice": "0x3b9aca07",
      "blobGasPrice": "0x1",
      "from": "0xf39fd6e51aad88f6f4ce6ab8827279cfffb92266",
      "to": "0x2d13826359803522cce7a4cfa2c1b582303dd0b4",
      "contractAddress": null,
      "blockTimestamp": 1775415100
    },
    {
      "status": "0x1",
      "cumulativeGasUsed": "0x500317",
      "logs": [
        {
          "address": "0xbfd3c8a956afb7a9754c951d03c9adda7ec5d638",
          "topics": [
            "0x9190ede1bbf154005e1cdc753cb24ff7912bf4412bf72342e5ab03ee770facf0",
            "0x93524d81bcb78d74875943b3fa28cf64070d7736f6e1b17397c7ff43eaf73cfb"
          ],
          "data": "0x00000000000000000000000000000000000000000000000000000000000000400000000000000000000000003b156d26a707de6e792af47d5890e11d124f8d6c00000000000000000000000000000000000000000000000000000000000000044e464c5800000000000000000000000000000000000000000000000000000000",
          "blockHash": "0xf3cdff93d4a5809b1a6fd7e760b8d925154e3c907d0652383a7bbc7512e2655c",
          "blockNumber": "0xab8d",
          "blockTimestamp": "0x69d2af3c",
          "transactionHash": "0xe2f6c11af447a7dedc7383933c2dbdbd6acbddafa6097294fd05507a7aa05576",
          "transactionIndex": "0x22",
          "logIndex": "0x21",
          "removed": false
        }
      ],
      "logsBloom": "0x00200000000000000000000000000000000000000000002000000000000000000000000000000000000000000000000000000000000000000000000000000000000000000000000000001000000000000000000000000000000000000000000000000000000000000000000000000000000000000000000000000000000000000000000000000000000000000000000000000000000000000000000000000000000000000000000000800000000000000000000000000000000000000000000000000008000000000000000000000000000000000000000000000000000000000000000000020000000000000000000000000008080000000100000000000000",
      "type": "0x0",
      "transactionHash": "0xe2f6c11af447a7dedc7383933c2dbdbd6acbddafa6097294fd05507a7aa05576",
      "transactionIndex": "0x22",
      "blockHash": "0xf3cdff93d4a5809b1a6fd7e760b8d925154e3c907d0652383a7bbc7512e2655c",
      "blockNumber": "0xab8d",
      "gasUsed": "0x117e8",
      "effectiveGasPrice": "0x3b9aca07",
      "blobGasPrice": "0x1",
      "from": "0xf39fd6e51aad88f6f4ce6ab8827279cfffb92266",
      "to": "0xbfd3c8a956afb7a9754c951d03c9adda7ec5d638",
      "contractAddress": null,
      "blockTimestamp": 1775415100
    },
    {
      "status": "0x1",
      "cumulativeGasUsed": "0x534aae",
      "logs": [
        {
          "address": "0x2d13826359803522cce7a4cfa2c1b582303dd0b4",
          "topics": [
            "0xe5f9c5663822b3882e2fa8f5fcbc56db18ccc15ec0ad63010c1e27bff6eb9269",
            "0x7dc334e1540f8915732d66591fe866306abf9102ccd56a9c3bebab2f76f305fb"
          ],
          "data": "0x00000000000000000000000085ed4d86a147a281569dac55da64d74d9ff53409000000000000000000000000bfd3c8a956afb7a9754c951d03c9adda7ec5d638",
          "blockHash": "0xf3cdff93d4a5809b1a6fd7e760b8d925154e3c907d0652383a7bbc7512e2655c",
          "blockNumber": "0xab8d",
          "blockTimestamp": "0x69d2af3c",
          "transactionHash": "0xd30fca1c74235d4eddd72f6e3e51453825aa159d0647c88b8a42c008bdd74dc1",
          "transactionIndex": "0x23",
          "logIndex": "0x22",
          "removed": false
        }
      ],
      "logsBloom": "0x00000000000000000000000000000000000100000400000000000000000000000000000000000000000000000000000000000000000000000000008000000000000000000000000000000000000000000000000000000000000000000000000000000000000000000000000000000000000000000000000000000000000000000000000000000000000000000000000000000000000000000000004000000000000000000000000000040000000000000000000000000000000000000000000000000000000000000000000000000000000000000000000000200000000000000000000000000000000000000000800000000100000000002000000000000000",
      "type": "0x0",
      "transactionHash": "0xd30fca1c74235d4eddd72f6e3e51453825aa159d0647c88b8a42c008bdd74dc1",
      "transactionIndex": "0x23",
      "blockHash": "0xf3cdff93d4a5809b1a6fd7e760b8d925154e3c907d0652383a7bbc7512e2655c",
      "blockNumber": "0xab8d",
      "gasUsed": "0x34797",
      "effectiveGasPrice": "0x3b9aca07",
      "blobGasPrice": "0x1",
      "from": "0xf39fd6e51aad88f6f4ce6ab8827279cfffb92266",
      "to": "0x2d13826359803522cce7a4cfa2c1b582303dd0b4",
      "contractAddress": null,
      "blockTimestamp": 1775415100
    },
    {
      "status": "0x1",
      "cumulativeGasUsed": "0x54628a",
      "logs": [
        {
          "address": "0xbfd3c8a956afb7a9754c951d03c9adda7ec5d638",
          "topics": [
            "0x9190ede1bbf154005e1cdc753cb24ff7912bf4412bf72342e5ab03ee770facf0",
            "0x7dc334e1540f8915732d66591fe866306abf9102ccd56a9c3bebab2f76f305fb"
          ],
          "data": "0x000000000000000000000000000000000000000000000000000000000000004000000000000000000000000085ed4d86a147a281569dac55da64d74d9ff534090000000000000000000000000000000000000000000000000000000000000003414d440000000000000000000000000000000000000000000000000000000000",
          "blockHash": "0xf3cdff93d4a5809b1a6fd7e760b8d925154e3c907d0652383a7bbc7512e2655c",
          "blockNumber": "0xab8d",
          "blockTimestamp": "0x69d2af3c",
          "transactionHash": "0x72915ae524b43daa3ba3be1abfce855c90044c184db40c7b3bc4fa20f72ad4de",
          "transactionIndex": "0x24",
          "logIndex": "0x23",
          "removed": false
        }
      ],
      "logsBloom": "0x00000000000000000000000000000000000000000400002000000000000000000000000000000000000000000000000000000000000000000000000000000000000000000000000000001000000000000000000000000000000000000000000000000000000000000000000000000000000000000000000000000000000000000000000000000000000000000000000000000000000000000000004000000000000000000000000000000000000000000000000000000000000000000000000000000008000000000000000000000000000000000000000000000000000000000000000000020000000000000000000000000008080000002000000000000000",
      "type": "0x0",
      "transactionHash": "0x72915ae524b43daa3ba3be1abfce855c90044c184db40c7b3bc4fa20f72ad4de",
      "transactionIndex": "0x24",
      "blockHash": "0xf3cdff93d4a5809b1a6fd7e760b8d925154e3c907d0652383a7bbc7512e2655c",
      "blockNumber": "0xab8d",
      "gasUsed": "0x117dc",
      "effectiveGasPrice": "0x3b9aca07",
      "blobGasPrice": "0x1",
      "from": "0xf39fd6e51aad88f6f4ce6ab8827279cfffb92266",
      "to": "0xbfd3c8a956afb7a9754c951d03c9adda7ec5d638",
      "contractAddress": null,
      "blockTimestamp": 1775415100
    }
  ],
  "libraries": [],
  "pending": [],
  "returns": {},
  "timestamp": 1775415100515,
  "chain": 42069,
  "commit": "f6d582d"
}