{
  "transactions": [
    {
      "hash": "0xa5ad018787ab2263193966c8e633cd6e847e05cad8164fa46db071dccfd3fbfb",
      "transactionType": "CREATE",
      "contractName": "MockWETH18",
      "contractAddress": "0x8731d45ff9684d380302573ccfafd994dfa7f7d3",
      "function": null,
      "arguments": null,
      "transaction": {
        "from": "0xf39fd6e51aad88f6f4ce6ab8827279cfffb92266",
        "gas": "0x76052",
        "value": "0x0",
        "input": "0x608080604052346015576105c2908161001a8239f35b5f80fdfe60806040526004361015610011575f80fd5b5f3560e01c806306fdde0314610459578063095ea7b3146103e057806318160ddd146103c457806323b872dd1461028e578063313ce5671461027357806340c10f191461020e57806370a08231146101d657806395d89b411461016f578063a9059cbb146100db5763dd62ed3e14610087575f80fd5b346100d75760403660031901126100d7576100a06104d7565b6100a86104ed565b6001600160a01b039182165f908152600260209081526040808320949093168252928352819020549051908152f35b5f80fd5b346100d75760403660031901126100d7576100f46104d7565b60243590335f5260016020526101108260405f20541015610524565b335f52600160205260405f20610127838254610503565b905560018060a01b031690815f52600160205260405f2061014982825461055f565b90556040519081525f51602061056d5f395f51905f5260203392a3602060405160018152f35b346100d7575f3660031901126100d757604051604081019080821067ffffffffffffffff8311176101c2576101be9160405260048152630ae8aa8960e31b6020820152604051918291826104ad565b0390f35b634e487b7160e01b5f52604160045260245ffd5b346100d75760203660031901126100d7576001600160a01b036101f76104d7565b165f526001602052602060405f2054604051908152f35b346100d75760403660031901126100d7576102276104d7565b5f5f51602061056d5f395f51905f5260206024359361024785855461055f565b845560018060a01b031693848452600182526040842061026882825461055f565b9055604051908152a3005b346100d7575f3660031901126100d757602060405160128152f35b346100d75760603660031901126100d7576102a76104d7565b6102af6104ed565b6001600160a01b039091165f818152600260209081526040808320338452909152902054604435929060018101610355575b5060205f51602061056d5f395f51905f5291835f526001825261030a8560405f20541015610524565b835f526001825260405f20610320868254610503565b905560018060a01b031693845f526001825260405f2061034182825461055f565b9055604051908152a3602060405160018152f35b838110610393575f51602061056d5f395f51905f529161037785602093610503565b5f858152600284526040808220338352855290205591506102e1565b60405162461bcd60e51b8152602060048201526009602482015268616c6c6f77616e636560b81b6044820152606490fd5b346100d7575f3660031901126100d75760205f54604051908152f35b346100d75760403660031901126100d7576103f96104d7565b335f8181526002602090815260408083206001600160a01b03909516808452948252918290206024359081905591519182527f8c5be1e5ebec7d5bd14f71427d1e84f3dd0314c0f7b2291e5b200ac8c7c3b92591a3602060405160018152f35b346100d7575f3660031901126100d757604051604081019080821067ffffffffffffffff8311176101c2576101be91604052600d81526c2bb930b83832b21022ba3432b960991b6020820152604051918291825b602060409281835280519182918282860152018484015e5f828201840152601f01601f1916010190565b600435906001600160a01b03821682036100d757565b602435906001600160a01b03821682036100d757565b9190820391821161051057565b634e487b7160e01b5f52601160045260245ffd5b1561052b57565b60405162461bcd60e51b815260206004820152600c60248201526b1a5b9cdd59999a58da595b9d60a21b6044820152606490fd5b919082018092116105105756feddf252ad1be2c89b69c2b068fc378daa952ba7f163c4a11628f55a4df523b3efa26469706673582212207aa01f766d50ecc9bc40a9858fc8d4467734e612cf7f568ff09a7b1df6fb695e64736f6c63430008210033",
        "nonce": "0x21c",
        "chainId": "0xa455"
      },
      "additionalContracts": [],
      "isFixedGasLimit": false
    },
    {
      "hash": "0x4ef8c605f501c2b23a2635508ecb2448122c832fc518e4652126b91d003a5c68",
      "transactionType": "CREATE",
      "contractName": "MockUSDC6",
      "contractAddress": "0x969e3128db078b179e9f3b3679710d2443ccdb72",
      "function": null,
      "arguments": null,
      "transaction": {
        "from": "0xf39fd6e51aad88f6f4ce6ab8827279cfffb92266",
        "gas": "0x75acd",
        "value": "0x0",
        "input": "0x608080604052346015576105bd908161001a8239f35b5f80fdfe60806040526004361015610011575f80fd5b5f3560e01c806306fdde0314610459578063095ea7b3146103e057806318160ddd146103c457806323b872dd1461028e578063313ce5671461027357806340c10f191461020e57806370a08231146101d657806395d89b411461016f578063a9059cbb146100db5763dd62ed3e14610087575f80fd5b346100d75760403660031901126100d7576100a06104d2565b6100a86104e8565b6001600160a01b039182165f908152600260209081526040808320949093168252928352819020549051908152f35b5f80fd5b346100d75760403660031901126100d7576100f46104d2565b60243590335f5260016020526101108260405f2054101561051f565b335f52600160205260405f206101278382546104fe565b905560018060a01b031690815f52600160205260405f2061014982825461055a565b90556040519081525f5160206105685f395f51905f5260203392a3602060405160018152f35b346100d7575f3660031901126100d757604051604081019080821067ffffffffffffffff8311176101c2576101be9160405260048152635553444360e01b6020820152604051918291826104a8565b0390f35b634e487b7160e01b5f52604160045260245ffd5b346100d75760203660031901126100d7576001600160a01b036101f76104d2565b165f526001602052602060405f2054604051908152f35b346100d75760403660031901126100d7576102276104d2565b5f5f5160206105685f395f51905f5260206024359361024785855461055a565b845560018060a01b031693848452600182526040842061026882825461055a565b9055604051908152a3005b346100d7575f3660031901126100d757602060405160068152f35b346100d75760603660031901126100d7576102a76104d2565b6102af6104e8565b6001600160a01b039091165f818152600260209081526040808320338452909152902054604435929060018101610355575b5060205f5160206105685f395f51905f5291835f526001825261030a8560405f2054101561051f565b835f526001825260405f206103208682546104fe565b905560018060a01b031693845f526001825260405f2061034182825461055a565b9055604051908152a3602060405160018152f35b838110610393575f5160206105685f395f51905f5291610377856020936104fe565b5f858152600284526040808220338352855290205591506102e1565b60405162461bcd60e51b8152602060048201526009602482015268616c6c6f77616e636560b81b6044820152606490fd5b346100d7575f3660031901126100d75760205f54604051908152f35b346100d75760403660031901126100d7576103f96104d2565b335f8181526002602090815260408083206001600160a01b03909516808452948252918290206024359081905591519182527f8c5be1e5ebec7d5bd14f71427d1e84f3dd0314c0f7b2291e5b200ac8c7c3b92591a3602060405160018152f35b346100d7575f3660031901126100d757604051604081019080821067ffffffffffffffff8311176101c2576101be9160405260088152672aa9a21021b7b4b760c11b6020820152604051918291825b602060409281835280519182918282860152018484015e5f828201840152601f01601f1916010190565b600435906001600160a01b03821682036100d757565b602435906001600160a01b03821682036100d757565b9190820391821161050b57565b634e487b7160e01b5f52601160045260245ffd5b1561052657565b60405162461bcd60e51b815260206004820152600c60248201526b1a5b9cdd59999a58da595b9d60a21b6044820152606490fd5b9190820180921161050b5756feddf252ad1be2c89b69c2b068fc378daa952ba7f163c4a11628f55a4df523b3efa264697066735822122095490e75eef4670437a19c6746db43e98b1aca17a728836d54f0303e068092d764736f6c63430008210033",
        "nonce": "0x21d",
        "chainId": "0xa455"
      },
      "additionalContracts": [],
      "isFixedGasLimit": false
    },
    {
      "hash": "0x14af39f180b8990bcc2816de06b86b9d7669073bd8d234cf9188033a43609078",
      "transactionType": "CREATE",
      "contractName": "MockGD18",
      "contractAddress": "0x20dc424c5fa468cbb1c702308f0cc9c14da2825c",
      "function": null,
      "arguments": null,
      "transaction": {
        "from": "0xf39fd6e51aad88f6f4ce6ab8827279cfffb92266",
        "gas": "0x75acd",
        "value": "0x0",
        "input": "0x608080604052346015576105bd908161001a8239f35b5f80fdfe60806040526004361015610011575f80fd5b5f3560e01c806306fdde0314610457578063095ea7b3146103de57806318160ddd146103c257806323b872dd1461028c578063313ce5671461027157806340c10f191461020c57806370a08231146101d457806395d89b411461016f578063a9059cbb146100db5763dd62ed3e14610087575f80fd5b346100d75760403660031901126100d7576100a06104d2565b6100a86104e8565b6001600160a01b039182165f908152600260209081526040808320949093168252928352819020549051908152f35b5f80fd5b346100d75760403660031901126100d7576100f46104d2565b60243590335f5260016020526101108260405f2054101561051f565b335f52600160205260405f206101278382546104fe565b905560018060a01b031690815f52600160205260405f2061014982825461055a565b90556040519081525f5160206105685f395f51905f5260203392a3602060405160018152f35b346100d7575f3660031901126100d757604051604081019080821067ffffffffffffffff8311176101c0576101bc91604052600281526111c960f21b6020820152604051918291826104a8565b0390f35b634e487b7160e01b5f52604160045260245ffd5b346100d75760203660031901126100d7576001600160a01b036101f56104d2565b165f526001602052602060405f2054604051908152f35b346100d75760403660031901126100d7576102256104d2565b5f5f5160206105685f395f51905f5260206024359361024585855461055a565b845560018060a01b031693848452600182526040842061026682825461055a565b9055604051908152a3005b346100d7575f3660031901126100d757602060405160128152f35b346100d75760603660031901126100d7576102a56104d2565b6102ad6104e8565b6001600160a01b039091165f818152600260209081526040808320338452909152902054604435929060018101610353575b5060205f5160206105685f395f51905f5291835f52600182526103088560405f2054101561051f565b835f526001825260405f2061031e8682546104fe565b905560018060a01b031693845f526001825260405f2061033f82825461055a565b9055604051908152a3602060405160018152f35b838110610391575f5160206105685f395f51905f5291610375856020936104fe565b5f858152600284526040808220338352855290205591506102df565b60405162461bcd60e51b8152602060048201526009602482015268616c6c6f77616e636560b81b6044820152606490fd5b346100d7575f3660031901126100d75760205f54604051908152f35b346100d75760403660031901126100d7576103f76104d2565b335f8181526002602090815260408083206001600160a01b03909516808452948252918290206024359081905591519182527f8c5be1e5ebec7d5bd14f71427d1e84f3dd0314c0f7b2291e5b200ac8c7c3b92591a3602060405160018152f35b346100d7575f3660031901126100d757604051604081019080821067ffffffffffffffff8311176101c0576101bc91604052600a81526923b7b7b22237b63630b960b11b6020820152604051918291825b602060409281835280519182918282860152018484015e5f828201840152601f01601f1916010190565b600435906001600160a01b03821682036100d757565b602435906001600160a01b03821682036100d757565b9190820391821161050b57565b634e487b7160e01b5f52601160045260245ffd5b1561052657565b60405162461bcd60e51b815260206004820152600c60248201526b1a5b9cdd59999a58da595b9d60a21b6044820152606490fd5b9190820180921161050b5756feddf252ad1be2c89b69c2b068fc378daa952ba7f163c4a11628f55a4df523b3efa26469706673582212201047aefcfd98ccf27099ba9de6d6cd167d96f86f8c06f8ec2431e5253280ff8464736f6c63430008210033",
        "nonce": "0x21e",
        "chainId": "0xa455"
      },
      "additionalContracts": [],
      "isFixedGasLimit": false
    },
    {
      "hash": "0x060fef68e6b415937cc2a65c686e5cb127c7332273cf9d75c6bb9c18657e84e0",
      "transactionType": "CREATE",
      "contractName": "MockPriceOracle",
      "contractAddress": "0x4653251486a57f90ee89f9f34e098b9218659b83",
      "function": null,
      "arguments": null,
      "transaction": {
        "from": "0xf39fd6e51aad88f6f4ce6ab8827279cfffb92266",
        "gas": "0x1dca0",
        "value": "0x0",
        "input": "0x6080806040523460135760bb908160188239f35b5f80fdfe608060405260043610156010575f80fd5b5f3560e01c806310d8d74d14606157806331d98b3f146036576360846bc6146036575f80fd5b34605d576020366003190112605d576004355f525f602052602060405f2054604051908152f35b5f80fd5b34605d576040366003190112605d576004355f525f60205260243560405f20555f80f3fea2646970667358221220da9fe0ba108a339e06f29cd5576efa1ae8fa6b963939e16ee47f1f18c39eea5864736f6c63430008210033",
        "nonce": "0x21f",
        "chainId": "0xa455"
      },
      "additionalContracts": [],
      "isFixedGasLimit": false
    },
    {
      "hash": "0x09524be3c24bbdcebd887ba6fbbd574b356085a442e4255e17b775f1d2dc1a8c",
      "transactionType": "CALL",
      "contractName": "MockPriceOracle",
      "contractAddress": "0x4653251486a57f90ee89f9f34e098b9218659b83",
      "function": "setPrice(bytes32,uint256)",
      "arguments": [
        "0x4554480000000000000000000000000000000000000000000000000000000000",
        "2000000000000000000000"
      ],
      "transaction": {
        "from": "0xf39fd6e51aad88f6f4ce6ab8827279cfffb92266",
        "to": "0x4653251486a57f90ee89f9f34e098b9218659b83",
        "gas": "0xf9df",
        "value": "0x0",
        "input": "0x10d8d74d455448000000000000000000000000000000000000000000000000000000000000000000000000000000000000000000000000000000006c6b935b8bbd400000",
        "nonce": "0x220",
        "chainId": "0xa455"
      },
      "additionalContracts": [],
      "isFixedGasLimit": false
    },
    {
      "hash": "0x9705005a020e5061ff36e7d37ea071db06927310e069bc70626d0ba0b738d72b",
      "transactionType": "CALL",
      "contractName": "MockPriceOracle",
      "contractAddress": "0x4653251486a57f90ee89f9f34e098b9218659b83",
      "function": "setPrice(bytes32,uint256)",
      "arguments": [
        "0x4744000000000000000000000000000000000000000000000000000000000000",
        "1000000000000000"
      ],
      "transaction": {
        "from": "0xf39fd6e51aad88f6f4ce6ab8827279cfffb92266",
        "to": "0x4653251486a57f90ee89f9f34e098b9218659b83",
        "gas": "0xf9bc",
        "value": "0x0",
        "input": "0x10d8d74d474400000000000000000000000000000000000000000000000000000000000000000000000000000000000000000000000000000000000000038d7ea4c68000",
        "nonce": "0x221",
        "chainId": "0xa455"
      },
      "additionalContracts": [],
      "isFixedGasLimit": false
    },
    {
      "hash": "0x6c71dbf1631ec9796ec3aabf66a1db0337d575df8400bea337ce5ed046432950",
      "transactionType": "CALL",
      "contractName": "MockPriceOracle",
      "contractAddress": "0x4653251486a57f90ee89f9f34e098b9218659b83",
      "function": "setPrice(bytes32,uint256)",
      "arguments": [
        "0x5553444300000000000000000000000000000000000000000000000000000000",
        "1000000000000000000"
      ],
      "transaction": {
        "from": "0xf39fd6e51aad88f6f4ce6ab8827279cfffb92266",
        "to": "0x4653251486a57f90ee89f9f34e098b9218659b83",
        "gas": "0xf9df",
        "value": "0x0",
        "input": "0x10d8d74d55534443000000000000000000000000000000000000000000000000000000000000000000000000000000000000000000000000000000000de0b6b3a7640000",
        "nonce": "0x222",
        "chainId": "0xa455"
      },
      "additionalContracts": [],
      "isFixedGasLimit": false
    },
    {
      "hash": "0x2ade6f8df9cc055dcd718fcb46adeffa917a59153f5ed44df888c5ec177caa58",
      "transactionType": "CREATE",
      "contractName": "gUSD",
      "contractAddress": "0xed12be400a07910e4d4e743e4cee26ab1fc9a961",
      "function": null,
      "arguments": [
        "0xf39Fd6e51aad88F6F4ce6aB8827279cffFb92266"
      ],
      "transaction": {
        "from": "0xf39fd6e51aad88f6f4ce6ab8827279cfffb92266",
        "gas": "0x10053f",
        "value": "0x0",
        "input": "0x60803460b257601f610d8f38819003918201601f19168301916001600160401b0383118484101760b65780849260209460405283398101031260b257516001600160a01b0381169081900360b25760016006558015607a57600380546001600160a01b031916919091179055604051610cc490816100cb8239f35b60405162461bcd60e51b815260206004820152601060248201526f33aaa9a21d103d32b9379030b236b4b760811b6044820152606490fd5b5f80fd5b634e487b7160e01b5f52604160045260245ffdfe60806040526004361015610011575f80fd5b5f3560e01c806306fdde0314610992578063095ea7b3146108db5780630d895ee11461085e57806318160ddd1461084257806323b872dd1461072e578063313ce5671461071357806340c10f19146105fc57806342966c681461056b5780634334614a1461052e57806370a08231146104f657806375829def1461047957806379cc67901461033f57806395d89b41146102d8578063a9059cbb14610220578063aa271e1a146101e3578063cf456ae71461015b578063dd62ed3e1461010b5763f851a440146100df575f80fd5b34610107575f366003190112610107576003546040516001600160a01b039091168152602090f35b5f80fd5b3461010757604036600319011261010757610124610a11565b61012c610a27565b6001600160a01b039182165f908152600260209081526040808320949093168252928352819020549051908152f35b346101075760207f583b0aa0e528532caf4b907c11d7a8158a122fe2a6fb80cd9b09776ebea8d92d61018c36610a3d565b92906101a360018060a01b03600354163314610a6c565b6001600160a01b0316926101b8841515610aaa565b835f52600482526101d88160405f209060ff801983541691151516179055565b6040519015158152a2005b34610107576020366003190112610107576001600160a01b03610204610a11565b165f526004602052602060ff60405f2054166040519015158152f35b3461010757604036600319011261010757610239610a11565b6024359061024b600160065414610aeb565b60026006556001600160a01b031690610265821515610b23565b335f52600160205261027d8160405f20541015610bd5565b335f52600160205260405f20610294828254610bb4565b9055815f52600160205260405f206102ad828254610c21565b90556040519081525f516020610c6f5f395f51905f5260203392a36001600655602060405160018152f35b34610107575f36600319011261010757604051604081019080821067ffffffffffffffff83111761032b5761032791604052600481526319d554d160e21b6020820152604051918291826109e7565b0390f35b634e487b7160e01b5f52604160045260245ffd5b3461010757604036600319011261010757610358610a11565b602435610369600160065414610aeb565b6002600655335f52600560205260ff60405f20541615610441575f516020610c6f5f395f51905f5260205f936103a0841515610c2e565b6001600160a01b031692338490036103fd575b838552600182526103ca8160408720541015610bd5565b83855260018252604085206103e0828254610bb4565b90556103ed818654610bb4565b8555604051908152a36001600655005b838552600282526040808620338752835285205461042890829061042382821015610b68565b610bb4565b84865260028352604080872033885284528620556103b3565b60405162461bcd60e51b815260206004820152601060248201526f33aaa9a21d103737ba10313ab93732b960811b6044820152606490fd5b3461010757602036600319011261010757610492610a11565b6003546001600160a01b038116916104ab338414610a6c565b6001600160a01b03169182906104c2821515610aaa565b7ff8ccb027dfcd135e000e9d45e6cc2d662578a8825d4c45b5e32e0adf67e79ec65f80a36001600160a01b03191617600355005b34610107576020366003190112610107576001600160a01b03610517610a11565b165f526001602052602060405f2054604051908152f35b34610107576020366003190112610107576001600160a01b0361054f610a11565b165f526005602052602060ff60405f2054166040519015158152f35b34610107576020366003190112610107575f60043561058e600160065414610aeb565b600260065561059e811515610c2e565b33825260016020526105b68160408420541015610bd5565b3382526001602052604082206105cd828254610bb4565b90556105da818354610bb4565b82556040519081525f516020610c6f5f395f51905f5260203392a36001600655005b3461010757604036600319011261010757610615610a11565b60243590610627600160065414610aeb565b6002600655335f52600460205260ff60405f205416156106db576001600160a01b03169081156106a1575f516020610c6f5f395f51905f5260208261066e5f941515610c2e565b610679818554610c21565b84558484526001825260408420610691828254610c21565b9055604051908152a36001600655005b60405162461bcd60e51b8152602060048201526012602482015271675553443a206d696e7420746f207a65726f60701b6044820152606490fd5b60405162461bcd60e51b815260206004820152601060248201526f33aaa9a21d103737ba1036b4b73a32b960811b6044820152606490fd5b34610107575f36600319011261010757602060405160128152f35b3461010757606036600319011261010757610747610a11565b61074f610a27565b5f516020610c6f5f395f51905f52602060443592610771600160065414610aeb565b60026006556001600160a01b03169361078b851515610b23565b6001600160a01b03165f81815260028352604080822033835284529020549093908160018201610816575b5050835f52600182526107cf8160405f20541015610bd5565b835f526001825260405f206107e5828254610bb4565b9055845f526001825260405f206107fd828254610c21565b9055604051908152a36001600655602060405160018152f35b8161042382610826941015610b68565b5f858152600284526040808220338352855290205585816107b6565b34610107575f3660031901126101075760205f54604051908152f35b346101075760207fd28dc1379d750c7c8137c7ef7b074f62f1361b9becc7f9d77d8c0d6e46a3cd0661088f36610a3d565b92906108a660018060a01b03600354163314610a6c565b6001600160a01b0316926108bb841515610aaa565b835f52600582526101d88160405f209060ff801983541691151516179055565b34610107576040366003190112610107576108f4610a11565b6001600160a01b0316602435811561095557335f52600260205260405f20825f526020528060405f20556040519081527f8c5be1e5ebec7d5bd14f71427d1e84f3dd0314c0f7b2291e5b200ac8c7c3b92560203392a3602060405160018152f35b60405162461bcd60e51b8152602060048201526015602482015274675553443a20617070726f766520746f207a65726f60581b6044820152606490fd5b34610107575f36600319011261010757604051604081019080821067ffffffffffffffff83111761032b5761032791604052600e81526d11dbdbd9111bdb1b185c881554d160921b6020820152604051918291825b602060409281835280519182918282860152018484015e5f828201840152601f01601f1916010190565b600435906001600160a01b038216820361010757565b602435906001600160a01b038216820361010757565b6040906003190112610107576004356001600160a01b0381168103610107579060243580151581036101075790565b15610a7357565b60405162461bcd60e51b815260206004820152600f60248201526e33aaa9a21d103737ba1030b236b4b760891b6044820152606490fd5b15610ab157565b60405162461bcd60e51b8152602060048201526012602482015271675553443a207a65726f206164647265737360701b6044820152606490fd5b15610af257565b60405162461bcd60e51b81526020600482015260096024820152681499595b9d1c985b9d60ba1b6044820152606490fd5b15610b2a57565b60405162461bcd60e51b8152602060048201526016602482015275675553443a207472616e7366657220746f207a65726f60501b6044820152606490fd5b15610b6f57565b60405162461bcd60e51b815260206004820152601c60248201527f675553443a20696e73756666696369656e7420616c6c6f77616e6365000000006044820152606490fd5b91908203918211610bc157565b634e487b7160e01b5f52601160045260245ffd5b15610bdc57565b60405162461bcd60e51b815260206004820152601a60248201527f675553443a20696e73756666696369656e742062616c616e63650000000000006044820152606490fd5b91908201809211610bc157565b15610c3557565b60405162461bcd60e51b815260206004820152601160248201527019d554d10e881e995c9bc8185b5bdd5b9d607a1b6044820152606490fdfeddf252ad1be2c89b69c2b068fc378daa952ba7f163c4a11628f55a4df523b3efa2646970667358221220e79c92e8d7660b32f12d6dc8ff1611938f3e59445fe450e329c74295f47f302364736f6c63430008210033000000000000000000000000f39fd6e51aad88f6f4ce6ab8827279cfffb92266",
        "nonce": "0x223",
        "chainId": "0xa455"
      },
      "additionalContracts": [],
      "isFixedGasLimit": false
    },
    {
      "hash": "0xf20a43a66fd17edf786bf9148731296bd494b3682bffead61daaa2cca03a92f0",
      "transactionType": "CREATE",
      "contractName": "MockUBIFeeSplitter",
      "contractAddress": "0x1b25157f05b25438441bf7cde38a95a55ccf8e50",
      "function": null,
      "arguments": [
        "0xed12bE400A07910E4d4E743E4ceE26ab1FC9a961"
      ],
      "transaction": {
        "from": "0xf39fd6e51aad88f6f4ce6ab8827279cfffb92266",
        "gas": "0x502e9",
        "value": "0x0",
        "input": "0x60a034606c57601f61041838819003918201601f19168301916001600160401b03831184841017607057808492602094604052833981010312606c57516001600160a01b0381168103606c5760805260405161039390816100858239608051818181606801526102510152f35b5f80fd5b634e487b7160e01b5f52604160045260245ffdfe6080806040526004361015610012575f80fd5b5f3560e01c90816364d6def9146101f9575080637cb4eea2146100d4578063a3c2c462146100b8578063d91492d21461009b5763fc0c546a14610053575f80fd5b34610097575f366003190112610097576040517f00000000000000000000000000000000000000000000000000000000000000006001600160a01b03168152602090f35b5f80fd5b34610097575f366003190112610097576020600154604051908152f35b34610097575f3660031901126100975760205f54604051908152f35b34610097576060366003190112610097576004356100f061027a565b506044356001600160a01b0381168103610097576040516323b872dd60e01b602082019081523360248301523060448301526064820184905261015d925f92839290839061014b81608481015b03601f198101835282610290565b51925af16101576102c6565b50610305565b610d058102811590828104610d05148217156101e5576127109004906106838302908382046106831417156101e5576127106101e19104926101c26101ab856101a68685610343565b610343565b916101b885600154610350565b6001555f54610350565b5f55604051938493846040919493926060820195825260208201520152565b0390f35b634e487b7160e01b5f52601160045260245ffd5b346100975760403660031901126100975761015d5f806004359361021b61027a565b506323b872dd60e01b60208201908152336024830152306044830152606482018690529061024c816084810161013d565b5190827f00000000000000000000000000000000000000000000000000000000000000005af16101576102c6565b602435906001600160a01b038216820361009757565b90601f8019910116810190811067ffffffffffffffff8211176102b257604052565b634e487b7160e01b5f52604160045260245ffd5b3d15610300573d9067ffffffffffffffff82116102b257604051916102f5601f8201601f191660200184610290565b82523d5f602084013e565b606090565b1561030c57565b60405162461bcd60e51b815260206004820152600f60248201526e199959481c1d5b1b0819985a5b1959608a1b6044820152606490fd5b919082039182116101e557565b919082018092116101e55756fea26469706673582212201d5fcc46164ee97d24851b1b8af1764c0c2040a15ffa8d995d62318de1028c3364736f6c63430008210033000000000000000000000000ed12be400a07910e4d4e743e4cee26ab1fc9a961",
        "nonce": "0x224",
        "chainId": "0xa455"
      },
      "additionalContracts": [],
      "isFixedGasLimit": false
    },
    {
      "hash": "0x2c0bb51c40e3fd493cf4361c9473e0ac2500fcb479b591f6fa98ef0907b7b444",
      "transactionType": "CREATE",
      "contractName": "CollateralRegistry",
      "contractAddress": "0xc775bf567d67018dffac4e89a7cf10f0edd0be93",
      "function": null,
      "arguments": [
        "0xf39Fd6e51aad88F6F4ce6aB8827279cffFb92266",
        "0x8731d45ff9684d380302573cCFafd994Dfa7f7d3",
        "0x20Dc424c5fa468CbB1c702308F0cC9c14DA2825C",
        "0x969E3128DB078b179E9F3b3679710d2443cCDB72"
      ],
      "transaction": {
        "from": "0xf39fd6e51aad88f6f4ce6ab8827279cfffb92266",
        "gas": "0x1639f2",
        "value": "0x0",
        "input": "0x6080604052346107dd57604051601f6110d138819003918201601f19168301916001600160401b0383118484101761073f578084926080946040528339810103126107dd5761004d81610800565b9061005a60208201610800565b610072606061006b60408501610800565b9301610800565b926001600160a01b03168015610798575f80546001600160a01b0319169190911781556208aa8960eb1b905260036020525f5160206110b15f395f51905f525460ff16610753576102306100c46107e1565b6001600160a01b039283168082526714d1120d7b16000060208084019182526701cdda4faccd00006040850190815269d3c21bcecceda1000000606086019081526b033b2e3ca88761c9983cdc0660808701908152600160a088019081526208aa8960eb1b5f52600290945295517fd9402e47e68a5154d8f9cdc9d4ffcf4a300546026372c3b04224fbe62656c6018054919099166001600160a01b03199091161790975591517fd9402e47e68a5154d8f9cdc9d4ffcf4a300546026372c3b04224fbe62656c6025590517fd9402e47e68a5154d8f9cdc9d4ffcf4a300546026372c3b04224fbe62656c6035593517fd9402e47e68a5154d8f9cdc9d4ffcf4a300546026372c3b04224fbe62656c6045590517fd9402e47e68a5154d8f9cdc9d4ffcf4a300546026372c3b04224fbe62656c6055591517fd9402e47e68a5154d8f9cdc9d4ffcf4a300546026372c3b04224fbe62656c606805460ff191691151560ff16919091179055565b6208aa8960eb1b5f5260036020525f5160206110b15f395f51905f52805460ff19166001908117909155546801000000000000000081101561073f57600181018060015581101561072b5760015f526208aa8960eb1b5f5160206110715f395f51905f52909101819055604080519283526714d1120d7b160000602084015290915f5160206110915f395f51905f529190a26111d160f21b5f5260036020525f5160206110315f395f51905f525460ff166107535761045b6102f06107e1565b6001600160a01b03928316808252671bc16d674ec800006020808401918252670214e8348c4f0000604085019081526969e10de76676d0800000606086019081526b033b2e3cad042cdf3cd0635460808701908152600160a088019081526111d160f21b5f52600290945295517f51ad335b9c1bfbc41734cb4ba99a217db2c0eab320f85383a3fa8695e01e16f58054919099166001600160a01b03199091161790975591517f51ad335b9c1bfbc41734cb4ba99a217db2c0eab320f85383a3fa8695e01e16f65590517f51ad335b9c1bfbc41734cb4ba99a217db2c0eab320f85383a3fa8695e01e16f75593517f51ad335b9c1bfbc41734cb4ba99a217db2c0eab320f85383a3fa8695e01e16f85590517f51ad335b9c1bfbc41734cb4ba99a217db2c0eab320f85383a3fa8695e01e16f95591517f51ad335b9c1bfbc41734cb4ba99a217db2c0eab320f85383a3fa8695e01e16fa805460ff191691151560ff16919091179055565b6111d160f21b5f5260036020525f5160206110315f395f51905f52805460ff19166001908117909155546801000000000000000081101561073f57600181018060015581101561072b5760015f526111d160f21b5f5160206110715f395f51905f5290910181905560408051928352671bc16d674ec80000602084015290915f5160206110915f395f51905f529190a2635553444360e01b5f5260036020525f5160206110515f395f51905f525460ff166107535761068861051b6107e1565b6001600160a01b03928316808252670e043da6172500006020808401918252662386f26fc10000604085019081526a084595161401484a000000606086019081526b033b2e3ca2026060221a219260808701908152600160a08801908152635553444360e01b5f52600290945295517fe1b832f4cd54a115ddce65d9da7c8d553103a217be87cd651ea7f31e4eebaefd8054919099166001600160a01b03199091161790975591517fe1b832f4cd54a115ddce65d9da7c8d553103a217be87cd651ea7f31e4eebaefe5590517fe1b832f4cd54a115ddce65d9da7c8d553103a217be87cd651ea7f31e4eebaeff5593517fe1b832f4cd54a115ddce65d9da7c8d553103a217be87cd651ea7f31e4eebaf005590517fe1b832f4cd54a115ddce65d9da7c8d553103a217be87cd651ea7f31e4eebaf015591517fe1b832f4cd54a115ddce65d9da7c8d553103a217be87cd651ea7f31e4eebaf02805460ff191691151560ff16919091179055565b635553444360e01b5f5260036020525f5160206110515f395f51905f52805460ff19166001908117909155546801000000000000000081101561073f57600181018060015581101561072b5760015f52635553444360e01b5f5160206110715f395f51905f5290910181905560408051928352670e043da617250000602084015290915f5160206110915f395f51905f529190a260405161081c90816108158239f35b634e487b7160e01b5f52603260045260245ffd5b634e487b7160e01b5f52604160045260245ffd5b60405162461bcd60e51b815260206004820152601460248201527f52656769737472793a20696c6b206578697374730000000000000000000000006044820152606490fd5b60405162461bcd60e51b815260206004820152601460248201527f52656769737472793a207a65726f2061646d696e0000000000000000000000006044820152606490fd5b5f80fd5b6040519060c082016001600160401b0381118382101761073f57604052565b51906001600160a01b03821682036107dd5756fe60806040526004361015610011575f80fd5b5f3560e01c806306fe274d1461064e578063552033c41461064e5780636a1460241461062c5780636dd5b69d1461054b57806375829def146104955780637da4882e146103d657806386a3862b146103a75780639d23b35f1461036f578063afaea5cf146102d2578063b64e0001146102b5578063d929fe7b146100c85763f851a4401461009d575f80fd5b346100c4575f3660031901126100c4575f546040516001600160a01b039091168152602090f35b5f80fd5b346100c45760c03660031901126100c4576004356024356001600160a01b038116908190036100c4576044359060a43561010c60018060a01b035f5416331461070c565b835f52600360205260ff60405f205416610279576101e490610138670de0b6b3a764000085101561074e565b6101506b033b2e3c9fd0803ce800000082101561079a565b600561015a6106a0565b918483526020830190868252604084016064358152606085019060843582526080860192835260a0860193600185528a5f52600260205260405f209660018060a01b039051166bffffffffffffffffffffffff60a01b88541617875551600187015551600286015551600385015551600484015551151591019060ff801983541691151516179055565b825f52600360205260405f20600160ff198254161790556001549068010000000000000000821015610265577fab8ac0e1bd8ac03ac9df93028bd29e1972d82acd99a159a07ac48bcd2b022cbe9261024483600160409501600155610674565b81549060031b9087821b915f19901b191617905582519182526020820152a2005b634e487b7160e01b5f52604160045260245ffd5b60405162461bcd60e51b815260206004820152601460248201527352656769737472793a20696c6b2065786973747360601b6044820152606490fd5b346100c4575f3660031901126100c4576020600154604051908152f35b346100c45760403660031901126100c457600435602435801515908181036100c4577f1fe409d485d3e152a677dfe4363f46aa10af58db9e2d5a1906e74264b27f2b2a9161036660209261033060018060a01b035f5416331461070c565b855f526003845261034760ff60405f2054166106c0565b855f5260028452600560405f20019060ff801983541691151516179055565b604051908152a2005b346100c45760203660031901126100c4576004356001548110156100c457610398602091610674565b90549060031b1c604051908152f35b346100c45760203660031901126100c4576004355f526003602052602060ff60405f2054166040519015158152f35b346100c45760a03660031901126100c45760043560243560046084359161040760018060a01b035f5416331461070c565b835f52600360205261041f60ff60405f2054166106c0565b610433670de0b6b3a764000082101561074e565b61044b6b033b2e3c9fd0803ce800000084101561079a565b835f52600260205260405f209060018201556044356002820155606435600382015501557f0cc993b15fc5afe9385b1249b7f1bd98ace3df370e89b94e1c3328d0e329e0455f80a2005b346100c45760203660031901126100c4576004356001600160a01b038116908190036100c4575f546001600160a01b0381166104d233821461070c565b821561050d5782907ff8ccb027dfcd135e000e9d45e6cc2d662578a8825d4c45b5e32e0adf67e79ec65f80a36001600160a01b031916175f55005b60405162461bcd60e51b815260206004820152601660248201527552656769737472793a207a65726f206164647265737360501b6044820152606490fd5b346100c45760203660031901126100c4576004355f60a061056a6106a0565b8281528260208201528260408201528260608201528260808201520152805f52600360205261059f60ff60405f2054166106c0565b5f52600260205260c060405f206105b46106a0565b60018060a01b03825416918282526001810154602083019081526002820154604084019081526003830154916060850192835260a060ff6005600487015496608089019788520154169501941515855260405195865251602086015251604085015251606084015251608083015251151560a0820152f35b346100c4575f3660031901126100c4576020604051670de0b6b3a76400008152f35b346100c4575f3660031901126100c45760206040516b033b2e3c9fd0803ce80000008152f35b60015481101561068c5760015f5260205f2001905f90565b634e487b7160e01b5f52603260045260245ffd5b6040519060c0820182811067ffffffffffffffff82111761026557604052565b156106c757565b60405162461bcd60e51b815260206004820152601760248201527f52656769737472793a20696c6b206e6f7420666f756e640000000000000000006044820152606490fd5b1561071357565b60405162461bcd60e51b81526020600482015260136024820152722932b3b4b9ba393c9d103737ba1030b236b4b760691b6044820152606490fd5b1561075557565b60405162461bcd60e51b815260206004820152601760248201527f52656769737472793a20726174696f2062656c6f7720310000000000000000006044820152606490fd5b156107a157565b60405162461bcd60e51b815260206004820152601c60248201527f52656769737472793a2066656520726174652062656c6f7720524159000000006044820152606490fdfea2646970667358221220f583ce93597d1f05109b9fb275118cc9462514ceae0d93aa991c0e243c32262e64736f6c63430008210033d1420b98fa8afc26b982107a255caa30f9329b3a404658edf1e695ae25bce036acb22bafd1ef6e02894947a1fd190769ebf1f0739eb9e7f1feaa66870379637ab10e2d527612073b26eecdfd717e6a320cf44b4afac2b0732d9fcbe2b7fa0cf6ab8ac0e1bd8ac03ac9df93028bd29e1972d82acd99a159a07ac48bcd2b022cbeb88c0ea72901a5cbd9418ec92b4fe479ea97c0ee8cacdc49e96d11aff3a45dc7000000000000000000000000f39fd6e51aad88f6f4ce6ab8827279cfffb922660000000000000000000000008731d45ff9684d380302573ccfafd994dfa7f7d300000000000000000000000020dc424c5fa468cbb1c702308f0cc9c14da2825c000000000000000000000000969e3128db078b179e9f3b3679710d2443ccdb72",
        "nonce": "0x225",
        "chainId": "0xa455"
      },
      "additionalContracts": [],
      "isFixedGasLimit": false
    },
    {
      "hash": "0x6b23b99d9d2fc347ad59c8f7e4b9a1b22b427395a25ed811277fe23d24c3c6a1",
      "transactionType": "CREATE",
      "contractName": "VaultManager",
      "contractAddress": "0x3489745eff9525ccc3d8c648102fe2cf3485e228",
      "function": null,
      "arguments": [
        "0xed12bE400A07910E4d4E743E4ceE26ab1FC9a961",
        "0xc775bF567D67018dfFac4E89a7Cf10f0EDd0Be93",
        "0x4653251486a57f90Ee89F9f34E098b9218659b83",
        "0x1B25157F05B25438441bF7CDe38A95A55ccf8E50",
        "0xf39Fd6e51aad88F6F4ce6aB8827279cffFb92266",
        "0xf39Fd6e51aad88F6F4ce6aB8827279cffFb92266"
      ],
      "transaction": {
        "from": "0xf39fd6e51aad88f6f4ce6ab8827279cfffb92266",
        "gas": "0x320e00",
        "value": "0x0",
        "input": "0x6101003461032a57601f612ea038819003918201601f19168301916001600160401b0383118484101761032e5780849260c09460405283398101031261032a5761004881610342565b61005460208301610342565b9161006160408201610342565b61006d60608301610342565b9061008660a061007f60808601610342565b9401610342565b60016007556001600160a01b039094169485156102f5576001600160a01b03169081156102bc576001600160a01b0316918215610285576001600160a01b031692831561024c576001600160a01b0316938415610207576001600160a01b03169485156101d15760805260a05260c05260e05260018060a01b0319600354161760035560018060a01b03196001541617600155604051612b49908161035782396080518181816104f601528181610b2801528181610f0201528181611354015281816116ee0152611eb5015260a0518181816101b50152818161039401528181610626015281816108c301528181610c3201528181610d0b0152818161123601528181611c3201528181611e16015281816122f401526126e0015260c051818181610bed0152818161234a0152612736015260e051818181611126015281816119c30152611f2a0152f35b60405162461bcd60e51b815260206004820152600e60248201526d2b269d103d32b9379030b236b4b760911b6044820152606490fd5b60405162461bcd60e51b815260206004820152601760248201527f564d3a207a65726f206441707020726563697069656e740000000000000000006044820152606490fd5b60405162461bcd60e51b81526020600482015260116024820152702b269d103d32b9379039b83634ba3a32b960791b6044820152606490fd5b60405162461bcd60e51b815260206004820152600f60248201526e564d3a207a65726f206f7261636c6560881b6044820152606490fd5b60405162461bcd60e51b8152602060048201526011602482015270564d3a207a65726f20726567697374727960781b6044820152606490fd5b60405162461bcd60e51b815260206004820152600d60248201526c15934e881e995c9bc819d554d1609a1b6044820152606490fd5b5f80fd5b634e487b7160e01b5f52604160045260245ffd5b51906001600160a01b038216820361032a5756fe6080806040526004361015610012575f80fd5b5f905f3560e01c90816303ac45831461194d57508063048c661d14611926578063050296e9146119085780630e18b6811461185c57806316c38b3c1461180a5780631c5d3796146115d857806326782247146115af5780632e5f62a0146115855780633363b7d91461154357806344e2a5a8146115235780634627e7c0146114d5578063468c9bd1146111d05780634afa3af7146111a1578063552033c41461117b5780635c975abb146111555780636052970c146111105780636a146024146110ed57806375829def1461106d578063771b51d214610c615780637b10399914610c1c5780637dc0d1d014610bd757806381845f6314610b575780638c87ee9014610b1257806393991a9314610ae957806398d721e014610a69578063a1e9348214610827578063abaf0042146107c9578063dea9b464146105c9578063e0537cee14610295578063f851a4401461026c5763fab9bd5e14610173575f80fd5b346102695760203660031901126102695760043561019960ff60035460a01c16156121bf565b604051636dd5b69d60e01b81526004810182905260c0816024817f00000000000000000000000000000000000000000000000000000000000000006001600160a01b03165afa90811561025e576101fe9160a091859161022f575b5001511515612236565b61020781611dcf565b337f1b3a3b641448ea38df4f27c3b71159ff387dfd96db4bfa0678a500dff874eb618380a380f35b610251915060c03d60c011610257575b6102498183611ae3565b810190611b41565b5f6101f4565b503d61023f565b6040513d85823e3d90fd5b80fd5b50346102695780600319360112610269576001546040516001600160a01b039091168152602090f35b5034610269576020366003190112610269576004356102b8600160075414611d49565b60026007556102cf60ff60035460a01c16156121bf565b6102d881611dcf565b808252600460209081526040808420335f908152908352819020838552600590925283208054806105c35750676765c793fa10079d601b1b905b6001830190815492676765c793fa10079d601b1b6103308286611bc8565b049387856104bb575b94505050505081549182610377575b5082337f45741dfe35116d540a34618f113e41a5092e64d6b09a503ede64ff9058a0e6058380a3600160075580f35b55604051636dd5b69d60e01b81526004810183905260c0816024817f00000000000000000000000000000000000000000000000000000000000000006001600160a01b03165afa90811561049157849161049c575b505160405163a9059cbb60e01b81523360048201526024810183905291906020908390604490829088906001600160a01b03165af18015610491578392859161044e575b5061041a90612492565b6040519081527fe69cdf29a59dd324317b598bee3a9ed1fcffb99cc506db72633ed07b59dc6d0460203392a35f8281610348565b9250506020823d602011610489575b8161046a60209383611ae3565b810103126104855761041a61047f8493611b34565b90610410565b8380fd5b3d915061045d565b6040513d86823e3d90fd5b6104b5915060c03d60c011610257576102498183611ae3565b5f6103cc565b676765c793fa10079d601b1b946104da60026104e39601938454611bbb565b83555554611bc8565b84865260066020526040862091900490557f00000000000000000000000000000000000000000000000000000000000000006001600160a01b031690813b156105bf5760405163079cc67960e41b81523360048201526024810182905291859081908490604490829084905af19283156105b2578593610597575b50506040519081527f8293a3003da468402b46b778420ac0fa8c2291bed4eeb36f56768a9d2220be7660203392a35f8080808087610339565b81929350906105a591611ae3565b610485578290845f61055e565b50604051903d90823e3d90fd5b8480fd5b90610312565b5034610269576105d836611acd565b6105e6600160075414611d49565b60026007556105fd60ff60035460a01c16156121bf565b6106088115156121f8565b604051636dd5b69d60e01b815260048101839052839060c0816024817f00000000000000000000000000000000000000000000000000000000000000006001600160a01b03165afa80156107be57602091839161079f575b5061067060a08201511515612236565b61067985611dcf565b516040516323b872dd60e01b81523360048201523060248201526044810185905292839160649183916001600160a01b03165af1908115610491578491610765575b50156107205781835260046020526040832060018060a01b0333165f5260205260405f206106ea828254611dc2565b90556040519081527f88df26d296ecbf594c8609f433503d1436d24afe03c0d9e5e29c8f6ed92ef9b460203392a3600160075580f35b60405162461bcd60e51b815260206004820152601e60248201527f564d3a20636f6c6c61746572616c207472616e73666572206661696c656400006044820152606490fd5b90506020813d602011610797575b8161078060209383611ae3565b810103126104855761079190611b34565b5f6106bb565b3d9150610773565b6107b8915060c03d60c011610257576102498183611ae3565b5f610660565b6040513d84823e3d90fd5b5034610269576020366003190112610269576107e3611ab7565b6107f860018060a01b03600154163314611d0d565b6001600160a01b031661080c811515612453565b6bffffffffffffffffffffffff60a01b600354161760035580f35b50346102695761083636611acd565b610844600160075414611d49565b600260075561085b60ff60035460a01c16156121bf565b6108668115156121f8565b61086f82611dcf565b818352600460209081526040808520335f908152925290208054828110610a24578261089a91611bbb565b815560018101546109d4575b50604051636dd5b69d60e01b81526004810183905260c0816024817f00000000000000000000000000000000000000000000000000000000000000006001600160a01b03165afa9081156104915784916109b5575b505160405163a9059cbb60e01b815233600482015260248101839052906020908290604490829088906001600160a01b03165af1801561049157849061097a575b6109469150612492565b6040519081527fe69cdf29a59dd324317b598bee3a9ed1fcffb99cc506db72633ed07b59dc6d0460203392a3600160075580f35b506020813d6020116109ad575b8161099460209383611ae3565b81010312610485576109a861094691611b34565b61093c565b3d9150610987565b6109ce915060c03d60c011610257576102498183611ae3565b5f6108fb565b6109de9083612683565b156109e9575f6108a6565b60405162461bcd60e51b8152602060048201526013602482015272564d3a207661756c7420756e6865616c74687960681b6044820152606490fd5b60405162461bcd60e51b815260206004820152601b60248201527f564d3a20696e73756666696369656e7420636f6c6c61746572616c00000000006044820152606490fd5b5034610269576020366003190112610269577f51f43ead43c9a90d53ec229fbf48feb76b24efa7a147089ad9ed34ad384a94d36020610aa6611ab7565b610abb60018060a01b03600154163314611d0d565b6001600160a01b0316610acf811515612453565b83546001600160a01b03191681178455604051908152a180f35b50346102695780600319360112610269576003546040516001600160a01b039091168152602090f35b50346102695780600319360112610269576040517f00000000000000000000000000000000000000000000000000000000000000006001600160a01b03168152602090f35b503461026957604036600319011261026957676765c793fa10079d601b1b610bc560209260043590610b87611aa1565b8282526004865260408083206001600160a01b039092165f908152918752908190209282526005865290205480610bce5750600183915b0154611bc8565b04604051908152f35b60019091610bbe565b50346102695780600319360112610269576040517f00000000000000000000000000000000000000000000000000000000000000006001600160a01b03168152602090f35b50346102695780600319360112610269576040517f00000000000000000000000000000000000000000000000000000000000000006001600160a01b03168152602090f35b503461026957604036600319011261026957600435610c7e611aa1565b610c8c600160075414611d49565b6002600755610ca360ff60035460a01c16156121bf565b6001600160a01b0316801561103757610cbb82611dcf565b818352600460205260408320815f5260205260405f2060018101908154908115610ffa57610ce98186612683565b610fbe57604051636dd5b69d60e01b815260048101869052869160c0826024817f00000000000000000000000000000000000000000000000000000000000000006001600160a01b03165afa91821561025e578392610f8c575b50610d99676765c793fa10079d601b1b918885526005602052604085209585875480155f14610f86575084925b8186610d7c8686611bc8565b049a610d8f600284549c01958654611bbb565b8555555554611bc8565b8784526006602052604084209190049055516001600160a01b0316610dcf610dd6610dc683898789612940565b86939193611bbb565b9186611bbb565b80610f00575b5080610e1f575b50505060405191825260208201527f4ecef300dc49115373f12d5ca31f017d1104f91d9fefeda602a1c42550af910960403392a4600160075580f35b60405163a9059cbb60e01b815233600482015260248101919091529160209183916044918391905af1908115610ef5578691610eb7575b5015610e6457845f80610de3565b60405162461bcd60e51b815260206004820152602560248201527f564d3a206c697175696461746f7220636f6c6c61746572616c2073656e642066604482015264185a5b195960da1b6064820152608490fd5b90506020813d602011610eed575b81610ed260209383611ae3565b81010312610ee957610ee390611b34565b5f610e56565b8580fd5b3d9150610ec5565b6040513d88823e3d90fd5b7f00000000000000000000000000000000000000000000000000000000000000006001600160a01b0316803b156105bf5760405163079cc67960e41b8152336004820152602481019290925284908290604490829084905af1908115610491578491610f6d575b50610ddc565b81610f7791611ae3565b610f8257825f610f67565b8280fd5b92610d70565b676765c793fa10079d601b1b919250610fb6610d999160c03d60c011610257576102498183611ae3565b929150610d43565b60405162461bcd60e51b8152602060048201526014602482015273564d3a207661756c74206973206865616c74687960601b6044820152606490fd5b60405162461bcd60e51b815260206004820152601560248201527415934e881d985d5b1d081a185cc81b9bc81919589d605a1b6044820152606490fd5b60405162461bcd60e51b815260206004820152600e60248201526d2b269d103d32b9379037bbb732b960911b6044820152606490fd5b503461026957602036600319011261026957611087611ab7565b6001546001600160a01b03169061109f338314611d0d565b6001600160a01b0316906110b4821515612453565b600280546001600160a01b031916831790557fc02afc35b5d9b88807390ad5b17e685602c17339aa880db1dfe4e15cb3e2e3a18380a380f35b50346102695780600319360112610269576020604051670de0b6b3a76400008152f35b50346102695780600319360112610269576040517f00000000000000000000000000000000000000000000000000000000000000006001600160a01b03168152602090f35b5034610269578060031936011261026957602060ff60035460a01c166040519015158152f35b50346102695780600319360112610269576020604051676765c793fa10079d601b1b8152f35b50346102695760403660031901126102695760206111c86111c0611aa1565b600435612277565b604051908152f35b5034610269576111df36611acd565b6111ed600160075414611d49565b600260075561120460ff60035460a01c16156121bf565b801561121081156121f8565b61121983611dcf565b604051636dd5b69d60e01b8152600481018490529060c0826024817f00000000000000000000000000000000000000000000000000000000000000006001600160a01b03165afa9182156114ca5785926114a9575b5061127e60a08301511515612236565b83855260056020526040852090815480155f146114a35750676765c793fa10079d601b1b905b676765c793fa10079d601b1b850290858204676765c793fa10079d601b1b14171561148f5761132b826112e5606094676765c793fa10079d601b1b94611bdb565b888a52600460205260408a2060018060a01b0333165f52602052611323600260405f209760018901611318858254611dc2565b905501918254611dc2565b809155611bc8565b04920151821161144a5761134c918486526006602052604086205583612683565b1561140557827f00000000000000000000000000000000000000000000000000000000000000006001600160a01b0316803b15611401576040516340c10f1960e01b8152336004820152602481018490529082908290604490829084905af180156107be576113ec575b50506040519081527f7ee657a21ac7f39b81c23a6f713ab60c53f4c04479e9a7847c08e2bc69862e8060203392a3600160075580f35b816113f691611ae3565b610f8257825f6113b6565b5080fd5b60405162461bcd60e51b815260206004820152601c60248201527f564d3a20636f6c6c61746572616c20726174696f20746f6f206c6f77000000006044820152606490fd5b60405162461bcd60e51b815260206004820152601960248201527f564d3a2064656274206365696c696e67206578636565646564000000000000006044820152606490fd5b634e487b7160e01b87526011600452602487fd5b906112a4565b6114c391925060c03d60c011610257576102498183611ae3565b905f61126e565b6040513d87823e3d90fd5b50346102695760403660031901126102695760406114f1611aa1565b9160043581526004602052209060018060a01b03165f526020526040805f206001815491015482519182526020820152f35b503461026957602036600319011261026957611540600435611dcf565b80f35b50346102695760203660031901126102695760406060916004358152600560205220805490600260018201549101549060405192835260208301526040820152f35b50346102695760203660031901126102695760406020916004358152600683522054604051908152f35b50346102695780600319360112610269576002546040516001600160a01b039091168152602090f35b503461179d576115e736611acd565b6115f5600160075414611d49565b60026007558061160483611dcf565b825f52600460205260405f2060018060a01b0333165f5260205260405f20835f52600560205260405f2090815480155f1461180157506001676765c793fa10079d601b1b915b0192835490676765c793fa10079d601b1b6116658484611bc8565b048091116117f9575b5084156117bd57676765c793fa10079d601b1b850292858404676765c793fa10079d601b1b036117a957676765c793fa10079d601b1b946116b2846116d796611bdb565b928084116117a1575b916002916116cc8561132395611bbb565b905501918254611bbb565b04825f52600660205260405f205560018060a01b037f000000000000000000000000000000000000000000000000000000000000000016803b1561179d5760405163079cc67960e41b815233600482015260248101839052905f908290604490829084905af180156117925761177d575b506040519081527f8293a3003da468402b46b778420ac0fa8c2291bed4eeb36f56768a9d2220be7660203392a3600160075580f35b61178a9193505f90611ae3565b5f915f611748565b6040513d5f823e3d90fd5b5f80fd5b9250826116bb565b634e487b7160e01b5f52601160045260245ffd5b60405162461bcd60e51b8152602060048201526014602482015273564d3a206e6f7468696e6720746f20726570617960601b6044820152606490fd5b94505f61166e565b6001909161164a565b3461179d57602036600319011261179d5760043580151580910361179d5761183d60018060a01b03600154163314611d0d565b6003805460ff60a01b191660a09290921b60ff60a01b16919091179055005b3461179d575f36600319011261179d576002546001600160a01b03811690338290036118cb57600180546001600160a01b0319808216851790925591166002556001600160a01b03167ff8ccb027dfcd135e000e9d45e6cc2d662578a8825d4c45b5e32e0adf67e79ec65f80a3005b60405162461bcd60e51b81526020600482015260156024820152742b269d103737ba103832b73234b7339030b236b4b760591b6044820152606490fd5b3461179d57602036600319011261179d5760206111c8600435611bf9565b3461179d575f36600319011261179d575f546040516001600160a01b039091168152602090f35b3461179d57608036600319011261179d57611966611aa1565b90604435906001600160a01b038216820361179d57303303611a6f57604051636955c83f60e11b815260048035908201526001600160a01b038085166024830152831660448201526064803590820152606081806084810103815f7f00000000000000000000000000000000000000000000000000000000000000006001600160a01b03165af19081611a40575b50611a3e5760405162461bcd60e51b815260206004820152601f60248201527f456e68616e63656420747261636b696e67206e6f7420737570706f72746564006044820152606490fd5b005b611a619060603d606011611a68575b611a598183611ae3565b810190611b19565b50506119f4565b503d611a4f565b62461bcd60e51b815260206004820152600d60248201526c2b269d1037b7363c9039b2b63360991b6044820152606490fd5b602435906001600160a01b038216820361179d57565b600435906001600160a01b038216820361179d57565b604090600319011261179d576004359060243590565b90601f8019910116810190811067ffffffffffffffff821117611b0557604052565b634e487b7160e01b5f52604160045260245ffd5b9081606091031261179d578051916040602083015192015190565b5190811515820361179d57565b908160c091031261179d576040519060c0820182811067ffffffffffffffff821117611b055760405280516001600160a01b038116810361179d57611bb39160a09184526020810151602085015260408101516040850152606081015160608501526080810151608085015201611b34565b60a082015290565b919082039182116117a957565b818102929181159184041417156117a957565b8115611be5570490565b634e487b7160e01b5f52601260045260245ffd5b805f52600560205260405f2080549182158015611d01575b611cd357604051636dd5b69d60e01b8152600481019190915260c0816024817f00000000000000000000000000000000000000000000000000000000000000006001600160a01b03165afa908115611792575f91611ce2575b50611c79600183015442611bbb565b8015611cda57611c9c611ca2916080676765c793fa10079d601b1b94015161251a565b84611bc8565b049082821115611cd3576002611cc7676765c793fa10079d601b1b94611ccf94611bbb565b910154611bc8565b0490565b5050505f90565b505050505f90565b611cfb915060c03d60c011610257576102498183611ae3565b5f611c6a565b50600282015415611c11565b15611d1457565b60405162461bcd60e51b815260206004820152600d60248201526c2b269d103737ba1030b236b4b760991b6044820152606490fd5b15611d5057565b60405162461bcd60e51b81526020600482015260096024820152681499595b9d1c985b9d60ba1b6044820152606490fd5b15611d8857565b60405162461bcd60e51b815260206004820152601260248201527115934e88185c1c1c9bdd994819985a5b195960721b6044820152606490fd5b919082018092116117a957565b5f815f52600560205260405f20908154156121a65760018201611df3815442611bbb565b801561219f57604051636dd5b69d60e01b8152600481018690529060c0826024817f00000000000000000000000000000000000000000000000000000000000000006001600160a01b03165afa91821561179257611e5d926080915f91612180575b50015161251a565b92676765c793fa10079d601b1b611e7682549586611bc8565b04938085111561217657916002611eab92611e9d676765c793fa10079d601b1b9588611bbb565b928782554290550154611bc8565b04908115612142577f00000000000000000000000000000000000000000000000000000000000000006001600160a01b0316803b1561179d576040516340c10f1960e01b8152306004820152602481018490525f8160448183865af180156117925761212d575b5060405163095ea7b360e01b81526001600160a01b037f0000000000000000000000000000000000000000000000000000000000000000166004820181905260248201859052919060208160448187865af180156104915784906120f2575b611f7b9150611d81565b6003546001600160a01b0316303b15610485576040516303ac458360e01b8152600481018690526001600160a01b03918216602482015290821660448201526064810187905283808260848183305af191826120dd575b50506120af57606090606460018060a01b0360035416856040519586948593633e5a775160e11b85528a6004860152602485015260448401525af180156107be577f3b9f4ab0566d9d10726a6f7f34cdc9e4b7f03a20a878ed293de4e6ed1b4198589492604094928592612090575b505b868152600660205220612057828254611dc2565b9055847f156e588d1067ba3c8a6a7f4376ef70794f8afed114dc9d1421e054b65743e63060208551848152a282519182526020820152a2565b6120a89060603d606011611a6857611a598183611ae3565b5050612041565b505091604091827f3b9f4ab0566d9d10726a6f7f34cdc9e4b7f03a20a878ed293de4e6ed1b41985894612043565b816120e791611ae3565b61048557835f611fd2565b506020813d602011612125575b8161210c60209383611ae3565b8101031261048557612120611f7b91611b34565b611f71565b3d91506120ff565b61213a9192505f90611ae3565b5f905f611f12565b505060407f3b9f4ab0566d9d10726a6f7f34cdc9e4b7f03a20a878ed293de4e6ed1b4198589181519081525f6020820152a2565b5050429055505050565b612199915060c03d60c011610257576102498183611ae3565b5f611e55565b5050505050565b509050676765c793fa10079d601b1b8155600142910155565b156121c657565b60405162461bcd60e51b815260206004820152600a60248201526915934e881c185d5cd95960b21b6044820152606490fd5b156121ff57565b60405162461bcd60e51b815260206004820152600f60248201526e15934e881e995c9bc8185b5bdd5b9d608a1b6044820152606490fd5b1561223d57565b60405162461bcd60e51b8152602060048201526012602482015271564d3a20696c6b206e6f742061637469766560701b6044820152606490fd5b90815f52600460205260405f209060018060a01b03165f5260205260405f209060018201548015612445576122cf676765c793fa10079d601b1b91835f52600560205260405f205480155f1461244d57508290611bc8565b0490811561244557604051636dd5b69d60e01b8152600481018290529260c0846024817f00000000000000000000000000000000000000000000000000000000000000006001600160a01b03165afa938415611792575f94612424575b506040516331d98b3f60e01b815260048101929092526020826024817f00000000000000000000000000000000000000000000000000000000000000006001600160a01b03165afa918215611792575f926123ed575b509160206123a96123b293670de0b6b3a764000095549060018060a01b038851169161284e565b94015190611bc8565b0480156123e657670de0b6b3a7640000820291808304670de0b6b3a764000014901517156117a9576123e391611bdb565b90565b50505f1990565b9150916020823d60201161241c575b8161240960209383611ae3565b8101031261179d57905190916020612382565b3d91506123fc565b61243e91945060c03d60c011610257576102498183611ae3565b925f61232c565b5050505f1990565b90611bc8565b1561245a57565b60405162461bcd60e51b815260206004820152601060248201526f564d3a207a65726f206164647265737360801b6044820152606490fd5b1561249957565b60405162461bcd60e51b815260206004820152601a60248201527f564d3a20636f6c6c61746572616c2073656e64206661696c65640000000000006044820152606490fd5b156124e557565b60405162461bcd60e51b815260206004820152600d60248201526c72706f772f6f766572666c6f7760981b6044820152606490fd5b9190915f90801561266657600184161561265557805b9360011c90815b61254057505050565b61255e61254d8280611bc8565b918015908115612642575b506124de565b6b019d971e4fe8401e7400000081019081811161262e57612581908210156124de565b8261261a57676765c793fa10079d601b1b90049081600182166125aa575b5060011c9081612537565b8593506125bb816125cd9397611bc8565b938115918215612606575b50506124de565b6b019d971e4fe8401e740000008201918281116117a9576125f0908310156124de565b676765c793fa10079d601b1b5f9204935f61259f565b61261291925085611bdb565b145f806125c6565b634e487b7160e01b83526012600452602483fd5b634e487b7160e01b84526011600452602484fd5b905061264e8184611bdb565b145f612558565b676765c793fa10079d601b1b612530565b505090155f1461267f57676765c793fa10079d601b1b90565b5f90565b60018201548015612835576126bb676765c793fa10079d601b1b91835f52600560205260405f205480155f1461244d57508290611bc8565b0490811561283557604051636dd5b69d60e01b8152600481018290529260c0846024817f00000000000000000000000000000000000000000000000000000000000000006001600160a01b03165afa938415611792575f94612814575b506040516331d98b3f60e01b815260048101929092526020826024817f00000000000000000000000000000000000000000000000000000000000000006001600160a01b03165afa918215611792575f926127dd575b509160206123a961279593670de0b6b3a764000095549060018060a01b038851169161284e565b049081156127d657670de0b6b3a7640000810290808204670de0b6b3a764000014901517156117a957670de0b6b3a7640000916127d191611bdb565b101590565b5050600190565b9150916020823d60201161280c575b816127f960209383611ae3565b8101031261179d5790519091602061276e565b3d91506127ec565b61282e91945060c03d60c011610257576102498183611ae3565b925f612718565b505050600190565b60ff16604d81116117a957600a0a90565b60405163313ce56760e01b81529192909190602090829060049082906001600160a01b03165afa8015611792575f90612903575b60ff16905060128110156128ba576012039160ff83116117a9576128b5611ccf9261244d670de0b6b3a76400009561283d565b611bc8565b60128111156128ef57601119019160ff83116117a9576128b5611ccf926128e9670de0b6b3a76400009561283d565b90611bdb565b50670de0b6b3a764000091611ccf91611bc8565b506020813d602011612938575b8161291d60209383611ae3565b8101031261179d575160ff8116810361179d5760ff90612882565b3d9150612910565b5f8054929590949093926001600160a01b03168015612b0757604051637d88209760e01b8152602081600481855afa908115611792575f91612ad5575b508015612ac85780841015612ac25750825b839781612aa5575b50508580151580612a9c575b6129ae575050505050565b60405163095ea7b360e01b81526001600160a01b0390921660048301526024820152906020908290815f816044810103926001600160a01b03165af18015611792575f90612a61575b612a019150611d81565b5f546001600160a01b031691823b1561179d5760645f9283604051958694859363742f9e7160e01b8552600485015260248401528860448401525af1801561179257612a51575b8080808561219f565b5f612a5b91611ae3565b5f612a48565b506020813d602011612a94575b81612a7b60209383611ae3565b8101031261179d57612a8f612a0191611b34565b6129f7565b3d9150612a6e565b508315156129a3565b612aba92975084612ab591611bc8565b611bdb565b945f80612997565b9261298f565b505f965086955050505050565b90506020813d602011612aff575b81612af060209383611ae3565b8101031261179d57515f61297d565b3d9150612ae3565b505f955085945050505056fea26469706673582212207eb8e8857eb7cdb8879213a57cc8604e25e0c8d6cde33ec54ced9d21a745483f64736f6c63430008210033000000000000000000000000ed12be400a07910e4d4e743e4cee26ab1fc9a961000000000000000000000000c775bf567d67018dffac4e89a7cf10f0edd0be930000000000000000000000004653251486a57f90ee89f9f34e098b9218659b830000000000000000000000001b25157f05b25438441bf7cde38a95a55ccf8e50000000000000000000000000f39fd6e51aad88f6f4ce6ab8827279cfffb92266000000000000000000000000f39fd6e51aad88f6f4ce6ab8827279cfffb92266",
        "nonce": "0x226",
        "chainId": "0xa455"
      },
      "additionalContracts": [],
      "isFixedGasLimit": false
    },
    {
      "hash": "0x4eb5804a97dddbc7ab7940e7cbe4bcfbc677a56320775af0cd2e514bf29a01b4",
      "transactionType": "CREATE",
      "contractName": "StabilityPool",
      "contractAddress": "0x43b9ef43d415e84ad9964567002d648b11747a8f",
      "function": null,
      "arguments": [
        "0xed12bE400A07910E4d4E743E4ceE26ab1FC9a961",
        "0xf39Fd6e51aad88F6F4ce6aB8827279cffFb92266"
      ],
      "transaction": {
        "from": "0xf39fd6e51aad88f6f4ce6ab8827279cfffb92266",
        "gas": "0x1e5d1b",
        "value": "0x0",
        "input": "0x60a03461013657601f611b3338819003918201601f19168301916001600160401b0383118484101761013a57808492604094855283398101031261013657610052602061004b8361014e565b920161014e565b670de0b6b3a76400006007556001600160a01b03909116908115610101576001600160a01b03169081156100cb57608052600180546001600160a01b0319169190911790556040516119d09081610163823960805181818161035c0152818161076601528181610a7001528181610df501526111d20152f35b60405162461bcd60e51b815260206004820152600e60248201526d29a81d103d32b9379030b236b4b760911b6044820152606490fd5b60405162461bcd60e51b815260206004820152600d60248201526c14d40e881e995c9bc819d554d1609a1b6044820152606490fd5b5f80fd5b634e487b7160e01b5f52604160045260245ffd5b51906001600160a01b03821682036101365756fe6080806040526004361015610012575f80fd5b5f905f3560e01c9081630e18b681146112f85750806326782247146112d05780632e1a7d4d1461111e5780632e54bf951461111e578063310599be146110da5780633b5b7e3d146110b0578063484be514146110815780634ec18db914611064578063504758d6146110475780635f788d6514610f3f5780636aebb1ab14610d24578063742f9e711461095a57806375829def146108da57806378c77a24146107da5780637d882097146107bc5780638a4adf24146107955780638c87ee9014610750578063997dc62e146107265780639ff55263146105d2578063aaf5eb68146105af578063b0c8033d14610576578063b2a6b8001461053d578063b543503e146104c3578063b6b55f25146102cb578063d1a294c414610298578063d672bf541461025e578063dd3049f014610234578063e3fc028d146101f5578063f309f4d8146101d7578063f851a440146101ae5763fc7e286d14610173575f80fd5b346101ab5760203660031901126101ab576020906040906001600160a01b0361019a6113a2565b168152600483522054604051908152f35b80fd5b50346101ab57806003193601126101ab576001546040516001600160a01b039091168152602090f35b50346101ab57806003193601126101ab576020600754604051908152f35b50346101ab5760203660031901126101ab57610213600f54156113fa565b6001600f5561022133611702565b61022d600435336117cd565b80600f5580f35b50346101ab5760203660031901126101ab5760406020916004358152600d83522054604051908152f35b50346101ab5760203660031901126101ab5760043590600c548210156101ab576020610289836113ce565b90549060031b1c604051908152f35b50346101ab5760203660031901126101ab576020906004358152600b8252604060018060a01b0391205416604051908152f35b50346101ab5760203660031901126101ab576004356102ec600f54156113fa565b6001600f556102fc811515611432565b61030533611702565b33825260096020526040822054600854116104b0575b3382526004602052604082205415610452575b6040516323b872dd60e01b81523360048201523060248201526044810182905260208180606481015b0381867f00000000000000000000000000000000000000000000000000000000000000006001600160a01b03165af180156104475761039d918491610418575b506114cb565b3382526004602052604082206103b482825461167a565b905560075433835260066020526040832055600854338352600960205260408320556103e28160035461167a565b6003556040519081527f2da466a7b24304f47e87fa2e1e5a81b9831ce54fec19055ce277ca2f39ba42c460203392a280600f5580f35b61043a915060203d602011610440575b610432818361147d565b8101906114b3565b5f610397565b503d610428565b6040513d85823e3d90fd5b600c54825b81811061046557505061032e565b806104716001926113ce565b90549060031b1c8552600a6020526040852054338652600560205260408620610499836113ce565b90549060031b1c8752602052604086205501610457565b338252600460205281604081205561031b565b50346101ab5760203660031901126101ab576104dd6113a2565b6104f260018060a01b03600154163314611687565b6001600160a01b03166105068115156116c3565b81546001600160a01b031916811782557f8e902340d35762a5a36507c20fe38e5d549a721d9f846d6de7f397b5c26ab8538280a280f35b50346101ab5760203660031901126101ab576020906040906001600160a01b036105656113a2565b168152600983522054604051908152f35b50346101ab5760203660031901126101ab576020906040906001600160a01b0361059e6113a2565b168152600683522054604051908152f35b50346101ab57806003193601126101ab576020604051670de0b6b3a76400008152f35b50346101ab5760403660031901126101ab576004356105ef6113b8565b61060460018060a01b03600154163314611687565b6001600160a01b031680156106f057818352600b60205260408320546001600160a01b031615610678575b818352600b6020908152604080852080546001600160a01b03191684179055519182527f7b02323155ee1835f3ad82fb0682024a2f6ea1380e110430fc6eb75fbffc866591a280f35b600c54680100000000000000008110156106dc577f7b02323155ee1835f3ad82fb0682024a2f6ea1380e110430fc6eb75fbffc8665916106c082600160209401600c556113ce565b81549060031b9086821b915f19901b191617905591505061062f565b634e487b7160e01b84526041600452602484fd5b60405162461bcd60e51b815260206004820152600e60248201526d29a81d103d32b937903a37b5b2b760911b6044820152606490fd5b50346101ab5760203660031901126101ab5760406020916004358152600e83522054604051908152f35b50346101ab57806003193601126101ab576040517f00000000000000000000000000000000000000000000000000000000000000006001600160a01b03168152602090f35b50346101ab57806003193601126101ab57546040516001600160a01b039091168152602090f35b50346101ab57806003193601126101ab576020600354604051908152f35b50346101ab5760203660031901126101ab576004356107fb600f54156113fa565b6001600f5561080b811515611432565b61081433611702565b33825260096020526040822054600854116108c7575b3382526004602052604082205415610869576040516323b872dd60e01b8152336004820152306024820152604481018290526020818060648101610357565b600c54825b81811061087c57505061032e565b806108886001926113ce565b90549060031b1c8552600a60205260408520543386526005602052604086206108b0836113ce565b90549060031b1c875260205260408620550161086e565b338252600460205281604081205561082a565b50346101ab5760203660031901126101ab576108f46113a2565b6001546001600160a01b03169061090c338314611687565b6001600160a01b0316906109218215156116c3565b600280546001600160a01b031916831790557fc02afc35b5d9b88807390ad5b17e685602c17339aa880db1dfe4e15cb3e2e3a18380a380f35b5034610bde576060366003190112610bde5760043560243590604435610982600f54156113fa565b6001600f555f546001600160a01b03163303610ce7578115610cb2578160035410610c78575f838152600b60205260409020546109c9906001600160a01b03161515611635565b5f838152600b602090815260408083205490516323b872dd60e01b81523360048201523060248201526044810185905292839160649183916001600160a01b03165af1908115610bd3575f91610c59575b5015610c145760035415610bf657670de0b6b3a76400008102818104670de0b6b3a76400001482151715610be257600354610a5491611520565b835f52600a602052610a6b60405f2091825461167a565b90555b7f00000000000000000000000000000000000000000000000000000000000000006001600160a01b0316803b15610bde575f8091602460405180948193630852cd8d60e31b83528860048401525af18015610bd357610bbe575b50600354610ad68382611470565b90151580610bb5575b15610b3b579160409183610b22610b197f9f0e2e27f318babf40f39455bf2da36279d485bbb154091390dab5c7e946359e9660075461150d565b60035490611520565b6007555b60035582519182526020820152a280600f5580f35b8015610b6d575b916040917f9f0e2e27f318babf40f39455bf2da36279d485bbb154091390dab5c7e946359e93610b26565b6007546008548652600d602052604086205560085460018101809111610ba157600855670de0b6b3a7640000600755610b42565b634e487b7160e01b86526011600452602486fd5b50801515610adf565b610bcb9194505f9061147d565b5f925f610ac8565b6040513d5f823e3d90fd5b5f80fd5b634e487b7160e01b5f52601160045260245ffd5b825f52600e60205260405f20610c0d82825461167a565b9055610a6e565b60405162461bcd60e51b815260206004820152601e60248201527f53503a20636f6c6c61746572616c207472616e73666572206661696c656400006044820152606490fd5b610c72915060203d60201161044057610432818361147d565b5f610a1a565b60405162461bcd60e51b815260206004820152601260248201527114d40e881c1bdbdb081d1bdbc81cdb585b1b60721b6044820152606490fd5b60405162461bcd60e51b815260206004820152600d60248201526c14d40e881e995c9bc81919589d609a1b6044820152606490fd5b60405162461bcd60e51b815260206004820152601560248201527429a81d103737ba103b30bab63a1036b0b730b3b2b960591b6044820152606490fd5b34610bde576040366003190112610bde5760043560243567ffffffffffffffff8111610bde5736602382011215610bde5780600401359067ffffffffffffffff8211610bde57602490369260051b010111610bde57610d85600f54156113fa565b6001600f55610d95811515611432565b610d9e33611702565b335f52600960205260405f205460085411610f2c575b335f52600460205260405f205415610ece575b6040516323b872dd60e01b81523360048201523060248201526044810182905260208180606481015b03815f7f00000000000000000000000000000000000000000000000000000000000000006001600160a01b03165af18015610bd357610e35915f91610eaf57506114cb565b335f52600460205260405f20610e4c82825461167a565b9055600754335f52600660205260405f2055600854335f52600960205260405f2055610e7a8160035461167a565b6003556040519081527f2da466a7b24304f47e87fa2e1e5a81b9831ce54fec19055ce277ca2f39ba42c460203392a25f600f55005b610ec8915060203d60201161044057610432818361147d565b83610397565b600c545f5b818110610ee1575050610dc7565b80610eed6001926113ce565b90549060031b1c5f52600a60205260405f2054335f52600560205260405f20610f15836113ce565b90549060031b1c5f5260205260405f205501610ed3565b335f5260046020525f6040812055610db4565b34610bde576040366003190112610bde57600435610f5b6113b8565b50610f68600f54156113fa565b6001600f55610f78811515611432565b610f8133611702565b335f52600960205260405f205460085411611034575b335f52600460205260405f205415610fd6576040516323b872dd60e01b8152336004820152306024820152604481018290526020818060648101610df0565b600c545f5b818110610fe9575050610dc7565b80610ff56001926113ce565b90549060031b1c5f52600a60205260405f2054335f52600560205260405f2061101d836113ce565b90549060031b1c5f5260205260405f205501610fdb565b335f5260046020525f6040812055610f97565b34610bde575f366003190112610bde576020600854604051908152f35b34610bde575f366003190112610bde576020600354604051908152f35b34610bde576040366003190112610bde5760206110a861109f6113a2565b6024359061153e565b604051908152f35b34610bde576020366003190112610bde576004355f52600a602052602060405f2054604051908152f35b34610bde576040366003190112610bde576001600160a01b036110fb6113a2565b165f52600560205260405f206024355f52602052602060405f2054604051908152f35b34610bde576020366003190112610bde5760043561113e600f54156113fa565b6001600f5561114e811515611432565b61115733611702565b335f52600960205260405f20546008541161128157335f5260046020528060405f20541061123c57335f52600460205260405f20611196828254611470565b90556111a481600354611470565b60035560405163a9059cbb60e01b8152336004820152602481018290526020816044815f6001600160a01b037f0000000000000000000000000000000000000000000000000000000000000000165af18015610bd35761120a915f91610eaf57506114cb565b6040519081527f7084f5476618d8e60b11ef0d7d3f06914655adb8793e28ff7f018d4c76d505d560203392a25f600f55005b60405162461bcd60e51b815260206004820152601860248201527f53503a20696e73756666696369656e74206465706f73697400000000000000006044820152606490fd5b60405162461bcd60e51b815260206004820152602160248201527f53503a206465706f736974206275726e656420696e206c69717569646174696f6044820152603760f91b6064820152608490fd5b34610bde575f366003190112610bde576002546040516001600160a01b039091168152602090f35b34610bde575f366003190112610bde576002546001600160a01b03811691338390036113685750600180546001600160a01b0319808216851790925591166002556001600160a01b03167ff8ccb027dfcd135e000e9d45e6cc2d662578a8825d4c45b5e32e0adf67e79ec65f80a3005b62461bcd60e51b815260206004820152601560248201527429a81d103737ba103832b73234b7339030b236b4b760591b6044820152606490fd5b600435906001600160a01b0382168203610bde57565b602435906001600160a01b0382168203610bde57565b600c548110156113e657600c5f5260205f2001905f90565b634e487b7160e01b5f52603260045260245ffd5b1561140157565b60405162461bcd60e51b81526020600482015260096024820152681499595b9d1c985b9d60ba1b6044820152606490fd5b1561143957565b60405162461bcd60e51b815260206004820152600f60248201526e14d40e881e995c9bc8185b5bdd5b9d608a1b6044820152606490fd5b91908203918211610be257565b90601f8019910116810190811067ffffffffffffffff82111761149f57604052565b634e487b7160e01b5f52604160045260245ffd5b90816020910312610bde57518015158103610bde5790565b156114d257565b60405162461bcd60e51b815260206004820152601360248201527214d40e881d1c985b9cd9995c8819985a5b1959606a1b6044820152606490fd5b81810292918115918404141715610be257565b811561152a570490565b634e487b7160e01b5f52601260045260245ffd5b6001600160a01b03165f8181526004602052604090205491821561162e57670de0b6b3a764000092826115eb935f52600660205260405f2054155f1461161c57845b815f52600960205260405f205460085481105f14611613575f52600d60205260405f20545b801561160c575b8181036115ef575b5050826115e592935f52600a60205260405f2054915f52600560205260405f20905f5260205260405f205490611470565b9061150d565b0490565b90611600611605926115e59561150d565b611520565b915f6115b4565b50856115ac565b506007546115a5565b805f52600660205260405f2054611580565b5050505f90565b1561163c57565b60405162461bcd60e51b815260206004820152601660248201527514d40e881a5b1ac81b9bdd081c9959da5cdd195c995960521b6044820152606490fd5b91908201809211610be257565b1561168e57565b60405162461bcd60e51b815260206004820152600d60248201526c29a81d103737ba1030b236b4b760991b6044820152606490fd5b156116ca57565b60405162461bcd60e51b815260206004820152601060248201526f53503a207a65726f206164647265737360801b6044820152606490fd5b6001600160a01b03165f818152600460205260409020549081156117c957805f52600660205260405f20549182156117b9575b815f52600960205260405f205460085481105f146117af575f52600d60205260405f2054925b831561179f575b808403611770575b50505050565b6116008461177d9361150d565b815f52600460205260405f20555f52600660205260405f20555f80808061176a565b670de0b6b3a76400009350611762565b506007549261175b565b670de0b6b3a76400009250611735565b5050565b5f828152600b60205260409020546117ef906001600160a01b03161515611635565b6001600160a01b0381165f818152600460205260409020549091811561197157835f52600a60205260405f205491835f52600560205260405f20855f5260205261183d60405f205484611470565b90811561196957670de0b6b3a7640000916118579161150d565b0491835f52600560205260405f20855f5260205260405f20558161187b5750505050565b5f848152600b6020908152604080832054905163a9059cbb60e01b81526001600160a01b039485166004820152602481018690529391928492604492849291165af1908115610bd3575f9161194a575b50156119055760207f85e429e8a0bf56d9ab471a80ddf210f520769a1bda3ee3946bab002feb6d0e8d91604051908152a35f80808061176a565b60405162461bcd60e51b815260206004820152601a60248201527f53503a20636f6c6c61746572616c2073656e64206661696c65640000000000006044820152606490fd5b611963915060203d60201161044057610432818361147d565b5f6118cb565b505050505050565b505090805f52600a60205260405f2054915f52600560205260405f20905f5260205260405f205556fea264697066735822122076176ee488edb9f6ee419a9611324d3516fa0a9bb2fcc8f38e4bb86470304b0164736f6c63430008210033000000000000000000000000ed12be400a07910e4d4e743e4cee26ab1fc9a961000000000000000000000000f39fd6e51aad88f6f4ce6ab8827279cfffb92266",
        "nonce": "0x227",
        "chainId": "0xa455"
      },
      "additionalContracts": [],
      "isFixedGasLimit": false
    },
    {
      "hash": "0x07df05c193d87b3c579bd1f06ba5fe6b0bf53071068114103c0fccf9ba21c9b9",
      "transactionType": "CALL",
      "contractName": "StabilityPool",
      "contractAddress": "0x43b9ef43d415e84ad9964567002d648b11747a8f",
      "function": "setVaultManager(address)",
      "arguments": [
        "0x3489745eff9525CCC3d8c648102FE2cf3485e228"
      ],
      "transaction": {
        "from": "0xf39fd6e51aad88f6f4ce6ab8827279cfffb92266",
        "to": "0x43b9ef43d415e84ad9964567002d648b11747a8f",
        "gas": "0x100fa",
        "value": "0x0",
        "input": "0xb543503e0000000000000000000000003489745eff9525ccc3d8c648102fe2cf3485e228",
        "nonce": "0x228",
        "chainId": "0xa455"
      },
      "additionalContracts": [],
      "isFixedGasLimit": false
    },
    {
      "hash": "0xfef19d1d313e9d7d8c8abaf354ded2cee6bae96b0755f74f035445faaded1aa5",
      "transactionType": "CALL",
      "contractName": "StabilityPool",
      "contractAddress": "0x43b9ef43d415e84ad9964567002d648b11747a8f",
      "function": "registerCollateralToken(bytes32,address)",
      "arguments": [
        "0x4554480000000000000000000000000000000000000000000000000000000000",
        "0x8731d45ff9684d380302573cCFafd994Dfa7f7d3"
      ],
      "transaction": {
        "from": "0xf39fd6e51aad88f6f4ce6ab8827279cfffb92266",
        "to": "0x43b9ef43d415e84ad9964567002d648b11747a8f",
        "gas": "0x1f479",
        "value": "0x0",
        "input": "0x9ff5526345544800000000000000000000000000000000000000000000000000000000000000000000000000000000008731d45ff9684d380302573ccfafd994dfa7f7d3",
        "nonce": "0x229",
        "chainId": "0xa455"
      },
      "additionalContracts": [],
      "isFixedGasLimit": false
    },
    {
      "hash": "0xb617615c6452bc9763b01dd8596ef4754980ab707a72c2c81c15cf53866734ae",
      "transactionType": "CALL",
      "contractName": "StabilityPool",
      "contractAddress": "0x43b9ef43d415e84ad9964567002d648b11747a8f",
      "function": "registerCollateralToken(bytes32,address)",
      "arguments": [
        "0x4744000000000000000000000000000000000000000000000000000000000000",
        "0x20Dc424c5fa468CbB1c702308F0cC9c14DA2825C"
      ],
      "transaction": {
        "from": "0xf39fd6e51aad88f6f4ce6ab8827279cfffb92266",
        "to": "0x43b9ef43d415e84ad9964567002d648b11747a8f",
        "gas": "0x19824",
        "value": "0x0",
        "input": "0x9ff55263474400000000000000000000000000000000000000000000000000000000000000000000000000000000000020dc424c5fa468cbb1c702308f0cc9c14da2825c",
        "nonce": "0x22a",
        "chainId": "0xa455"
      },
      "additionalContracts": [],
      "isFixedGasLimit": false
    },
    {
      "hash": "0xe5f4dceab09880f5bd203451d3b5e6b792ad7a651dc6c532598f4e1213182953",
      "transactionType": "CALL",
      "contractName": "StabilityPool",
      "contractAddress": "0x43b9ef43d415e84ad9964567002d648b11747a8f",
      "function": "registerCollateralToken(bytes32,address)",
      "arguments": [
        "0x5553444300000000000000000000000000000000000000000000000000000000",
        "0x969E3128DB078b179E9F3b3679710d2443cCDB72"
      ],
      "transaction": {
        "from": "0xf39fd6e51aad88f6f4ce6ab8827279cfffb92266",
        "to": "0x43b9ef43d415e84ad9964567002d648b11747a8f",
        "gas": "0x19846",
        "value": "0x0",
        "input": "0x9ff552635553444300000000000000000000000000000000000000000000000000000000000000000000000000000000969e3128db078b179e9f3b3679710d2443ccdb72",
        "nonce": "0x22b",
        "chainId": "0xa455"
      },
      "additionalContracts": [],
      "isFixedGasLimit": false
    },
    {
      "hash": "0xb3efb1ceda7a8ba4b677283755bc5e4daa9e38951dd552d7877a0fee9ec6a18c",
      "transactionType": "CREATE",
      "contractName": "PegStabilityModule",
      "contractAddress": "0x9eb52339b52e71b1efd5537947e75d23b3a7719b",
      "function": null,
      "arguments": [
        "0xed12bE400A07910E4d4E743E4ceE26ab1FC9a961",
        "0x969E3128DB078b179E9F3b3679710d2443cCDB72",
        "0x1B25157F05B25438441bF7CDe38A95A55ccf8E50",
        "0xf39Fd6e51aad88F6F4ce6aB8827279cffFb92266"
      ],
      "transaction": {
        "from": "0xf39fd6e51aad88f6f4ce6ab8827279cfffb92266",
        "gas": "0x1ab97b",
        "value": "0x0",
        "input": "0x60e03461020e57601f6118b038819003918201601f19168301916001600160401b038311848410176102125780849260809460405283398101031261020e5761004781610226565b61005360208301610226565b9161006c606061006560408401610226565b9201610226565b6001600160a01b039092169283156101d8576001600160a01b03169081156101a2576001600160a01b0316918215610168576001600160a01b03169283156101315760805260a05260c0525f80546001600160a01b031916919091179055600a600255604051611675908161023b823960805181818161021201528181610b0c0152610ea6015260a0518181816102d9015281816108ce01528181610a850152611160015260c0518181816103aa0152818161071601528181610c16015261103d0152f35b60405162461bcd60e51b815260206004820152600f60248201526e2829a69d103d32b9379030b236b4b760891b6044820152606490fd5b60405162461bcd60e51b81526020600482015260126024820152712829a69d103d32b9379039b83634ba3a32b960711b6044820152606490fd5b60405162461bcd60e51b815260206004820152600e60248201526d50534d3a207a65726f205553444360901b6044820152606490fd5b60405162461bcd60e51b815260206004820152600e60248201526d1414d34e881e995c9bc819d554d160921b6044820152606490fd5b5f80fd5b634e487b7160e01b5f52604160045260245ffd5b51906001600160a01b038216820361020e5756fe6080806040526004361015610012575f80fd5b5f905f3560e01c90816302df9df114611379575080630e18b681146112ca57806316c38b3c1461125c5780631a1c6e531461123f578063215f0f9814611224578063249d39e91461120857806326603693146111b7578063267822471461118f5780633e413bee1461114b5780635641bc071461112e5780635c975abb1461110c578063604b6a9c1461106c5780636052970c1461102857806360c6d8ae1461100b5780636515e5d814610fee57806375829def14610f715780637d706da014610f1957806384891c5014610ed55780638c87ee9014610e91578063bf79ef7214610e74578063c1419def14610e59578063cc99901714610a09578063e478795d146107f5578063e744630f14610624578063eced552614610604578063ee84f2fe146101705763f851a44014610147575f80fd5b3461016d578060031936011261016d57546040516001600160a01b039091168152602090f35b80fd5b503461016d57602036600319011261016d5760043561019160095415611446565b60016009556101a560ff600454161561147e565b6101b08115156114b8565b6127106101bf600254836113e6565b046101ca81836113f9565b9064e8d4a510008204916101df83151561159e565b82600554106105bf576040516323b872dd60e01b8152336004820152306024820152604481018590526001600160a01b037f000000000000000000000000000000000000000000000000000000000000000016906020816064818a865af19081156105b4578791610595575b5015610550578591813b1561050d57604051630852cd8d60e31b815260048101829052838160248183875af190811561053057849161053b575b5050610293906008546114f7565b60085582610393575b50506102aa826005546113f9565b60055560405163a9059cbb60e01b81523360048201526024810183905291602083604481886001600160a01b037f0000000000000000000000000000000000000000000000000000000000000000165af1928315610388577f19d6baaf4008076fefde90765b8965de468a3f462d7d146e5a9d1468008c890d93610335918791610359575b50611552565b604080519485526020850191909152830152339180606081015b0390a28060095580f35b61037b915060203d602011610381575b6103738183611504565b81019061153a565b5f61032f565b503d610369565b6040513d87823e3d90fd5b60405163095ea7b360e01b81526001600160a01b037f0000000000000000000000000000000000000000000000000000000000000000166004820181905260248201859052919060208160448187865af18015610530576103fb918591610511575b506115e2565b303b1561050d5760405163e744630f60e01b815284600482015230602482015281604482015233606482015260a06084820152600c60a48201526b675553442d746f2d5553444360a01b60c482015283808260e48183305af191826104f4575b50506104ec57604051633e5a775160e11b8152600481018590523060248201526001600160a01b039190911660448201529160609183916064918391905af18015610388576104bd575b505b6104b3816006546114f7565b600655835f61029c565b6104de9060603d6060116104e5575b6104d68183611504565b810190611624565b50506104a5565b503d6104cc565b5050506104a7565b816104fe91611504565b61050957835f61045b565b8380fd5b8280fd5b61052a915060203d602011610381576103738183611504565b5f6103f5565b6040513d86823e3d90fd5b8161054591611504565b61050d57825f610285565b60405162461bcd60e51b815260206004820152601960248201527f50534d3a2067555344207472616e73666572206661696c6564000000000000006044820152606490fd5b6105ae915060203d602011610381576103738183611504565b5f61024b565b6040513d89823e3d90fd5b60405162461bcd60e51b815260206004820152601a60248201527f50534d3a20696e73756666696369656e742072657365727665730000000000006044820152606490fd5b503461016d578060031936011261016d57602060405164e8d4a510008152f35b503461016d5760a036600319011261016d576024356001600160a01b038116908190036107f1576044356001600160a01b038116919082900361050d576064356001600160a01b03811692908390036105095760843567ffffffffffffffff81116107ed57366023820112156107ed5780600401359267ffffffffffffffff84116107e95736602485840101116107e9573033036107b35783606094602460c4946040519889978896636ee3c5e360e11b88526004356004890152848801526044870152606486015260a060848601528260a486015201848401378181018301879052601f01601f19168101030181857f00000000000000000000000000000000000000000000000000000000000000006001600160a01b03165af19081610794575b506107915760405162461bcd60e51b815260206004820152601f60248201527f456e68616e63656420747261636b696e67206e6f7420737570706f72746564006044820152606490fd5b80f35b6107ac9060603d6060116104e5576104d68183611504565b5050610747565b60405162461bcd60e51b815260206004820152600e60248201526d2829a69d1037b7363c9039b2b63360911b6044820152606490fd5b8580fd5b8480fd5b5080fd5b503461016d57604036600319011261016d5761080f611393565b60243561082660018060a01b0384541633146113a9565b61083260095415611446565b600160095561084b6001600160a01b0383161515611406565b600554908181116109cc5760075460085490818111156109be5764e8d4a5100091610875916113f9565b0461088082846113f9565b10610979576108c992610895826020946113f9565b60055560405163a9059cbb60e01b81526001600160a01b039091166004820152602481019190915291829081906044820190565b0381857f00000000000000000000000000000000000000000000000000000000000000006001600160a01b03165af190811561096e57829161094f575b5015610913578060095580f35b60405162461bcd60e51b81526020600482015260146024820152731414d34e881d1c985b9cd9995c8819985a5b195960621b6044820152606490fd5b610968915060203d602011610381576103738183611504565b5f610906565b6040513d84823e3d90fd5b60405162461bcd60e51b815260206004820152601860248201527f50534d3a20756e646572636f6c6c61746572616c697a656400000000000000006044820152606490fd5b505064e8d4a5100084610875565b60405162461bcd60e51b815260206004820152601560248201527450534d3a206578636565647320726573657276657360581b6044820152606490fd5b5034610ded576020366003190112610ded57600435610a2a60095415611446565b6001600955610a3e60ff600454161561147e565b8015610a4a81156114b8565b60035480610e05575b506040516323b872dd60e01b8152336004820152306024820152604481018390526020816064815f6001600160a01b037f0000000000000000000000000000000000000000000000000000000000000000165af18015610de257610abd915f916103595750611552565b610ac9826005546114f7565b60055564e8d4a5100082029082820464e8d4a51000141715610df157610aff612710610af7600254846113e6565b0480926113f9565b610b0a81151561159e565b7f00000000000000000000000000000000000000000000000000000000000000006001600160a01b0316803b15610ded576040516340c10f1960e01b8152336004820152602481018390525f8160448183865af18015610de257610dc9575b5090849291610b7a826007546114f7565b60075582610bc5575b506040805194855260208501919091528301525033907fc91682597e50d783bf81329b763263cef72b0cda71f5e617e0bd4b4150f8440390806060810161034f565b803b15610509576040516340c10f1960e01b815230600482015260248101849052848160448183865af1908115610388578591610db4575b505060405163095ea7b360e01b81526001600160a01b037f0000000000000000000000000000000000000000000000000000000000000000166004820181905260248201859052919060208160448189865af18015610da957610c6691879161051157506115e2565b303b156107ed5760405163e744630f60e01b815284600482015230602482015281604482015233606482015260a06084820152600c60a48201526b1554d110cb5d1bcb59d554d160a21b60c482015285808260e48183305af19182610d94575b5050610d6a57604051633e5a775160e11b8152600481018590523060248201526001600160a01b039190911660448201529360609185916064918391905af1928315610388577fc91682597e50d783bf81329b763263cef72b0cda71f5e617e0bd4b4150f8440393610d4b575b505b610d41826006546114f7565b6006558492610b83565b610d639060603d6060116104e5576104d68183611504565b5050610d33565b50507fc91682597e50d783bf81329b763263cef72b0cda71f5e617e0bd4b4150f844039250610d35565b81610d9e91611504565b6107e957855f610cc6565b6040513d88823e3d90fd5b81610dbe91611504565b61050957835f610bfd565b610dd891939295505f90611504565b5f9390915f610b69565b6040513d5f823e3d90fd5b5f80fd5b634e487b7160e01b5f52601160045260245ffd5b610e11836005546114f7565b11610e1c575f610a53565b60405162461bcd60e51b81526020600482015260156024820152741414d34e881cddd85c0818d85c081c995858da1959605a1b6044820152606490fd5b34610ded575f366003190112610ded57602060405160068152f35b34610ded575f366003190112610ded576020600554604051908152f35b34610ded575f366003190112610ded576040517f00000000000000000000000000000000000000000000000000000000000000006001600160a01b03168152602090f35b34610ded576020366003190112610ded57604060043564e8d4a51000610f0b612710610f03600254856113e6565b0480936113f9565b049082519182526020820152f35b34610ded576020366003190112610ded577f334538d502feb3f0c7fab3f05496f1f17cfd920a1f428b3ff468292cfb0a41046020600435610f6460018060a01b035f541633146113a9565b80600355604051908152a1005b34610ded576020366003190112610ded57610f8a611393565b5f546001600160a01b031690610fa13383146113a9565b6001600160a01b031690610fb6821515611406565b600180546001600160a01b031916831790557fc02afc35b5d9b88807390ad5b17e685602c17339aa880db1dfe4e15cb3e2e3a15f80a3005b34610ded575f366003190112610ded576020600754604051908152f35b34610ded575f366003190112610ded576020600654604051908152f35b34610ded575f366003190112610ded576040517f00000000000000000000000000000000000000000000000000000000000000006001600160a01b03168152602090f35b34610ded576020366003190112610ded5760043561109460018060a01b035f541633146113a9565b60c881116110d3577fb04438781e840362c78ce8cc4b97de7afc9aaccde53ad4c035c61d532474c66060406002548151908152836020820152a1600255005b60405162461bcd60e51b81526020600482015260116024820152700a0a69a7440cccaca40e8dede40d0d2ced607b1b6044820152606490fd5b34610ded575f366003190112610ded57602060ff600454166040519015158152f35b34610ded575f366003190112610ded576020600854604051908152f35b34610ded575f366003190112610ded576040517f00000000000000000000000000000000000000000000000000000000000000006001600160a01b03168152602090f35b34610ded575f366003190112610ded576001546040516001600160a01b039091168152602090f35b34610ded576020366003190112610ded5760043564e8d4a5100081029080820464e8d4a510001490151715610df1576040906111fb612710610af7600254846113e6565b9082519182526020820152f35b34610ded575f366003190112610ded5760206040516127108152f35b34610ded575f366003190112610ded57602060405160128152f35b34610ded575f366003190112610ded576020600254604051908152f35b34610ded576020366003190112610ded57600435801515809103610ded5760207f0e2fb031ee032dc02d8011dc50b816eb450cf856abd8261680dac74f72165bd2916112b260018060a01b035f541633146113a9565b60ff196004541660ff821617600455604051908152a1005b34610ded575f366003190112610ded576001546001600160a01b038116903382900361133b575f80546001600160a01b0319808216851783559092166001556001600160a01b03909116907ff8ccb027dfcd135e000e9d45e6cc2d662578a8825d4c45b5e32e0adf67e79ec69080a3005b60405162461bcd60e51b81526020600482015260166024820152752829a69d103737ba103832b73234b7339030b236b4b760511b6044820152606490fd5b34610ded575f366003190112610ded576020906003548152f35b600435906001600160a01b0382168203610ded57565b156113b057565b60405162461bcd60e51b815260206004820152600e60248201526d2829a69d103737ba1030b236b4b760911b6044820152606490fd5b81810292918115918404141715610df157565b91908203918211610df157565b1561140d57565b60405162461bcd60e51b815260206004820152601160248201527050534d3a207a65726f206164647265737360781b6044820152606490fd5b1561144d57565b60405162461bcd60e51b81526020600482015260096024820152681499595b9d1c985b9d60ba1b6044820152606490fd5b1561148557565b60405162461bcd60e51b815260206004820152600b60248201526a1414d34e881c185d5cd95960aa1b6044820152606490fd5b156114bf57565b60405162461bcd60e51b815260206004820152601060248201526f1414d34e881e995c9bc8185b5bdd5b9d60821b6044820152606490fd5b91908201809211610df157565b90601f8019910116810190811067ffffffffffffffff82111761152657604052565b634e487b7160e01b5f52604160045260245ffd5b90816020910312610ded57518015158103610ded5790565b1561155957565b60405162461bcd60e51b815260206004820152601960248201527f50534d3a2055534443207472616e73666572206661696c6564000000000000006044820152606490fd5b156115a557565b60405162461bcd60e51b81526020600482015260156024820152741414d34e881bdd5d1c1d5d081d1bdbc81cdb585b1b605a1b6044820152606490fd5b156115e957565b60405162461bcd60e51b81526020600482015260136024820152721414d34e88185c1c1c9bdd994819985a5b1959606a1b6044820152606490fd5b90816060910312610ded57805191604060208301519201519056fea26469706673582212204716249afd61c51048e93ecf126cd7ab8b1a09b2bae06318b64424d75a24ad4364736f6c63430008210033000000000000000000000000ed12be400a07910e4d4e743e4cee26ab1fc9a961000000000000000000000000969e3128db078b179e9f3b3679710d2443ccdb720000000000000000000000001b25157f05b25438441bf7cde38a95a55ccf8e50000000000000000000000000f39fd6e51aad88f6f4ce6ab8827279cfffb92266",
        "nonce": "0x22c",
        "chainId": "0xa455"
      },
      "additionalContracts": [],
      "isFixedGasLimit": false
    },
    {
      "hash": "0xadf526bbcc3f075a4cdea6080cde9656a2c781d15ceb8aa2e3efb493349f20df",
      "transactionType": "CALL",
      "contractName": "gUSD",
      "contractAddress": "0xed12be400a07910e4d4e743e4cee26ab1fc9a961",
      "function": "setMinter(address,bool)",
      "arguments": [
        "0x3489745eff9525CCC3d8c648102FE2cf3485e228",
        "true"
      ],
      "transaction": {
        "from": "0xf39fd6e51aad88f6f4ce6ab8827279cfffb92266",
        "to": "0xed12be400a07910e4d4e743e4cee26ab1fc9a961",
        "gas": "0x10306",
        "value": "0x0",
        "input": "0xcf456ae70000000000000000000000003489745eff9525ccc3d8c648102fe2cf3485e2280000000000000000000000000000000000000000000000000000000000000001",
        "nonce": "0x22d",
        "chainId": "0xa455"
      },
      "additionalContracts": [],
      "isFixedGasLimit": false
    },
    {
      "hash": "0xde05f27dec132f16f52219ffd8fbe1fcdb51812a70599ca109ceac9bfb54f570",
      "transactionType": "CALL",
      "contractName": "gUSD",
      "contractAddress": "0xed12be400a07910e4d4e743e4cee26ab1fc9a961",
      "function": "setMinter(address,bool)",
      "arguments": [
        "0x9eb52339B52e71B1EFD5537947e75D23b3a7719B",
        "true"
      ],
      "transaction": {
        "from": "0xf39fd6e51aad88f6f4ce6ab8827279cfffb92266",
        "to": "0xed12be400a07910e4d4e743e4cee26ab1fc9a961",
        "gas": "0x10306",
        "value": "0x0",
        "input": "0xcf456ae70000000000000000000000009eb52339b52e71b1efd5537947e75d23b3a7719b0000000000000000000000000000000000000000000000000000000000000001",
        "nonce": "0x22e",
        "chainId": "0xa455"
      },
      "additionalContracts": [],
      "isFixedGasLimit": false
    },
    {
      "hash": "0x07da756bba7344c4fe0245986732f8ed51f5c0d81b4b5a5fbc5ca84d428ae85b",
      "transactionType": "CALL",
      "contractName": "gUSD",
      "contractAddress": "0xed12be400a07910e4d4e743e4cee26ab1fc9a961",
      "function": "setBurner(address,bool)",
      "arguments": [
        "0x3489745eff9525CCC3d8c648102FE2cf3485e228",
        "true"
      ],
      "transaction": {
        "from": "0xf39fd6e51aad88f6f4ce6ab8827279cfffb92266",
        "to": "0xed12be400a07910e4d4e743e4cee26ab1fc9a961",
        "gas": "0x110a1",
        "value": "0x0",
        "input": "0x0d895ee10000000000000000000000003489745eff9525ccc3d8c648102fe2cf3485e2280000000000000000000000000000000000000000000000000000000000000001",
        "nonce": "0x22f",
        "chainId": "0xa455"
      },
      "additionalContracts": [],
      "isFixedGasLimit": false
    },
    {
      "hash": "0xfed028469b95273e55c994440da7e403c73a6ac6d0efd0f9ccdfc30496ff470f",
      "transactionType": "CALL",
      "contractName": "gUSD",
      "contractAddress": "0xed12be400a07910e4d4e743e4cee26ab1fc9a961",
      "function": "setBurner(address,bool)",
      "arguments": [
        "0x9eb52339B52e71B1EFD5537947e75D23b3a7719B",
        "true"
      ],
      "transaction": {
        "from": "0xf39fd6e51aad88f6f4ce6ab8827279cfffb92266",
        "to": "0xed12be400a07910e4d4e743e4cee26ab1fc9a961",
        "gas": "0x110a1",
        "value": "0x0",
        "input": "0x0d895ee10000000000000000000000009eb52339b52e71b1efd5537947e75d23b3a7719b0000000000000000000000000000000000000000000000000000000000000001",
        "nonce": "0x230",
        "chainId": "0xa455"
      },
      "additionalContracts": [],
      "isFixedGasLimit": false
    },
    {
      "hash": "0xa9e41d80b600f47c4c33e51ee2fd46a8e98f95ca571109e9b54cd960661159a3",
      "transactionType": "CALL",
      "contractName": "gUSD",
      "contractAddress": "0xed12be400a07910e4d4e743e4cee26ab1fc9a961",
      "function": "setBurner(address,bool)",
      "arguments": [
        "0x43b9Ef43D415e84aD9964567002d648b11747A8f",
        "true"
      ],
      "transaction": {
        "from": "0xf39fd6e51aad88f6f4ce6ab8827279cfffb92266",
        "to": "0xed12be400a07910e4d4e743e4cee26ab1fc9a961",
        "gas": "0x1016a",
        "value": "0x0",
        "input": "0x0d895ee100000000000000000000000043b9ef43d415e84ad9964567002d648b11747a8f0000000000000000000000000000000000000000000000000000000000000001",
        "nonce": "0x231",
        "chainId": "0xa455"
      },
      "additionalContracts": [],
      "isFixedGasLimit": false
    },
    {
      "hash": "0x948905be088c989366bf1845536e93b15e9f3bff83616a7f0ab0e94d6f0f8425",
      "transactionType": "CALL",
      "contractName": "VaultManager",
      "contractAddress": "0x3489745eff9525ccc3d8c648102fe2cf3485e228",
      "function": "setStabilityPool(address)",
      "arguments": [
        "0x43b9Ef43D415e84aD9964567002d648b11747A8f"
      ],
      "transaction": {
        "from": "0xf39fd6e51aad88f6f4ce6ab8827279cfffb92266",
        "to": "0x3489745eff9525ccc3d8c648102fe2cf3485e228",
        "gas": "0x1009b",
        "value": "0x0",
        "input": "0x98d721e000000000000000000000000043b9ef43d415e84ad9964567002d648b11747a8f",
        "nonce": "0x232",
        "chainId": "0xa455"
      },
      "additionalContracts": [],
      "isFixedGasLimit": false
    },
    {
      "hash": "0x5939b1de0bfd57f8d69b289caf37fb25db6183d95905232c4690c2caeea5ff3e",
      "transactionType": "CALL",
      "contractName": "MockWETH18",
      "contractAddress": "0x8731d45ff9684d380302573ccfafd994dfa7f7d3",
      "function": "mint(address,uint256)",
      "arguments": [
        "0xf39Fd6e51aad88F6F4ce6aB8827279cffFb92266",
        "100000000000000000000"
      ],
      "transaction": {
        "from": "0xf39fd6e51aad88f6f4ce6ab8827279cfffb92266",
        "to": "0x8731d45ff9684d380302573ccfafd994dfa7f7d3",
        "gas": "0x18594",
        "value": "0x0",
        "input": "0x40c10f19000000000000000000000000f39fd6e51aad88f6f4ce6ab8827279cfffb922660000000000000000000000000000000000000000000000056bc75e2d63100000",
        "nonce": "0x233",
        "chainId": "0xa455"
      },
      "additionalContracts": [],
      "isFixedGasLimit": false
    },
    {
      "hash": "0x66b6786d3d0806c082c6a7b6c458b429651c93c567008066696848417051d438",
      "transactionType": "CALL",
      "contractName": "MockUSDC6",
      "contractAddress": "0x969e3128db078b179e9f3b3679710d2443ccdb72",
      "function": "mint(address,uint256)",
      "arguments": [
        "0xf39Fd6e51aad88F6F4ce6aB8827279cffFb92266",
        "1000000000000"
      ],
      "transaction": {
        "from": "0xf39fd6e51aad88f6f4ce6ab8827279cfffb92266",
        "to": "0x969e3128db078b179e9f3b3679710d2443ccdb72",
        "gas": "0x16fbc",
        "value": "0x0",
        "input": "0x40c10f19000000000000000000000000f39fd6e51aad88f6f4ce6ab8827279cfffb92266000000000000000000000000000000000000000000000000000000e8d4a51000",
        "nonce": "0x234",
        "chainId": "0xa455"
      },
      "additionalContracts": [],
      "isFixedGasLimit": false
    },
    {
      "hash": "0xa70543c4e320ece6c38700b41797676061252b0efac3340fab69a857f2b72186",
      "transactionType": "CALL",
      "contractName": "MockGD18",
      "contractAddress": "0x20dc424c5fa468cbb1c702308f0cc9c14da2825c",
      "function": "mint(address,uint256)",
      "arguments": [
        "0xf39Fd6e51aad88F6F4ce6aB8827279cffFb92266",
        "100000000000000000000000000"
      ],
      "transaction": {
        "from": "0xf39fd6e51aad88f6f4ce6ab8827279cfffb92266",
        "to": "0x20dc424c5fa468cbb1c702308f0cc9c14da2825c",
        "gas": "0x16fff",
        "value": "0x0",
        "input": "0x40c10f19000000000000000000000000f39fd6e51aad88f6f4ce6ab8827279cfffb9226600000000000000000000000000000000000000000052b7d2dcc80cd2e4000000",
        "nonce": "0x235",
        "chainId": "0xa455"
      },
      "additionalContracts": [],
      "isFixedGasLimit": false
    },
    {
      "hash": "0xc110b041c15eba0b96b1b5999b27e3c0ce1f565f25a10eead861faebbc2922f1",
      "transactionType": "CALL",
      "contractName": "MockWETH18",
      "contractAddress": "0x8731d45ff9684d380302573ccfafd994dfa7f7d3",
      "function": "approve(address,uint256)",
      "arguments": [
        "0x3489745eff9525CCC3d8c648102FE2cf3485e228",
        "10000000000000000000"
      ],
      "transaction": {
        "from": "0xf39fd6e51aad88f6f4ce6ab8827279cfffb92266",
        "to": "0x8731d45ff9684d380302573ccfafd994dfa7f7d3",
        "gas": "0x1066e",
        "value": "0x0",
        "input": "0x095ea7b30000000000000000000000003489745eff9525ccc3d8c648102fe2cf3485e2280000000000000000000000000000000000000000000000008ac7230489e80000",
        "nonce": "0x236",
        "chainId": "0xa455"
      },
      "additionalContracts": [],
      "isFixedGasLimit": false
    },
    {
      "hash": "0xde6e579f3e40cb3994677143acdfde80dbd9d58ece223e7232108fb289d26456",
      "transactionType": "CALL",
      "contractName": "VaultManager",
      "contractAddress": "0x3489745eff9525ccc3d8c648102fe2cf3485e228",
      "function": "depositCollateral(bytes32,uint256)",
      "arguments": [
        "0x4554480000000000000000000000000000000000000000000000000000000000",
        "10000000000000000000"
      ],
      "transaction": {
        "from": "0xf39fd6e51aad88f6f4ce6ab8827279cfffb92266",
        "to": "0x3489745eff9525ccc3d8c648102fe2cf3485e228",
        "gas": "0x34b6a",
        "value": "0x0",
        "input": "0xdea9b46445544800000000000000000000000000000000000000000000000000000000000000000000000000000000000000000000000000000000008ac7230489e80000",
        "nonce": "0x237",
        "chainId": "0xa455"
      },
      "additionalContracts": [],
      "isFixedGasLimit": false
    },
    {
      "hash": "0x217da22eecaf85c00a01024bcb8395e464685f7676bdb25ebeaee20413b166e8",
      "transactionType": "CALL",
      "contractName": "VaultManager",
      "contractAddress": "0x3489745eff9525ccc3d8c648102fe2cf3485e228",
      "function": "mintGUSD(bytes32,uint256)",
      "arguments": [
        "0x4554480000000000000000000000000000000000000000000000000000000000",
        "5000000000000000000000"
      ],
      "transaction": {
        "from": "0xf39fd6e51aad88f6f4ce6ab8827279cfffb92266",
        "to": "0x3489745eff9525ccc3d8c648102fe2cf3485e228",
        "gas": "0x3efeb",
        "value": "0x0",
        "input": "0x468c9bd1455448000000000000000000000000000000000000000000000000000000000000000000000000000000000000000000000000000000010f0cf064dd59200000",
        "nonce": "0x238",
        "chainId": "0xa455"
      },
      "additionalContracts": [],
      "isFixedGasLimit": false
    },
    {
      "hash": "0xc9d5df055b3d756a06d5ca33d11621119c17c0e0202dd44433d0c978d06038ee",
      "transactionType": "CALL",
      "contractName": "MockUSDC6",
      "contractAddress": "0x969e3128db078b179e9f3b3679710d2443ccdb72",
      "function": "approve(address,uint256)",
      "arguments": [
        "0x9eb52339B52e71B1EFD5537947e75D23b3a7719B",
        "100000000000"
      ],
      "transaction": {
        "from": "0xf39fd6e51aad88f6f4ce6ab8827279cfffb92266",
        "to": "0x969e3128db078b179e9f3b3679710d2443ccdb72",
        "gas": "0x1064b",
        "value": "0x0",
        "input": "0x095ea7b30000000000000000000000009eb52339b52e71b1efd5537947e75d23b3a7719b000000000000000000000000000000000000000000000000000000174876e800",
        "nonce": "0x239",
        "chainId": "0xa455"
      },
      "additionalContracts": [],
      "isFixedGasLimit": false
    },
    {
      "hash": "0x3150ba83e395dcaf11a29b934e20027ad415d784e1b1d52b0c8feebdb3292a0f",
      "transactionType": "CALL",
      "contractName": "PegStabilityModule",
      "contractAddress": "0x9eb52339b52e71b1efd5537947e75d23b3a7719b",
      "function": "swapUSDCForGUSD(uint256)",
      "arguments": [
        "100000000000"
      ],
      "transaction": {
        "from": "0xf39fd6e51aad88f6f4ce6ab8827279cfffb92266",
        "to": "0x9eb52339b52e71b1efd5537947e75d23b3a7719b",
        "gas": "0x552c0",
        "value": "0x0",
        "input": "0xcc999017000000000000000000000000000000000000000000000000000000174876e800",
        "nonce": "0x23a",
        "chainId": "0xa455"
      },
      "additionalContracts": [],
      "isFixedGasLimit": false
    },
    {
      "hash": "0xbe686716a2fe41d563c7b1896213726440c4a26c0151944cb8a6bf43252751f2",
      "transactionType": "CALL",
      "contractName": "gUSD",
      "contractAddress": "0xed12be400a07910e4d4e743e4cee26ab1fc9a961",
      "function": "approve(address,uint256)",
      "arguments": [
        "0x43b9Ef43D415e84aD9964567002d648b11747A8f",
        "2000000000000000000000"
      ],
      "transaction": {
        "from": "0xf39fd6e51aad88f6f4ce6ab8827279cfffb92266",
        "to": "0xed12be400a07910e4d4e743e4cee26ab1fc9a961",
        "gas": "0xf7c9",
        "value": "0x0",
        "input": "0x095ea7b300000000000000000000000043b9ef43d415e84ad9964567002d648b11747a8f00000000000000000000000000000000000000000000006c6b935b8bbd400000",
        "nonce": "0x23b",
        "chainId": "0xa455"
      },
      "additionalContracts": [],
      "isFixedGasLimit": false
    },
    {
      "hash": "0xda1275e30c4149692f37baa8436ce63d314d4009ec1750e9008fa886c31537ff",
      "transactionType": "CALL",
      "contractName": "StabilityPool",
      "contractAddress": "0x43b9ef43d415e84ad9964567002d648b11747a8f",
      "function": "deposit(uint256)",
      "arguments": [
        "2000000000000000000000"
      ],
      "transaction": {
        "from": "0xf39fd6e51aad88f6f4ce6ab8827279cfffb92266",
        "to": "0x43b9ef43d415e84ad9964567002d648b11747a8f",
        "gas": "0x359d5",
        "value": "0x0",
        "input": "0xb6b55f2500000000000000000000000000000000000000000000006c6b935b8bbd400000",
        "nonce": "0x23c",
        "chainId": "0xa455"
      },
      "additionalContracts": [],
      "isFixedGasLimit": false
    }
  ],
  "receipts": [
    {
      "status": "0x1",
      "cumulativeGasUsed": "0x5ac8e",
      "logs": [],
      "logsBloom": "0x00000000000000000000000000000000000000000000000000000000000000000000000000000000000000000000000000000000000000000000000000000000000000000000000000000000000000000000000000000000000000000000000000000000000000000000000000000000000000000000000000000000000000000000000000000000000000000000000000000000000000000000000000000000000000000000000000000000000000000000000000000000000000000000000000000000000000000000000000000000000000000000000000000000000000000000000000000000000000000000000000000000000000000000000000000000",
      "type": "0x0",
      "transactionHash": "0xa5ad018787ab2263193966c8e633cd6e847e05cad8164fa46db071dccfd3fbfb",
      "transactionIndex": "0x0",
      "blockHash": "0x320e3f95e63dd16c46ca928d7eb9e16ef796db591515cc90081db0be68777217",
      "blockNumber": "0x1387d",
      "gasUsed": "0x5ac8e",
      "effectiveGasPrice": "0x3b9aca07",
      "blobGasPrice": "0x1",
      "from": "0xf39fd6e51aad88f6f4ce6ab8827279cfffb92266",
      "to": null,
      "contractAddress": "0x8731d45ff9684d380302573ccfafd994dfa7f7d3",
      "blockTimestamp": 1778861766
    },
    {
      "status": "0x1",
      "cumulativeGasUsed": "0xb54dd",
      "logs": [],
      "logsBloom": "0x00000000000000000000000000000000000000000000000000000000000000000000000000000000000000000000000000000000000000000000000000000000000000000000000000000000000000000000000000000000000000000000000000000000000000000000000000000000000000000000000000000000000000000000000000000000000000000000000000000000000000000000000000000000000000000000000000000000000000000000000000000000000000000000000000000000000000000000000000000000000000000000000000000000000000000000000000000000000000000000000000000000000000000000000000000000",
      "type": "0x0",
      "transactionHash": "0x6c71dbf1631ec9796ec3aabf66a1db0337d575df8400bea337ce5ed046432950",
      "transactionIndex": "0x1",
      "blockHash": "0x320e3f95e63dd16c46ca928d7eb9e16ef796db591515cc90081db0be68777217",
      "blockNumber": "0x1387d",
      "gasUsed": "0x5a84f",
      "effectiveGasPrice": "0x3b9aca07",
      "blobGasPrice": "0x1",
      "from": "0xf39fd6e51aad88f6f4ce6ab8827279cfffb92266",
      "to": null,
      "contractAddress": "0x969e3128db078b179e9f3b3679710d2443ccdb72",
      "blockTimestamp": 1778861766
    },
    {
      "status": "0x1",
      "cumulativeGasUsed": "0x10fd2c",
      "logs": [],
      "logsBloom": "0x00000000000000000000000000000000000000000000000000000000000000000000000000000000000000000000000000000000000000000000000000000000000000000000000000000000000000000000000000000000000000000000000000000000000000000000000000000000000000000000000000000000000000000000000000000000000000000000000000000000000000000000000000000000000000000000000000000000000000000000000000000000000000000000000000000000000000000000000000000000000000000000000000000000000000000000000000000000000000000000000000000000000000000000000000000000",
      "type": "0x0",
      "transactionHash": "0x09524be3c24bbdcebd887ba6fbbd574b356085a442e4255e17b775f1d2dc1a8c",
      "transactionIndex": "0x2",
      "blockHash": "0x320e3f95e63dd16c46ca928d7eb9e16ef796db591515cc90081db0be68777217",
      "blockNumber": "0x1387d",
      "gasUsed": "0x5a84f",
      "effectiveGasPrice": "0x3b9aca07",
      "blobGasPrice": "0x1",
      "from": "0xf39fd6e51aad88f6f4ce6ab8827279cfffb92266",
      "to": null,
      "contractAddress": "0x20dc424c5fa468cbb1c702308f0cc9c14da2825c",
      "blockTimestamp": 1778861766
    },
    {
      "status": "0x1",
      "cumulativeGasUsed": "0x126bcf",
      "logs": [],
      "logsBloom": "0x00000000000000000000000000000000000000000000000000000000000000000000000000000000000000000000000000000000000000000000000000000000000000000000000000000000000000000000000000000000000000000000000000000000000000000000000000000000000000000000000000000000000000000000000000000000000000000000000000000000000000000000000000000000000000000000000000000000000000000000000000000000000000000000000000000000000000000000000000000000000000000000000000000000000000000000000000000000000000000000000000000000000000000000000000000000",
      "type": "0x0",
      "transactionHash": "0x060fef68e6b415937cc2a65c686e5cb127c7332273cf9d75c6bb9c18657e84e0",
      "transactionIndex": "0x3",
      "blockHash": "0x320e3f95e63dd16c46ca928d7eb9e16ef796db591515cc90081db0be68777217",
      "blockNumber": "0x1387d",
      "gasUsed": "0x16ea3",
      "effectiveGasPrice": "0x3b9aca07",
      "blobGasPrice": "0x1",
      "from": "0xf39fd6e51aad88f6f4ce6ab8827279cfffb92266",
      "to": null,
      "contractAddress": "0x4653251486a57f90ee89f9f34e098b9218659b83",
      "blockTimestamp": 1778861766
    },
    {
      "status": "0x1",
      "cumulativeGasUsed": "0x1316aa",
      "logs": [],
      "logsBloom": "0x00000000000000000000000000000000000000000000000000000000000000000000000000000000000000000000000000000000000000000000000000000000000000000000000000000000000000000000000000000000000000000000000000000000000000000000000000000000000000000000000000000000000000000000000000000000000000000000000000000000000000000000000000000000000000000000000000000000000000000000000000000000000000000000000000000000000000000000000000000000000000000000000000000000000000000000000000000000000000000000000000000000000000000000000000000000",
      "type": "0x0",
      "transactionHash": "0x2ade6f8df9cc055dcd718fcb46adeffa917a59153f5ed44df888c5ec177caa58",
      "transactionIndex": "0x4",
      "blockHash": "0x320e3f95e63dd16c46ca928d7eb9e16ef796db591515cc90081db0be68777217",
      "blockNumber": "0x1387d",
      "gasUsed": "0xaadb",
      "effectiveGasPrice": "0x3b9aca07",
      "blobGasPrice": "0x1",
      "from": "0xf39fd6e51aad88f6f4ce6ab8827279cfffb92266",
      "to": "0x4653251486a57f90ee89f9f34e098b9218659b83",
      "contractAddress": null,
      "blockTimestamp": 1778861766
    },
    {
      "status": "0x1",
      "cumulativeGasUsed": "0x13c16d",
      "logs": [],
      "logsBloom": "0x00000000000000000000000000000000000000000000000000000000000000000000000000000000000000000000000000000000000000000000000000000000000000000000000000000000000000000000000000000000000000000000000000000000000000000000000000000000000000000000000000000000000000000000000000000000000000000000000000000000000000000000000000000000000000000000000000000000000000000000000000000000000000000000000000000000000000000000000000000000000000000000000000000000000000000000000000000000000000000000000000000000000000000000000000000000",
      "type": "0x0",
      "transactionHash": "0x2c0bb51c40e3fd493cf4361c9473e0ac2500fcb479b591f6fa98ef0907b7b444",
      "transactionIndex": "0x5",
      "blockHash": "0x320e3f95e63dd16c46ca928d7eb9e16ef796db591515cc90081db0be68777217",
      "blockNumber": "0x1387d",
      "gasUsed": "0xaac3",
      "effectiveGasPrice": "0x3b9aca07",
      "blobGasPrice": "0x1",
      "from": "0xf39fd6e51aad88f6f4ce6ab8827279cfffb92266",
      "to": "0x4653251486a57f90ee89f9f34e098b9218659b83",
      "contractAddress": null,
      "blockTimestamp": 1778861766
    },
    {
      "status": "0x1",
      "cumulativeGasUsed": "0x146c48",
      "logs": [],
      "logsBloom": "0x00000000000000000000000000000000000000000000000000000000000000000000000000000000000000000000000000000000000000000000000000000000000000000000000000000000000000000000000000000000000000000000000000000000000000000000000000000000000000000000000000000000000000000000000000000000000000000000000000000000000000000000000000000000000000000000000000000000000000000000000000000000000000000000000000000000000000000000000000000000000000000000000000000000000000000000000000000000000000000000000000000000000000000000000000000000",
      "type": "0x0",
      "transactionHash": "0x9705005a020e5061ff36e7d37ea071db06927310e069bc70626d0ba0b738d72b",
      "transactionIndex": "0x6",
      "blockHash": "0x320e3f95e63dd16c46ca928d7eb9e16ef796db591515cc90081db0be68777217",
      "blockNumber": "0x1387d",
      "gasUsed": "0xaadb",
      "effectiveGasPrice": "0x3b9aca07",
      "blobGasPrice": "0x1",
      "from": "0xf39fd6e51aad88f6f4ce6ab8827279cfffb92266",
      "to": "0x4653251486a57f90ee89f9f34e098b9218659b83",
      "contractAddress": null,
      "blockTimestamp": 1778861766
    },
    {
      "status": "0x1",
      "cumulativeGasUsed": "0x20bf16",
      "logs": [],
      "logsBloom": "0x00000000000000000000000000000000000000000000000000000000000000000000000000000000000000000000000000000000000000000000000000000000000000000000000000000000000000000000000000000000000000000000000000000000000000000000000000000000000000000000000000000000000000000000000000000000000000000000000000000000000000000000000000000000000000000000000000000000000000000000000000000000000000000000000000000000000000000000000000000000000000000000000000000000000000000000000000000000000000000000000000000000000000000000000000000000",
      "type": "0x0",
      "transactionHash": "0x14af39f180b8990bcc2816de06b86b9d7669073bd8d234cf9188033a43609078",
      "transactionIndex": "0x7",
      "blockHash": "0x320e3f95e63dd16c46ca928d7eb9e16ef796db591515cc90081db0be68777217",
      "blockNumber": "0x1387d",
      "gasUsed": "0xc52ce",
      "effectiveGasPrice": "0x3b9aca07",
      "blobGasPrice": "0x1",
      "from": "0xf39fd6e51aad88f6f4ce6ab8827279cfffb92266",
      "to": null,
      "contractAddress": "0xed12be400a07910e4d4e743e4cee26ab1fc9a961",
      "blockTimestamp": 1778861766
    },
    {
      "status": "0x1",
      "cumulativeGasUsed": "0x2499f1",
      "logs": [],
      "logsBloom": "0x00000000000000000000000000000000000000000000000000000000000000000000000000000000000000000000000000000000000000000000000000000000000000000000000000000000000000000000000000000000000000000000000000000000000000000000000000000000000000000000000000000000000000000000000000000000000000000000000000000000000000000000000000000000000000000000000000000000000000000000000000000000000000000000000000000000000000000000000000000000000000000000000000000000000000000000000000000000000000000000000000000000000000000000000000000000",
      "type": "0x0",
      "transactionHash": "0x4ef8c605f501c2b23a2635508ecb2448122c832fc518e4652126b91d003a5c68",
      "transactionIndex": "0x8",
      "blockHash": "0x320e3f95e63dd16c46ca928d7eb9e16ef796db591515cc90081db0be68777217",
      "blockNumber": "0x1387d",
      "gasUsed": "0x3dadb",
      "effectiveGasPrice": "0x3b9aca07",
      "blobGasPrice": "0x1",
      "from": "0xf39fd6e51aad88f6f4ce6ab8827279cfffb92266",
      "to": null,
      "contractAddress": "0x1b25157f05b25438441bf7cde38a95a55ccf8e50",
      "blockTimestamp": 1778861766
    },
    {
      "status": "0x1",
      "cumulativeGasUsed": "0x35b2d3",
      "logs": [
        {
          "address": "0xc775bf567d67018dffac4e89a7cf10f0edd0be93",
          "topics": [
            "0xab8ac0e1bd8ac03ac9df93028bd29e1972d82acd99a159a07ac48bcd2b022cbe",
            "0x4554480000000000000000000000000000000000000000000000000000000000"
          ],
          "data": "0x0000000000000000000000008731d45ff9684d380302573ccfafd994dfa7f7d300000000000000000000000000000000000000000000000014d1120d7b160000",
          "blockHash": "0x320e3f95e63dd16c46ca928d7eb9e16ef796db591515cc90081db0be68777217",
          "blockNumber": "0x1387d",
          "blockTimestamp": "0x6a0746c6",
          "transactionHash": "0xf20a43a66fd17edf786bf9148731296bd494b3682bffead61daaa2cca03a92f0",
          "transactionIndex": "0x9",
          "logIndex": "0x0",
          "removed": false
        },
        {
          "address": "0xc775bf567d67018dffac4e89a7cf10f0edd0be93",
          "topics": [
            "0xab8ac0e1bd8ac03ac9df93028bd29e1972d82acd99a159a07ac48bcd2b022cbe",
            "0x4744000000000000000000000000000000000000000000000000000000000000"
          ],
          "data": "0x00000000000000000000000020dc424c5fa468cbb1c702308f0cc9c14da2825c0000000000000000000000000000000000000000000000001bc16d674ec80000",
          "blockHash": "0x320e3f95e63dd16c46ca928d7eb9e16ef796db591515cc90081db0be68777217",
          "blockNumber": "0x1387d",
          "blockTimestamp": "0x6a0746c6",
          "transactionHash": "0xf20a43a66fd17edf786bf9148731296bd494b3682bffead61daaa2cca03a92f0",
          "transactionIndex": "0x9",
          "logIndex": "0x1",
          "removed": false
        },
        {
          "address": "0xc775bf567d67018dffac4e89a7cf10f0edd0be93",
          "topics": [
            "0xab8ac0e1bd8ac03ac9df93028bd29e1972d82acd99a159a07ac48bcd2b022cbe",
            "0x5553444300000000000000000000000000000000000000000000000000000000"
          ],
          "data": "0x000000000000000000000000969e3128db078b179e9f3b3679710d2443ccdb720000000000000000000000000000000000000000000000000e043da617250000",
          "blockHash": "0x320e3f95e63dd16c46ca928d7eb9e16ef796db591515cc90081db0be68777217",
          "blockNumber": "0x1387d",
          "blockTimestamp": "0x6a0746c6",
          "transactionHash": "0xf20a43a66fd17edf786bf9148731296bd494b3682bffead61daaa2cca03a92f0",
          "transactionIndex": "0x9",
          "logIndex": "0x2",
          "removed": false
        }
      ],
      "logsBloom": "0x00000000000000000000000200000000000000000000000000000000000000000000000000000000001000000000000000000000000000000000000000000000000800000000000000000000200000000000020000000000000000000000000000000000000000000000000000000000000000000000000000000000000000000000000000000000000000000000800000000000000000000001000000000000000000001000000000000000000000000000000000000000000000000000000010000200000000000000000000000000000000020000000000000000000000000000000000000000000000001000000000000000000000110000000040000000",
      "type": "0x0",
      "transactionHash": "0xf20a43a66fd17edf786bf9148731296bd494b3682bffead61daaa2cca03a92f0",
      "transactionIndex": "0x9",
      "blockHash": "0x320e3f95e63dd16c46ca928d7eb9e16ef796db591515cc90081db0be68777217",
      "blockNumber": "0x1387d",
      "gasUsed": "0x1118e2",
      "effectiveGasPrice": "0x3b9aca07",
      "blobGasPrice": "0x1",
      "from": "0xf39fd6e51aad88f6f4ce6ab8827279cfffb92266",
      "to": null,
      "contractAddress": "0xc775bf567d67018dffac4e89a7cf10f0edd0be93",
      "blockTimestamp": 1778861766
    },
    {
      "status": "0x1",
      "cumulativeGasUsed": "0x5c33c0",
      "logs": [],
      "logsBloom": "0x00000000000000000000000000000000000000000000000000000000000000000000000000000000000000000000000000000000000000000000000000000000000000000000000000000000000000000000000000000000000000000000000000000000000000000000000000000000000000000000000000000000000000000000000000000000000000000000000000000000000000000000000000000000000000000000000000000000000000000000000000000000000000000000000000000000000000000000000000000000000000000000000000000000000000000000000000000000000000000000000000000000000000000000000000000000",
      "type": "0x0",
      "transactionHash": "0x3150ba83e395dcaf11a29b934e20027ad415d784e1b1d52b0c8feebdb3292a0f",
      "transactionIndex": "0xa",
      "blockHash": "0x320e3f95e63dd16c46ca928d7eb9e16ef796db591515cc90081db0be68777217",
      "blockNumber": "0x1387d",
      "gasUsed": "0x2680ed",
      "effectiveGasPrice": "0x3b9aca07",
      "blobGasPrice": "0x1",
      "from": "0xf39fd6e51aad88f6f4ce6ab8827279cfffb92266",
      "to": null,
      "contractAddress": "0x3489745eff9525ccc3d8c648102fe2cf3485e228",
      "blockTimestamp": 1778861766
    },
    {
      "status": "0x1",
      "cumulativeGasUsed": "0x738f10",
      "logs": [],
      "logsBloom": "0x00000000000000000000000000000000000000000000000000000000000000000000000000000000000000000000000000000000000000000000000000000000000000000000000000000000000000000000000000000000000000000000000000000000000000000000000000000000000000000000000000000000000000000000000000000000000000000000000000000000000000000000000000000000000000000000000000000000000000000000000000000000000000000000000000000000000000000000000000000000000000000000000000000000000000000000000000000000000000000000000000000000000000000000000000000000",
      "type": "0x0",
      "transactionHash": "0x217da22eecaf85c00a01024bcb8395e464685f7676bdb25ebeaee20413b166e8",
      "transactionIndex": "0xb",
      "blockHash": "0x320e3f95e63dd16c46ca928d7eb9e16ef796db591515cc90081db0be68777217",
      "blockNumber": "0x1387d",
      "gasUsed": "0x175b50",
      "effectiveGasPrice": "0x3b9aca07",
      "blobGasPrice": "0x1",
      "from": "0xf39fd6e51aad88f6f4ce6ab8827279cfffb92266",
      "to": null,
      "contractAddress": "0x43b9ef43d415e84ad9964567002d648b11747a8f",
      "blockTimestamp": 1778861766
    },
    {
      "status": "0x1",
      "cumulativeGasUsed": "0x74491d",
      "logs": [
        {
          "address": "0x43b9ef43d415e84ad9964567002d648b11747a8f",
          "topics": [
            "0x8e902340d35762a5a36507c20fe38e5d549a721d9f846d6de7f397b5c26ab853",
            "0x0000000000000000000000003489745eff9525ccc3d8c648102fe2cf3485e228"
          ],
          "data": "0x",
          "blockHash": "0x320e3f95e63dd16c46ca928d7eb9e16ef796db591515cc90081db0be68777217",
          "blockNumber": "0x1387d",
          "blockTimestamp": "0x6a0746c6",
          "transactionHash": "0x6b23b99d9d2fc347ad59c8f7e4b9a1b22b427395a25ed811277fe23d24c3c6a1",
          "transactionIndex": "0xc",
          "logIndex": "0x3",
          "removed": false
        }
      ],
      "logsBloom": "0x00000000000000000000000000000000000000000000000000000000000000000000000000001000000000000000000000000000010000000000000000000000000000000000000000000000000000000000000000000000000000020000000000000000000400000000000000000000000000000000000000000000000000000000000000080000000000000000000000002000000000000000000000000000000000000000000000000000000000000000000000000000000000000200000000000020000000000000000000000000000000000000000000000000000020000000000000000000000000000000000000000000000000000000000000000000",
      "type": "0x0",
      "transactionHash": "0x6b23b99d9d2fc347ad59c8f7e4b9a1b22b427395a25ed811277fe23d24c3c6a1",
      "transactionIndex": "0xc",
      "blockHash": "0x320e3f95e63dd16c46ca928d7eb9e16ef796db591515cc90081db0be68777217",
      "blockNumber": "0x1387d",
      "gasUsed": "0xba0d",
      "effectiveGasPrice": "0x3b9aca07",
      "blobGasPrice": "0x1",
      "from": "0xf39fd6e51aad88f6f4ce6ab8827279cfffb92266",
      "to": "0x43b9ef43d415e84ad9964567002d648b11747a8f",
      "contractAddress": null,
      "blockTimestamp": 1778861766
    },
    {
      "status": "0x1",
      "cumulativeGasUsed": "0x75b373",
      "logs": [
        {
          "address": "0x43b9ef43d415e84ad9964567002d648b11747a8f",
          "topics": [
            "0x7b02323155ee1835f3ad82fb0682024a2f6ea1380e110430fc6eb75fbffc8665",
            "0x4554480000000000000000000000000000000000000000000000000000000000"
          ],
          "data": "0x0000000000000000000000008731d45ff9684d380302573ccfafd994dfa7f7d3",
          "blockHash": "0x320e3f95e63dd16c46ca928d7eb9e16ef796db591515cc90081db0be68777217",
          "blockNumber": "0x1387d",
          "blockTimestamp": "0x6a0746c6",
          "transactionHash": "0xc110b041c15eba0b96b1b5999b27e3c0ce1f565f25a10eead861faebbc2922f1",
          "transactionIndex": "0xd",
          "logIndex": "0x4",
          "removed": false
        }
      ],
      "logsBloom": "0x00000000000000000000000000000008000000000000000000000000000000000000000000000000000000000000000000000000010004000000000000000000000800000000000000000000200000000000000000000000000000000000000000000000000000000000000000000000000000000000000000000040000000000000000000080000000000000000000000002000000000000000000000000000000000000000000000000000000000000000000000000000000000000000000000000000000000000000000000000000000000000000000000000000000000000000000000000000000000000000000000000000000000100000000000000000",
      "type": "0x0",
      "transactionHash": "0xc110b041c15eba0b96b1b5999b27e3c0ce1f565f25a10eead861faebbc2922f1",
      "transactionIndex": "0xd",
      "blockHash": "0x320e3f95e63dd16c46ca928d7eb9e16ef796db591515cc90081db0be68777217",
      "blockNumber": "0x1387d",
      "gasUsed": "0x16a56",
      "effectiveGasPrice": "0x3b9aca07",
      "blobGasPrice": "0x1",
      "from": "0xf39fd6e51aad88f6f4ce6ab8827279cfffb92266",
      "to": "0x43b9ef43d415e84ad9964567002d648b11747a8f",
      "contractAddress": null,
      "blockTimestamp": 1778861766
    },
    {
      "status": "0x1",
      "cumulativeGasUsed": "0x76daf1",
      "logs": [
        {
          "address": "0x43b9ef43d415e84ad9964567002d648b11747a8f",
          "topics": [
            "0x7b02323155ee1835f3ad82fb0682024a2f6ea1380e110430fc6eb75fbffc8665",
            "0x4744000000000000000000000000000000000000000000000000000000000000"
          ],
          "data": "0x00000000000000000000000020dc424c5fa468cbb1c702308f0cc9c14da2825c",
          "blockHash": "0x320e3f95e63dd16c46ca928d7eb9e16ef796db591515cc90081db0be68777217",
          "blockNumber": "0x1387d",
          "blockTimestamp": "0x6a0746c6",
          "transactionHash": "0xa9e41d80b600f47c4c33e51ee2fd46a8e98f95ca571109e9b54cd960661159a3",
          "transactionIndex": "0xe",
          "logIndex": "0x5",
          "removed": false
        }
      ],
      "logsBloom": "0x00000000000000000000000000000008000000000000000000000000000000000000000000000000000000000000000000000000010004000000000000000000000000000000000000000000000000000000020000000000000000000000000000000000000000000000000000000000000000000000000000000040000000000000000000080000000000000000800000002000000000000000000000000000000000000000000000000000000000000000000000000000000000000000000000000000000000000000000000000000000000000000000000000000000000000000000000000000000000001000000000000000000000000000000000000000",
      "type": "0x0",
      "transactionHash": "0xa9e41d80b600f47c4c33e51ee2fd46a8e98f95ca571109e9b54cd960661159a3",
      "transactionIndex": "0xe",
      "blockHash": "0x320e3f95e63dd16c46ca928d7eb9e16ef796db591515cc90081db0be68777217",
      "blockNumber": "0x1387d",
      "gasUsed": "0x1277e",
      "effectiveGasPrice": "0x3b9aca07",
      "blobGasPrice": "0x1",
      "from": "0xf39fd6e51aad88f6f4ce6ab8827279cfffb92266",
      "to": "0x43b9ef43d415e84ad9964567002d648b11747a8f",
      "contractAddress": null,
      "blockTimestamp": 1778861766
    },
    {
      "status": "0x1",
      "cumulativeGasUsed": "0x780287",
      "logs": [
        {
          "address": "0x43b9ef43d415e84ad9964567002d648b11747a8f",
          "topics": [
            "0x7b02323155ee1835f3ad82fb0682024a2f6ea1380e110430fc6eb75fbffc8665",
            "0x5553444300000000000000000000000000000000000000000000000000000000"
          ],
          "data": "0x000000000000000000000000969e3128db078b179e9f3b3679710d2443ccdb72",
          "blockHash": "0x320e3f95e63dd16c46ca928d7eb9e16ef796db591515cc90081db0be68777217",
          "blockNumber": "0x1387d",
          "blockTimestamp": "0x6a0746c6",
          "transactionHash": "0xde05f27dec132f16f52219ffd8fbe1fcdb51812a70599ca109ceac9bfb54f570",
          "transactionIndex": "0xf",
          "logIndex": "0x6",
          "removed": false
        }
      ],
      "logsBloom": "0x00000000000000000000000000000008000000000000000000000000000000000000000000000000001000000000000000000000010004000000000000000000000000000000000000000000000000000000000000000000000000000000000000000000000000000000000000000000000000000000000000000040000000000000000000080000000000000000000000002000000000000000000000000000000000000000000000000000000000000000000000000000000000000000000010000200000000000000000000000000000000000000000000000000000000000000000000000000000000000000000000000000000000000000000000000000",
      "type": "0x0",
      "transactionHash": "0xde05f27dec132f16f52219ffd8fbe1fcdb51812a70599ca109ceac9bfb54f570",
      "transactionIndex": "0xf",
      "blockHash": "0x320e3f95e63dd16c46ca928d7eb9e16ef796db591515cc90081db0be68777217",
      "blockNumber": "0x1387d",
      "gasUsed": "0x12796",
      "effectiveGasPrice": "0x3b9aca07",
      "blobGasPrice": "0x1",
      "from": "0xf39fd6e51aad88f6f4ce6ab8827279cfffb92266",
      "to": "0x43b9ef43d415e84ad9964567002d648b11747a8f",
      "contractAddress": null,
      "blockTimestamp": 1778861766
    },
    {
      "status": "0x1",
      "cumulativeGasUsed": "0x8c9135",
      "logs": [],
      "logsBloom": "0x00000000000000000000000000000000000000000000000000000000000000000000000000000000000000000000000000000000000000000000000000000000000000000000000000000000000000000000000000000000000000000000000000000000000000000000000000000000000000000000000000000000000000000000000000000000000000000000000000000000000000000000000000000000000000000000000000000000000000000000000000000000000000000000000000000000000000000000000000000000000000000000000000000000000000000000000000000000000000000000000000000000000000000000000000000000",
      "type": "0x0",
      "transactionHash": "0xb3efb1ceda7a8ba4b677283755bc5e4daa9e38951dd552d7877a0fee9ec6a18c",
      "transactionIndex": "0x10",
      "blockHash": "0x320e3f95e63dd16c46ca928d7eb9e16ef796db591515cc90081db0be68777217",
      "blockNumber": "0x1387d",
      "gasUsed": "0x148eae",
      "effectiveGasPrice": "0x3b9aca07",
      "blobGasPrice": "0x1",
      "from": "0xf39fd6e51aad88f6f4ce6ab8827279cfffb92266",
      "to": null,
      "contractAddress": "0x9eb52339b52e71b1efd5537947e75d23b3a7719b",
      "blockTimestamp": 1778861766
    },
    {
      "status": "0x1",
      "cumulativeGasUsed": "0x8d4cbd",
      "logs": [
        {
          "address": "0xed12be400a07910e4d4e743e4cee26ab1fc9a961",
          "topics": [
            "0x583b0aa0e528532caf4b907c11d7a8158a122fe2a6fb80cd9b09776ebea8d92d",
            "0x0000000000000000000000003489745eff9525ccc3d8c648102fe2cf3485e228"
          ],
          "data": "0x0000000000000000000000000000000000000000000000000000000000000001",
          "blockHash": "0x320e3f95e63dd16c46ca928d7eb9e16ef796db591515cc90081db0be68777217",
          "blockNumber": "0x1387d",
          "blockTimestamp": "0x6a0746c6",
          "transactionHash": "0x07da756bba7344c4fe0245986732f8ed51f5c0d81b4b5a5fbc5ca84d428ae85b",
          "transactionIndex": "0x11",
          "logIndex": "0x7",
          "removed": false
        }
      ],
      "logsBloom": "0x00000000000000000000000000000000000000000000000000000000000000000002000000001000000000000000000000000000000000000000000000000000000001000000000000000800000000000000000000000000000100020000000000000000000000000000000000000000000000000000000000000000000000000000000000000000000000000000000000000000000000000000000000000000000000000000000000000000000000000000000000000000000000000200000000000000000000000000000000000000000000000000000000000000000000000000000000000000000000000040000000000000000000000000000000000008",
      "type": "0x0",
      "transactionHash": "0x07da756bba7344c4fe0245986732f8ed51f5c0d81b4b5a5fbc5ca84d428ae85b",
      "transactionIndex": "0x11",
      "blockHash": "0x320e3f95e63dd16c46ca928d7eb9e16ef796db591515cc90081db0be68777217",
      "blockNumber": "0x1387d",
      "gasUsed": "0xbb88",
      "effectiveGasPrice": "0x3b9aca07",
      "blobGasPrice": "0x1",
      "from": "0xf39fd6e51aad88f6f4ce6ab8827279cfffb92266",
      "to": "0xed12be400a07910e4d4e743e4cee26ab1fc9a961",
      "contractAddress": null,
      "blockTimestamp": 1778861766
    },
    {
      "status": "0x1",
      "cumulativeGasUsed": "0x8e0845",
      "logs": [
        {
          "address": "0xed12be400a07910e4d4e743e4cee26ab1fc9a961",
          "topics": [
            "0x583b0aa0e528532caf4b907c11d7a8158a122fe2a6fb80cd9b09776ebea8d92d",
            "0x0000000000000000000000009eb52339b52e71b1efd5537947e75d23b3a7719b"
          ],
          "data": "0x0000000000000000000000000000000000000000000000000000000000000001",
          "blockHash": "0x320e3f95e63dd16c46ca928d7eb9e16ef796db591515cc90081db0be68777217",
          "blockNumber": "0x1387d",
          "blockTimestamp": "0x6a0746c6",
          "transactionHash": "0xe5f4dceab09880f5bd203451d3b5e6b792ad7a651dc6c532598f4e1213182953",
          "transactionIndex": "0x12",
          "logIndex": "0x8",
          "removed": false
        }
      ],
      "logsBloom": "0x00000000000000000000000000000000000000000000000000000000000000000002000000000000000040000000000000000000000000000000000000000000000001000000000000000800000000000000000000000000000100000000000000000000000000000000000000000000000000000000000000000000000000000000000000000000000000000000000000000000000000000000000000000000000000000000000000000000000000000000000000000000002000000000000000000000000000000000400000000000000000000000000000000000000000000000000000000000000000000040000000000000000000000000000000000008",
      "type": "0x0",
      "transactionHash": "0xe5f4dceab09880f5bd203451d3b5e6b792ad7a651dc6c532598f4e1213182953",
      "transactionIndex": "0x12",
      "blockHash": "0x320e3f95e63dd16c46ca928d7eb9e16ef796db591515cc90081db0be68777217",
      "blockNumber": "0x1387d",
      "gasUsed": "0xbb88",
      "effectiveGasPrice": "0x3b9aca07",
      "blobGasPrice": "0x1",
      "from": "0xf39fd6e51aad88f6f4ce6ab8827279cfffb92266",
      "to": "0xed12be400a07910e4d4e743e4cee26ab1fc9a961",
      "contractAddress": null,
      "blockTimestamp": 1778861766
    },
    {
      "status": "0x1",
      "cumulativeGasUsed": "0x8ec2af",
      "logs": [
        {
          "address": "0xed12be400a07910e4d4e743e4cee26ab1fc9a961",
          "topics": [
            "0xd28dc1379d750c7c8137c7ef7b074f62f1361b9becc7f9d77d8c0d6e46a3cd06",
            "0x0000000000000000000000003489745eff9525ccc3d8c648102fe2cf3485e228"
          ],
          "data": "0x0000000000000000000000000000000000000000000000000000000000000001",
          "blockHash": "0x320e3f95e63dd16c46ca928d7eb9e16ef796db591515cc90081db0be68777217",
          "blockNumber": "0x1387d",
          "blockTimestamp": "0x6a0746c6",
          "transactionHash": "0x5939b1de0bfd57f8d69b289caf37fb25db6183d95905232c4690c2caeea5ff3e",
          "transactionIndex": "0x13",
          "logIndex": "0x9",
          "removed": false
        }
      ],
      "logsBloom": "0x00000000000000000000000000000000000000000000000000000000000000000000000000001000000000000000000000000000000000000000000000000000000000000000000040000800000000000000000000000000000100020000000000000000000000000000000000000000000000000000000000000000000400000000000000000000000000000000000000000000000000000000000000000000000000000000000000800000000000000000000000000000000000000200000000000000000000000000000000000000000000000000000000000000000000000000000000000000000000000000000000000000000000000000000000000008",
      "type": "0x0",
      "transactionHash": "0x5939b1de0bfd57f8d69b289caf37fb25db6183d95905232c4690c2caeea5ff3e",
      "transactionIndex": "0x13",
      "blockHash": "0x320e3f95e63dd16c46ca928d7eb9e16ef796db591515cc90081db0be68777217",
      "blockNumber": "0x1387d",
      "gasUsed": "0xba6a",
      "effectiveGasPrice": "0x3b9aca07",
      "blobGasPrice": "0x1",
      "from": "0xf39fd6e51aad88f6f4ce6ab8827279cfffb92266",
      "to": "0xed12be400a07910e4d4e743e4cee26ab1fc9a961",
      "contractAddress": null,
      "blockTimestamp": 1778861766
    },
    {
      "status": "0x1",
      "cumulativeGasUsed": "0x8f7d19",
      "logs": [
        {
          "address": "0xed12be400a07910e4d4e743e4cee26ab1fc9a961",
          "topics": [
            "0xd28dc1379d750c7c8137c7ef7b074f62f1361b9becc7f9d77d8c0d6e46a3cd06",
            "0x0000000000000000000000009eb52339b52e71b1efd5537947e75d23b3a7719b"
          ],
          "data": "0x0000000000000000000000000000000000000000000000000000000000000001",
          "blockHash": "0x320e3f95e63dd16c46ca928d7eb9e16ef796db591515cc90081db0be68777217",
          "blockNumber": "0x1387d",
          "blockTimestamp": "0x6a0746c6",
          "transactionHash": "0xde6e579f3e40cb3994677143acdfde80dbd9d58ece223e7232108fb289d26456",
          "transactionIndex": "0x14",
          "logIndex": "0xa",
          "removed": false
        }
      ],
      "logsBloom": "0x00000000000000000000000000000000000000000000000000000000000000000000000000000000000040000000000000000000000000000000000000000000000000000000000040000800000000000000000000000000000100000000000000000000000000000000000000000000000000000000000000000000000400000000000000000000000000000000000000000000000000000000000000000000000000000000000000800000000000000000000000000000002000000000000000000000000000000000400000000000000000000000000000000000000000000000000000000000000000000000000000000000000000000000000000000008",
      "type": "0x0",
      "transactionHash": "0xde6e579f3e40cb3994677143acdfde80dbd9d58ece223e7232108fb289d26456",
      "transactionIndex": "0x14",
      "blockHash": "0x320e3f95e63dd16c46ca928d7eb9e16ef796db591515cc90081db0be68777217",
      "blockNumber": "0x1387d",
      "gasUsed": "0xba6a",
      "effectiveGasPrice": "0x3b9aca07",
      "blobGasPrice": "0x1",
      "from": "0xf39fd6e51aad88f6f4ce6ab8827279cfffb92266",
      "to": "0xed12be400a07910e4d4e743e4cee26ab1fc9a961",
      "contractAddress": null,
      "blockTimestamp": 1778861766
    },
    {
      "status": "0x1",
      "cumulativeGasUsed": "0x903777",
      "logs": [
        {
          "address": "0xed12be400a07910e4d4e743e4cee26ab1fc9a961",
          "topics": [
            "0xd28dc1379d750c7c8137c7ef7b074f62f1361b9becc7f9d77d8c0d6e46a3cd06",
            "0x00000000000000000000000043b9ef43d415e84ad9964567002d648b11747a8f"
          ],
          "data": "0x0000000000000000000000000000000000000000000000000000000000000001",
          "blockHash": "0x320e3f95e63dd16c46ca928d7eb9e16ef796db591515cc90081db0be68777217",
          "blockNumber": "0x1387d",
          "blockTimestamp": "0x6a0746c6",
          "transactionHash": "0xa70543c4e320ece6c38700b41797676061252b0efac3340fab69a857f2b72186",
          "transactionIndex": "0x15",
          "logIndex": "0xb",
          "removed": false
        }
      ],
      "logsBloom": "0x00000000000000000000000000000000000000000000000000000000000000000000000000000000000000000000000000000000000000080000000000000000000000000000000040000800000000000000000000000000000100000000000000000000000000000000000000000000000000000000000000000000000400000000000000000000000000000000000000000000000000000000000000000000000000000002000000800000000000100000000000000000000000000000000000000000000000000000000000000000000000000000000000000000000000000000000000000000000000000000000000000000000000000000000000000008",
      "type": "0x0",
      "transactionHash": "0xa70543c4e320ece6c38700b41797676061252b0efac3340fab69a857f2b72186",
      "transactionIndex": "0x15",
      "blockHash": "0x320e3f95e63dd16c46ca928d7eb9e16ef796db591515cc90081db0be68777217",
      "blockNumber": "0x1387d",
      "gasUsed": "0xba5e",
      "effectiveGasPrice": "0x3b9aca07",
      "blobGasPrice": "0x1",
      "from": "0xf39fd6e51aad88f6f4ce6ab8827279cfffb92266",
      "to": "0xed12be400a07910e4d4e743e4cee26ab1fc9a961",
      "contractAddress": null,
      "blockTimestamp": 1778861766
    },
    {
      "status": "0x1",
      "cumulativeGasUsed": "0x90f13f",
      "logs": [
        {
          "address": "0x3489745eff9525ccc3d8c648102fe2cf3485e228",
          "topics": [
            "0x51f43ead43c9a90d53ec229fbf48feb76b24efa7a147089ad9ed34ad384a94d3"
          ],
          "data": "0x00000000000000000000000043b9ef43d415e84ad9964567002d648b11747a8f",
          "blockHash": "0x320e3f95e63dd16c46ca928d7eb9e16ef796db591515cc90081db0be68777217",
          "blockNumber": "0x1387d",
          "blockTimestamp": "0x6a0746c6",
          "transactionHash": "0xb617615c6452bc9763b01dd8596ef4754980ab707a72c2c81c15cf53866734ae",
          "transactionIndex": "0x16",
          "logIndex": "0xc",
          "removed": false
        }
      ],
      "logsBloom": "0x00000000800000000000000000000010000000000000000000000000000000000000000000000000000000000000000000800000000000000000000000000000000000000000000000000000000000000000000000000000000000000000000000000000000000000000000000000800000000000000000000000000000000000000000000400000000000000000000000000000000000000000000000000000000000000000000000000000000000000000000000000000000000000010000000000000000000000000000000000000000000000000000000000000000000000000000000000000000000000000000000000000000000000000000000000000",
      "type": "0x0",
      "transactionHash": "0xb617615c6452bc9763b01dd8596ef4754980ab707a72c2c81c15cf53866734ae",
      "transactionIndex": "0x16",
      "blockHash": "0x320e3f95e63dd16c46ca928d7eb9e16ef796db591515cc90081db0be68777217",
      "blockNumber": "0x1387d",
      "gasUsed": "0xb9c8",
      "effectiveGasPrice": "0x3b9aca07",
      "blobGasPrice": "0x1",
      "from": "0xf39fd6e51aad88f6f4ce6ab8827279cfffb92266",
      "to": "0x3489745eff9525ccc3d8c648102fe2cf3485e228",
      "contractAddress": null,
      "blockTimestamp": 1778861766
    },
    {
      "status": "0x1",
      "cumulativeGasUsed": "0x91fba0",
      "logs": [
        {
          "address": "0x8731d45ff9684d380302573ccfafd994dfa7f7d3",
          "topics": [
            "0xddf252ad1be2c89b69c2b068fc378daa952ba7f163c4a11628f55a4df523b3ef",
            "0x0000000000000000000000000000000000000000000000000000000000000000",
            "0x000000000000000000000000f39fd6e51aad88f6f4ce6ab8827279cfffb92266"
          ],
          "data": "0x0000000000000000000000000000000000000000000000056bc75e2d63100000",
          "blockHash": "0x320e3f95e63dd16c46ca928d7eb9e16ef796db591515cc90081db0be68777217",
          "blockNumber": "0x1387d",
          "blockTimestamp": "0x6a0746c6",
          "transactionHash": "0xfed028469b95273e55c994440da7e403c73a6ac6d0efd0f9ccdfc30496ff470f",
          "transactionIndex": "0x17",
          "logIndex": "0xd",
          "removed": false
        }
      ],
      "logsBloom": "0x00000000000000000000000000000000000000000000000000000000000000000000000000000000000000000000000000000000000000000000000000000000000000000000080000000008000000000000000000000000000000000000000000000000020000000020000100000800000000000000000000000050000000000000000000000000000000000000000000000000000000000000000000000000000000000000000000000000000000000000000000000000000000000000000000000002000000200000000000000000000000002000000000000000000020000000000000000000000000000000000000000000000000000000000000000000",
      "type": "0x0",
      "transactionHash": "0xfed028469b95273e55c994440da7e403c73a6ac6d0efd0f9ccdfc30496ff470f",
      "transactionIndex": "0x17",
      "blockHash": "0x320e3f95e63dd16c46ca928d7eb9e16ef796db591515cc90081db0be68777217",
      "blockNumber": "0x1387d",
      "gasUsed": "0x10a61",
      "effectiveGasPrice": "0x3b9aca07",
      "blobGasPrice": "0x1",
      "from": "0xf39fd6e51aad88f6f4ce6ab8827279cfffb92266",
      "to": "0x8731d45ff9684d380302573ccfafd994dfa7f7d3",
      "contractAddress": null,
      "blockTimestamp": 1778861766
    },
    {
      "status": "0x1",
      "cumulativeGasUsed": "0x9305dd",
      "logs": [
        {
          "address": "0x969e3128db078b179e9f3b3679710d2443ccdb72",
          "topics": [
            "0xddf252ad1be2c89b69c2b068fc378daa952ba7f163c4a11628f55a4df523b3ef",
            "0x0000000000000000000000000000000000000000000000000000000000000000",
            "0x000000000000000000000000f39fd6e51aad88f6f4ce6ab8827279cfffb92266"
          ],
          "data": "0x000000000000000000000000000000000000000000000000000000e8d4a51000",
          "blockHash": "0x320e3f95e63dd16c46ca928d7eb9e16ef796db591515cc90081db0be68777217",
          "blockNumber": "0x1387d",
          "blockTimestamp": "0x6a0746c6",
          "transactionHash": "0xbe686716a2fe41d563c7b1896213726440c4a26c0151944cb8a6bf43252751f2",
          "transactionIndex": "0x18",
          "logIndex": "0xe",
          "removed": false
        }
      ],
      "logsBloom": "0x00000000000000000000000000000000000000000000000000000000000000000000000000000000000000000000000000000000000000000000000000000000000000000000000000000008000000000000000000000000000000000000000000000800020000000000000100000800000000000000000000000010000000000000000000000000000000000000000000000000000000000008000000000000000000000000000000000000000000000000000000000000000000000000000000000002000000200800000000000000000000002000000000000000000020000000000000000000000000000000000000000000000000000000000000000000",
      "type": "0x0",
      "transactionHash": "0xbe686716a2fe41d563c7b1896213726440c4a26c0151944cb8a6bf43252751f2",
      "transactionIndex": "0x18",
      "blockHash": "0x320e3f95e63dd16c46ca928d7eb9e16ef796db591515cc90081db0be68777217",
      "blockNumber": "0x1387d",
      "gasUsed": "0x10a3d",
      "effectiveGasPrice": "0x3b9aca07",
      "blobGasPrice": "0x1",
      "from": "0xf39fd6e51aad88f6f4ce6ab8827279cfffb92266",
      "to": "0x969e3128db078b179e9f3b3679710d2443ccdb72",
      "contractAddress": null,
      "blockTimestamp": 1778861766
    },
    {
      "status": "0x1",
      "cumulativeGasUsed": "0x94104a",
      "logs": [
        {
          "address": "0x20dc424c5fa468cbb1c702308f0cc9c14da2825c",
          "topics": [
            "0xddf252ad1be2c89b69c2b068fc378daa952ba7f163c4a11628f55a4df523b3ef",
            "0x0000000000000000000000000000000000000000000000000000000000000000",
            "0x000000000000000000000000f39fd6e51aad88f6f4ce6ab8827279cfffb92266"
          ],
          "data": "0x00000000000000000000000000000000000000000052b7d2dcc80cd2e4000000",
          "blockHash": "0x320e3f95e63dd16c46ca928d7eb9e16ef796db591515cc90081db0be68777217",
          "blockNumber": "0x1387d",
          "blockTimestamp": "0x6a0746c6",
          "transactionHash": "0x66b6786d3d0806c082c6a7b6c458b429651c93c567008066696848417051d438",
          "transactionIndex": "0x19",
          "logIndex": "0xf",
          "removed": false
        }
      ],
      "logsBloom": "0x00000000000000000000000000000000000000000000000000000000000000000000000000000000000000000000000000000000000000000000000000000000000000000000000000000008000000000000000000000000000000000000000000000000020000000000000100000800000000000000000000001010000000000000000000000000000000000000000000000000000000000000000000000000000000000000000000000000000000000000000000000000000000000008000000000002000000200000000000000000000000002000000000000001000020000000000000000000000000000000000000000000000000000000000000000000",
      "type": "0x0",
      "transactionHash": "0x66b6786d3d0806c082c6a7b6c458b429651c93c567008066696848417051d438",
      "transactionIndex": "0x19",
      "blockHash": "0x320e3f95e63dd16c46ca928d7eb9e16ef796db591515cc90081db0be68777217",
      "blockNumber": "0x1387d",
      "gasUsed": "0x10a6d",
      "effectiveGasPrice": "0x3b9aca07",
      "blobGasPrice": "0x1",
      "from": "0xf39fd6e51aad88f6f4ce6ab8827279cfffb92266",
      "to": "0x20dc424c5fa468cbb1c702308f0cc9c14da2825c",
      "contractAddress": null,
      "blockTimestamp": 1778861766
    },
    {
      "status": "0x1",
      "cumulativeGasUsed": "0x94c3bb",
      "logs": [
        {
          "address": "0x8731d45ff9684d380302573ccfafd994dfa7f7d3",
          "topics": [
            "0x8c5be1e5ebec7d5bd14f71427d1e84f3dd0314c0f7b2291e5b200ac8c7c3b925",
            "0x000000000000000000000000f39fd6e51aad88f6f4ce6ab8827279cfffb92266",
            "0x0000000000000000000000003489745eff9525ccc3d8c648102fe2cf3485e228"
          ],
          "data": "0x0000000000000000000000000000000000000000000000008ac7230489e80000",
          "blockHash": "0x320e3f95e63dd16c46ca928d7eb9e16ef796db591515cc90081db0be68777217",
          "blockNumber": "0x1387d",
          "blockTimestamp": "0x6a0746c6",
          "transactionHash": "0x948905be088c989366bf1845536e93b15e9f3bff83616a7f0ab0e94d6f0f8425",
          "transactionIndex": "0x1a",
          "logIndex": "0x10",
          "removed": false
        }
      ],
      "logsBloom": "0x00000000000000000000000000000000000000000000000000000000000000000000000000001000000000000000000000000000000000000000000000200000000000000000080000000000000000000000000000000000000000020000000000000000000000000020000100000000000000000000000000000040000000000000000000000000000000000000000000000000000000000000000000000000020000000000000000000000000000000000000000000000000000000200000000000000000000200000000000000000000000002000000000000000000000000010000000000000000000000000000000000000000000000000000000000000",
      "type": "0x0",
      "transactionHash": "0x948905be088c989366bf1845536e93b15e9f3bff83616a7f0ab0e94d6f0f8425",
      "transactionIndex": "0x1a",
      "blockHash": "0x320e3f95e63dd16c46ca928d7eb9e16ef796db591515cc90081db0be68777217",
      "blockNumber": "0x1387d",
      "gasUsed": "0xb371",
      "effectiveGasPrice": "0x3b9aca07",
      "blobGasPrice": "0x1",
      "from": "0xf39fd6e51aad88f6f4ce6ab8827279cfffb92266",
      "to": "0x8731d45ff9684d380302573ccfafd994dfa7f7d3",
      "contractAddress": null,
      "blockTimestamp": 1778861766
    },
    {
      "status": "0x1",
      "cumulativeGasUsed": "0x97046d",
      "logs": [
        {
          "address": "0x8731d45ff9684d380302573ccfafd994dfa7f7d3",
          "topics": [
            "0xddf252ad1be2c89b69c2b068fc378daa952ba7f163c4a11628f55a4df523b3ef",
            "0x000000000000000000000000f39fd6e51aad88f6f4ce6ab8827279cfffb92266",
            "0x0000000000000000000000003489745eff9525ccc3d8c648102fe2cf3485e228"
          ],
          "data": "0x0000000000000000000000000000000000000000000000008ac7230489e80000",
          "blockHash": "0x320e3f95e63dd16c46ca928d7eb9e16ef796db591515cc90081db0be68777217",
          "blockNumber": "0x1387d",
          "blockTimestamp": "0x6a0746c6",
          "transactionHash": "0xc9d5df055b3d756a06d5ca33d11621119c17c0e0202dd44433d0c978d06038ee",
          "transactionIndex": "0x1b",
          "logIndex": "0x11",
          "removed": false
        },
        {
          "address": "0x3489745eff9525ccc3d8c648102fe2cf3485e228",
          "topics": [
            "0x88df26d296ecbf594c8609f433503d1436d24afe03c0d9e5e29c8f6ed92ef9b4",
            "0x000000000000000000000000f39fd6e51aad88f6f4ce6ab8827279cfffb92266",
            "0x4554480000000000000000000000000000000000000000000000000000000000"
          ],
          "data": "0x0000000000000000000000000000000000000000000000008ac7230489e80000",
          "blockHash": "0x320e3f95e63dd16c46ca928d7eb9e16ef796db591515cc90081db0be68777217",
          "blockNumber": "0x1387d",
          "blockTimestamp": "0x6a0746c6",
          "transactionHash": "0xc9d5df055b3d756a06d5ca33d11621119c17c0e0202dd44433d0c978d06038ee",
          "transactionIndex": "0x1b",
          "logIndex": "0x12",
          "removed": false
        }
      ],
      "logsBloom": "0x00000000800000000000000000000010000000000000000000000000000000000000000000001000000000000000000000800000000000000001000000000000000800000080080000000008200000000000000000000000000000020000000000000000000000000020000100000000000000000000000000000050000000000800000000000000000000000000000000000000000000000000000000000000000000000000000000000000000000000000000000000000000000000200000000000002000000200000000000000000000000002000000000000000000000000000000000000000000000000000000000000000000000100000000000000000",
      "type": "0x0",
      "transactionHash": "0xc9d5df055b3d756a06d5ca33d11621119c17c0e0202dd44433d0c978d06038ee",
      "transactionIndex": "0x1b",
      "blockHash": "0x320e3f95e63dd16c46ca928d7eb9e16ef796db591515cc90081db0be68777217",
      "blockNumber": "0x1387d",
      "gasUsed": "0x240b2",
      "effectiveGasPrice": "0x3b9aca07",
      "blobGasPrice": "0x1",
      "from": "0xf39fd6e51aad88f6f4ce6ab8827279cfffb92266",
      "to": "0x3489745eff9525ccc3d8c648102fe2cf3485e228",
      "contractAddress": null,
      "blockTimestamp": 1778861766
    },
    {
      "status": "0x1",
      "cumulativeGasUsed": "0x99de25",
      "logs": [
        {
          "address": "0xed12be400a07910e4d4e743e4cee26ab1fc9a961",
          "topics": [
            "0xddf252ad1be2c89b69c2b068fc378daa952ba7f163c4a11628f55a4df523b3ef",
            "0x0000000000000000000000000000000000000000000000000000000000000000",
            "0x000000000000000000000000f39fd6e51aad88f6f4ce6ab8827279cfffb92266"
          ],
          "data": "0x00000000000000000000000000000000000000000000010f0cf064dd59200000",
          "blockHash": "0x320e3f95e63dd16c46ca928d7eb9e16ef796db591515cc90081db0be68777217",
          "blockNumber": "0x1387d",
          "blockTimestamp": "0x6a0746c6",
          "transactionHash": "0xfef19d1d313e9d7d8c8abaf354ded2cee6bae96b0755f74f035445faaded1aa5",
          "transactionIndex": "0x1c",
          "logIndex": "0x13",
          "removed": false
        },
        {
          "address": "0x3489745eff9525ccc3d8c648102fe2cf3485e228",
          "topics": [
            "0x7ee657a21ac7f39b81c23a6f713ab60c53f4c04479e9a7847c08e2bc69862e80",
            "0x000000000000000000000000f39fd6e51aad88f6f4ce6ab8827279cfffb92266",
            "0x4554480000000000000000000000000000000000000000000000000000000000"
          ],
          "data": "0x00000000000000000000000000000000000000000000010f0cf064dd59200000",
          "blockHash": "0x320e3f95e63dd16c46ca928d7eb9e16ef796db591515cc90081db0be68777217",
          "blockNumber": "0x1387d",
          "blockTimestamp": "0x6a0746c6",
          "transactionHash": "0xfef19d1d313e9d7d8c8abaf354ded2cee6bae96b0755f74f035445faaded1aa5",
          "transactionIndex": "0x1c",
          "logIndex": "0x14",
          "removed": false
        }
      ],
      "logsBloom": "0x00000000800000000000000000000010000000000000000000000000000000000000000000000000000000000000000000800000000000000000000000000000000800000000000000000808200000000000000000000000000100000000000000000000020000000000000100000800000000000000000000000010000000000000000000000000000000000020000000000000000000000000000000000000000000000000000000000000000000000000000000000000000000000000000000001002000000200000000000000000000000002000000000000000000020000000000000000800000000000000000000000000000000100000000000000008",
      "type": "0x0",
      "transactionHash": "0xfef19d1d313e9d7d8c8abaf354ded2cee6bae96b0755f74f035445faaded1aa5",
      "transactionIndex": "0x1c",
      "blockHash": "0x320e3f95e63dd16c46ca928d7eb9e16ef796db591515cc90081db0be68777217",
      "blockNumber": "0x1387d",
      "gasUsed": "0x2d9b8",
      "effectiveGasPrice": "0x3b9aca07",
      "blobGasPrice": "0x1",
      "from": "0xf39fd6e51aad88f6f4ce6ab8827279cfffb92266",
      "to": "0x3489745eff9525ccc3d8c648102fe2cf3485e228",
      "contractAddress": null,
      "blockTimestamp": 1778861766
    },
    {
      "status": "0x1",
      "cumulativeGasUsed": "0x9a917e",
      "logs": [
        {
          "address": "0x969e3128db078b179e9f3b3679710d2443ccdb72",
          "topics": [
            "0x8c5be1e5ebec7d5bd14f71427d1e84f3dd0314c0f7b2291e5b200ac8c7c3b925",
            "0x000000000000000000000000f39fd6e51aad88f6f4ce6ab8827279cfffb92266",
            "0x0000000000000000000000009eb52339b52e71b1efd5537947e75d23b3a7719b"
          ],
          "data": "0x000000000000000000000000000000000000000000000000000000174876e800",
          "blockHash": "0x320e3f95e63dd16c46ca928d7eb9e16ef796db591515cc90081db0be68777217",
          "blockNumber": "0x1387d",
          "blockTimestamp": "0x6a0746c6",
          "transactionHash": "0x4eb5804a97dddbc7ab7940e7cbe4bcfbc677a56320775af0cd2e514bf29a01b4",
          "transactionIndex": "0x1d",
          "logIndex": "0x15",
          "removed": false
        }
      ],
      "logsBloom": "0x00000000000000000000000000000000000000000000000000000000000000000000000000000000000040000000000000000000000000000000000000200000000000000000000000000000000000000000000000000000000000000000000000000800000000000000000100000000000000000000000000000000000000000000000000000000000000000000000000000000000000000008000000000000020000000000000000000000000000000000000000000000002000000000000000000000000000200800400000000000000000002000000000000000000000000010000000000000000000000000000000000000000000000000000000000000",
      "type": "0x0",
      "transactionHash": "0x4eb5804a97dddbc7ab7940e7cbe4bcfbc677a56320775af0cd2e514bf29a01b4",
      "transactionIndex": "0x1d",
      "blockHash": "0x320e3f95e63dd16c46ca928d7eb9e16ef796db591515cc90081db0be68777217",
      "blockNumber": "0x1387d",
      "gasUsed": "0xb359",
      "effectiveGasPrice": "0x3b9aca07",
      "blobGasPrice": "0x1",
      "from": "0xf39fd6e51aad88f6f4ce6ab8827279cfffb92266",
      "to": "0x969e3128db078b179e9f3b3679710d2443ccdb72",
      "contractAddress": null,
      "blockTimestamp": 1778861766
    },
    {
      "status": "0x1",
      "cumulativeGasUsed": "0x9e6c1a",
      "logs": [
        {
          "address": "0x969e3128db078b179e9f3b3679710d2443ccdb72",
          "topics": [
            "0xddf252ad1be2c89b69c2b068fc378daa952ba7f163c4a11628f55a4df523b3ef",
            "0x000000000000000000000000f39fd6e51aad88f6f4ce6ab8827279cfffb92266",
            "0x0000000000000000000000009eb52339b52e71b1efd5537947e75d23b3a7719b"
          ],
          "data": "0x000000000000000000000000000000000000000000000000000000174876e800",
          "blockHash": "0x320e3f95e63dd16c46ca928d7eb9e16ef796db591515cc90081db0be68777217",
          "blockNumber": "0x1387d",
          "blockTimestamp": "0x6a0746c6",
          "transactionHash": "0x07df05c193d87b3c579bd1f06ba5fe6b0bf53071068114103c0fccf9ba21c9b9",
          "transactionIndex": "0x1e",
          "logIndex": "0x16",
          "removed": false
        },
        {
          "address": "0xed12be400a07910e4d4e743e4cee26ab1fc9a961",
          "topics": [
            "0xddf252ad1be2c89b69c2b068fc378daa952ba7f163c4a11628f55a4df523b3ef",
            "0x0000000000000000000000000000000000000000000000000000000000000000",
            "0x000000000000000000000000f39fd6e51aad88f6f4ce6ab8827279cfffb92266"
          ],
          "data": "0x0000000000000000000000000000000000000000000015279700831d93700000",
          "blockHash": "0x320e3f95e63dd16c46ca928d7eb9e16ef796db591515cc90081db0be68777217",
          "blockNumber": "0x1387d",
          "blockTimestamp": "0x6a0746c6",
          "transactionHash": "0x07df05c193d87b3c579bd1f06ba5fe6b0bf53071068114103c0fccf9ba21c9b9",
          "transactionIndex": "0x1e",
          "logIndex": "0x17",
          "removed": false
        },
        {
          "address": "0xed12be400a07910e4d4e743e4cee26ab1fc9a961",
          "topics": [
            "0xddf252ad1be2c89b69c2b068fc378daa952ba7f163c4a11628f55a4df523b3ef",
            "0x0000000000000000000000000000000000000000000000000000000000000000",
            "0x0000000000000000000000009eb52339b52e71b1efd5537947e75d23b3a7719b"
          ],
          "data": "0x0000000000000000000000000000000000000000000000056bc75e2d63100000",
          "blockHash": "0x320e3f95e63dd16c46ca928d7eb9e16ef796db591515cc90081db0be68777217",
          "blockNumber": "0x1387d",
          "blockTimestamp": "0x6a0746c6",
          "transactionHash": "0x07df05c193d87b3c579bd1f06ba5fe6b0bf53071068114103c0fccf9ba21c9b9",
          "transactionIndex": "0x1e",
          "logIndex": "0x18",
          "removed": false
        },
        {
          "address": "0xed12be400a07910e4d4e743e4cee26ab1fc9a961",
          "topics": [
            "0x8c5be1e5ebec7d5bd14f71427d1e84f3dd0314c0f7b2291e5b200ac8c7c3b925",
            "0x0000000000000000000000009eb52339b52e71b1efd5537947e75d23b3a7719b",
            "0x0000000000000000000000001b25157f05b25438441bf7cde38a95a55ccf8e50"
          ],
          "data": "0x0000000000000000000000000000000000000000000000056bc75e2d63100000",
          "blockHash": "0x320e3f95e63dd16c46ca928d7eb9e16ef796db591515cc90081db0be68777217",
          "blockNumber": "0x1387d",
          "blockTimestamp": "0x6a0746c6",
          "transactionHash": "0x07df05c193d87b3c579bd1f06ba5fe6b0bf53071068114103c0fccf9ba21c9b9",
          "transactionIndex": "0x1e",
          "logIndex": "0x19",
          "removed": false
        },
        {
          "address": "0xed12be400a07910e4d4e743e4cee26ab1fc9a961",
          "topics": [
            "0xddf252ad1be2c89b69c2b068fc378daa952ba7f163c4a11628f55a4df523b3ef",
            "0x0000000000000000000000009eb52339b52e71b1efd5537947e75d23b3a7719b",
            "0x0000000000000000000000001b25157f05b25438441bf7cde38a95a55ccf8e50"
          ],
          "data": "0x0000000000000000000000000000000000000000000000056bc75e2d63100000",
          "blockHash": "0x320e3f95e63dd16c46ca928d7eb9e16ef796db591515cc90081db0be68777217",
          "blockNumber": "0x1387d",
          "blockTimestamp": "0x6a0746c6",
          "transactionHash": "0x07df05c193d87b3c579bd1f06ba5fe6b0bf53071068114103c0fccf9ba21c9b9",
          "transactionIndex": "0x1e",
          "logIndex": "0x1a",
          "removed": false
        },
        {
          "address": "0x9eb52339b52e71b1efd5537947e75d23b3a7719b",
          "topics": [
            "0xc91682597e50d783bf81329b763263cef72b0cda71f5e617e0bd4b4150f84403",
            "0x000000000000000000000000f39fd6e51aad88f6f4ce6ab8827279cfffb92266"
          ],
          "data": "0x000000000000000000000000000000000000000000000000000000174876e8000000000000000000000000000000000000000000000015279700831d937000000000000000000000000000000000000000000000000000056bc75e2d63100000",
          "blockHash": "0x320e3f95e63dd16c46ca928d7eb9e16ef796db591515cc90081db0be68777217",
          "blockNumber": "0x1387d",
          "blockTimestamp": "0x6a0746c6",
          "transactionHash": "0x07df05c193d87b3c579bd1f06ba5fe6b0bf53071068114103c0fccf9ba21c9b9",
          "transactionIndex": "0x1e",
          "logIndex": "0x1b",
          "removed": false
        }
      ],
      "logsBloom": "0x00000000000000000020000000000000000000000000000000000000000000000000000000000000000040000000000000000000000000000000000000600000000000000000000000000808000000000000000000000000000100000000000000000800020000000000000100000802000000000000000000000010000000000000000000000000000000000000100000000000000000008028000000020000020000000020000000000000000000000000008000000000002000000000000000000002000000200800400000000000000000002000000000000000000020000010000000000000000000000000000000000000000000000000000000000008",
      "type": "0x0",
      "transactionHash": "0x07df05c193d87b3c579bd1f06ba5fe6b0bf53071068114103c0fccf9ba21c9b9",
      "transactionIndex": "0x1e",
      "blockHash": "0x320e3f95e63dd16c46ca928d7eb9e16ef796db591515cc90081db0be68777217",
      "blockNumber": "0x1387d",
      "gasUsed": "0x3da9c",
      "effectiveGasPrice": "0x3b9aca07",
      "blobGasPrice": "0x1",
      "from": "0xf39fd6e51aad88f6f4ce6ab8827279cfffb92266",
      "to": "0x9eb52339b52e71b1efd5537947e75d23b3a7719b",
      "contractAddress": null,
      "blockTimestamp": 1778861766
    },
    {
      "status": "0x1",
      "cumulativeGasUsed": "0x9f1f7f",
      "logs": [
        {
          "address": "0xed12be400a07910e4d4e743e4cee26ab1fc9a961",
          "topics": [
            "0x8c5be1e5ebec7d5bd14f71427d1e84f3dd0314c0f7b2291e5b200ac8c7c3b925",
            "0x000000000000000000000000f39fd6e51aad88f6f4ce6ab8827279cfffb92266",
            "0x00000000000000000000000043b9ef43d415e84ad9964567002d648b11747a8f"
          ],
          "data": "0x00000000000000000000000000000000000000000000006c6b935b8bbd400000",
          "blockHash": "0x320e3f95e63dd16c46ca928d7eb9e16ef796db591515cc90081db0be68777217",
          "blockNumber": "0x1387d",
          "blockTimestamp": "0x6a0746c6",
          "transactionHash": "0xadf526bbcc3f075a4cdea6080cde9656a2c781d15ceb8aa2e3efb493349f20df",
          "transactionIndex": "0x1f",
          "logIndex": "0x1c",
          "removed": false
        }
      ],
      "logsBloom": "0x00000000000000000000000000000000000000000000000000000000000000000000000000000000000000000000000000000000000000080000000000200000000000000000000000000800000000000000000000000000000100000000000000000000000000000000000100000000000000000000000000000000000000000000000000000000000000000000000000000000000000000000000000000000020000000002000000000000000000100000000000000000000000000000000000000000000000200000000000000000000000002000000000000000000000000010000000000000000000000000000000000000000000000000000000000008",
      "type": "0x0",
      "transactionHash": "0xadf526bbcc3f075a4cdea6080cde9656a2c781d15ceb8aa2e3efb493349f20df",
      "transactionIndex": "0x1f",
      "blockHash": "0x320e3f95e63dd16c46ca928d7eb9e16ef796db591515cc90081db0be68777217",
      "blockNumber": "0x1387d",
      "gasUsed": "0xb365",
      "effectiveGasPrice": "0x3b9aca07",
      "blobGasPrice": "0x1",
      "from": "0xf39fd6e51aad88f6f4ce6ab8827279cfffb92266",
      "to": "0xed12be400a07910e4d4e743e4cee26ab1fc9a961",
      "contractAddress": null,
      "blockTimestamp": 1778861766
    },
    {
      "status": "0x1",
      "cumulativeGasUsed": "0xa18c8e",
      "logs": [
        {
          "address": "0xed12be400a07910e4d4e743e4cee26ab1fc9a961",
          "topics": [
            "0xddf252ad1be2c89b69c2b068fc378daa952ba7f163c4a11628f55a4df523b3ef",
            "0x000000000000000000000000f39fd6e51aad88f6f4ce6ab8827279cfffb92266",
            "0x00000000000000000000000043b9ef43d415e84ad9964567002d648b11747a8f"
          ],
          "data": "0x00000000000000000000000000000000000000000000006c6b935b8bbd400000",
          "blockHash": "0x320e3f95e63dd16c46ca928d7eb9e16ef796db591515cc90081db0be68777217",
          "blockNumber": "0x1387d",
          "blockTimestamp": "0x6a0746c6",
          "transactionHash": "0xda1275e30c4149692f37baa8436ce63d314d4009ec1750e9008fa886c31537ff",
          "transactionIndex": "0x20",
          "logIndex": "0x1d",
          "removed": false
        },
        {
          "address": "0x43b9ef43d415e84ad9964567002d648b11747a8f",
          "topics": [
            "0x2da466a7b24304f47e87fa2e1e5a81b9831ce54fec19055ce277ca2f39ba42c4",
            "0x000000000000000000000000f39fd6e51aad88f6f4ce6ab8827279cfffb92266"
          ],
          "data": "0x00000000000000000000000000000000000000000000006c6b935b8bbd400000",
          "blockHash": "0x320e3f95e63dd16c46ca928d7eb9e16ef796db591515cc90081db0be68777217",
          "blockNumber": "0x1387d",
          "blockTimestamp": "0x6a0746c6",
          "transactionHash": "0xda1275e30c4149692f37baa8436ce63d314d4009ec1750e9008fa886c31537ff",
          "transactionIndex": "0x20",
          "logIndex": "0x1e",
          "removed": false
        }
      ],
      "logsBloom": "0x00000000000000000000000000000000000000000000000000000000000000000000000000000000000000000000000000000000010000080000000000000000000000000000000000000808000000000000000000000000000100000000200000000000000000000000000100000000000000000000000000000010000200000000000000080000000000000000000000002000000000000000000000000000000000000002000000000000000000100000000000000000000000000000000000000002000000200000000000000000000000002000000000000000000000000040000000000000000000000000000000000000000000000000000000000008",
      "type": "0x0",
      "transactionHash": "0xda1275e30c4149692f37baa8436ce63d314d4009ec1750e9008fa886c31537ff",
      "transactionIndex": "0x20",
      "blockHash": "0x320e3f95e63dd16c46ca928d7eb9e16ef796db591515cc90081db0be68777217",
      "blockNumber": "0x1387d",
      "gasUsed": "0x26d0f",
      "effectiveGasPrice": "0x3b9aca07",
      "blobGasPrice": "0x1",
      "from": "0xf39fd6e51aad88f6f4ce6ab8827279cfffb92266",
      "to": "0x43b9ef43d415e84ad9964567002d648b11747a8f",
      "contractAddress": null,
      "blockTimestamp": 1778861766
    }
  ],
  "libraries": [],
  "pending": [],
  "returns": {},
  "timestamp": 1778861766741,
  "chain": 42069,
  "commit": "ce92f2e"
}