{
  "transactions": [
    {
      "hash": "0xe1064a4e1860ffa5ca352300b6a00e822994a0f86adffb034effd84169f5e056",
      "transactionType": "CREATE",
      "contractName": "MockWETH18",
      "contractAddress": "0x64ed22277402f01f3ad382270b419b9f5e87f4c4",
      "function": null,
      "arguments": null,
      "transaction": {
        "from": "0xf39fd6e51aad88f6f4ce6ab8827279cfffb92266",
        "gas": "0x76052",
        "value": "0x0",
        "input": "0x608080604052346015576105c2908161001a8239f35b5f80fdfe60806040526004361015610011575f80fd5b5f3560e01c806306fdde0314610459578063095ea7b3146103e057806318160ddd146103c457806323b872dd1461028e578063313ce5671461027357806340c10f191461020e57806370a08231146101d657806395d89b411461016f578063a9059cbb146100db5763dd62ed3e14610087575f80fd5b346100d75760403660031901126100d7576100a06104d7565b6100a86104ed565b6001600160a01b039182165f908152600260209081526040808320949093168252928352819020549051908152f35b5f80fd5b346100d75760403660031901126100d7576100f46104d7565b60243590335f5260016020526101108260405f20541015610524565b335f52600160205260405f20610127838254610503565b905560018060a01b031690815f52600160205260405f2061014982825461055f565b90556040519081525f51602061056d5f395f51905f5260203392a3602060405160018152f35b346100d7575f3660031901126100d757604051604081019080821067ffffffffffffffff8311176101c2576101be9160405260048152630ae8aa8960e31b6020820152604051918291826104ad565b0390f35b634e487b7160e01b5f52604160045260245ffd5b346100d75760203660031901126100d7576001600160a01b036101f76104d7565b165f526001602052602060405f2054604051908152f35b346100d75760403660031901126100d7576102276104d7565b5f5f51602061056d5f395f51905f5260206024359361024785855461055f565b845560018060a01b031693848452600182526040842061026882825461055f565b9055604051908152a3005b346100d7575f3660031901126100d757602060405160128152f35b346100d75760603660031901126100d7576102a76104d7565b6102af6104ed565b6001600160a01b039091165f818152600260209081526040808320338452909152902054604435929060018101610355575b5060205f51602061056d5f395f51905f5291835f526001825261030a8560405f20541015610524565b835f526001825260405f20610320868254610503565b905560018060a01b031693845f526001825260405f2061034182825461055f565b9055604051908152a3602060405160018152f35b838110610393575f51602061056d5f395f51905f529161037785602093610503565b5f858152600284526040808220338352855290205591506102e1565b60405162461bcd60e51b8152602060048201526009602482015268616c6c6f77616e636560b81b6044820152606490fd5b346100d7575f3660031901126100d75760205f54604051908152f35b346100d75760403660031901126100d7576103f96104d7565b335f8181526002602090815260408083206001600160a01b03909516808452948252918290206024359081905591519182527f8c5be1e5ebec7d5bd14f71427d1e84f3dd0314c0f7b2291e5b200ac8c7c3b92591a3602060405160018152f35b346100d7575f3660031901126100d757604051604081019080821067ffffffffffffffff8311176101c2576101be91604052600d81526c2bb930b83832b21022ba3432b960991b6020820152604051918291825b602060409281835280519182918282860152018484015e5f828201840152601f01601f1916010190565b600435906001600160a01b03821682036100d757565b602435906001600160a01b03821682036100d757565b9190820391821161051057565b634e487b7160e01b5f52601160045260245ffd5b1561052b57565b60405162461bcd60e51b815260206004820152600c60248201526b1a5b9cdd59999a58da595b9d60a21b6044820152606490fd5b919082018092116105105756feddf252ad1be2c89b69c2b068fc378daa952ba7f163c4a11628f55a4df523b3efa264697066735822122019f2817f127d6ea3e5d117d33c1ffd778aadc5015cbe88c356f57464aa9204c564736f6c63430008210033",
        "nonce": "0x4b7",
        "chainId": "0xa455"
      },
      "additionalContracts": [],
      "isFixedGasLimit": false
    },
    {
      "hash": "0x21362995c0684a22b90dd4382b7ae70171945851a0f62a4ab3ddc56507013415",
      "transactionType": "CREATE",
      "contractName": "MockUSDC6",
      "contractAddress": "0x8c2399346bea56a5fc4a5830d6c7ee34a7d8de4b",
      "function": null,
      "arguments": null,
      "transaction": {
        "from": "0xf39fd6e51aad88f6f4ce6ab8827279cfffb92266",
        "gas": "0x75acd",
        "value": "0x0",
        "input": "0x608080604052346015576105bd908161001a8239f35b5f80fdfe60806040526004361015610011575f80fd5b5f3560e01c806306fdde0314610459578063095ea7b3146103e057806318160ddd146103c457806323b872dd1461028e578063313ce5671461027357806340c10f191461020e57806370a08231146101d657806395d89b411461016f578063a9059cbb146100db5763dd62ed3e14610087575f80fd5b346100d75760403660031901126100d7576100a06104d2565b6100a86104e8565b6001600160a01b039182165f908152600260209081526040808320949093168252928352819020549051908152f35b5f80fd5b346100d75760403660031901126100d7576100f46104d2565b60243590335f5260016020526101108260405f2054101561051f565b335f52600160205260405f206101278382546104fe565b905560018060a01b031690815f52600160205260405f2061014982825461055a565b90556040519081525f5160206105685f395f51905f5260203392a3602060405160018152f35b346100d7575f3660031901126100d757604051604081019080821067ffffffffffffffff8311176101c2576101be9160405260048152635553444360e01b6020820152604051918291826104a8565b0390f35b634e487b7160e01b5f52604160045260245ffd5b346100d75760203660031901126100d7576001600160a01b036101f76104d2565b165f526001602052602060405f2054604051908152f35b346100d75760403660031901126100d7576102276104d2565b5f5f5160206105685f395f51905f5260206024359361024785855461055a565b845560018060a01b031693848452600182526040842061026882825461055a565b9055604051908152a3005b346100d7575f3660031901126100d757602060405160068152f35b346100d75760603660031901126100d7576102a76104d2565b6102af6104e8565b6001600160a01b039091165f818152600260209081526040808320338452909152902054604435929060018101610355575b5060205f5160206105685f395f51905f5291835f526001825261030a8560405f2054101561051f565b835f526001825260405f206103208682546104fe565b905560018060a01b031693845f526001825260405f2061034182825461055a565b9055604051908152a3602060405160018152f35b838110610393575f5160206105685f395f51905f5291610377856020936104fe565b5f858152600284526040808220338352855290205591506102e1565b60405162461bcd60e51b8152602060048201526009602482015268616c6c6f77616e636560b81b6044820152606490fd5b346100d7575f3660031901126100d75760205f54604051908152f35b346100d75760403660031901126100d7576103f96104d2565b335f8181526002602090815260408083206001600160a01b03909516808452948252918290206024359081905591519182527f8c5be1e5ebec7d5bd14f71427d1e84f3dd0314c0f7b2291e5b200ac8c7c3b92591a3602060405160018152f35b346100d7575f3660031901126100d757604051604081019080821067ffffffffffffffff8311176101c2576101be9160405260088152672aa9a21021b7b4b760c11b6020820152604051918291825b602060409281835280519182918282860152018484015e5f828201840152601f01601f1916010190565b600435906001600160a01b03821682036100d757565b602435906001600160a01b03821682036100d757565b9190820391821161050b57565b634e487b7160e01b5f52601160045260245ffd5b1561052657565b60405162461bcd60e51b815260206004820152600c60248201526b1a5b9cdd59999a58da595b9d60a21b6044820152606490fd5b9190820180921161050b5756feddf252ad1be2c89b69c2b068fc378daa952ba7f163c4a11628f55a4df523b3efa2646970667358221220f3de252ad7ab24f2a04364ed9fcabb69867caa78be414f09de137f4f4f5f26a464736f6c63430008210033",
        "nonce": "0x4b8",
        "chainId": "0xa455"
      },
      "additionalContracts": [],
      "isFixedGasLimit": false
    },
    {
      "hash": "0x7bb652c660be559569dfcf3e3f21ed6cecebc86c180b33690945a1ad68470f31",
      "transactionType": "CREATE",
      "contractName": "MockGD18",
      "contractAddress": "0xa571c8b59d51f87d76e55f496a71a27b950d29c8",
      "function": null,
      "arguments": null,
      "transaction": {
        "from": "0xf39fd6e51aad88f6f4ce6ab8827279cfffb92266",
        "gas": "0x75aad",
        "value": "0x0",
        "input": "0x608080604052346015576105bd908161001a8239f35b5f80fdfe60806040526004361015610011575f80fd5b5f3560e01c806306fdde0314610457578063095ea7b3146103de57806318160ddd146103c257806323b872dd1461028c578063313ce5671461027157806340c10f191461020c57806370a08231146101d457806395d89b411461016f578063a9059cbb146100db5763dd62ed3e14610087575f80fd5b346100d75760403660031901126100d7576100a06104d2565b6100a86104e8565b6001600160a01b039182165f908152600260209081526040808320949093168252928352819020549051908152f35b5f80fd5b346100d75760403660031901126100d7576100f46104d2565b60243590335f5260016020526101108260405f2054101561051f565b335f52600160205260405f206101278382546104fe565b905560018060a01b031690815f52600160205260405f2061014982825461055a565b90556040519081525f5160206105685f395f51905f5260203392a3602060405160018152f35b346100d7575f3660031901126100d757604051604081019080821067ffffffffffffffff8311176101c0576101bc91604052600281526111c960f21b6020820152604051918291826104a8565b0390f35b634e487b7160e01b5f52604160045260245ffd5b346100d75760203660031901126100d7576001600160a01b036101f56104d2565b165f526001602052602060405f2054604051908152f35b346100d75760403660031901126100d7576102256104d2565b5f5f5160206105685f395f51905f5260206024359361024585855461055a565b845560018060a01b031693848452600182526040842061026682825461055a565b9055604051908152a3005b346100d7575f3660031901126100d757602060405160128152f35b346100d75760603660031901126100d7576102a56104d2565b6102ad6104e8565b6001600160a01b039091165f818152600260209081526040808320338452909152902054604435929060018101610353575b5060205f5160206105685f395f51905f5291835f52600182526103088560405f2054101561051f565b835f526001825260405f2061031e8682546104fe565b905560018060a01b031693845f526001825260405f2061033f82825461055a565b9055604051908152a3602060405160018152f35b838110610391575f5160206105685f395f51905f5291610375856020936104fe565b5f858152600284526040808220338352855290205591506102df565b60405162461bcd60e51b8152602060048201526009602482015268616c6c6f77616e636560b81b6044820152606490fd5b346100d7575f3660031901126100d75760205f54604051908152f35b346100d75760403660031901126100d7576103f76104d2565b335f8181526002602090815260408083206001600160a01b03909516808452948252918290206024359081905591519182527f8c5be1e5ebec7d5bd14f71427d1e84f3dd0314c0f7b2291e5b200ac8c7c3b92591a3602060405160018152f35b346100d7575f3660031901126100d757604051604081019080821067ffffffffffffffff8311176101c0576101bc91604052600a81526923b7b7b22237b63630b960b11b6020820152604051918291825b602060409281835280519182918282860152018484015e5f828201840152601f01601f1916010190565b600435906001600160a01b03821682036100d757565b602435906001600160a01b03821682036100d757565b9190820391821161050b57565b634e487b7160e01b5f52601160045260245ffd5b1561052657565b60405162461bcd60e51b815260206004820152600c60248201526b1a5b9cdd59999a58da595b9d60a21b6044820152606490fd5b9190820180921161050b5756feddf252ad1be2c89b69c2b068fc378daa952ba7f163c4a11628f55a4df523b3efa26469706673582212206bf7fe0253ef7a02fd34006cec7c72f16ced18bc982aecefe380c9c47d91d10064736f6c63430008210033",
        "nonce": "0x4b9",
        "chainId": "0xa455"
      },
      "additionalContracts": [],
      "isFixedGasLimit": false
    },
    {
      "hash": "0xa84e8d410c6f7397c82335cbbebff77d5936911053e25af9a8c96bec81694117",
      "transactionType": "CREATE",
      "contractName": "MockPriceOracle",
      "contractAddress": "0x087756051dff01d59d7f51a88975d59a9230fd69",
      "function": null,
      "arguments": null,
      "transaction": {
        "from": "0xf39fd6e51aad88f6f4ce6ab8827279cfffb92266",
        "gas": "0x1dca0",
        "value": "0x0",
        "input": "0x6080806040523460135760bb908160188239f35b5f80fdfe608060405260043610156010575f80fd5b5f3560e01c806310d8d74d14606157806331d98b3f146036576360846bc6146036575f80fd5b34605d576020366003190112605d576004355f525f602052602060405f2054604051908152f35b5f80fd5b34605d576040366003190112605d576004355f525f60205260243560405f20555f80f3fea264697066735822122061b1f7e77457104b3fc00e2493010471c6cb7723a45544412303e6f207e8c38e64736f6c63430008210033",
        "nonce": "0x4ba",
        "chainId": "0xa455"
      },
      "additionalContracts": [],
      "isFixedGasLimit": false
    },
    {
      "hash": "0x66159a595e6ccfc2aa8a5d5f2c7892dc62207dc05583c7c92d6fd4dafff5e4b4",
      "transactionType": "CALL",
      "contractName": "MockPriceOracle",
      "contractAddress": "0x087756051dff01d59d7f51a88975d59a9230fd69",
      "function": "setPrice(bytes32,uint256)",
      "arguments": [
        "0x4554480000000000000000000000000000000000000000000000000000000000",
        "2000000000000000000000"
      ],
      "transaction": {
        "from": "0xf39fd6e51aad88f6f4ce6ab8827279cfffb92266",
        "to": "0x087756051dff01d59d7f51a88975d59a9230fd69",
        "gas": "0xf9df",
        "value": "0x0",
        "input": "0x10d8d74d455448000000000000000000000000000000000000000000000000000000000000000000000000000000000000000000000000000000006c6b935b8bbd400000",
        "nonce": "0x4bb",
        "chainId": "0xa455"
      },
      "additionalContracts": [],
      "isFixedGasLimit": false
    },
    {
      "hash": "0x89e8837dc33ed6cc52a47c760fc69997b46beb6c542d2eb4c336763db4a0adbf",
      "transactionType": "CALL",
      "contractName": "MockPriceOracle",
      "contractAddress": "0x087756051dff01d59d7f51a88975d59a9230fd69",
      "function": "setPrice(bytes32,uint256)",
      "arguments": [
        "0x4744000000000000000000000000000000000000000000000000000000000000",
        "1000000000000000"
      ],
      "transaction": {
        "from": "0xf39fd6e51aad88f6f4ce6ab8827279cfffb92266",
        "to": "0x087756051dff01d59d7f51a88975d59a9230fd69",
        "gas": "0xf9bc",
        "value": "0x0",
        "input": "0x10d8d74d474400000000000000000000000000000000000000000000000000000000000000000000000000000000000000000000000000000000000000038d7ea4c68000",
        "nonce": "0x4bc",
        "chainId": "0xa455"
      },
      "additionalContracts": [],
      "isFixedGasLimit": false
    },
    {
      "hash": "0xb39787c5480d120de12a23ed7c801f4300ed6bfd4a37a644d9ed9563bb7c0271",
      "transactionType": "CALL",
      "contractName": "MockPriceOracle",
      "contractAddress": "0x087756051dff01d59d7f51a88975d59a9230fd69",
      "function": "setPrice(bytes32,uint256)",
      "arguments": [
        "0x5553444300000000000000000000000000000000000000000000000000000000",
        "1000000000000000000"
      ],
      "transaction": {
        "from": "0xf39fd6e51aad88f6f4ce6ab8827279cfffb92266",
        "to": "0x087756051dff01d59d7f51a88975d59a9230fd69",
        "gas": "0xf9df",
        "value": "0x0",
        "input": "0x10d8d74d55534443000000000000000000000000000000000000000000000000000000000000000000000000000000000000000000000000000000000de0b6b3a7640000",
        "nonce": "0x4bd",
        "chainId": "0xa455"
      },
      "additionalContracts": [],
      "isFixedGasLimit": false
    },
    {
      "hash": "0x6fb131202ecd98b22f0a0df029b811da866a36f02bfb1ca48eea53fda28f9f09",
      "transactionType": "CREATE",
      "contractName": "gUSD",
      "contractAddress": "0x1e86fce4d102a5924a9ef503f772fca162af2067",
      "function": null,
      "arguments": [
        "0xf39Fd6e51aad88F6F4ce6aB8827279cffFb92266"
      ],
      "transaction": {
        "from": "0xf39fd6e51aad88f6f4ce6ab8827279cfffb92266",
        "gas": "0x10053f",
        "value": "0x0",
        "input": "0x60803460b257601f610d8f38819003918201601f19168301916001600160401b0383118484101760b65780849260209460405283398101031260b257516001600160a01b0381169081900360b25760016006558015607a57600380546001600160a01b031916919091179055604051610cc490816100cb8239f35b60405162461bcd60e51b815260206004820152601060248201526f33aaa9a21d103d32b9379030b236b4b760811b6044820152606490fd5b5f80fd5b634e487b7160e01b5f52604160045260245ffdfe60806040526004361015610011575f80fd5b5f3560e01c806306fdde0314610992578063095ea7b3146108db5780630d895ee11461085e57806318160ddd1461084257806323b872dd1461072e578063313ce5671461071357806340c10f19146105fc57806342966c681461056b5780634334614a1461052e57806370a08231146104f657806375829def1461047957806379cc67901461033f57806395d89b41146102d8578063a9059cbb14610220578063aa271e1a146101e3578063cf456ae71461015b578063dd62ed3e1461010b5763f851a440146100df575f80fd5b34610107575f366003190112610107576003546040516001600160a01b039091168152602090f35b5f80fd5b3461010757604036600319011261010757610124610a11565b61012c610a27565b6001600160a01b039182165f908152600260209081526040808320949093168252928352819020549051908152f35b346101075760207f583b0aa0e528532caf4b907c11d7a8158a122fe2a6fb80cd9b09776ebea8d92d61018c36610a3d565b92906101a360018060a01b03600354163314610a6c565b6001600160a01b0316926101b8841515610aaa565b835f52600482526101d88160405f209060ff801983541691151516179055565b6040519015158152a2005b34610107576020366003190112610107576001600160a01b03610204610a11565b165f526004602052602060ff60405f2054166040519015158152f35b3461010757604036600319011261010757610239610a11565b6024359061024b600160065414610aeb565b60026006556001600160a01b031690610265821515610b23565b335f52600160205261027d8160405f20541015610bd5565b335f52600160205260405f20610294828254610bb4565b9055815f52600160205260405f206102ad828254610c21565b90556040519081525f516020610c6f5f395f51905f5260203392a36001600655602060405160018152f35b34610107575f36600319011261010757604051604081019080821067ffffffffffffffff83111761032b5761032791604052600481526319d554d160e21b6020820152604051918291826109e7565b0390f35b634e487b7160e01b5f52604160045260245ffd5b3461010757604036600319011261010757610358610a11565b602435610369600160065414610aeb565b6002600655335f52600560205260ff60405f20541615610441575f516020610c6f5f395f51905f5260205f936103a0841515610c2e565b6001600160a01b031692338490036103fd575b838552600182526103ca8160408720541015610bd5565b83855260018252604085206103e0828254610bb4565b90556103ed818654610bb4565b8555604051908152a36001600655005b838552600282526040808620338752835285205461042890829061042382821015610b68565b610bb4565b84865260028352604080872033885284528620556103b3565b60405162461bcd60e51b815260206004820152601060248201526f33aaa9a21d103737ba10313ab93732b960811b6044820152606490fd5b3461010757602036600319011261010757610492610a11565b6003546001600160a01b038116916104ab338414610a6c565b6001600160a01b03169182906104c2821515610aaa565b7ff8ccb027dfcd135e000e9d45e6cc2d662578a8825d4c45b5e32e0adf67e79ec65f80a36001600160a01b03191617600355005b34610107576020366003190112610107576001600160a01b03610517610a11565b165f526001602052602060405f2054604051908152f35b34610107576020366003190112610107576001600160a01b0361054f610a11565b165f526005602052602060ff60405f2054166040519015158152f35b34610107576020366003190112610107575f60043561058e600160065414610aeb565b600260065561059e811515610c2e565b33825260016020526105b68160408420541015610bd5565b3382526001602052604082206105cd828254610bb4565b90556105da818354610bb4565b82556040519081525f516020610c6f5f395f51905f5260203392a36001600655005b3461010757604036600319011261010757610615610a11565b60243590610627600160065414610aeb565b6002600655335f52600460205260ff60405f205416156106db576001600160a01b03169081156106a1575f516020610c6f5f395f51905f5260208261066e5f941515610c2e565b610679818554610c21565b84558484526001825260408420610691828254610c21565b9055604051908152a36001600655005b60405162461bcd60e51b8152602060048201526012602482015271675553443a206d696e7420746f207a65726f60701b6044820152606490fd5b60405162461bcd60e51b815260206004820152601060248201526f33aaa9a21d103737ba1036b4b73a32b960811b6044820152606490fd5b34610107575f36600319011261010757602060405160128152f35b3461010757606036600319011261010757610747610a11565b61074f610a27565b5f516020610c6f5f395f51905f52602060443592610771600160065414610aeb565b60026006556001600160a01b03169361078b851515610b23565b6001600160a01b03165f81815260028352604080822033835284529020549093908160018201610816575b5050835f52600182526107cf8160405f20541015610bd5565b835f526001825260405f206107e5828254610bb4565b9055845f526001825260405f206107fd828254610c21565b9055604051908152a36001600655602060405160018152f35b8161042382610826941015610b68565b5f858152600284526040808220338352855290205585816107b6565b34610107575f3660031901126101075760205f54604051908152f35b346101075760207fd28dc1379d750c7c8137c7ef7b074f62f1361b9becc7f9d77d8c0d6e46a3cd0661088f36610a3d565b92906108a660018060a01b03600354163314610a6c565b6001600160a01b0316926108bb841515610aaa565b835f52600582526101d88160405f209060ff801983541691151516179055565b34610107576040366003190112610107576108f4610a11565b6001600160a01b0316602435811561095557335f52600260205260405f20825f526020528060405f20556040519081527f8c5be1e5ebec7d5bd14f71427d1e84f3dd0314c0f7b2291e5b200ac8c7c3b92560203392a3602060405160018152f35b60405162461bcd60e51b8152602060048201526015602482015274675553443a20617070726f766520746f207a65726f60581b6044820152606490fd5b34610107575f36600319011261010757604051604081019080821067ffffffffffffffff83111761032b5761032791604052600e81526d11dbdbd9111bdb1b185c881554d160921b6020820152604051918291825b602060409281835280519182918282860152018484015e5f828201840152601f01601f1916010190565b600435906001600160a01b038216820361010757565b602435906001600160a01b038216820361010757565b6040906003190112610107576004356001600160a01b0381168103610107579060243580151581036101075790565b15610a7357565b60405162461bcd60e51b815260206004820152600f60248201526e33aaa9a21d103737ba1030b236b4b760891b6044820152606490fd5b15610ab157565b60405162461bcd60e51b8152602060048201526012602482015271675553443a207a65726f206164647265737360701b6044820152606490fd5b15610af257565b60405162461bcd60e51b81526020600482015260096024820152681499595b9d1c985b9d60ba1b6044820152606490fd5b15610b2a57565b60405162461bcd60e51b8152602060048201526016602482015275675553443a207472616e7366657220746f207a65726f60501b6044820152606490fd5b15610b6f57565b60405162461bcd60e51b815260206004820152601c60248201527f675553443a20696e73756666696369656e7420616c6c6f77616e6365000000006044820152606490fd5b91908203918211610bc157565b634e487b7160e01b5f52601160045260245ffd5b15610bdc57565b60405162461bcd60e51b815260206004820152601a60248201527f675553443a20696e73756666696369656e742062616c616e63650000000000006044820152606490fd5b91908201809211610bc157565b15610c3557565b60405162461bcd60e51b815260206004820152601160248201527019d554d10e881e995c9bc8185b5bdd5b9d607a1b6044820152606490fdfeddf252ad1be2c89b69c2b068fc378daa952ba7f163c4a11628f55a4df523b3efa26469706673582212200d3362da47978b4f29b974aae68037833ce6bdf73771e37ea308530e211c953b64736f6c63430008210033000000000000000000000000f39fd6e51aad88f6f4ce6ab8827279cfffb92266",
        "nonce": "0x4be",
        "chainId": "0xa455"
      },
      "additionalContracts": [],
      "isFixedGasLimit": false
    },
    {
      "hash": "0x88f115b669d101989a42d6e6026c2ab05c10203d1264f23e89b78de11a916800",
      "transactionType": "CREATE",
      "contractName": "MockUBIFeeSplitter",
      "contractAddress": "0x06faddefde8dd5d4c6faace68b400754d960cb75",
      "function": null,
      "arguments": [
        "0x1e86fCe4d102A5924A9EF503f772fCA162Af2067"
      ],
      "transaction": {
        "from": "0xf39fd6e51aad88f6f4ce6ab8827279cfffb92266",
        "gas": "0x502e9",
        "value": "0x0",
        "input": "0x60a034606c57601f61041838819003918201601f19168301916001600160401b03831184841017607057808492602094604052833981010312606c57516001600160a01b0381168103606c5760805260405161039390816100858239608051818181606801526102510152f35b5f80fd5b634e487b7160e01b5f52604160045260245ffdfe6080806040526004361015610012575f80fd5b5f3560e01c90816364d6def9146101f9575080637cb4eea2146100d4578063a3c2c462146100b8578063d91492d21461009b5763fc0c546a14610053575f80fd5b34610097575f366003190112610097576040517f00000000000000000000000000000000000000000000000000000000000000006001600160a01b03168152602090f35b5f80fd5b34610097575f366003190112610097576020600154604051908152f35b34610097575f3660031901126100975760205f54604051908152f35b34610097576060366003190112610097576004356100f061027a565b506044356001600160a01b0381168103610097576040516323b872dd60e01b602082019081523360248301523060448301526064820184905261015d925f92839290839061014b81608481015b03601f198101835282610290565b51925af16101576102c6565b50610305565b610d058102811590828104610d05148217156101e5576127109004906106838302908382046106831417156101e5576127106101e19104926101c26101ab856101a68685610343565b610343565b916101b885600154610350565b6001555f54610350565b5f55604051938493846040919493926060820195825260208201520152565b0390f35b634e487b7160e01b5f52601160045260245ffd5b346100975760403660031901126100975761015d5f806004359361021b61027a565b506323b872dd60e01b60208201908152336024830152306044830152606482018690529061024c816084810161013d565b5190827f00000000000000000000000000000000000000000000000000000000000000005af16101576102c6565b602435906001600160a01b038216820361009757565b90601f8019910116810190811067ffffffffffffffff8211176102b257604052565b634e487b7160e01b5f52604160045260245ffd5b3d15610300573d9067ffffffffffffffff82116102b257604051916102f5601f8201601f191660200184610290565b82523d5f602084013e565b606090565b1561030c57565b60405162461bcd60e51b815260206004820152600f60248201526e199959481c1d5b1b0819985a5b1959608a1b6044820152606490fd5b919082039182116101e557565b919082018092116101e55756fea264697066735822122038ee66013e7e6b7b0a54b16e1fe2684f84853e6ccd79b5061698346c9cf33f8a64736f6c634300082100330000000000000000000000001e86fce4d102a5924a9ef503f772fca162af2067",
        "nonce": "0x4bf",
        "chainId": "0xa455"
      },
      "additionalContracts": [],
      "isFixedGasLimit": false
    },
    {
      "hash": "0x8c08d864913d8ed3aed33ebe4a69ee66e1e8becf7e5c89592a60a774bfedfc85",
      "transactionType": "CREATE",
      "contractName": "CollateralRegistry",
      "contractAddress": "0xf334cc3649c999aa6e0ca85001db97c0aac4a0f4",
      "function": null,
      "arguments": [
        "0xf39Fd6e51aad88F6F4ce6aB8827279cffFb92266",
        "0x64Ed22277402f01f3AD382270B419b9F5e87F4c4",
        "0xa571c8B59D51f87d76E55f496A71A27B950d29c8",
        "0x8C2399346beA56A5FC4a5830D6C7Ee34a7d8DE4b"
      ],
      "transaction": {
        "from": "0xf39fd6e51aad88f6f4ce6ab8827279cfffb92266",
        "gas": "0x1639e3",
        "value": "0x0",
        "input": "0x6080604052346107dd57604051601f6110d138819003918201601f19168301916001600160401b0383118484101761073f578084926080946040528339810103126107dd5761004d81610800565b9061005a60208201610800565b610072606061006b60408501610800565b9301610800565b926001600160a01b03168015610798575f80546001600160a01b0319169190911781556208aa8960eb1b905260036020525f5160206110b15f395f51905f525460ff16610753576102306100c46107e1565b6001600160a01b039283168082526714d1120d7b16000060208084019182526701cdda4faccd00006040850190815269d3c21bcecceda1000000606086019081526b033b2e3ca88761c9983cdc0660808701908152600160a088019081526208aa8960eb1b5f52600290945295517fd9402e47e68a5154d8f9cdc9d4ffcf4a300546026372c3b04224fbe62656c6018054919099166001600160a01b03199091161790975591517fd9402e47e68a5154d8f9cdc9d4ffcf4a300546026372c3b04224fbe62656c6025590517fd9402e47e68a5154d8f9cdc9d4ffcf4a300546026372c3b04224fbe62656c6035593517fd9402e47e68a5154d8f9cdc9d4ffcf4a300546026372c3b04224fbe62656c6045590517fd9402e47e68a5154d8f9cdc9d4ffcf4a300546026372c3b04224fbe62656c6055591517fd9402e47e68a5154d8f9cdc9d4ffcf4a300546026372c3b04224fbe62656c606805460ff191691151560ff16919091179055565b6208aa8960eb1b5f5260036020525f5160206110b15f395f51905f52805460ff19166001908117909155546801000000000000000081101561073f57600181018060015581101561072b5760015f526208aa8960eb1b5f5160206110715f395f51905f52909101819055604080519283526714d1120d7b160000602084015290915f5160206110915f395f51905f529190a26111d160f21b5f5260036020525f5160206110315f395f51905f525460ff166107535761045b6102f06107e1565b6001600160a01b03928316808252671bc16d674ec800006020808401918252670214e8348c4f0000604085019081526969e10de76676d0800000606086019081526b033b2e3cad042cdf3cd0635460808701908152600160a088019081526111d160f21b5f52600290945295517f51ad335b9c1bfbc41734cb4ba99a217db2c0eab320f85383a3fa8695e01e16f58054919099166001600160a01b03199091161790975591517f51ad335b9c1bfbc41734cb4ba99a217db2c0eab320f85383a3fa8695e01e16f65590517f51ad335b9c1bfbc41734cb4ba99a217db2c0eab320f85383a3fa8695e01e16f75593517f51ad335b9c1bfbc41734cb4ba99a217db2c0eab320f85383a3fa8695e01e16f85590517f51ad335b9c1bfbc41734cb4ba99a217db2c0eab320f85383a3fa8695e01e16f95591517f51ad335b9c1bfbc41734cb4ba99a217db2c0eab320f85383a3fa8695e01e16fa805460ff191691151560ff16919091179055565b6111d160f21b5f5260036020525f5160206110315f395f51905f52805460ff19166001908117909155546801000000000000000081101561073f57600181018060015581101561072b5760015f526111d160f21b5f5160206110715f395f51905f5290910181905560408051928352671bc16d674ec80000602084015290915f5160206110915f395f51905f529190a2635553444360e01b5f5260036020525f5160206110515f395f51905f525460ff166107535761068861051b6107e1565b6001600160a01b03928316808252670e043da6172500006020808401918252662386f26fc10000604085019081526a084595161401484a000000606086019081526b033b2e3ca2026060221a219260808701908152600160a08801908152635553444360e01b5f52600290945295517fe1b832f4cd54a115ddce65d9da7c8d553103a217be87cd651ea7f31e4eebaefd8054919099166001600160a01b03199091161790975591517fe1b832f4cd54a115ddce65d9da7c8d553103a217be87cd651ea7f31e4eebaefe5590517fe1b832f4cd54a115ddce65d9da7c8d553103a217be87cd651ea7f31e4eebaeff5593517fe1b832f4cd54a115ddce65d9da7c8d553103a217be87cd651ea7f31e4eebaf005590517fe1b832f4cd54a115ddce65d9da7c8d553103a217be87cd651ea7f31e4eebaf015591517fe1b832f4cd54a115ddce65d9da7c8d553103a217be87cd651ea7f31e4eebaf02805460ff191691151560ff16919091179055565b635553444360e01b5f5260036020525f5160206110515f395f51905f52805460ff19166001908117909155546801000000000000000081101561073f57600181018060015581101561072b5760015f52635553444360e01b5f5160206110715f395f51905f5290910181905560408051928352670e043da617250000602084015290915f5160206110915f395f51905f529190a260405161081c90816108158239f35b634e487b7160e01b5f52603260045260245ffd5b634e487b7160e01b5f52604160045260245ffd5b60405162461bcd60e51b815260206004820152601460248201527f52656769737472793a20696c6b206578697374730000000000000000000000006044820152606490fd5b60405162461bcd60e51b815260206004820152601460248201527f52656769737472793a207a65726f2061646d696e0000000000000000000000006044820152606490fd5b5f80fd5b6040519060c082016001600160401b0381118382101761073f57604052565b51906001600160a01b03821682036107dd5756fe60806040526004361015610011575f80fd5b5f3560e01c806306fe274d1461064e578063552033c41461064e5780636a1460241461062c5780636dd5b69d1461054b57806375829def146104955780637da4882e146103d657806386a3862b146103a75780639d23b35f1461036f578063afaea5cf146102d2578063b64e0001146102b5578063d929fe7b146100c85763f851a4401461009d575f80fd5b346100c4575f3660031901126100c4575f546040516001600160a01b039091168152602090f35b5f80fd5b346100c45760c03660031901126100c4576004356024356001600160a01b038116908190036100c4576044359060a43561010c60018060a01b035f5416331461070c565b835f52600360205260ff60405f205416610279576101e490610138670de0b6b3a764000085101561074e565b6101506b033b2e3c9fd0803ce800000082101561079a565b600561015a6106a0565b918483526020830190868252604084016064358152606085019060843582526080860192835260a0860193600185528a5f52600260205260405f209660018060a01b039051166bffffffffffffffffffffffff60a01b88541617875551600187015551600286015551600385015551600484015551151591019060ff801983541691151516179055565b825f52600360205260405f20600160ff198254161790556001549068010000000000000000821015610265577fab8ac0e1bd8ac03ac9df93028bd29e1972d82acd99a159a07ac48bcd2b022cbe9261024483600160409501600155610674565b81549060031b9087821b915f19901b191617905582519182526020820152a2005b634e487b7160e01b5f52604160045260245ffd5b60405162461bcd60e51b815260206004820152601460248201527352656769737472793a20696c6b2065786973747360601b6044820152606490fd5b346100c4575f3660031901126100c4576020600154604051908152f35b346100c45760403660031901126100c457600435602435801515908181036100c4577f1fe409d485d3e152a677dfe4363f46aa10af58db9e2d5a1906e74264b27f2b2a9161036660209261033060018060a01b035f5416331461070c565b855f526003845261034760ff60405f2054166106c0565b855f5260028452600560405f20019060ff801983541691151516179055565b604051908152a2005b346100c45760203660031901126100c4576004356001548110156100c457610398602091610674565b90549060031b1c604051908152f35b346100c45760203660031901126100c4576004355f526003602052602060ff60405f2054166040519015158152f35b346100c45760a03660031901126100c45760043560243560046084359161040760018060a01b035f5416331461070c565b835f52600360205261041f60ff60405f2054166106c0565b610433670de0b6b3a764000082101561074e565b61044b6b033b2e3c9fd0803ce800000084101561079a565b835f52600260205260405f209060018201556044356002820155606435600382015501557f0cc993b15fc5afe9385b1249b7f1bd98ace3df370e89b94e1c3328d0e329e0455f80a2005b346100c45760203660031901126100c4576004356001600160a01b038116908190036100c4575f546001600160a01b0381166104d233821461070c565b821561050d5782907ff8ccb027dfcd135e000e9d45e6cc2d662578a8825d4c45b5e32e0adf67e79ec65f80a36001600160a01b031916175f55005b60405162461bcd60e51b815260206004820152601660248201527552656769737472793a207a65726f206164647265737360501b6044820152606490fd5b346100c45760203660031901126100c4576004355f60a061056a6106a0565b8281528260208201528260408201528260608201528260808201520152805f52600360205261059f60ff60405f2054166106c0565b5f52600260205260c060405f206105b46106a0565b60018060a01b03825416918282526001810154602083019081526002820154604084019081526003830154916060850192835260a060ff6005600487015496608089019788520154169501941515855260405195865251602086015251604085015251606084015251608083015251151560a0820152f35b346100c4575f3660031901126100c4576020604051670de0b6b3a76400008152f35b346100c4575f3660031901126100c45760206040516b033b2e3c9fd0803ce80000008152f35b60015481101561068c5760015f5260205f2001905f90565b634e487b7160e01b5f52603260045260245ffd5b6040519060c0820182811067ffffffffffffffff82111761026557604052565b156106c757565b60405162461bcd60e51b815260206004820152601760248201527f52656769737472793a20696c6b206e6f7420666f756e640000000000000000006044820152606490fd5b1561071357565b60405162461bcd60e51b81526020600482015260136024820152722932b3b4b9ba393c9d103737ba1030b236b4b760691b6044820152606490fd5b1561075557565b60405162461bcd60e51b815260206004820152601760248201527f52656769737472793a20726174696f2062656c6f7720310000000000000000006044820152606490fd5b156107a157565b60405162461bcd60e51b815260206004820152601c60248201527f52656769737472793a2066656520726174652062656c6f7720524159000000006044820152606490fdfea2646970667358221220a71fbb426a5c78ab229d821f155dda660074e7a7aa670f7ce57c23990ac32dd764736f6c63430008210033d1420b98fa8afc26b982107a255caa30f9329b3a404658edf1e695ae25bce036acb22bafd1ef6e02894947a1fd190769ebf1f0739eb9e7f1feaa66870379637ab10e2d527612073b26eecdfd717e6a320cf44b4afac2b0732d9fcbe2b7fa0cf6ab8ac0e1bd8ac03ac9df93028bd29e1972d82acd99a159a07ac48bcd2b022cbeb88c0ea72901a5cbd9418ec92b4fe479ea97c0ee8cacdc49e96d11aff3a45dc7000000000000000000000000f39fd6e51aad88f6f4ce6ab8827279cfffb9226600000000000000000000000064ed22277402f01f3ad382270b419b9f5e87f4c4000000000000000000000000a571c8b59d51f87d76e55f496a71a27b950d29c80000000000000000000000008c2399346bea56a5fc4a5830d6c7ee34a7d8de4b",
        "nonce": "0x4c0",
        "chainId": "0xa455"
      },
      "additionalContracts": [],
      "isFixedGasLimit": false
    },
    {
      "hash": "0xb82bac007a42037de69c7ce07291866b775a2841f99f92f0e86c2958322f5f8d",
      "transactionType": "CREATE",
      "contractName": "VaultManager",
      "contractAddress": "0x21432f2f86d056d1f4ee99ec81758042c9588d03",
      "function": null,
      "arguments": [
        "0x1e86fCe4d102A5924A9EF503f772fCA162Af2067",
        "0xf334cC3649C999aA6E0ca85001db97c0aaC4A0f4",
        "0x087756051DFF01d59d7f51A88975D59a9230FD69",
        "0x06fAddefDE8Dd5d4C6FAACe68b400754d960cb75",
        "0xf39Fd6e51aad88F6F4ce6aB8827279cffFb92266",
        "0xf39Fd6e51aad88F6F4ce6aB8827279cffFb92266"
      ],
      "transaction": {
        "from": "0xf39fd6e51aad88f6f4ce6ab8827279cfffb92266",
        "gas": "0x2e3421",
        "value": "0x0",
        "input": "0x6101003461032357601f612b1638819003918201601f19168301916001600160401b038311848410176103275780849260c094604052833981010312610323576100488161033b565b6100546020830161033b565b916100616040820161033b565b61006d6060830161033b565b9061008660a061007f6080860161033b565b940161033b565b60016006556001600160a01b039094169485156102ee576001600160a01b03169081156102b5576001600160a01b031691821561027e576001600160a01b0316928315610245576001600160a01b0316938415610200576001600160a01b03169485156101ca5760805260a05260c05260e05260018060a01b0319600254161760025560018060a01b031960015416176001556040516127c6908161035082396080518181816104d501528181610b0701528181610ee10152818161130b0152818161167c0152611be2015260a0518181816101940152818161037301528181610605015281816108a201528181610c1101528181610cea015281816111ed015281816119a001528181611b4301528181611f80015261236c015260c051818181610bcc01528181611fd601526123c2015260e0518181816110dd0152611c570152f35b60405162461bcd60e51b815260206004820152600e60248201526d2b269d103d32b9379030b236b4b760911b6044820152606490fd5b60405162461bcd60e51b815260206004820152601760248201527f564d3a207a65726f206441707020726563697069656e740000000000000000006044820152606490fd5b60405162461bcd60e51b81526020600482015260116024820152702b269d103d32b9379039b83634ba3a32b960791b6044820152606490fd5b60405162461bcd60e51b815260206004820152600f60248201526e564d3a207a65726f206f7261636c6560881b6044820152606490fd5b60405162461bcd60e51b8152602060048201526011602482015270564d3a207a65726f20726567697374727960781b6044820152606490fd5b60405162461bcd60e51b815260206004820152600d60248201526c15934e881e995c9bc819d554d1609a1b6044820152606490fd5b5f80fd5b634e487b7160e01b5f52604160045260245ffd5b51906001600160a01b03821682036103235756fe6080806040526004361015610012575f80fd5b5f905f3560e01c908163048c661d1461180857508063050296e9146117ea57806316c38b3c146117985780631c5d3796146115665780632e5f62a01461153c5780633363b7d9146114fa57806344e2a5a8146114da5780634627e7c01461148c578063468c9bd1146111875780634afa3af714611158578063552033c4146111325780635c975abb1461110c5780636052970c146110c75780636a146024146110a457806375829def1461104c578063771b51d214610c405780637b10399914610bfb5780637dc0d1d014610bb657806381845f6314610b365780638c87ee9014610af157806393991a9314610ac857806398d721e014610a48578063a1e9348214610806578063abaf0042146107a8578063dea9b464146105a8578063e0537cee14610274578063f851a4401461024b5763fab9bd5e14610152575f80fd5b346102485760203660031901126102485760043561017860ff60025460a01c1615611e4b565b604051636dd5b69d60e01b81526004810182905260c0816024817f00000000000000000000000000000000000000000000000000000000000000006001600160a01b03165afa90811561023d576101dd9160a091859161020e575b5001511515611ec2565b6101e681611afc565b337f1b3a3b641448ea38df4f27c3b71159ff387dfd96db4bfa0678a500dff874eb618380a380f35b610230915060c03d60c011610236575b610228818361186c565b8101906118af565b5f6101d3565b503d61021e565b6040513d85823e3d90fd5b80fd5b50346102485780600319360112610248576001546040516001600160a01b039091168152602090f35b503461024857602036600319011261024857600435610297600160065414611ab7565b60026006556102ae60ff60025460a01c1615611e4b565b6102b781611afc565b808252600360209081526040808420335f908152908352819020838552600490925283208054806105a25750676765c793fa10079d601b1b905b6001830190815492676765c793fa10079d601b1b61030f8286611936565b0493878561049a575b94505050505081549182610356575b5082337f45741dfe35116d540a34618f113e41a5092e64d6b09a503ede64ff9058a0e6058380a3600160065580f35b55604051636dd5b69d60e01b81526004810183905260c0816024817f00000000000000000000000000000000000000000000000000000000000000006001600160a01b03165afa90811561047057849161047b575b505160405163a9059cbb60e01b81523360048201526024810183905291906020908390604490829088906001600160a01b03165af18015610470578392859161042d575b506103f99061211e565b6040519081527fe69cdf29a59dd324317b598bee3a9ed1fcffb99cc506db72633ed07b59dc6d0460203392a35f8281610327565b9250506020823d602011610468575b816104496020938361186c565b81010312610464576103f961045e84936118a2565b906103ef565b8380fd5b3d915061043c565b6040513d86823e3d90fd5b610494915060c03d60c01161023657610228818361186c565b5f6103ab565b676765c793fa10079d601b1b946104b960026104c29601938454611929565b83555554611936565b84865260056020526040862091900490557f00000000000000000000000000000000000000000000000000000000000000006001600160a01b031690813b1561059e5760405163079cc67960e41b81523360048201526024810182905291859081908490604490829084905af1928315610591578593610576575b50506040519081527f8293a3003da468402b46b778420ac0fa8c2291bed4eeb36f56768a9d2220be7660203392a35f8080808087610318565b81929350906105849161186c565b610464578290845f61053d565b50604051903d90823e3d90fd5b8480fd5b906102f1565b5034610248576105b73661182a565b6105c5600160065414611ab7565b60026006556105dc60ff60025460a01c1615611e4b565b6105e7811515611e84565b604051636dd5b69d60e01b815260048101839052839060c0816024817f00000000000000000000000000000000000000000000000000000000000000006001600160a01b03165afa801561079d57602091839161077e575b5061064f60a08201511515611ec2565b61065885611afc565b516040516323b872dd60e01b81523360048201523060248201526044810185905292839160649183916001600160a01b03165af1908115610470578491610744575b50156106ff5781835260036020526040832060018060a01b0333165f5260205260405f206106c9828254611aef565b90556040519081527f88df26d296ecbf594c8609f433503d1436d24afe03c0d9e5e29c8f6ed92ef9b460203392a3600160065580f35b60405162461bcd60e51b815260206004820152601e60248201527f564d3a20636f6c6c61746572616c207472616e73666572206661696c656400006044820152606490fd5b90506020813d602011610776575b8161075f6020938361186c565b8101031261046457610770906118a2565b5f61069a565b3d9150610752565b610797915060c03d60c01161023657610228818361186c565b5f61063f565b6040513d84823e3d90fd5b5034610248576020366003190112610248576107c2611856565b6107d760018060a01b03600154163314611a7b565b6001600160a01b03166107eb8115156120df565b6bffffffffffffffffffffffff60a01b600254161760025580f35b5034610248576108153661182a565b610823600160065414611ab7565b600260065561083a60ff60025460a01c1615611e4b565b610845811515611e84565b61084e82611afc565b818352600360209081526040808520335f908152925290208054828110610a03578261087991611929565b815560018101546109b3575b50604051636dd5b69d60e01b81526004810183905260c0816024817f00000000000000000000000000000000000000000000000000000000000000006001600160a01b03165afa908115610470578491610994575b505160405163a9059cbb60e01b815233600482015260248101839052906020908290604490829088906001600160a01b03165af18015610470578490610959575b610925915061211e565b6040519081527fe69cdf29a59dd324317b598bee3a9ed1fcffb99cc506db72633ed07b59dc6d0460203392a3600160065580f35b506020813d60201161098c575b816109736020938361186c565b8101031261046457610987610925916118a2565b61091b565b3d9150610966565b6109ad915060c03d60c01161023657610228818361186c565b5f6108da565b6109bd908361230f565b156109c8575f610885565b60405162461bcd60e51b8152602060048201526013602482015272564d3a207661756c7420756e6865616c74687960681b6044820152606490fd5b60405162461bcd60e51b815260206004820152601b60248201527f564d3a20696e73756666696369656e7420636f6c6c61746572616c00000000006044820152606490fd5b5034610248576020366003190112610248577f51f43ead43c9a90d53ec229fbf48feb76b24efa7a147089ad9ed34ad384a94d36020610a85611856565b610a9a60018060a01b03600154163314611a7b565b6001600160a01b0316610aae8115156120df565b83546001600160a01b03191681178455604051908152a180f35b50346102485780600319360112610248576002546040516001600160a01b039091168152602090f35b50346102485780600319360112610248576040517f00000000000000000000000000000000000000000000000000000000000000006001600160a01b03168152602090f35b503461024857604036600319011261024857676765c793fa10079d601b1b610ba460209260043590610b66611840565b8282526003865260408083206001600160a01b039092165f908152918752908190209282526004865290205480610bad5750600183915b0154611936565b04604051908152f35b60019091610b9d565b50346102485780600319360112610248576040517f00000000000000000000000000000000000000000000000000000000000000006001600160a01b03168152602090f35b50346102485780600319360112610248576040517f00000000000000000000000000000000000000000000000000000000000000006001600160a01b03168152602090f35b503461024857604036600319011261024857600435610c5d611840565b610c6b600160065414611ab7565b6002600655610c8260ff60025460a01c1615611e4b565b6001600160a01b0316801561101657610c9a82611afc565b818352600360205260408320815f5260205260405f2060018101908154908115610fd957610cc8818661230f565b610f9d57604051636dd5b69d60e01b815260048101869052869160c0826024817f00000000000000000000000000000000000000000000000000000000000000006001600160a01b03165afa91821561023d578392610f6b575b50610d78676765c793fa10079d601b1b918885526004602052604085209585875480155f14610f65575084925b8186610d5b8686611936565b049a610d6e600284549c01958654611929565b8555555554611936565b8784526005602052604084209190049055516001600160a01b0316610dae610db5610da5838987896125cc565b86939193611929565b9186611929565b80610edf575b5080610dfe575b50505060405191825260208201527f4ecef300dc49115373f12d5ca31f017d1104f91d9fefeda602a1c42550af910960403392a4600160065580f35b60405163a9059cbb60e01b815233600482015260248101919091529160209183916044918391905af1908115610ed4578691610e96575b5015610e4357845f80610dc2565b60405162461bcd60e51b815260206004820152602560248201527f564d3a206c697175696461746f7220636f6c6c61746572616c2073656e642066604482015264185a5b195960da1b6064820152608490fd5b90506020813d602011610ecc575b81610eb16020938361186c565b81010312610ec857610ec2906118a2565b5f610e35565b8580fd5b3d9150610ea4565b6040513d88823e3d90fd5b7f00000000000000000000000000000000000000000000000000000000000000006001600160a01b0316803b1561059e5760405163079cc67960e41b8152336004820152602481019290925284908290604490829084905af1908115610470578491610f4c575b50610dbb565b81610f569161186c565b610f6157825f610f46565b8280fd5b92610d4f565b676765c793fa10079d601b1b919250610f95610d789160c03d60c01161023657610228818361186c565b929150610d22565b60405162461bcd60e51b8152602060048201526014602482015273564d3a207661756c74206973206865616c74687960601b6044820152606490fd5b60405162461bcd60e51b815260206004820152601560248201527415934e881d985d5b1d081a185cc81b9bc81919589d605a1b6044820152606490fd5b60405162461bcd60e51b815260206004820152600e60248201526d2b269d103d32b9379037bbb732b960911b6044820152606490fd5b503461024857602036600319011261024857611066611856565b6001549061107e336001600160a01b03841614611a7b565b6001600160a01b0316906110938215156120df565b6001600160a01b0319161760015580f35b50346102485780600319360112610248576020604051670de0b6b3a76400008152f35b50346102485780600319360112610248576040517f00000000000000000000000000000000000000000000000000000000000000006001600160a01b03168152602090f35b5034610248578060031936011261024857602060ff60025460a01c166040519015158152f35b50346102485780600319360112610248576020604051676765c793fa10079d601b1b8152f35b503461024857604036600319011261024857602061117f611177611840565b600435611f03565b604051908152f35b5034610248576111963661182a565b6111a4600160065414611ab7565b60026006556111bb60ff60025460a01c1615611e4b565b80156111c78115611e84565b6111d083611afc565b604051636dd5b69d60e01b8152600481018490529060c0826024817f00000000000000000000000000000000000000000000000000000000000000006001600160a01b03165afa918215611481578592611460575b5061123560a08301511515611ec2565b83855260046020526040852090815480155f1461145a5750676765c793fa10079d601b1b905b676765c793fa10079d601b1b850290858204676765c793fa10079d601b1b141715611446576112e28261129c606094676765c793fa10079d601b1b94611949565b888a52600360205260408a2060018060a01b0333165f526020526112da600260405f2097600189016112cf858254611aef565b905501918254611aef565b809155611936565b0492015182116114015761130391848652600560205260408620558361230f565b156113bc57827f00000000000000000000000000000000000000000000000000000000000000006001600160a01b0316803b156113b8576040516340c10f1960e01b8152336004820152602481018490529082908290604490829084905af1801561079d576113a3575b50506040519081527f7ee657a21ac7f39b81c23a6f713ab60c53f4c04479e9a7847c08e2bc69862e8060203392a3600160065580f35b816113ad9161186c565b610f6157825f61136d565b5080fd5b60405162461bcd60e51b815260206004820152601c60248201527f564d3a20636f6c6c61746572616c20726174696f20746f6f206c6f77000000006044820152606490fd5b60405162461bcd60e51b815260206004820152601960248201527f564d3a2064656274206365696c696e67206578636565646564000000000000006044820152606490fd5b634e487b7160e01b87526011600452602487fd5b9061125b565b61147a91925060c03d60c01161023657610228818361186c565b905f611225565b6040513d87823e3d90fd5b50346102485760403660031901126102485760406114a8611840565b9160043581526003602052209060018060a01b03165f526020526040805f206001815491015482519182526020820152f35b5034610248576020366003190112610248576114f7600435611afc565b80f35b50346102485760203660031901126102485760406060916004358152600460205220805490600260018201549101549060405192835260208301526040820152f35b50346102485760203660031901126102485760406020916004358152600583522054604051908152f35b503461172b576115753661182a565b611583600160065414611ab7565b60026006558061159283611afc565b825f52600360205260405f2060018060a01b0333165f5260205260405f20835f52600460205260405f2090815480155f1461178f57506001676765c793fa10079d601b1b915b0192835490676765c793fa10079d601b1b6115f38484611936565b04809111611787575b50841561174b57676765c793fa10079d601b1b850292858404676765c793fa10079d601b1b0361173757676765c793fa10079d601b1b946116408461166596611949565b9280841161172f575b9160029161165a856112da95611929565b905501918254611929565b04825f52600560205260405f205560018060a01b037f000000000000000000000000000000000000000000000000000000000000000016803b1561172b5760405163079cc67960e41b815233600482015260248101839052905f908290604490829084905af180156117205761170b575b506040519081527f8293a3003da468402b46b778420ac0fa8c2291bed4eeb36f56768a9d2220be7660203392a3600160065580f35b6117189193505f9061186c565b5f915f6116d6565b6040513d5f823e3d90fd5b5f80fd5b925082611649565b634e487b7160e01b5f52601160045260245ffd5b60405162461bcd60e51b8152602060048201526014602482015273564d3a206e6f7468696e6720746f20726570617960601b6044820152606490fd5b94505f6115fc565b600190916115d8565b3461172b57602036600319011261172b5760043580151580910361172b576117cb60018060a01b03600154163314611a7b565b6002805460ff60a01b191660a09290921b60ff60a01b16919091179055005b3461172b57602036600319011261172b57602061117f600435611967565b3461172b575f36600319011261172b575f546001600160a01b03168152602090f35b604090600319011261172b576004359060243590565b602435906001600160a01b038216820361172b57565b600435906001600160a01b038216820361172b57565b90601f8019910116810190811067ffffffffffffffff82111761188e57604052565b634e487b7160e01b5f52604160045260245ffd5b5190811515820361172b57565b908160c091031261172b576040519060c0820182811067ffffffffffffffff82111761188e5760405280516001600160a01b038116810361172b576119219160a091845260208101516020850152604081015160408501526060810151606085015260808101516080850152016118a2565b60a082015290565b9190820391821161173757565b8181029291811591840414171561173757565b8115611953570490565b634e487b7160e01b5f52601260045260245ffd5b805f52600460205260405f2080549182158015611a6f575b611a4157604051636dd5b69d60e01b8152600481019190915260c0816024817f00000000000000000000000000000000000000000000000000000000000000006001600160a01b03165afa908115611720575f91611a50575b506119e7600183015442611929565b8015611a4857611a0a611a10916080676765c793fa10079d601b1b9401516121a6565b84611936565b049082821115611a41576002611a35676765c793fa10079d601b1b94611a3d94611929565b910154611936565b0490565b5050505f90565b505050505f90565b611a69915060c03d60c01161023657610228818361186c565b5f6119d8565b5060028201541561197f565b15611a8257565b60405162461bcd60e51b815260206004820152600d60248201526c2b269d103737ba1030b236b4b760991b6044820152606490fd5b15611abe57565b60405162461bcd60e51b81526020600482015260096024820152681499595b9d1c985b9d60ba1b6044820152606490fd5b9190820180921161173757565b5f815f52600460205260405f2090815415611e325760018201611b20815442611929565b8015611e2b57604051636dd5b69d60e01b8152600481018690529060c0826024817f00000000000000000000000000000000000000000000000000000000000000006001600160a01b03165afa91821561172057611b8a926080915f91611e0c575b5001516121a6565b92676765c793fa10079d601b1b611ba382549586611936565b049380851115611e0257916002611bd892611bca676765c793fa10079d601b1b9588611929565b928782554290550154611936565b04908115611dce577f00000000000000000000000000000000000000000000000000000000000000006001600160a01b0316803b1561172b576040516340c10f1960e01b8152306004820152602481018490525f8160448183865af1801561172057611db9575b5060405163095ea7b360e01b81526001600160a01b037f0000000000000000000000000000000000000000000000000000000000000000166004820181905260248201859052919060208160448187865af1801561047057611d7d575b50606090606460018060a01b0360025416856040519586948593633e5a775160e11b85528a6004860152602485015260448401525af1801561079d57611d52575b50916040918284867f3b9f4ab0566d9d10726a6f7f34cdc9e4b7f03a20a878ed293de4e6ed1b4198589652600560205220611d19828254611aef565b9055847f156e588d1067ba3c8a6a7f4376ef70794f8afed114dc9d1421e054b65743e63060208551848152a282519182526020820152a2565b606090813d8311611d76575b611d68818361186c565b81010312610248575f611cdd565b503d611d5e565b6020813d602011611db1575b81611d966020938361186c565b810103126104645790611daa6060926118a2565b5090611c9c565b3d9150611d89565b611dc69192505f9061186c565b5f905f611c3f565b505060407f3b9f4ab0566d9d10726a6f7f34cdc9e4b7f03a20a878ed293de4e6ed1b4198589181519081525f6020820152a2565b5050429055505050565b611e25915060c03d60c01161023657610228818361186c565b5f611b82565b5050505050565b509050676765c793fa10079d601b1b8155600142910155565b15611e5257565b60405162461bcd60e51b815260206004820152600a60248201526915934e881c185d5cd95960b21b6044820152606490fd5b15611e8b57565b60405162461bcd60e51b815260206004820152600f60248201526e15934e881e995c9bc8185b5bdd5b9d608a1b6044820152606490fd5b15611ec957565b60405162461bcd60e51b8152602060048201526012602482015271564d3a20696c6b206e6f742061637469766560701b6044820152606490fd5b90815f52600360205260405f209060018060a01b03165f5260205260405f2090600182015480156120d157611f5b676765c793fa10079d601b1b91835f52600460205260405f205480155f146120d957508290611936565b049081156120d157604051636dd5b69d60e01b8152600481018290529260c0846024817f00000000000000000000000000000000000000000000000000000000000000006001600160a01b03165afa938415611720575f946120b0575b506040516331d98b3f60e01b815260048101929092526020826024817f00000000000000000000000000000000000000000000000000000000000000006001600160a01b03165afa918215611720575f92612079575b5091602061203561203e93670de0b6b3a764000095549060018060a01b03885116916124da565b94015190611936565b04801561207257670de0b6b3a7640000820291808304670de0b6b3a764000014901517156117375761206f91611949565b90565b50505f1990565b9150916020823d6020116120a8575b816120956020938361186c565b8101031261172b5790519091602061200e565b3d9150612088565b6120ca91945060c03d60c01161023657610228818361186c565b925f611fb8565b5050505f1990565b90611936565b156120e657565b60405162461bcd60e51b815260206004820152601060248201526f564d3a207a65726f206164647265737360801b6044820152606490fd5b1561212557565b60405162461bcd60e51b815260206004820152601a60248201527f564d3a20636f6c6c61746572616c2073656e64206661696c65640000000000006044820152606490fd5b1561217157565b60405162461bcd60e51b815260206004820152600d60248201526c72706f772f6f766572666c6f7760981b6044820152606490fd5b9190915f9080156122f25760018416156122e157805b9360011c90815b6121cc57505050565b6121ea6121d98280611936565b9180159081156122ce575b5061216a565b6b019d971e4fe8401e740000008101908181116122ba5761220d9082101561216a565b826122a657676765c793fa10079d601b1b9004908160018216612236575b5060011c90816121c3565b859350612247816122599397611936565b938115918215612292575b505061216a565b6b019d971e4fe8401e740000008201918281116117375761227c9083101561216a565b676765c793fa10079d601b1b5f9204935f61222b565b61229e91925085611949565b145f80612252565b634e487b7160e01b83526012600452602483fd5b634e487b7160e01b84526011600452602484fd5b90506122da8184611949565b145f6121e4565b676765c793fa10079d601b1b6121bc565b505090155f1461230b57676765c793fa10079d601b1b90565b5f90565b600182015480156124c157612347676765c793fa10079d601b1b91835f52600460205260405f205480155f146120d957508290611936565b049081156124c157604051636dd5b69d60e01b8152600481018290529260c0846024817f00000000000000000000000000000000000000000000000000000000000000006001600160a01b03165afa938415611720575f946124a0575b506040516331d98b3f60e01b815260048101929092526020826024817f00000000000000000000000000000000000000000000000000000000000000006001600160a01b03165afa918215611720575f92612469575b5091602061203561242193670de0b6b3a764000095549060018060a01b03885116916124da565b0490811561246257670de0b6b3a7640000810290808204670de0b6b3a7640000149015171561173757670de0b6b3a76400009161245d91611949565b101590565b5050600190565b9150916020823d602011612498575b816124856020938361186c565b8101031261172b579051909160206123fa565b3d9150612478565b6124ba91945060c03d60c01161023657610228818361186c565b925f6123a4565b505050600190565b60ff16604d811161173757600a0a90565b60405163313ce56760e01b81529192909190602090829060049082906001600160a01b03165afa8015611720575f9061258f575b60ff1690506012811015612546576012039160ff831161173757612541611a3d926120d9670de0b6b3a7640000956124c9565b611936565b601281111561257b57601119019160ff831161173757612541611a3d92612575670de0b6b3a7640000956124c9565b90611949565b50670de0b6b3a764000091611a3d91611936565b506020813d6020116125c4575b816125a96020938361186c565b8101031261172b575160ff8116810361172b5760ff9061250e565b3d915061259c565b5f8054929590949093926001600160a01b0316801561278457604051637d88209760e01b8152602081600481855afa908115611720575f91612752575b508015612745578084101561273f5750825b839781612722575b50508580151580612719575b61263a575050505050565b60405163095ea7b360e01b81526001600160a01b0390921660048301526024820152906020908290815f816044810103926001600160a01b03165af18015611720576126e2575b505f546001600160a01b031691823b1561172b5760645f9283604051958694859363742f9e7160e01b8552600485015260248401528860448401525af18015611720576126d2575b80808085611e2b565b5f6126dc9161186c565b5f6126c9565b6020813d602011612711575b816126fb6020938361186c565b8101031261172b5761270c906118a2565b612681565b3d91506126ee565b5083151561262f565b6127379297508461273291611936565b611949565b945f80612623565b9261261b565b505f965086955050505050565b90506020813d60201161277c575b8161276d6020938361186c565b8101031261172b57515f612609565b3d9150612760565b505f955085945050505056fea2646970667358221220f6019a05d257a813cbf6511645d2d78f5c1765b05f1b0ad3b8e731715f0c34ce64736f6c634300082100330000000000000000000000001e86fce4d102a5924a9ef503f772fca162af2067000000000000000000000000f334cc3649c999aa6e0ca85001db97c0aac4a0f4000000000000000000000000087756051dff01d59d7f51a88975d59a9230fd6900000000000000000000000006faddefde8dd5d4c6faace68b400754d960cb75000000000000000000000000f39fd6e51aad88f6f4ce6ab8827279cfffb92266000000000000000000000000f39fd6e51aad88f6f4ce6ab8827279cfffb92266",
        "nonce": "0x4c1",
        "chainId": "0xa455"
      },
      "additionalContracts": [],
      "isFixedGasLimit": false
    },
    {
      "hash": "0x7c6e6f7108e273f348ef4dbb7396becb1ec7398ae176a618e418471a2e229cfb",
      "transactionType": "CREATE",
      "contractName": "StabilityPool",
      "contractAddress": "0x85f93384bad10d7751fcc3bbd8f8710db3190700",
      "function": null,
      "arguments": [
        "0x1e86fCe4d102A5924A9EF503f772fCA162Af2067",
        "0xf39Fd6e51aad88F6F4ce6aB8827279cffFb92266"
      ],
      "transaction": {
        "from": "0xf39fd6e51aad88f6f4ce6ab8827279cfffb92266",
        "gas": "0x1d2e16",
        "value": "0x0",
        "input": "0x60a03461013657601f611a1f38819003918201601f19168301916001600160401b0383118484101761013a57808492604094855283398101031261013657610052602061004b8361014e565b920161014e565b670de0b6b3a76400006006556001600160a01b03909116908115610101576001600160a01b03169081156100cb57608052600180546001600160a01b0319169190911790556040516118bc908161016382396080518181816103420152818161074c01528181610a2e01528181610db301526111900152f35b60405162461bcd60e51b815260206004820152600e60248201526d29a81d103d32b9379030b236b4b760911b6044820152606490fd5b60405162461bcd60e51b815260206004820152600d60248201526c14d40e881e995c9bc819d554d1609a1b6044820152606490fd5b5f80fd5b634e487b7160e01b5f52604160045260245ffd5b51906001600160a01b03821682036101365756fe60806040526004361015610011575f80fd5b5f5f3560e01c80632e1a7d4d146110dc5780632e54bf95146110dc578063310599be146110985780633b5b7e3d1461106e578063484be5141461103f5780634ec18db914611022578063504758d6146110055780635f788d6514610efd5780636aebb1ab14610ce2578063742f9e711461091857806375829def146108c057806378c77a24146107c05780637d882097146107a25780638a4adf241461077b5780638c87ee9014610736578063997dc62e1461070c5780639ff55263146105b8578063aaf5eb6814610595578063b0c8033d1461055c578063b2a6b80014610523578063b543503e146104a9578063b6b55f25146102b1578063d1a294c41461027e578063d672bf5414610244578063dd3049f01461021a578063e3fc028d146101db578063f309f4d8146101bd578063f851a440146101945763fc7e286d14610159575f80fd5b34610191576020366003190112610191576020906040906001600160a01b0361018061128e565b168152600383522054604051908152f35b80fd5b50346101915780600319360112610191576001546040516001600160a01b039091168152602090f35b50346101915780600319360112610191576020600654604051908152f35b5034610191576020366003190112610191576101f9600e54156112e6565b6001600e55610207336115ee565b610213600435336116b9565b80600e5580f35b50346101915760203660031901126101915760406020916004358152600c83522054604051908152f35b50346101915760203660031901126101915760043590600b5482101561019157602061026f836112ba565b90549060031b1c604051908152f35b5034610191576020366003190112610191576020906004358152600a8252604060018060a01b0391205416604051908152f35b5034610191576020366003190112610191576004356102d2600e54156112e6565b6001600e556102e281151561131e565b6102eb336115ee565b3382526008602052604082205460075411610496575b3382526003602052604082205415610438575b6040516323b872dd60e01b81523360048201523060248201526044810182905260208180606481015b0381867f00000000000000000000000000000000000000000000000000000000000000006001600160a01b03165af1801561042d576103839184916103fe575b506113b7565b33825260036020526040822061039a828254611566565b905560065433835260056020526040832055600754338352600860205260408320556103c881600254611566565b6002556040519081527f2da466a7b24304f47e87fa2e1e5a81b9831ce54fec19055ce277ca2f39ba42c460203392a280600e5580f35b610420915060203d602011610426575b6104188183611369565b81019061139f565b5f61037d565b503d61040e565b6040513d85823e3d90fd5b600b54825b81811061044b575050610314565b806104576001926112ba565b90549060031b1c85526009602052604085205433865260046020526040862061047f836112ba565b90549060031b1c875260205260408620550161043d565b3382526003602052816040812055610301565b5034610191576020366003190112610191576104c361128e565b6104d860018060a01b03600154163314611573565b6001600160a01b03166104ec8115156115af565b81546001600160a01b031916811782557f8e902340d35762a5a36507c20fe38e5d549a721d9f846d6de7f397b5c26ab8538280a280f35b5034610191576020366003190112610191576020906040906001600160a01b0361054b61128e565b168152600883522054604051908152f35b5034610191576020366003190112610191576020906040906001600160a01b0361058461128e565b168152600583522054604051908152f35b50346101915780600319360112610191576020604051670de0b6b3a76400008152f35b5034610191576040366003190112610191576004356105d56112a4565b6105ea60018060a01b03600154163314611573565b6001600160a01b031680156106d657818352600a60205260408320546001600160a01b03161561065e575b818352600a6020908152604080852080546001600160a01b03191684179055519182527f7b02323155ee1835f3ad82fb0682024a2f6ea1380e110430fc6eb75fbffc866591a280f35b600b54680100000000000000008110156106c2577f7b02323155ee1835f3ad82fb0682024a2f6ea1380e110430fc6eb75fbffc8665916106a682600160209401600b556112ba565b81549060031b9086821b915f19901b1916179055915050610615565b634e487b7160e01b84526041600452602484fd5b60405162461bcd60e51b815260206004820152600e60248201526d29a81d103d32b937903a37b5b2b760911b6044820152606490fd5b50346101915760203660031901126101915760406020916004358152600d83522054604051908152f35b50346101915780600319360112610191576040517f00000000000000000000000000000000000000000000000000000000000000006001600160a01b03168152602090f35b5034610191578060031936011261019157546040516001600160a01b039091168152602090f35b50346101915780600319360112610191576020600254604051908152f35b5034610191576020366003190112610191576004356107e1600e54156112e6565b6001600e556107f181151561131e565b6107fa336115ee565b33825260086020526040822054600754116108ad575b338252600360205260408220541561084f576040516323b872dd60e01b815233600482015230602482015260448101829052602081806064810161033d565b600b54825b818110610862575050610314565b8061086e6001926112ba565b90549060031b1c855260096020526040852054338652600460205260408620610896836112ba565b90549060031b1c8752602052604086205501610854565b3382526003602052816040812055610810565b5034610191576020366003190112610191576108da61128e565b600154906108f2336001600160a01b03841614611573565b6001600160a01b0316906109078215156115af565b6001600160a01b0319161760015580f35b5034610b9c576060366003190112610b9c5760043560243590604435610940600e54156112e6565b6001600e555f546001600160a01b03163303610ca5578115610c70578160025410610c36575f838152600a6020526040902054610987906001600160a01b03161515611521565b5f838152600a602090815260408083205490516323b872dd60e01b81523360048201523060248201526044810185905292839160649183916001600160a01b03165af1908115610b91575f91610c17575b5015610bd25760025415610bb457670de0b6b3a76400008102818104670de0b6b3a76400001482151715610ba057600254610a129161140c565b835f526009602052610a2960405f20918254611566565b90555b7f00000000000000000000000000000000000000000000000000000000000000006001600160a01b0316803b15610b9c575f8091602460405180948193630852cd8d60e31b83528860048401525af18015610b9157610b7c575b50600254610a94838261135c565b90151580610b73575b15610af9579160409183610ae0610ad77f9f0e2e27f318babf40f39455bf2da36279d485bbb154091390dab5c7e946359e966006546113f9565b6002549061140c565b6006555b60025582519182526020820152a280600e5580f35b8015610b2b575b916040917f9f0e2e27f318babf40f39455bf2da36279d485bbb154091390dab5c7e946359e93610ae4565b6006546007548652600c602052604086205560075460018101809111610b5f57600755670de0b6b3a7640000600655610b00565b634e487b7160e01b86526011600452602486fd5b50801515610a9d565b610b899194505f90611369565b5f925f610a86565b6040513d5f823e3d90fd5b5f80fd5b634e487b7160e01b5f52601160045260245ffd5b825f52600d60205260405f20610bcb828254611566565b9055610a2c565b60405162461bcd60e51b815260206004820152601e60248201527f53503a20636f6c6c61746572616c207472616e73666572206661696c656400006044820152606490fd5b610c30915060203d602011610426576104188183611369565b5f6109d8565b60405162461bcd60e51b815260206004820152601260248201527114d40e881c1bdbdb081d1bdbc81cdb585b1b60721b6044820152606490fd5b60405162461bcd60e51b815260206004820152600d60248201526c14d40e881e995c9bc81919589d609a1b6044820152606490fd5b60405162461bcd60e51b815260206004820152601560248201527429a81d103737ba103b30bab63a1036b0b730b3b2b960591b6044820152606490fd5b34610b9c576040366003190112610b9c5760043560243567ffffffffffffffff8111610b9c5736602382011215610b9c5780600401359067ffffffffffffffff8211610b9c57602490369260051b010111610b9c57610d43600e54156112e6565b6001600e55610d5381151561131e565b610d5c336115ee565b335f52600860205260405f205460075411610eea575b335f52600360205260405f205415610e8c575b6040516323b872dd60e01b81523360048201523060248201526044810182905260208180606481015b03815f7f00000000000000000000000000000000000000000000000000000000000000006001600160a01b03165af18015610b9157610df3915f91610e6d57506113b7565b335f52600360205260405f20610e0a828254611566565b9055600654335f52600560205260405f2055600754335f52600860205260405f2055610e3881600254611566565b6002556040519081527f2da466a7b24304f47e87fa2e1e5a81b9831ce54fec19055ce277ca2f39ba42c460203392a25f600e55005b610e86915060203d602011610426576104188183611369565b8361037d565b600b545f5b818110610e9f575050610d85565b80610eab6001926112ba565b90549060031b1c5f52600960205260405f2054335f52600460205260405f20610ed3836112ba565b90549060031b1c5f5260205260405f205501610e91565b335f5260036020525f6040812055610d72565b34610b9c576040366003190112610b9c57600435610f196112a4565b50610f26600e54156112e6565b6001600e55610f3681151561131e565b610f3f336115ee565b335f52600860205260405f205460075411610ff2575b335f52600360205260405f205415610f94576040516323b872dd60e01b8152336004820152306024820152604481018290526020818060648101610dae565b600b545f5b818110610fa7575050610d85565b80610fb36001926112ba565b90549060031b1c5f52600960205260405f2054335f52600460205260405f20610fdb836112ba565b90549060031b1c5f5260205260405f205501610f99565b335f5260036020525f6040812055610f55565b34610b9c575f366003190112610b9c576020600754604051908152f35b34610b9c575f366003190112610b9c576020600254604051908152f35b34610b9c576040366003190112610b9c57602061106661105d61128e565b6024359061142a565b604051908152f35b34610b9c576020366003190112610b9c576004355f526009602052602060405f2054604051908152f35b34610b9c576040366003190112610b9c576001600160a01b036110b961128e565b165f52600460205260405f206024355f52602052602060405f2054604051908152f35b34610b9c576020366003190112610b9c576004356110fc600e54156112e6565b6001600e5561110c81151561131e565b611115336115ee565b335f52600860205260405f20546007541161123f57335f5260036020528060405f2054106111fa57335f52600360205260405f2061115482825461135c565b90556111628160025461135c565b60025560405163a9059cbb60e01b8152336004820152602481018290526020816044815f6001600160a01b037f0000000000000000000000000000000000000000000000000000000000000000165af18015610b91576111c8915f91610e6d57506113b7565b6040519081527f7084f5476618d8e60b11ef0d7d3f06914655adb8793e28ff7f018d4c76d505d560203392a25f600e55005b60405162461bcd60e51b815260206004820152601860248201527f53503a20696e73756666696369656e74206465706f73697400000000000000006044820152606490fd5b60405162461bcd60e51b815260206004820152602160248201527f53503a206465706f736974206275726e656420696e206c69717569646174696f6044820152603760f91b6064820152608490fd5b600435906001600160a01b0382168203610b9c57565b602435906001600160a01b0382168203610b9c57565b600b548110156112d257600b5f5260205f2001905f90565b634e487b7160e01b5f52603260045260245ffd5b156112ed57565b60405162461bcd60e51b81526020600482015260096024820152681499595b9d1c985b9d60ba1b6044820152606490fd5b1561132557565b60405162461bcd60e51b815260206004820152600f60248201526e14d40e881e995c9bc8185b5bdd5b9d608a1b6044820152606490fd5b91908203918211610ba057565b90601f8019910116810190811067ffffffffffffffff82111761138b57604052565b634e487b7160e01b5f52604160045260245ffd5b90816020910312610b9c57518015158103610b9c5790565b156113be57565b60405162461bcd60e51b815260206004820152601360248201527214d40e881d1c985b9cd9995c8819985a5b1959606a1b6044820152606490fd5b81810292918115918404141715610ba057565b8115611416570490565b634e487b7160e01b5f52601260045260245ffd5b6001600160a01b03165f8181526003602052604090205491821561151a57670de0b6b3a764000092826114d7935f52600560205260405f2054155f1461150857845b815f52600860205260405f205460075481105f146114ff575f52600c60205260405f20545b80156114f8575b8181036114db575b5050826114d192935f52600960205260405f2054915f52600460205260405f20905f5260205260405f20549061135c565b906113f9565b0490565b906114ec6114f1926114d1956113f9565b61140c565b915f6114a0565b5085611498565b50600654611491565b805f52600560205260405f205461146c565b5050505f90565b1561152857565b60405162461bcd60e51b815260206004820152601660248201527514d40e881a5b1ac81b9bdd081c9959da5cdd195c995960521b6044820152606490fd5b91908201809211610ba057565b1561157a57565b60405162461bcd60e51b815260206004820152600d60248201526c29a81d103737ba1030b236b4b760991b6044820152606490fd5b156115b657565b60405162461bcd60e51b815260206004820152601060248201526f53503a207a65726f206164647265737360801b6044820152606490fd5b6001600160a01b03165f818152600360205260409020549081156116b557805f52600560205260405f20549182156116a5575b815f52600860205260405f205460075481105f1461169b575f52600c60205260405f2054925b831561168b575b80840361165c575b50505050565b6114ec84611669936113f9565b815f52600360205260405f20555f52600560205260405f20555f808080611656565b670de0b6b3a7640000935061164e565b5060065492611647565b670de0b6b3a76400009250611621565b5050565b5f828152600a60205260409020546116db906001600160a01b03161515611521565b6001600160a01b0381165f818152600360205260409020549091811561185d57835f52600960205260405f205491835f52600460205260405f20855f5260205261172960405f20548461135c565b90811561185557670de0b6b3a764000091611743916113f9565b0491835f52600460205260405f20855f5260205260405f2055816117675750505050565b5f848152600a6020908152604080832054905163a9059cbb60e01b81526001600160a01b039485166004820152602481018690529391928492604492849291165af1908115610b91575f91611836575b50156117f15760207f85e429e8a0bf56d9ab471a80ddf210f520769a1bda3ee3946bab002feb6d0e8d91604051908152a35f808080611656565b60405162461bcd60e51b815260206004820152601a60248201527f53503a20636f6c6c61746572616c2073656e64206661696c65640000000000006044820152606490fd5b61184f915060203d602011610426576104188183611369565b5f6117b7565b505050505050565b505090805f52600960205260405f2054915f52600460205260405f20905f5260205260405f205556fea264697066735822122068302e5aa2e6359402296cb5fde9b9053c00087796a33f4914ad047ac6d73f7d64736f6c634300082100330000000000000000000000001e86fce4d102a5924a9ef503f772fca162af2067000000000000000000000000f39fd6e51aad88f6f4ce6ab8827279cfffb92266",
        "nonce": "0x4c2",
        "chainId": "0xa455"
      },
      "additionalContracts": [],
      "isFixedGasLimit": false
    },
    {
      "hash": "0x2026352e0ef8f1b2a29ea07838fa9b72354ef699678395e7f9ce677327d1990c",
      "transactionType": "CALL",
      "contractName": "StabilityPool",
      "contractAddress": "0x85f93384bad10d7751fcc3bbd8f8710db3190700",
      "function": "setVaultManager(address)",
      "arguments": [
        "0x21432F2F86d056D1F4Ee99eC81758042C9588D03"
      ],
      "transaction": {
        "from": "0xf39fd6e51aad88f6f4ce6ab8827279cfffb92266",
        "to": "0x85f93384bad10d7751fcc3bbd8f8710db3190700",
        "gas": "0x100af",
        "value": "0x0",
        "input": "0xb543503e00000000000000000000000021432f2f86d056d1f4ee99ec81758042c9588d03",
        "nonce": "0x4c3",
        "chainId": "0xa455"
      },
      "additionalContracts": [],
      "isFixedGasLimit": false
    },
    {
      "hash": "0x0d998f80296d99ec8a1980706a99d23e3e86fb35fe723b6f06b8735d70237fc4",
      "transactionType": "CALL",
      "contractName": "StabilityPool",
      "contractAddress": "0x85f93384bad10d7751fcc3bbd8f8710db3190700",
      "function": "registerCollateralToken(bytes32,address)",
      "arguments": [
        "0x4554480000000000000000000000000000000000000000000000000000000000",
        "0x64Ed22277402f01f3AD382270B419b9F5e87F4c4"
      ],
      "transaction": {
        "from": "0xf39fd6e51aad88f6f4ce6ab8827279cfffb92266",
        "to": "0x85f93384bad10d7751fcc3bbd8f8710db3190700",
        "gas": "0x1f42c",
        "value": "0x0",
        "input": "0x9ff55263455448000000000000000000000000000000000000000000000000000000000000000000000000000000000064ed22277402f01f3ad382270b419b9f5e87f4c4",
        "nonce": "0x4c4",
        "chainId": "0xa455"
      },
      "additionalContracts": [],
      "isFixedGasLimit": false
    },
    {
      "hash": "0x401c7f0dd77c0c9841fabbfefa2bdcae7f5230a441452a4727aaa9248ad567e7",
      "transactionType": "CALL",
      "contractName": "StabilityPool",
      "contractAddress": "0x85f93384bad10d7751fcc3bbd8f8710db3190700",
      "function": "registerCollateralToken(bytes32,address)",
      "arguments": [
        "0x4744000000000000000000000000000000000000000000000000000000000000",
        "0xa571c8B59D51f87d76E55f496A71A27B950d29c8"
      ],
      "transaction": {
        "from": "0xf39fd6e51aad88f6f4ce6ab8827279cfffb92266",
        "to": "0x85f93384bad10d7751fcc3bbd8f8710db3190700",
        "gas": "0x197d9",
        "value": "0x0",
        "input": "0x9ff552634744000000000000000000000000000000000000000000000000000000000000000000000000000000000000a571c8b59d51f87d76e55f496a71a27b950d29c8",
        "nonce": "0x4c5",
        "chainId": "0xa455"
      },
      "additionalContracts": [],
      "isFixedGasLimit": false
    },
    {
      "hash": "0x0776a56eebc5e52f5b2ce1f77006687d34b24c4245ea426b197ef3b2756cd3aa",
      "transactionType": "CALL",
      "contractName": "StabilityPool",
      "contractAddress": "0x85f93384bad10d7751fcc3bbd8f8710db3190700",
      "function": "registerCollateralToken(bytes32,address)",
      "arguments": [
        "0x5553444300000000000000000000000000000000000000000000000000000000",
        "0x8C2399346beA56A5FC4a5830D6C7Ee34a7d8DE4b"
      ],
      "transaction": {
        "from": "0xf39fd6e51aad88f6f4ce6ab8827279cfffb92266",
        "to": "0x85f93384bad10d7751fcc3bbd8f8710db3190700",
        "gas": "0x197fa",
        "value": "0x0",
        "input": "0x9ff5526355534443000000000000000000000000000000000000000000000000000000000000000000000000000000008c2399346bea56a5fc4a5830d6c7ee34a7d8de4b",
        "nonce": "0x4c6",
        "chainId": "0xa455"
      },
      "additionalContracts": [],
      "isFixedGasLimit": false
    },
    {
      "hash": "0x00e687fa8ee5b3d40b7d10b79e977c8080fc02ab1decf504562f2a88581b7d27",
      "transactionType": "CREATE",
      "contractName": "PegStabilityModule",
      "contractAddress": "0x17975fb494576ae89d627f904ec723b87c7c35c8",
      "function": null,
      "arguments": [
        "0x1e86fCe4d102A5924A9EF503f772fCA162Af2067",
        "0x8C2399346beA56A5FC4a5830D6C7Ee34a7d8DE4b",
        "0x06fAddefDE8Dd5d4C6FAACe68b400754d960cb75",
        "0xf39Fd6e51aad88F6F4ce6aB8827279cffFb92266"
      ],
      "transaction": {
        "from": "0xf39fd6e51aad88f6f4ce6ab8827279cfffb92266",
        "gas": "0x162b79",
        "value": "0x0",
        "input": "0x60e03461020757601f61148238819003918201601f19168301916001600160401b0383118484101761020b57808492608094604052833981010312610207576100478161021f565b6100536020830161021f565b9161006c60606100656040840161021f565b920161021f565b6001600160a01b039092169283156101d1576001600160a01b031690811561019b576001600160a01b0316918215610161576001600160a01b031692831561012a5760805260a05260c0525f80546001600160a01b031916919091179055600a60015560405161124e908161023482396080518181816101f1015281816108820152610b9a015260a0518181816102bc01528181610648015281816107fb0152610e52015260c05181818161038d0152818161098c0152610d2f0152f35b60405162461bcd60e51b815260206004820152600f60248201526e2829a69d103d32b9379030b236b4b760891b6044820152606490fd5b60405162461bcd60e51b81526020600482015260126024820152712829a69d103d32b9379039b83634ba3a32b960711b6044820152606490fd5b60405162461bcd60e51b815260206004820152600e60248201526d50534d3a207a65726f205553444360901b6044820152606490fd5b60405162461bcd60e51b815260206004820152600e60248201526d1414d34e881e995c9bc819d554d160921b6044820152606490fd5b5f80fd5b634e487b7160e01b5f52604160045260245ffd5b51906001600160a01b03821682036102075756fe6080806040526004361015610012575f80fd5b5f905f3560e01c90816302df9df114610f945750806316c38b3c14610f265780631a1c6e5314610f09578063215f0f9814610eee578063249d39e914610ed25780632660369314610e815780633e413bee14610e3d5780635641bc0714610e205780635c975abb14610dfe578063604b6a9c14610d5e5780636052970c14610d1a57806360c6d8ae14610cfd5780636515e5d814610ce057806375829def14610c655780637d706da014610c0d57806384891c5014610bc95780638c87ee9014610b85578063bf79ef7214610b68578063c1419def14610b4d578063cc9990171461077f578063e478795d1461057f578063eced55261461055f578063ee84f2fe1461014f5763f851a44014610126575f80fd5b3461014c578060031936011261014c57546040516001600160a01b039091168152602090f35b80fd5b503461014c57602036600319011261014c5760043561017060085415611061565b600160085561018460ff6003541615611099565b61018f8115156110d3565b61271061019e60015483611001565b046101a98183611014565b9064e8d4a510008204916101be8315156111b9565b826004541061051a576040516323b872dd60e01b8152336004820152306024820152604481018590526001600160a01b037f000000000000000000000000000000000000000000000000000000000000000016906020816064818a865af190811561050f5787916104f0575b50156104ab578591813b156104a757604051630852cd8d60e31b815260048101829052838160248183875af1908115610487578491610492575b505061027290600754611112565b60075582610376575b505061028982600454611014565b600490815560405163a9059cbb60e01b815233918101919091526024810183905291602083604481886001600160a01b037f0000000000000000000000000000000000000000000000000000000000000000165af192831561036b577f19d6baaf4008076fefde90765b8965de468a3f462d7d146e5a9d1468008c890d9361031891879161033c575b5061116d565b604080519485526020850191909152830152339180606081015b0390a28060085580f35b61035e915060203d602011610364575b610356818361111f565b810190611155565b5f610312565b503d61034c565b6040513d87823e3d90fd5b60405163095ea7b360e01b81526001600160a01b037f000000000000000000000000000000000000000000000000000000000000000016600482018190526024820185905290919060208360448187865af1918215610487576060936104159361046a575b50604051633e5a775160e11b8152600481018790523060248201526001600160a01b03909116604482015293849283919082906064820190565b03925af1801561036b5761043b575b5061043181600554611112565b600555835f61027b565b61045c9060603d606011610463575b610454818361111f565b8101906111fd565b5050610424565b503d61044a565b6104829060203d60201161036457610356818361111f565b6103db565b6040513d86823e3d90fd5b8161049c9161111f565b6104a757825f610264565b8280fd5b60405162461bcd60e51b815260206004820152601960248201527f50534d3a2067555344207472616e73666572206661696c6564000000000000006044820152606490fd5b610509915060203d60201161036457610356818361111f565b5f61022a565b6040513d89823e3d90fd5b60405162461bcd60e51b815260206004820152601a60248201527f50534d3a20696e73756666696369656e742072657365727665730000000000006044820152606490fd5b503461014c578060031936011261014c57602060405164e8d4a510008152f35b503461014c57604036600319011261014c57610599610fae565b6024356105b060018060a01b038454163314610fc4565b6105c46001600160a01b0383161515611021565b600454908181116107425760065460075490818111156107345764e8d4a51000916105ee91611014565b046105f98284611014565b106106ef576106439261060e82602094611014565b600490815560405163a9059cbb60e01b81526001600160a01b0390921690820152602481019190915291829081906044820190565b0381857f00000000000000000000000000000000000000000000000000000000000000006001600160a01b03165af19081156106e45782916106c5575b50156106895780f35b60405162461bcd60e51b81526020600482015260146024820152731414d34e881d1c985b9cd9995c8819985a5b195960621b6044820152606490fd5b6106de915060203d60201161036457610356818361111f565b5f610680565b6040513d84823e3d90fd5b60405162461bcd60e51b815260206004820152601860248201527f50534d3a20756e646572636f6c6c61746572616c697a656400000000000000006044820152606490fd5b505064e8d4a51000846105ee565b60405162461bcd60e51b815260206004820152601560248201527450534d3a206578636565647320726573657276657360581b6044820152606490fd5b5034610ae1576020366003190112610ae1576004356107a060085415611061565b60016008556107b460ff6003541615611099565b80156107c081156110d3565b60025480610af9575b506040516323b872dd60e01b8152336004820152306024820152604481018390526020816064815f6001600160a01b037f0000000000000000000000000000000000000000000000000000000000000000165af18015610ad657610833915f9161033c575061116d565b61083f82600454611112565b60045564e8d4a5100082029082820464e8d4a51000141715610ae55761087561271061086d60015484611001565b048092611014565b6108808115156111b9565b7f00000000000000000000000000000000000000000000000000000000000000006001600160a01b0316803b15610ae1576040516340c10f1960e01b8152336004820152602481018390525f8160448183865af18015610ad657610abd575b50908492916108f082600654611112565b6006558261093b575b506040805194855260208501919091528301525033907fc91682597e50d783bf81329b763263cef72b0cda71f5e617e0bd4b4150f84403908060608101610332565b803b15610ab9576040516340c10f1960e01b815230600482015260248101849052848160448183865af190811561036b578591610aa4575b505060405163095ea7b360e01b81526001600160a01b037f000000000000000000000000000000000000000000000000000000000000000016600482018190526024820185905290919060208360448189865af1918215610a9957606093610a1493610a7c575b50604051633e5a775160e11b8152600481018790523060248201526001600160a01b03909116604482015295869283919082906064820190565b03925af192831561036b577fc91682597e50d783bf81329b763263cef72b0cda71f5e617e0bd4b4150f8440393610a5d575b50610a5382600554611112565b60055584926108f9565b610a759060603d60601161046357610454818361111f565b5050610a46565b610a949060203d60201161036457610356818361111f565b6109da565b6040513d88823e3d90fd5b81610aae9161111f565b610ab957835f610973565b8380fd5b610acc91939295505f9061111f565b5f9390915f6108df565b6040513d5f823e3d90fd5b5f80fd5b634e487b7160e01b5f52601160045260245ffd5b610b0583600454611112565b11610b10575f6107c9565b60405162461bcd60e51b81526020600482015260156024820152741414d34e881cddd85c0818d85c081c995858da1959605a1b6044820152606490fd5b34610ae1575f366003190112610ae157602060405160068152f35b34610ae1575f366003190112610ae1576020600454604051908152f35b34610ae1575f366003190112610ae1576040517f00000000000000000000000000000000000000000000000000000000000000006001600160a01b03168152602090f35b34610ae1576020366003190112610ae157604060043564e8d4a51000610bff612710610bf760015485611001565b048093611014565b049082519182526020820152f35b34610ae1576020366003190112610ae1577f334538d502feb3f0c7fab3f05496f1f17cfd920a1f428b3ff468292cfb0a41046020600435610c5860018060a01b035f54163314610fc4565b80600255604051908152a1005b34610ae1576020366003190112610ae157610c7e610fae565b5f546001600160a01b03811691610c96338414610fc4565b6001600160a01b0316918290610cad821515611021565b7ff8ccb027dfcd135e000e9d45e6cc2d662578a8825d4c45b5e32e0adf67e79ec65f80a36001600160a01b031916175f55005b34610ae1575f366003190112610ae1576020600654604051908152f35b34610ae1575f366003190112610ae1576020600554604051908152f35b34610ae1575f366003190112610ae1576040517f00000000000000000000000000000000000000000000000000000000000000006001600160a01b03168152602090f35b34610ae1576020366003190112610ae157600435610d8660018060a01b035f54163314610fc4565b60c88111610dc5577fb04438781e840362c78ce8cc4b97de7afc9aaccde53ad4c035c61d532474c66060406001548151908152836020820152a1600155005b60405162461bcd60e51b81526020600482015260116024820152700a0a69a7440cccaca40e8dede40d0d2ced607b1b6044820152606490fd5b34610ae1575f366003190112610ae157602060ff600354166040519015158152f35b34610ae1575f366003190112610ae1576020600754604051908152f35b34610ae1575f366003190112610ae1576040517f00000000000000000000000000000000000000000000000000000000000000006001600160a01b03168152602090f35b34610ae1576020366003190112610ae15760043564e8d4a5100081029080820464e8d4a510001490151715610ae557604090610ec561271061086d60015484611001565b9082519182526020820152f35b34610ae1575f366003190112610ae15760206040516127108152f35b34610ae1575f366003190112610ae157602060405160128152f35b34610ae1575f366003190112610ae1576020600154604051908152f35b34610ae1576020366003190112610ae157600435801515809103610ae15760207f0e2fb031ee032dc02d8011dc50b816eb450cf856abd8261680dac74f72165bd291610f7c60018060a01b035f54163314610fc4565b60ff196003541660ff821617600355604051908152a1005b34610ae1575f366003190112610ae1576020906002548152f35b600435906001600160a01b0382168203610ae157565b15610fcb57565b60405162461bcd60e51b815260206004820152600e60248201526d2829a69d103737ba1030b236b4b760911b6044820152606490fd5b81810292918115918404141715610ae557565b91908203918211610ae557565b1561102857565b60405162461bcd60e51b815260206004820152601160248201527050534d3a207a65726f206164647265737360781b6044820152606490fd5b1561106857565b60405162461bcd60e51b81526020600482015260096024820152681499595b9d1c985b9d60ba1b6044820152606490fd5b156110a057565b60405162461bcd60e51b815260206004820152600b60248201526a1414d34e881c185d5cd95960aa1b6044820152606490fd5b156110da57565b60405162461bcd60e51b815260206004820152601060248201526f1414d34e881e995c9bc8185b5bdd5b9d60821b6044820152606490fd5b91908201809211610ae557565b90601f8019910116810190811067ffffffffffffffff82111761114157604052565b634e487b7160e01b5f52604160045260245ffd5b90816020910312610ae157518015158103610ae15790565b1561117457565b60405162461bcd60e51b815260206004820152601960248201527f50534d3a2055534443207472616e73666572206661696c6564000000000000006044820152606490fd5b156111c057565b60405162461bcd60e51b81526020600482015260156024820152741414d34e881bdd5d1c1d5d081d1bdbc81cdb585b1b605a1b6044820152606490fd5b90816060910312610ae157805191604060208301519201519056fea26469706673582212205d8c796a2ebaaa81215a2f46b506b8ff52422ecb7f3a0bb30f6d0f4a4fb2e8ed64736f6c634300082100330000000000000000000000001e86fce4d102a5924a9ef503f772fca162af20670000000000000000000000008c2399346bea56a5fc4a5830d6c7ee34a7d8de4b00000000000000000000000006faddefde8dd5d4c6faace68b400754d960cb75000000000000000000000000f39fd6e51aad88f6f4ce6ab8827279cfffb92266",
        "nonce": "0x4c7",
        "chainId": "0xa455"
      },
      "additionalContracts": [],
      "isFixedGasLimit": false
    },
    {
      "hash": "0xdecfa1a19df348434464a3bdeb39e81346ffeccb924bd44836f76b4abcebffa0",
      "transactionType": "CALL",
      "contractName": "gUSD",
      "contractAddress": "0x1e86fce4d102a5924a9ef503f772fca162af2067",
      "function": "setMinter(address,bool)",
      "arguments": [
        "0x21432F2F86d056D1F4Ee99eC81758042C9588D03",
        "true"
      ],
      "transaction": {
        "from": "0xf39fd6e51aad88f6f4ce6ab8827279cfffb92266",
        "to": "0x1e86fce4d102a5924a9ef503f772fca162af2067",
        "gas": "0x10306",
        "value": "0x0",
        "input": "0xcf456ae700000000000000000000000021432f2f86d056d1f4ee99ec81758042c9588d030000000000000000000000000000000000000000000000000000000000000001",
        "nonce": "0x4c8",
        "chainId": "0xa455"
      },
      "additionalContracts": [],
      "isFixedGasLimit": false
    },
    {
      "hash": "0x0a262524b79bf50109f07ee96707318b30e095d370ba1b81dc5d1b797e2a2641",
      "transactionType": "CALL",
      "contractName": "gUSD",
      "contractAddress": "0x1e86fce4d102a5924a9ef503f772fca162af2067",
      "function": "setMinter(address,bool)",
      "arguments": [
        "0x17975FB494576ae89D627F904Ec723B87c7C35c8",
        "true"
      ],
      "transaction": {
        "from": "0xf39fd6e51aad88f6f4ce6ab8827279cfffb92266",
        "to": "0x1e86fce4d102a5924a9ef503f772fca162af2067",
        "gas": "0x10306",
        "value": "0x0",
        "input": "0xcf456ae700000000000000000000000017975fb494576ae89d627f904ec723b87c7c35c80000000000000000000000000000000000000000000000000000000000000001",
        "nonce": "0x4c9",
        "chainId": "0xa455"
      },
      "additionalContracts": [],
      "isFixedGasLimit": false
    },
    {
      "hash": "0x091897b91173f8761b4307edfbe9cfb05aa023c777606fc46379a5028ff019ff",
      "transactionType": "CALL",
      "contractName": "gUSD",
      "contractAddress": "0x1e86fce4d102a5924a9ef503f772fca162af2067",
      "function": "setBurner(address,bool)",
      "arguments": [
        "0x21432F2F86d056D1F4Ee99eC81758042C9588D03",
        "true"
      ],
      "transaction": {
        "from": "0xf39fd6e51aad88f6f4ce6ab8827279cfffb92266",
        "to": "0x1e86fce4d102a5924a9ef503f772fca162af2067",
        "gas": "0x110a1",
        "value": "0x0",
        "input": "0x0d895ee100000000000000000000000021432f2f86d056d1f4ee99ec81758042c9588d030000000000000000000000000000000000000000000000000000000000000001",
        "nonce": "0x4ca",
        "chainId": "0xa455"
      },
      "additionalContracts": [],
      "isFixedGasLimit": false
    },
    {
      "hash": "0x2a5acf902039e188e4da5eb7dfbef15edd539084ef8f60ecd4e225b4cda5260c",
      "transactionType": "CALL",
      "contractName": "gUSD",
      "contractAddress": "0x1e86fce4d102a5924a9ef503f772fca162af2067",
      "function": "setBurner(address,bool)",
      "arguments": [
        "0x17975FB494576ae89D627F904Ec723B87c7C35c8",
        "true"
      ],
      "transaction": {
        "from": "0xf39fd6e51aad88f6f4ce6ab8827279cfffb92266",
        "to": "0x1e86fce4d102a5924a9ef503f772fca162af2067",
        "gas": "0x110a1",
        "value": "0x0",
        "input": "0x0d895ee100000000000000000000000017975fb494576ae89d627f904ec723b87c7c35c80000000000000000000000000000000000000000000000000000000000000001",
        "nonce": "0x4cb",
        "chainId": "0xa455"
      },
      "additionalContracts": [],
      "isFixedGasLimit": false
    },
    {
      "hash": "0x8e26f54df552743bdab5a3e220b930af5d182141cf030b32498da0c652ab383c",
      "transactionType": "CALL",
      "contractName": "gUSD",
      "contractAddress": "0x1e86fce4d102a5924a9ef503f772fca162af2067",
      "function": "setBurner(address,bool)",
      "arguments": [
        "0x85f93384BAd10d7751Fcc3bBD8F8710db3190700",
        "true"
      ],
      "transaction": {
        "from": "0xf39fd6e51aad88f6f4ce6ab8827279cfffb92266",
        "to": "0x1e86fce4d102a5924a9ef503f772fca162af2067",
        "gas": "0x1016a",
        "value": "0x0",
        "input": "0x0d895ee100000000000000000000000085f93384bad10d7751fcc3bbd8f8710db31907000000000000000000000000000000000000000000000000000000000000000001",
        "nonce": "0x4cc",
        "chainId": "0xa455"
      },
      "additionalContracts": [],
      "isFixedGasLimit": false
    },
    {
      "hash": "0xa64ffe7f2feb482d1f049bf0b06276fa00858ce6674e7df22882eff3c886394e",
      "transactionType": "CALL",
      "contractName": "VaultManager",
      "contractAddress": "0x21432f2f86d056d1f4ee99ec81758042c9588d03",
      "function": "setStabilityPool(address)",
      "arguments": [
        "0x85f93384BAd10d7751Fcc3bBD8F8710db3190700"
      ],
      "transaction": {
        "from": "0xf39fd6e51aad88f6f4ce6ab8827279cfffb92266",
        "to": "0x21432f2f86d056d1f4ee99ec81758042c9588d03",
        "gas": "0x10040",
        "value": "0x0",
        "input": "0x98d721e000000000000000000000000085f93384bad10d7751fcc3bbd8f8710db3190700",
        "nonce": "0x4cd",
        "chainId": "0xa455"
      },
      "additionalContracts": [],
      "isFixedGasLimit": false
    },
    {
      "hash": "0x4bf4c5957e3c1665afbc540f1bca30645ad237f0c5286d2e5aa3d28be9ba5ef5",
      "transactionType": "CALL",
      "contractName": "MockWETH18",
      "contractAddress": "0x64ed22277402f01f3ad382270b419b9f5e87f4c4",
      "function": "mint(address,uint256)",
      "arguments": [
        "0xf39Fd6e51aad88F6F4ce6aB8827279cffFb92266",
        "100000000000000000000"
      ],
      "transaction": {
        "from": "0xf39fd6e51aad88f6f4ce6ab8827279cfffb92266",
        "to": "0x64ed22277402f01f3ad382270b419b9f5e87f4c4",
        "gas": "0x18594",
        "value": "0x0",
        "input": "0x40c10f19000000000000000000000000f39fd6e51aad88f6f4ce6ab8827279cfffb922660000000000000000000000000000000000000000000000056bc75e2d63100000",
        "nonce": "0x4ce",
        "chainId": "0xa455"
      },
      "additionalContracts": [],
      "isFixedGasLimit": false
    },
    {
      "hash": "0x8a4f9ebd463ef7041c8eaba3936dee311409172c03739cb62d2e9a958db412f4",
      "transactionType": "CALL",
      "contractName": "MockUSDC6",
      "contractAddress": "0x8c2399346bea56a5fc4a5830d6c7ee34a7d8de4b",
      "function": "mint(address,uint256)",
      "arguments": [
        "0xf39Fd6e51aad88F6F4ce6aB8827279cffFb92266",
        "1000000000000"
      ],
      "transaction": {
        "from": "0xf39fd6e51aad88f6f4ce6ab8827279cfffb92266",
        "to": "0x8c2399346bea56a5fc4a5830d6c7ee34a7d8de4b",
        "gas": "0x16fbc",
        "value": "0x0",
        "input": "0x40c10f19000000000000000000000000f39fd6e51aad88f6f4ce6ab8827279cfffb92266000000000000000000000000000000000000000000000000000000e8d4a51000",
        "nonce": "0x4cf",
        "chainId": "0xa455"
      },
      "additionalContracts": [],
      "isFixedGasLimit": false
    },
    {
      "hash": "0xfe9d216039fd7b896cc7b867a7a14986aca827b4420a5633758e3a7c6291a1de",
      "transactionType": "CALL",
      "contractName": "MockGD18",
      "contractAddress": "0xa571c8b59d51f87d76e55f496a71a27b950d29c8",
      "function": "mint(address,uint256)",
      "arguments": [
        "0xf39Fd6e51aad88F6F4ce6aB8827279cffFb92266",
        "100000000000000000000000000"
      ],
      "transaction": {
        "from": "0xf39fd6e51aad88f6f4ce6ab8827279cfffb92266",
        "to": "0xa571c8b59d51f87d76e55f496a71a27b950d29c8",
        "gas": "0x16fff",
        "value": "0x0",
        "input": "0x40c10f19000000000000000000000000f39fd6e51aad88f6f4ce6ab8827279cfffb9226600000000000000000000000000000000000000000052b7d2dcc80cd2e4000000",
        "nonce": "0x4d0",
        "chainId": "0xa455"
      },
      "additionalContracts": [],
      "isFixedGasLimit": false
    },
    {
      "hash": "0xe606e7bb3dd05b60dc32ecdcff7d20740b00f6f74eafd956370d5f4bba871858",
      "transactionType": "CALL",
      "contractName": "MockWETH18",
      "contractAddress": "0x64ed22277402f01f3ad382270b419b9f5e87f4c4",
      "function": "approve(address,uint256)",
      "arguments": [
        "0x21432F2F86d056D1F4Ee99eC81758042C9588D03",
        "10000000000000000000"
      ],
      "transaction": {
        "from": "0xf39fd6e51aad88f6f4ce6ab8827279cfffb92266",
        "to": "0x64ed22277402f01f3ad382270b419b9f5e87f4c4",
        "gas": "0x1066e",
        "value": "0x0",
        "input": "0x095ea7b300000000000000000000000021432f2f86d056d1f4ee99ec81758042c9588d030000000000000000000000000000000000000000000000008ac7230489e80000",
        "nonce": "0x4d1",
        "chainId": "0xa455"
      },
      "additionalContracts": [],
      "isFixedGasLimit": false
    },
    {
      "hash": "0x6731415af0e5a47c8cd9ce909f1a61ec995f9da57c4c1cce9ae9aa6163f99129",
      "transactionType": "CALL",
      "contractName": "VaultManager",
      "contractAddress": "0x21432f2f86d056d1f4ee99ec81758042c9588d03",
      "function": "depositCollateral(bytes32,uint256)",
      "arguments": [
        "0x4554480000000000000000000000000000000000000000000000000000000000",
        "10000000000000000000"
      ],
      "transaction": {
        "from": "0xf39fd6e51aad88f6f4ce6ab8827279cfffb92266",
        "to": "0x21432f2f86d056d1f4ee99ec81758042c9588d03",
        "gas": "0x31c34",
        "value": "0x0",
        "input": "0xdea9b46445544800000000000000000000000000000000000000000000000000000000000000000000000000000000000000000000000000000000008ac7230489e80000",
        "nonce": "0x4d2",
        "chainId": "0xa455"
      },
      "additionalContracts": [],
      "isFixedGasLimit": false
    },
    {
      "hash": "0x4344ba5489422ff91caea3e353d4695fddee6218c274f9e1ba89a6d9712d49f7",
      "transactionType": "CALL",
      "contractName": "VaultManager",
      "contractAddress": "0x21432f2f86d056d1f4ee99ec81758042c9588d03",
      "function": "mintGUSD(bytes32,uint256)",
      "arguments": [
        "0x4554480000000000000000000000000000000000000000000000000000000000",
        "5000000000000000000000"
      ],
      "transaction": {
        "from": "0xf39fd6e51aad88f6f4ce6ab8827279cfffb92266",
        "to": "0x21432f2f86d056d1f4ee99ec81758042c9588d03",
        "gas": "0x3ef90",
        "value": "0x0",
        "input": "0x468c9bd1455448000000000000000000000000000000000000000000000000000000000000000000000000000000000000000000000000000000010f0cf064dd59200000",
        "nonce": "0x4d3",
        "chainId": "0xa455"
      },
      "additionalContracts": [],
      "isFixedGasLimit": false
    },
    {
      "hash": "0x35519c298e6edf5c13e7c88c55ced2ce21243ecd369adb4513af7664b889736d",
      "transactionType": "CALL",
      "contractName": "MockUSDC6",
      "contractAddress": "0x8c2399346bea56a5fc4a5830d6c7ee34a7d8de4b",
      "function": "approve(address,uint256)",
      "arguments": [
        "0x17975FB494576ae89D627F904Ec723B87c7C35c8",
        "100000000000"
      ],
      "transaction": {
        "from": "0xf39fd6e51aad88f6f4ce6ab8827279cfffb92266",
        "to": "0x8c2399346bea56a5fc4a5830d6c7ee34a7d8de4b",
        "gas": "0x1064b",
        "value": "0x0",
        "input": "0x095ea7b300000000000000000000000017975fb494576ae89d627f904ec723b87c7c35c8000000000000000000000000000000000000000000000000000000174876e800",
        "nonce": "0x4d4",
        "chainId": "0xa455"
      },
      "additionalContracts": [],
      "isFixedGasLimit": false
    },
    {
      "hash": "0x013ef0824bbd1d3fc436a38f0ab002ac4710a1073df6f027d2f9f3cad8dbffcb",
      "transactionType": "CALL",
      "contractName": "PegStabilityModule",
      "contractAddress": "0x17975fb494576ae89d627f904ec723b87c7c35c8",
      "function": "swapUSDCForGUSD(uint256)",
      "arguments": [
        "100000000000"
      ],
      "transaction": {
        "from": "0xf39fd6e51aad88f6f4ce6ab8827279cfffb92266",
        "to": "0x17975fb494576ae89d627f904ec723b87c7c35c8",
        "gas": "0x58e04",
        "value": "0x0",
        "input": "0xcc999017000000000000000000000000000000000000000000000000000000174876e800",
        "nonce": "0x4d5",
        "chainId": "0xa455"
      },
      "additionalContracts": [],
      "isFixedGasLimit": false
    },
    {
      "hash": "0x55583b13472e7c9a7db999e23e4b4d1f2d324b5aedd76e32d74144d8f53b124f",
      "transactionType": "CALL",
      "contractName": "gUSD",
      "contractAddress": "0x1e86fce4d102a5924a9ef503f772fca162af2067",
      "function": "approve(address,uint256)",
      "arguments": [
        "0x85f93384BAd10d7751Fcc3bBD8F8710db3190700",
        "2000000000000000000000"
      ],
      "transaction": {
        "from": "0xf39fd6e51aad88f6f4ce6ab8827279cfffb92266",
        "to": "0x1e86fce4d102a5924a9ef503f772fca162af2067",
        "gas": "0xf7c9",
        "value": "0x0",
        "input": "0x095ea7b300000000000000000000000085f93384bad10d7751fcc3bbd8f8710db319070000000000000000000000000000000000000000000000006c6b935b8bbd400000",
        "nonce": "0x4d6",
        "chainId": "0xa455"
      },
      "additionalContracts": [],
      "isFixedGasLimit": false
    },
    {
      "hash": "0x32663669808482e17bdf9641b593a3ef143a9d420f35227b6e2d2e9be08e63c9",
      "transactionType": "CALL",
      "contractName": "StabilityPool",
      "contractAddress": "0x85f93384bad10d7751fcc3bbd8f8710db3190700",
      "function": "deposit(uint256)",
      "arguments": [
        "2000000000000000000000"
      ],
      "transaction": {
        "from": "0xf39fd6e51aad88f6f4ce6ab8827279cfffb92266",
        "to": "0x85f93384bad10d7751fcc3bbd8f8710db3190700",
        "gas": "0x35989",
        "value": "0x0",
        "input": "0xb6b55f2500000000000000000000000000000000000000000000006c6b935b8bbd400000",
        "nonce": "0x4d7",
        "chainId": "0xa455"
      },
      "additionalContracts": [],
      "isFixedGasLimit": false
    }
  ],
  "receipts": [
    {
      "status": "0x1",
      "cumulativeGasUsed": "0x5ac8e",
      "logs": [],
      "logsBloom": "0x00000000000000000000000000000000000000000000000000000000000000000000000000000000000000000000000000000000000000000000000000000000000000000000000000000000000000000000000000000000000000000000000000000000000000000000000000000000000000000000000000000000000000000000000000000000000000000000000000000000000000000000000000000000000000000000000000000000000000000000000000000000000000000000000000000000000000000000000000000000000000000000000000000000000000000000000000000000000000000000000000000000000000000000000000000000",
      "type": "0x0",
      "transactionHash": "0xe1064a4e1860ffa5ca352300b6a00e822994a0f86adffb034effd84169f5e056",
      "transactionIndex": "0x0",
      "blockHash": "0xbf5ffbea3759f5c1d772d85659efea82d80ed55a13f3402b997e21a0acae4243",
      "blockNumber": "0x5c8bc",
      "gasUsed": "0x5ac8e",
      "effectiveGasPrice": "0x3b9aca07",
      "blobGasPrice": "0x1",
      "from": "0xf39fd6e51aad88f6f4ce6ab8827279cfffb92266",
      "to": null,
      "contractAddress": "0x64ed22277402f01f3ad382270b419b9f5e87f4c4",
      "blockTimestamp": 1776252496
    },
    {
      "status": "0x1",
      "cumulativeGasUsed": "0xb54dd",
      "logs": [],
      "logsBloom": "0x00000000000000000000000000000000000000000000000000000000000000000000000000000000000000000000000000000000000000000000000000000000000000000000000000000000000000000000000000000000000000000000000000000000000000000000000000000000000000000000000000000000000000000000000000000000000000000000000000000000000000000000000000000000000000000000000000000000000000000000000000000000000000000000000000000000000000000000000000000000000000000000000000000000000000000000000000000000000000000000000000000000000000000000000000000000",
      "type": "0x0",
      "transactionHash": "0x7bb652c660be559569dfcf3e3f21ed6cecebc86c180b33690945a1ad68470f31",
      "transactionIndex": "0x1",
      "blockHash": "0xbf5ffbea3759f5c1d772d85659efea82d80ed55a13f3402b997e21a0acae4243",
      "blockNumber": "0x5c8bc",
      "gasUsed": "0x5a84f",
      "effectiveGasPrice": "0x3b9aca07",
      "blobGasPrice": "0x1",
      "from": "0xf39fd6e51aad88f6f4ce6ab8827279cfffb92266",
      "to": null,
      "contractAddress": "0x8c2399346bea56a5fc4a5830d6c7ee34a7d8de4b",
      "blockTimestamp": 1776252496
    },
    {
      "status": "0x1",
      "cumulativeGasUsed": "0x10fd14",
      "logs": [],
      "logsBloom": "0x00000000000000000000000000000000000000000000000000000000000000000000000000000000000000000000000000000000000000000000000000000000000000000000000000000000000000000000000000000000000000000000000000000000000000000000000000000000000000000000000000000000000000000000000000000000000000000000000000000000000000000000000000000000000000000000000000000000000000000000000000000000000000000000000000000000000000000000000000000000000000000000000000000000000000000000000000000000000000000000000000000000000000000000000000000000",
      "type": "0x0",
      "transactionHash": "0xdecfa1a19df348434464a3bdeb39e81346ffeccb924bd44836f76b4abcebffa0",
      "transactionIndex": "0x2",
      "blockHash": "0xbf5ffbea3759f5c1d772d85659efea82d80ed55a13f3402b997e21a0acae4243",
      "blockNumber": "0x5c8bc",
      "gasUsed": "0x5a837",
      "effectiveGasPrice": "0x3b9aca07",
      "blobGasPrice": "0x1",
      "from": "0xf39fd6e51aad88f6f4ce6ab8827279cfffb92266",
      "to": null,
      "contractAddress": "0xa571c8b59d51f87d76e55f496a71a27b950d29c8",
      "blockTimestamp": 1776252496
    },
    {
      "status": "0x1",
      "cumulativeGasUsed": "0x126bb7",
      "logs": [],
      "logsBloom": "0x00000000000000000000000000000000000000000000000000000000000000000000000000000000000000000000000000000000000000000000000000000000000000000000000000000000000000000000000000000000000000000000000000000000000000000000000000000000000000000000000000000000000000000000000000000000000000000000000000000000000000000000000000000000000000000000000000000000000000000000000000000000000000000000000000000000000000000000000000000000000000000000000000000000000000000000000000000000000000000000000000000000000000000000000000000000",
      "type": "0x0",
      "transactionHash": "0xe606e7bb3dd05b60dc32ecdcff7d20740b00f6f74eafd956370d5f4bba871858",
      "transactionIndex": "0x3",
      "blockHash": "0xbf5ffbea3759f5c1d772d85659efea82d80ed55a13f3402b997e21a0acae4243",
      "blockNumber": "0x5c8bc",
      "gasUsed": "0x16ea3",
      "effectiveGasPrice": "0x3b9aca07",
      "blobGasPrice": "0x1",
      "from": "0xf39fd6e51aad88f6f4ce6ab8827279cfffb92266",
      "to": null,
      "contractAddress": "0x087756051dff01d59d7f51a88975d59a9230fd69",
      "blockTimestamp": 1776252496
    },
    {
      "status": "0x1",
      "cumulativeGasUsed": "0x131692",
      "logs": [],
      "logsBloom": "0x00000000000000000000000000000000000000000000000000000000000000000000000000000000000000000000000000000000000000000000000000000000000000000000000000000000000000000000000000000000000000000000000000000000000000000000000000000000000000000000000000000000000000000000000000000000000000000000000000000000000000000000000000000000000000000000000000000000000000000000000000000000000000000000000000000000000000000000000000000000000000000000000000000000000000000000000000000000000000000000000000000000000000000000000000000000",
      "type": "0x0",
      "transactionHash": "0x8a4f9ebd463ef7041c8eaba3936dee311409172c03739cb62d2e9a958db412f4",
      "transactionIndex": "0x4",
      "blockHash": "0xbf5ffbea3759f5c1d772d85659efea82d80ed55a13f3402b997e21a0acae4243",
      "blockNumber": "0x5c8bc",
      "gasUsed": "0xaadb",
      "effectiveGasPrice": "0x3b9aca07",
      "blobGasPrice": "0x1",
      "from": "0xf39fd6e51aad88f6f4ce6ab8827279cfffb92266",
      "to": "0x087756051dff01d59d7f51a88975d59a9230fd69",
      "contractAddress": null,
      "blockTimestamp": 1776252496
    },
    {
      "status": "0x1",
      "cumulativeGasUsed": "0x13c155",
      "logs": [],
      "logsBloom": "0x00000000000000000000000000000000000000000000000000000000000000000000000000000000000000000000000000000000000000000000000000000000000000000000000000000000000000000000000000000000000000000000000000000000000000000000000000000000000000000000000000000000000000000000000000000000000000000000000000000000000000000000000000000000000000000000000000000000000000000000000000000000000000000000000000000000000000000000000000000000000000000000000000000000000000000000000000000000000000000000000000000000000000000000000000000000",
      "type": "0x0",
      "transactionHash": "0x0d998f80296d99ec8a1980706a99d23e3e86fb35fe723b6f06b8735d70237fc4",
      "transactionIndex": "0x5",
      "blockHash": "0xbf5ffbea3759f5c1d772d85659efea82d80ed55a13f3402b997e21a0acae4243",
      "blockNumber": "0x5c8bc",
      "gasUsed": "0xaac3",
      "effectiveGasPrice": "0x3b9aca07",
      "blobGasPrice": "0x1",
      "from": "0xf39fd6e51aad88f6f4ce6ab8827279cfffb92266",
      "to": "0x087756051dff01d59d7f51a88975d59a9230fd69",
      "contractAddress": null,
      "blockTimestamp": 1776252496
    },
    {
      "status": "0x1",
      "cumulativeGasUsed": "0x146c30",
      "logs": [],
      "logsBloom": "0x00000000000000000000000000000000000000000000000000000000000000000000000000000000000000000000000000000000000000000000000000000000000000000000000000000000000000000000000000000000000000000000000000000000000000000000000000000000000000000000000000000000000000000000000000000000000000000000000000000000000000000000000000000000000000000000000000000000000000000000000000000000000000000000000000000000000000000000000000000000000000000000000000000000000000000000000000000000000000000000000000000000000000000000000000000000",
      "type": "0x0",
      "transactionHash": "0x6fb131202ecd98b22f0a0df029b811da866a36f02bfb1ca48eea53fda28f9f09",
      "transactionIndex": "0x6",
      "blockHash": "0xbf5ffbea3759f5c1d772d85659efea82d80ed55a13f3402b997e21a0acae4243",
      "blockNumber": "0x5c8bc",
      "gasUsed": "0xaadb",
      "effectiveGasPrice": "0x3b9aca07",
      "blobGasPrice": "0x1",
      "from": "0xf39fd6e51aad88f6f4ce6ab8827279cfffb92266",
      "to": "0x087756051dff01d59d7f51a88975d59a9230fd69",
      "contractAddress": null,
      "blockTimestamp": 1776252496
    },
    {
      "status": "0x1",
      "cumulativeGasUsed": "0x20befe",
      "logs": [],
      "logsBloom": "0x00000000000000000000000000000000000000000000000000000000000000000000000000000000000000000000000000000000000000000000000000000000000000000000000000000000000000000000000000000000000000000000000000000000000000000000000000000000000000000000000000000000000000000000000000000000000000000000000000000000000000000000000000000000000000000000000000000000000000000000000000000000000000000000000000000000000000000000000000000000000000000000000000000000000000000000000000000000000000000000000000000000000000000000000000000000",
      "type": "0x0",
      "transactionHash": "0x2026352e0ef8f1b2a29ea07838fa9b72354ef699678395e7f9ce677327d1990c",
      "transactionIndex": "0x7",
      "blockHash": "0xbf5ffbea3759f5c1d772d85659efea82d80ed55a13f3402b997e21a0acae4243",
      "blockNumber": "0x5c8bc",
      "gasUsed": "0xc52ce",
      "effectiveGasPrice": "0x3b9aca07",
      "blobGasPrice": "0x1",
      "from": "0xf39fd6e51aad88f6f4ce6ab8827279cfffb92266",
      "to": null,
      "contractAddress": "0x1e86fce4d102a5924a9ef503f772fca162af2067",
      "blockTimestamp": 1776252496
    },
    {
      "status": "0x1",
      "cumulativeGasUsed": "0x2499d9",
      "logs": [],
      "logsBloom": "0x00000000000000000000000000000000000000000000000000000000000000000000000000000000000000000000000000000000000000000000000000000000000000000000000000000000000000000000000000000000000000000000000000000000000000000000000000000000000000000000000000000000000000000000000000000000000000000000000000000000000000000000000000000000000000000000000000000000000000000000000000000000000000000000000000000000000000000000000000000000000000000000000000000000000000000000000000000000000000000000000000000000000000000000000000000000",
      "type": "0x0",
      "transactionHash": "0xb82bac007a42037de69c7ce07291866b775a2841f99f92f0e86c2958322f5f8d",
      "transactionIndex": "0x8",
      "blockHash": "0xbf5ffbea3759f5c1d772d85659efea82d80ed55a13f3402b997e21a0acae4243",
      "blockNumber": "0x5c8bc",
      "gasUsed": "0x3dadb",
      "effectiveGasPrice": "0x3b9aca07",
      "blobGasPrice": "0x1",
      "from": "0xf39fd6e51aad88f6f4ce6ab8827279cfffb92266",
      "to": null,
      "contractAddress": "0x06faddefde8dd5d4c6faace68b400754d960cb75",
      "blockTimestamp": 1776252496
    },
    {
      "status": "0x1",
      "cumulativeGasUsed": "0x35b2af",
      "logs": [
        {
          "address": "0xf334cc3649c999aa6e0ca85001db97c0aac4a0f4",
          "topics": [
            "0xab8ac0e1bd8ac03ac9df93028bd29e1972d82acd99a159a07ac48bcd2b022cbe",
            "0x4554480000000000000000000000000000000000000000000000000000000000"
          ],
          "data": "0x00000000000000000000000064ed22277402f01f3ad382270b419b9f5e87f4c400000000000000000000000000000000000000000000000014d1120d7b160000",
          "blockHash": "0xbf5ffbea3759f5c1d772d85659efea82d80ed55a13f3402b997e21a0acae4243",
          "blockNumber": "0x5c8bc",
          "blockTimestamp": "0x69df7650",
          "transactionHash": "0x32663669808482e17bdf9641b593a3ef143a9d420f35227b6e2d2e9be08e63c9",
          "transactionIndex": "0x9",
          "logIndex": "0x0",
          "removed": false
        },
        {
          "address": "0xf334cc3649c999aa6e0ca85001db97c0aac4a0f4",
          "topics": [
            "0xab8ac0e1bd8ac03ac9df93028bd29e1972d82acd99a159a07ac48bcd2b022cbe",
            "0x4744000000000000000000000000000000000000000000000000000000000000"
          ],
          "data": "0x000000000000000000000000a571c8b59d51f87d76e55f496a71a27b950d29c80000000000000000000000000000000000000000000000001bc16d674ec80000",
          "blockHash": "0xbf5ffbea3759f5c1d772d85659efea82d80ed55a13f3402b997e21a0acae4243",
          "blockNumber": "0x5c8bc",
          "blockTimestamp": "0x69df7650",
          "transactionHash": "0x32663669808482e17bdf9641b593a3ef143a9d420f35227b6e2d2e9be08e63c9",
          "transactionIndex": "0x9",
          "logIndex": "0x1",
          "removed": false
        },
        {
          "address": "0xf334cc3649c999aa6e0ca85001db97c0aac4a0f4",
          "topics": [
            "0xab8ac0e1bd8ac03ac9df93028bd29e1972d82acd99a159a07ac48bcd2b022cbe",
            "0x5553444300000000000000000000000000000000000000000000000000000000"
          ],
          "data": "0x0000000000000000000000008c2399346bea56a5fc4a5830d6c7ee34a7d8de4b0000000000000000000000000000000000000000000000000e043da617250000",
          "blockHash": "0xbf5ffbea3759f5c1d772d85659efea82d80ed55a13f3402b997e21a0acae4243",
          "blockNumber": "0x5c8bc",
          "blockTimestamp": "0x69df7650",
          "transactionHash": "0x32663669808482e17bdf9641b593a3ef143a9d420f35227b6e2d2e9be08e63c9",
          "transactionIndex": "0x9",
          "logIndex": "0x2",
          "removed": false
        }
      ],
      "logsBloom": "0x00000000000000000000000000000000000000000000000000000000000000000000000000000000001000000000000000000000000000000000000000000000000800000000000000000000200800000000020000000000000000000002000000000000000000000000000000000000000000000000000000000000000000000000000000000000000000000000800000000000000000000001000000000000000000001000000000000000000000000000000000000010000000000000000010000200000000000000000000000000000000000000000000000000000000000000000000000000000000001000000000000000000000100000000040000000",
      "type": "0x0",
      "transactionHash": "0x32663669808482e17bdf9641b593a3ef143a9d420f35227b6e2d2e9be08e63c9",
      "transactionIndex": "0x9",
      "blockHash": "0xbf5ffbea3759f5c1d772d85659efea82d80ed55a13f3402b997e21a0acae4243",
      "blockNumber": "0x5c8bc",
      "gasUsed": "0x1118d6",
      "effectiveGasPrice": "0x3b9aca07",
      "blobGasPrice": "0x1",
      "from": "0xf39fd6e51aad88f6f4ce6ab8827279cfffb92266",
      "to": null,
      "contractAddress": "0xf334cc3649c999aa6e0ca85001db97c0aac4a0f4",
      "blockTimestamp": 1776252496
    },
    {
      "status": "0x1",
      "cumulativeGasUsed": "0x593d3f",
      "logs": [],
      "logsBloom": "0x00000000000000000000000000000000000000000000000000000000000000000000000000000000000000000000000000000000000000000000000000000000000000000000000000000000000000000000000000000000000000000000000000000000000000000000000000000000000000000000000000000000000000000000000000000000000000000000000000000000000000000000000000000000000000000000000000000000000000000000000000000000000000000000000000000000000000000000000000000000000000000000000000000000000000000000000000000000000000000000000000000000000000000000000000000000",
      "type": "0x0",
      "transactionHash": "0xfe9d216039fd7b896cc7b867a7a14986aca827b4420a5633758e3a7c6291a1de",
      "transactionIndex": "0xa",
      "blockHash": "0xbf5ffbea3759f5c1d772d85659efea82d80ed55a13f3402b997e21a0acae4243",
      "blockNumber": "0x5c8bc",
      "gasUsed": "0x238a90",
      "effectiveGasPrice": "0x3b9aca07",
      "blobGasPrice": "0x1",
      "from": "0xf39fd6e51aad88f6f4ce6ab8827279cfffb92266",
      "to": null,
      "contractAddress": "0x21432f2f86d056d1f4ee99ec81758042c9588d03",
      "blockTimestamp": 1776252496
    },
    {
      "status": "0x1",
      "cumulativeGasUsed": "0x6faf78",
      "logs": [],
      "logsBloom": "0x00000000000000000000000000000000000000000000000000000000000000000000000000000000000000000000000000000000000000000000000000000000000000000000000000000000000000000000000000000000000000000000000000000000000000000000000000000000000000000000000000000000000000000000000000000000000000000000000000000000000000000000000000000000000000000000000000000000000000000000000000000000000000000000000000000000000000000000000000000000000000000000000000000000000000000000000000000000000000000000000000000000000000000000000000000000",
      "type": "0x0",
      "transactionHash": "0x55583b13472e7c9a7db999e23e4b4d1f2d324b5aedd76e32d74144d8f53b124f",
      "transactionIndex": "0xb",
      "blockHash": "0xbf5ffbea3759f5c1d772d85659efea82d80ed55a13f3402b997e21a0acae4243",
      "blockNumber": "0x5c8bc",
      "gasUsed": "0x167239",
      "effectiveGasPrice": "0x3b9aca07",
      "blobGasPrice": "0x1",
      "from": "0xf39fd6e51aad88f6f4ce6ab8827279cfffb92266",
      "to": null,
      "contractAddress": "0x85f93384bad10d7751fcc3bbd8f8710db3190700",
      "blockTimestamp": 1776252496
    },
    {
      "status": "0x1",
      "cumulativeGasUsed": "0x70694e",
      "logs": [
        {
          "address": "0x85f93384bad10d7751fcc3bbd8f8710db3190700",
          "topics": [
            "0x8e902340d35762a5a36507c20fe38e5d549a721d9f846d6de7f397b5c26ab853",
            "0x00000000000000000000000021432f2f86d056d1f4ee99ec81758042c9588d03"
          ],
          "data": "0x",
          "blockHash": "0xbf5ffbea3759f5c1d772d85659efea82d80ed55a13f3402b997e21a0acae4243",
          "blockNumber": "0x5c8bc",
          "blockTimestamp": "0x69df7650",
          "transactionHash": "0x35519c298e6edf5c13e7c88c55ced2ce21243ecd369adb4513af7664b889736d",
          "transactionIndex": "0xc",
          "logIndex": "0x3",
          "removed": false
        }
      ],
      "logsBloom": "0x00000000000000000000000000000000000000000000000000000000000000000000000000000000400000000000000000000000000000000000000000000000000000000000000000000000000000000000000000000000000000000000000000000000000400000000080000000000000000000000000000000000000000000000000000000000000000000000000000000000000000000000000000000000000400000000000000000000040000000000000000000000000000000000000000000020000000000000000000000000000000000000000000000000000020000000000000000000000000000000000000800000000000000000000000000800",
      "type": "0x0",
      "transactionHash": "0x35519c298e6edf5c13e7c88c55ced2ce21243ecd369adb4513af7664b889736d",
      "transactionIndex": "0xc",
      "blockHash": "0xbf5ffbea3759f5c1d772d85659efea82d80ed55a13f3402b997e21a0acae4243",
      "blockNumber": "0x5c8bc",
      "gasUsed": "0xb9d6",
      "effectiveGasPrice": "0x3b9aca07",
      "blobGasPrice": "0x1",
      "from": "0xf39fd6e51aad88f6f4ce6ab8827279cfffb92266",
      "to": "0x85f93384bad10d7751fcc3bbd8f8710db3190700",
      "contractAddress": null,
      "blockTimestamp": 1776252496
    },
    {
      "status": "0x1",
      "cumulativeGasUsed": "0x71d36d",
      "logs": [
        {
          "address": "0x85f93384bad10d7751fcc3bbd8f8710db3190700",
          "topics": [
            "0x7b02323155ee1835f3ad82fb0682024a2f6ea1380e110430fc6eb75fbffc8665",
            "0x4554480000000000000000000000000000000000000000000000000000000000"
          ],
          "data": "0x00000000000000000000000064ed22277402f01f3ad382270b419b9f5e87f4c4",
          "blockHash": "0xbf5ffbea3759f5c1d772d85659efea82d80ed55a13f3402b997e21a0acae4243",
          "blockNumber": "0x5c8bc",
          "blockTimestamp": "0x69df7650",
          "transactionHash": "0x8c08d864913d8ed3aed33ebe4a69ee66e1e8becf7e5c89592a60a774bfedfc85",
          "transactionIndex": "0xd",
          "logIndex": "0x4",
          "removed": false
        }
      ],
      "logsBloom": "0x00000000000000000000000000000008000000000000000000000000000000000000000000000000000000000000000000000000000004000000000000000000000800000000000000000000200000000000000000000000000000000000000000000000000000000000000000000000000000000000000000000040000000000000000000000000000000000000000000000000000000000000000000000000000400000000000000000000040000000000000000000000000000000000000000000000000000000000000000000000000000000000000000000000000000000000000000000000000000000000000000800000000000100000000000000000",
      "type": "0x0",
      "transactionHash": "0x8c08d864913d8ed3aed33ebe4a69ee66e1e8becf7e5c89592a60a774bfedfc85",
      "transactionIndex": "0xd",
      "blockHash": "0xbf5ffbea3759f5c1d772d85659efea82d80ed55a13f3402b997e21a0acae4243",
      "blockNumber": "0x5c8bc",
      "gasUsed": "0x16a1f",
      "effectiveGasPrice": "0x3b9aca07",
      "blobGasPrice": "0x1",
      "from": "0xf39fd6e51aad88f6f4ce6ab8827279cfffb92266",
      "to": "0x85f93384bad10d7751fcc3bbd8f8710db3190700",
      "contractAddress": null,
      "blockTimestamp": 1776252496
    },
    {
      "status": "0x1",
      "cumulativeGasUsed": "0x72fab4",
      "logs": [
        {
          "address": "0x85f93384bad10d7751fcc3bbd8f8710db3190700",
          "topics": [
            "0x7b02323155ee1835f3ad82fb0682024a2f6ea1380e110430fc6eb75fbffc8665",
            "0x4744000000000000000000000000000000000000000000000000000000000000"
          ],
          "data": "0x000000000000000000000000a571c8b59d51f87d76e55f496a71a27b950d29c8",
          "blockHash": "0xbf5ffbea3759f5c1d772d85659efea82d80ed55a13f3402b997e21a0acae4243",
          "blockNumber": "0x5c8bc",
          "blockTimestamp": "0x69df7650",
          "transactionHash": "0x88f115b669d101989a42d6e6026c2ab05c10203d1264f23e89b78de11a916800",
          "transactionIndex": "0xe",
          "logIndex": "0x5",
          "removed": false
        }
      ],
      "logsBloom": "0x00000000000000000000000000000008000000000000000000000000000000000000000000000000000000000000000000000000000004000000000000000000000000000000000000000000000000000000020000000000000000000000000000000000000000000000000000000000000000000000000000000040000000000000000000000000000000000000800000000000000000000000000000000000000400000000000000000000040000000000000000000000000000000000000000000000000000000000000000000000000000000000000000000000000000000000000000000000000000001000000000800000000000000000000000000000",
      "type": "0x0",
      "transactionHash": "0x88f115b669d101989a42d6e6026c2ab05c10203d1264f23e89b78de11a916800",
      "transactionIndex": "0xe",
      "blockHash": "0xbf5ffbea3759f5c1d772d85659efea82d80ed55a13f3402b997e21a0acae4243",
      "blockNumber": "0x5c8bc",
      "gasUsed": "0x12747",
      "effectiveGasPrice": "0x3b9aca07",
      "blobGasPrice": "0x1",
      "from": "0xf39fd6e51aad88f6f4ce6ab8827279cfffb92266",
      "to": "0x85f93384bad10d7751fcc3bbd8f8710db3190700",
      "contractAddress": null,
      "blockTimestamp": 1776252496
    },
    {
      "status": "0x1",
      "cumulativeGasUsed": "0x742213",
      "logs": [
        {
          "address": "0x85f93384bad10d7751fcc3bbd8f8710db3190700",
          "topics": [
            "0x7b02323155ee1835f3ad82fb0682024a2f6ea1380e110430fc6eb75fbffc8665",
            "0x5553444300000000000000000000000000000000000000000000000000000000"
          ],
          "data": "0x0000000000000000000000008c2399346bea56a5fc4a5830d6c7ee34a7d8de4b",
          "blockHash": "0xbf5ffbea3759f5c1d772d85659efea82d80ed55a13f3402b997e21a0acae4243",
          "blockNumber": "0x5c8bc",
          "blockTimestamp": "0x69df7650",
          "transactionHash": "0x89e8837dc33ed6cc52a47c760fc69997b46beb6c542d2eb4c336763db4a0adbf",
          "transactionIndex": "0xf",
          "logIndex": "0x6",
          "removed": false
        }
      ],
      "logsBloom": "0x00000000000000000000000000000008000000000000000000000000000000000000000000000000001000000000000000000000000004000000000000000000000000000000000000000000000000000000000000000000000000000000000000000000000000000000000000000000000000000000000000000040000000000000000000000000000000000000000000000000000000000000000000000000000400000000000000000000040000000000000000000000000000000000000010000200000000000000000000000000000000000000000000000000000000000000000000000000000000000000000000800000000000000000000000000000",
      "type": "0x0",
      "transactionHash": "0x89e8837dc33ed6cc52a47c760fc69997b46beb6c542d2eb4c336763db4a0adbf",
      "transactionIndex": "0xf",
      "blockHash": "0xbf5ffbea3759f5c1d772d85659efea82d80ed55a13f3402b997e21a0acae4243",
      "blockNumber": "0x5c8bc",
      "gasUsed": "0x1275f",
      "effectiveGasPrice": "0x3b9aca07",
      "blobGasPrice": "0x1",
      "from": "0xf39fd6e51aad88f6f4ce6ab8827279cfffb92266",
      "to": "0x85f93384bad10d7751fcc3bbd8f8710db3190700",
      "contractAddress": null,
      "blockTimestamp": 1776252496
    },
    {
      "status": "0x1",
      "cumulativeGasUsed": "0x852fd3",
      "logs": [],
      "logsBloom": "0x00000000000000000000000000000000000000000000000000000000000000000000000000000000000000000000000000000000000000000000000000000000000000000000000000000000000000000000000000000000000000000000000000000000000000000000000000000000000000000000000000000000000000000000000000000000000000000000000000000000000000000000000000000000000000000000000000000000000000000000000000000000000000000000000000000000000000000000000000000000000000000000000000000000000000000000000000000000000000000000000000000000000000000000000000000000",
      "type": "0x0",
      "transactionHash": "0xb39787c5480d120de12a23ed7c801f4300ed6bfd4a37a644d9ed9563bb7c0271",
      "transactionIndex": "0x10",
      "blockHash": "0xbf5ffbea3759f5c1d772d85659efea82d80ed55a13f3402b997e21a0acae4243",
      "blockNumber": "0x5c8bc",
      "gasUsed": "0x110dc0",
      "effectiveGasPrice": "0x3b9aca07",
      "blobGasPrice": "0x1",
      "from": "0xf39fd6e51aad88f6f4ce6ab8827279cfffb92266",
      "to": null,
      "contractAddress": "0x17975fb494576ae89d627f904ec723b87c7c35c8",
      "blockTimestamp": 1776252496
    },
    {
      "status": "0x1",
      "cumulativeGasUsed": "0x85eb5b",
      "logs": [
        {
          "address": "0x1e86fce4d102a5924a9ef503f772fca162af2067",
          "topics": [
            "0x583b0aa0e528532caf4b907c11d7a8158a122fe2a6fb80cd9b09776ebea8d92d",
            "0x00000000000000000000000021432f2f86d056d1f4ee99ec81758042c9588d03"
          ],
          "data": "0x0000000000000000000000000000000000000000000000000000000000000001",
          "blockHash": "0xbf5ffbea3759f5c1d772d85659efea82d80ed55a13f3402b997e21a0acae4243",
          "blockNumber": "0x5c8bc",
          "blockTimestamp": "0x69df7650",
          "transactionHash": "0x66159a595e6ccfc2aa8a5d5f2c7892dc62207dc05583c7c92d6fd4dafff5e4b4",
          "transactionIndex": "0x11",
          "logIndex": "0x7",
          "removed": false
        }
      ],
      "logsBloom": "0x00000000000000000000000000000000000000000000000000000000000000000002000000000000400000000000000000000000000200000000000000000000000001000000000000000000000000000000000000000000000000000000000000000200000000000000080000000000000000000000000000000000000000000000000000000000000000000000000000000000000000000000000000000000000000000000000000000000000000000000000000000000000000000000000000000000000000000000000000000000010000000000000000000000000000000000000000000000000000000040000000000000000000000000000000000800",
      "type": "0x0",
      "transactionHash": "0x66159a595e6ccfc2aa8a5d5f2c7892dc62207dc05583c7c92d6fd4dafff5e4b4",
      "transactionIndex": "0x11",
      "blockHash": "0xbf5ffbea3759f5c1d772d85659efea82d80ed55a13f3402b997e21a0acae4243",
      "blockNumber": "0x5c8bc",
      "gasUsed": "0xbb88",
      "effectiveGasPrice": "0x3b9aca07",
      "blobGasPrice": "0x1",
      "from": "0xf39fd6e51aad88f6f4ce6ab8827279cfffb92266",
      "to": "0x1e86fce4d102a5924a9ef503f772fca162af2067",
      "contractAddress": null,
      "blockTimestamp": 1776252496
    },
    {
      "status": "0x1",
      "cumulativeGasUsed": "0x86a6e3",
      "logs": [
        {
          "address": "0x1e86fce4d102a5924a9ef503f772fca162af2067",
          "topics": [
            "0x583b0aa0e528532caf4b907c11d7a8158a122fe2a6fb80cd9b09776ebea8d92d",
            "0x00000000000000000000000017975fb494576ae89d627f904ec723b87c7c35c8"
          ],
          "data": "0x0000000000000000000000000000000000000000000000000000000000000001",
          "blockHash": "0xbf5ffbea3759f5c1d772d85659efea82d80ed55a13f3402b997e21a0acae4243",
          "blockNumber": "0x5c8bc",
          "blockTimestamp": "0x69df7650",
          "transactionHash": "0x0a262524b79bf50109f07ee96707318b30e095d370ba1b81dc5d1b797e2a2641",
          "transactionIndex": "0x12",
          "logIndex": "0x8",
          "removed": false
        }
      ],
      "logsBloom": "0x00000000000000000000000000000000000000000100008000000000000000000002000000000000000000000000000000000000000200000000000000000000000001000000000000000000000000000000000000000000000000000000000000000200000000000000000000000000000000000000000000000000000000000000000000000000000000000000000000000000000000000000000000000000000000000000000000000000000000000000000000004000000000000000000000000000000000000000000000000000010000000000000000000000000000000000000000000000000000000040000000000000000000000000000000000000",
      "type": "0x0",
      "transactionHash": "0x0a262524b79bf50109f07ee96707318b30e095d370ba1b81dc5d1b797e2a2641",
      "transactionIndex": "0x12",
      "blockHash": "0xbf5ffbea3759f5c1d772d85659efea82d80ed55a13f3402b997e21a0acae4243",
      "blockNumber": "0x5c8bc",
      "gasUsed": "0xbb88",
      "effectiveGasPrice": "0x3b9aca07",
      "blobGasPrice": "0x1",
      "from": "0xf39fd6e51aad88f6f4ce6ab8827279cfffb92266",
      "to": "0x1e86fce4d102a5924a9ef503f772fca162af2067",
      "contractAddress": null,
      "blockTimestamp": 1776252496
    },
    {
      "status": "0x1",
      "cumulativeGasUsed": "0x87614d",
      "logs": [
        {
          "address": "0x1e86fce4d102a5924a9ef503f772fca162af2067",
          "topics": [
            "0xd28dc1379d750c7c8137c7ef7b074f62f1361b9becc7f9d77d8c0d6e46a3cd06",
            "0x00000000000000000000000021432f2f86d056d1f4ee99ec81758042c9588d03"
          ],
          "data": "0x0000000000000000000000000000000000000000000000000000000000000001",
          "blockHash": "0xbf5ffbea3759f5c1d772d85659efea82d80ed55a13f3402b997e21a0acae4243",
          "blockNumber": "0x5c8bc",
          "blockTimestamp": "0x69df7650",
          "transactionHash": "0x4bf4c5957e3c1665afbc540f1bca30645ad237f0c5286d2e5aa3d28be9ba5ef5",
          "transactionIndex": "0x13",
          "logIndex": "0x9",
          "removed": false
        }
      ],
      "logsBloom": "0x00000000000000000000000000000000000000000000000000000000000000000000000000000000400000000000000000000000000200000000000000000000000000000000000040000000000000000000000000000000000000000000000000000200000000000000080000000000000000000000000000000000000400000000000000000000000000000000000000000000000000000000000000000000000000000000000000800000000000000000000000000000000000000000000000000000000000000000000000000000010000000000000000000000000000000000000000000000000000000000000000000000000000000000000000000800",
      "type": "0x0",
      "transactionHash": "0x4bf4c5957e3c1665afbc540f1bca30645ad237f0c5286d2e5aa3d28be9ba5ef5",
      "transactionIndex": "0x13",
      "blockHash": "0xbf5ffbea3759f5c1d772d85659efea82d80ed55a13f3402b997e21a0acae4243",
      "blockNumber": "0x5c8bc",
      "gasUsed": "0xba6a",
      "effectiveGasPrice": "0x3b9aca07",
      "blobGasPrice": "0x1",
      "from": "0xf39fd6e51aad88f6f4ce6ab8827279cfffb92266",
      "to": "0x1e86fce4d102a5924a9ef503f772fca162af2067",
      "contractAddress": null,
      "blockTimestamp": 1776252496
    },
    {
      "status": "0x1",
      "cumulativeGasUsed": "0x881bb7",
      "logs": [
        {
          "address": "0x1e86fce4d102a5924a9ef503f772fca162af2067",
          "topics": [
            "0xd28dc1379d750c7c8137c7ef7b074f62f1361b9becc7f9d77d8c0d6e46a3cd06",
            "0x00000000000000000000000017975fb494576ae89d627f904ec723b87c7c35c8"
          ],
          "data": "0x0000000000000000000000000000000000000000000000000000000000000001",
          "blockHash": "0xbf5ffbea3759f5c1d772d85659efea82d80ed55a13f3402b997e21a0acae4243",
          "blockNumber": "0x5c8bc",
          "blockTimestamp": "0x69df7650",
          "transactionHash": "0x21362995c0684a22b90dd4382b7ae70171945851a0f62a4ab3ddc56507013415",
          "transactionIndex": "0x14",
          "logIndex": "0xa",
          "removed": false
        }
      ],
      "logsBloom": "0x00000000000000000000000000000000000000000100008000000000000000000000000000000000000000000000000000000000000200000000000000000000000000000000000040000000000000000000000000000000000000000000000000000200000000000000000000000000000000000000000000000000000400000000000000000000000000000000000000000000000000000000000000000000000000000000000000800000000000000000000000004000000000000000000000000000000000000000000000000000010000000000000000000000000000000000000000000000000000000000000000000000000000000000000000000000",
      "type": "0x0",
      "transactionHash": "0x21362995c0684a22b90dd4382b7ae70171945851a0f62a4ab3ddc56507013415",
      "transactionIndex": "0x14",
      "blockHash": "0xbf5ffbea3759f5c1d772d85659efea82d80ed55a13f3402b997e21a0acae4243",
      "blockNumber": "0x5c8bc",
      "gasUsed": "0xba6a",
      "effectiveGasPrice": "0x3b9aca07",
      "blobGasPrice": "0x1",
      "from": "0xf39fd6e51aad88f6f4ce6ab8827279cfffb92266",
      "to": "0x1e86fce4d102a5924a9ef503f772fca162af2067",
      "contractAddress": null,
      "blockTimestamp": 1776252496
    },
    {
      "status": "0x1",
      "cumulativeGasUsed": "0x88d615",
      "logs": [
        {
          "address": "0x1e86fce4d102a5924a9ef503f772fca162af2067",
          "topics": [
            "0xd28dc1379d750c7c8137c7ef7b074f62f1361b9becc7f9d77d8c0d6e46a3cd06",
            "0x00000000000000000000000085f93384bad10d7751fcc3bbd8f8710db3190700"
          ],
          "data": "0x0000000000000000000000000000000000000000000000000000000000000001",
          "blockHash": "0xbf5ffbea3759f5c1d772d85659efea82d80ed55a13f3402b997e21a0acae4243",
          "blockNumber": "0x5c8bc",
          "blockTimestamp": "0x69df7650",
          "transactionHash": "0xa64ffe7f2feb482d1f049bf0b06276fa00858ce6674e7df22882eff3c886394e",
          "transactionIndex": "0x15",
          "logIndex": "0xb",
          "removed": false
        }
      ],
      "logsBloom": "0x00000000000000000000000000000000000000000000000000000000000000000000000000000000000000000000000000000000000200000000000000000000008000000000000040000000000000000008000000000000000000000000000000000200000000008000000000000000000000000000000000000000000400000000000000000000000000000000000000000000000000000000000000000000000000000000000000800000000000000000000000000000000000000000000000000000000000000000000000000000010000000000000000000000000000000000000000000000000000000000000000000000000000000000000000000000",
      "type": "0x0",
      "transactionHash": "0xa64ffe7f2feb482d1f049bf0b06276fa00858ce6674e7df22882eff3c886394e",
      "transactionIndex": "0x15",
      "blockHash": "0xbf5ffbea3759f5c1d772d85659efea82d80ed55a13f3402b997e21a0acae4243",
      "blockNumber": "0x5c8bc",
      "gasUsed": "0xba5e",
      "effectiveGasPrice": "0x3b9aca07",
      "blobGasPrice": "0x1",
      "from": "0xf39fd6e51aad88f6f4ce6ab8827279cfffb92266",
      "to": "0x1e86fce4d102a5924a9ef503f772fca162af2067",
      "contractAddress": null,
      "blockTimestamp": 1776252496
    },
    {
      "status": "0x1",
      "cumulativeGasUsed": "0x898f9b",
      "logs": [
        {
          "address": "0x21432f2f86d056d1f4ee99ec81758042c9588d03",
          "topics": [
            "0x51f43ead43c9a90d53ec229fbf48feb76b24efa7a147089ad9ed34ad384a94d3"
          ],
          "data": "0x00000000000000000000000085f93384bad10d7751fcc3bbd8f8710db3190700",
          "blockHash": "0xbf5ffbea3759f5c1d772d85659efea82d80ed55a13f3402b997e21a0acae4243",
          "blockNumber": "0x5c8bc",
          "blockTimestamp": "0x69df7650",
          "transactionHash": "0x8e26f54df552743bdab5a3e220b930af5d182141cf030b32498da0c652ab383c",
          "transactionIndex": "0x16",
          "logIndex": "0xc",
          "removed": false
        }
      ],
      "logsBloom": "0x00000000000000000000000000000000000000000000000000000000000000000010000000000000000000000000000000000000000000000000000000000000000000000000000000000000000000000000000000000000000000000000000000000000000000000000000000000800000000000000000000000000000000000000000000400000000000000000000000000000000000000000000000000000000000000000000000000000000000000000002000000000000000000010000000000000000000000000000000000000000000000000000000000000000000000000000000000000000000000080000000000000000000000000000000000000",
      "type": "0x0",
      "transactionHash": "0x8e26f54df552743bdab5a3e220b930af5d182141cf030b32498da0c652ab383c",
      "transactionIndex": "0x16",
      "blockHash": "0xbf5ffbea3759f5c1d772d85659efea82d80ed55a13f3402b997e21a0acae4243",
      "blockNumber": "0x5c8bc",
      "gasUsed": "0xb986",
      "effectiveGasPrice": "0x3b9aca07",
      "blobGasPrice": "0x1",
      "from": "0xf39fd6e51aad88f6f4ce6ab8827279cfffb92266",
      "to": "0x21432f2f86d056d1f4ee99ec81758042c9588d03",
      "contractAddress": null,
      "blockTimestamp": 1776252496
    },
    {
      "status": "0x1",
      "cumulativeGasUsed": "0x8a99fc",
      "logs": [
        {
          "address": "0x64ed22277402f01f3ad382270b419b9f5e87f4c4",
          "topics": [
            "0xddf252ad1be2c89b69c2b068fc378daa952ba7f163c4a11628f55a4df523b3ef",
            "0x0000000000000000000000000000000000000000000000000000000000000000",
            "0x000000000000000000000000f39fd6e51aad88f6f4ce6ab8827279cfffb92266"
          ],
          "data": "0x0000000000000000000000000000000000000000000000056bc75e2d63100000",
          "blockHash": "0xbf5ffbea3759f5c1d772d85659efea82d80ed55a13f3402b997e21a0acae4243",
          "blockNumber": "0x5c8bc",
          "blockTimestamp": "0x69df7650",
          "transactionHash": "0x0776a56eebc5e52f5b2ce1f77006687d34b24c4245ea426b197ef3b2756cd3aa",
          "transactionIndex": "0x17",
          "logIndex": "0xd",
          "removed": false
        }
      ],
      "logsBloom": "0x00000000000000000000000000000080000000000000000000000000000000000000000000000000000000000000000000000000000000001000000000000000000000000000000000000008000000000000000000000000000000000000000000000000020000000000000100000800000000000000000000000010000000000000000000000000000000400000000000000000000000000000000000000000000000000000000000000000000000000000000000000000000000000000000000000002000000200000000000000000000000002000000000000000000020000000000000000000000000000000000000000000000000000000000000000000",
      "type": "0x0",
      "transactionHash": "0x0776a56eebc5e52f5b2ce1f77006687d34b24c4245ea426b197ef3b2756cd3aa",
      "transactionIndex": "0x17",
      "blockHash": "0xbf5ffbea3759f5c1d772d85659efea82d80ed55a13f3402b997e21a0acae4243",
      "blockNumber": "0x5c8bc",
      "gasUsed": "0x10a61",
      "effectiveGasPrice": "0x3b9aca07",
      "blobGasPrice": "0x1",
      "from": "0xf39fd6e51aad88f6f4ce6ab8827279cfffb92266",
      "to": "0x64ed22277402f01f3ad382270b419b9f5e87f4c4",
      "contractAddress": null,
      "blockTimestamp": 1776252496
    },
    {
      "status": "0x1",
      "cumulativeGasUsed": "0x8ba439",
      "logs": [
        {
          "address": "0x8c2399346bea56a5fc4a5830d6c7ee34a7d8de4b",
          "topics": [
            "0xddf252ad1be2c89b69c2b068fc378daa952ba7f163c4a11628f55a4df523b3ef",
            "0x0000000000000000000000000000000000000000000000000000000000000000",
            "0x000000000000000000000000f39fd6e51aad88f6f4ce6ab8827279cfffb92266"
          ],
          "data": "0x000000000000000000000000000000000000000000000000000000e8d4a51000",
          "blockHash": "0xbf5ffbea3759f5c1d772d85659efea82d80ed55a13f3402b997e21a0acae4243",
          "blockNumber": "0x5c8bc",
          "blockTimestamp": "0x69df7650",
          "transactionHash": "0x091897b91173f8761b4307edfbe9cfb05aa023c777606fc46379a5028ff019ff",
          "transactionIndex": "0x18",
          "logIndex": "0xe",
          "removed": false
        }
      ],
      "logsBloom": "0x00000000000000000000000000000000000000000000000000000000000000000000000000000000000000040000000000000000000000000000000000000000000000000000000000000008000000000000000000000000000000000000000000000000020000000000000100000800000000000000000000000010000000000000000000000000000000000000000000000000000000000000000000000000000000000000000000000000000000000000000000000000000000000000000000000002000000200000000000000000000000002000000000000000000020000000000000080000000000008000000000000000000000000000000000000000",
      "type": "0x0",
      "transactionHash": "0x091897b91173f8761b4307edfbe9cfb05aa023c777606fc46379a5028ff019ff",
      "transactionIndex": "0x18",
      "blockHash": "0xbf5ffbea3759f5c1d772d85659efea82d80ed55a13f3402b997e21a0acae4243",
      "blockNumber": "0x5c8bc",
      "gasUsed": "0x10a3d",
      "effectiveGasPrice": "0x3b9aca07",
      "blobGasPrice": "0x1",
      "from": "0xf39fd6e51aad88f6f4ce6ab8827279cfffb92266",
      "to": "0x8c2399346bea56a5fc4a5830d6c7ee34a7d8de4b",
      "contractAddress": null,
      "blockTimestamp": 1776252496
    },
    {
      "status": "0x1",
      "cumulativeGasUsed": "0x8caea6",
      "logs": [
        {
          "address": "0xa571c8b59d51f87d76e55f496a71a27b950d29c8",
          "topics": [
            "0xddf252ad1be2c89b69c2b068fc378daa952ba7f163c4a11628f55a4df523b3ef",
            "0x0000000000000000000000000000000000000000000000000000000000000000",
            "0x000000000000000000000000f39fd6e51aad88f6f4ce6ab8827279cfffb92266"
          ],
          "data": "0x00000000000000000000000000000000000000000052b7d2dcc80cd2e4000000",
          "blockHash": "0xbf5ffbea3759f5c1d772d85659efea82d80ed55a13f3402b997e21a0acae4243",
          "blockNumber": "0x5c8bc",
          "blockTimestamp": "0x69df7650",
          "transactionHash": "0x2a5acf902039e188e4da5eb7dfbef15edd539084ef8f60ecd4e225b4cda5260c",
          "transactionIndex": "0x19",
          "logIndex": "0xf",
          "removed": false
        }
      ],
      "logsBloom": "0x00000000000000000000000000000000000000000000000000000000000000000000000000020000000000000000000000000000000000000000000000000000000000000000000000000008000000000000100000000000000000000000000000000000020000000000000100000800000000000000000000000010000000000000000000000000000000000000000000000000000000008000000000000000000000000000000000000000000000000000000000000000000000000000000000000002000000200000000000000000000000002000000000000000000020000000000000000000000000000000000000000000000000000000000000000000",
      "type": "0x0",
      "transactionHash": "0x2a5acf902039e188e4da5eb7dfbef15edd539084ef8f60ecd4e225b4cda5260c",
      "transactionIndex": "0x19",
      "blockHash": "0xbf5ffbea3759f5c1d772d85659efea82d80ed55a13f3402b997e21a0acae4243",
      "blockNumber": "0x5c8bc",
      "gasUsed": "0x10a6d",
      "effectiveGasPrice": "0x3b9aca07",
      "blobGasPrice": "0x1",
      "from": "0xf39fd6e51aad88f6f4ce6ab8827279cfffb92266",
      "to": "0xa571c8b59d51f87d76e55f496a71a27b950d29c8",
      "contractAddress": null,
      "blockTimestamp": 1776252496
    },
    {
      "status": "0x1",
      "cumulativeGasUsed": "0x8d6217",
      "logs": [
        {
          "address": "0x64ed22277402f01f3ad382270b419b9f5e87f4c4",
          "topics": [
            "0x8c5be1e5ebec7d5bd14f71427d1e84f3dd0314c0f7b2291e5b200ac8c7c3b925",
            "0x000000000000000000000000f39fd6e51aad88f6f4ce6ab8827279cfffb92266",
            "0x00000000000000000000000021432f2f86d056d1f4ee99ec81758042c9588d03"
          ],
          "data": "0x0000000000000000000000000000000000000000000000008ac7230489e80000",
          "blockHash": "0xbf5ffbea3759f5c1d772d85659efea82d80ed55a13f3402b997e21a0acae4243",
          "blockNumber": "0x5c8bc",
          "blockTimestamp": "0x69df7650",
          "transactionHash": "0x401c7f0dd77c0c9841fabbfefa2bdcae7f5230a441452a4727aaa9248ad567e7",
          "transactionIndex": "0x1a",
          "logIndex": "0x10",
          "removed": false
        }
      ],
      "logsBloom": "0x00000000000000000000000000000080000000000000000000000000000000000000000000000000400000000000000000000000000000001000000000200000000000000000000000000000000000000000000000000000000000000000000000000000000000000000080100000000000000000000000000000000000000000000000000000000000000400000000000000000000000000000000000000000020000000000000000000000000000000000000000000000000000000000000000000000000000200000000000000000000000002000000000000000000000000010000000000000000000000000000000000000000000000000000000000800",
      "type": "0x0",
      "transactionHash": "0x401c7f0dd77c0c9841fabbfefa2bdcae7f5230a441452a4727aaa9248ad567e7",
      "transactionIndex": "0x1a",
      "blockHash": "0xbf5ffbea3759f5c1d772d85659efea82d80ed55a13f3402b997e21a0acae4243",
      "blockNumber": "0x5c8bc",
      "gasUsed": "0xb371",
      "effectiveGasPrice": "0x3b9aca07",
      "blobGasPrice": "0x1",
      "from": "0xf39fd6e51aad88f6f4ce6ab8827279cfffb92266",
      "to": "0x64ed22277402f01f3ad382270b419b9f5e87f4c4",
      "contractAddress": null,
      "blockTimestamp": 1776252496
    },
    {
      "status": "0x1",
      "cumulativeGasUsed": "0x8fa287",
      "logs": [
        {
          "address": "0x64ed22277402f01f3ad382270b419b9f5e87f4c4",
          "topics": [
            "0xddf252ad1be2c89b69c2b068fc378daa952ba7f163c4a11628f55a4df523b3ef",
            "0x000000000000000000000000f39fd6e51aad88f6f4ce6ab8827279cfffb92266",
            "0x00000000000000000000000021432f2f86d056d1f4ee99ec81758042c9588d03"
          ],
          "data": "0x0000000000000000000000000000000000000000000000008ac7230489e80000",
          "blockHash": "0xbf5ffbea3759f5c1d772d85659efea82d80ed55a13f3402b997e21a0acae4243",
          "blockNumber": "0x5c8bc",
          "blockTimestamp": "0x69df7650",
          "transactionHash": "0x00e687fa8ee5b3d40b7d10b79e977c8080fc02ab1decf504562f2a88581b7d27",
          "transactionIndex": "0x1b",
          "logIndex": "0x11",
          "removed": false
        },
        {
          "address": "0x21432f2f86d056d1f4ee99ec81758042c9588d03",
          "topics": [
            "0x88df26d296ecbf594c8609f433503d1436d24afe03c0d9e5e29c8f6ed92ef9b4",
            "0x000000000000000000000000f39fd6e51aad88f6f4ce6ab8827279cfffb92266",
            "0x4554480000000000000000000000000000000000000000000000000000000000"
          ],
          "data": "0x0000000000000000000000000000000000000000000000008ac7230489e80000",
          "blockHash": "0xbf5ffbea3759f5c1d772d85659efea82d80ed55a13f3402b997e21a0acae4243",
          "blockNumber": "0x5c8bc",
          "blockTimestamp": "0x69df7650",
          "transactionHash": "0x00e687fa8ee5b3d40b7d10b79e977c8080fc02ab1decf504562f2a88581b7d27",
          "transactionIndex": "0x1b",
          "logIndex": "0x12",
          "removed": false
        }
      ],
      "logsBloom": "0x00000000000000000000000000000080000000000000000000000000000000000010000000000000400000000000000000000000000000001001000000000000000800000080000000000008200000000000000000000000000000000000000000000000000000000000080100000000000000000000000000000010000000000800000000000000000000400000000000000000000000000000000000000000000000000000000000000000000000000000002000000000000000000000000000000002000000200000000000000000000000002000000000000000000000000000000000000000000000000080000000000000000000100000000000000800",
      "type": "0x0",
      "transactionHash": "0x00e687fa8ee5b3d40b7d10b79e977c8080fc02ab1decf504562f2a88581b7d27",
      "transactionIndex": "0x1b",
      "blockHash": "0xbf5ffbea3759f5c1d772d85659efea82d80ed55a13f3402b997e21a0acae4243",
      "blockNumber": "0x5c8bc",
      "gasUsed": "0x24070",
      "effectiveGasPrice": "0x3b9aca07",
      "blobGasPrice": "0x1",
      "from": "0xf39fd6e51aad88f6f4ce6ab8827279cfffb92266",
      "to": "0x21432f2f86d056d1f4ee99ec81758042c9588d03",
      "contractAddress": null,
      "blockTimestamp": 1776252496
    },
    {
      "status": "0x1",
      "cumulativeGasUsed": "0x927bfd",
      "logs": [
        {
          "address": "0x1e86fce4d102a5924a9ef503f772fca162af2067",
          "topics": [
            "0xddf252ad1be2c89b69c2b068fc378daa952ba7f163c4a11628f55a4df523b3ef",
            "0x0000000000000000000000000000000000000000000000000000000000000000",
            "0x000000000000000000000000f39fd6e51aad88f6f4ce6ab8827279cfffb92266"
          ],
          "data": "0x00000000000000000000000000000000000000000000010f0cf064dd59200000",
          "blockHash": "0xbf5ffbea3759f5c1d772d85659efea82d80ed55a13f3402b997e21a0acae4243",
          "blockNumber": "0x5c8bc",
          "blockTimestamp": "0x69df7650",
          "transactionHash": "0x6731415af0e5a47c8cd9ce909f1a61ec995f9da57c4c1cce9ae9aa6163f99129",
          "transactionIndex": "0x1c",
          "logIndex": "0x13",
          "removed": false
        },
        {
          "address": "0x21432f2f86d056d1f4ee99ec81758042c9588d03",
          "topics": [
            "0x7ee657a21ac7f39b81c23a6f713ab60c53f4c04479e9a7847c08e2bc69862e80",
            "0x000000000000000000000000f39fd6e51aad88f6f4ce6ab8827279cfffb92266",
            "0x4554480000000000000000000000000000000000000000000000000000000000"
          ],
          "data": "0x00000000000000000000000000000000000000000000010f0cf064dd59200000",
          "blockHash": "0xbf5ffbea3759f5c1d772d85659efea82d80ed55a13f3402b997e21a0acae4243",
          "blockNumber": "0x5c8bc",
          "blockTimestamp": "0x69df7650",
          "transactionHash": "0x6731415af0e5a47c8cd9ce909f1a61ec995f9da57c4c1cce9ae9aa6163f99129",
          "transactionIndex": "0x1c",
          "logIndex": "0x14",
          "removed": false
        }
      ],
      "logsBloom": "0x00000000000000000000000000000000000000000000000000000000000000000010000000000000000000000000000000000000000200000000000000000000000800000000000000000008200000000000000000000000000000000000000000000200020000000000000100000800000000000000000000000010000000000000000000000000000000000020000000000000000000000000000000000000000000000000000000000000000000000000002000000000000000000000000000001002000000200000000000000000010000002000000000000000000020000000000000000800000000000080000000000000000000100000000000000000",
      "type": "0x0",
      "transactionHash": "0x6731415af0e5a47c8cd9ce909f1a61ec995f9da57c4c1cce9ae9aa6163f99129",
      "transactionIndex": "0x1c",
      "blockHash": "0xbf5ffbea3759f5c1d772d85659efea82d80ed55a13f3402b997e21a0acae4243",
      "blockNumber": "0x5c8bc",
      "gasUsed": "0x2d976",
      "effectiveGasPrice": "0x3b9aca07",
      "blobGasPrice": "0x1",
      "from": "0xf39fd6e51aad88f6f4ce6ab8827279cfffb92266",
      "to": "0x21432f2f86d056d1f4ee99ec81758042c9588d03",
      "contractAddress": null,
      "blockTimestamp": 1776252496
    },
    {
      "status": "0x1",
      "cumulativeGasUsed": "0x932f56",
      "logs": [
        {
          "address": "0x8c2399346bea56a5fc4a5830d6c7ee34a7d8de4b",
          "topics": [
            "0x8c5be1e5ebec7d5bd14f71427d1e84f3dd0314c0f7b2291e5b200ac8c7c3b925",
            "0x000000000000000000000000f39fd6e51aad88f6f4ce6ab8827279cfffb92266",
            "0x00000000000000000000000017975fb494576ae89d627f904ec723b87c7c35c8"
          ],
          "data": "0x000000000000000000000000000000000000000000000000000000174876e800",
          "blockHash": "0xbf5ffbea3759f5c1d772d85659efea82d80ed55a13f3402b997e21a0acae4243",
          "blockNumber": "0x5c8bc",
          "blockTimestamp": "0x69df7650",
          "transactionHash": "0x013ef0824bbd1d3fc436a38f0ab002ac4710a1073df6f027d2f9f3cad8dbffcb",
          "transactionIndex": "0x1d",
          "logIndex": "0x15",
          "removed": false
        }
      ],
      "logsBloom": "0x00000000000000000000000000000000000000000100008000000000000000000000000000000000000000040000000000000000000000000000000000200000000000000000000000000000000000000000000000000000000000000000000000000000000000000000000100000000000000000000000000000000000000000000000000000000000000000000000000000000000000000000000000000000020000000000000000000000000000000000000000004000000000000000000000000000000000200000000000000000000000002000000000000000000000000010000000080000000000008000000000000000000000000000000000000000",
      "type": "0x0",
      "transactionHash": "0x013ef0824bbd1d3fc436a38f0ab002ac4710a1073df6f027d2f9f3cad8dbffcb",
      "transactionIndex": "0x1d",
      "blockHash": "0xbf5ffbea3759f5c1d772d85659efea82d80ed55a13f3402b997e21a0acae4243",
      "blockNumber": "0x5c8bc",
      "gasUsed": "0xb359",
      "effectiveGasPrice": "0x3b9aca07",
      "blobGasPrice": "0x1",
      "from": "0xf39fd6e51aad88f6f4ce6ab8827279cfffb92266",
      "to": "0x8c2399346bea56a5fc4a5830d6c7ee34a7d8de4b",
      "contractAddress": null,
      "blockTimestamp": 1776252496
    },
    {
      "status": "0x1",
      "cumulativeGasUsed": "0x96fba8",
      "logs": [
        {
          "address": "0x8c2399346bea56a5fc4a5830d6c7ee34a7d8de4b",
          "topics": [
            "0xddf252ad1be2c89b69c2b068fc378daa952ba7f163c4a11628f55a4df523b3ef",
            "0x000000000000000000000000f39fd6e51aad88f6f4ce6ab8827279cfffb92266",
            "0x00000000000000000000000017975fb494576ae89d627f904ec723b87c7c35c8"
          ],
          "data": "0x000000000000000000000000000000000000000000000000000000174876e800",
          "blockHash": "0xbf5ffbea3759f5c1d772d85659efea82d80ed55a13f3402b997e21a0acae4243",
          "blockNumber": "0x5c8bc",
          "blockTimestamp": "0x69df7650",
          "transactionHash": "0x7c6e6f7108e273f348ef4dbb7396becb1ec7398ae176a618e418471a2e229cfb",
          "transactionIndex": "0x1e",
          "logIndex": "0x16",
          "removed": false
        },
        {
          "address": "0x1e86fce4d102a5924a9ef503f772fca162af2067",
          "topics": [
            "0xddf252ad1be2c89b69c2b068fc378daa952ba7f163c4a11628f55a4df523b3ef",
            "0x0000000000000000000000000000000000000000000000000000000000000000",
            "0x000000000000000000000000f39fd6e51aad88f6f4ce6ab8827279cfffb92266"
          ],
          "data": "0x0000000000000000000000000000000000000000000015279700831d93700000",
          "blockHash": "0xbf5ffbea3759f5c1d772d85659efea82d80ed55a13f3402b997e21a0acae4243",
          "blockNumber": "0x5c8bc",
          "blockTimestamp": "0x69df7650",
          "transactionHash": "0x7c6e6f7108e273f348ef4dbb7396becb1ec7398ae176a618e418471a2e229cfb",
          "transactionIndex": "0x1e",
          "logIndex": "0x17",
          "removed": false
        },
        {
          "address": "0x1e86fce4d102a5924a9ef503f772fca162af2067",
          "topics": [
            "0xddf252ad1be2c89b69c2b068fc378daa952ba7f163c4a11628f55a4df523b3ef",
            "0x0000000000000000000000000000000000000000000000000000000000000000",
            "0x00000000000000000000000017975fb494576ae89d627f904ec723b87c7c35c8"
          ],
          "data": "0x0000000000000000000000000000000000000000000000056bc75e2d63100000",
          "blockHash": "0xbf5ffbea3759f5c1d772d85659efea82d80ed55a13f3402b997e21a0acae4243",
          "blockNumber": "0x5c8bc",
          "blockTimestamp": "0x69df7650",
          "transactionHash": "0x7c6e6f7108e273f348ef4dbb7396becb1ec7398ae176a618e418471a2e229cfb",
          "transactionIndex": "0x1e",
          "logIndex": "0x18",
          "removed": false
        },
        {
          "address": "0x1e86fce4d102a5924a9ef503f772fca162af2067",
          "topics": [
            "0x8c5be1e5ebec7d5bd14f71427d1e84f3dd0314c0f7b2291e5b200ac8c7c3b925",
            "0x00000000000000000000000017975fb494576ae89d627f904ec723b87c7c35c8",
            "0x00000000000000000000000006faddefde8dd5d4c6faace68b400754d960cb75"
          ],
          "data": "0x0000000000000000000000000000000000000000000000056bc75e2d63100000",
          "blockHash": "0xbf5ffbea3759f5c1d772d85659efea82d80ed55a13f3402b997e21a0acae4243",
          "blockNumber": "0x5c8bc",
          "blockTimestamp": "0x69df7650",
          "transactionHash": "0x7c6e6f7108e273f348ef4dbb7396becb1ec7398ae176a618e418471a2e229cfb",
          "transactionIndex": "0x1e",
          "logIndex": "0x19",
          "removed": false
        },
        {
          "address": "0x1e86fce4d102a5924a9ef503f772fca162af2067",
          "topics": [
            "0xddf252ad1be2c89b69c2b068fc378daa952ba7f163c4a11628f55a4df523b3ef",
            "0x00000000000000000000000017975fb494576ae89d627f904ec723b87c7c35c8",
            "0x00000000000000000000000006faddefde8dd5d4c6faace68b400754d960cb75"
          ],
          "data": "0x0000000000000000000000000000000000000000000000056bc75e2d63100000",
          "blockHash": "0xbf5ffbea3759f5c1d772d85659efea82d80ed55a13f3402b997e21a0acae4243",
          "blockNumber": "0x5c8bc",
          "blockTimestamp": "0x69df7650",
          "transactionHash": "0x7c6e6f7108e273f348ef4dbb7396becb1ec7398ae176a618e418471a2e229cfb",
          "transactionIndex": "0x1e",
          "logIndex": "0x1a",
          "removed": false
        },
        {
          "address": "0x17975fb494576ae89d627f904ec723b87c7c35c8",
          "topics": [
            "0xc91682597e50d783bf81329b763263cef72b0cda71f5e617e0bd4b4150f84403",
            "0x000000000000000000000000f39fd6e51aad88f6f4ce6ab8827279cfffb92266"
          ],
          "data": "0x000000000000000000000000000000000000000000000000000000174876e8000000000000000000000000000000000000000000000015279700831d937000000000000000000000000000000000000000000000000000056bc75e2d63100000",
          "blockHash": "0xbf5ffbea3759f5c1d772d85659efea82d80ed55a13f3402b997e21a0acae4243",
          "blockNumber": "0x5c8bc",
          "blockTimestamp": "0x69df7650",
          "transactionHash": "0x7c6e6f7108e273f348ef4dbb7396becb1ec7398ae176a618e418471a2e229cfb",
          "transactionIndex": "0x1e",
          "logIndex": "0x1b",
          "removed": false
        }
      ],
      "logsBloom": "0x00100000000000000000000000000000000001000100008000000000000000000000000000000000000000040000000000000000000200000000000000600000000000000000000000000008000000000000000000000000000000000000000000000200020000000000000100000800000000000000000000000010000000000000000000000000000000000000000000000000000000000000000000020000020000000020000000000000000000000000000000004000000000000000000000000002000200200400000000000000010080002000000000000000000020000010000400080000000000008000000000000000000000000000000000000000",
      "type": "0x0",
      "transactionHash": "0x7c6e6f7108e273f348ef4dbb7396becb1ec7398ae176a618e418471a2e229cfb",
      "transactionIndex": "0x1e",
      "blockHash": "0xbf5ffbea3759f5c1d772d85659efea82d80ed55a13f3402b997e21a0acae4243",
      "blockNumber": "0x5c8bc",
      "gasUsed": "0x3cc52",
      "effectiveGasPrice": "0x3b9aca07",
      "blobGasPrice": "0x1",
      "from": "0xf39fd6e51aad88f6f4ce6ab8827279cfffb92266",
      "to": "0x17975fb494576ae89d627f904ec723b87c7c35c8",
      "contractAddress": null,
      "blockTimestamp": 1776252496
    },
    {
      "status": "0x1",
      "cumulativeGasUsed": "0x97af0d",
      "logs": [
        {
          "address": "0x1e86fce4d102a5924a9ef503f772fca162af2067",
          "topics": [
            "0x8c5be1e5ebec7d5bd14f71427d1e84f3dd0314c0f7b2291e5b200ac8c7c3b925",
            "0x000000000000000000000000f39fd6e51aad88f6f4ce6ab8827279cfffb92266",
            "0x00000000000000000000000085f93384bad10d7751fcc3bbd8f8710db3190700"
          ],
          "data": "0x00000000000000000000000000000000000000000000006c6b935b8bbd400000",
          "blockHash": "0xbf5ffbea3759f5c1d772d85659efea82d80ed55a13f3402b997e21a0acae4243",
          "blockNumber": "0x5c8bc",
          "blockTimestamp": "0x69df7650",
          "transactionHash": "0xa84e8d410c6f7397c82335cbbebff77d5936911053e25af9a8c96bec81694117",
          "transactionIndex": "0x1f",
          "logIndex": "0x1c",
          "removed": false
        }
      ],
      "logsBloom": "0x00000000000000000000000000000000000000000000000000000000000000000000000000000000000000000000000000000000000200000000000000200000008000000000000000000000000000000008000000000000000000000000000000000200000000008000000100000000000000000000000000000000000000000000000000000000000000000000000000000000000000000000000000000000020000000000000000000000000000000000000000000000000000000000000000000000000000200000000000000000010000002000000000000000000000000010000000000000000000000000000000000000000000000000000000000000",
      "type": "0x0",
      "transactionHash": "0xa84e8d410c6f7397c82335cbbebff77d5936911053e25af9a8c96bec81694117",
      "transactionIndex": "0x1f",
      "blockHash": "0xbf5ffbea3759f5c1d772d85659efea82d80ed55a13f3402b997e21a0acae4243",
      "blockNumber": "0x5c8bc",
      "gasUsed": "0xb365",
      "effectiveGasPrice": "0x3b9aca07",
      "blobGasPrice": "0x1",
      "from": "0xf39fd6e51aad88f6f4ce6ab8827279cfffb92266",
      "to": "0x1e86fce4d102a5924a9ef503f772fca162af2067",
      "contractAddress": null,
      "blockTimestamp": 1776252496
    },
    {
      "status": "0x1",
      "cumulativeGasUsed": "0x9a1be5",
      "logs": [
        {
          "address": "0x1e86fce4d102a5924a9ef503f772fca162af2067",
          "topics": [
            "0xddf252ad1be2c89b69c2b068fc378daa952ba7f163c4a11628f55a4df523b3ef",
            "0x000000000000000000000000f39fd6e51aad88f6f4ce6ab8827279cfffb92266",
            "0x00000000000000000000000085f93384bad10d7751fcc3bbd8f8710db3190700"
          ],
          "data": "0x00000000000000000000000000000000000000000000006c6b935b8bbd400000",
          "blockHash": "0xbf5ffbea3759f5c1d772d85659efea82d80ed55a13f3402b997e21a0acae4243",
          "blockNumber": "0x5c8bc",
          "blockTimestamp": "0x69df7650",
          "transactionHash": "0x4344ba5489422ff91caea3e353d4695fddee6218c274f9e1ba89a6d9712d49f7",
          "transactionIndex": "0x20",
          "logIndex": "0x1d",
          "removed": false
        },
        {
          "address": "0x85f93384bad10d7751fcc3bbd8f8710db3190700",
          "topics": [
            "0x2da466a7b24304f47e87fa2e1e5a81b9831ce54fec19055ce277ca2f39ba42c4",
            "0x000000000000000000000000f39fd6e51aad88f6f4ce6ab8827279cfffb92266"
          ],
          "data": "0x00000000000000000000000000000000000000000000006c6b935b8bbd400000",
          "blockHash": "0xbf5ffbea3759f5c1d772d85659efea82d80ed55a13f3402b997e21a0acae4243",
          "blockNumber": "0x5c8bc",
          "blockTimestamp": "0x69df7650",
          "transactionHash": "0x4344ba5489422ff91caea3e353d4695fddee6218c274f9e1ba89a6d9712d49f7",
          "transactionIndex": "0x20",
          "logIndex": "0x1e",
          "removed": false
        }
      ],
      "logsBloom": "0x00000000000000000000000000000000000000000000000000000000000000000000000000000000000000000000000000000000000200000000000000000000008000000000000000000008000000000008000000000000000000000000200000000200000000008000000100000000000000000000000000000010000200000000000000000000000000000000000000000000000000000000000000000000000400000000000000000000040000000000000000000000000000000000000000000002000000200000000000000000010000002000000000000000000000000040000000000000000000000000000000800000000000000000000000000000",
      "type": "0x0",
      "transactionHash": "0x4344ba5489422ff91caea3e353d4695fddee6218c274f9e1ba89a6d9712d49f7",
      "transactionIndex": "0x20",
      "blockHash": "0xbf5ffbea3759f5c1d772d85659efea82d80ed55a13f3402b997e21a0acae4243",
      "blockNumber": "0x5c8bc",
      "gasUsed": "0x26cd8",
      "effectiveGasPrice": "0x3b9aca07",
      "blobGasPrice": "0x1",
      "from": "0xf39fd6e51aad88f6f4ce6ab8827279cfffb92266",
      "to": "0x85f93384bad10d7751fcc3bbd8f8710db3190700",
      "contractAddress": null,
      "blockTimestamp": 1776252496
    }
  ],
  "libraries": [],
  "pending": [],
  "returns": {},
  "timestamp": 1776252497162,
  "chain": 42069,
  "commit": "bf07638"
}