{
  "transactions": [
    {
      "hash": "0xc61cbdf62bb0ddad58373848928c0b8aacdbe70bd4e2d9c14fa6fe6aba509d98",
      "transactionType": "CREATE",
      "contractName": "UBIClaimV2",
      "contractAddress": "0xcf8355df541e43bbb8e2a4c442942eecd0aa1810",
      "function": null,
      "arguments": [
        "0xaE13506dEAe7F82EA5c1c646d0b6693b220A4BB8",
        "0xee98C47e4D793945D8372AaF89636455D28fa8dd",
        "0xf39Fd6e51aad88F6F4ce6aB8827279cffFb92266"
      ],
      "transaction": {
        "from": "0xf39fd6e51aad88f6f4ce6ab8827279cfffb92266",
        "gas": "0x108159",
        "value": "0x0",
        "input": "0x60a03461010957601f610e0038819003918201601f19168301916001600160401b0383118484101761010d578084926060946040528339810103126101095761004781610121565b90610060604061005960208401610121565b9201610121565b6004805460ff19166001179055916001600160a01b0316801580156100f8575b6100e9576080525f80546001600160a01b039283166001600160a01b03199182161790915560018054939092169216919091179055604051610cca908161013682396080518181816101740152818161058c015281816108aa015281816109a00152610ae50152f35b63d92e233d60e01b5f5260045ffd5b506001600160a01b03831615610080565b5f80fd5b634e487b7160e01b5f52604160045260245ffd5b51906001600160a01b03821682036101095756fe6080806040526004361015610012575f80fd5b5f3560e01c908163119e5bf314610898575080631b39786f1461088057806341c61383146108635780634e71d92d146108305780636052970c1461080957806375829def1461079157806376671808146107715780637c17ec0a1461072c578063928d08c0146106f4578063a2309ff8146106d7578063a70b9f0c146106ba578063b17fb9d614610654578063b9b48f5014610617578063bf3506c114610548578063c3c6a40e14610526578063ddeae033146104ed578063ecd8dc3a14610463578063f851a4401461043b5763fb5f749f146100ed575f80fd5b346102d05760203660031901126102d05760043567ffffffffffffffff81116102d057366023820112156102d057806004013567ffffffffffffffff81116102d0573660248260051b840101116102d057335f52600260205260ff60405f2054161561042c575f906103e881116103f557604051631c9b973760e21b8152620151804204937f00000000000000000000000000000000000000000000000000000000000000006001600160a01b0316939091602081600481885afa9081156102c5575f916103c3575b509293600186018087119492935f939290845b88861015610361576024600587901b830101356001600160a01b03811696908781036102d05789881580156102ff575b80156102e1575b6102d4576102a157875f5260036020528560405f2055843b156102d0576040516340c10f1960e01b81526001600160a01b03919091166004820152602481018790525f8160448183895af180156102c5576102b5575b508582018092116102a157600180929801967fa265860bad5040e1bef830652f782ec55a23a74fc92eb2c770e61d7d50cbb01560408d8151908a82526020820152a25b0194956101c9565b634e487b7160e01b5f52601160045260245ffd5b5f6102bf916108ef565b5f610256565b6040513d5f823e3d90fd5b5f80fd5b5050600191979650610299565b5050875f5260036020528960405f2054906102a157868b9114610200565b50506040516263fa2760e01b815260048101899052602081602481895afa80156102c5578b915f91610333575b50156101f9565b610354915060203d811161035a575b61034c81836108ef565b810190610aab565b5f61032c565b503d610342565b866020918b82610376575b5050604051908152f35b7f61a5a92a0b111ed50938e8a2c768049e084bbdea9dd341cd1cdd47ba40cc54f6916060918460055401600555816006540160065560405191858352868301526040820152a1828061036c565b90506020813d6020116103ed575b816103de602093836108ef565b810103126102d057515f6101b6565b3d91506103d1565b60405162461bcd60e51b815260206004820152600f60248201526e426174636820746f6f206c6172676560881b6044820152606490fd5b630bfd903360e11b5f5260045ffd5b346102d0575f3660031901126102d0576001546040516001600160a01b039091168152602090f35b346102d05760403660031901126102d05761047c6108d9565b602435908115158092036102d05760207fee42947bc760229eeff964017ac68eddb00ba98b0defcd90a1bc85a5afceb057916104c360018060a01b03600154163314610a73565b60018060a01b031692835f526002825260405f2060ff1981541660ff8316179055604051908152a2005b346102d05760203660031901126102d0576105066108d9565b335f52600260205260ff60405f2054161561042c5761052490610ac3565b005b346102d0575f3660031901126102d057602060ff600454166040519015158152f35b346102d05760203660031901126102d0576105616108d9565b6040516263fa2760e01b81526001600160a01b039182166004820181905291602090829060249082907f0000000000000000000000000000000000000000000000000000000000000000165afa9081156102c5575f916105f8575b50806105d0575b6020906040519015158152f35b505f52600360205260405f2054620151804204600181018091116102a15760209114156105c3565b610611915060203d60201161035a5761034c81836108ef565b826105bc565b346102d05760203660031901126102d0576001600160a01b036106386108d9565b165f526002602052602060ff60405f2054166040519015158152f35b346102d05760203660031901126102d05761066d6108d9565b61068260018060a01b03600154163314610a73565b6001600160a01b031680156106ab576bffffffffffffffffffffffff60a01b5f5416175f555f80f35b63d92e233d60e01b5f5260045ffd5b346102d0575f3660031901126102d0576020604051620151808152f35b346102d0575f3660031901126102d0576020600654604051908152f35b346102d05760203660031901126102d0576001600160a01b036107156108d9565b165f526003602052602060405f2054604051908152f35b346102d05760203660031901126102d0576004358015158091036102d05761075f60018060a01b03600154163314610a73565b60ff8019600454169116176004555f80f35b346102d0575f3660031901126102d0576020620151804204604051908152f35b346102d05760203660031901126102d0576107aa6108d9565b6001546001600160a01b038116916107c3338414610a73565b6001600160a01b03169182156106ab5782907ff8ccb027dfcd135e000e9d45e6cc2d662578a8825d4c45b5e32e0adf67e79ec65f80a36001600160a01b03191617600155005b346102d0575f3660031901126102d0575f546040516001600160a01b039091168152602090f35b346102d0575f3660031901126102d05760ff60045416156108545761052433610ac3565b631f18ee6160e11b5f5260045ffd5b346102d0575f3660031901126102d0576020600554604051908152f35b346102d0575f3660031901126102d057610524610925565b346102d0575f3660031901126102d0577f00000000000000000000000000000000000000000000000000000000000000006001600160a01b03168152602090f35b600435906001600160a01b03821682036102d057565b90601f8019910116810190811067ffffffffffffffff82111761091157604052565b634e487b7160e01b5f52604160045260245ffd5b5f80546001600160a01b03168015610a6f5760405163c4f4542360e01b815290602082600481845afa9182156102c5575f92610a3b575b508115610a3657803b156102d05760405163212e7c3160e01b815230600482015260248101839052905f908290604490829084905af180156102c557610a21575b507f00000000000000000000000000000000000000000000000000000000000000006001600160a01b031690813b15610a1d5782916024839260405194859384926383adc2ff60e01b845260048401525af18015610a12576109fd575050565b610a088280926108ef565b610a0f5750565b80fd5b6040513d84823e3d90fd5b8280fd5b610a2e9192505f906108ef565b5f905f61099d565b505050565b9091506020813d602011610a67575b81610a57602093836108ef565b810103126102d05751905f61095c565b3d9150610a4a565b5050565b15610a7a57565b60405162461bcd60e51b81526020600482015260096024820152682737ba1030b236b4b760b91b6044820152606490fd5b908160209103126102d0575180151581036102d05790565b6040516263fa2760e01b81526001600160a01b038281166004830181905292917f000000000000000000000000000000000000000000000000000000000000000090911690602081602481855afa9081156102c5575f91610c75575b5015610c625762015180420490835f52600360205260405f205460018301908184116102a1578114610c4b57845f52600360205260405f205560405190631c9b973760e21b8252602082600481845afa9182156102c5575f92610c17575b50803b156102d0576040516340c10f1960e01b81526001600160a01b03949094166004850152602484018290525f908490604490829084905af19182156102c5577fa265860bad5040e1bef830652f782ec55a23a74fc92eb2c770e61d7d50cbb01593604093610c07575b50600160055401600555816006540160065582519182526020820152a2565b5f610c11916108ef565b5f610be8565b9091506020813d602011610c43575b81610c33602093836108ef565b810103126102d05751905f610b7d565b3d9150610c26565b82856306b9852160e31b5f5260045260245260445ffd5b82633f40de5d60e21b5f5260045260245ffd5b610c8e915060203d60201161035a5761034c81836108ef565b5f610b1f56fea2646970667358221220ae597b7705ddbfc60c568ae232926f40441d457d183f39aa3a221dc1def152f164736f6c63430008210033000000000000000000000000ae13506deae7f82ea5c1c646d0b6693b220a4bb8000000000000000000000000ee98c47e4d793945d8372aaf89636455d28fa8dd000000000000000000000000f39fd6e51aad88f6f4ce6ab8827279cfffb92266",
        "nonce": "0x500",
        "chainId": "0xa455"
      },
      "additionalContracts": [],
      "isFixedGasLimit": false
    },
    {
      "hash": "0x193d1cbf08973cb8a73d04b5519f70432911071d12b0694280744e0e4686e972",
      "transactionType": "CALL",
      "contractName": null,
      "contractAddress": "0xae13506deae7f82ea5c1c646d0b6693b220a4bb8",
      "function": "setMinter(address,bool)",
      "arguments": [
        "0xCf8355dF541e43bBB8E2a4c442942Eecd0aA1810",
        "true"
      ],
      "transaction": {
        "from": "0xf39fd6e51aad88f6f4ce6ab8827279cfffb92266",
        "to": "0xae13506deae7f82ea5c1c646d0b6693b220a4bb8",
        "gas": "0x11227",
        "value": "0x0",
        "input": "0xcf456ae7000000000000000000000000cf8355df541e43bbb8e2a4c442942eecd0aa18100000000000000000000000000000000000000000000000000000000000000001",
        "nonce": "0x501",
        "chainId": "0xa455"
      },
      "additionalContracts": [],
      "isFixedGasLimit": false
    },
    {
      "hash": "0x2d033937ac8c8962ec2833df511542cefb3c1b58886557cbc46ff267c84daf2a",
      "transactionType": "CALL",
      "contractName": "UBIClaimV2",
      "contractAddress": "0xcf8355df541e43bbb8e2a4c442942eecd0aa1810",
      "function": "setRelayer(address,bool)",
      "arguments": [
        "0xf39Fd6e51aad88F6F4ce6aB8827279cffFb92266",
        "true"
      ],
      "transaction": {
        "from": "0xf39fd6e51aad88f6f4ce6ab8827279cfffb92266",
        "to": "0xcf8355df541e43bbb8e2a4c442942eecd0aa1810",
        "gas": "0x102be",
        "value": "0x0",
        "input": "0xecd8dc3a000000000000000000000000f39fd6e51aad88f6f4ce6ab8827279cfffb922660000000000000000000000000000000000000000000000000000000000000001",
        "nonce": "0x502",
        "chainId": "0xa455"
      },
      "additionalContracts": [],
      "isFixedGasLimit": false
    }
  ],
  "receipts": [
    {
      "status": "0x1",
      "cumulativeGasUsed": "0xcb245",
      "logs": [],
      "logsBloom": "0x00000000000000000000000000000000000000000000000000000000000000000000000000000000000000000000000000000000000000000000000000000000000000000000000000000000000000000000000000000000000000000000000000000000000000000000000000000000000000000000000000000000000000000000000000000000000000000000000000000000000000000000000000000000000000000000000000000000000000000000000000000000000000000000000000000000000000000000000000000000000000000000000000000000000000000000000000000000000000000000000000000000000000000000000000000000",
      "type": "0x0",
      "transactionHash": "0xc61cbdf62bb0ddad58373848928c0b8aacdbe70bd4e2d9c14fa6fe6aba509d98",
      "transactionIndex": "0x0",
      "blockHash": "0xaa8f75d6328a6f85077da97b26cfa934d632ed821386b568866d0a999c1d3533",
      "blockNumber": "0x5c8c2",
      "gasUsed": "0xcb245",
      "effectiveGasPrice": "0x3b9aca07",
      "blobGasPrice": "0x1",
      "from": "0xf39fd6e51aad88f6f4ce6ab8827279cfffb92266",
      "to": null,
      "contractAddress": "0xcf8355df541e43bbb8e2a4c442942eecd0aa1810",
      "blockTimestamp": 1776252509
    },
    {
      "status": "0x1",
      "cumulativeGasUsed": "0xd78c1",
      "logs": [
        {
          "address": "0xae13506deae7f82ea5c1c646d0b6693b220a4bb8",
          "topics": [
            "0x583b0aa0e528532caf4b907c11d7a8158a122fe2a6fb80cd9b09776ebea8d92d",
            "0x000000000000000000000000cf8355df541e43bbb8e2a4c442942eecd0aa1810"
          ],
          "data": "0x0000000000000000000000000000000000000000000000000000000000000001",
          "blockHash": "0xaa8f75d6328a6f85077da97b26cfa934d632ed821386b568866d0a999c1d3533",
          "blockNumber": "0x5c8c2",
          "blockTimestamp": "0x69df765d",
          "transactionHash": "0x193d1cbf08973cb8a73d04b5519f70432911071d12b0694280744e0e4686e972",
          "transactionIndex": "0x1",
          "logIndex": "0x0",
          "removed": false
        }
      ],
      "logsBloom": "0x00000000000000000000000000000000000000000000000000020000000000000002000000000000000000000000000000000000000000000000000040000000000001000000000000000000000000000000000000000000000000000000000000000000000000000000000000000000000000000000000000000000000000000002000080000000000000000000000000000010000000000000000000000000000000000000000000000000000080000000000000000000000000000000000000000000000000000000000000000000000000000000000000000000000000000000000000000000000000000040000000000000000000000000000000000000",
      "type": "0x0",
      "transactionHash": "0x193d1cbf08973cb8a73d04b5519f70432911071d12b0694280744e0e4686e972",
      "transactionIndex": "0x1",
      "blockHash": "0xaa8f75d6328a6f85077da97b26cfa934d632ed821386b568866d0a999c1d3533",
      "blockNumber": "0x5c8c2",
      "gasUsed": "0xc67c",
      "effectiveGasPrice": "0x3b9aca07",
      "blobGasPrice": "0x1",
      "from": "0xf39fd6e51aad88f6f4ce6ab8827279cfffb92266",
      "to": "0xae13506deae7f82ea5c1c646d0b6693b220a4bb8",
      "contractAddress": null,
      "blockTimestamp": 1776252509
    },
    {
      "status": "0x1",
      "cumulativeGasUsed": "0xe3415",
      "logs": [
        {
          "address": "0xcf8355df541e43bbb8e2a4c442942eecd0aa1810",
          "topics": [
            "0xee42947bc760229eeff964017ac68eddb00ba98b0defcd90a1bc85a5afceb057",
            "0x000000000000000000000000f39fd6e51aad88f6f4ce6ab8827279cfffb92266"
          ],
          "data": "0x0000000000000000000000000000000000000000000000000000000000000001",
          "blockHash": "0xaa8f75d6328a6f85077da97b26cfa934d632ed821386b568866d0a999c1d3533",
          "blockNumber": "0x5c8c2",
          "blockTimestamp": "0x69df765d",
          "transactionHash": "0x2d033937ac8c8962ec2833df511542cefb3c1b58886557cbc46ff267c84daf2a",
          "transactionIndex": "0x2",
          "logIndex": "0x1",
          "removed": false
        }
      ],
      "logsBloom": "0x00080000000002000000000000000000000000000000000000000000000000000000000000000000000000000000000000000000000000000000000000000000000000000000000000000000000000000000000000000000000000000000000004000000000000000000000140000000000000000000000000000000000000000000000000000000000000000000000000000000000000000000000000000000000000000000000000000000000000000000000000000000000000000000000000000000000000200000000000000000000000802000000000000000000000000000000000000000100000000000000000000000000000000000000000000000",
      "type": "0x0",
      "transactionHash": "0x2d033937ac8c8962ec2833df511542cefb3c1b58886557cbc46ff267c84daf2a",
      "transactionIndex": "0x2",
      "blockHash": "0xaa8f75d6328a6f85077da97b26cfa934d632ed821386b568866d0a999c1d3533",
      "blockNumber": "0x5c8c2",
      "gasUsed": "0xbb54",
      "effectiveGasPrice": "0x3b9aca07",
      "blobGasPrice": "0x1",
      "from": "0xf39fd6e51aad88f6f4ce6ab8827279cfffb92266",
      "to": "0xcf8355df541e43bbb8e2a4c442942eecd0aa1810",
      "contractAddress": null,
      "blockTimestamp": 1776252509
    }
  ],
  "libraries": [],
  "pending": [],
  "returns": {},
  "timestamp": 1776252509430,
  "chain": 42069,
  "commit": "bf07638"
}