{
  "transactions": [
    {
      "hash": "0x94233233875f12c6269943552307a6c2636010e109a5b0182d3dc547b6b77a50",
      "transactionType": "CREATE",
      "contractName": "PriceOracle",
      "contractAddress": "0xd5ac451b0c50b9476107823af206ed814a2e2580",
      "function": null,
      "arguments": [
        "0xf39Fd6e51aad88F6F4ce6aB8827279cffFb92266"
      ],
      "transaction": {
        "from": "0xf39fd6e51aad88f6f4ce6ab8827279cfffb92266",
        "gas": "0xa58ac",
        "value": "0x0",
        "input": "0x608034608957601f61084038819003918201601f19168301916001600160401b03831184841017608d57808492602094604052833981010312608957516001600160a01b03811690819003608957610e106004558015607a575f80546001600160a01b03191691909117905560405161079e90816100a28239f35b63d92e233d60e01b5f5260045ffd5b5f80fd5b634e487b7160e01b5f52604160045260245ffdfe6080806040526004361015610012575f80fd5b5f3560e01c9081633e57ebbd1461053f5750806349b3ce5614610485578063524f3889146104475780635ae28fc9146103ea5780635f375d4914610321578063687043c514610304578063704b6c02146102a85780637e6d28351461027e578063832321bf14610258578063953dc87e14610186578063b6a9950e14610108578063c6c3f71e146100d65763f851a440146100ab575f80fd5b346100d2575f3660031901126100d2575f546040516001600160a01b039091168152602090f35b5f80fd5b346100d25760203660031901126100d2576004355f526001602052602060018060a01b0360405f205416604051908152f35b346100d25760203660031901126100d25760043567ffffffffffffffff81116100d25761013c61014291369060040161056a565b906105ce565b5f818152600160205260409020546001600160a01b03161580159061016f575b6020906040519015158152f35b505f526003602052602060ff60405f205416610162565b346100d25760603660031901126100d25760043567ffffffffffffffff81116100d2576101b790369060040161056a565b9060243591604435908115158092036100d2575f546001600160a01b03163303610249578260209261020a837fd78ddf5dda09409c5ba0a349a6c0149840d265112fa302b34dc3b322e7f675bc966105ce565b805f52600285528660405f20555f526003845260405f209060ff8019835416911617905581604051928392833781015f815203902092604051908152a2005b637bfa4b9f60e01b5f5260045ffd5b346100d25760203660031901126100d2576020610276600435610613565b604051908152f35b346100d25760203660031901126100d2576004355f526002602052602060405f2054604051908152f35b346100d25760203660031901126100d2576004356001600160a01b038116908190036100d2575f546001600160a01b03811633036102495781156102f5576001600160a01b031916175f55005b63d92e233d60e01b5f5260045ffd5b346100d2575f3660031901126100d2576020600454604051908152f35b346100d25760403660031901126100d25760043567ffffffffffffffff81116100d25761035290369060040161056a565b6024356001600160a01b03811692908390036100d2575f546001600160a01b031633036102495782156102f55781816103ae7f77aadf7cec07cc754e2a4e21ee740c53687ef1aeceb74e9f6450e9c68294324e946020946105ce565b5f526001835260405f20856bffffffffffffffffffffffff60a01b82541617905581604051928392833781015f815203902092604051908152a2005b346100d25760203660031901126100d2575f54600435906001600160a01b03163303610249577f1293e51547e7dfe0f71bcd8fbe56949db0c3162cb40fe283a5b45544b6cafac460406004548151908152836020820152a1600455005b346100d25760203660031901126100d25760043567ffffffffffffffff81116100d25761027661048061013c602093369060040161056a565b610613565b346100d25760203660031901126100d25760043567ffffffffffffffff81116100d2576104b690369060040161056a565b5f549091906001600160a01b03163303610249576104d482826105ce565b805f52600160205260405f206bffffffffffffffffffffffff60a01b81541690555f52600360205260405f2060ff19815416905581604051928392833781015f81520390207f06aa2b76883f4d9b405ce5d8cb618072ed06ad9a9f4a3a638d6a76f995f950ce5f80a2005b346100d25760203660031901126100d2576020906004355f526003825260ff60405f20541615158152f35b9181601f840112156100d25782359167ffffffffffffffff83116100d257602083818601950101116100d257565b90601f8019910116810190811067ffffffffffffffff8211176105ba57604052565b634e487b7160e01b5f52604160045260245ffd5b906105f6602060405183819483830196873781015f838201520301601f198101835282610598565b51902090565b519069ffffffffffffffffffff821682036100d257565b805f52600360205260ff60405f20541661073e575f818152600160205260409020546001600160a01b0316801561072b579060a060049260405193848092633fabe5a360e21b82525afa8015610720575f925f916106cc575b508042034281116106b8576004541061069e57505f82131561068c575090565b637b176b0960e11b5f5260045260245ffd5b906357fd6bcb60e11b5f526004526024524260445260645ffd5b634e487b7160e01b5f52601160045260245ffd5b92505060a0823d60a011610718575b816106e860a09383610598565b810103126100d2576106f9826105fc565b5060208201516107106080606085015194016105fc565b50915f61066c565b3d91506106db565b6040513d5f823e3d90fd5b50630138152d60e61b5f5260045260245ffd5b805f52600260205260405f2054908115610756575090565b633489b6c560e11b5f5260045260245ffdfea2646970667358221220f2aca98a4d3ee2701282b72c7d44ff54a9c75ccec8743c222b017fdf56ddf22c64736f6c63430008210033000000000000000000000000f39fd6e51aad88f6f4ce6ab8827279cfffb92266",
        "nonce": "0x69",
        "chainId": "0xa455"
      },
      "additionalContracts": [],
      "isFixedGasLimit": false
    },
    {
      "hash": "0xcb74a8b9779d7f562fd1e231584fb7e7a72c50da033ca23a749423fe9c4ca65c",
      "transactionType": "CALL",
      "contractName": "PriceOracle",
      "contractAddress": "0xd5ac451b0c50b9476107823af206ed814a2e2580",
      "function": "setManualPrice(string,uint256,bool)",
      "arguments": [
        "AAPL",
        "17872000000",
        "true"
      ],
      "transaction": {
        "from": "0xf39fd6e51aad88f6f4ce6ab8827279cfffb92266",
        "to": "0xd5ac451b0c50b9476107823af206ed814a2e2580",
        "gas": "0x17d2c",
        "value": "0x0",
        "input": "0x953dc87e00000000000000000000000000000000000000000000000000000000000000600000000000000000000000000000000000000000000000000000000429411400000000000000000000000000000000000000000000000000000000000000000100000000000000000000000000000000000000000000000000000000000000044141504c00000000000000000000000000000000000000000000000000000000",
        "nonce": "0x6a",
        "chainId": "0xa455"
      },
      "additionalContracts": [],
      "isFixedGasLimit": false
    },
    {
      "hash": "0x9ba14eb30c4880840e0ea203ff564cc59cb44f110062de4e17ecd5f35980bbd3",
      "transactionType": "CALL",
      "contractName": "PriceOracle",
      "contractAddress": "0xd5ac451b0c50b9476107823af206ed814a2e2580",
      "function": "setManualPrice(string,uint256,bool)",
      "arguments": [
        "TSLA",
        "24850000000",
        "true"
      ],
      "transaction": {
        "from": "0xf39fd6e51aad88f6f4ce6ab8827279cfffb92266",
        "to": "0xd5ac451b0c50b9476107823af206ed814a2e2580",
        "gas": "0x193aa",
        "value": "0x0",
        "input": "0x953dc87e000000000000000000000000000000000000000000000000000000000000006000000000000000000000000000000000000000000000000000000005c92ce8800000000000000000000000000000000000000000000000000000000000000001000000000000000000000000000000000000000000000000000000000000000454534c4100000000000000000000000000000000000000000000000000000000",
        "nonce": "0x6b",
        "chainId": "0xa455"
      },
      "additionalContracts": [],
      "isFixedGasLimit": false
    },
    {
      "hash": "0xe28a700f60f5006a848124cf6fcc9a31050654dcf67bc8bf400f231ce2c00e35",
      "transactionType": "CALL",
      "contractName": "PriceOracle",
      "contractAddress": "0xd5ac451b0c50b9476107823af206ed814a2e2580",
      "function": "setManualPrice(string,uint256,bool)",
      "arguments": [
        "NVDA",
        "87530000000",
        "true"
      ],
      "transaction": {
        "from": "0xf39fd6e51aad88f6f4ce6ab8827279cfffb92266",
        "to": "0xd5ac451b0c50b9476107823af206ed814a2e2580",
        "gas": "0x193aa",
        "value": "0x0",
        "input": "0x953dc87e0000000000000000000000000000000000000000000000000000000000000060000000000000000000000000000000000000000000000000000000146131ce80000000000000000000000000000000000000000000000000000000000000000100000000000000000000000000000000000000000000000000000000000000044e56444100000000000000000000000000000000000000000000000000000000",
        "nonce": "0x6c",
        "chainId": "0xa455"
      },
      "additionalContracts": [],
      "isFixedGasLimit": false
    },
    {
      "hash": "0xac10c8e841904eff9951c0f9dee2765bd64b0315bae06279c659e5c32be146e2",
      "transactionType": "CALL",
      "contractName": "PriceOracle",
      "contractAddress": "0xd5ac451b0c50b9476107823af206ed814a2e2580",
      "function": "setManualPrice(string,uint256,bool)",
      "arguments": [
        "MSFT",
        "41560000000",
        "true"
      ],
      "transaction": {
        "from": "0xf39fd6e51aad88f6f4ce6ab8827279cfffb92266",
        "to": "0xd5ac451b0c50b9476107823af206ed814a2e2580",
        "gas": "0x17d2c",
        "value": "0x0",
        "input": "0x953dc87e000000000000000000000000000000000000000000000000000000000000006000000000000000000000000000000000000000000000000000000009ad2b4600000000000000000000000000000000000000000000000000000000000000000100000000000000000000000000000000000000000000000000000000000000044d53465400000000000000000000000000000000000000000000000000000000",
        "nonce": "0x6d",
        "chainId": "0xa455"
      },
      "additionalContracts": [],
      "isFixedGasLimit": false
    },
    {
      "hash": "0x43d66547f99e52d8b2cc1a48cf3c6cb8ef980e3f24d355581bf9bc75da94c000",
      "transactionType": "CALL",
      "contractName": "PriceOracle",
      "contractAddress": "0xd5ac451b0c50b9476107823af206ed814a2e2580",
      "function": "setManualPrice(string,uint256,bool)",
      "arguments": [
        "AMZN",
        "18215000000",
        "true"
      ],
      "transaction": {
        "from": "0xf39fd6e51aad88f6f4ce6ab8827279cfffb92266",
        "to": "0xd5ac451b0c50b9476107823af206ed814a2e2580",
        "gas": "0x193aa",
        "value": "0x0",
        "input": "0x953dc87e0000000000000000000000000000000000000000000000000000000000000060000000000000000000000000000000000000000000000000000000043db2d7c000000000000000000000000000000000000000000000000000000000000000010000000000000000000000000000000000000000000000000000000000000004414d5a4e00000000000000000000000000000000000000000000000000000000",
        "nonce": "0x6e",
        "chainId": "0xa455"
      },
      "additionalContracts": [],
      "isFixedGasLimit": false
    },
    {
      "hash": "0x13bca5797b34ffc708e328203f62a9928bb7b05f52f2dd6753ec417c4fa88c03",
      "transactionType": "CALL",
      "contractName": "PriceOracle",
      "contractAddress": "0xd5ac451b0c50b9476107823af206ed814a2e2580",
      "function": "setManualPrice(string,uint256,bool)",
      "arguments": [
        "GOOGL",
        "15580000000",
        "true"
      ],
      "transaction": {
        "from": "0xf39fd6e51aad88f6f4ce6ab8827279cfffb92266",
        "to": "0xd5ac451b0c50b9476107823af206ed814a2e2580",
        "gas": "0x193aa",
        "value": "0x0",
        "input": "0x953dc87e000000000000000000000000000000000000000000000000000000000000006000000000000000000000000000000000000000000000000000000003a0a3ef0000000000000000000000000000000000000000000000000000000000000000010000000000000000000000000000000000000000000000000000000000000005474f4f474c000000000000000000000000000000000000000000000000000000",
        "nonce": "0x6f",
        "chainId": "0xa455"
      },
      "additionalContracts": [],
      "isFixedGasLimit": false
    },
    {
      "hash": "0xa2c57236f471728356b68fdb047ab71a93335bcb8a8f661a80759b1446203b6b",
      "transactionType": "CALL",
      "contractName": "PriceOracle",
      "contractAddress": "0xd5ac451b0c50b9476107823af206ed814a2e2580",
      "function": "setManualPrice(string,uint256,bool)",
      "arguments": [
        "META",
        "50325000000",
        "true"
      ],
      "transaction": {
        "from": "0xf39fd6e51aad88f6f4ce6ab8827279cfffb92266",
        "to": "0xd5ac451b0c50b9476107823af206ed814a2e2580",
        "gas": "0x193aa",
        "value": "0x0",
        "input": "0x953dc87e00000000000000000000000000000000000000000000000000000000000000600000000000000000000000000000000000000000000000000000000bb79a8f40000000000000000000000000000000000000000000000000000000000000000100000000000000000000000000000000000000000000000000000000000000044d45544100000000000000000000000000000000000000000000000000000000",
        "nonce": "0x70",
        "chainId": "0xa455"
      },
      "additionalContracts": [],
      "isFixedGasLimit": false
    },
    {
      "hash": "0x30d02f0e4b1b30d071728aee1cf1bc21a89509a4f4b31a270c9b6074a4fd4c1a",
      "transactionType": "CALL",
      "contractName": "PriceOracle",
      "contractAddress": "0xd5ac451b0c50b9476107823af206ed814a2e2580",
      "function": "setManualPrice(string,uint256,bool)",
      "arguments": [
        "JPM",
        "19840000000",
        "true"
      ],
      "transaction": {
        "from": "0xf39fd6e51aad88f6f4ce6ab8827279cfffb92266",
        "to": "0xd5ac451b0c50b9476107823af206ed814a2e2580",
        "gas": "0x19387",
        "value": "0x0",
        "input": "0x953dc87e0000000000000000000000000000000000000000000000000000000000000060000000000000000000000000000000000000000000000000000000049e8e6000000000000000000000000000000000000000000000000000000000000000000100000000000000000000000000000000000000000000000000000000000000034a504d0000000000000000000000000000000000000000000000000000000000",
        "nonce": "0x71",
        "chainId": "0xa455"
      },
      "additionalContracts": [],
      "isFixedGasLimit": false
    },
    {
      "hash": "0x733be691a0e549e713c21e37bd1d129b0c58d7d2c00f3c4ea4d78ade89f18158",
      "transactionType": "CALL",
      "contractName": "PriceOracle",
      "contractAddress": "0xd5ac451b0c50b9476107823af206ed814a2e2580",
      "function": "setManualPrice(string,uint256,bool)",
      "arguments": [
        "V",
        "27990000000",
        "true"
      ],
      "transaction": {
        "from": "0xf39fd6e51aad88f6f4ce6ab8827279cfffb92266",
        "to": "0xd5ac451b0c50b9476107823af206ed814a2e2580",
        "gas": "0x17d0a",
        "value": "0x0",
        "input": "0x953dc87e00000000000000000000000000000000000000000000000000000000000000600000000000000000000000000000000000000000000000000000000684558180000000000000000000000000000000000000000000000000000000000000000100000000000000000000000000000000000000000000000000000000000000015600000000000000000000000000000000000000000000000000000000000000",
        "nonce": "0x72",
        "chainId": "0xa455"
      },
      "additionalContracts": [],
      "isFixedGasLimit": false
    },
    {
      "hash": "0xc3a100fd6bac612f2f32754c4574c3559e4c05da02db28926fcc8e952c1fb113",
      "transactionType": "CALL",
      "contractName": "PriceOracle",
      "contractAddress": "0xd5ac451b0c50b9476107823af206ed814a2e2580",
      "function": "setManualPrice(string,uint256,bool)",
      "arguments": [
        "DIS",
        "11235000000",
        "true"
      ],
      "transaction": {
        "from": "0xf39fd6e51aad88f6f4ce6ab8827279cfffb92266",
        "to": "0xd5ac451b0c50b9476107823af206ed814a2e2580",
        "gas": "0x17d2c",
        "value": "0x0",
        "input": "0x953dc87e0000000000000000000000000000000000000000000000000000000000000060000000000000000000000000000000000000000000000000000000029da87ec0000000000000000000000000000000000000000000000000000000000000000100000000000000000000000000000000000000000000000000000000000000034449530000000000000000000000000000000000000000000000000000000000",
        "nonce": "0x73",
        "chainId": "0xa455"
      },
      "additionalContracts": [],
      "isFixedGasLimit": false
    },
    {
      "hash": "0x5d05ac07c7d496df111ab688f576391ca9615444706d22701702d762885908ce",
      "transactionType": "CALL",
      "contractName": "PriceOracle",
      "contractAddress": "0xd5ac451b0c50b9476107823af206ed814a2e2580",
      "function": "setManualPrice(string,uint256,bool)",
      "arguments": [
        "NFLX",
        "62890000000",
        "true"
      ],
      "transaction": {
        "from": "0xf39fd6e51aad88f6f4ce6ab8827279cfffb92266",
        "to": "0xd5ac451b0c50b9476107823af206ed814a2e2580",
        "gas": "0x193aa",
        "value": "0x0",
        "input": "0x953dc87e00000000000000000000000000000000000000000000000000000000000000600000000000000000000000000000000000000000000000000000000ea4893e80000000000000000000000000000000000000000000000000000000000000000100000000000000000000000000000000000000000000000000000000000000044e464c5800000000000000000000000000000000000000000000000000000000",
        "nonce": "0x74",
        "chainId": "0xa455"
      },
      "additionalContracts": [],
      "isFixedGasLimit": false
    },
    {
      "hash": "0xd06867ded7bd37e03510e465c1b9deffaeec1e44eec6f2e0e9f4e83cb0a2802c",
      "transactionType": "CALL",
      "contractName": "PriceOracle",
      "contractAddress": "0xd5ac451b0c50b9476107823af206ed814a2e2580",
      "function": "setManualPrice(string,uint256,bool)",
      "arguments": [
        "AMD",
        "16480000000",
        "true"
      ],
      "transaction": {
        "from": "0xf39fd6e51aad88f6f4ce6ab8827279cfffb92266",
        "to": "0xd5ac451b0c50b9476107823af206ed814a2e2580",
        "gas": "0x19387",
        "value": "0x0",
        "input": "0x953dc87e000000000000000000000000000000000000000000000000000000000000006000000000000000000000000000000000000000000000000000000003d648d80000000000000000000000000000000000000000000000000000000000000000010000000000000000000000000000000000000000000000000000000000000003414d440000000000000000000000000000000000000000000000000000000000",
        "nonce": "0x75",
        "chainId": "0xa455"
      },
      "additionalContracts": [],
      "isFixedGasLimit": false
    },
    {
      "hash": "0x11ed07ed90d5e5c52d81dea4423469e8cb43c3359e86ae52a27093a5be87fc09",
      "transactionType": "CREATE",
      "contractName": "SyntheticAssetFactory",
      "contractAddress": "0x5bf5b11053e734690269c6b9d438f8c9d48f528a",
      "function": null,
      "arguments": [
        "0xf39Fd6e51aad88F6F4ce6aB8827279cffFb92266"
      ],
      "transaction": {
        "from": "0xf39fd6e51aad88f6f4ce6ab8827279cfffb92266",
        "gas": "0x1aaf8a",
        "value": "0x0",
        "input": "0x60a03461011257601f611a7538819003918201601f19168301916001600160401b038311848410176100ef5780849260209460405283398101031261011257516001600160a01b03811690819003610112578015610103575f80546001600160a01b031916919091179055604051610efd808201906001600160401b038211838310176100ef5760a0918391610b788339606081525f6060820152608060208201525f6080820152600160408201520301905ff080156100e4576001600160a01b0316608052604051610a6190816101178239608051818181610266015261062c0152f35b6040513d5f823e3d90fd5b634e487b7160e01b5f52604160045260245ffd5b63d92e233d60e01b5f5260045ffd5b5f80fdfe6080806040526004361015610012575f80fd5b5f905f3560e01c9081630b2262c61461081d575080630f56add41461065b5780635c60da1b14610617578063704b6c02146105ca5780639b7fd1541461019d5780639fda5b661461016a578063ccceb56914610130578063cd5286d0146100d3578063f36065b3146100b55763f851a4401461008c575f80fd5b346100b257806003193601126100b257546040516001600160a01b039091168152602090f35b80fd5b50346100b257806003193601126100b2576020600254604051908152f35b50346100b25760203660031901126100b25760043567ffffffffffffffff811161012c579061011161010b6020933690600401610983565b906109fd565b815260018252604060018060a01b0391205416604051908152f35b5080fd5b50346100b25760203660031901126100b257600435906002548210156100b257602061015b836109b1565b90549060031b1c604051908152f35b50346100b25760203660031901126100b257602090600435815260018252604060018060a01b0391205416604051908152f35b50346105725760603660031901126105725760043567ffffffffffffffff8111610572576101cf903690600401610983565b60243567ffffffffffffffff8111610572576101ef903690600401610983565b90926044356001600160a01b038116939290849003610572575f546001600160a01b031633036105bb5783156105ac5761022983836109fd565b5f818152600160205260409020549091906001600160a01b031661058557604051733d602d80600a3d3981f3363d3d373d3d3d363d7360601b81527f000000000000000000000000000000000000000000000000000000000000000060601b60148201526e5af43d82803e903d91602b57fd5bf360881b60288201526001600160a01b03906037905ff0169586156105765760405190607360f81b6020830152858560218401376102ed6021838881015f838201520301601f198101845283610929565b873b1561057257610320926103325f9360405195869485946303bf912560e11b86526060600487015260648601916109dd565b8381036003190160248501529061095f565b8860448301520381838a5af1801561056757610552575b5080865260016020526040862080546001600160a01b031916861790556002546801000000000000000081101561053e576103a461038e8260018594016002556109b1565b819391549060031b91821b915f19901b19161790565b9055855260036020526040852067ffffffffffffffff831161052a576103ca81546108f1565b95601f87116104da575b6020965080601f8511600114610455579184604094927fe5f9c5663822b3882e2fa8f5fcbc56db18ccc15ec0ad63010c1e27bff6eb926996949161044a575b508360011b905f198560031b1c19161790555b818351928392833781015f81520390209281519085825286820152a2604051908152f35b90508201355f610413565b90601f198516838352888320925b8181106104c35750918593917fe5f9c5663822b3882e2fa8f5fcbc56db18ccc15ec0ad63010c1e27bff6eb92699660409694106104aa575b5050600183811b019055610426565b8301355f19600386901b60f8161c191690555f8061049b565b919289600181928689013581550194019201610463565b838711156103d45781815260208120601f850160051c9060208610610522575b810197601f0160051c03815b8181106105145750506103d4565b60019083818b015501610506565b8291506104fa565b634e487b7160e01b86526041600452602486fd5b634e487b7160e01b87526041600452602487fd5b61055f9196505f90610929565b5f945f610349565b6040513d5f823e3d90fd5b5f80fd5b6342bcb05b60e11b5f5260045ffd5b604051630fd208c960e11b815260206004820152806105a86024820187876109dd565b0390fd5b63d92e233d60e01b5f5260045ffd5b637bfa4b9f60e01b5f5260045ffd5b34610572576020366003190112610572576004356001600160a01b03811690819003610572575f546001600160a01b03811633036105bb5781156105ac576001600160a01b031916175f55005b34610572575f366003190112610572576040517f00000000000000000000000000000000000000000000000000000000000000006001600160a01b03168152602090f35b346105725760203660031901126105725760043567ffffffffffffffff81116105725761068c903690600401610983565b5f546001600160a01b031633036105bb576106a781836109fd565b5f818152600160205260409020546001600160a01b0316929083156107f7575f81815260016020526040812080546001600160a01b0319169055600254905b81811061072f575b857f5bfa22150d2c3165c86da018685d9bd9dea01a28670324e4b6055b7b1edfde0d6020878781604051928392833781015f815203902092604051908152a2005b82610739826109b1565b90549060031b1c1461074d576001016106e6565b92939291505f1981019081116107e35761038e61076c610779926109b1565b90549060031b1c926109b1565b90556002549081156107cf577f5bfa22150d2c3165c86da018685d9bd9dea01a28670324e4b6055b7b1edfde0d926020925f19016107b6816109b1565b8154905f199060031b1b191690556002559181936106ee565b634e487b7160e01b5f52603160045260245ffd5b634e487b7160e01b5f52601160045260245ffd5b5060405163654c681360e11b8152602060048201529182916105a89160248401916109dd565b34610572576020366003190112610572576004355f52600360205260405f205f9080549061084a826108f1565b80855291600181169081156108ca575060011461088a575b6108868461087281860382610929565b60405191829160208352602083019061095f565b0390f35b5f90815260208120939250905b8082106108b05750909150810160200161087282610862565b919260018160209254838588010152019101909291610897565b60ff191660208087019190915292151560051b850190920192506108729150839050610862565b90600182811c9216801561091f575b602083101461090b57565b634e487b7160e01b5f52602260045260245ffd5b91607f1691610900565b90601f8019910116810190811067ffffffffffffffff82111761094b57604052565b634e487b7160e01b5f52604160045260245ffd5b805180835260209291819084018484015e5f828201840152601f01601f1916010190565b9181601f840112156105725782359167ffffffffffffffff8311610572576020838186019501011161057257565b6002548110156109c95760025f5260205f2001905f90565b634e487b7160e01b5f52603260045260245ffd5b908060209392818452848401375f828201840152601f01601f1916010190565b90610a25602060405183819483830196873781015f838201520301601f198101835282610929565b5190209056fea2646970667358221220db4bf2f471d67180f636ba5956c234e88d0534f6eeb340b2e97023eae43641a064736f6c6343000821003360806040523461036657610efd803803806100198161036a565b9283398101906060818303126103665780516001600160401b038111610366578261004591830161038f565b60208201519092906001600160401b0381116103665760409161006991840161038f565b9101516001600160a01b038116908190036103665780156103575782516001600160401b038111610260575f54600181811c9116801561034d575b602082101461024257601f81116102e0575b506020601f821160011461027f57819293945f92610274575b50508160011b915f199060031b1c1916175f555b81516001600160401b03811161026057600154600181811c91168015610256575b602082101461024257601f81116101d4575b50602092601f821160011461017357928192935f92610168575b50508160011b915f199060031b1c1916176001555b600580546001600160a01b031916919091179055604051610b1c90816103e18239f35b015190505f80610130565b601f1982169360015f52805f20915f5b8681106101bc57508360019596106101a4575b505050811b01600155610145565b01515f1960f88460031b161c191690555f8080610196565b91926020600181928685015181550194019201610183565b818111156101165760015f52601f820160051c7fb10e2d527612073b26eecdfd717e6a320cf44b4afac2b0732d9fcbe2b7fa0cf66020841061023a575b81601f9101920160051c03905f5b82811061022d575050610116565b5f8282015560010161021f565b5f9150610211565b634e487b7160e01b5f52602260045260245ffd5b90607f1690610104565b634e487b7160e01b5f52604160045260245ffd5b015190505f806100cf565b601f198216905f8052805f20915f5b8181106102c8575095836001959697106102b0575b505050811b015f556100e3565b01515f1960f88460031b161c191690555f80806102a3565b9192602060018192868b01518155019401920161028e565b818111156100b6575f8052601f820160051c7f290decd9548b62a8d60345a988386fc84ba6bc95484008f6362f93160ef3e56360208410610345575b81601f9101920160051c03905f5b8281106103385750506100b6565b5f8282015560010161032a565b5f915061031c565b90607f16906100a4565b63d92e233d60e01b5f5260045ffd5b5f80fd5b6040519190601f01601f191682016001600160401b0381118382101761026057604052565b81601f82011215610366578051906001600160401b038211610260576103be601f8301601f191660200161036a565b928284526020838301011161036657815f9260208093018386015e830101529056fe60806040526004361015610011575f80fd5b5f3560e01c806306fdde03146108f057806307546172146108c8578063077f224a1461057a578063095ea7b31461050157806318160ddd146104e457806323b872dd146103e9578063313ce567146103ce57806340c10f191461035e57806370a082311461032657806395d89b411461024c5780639dc29fac146101ae578063a9059cbb146100fc5763dd62ed3e146100a8575f80fd5b346100f85760403660031901126100f8576100c1610a6c565b6100c9610a82565b6001600160a01b039182165f908152600460209081526040808320949093168252928352819020549051908152f35b5f80fd5b346100f85760403660031901126100f857610115610a6c565b6001600160a01b0316602435811561019f57335f5260036020528060405f20541061019057335f52600360205260405f20610151828254610a98565b9055815f52600360205260405f2061016a828254610ab9565b90556040519081525f516020610ac75f395f51905f5260203392a3602060405160018152f35b631e9acf1760e31b5f5260045ffd5b63d92e233d60e01b5f5260045ffd5b346100f85760403660031901126100f8576101c7610a6c565b60055460243591906001600160a01b0316330361023d576001600160a01b03165f818152600360205260409020548211610190575f516020610ac75f395f51905f526020836102195f95600254610a98565b6002558385526003825260408520610232828254610a98565b9055604051908152a3005b633e34a41b60e21b5f5260045ffd5b346100f8575f3660031901126100f8576040515f60015461026c81610992565b808452906001811690811561030257506001146102a4575b6102a083610294818503826109ca565b604051918291826109ec565b0390f35b60015f9081527fb10e2d527612073b26eecdfd717e6a320cf44b4afac2b0732d9fcbe2b7fa0cf6939250905b8082106102e857509091508101602001610294610284565b9192600181602092548385880101520191019092916102d0565b60ff191660208086019190915291151560051b840190910191506102949050610284565b346100f85760203660031901126100f8576001600160a01b03610347610a6c565b165f526003602052602060405f2054604051908152f35b346100f85760403660031901126100f857610377610a6c565b60055460243591906001600160a01b0316330361023d575f516020610ac75f395f51905f5260205f926103ac85600254610ab9565b60025560018060a01b0316938484526003825260408420610232828254610ab9565b346100f8575f3660031901126100f857602060405160128152f35b346100f85760603660031901126100f857610402610a6c565b61040a610a82565b6001600160a01b03169060443590821561019f5760018060a01b031690815f5260036020528060405f205410610190575f82815260046020908152604080832033845290915290205481116104d55760205f516020610ac75f395f51905f5291835f526004825260405f2060018060a01b0333165f52825260405f20610491828254610a98565b9055835f526003825260405f206104a9828254610a98565b9055845f526003825260405f206104c1828254610ab9565b9055604051908152a3602060405160018152f35b6313be252b60e01b5f5260045ffd5b346100f8575f3660031901126100f8576020600254604051908152f35b346100f85760403660031901126100f85761051a610a6c565b335f8181526004602090815260408083206001600160a01b03909516808452948252918290206024359081905591519182527f8c5be1e5ebec7d5bd14f71427d1e84f3dd0314c0f7b2291e5b200ac8c7c3b92591a3602060405160018152f35b346100f85760603660031901126100f85760043567ffffffffffffffff81116100f8576105ab903690600401610a16565b60243567ffffffffffffffff81116100f8576105cb903690600401610a16565b6044356001600160a01b038116908190036100f8576005546001600160a01b03166108ba57801561019f57825167ffffffffffffffff81116107af576106115f54610992565b601f811161084d575b506020601f82116001146107ce57819293945f926107c3575b50508160011b915f199060031b1c1916175f555b815167ffffffffffffffff81116107af57610663600154610992565b601f8111610741575b50602092601f82116001146106c257928192935f926106b7575b50508160011b915f199060031b1c1916176001555b6bffffffffffffffffffffffff60a01b60055416176005555f80f35b015190508380610686565b601f1982169360015f527fb10e2d527612073b26eecdfd717e6a320cf44b4afac2b0732d9fcbe2b7fa0cf6915f5b8681106107295750836001959610610711575b505050811b0160015561069b565b01515f1960f88460031b161c19169055838080610703565b919260206001819286850151815501940192016106f0565b8181111561066c5760015f52601f820160051c90602083106107a7575b601f82910160051c03905f5b82811061077857505061066c565b5f8282017fb10e2d527612073b26eecdfd717e6a320cf44b4afac2b0732d9fcbe2b7fa0cf6015560010161076a565b5f915061075e565b634e487b7160e01b5f52604160045260245ffd5b015190508480610633565b601f198216905f80527f290decd9548b62a8d60345a988386fc84ba6bc95484008f6362f93160ef3e563915f5b8181106108355750958360019596971061081d575b505050811b015f55610647565b01515f1960f88460031b161c19169055848080610810565b9192602060018192868b0151815501940192016107fb565b8181111561061a575f8052601f820160051c90602083106108b2575b601f82910160051c03905f5b82811061088357505061061a565b5f8282017f290decd9548b62a8d60345a988386fc84ba6bc95484008f6362f93160ef3e5630155600101610875565b5f9150610869565b62dc149f60e41b5f5260045ffd5b346100f8575f3660031901126100f8576005546040516001600160a01b039091168152602090f35b346100f8575f3660031901126100f8576040515f5f5461090f81610992565b80845290600181169081156103025750600114610936576102a083610294818503826109ca565b5f8080527f290decd9548b62a8d60345a988386fc84ba6bc95484008f6362f93160ef3e563939250905b80821061097857509091508101602001610294610284565b919260018160209254838588010152019101909291610960565b90600182811c921680156109c0575b60208310146109ac57565b634e487b7160e01b5f52602260045260245ffd5b91607f16916109a1565b90601f8019910116810190811067ffffffffffffffff8211176107af57604052565b602060409281835280519182918282860152018484015e5f828201840152601f01601f1916010190565b81601f820112156100f85780359067ffffffffffffffff82116107af5760405192610a4b601f8401601f1916602001856109ca565b828452602083830101116100f857815f926020809301838601378301015290565b600435906001600160a01b03821682036100f857565b602435906001600160a01b03821682036100f857565b91908203918211610aa557565b634e487b7160e01b5f52601160045260245ffd5b91908201809211610aa55756feddf252ad1be2c89b69c2b068fc378daa952ba7f163c4a11628f55a4df523b3efa2646970667358221220f80a095582e5e49e1985850c61f67ffa9ae719fd65ba650512c68ed92e025b9064736f6c63430008210033000000000000000000000000f39fd6e51aad88f6f4ce6ab8827279cfffb92266",
        "nonce": "0x76",
        "chainId": "0xa455"
      },
      "additionalContracts": [
        {
          "transactionType": "CREATE",
          "contractName": "SyntheticAsset",
          "address": "0xa96ca159f70efe7e03bdb91534a3f84810dcd61b",
          "initCode": "0x60806040523461036657610efd803803806100198161036a565b9283398101906060818303126103665780516001600160401b038111610366578261004591830161038f565b60208201519092906001600160401b0381116103665760409161006991840161038f565b9101516001600160a01b038116908190036103665780156103575782516001600160401b038111610260575f54600181811c9116801561034d575b602082101461024257601f81116102e0575b506020601f821160011461027f57819293945f92610274575b50508160011b915f199060031b1c1916175f555b81516001600160401b03811161026057600154600181811c91168015610256575b602082101461024257601f81116101d4575b50602092601f821160011461017357928192935f92610168575b50508160011b915f199060031b1c1916176001555b600580546001600160a01b031916919091179055604051610b1c90816103e18239f35b015190505f80610130565b601f1982169360015f52805f20915f5b8681106101bc57508360019596106101a4575b505050811b01600155610145565b01515f1960f88460031b161c191690555f8080610196565b91926020600181928685015181550194019201610183565b818111156101165760015f52601f820160051c7fb10e2d527612073b26eecdfd717e6a320cf44b4afac2b0732d9fcbe2b7fa0cf66020841061023a575b81601f9101920160051c03905f5b82811061022d575050610116565b5f8282015560010161021f565b5f9150610211565b634e487b7160e01b5f52602260045260245ffd5b90607f1690610104565b634e487b7160e01b5f52604160045260245ffd5b015190505f806100cf565b601f198216905f8052805f20915f5b8181106102c8575095836001959697106102b0575b505050811b015f556100e3565b01515f1960f88460031b161c191690555f80806102a3565b9192602060018192868b01518155019401920161028e565b818111156100b6575f8052601f820160051c7f290decd9548b62a8d60345a988386fc84ba6bc95484008f6362f93160ef3e56360208410610345575b81601f9101920160051c03905f5b8281106103385750506100b6565b5f8282015560010161032a565b5f915061031c565b90607f16906100a4565b63d92e233d60e01b5f5260045ffd5b5f80fd5b6040519190601f01601f191682016001600160401b0381118382101761026057604052565b81601f82011215610366578051906001600160401b038211610260576103be601f8301601f191660200161036a565b928284526020838301011161036657815f9260208093018386015e830101529056fe60806040526004361015610011575f80fd5b5f3560e01c806306fdde03146108f057806307546172146108c8578063077f224a1461057a578063095ea7b31461050157806318160ddd146104e457806323b872dd146103e9578063313ce567146103ce57806340c10f191461035e57806370a082311461032657806395d89b411461024c5780639dc29fac146101ae578063a9059cbb146100fc5763dd62ed3e146100a8575f80fd5b346100f85760403660031901126100f8576100c1610a6c565b6100c9610a82565b6001600160a01b039182165f908152600460209081526040808320949093168252928352819020549051908152f35b5f80fd5b346100f85760403660031901126100f857610115610a6c565b6001600160a01b0316602435811561019f57335f5260036020528060405f20541061019057335f52600360205260405f20610151828254610a98565b9055815f52600360205260405f2061016a828254610ab9565b90556040519081525f516020610ac75f395f51905f5260203392a3602060405160018152f35b631e9acf1760e31b5f5260045ffd5b63d92e233d60e01b5f5260045ffd5b346100f85760403660031901126100f8576101c7610a6c565b60055460243591906001600160a01b0316330361023d576001600160a01b03165f818152600360205260409020548211610190575f516020610ac75f395f51905f526020836102195f95600254610a98565b6002558385526003825260408520610232828254610a98565b9055604051908152a3005b633e34a41b60e21b5f5260045ffd5b346100f8575f3660031901126100f8576040515f60015461026c81610992565b808452906001811690811561030257506001146102a4575b6102a083610294818503826109ca565b604051918291826109ec565b0390f35b60015f9081527fb10e2d527612073b26eecdfd717e6a320cf44b4afac2b0732d9fcbe2b7fa0cf6939250905b8082106102e857509091508101602001610294610284565b9192600181602092548385880101520191019092916102d0565b60ff191660208086019190915291151560051b840190910191506102949050610284565b346100f85760203660031901126100f8576001600160a01b03610347610a6c565b165f526003602052602060405f2054604051908152f35b346100f85760403660031901126100f857610377610a6c565b60055460243591906001600160a01b0316330361023d575f516020610ac75f395f51905f5260205f926103ac85600254610ab9565b60025560018060a01b0316938484526003825260408420610232828254610ab9565b346100f8575f3660031901126100f857602060405160128152f35b346100f85760603660031901126100f857610402610a6c565b61040a610a82565b6001600160a01b03169060443590821561019f5760018060a01b031690815f5260036020528060405f205410610190575f82815260046020908152604080832033845290915290205481116104d55760205f516020610ac75f395f51905f5291835f526004825260405f2060018060a01b0333165f52825260405f20610491828254610a98565b9055835f526003825260405f206104a9828254610a98565b9055845f526003825260405f206104c1828254610ab9565b9055604051908152a3602060405160018152f35b6313be252b60e01b5f5260045ffd5b346100f8575f3660031901126100f8576020600254604051908152f35b346100f85760403660031901126100f85761051a610a6c565b335f8181526004602090815260408083206001600160a01b03909516808452948252918290206024359081905591519182527f8c5be1e5ebec7d5bd14f71427d1e84f3dd0314c0f7b2291e5b200ac8c7c3b92591a3602060405160018152f35b346100f85760603660031901126100f85760043567ffffffffffffffff81116100f8576105ab903690600401610a16565b60243567ffffffffffffffff81116100f8576105cb903690600401610a16565b6044356001600160a01b038116908190036100f8576005546001600160a01b03166108ba57801561019f57825167ffffffffffffffff81116107af576106115f54610992565b601f811161084d575b506020601f82116001146107ce57819293945f926107c3575b50508160011b915f199060031b1c1916175f555b815167ffffffffffffffff81116107af57610663600154610992565b601f8111610741575b50602092601f82116001146106c257928192935f926106b7575b50508160011b915f199060031b1c1916176001555b6bffffffffffffffffffffffff60a01b60055416176005555f80f35b015190508380610686565b601f1982169360015f527fb10e2d527612073b26eecdfd717e6a320cf44b4afac2b0732d9fcbe2b7fa0cf6915f5b8681106107295750836001959610610711575b505050811b0160015561069b565b01515f1960f88460031b161c19169055838080610703565b919260206001819286850151815501940192016106f0565b8181111561066c5760015f52601f820160051c90602083106107a7575b601f82910160051c03905f5b82811061077857505061066c565b5f8282017fb10e2d527612073b26eecdfd717e6a320cf44b4afac2b0732d9fcbe2b7fa0cf6015560010161076a565b5f915061075e565b634e487b7160e01b5f52604160045260245ffd5b015190508480610633565b601f198216905f80527f290decd9548b62a8d60345a988386fc84ba6bc95484008f6362f93160ef3e563915f5b8181106108355750958360019596971061081d575b505050811b015f55610647565b01515f1960f88460031b161c19169055848080610810565b9192602060018192868b0151815501940192016107fb565b8181111561061a575f8052601f820160051c90602083106108b2575b601f82910160051c03905f5b82811061088357505061061a565b5f8282017f290decd9548b62a8d60345a988386fc84ba6bc95484008f6362f93160ef3e5630155600101610875565b5f9150610869565b62dc149f60e41b5f5260045ffd5b346100f8575f3660031901126100f8576005546040516001600160a01b039091168152602090f35b346100f8575f3660031901126100f8576040515f5f5461090f81610992565b80845290600181169081156103025750600114610936576102a083610294818503826109ca565b5f8080527f290decd9548b62a8d60345a988386fc84ba6bc95484008f6362f93160ef3e563939250905b80821061097857509091508101602001610294610284565b919260018160209254838588010152019101909291610960565b90600182811c921680156109c0575b60208310146109ac57565b634e487b7160e01b5f52602260045260245ffd5b91607f16916109a1565b90601f8019910116810190811067ffffffffffffffff8211176107af57604052565b602060409281835280519182918282860152018484015e5f828201840152601f01601f1916010190565b81601f820112156100f85780359067ffffffffffffffff82116107af5760405192610a4b601f8401601f1916602001856109ca565b828452602083830101116100f857815f926020809301838601378301015290565b600435906001600160a01b03821682036100f857565b602435906001600160a01b03821682036100f857565b91908203918211610aa557565b634e487b7160e01b5f52601160045260245ffd5b91908201809211610aa55756feddf252ad1be2c89b69c2b068fc378daa952ba7f163c4a11628f55a4df523b3efa2646970667358221220f80a095582e5e49e1985850c61f67ffa9ae719fd65ba650512c68ed92e025b9064736f6c6343000821003300000000000000000000000000000000000000000000000000000000000000600000000000000000000000000000000000000000000000000000000000000080000000000000000000000000000000000000000000000000000000000000000100000000000000000000000000000000000000000000000000000000000000000000000000000000000000000000000000000000000000000000000000000000"
        }
      ],
      "isFixedGasLimit": false
    },
    {
      "hash": "0xc87275f317c02936243a0d49c7e9c80894d413e4d8a4c3bed14029f9dca4ce4e",
      "transactionType": "CREATE",
      "contractName": "CollateralVault",
      "contractAddress": "0xffa7ca1aeeebbc30c874d32c7e22f052bbea0429",
      "function": null,
      "arguments": [
        "0xf4B146FbA71F41E0592668ffbF264F1D186b2Ca8",
        "0xD5ac451B0c50B9476107823Af206eD814a2e2580",
        "0x8A791620dd6260079BF849Dc5567aDC3F2FdC318",
        "0xf39Fd6e51aad88F6F4ce6aB8827279cffFb92266"
      ],
      "transaction": {
        "from": "0xf39fd6e51aad88f6f4ce6ab8827279cfffb92266",
        "gas": "0x241a4c",
        "value": "0x0",
        "input": "0x60e03461017a57601f61212838819003918201601f19168301916001600160401b0383118484101761017e5780849260809460405283398101031261017a5761004781610192565b9061005460208201610192565b9161006d606061006660408501610192565b9301610192565b6001600160a01b0390911692831561016b576001600160a01b031690811561016b576001600160a01b0383161561016b576001600160a01b031692831561016b5760805260a05260c0525f80546001600160a01b031916919091179055604051611f8190816101a7823960805181818161067601528181610746015281816110b3015281816111ca015281816113da0152818161161101528181611a950152611c29015260a0518181816104880152818161097c01528181610bb801528181610e7f0152818161149b0152818161183201528181611d290152611e81015260c05181818161070301528181610ca70152818161106e0152611ae30152f35b63d92e233d60e01b5f5260045ffd5b5f80fd5b634e487b7160e01b5f52604160045260245ffd5b51906001600160a01b038216820361017a5756fe60806040526004361015610011575f80fd5b5f5f3560e01c8063056b01ce14611640578063119e5bf3146115fc57806316c38b3c146115a25780631ce967121461130d5780631f33a88814610dd15780631fbe11f914610d8e578063249d39e914610d7157806329a723ee14610d2e5780633272569614610cfb5780635c975abb14610cd65780636052970c14610c915780636dc827d914610c6f578063704b6c0214610c045780637a9fffb714610be75780637dc0d1d014610ba25780638c2261ad14610a8e5780639185f59814610a72578063b1ad0fa0146108cc578063b48272cc146103f3578063c4323fea146103d6578063c44bac0214610352578063c63e3835146102cd578063e1e158a5146102ab578063ecd1dae61461028e578063f32cd63014610264578063f851a4401461023d578063fbaf72101461017a5763ffe3142e1461014e575f80fd5b346101775760203660031901126101775760406020916004358152600383522054604051908152f35b80fd5b5034610177576080366003190112610177576101946116d1565b60243567ffffffffffffffff811161023957906080926101c46101be610204943690600401611670565b90611923565b916101d160443584611cfb565b94909360018060a01b03831684526001602052604084208185526020526101fe6064356040862054611916565b92611e2e565b908181111561023257610217925061172b565b60405192828452602084015280604084015210156060820152f35b5050610217565b8280fd5b5034610177578060031936011261017757546040516001600160a01b039091168152602090f35b50346101775760203660031901126101775760406020916004358152600583522054604051908152f35b503461017757806003193601126101775760206040516103e88152f35b5034610177578060031936011261017757602060405166038d7ea4c680008152f35b5034610177576102dc3661169e565b90929160ff835460a01c166103435781156103345766038d7ea4c68000821061031557610312929361030d91611923565b611bd9565b80f35b63253bf97d60e11b8352600482905266038d7ea4c68000602452604483fd5b631f2a200560e01b8352600483fd5b6313d0ff5960e31b8352600483fd5b50346101775760603660031901126101775760043567ffffffffffffffff81116103d257610384903690600401611670565b6024359160ff845460a01c166103c35761031292916103a291611923565b90806103b3575b5060443590611951565b6103bd9082611bd9565b5f6103a9565b6313d0ff5960e31b8452600484fd5b5080fd5b50346101775780600319360112610177576020604051612ee08152f35b5034610177576104023661169e565b9160ff845460a01c166103c35782156108bd579061041f91611923565b808352600460205260408320549091906001600160a01b031680156108a9573384526002602052604084208385526020526040842054908183116108925783855260056020908152604080872054905163832321bf60e01b8152600481019190915290816024817f00000000000000000000000000000000000000000000000000000000000000006001600160a01b03165afa9081156106e957869161085a575b506104d4670de0b6b3a7640000918561176e565b04670de0b6b3a7640000810290808204670de0b6b3a76400001490151715610846576305f5e1009004601e810290808204601e14901517156108465761053f6127108792049333835260016020526040832087845260205261053a86604085205461176e565b611781565b8381111561083a57836105519161172b565b915b3382526002602052604082208683526020526040822061057486825461172b565b90556105808484611916565b3383526001602052604083208784526020526105a16040842091825461172b565b90556105ad8484611916565b86835260036020526105c46040842091825461172b565b9055803b156103d257604051632770a7eb60e21b8152336004820152602481018690529082908290604490829084905af1801561082f57610816575b5050816106f4575b8061064b575b60408051938452602084019190915282015233907ffbb68f61002cbf89cfd4502b79ed21c0d08c91666d4b22825cc11bf41333648e90606090a380f35b60405163a9059cbb60e01b815233600482015260248101829052602081604481896001600160a01b037f0000000000000000000000000000000000000000000000000000000000000000165af19081156106e95786916106ba575b5061060e576312171d8360e31b8552600485fd5b6106dc915060203d6020116106e2575b6106d48183611738565b81019061179f565b5f6106a6565b503d6106ca565b6040513d88823e3d90fd5b60405163095ea7b360e01b81527f00000000000000000000000000000000000000000000000000000000000000006001600160a01b03811660048301526024820184905290602081806044810103818a7f00000000000000000000000000000000000000000000000000000000000000006001600160a01b03165af1801561080b576107ee575b506040516364d6def960e01b81526004810184905230602482015290606090829060449082908a906001600160a01b03165af180156106e9576107bf575b50610608565b6107e09060603d6060116107e7575b6107d88183611738565b8101906117b7565b50506107b9565b503d6107ce565b6108069060203d6020116106e2576106d48183611738565b61077b565b6040513d89823e3d90fd5b8161082091611738565b61082b57845f610600565b8480fd5b6040513d84823e3d90fd5b50909150848092610553565b634e487b7160e01b86526011600452602486fd5b90506020813d60201161088a575b8161087560209383611738565b8101031261088657516104d46104c0565b5f80fd5b3d9150610868565b6044858484636943054d60e11b8352600452602452fd5b6326ef68cf60e01b84526004839052602484fd5b631f2a200560e01b8452600484fd5b5034610177576108e8906108df366116e7565b91939190611923565b9160018060a01b031690818152600160205260408120838252602052604081205491815260026020526040812083825260205260408120549283155f1461095257505061094e5f195b604051938493846040919493926060820195825260208201520152565b0390f35b815260056020908152604080832054905163832321bf60e01b8152600481019190915290816024817f00000000000000000000000000000000000000000000000000000000000000006001600160a01b03165afa90811561082f578291610a3e575b506109c8670de0b6b3a7640000918561176e565b04906305f5e10083028381046305f5e1001484151715610a2a57670de0b6b3a76400009004906127108202918083046127101490151715610a16575061094e91610a1191611781565b610931565b634e487b7160e01b81526011600452602490fd5b634e487b7160e01b82526011600452602482fd5b90506020813d602011610a6a575b81610a5960209383611738565b8101031261088657516109c86109b4565b3d9150610a4c565b50346101775780600319360112610177576020604051601e8152f35b50346101775760403660031901126101775760043567ffffffffffffffff81116103d257610ac0903690600401611670565b6024356001600160a01b0381169290839003610b9e5783546001600160a01b03163303610b8f578215610b80579060608282610b1d817f9190ede1bbf154005e1cdc753cb24ff7912bf4412bf72342e5ab03ee770facf096611923565b95868852600460205260408820816bffffffffffffffffffffffff60a01b8254161790558688526005602052866040892055604051948593604085528160408601528585013782820184018890526020830152601f01601f19168101030190a280f35b63d92e233d60e01b8452600484fd5b637bfa4b9f60e01b8452600484fd5b8380fd5b50346101775780600319360112610177576040517f00000000000000000000000000000000000000000000000000000000000000006001600160a01b03168152602090f35b50346101775780600319360112610177576020604051613a988152f35b503461017757602036600319011261017757610c1e6116d1565b8154906001600160a01b0382163303610c60576001600160a01b0316908115610c51576001600160a01b03191617815580f35b63d92e233d60e01b8352600483fd5b637bfa4b9f60e01b8352600483fd5b5034610177576020610c89610c83366116e7565b916117d2565b604051908152f35b50346101775780600319360112610177576040517f00000000000000000000000000000000000000000000000000000000000000006001600160a01b03168152602090f35b503461017757806003193601126101775760ff6020915460a01c166040519015158152f35b503461017757602036600319011261017757602090600435815260048252604060018060a01b0391205416604051908152f35b5034610177576040366003190112610177576020906040906001600160a01b03610d566116d1565b16815260018352818120602435825283522054604051908152f35b503461017757806003193601126101775760206040516127108152f35b5034610177576040366003190112610177576020906040906001600160a01b03610db66116d1565b16815260028352818120602435825283522054604051908152f35b503461088657610de0366116e7565b60ff5f5460a01c166112fe57610df591611923565b90815f52600460205260018060a01b0360405f2054169081156112eb5760018060a01b031690815f52600260205260405f20835f5260205260405f205490825f52600160205260405f20845f5260205260405f205482156112cf57845f52600560205260405f20546040519063832321bf60e01b8252600482015260208160248160018060a01b037f0000000000000000000000000000000000000000000000000000000000000000165afa90811561125b575f9161129b575b50610ec3670de0b6b3a7640000918561176e565b046305f5e10082028281046305f5e100148315171561126f57670de0b6b3a76400009004612710810290808204612710149015171561126f5781610f0691611781565b612ee08110156112835750670de0b6b3a7640000810290808204670de0b6b3a7640000149015171561126f576305f5e1009004906103e882028281046103e8148315171561126f57612710610f5c910483611916565b92818411611266575b610f6f848361172b565b91865f52600160205260405f20885f526020525f6040812055865f52600260205260405f20885f526020525f6040812055875f526003602052610fb760405f2091825461172b565b9055803b1561088657604051632770a7eb60e21b815233600482015260248101869052905f908290604490829084905af1801561125b57611242575b50908291879361119a575b8061105f575b507f050df5bd39b9045b183cf260962616d90dc134df2b0da18110a7c2bc6c68468a9250808211156110575761103a908261172b565b905b6040805194855260208501919091528301523391606090a480f35b50859061103c565b60405163095ea7b360e01b81527f00000000000000000000000000000000000000000000000000000000000000006001600160a01b03811660048301526024820183905290919060208380604481010381897f00000000000000000000000000000000000000000000000000000000000000006001600160a01b03165af19182156106e95760609361111b9361117d575b506040516364d6def960e01b8152600481019190915230602482015295869283919082906044820190565b03926001600160a01b03165af192831561080b577f050df5bd39b9045b183cf260962616d90dc134df2b0da18110a7c2bc6c68468a9361115e575b879350611004565b6111769060603d6060116107e7576107d88183611738565b5050611156565b6111959060203d6020116106e2576106d48183611738565b6110f0565b60405163a9059cbb60e01b81523360048201526024810184905292935090916020816044818b6001600160a01b037f0000000000000000000000000000000000000000000000000000000000000000165af1908115611237578891611218575b50156112095790869291610ffe565b6312171d8360e31b8752600487fd5b611231915060203d6020116106e2576106d48183611738565b5f6111fa565b6040513d8a823e3d90fd5b61125191939297505f90611738565b5f9590915f610ff3565b6040513d5f823e3d90fd5b92508092610f65565b634e487b7160e01b5f52601160045260245ffd5b6301f7d11160e21b5f52600452612ee060245260445ffd5b90506020813d6020116112c7575b816112b660209383611738565b810103126108865751610ec3610eaf565b3d91506112a9565b6301f7d11160e21b5f9081525f19600452612ee0602452604490fd5b826326ef68cf60e01b5f5260045260245ffd5b6313d0ff5960e31b5f5260045ffd5b346108865761131b3661169e565b919060ff5f5460a01c166112fe5782156115935761133891611923565b90335f52600160205260405f20825f5260205260405f205481811061157e57816113619161172b565b335f52600260205260405f20835f5260205260405f20548061146c575b50335f52600160205260405f20835f5260205260405f2055815f52600360205260405f206113ad82825461172b565b905560405163a9059cbb60e01b8152336004820152602481018290526020816044815f6001600160a01b037f0000000000000000000000000000000000000000000000000000000000000000165af190811561125b575f9161144d575b501561143e576040519081527fe69cdf29a59dd324317b598bee3a9ed1fcffb99cc506db72633ed07b59dc6d0460203392a3005b6312171d8360e31b5f5260045ffd5b611466915060203d6020116106e2576106d48183611738565b8361140a565b835f52600560205260405f20546040519063832321bf60e01b8252600482015260208160248160018060a01b037f0000000000000000000000000000000000000000000000000000000000000000165afa90811561125b575f91611544575b506114df90670de0b6b3a76400009261176e565b046305f5e10082028281046305f5e100148315171561126f57670de0b6b3a7640000900490612710820291808304612710149015171561126f5761152291611781565b613a9881101561137e57636a5a2d9160e11b5f52600452613a9860245260445ffd5b90506020813d602011611576575b8161155f60209383611738565b810103126108865751670de0b6b3a76400006114cb565b3d9150611552565b632c1f8ef160e21b5f5260045260245260445ffd5b631f2a200560e01b5f5260045ffd5b3461088657602036600319011261088657600435801515809103610886575f54906001600160a01b03821633036115ed5760ff60a01b1990911660a09190911b60ff60a01b16175f55005b637bfa4b9f60e01b5f5260045ffd5b34610886575f366003190112610886576040517f00000000000000000000000000000000000000000000000000000000000000006001600160a01b03168152602090f35b346108865761164e3661169e565b909160ff5f5460a01c166112fe5761166e9261166991611923565b611951565b005b9181601f840112156108865782359167ffffffffffffffff8311610886576020838186019501011161088657565b6040600319820112610886576004359067ffffffffffffffff8211610886576116c991600401611670565b909160243590565b600435906001600160a01b038216820361088657565b906040600319830112610886576004356001600160a01b038116810361088657916024359067ffffffffffffffff82116108865761172791600401611670565b9091565b9190820391821161126f57565b90601f8019910116810190811067ffffffffffffffff82111761175a57604052565b634e487b7160e01b5f52604160045260245ffd5b8181029291811591840414171561126f57565b811561178b570490565b634e487b7160e01b5f52601260045260245ffd5b90816020910312610886575180151581036108865790565b90816060910312610886578051916040602083015192015190565b916117dc91611923565b9060018060a01b031690815f52600260205260405f20815f5260205260405f2054801561190e57815f52600560205260405f20546040519063832321bf60e01b8252600482015260208160248160018060a01b037f0000000000000000000000000000000000000000000000000000000000000000165afa90811561125b575f916118d4575b5061187690670de0b6b3a76400009261176e565b04915f52600160205260405f20905f5260205260405f20546305f5e1008102908082046305f5e100149015171561126f57670de0b6b3a7640000900490612710820291808304612710149015171561126f576118d191611781565b90565b90506020813d602011611906575b816118ef60209383611738565b810103126108865751670de0b6b3a7640000611862565b3d91506118e2565b5050505f1990565b9190820180921161126f57565b9061194b602060405183819483830196873781015f838201520301601f198101835282611738565b51902090565b908015611593575f828152600460205260409020546001600160a01b031680156112eb5761197f8284611cfb565b90335f52600160205260405f20855f5260205260405f20546119a18633611e2e565b80821115611bd1576119b29161172b565b81811061157e5750335f52600260205260405f20855f5260205260405f206119db858254611916565b905581611a6b575b823b15610886576040516340c10f1960e01b815233600482015260248101859052925f908490604490829084905af192831561125b577fafa80970438fa6a8ad54574239a8d28d0cc4b50da6e4473eab194dea551c6c8793611a5b575b506040805194855260208501919091528301523391606090a3565b5f611a6591611738565b5f611a40565b6040516323b872dd60e01b8152336004820152306024820152604481018390526001600160a01b037f000000000000000000000000000000000000000000000000000000000000000016906020816064815f865af190811561125b575f91611bb2575b501561143e5760405163095ea7b360e01b81527f00000000000000000000000000000000000000000000000000000000000000006001600160a01b03811660048301526024820185905291602090829060449082905f905af1801561125b57611b95575b506040516364d6def960e01b81526004810184905230602482015290606090829060449082905f906001600160a01b03165af1801561125b57611b76575b506119e3565b611b8e9060603d6060116107e7576107d88183611738565b5050611b70565b611bad9060203d6020116106e2576106d48183611738565b611b32565b611bcb915060203d6020116106e2576106d48183611738565b5f611ace565b50505f6119b2565b5f818152600460205260409020549091906001600160a01b031615611ce8576040516323b872dd60e01b8152336004820152306024820152604481018290526020816064815f6001600160a01b037f0000000000000000000000000000000000000000000000000000000000000000165af190811561125b575f91611cc9575b501561143e57335f52600160205260405f20825f5260205260405f20611c80828254611916565b9055815f52600360205260405f20611c99828254611916565b90556040519081527f88df26d296ecbf594c8609f433503d1436d24afe03c0d9e5e29c8f6ed92ef9b460203392a3565b611ce2915060203d6020116106e2576106d48183611738565b5f611c59565b506326ef68cf60e01b5f5260045260245ffd5b5f52600560205260405f20546040519063832321bf60e01b8252600482015260208160248160018060a01b037f0000000000000000000000000000000000000000000000000000000000000000165afa90811561125b575f91611df4575b50611d6d90670de0b6b3a76400009261176e565b0490613a98820291801592818104613a981484171561126f576127109004670de0b6b3a7640000810290808204670de0b6b3a7640000149015171561126f576305f5e100900492670de0b6b3a76400008202918204670de0b6b3a764000014171561126f576305f5e1009004601e810290808204601e149015171561126f57612710900490565b90506020813d602011611e26575b81611e0f60209383611738565b810103126108865751670de0b6b3a7640000611d59565b3d9150611e02565b60018060a01b03165f52600260205260405f20815f5260205260405f2054908115611f45575f52600560205260405f20546040519063832321bf60e01b8252600482015260208160248160018060a01b037f0000000000000000000000000000000000000000000000000000000000000000165afa90811561125b575f91611f0b575b50611ec590670de0b6b3a76400009261176e565b04613a98810290808204613a98149015171561126f576127109004670de0b6b3a7640000810290808204670de0b6b3a7640000149015171561126f576305f5e100900490565b90506020813d602011611f3d575b81611f2660209383611738565b810103126108865751670de0b6b3a7640000611eb1565b3d9150611f19565b50505f9056fea264697066735822122016c47eadaec8ca11951e0615bb12a3f7490dc1de1f314fb9d6b17a217561187e64736f6c63430008210033000000000000000000000000f4b146fba71f41e0592668ffbf264f1d186b2ca8000000000000000000000000d5ac451b0c50b9476107823af206ed814a2e25800000000000000000000000008a791620dd6260079bf849dc5567adc3f2fdc318000000000000000000000000f39fd6e51aad88f6f4ce6ab8827279cfffb92266",
        "nonce": "0x77",
        "chainId": "0xa455"
      },
      "additionalContracts": [],
      "isFixedGasLimit": false
    },
    {
      "hash": "0x5aa19c4d99031f9248597b701044933fae1fa5680268218dfd53e15502075174",
      "transactionType": "CALL",
      "contractName": "SyntheticAssetFactory",
      "contractAddress": "0x5bf5b11053e734690269c6b9d438f8c9d48f528a",
      "function": "listAsset(string,string,address)",
      "arguments": [
        "AAPL",
        "Synthetic Apple Inc.",
        "0xffa7CA1AEEEbBc30C874d32C7e22F052BbEa0429"
      ],
      "transaction": {
        "from": "0xf39fd6e51aad88f6f4ce6ab8827279cfffb92266",
        "to": "0x5bf5b11053e734690269c6b9d438f8c9d48f528a",
        "gas": "0x4d6d4",
        "value": "0x0",
        "input": "0x9b7fd154000000000000000000000000000000000000000000000000000000000000006000000000000000000000000000000000000000000000000000000000000000a0000000000000000000000000ffa7ca1aeeebbc30c874d32c7e22f052bbea042900000000000000000000000000000000000000000000000000000000000000044141504c00000000000000000000000000000000000000000000000000000000000000000000000000000000000000000000000000000000000000000000001453796e746865746963204170706c6520496e632e000000000000000000000000",
        "nonce": "0x78",
        "chainId": "0xa455"
      },
      "additionalContracts": [
        {
          "transactionType": "CREATE",
          "contractName": null,
          "address": "0x955aa5756c7817f119c8418bb1804568715eb476",
          "initCode": "0x3d602d80600a3d3981f3363d3d373d3d3d363d73a96ca159f70efe7e03bdb91534a3f84810dcd61b5af43d82803e903d91602b57fd5bf3"
        }
      ],
      "isFixedGasLimit": false
    },
    {
      "hash": "0xa78daed8eda0977383d3dc30527f451b71b5484236a3738ef6b6dd5816190f59",
      "transactionType": "CALL",
      "contractName": "CollateralVault",
      "contractAddress": "0xffa7ca1aeeebbc30c874d32c7e22f052bbea0429",
      "function": "registerAsset(string,address)",
      "arguments": [
        "AAPL",
        "0x955aa5756c7817f119C8418bb1804568715EB476"
      ],
      "transaction": {
        "from": "0xf39fd6e51aad88f6f4ce6ab8827279cfffb92266",
        "to": "0xffa7ca1aeeebbc30c874d32c7e22f052bbea0429",
        "gas": "0x1829e",
        "value": "0x0",
        "input": "0x8c2261ad0000000000000000000000000000000000000000000000000000000000000040000000000000000000000000955aa5756c7817f119c8418bb1804568715eb47600000000000000000000000000000000000000000000000000000000000000044141504c00000000000000000000000000000000000000000000000000000000",
        "nonce": "0x79",
        "chainId": "0xa455"
      },
      "additionalContracts": [],
      "isFixedGasLimit": false
    },
    {
      "hash": "0x2b784c28ae0482fb2bfafc0c2e76547e814b9e603571addb6e71554bb9567b91",
      "transactionType": "CALL",
      "contractName": "SyntheticAssetFactory",
      "contractAddress": "0x5bf5b11053e734690269c6b9d438f8c9d48f528a",
      "function": "listAsset(string,string,address)",
      "arguments": [
        "TSLA",
        "Synthetic Tesla Inc.",
        "0xffa7CA1AEEEbBc30C874d32C7e22F052BbEa0429"
      ],
      "transaction": {
        "from": "0xf39fd6e51aad88f6f4ce6ab8827279cfffb92266",
        "to": "0x5bf5b11053e734690269c6b9d438f8c9d48f528a",
        "gas": "0x47a90",
        "value": "0x0",
        "input": "0x9b7fd154000000000000000000000000000000000000000000000000000000000000006000000000000000000000000000000000000000000000000000000000000000a0000000000000000000000000ffa7ca1aeeebbc30c874d32c7e22f052bbea0429000000000000000000000000000000000000000000000000000000000000000454534c4100000000000000000000000000000000000000000000000000000000000000000000000000000000000000000000000000000000000000000000001453796e746865746963205465736c6120496e632e000000000000000000000000",
        "nonce": "0x7a",
        "chainId": "0xa455"
      },
      "additionalContracts": [
        {
          "transactionType": "CREATE",
          "contractName": null,
          "address": "0xad180f1577f231483df4473e7e2de28ac25dc29a",
          "initCode": "0x3d602d80600a3d3981f3363d3d373d3d3d363d73a96ca159f70efe7e03bdb91534a3f84810dcd61b5af43d82803e903d91602b57fd5bf3"
        }
      ],
      "isFixedGasLimit": false
    },
    {
      "hash": "0x584033d8215d325615f7eacc739488c0d1265e5b6be676032b24136cf884632d",
      "transactionType": "CALL",
      "contractName": "CollateralVault",
      "contractAddress": "0xffa7ca1aeeebbc30c874d32c7e22f052bbea0429",
      "function": "registerAsset(string,address)",
      "arguments": [
        "TSLA",
        "0xaD180f1577F231483Df4473E7e2de28Ac25dc29A"
      ],
      "transaction": {
        "from": "0xf39fd6e51aad88f6f4ce6ab8827279cfffb92266",
        "to": "0xffa7ca1aeeebbc30c874d32c7e22f052bbea0429",
        "gas": "0x1829e",
        "value": "0x0",
        "input": "0x8c2261ad0000000000000000000000000000000000000000000000000000000000000040000000000000000000000000ad180f1577f231483df4473e7e2de28ac25dc29a000000000000000000000000000000000000000000000000000000000000000454534c4100000000000000000000000000000000000000000000000000000000",
        "nonce": "0x7b",
        "chainId": "0xa455"
      },
      "additionalContracts": [],
      "isFixedGasLimit": false
    },
    {
      "hash": "0x84f4dd1a94d95e8b2f930829423907788dfcdd5ba732cea65e5dc6e000cb51ce",
      "transactionType": "CALL",
      "contractName": "SyntheticAssetFactory",
      "contractAddress": "0x5bf5b11053e734690269c6b9d438f8c9d48f528a",
      "function": "listAsset(string,string,address)",
      "arguments": [
        "NVDA",
        "Synthetic NVIDIA Corp.",
        "0xffa7CA1AEEEbBc30C874d32C7e22F052BbEa0429"
      ],
      "transaction": {
        "from": "0xf39fd6e51aad88f6f4ce6ab8827279cfffb92266",
        "to": "0x5bf5b11053e734690269c6b9d438f8c9d48f528a",
        "gas": "0x47ab2",
        "value": "0x0",
        "input": "0x9b7fd154000000000000000000000000000000000000000000000000000000000000006000000000000000000000000000000000000000000000000000000000000000a0000000000000000000000000ffa7ca1aeeebbc30c874d32c7e22f052bbea042900000000000000000000000000000000000000000000000000000000000000044e56444100000000000000000000000000000000000000000000000000000000000000000000000000000000000000000000000000000000000000000000001653796e746865746963204e564944494120436f72702e00000000000000000000",
        "nonce": "0x7c",
        "chainId": "0xa455"
      },
      "additionalContracts": [
        {
          "transactionType": "CREATE",
          "contractName": null,
          "address": "0x4b169c286766c2a3071465f1637f0d72ebe235da",
          "initCode": "0x3d602d80600a3d3981f3363d3d373d3d3d363d73a96ca159f70efe7e03bdb91534a3f84810dcd61b5af43d82803e903d91602b57fd5bf3"
        }
      ],
      "isFixedGasLimit": false
    },
    {
      "hash": "0x8cb01307d1493103e89d4fae2df5396fcae944317b319194d3e17ad0126a7f2f",
      "transactionType": "CALL",
      "contractName": "CollateralVault",
      "contractAddress": "0xffa7ca1aeeebbc30c874d32c7e22f052bbea0429",
      "function": "registerAsset(string,address)",
      "arguments": [
        "NVDA",
        "0x4B169C286766c2A3071465F1637f0D72eBE235DA"
      ],
      "transaction": {
        "from": "0xf39fd6e51aad88f6f4ce6ab8827279cfffb92266",
        "to": "0xffa7ca1aeeebbc30c874d32c7e22f052bbea0429",
        "gas": "0x1829e",
        "value": "0x0",
        "input": "0x8c2261ad00000000000000000000000000000000000000000000000000000000000000400000000000000000000000004b169c286766c2a3071465f1637f0d72ebe235da00000000000000000000000000000000000000000000000000000000000000044e56444100000000000000000000000000000000000000000000000000000000",
        "nonce": "0x7d",
        "chainId": "0xa455"
      },
      "additionalContracts": [],
      "isFixedGasLimit": false
    },
    {
      "hash": "0x1794d1310ec91d7cdfd7846e17a15ecd47756c244b9ff26c0d1f908c9157ebdb",
      "transactionType": "CALL",
      "contractName": "SyntheticAssetFactory",
      "contractAddress": "0x5bf5b11053e734690269c6b9d438f8c9d48f528a",
      "function": "listAsset(string,string,address)",
      "arguments": [
        "MSFT",
        "Synthetic Microsoft Corp.",
        "0xffa7CA1AEEEbBc30C874d32C7e22F052BbEa0429"
      ],
      "transaction": {
        "from": "0xf39fd6e51aad88f6f4ce6ab8827279cfffb92266",
        "to": "0x5bf5b11053e734690269c6b9d438f8c9d48f528a",
        "gas": "0x47ae3",
        "value": "0x0",
        "input": "0x9b7fd154000000000000000000000000000000000000000000000000000000000000006000000000000000000000000000000000000000000000000000000000000000a0000000000000000000000000ffa7ca1aeeebbc30c874d32c7e22f052bbea042900000000000000000000000000000000000000000000000000000000000000044d53465400000000000000000000000000000000000000000000000000000000000000000000000000000000000000000000000000000000000000000000001953796e746865746963204d6963726f736f667420436f72702e00000000000000",
        "nonce": "0x7e",
        "chainId": "0xa455"
      },
      "additionalContracts": [
        {
          "transactionType": "CREATE",
          "contractName": null,
          "address": "0xf98de15d9fffb139207221d185b1bf6647b5ef79",
          "initCode": "0x3d602d80600a3d3981f3363d3d373d3d3d363d73a96ca159f70efe7e03bdb91534a3f84810dcd61b5af43d82803e903d91602b57fd5bf3"
        }
      ],
      "isFixedGasLimit": false
    },
    {
      "hash": "0xde3d36a84ff842b9a9df93d6d2140b3066a1c87649877e10190479d28a211dd6",
      "transactionType": "CALL",
      "contractName": "CollateralVault",
      "contractAddress": "0xffa7ca1aeeebbc30c874d32c7e22f052bbea0429",
      "function": "registerAsset(string,address)",
      "arguments": [
        "MSFT",
        "0xF98De15D9FFFb139207221D185B1Bf6647B5eF79"
      ],
      "transaction": {
        "from": "0xf39fd6e51aad88f6f4ce6ab8827279cfffb92266",
        "to": "0xffa7ca1aeeebbc30c874d32c7e22f052bbea0429",
        "gas": "0x1829e",
        "value": "0x0",
        "input": "0x8c2261ad0000000000000000000000000000000000000000000000000000000000000040000000000000000000000000f98de15d9fffb139207221d185b1bf6647b5ef7900000000000000000000000000000000000000000000000000000000000000044d53465400000000000000000000000000000000000000000000000000000000",
        "nonce": "0x7f",
        "chainId": "0xa455"
      },
      "additionalContracts": [],
      "isFixedGasLimit": false
    },
    {
      "hash": "0xddc750681c40e5ad1715d9c12f2c362224150050ed75801d46f7b895fef11b6e",
      "transactionType": "CALL",
      "contractName": "SyntheticAssetFactory",
      "contractAddress": "0x5bf5b11053e734690269c6b9d438f8c9d48f528a",
      "function": "listAsset(string,string,address)",
      "arguments": [
        "AMZN",
        "Synthetic Amazon.com Inc.",
        "0xffa7CA1AEEEbBc30C874d32C7e22F052BbEa0429"
      ],
      "transaction": {
        "from": "0xf39fd6e51aad88f6f4ce6ab8827279cfffb92266",
        "to": "0x5bf5b11053e734690269c6b9d438f8c9d48f528a",
        "gas": "0x47ae3",
        "value": "0x0",
        "input": "0x9b7fd154000000000000000000000000000000000000000000000000000000000000006000000000000000000000000000000000000000000000000000000000000000a0000000000000000000000000ffa7ca1aeeebbc30c874d32c7e22f052bbea04290000000000000000000000000000000000000000000000000000000000000004414d5a4e00000000000000000000000000000000000000000000000000000000000000000000000000000000000000000000000000000000000000000000001953796e74686574696320416d617a6f6e2e636f6d20496e632e00000000000000",
        "nonce": "0x80",
        "chainId": "0xa455"
      },
      "additionalContracts": [
        {
          "transactionType": "CREATE",
          "contractName": null,
          "address": "0xfaee537b36ccabb7830a2e53e190eee4132df064",
          "initCode": "0x3d602d80600a3d3981f3363d3d373d3d3d363d73a96ca159f70efe7e03bdb91534a3f84810dcd61b5af43d82803e903d91602b57fd5bf3"
        }
      ],
      "isFixedGasLimit": false
    },
    {
      "hash": "0x0a00386720e2ae6959e20936607d7b48690c5f1353a15485f8e14cfd8e38f1db",
      "transactionType": "CALL",
      "contractName": "CollateralVault",
      "contractAddress": "0xffa7ca1aeeebbc30c874d32c7e22f052bbea0429",
      "function": "registerAsset(string,address)",
      "arguments": [
        "AMZN",
        "0xfaee537b36CCaBB7830a2E53E190EEE4132dF064"
      ],
      "transaction": {
        "from": "0xf39fd6e51aad88f6f4ce6ab8827279cfffb92266",
        "to": "0xffa7ca1aeeebbc30c874d32c7e22f052bbea0429",
        "gas": "0x1829e",
        "value": "0x0",
        "input": "0x8c2261ad0000000000000000000000000000000000000000000000000000000000000040000000000000000000000000faee537b36ccabb7830a2e53e190eee4132df0640000000000000000000000000000000000000000000000000000000000000004414d5a4e00000000000000000000000000000000000000000000000000000000",
        "nonce": "0x81",
        "chainId": "0xa455"
      },
      "additionalContracts": [],
      "isFixedGasLimit": false
    },
    {
      "hash": "0x7e69e5a7578d5f013fcfd87b3ab056daa7f25c3a743390c7649e6ecd03bac2a5",
      "transactionType": "CALL",
      "contractName": "SyntheticAssetFactory",
      "contractAddress": "0x5bf5b11053e734690269c6b9d438f8c9d48f528a",
      "function": "listAsset(string,string,address)",
      "arguments": [
        "GOOGL",
        "Synthetic Alphabet Inc.",
        "0xffa7CA1AEEEbBc30C874d32C7e22F052BbEa0429"
      ],
      "transaction": {
        "from": "0xf39fd6e51aad88f6f4ce6ab8827279cfffb92266",
        "to": "0x5bf5b11053e734690269c6b9d438f8c9d48f528a",
        "gas": "0x47ad2",
        "value": "0x0",
        "input": "0x9b7fd154000000000000000000000000000000000000000000000000000000000000006000000000000000000000000000000000000000000000000000000000000000a0000000000000000000000000ffa7ca1aeeebbc30c874d32c7e22f052bbea04290000000000000000000000000000000000000000000000000000000000000005474f4f474c000000000000000000000000000000000000000000000000000000000000000000000000000000000000000000000000000000000000000000001753796e74686574696320416c70686162657420496e632e000000000000000000",
        "nonce": "0x82",
        "chainId": "0xa455"
      },
      "additionalContracts": [
        {
          "transactionType": "CREATE",
          "contractName": null,
          "address": "0x099756140727020d102bf63f1c8b17eb346575bf",
          "initCode": "0x3d602d80600a3d3981f3363d3d373d3d3d363d73a96ca159f70efe7e03bdb91534a3f84810dcd61b5af43d82803e903d91602b57fd5bf3"
        }
      ],
      "isFixedGasLimit": false
    },
    {
      "hash": "0x966fb4b1363784845c1dd4a4b48338a7ad60d8396c3464bf3c2a7a67c074f1fa",
      "transactionType": "CALL",
      "contractName": "CollateralVault",
      "contractAddress": "0xffa7ca1aeeebbc30c874d32c7e22f052bbea0429",
      "function": "registerAsset(string,address)",
      "arguments": [
        "GOOGL",
        "0x099756140727020d102Bf63F1C8B17eB346575bF"
      ],
      "transaction": {
        "from": "0xf39fd6e51aad88f6f4ce6ab8827279cfffb92266",
        "to": "0xffa7ca1aeeebbc30c874d32c7e22f052bbea0429",
        "gas": "0x182af",
        "value": "0x0",
        "input": "0x8c2261ad0000000000000000000000000000000000000000000000000000000000000040000000000000000000000000099756140727020d102bf63f1c8b17eb346575bf0000000000000000000000000000000000000000000000000000000000000005474f4f474c000000000000000000000000000000000000000000000000000000",
        "nonce": "0x83",
        "chainId": "0xa455"
      },
      "additionalContracts": [],
      "isFixedGasLimit": false
    },
    {
      "hash": "0xc22d10d4f136df89472c01be09ec8cdcdb74a8280aab2dede5dce7fff0fd16fd",
      "transactionType": "CALL",
      "contractName": "SyntheticAssetFactory",
      "contractAddress": "0x5bf5b11053e734690269c6b9d438f8c9d48f528a",
      "function": "listAsset(string,string,address)",
      "arguments": [
        "META",
        "Synthetic Meta Platforms",
        "0xffa7CA1AEEEbBc30C874d32C7e22F052BbEa0429"
      ],
      "transaction": {
        "from": "0xf39fd6e51aad88f6f4ce6ab8827279cfffb92266",
        "to": "0x5bf5b11053e734690269c6b9d438f8c9d48f528a",
        "gas": "0x47ad2",
        "value": "0x0",
        "input": "0x9b7fd154000000000000000000000000000000000000000000000000000000000000006000000000000000000000000000000000000000000000000000000000000000a0000000000000000000000000ffa7ca1aeeebbc30c874d32c7e22f052bbea042900000000000000000000000000000000000000000000000000000000000000044d45544100000000000000000000000000000000000000000000000000000000000000000000000000000000000000000000000000000000000000000000001853796e746865746963204d65746120506c6174666f726d730000000000000000",
        "nonce": "0x84",
        "chainId": "0xa455"
      },
      "additionalContracts": [
        {
          "transactionType": "CREATE",
          "contractName": null,
          "address": "0x4e64c4973e642d3b6a9274a6857fcc7959f00c0b",
          "initCode": "0x3d602d80600a3d3981f3363d3d373d3d3d363d73a96ca159f70efe7e03bdb91534a3f84810dcd61b5af43d82803e903d91602b57fd5bf3"
        }
      ],
      "isFixedGasLimit": false
    },
    {
      "hash": "0xa6549fff6f743d2d347dd1cbd75fbbac1ca8aa64587bfdebc4e6a2b61c42c524",
      "transactionType": "CALL",
      "contractName": "CollateralVault",
      "contractAddress": "0xffa7ca1aeeebbc30c874d32c7e22f052bbea0429",
      "function": "registerAsset(string,address)",
      "arguments": [
        "META",
        "0x4e64C4973e642D3B6A9274a6857FCC7959f00c0B"
      ],
      "transaction": {
        "from": "0xf39fd6e51aad88f6f4ce6ab8827279cfffb92266",
        "to": "0xffa7ca1aeeebbc30c874d32c7e22f052bbea0429",
        "gas": "0x1829e",
        "value": "0x0",
        "input": "0x8c2261ad00000000000000000000000000000000000000000000000000000000000000400000000000000000000000004e64c4973e642d3b6a9274a6857fcc7959f00c0b00000000000000000000000000000000000000000000000000000000000000044d45544100000000000000000000000000000000000000000000000000000000",
        "nonce": "0x85",
        "chainId": "0xa455"
      },
      "additionalContracts": [],
      "isFixedGasLimit": false
    },
    {
      "hash": "0xbac454dd3dfa345d829fefcf282775045a736bd5195e4751042c14283b319b54",
      "transactionType": "CALL",
      "contractName": "SyntheticAssetFactory",
      "contractAddress": "0x5bf5b11053e734690269c6b9d438f8c9d48f528a",
      "function": "listAsset(string,string,address)",
      "arguments": [
        "JPM",
        "Synthetic JPMorgan Chase",
        "0xffa7CA1AEEEbBc30C874d32C7e22F052BbEa0429"
      ],
      "transaction": {
        "from": "0xf39fd6e51aad88f6f4ce6ab8827279cfffb92266",
        "to": "0x5bf5b11053e734690269c6b9d438f8c9d48f528a",
        "gas": "0x47ac1",
        "value": "0x0",
        "input": "0x9b7fd154000000000000000000000000000000000000000000000000000000000000006000000000000000000000000000000000000000000000000000000000000000a0000000000000000000000000ffa7ca1aeeebbc30c874d32c7e22f052bbea042900000000000000000000000000000000000000000000000000000000000000034a504d0000000000000000000000000000000000000000000000000000000000000000000000000000000000000000000000000000000000000000000000001853796e746865746963204a504d6f7267616e2043686173650000000000000000",
        "nonce": "0x86",
        "chainId": "0xa455"
      },
      "additionalContracts": [
        {
          "transactionType": "CREATE",
          "contractName": null,
          "address": "0xf7ec7ec07c9bbdc9d0f41f69c33860d33954ce35",
          "initCode": "0x3d602d80600a3d3981f3363d3d373d3d3d363d73a96ca159f70efe7e03bdb91534a3f84810dcd61b5af43d82803e903d91602b57fd5bf3"
        }
      ],
      "isFixedGasLimit": false
    },
    {
      "hash": "0x4fcba76f214efefebb70dc7e3b81dd0ea33fff372f328224600d1c40c8a958f6",
      "transactionType": "CALL",
      "contractName": "CollateralVault",
      "contractAddress": "0xffa7ca1aeeebbc30c874d32c7e22f052bbea0429",
      "function": "registerAsset(string,address)",
      "arguments": [
        "JPM",
        "0xF7EC7EC07c9BbDc9D0F41f69c33860d33954cE35"
      ],
      "transaction": {
        "from": "0xf39fd6e51aad88f6f4ce6ab8827279cfffb92266",
        "to": "0xffa7ca1aeeebbc30c874d32c7e22f052bbea0429",
        "gas": "0x1828d",
        "value": "0x0",
        "input": "0x8c2261ad0000000000000000000000000000000000000000000000000000000000000040000000000000000000000000f7ec7ec07c9bbdc9d0f41f69c33860d33954ce3500000000000000000000000000000000000000000000000000000000000000034a504d0000000000000000000000000000000000000000000000000000000000",
        "nonce": "0x87",
        "chainId": "0xa455"
      },
      "additionalContracts": [],
      "isFixedGasLimit": false
    },
    {
      "hash": "0x29ecbe4f452a03a781d9bacea62ae9f853df988c9b3d93eeba1a0110eaf15678",
      "transactionType": "CALL",
      "contractName": "SyntheticAssetFactory",
      "contractAddress": "0x5bf5b11053e734690269c6b9d438f8c9d48f528a",
      "function": "listAsset(string,string,address)",
      "arguments": [
        "V",
        "Synthetic Visa Inc.",
        "0xffa7CA1AEEEbBc30C874d32C7e22F052BbEa0429"
      ],
      "transaction": {
        "from": "0xf39fd6e51aad88f6f4ce6ab8827279cfffb92266",
        "to": "0x5bf5b11053e734690269c6b9d438f8c9d48f528a",
        "gas": "0x47a4e",
        "value": "0x0",
        "input": "0x9b7fd154000000000000000000000000000000000000000000000000000000000000006000000000000000000000000000000000000000000000000000000000000000a0000000000000000000000000ffa7ca1aeeebbc30c874d32c7e22f052bbea042900000000000000000000000000000000000000000000000000000000000000015600000000000000000000000000000000000000000000000000000000000000000000000000000000000000000000000000000000000000000000000000001353796e746865746963205669736120496e632e00000000000000000000000000",
        "nonce": "0x88",
        "chainId": "0xa455"
      },
      "additionalContracts": [
        {
          "transactionType": "CREATE",
          "contractName": null,
          "address": "0xfc106f6c6eb3d4b6825aba0908e229bcb56d4ba6",
          "initCode": "0x3d602d80600a3d3981f3363d3d373d3d3d363d73a96ca159f70efe7e03bdb91534a3f84810dcd61b5af43d82803e903d91602b57fd5bf3"
        }
      ],
      "isFixedGasLimit": false
    },
    {
      "hash": "0x49f88aa95f088efce9f255d445c239ef8317c95ce42edeef50bd09fe637f174a",
      "transactionType": "CALL",
      "contractName": "CollateralVault",
      "contractAddress": "0xffa7ca1aeeebbc30c874d32c7e22f052bbea0429",
      "function": "registerAsset(string,address)",
      "arguments": [
        "V",
        "0xFC106f6C6Eb3d4B6825aba0908e229BCb56D4bA6"
      ],
      "transaction": {
        "from": "0xf39fd6e51aad88f6f4ce6ab8827279cfffb92266",
        "to": "0xffa7ca1aeeebbc30c874d32c7e22f052bbea0429",
        "gas": "0x1826c",
        "value": "0x0",
        "input": "0x8c2261ad0000000000000000000000000000000000000000000000000000000000000040000000000000000000000000fc106f6c6eb3d4b6825aba0908e229bcb56d4ba600000000000000000000000000000000000000000000000000000000000000015600000000000000000000000000000000000000000000000000000000000000",
        "nonce": "0x89",
        "chainId": "0xa455"
      },
      "additionalContracts": [],
      "isFixedGasLimit": false
    },
    {
      "hash": "0xff12ffe3e07c5537bbf36c731705f74bcdb60a09f54eb1218a7f0e2167d5494d",
      "transactionType": "CALL",
      "contractName": "SyntheticAssetFactory",
      "contractAddress": "0x5bf5b11053e734690269c6b9d438f8c9d48f528a",
      "function": "listAsset(string,string,address)",
      "arguments": [
        "DIS",
        "Synthetic Walt Disney Co.",
        "0xffa7CA1AEEEbBc30C874d32C7e22F052BbEa0429"
      ],
      "transaction": {
        "from": "0xf39fd6e51aad88f6f4ce6ab8827279cfffb92266",
        "to": "0x5bf5b11053e734690269c6b9d438f8c9d48f528a",
        "gas": "0x47ad2",
        "value": "0x0",
        "input": "0x9b7fd154000000000000000000000000000000000000000000000000000000000000006000000000000000000000000000000000000000000000000000000000000000a0000000000000000000000000ffa7ca1aeeebbc30c874d32c7e22f052bbea042900000000000000000000000000000000000000000000000000000000000000034449530000000000000000000000000000000000000000000000000000000000000000000000000000000000000000000000000000000000000000000000001953796e7468657469632057616c74204469736e657920436f2e00000000000000",
        "nonce": "0x8a",
        "chainId": "0xa455"
      },
      "additionalContracts": [
        {
          "transactionType": "CREATE",
          "contractName": null,
          "address": "0xd483683d1eddc1f6656a03e50a032f3415bc0632",
          "initCode": "0x3d602d80600a3d3981f3363d3d373d3d3d363d73a96ca159f70efe7e03bdb91534a3f84810dcd61b5af43d82803e903d91602b57fd5bf3"
        }
      ],
      "isFixedGasLimit": false
    },
    {
      "hash": "0x586c8c2344edbacd3de6a62edb248883a57d7967ba5403056ca63ee7e99e67ed",
      "transactionType": "CALL",
      "contractName": "CollateralVault",
      "contractAddress": "0xffa7ca1aeeebbc30c874d32c7e22f052bbea0429",
      "function": "registerAsset(string,address)",
      "arguments": [
        "DIS",
        "0xd483683D1eDdC1F6656A03e50A032f3415bc0632"
      ],
      "transaction": {
        "from": "0xf39fd6e51aad88f6f4ce6ab8827279cfffb92266",
        "to": "0xffa7ca1aeeebbc30c874d32c7e22f052bbea0429",
        "gas": "0x1828d",
        "value": "0x0",
        "input": "0x8c2261ad0000000000000000000000000000000000000000000000000000000000000040000000000000000000000000d483683d1eddc1f6656a03e50a032f3415bc063200000000000000000000000000000000000000000000000000000000000000034449530000000000000000000000000000000000000000000000000000000000",
        "nonce": "0x8b",
        "chainId": "0xa455"
      },
      "additionalContracts": [],
      "isFixedGasLimit": false
    },
    {
      "hash": "0x0f96a50c623cd292f00158bef7b09d3c6c8157483ab8894a0886724f3112d440",
      "transactionType": "CALL",
      "contractName": "SyntheticAssetFactory",
      "contractAddress": "0x5bf5b11053e734690269c6b9d438f8c9d48f528a",
      "function": "listAsset(string,string,address)",
      "arguments": [
        "NFLX",
        "Synthetic Netflix Inc.",
        "0xffa7CA1AEEEbBc30C874d32C7e22F052BbEa0429"
      ],
      "transaction": {
        "from": "0xf39fd6e51aad88f6f4ce6ab8827279cfffb92266",
        "to": "0x5bf5b11053e734690269c6b9d438f8c9d48f528a",
        "gas": "0x47ab2",
        "value": "0x0",
        "input": "0x9b7fd154000000000000000000000000000000000000000000000000000000000000006000000000000000000000000000000000000000000000000000000000000000a0000000000000000000000000ffa7ca1aeeebbc30c874d32c7e22f052bbea042900000000000000000000000000000000000000000000000000000000000000044e464c5800000000000000000000000000000000000000000000000000000000000000000000000000000000000000000000000000000000000000000000001653796e746865746963204e6574666c697820496e632e00000000000000000000",
        "nonce": "0x8c",
        "chainId": "0xa455"
      },
      "additionalContracts": [
        {
          "transactionType": "CREATE",
          "contractName": null,
          "address": "0xdf17c2489e725b918c92070349cb3185c3b7f046",
          "initCode": "0x3d602d80600a3d3981f3363d3d373d3d3d363d73a96ca159f70efe7e03bdb91534a3f84810dcd61b5af43d82803e903d91602b57fd5bf3"
        }
      ],
      "isFixedGasLimit": false
    },
    {
      "hash": "0x65a6f80e225079613d348ce813d5baedabdbd43996a05327b2215cceb6a44f32",
      "transactionType": "CALL",
      "contractName": "CollateralVault",
      "contractAddress": "0xffa7ca1aeeebbc30c874d32c7e22f052bbea0429",
      "function": "registerAsset(string,address)",
      "arguments": [
        "NFLX",
        "0xdf17C2489E725B918C92070349cb3185c3B7F046"
      ],
      "transaction": {
        "from": "0xf39fd6e51aad88f6f4ce6ab8827279cfffb92266",
        "to": "0xffa7ca1aeeebbc30c874d32c7e22f052bbea0429",
        "gas": "0x1829e",
        "value": "0x0",
        "input": "0x8c2261ad0000000000000000000000000000000000000000000000000000000000000040000000000000000000000000df17c2489e725b918c92070349cb3185c3b7f04600000000000000000000000000000000000000000000000000000000000000044e464c5800000000000000000000000000000000000000000000000000000000",
        "nonce": "0x8d",
        "chainId": "0xa455"
      },
      "additionalContracts": [],
      "isFixedGasLimit": false
    },
    {
      "hash": "0xd1696a4081efa21fe18f8d5e26ede6fe460862a940b6d1cbaf94644617f67fa3",
      "transactionType": "CALL",
      "contractName": "SyntheticAssetFactory",
      "contractAddress": "0x5bf5b11053e734690269c6b9d438f8c9d48f528a",
      "function": "listAsset(string,string,address)",
      "arguments": [
        "AMD",
        "Synthetic Advanced Micro Devices",
        "0xffa7CA1AEEEbBc30C874d32C7e22F052BbEa0429"
      ],
      "transaction": {
        "from": "0xf39fd6e51aad88f6f4ce6ab8827279cfffb92266",
        "to": "0x5bf5b11053e734690269c6b9d438f8c9d48f528a",
        "gas": "0x53d95",
        "value": "0x0",
        "input": "0x9b7fd154000000000000000000000000000000000000000000000000000000000000006000000000000000000000000000000000000000000000000000000000000000a0000000000000000000000000ffa7ca1aeeebbc30c874d32c7e22f052bbea04290000000000000000000000000000000000000000000000000000000000000003414d440000000000000000000000000000000000000000000000000000000000000000000000000000000000000000000000000000000000000000000000002053796e74686574696320416476616e636564204d6963726f2044657669636573",
        "nonce": "0x8e",
        "chainId": "0xa455"
      },
      "additionalContracts": [
        {
          "transactionType": "CREATE",
          "contractName": null,
          "address": "0x82fd472037a58dedc5a843b97bd15dcc77103632",
          "initCode": "0x3d602d80600a3d3981f3363d3d373d3d3d363d73a96ca159f70efe7e03bdb91534a3f84810dcd61b5af43d82803e903d91602b57fd5bf3"
        }
      ],
      "isFixedGasLimit": false
    },
    {
      "hash": "0x77aac465ce812cdf263bd1709a5a7f12f50451a1ba10dda78048646c234e768c",
      "transactionType": "CALL",
      "contractName": "CollateralVault",
      "contractAddress": "0xffa7ca1aeeebbc30c874d32c7e22f052bbea0429",
      "function": "registerAsset(string,address)",
      "arguments": [
        "AMD",
        "0x82FD472037A58Dedc5A843B97BD15DcC77103632"
      ],
      "transaction": {
        "from": "0xf39fd6e51aad88f6f4ce6ab8827279cfffb92266",
        "to": "0xffa7ca1aeeebbc30c874d32c7e22f052bbea0429",
        "gas": "0x1828d",
        "value": "0x0",
        "input": "0x8c2261ad000000000000000000000000000000000000000000000000000000000000004000000000000000000000000082fd472037a58dedc5a843b97bd15dcc771036320000000000000000000000000000000000000000000000000000000000000003414d440000000000000000000000000000000000000000000000000000000000",
        "nonce": "0x8f",
        "chainId": "0xa455"
      },
      "additionalContracts": [],
      "isFixedGasLimit": false
    }
  ],
  "receipts": [
    {
      "status": "0x1",
      "cumulativeGasUsed": "0x7f571",
      "logs": [],
      "logsBloom": "0x00000000000000000000000000000000000000000000000000000000000000000000000000000000000000000000000000000000000000000000000000000000000000000000000000000000000000000000000000000000000000000000000000000000000000000000000000000000000000000000000000000000000000000000000000000000000000000000000000000000000000000000000000000000000000000000000000000000000000000000000000000000000000000000000000000000000000000000000000000000000000000000000000000000000000000000000000000000000000000000000000000000000000000000000000000000",
      "type": "0x0",
      "transactionHash": "0x94233233875f12c6269943552307a6c2636010e109a5b0182d3dc547b6b77a50",
      "transactionIndex": "0x0",
      "blockHash": "0x5e6d6a332b336647842f9e747915875fa740e78609732f54167ac9068f1c13af",
      "blockNumber": "0x23",
      "gasUsed": "0x7f571",
      "effectiveGasPrice": "0x3c739f57",
      "blobGasPrice": "0x1",
      "from": "0xf39fd6e51aad88f6f4ce6ab8827279cfffb92266",
      "to": null,
      "contractAddress": "0xd5ac451b0c50b9476107823af206ed814a2e2580"
    },
    {
      "status": "0x1",
      "cumulativeGasUsed": "0x90968",
      "logs": [
        {
          "address": "0xd5ac451b0c50b9476107823af206ed814a2e2580",
          "topics": [
            "0xd78ddf5dda09409c5ba0a349a6c0149840d265112fa302b34dc3b322e7f675bc",
            "0x3a54a9a690616fbc26cfc409bf11f89d51f1d57a4ab2791fb86026cee74ed2f3"
          ],
          "data": "0x0000000000000000000000000000000000000000000000000000000429411400",
          "blockHash": "0x5e6d6a332b336647842f9e747915875fa740e78609732f54167ac9068f1c13af",
          "blockNumber": "0x23",
          "blockTimestamp": "0x69f528f9",
          "transactionHash": "0x13bca5797b34ffc708e328203f62a9928bb7b05f52f2dd6753ec417c4fa88c03",
          "transactionIndex": "0x1",
          "logIndex": "0x0",
          "removed": false
        }
      ],
      "logsBloom": "0x00000000000000000000000000000000000000000200000000000000000000000800000000000000000000000000000000004000000000000002000000000000000000000000000000000000000000000000000000000000000000000000000000000000000000000000000000000000000000000000000000000000000000000000000000000000000000000000000000000000000000000000000000000000000000000000001000000000000000000100000000000000000000000000000000000000000000000000000001000000000000000000000000000000000000000000000000000000000000000000000400000000000000000000000020000000",
      "type": "0x0",
      "transactionHash": "0x13bca5797b34ffc708e328203f62a9928bb7b05f52f2dd6753ec417c4fa88c03",
      "transactionIndex": "0x1",
      "blockHash": "0x5e6d6a332b336647842f9e747915875fa740e78609732f54167ac9068f1c13af",
      "blockNumber": "0x23",
      "gasUsed": "0x113f7",
      "effectiveGasPrice": "0x3c739f57",
      "blobGasPrice": "0x1",
      "from": "0xf39fd6e51aad88f6f4ce6ab8827279cfffb92266",
      "to": "0xd5ac451b0c50b9476107823af206ed814a2e2580",
      "contractAddress": null
    },
    {
      "status": "0x1",
      "cumulativeGasUsed": "0xa1d6b",
      "logs": [
        {
          "address": "0xd5ac451b0c50b9476107823af206ed814a2e2580",
          "topics": [
            "0xd78ddf5dda09409c5ba0a349a6c0149840d265112fa302b34dc3b322e7f675bc",
            "0x0a8f1f385fed9c77a2e0daa363ccc865e971bdbe4458bb570cc0acb068d7c0f2"
          ],
          "data": "0x00000000000000000000000000000000000000000000000000000005c92ce880",
          "blockHash": "0x5e6d6a332b336647842f9e747915875fa740e78609732f54167ac9068f1c13af",
          "blockNumber": "0x23",
          "blockTimestamp": "0x69f528f9",
          "transactionHash": "0x584033d8215d325615f7eacc739488c0d1265e5b6be676032b24136cf884632d",
          "transactionIndex": "0x2",
          "logIndex": "0x1",
          "removed": false
        }
      ],
      "logsBloom": "0x00000000000000000000000000000000000000000200000000000000000000000800000000000001000000000000000000004000000000000000000000000000000000000000000000000000000000000000000000000000000000000000000000000000000000000000000000000000000000000000000000000000000000000000000000000000000000000000000000000000000000000000000000000000000000000000001000000000000000000004002000000000000000000000000000000000000000000000000000000000000000000000000000000000000000000000000000000000000000000000000400000000000000000000000020000000",
      "type": "0x0",
      "transactionHash": "0x584033d8215d325615f7eacc739488c0d1265e5b6be676032b24136cf884632d",
      "transactionIndex": "0x2",
      "blockHash": "0x5e6d6a332b336647842f9e747915875fa740e78609732f54167ac9068f1c13af",
      "blockNumber": "0x23",
      "gasUsed": "0x11403",
      "effectiveGasPrice": "0x3c739f57",
      "blobGasPrice": "0x1",
      "from": "0xf39fd6e51aad88f6f4ce6ab8827279cfffb92266",
      "to": "0xd5ac451b0c50b9476107823af206ed814a2e2580",
      "contractAddress": null
    },
    {
      "status": "0x1",
      "cumulativeGasUsed": "0xb316e",
      "logs": [
        {
          "address": "0xd5ac451b0c50b9476107823af206ed814a2e2580",
          "topics": [
            "0xd78ddf5dda09409c5ba0a349a6c0149840d265112fa302b34dc3b322e7f675bc",
            "0xe108948b9667048232851f26a1427d3a908b22da622562906ca50ea536c2ecfb"
          ],
          "data": "0x000000000000000000000000000000000000000000000000000000146131ce80",
          "blockHash": "0x5e6d6a332b336647842f9e747915875fa740e78609732f54167ac9068f1c13af",
          "blockNumber": "0x23",
          "blockTimestamp": "0x69f528f9",
          "transactionHash": "0xe28a700f60f5006a848124cf6fcc9a31050654dcf67bc8bf400f231ce2c00e35",
          "transactionIndex": "0x3",
          "logIndex": "0x2",
          "removed": false
        }
      ],
      "logsBloom": "0x00000000000000000000000000000000000000000200000000000000000000000800000000000000000000000000000000004000000000000000000000000000000000000000000000000000000000000000000000000000000000000000000000480000000000000000000000000000000000000000000000000000000000000000000000000000000000000000000000000000000000000000000000000000000000000000001000000000000000000000000000000000000000000000000000000000000000000000000000000000000000000000000000000000000000001000000000000000000000000000000400000000000000000000000020000000",
      "type": "0x0",
      "transactionHash": "0xe28a700f60f5006a848124cf6fcc9a31050654dcf67bc8bf400f231ce2c00e35",
      "transactionIndex": "0x3",
      "blockHash": "0x5e6d6a332b336647842f9e747915875fa740e78609732f54167ac9068f1c13af",
      "blockNumber": "0x23",
      "gasUsed": "0x11403",
      "effectiveGasPrice": "0x3c739f57",
      "blobGasPrice": "0x1",
      "from": "0xf39fd6e51aad88f6f4ce6ab8827279cfffb92266",
      "to": "0xd5ac451b0c50b9476107823af206ed814a2e2580",
      "contractAddress": null
    },
    {
      "status": "0x1",
      "cumulativeGasUsed": "0xc4565",
      "logs": [
        {
          "address": "0xd5ac451b0c50b9476107823af206ed814a2e2580",
          "topics": [
            "0xd78ddf5dda09409c5ba0a349a6c0149840d265112fa302b34dc3b322e7f675bc",
            "0xb2023082f01404dd0ce6937cab03c4f5d6db9ba8b1fac7e7ee6d8d6d899f4e3d"
          ],
          "data": "0x00000000000000000000000000000000000000000000000000000009ad2b4600",
          "blockHash": "0x5e6d6a332b336647842f9e747915875fa740e78609732f54167ac9068f1c13af",
          "blockNumber": "0x23",
          "blockTimestamp": "0x69f528f9",
          "transactionHash": "0xac10c8e841904eff9951c0f9dee2765bd64b0315bae06279c659e5c32be146e2",
          "transactionIndex": "0x4",
          "logIndex": "0x3",
          "removed": false
        }
      ],
      "logsBloom": "0x00000000000000000000000000080000000000000200000000000000000000000800000000000000000000000000000000004000000000000000000000000000000000000000000000000000000000000000000000000000000000000000000000000000000000000000000000000000000000000000000000000000000000000000000000000000000000000000000000000000000000000000000000200000000000000000001000000000000000000000000000000000000000000000000000000000000000000000000000000000000000000000020000000000000000000000000000000000000000000000000400000000000000000000000020000000",
      "type": "0x0",
      "transactionHash": "0xac10c8e841904eff9951c0f9dee2765bd64b0315bae06279c659e5c32be146e2",
      "transactionIndex": "0x4",
      "blockHash": "0x5e6d6a332b336647842f9e747915875fa740e78609732f54167ac9068f1c13af",
      "blockNumber": "0x23",
      "gasUsed": "0x113f7",
      "effectiveGasPrice": "0x3c739f57",
      "blobGasPrice": "0x1",
      "from": "0xf39fd6e51aad88f6f4ce6ab8827279cfffb92266",
      "to": "0xd5ac451b0c50b9476107823af206ed814a2e2580",
      "contractAddress": null
    },
    {
      "status": "0x1",
      "cumulativeGasUsed": "0xd5968",
      "logs": [
        {
          "address": "0xd5ac451b0c50b9476107823af206ed814a2e2580",
          "topics": [
            "0xd78ddf5dda09409c5ba0a349a6c0149840d265112fa302b34dc3b322e7f675bc",
            "0x6c755094f1cdd95e2e4170549dc12e7555151536b32029b8d94678134de2ef0d"
          ],
          "data": "0x000000000000000000000000000000000000000000000000000000043db2d7c0",
          "blockHash": "0x5e6d6a332b336647842f9e747915875fa740e78609732f54167ac9068f1c13af",
          "blockNumber": "0x23",
          "blockTimestamp": "0x69f528f9",
          "transactionHash": "0x11ed07ed90d5e5c52d81dea4423469e8cb43c3359e86ae52a27093a5be87fc09",
          "transactionIndex": "0x5",
          "logIndex": "0x4",
          "removed": false
        }
      ],
      "logsBloom": "0x00000000000000000000000000000000000000000200000000000000000000000800000000000000000000000000000000004000000000000000000000000000000000000000080000000000000000000000000000000001000000000000000000000000000000000000000000000000000000000000000000000000000000000000000000000000000000000000000000000000000000000000000000000000000000000000001000000000000000000000000000000000000000000000000000000000000000000000000000000000000000000000000000000000000000000000000000004000000000000000000400000000000000000000000020000000",
      "type": "0x0",
      "transactionHash": "0x11ed07ed90d5e5c52d81dea4423469e8cb43c3359e86ae52a27093a5be87fc09",
      "transactionIndex": "0x5",
      "blockHash": "0x5e6d6a332b336647842f9e747915875fa740e78609732f54167ac9068f1c13af",
      "blockNumber": "0x23",
      "gasUsed": "0x11403",
      "effectiveGasPrice": "0x3c739f57",
      "blobGasPrice": "0x1",
      "from": "0xf39fd6e51aad88f6f4ce6ab8827279cfffb92266",
      "to": "0xd5ac451b0c50b9476107823af206ed814a2e2580",
      "contractAddress": null
    },
    {
      "status": "0x1",
      "cumulativeGasUsed": "0xe6d6b",
      "logs": [
        {
          "address": "0xd5ac451b0c50b9476107823af206ed814a2e2580",
          "topics": [
            "0xd78ddf5dda09409c5ba0a349a6c0149840d265112fa302b34dc3b322e7f675bc",
            "0x5480d4740314d9a5fa65eac6dab758c3c95d65be45311b45c3551575d760e7d8"
          ],
          "data": "0x00000000000000000000000000000000000000000000000000000003a0a3ef00",
          "blockHash": "0x5e6d6a332b336647842f9e747915875fa740e78609732f54167ac9068f1c13af",
          "blockNumber": "0x23",
          "blockTimestamp": "0x69f528f9",
          "transactionHash": "0x9ba14eb30c4880840e0ea203ff564cc59cb44f110062de4e17ecd5f35980bbd3",
          "transactionIndex": "0x6",
          "logIndex": "0x5",
          "removed": false
        }
      ],
      "logsBloom": "0x00000000000000000000000000000000000000000200000000000000000000000800000000000000000000000000000000004000000000000000000000000000000000000000000000000000000000000000000000000000000000000008000000000000000000000000000000000000000000000000000000000000000000000000000000000000000000000000000000000000000000000000000000000000000000000000001000000000000000000000100000000000000800000000000000000000000000000000000000000000000000000000000000000000000000000000000000000000000000000000000400000000000000000000000020000000",
      "type": "0x0",
      "transactionHash": "0x9ba14eb30c4880840e0ea203ff564cc59cb44f110062de4e17ecd5f35980bbd3",
      "transactionIndex": "0x6",
      "blockHash": "0x5e6d6a332b336647842f9e747915875fa740e78609732f54167ac9068f1c13af",
      "blockNumber": "0x23",
      "gasUsed": "0x11403",
      "effectiveGasPrice": "0x3c739f57",
      "blobGasPrice": "0x1",
      "from": "0xf39fd6e51aad88f6f4ce6ab8827279cfffb92266",
      "to": "0xd5ac451b0c50b9476107823af206ed814a2e2580",
      "contractAddress": null
    },
    {
      "status": "0x1",
      "cumulativeGasUsed": "0xf816e",
      "logs": [
        {
          "address": "0xd5ac451b0c50b9476107823af206ed814a2e2580",
          "topics": [
            "0xd78ddf5dda09409c5ba0a349a6c0149840d265112fa302b34dc3b322e7f675bc",
            "0x0057355892fab25ddc63a7482ec1696d6ada670339b1ae464da8f6b958ddbee8"
          ],
          "data": "0x0000000000000000000000000000000000000000000000000000000bb79a8f40",
          "blockHash": "0x5e6d6a332b336647842f9e747915875fa740e78609732f54167ac9068f1c13af",
          "blockNumber": "0x23",
          "blockTimestamp": "0x69f528f9",
          "transactionHash": "0x5d05ac07c7d496df111ab688f576391ca9615444706d22701702d762885908ce",
          "transactionIndex": "0x7",
          "logIndex": "0x6",
          "removed": false
        }
      ],
      "logsBloom": "0x00000000000000000000000000000000000000000200000000000000000000000800000000000000000000000000000000004000000000000000000000000000000000000000000000000000000000000000000000000000000000000000000000000000100000000000000008000000000000000000000000000000000000000000000000000000000000000000000000000000000000000000000000000000000000000000001000000000000000000000000000000000000000000000000000000000000000000000000000000000000000000000000000000000000000400000000000000000000000000000000400000000000000000000000020000000",
      "type": "0x0",
      "transactionHash": "0x5d05ac07c7d496df111ab688f576391ca9615444706d22701702d762885908ce",
      "transactionIndex": "0x7",
      "blockHash": "0x5e6d6a332b336647842f9e747915875fa740e78609732f54167ac9068f1c13af",
      "blockNumber": "0x23",
      "gasUsed": "0x11403",
      "effectiveGasPrice": "0x3c739f57",
      "blobGasPrice": "0x1",
      "from": "0xf39fd6e51aad88f6f4ce6ab8827279cfffb92266",
      "to": "0xd5ac451b0c50b9476107823af206ed814a2e2580",
      "contractAddress": null
    },
    {
      "status": "0x1",
      "cumulativeGasUsed": "0x109559",
      "logs": [
        {
          "address": "0xd5ac451b0c50b9476107823af206ed814a2e2580",
          "topics": [
            "0xd78ddf5dda09409c5ba0a349a6c0149840d265112fa302b34dc3b322e7f675bc",
            "0x7c66dfce614e9a88c33dd01ffd47e917575e527015d5ead8069719869ba53f20"
          ],
          "data": "0x000000000000000000000000000000000000000000000000000000049e8e6000",
          "blockHash": "0x5e6d6a332b336647842f9e747915875fa740e78609732f54167ac9068f1c13af",
          "blockNumber": "0x23",
          "blockTimestamp": "0x69f528f9",
          "transactionHash": "0x5aa19c4d99031f9248597b701044933fae1fa5680268218dfd53e15502075174",
          "transactionIndex": "0x8",
          "logIndex": "0x7",
          "removed": false
        }
      ],
      "logsBloom": "0x00000000000000000000000000000000000000000200000000000000000000000800000000004000000000000000000080004000000000000000000000000000000000000000000000000000000000000000000000000000000000000000000000000000000000000000000000000000000000000000000000000000000000000000000000000000000000000000000000000000000000000000000000000000000000000000001000000000000000000000000000000000000000000000010000000000000000000000000000000000000000000000000000000000000000000000000000000000000000000000000400000000000000000000000020000000",
      "type": "0x0",
      "transactionHash": "0x5aa19c4d99031f9248597b701044933fae1fa5680268218dfd53e15502075174",
      "transactionIndex": "0x8",
      "blockHash": "0x5e6d6a332b336647842f9e747915875fa740e78609732f54167ac9068f1c13af",
      "blockNumber": "0x23",
      "gasUsed": "0x113eb",
      "effectiveGasPrice": "0x3c739f57",
      "blobGasPrice": "0x1",
      "from": "0xf39fd6e51aad88f6f4ce6ab8827279cfffb92266",
      "to": "0xd5ac451b0c50b9476107823af206ed814a2e2580",
      "contractAddress": null
    },
    {
      "status": "0x1",
      "cumulativeGasUsed": "0x11a938",
      "logs": [
        {
          "address": "0xd5ac451b0c50b9476107823af206ed814a2e2580",
          "topics": [
            "0xd78ddf5dda09409c5ba0a349a6c0149840d265112fa302b34dc3b322e7f675bc",
            "0xf0da850a6b7c61a66cdd43ac7529affc6000442af1c1bdda1db3bb7220bf7613"
          ],
          "data": "0x0000000000000000000000000000000000000000000000000000000684558180",
          "blockHash": "0x5e6d6a332b336647842f9e747915875fa740e78609732f54167ac9068f1c13af",
          "blockNumber": "0x23",
          "blockTimestamp": "0x69f528f9",
          "transactionHash": "0x84f4dd1a94d95e8b2f930829423907788dfcdd5ba732cea65e5dc6e000cb51ce",
          "transactionIndex": "0x9",
          "logIndex": "0x8",
          "removed": false
        }
      ],
      "logsBloom": "0x00000000000000000008000000000000000000000200000000000000000000000800000000000000000000000000000000004000000000000000000000000000000000000000000000000000000000000000000000000000000000000000000000000000000000000000000000000000000000000000000000000000000000000000000000000000000200000400000000000000000000000000000000000000000000000000001000000000000000000000000000000000000000000000000000000000000000000000000000000000000000000000000000000000000000000000000000000000000000000000000400000000000000000000000020000000",
      "type": "0x0",
      "transactionHash": "0x84f4dd1a94d95e8b2f930829423907788dfcdd5ba732cea65e5dc6e000cb51ce",
      "transactionIndex": "0x9",
      "blockHash": "0x5e6d6a332b336647842f9e747915875fa740e78609732f54167ac9068f1c13af",
      "blockNumber": "0x23",
      "gasUsed": "0x113df",
      "effectiveGasPrice": "0x3c739f57",
      "blobGasPrice": "0x1",
      "from": "0xf39fd6e51aad88f6f4ce6ab8827279cfffb92266",
      "to": "0xd5ac451b0c50b9476107823af206ed814a2e2580",
      "contractAddress": null
    },
    {
      "status": "0x1",
      "cumulativeGasUsed": "0x12bd2f",
      "logs": [
        {
          "address": "0xd5ac451b0c50b9476107823af206ed814a2e2580",
          "topics": [
            "0xd78ddf5dda09409c5ba0a349a6c0149840d265112fa302b34dc3b322e7f675bc",
            "0x1ee390a6c6917753ffa9bb0bd83cc313e935b13e3daaba67038caf0e47f928f1"
          ],
          "data": "0x000000000000000000000000000000000000000000000000000000029da87ec0",
          "blockHash": "0x5e6d6a332b336647842f9e747915875fa740e78609732f54167ac9068f1c13af",
          "blockNumber": "0x23",
          "blockTimestamp": "0x69f528f9",
          "transactionHash": "0x43d66547f99e52d8b2cc1a48cf3c6cb8ef980e3f24d355581bf9bc75da94c000",
          "transactionIndex": "0xa",
          "logIndex": "0x9",
          "removed": false
        }
      ],
      "logsBloom": "0x00000000000000000000000000000000000000000200000000000000000000000800000000000000000000000000000000004000000000000000000000000000000000000000000000000000000000000000000000000000000000000000000000000000000000000000000000000000000000000000000000000000000000000000000000000000000000000000000000000000000000000000000000000200000000000000001100000000000000010000000000000000000000000000000000000000000000000000000000000000000000000000000000000000000000000000000000000000000000000000000400000000000000000000000020000000",
      "type": "0x0",
      "transactionHash": "0x43d66547f99e52d8b2cc1a48cf3c6cb8ef980e3f24d355581bf9bc75da94c000",
      "transactionIndex": "0xa",
      "blockHash": "0x5e6d6a332b336647842f9e747915875fa740e78609732f54167ac9068f1c13af",
      "blockNumber": "0x23",
      "gasUsed": "0x113f7",
      "effectiveGasPrice": "0x3c739f57",
      "blobGasPrice": "0x1",
      "from": "0xf39fd6e51aad88f6f4ce6ab8827279cfffb92266",
      "to": "0xd5ac451b0c50b9476107823af206ed814a2e2580",
      "contractAddress": null
    },
    {
      "status": "0x1",
      "cumulativeGasUsed": "0x13d132",
      "logs": [
        {
          "address": "0xd5ac451b0c50b9476107823af206ed814a2e2580",
          "topics": [
            "0xd78ddf5dda09409c5ba0a349a6c0149840d265112fa302b34dc3b322e7f675bc",
            "0x93524d81bcb78d74875943b3fa28cf64070d7736f6e1b17397c7ff43eaf73cfb"
          ],
          "data": "0x0000000000000000000000000000000000000000000000000000000ea4893e80",
          "blockHash": "0x5e6d6a332b336647842f9e747915875fa740e78609732f54167ac9068f1c13af",
          "blockNumber": "0x23",
          "blockTimestamp": "0x69f528f9",
          "transactionHash": "0x7e69e5a7578d5f013fcfd87b3ab056daa7f25c3a743390c7649e6ecd03bac2a5",
          "transactionIndex": "0xb",
          "logIndex": "0xa",
          "removed": false
        }
      ],
      "logsBloom": "0x00200000000000000000000000000000000000000200000000000000000000000800000000000000000000000000000000004000000000000000000000000000000000000000000000000000000000000000000000000000000000000000000000000000000000000000000000000000000000000000000000000000000000000000000000000000000000000000000000000000000000000000000000000000000000000000001000800000000000000000000000000000000000000000000000000000000000000000000000000000000000000000000000000000000000000000000000000000000000000000000400000000000000000100000020000000",
      "type": "0x0",
      "transactionHash": "0x7e69e5a7578d5f013fcfd87b3ab056daa7f25c3a743390c7649e6ecd03bac2a5",
      "transactionIndex": "0xb",
      "blockHash": "0x5e6d6a332b336647842f9e747915875fa740e78609732f54167ac9068f1c13af",
      "blockNumber": "0x23",
      "gasUsed": "0x11403",
      "effectiveGasPrice": "0x3c739f57",
      "blobGasPrice": "0x1",
      "from": "0xf39fd6e51aad88f6f4ce6ab8827279cfffb92266",
      "to": "0xd5ac451b0c50b9476107823af206ed814a2e2580",
      "contractAddress": null
    },
    {
      "status": "0x1",
      "cumulativeGasUsed": "0x14e51d",
      "logs": [
        {
          "address": "0xd5ac451b0c50b9476107823af206ed814a2e2580",
          "topics": [
            "0xd78ddf5dda09409c5ba0a349a6c0149840d265112fa302b34dc3b322e7f675bc",
            "0x7dc334e1540f8915732d66591fe866306abf9102ccd56a9c3bebab2f76f305fb"
          ],
          "data": "0x00000000000000000000000000000000000000000000000000000003d648d800",
          "blockHash": "0x5e6d6a332b336647842f9e747915875fa740e78609732f54167ac9068f1c13af",
          "blockNumber": "0x23",
          "blockTimestamp": "0x69f528f9",
          "transactionHash": "0xc87275f317c02936243a0d49c7e9c80894d413e4d8a4c3bed14029f9dca4ce4e",
          "transactionIndex": "0xc",
          "logIndex": "0xb",
          "removed": false
        }
      ],
      "logsBloom": "0x00000000000000000000000000000000000000000600000000000000000000000800000000000000000000000000000000004000000000000000000000000000000000000000000000000000000000000000000000000000000000000000000000000000000000000000000000000000000000000000000000000000000000000000000000000000000000000000000000000000000000000000004000000000000000000000001000000000000000000000000000000000000000000000000000000000000000000000000000000000000000000000000000000000000000000000000000000000000000000000000400000000000000002000000020000000",
      "type": "0x0",
      "transactionHash": "0xc87275f317c02936243a0d49c7e9c80894d413e4d8a4c3bed14029f9dca4ce4e",
      "transactionIndex": "0xc",
      "blockHash": "0x5e6d6a332b336647842f9e747915875fa740e78609732f54167ac9068f1c13af",
      "blockNumber": "0x23",
      "gasUsed": "0x113eb",
      "effectiveGasPrice": "0x3c739f57",
      "blobGasPrice": "0x1",
      "from": "0xf39fd6e51aad88f6f4ce6ab8827279cfffb92266",
      "to": "0xd5ac451b0c50b9476107823af206ed814a2e2580",
      "contractAddress": null
    },
    {
      "status": "0x1",
      "cumulativeGasUsed": "0x296c25",
      "logs": [],
      "logsBloom": "0x00000000000000000000000000000000000000000000000000000000000000000000000000000000000000000000000000000000000000000000000000000000000000000000000000000000000000000000000000000000000000000000000000000000000000000000000000000000000000000000000000000000000000000000000000000000000000000000000000000000000000000000000000000000000000000000000000000000000000000000000000000000000000000000000000000000000000000000000000000000000000000000000000000000000000000000000000000000000000000000000000000000000000000000000000000000",
      "type": "0x0",
      "transactionHash": "0x733be691a0e549e713c21e37bd1d129b0c58d7d2c00f3c4ea4d78ade89f18158",
      "transactionIndex": "0xd",
      "blockHash": "0x5e6d6a332b336647842f9e747915875fa740e78609732f54167ac9068f1c13af",
      "blockNumber": "0x23",
      "gasUsed": "0x148708",
      "effectiveGasPrice": "0x3c739f57",
      "blobGasPrice": "0x1",
      "from": "0xf39fd6e51aad88f6f4ce6ab8827279cfffb92266",
      "to": null,
      "contractAddress": "0x5bf5b11053e734690269c6b9d438f8c9d48f528a"
    },
    {
      "status": "0x1",
      "cumulativeGasUsed": "0x45319b",
      "logs": [],
      "logsBloom": "0x00000000000000000000000000000000000000000000000000000000000000000000000000000000000000000000000000000000000000000000000000000000000000000000000000000000000000000000000000000000000000000000000000000000000000000000000000000000000000000000000000000000000000000000000000000000000000000000000000000000000000000000000000000000000000000000000000000000000000000000000000000000000000000000000000000000000000000000000000000000000000000000000000000000000000000000000000000000000000000000000000000000000000000000000000000000",
      "type": "0x0",
      "transactionHash": "0x1794d1310ec91d7cdfd7846e17a15ecd47756c244b9ff26c0d1f908c9157ebdb",
      "transactionIndex": "0xe",
      "blockHash": "0x5e6d6a332b336647842f9e747915875fa740e78609732f54167ac9068f1c13af",
      "blockNumber": "0x23",
      "gasUsed": "0x1bc576",
      "effectiveGasPrice": "0x3c739f57",
      "blobGasPrice": "0x1",
      "from": "0xf39fd6e51aad88f6f4ce6ab8827279cfffb92266",
      "to": null,
      "contractAddress": "0xffa7ca1aeeebbc30c874d32c7e22f052bbea0429"
    },
    {
      "status": "0x1",
      "cumulativeGasUsed": "0x48b27f",
      "logs": [
        {
          "address": "0x5bf5b11053e734690269c6b9d438f8c9d48f528a",
          "topics": [
            "0xe5f9c5663822b3882e2fa8f5fcbc56db18ccc15ec0ad63010c1e27bff6eb9269",
            "0x3a54a9a690616fbc26cfc409bf11f89d51f1d57a4ab2791fb86026cee74ed2f3"
          ],
          "data": "0x000000000000000000000000955aa5756c7817f119c8418bb1804568715eb476000000000000000000000000ffa7ca1aeeebbc30c874d32c7e22f052bbea0429",
          "blockHash": "0x5e6d6a332b336647842f9e747915875fa740e78609732f54167ac9068f1c13af",
          "blockNumber": "0x23",
          "blockTimestamp": "0x69f528f9",
          "transactionHash": "0x65a6f80e225079613d348ce813d5baedabdbd43996a05327b2215cceb6a44f32",
          "transactionIndex": "0xf",
          "logIndex": "0xc",
          "removed": false
        }
      ],
      "logsBloom": "0x00000000000000000000000000000000000000000000000000000000000000000000000000000000000000000000000000000000000000000002000000000000000000000000000000000000000000000000000000000000000000000000000000000000000000000000000000000000000000000000000000000000000000000000000000000000000000000000000000000000000000000000000000000000400000000000000001000000000000000100000000000000000000000000000000000000000000000000000001000000000000000000000080200000000000000000000000000000000000000000800000000100000000000000000000000000",
      "type": "0x0",
      "transactionHash": "0x65a6f80e225079613d348ce813d5baedabdbd43996a05327b2215cceb6a44f32",
      "transactionIndex": "0xf",
      "blockHash": "0x5e6d6a332b336647842f9e747915875fa740e78609732f54167ac9068f1c13af",
      "blockNumber": "0x23",
      "gasUsed": "0x380e4",
      "effectiveGasPrice": "0x3c739f57",
      "blobGasPrice": "0x1",
      "from": "0xf39fd6e51aad88f6f4ce6ab8827279cfffb92266",
      "to": "0x5bf5b11053e734690269c6b9d438f8c9d48f528a",
      "contractAddress": null
    },
    {
      "status": "0x1",
      "cumulativeGasUsed": "0x49ca67",
      "logs": [
        {
          "address": "0xffa7ca1aeeebbc30c874d32c7e22f052bbea0429",
          "topics": [
            "0x9190ede1bbf154005e1cdc753cb24ff7912bf4412bf72342e5ab03ee770facf0",
            "0x3a54a9a690616fbc26cfc409bf11f89d51f1d57a4ab2791fb86026cee74ed2f3"
          ],
          "data": "0x0000000000000000000000000000000000000000000000000000000000000040000000000000000000000000955aa5756c7817f119c8418bb1804568715eb47600000000000000000000000000000000000000000000000000000000000000044141504c00000000000000000000000000000000000000000000000000000000",
          "blockHash": "0x5e6d6a332b336647842f9e747915875fa740e78609732f54167ac9068f1c13af",
          "blockNumber": "0x23",
          "blockTimestamp": "0x69f528f9",
          "transactionHash": "0xde3d36a84ff842b9a9df93d6d2140b3066a1c87649877e10190479d28a211dd6",
          "transactionIndex": "0x10",
          "logIndex": "0xd",
          "removed": false
        }
      ],
      "logsBloom": "0x00000000000000000000000000000000000000000000002000000000000000000000000000000000000000000000000000000000000000000002000000000000000000000000000000000000000000000000000000000000000000000000000000000000000000000000000000400000000000000000000000000000000000000000000000000000000000000000000000000000000000000000000000000000000000000000001000000000000000000100000000000000000000000000000000000008000000000000000001000000000000000000000000000000000000040000000000020000000000000000000000000000000000000000000000000000",
      "type": "0x0",
      "transactionHash": "0xde3d36a84ff842b9a9df93d6d2140b3066a1c87649877e10190479d28a211dd6",
      "transactionIndex": "0x10",
      "blockHash": "0x5e6d6a332b336647842f9e747915875fa740e78609732f54167ac9068f1c13af",
      "blockNumber": "0x23",
      "gasUsed": "0x117e8",
      "effectiveGasPrice": "0x3c739f57",
      "blobGasPrice": "0x1",
      "from": "0xf39fd6e51aad88f6f4ce6ab8827279cfffb92266",
      "to": "0xffa7ca1aeeebbc30c874d32c7e22f052bbea0429",
      "contractAddress": null
    },
    {
      "status": "0x1",
      "cumulativeGasUsed": "0x4d087f",
      "logs": [
        {
          "address": "0x5bf5b11053e734690269c6b9d438f8c9d48f528a",
          "topics": [
            "0xe5f9c5663822b3882e2fa8f5fcbc56db18ccc15ec0ad63010c1e27bff6eb9269",
            "0x0a8f1f385fed9c77a2e0daa363ccc865e971bdbe4458bb570cc0acb068d7c0f2"
          ],
          "data": "0x000000000000000000000000ad180f1577f231483df4473e7e2de28ac25dc29a000000000000000000000000ffa7ca1aeeebbc30c874d32c7e22f052bbea0429",
          "blockHash": "0x5e6d6a332b336647842f9e747915875fa740e78609732f54167ac9068f1c13af",
          "blockNumber": "0x23",
          "blockTimestamp": "0x69f528f9",
          "transactionHash": "0x29ecbe4f452a03a781d9bacea62ae9f853df988c9b3d93eeba1a0110eaf15678",
          "transactionIndex": "0x11",
          "logIndex": "0xe",
          "removed": false
        }
      ],
      "logsBloom": "0x00000000000000000000000000000000000000000000000000000000000000000000000000000001000000000000000000000000000000000000000000000000000000000000000000000000000000000000000000000000000000000000000000000000000000000000000000000000000000000000000000000000000000000000000000000000000000000000000000000000000000000000000000000000400000000000000001000000000000000004002000000000000000000000000000000000000000000000000000000000000000000000000080200000000000000000000000000000000000000000800000000100000000000000000000000000",
      "type": "0x0",
      "transactionHash": "0x29ecbe4f452a03a781d9bacea62ae9f853df988c9b3d93eeba1a0110eaf15678",
      "transactionIndex": "0x11",
      "blockHash": "0x5e6d6a332b336647842f9e747915875fa740e78609732f54167ac9068f1c13af",
      "blockNumber": "0x23",
      "gasUsed": "0x33e18",
      "effectiveGasPrice": "0x3c739f57",
      "blobGasPrice": "0x1",
      "from": "0xf39fd6e51aad88f6f4ce6ab8827279cfffb92266",
      "to": "0x5bf5b11053e734690269c6b9d438f8c9d48f528a",
      "contractAddress": null
    },
    {
      "status": "0x1",
      "cumulativeGasUsed": "0x4e2067",
      "logs": [
        {
          "address": "0xffa7ca1aeeebbc30c874d32c7e22f052bbea0429",
          "topics": [
            "0x9190ede1bbf154005e1cdc753cb24ff7912bf4412bf72342e5ab03ee770facf0",
            "0x0a8f1f385fed9c77a2e0daa363ccc865e971bdbe4458bb570cc0acb068d7c0f2"
          ],
          "data": "0x0000000000000000000000000000000000000000000000000000000000000040000000000000000000000000ad180f1577f231483df4473e7e2de28ac25dc29a000000000000000000000000000000000000000000000000000000000000000454534c4100000000000000000000000000000000000000000000000000000000",
          "blockHash": "0x5e6d6a332b336647842f9e747915875fa740e78609732f54167ac9068f1c13af",
          "blockNumber": "0x23",
          "blockTimestamp": "0x69f528f9",
          "transactionHash": "0x4fcba76f214efefebb70dc7e3b81dd0ea33fff372f328224600d1c40c8a958f6",
          "transactionIndex": "0x12",
          "logIndex": "0xf",
          "removed": false
        }
      ],
      "logsBloom": "0x00000000000000000000000000000000000000000000002000000000000000000000000000000001000000000000000000000000000000000000000000000000000000000000000000000000000000000000000000000000000000000000000000000000000000000000000000400000000000000000000000000000000000000000000000000000000000000000000000000000000000000000000000000000000000000000001000000000000000000004002000000000000000000000000000000008000000000000000000000000000000000000000000000000000000040000000000020000000000000000000000000000000000000000000000000000",
      "type": "0x0",
      "transactionHash": "0x4fcba76f214efefebb70dc7e3b81dd0ea33fff372f328224600d1c40c8a958f6",
      "transactionIndex": "0x12",
      "blockHash": "0x5e6d6a332b336647842f9e747915875fa740e78609732f54167ac9068f1c13af",
      "blockNumber": "0x23",
      "gasUsed": "0x117e8",
      "effectiveGasPrice": "0x3c739f57",
      "blobGasPrice": "0x1",
      "from": "0xf39fd6e51aad88f6f4ce6ab8827279cfffb92266",
      "to": "0xffa7ca1aeeebbc30c874d32c7e22f052bbea0429",
      "contractAddress": null
    },
    {
      "status": "0x1",
      "cumulativeGasUsed": "0x515e97",
      "logs": [
        {
          "address": "0x5bf5b11053e734690269c6b9d438f8c9d48f528a",
          "topics": [
            "0xe5f9c5663822b3882e2fa8f5fcbc56db18ccc15ec0ad63010c1e27bff6eb9269",
            "0xe108948b9667048232851f26a1427d3a908b22da622562906ca50ea536c2ecfb"
          ],
          "data": "0x0000000000000000000000004b169c286766c2a3071465f1637f0d72ebe235da000000000000000000000000ffa7ca1aeeebbc30c874d32c7e22f052bbea0429",
          "blockHash": "0x5e6d6a332b336647842f9e747915875fa740e78609732f54167ac9068f1c13af",
          "blockNumber": "0x23",
          "blockTimestamp": "0x69f528f9",
          "transactionHash": "0xddc750681c40e5ad1715d9c12f2c362224150050ed75801d46f7b895fef11b6e",
          "transactionIndex": "0x13",
          "logIndex": "0x10",
          "removed": false
        }
      ],
      "logsBloom": "0x00000000000000000000000000000000000000000000000000000000000000000000000000000000000000000000000000000000000000000000000000000000000000000000000000000000000000000000000000000000000000000000000000480000000000000000000000000000000000000000000000000000000000000000000000000000000000000000000000000000000000000000000000000000400000000000000001000000000000000000000000000000000000000000000000000000000000000000000000000000000000000000000080200000000000001000000000000000000000000000800000000100000000000000000000000000",
      "type": "0x0",
      "transactionHash": "0xddc750681c40e5ad1715d9c12f2c362224150050ed75801d46f7b895fef11b6e",
      "transactionIndex": "0x13",
      "blockHash": "0x5e6d6a332b336647842f9e747915875fa740e78609732f54167ac9068f1c13af",
      "blockNumber": "0x23",
      "gasUsed": "0x33e30",
      "effectiveGasPrice": "0x3c739f57",
      "blobGasPrice": "0x1",
      "from": "0xf39fd6e51aad88f6f4ce6ab8827279cfffb92266",
      "to": "0x5bf5b11053e734690269c6b9d438f8c9d48f528a",
      "contractAddress": null
    },
    {
      "status": "0x1",
      "cumulativeGasUsed": "0x52767f",
      "logs": [
        {
          "address": "0xffa7ca1aeeebbc30c874d32c7e22f052bbea0429",
          "topics": [
            "0x9190ede1bbf154005e1cdc753cb24ff7912bf4412bf72342e5ab03ee770facf0",
            "0xe108948b9667048232851f26a1427d3a908b22da622562906ca50ea536c2ecfb"
          ],
          "data": "0x00000000000000000000000000000000000000000000000000000000000000400000000000000000000000004b169c286766c2a3071465f1637f0d72ebe235da00000000000000000000000000000000000000000000000000000000000000044e56444100000000000000000000000000000000000000000000000000000000",
          "blockHash": "0x5e6d6a332b336647842f9e747915875fa740e78609732f54167ac9068f1c13af",
          "blockNumber": "0x23",
          "blockTimestamp": "0x69f528f9",
          "transactionHash": "0x8cb01307d1493103e89d4fae2df5396fcae944317b319194d3e17ad0126a7f2f",
          "transactionIndex": "0x14",
          "logIndex": "0x11",
          "removed": false
        }
      ],
      "logsBloom": "0x00000000000000000000000000000000000000000000002000000000000000000000000000000000000000000000000000000000000000000000000000000000000000000000000000000000000000000000000000000000000000000000000000480000000000000000000000400000000000000000000000000000000000000000000000000000000000000000000000000000000000000000000000000000000000000000001000000000000000000000000000000000000000000000000000000008000000000000000000000000000000000000000000000000000000041000000000020000000000000000000000000000000000000000000000000000",
      "type": "0x0",
      "transactionHash": "0x8cb01307d1493103e89d4fae2df5396fcae944317b319194d3e17ad0126a7f2f",
      "transactionIndex": "0x14",
      "blockHash": "0x5e6d6a332b336647842f9e747915875fa740e78609732f54167ac9068f1c13af",
      "blockNumber": "0x23",
      "gasUsed": "0x117e8",
      "effectiveGasPrice": "0x3c739f57",
      "blobGasPrice": "0x1",
      "from": "0xf39fd6e51aad88f6f4ce6ab8827279cfffb92266",
      "to": "0xffa7ca1aeeebbc30c874d32c7e22f052bbea0429",
      "contractAddress": null
    },
    {
      "status": "0x1",
      "cumulativeGasUsed": "0x55b4d3",
      "logs": [
        {
          "address": "0x5bf5b11053e734690269c6b9d438f8c9d48f528a",
          "topics": [
            "0xe5f9c5663822b3882e2fa8f5fcbc56db18ccc15ec0ad63010c1e27bff6eb9269",
            "0xb2023082f01404dd0ce6937cab03c4f5d6db9ba8b1fac7e7ee6d8d6d899f4e3d"
          ],
          "data": "0x000000000000000000000000f98de15d9fffb139207221d185b1bf6647b5ef79000000000000000000000000ffa7ca1aeeebbc30c874d32c7e22f052bbea0429",
          "blockHash": "0x5e6d6a332b336647842f9e747915875fa740e78609732f54167ac9068f1c13af",
          "blockNumber": "0x23",
          "blockTimestamp": "0x69f528f9",
          "transactionHash": "0xa2c57236f471728356b68fdb047ab71a93335bcb8a8f661a80759b1446203b6b",
          "transactionIndex": "0x15",
          "logIndex": "0x12",
          "removed": false
        }
      ],
      "logsBloom": "0x00000000000000000000000000080000000000000000000000000000000000000000000000000000000000000000000000000000000000000000000000000000000000000000000000000000000000000000000000000000000000000000000000000000000000000000000000000000000000000000000000000000000000000000000000000000000000000000000000000000000000000000000000200000400000000000000001000000000000000000000000000000000000000000000000000000000000000000000000000000000000000000020080200000000000000000000000000000000000000000800000000100000000000000000000000000",
      "type": "0x0",
      "transactionHash": "0xa2c57236f471728356b68fdb047ab71a93335bcb8a8f661a80759b1446203b6b",
      "transactionIndex": "0x15",
      "blockHash": "0x5e6d6a332b336647842f9e747915875fa740e78609732f54167ac9068f1c13af",
      "blockNumber": "0x23",
      "gasUsed": "0x33e54",
      "effectiveGasPrice": "0x3c739f57",
      "blobGasPrice": "0x1",
      "from": "0xf39fd6e51aad88f6f4ce6ab8827279cfffb92266",
      "to": "0x5bf5b11053e734690269c6b9d438f8c9d48f528a",
      "contractAddress": null
    },
    {
      "status": "0x1",
      "cumulativeGasUsed": "0x56ccbb",
      "logs": [
        {
          "address": "0xffa7ca1aeeebbc30c874d32c7e22f052bbea0429",
          "topics": [
            "0x9190ede1bbf154005e1cdc753cb24ff7912bf4412bf72342e5ab03ee770facf0",
            "0xb2023082f01404dd0ce6937cab03c4f5d6db9ba8b1fac7e7ee6d8d6d899f4e3d"
          ],
          "data": "0x0000000000000000000000000000000000000000000000000000000000000040000000000000000000000000f98de15d9fffb139207221d185b1bf6647b5ef7900000000000000000000000000000000000000000000000000000000000000044d53465400000000000000000000000000000000000000000000000000000000",
          "blockHash": "0x5e6d6a332b336647842f9e747915875fa740e78609732f54167ac9068f1c13af",
          "blockNumber": "0x23",
          "blockTimestamp": "0x69f528f9",
          "transactionHash": "0xff12ffe3e07c5537bbf36c731705f74bcdb60a09f54eb1218a7f0e2167d5494d",
          "transactionIndex": "0x16",
          "logIndex": "0x13",
          "removed": false
        }
      ],
      "logsBloom": "0x00000000000000000000000000080000000000000000002000000000000000000000000000000000000000000000000000000000000000000000000000000000000000000000000000000000000000000000000000000000000000000000000000000000000000000000000000400000000000000000000000000000000000000000000000000000000000000000000000000000000000000000000000200000000000000000001000000000000000000000000000000000000000000000000000000008000000000000000000000000000000000000020000000000000000040000000000020000000000000000000000000000000000000000000000000000",
      "type": "0x0",
      "transactionHash": "0xff12ffe3e07c5537bbf36c731705f74bcdb60a09f54eb1218a7f0e2167d5494d",
      "transactionIndex": "0x16",
      "blockHash": "0x5e6d6a332b336647842f9e747915875fa740e78609732f54167ac9068f1c13af",
      "blockNumber": "0x23",
      "gasUsed": "0x117e8",
      "effectiveGasPrice": "0x3c739f57",
      "blobGasPrice": "0x1",
      "from": "0xf39fd6e51aad88f6f4ce6ab8827279cfffb92266",
      "to": "0xffa7ca1aeeebbc30c874d32c7e22f052bbea0429",
      "contractAddress": null
    },
    {
      "status": "0x1",
      "cumulativeGasUsed": "0x5a0b0f",
      "logs": [
        {
          "address": "0x5bf5b11053e734690269c6b9d438f8c9d48f528a",
          "topics": [
            "0xe5f9c5663822b3882e2fa8f5fcbc56db18ccc15ec0ad63010c1e27bff6eb9269",
            "0x6c755094f1cdd95e2e4170549dc12e7555151536b32029b8d94678134de2ef0d"
          ],
          "data": "0x000000000000000000000000faee537b36ccabb7830a2e53e190eee4132df064000000000000000000000000ffa7ca1aeeebbc30c874d32c7e22f052bbea0429",
          "blockHash": "0x5e6d6a332b336647842f9e747915875fa740e78609732f54167ac9068f1c13af",
          "blockNumber": "0x23",
          "blockTimestamp": "0x69f528f9",
          "transactionHash": "0xa78daed8eda0977383d3dc30527f451b71b5484236a3738ef6b6dd5816190f59",
          "transactionIndex": "0x17",
          "logIndex": "0x14",
          "removed": false
        }
      ],
      "logsBloom": "0x00000000000000000000000000000000000000000000000000000000000000000000000000000000000000000000000000000000000000000000000000000000000000000000080000000000000000000000000000000001000000000000000000000000000000000000000000000000000000000000000000000000000000000000000000000000000000000000000000000000000000000000000000000000400000000000000001000000000000000000000000000000000000000000000000000000000000000000000000000000000000000000000080200000000000000000000000004000000000000000800000000100000000000000000000000000",
      "type": "0x0",
      "transactionHash": "0xa78daed8eda0977383d3dc30527f451b71b5484236a3738ef6b6dd5816190f59",
      "transactionIndex": "0x17",
      "blockHash": "0x5e6d6a332b336647842f9e747915875fa740e78609732f54167ac9068f1c13af",
      "blockNumber": "0x23",
      "gasUsed": "0x33e54",
      "effectiveGasPrice": "0x3c739f57",
      "blobGasPrice": "0x1",
      "from": "0xf39fd6e51aad88f6f4ce6ab8827279cfffb92266",
      "to": "0x5bf5b11053e734690269c6b9d438f8c9d48f528a",
      "contractAddress": null
    },
    {
      "status": "0x1",
      "cumulativeGasUsed": "0x5b22f7",
      "logs": [
        {
          "address": "0xffa7ca1aeeebbc30c874d32c7e22f052bbea0429",
          "topics": [
            "0x9190ede1bbf154005e1cdc753cb24ff7912bf4412bf72342e5ab03ee770facf0",
            "0x6c755094f1cdd95e2e4170549dc12e7555151536b32029b8d94678134de2ef0d"
          ],
          "data": "0x0000000000000000000000000000000000000000000000000000000000000040000000000000000000000000faee537b36ccabb7830a2e53e190eee4132df0640000000000000000000000000000000000000000000000000000000000000004414d5a4e00000000000000000000000000000000000000000000000000000000",
          "blockHash": "0x5e6d6a332b336647842f9e747915875fa740e78609732f54167ac9068f1c13af",
          "blockNumber": "0x23",
          "blockTimestamp": "0x69f528f9",
          "transactionHash": "0x2b784c28ae0482fb2bfafc0c2e76547e814b9e603571addb6e71554bb9567b91",
          "transactionIndex": "0x18",
          "logIndex": "0x15",
          "removed": false
        }
      ],
      "logsBloom": "0x00000000000000000000000000000000000000000000002000000000000000000000000000000000000000000000000000000000000000000000000000000000000000000000080000000000000000000000000000000001000000000000000000000000000000000000000000400000000000000000000000000000000000000000000000000000000000000000000000000000000000000000000000000000000000000000001000000000000000000000000000000000000000000000000000000008000000000000000000000000000000000000000000000000000000040000000000024000000000000000000000000000000000000000000000000000",
      "type": "0x0",
      "transactionHash": "0x2b784c28ae0482fb2bfafc0c2e76547e814b9e603571addb6e71554bb9567b91",
      "transactionIndex": "0x18",
      "blockHash": "0x5e6d6a332b336647842f9e747915875fa740e78609732f54167ac9068f1c13af",
      "blockNumber": "0x23",
      "gasUsed": "0x117e8",
      "effectiveGasPrice": "0x3c739f57",
      "blobGasPrice": "0x1",
      "from": "0xf39fd6e51aad88f6f4ce6ab8827279cfffb92266",
      "to": "0xffa7ca1aeeebbc30c874d32c7e22f052bbea0429",
      "contractAddress": null
    },
    {
      "status": "0x1",
      "cumulativeGasUsed": "0x5e613f",
      "logs": [
        {
          "address": "0x5bf5b11053e734690269c6b9d438f8c9d48f528a",
          "topics": [
            "0xe5f9c5663822b3882e2fa8f5fcbc56db18ccc15ec0ad63010c1e27bff6eb9269",
            "0x5480d4740314d9a5fa65eac6dab758c3c95d65be45311b45c3551575d760e7d8"
          ],
          "data": "0x000000000000000000000000099756140727020d102bf63f1c8b17eb346575bf000000000000000000000000ffa7ca1aeeebbc30c874d32c7e22f052bbea0429",
          "blockHash": "0x5e6d6a332b336647842f9e747915875fa740e78609732f54167ac9068f1c13af",
          "blockNumber": "0x23",
          "blockTimestamp": "0x69f528f9",
          "transactionHash": "0xd06867ded7bd37e03510e465c1b9deffaeec1e44eec6f2e0e9f4e83cb0a2802c",
          "transactionIndex": "0x19",
          "logIndex": "0x16",
          "removed": false
        }
      ],
      "logsBloom": "0x00000000000000000000000000000000000000000000000000000000000000000000000000000000000000000000000000000000000000000000000000000000000000000000000000000000000000000000000000000000000000000008000000000000000000000000000000000000000000000000000000000000000000000000000000000000000000000000000000000000000000000000000000000000400000000000000001000000000000000000100000000000000800000000000000000000000000000000000000000000000000000000000080200000000000000000000000000000000000000000800000000100000000000000000000000000",
      "type": "0x0",
      "transactionHash": "0xd06867ded7bd37e03510e465c1b9deffaeec1e44eec6f2e0e9f4e83cb0a2802c",
      "transactionIndex": "0x19",
      "blockHash": "0x5e6d6a332b336647842f9e747915875fa740e78609732f54167ac9068f1c13af",
      "blockNumber": "0x23",
      "gasUsed": "0x33e48",
      "effectiveGasPrice": "0x3c739f57",
      "blobGasPrice": "0x1",
      "from": "0xf39fd6e51aad88f6f4ce6ab8827279cfffb92266",
      "to": "0x5bf5b11053e734690269c6b9d438f8c9d48f528a",
      "contractAddress": null
    },
    {
      "status": "0x1",
      "cumulativeGasUsed": "0x5f7933",
      "logs": [
        {
          "address": "0xffa7ca1aeeebbc30c874d32c7e22f052bbea0429",
          "topics": [
            "0x9190ede1bbf154005e1cdc753cb24ff7912bf4412bf72342e5ab03ee770facf0",
            "0x5480d4740314d9a5fa65eac6dab758c3c95d65be45311b45c3551575d760e7d8"
          ],
          "data": "0x0000000000000000000000000000000000000000000000000000000000000040000000000000000000000000099756140727020d102bf63f1c8b17eb346575bf0000000000000000000000000000000000000000000000000000000000000005474f4f474c000000000000000000000000000000000000000000000000000000",
          "blockHash": "0x5e6d6a332b336647842f9e747915875fa740e78609732f54167ac9068f1c13af",
          "blockNumber": "0x23",
          "blockTimestamp": "0x69f528f9",
          "transactionHash": "0x77aac465ce812cdf263bd1709a5a7f12f50451a1ba10dda78048646c234e768c",
          "transactionIndex": "0x1a",
          "logIndex": "0x17",
          "removed": false
        }
      ],
      "logsBloom": "0x00000000000000000000000000000000000000000000002000000000000000000000000000000000000000000000000000000000000000000000000000000000000000000000000000000000000000000000000000000000000000000008000000000000000000000000000000400000000000000000000000000000000000000000000000000000000000000000000000000000000000000000000000000000000000000000001000000000000000000000100000000000000800000000000000000008000000000000000000000000000000000000000000000000000000040000000000020000000000000000000000000000000000000000000000000000",
      "type": "0x0",
      "transactionHash": "0x77aac465ce812cdf263bd1709a5a7f12f50451a1ba10dda78048646c234e768c",
      "transactionIndex": "0x1a",
      "blockHash": "0x5e6d6a332b336647842f9e747915875fa740e78609732f54167ac9068f1c13af",
      "blockNumber": "0x23",
      "gasUsed": "0x117f4",
      "effectiveGasPrice": "0x3c739f57",
      "blobGasPrice": "0x1",
      "from": "0xf39fd6e51aad88f6f4ce6ab8827279cfffb92266",
      "to": "0xffa7ca1aeeebbc30c874d32c7e22f052bbea0429",
      "contractAddress": null
    },
    {
      "status": "0x1",
      "cumulativeGasUsed": "0x62b77b",
      "logs": [
        {
          "address": "0x5bf5b11053e734690269c6b9d438f8c9d48f528a",
          "topics": [
            "0xe5f9c5663822b3882e2fa8f5fcbc56db18ccc15ec0ad63010c1e27bff6eb9269",
            "0x0057355892fab25ddc63a7482ec1696d6ada670339b1ae464da8f6b958ddbee8"
          ],
          "data": "0x0000000000000000000000004e64c4973e642d3b6a9274a6857fcc7959f00c0b000000000000000000000000ffa7ca1aeeebbc30c874d32c7e22f052bbea0429",
          "blockHash": "0x5e6d6a332b336647842f9e747915875fa740e78609732f54167ac9068f1c13af",
          "blockNumber": "0x23",
          "blockTimestamp": "0x69f528f9",
          "transactionHash": "0xd1696a4081efa21fe18f8d5e26ede6fe460862a940b6d1cbaf94644617f67fa3",
          "transactionIndex": "0x1b",
          "logIndex": "0x18",
          "removed": false
        }
      ],
      "logsBloom": "0x00000000000000000000000000000000000000000000000000000000000000000000000000000000000000000000000000000000000000000000000000000000000000000000000000000000000000000000000000000000000000000000000000000000100000000000000008000000000000000000000000000000000000000000000000000000000000000000000000000000000000000000000000000000400000000000000001000000000000000000000000000000000000000000000000000000000000000000000000000000000000000000000080200000000000400000000000000000000000000000800000000100000000000000000000000000",
      "type": "0x0",
      "transactionHash": "0xd1696a4081efa21fe18f8d5e26ede6fe460862a940b6d1cbaf94644617f67fa3",
      "transactionIndex": "0x1b",
      "blockHash": "0x5e6d6a332b336647842f9e747915875fa740e78609732f54167ac9068f1c13af",
      "blockNumber": "0x23",
      "gasUsed": "0x33e48",
      "effectiveGasPrice": "0x3c739f57",
      "blobGasPrice": "0x1",
      "from": "0xf39fd6e51aad88f6f4ce6ab8827279cfffb92266",
      "to": "0x5bf5b11053e734690269c6b9d438f8c9d48f528a",
      "contractAddress": null
    },
    {
      "status": "0x1",
      "cumulativeGasUsed": "0x63cf63",
      "logs": [
        {
          "address": "0xffa7ca1aeeebbc30c874d32c7e22f052bbea0429",
          "topics": [
            "0x9190ede1bbf154005e1cdc753cb24ff7912bf4412bf72342e5ab03ee770facf0",
            "0x0057355892fab25ddc63a7482ec1696d6ada670339b1ae464da8f6b958ddbee8"
          ],
          "data": "0x00000000000000000000000000000000000000000000000000000000000000400000000000000000000000004e64c4973e642d3b6a9274a6857fcc7959f00c0b00000000000000000000000000000000000000000000000000000000000000044d45544100000000000000000000000000000000000000000000000000000000",
          "blockHash": "0x5e6d6a332b336647842f9e747915875fa740e78609732f54167ac9068f1c13af",
          "blockNumber": "0x23",
          "blockTimestamp": "0x69f528f9",
          "transactionHash": "0x586c8c2344edbacd3de6a62edb248883a57d7967ba5403056ca63ee7e99e67ed",
          "transactionIndex": "0x1c",
          "logIndex": "0x19",
          "removed": false
        }
      ],
      "logsBloom": "0x00000000000000000000000000000000000000000000002000000000000000000000000000000000000000000000000000000000000000000000000000000000000000000000000000000000000000000000000000000000000000000000000000000000100000000000000008400000000000000000000000000000000000000000000000000000000000000000000000000000000000000000000000000000000000000000001000000000000000000000000000000000000000000000000000000008000000000000000000000000000000000000000000000000000000440000000000020000000000000000000000000000000000000000000000000000",
      "type": "0x0",
      "transactionHash": "0x586c8c2344edbacd3de6a62edb248883a57d7967ba5403056ca63ee7e99e67ed",
      "transactionIndex": "0x1c",
      "blockHash": "0x5e6d6a332b336647842f9e747915875fa740e78609732f54167ac9068f1c13af",
      "blockNumber": "0x23",
      "gasUsed": "0x117e8",
      "effectiveGasPrice": "0x3c739f57",
      "blobGasPrice": "0x1",
      "from": "0xf39fd6e51aad88f6f4ce6ab8827279cfffb92266",
      "to": "0xffa7ca1aeeebbc30c874d32c7e22f052bbea0429",
      "contractAddress": null
    },
    {
      "status": "0x1",
      "cumulativeGasUsed": "0x670d9f",
      "logs": [
        {
          "address": "0x5bf5b11053e734690269c6b9d438f8c9d48f528a",
          "topics": [
            "0xe5f9c5663822b3882e2fa8f5fcbc56db18ccc15ec0ad63010c1e27bff6eb9269",
            "0x7c66dfce614e9a88c33dd01ffd47e917575e527015d5ead8069719869ba53f20"
          ],
          "data": "0x000000000000000000000000f7ec7ec07c9bbdc9d0f41f69c33860d33954ce35000000000000000000000000ffa7ca1aeeebbc30c874d32c7e22f052bbea0429",
          "blockHash": "0x5e6d6a332b336647842f9e747915875fa740e78609732f54167ac9068f1c13af",
          "blockNumber": "0x23",
          "blockTimestamp": "0x69f528f9",
          "transactionHash": "0x0f96a50c623cd292f00158bef7b09d3c6c8157483ab8894a0886724f3112d440",
          "transactionIndex": "0x1d",
          "logIndex": "0x1a",
          "removed": false
        }
      ],
      "logsBloom": "0x00000000000000000000000000000000000000000000000000000000000000000000000000004000000000000000000080000000000000000000000000000000000000000000000000000000000000000000000000000000000000000000000000000000000000000000000000000000000000000000000000000000000000000000000000000000000000000000000000000000000000000000000000000000400000000000000001000000000000000000000000000000000000000000010000000000000000000000000000000000000000000000000080200000000000000000000000000000000000000000800000000100000000000000000000000000",
      "type": "0x0",
      "transactionHash": "0x0f96a50c623cd292f00158bef7b09d3c6c8157483ab8894a0886724f3112d440",
      "transactionIndex": "0x1d",
      "blockHash": "0x5e6d6a332b336647842f9e747915875fa740e78609732f54167ac9068f1c13af",
      "blockNumber": "0x23",
      "gasUsed": "0x33e3c",
      "effectiveGasPrice": "0x3c739f57",
      "blobGasPrice": "0x1",
      "from": "0xf39fd6e51aad88f6f4ce6ab8827279cfffb92266",
      "to": "0x5bf5b11053e734690269c6b9d438f8c9d48f528a",
      "contractAddress": null
    },
    {
      "status": "0x1",
      "cumulativeGasUsed": "0x68257b",
      "logs": [
        {
          "address": "0xffa7ca1aeeebbc30c874d32c7e22f052bbea0429",
          "topics": [
            "0x9190ede1bbf154005e1cdc753cb24ff7912bf4412bf72342e5ab03ee770facf0",
            "0x7c66dfce614e9a88c33dd01ffd47e917575e527015d5ead8069719869ba53f20"
          ],
          "data": "0x0000000000000000000000000000000000000000000000000000000000000040000000000000000000000000f7ec7ec07c9bbdc9d0f41f69c33860d33954ce3500000000000000000000000000000000000000000000000000000000000000034a504d0000000000000000000000000000000000000000000000000000000000",
          "blockHash": "0x5e6d6a332b336647842f9e747915875fa740e78609732f54167ac9068f1c13af",
          "blockNumber": "0x23",
          "blockTimestamp": "0x69f528f9",
          "transactionHash": "0xbac454dd3dfa345d829fefcf282775045a736bd5195e4751042c14283b319b54",
          "transactionIndex": "0x1e",
          "logIndex": "0x1b",
          "removed": false
        }
      ],
      "logsBloom": "0x00000000000000000000000000000000000000000000002000000000000000000000000000004000000000000000000080000000000000000000000000000000000000000000000000000000000000000000000000000000000000000000000000000000000000000000000000400000000000000000000000000000000000000000000000000000000000000000000000000000000000000000000000000000000000000000001000000000000000000000000000000000000000000000010000000008000000000000000000000000000000000000000000000000000000040000000000020000000000000000000000000000000000000000000000000000",
      "type": "0x0",
      "transactionHash": "0xbac454dd3dfa345d829fefcf282775045a736bd5195e4751042c14283b319b54",
      "transactionIndex": "0x1e",
      "blockHash": "0x5e6d6a332b336647842f9e747915875fa740e78609732f54167ac9068f1c13af",
      "blockNumber": "0x23",
      "gasUsed": "0x117dc",
      "effectiveGasPrice": "0x3c739f57",
      "blobGasPrice": "0x1",
      "from": "0xf39fd6e51aad88f6f4ce6ab8827279cfffb92266",
      "to": "0xffa7ca1aeeebbc30c874d32c7e22f052bbea0429",
      "contractAddress": null
    },
    {
      "status": "0x1",
      "cumulativeGasUsed": "0x6b6363",
      "logs": [
        {
          "address": "0x5bf5b11053e734690269c6b9d438f8c9d48f528a",
          "topics": [
            "0xe5f9c5663822b3882e2fa8f5fcbc56db18ccc15ec0ad63010c1e27bff6eb9269",
            "0xf0da850a6b7c61a66cdd43ac7529affc6000442af1c1bdda1db3bb7220bf7613"
          ],
          "data": "0x000000000000000000000000fc106f6c6eb3d4b6825aba0908e229bcb56d4ba6000000000000000000000000ffa7ca1aeeebbc30c874d32c7e22f052bbea0429",
          "blockHash": "0x5e6d6a332b336647842f9e747915875fa740e78609732f54167ac9068f1c13af",
          "blockNumber": "0x23",
          "blockTimestamp": "0x69f528f9",
          "transactionHash": "0x966fb4b1363784845c1dd4a4b48338a7ad60d8396c3464bf3c2a7a67c074f1fa",
          "transactionIndex": "0x1f",
          "logIndex": "0x1c",
          "removed": false
        }
      ],
      "logsBloom": "0x00000000000000000008000000000000000000000000000000000000000000000000000000000000000000000000000000000000000000000000000000000000000000000000000000000000000000000000000000000000000000000000000000000000000000000000000000000000000000000000000000000000000000000000000000000000000200000400000000000000000000000000000000000000400000000000000001000000000000000000000000000000000000000000000000000000000000000000000000000000000000000000000080200000000000000000000000000000000000000000800000000100000000000000000000000000",
      "type": "0x0",
      "transactionHash": "0x966fb4b1363784845c1dd4a4b48338a7ad60d8396c3464bf3c2a7a67c074f1fa",
      "transactionIndex": "0x1f",
      "blockHash": "0x5e6d6a332b336647842f9e747915875fa740e78609732f54167ac9068f1c13af",
      "blockNumber": "0x23",
      "gasUsed": "0x33de8",
      "effectiveGasPrice": "0x3c739f57",
      "blobGasPrice": "0x1",
      "from": "0xf39fd6e51aad88f6f4ce6ab8827279cfffb92266",
      "to": "0x5bf5b11053e734690269c6b9d438f8c9d48f528a",
      "contractAddress": null
    },
    {
      "status": "0x1",
      "cumulativeGasUsed": "0x6c7b27",
      "logs": [
        {
          "address": "0xffa7ca1aeeebbc30c874d32c7e22f052bbea0429",
          "topics": [
            "0x9190ede1bbf154005e1cdc753cb24ff7912bf4412bf72342e5ab03ee770facf0",
            "0xf0da850a6b7c61a66cdd43ac7529affc6000442af1c1bdda1db3bb7220bf7613"
          ],
          "data": "0x0000000000000000000000000000000000000000000000000000000000000040000000000000000000000000fc106f6c6eb3d4b6825aba0908e229bcb56d4ba600000000000000000000000000000000000000000000000000000000000000015600000000000000000000000000000000000000000000000000000000000000",
          "blockHash": "0x5e6d6a332b336647842f9e747915875fa740e78609732f54167ac9068f1c13af",
          "blockNumber": "0x23",
          "blockTimestamp": "0x69f528f9",
          "transactionHash": "0xa6549fff6f743d2d347dd1cbd75fbbac1ca8aa64587bfdebc4e6a2b61c42c524",
          "transactionIndex": "0x20",
          "logIndex": "0x1d",
          "removed": false
        }
      ],
      "logsBloom": "0x00000000000000000008000000000000000000000000002000000000000000000000000000000000000000000000000000000000000000000000000000000000000000000000000000000000000000000000000000000000000000000000000000000000000000000000000000400000000000000000000000000000000000000000000000000000000200000400000000000000000000000000000000000000000000000000001000000000000000000000000000000000000000000000000000000008000000000000000000000000000000000000000000000000000000040000000000020000000000000000000000000000000000000000000000000000",
      "type": "0x0",
      "transactionHash": "0xa6549fff6f743d2d347dd1cbd75fbbac1ca8aa64587bfdebc4e6a2b61c42c524",
      "transactionIndex": "0x20",
      "blockHash": "0x5e6d6a332b336647842f9e747915875fa740e78609732f54167ac9068f1c13af",
      "blockNumber": "0x23",
      "gasUsed": "0x117c4",
      "effectiveGasPrice": "0x3c739f57",
      "blobGasPrice": "0x1",
      "from": "0xf39fd6e51aad88f6f4ce6ab8827279cfffb92266",
      "to": "0xffa7ca1aeeebbc30c874d32c7e22f052bbea0429",
      "contractAddress": null
    },
    {
      "status": "0x1",
      "cumulativeGasUsed": "0x6fb96f",
      "logs": [
        {
          "address": "0x5bf5b11053e734690269c6b9d438f8c9d48f528a",
          "topics": [
            "0xe5f9c5663822b3882e2fa8f5fcbc56db18ccc15ec0ad63010c1e27bff6eb9269",
            "0x1ee390a6c6917753ffa9bb0bd83cc313e935b13e3daaba67038caf0e47f928f1"
          ],
          "data": "0x000000000000000000000000d483683d1eddc1f6656a03e50a032f3415bc0632000000000000000000000000ffa7ca1aeeebbc30c874d32c7e22f052bbea0429",
          "blockHash": "0x5e6d6a332b336647842f9e747915875fa740e78609732f54167ac9068f1c13af",
          "blockNumber": "0x23",
          "blockTimestamp": "0x69f528f9",
          "transactionHash": "0x49f88aa95f088efce9f255d445c239ef8317c95ce42edeef50bd09fe637f174a",
          "transactionIndex": "0x21",
          "logIndex": "0x1e",
          "removed": false
        }
      ],
      "logsBloom": "0x00000000000000000000000000000000000000000000000000000000000000000000000000000000000000000000000000000000000000000000000000000000000000000000000000000000000000000000000000000000000000000000000000000000000000000000000000000000000000000000000000000000000000000000000000000000000000000000000000000000000000000000000000000200400000000000000101000000000000010000000000000000000000000000000000000000000000000000000000000000000000000000000080200000000000000000000000000000000000000000800000000100000000000000000000000000",
      "type": "0x0",
      "transactionHash": "0x49f88aa95f088efce9f255d445c239ef8317c95ce42edeef50bd09fe637f174a",
      "transactionIndex": "0x21",
      "blockHash": "0x5e6d6a332b336647842f9e747915875fa740e78609732f54167ac9068f1c13af",
      "blockNumber": "0x23",
      "gasUsed": "0x33e48",
      "effectiveGasPrice": "0x3c739f57",
      "blobGasPrice": "0x1",
      "from": "0xf39fd6e51aad88f6f4ce6ab8827279cfffb92266",
      "to": "0x5bf5b11053e734690269c6b9d438f8c9d48f528a",
      "contractAddress": null
    },
    {
      "status": "0x1",
      "cumulativeGasUsed": "0x70d14b",
      "logs": [
        {
          "address": "0xffa7ca1aeeebbc30c874d32c7e22f052bbea0429",
          "topics": [
            "0x9190ede1bbf154005e1cdc753cb24ff7912bf4412bf72342e5ab03ee770facf0",
            "0x1ee390a6c6917753ffa9bb0bd83cc313e935b13e3daaba67038caf0e47f928f1"
          ],
          "data": "0x0000000000000000000000000000000000000000000000000000000000000040000000000000000000000000d483683d1eddc1f6656a03e50a032f3415bc063200000000000000000000000000000000000000000000000000000000000000034449530000000000000000000000000000000000000000000000000000000000",
          "blockHash": "0x5e6d6a332b336647842f9e747915875fa740e78609732f54167ac9068f1c13af",
          "blockNumber": "0x23",
          "blockTimestamp": "0x69f528f9",
          "transactionHash": "0xcb74a8b9779d7f562fd1e231584fb7e7a72c50da033ca23a749423fe9c4ca65c",
          "transactionIndex": "0x22",
          "logIndex": "0x1f",
          "removed": false
        }
      ],
      "logsBloom": "0x00000000000000000000000000000000000000000000002000000000000000000000000000000000000000000000000000000000000000000000000000000000000000000000000000000000000000000000000000000000000000000000000000000000000000000000000000400000000000000000000000000000000000000000000000000000000000000000000000000000000000000000000000000200000000000000001100000000000000010000000000000000000000000000000000000008000000000000000000000000000000000000000000000000000000040000000000020000000000000000000000000000000000000000000000000000",
      "type": "0x0",
      "transactionHash": "0xcb74a8b9779d7f562fd1e231584fb7e7a72c50da033ca23a749423fe9c4ca65c",
      "transactionIndex": "0x22",
      "blockHash": "0x5e6d6a332b336647842f9e747915875fa740e78609732f54167ac9068f1c13af",
      "blockNumber": "0x23",
      "gasUsed": "0x117dc",
      "effectiveGasPrice": "0x3c739f57",
      "blobGasPrice": "0x1",
      "from": "0xf39fd6e51aad88f6f4ce6ab8827279cfffb92266",
      "to": "0xffa7ca1aeeebbc30c874d32c7e22f052bbea0429",
      "contractAddress": null
    },
    {
      "status": "0x1",
      "cumulativeGasUsed": "0x740f7b",
      "logs": [
        {
          "address": "0x5bf5b11053e734690269c6b9d438f8c9d48f528a",
          "topics": [
            "0xe5f9c5663822b3882e2fa8f5fcbc56db18ccc15ec0ad63010c1e27bff6eb9269",
            "0x93524d81bcb78d74875943b3fa28cf64070d7736f6e1b17397c7ff43eaf73cfb"
          ],
          "data": "0x000000000000000000000000df17c2489e725b918c92070349cb3185c3b7f046000000000000000000000000ffa7ca1aeeebbc30c874d32c7e22f052bbea0429",
          "blockHash": "0x5e6d6a332b336647842f9e747915875fa740e78609732f54167ac9068f1c13af",
          "blockNumber": "0x23",
          "blockTimestamp": "0x69f528f9",
          "transactionHash": "0xc3a100fd6bac612f2f32754c4574c3559e4c05da02db28926fcc8e952c1fb113",
          "transactionIndex": "0x23",
          "logIndex": "0x20",
          "removed": false
        }
      ],
      "logsBloom": "0x00200000000000000000000000000000000000000000000000000000000000000000000000000000000000000000000000000000000000000000000000000000000000000000000000000000000000000000000000000000000000000000000000000000000000000000000000000000000000000000000000000000000000000000000000000000000000000000000000000000000000000000000000000000400000000000000001800000000000000000000000000000000000000000000000000000000000000000000000000000000000000000000080200000000000000000000000000000000000000000800000000100000000000100000000000000",
      "type": "0x0",
      "transactionHash": "0xc3a100fd6bac612f2f32754c4574c3559e4c05da02db28926fcc8e952c1fb113",
      "transactionIndex": "0x23",
      "blockHash": "0x5e6d6a332b336647842f9e747915875fa740e78609732f54167ac9068f1c13af",
      "blockNumber": "0x23",
      "gasUsed": "0x33e30",
      "effectiveGasPrice": "0x3c739f57",
      "blobGasPrice": "0x1",
      "from": "0xf39fd6e51aad88f6f4ce6ab8827279cfffb92266",
      "to": "0x5bf5b11053e734690269c6b9d438f8c9d48f528a",
      "contractAddress": null
    },
    {
      "status": "0x1",
      "cumulativeGasUsed": "0x752763",
      "logs": [
        {
          "address": "0xffa7ca1aeeebbc30c874d32c7e22f052bbea0429",
          "topics": [
            "0x9190ede1bbf154005e1cdc753cb24ff7912bf4412bf72342e5ab03ee770facf0",
            "0x93524d81bcb78d74875943b3fa28cf64070d7736f6e1b17397c7ff43eaf73cfb"
          ],
          "data": "0x0000000000000000000000000000000000000000000000000000000000000040000000000000000000000000df17c2489e725b918c92070349cb3185c3b7f04600000000000000000000000000000000000000000000000000000000000000044e464c5800000000000000000000000000000000000000000000000000000000",
          "blockHash": "0x5e6d6a332b336647842f9e747915875fa740e78609732f54167ac9068f1c13af",
          "blockNumber": "0x23",
          "blockTimestamp": "0x69f528f9",
          "transactionHash": "0x30d02f0e4b1b30d071728aee1cf1bc21a89509a4f4b31a270c9b6074a4fd4c1a",
          "transactionIndex": "0x24",
          "logIndex": "0x21",
          "removed": false
        }
      ],
      "logsBloom": "0x00200000000000000000000000000000000000000000002000000000000000000000000000000000000000000000000000000000000000000000000000000000000000000000000000000000000000000000000000000000000000000000000000000000000000000000000000400000000000000000000000000000000000000000000000000000000000000000000000000000000000000000000000000000000000000000001000800000000000000000000000000000000000000000000000000008000000000000000000000000000000000000000000000000000000040000000000020000000000000000000000000000000000000100000000000000",
      "type": "0x0",
      "transactionHash": "0x30d02f0e4b1b30d071728aee1cf1bc21a89509a4f4b31a270c9b6074a4fd4c1a",
      "transactionIndex": "0x24",
      "blockHash": "0x5e6d6a332b336647842f9e747915875fa740e78609732f54167ac9068f1c13af",
      "blockNumber": "0x23",
      "gasUsed": "0x117e8",
      "effectiveGasPrice": "0x3c739f57",
      "blobGasPrice": "0x1",
      "from": "0xf39fd6e51aad88f6f4ce6ab8827279cfffb92266",
      "to": "0xffa7ca1aeeebbc30c874d32c7e22f052bbea0429",
      "contractAddress": null
    },
    {
      "status": "0x1",
      "cumulativeGasUsed": "0x78bcb6",
      "logs": [
        {
          "address": "0x5bf5b11053e734690269c6b9d438f8c9d48f528a",
          "topics": [
            "0xe5f9c5663822b3882e2fa8f5fcbc56db18ccc15ec0ad63010c1e27bff6eb9269",
            "0x7dc334e1540f8915732d66591fe866306abf9102ccd56a9c3bebab2f76f305fb"
          ],
          "data": "0x00000000000000000000000082fd472037a58dedc5a843b97bd15dcc77103632000000000000000000000000ffa7ca1aeeebbc30c874d32c7e22f052bbea0429",
          "blockHash": "0x5e6d6a332b336647842f9e747915875fa740e78609732f54167ac9068f1c13af",
          "blockNumber": "0x23",
          "blockTimestamp": "0x69f528f9",
          "transactionHash": "0x0a00386720e2ae6959e20936607d7b48690c5f1353a15485f8e14cfd8e38f1db",
          "transactionIndex": "0x25",
          "logIndex": "0x22",
          "removed": false
        }
      ],
      "logsBloom": "0x00000000000000000000000000000000000000000400000000000000000000000000000000000000000000000000000000000000000000000000000000000000000000000000000000000000000000000000000000000000000000000000000000000000000000000000000000000000000000000000000000000000000000000000000000000000000000000000000000000000000000000000004000000000400000000000000001000000000000000000000000000000000000000000000000000000000000000000000000000000000000000000000080200000000000000000000000000000000000000000800000000100000000002000000000000000",
      "type": "0x0",
      "transactionHash": "0x0a00386720e2ae6959e20936607d7b48690c5f1353a15485f8e14cfd8e38f1db",
      "transactionIndex": "0x25",
      "blockHash": "0x5e6d6a332b336647842f9e747915875fa740e78609732f54167ac9068f1c13af",
      "blockNumber": "0x23",
      "gasUsed": "0x39553",
      "effectiveGasPrice": "0x3c739f57",
      "blobGasPrice": "0x1",
      "from": "0xf39fd6e51aad88f6f4ce6ab8827279cfffb92266",
      "to": "0x5bf5b11053e734690269c6b9d438f8c9d48f528a",
      "contractAddress": null
    },
    {
      "status": "0x1",
      "cumulativeGasUsed": "0x79d492",
      "logs": [
        {
          "address": "0xffa7ca1aeeebbc30c874d32c7e22f052bbea0429",
          "topics": [
            "0x9190ede1bbf154005e1cdc753cb24ff7912bf4412bf72342e5ab03ee770facf0",
            "0x7dc334e1540f8915732d66591fe866306abf9102ccd56a9c3bebab2f76f305fb"
          ],
          "data": "0x000000000000000000000000000000000000000000000000000000000000004000000000000000000000000082fd472037a58dedc5a843b97bd15dcc771036320000000000000000000000000000000000000000000000000000000000000003414d440000000000000000000000000000000000000000000000000000000000",
          "blockHash": "0x5e6d6a332b336647842f9e747915875fa740e78609732f54167ac9068f1c13af",
          "blockNumber": "0x23",
          "blockTimestamp": "0x69f528f9",
          "transactionHash": "0xc22d10d4f136df89472c01be09ec8cdcdb74a8280aab2dede5dce7fff0fd16fd",
          "transactionIndex": "0x26",
          "logIndex": "0x23",
          "removed": false
        }
      ],
      "logsBloom": "0x00000000000000000000000000000000000000000400002000000000000000000000000000000000000000000000000000000000000000000000000000000000000000000000000000000000000000000000000000000000000000000000000000000000000000000000000000400000000000000000000000000000000000000000000000000000000000000000000000000000000000000000004000000000000000000000001000000000000000000000000000000000000000000000000000000008000000000000000000000000000000000000000000000000000000040000000000020000000000000000000000000000000000002000000000000000",
      "type": "0x0",
      "transactionHash": "0xc22d10d4f136df89472c01be09ec8cdcdb74a8280aab2dede5dce7fff0fd16fd",
      "transactionIndex": "0x26",
      "blockHash": "0x5e6d6a332b336647842f9e747915875fa740e78609732f54167ac9068f1c13af",
      "blockNumber": "0x23",
      "gasUsed": "0x117dc",
      "effectiveGasPrice": "0x3c739f57",
      "blobGasPrice": "0x1",
      "from": "0xf39fd6e51aad88f6f4ce6ab8827279cfffb92266",
      "to": "0xffa7ca1aeeebbc30c874d32c7e22f052bbea0429",
      "contractAddress": null
    }
  ],
  "libraries": [],
  "pending": [],
  "returns": {},
  "timestamp": 1777674489490,
  "chain": 42069,
  "commit": "34edb5e"
}