{
  "transactions": [
    {
      "hash": "0x931ae73037a396bb6e111acdceebea68c9f4ae58b9fd6da7371f2d8e850bce6f",
      "transactionType": "CREATE",
      "contractName": "PriceOracle",
      "contractAddress": "0x4631bcabd6df18d94796344963cb60d44a4136b6",
      "function": null,
      "arguments": [
        "0xf39Fd6e51aad88F6F4ce6aB8827279cffFb92266"
      ],
      "transaction": {
        "from": "0xf39fd6e51aad88f6f4ce6ab8827279cfffb92266",
        "gas": "0xa58ac",
        "value": "0x0",
        "input": "0x608034608957601f61084038819003918201601f19168301916001600160401b03831184841017608d57808492602094604052833981010312608957516001600160a01b03811690819003608957610e106004558015607a575f80546001600160a01b03191691909117905560405161079e90816100a28239f35b63d92e233d60e01b5f5260045ffd5b5f80fd5b634e487b7160e01b5f52604160045260245ffdfe6080806040526004361015610012575f80fd5b5f3560e01c9081633e57ebbd1461053f5750806349b3ce5614610485578063524f3889146104475780635ae28fc9146103ea5780635f375d4914610321578063687043c514610304578063704b6c02146102a85780637e6d28351461027e578063832321bf14610258578063953dc87e14610186578063b6a9950e14610108578063c6c3f71e146100d65763f851a440146100ab575f80fd5b346100d2575f3660031901126100d2575f546040516001600160a01b039091168152602090f35b5f80fd5b346100d25760203660031901126100d2576004355f526001602052602060018060a01b0360405f205416604051908152f35b346100d25760203660031901126100d25760043567ffffffffffffffff81116100d25761013c61014291369060040161056a565b906105ce565b5f818152600160205260409020546001600160a01b03161580159061016f575b6020906040519015158152f35b505f526003602052602060ff60405f205416610162565b346100d25760603660031901126100d25760043567ffffffffffffffff81116100d2576101b790369060040161056a565b9060243591604435908115158092036100d2575f546001600160a01b03163303610249578260209261020a837fd78ddf5dda09409c5ba0a349a6c0149840d265112fa302b34dc3b322e7f675bc966105ce565b805f52600285528660405f20555f526003845260405f209060ff8019835416911617905581604051928392833781015f815203902092604051908152a2005b637bfa4b9f60e01b5f5260045ffd5b346100d25760203660031901126100d2576020610276600435610613565b604051908152f35b346100d25760203660031901126100d2576004355f526002602052602060405f2054604051908152f35b346100d25760203660031901126100d2576004356001600160a01b038116908190036100d2575f546001600160a01b03811633036102495781156102f5576001600160a01b031916175f55005b63d92e233d60e01b5f5260045ffd5b346100d2575f3660031901126100d2576020600454604051908152f35b346100d25760403660031901126100d25760043567ffffffffffffffff81116100d25761035290369060040161056a565b6024356001600160a01b03811692908390036100d2575f546001600160a01b031633036102495782156102f55781816103ae7f77aadf7cec07cc754e2a4e21ee740c53687ef1aeceb74e9f6450e9c68294324e946020946105ce565b5f526001835260405f20856bffffffffffffffffffffffff60a01b82541617905581604051928392833781015f815203902092604051908152a2005b346100d25760203660031901126100d2575f54600435906001600160a01b03163303610249577f1293e51547e7dfe0f71bcd8fbe56949db0c3162cb40fe283a5b45544b6cafac460406004548151908152836020820152a1600455005b346100d25760203660031901126100d25760043567ffffffffffffffff81116100d25761027661048061013c602093369060040161056a565b610613565b346100d25760203660031901126100d25760043567ffffffffffffffff81116100d2576104b690369060040161056a565b5f549091906001600160a01b03163303610249576104d482826105ce565b805f52600160205260405f206bffffffffffffffffffffffff60a01b81541690555f52600360205260405f2060ff19815416905581604051928392833781015f81520390207f06aa2b76883f4d9b405ce5d8cb618072ed06ad9a9f4a3a638d6a76f995f950ce5f80a2005b346100d25760203660031901126100d2576020906004355f526003825260ff60405f20541615158152f35b9181601f840112156100d25782359167ffffffffffffffff83116100d257602083818601950101116100d257565b90601f8019910116810190811067ffffffffffffffff8211176105ba57604052565b634e487b7160e01b5f52604160045260245ffd5b906105f6602060405183819483830196873781015f838201520301601f198101835282610598565b51902090565b519069ffffffffffffffffffff821682036100d257565b805f52600360205260ff60405f20541661073e575f818152600160205260409020546001600160a01b0316801561072b579060a060049260405193848092633fabe5a360e21b82525afa8015610720575f925f916106cc575b508042034281116106b8576004541061069e57505f82131561068c575090565b637b176b0960e11b5f5260045260245ffd5b906357fd6bcb60e11b5f526004526024524260445260645ffd5b634e487b7160e01b5f52601160045260245ffd5b92505060a0823d60a011610718575b816106e860a09383610598565b810103126100d2576106f9826105fc565b5060208201516107106080606085015194016105fc565b50915f61066c565b3d91506106db565b6040513d5f823e3d90fd5b50630138152d60e61b5f5260045260245ffd5b805f52600260205260405f2054908115610756575090565b633489b6c560e11b5f5260045260245ffdfea2646970667358221220f2aca98a4d3ee2701282b72c7d44ff54a9c75ccec8743c222b017fdf56ddf22c64736f6c63430008210033000000000000000000000000f39fd6e51aad88f6f4ce6ab8827279cfffb92266",
        "nonce": "0x5d",
        "chainId": "0xa455"
      },
      "additionalContracts": [],
      "isFixedGasLimit": false
    },
    {
      "hash": "0x200ba45ac351577b705eeac40ae08aae90c69edc668ba8162ef7fa8ac679d052",
      "transactionType": "CALL",
      "contractName": "PriceOracle",
      "contractAddress": "0x4631bcabd6df18d94796344963cb60d44a4136b6",
      "function": "setManualPrice(string,uint256,bool)",
      "arguments": [
        "AAPL",
        "17872000000",
        "true"
      ],
      "transaction": {
        "from": "0xf39fd6e51aad88f6f4ce6ab8827279cfffb92266",
        "to": "0x4631bcabd6df18d94796344963cb60d44a4136b6",
        "gas": "0x17d2c",
        "value": "0x0",
        "input": "0x953dc87e00000000000000000000000000000000000000000000000000000000000000600000000000000000000000000000000000000000000000000000000429411400000000000000000000000000000000000000000000000000000000000000000100000000000000000000000000000000000000000000000000000000000000044141504c00000000000000000000000000000000000000000000000000000000",
        "nonce": "0x5e",
        "chainId": "0xa455"
      },
      "additionalContracts": [],
      "isFixedGasLimit": false
    },
    {
      "hash": "0x29c50e6f00293d26bad1e9ba12fd2f51c2835f6d30ff79a514992232dfc220b6",
      "transactionType": "CALL",
      "contractName": "PriceOracle",
      "contractAddress": "0x4631bcabd6df18d94796344963cb60d44a4136b6",
      "function": "setManualPrice(string,uint256,bool)",
      "arguments": [
        "TSLA",
        "24850000000",
        "true"
      ],
      "transaction": {
        "from": "0xf39fd6e51aad88f6f4ce6ab8827279cfffb92266",
        "to": "0x4631bcabd6df18d94796344963cb60d44a4136b6",
        "gas": "0x193aa",
        "value": "0x0",
        "input": "0x953dc87e000000000000000000000000000000000000000000000000000000000000006000000000000000000000000000000000000000000000000000000005c92ce8800000000000000000000000000000000000000000000000000000000000000001000000000000000000000000000000000000000000000000000000000000000454534c4100000000000000000000000000000000000000000000000000000000",
        "nonce": "0x5f",
        "chainId": "0xa455"
      },
      "additionalContracts": [],
      "isFixedGasLimit": false
    },
    {
      "hash": "0x379d3b3ca20e91bef717c66ec5f697cbfe150af4c8437fe52b4a23ce32bdb02c",
      "transactionType": "CALL",
      "contractName": "PriceOracle",
      "contractAddress": "0x4631bcabd6df18d94796344963cb60d44a4136b6",
      "function": "setManualPrice(string,uint256,bool)",
      "arguments": [
        "NVDA",
        "87530000000",
        "true"
      ],
      "transaction": {
        "from": "0xf39fd6e51aad88f6f4ce6ab8827279cfffb92266",
        "to": "0x4631bcabd6df18d94796344963cb60d44a4136b6",
        "gas": "0x193aa",
        "value": "0x0",
        "input": "0x953dc87e0000000000000000000000000000000000000000000000000000000000000060000000000000000000000000000000000000000000000000000000146131ce80000000000000000000000000000000000000000000000000000000000000000100000000000000000000000000000000000000000000000000000000000000044e56444100000000000000000000000000000000000000000000000000000000",
        "nonce": "0x60",
        "chainId": "0xa455"
      },
      "additionalContracts": [],
      "isFixedGasLimit": false
    },
    {
      "hash": "0x4b4df877f24b8a8b4a1e74ec1cf0b8235494db25b8386e9611ea1ab2b2339c63",
      "transactionType": "CALL",
      "contractName": "PriceOracle",
      "contractAddress": "0x4631bcabd6df18d94796344963cb60d44a4136b6",
      "function": "setManualPrice(string,uint256,bool)",
      "arguments": [
        "MSFT",
        "41560000000",
        "true"
      ],
      "transaction": {
        "from": "0xf39fd6e51aad88f6f4ce6ab8827279cfffb92266",
        "to": "0x4631bcabd6df18d94796344963cb60d44a4136b6",
        "gas": "0x17d2c",
        "value": "0x0",
        "input": "0x953dc87e000000000000000000000000000000000000000000000000000000000000006000000000000000000000000000000000000000000000000000000009ad2b4600000000000000000000000000000000000000000000000000000000000000000100000000000000000000000000000000000000000000000000000000000000044d53465400000000000000000000000000000000000000000000000000000000",
        "nonce": "0x61",
        "chainId": "0xa455"
      },
      "additionalContracts": [],
      "isFixedGasLimit": false
    },
    {
      "hash": "0x5c9211cb138f0b31560c197de647c2be349a05e2cfb366906d333cb87dd23eb1",
      "transactionType": "CALL",
      "contractName": "PriceOracle",
      "contractAddress": "0x4631bcabd6df18d94796344963cb60d44a4136b6",
      "function": "setManualPrice(string,uint256,bool)",
      "arguments": [
        "AMZN",
        "18215000000",
        "true"
      ],
      "transaction": {
        "from": "0xf39fd6e51aad88f6f4ce6ab8827279cfffb92266",
        "to": "0x4631bcabd6df18d94796344963cb60d44a4136b6",
        "gas": "0x193aa",
        "value": "0x0",
        "input": "0x953dc87e0000000000000000000000000000000000000000000000000000000000000060000000000000000000000000000000000000000000000000000000043db2d7c000000000000000000000000000000000000000000000000000000000000000010000000000000000000000000000000000000000000000000000000000000004414d5a4e00000000000000000000000000000000000000000000000000000000",
        "nonce": "0x62",
        "chainId": "0xa455"
      },
      "additionalContracts": [],
      "isFixedGasLimit": false
    },
    {
      "hash": "0x066061fb9dfde96d01b7d6ff9b42510763afc263d1132a5a6709af2e39126cce",
      "transactionType": "CALL",
      "contractName": "PriceOracle",
      "contractAddress": "0x4631bcabd6df18d94796344963cb60d44a4136b6",
      "function": "setManualPrice(string,uint256,bool)",
      "arguments": [
        "GOOGL",
        "15580000000",
        "true"
      ],
      "transaction": {
        "from": "0xf39fd6e51aad88f6f4ce6ab8827279cfffb92266",
        "to": "0x4631bcabd6df18d94796344963cb60d44a4136b6",
        "gas": "0x193aa",
        "value": "0x0",
        "input": "0x953dc87e000000000000000000000000000000000000000000000000000000000000006000000000000000000000000000000000000000000000000000000003a0a3ef0000000000000000000000000000000000000000000000000000000000000000010000000000000000000000000000000000000000000000000000000000000005474f4f474c000000000000000000000000000000000000000000000000000000",
        "nonce": "0x63",
        "chainId": "0xa455"
      },
      "additionalContracts": [],
      "isFixedGasLimit": false
    },
    {
      "hash": "0x18bc97d25d109a3420cf52e7ba7bff68ddc48a60ddab20a42b123be58bf9b10c",
      "transactionType": "CALL",
      "contractName": "PriceOracle",
      "contractAddress": "0x4631bcabd6df18d94796344963cb60d44a4136b6",
      "function": "setManualPrice(string,uint256,bool)",
      "arguments": [
        "META",
        "50325000000",
        "true"
      ],
      "transaction": {
        "from": "0xf39fd6e51aad88f6f4ce6ab8827279cfffb92266",
        "to": "0x4631bcabd6df18d94796344963cb60d44a4136b6",
        "gas": "0x193aa",
        "value": "0x0",
        "input": "0x953dc87e00000000000000000000000000000000000000000000000000000000000000600000000000000000000000000000000000000000000000000000000bb79a8f40000000000000000000000000000000000000000000000000000000000000000100000000000000000000000000000000000000000000000000000000000000044d45544100000000000000000000000000000000000000000000000000000000",
        "nonce": "0x64",
        "chainId": "0xa455"
      },
      "additionalContracts": [],
      "isFixedGasLimit": false
    },
    {
      "hash": "0x9abc314076276f9c6f59024bfa5988c2073f90e7d6f1bd4e572f47826f1236d0",
      "transactionType": "CALL",
      "contractName": "PriceOracle",
      "contractAddress": "0x4631bcabd6df18d94796344963cb60d44a4136b6",
      "function": "setManualPrice(string,uint256,bool)",
      "arguments": [
        "JPM",
        "19840000000",
        "true"
      ],
      "transaction": {
        "from": "0xf39fd6e51aad88f6f4ce6ab8827279cfffb92266",
        "to": "0x4631bcabd6df18d94796344963cb60d44a4136b6",
        "gas": "0x19387",
        "value": "0x0",
        "input": "0x953dc87e0000000000000000000000000000000000000000000000000000000000000060000000000000000000000000000000000000000000000000000000049e8e6000000000000000000000000000000000000000000000000000000000000000000100000000000000000000000000000000000000000000000000000000000000034a504d0000000000000000000000000000000000000000000000000000000000",
        "nonce": "0x65",
        "chainId": "0xa455"
      },
      "additionalContracts": [],
      "isFixedGasLimit": false
    },
    {
      "hash": "0x5e6ce41bccb206e5c6a59d24dffad7915c5b7f09c0942327ec1361861e38e808",
      "transactionType": "CALL",
      "contractName": "PriceOracle",
      "contractAddress": "0x4631bcabd6df18d94796344963cb60d44a4136b6",
      "function": "setManualPrice(string,uint256,bool)",
      "arguments": [
        "V",
        "27990000000",
        "true"
      ],
      "transaction": {
        "from": "0xf39fd6e51aad88f6f4ce6ab8827279cfffb92266",
        "to": "0x4631bcabd6df18d94796344963cb60d44a4136b6",
        "gas": "0x17d0a",
        "value": "0x0",
        "input": "0x953dc87e00000000000000000000000000000000000000000000000000000000000000600000000000000000000000000000000000000000000000000000000684558180000000000000000000000000000000000000000000000000000000000000000100000000000000000000000000000000000000000000000000000000000000015600000000000000000000000000000000000000000000000000000000000000",
        "nonce": "0x66",
        "chainId": "0xa455"
      },
      "additionalContracts": [],
      "isFixedGasLimit": false
    },
    {
      "hash": "0x1a3c957c6052049407b647b2885fdb0bf1da8dbbb4636d6ed9f20426c5a5c395",
      "transactionType": "CALL",
      "contractName": "PriceOracle",
      "contractAddress": "0x4631bcabd6df18d94796344963cb60d44a4136b6",
      "function": "setManualPrice(string,uint256,bool)",
      "arguments": [
        "DIS",
        "11235000000",
        "true"
      ],
      "transaction": {
        "from": "0xf39fd6e51aad88f6f4ce6ab8827279cfffb92266",
        "to": "0x4631bcabd6df18d94796344963cb60d44a4136b6",
        "gas": "0x17d2c",
        "value": "0x0",
        "input": "0x953dc87e0000000000000000000000000000000000000000000000000000000000000060000000000000000000000000000000000000000000000000000000029da87ec0000000000000000000000000000000000000000000000000000000000000000100000000000000000000000000000000000000000000000000000000000000034449530000000000000000000000000000000000000000000000000000000000",
        "nonce": "0x67",
        "chainId": "0xa455"
      },
      "additionalContracts": [],
      "isFixedGasLimit": false
    },
    {
      "hash": "0x5c2b7eaf902314722b0f81b7d15f00867f75deaba28e15692be07020d6055458",
      "transactionType": "CALL",
      "contractName": "PriceOracle",
      "contractAddress": "0x4631bcabd6df18d94796344963cb60d44a4136b6",
      "function": "setManualPrice(string,uint256,bool)",
      "arguments": [
        "NFLX",
        "62890000000",
        "true"
      ],
      "transaction": {
        "from": "0xf39fd6e51aad88f6f4ce6ab8827279cfffb92266",
        "to": "0x4631bcabd6df18d94796344963cb60d44a4136b6",
        "gas": "0x193aa",
        "value": "0x0",
        "input": "0x953dc87e00000000000000000000000000000000000000000000000000000000000000600000000000000000000000000000000000000000000000000000000ea4893e80000000000000000000000000000000000000000000000000000000000000000100000000000000000000000000000000000000000000000000000000000000044e464c5800000000000000000000000000000000000000000000000000000000",
        "nonce": "0x68",
        "chainId": "0xa455"
      },
      "additionalContracts": [],
      "isFixedGasLimit": false
    },
    {
      "hash": "0xadccdca80d6de7b1cf62249785839f181ba0c61e33fa1133e1e51d59198874ea",
      "transactionType": "CALL",
      "contractName": "PriceOracle",
      "contractAddress": "0x4631bcabd6df18d94796344963cb60d44a4136b6",
      "function": "setManualPrice(string,uint256,bool)",
      "arguments": [
        "AMD",
        "16480000000",
        "true"
      ],
      "transaction": {
        "from": "0xf39fd6e51aad88f6f4ce6ab8827279cfffb92266",
        "to": "0x4631bcabd6df18d94796344963cb60d44a4136b6",
        "gas": "0x19387",
        "value": "0x0",
        "input": "0x953dc87e000000000000000000000000000000000000000000000000000000000000006000000000000000000000000000000000000000000000000000000003d648d80000000000000000000000000000000000000000000000000000000000000000010000000000000000000000000000000000000000000000000000000000000003414d440000000000000000000000000000000000000000000000000000000000",
        "nonce": "0x69",
        "chainId": "0xa455"
      },
      "additionalContracts": [],
      "isFixedGasLimit": false
    },
    {
      "hash": "0xcbec35e088c5b69c5349f81e090db74c0eaa0802e2e9a8104c63e9d665036bbc",
      "transactionType": "CREATE",
      "contractName": "SyntheticAssetFactory",
      "contractAddress": "0xf8e31cb472bc70500f08cd84917e5a1912ec8397",
      "function": null,
      "arguments": [
        "0xf39Fd6e51aad88F6F4ce6aB8827279cffFb92266"
      ],
      "transaction": {
        "from": "0xf39fd6e51aad88f6f4ce6ab8827279cfffb92266",
        "gas": "0x1aaf8a",
        "value": "0x0",
        "input": "0x60a03461011257601f611a7538819003918201601f19168301916001600160401b038311848410176100ef5780849260209460405283398101031261011257516001600160a01b03811690819003610112578015610103575f80546001600160a01b031916919091179055604051610efd808201906001600160401b038211838310176100ef5760a0918391610b788339606081525f6060820152608060208201525f6080820152600160408201520301905ff080156100e4576001600160a01b0316608052604051610a6190816101178239608051818181610266015261062c0152f35b6040513d5f823e3d90fd5b634e487b7160e01b5f52604160045260245ffd5b63d92e233d60e01b5f5260045ffd5b5f80fdfe6080806040526004361015610012575f80fd5b5f905f3560e01c9081630b2262c61461081d575080630f56add41461065b5780635c60da1b14610617578063704b6c02146105ca5780639b7fd1541461019d5780639fda5b661461016a578063ccceb56914610130578063cd5286d0146100d3578063f36065b3146100b55763f851a4401461008c575f80fd5b346100b257806003193601126100b257546040516001600160a01b039091168152602090f35b80fd5b50346100b257806003193601126100b2576020600254604051908152f35b50346100b25760203660031901126100b25760043567ffffffffffffffff811161012c579061011161010b6020933690600401610983565b906109fd565b815260018252604060018060a01b0391205416604051908152f35b5080fd5b50346100b25760203660031901126100b257600435906002548210156100b257602061015b836109b1565b90549060031b1c604051908152f35b50346100b25760203660031901126100b257602090600435815260018252604060018060a01b0391205416604051908152f35b50346105725760603660031901126105725760043567ffffffffffffffff8111610572576101cf903690600401610983565b60243567ffffffffffffffff8111610572576101ef903690600401610983565b90926044356001600160a01b038116939290849003610572575f546001600160a01b031633036105bb5783156105ac5761022983836109fd565b5f818152600160205260409020549091906001600160a01b031661058557604051733d602d80600a3d3981f3363d3d373d3d3d363d7360601b81527f000000000000000000000000000000000000000000000000000000000000000060601b60148201526e5af43d82803e903d91602b57fd5bf360881b60288201526001600160a01b03906037905ff0169586156105765760405190607360f81b6020830152858560218401376102ed6021838881015f838201520301601f198101845283610929565b873b1561057257610320926103325f9360405195869485946303bf912560e11b86526060600487015260648601916109dd565b8381036003190160248501529061095f565b8860448301520381838a5af1801561056757610552575b5080865260016020526040862080546001600160a01b031916861790556002546801000000000000000081101561053e576103a461038e8260018594016002556109b1565b819391549060031b91821b915f19901b19161790565b9055855260036020526040852067ffffffffffffffff831161052a576103ca81546108f1565b95601f87116104da575b6020965080601f8511600114610455579184604094927fe5f9c5663822b3882e2fa8f5fcbc56db18ccc15ec0ad63010c1e27bff6eb926996949161044a575b508360011b905f198560031b1c19161790555b818351928392833781015f81520390209281519085825286820152a2604051908152f35b90508201355f610413565b90601f198516838352888320925b8181106104c35750918593917fe5f9c5663822b3882e2fa8f5fcbc56db18ccc15ec0ad63010c1e27bff6eb92699660409694106104aa575b5050600183811b019055610426565b8301355f19600386901b60f8161c191690555f8061049b565b919289600181928689013581550194019201610463565b838711156103d45781815260208120601f850160051c9060208610610522575b810197601f0160051c03815b8181106105145750506103d4565b60019083818b015501610506565b8291506104fa565b634e487b7160e01b86526041600452602486fd5b634e487b7160e01b87526041600452602487fd5b61055f9196505f90610929565b5f945f610349565b6040513d5f823e3d90fd5b5f80fd5b6342bcb05b60e11b5f5260045ffd5b604051630fd208c960e11b815260206004820152806105a86024820187876109dd565b0390fd5b63d92e233d60e01b5f5260045ffd5b637bfa4b9f60e01b5f5260045ffd5b34610572576020366003190112610572576004356001600160a01b03811690819003610572575f546001600160a01b03811633036105bb5781156105ac576001600160a01b031916175f55005b34610572575f366003190112610572576040517f00000000000000000000000000000000000000000000000000000000000000006001600160a01b03168152602090f35b346105725760203660031901126105725760043567ffffffffffffffff81116105725761068c903690600401610983565b5f546001600160a01b031633036105bb576106a781836109fd565b5f818152600160205260409020546001600160a01b0316929083156107f7575f81815260016020526040812080546001600160a01b0319169055600254905b81811061072f575b857f5bfa22150d2c3165c86da018685d9bd9dea01a28670324e4b6055b7b1edfde0d6020878781604051928392833781015f815203902092604051908152a2005b82610739826109b1565b90549060031b1c1461074d576001016106e6565b92939291505f1981019081116107e35761038e61076c610779926109b1565b90549060031b1c926109b1565b90556002549081156107cf577f5bfa22150d2c3165c86da018685d9bd9dea01a28670324e4b6055b7b1edfde0d926020925f19016107b6816109b1565b8154905f199060031b1b191690556002559181936106ee565b634e487b7160e01b5f52603160045260245ffd5b634e487b7160e01b5f52601160045260245ffd5b5060405163654c681360e11b8152602060048201529182916105a89160248401916109dd565b34610572576020366003190112610572576004355f52600360205260405f205f9080549061084a826108f1565b80855291600181169081156108ca575060011461088a575b6108868461087281860382610929565b60405191829160208352602083019061095f565b0390f35b5f90815260208120939250905b8082106108b05750909150810160200161087282610862565b919260018160209254838588010152019101909291610897565b60ff191660208087019190915292151560051b850190920192506108729150839050610862565b90600182811c9216801561091f575b602083101461090b57565b634e487b7160e01b5f52602260045260245ffd5b91607f1691610900565b90601f8019910116810190811067ffffffffffffffff82111761094b57604052565b634e487b7160e01b5f52604160045260245ffd5b805180835260209291819084018484015e5f828201840152601f01601f1916010190565b9181601f840112156105725782359167ffffffffffffffff8311610572576020838186019501011161057257565b6002548110156109c95760025f5260205f2001905f90565b634e487b7160e01b5f52603260045260245ffd5b908060209392818452848401375f828201840152601f01601f1916010190565b90610a25602060405183819483830196873781015f838201520301601f198101835282610929565b5190209056fea2646970667358221220db4bf2f471d67180f636ba5956c234e88d0534f6eeb340b2e97023eae43641a064736f6c6343000821003360806040523461036657610efd803803806100198161036a565b9283398101906060818303126103665780516001600160401b038111610366578261004591830161038f565b60208201519092906001600160401b0381116103665760409161006991840161038f565b9101516001600160a01b038116908190036103665780156103575782516001600160401b038111610260575f54600181811c9116801561034d575b602082101461024257601f81116102e0575b506020601f821160011461027f57819293945f92610274575b50508160011b915f199060031b1c1916175f555b81516001600160401b03811161026057600154600181811c91168015610256575b602082101461024257601f81116101d4575b50602092601f821160011461017357928192935f92610168575b50508160011b915f199060031b1c1916176001555b600580546001600160a01b031916919091179055604051610b1c90816103e18239f35b015190505f80610130565b601f1982169360015f52805f20915f5b8681106101bc57508360019596106101a4575b505050811b01600155610145565b01515f1960f88460031b161c191690555f8080610196565b91926020600181928685015181550194019201610183565b818111156101165760015f52601f820160051c7fb10e2d527612073b26eecdfd717e6a320cf44b4afac2b0732d9fcbe2b7fa0cf66020841061023a575b81601f9101920160051c03905f5b82811061022d575050610116565b5f8282015560010161021f565b5f9150610211565b634e487b7160e01b5f52602260045260245ffd5b90607f1690610104565b634e487b7160e01b5f52604160045260245ffd5b015190505f806100cf565b601f198216905f8052805f20915f5b8181106102c8575095836001959697106102b0575b505050811b015f556100e3565b01515f1960f88460031b161c191690555f80806102a3565b9192602060018192868b01518155019401920161028e565b818111156100b6575f8052601f820160051c7f290decd9548b62a8d60345a988386fc84ba6bc95484008f6362f93160ef3e56360208410610345575b81601f9101920160051c03905f5b8281106103385750506100b6565b5f8282015560010161032a565b5f915061031c565b90607f16906100a4565b63d92e233d60e01b5f5260045ffd5b5f80fd5b6040519190601f01601f191682016001600160401b0381118382101761026057604052565b81601f82011215610366578051906001600160401b038211610260576103be601f8301601f191660200161036a565b928284526020838301011161036657815f9260208093018386015e830101529056fe60806040526004361015610011575f80fd5b5f3560e01c806306fdde03146108f057806307546172146108c8578063077f224a1461057a578063095ea7b31461050157806318160ddd146104e457806323b872dd146103e9578063313ce567146103ce57806340c10f191461035e57806370a082311461032657806395d89b411461024c5780639dc29fac146101ae578063a9059cbb146100fc5763dd62ed3e146100a8575f80fd5b346100f85760403660031901126100f8576100c1610a6c565b6100c9610a82565b6001600160a01b039182165f908152600460209081526040808320949093168252928352819020549051908152f35b5f80fd5b346100f85760403660031901126100f857610115610a6c565b6001600160a01b0316602435811561019f57335f5260036020528060405f20541061019057335f52600360205260405f20610151828254610a98565b9055815f52600360205260405f2061016a828254610ab9565b90556040519081525f516020610ac75f395f51905f5260203392a3602060405160018152f35b631e9acf1760e31b5f5260045ffd5b63d92e233d60e01b5f5260045ffd5b346100f85760403660031901126100f8576101c7610a6c565b60055460243591906001600160a01b0316330361023d576001600160a01b03165f818152600360205260409020548211610190575f516020610ac75f395f51905f526020836102195f95600254610a98565b6002558385526003825260408520610232828254610a98565b9055604051908152a3005b633e34a41b60e21b5f5260045ffd5b346100f8575f3660031901126100f8576040515f60015461026c81610992565b808452906001811690811561030257506001146102a4575b6102a083610294818503826109ca565b604051918291826109ec565b0390f35b60015f9081527fb10e2d527612073b26eecdfd717e6a320cf44b4afac2b0732d9fcbe2b7fa0cf6939250905b8082106102e857509091508101602001610294610284565b9192600181602092548385880101520191019092916102d0565b60ff191660208086019190915291151560051b840190910191506102949050610284565b346100f85760203660031901126100f8576001600160a01b03610347610a6c565b165f526003602052602060405f2054604051908152f35b346100f85760403660031901126100f857610377610a6c565b60055460243591906001600160a01b0316330361023d575f516020610ac75f395f51905f5260205f926103ac85600254610ab9565b60025560018060a01b0316938484526003825260408420610232828254610ab9565b346100f8575f3660031901126100f857602060405160128152f35b346100f85760603660031901126100f857610402610a6c565b61040a610a82565b6001600160a01b03169060443590821561019f5760018060a01b031690815f5260036020528060405f205410610190575f82815260046020908152604080832033845290915290205481116104d55760205f516020610ac75f395f51905f5291835f526004825260405f2060018060a01b0333165f52825260405f20610491828254610a98565b9055835f526003825260405f206104a9828254610a98565b9055845f526003825260405f206104c1828254610ab9565b9055604051908152a3602060405160018152f35b6313be252b60e01b5f5260045ffd5b346100f8575f3660031901126100f8576020600254604051908152f35b346100f85760403660031901126100f85761051a610a6c565b335f8181526004602090815260408083206001600160a01b03909516808452948252918290206024359081905591519182527f8c5be1e5ebec7d5bd14f71427d1e84f3dd0314c0f7b2291e5b200ac8c7c3b92591a3602060405160018152f35b346100f85760603660031901126100f85760043567ffffffffffffffff81116100f8576105ab903690600401610a16565b60243567ffffffffffffffff81116100f8576105cb903690600401610a16565b6044356001600160a01b038116908190036100f8576005546001600160a01b03166108ba57801561019f57825167ffffffffffffffff81116107af576106115f54610992565b601f811161084d575b506020601f82116001146107ce57819293945f926107c3575b50508160011b915f199060031b1c1916175f555b815167ffffffffffffffff81116107af57610663600154610992565b601f8111610741575b50602092601f82116001146106c257928192935f926106b7575b50508160011b915f199060031b1c1916176001555b6bffffffffffffffffffffffff60a01b60055416176005555f80f35b015190508380610686565b601f1982169360015f527fb10e2d527612073b26eecdfd717e6a320cf44b4afac2b0732d9fcbe2b7fa0cf6915f5b8681106107295750836001959610610711575b505050811b0160015561069b565b01515f1960f88460031b161c19169055838080610703565b919260206001819286850151815501940192016106f0565b8181111561066c5760015f52601f820160051c90602083106107a7575b601f82910160051c03905f5b82811061077857505061066c565b5f8282017fb10e2d527612073b26eecdfd717e6a320cf44b4afac2b0732d9fcbe2b7fa0cf6015560010161076a565b5f915061075e565b634e487b7160e01b5f52604160045260245ffd5b015190508480610633565b601f198216905f80527f290decd9548b62a8d60345a988386fc84ba6bc95484008f6362f93160ef3e563915f5b8181106108355750958360019596971061081d575b505050811b015f55610647565b01515f1960f88460031b161c19169055848080610810565b9192602060018192868b0151815501940192016107fb565b8181111561061a575f8052601f820160051c90602083106108b2575b601f82910160051c03905f5b82811061088357505061061a565b5f8282017f290decd9548b62a8d60345a988386fc84ba6bc95484008f6362f93160ef3e5630155600101610875565b5f9150610869565b62dc149f60e41b5f5260045ffd5b346100f8575f3660031901126100f8576005546040516001600160a01b039091168152602090f35b346100f8575f3660031901126100f8576040515f5f5461090f81610992565b80845290600181169081156103025750600114610936576102a083610294818503826109ca565b5f8080527f290decd9548b62a8d60345a988386fc84ba6bc95484008f6362f93160ef3e563939250905b80821061097857509091508101602001610294610284565b919260018160209254838588010152019101909291610960565b90600182811c921680156109c0575b60208310146109ac57565b634e487b7160e01b5f52602260045260245ffd5b91607f16916109a1565b90601f8019910116810190811067ffffffffffffffff8211176107af57604052565b602060409281835280519182918282860152018484015e5f828201840152601f01601f1916010190565b81601f820112156100f85780359067ffffffffffffffff82116107af5760405192610a4b601f8401601f1916602001856109ca565b828452602083830101116100f857815f926020809301838601378301015290565b600435906001600160a01b03821682036100f857565b602435906001600160a01b03821682036100f857565b91908203918211610aa557565b634e487b7160e01b5f52601160045260245ffd5b91908201809211610aa55756feddf252ad1be2c89b69c2b068fc378daa952ba7f163c4a11628f55a4df523b3efa2646970667358221220f80a095582e5e49e1985850c61f67ffa9ae719fd65ba650512c68ed92e025b9064736f6c63430008210033000000000000000000000000f39fd6e51aad88f6f4ce6ab8827279cfffb92266",
        "nonce": "0x6a",
        "chainId": "0xa455"
      },
      "additionalContracts": [
        {
          "transactionType": "CREATE",
          "contractName": "SyntheticAsset",
          "address": "0xa1ee49a7156d264f4f6f886c03726b296a0a3dbd",
          "initCode": "0x60806040523461036657610efd803803806100198161036a565b9283398101906060818303126103665780516001600160401b038111610366578261004591830161038f565b60208201519092906001600160401b0381116103665760409161006991840161038f565b9101516001600160a01b038116908190036103665780156103575782516001600160401b038111610260575f54600181811c9116801561034d575b602082101461024257601f81116102e0575b506020601f821160011461027f57819293945f92610274575b50508160011b915f199060031b1c1916175f555b81516001600160401b03811161026057600154600181811c91168015610256575b602082101461024257601f81116101d4575b50602092601f821160011461017357928192935f92610168575b50508160011b915f199060031b1c1916176001555b600580546001600160a01b031916919091179055604051610b1c90816103e18239f35b015190505f80610130565b601f1982169360015f52805f20915f5b8681106101bc57508360019596106101a4575b505050811b01600155610145565b01515f1960f88460031b161c191690555f8080610196565b91926020600181928685015181550194019201610183565b818111156101165760015f52601f820160051c7fb10e2d527612073b26eecdfd717e6a320cf44b4afac2b0732d9fcbe2b7fa0cf66020841061023a575b81601f9101920160051c03905f5b82811061022d575050610116565b5f8282015560010161021f565b5f9150610211565b634e487b7160e01b5f52602260045260245ffd5b90607f1690610104565b634e487b7160e01b5f52604160045260245ffd5b015190505f806100cf565b601f198216905f8052805f20915f5b8181106102c8575095836001959697106102b0575b505050811b015f556100e3565b01515f1960f88460031b161c191690555f80806102a3565b9192602060018192868b01518155019401920161028e565b818111156100b6575f8052601f820160051c7f290decd9548b62a8d60345a988386fc84ba6bc95484008f6362f93160ef3e56360208410610345575b81601f9101920160051c03905f5b8281106103385750506100b6565b5f8282015560010161032a565b5f915061031c565b90607f16906100a4565b63d92e233d60e01b5f5260045ffd5b5f80fd5b6040519190601f01601f191682016001600160401b0381118382101761026057604052565b81601f82011215610366578051906001600160401b038211610260576103be601f8301601f191660200161036a565b928284526020838301011161036657815f9260208093018386015e830101529056fe60806040526004361015610011575f80fd5b5f3560e01c806306fdde03146108f057806307546172146108c8578063077f224a1461057a578063095ea7b31461050157806318160ddd146104e457806323b872dd146103e9578063313ce567146103ce57806340c10f191461035e57806370a082311461032657806395d89b411461024c5780639dc29fac146101ae578063a9059cbb146100fc5763dd62ed3e146100a8575f80fd5b346100f85760403660031901126100f8576100c1610a6c565b6100c9610a82565b6001600160a01b039182165f908152600460209081526040808320949093168252928352819020549051908152f35b5f80fd5b346100f85760403660031901126100f857610115610a6c565b6001600160a01b0316602435811561019f57335f5260036020528060405f20541061019057335f52600360205260405f20610151828254610a98565b9055815f52600360205260405f2061016a828254610ab9565b90556040519081525f516020610ac75f395f51905f5260203392a3602060405160018152f35b631e9acf1760e31b5f5260045ffd5b63d92e233d60e01b5f5260045ffd5b346100f85760403660031901126100f8576101c7610a6c565b60055460243591906001600160a01b0316330361023d576001600160a01b03165f818152600360205260409020548211610190575f516020610ac75f395f51905f526020836102195f95600254610a98565b6002558385526003825260408520610232828254610a98565b9055604051908152a3005b633e34a41b60e21b5f5260045ffd5b346100f8575f3660031901126100f8576040515f60015461026c81610992565b808452906001811690811561030257506001146102a4575b6102a083610294818503826109ca565b604051918291826109ec565b0390f35b60015f9081527fb10e2d527612073b26eecdfd717e6a320cf44b4afac2b0732d9fcbe2b7fa0cf6939250905b8082106102e857509091508101602001610294610284565b9192600181602092548385880101520191019092916102d0565b60ff191660208086019190915291151560051b840190910191506102949050610284565b346100f85760203660031901126100f8576001600160a01b03610347610a6c565b165f526003602052602060405f2054604051908152f35b346100f85760403660031901126100f857610377610a6c565b60055460243591906001600160a01b0316330361023d575f516020610ac75f395f51905f5260205f926103ac85600254610ab9565b60025560018060a01b0316938484526003825260408420610232828254610ab9565b346100f8575f3660031901126100f857602060405160128152f35b346100f85760603660031901126100f857610402610a6c565b61040a610a82565b6001600160a01b03169060443590821561019f5760018060a01b031690815f5260036020528060405f205410610190575f82815260046020908152604080832033845290915290205481116104d55760205f516020610ac75f395f51905f5291835f526004825260405f2060018060a01b0333165f52825260405f20610491828254610a98565b9055835f526003825260405f206104a9828254610a98565b9055845f526003825260405f206104c1828254610ab9565b9055604051908152a3602060405160018152f35b6313be252b60e01b5f5260045ffd5b346100f8575f3660031901126100f8576020600254604051908152f35b346100f85760403660031901126100f85761051a610a6c565b335f8181526004602090815260408083206001600160a01b03909516808452948252918290206024359081905591519182527f8c5be1e5ebec7d5bd14f71427d1e84f3dd0314c0f7b2291e5b200ac8c7c3b92591a3602060405160018152f35b346100f85760603660031901126100f85760043567ffffffffffffffff81116100f8576105ab903690600401610a16565b60243567ffffffffffffffff81116100f8576105cb903690600401610a16565b6044356001600160a01b038116908190036100f8576005546001600160a01b03166108ba57801561019f57825167ffffffffffffffff81116107af576106115f54610992565b601f811161084d575b506020601f82116001146107ce57819293945f926107c3575b50508160011b915f199060031b1c1916175f555b815167ffffffffffffffff81116107af57610663600154610992565b601f8111610741575b50602092601f82116001146106c257928192935f926106b7575b50508160011b915f199060031b1c1916176001555b6bffffffffffffffffffffffff60a01b60055416176005555f80f35b015190508380610686565b601f1982169360015f527fb10e2d527612073b26eecdfd717e6a320cf44b4afac2b0732d9fcbe2b7fa0cf6915f5b8681106107295750836001959610610711575b505050811b0160015561069b565b01515f1960f88460031b161c19169055838080610703565b919260206001819286850151815501940192016106f0565b8181111561066c5760015f52601f820160051c90602083106107a7575b601f82910160051c03905f5b82811061077857505061066c565b5f8282017fb10e2d527612073b26eecdfd717e6a320cf44b4afac2b0732d9fcbe2b7fa0cf6015560010161076a565b5f915061075e565b634e487b7160e01b5f52604160045260245ffd5b015190508480610633565b601f198216905f80527f290decd9548b62a8d60345a988386fc84ba6bc95484008f6362f93160ef3e563915f5b8181106108355750958360019596971061081d575b505050811b015f55610647565b01515f1960f88460031b161c19169055848080610810565b9192602060018192868b0151815501940192016107fb565b8181111561061a575f8052601f820160051c90602083106108b2575b601f82910160051c03905f5b82811061088357505061061a565b5f8282017f290decd9548b62a8d60345a988386fc84ba6bc95484008f6362f93160ef3e5630155600101610875565b5f9150610869565b62dc149f60e41b5f5260045ffd5b346100f8575f3660031901126100f8576005546040516001600160a01b039091168152602090f35b346100f8575f3660031901126100f8576040515f5f5461090f81610992565b80845290600181169081156103025750600114610936576102a083610294818503826109ca565b5f8080527f290decd9548b62a8d60345a988386fc84ba6bc95484008f6362f93160ef3e563939250905b80821061097857509091508101602001610294610284565b919260018160209254838588010152019101909291610960565b90600182811c921680156109c0575b60208310146109ac57565b634e487b7160e01b5f52602260045260245ffd5b91607f16916109a1565b90601f8019910116810190811067ffffffffffffffff8211176107af57604052565b602060409281835280519182918282860152018484015e5f828201840152601f01601f1916010190565b81601f820112156100f85780359067ffffffffffffffff82116107af5760405192610a4b601f8401601f1916602001856109ca565b828452602083830101116100f857815f926020809301838601378301015290565b600435906001600160a01b03821682036100f857565b602435906001600160a01b03821682036100f857565b91908203918211610aa557565b634e487b7160e01b5f52601160045260245ffd5b91908201809211610aa55756feddf252ad1be2c89b69c2b068fc378daa952ba7f163c4a11628f55a4df523b3efa2646970667358221220f80a095582e5e49e1985850c61f67ffa9ae719fd65ba650512c68ed92e025b9064736f6c6343000821003300000000000000000000000000000000000000000000000000000000000000600000000000000000000000000000000000000000000000000000000000000080000000000000000000000000000000000000000000000000000000000000000100000000000000000000000000000000000000000000000000000000000000000000000000000000000000000000000000000000000000000000000000000000"
        }
      ],
      "isFixedGasLimit": false
    },
    {
      "hash": "0x5d6a8feb44a8e472b8594817b702d9f9f98dc69fd2b8cbbc9d50bcbf4267d15d",
      "transactionType": "CREATE",
      "contractName": "CollateralVault",
      "contractAddress": "0xc0f115a19107322cfbf1cdbc7ea011c19ebdb4f8",
      "function": null,
      "arguments": [
        "0xe7f1725E7734CE288F8367e1Bb143E90bb3F0512",
        "0x4631BCAbD6dF18D94796344963cB60d44a4136b6",
        "0x0165878A594ca255338adfa4d48449f69242Eb8F",
        "0xf39Fd6e51aad88F6F4ce6aB8827279cffFb92266"
      ],
      "transaction": {
        "from": "0xf39fd6e51aad88f6f4ce6ab8827279cfffb92266",
        "gas": "0x241a4c",
        "value": "0x0",
        "input": "0x60e03461017a57601f61212838819003918201601f19168301916001600160401b0383118484101761017e5780849260809460405283398101031261017a5761004781610192565b9061005460208201610192565b9161006d606061006660408501610192565b9301610192565b6001600160a01b0390911692831561016b576001600160a01b031690811561016b576001600160a01b0383161561016b576001600160a01b031692831561016b5760805260a05260c0525f80546001600160a01b031916919091179055604051611f8190816101a7823960805181818161067601528181610746015281816110b3015281816111ca015281816113da0152818161161101528181611a950152611c29015260a0518181816104880152818161097c01528181610bb801528181610e7f0152818161149b0152818161183201528181611d290152611e81015260c05181818161070301528181610ca70152818161106e0152611ae30152f35b63d92e233d60e01b5f5260045ffd5b5f80fd5b634e487b7160e01b5f52604160045260245ffd5b51906001600160a01b038216820361017a5756fe60806040526004361015610011575f80fd5b5f5f3560e01c8063056b01ce14611640578063119e5bf3146115fc57806316c38b3c146115a25780631ce967121461130d5780631f33a88814610dd15780631fbe11f914610d8e578063249d39e914610d7157806329a723ee14610d2e5780633272569614610cfb5780635c975abb14610cd65780636052970c14610c915780636dc827d914610c6f578063704b6c0214610c045780637a9fffb714610be75780637dc0d1d014610ba25780638c2261ad14610a8e5780639185f59814610a72578063b1ad0fa0146108cc578063b48272cc146103f3578063c4323fea146103d6578063c44bac0214610352578063c63e3835146102cd578063e1e158a5146102ab578063ecd1dae61461028e578063f32cd63014610264578063f851a4401461023d578063fbaf72101461017a5763ffe3142e1461014e575f80fd5b346101775760203660031901126101775760406020916004358152600383522054604051908152f35b80fd5b5034610177576080366003190112610177576101946116d1565b60243567ffffffffffffffff811161023957906080926101c46101be610204943690600401611670565b90611923565b916101d160443584611cfb565b94909360018060a01b03831684526001602052604084208185526020526101fe6064356040862054611916565b92611e2e565b908181111561023257610217925061172b565b60405192828452602084015280604084015210156060820152f35b5050610217565b8280fd5b5034610177578060031936011261017757546040516001600160a01b039091168152602090f35b50346101775760203660031901126101775760406020916004358152600583522054604051908152f35b503461017757806003193601126101775760206040516103e88152f35b5034610177578060031936011261017757602060405166038d7ea4c680008152f35b5034610177576102dc3661169e565b90929160ff835460a01c166103435781156103345766038d7ea4c68000821061031557610312929361030d91611923565b611bd9565b80f35b63253bf97d60e11b8352600482905266038d7ea4c68000602452604483fd5b631f2a200560e01b8352600483fd5b6313d0ff5960e31b8352600483fd5b50346101775760603660031901126101775760043567ffffffffffffffff81116103d257610384903690600401611670565b6024359160ff845460a01c166103c35761031292916103a291611923565b90806103b3575b5060443590611951565b6103bd9082611bd9565b5f6103a9565b6313d0ff5960e31b8452600484fd5b5080fd5b50346101775780600319360112610177576020604051612ee08152f35b5034610177576104023661169e565b9160ff845460a01c166103c35782156108bd579061041f91611923565b808352600460205260408320549091906001600160a01b031680156108a9573384526002602052604084208385526020526040842054908183116108925783855260056020908152604080872054905163832321bf60e01b8152600481019190915290816024817f00000000000000000000000000000000000000000000000000000000000000006001600160a01b03165afa9081156106e957869161085a575b506104d4670de0b6b3a7640000918561176e565b04670de0b6b3a7640000810290808204670de0b6b3a76400001490151715610846576305f5e1009004601e810290808204601e14901517156108465761053f6127108792049333835260016020526040832087845260205261053a86604085205461176e565b611781565b8381111561083a57836105519161172b565b915b3382526002602052604082208683526020526040822061057486825461172b565b90556105808484611916565b3383526001602052604083208784526020526105a16040842091825461172b565b90556105ad8484611916565b86835260036020526105c46040842091825461172b565b9055803b156103d257604051632770a7eb60e21b8152336004820152602481018690529082908290604490829084905af1801561082f57610816575b5050816106f4575b8061064b575b60408051938452602084019190915282015233907ffbb68f61002cbf89cfd4502b79ed21c0d08c91666d4b22825cc11bf41333648e90606090a380f35b60405163a9059cbb60e01b815233600482015260248101829052602081604481896001600160a01b037f0000000000000000000000000000000000000000000000000000000000000000165af19081156106e95786916106ba575b5061060e576312171d8360e31b8552600485fd5b6106dc915060203d6020116106e2575b6106d48183611738565b81019061179f565b5f6106a6565b503d6106ca565b6040513d88823e3d90fd5b60405163095ea7b360e01b81527f00000000000000000000000000000000000000000000000000000000000000006001600160a01b03811660048301526024820184905290602081806044810103818a7f00000000000000000000000000000000000000000000000000000000000000006001600160a01b03165af1801561080b576107ee575b506040516364d6def960e01b81526004810184905230602482015290606090829060449082908a906001600160a01b03165af180156106e9576107bf575b50610608565b6107e09060603d6060116107e7575b6107d88183611738565b8101906117b7565b50506107b9565b503d6107ce565b6108069060203d6020116106e2576106d48183611738565b61077b565b6040513d89823e3d90fd5b8161082091611738565b61082b57845f610600565b8480fd5b6040513d84823e3d90fd5b50909150848092610553565b634e487b7160e01b86526011600452602486fd5b90506020813d60201161088a575b8161087560209383611738565b8101031261088657516104d46104c0565b5f80fd5b3d9150610868565b6044858484636943054d60e11b8352600452602452fd5b6326ef68cf60e01b84526004839052602484fd5b631f2a200560e01b8452600484fd5b5034610177576108e8906108df366116e7565b91939190611923565b9160018060a01b031690818152600160205260408120838252602052604081205491815260026020526040812083825260205260408120549283155f1461095257505061094e5f195b604051938493846040919493926060820195825260208201520152565b0390f35b815260056020908152604080832054905163832321bf60e01b8152600481019190915290816024817f00000000000000000000000000000000000000000000000000000000000000006001600160a01b03165afa90811561082f578291610a3e575b506109c8670de0b6b3a7640000918561176e565b04906305f5e10083028381046305f5e1001484151715610a2a57670de0b6b3a76400009004906127108202918083046127101490151715610a16575061094e91610a1191611781565b610931565b634e487b7160e01b81526011600452602490fd5b634e487b7160e01b82526011600452602482fd5b90506020813d602011610a6a575b81610a5960209383611738565b8101031261088657516109c86109b4565b3d9150610a4c565b50346101775780600319360112610177576020604051601e8152f35b50346101775760403660031901126101775760043567ffffffffffffffff81116103d257610ac0903690600401611670565b6024356001600160a01b0381169290839003610b9e5783546001600160a01b03163303610b8f578215610b80579060608282610b1d817f9190ede1bbf154005e1cdc753cb24ff7912bf4412bf72342e5ab03ee770facf096611923565b95868852600460205260408820816bffffffffffffffffffffffff60a01b8254161790558688526005602052866040892055604051948593604085528160408601528585013782820184018890526020830152601f01601f19168101030190a280f35b63d92e233d60e01b8452600484fd5b637bfa4b9f60e01b8452600484fd5b8380fd5b50346101775780600319360112610177576040517f00000000000000000000000000000000000000000000000000000000000000006001600160a01b03168152602090f35b50346101775780600319360112610177576020604051613a988152f35b503461017757602036600319011261017757610c1e6116d1565b8154906001600160a01b0382163303610c60576001600160a01b0316908115610c51576001600160a01b03191617815580f35b63d92e233d60e01b8352600483fd5b637bfa4b9f60e01b8352600483fd5b5034610177576020610c89610c83366116e7565b916117d2565b604051908152f35b50346101775780600319360112610177576040517f00000000000000000000000000000000000000000000000000000000000000006001600160a01b03168152602090f35b503461017757806003193601126101775760ff6020915460a01c166040519015158152f35b503461017757602036600319011261017757602090600435815260048252604060018060a01b0391205416604051908152f35b5034610177576040366003190112610177576020906040906001600160a01b03610d566116d1565b16815260018352818120602435825283522054604051908152f35b503461017757806003193601126101775760206040516127108152f35b5034610177576040366003190112610177576020906040906001600160a01b03610db66116d1565b16815260028352818120602435825283522054604051908152f35b503461088657610de0366116e7565b60ff5f5460a01c166112fe57610df591611923565b90815f52600460205260018060a01b0360405f2054169081156112eb5760018060a01b031690815f52600260205260405f20835f5260205260405f205490825f52600160205260405f20845f5260205260405f205482156112cf57845f52600560205260405f20546040519063832321bf60e01b8252600482015260208160248160018060a01b037f0000000000000000000000000000000000000000000000000000000000000000165afa90811561125b575f9161129b575b50610ec3670de0b6b3a7640000918561176e565b046305f5e10082028281046305f5e100148315171561126f57670de0b6b3a76400009004612710810290808204612710149015171561126f5781610f0691611781565b612ee08110156112835750670de0b6b3a7640000810290808204670de0b6b3a7640000149015171561126f576305f5e1009004906103e882028281046103e8148315171561126f57612710610f5c910483611916565b92818411611266575b610f6f848361172b565b91865f52600160205260405f20885f526020525f6040812055865f52600260205260405f20885f526020525f6040812055875f526003602052610fb760405f2091825461172b565b9055803b1561088657604051632770a7eb60e21b815233600482015260248101869052905f908290604490829084905af1801561125b57611242575b50908291879361119a575b8061105f575b507f050df5bd39b9045b183cf260962616d90dc134df2b0da18110a7c2bc6c68468a9250808211156110575761103a908261172b565b905b6040805194855260208501919091528301523391606090a480f35b50859061103c565b60405163095ea7b360e01b81527f00000000000000000000000000000000000000000000000000000000000000006001600160a01b03811660048301526024820183905290919060208380604481010381897f00000000000000000000000000000000000000000000000000000000000000006001600160a01b03165af19182156106e95760609361111b9361117d575b506040516364d6def960e01b8152600481019190915230602482015295869283919082906044820190565b03926001600160a01b03165af192831561080b577f050df5bd39b9045b183cf260962616d90dc134df2b0da18110a7c2bc6c68468a9361115e575b879350611004565b6111769060603d6060116107e7576107d88183611738565b5050611156565b6111959060203d6020116106e2576106d48183611738565b6110f0565b60405163a9059cbb60e01b81523360048201526024810184905292935090916020816044818b6001600160a01b037f0000000000000000000000000000000000000000000000000000000000000000165af1908115611237578891611218575b50156112095790869291610ffe565b6312171d8360e31b8752600487fd5b611231915060203d6020116106e2576106d48183611738565b5f6111fa565b6040513d8a823e3d90fd5b61125191939297505f90611738565b5f9590915f610ff3565b6040513d5f823e3d90fd5b92508092610f65565b634e487b7160e01b5f52601160045260245ffd5b6301f7d11160e21b5f52600452612ee060245260445ffd5b90506020813d6020116112c7575b816112b660209383611738565b810103126108865751610ec3610eaf565b3d91506112a9565b6301f7d11160e21b5f9081525f19600452612ee0602452604490fd5b826326ef68cf60e01b5f5260045260245ffd5b6313d0ff5960e31b5f5260045ffd5b346108865761131b3661169e565b919060ff5f5460a01c166112fe5782156115935761133891611923565b90335f52600160205260405f20825f5260205260405f205481811061157e57816113619161172b565b335f52600260205260405f20835f5260205260405f20548061146c575b50335f52600160205260405f20835f5260205260405f2055815f52600360205260405f206113ad82825461172b565b905560405163a9059cbb60e01b8152336004820152602481018290526020816044815f6001600160a01b037f0000000000000000000000000000000000000000000000000000000000000000165af190811561125b575f9161144d575b501561143e576040519081527fe69cdf29a59dd324317b598bee3a9ed1fcffb99cc506db72633ed07b59dc6d0460203392a3005b6312171d8360e31b5f5260045ffd5b611466915060203d6020116106e2576106d48183611738565b8361140a565b835f52600560205260405f20546040519063832321bf60e01b8252600482015260208160248160018060a01b037f0000000000000000000000000000000000000000000000000000000000000000165afa90811561125b575f91611544575b506114df90670de0b6b3a76400009261176e565b046305f5e10082028281046305f5e100148315171561126f57670de0b6b3a7640000900490612710820291808304612710149015171561126f5761152291611781565b613a9881101561137e57636a5a2d9160e11b5f52600452613a9860245260445ffd5b90506020813d602011611576575b8161155f60209383611738565b810103126108865751670de0b6b3a76400006114cb565b3d9150611552565b632c1f8ef160e21b5f5260045260245260445ffd5b631f2a200560e01b5f5260045ffd5b3461088657602036600319011261088657600435801515809103610886575f54906001600160a01b03821633036115ed5760ff60a01b1990911660a09190911b60ff60a01b16175f55005b637bfa4b9f60e01b5f5260045ffd5b34610886575f366003190112610886576040517f00000000000000000000000000000000000000000000000000000000000000006001600160a01b03168152602090f35b346108865761164e3661169e565b909160ff5f5460a01c166112fe5761166e9261166991611923565b611951565b005b9181601f840112156108865782359167ffffffffffffffff8311610886576020838186019501011161088657565b6040600319820112610886576004359067ffffffffffffffff8211610886576116c991600401611670565b909160243590565b600435906001600160a01b038216820361088657565b906040600319830112610886576004356001600160a01b038116810361088657916024359067ffffffffffffffff82116108865761172791600401611670565b9091565b9190820391821161126f57565b90601f8019910116810190811067ffffffffffffffff82111761175a57604052565b634e487b7160e01b5f52604160045260245ffd5b8181029291811591840414171561126f57565b811561178b570490565b634e487b7160e01b5f52601260045260245ffd5b90816020910312610886575180151581036108865790565b90816060910312610886578051916040602083015192015190565b916117dc91611923565b9060018060a01b031690815f52600260205260405f20815f5260205260405f2054801561190e57815f52600560205260405f20546040519063832321bf60e01b8252600482015260208160248160018060a01b037f0000000000000000000000000000000000000000000000000000000000000000165afa90811561125b575f916118d4575b5061187690670de0b6b3a76400009261176e565b04915f52600160205260405f20905f5260205260405f20546305f5e1008102908082046305f5e100149015171561126f57670de0b6b3a7640000900490612710820291808304612710149015171561126f576118d191611781565b90565b90506020813d602011611906575b816118ef60209383611738565b810103126108865751670de0b6b3a7640000611862565b3d91506118e2565b5050505f1990565b9190820180921161126f57565b9061194b602060405183819483830196873781015f838201520301601f198101835282611738565b51902090565b908015611593575f828152600460205260409020546001600160a01b031680156112eb5761197f8284611cfb565b90335f52600160205260405f20855f5260205260405f20546119a18633611e2e565b80821115611bd1576119b29161172b565b81811061157e5750335f52600260205260405f20855f5260205260405f206119db858254611916565b905581611a6b575b823b15610886576040516340c10f1960e01b815233600482015260248101859052925f908490604490829084905af192831561125b577fafa80970438fa6a8ad54574239a8d28d0cc4b50da6e4473eab194dea551c6c8793611a5b575b506040805194855260208501919091528301523391606090a3565b5f611a6591611738565b5f611a40565b6040516323b872dd60e01b8152336004820152306024820152604481018390526001600160a01b037f000000000000000000000000000000000000000000000000000000000000000016906020816064815f865af190811561125b575f91611bb2575b501561143e5760405163095ea7b360e01b81527f00000000000000000000000000000000000000000000000000000000000000006001600160a01b03811660048301526024820185905291602090829060449082905f905af1801561125b57611b95575b506040516364d6def960e01b81526004810184905230602482015290606090829060449082905f906001600160a01b03165af1801561125b57611b76575b506119e3565b611b8e9060603d6060116107e7576107d88183611738565b5050611b70565b611bad9060203d6020116106e2576106d48183611738565b611b32565b611bcb915060203d6020116106e2576106d48183611738565b5f611ace565b50505f6119b2565b5f818152600460205260409020549091906001600160a01b031615611ce8576040516323b872dd60e01b8152336004820152306024820152604481018290526020816064815f6001600160a01b037f0000000000000000000000000000000000000000000000000000000000000000165af190811561125b575f91611cc9575b501561143e57335f52600160205260405f20825f5260205260405f20611c80828254611916565b9055815f52600360205260405f20611c99828254611916565b90556040519081527f88df26d296ecbf594c8609f433503d1436d24afe03c0d9e5e29c8f6ed92ef9b460203392a3565b611ce2915060203d6020116106e2576106d48183611738565b5f611c59565b506326ef68cf60e01b5f5260045260245ffd5b5f52600560205260405f20546040519063832321bf60e01b8252600482015260208160248160018060a01b037f0000000000000000000000000000000000000000000000000000000000000000165afa90811561125b575f91611df4575b50611d6d90670de0b6b3a76400009261176e565b0490613a98820291801592818104613a981484171561126f576127109004670de0b6b3a7640000810290808204670de0b6b3a7640000149015171561126f576305f5e100900492670de0b6b3a76400008202918204670de0b6b3a764000014171561126f576305f5e1009004601e810290808204601e149015171561126f57612710900490565b90506020813d602011611e26575b81611e0f60209383611738565b810103126108865751670de0b6b3a7640000611d59565b3d9150611e02565b60018060a01b03165f52600260205260405f20815f5260205260405f2054908115611f45575f52600560205260405f20546040519063832321bf60e01b8252600482015260208160248160018060a01b037f0000000000000000000000000000000000000000000000000000000000000000165afa90811561125b575f91611f0b575b50611ec590670de0b6b3a76400009261176e565b04613a98810290808204613a98149015171561126f576127109004670de0b6b3a7640000810290808204670de0b6b3a7640000149015171561126f576305f5e100900490565b90506020813d602011611f3d575b81611f2660209383611738565b810103126108865751670de0b6b3a7640000611eb1565b3d9150611f19565b50505f9056fea264697066735822122016c47eadaec8ca11951e0615bb12a3f7490dc1de1f314fb9d6b17a217561187e64736f6c63430008210033000000000000000000000000e7f1725e7734ce288f8367e1bb143e90bb3f05120000000000000000000000004631bcabd6df18d94796344963cb60d44a4136b60000000000000000000000000165878a594ca255338adfa4d48449f69242eb8f000000000000000000000000f39fd6e51aad88f6f4ce6ab8827279cfffb92266",
        "nonce": "0x6b",
        "chainId": "0xa455"
      },
      "additionalContracts": [],
      "isFixedGasLimit": false
    },
    {
      "hash": "0x50889d0b8dd120a2d74b9cfd42b15ee6fdacd891911f1355d366666384250e6d",
      "transactionType": "CALL",
      "contractName": "SyntheticAssetFactory",
      "contractAddress": "0xf8e31cb472bc70500f08cd84917e5a1912ec8397",
      "function": "listAsset(string,string,address)",
      "arguments": [
        "AAPL",
        "Synthetic Apple Inc.",
        "0xc0F115A19107322cFBf1cDBC7ea011C19EbDB4F8"
      ],
      "transaction": {
        "from": "0xf39fd6e51aad88f6f4ce6ab8827279cfffb92266",
        "to": "0xf8e31cb472bc70500f08cd84917e5a1912ec8397",
        "gas": "0x4d6d4",
        "value": "0x0",
        "input": "0x9b7fd154000000000000000000000000000000000000000000000000000000000000006000000000000000000000000000000000000000000000000000000000000000a0000000000000000000000000c0f115a19107322cfbf1cdbc7ea011c19ebdb4f800000000000000000000000000000000000000000000000000000000000000044141504c00000000000000000000000000000000000000000000000000000000000000000000000000000000000000000000000000000000000000000000001453796e746865746963204170706c6520496e632e000000000000000000000000",
        "nonce": "0x6c",
        "chainId": "0xa455"
      },
      "additionalContracts": [
        {
          "transactionType": "CREATE",
          "contractName": null,
          "address": "0x66a17ec6720cf120ba9f6512b529d8d80e5cd1d7",
          "initCode": "0x3d602d80600a3d3981f3363d3d373d3d3d363d73a1ee49a7156d264f4f6f886c03726b296a0a3dbd5af43d82803e903d91602b57fd5bf3"
        }
      ],
      "isFixedGasLimit": false
    },
    {
      "hash": "0x02f6530e91054ed948d9295a9ec9ccf6f2911766033bfcd7924dee7cf6b1686d",
      "transactionType": "CALL",
      "contractName": "CollateralVault",
      "contractAddress": "0xc0f115a19107322cfbf1cdbc7ea011c19ebdb4f8",
      "function": "registerAsset(string,address)",
      "arguments": [
        "AAPL",
        "0x66A17eC6720cF120bA9F6512B529D8D80E5cd1D7"
      ],
      "transaction": {
        "from": "0xf39fd6e51aad88f6f4ce6ab8827279cfffb92266",
        "to": "0xc0f115a19107322cfbf1cdbc7ea011c19ebdb4f8",
        "gas": "0x1829e",
        "value": "0x0",
        "input": "0x8c2261ad000000000000000000000000000000000000000000000000000000000000004000000000000000000000000066a17ec6720cf120ba9f6512b529d8d80e5cd1d700000000000000000000000000000000000000000000000000000000000000044141504c00000000000000000000000000000000000000000000000000000000",
        "nonce": "0x6d",
        "chainId": "0xa455"
      },
      "additionalContracts": [],
      "isFixedGasLimit": false
    },
    {
      "hash": "0x17e118fce8e8212dcb1122be021a2f54cf4595597c3810f1d6c4d7429d60a461",
      "transactionType": "CALL",
      "contractName": "SyntheticAssetFactory",
      "contractAddress": "0xf8e31cb472bc70500f08cd84917e5a1912ec8397",
      "function": "listAsset(string,string,address)",
      "arguments": [
        "TSLA",
        "Synthetic Tesla Inc.",
        "0xc0F115A19107322cFBf1cDBC7ea011C19EbDB4F8"
      ],
      "transaction": {
        "from": "0xf39fd6e51aad88f6f4ce6ab8827279cfffb92266",
        "to": "0xf8e31cb472bc70500f08cd84917e5a1912ec8397",
        "gas": "0x47a90",
        "value": "0x0",
        "input": "0x9b7fd154000000000000000000000000000000000000000000000000000000000000006000000000000000000000000000000000000000000000000000000000000000a0000000000000000000000000c0f115a19107322cfbf1cdbc7ea011c19ebdb4f8000000000000000000000000000000000000000000000000000000000000000454534c4100000000000000000000000000000000000000000000000000000000000000000000000000000000000000000000000000000000000000000000001453796e746865746963205465736c6120496e632e000000000000000000000000",
        "nonce": "0x6e",
        "chainId": "0xa455"
      },
      "additionalContracts": [
        {
          "transactionType": "CREATE",
          "contractName": null,
          "address": "0x93b87e23ae6f5345ecc1ff20323a2def3351f579",
          "initCode": "0x3d602d80600a3d3981f3363d3d373d3d3d363d73a1ee49a7156d264f4f6f886c03726b296a0a3dbd5af43d82803e903d91602b57fd5bf3"
        }
      ],
      "isFixedGasLimit": false
    },
    {
      "hash": "0x615d74ee44dd546304e0a3ecd69bf783b33e070d98f5a1357042f1b95962c2b4",
      "transactionType": "CALL",
      "contractName": "CollateralVault",
      "contractAddress": "0xc0f115a19107322cfbf1cdbc7ea011c19ebdb4f8",
      "function": "registerAsset(string,address)",
      "arguments": [
        "TSLA",
        "0x93b87e23aE6f5345ECC1fF20323A2def3351F579"
      ],
      "transaction": {
        "from": "0xf39fd6e51aad88f6f4ce6ab8827279cfffb92266",
        "to": "0xc0f115a19107322cfbf1cdbc7ea011c19ebdb4f8",
        "gas": "0x1829e",
        "value": "0x0",
        "input": "0x8c2261ad000000000000000000000000000000000000000000000000000000000000004000000000000000000000000093b87e23ae6f5345ecc1ff20323a2def3351f579000000000000000000000000000000000000000000000000000000000000000454534c4100000000000000000000000000000000000000000000000000000000",
        "nonce": "0x6f",
        "chainId": "0xa455"
      },
      "additionalContracts": [],
      "isFixedGasLimit": false
    },
    {
      "hash": "0x626711618c25e1c2ac2d01b896ef6b877577049e03cddb3a9c1a7aa295002f7e",
      "transactionType": "CALL",
      "contractName": "SyntheticAssetFactory",
      "contractAddress": "0xf8e31cb472bc70500f08cd84917e5a1912ec8397",
      "function": "listAsset(string,string,address)",
      "arguments": [
        "NVDA",
        "Synthetic NVIDIA Corp.",
        "0xc0F115A19107322cFBf1cDBC7ea011C19EbDB4F8"
      ],
      "transaction": {
        "from": "0xf39fd6e51aad88f6f4ce6ab8827279cfffb92266",
        "to": "0xf8e31cb472bc70500f08cd84917e5a1912ec8397",
        "gas": "0x47ab2",
        "value": "0x0",
        "input": "0x9b7fd154000000000000000000000000000000000000000000000000000000000000006000000000000000000000000000000000000000000000000000000000000000a0000000000000000000000000c0f115a19107322cfbf1cdbc7ea011c19ebdb4f800000000000000000000000000000000000000000000000000000000000000044e56444100000000000000000000000000000000000000000000000000000000000000000000000000000000000000000000000000000000000000000000001653796e746865746963204e564944494120436f72702e00000000000000000000",
        "nonce": "0x70",
        "chainId": "0xa455"
      },
      "additionalContracts": [
        {
          "transactionType": "CREATE",
          "contractName": null,
          "address": "0x3008c1e01962fbfb8df578bf5b881d5ab9ae49b1",
          "initCode": "0x3d602d80600a3d3981f3363d3d373d3d3d363d73a1ee49a7156d264f4f6f886c03726b296a0a3dbd5af43d82803e903d91602b57fd5bf3"
        }
      ],
      "isFixedGasLimit": false
    },
    {
      "hash": "0xbcaab2684670d7b527c132ef50c131fe6239a50c119e5c25f5a4f5f62a2db708",
      "transactionType": "CALL",
      "contractName": "CollateralVault",
      "contractAddress": "0xc0f115a19107322cfbf1cdbc7ea011c19ebdb4f8",
      "function": "registerAsset(string,address)",
      "arguments": [
        "NVDA",
        "0x3008C1E01962fbFb8df578BF5b881d5Ab9Ae49B1"
      ],
      "transaction": {
        "from": "0xf39fd6e51aad88f6f4ce6ab8827279cfffb92266",
        "to": "0xc0f115a19107322cfbf1cdbc7ea011c19ebdb4f8",
        "gas": "0x1829e",
        "value": "0x0",
        "input": "0x8c2261ad00000000000000000000000000000000000000000000000000000000000000400000000000000000000000003008c1e01962fbfb8df578bf5b881d5ab9ae49b100000000000000000000000000000000000000000000000000000000000000044e56444100000000000000000000000000000000000000000000000000000000",
        "nonce": "0x71",
        "chainId": "0xa455"
      },
      "additionalContracts": [],
      "isFixedGasLimit": false
    },
    {
      "hash": "0xd09cf22d96965ec7bf06025a4024368c96fe86c83dc270c852fe1ef035d41c0f",
      "transactionType": "CALL",
      "contractName": "SyntheticAssetFactory",
      "contractAddress": "0xf8e31cb472bc70500f08cd84917e5a1912ec8397",
      "function": "listAsset(string,string,address)",
      "arguments": [
        "MSFT",
        "Synthetic Microsoft Corp.",
        "0xc0F115A19107322cFBf1cDBC7ea011C19EbDB4F8"
      ],
      "transaction": {
        "from": "0xf39fd6e51aad88f6f4ce6ab8827279cfffb92266",
        "to": "0xf8e31cb472bc70500f08cd84917e5a1912ec8397",
        "gas": "0x47ae3",
        "value": "0x0",
        "input": "0x9b7fd154000000000000000000000000000000000000000000000000000000000000006000000000000000000000000000000000000000000000000000000000000000a0000000000000000000000000c0f115a19107322cfbf1cdbc7ea011c19ebdb4f800000000000000000000000000000000000000000000000000000000000000044d53465400000000000000000000000000000000000000000000000000000000000000000000000000000000000000000000000000000000000000000000001953796e746865746963204d6963726f736f667420436f72702e00000000000000",
        "nonce": "0x72",
        "chainId": "0xa455"
      },
      "additionalContracts": [
        {
          "transactionType": "CREATE",
          "contractName": null,
          "address": "0x3843bf082cdcb54f1003727bd6a0e92aa599709d",
          "initCode": "0x3d602d80600a3d3981f3363d3d373d3d3d363d73a1ee49a7156d264f4f6f886c03726b296a0a3dbd5af43d82803e903d91602b57fd5bf3"
        }
      ],
      "isFixedGasLimit": false
    },
    {
      "hash": "0x6cdac2a886b68f0a2beec7e87db0d31e4c5812f38fe2a55632e91eee175d1733",
      "transactionType": "CALL",
      "contractName": "CollateralVault",
      "contractAddress": "0xc0f115a19107322cfbf1cdbc7ea011c19ebdb4f8",
      "function": "registerAsset(string,address)",
      "arguments": [
        "MSFT",
        "0x3843bf082CdCB54F1003727Bd6a0e92AA599709D"
      ],
      "transaction": {
        "from": "0xf39fd6e51aad88f6f4ce6ab8827279cfffb92266",
        "to": "0xc0f115a19107322cfbf1cdbc7ea011c19ebdb4f8",
        "gas": "0x1829e",
        "value": "0x0",
        "input": "0x8c2261ad00000000000000000000000000000000000000000000000000000000000000400000000000000000000000003843bf082cdcb54f1003727bd6a0e92aa599709d00000000000000000000000000000000000000000000000000000000000000044d53465400000000000000000000000000000000000000000000000000000000",
        "nonce": "0x73",
        "chainId": "0xa455"
      },
      "additionalContracts": [],
      "isFixedGasLimit": false
    },
    {
      "hash": "0x55f739a65a09ee9b698846a5b0e09d2ad873976ff5b047ce9d982442aac7db3a",
      "transactionType": "CALL",
      "contractName": "SyntheticAssetFactory",
      "contractAddress": "0xf8e31cb472bc70500f08cd84917e5a1912ec8397",
      "function": "listAsset(string,string,address)",
      "arguments": [
        "AMZN",
        "Synthetic Amazon.com Inc.",
        "0xc0F115A19107322cFBf1cDBC7ea011C19EbDB4F8"
      ],
      "transaction": {
        "from": "0xf39fd6e51aad88f6f4ce6ab8827279cfffb92266",
        "to": "0xf8e31cb472bc70500f08cd84917e5a1912ec8397",
        "gas": "0x47ae3",
        "value": "0x0",
        "input": "0x9b7fd154000000000000000000000000000000000000000000000000000000000000006000000000000000000000000000000000000000000000000000000000000000a0000000000000000000000000c0f115a19107322cfbf1cdbc7ea011c19ebdb4f80000000000000000000000000000000000000000000000000000000000000004414d5a4e00000000000000000000000000000000000000000000000000000000000000000000000000000000000000000000000000000000000000000000001953796e74686574696320416d617a6f6e2e636f6d20496e632e00000000000000",
        "nonce": "0x74",
        "chainId": "0xa455"
      },
      "additionalContracts": [
        {
          "transactionType": "CREATE",
          "contractName": null,
          "address": "0xe9ee6273f0b362c12731ea72fe4d54ad4d7cc66e",
          "initCode": "0x3d602d80600a3d3981f3363d3d373d3d3d363d73a1ee49a7156d264f4f6f886c03726b296a0a3dbd5af43d82803e903d91602b57fd5bf3"
        }
      ],
      "isFixedGasLimit": false
    },
    {
      "hash": "0x5eaa30511fc7b85dc6a9aa9e7315f7de48ec9ee32c71ffa7646a6e89a15ecb1e",
      "transactionType": "CALL",
      "contractName": "CollateralVault",
      "contractAddress": "0xc0f115a19107322cfbf1cdbc7ea011c19ebdb4f8",
      "function": "registerAsset(string,address)",
      "arguments": [
        "AMZN",
        "0xE9eE6273f0b362C12731Ea72Fe4d54AD4d7Cc66e"
      ],
      "transaction": {
        "from": "0xf39fd6e51aad88f6f4ce6ab8827279cfffb92266",
        "to": "0xc0f115a19107322cfbf1cdbc7ea011c19ebdb4f8",
        "gas": "0x1829e",
        "value": "0x0",
        "input": "0x8c2261ad0000000000000000000000000000000000000000000000000000000000000040000000000000000000000000e9ee6273f0b362c12731ea72fe4d54ad4d7cc66e0000000000000000000000000000000000000000000000000000000000000004414d5a4e00000000000000000000000000000000000000000000000000000000",
        "nonce": "0x75",
        "chainId": "0xa455"
      },
      "additionalContracts": [],
      "isFixedGasLimit": false
    },
    {
      "hash": "0x32ab28be24ddce257b253dcc71df27e62056b043b794e1ab6d88db64dfae1bb1",
      "transactionType": "CALL",
      "contractName": "SyntheticAssetFactory",
      "contractAddress": "0xf8e31cb472bc70500f08cd84917e5a1912ec8397",
      "function": "listAsset(string,string,address)",
      "arguments": [
        "GOOGL",
        "Synthetic Alphabet Inc.",
        "0xc0F115A19107322cFBf1cDBC7ea011C19EbDB4F8"
      ],
      "transaction": {
        "from": "0xf39fd6e51aad88f6f4ce6ab8827279cfffb92266",
        "to": "0xf8e31cb472bc70500f08cd84917e5a1912ec8397",
        "gas": "0x47ad2",
        "value": "0x0",
        "input": "0x9b7fd154000000000000000000000000000000000000000000000000000000000000006000000000000000000000000000000000000000000000000000000000000000a0000000000000000000000000c0f115a19107322cfbf1cdbc7ea011c19ebdb4f80000000000000000000000000000000000000000000000000000000000000005474f4f474c000000000000000000000000000000000000000000000000000000000000000000000000000000000000000000000000000000000000000000001753796e74686574696320416c70686162657420496e632e000000000000000000",
        "nonce": "0x76",
        "chainId": "0xa455"
      },
      "additionalContracts": [
        {
          "transactionType": "CREATE",
          "contractName": null,
          "address": "0xf77a3843cd026fc37f0c85525470bc71288bf452",
          "initCode": "0x3d602d80600a3d3981f3363d3d373d3d3d363d73a1ee49a7156d264f4f6f886c03726b296a0a3dbd5af43d82803e903d91602b57fd5bf3"
        }
      ],
      "isFixedGasLimit": false
    },
    {
      "hash": "0x9c7dae67ccbe1cc0bdaa9ac79caccf169d74836c74390d44c313d1a021c415d8",
      "transactionType": "CALL",
      "contractName": "CollateralVault",
      "contractAddress": "0xc0f115a19107322cfbf1cdbc7ea011c19ebdb4f8",
      "function": "registerAsset(string,address)",
      "arguments": [
        "GOOGL",
        "0xF77a3843Cd026fC37F0C85525470BC71288bf452"
      ],
      "transaction": {
        "from": "0xf39fd6e51aad88f6f4ce6ab8827279cfffb92266",
        "to": "0xc0f115a19107322cfbf1cdbc7ea011c19ebdb4f8",
        "gas": "0x182af",
        "value": "0x0",
        "input": "0x8c2261ad0000000000000000000000000000000000000000000000000000000000000040000000000000000000000000f77a3843cd026fc37f0c85525470bc71288bf4520000000000000000000000000000000000000000000000000000000000000005474f4f474c000000000000000000000000000000000000000000000000000000",
        "nonce": "0x77",
        "chainId": "0xa455"
      },
      "additionalContracts": [],
      "isFixedGasLimit": false
    },
    {
      "hash": "0x5cfc409a8ab1ec5497c258b0fc5bb76fbe05f6a73b9b0208c11d9e09e3233ee3",
      "transactionType": "CALL",
      "contractName": "SyntheticAssetFactory",
      "contractAddress": "0xf8e31cb472bc70500f08cd84917e5a1912ec8397",
      "function": "listAsset(string,string,address)",
      "arguments": [
        "META",
        "Synthetic Meta Platforms",
        "0xc0F115A19107322cFBf1cDBC7ea011C19EbDB4F8"
      ],
      "transaction": {
        "from": "0xf39fd6e51aad88f6f4ce6ab8827279cfffb92266",
        "to": "0xf8e31cb472bc70500f08cd84917e5a1912ec8397",
        "gas": "0x47ad2",
        "value": "0x0",
        "input": "0x9b7fd154000000000000000000000000000000000000000000000000000000000000006000000000000000000000000000000000000000000000000000000000000000a0000000000000000000000000c0f115a19107322cfbf1cdbc7ea011c19ebdb4f800000000000000000000000000000000000000000000000000000000000000044d45544100000000000000000000000000000000000000000000000000000000000000000000000000000000000000000000000000000000000000000000001853796e746865746963204d65746120506c6174666f726d730000000000000000",
        "nonce": "0x78",
        "chainId": "0xa455"
      },
      "additionalContracts": [
        {
          "transactionType": "CREATE",
          "contractName": null,
          "address": "0x444f3cd6da9827f64c37ffe0db6d25c521742127",
          "initCode": "0x3d602d80600a3d3981f3363d3d373d3d3d363d73a1ee49a7156d264f4f6f886c03726b296a0a3dbd5af43d82803e903d91602b57fd5bf3"
        }
      ],
      "isFixedGasLimit": false
    },
    {
      "hash": "0xd19ca1ef434b063688c152e5cd01cf26a9e2ce8cdbc0fe62719b3a9dc7f285f7",
      "transactionType": "CALL",
      "contractName": "CollateralVault",
      "contractAddress": "0xc0f115a19107322cfbf1cdbc7ea011c19ebdb4f8",
      "function": "registerAsset(string,address)",
      "arguments": [
        "META",
        "0x444F3CD6dA9827f64C37fFE0Db6d25c521742127"
      ],
      "transaction": {
        "from": "0xf39fd6e51aad88f6f4ce6ab8827279cfffb92266",
        "to": "0xc0f115a19107322cfbf1cdbc7ea011c19ebdb4f8",
        "gas": "0x1829e",
        "value": "0x0",
        "input": "0x8c2261ad0000000000000000000000000000000000000000000000000000000000000040000000000000000000000000444f3cd6da9827f64c37ffe0db6d25c52174212700000000000000000000000000000000000000000000000000000000000000044d45544100000000000000000000000000000000000000000000000000000000",
        "nonce": "0x79",
        "chainId": "0xa455"
      },
      "additionalContracts": [],
      "isFixedGasLimit": false
    },
    {
      "hash": "0xf1ef0a08d0a45bc1a862e539c4f439ca405164791b8815a575da909f6a07ebe1",
      "transactionType": "CALL",
      "contractName": "SyntheticAssetFactory",
      "contractAddress": "0xf8e31cb472bc70500f08cd84917e5a1912ec8397",
      "function": "listAsset(string,string,address)",
      "arguments": [
        "JPM",
        "Synthetic JPMorgan Chase",
        "0xc0F115A19107322cFBf1cDBC7ea011C19EbDB4F8"
      ],
      "transaction": {
        "from": "0xf39fd6e51aad88f6f4ce6ab8827279cfffb92266",
        "to": "0xf8e31cb472bc70500f08cd84917e5a1912ec8397",
        "gas": "0x47ac1",
        "value": "0x0",
        "input": "0x9b7fd154000000000000000000000000000000000000000000000000000000000000006000000000000000000000000000000000000000000000000000000000000000a0000000000000000000000000c0f115a19107322cfbf1cdbc7ea011c19ebdb4f800000000000000000000000000000000000000000000000000000000000000034a504d0000000000000000000000000000000000000000000000000000000000000000000000000000000000000000000000000000000000000000000000001853796e746865746963204a504d6f7267616e2043686173650000000000000000",
        "nonce": "0x7a",
        "chainId": "0xa455"
      },
      "additionalContracts": [
        {
          "transactionType": "CREATE",
          "contractName": null,
          "address": "0xbc32f9e9bec6c4b009abf918961846a3214e03fe",
          "initCode": "0x3d602d80600a3d3981f3363d3d373d3d3d363d73a1ee49a7156d264f4f6f886c03726b296a0a3dbd5af43d82803e903d91602b57fd5bf3"
        }
      ],
      "isFixedGasLimit": false
    },
    {
      "hash": "0x62991081ea2e02d3152dd9072c99fb6222b91640fa883b59ef6b04e8059d530c",
      "transactionType": "CALL",
      "contractName": "CollateralVault",
      "contractAddress": "0xc0f115a19107322cfbf1cdbc7ea011c19ebdb4f8",
      "function": "registerAsset(string,address)",
      "arguments": [
        "JPM",
        "0xbc32F9E9Bec6c4b009Abf918961846a3214e03FE"
      ],
      "transaction": {
        "from": "0xf39fd6e51aad88f6f4ce6ab8827279cfffb92266",
        "to": "0xc0f115a19107322cfbf1cdbc7ea011c19ebdb4f8",
        "gas": "0x1828d",
        "value": "0x0",
        "input": "0x8c2261ad0000000000000000000000000000000000000000000000000000000000000040000000000000000000000000bc32f9e9bec6c4b009abf918961846a3214e03fe00000000000000000000000000000000000000000000000000000000000000034a504d0000000000000000000000000000000000000000000000000000000000",
        "nonce": "0x7b",
        "chainId": "0xa455"
      },
      "additionalContracts": [],
      "isFixedGasLimit": false
    },
    {
      "hash": "0xadd61ed0d0898b4efd6fded8437db4007b4bb29ba9a533bfe0392757becea459",
      "transactionType": "CALL",
      "contractName": "SyntheticAssetFactory",
      "contractAddress": "0xf8e31cb472bc70500f08cd84917e5a1912ec8397",
      "function": "listAsset(string,string,address)",
      "arguments": [
        "V",
        "Synthetic Visa Inc.",
        "0xc0F115A19107322cFBf1cDBC7ea011C19EbDB4F8"
      ],
      "transaction": {
        "from": "0xf39fd6e51aad88f6f4ce6ab8827279cfffb92266",
        "to": "0xf8e31cb472bc70500f08cd84917e5a1912ec8397",
        "gas": "0x47a4e",
        "value": "0x0",
        "input": "0x9b7fd154000000000000000000000000000000000000000000000000000000000000006000000000000000000000000000000000000000000000000000000000000000a0000000000000000000000000c0f115a19107322cfbf1cdbc7ea011c19ebdb4f800000000000000000000000000000000000000000000000000000000000000015600000000000000000000000000000000000000000000000000000000000000000000000000000000000000000000000000000000000000000000000000001353796e746865746963205669736120496e632e00000000000000000000000000",
        "nonce": "0x7c",
        "chainId": "0xa455"
      },
      "additionalContracts": [
        {
          "transactionType": "CREATE",
          "contractName": null,
          "address": "0xe3e30530c5d638c706f3de8cbc4cf8cfae290687",
          "initCode": "0x3d602d80600a3d3981f3363d3d373d3d3d363d73a1ee49a7156d264f4f6f886c03726b296a0a3dbd5af43d82803e903d91602b57fd5bf3"
        }
      ],
      "isFixedGasLimit": false
    },
    {
      "hash": "0x796e99945207446c94b4f13931722a4d9997b99533a2a98192626d4e796d0398",
      "transactionType": "CALL",
      "contractName": "CollateralVault",
      "contractAddress": "0xc0f115a19107322cfbf1cdbc7ea011c19ebdb4f8",
      "function": "registerAsset(string,address)",
      "arguments": [
        "V",
        "0xE3e30530c5D638C706f3de8CbC4cF8CFAe290687"
      ],
      "transaction": {
        "from": "0xf39fd6e51aad88f6f4ce6ab8827279cfffb92266",
        "to": "0xc0f115a19107322cfbf1cdbc7ea011c19ebdb4f8",
        "gas": "0x1826c",
        "value": "0x0",
        "input": "0x8c2261ad0000000000000000000000000000000000000000000000000000000000000040000000000000000000000000e3e30530c5d638c706f3de8cbc4cf8cfae29068700000000000000000000000000000000000000000000000000000000000000015600000000000000000000000000000000000000000000000000000000000000",
        "nonce": "0x7d",
        "chainId": "0xa455"
      },
      "additionalContracts": [],
      "isFixedGasLimit": false
    },
    {
      "hash": "0x2c052710f45632dd7498a864419543c5865e2f39daef284ca6f098fb0ff19109",
      "transactionType": "CALL",
      "contractName": "SyntheticAssetFactory",
      "contractAddress": "0xf8e31cb472bc70500f08cd84917e5a1912ec8397",
      "function": "listAsset(string,string,address)",
      "arguments": [
        "DIS",
        "Synthetic Walt Disney Co.",
        "0xc0F115A19107322cFBf1cDBC7ea011C19EbDB4F8"
      ],
      "transaction": {
        "from": "0xf39fd6e51aad88f6f4ce6ab8827279cfffb92266",
        "to": "0xf8e31cb472bc70500f08cd84917e5a1912ec8397",
        "gas": "0x47ad2",
        "value": "0x0",
        "input": "0x9b7fd154000000000000000000000000000000000000000000000000000000000000006000000000000000000000000000000000000000000000000000000000000000a0000000000000000000000000c0f115a19107322cfbf1cdbc7ea011c19ebdb4f800000000000000000000000000000000000000000000000000000000000000034449530000000000000000000000000000000000000000000000000000000000000000000000000000000000000000000000000000000000000000000000001953796e7468657469632057616c74204469736e657920436f2e00000000000000",
        "nonce": "0x7e",
        "chainId": "0xa455"
      },
      "additionalContracts": [
        {
          "transactionType": "CREATE",
          "contractName": null,
          "address": "0x3b5f00239c25710de6f7196d10e3bca4941e7d03",
          "initCode": "0x3d602d80600a3d3981f3363d3d373d3d3d363d73a1ee49a7156d264f4f6f886c03726b296a0a3dbd5af43d82803e903d91602b57fd5bf3"
        }
      ],
      "isFixedGasLimit": false
    },
    {
      "hash": "0x92ffdd39852498f69a4136228d1ee5015a7e388dad8c0bacbceba6852a899c3e",
      "transactionType": "CALL",
      "contractName": "CollateralVault",
      "contractAddress": "0xc0f115a19107322cfbf1cdbc7ea011c19ebdb4f8",
      "function": "registerAsset(string,address)",
      "arguments": [
        "DIS",
        "0x3b5f00239c25710dE6F7196d10e3bcA4941E7d03"
      ],
      "transaction": {
        "from": "0xf39fd6e51aad88f6f4ce6ab8827279cfffb92266",
        "to": "0xc0f115a19107322cfbf1cdbc7ea011c19ebdb4f8",
        "gas": "0x1827d",
        "value": "0x0",
        "input": "0x8c2261ad00000000000000000000000000000000000000000000000000000000000000400000000000000000000000003b5f00239c25710de6f7196d10e3bca4941e7d0300000000000000000000000000000000000000000000000000000000000000034449530000000000000000000000000000000000000000000000000000000000",
        "nonce": "0x7f",
        "chainId": "0xa455"
      },
      "additionalContracts": [],
      "isFixedGasLimit": false
    },
    {
      "hash": "0x525311edabf9dfed19605a3a26c63d539610a07d1cf1d047f78adb0984fc3861",
      "transactionType": "CALL",
      "contractName": "SyntheticAssetFactory",
      "contractAddress": "0xf8e31cb472bc70500f08cd84917e5a1912ec8397",
      "function": "listAsset(string,string,address)",
      "arguments": [
        "NFLX",
        "Synthetic Netflix Inc.",
        "0xc0F115A19107322cFBf1cDBC7ea011C19EbDB4F8"
      ],
      "transaction": {
        "from": "0xf39fd6e51aad88f6f4ce6ab8827279cfffb92266",
        "to": "0xf8e31cb472bc70500f08cd84917e5a1912ec8397",
        "gas": "0x47ab2",
        "value": "0x0",
        "input": "0x9b7fd154000000000000000000000000000000000000000000000000000000000000006000000000000000000000000000000000000000000000000000000000000000a0000000000000000000000000c0f115a19107322cfbf1cdbc7ea011c19ebdb4f800000000000000000000000000000000000000000000000000000000000000044e464c5800000000000000000000000000000000000000000000000000000000000000000000000000000000000000000000000000000000000000000000001653796e746865746963204e6574666c697820496e632e00000000000000000000",
        "nonce": "0x80",
        "chainId": "0xa455"
      },
      "additionalContracts": [
        {
          "transactionType": "CREATE",
          "contractName": null,
          "address": "0x8f52a941289e8571752e2df6457e8b9859140d8c",
          "initCode": "0x3d602d80600a3d3981f3363d3d373d3d3d363d73a1ee49a7156d264f4f6f886c03726b296a0a3dbd5af43d82803e903d91602b57fd5bf3"
        }
      ],
      "isFixedGasLimit": false
    },
    {
      "hash": "0x04343ace16a04b0b58ddb40deeca4e8052b18b567c6ea33e4debacaa1bd98b96",
      "transactionType": "CALL",
      "contractName": "CollateralVault",
      "contractAddress": "0xc0f115a19107322cfbf1cdbc7ea011c19ebdb4f8",
      "function": "registerAsset(string,address)",
      "arguments": [
        "NFLX",
        "0x8f52A941289E8571752E2dF6457e8B9859140d8C"
      ],
      "transaction": {
        "from": "0xf39fd6e51aad88f6f4ce6ab8827279cfffb92266",
        "to": "0xc0f115a19107322cfbf1cdbc7ea011c19ebdb4f8",
        "gas": "0x1829e",
        "value": "0x0",
        "input": "0x8c2261ad00000000000000000000000000000000000000000000000000000000000000400000000000000000000000008f52a941289e8571752e2df6457e8b9859140d8c00000000000000000000000000000000000000000000000000000000000000044e464c5800000000000000000000000000000000000000000000000000000000",
        "nonce": "0x81",
        "chainId": "0xa455"
      },
      "additionalContracts": [],
      "isFixedGasLimit": false
    },
    {
      "hash": "0x53cdb73e4de3d74aaa14995f7be370b31bc808be6689ce0360d56c07486c11a4",
      "transactionType": "CALL",
      "contractName": "SyntheticAssetFactory",
      "contractAddress": "0xf8e31cb472bc70500f08cd84917e5a1912ec8397",
      "function": "listAsset(string,string,address)",
      "arguments": [
        "AMD",
        "Synthetic Advanced Micro Devices",
        "0xc0F115A19107322cFBf1cDBC7ea011C19EbDB4F8"
      ],
      "transaction": {
        "from": "0xf39fd6e51aad88f6f4ce6ab8827279cfffb92266",
        "to": "0xf8e31cb472bc70500f08cd84917e5a1912ec8397",
        "gas": "0x53d95",
        "value": "0x0",
        "input": "0x9b7fd154000000000000000000000000000000000000000000000000000000000000006000000000000000000000000000000000000000000000000000000000000000a0000000000000000000000000c0f115a19107322cfbf1cdbc7ea011c19ebdb4f80000000000000000000000000000000000000000000000000000000000000003414d440000000000000000000000000000000000000000000000000000000000000000000000000000000000000000000000000000000000000000000000002053796e74686574696320416476616e636564204d6963726f2044657669636573",
        "nonce": "0x82",
        "chainId": "0xa455"
      },
      "additionalContracts": [
        {
          "transactionType": "CREATE",
          "contractName": null,
          "address": "0xee95273b1c7f7fbb6ee669ef9d7a1ec388a86434",
          "initCode": "0x3d602d80600a3d3981f3363d3d373d3d3d363d73a1ee49a7156d264f4f6f886c03726b296a0a3dbd5af43d82803e903d91602b57fd5bf3"
        }
      ],
      "isFixedGasLimit": false
    },
    {
      "hash": "0x042590e4fc94a652fb503737473b0d3db6869b3c55d8cef303d34e49296eb7c9",
      "transactionType": "CALL",
      "contractName": "CollateralVault",
      "contractAddress": "0xc0f115a19107322cfbf1cdbc7ea011c19ebdb4f8",
      "function": "registerAsset(string,address)",
      "arguments": [
        "AMD",
        "0xeE95273b1c7f7fbB6Ee669EF9D7A1EC388A86434"
      ],
      "transaction": {
        "from": "0xf39fd6e51aad88f6f4ce6ab8827279cfffb92266",
        "to": "0xc0f115a19107322cfbf1cdbc7ea011c19ebdb4f8",
        "gas": "0x1828d",
        "value": "0x0",
        "input": "0x8c2261ad0000000000000000000000000000000000000000000000000000000000000040000000000000000000000000ee95273b1c7f7fbb6ee669ef9d7a1ec388a864340000000000000000000000000000000000000000000000000000000000000003414d440000000000000000000000000000000000000000000000000000000000",
        "nonce": "0x83",
        "chainId": "0xa455"
      },
      "additionalContracts": [],
      "isFixedGasLimit": false
    }
  ],
  "receipts": [
    {
      "status": "0x1",
      "cumulativeGasUsed": "0x7f571",
      "logs": [],
      "logsBloom": "0x00000000000000000000000000000000000000000000000000000000000000000000000000000000000000000000000000000000000000000000000000000000000000000000000000000000000000000000000000000000000000000000000000000000000000000000000000000000000000000000000000000000000000000000000000000000000000000000000000000000000000000000000000000000000000000000000000000000000000000000000000000000000000000000000000000000000000000000000000000000000000000000000000000000000000000000000000000000000000000000000000000000000000000000000000000000",
      "type": "0x0",
      "transactionHash": "0x931ae73037a396bb6e111acdceebea68c9f4ae58b9fd6da7371f2d8e850bce6f",
      "transactionIndex": "0x0",
      "blockHash": "0xe9f3a6dd3e9fff9dd7f570708f84aaa0ece9b8e56fc920908992868c390ebfe8",
      "blockNumber": "0x15",
      "gasUsed": "0x7f571",
      "effectiveGasPrice": "0x410c5f9f",
      "blobGasPrice": "0x1",
      "from": "0xf39fd6e51aad88f6f4ce6ab8827279cfffb92266",
      "to": null,
      "contractAddress": "0x4631bcabd6df18d94796344963cb60d44a4136b6"
    },
    {
      "status": "0x1",
      "cumulativeGasUsed": "0x90968",
      "logs": [
        {
          "address": "0x4631bcabd6df18d94796344963cb60d44a4136b6",
          "topics": [
            "0xd78ddf5dda09409c5ba0a349a6c0149840d265112fa302b34dc3b322e7f675bc",
            "0x3a54a9a690616fbc26cfc409bf11f89d51f1d57a4ab2791fb86026cee74ed2f3"
          ],
          "data": "0x0000000000000000000000000000000000000000000000000000000429411400",
          "blockHash": "0xe9f3a6dd3e9fff9dd7f570708f84aaa0ece9b8e56fc920908992868c390ebfe8",
          "blockNumber": "0x15",
          "blockTimestamp": "0x69fccb3f",
          "transactionHash": "0x29c50e6f00293d26bad1e9ba12fd2f51c2835f6d30ff79a514992232dfc220b6",
          "transactionIndex": "0x1",
          "logIndex": "0x0",
          "removed": false
        }
      ],
      "logsBloom": "0x00000000000000000000000000000000000000000000000000000000000000000000000000000000000000000000000000200000000000000002000000000000000000000000000000000000000000000000000000000000000000000000000000000000000000000000000000000000000000000000000000000000000000000000000000000000000000000000000000000000000000000000000000000000000000000000001000000000000000000300000000000000000000000000100000000000000000000000000001000000000000000000000000000000000000000000000000000000000000000000000400000000000000000000000020000000",
      "type": "0x0",
      "transactionHash": "0x29c50e6f00293d26bad1e9ba12fd2f51c2835f6d30ff79a514992232dfc220b6",
      "transactionIndex": "0x1",
      "blockHash": "0xe9f3a6dd3e9fff9dd7f570708f84aaa0ece9b8e56fc920908992868c390ebfe8",
      "blockNumber": "0x15",
      "gasUsed": "0x113f7",
      "effectiveGasPrice": "0x410c5f9f",
      "blobGasPrice": "0x1",
      "from": "0xf39fd6e51aad88f6f4ce6ab8827279cfffb92266",
      "to": "0x4631bcabd6df18d94796344963cb60d44a4136b6",
      "contractAddress": null
    },
    {
      "status": "0x1",
      "cumulativeGasUsed": "0xa1d6b",
      "logs": [
        {
          "address": "0x4631bcabd6df18d94796344963cb60d44a4136b6",
          "topics": [
            "0xd78ddf5dda09409c5ba0a349a6c0149840d265112fa302b34dc3b322e7f675bc",
            "0x0a8f1f385fed9c77a2e0daa363ccc865e971bdbe4458bb570cc0acb068d7c0f2"
          ],
          "data": "0x00000000000000000000000000000000000000000000000000000005c92ce880",
          "blockHash": "0xe9f3a6dd3e9fff9dd7f570708f84aaa0ece9b8e56fc920908992868c390ebfe8",
          "blockNumber": "0x15",
          "blockTimestamp": "0x69fccb3f",
          "transactionHash": "0x4b4df877f24b8a8b4a1e74ec1cf0b8235494db25b8386e9611ea1ab2b2339c63",
          "transactionIndex": "0x2",
          "logIndex": "0x1",
          "removed": false
        }
      ],
      "logsBloom": "0x00000000000000000000000000000000000000000000000000000000000000000000000000000001000000000000000000200000000000000000000000000000000000000000000000000000000000000000000000000000000000000000000000000000000000000000000000000000000000000000000000000000000000000000000000000000000000000000000000000000000000000000000000000000000000000000001000000000000000000204002000000000000000000000100000000000000000000000000000000000000000000000000000000000000000000000000000000000000000000000000400000000000000000000000020000000",
      "type": "0x0",
      "transactionHash": "0x4b4df877f24b8a8b4a1e74ec1cf0b8235494db25b8386e9611ea1ab2b2339c63",
      "transactionIndex": "0x2",
      "blockHash": "0xe9f3a6dd3e9fff9dd7f570708f84aaa0ece9b8e56fc920908992868c390ebfe8",
      "blockNumber": "0x15",
      "gasUsed": "0x11403",
      "effectiveGasPrice": "0x410c5f9f",
      "blobGasPrice": "0x1",
      "from": "0xf39fd6e51aad88f6f4ce6ab8827279cfffb92266",
      "to": "0x4631bcabd6df18d94796344963cb60d44a4136b6",
      "contractAddress": null
    },
    {
      "status": "0x1",
      "cumulativeGasUsed": "0xb316e",
      "logs": [
        {
          "address": "0x4631bcabd6df18d94796344963cb60d44a4136b6",
          "topics": [
            "0xd78ddf5dda09409c5ba0a349a6c0149840d265112fa302b34dc3b322e7f675bc",
            "0xe108948b9667048232851f26a1427d3a908b22da622562906ca50ea536c2ecfb"
          ],
          "data": "0x000000000000000000000000000000000000000000000000000000146131ce80",
          "blockHash": "0xe9f3a6dd3e9fff9dd7f570708f84aaa0ece9b8e56fc920908992868c390ebfe8",
          "blockNumber": "0x15",
          "blockTimestamp": "0x69fccb3f",
          "transactionHash": "0x9abc314076276f9c6f59024bfa5988c2073f90e7d6f1bd4e572f47826f1236d0",
          "transactionIndex": "0x3",
          "logIndex": "0x2",
          "removed": false
        }
      ],
      "logsBloom": "0x00000000000000000000000000000000000000000000000000000000000000000000000000000000000000000000000000200000000000000000000000000000000000000000000000000000000000000000000000000000000000000000000000480000000000000000000000000000000000000000000000000000000000000000000000000000000000000000000000000000000000000000000000000000000000000000001000000000000000000200000000000000000000000000100000000000000000000000000000000000000000000000000000000000000000001000000000000000000000000000000400000000000000000000000020000000",
      "type": "0x0",
      "transactionHash": "0x9abc314076276f9c6f59024bfa5988c2073f90e7d6f1bd4e572f47826f1236d0",
      "transactionIndex": "0x3",
      "blockHash": "0xe9f3a6dd3e9fff9dd7f570708f84aaa0ece9b8e56fc920908992868c390ebfe8",
      "blockNumber": "0x15",
      "gasUsed": "0x11403",
      "effectiveGasPrice": "0x410c5f9f",
      "blobGasPrice": "0x1",
      "from": "0xf39fd6e51aad88f6f4ce6ab8827279cfffb92266",
      "to": "0x4631bcabd6df18d94796344963cb60d44a4136b6",
      "contractAddress": null
    },
    {
      "status": "0x1",
      "cumulativeGasUsed": "0xc4565",
      "logs": [
        {
          "address": "0x4631bcabd6df18d94796344963cb60d44a4136b6",
          "topics": [
            "0xd78ddf5dda09409c5ba0a349a6c0149840d265112fa302b34dc3b322e7f675bc",
            "0xb2023082f01404dd0ce6937cab03c4f5d6db9ba8b1fac7e7ee6d8d6d899f4e3d"
          ],
          "data": "0x00000000000000000000000000000000000000000000000000000009ad2b4600",
          "blockHash": "0xe9f3a6dd3e9fff9dd7f570708f84aaa0ece9b8e56fc920908992868c390ebfe8",
          "blockNumber": "0x15",
          "blockTimestamp": "0x69fccb3f",
          "transactionHash": "0x1a3c957c6052049407b647b2885fdb0bf1da8dbbb4636d6ed9f20426c5a5c395",
          "transactionIndex": "0x4",
          "logIndex": "0x3",
          "removed": false
        }
      ],
      "logsBloom": "0x00000000000000000000000000080000000000000000000000000000000000000000000000000000000000000000000000200000000000000000000000000000000000000000000000000000000000000000000000000000000000000000000000000000000000000000000000000000000000000000000000000000000000000000000000000000000000000000000000000000000000000000000000200000000000000000001000000000000000000200000000000000000000000000100000000000000000000000000000000000000000000000020000000000000000000000000000000000000000000000000400000000000000000000000020000000",
      "type": "0x0",
      "transactionHash": "0x1a3c957c6052049407b647b2885fdb0bf1da8dbbb4636d6ed9f20426c5a5c395",
      "transactionIndex": "0x4",
      "blockHash": "0xe9f3a6dd3e9fff9dd7f570708f84aaa0ece9b8e56fc920908992868c390ebfe8",
      "blockNumber": "0x15",
      "gasUsed": "0x113f7",
      "effectiveGasPrice": "0x410c5f9f",
      "blobGasPrice": "0x1",
      "from": "0xf39fd6e51aad88f6f4ce6ab8827279cfffb92266",
      "to": "0x4631bcabd6df18d94796344963cb60d44a4136b6",
      "contractAddress": null
    },
    {
      "status": "0x1",
      "cumulativeGasUsed": "0xd5968",
      "logs": [
        {
          "address": "0x4631bcabd6df18d94796344963cb60d44a4136b6",
          "topics": [
            "0xd78ddf5dda09409c5ba0a349a6c0149840d265112fa302b34dc3b322e7f675bc",
            "0x6c755094f1cdd95e2e4170549dc12e7555151536b32029b8d94678134de2ef0d"
          ],
          "data": "0x000000000000000000000000000000000000000000000000000000043db2d7c0",
          "blockHash": "0xe9f3a6dd3e9fff9dd7f570708f84aaa0ece9b8e56fc920908992868c390ebfe8",
          "blockNumber": "0x15",
          "blockTimestamp": "0x69fccb3f",
          "transactionHash": "0x5d6a8feb44a8e472b8594817b702d9f9f98dc69fd2b8cbbc9d50bcbf4267d15d",
          "transactionIndex": "0x5",
          "logIndex": "0x4",
          "removed": false
        }
      ],
      "logsBloom": "0x00000000000000000000000000000000000000000000000000000000000000000000000000000000000000000000000000200000000000000000000000000000000000000000080000000000000000000000000000000001000000000000000000000000000000000000000000000000000000000000000000000000000000000000000000000000000000000000000000000000000000000000000000000000000000000000001000000000000000000200000000000000000000000000100000000000000000000000000000000000000000000000000000000000000000000000000000004000000000000000000400000000000000000000000020000000",
      "type": "0x0",
      "transactionHash": "0x5d6a8feb44a8e472b8594817b702d9f9f98dc69fd2b8cbbc9d50bcbf4267d15d",
      "transactionIndex": "0x5",
      "blockHash": "0xe9f3a6dd3e9fff9dd7f570708f84aaa0ece9b8e56fc920908992868c390ebfe8",
      "blockNumber": "0x15",
      "gasUsed": "0x11403",
      "effectiveGasPrice": "0x410c5f9f",
      "blobGasPrice": "0x1",
      "from": "0xf39fd6e51aad88f6f4ce6ab8827279cfffb92266",
      "to": "0x4631bcabd6df18d94796344963cb60d44a4136b6",
      "contractAddress": null
    },
    {
      "status": "0x1",
      "cumulativeGasUsed": "0xe6d6b",
      "logs": [
        {
          "address": "0x4631bcabd6df18d94796344963cb60d44a4136b6",
          "topics": [
            "0xd78ddf5dda09409c5ba0a349a6c0149840d265112fa302b34dc3b322e7f675bc",
            "0x5480d4740314d9a5fa65eac6dab758c3c95d65be45311b45c3551575d760e7d8"
          ],
          "data": "0x00000000000000000000000000000000000000000000000000000003a0a3ef00",
          "blockHash": "0xe9f3a6dd3e9fff9dd7f570708f84aaa0ece9b8e56fc920908992868c390ebfe8",
          "blockNumber": "0x15",
          "blockTimestamp": "0x69fccb3f",
          "transactionHash": "0x379d3b3ca20e91bef717c66ec5f697cbfe150af4c8437fe52b4a23ce32bdb02c",
          "transactionIndex": "0x6",
          "logIndex": "0x5",
          "removed": false
        }
      ],
      "logsBloom": "0x00000000000000000000000000000000000000000000000000000000000000000000000000000000000000000000000000200000000000000000000000000000000000000000000000000000000000000000000000000000000000000008000000000000000000000000000000000000000000000000000000000000000000000000000000000000000000000000000000000000000000000000000000000000000000000000001000000000000000000200100000000000000800000000100000000000000000000000000000000000000000000000000000000000000000000000000000000000000000000000000400000000000000000000000020000000",
      "type": "0x0",
      "transactionHash": "0x379d3b3ca20e91bef717c66ec5f697cbfe150af4c8437fe52b4a23ce32bdb02c",
      "transactionIndex": "0x6",
      "blockHash": "0xe9f3a6dd3e9fff9dd7f570708f84aaa0ece9b8e56fc920908992868c390ebfe8",
      "blockNumber": "0x15",
      "gasUsed": "0x11403",
      "effectiveGasPrice": "0x410c5f9f",
      "blobGasPrice": "0x1",
      "from": "0xf39fd6e51aad88f6f4ce6ab8827279cfffb92266",
      "to": "0x4631bcabd6df18d94796344963cb60d44a4136b6",
      "contractAddress": null
    },
    {
      "status": "0x1",
      "cumulativeGasUsed": "0xf816e",
      "logs": [
        {
          "address": "0x4631bcabd6df18d94796344963cb60d44a4136b6",
          "topics": [
            "0xd78ddf5dda09409c5ba0a349a6c0149840d265112fa302b34dc3b322e7f675bc",
            "0x0057355892fab25ddc63a7482ec1696d6ada670339b1ae464da8f6b958ddbee8"
          ],
          "data": "0x0000000000000000000000000000000000000000000000000000000bb79a8f40",
          "blockHash": "0xe9f3a6dd3e9fff9dd7f570708f84aaa0ece9b8e56fc920908992868c390ebfe8",
          "blockNumber": "0x15",
          "blockTimestamp": "0x69fccb3f",
          "transactionHash": "0x200ba45ac351577b705eeac40ae08aae90c69edc668ba8162ef7fa8ac679d052",
          "transactionIndex": "0x7",
          "logIndex": "0x6",
          "removed": false
        }
      ],
      "logsBloom": "0x00000000000000000000000000000000000000000000000000000000000000000000000000000000000000000000000000200000000000000000000000000000000000000000000000000000000000000000000000000000000000000000000000000000100000000000000008000000000000000000000000000000000000000000000000000000000000000000000000000000000000000000000000000000000000000000001000000000000000000200000000000000000000000000100000000000000000000000000000000000000000000000000000000000000000400000000000000000000000000000000400000000000000000000000020000000",
      "type": "0x0",
      "transactionHash": "0x200ba45ac351577b705eeac40ae08aae90c69edc668ba8162ef7fa8ac679d052",
      "transactionIndex": "0x7",
      "blockHash": "0xe9f3a6dd3e9fff9dd7f570708f84aaa0ece9b8e56fc920908992868c390ebfe8",
      "blockNumber": "0x15",
      "gasUsed": "0x11403",
      "effectiveGasPrice": "0x410c5f9f",
      "blobGasPrice": "0x1",
      "from": "0xf39fd6e51aad88f6f4ce6ab8827279cfffb92266",
      "to": "0x4631bcabd6df18d94796344963cb60d44a4136b6",
      "contractAddress": null
    },
    {
      "status": "0x1",
      "cumulativeGasUsed": "0x109559",
      "logs": [
        {
          "address": "0x4631bcabd6df18d94796344963cb60d44a4136b6",
          "topics": [
            "0xd78ddf5dda09409c5ba0a349a6c0149840d265112fa302b34dc3b322e7f675bc",
            "0x7c66dfce614e9a88c33dd01ffd47e917575e527015d5ead8069719869ba53f20"
          ],
          "data": "0x000000000000000000000000000000000000000000000000000000049e8e6000",
          "blockHash": "0xe9f3a6dd3e9fff9dd7f570708f84aaa0ece9b8e56fc920908992868c390ebfe8",
          "blockNumber": "0x15",
          "blockTimestamp": "0x69fccb3f",
          "transactionHash": "0x5eaa30511fc7b85dc6a9aa9e7315f7de48ec9ee32c71ffa7646a6e89a15ecb1e",
          "transactionIndex": "0x8",
          "logIndex": "0x7",
          "removed": false
        }
      ],
      "logsBloom": "0x00000000000000000000000000000000000000000000000000000000000000000000000000004000000000000000000080200000000000000000000000000000000000000000000000000000000000000000000000000000000000000000000000000000000000000000000000000000000000000000000000000000000000000000000000000000000000000000000000000000000000000000000000000000000000000000001000000000000000000200000000000000000000000000110000000000000000000000000000000000000000000000000000000000000000000000000000000000000000000000000400000000000000000000000020000000",
      "type": "0x0",
      "transactionHash": "0x5eaa30511fc7b85dc6a9aa9e7315f7de48ec9ee32c71ffa7646a6e89a15ecb1e",
      "transactionIndex": "0x8",
      "blockHash": "0xe9f3a6dd3e9fff9dd7f570708f84aaa0ece9b8e56fc920908992868c390ebfe8",
      "blockNumber": "0x15",
      "gasUsed": "0x113eb",
      "effectiveGasPrice": "0x410c5f9f",
      "blobGasPrice": "0x1",
      "from": "0xf39fd6e51aad88f6f4ce6ab8827279cfffb92266",
      "to": "0x4631bcabd6df18d94796344963cb60d44a4136b6",
      "contractAddress": null
    },
    {
      "status": "0x1",
      "cumulativeGasUsed": "0x11a938",
      "logs": [
        {
          "address": "0x4631bcabd6df18d94796344963cb60d44a4136b6",
          "topics": [
            "0xd78ddf5dda09409c5ba0a349a6c0149840d265112fa302b34dc3b322e7f675bc",
            "0xf0da850a6b7c61a66cdd43ac7529affc6000442af1c1bdda1db3bb7220bf7613"
          ],
          "data": "0x0000000000000000000000000000000000000000000000000000000684558180",
          "blockHash": "0xe9f3a6dd3e9fff9dd7f570708f84aaa0ece9b8e56fc920908992868c390ebfe8",
          "blockNumber": "0x15",
          "blockTimestamp": "0x69fccb3f",
          "transactionHash": "0x615d74ee44dd546304e0a3ecd69bf783b33e070d98f5a1357042f1b95962c2b4",
          "transactionIndex": "0x9",
          "logIndex": "0x8",
          "removed": false
        }
      ],
      "logsBloom": "0x00000000000000000008000000000000000000000000000000000000000000000000000000000000000000000000000000200000000000000000000000000000000000000000000000000000000000000000000000000000000000000000000000000000000000000000000000000000000000000000000000000000000000000000000000000000000200000400000000000000000000000000000000000000000000000000001000000000000000000200000000000000000000000000100000000000000000000000000000000000000000000000000000000000000000000000000000000000000000000000000400000000000000000000000020000000",
      "type": "0x0",
      "transactionHash": "0x615d74ee44dd546304e0a3ecd69bf783b33e070d98f5a1357042f1b95962c2b4",
      "transactionIndex": "0x9",
      "blockHash": "0xe9f3a6dd3e9fff9dd7f570708f84aaa0ece9b8e56fc920908992868c390ebfe8",
      "blockNumber": "0x15",
      "gasUsed": "0x113df",
      "effectiveGasPrice": "0x410c5f9f",
      "blobGasPrice": "0x1",
      "from": "0xf39fd6e51aad88f6f4ce6ab8827279cfffb92266",
      "to": "0x4631bcabd6df18d94796344963cb60d44a4136b6",
      "contractAddress": null
    },
    {
      "status": "0x1",
      "cumulativeGasUsed": "0x12bd2f",
      "logs": [
        {
          "address": "0x4631bcabd6df18d94796344963cb60d44a4136b6",
          "topics": [
            "0xd78ddf5dda09409c5ba0a349a6c0149840d265112fa302b34dc3b322e7f675bc",
            "0x1ee390a6c6917753ffa9bb0bd83cc313e935b13e3daaba67038caf0e47f928f1"
          ],
          "data": "0x000000000000000000000000000000000000000000000000000000029da87ec0",
          "blockHash": "0xe9f3a6dd3e9fff9dd7f570708f84aaa0ece9b8e56fc920908992868c390ebfe8",
          "blockNumber": "0x15",
          "blockTimestamp": "0x69fccb3f",
          "transactionHash": "0x6cdac2a886b68f0a2beec7e87db0d31e4c5812f38fe2a55632e91eee175d1733",
          "transactionIndex": "0xa",
          "logIndex": "0x9",
          "removed": false
        }
      ],
      "logsBloom": "0x00000000000000000000000000000000000000000000000000000000000000000000000000000000000000000000000000200000000000000000000000000000000000000000000000000000000000000000000000000000000000000000000000000000000000000000000000000000000000000000000000000000000000000000000000000000000000000000000000000000000000000000000000000200000000000000001100000000000000010200000000000000000000000000100000000000000000000000000000000000000000000000000000000000000000000000000000000000000000000000000400000000000000000000000020000000",
      "type": "0x0",
      "transactionHash": "0x6cdac2a886b68f0a2beec7e87db0d31e4c5812f38fe2a55632e91eee175d1733",
      "transactionIndex": "0xa",
      "blockHash": "0xe9f3a6dd3e9fff9dd7f570708f84aaa0ece9b8e56fc920908992868c390ebfe8",
      "blockNumber": "0x15",
      "gasUsed": "0x113f7",
      "effectiveGasPrice": "0x410c5f9f",
      "blobGasPrice": "0x1",
      "from": "0xf39fd6e51aad88f6f4ce6ab8827279cfffb92266",
      "to": "0x4631bcabd6df18d94796344963cb60d44a4136b6",
      "contractAddress": null
    },
    {
      "status": "0x1",
      "cumulativeGasUsed": "0x13d132",
      "logs": [
        {
          "address": "0x4631bcabd6df18d94796344963cb60d44a4136b6",
          "topics": [
            "0xd78ddf5dda09409c5ba0a349a6c0149840d265112fa302b34dc3b322e7f675bc",
            "0x93524d81bcb78d74875943b3fa28cf64070d7736f6e1b17397c7ff43eaf73cfb"
          ],
          "data": "0x0000000000000000000000000000000000000000000000000000000ea4893e80",
          "blockHash": "0xe9f3a6dd3e9fff9dd7f570708f84aaa0ece9b8e56fc920908992868c390ebfe8",
          "blockNumber": "0x15",
          "blockTimestamp": "0x69fccb3f",
          "transactionHash": "0x5cfc409a8ab1ec5497c258b0fc5bb76fbe05f6a73b9b0208c11d9e09e3233ee3",
          "transactionIndex": "0xb",
          "logIndex": "0xa",
          "removed": false
        }
      ],
      "logsBloom": "0x00200000000000000000000000000000000000000000000000000000000000000000000000000000000000000000000000200000000000000000000000000000000000000000000000000000000000000000000000000000000000000000000000000000000000000000000000000000000000000000000000000000000000000000000000000000000000000000000000000000000000000000000000000000000000000000001000800000000000000200000000000000000000000000100000000000000000000000000000000000000000000000000000000000000000000000000000000000000000000000000400000000000000000100000020000000",
      "type": "0x0",
      "transactionHash": "0x5cfc409a8ab1ec5497c258b0fc5bb76fbe05f6a73b9b0208c11d9e09e3233ee3",
      "transactionIndex": "0xb",
      "blockHash": "0xe9f3a6dd3e9fff9dd7f570708f84aaa0ece9b8e56fc920908992868c390ebfe8",
      "blockNumber": "0x15",
      "gasUsed": "0x11403",
      "effectiveGasPrice": "0x410c5f9f",
      "blobGasPrice": "0x1",
      "from": "0xf39fd6e51aad88f6f4ce6ab8827279cfffb92266",
      "to": "0x4631bcabd6df18d94796344963cb60d44a4136b6",
      "contractAddress": null
    },
    {
      "status": "0x1",
      "cumulativeGasUsed": "0x14e51d",
      "logs": [
        {
          "address": "0x4631bcabd6df18d94796344963cb60d44a4136b6",
          "topics": [
            "0xd78ddf5dda09409c5ba0a349a6c0149840d265112fa302b34dc3b322e7f675bc",
            "0x7dc334e1540f8915732d66591fe866306abf9102ccd56a9c3bebab2f76f305fb"
          ],
          "data": "0x00000000000000000000000000000000000000000000000000000003d648d800",
          "blockHash": "0xe9f3a6dd3e9fff9dd7f570708f84aaa0ece9b8e56fc920908992868c390ebfe8",
          "blockNumber": "0x15",
          "blockTimestamp": "0x69fccb3f",
          "transactionHash": "0x32ab28be24ddce257b253dcc71df27e62056b043b794e1ab6d88db64dfae1bb1",
          "transactionIndex": "0xc",
          "logIndex": "0xb",
          "removed": false
        }
      ],
      "logsBloom": "0x00000000000000000000000000000000000000000400000000000000000000000000000000000000000000000000000000200000000000000000000000000000000000000000000000000000000000000000000000000000000000000000000000000000000000000000000000000000000000000000000000000000000000000000000000000000000000000000000000000000000000000000004000000000000000000000001000000000000000000200000000000000000000000000100000000000000000000000000000000000000000000000000000000000000000000000000000000000000000000000000400000000000000002000000020000000",
      "type": "0x0",
      "transactionHash": "0x32ab28be24ddce257b253dcc71df27e62056b043b794e1ab6d88db64dfae1bb1",
      "transactionIndex": "0xc",
      "blockHash": "0xe9f3a6dd3e9fff9dd7f570708f84aaa0ece9b8e56fc920908992868c390ebfe8",
      "blockNumber": "0x15",
      "gasUsed": "0x113eb",
      "effectiveGasPrice": "0x410c5f9f",
      "blobGasPrice": "0x1",
      "from": "0xf39fd6e51aad88f6f4ce6ab8827279cfffb92266",
      "to": "0x4631bcabd6df18d94796344963cb60d44a4136b6",
      "contractAddress": null
    },
    {
      "status": "0x1",
      "cumulativeGasUsed": "0x296c25",
      "logs": [],
      "logsBloom": "0x00000000000000000000000000000000000000000000000000000000000000000000000000000000000000000000000000000000000000000000000000000000000000000000000000000000000000000000000000000000000000000000000000000000000000000000000000000000000000000000000000000000000000000000000000000000000000000000000000000000000000000000000000000000000000000000000000000000000000000000000000000000000000000000000000000000000000000000000000000000000000000000000000000000000000000000000000000000000000000000000000000000000000000000000000000000",
      "type": "0x0",
      "transactionHash": "0xadd61ed0d0898b4efd6fded8437db4007b4bb29ba9a533bfe0392757becea459",
      "transactionIndex": "0xd",
      "blockHash": "0xe9f3a6dd3e9fff9dd7f570708f84aaa0ece9b8e56fc920908992868c390ebfe8",
      "blockNumber": "0x15",
      "gasUsed": "0x148708",
      "effectiveGasPrice": "0x410c5f9f",
      "blobGasPrice": "0x1",
      "from": "0xf39fd6e51aad88f6f4ce6ab8827279cfffb92266",
      "to": null,
      "contractAddress": "0xf8e31cb472bc70500f08cd84917e5a1912ec8397"
    },
    {
      "status": "0x1",
      "cumulativeGasUsed": "0x45319b",
      "logs": [],
      "logsBloom": "0x00000000000000000000000000000000000000000000000000000000000000000000000000000000000000000000000000000000000000000000000000000000000000000000000000000000000000000000000000000000000000000000000000000000000000000000000000000000000000000000000000000000000000000000000000000000000000000000000000000000000000000000000000000000000000000000000000000000000000000000000000000000000000000000000000000000000000000000000000000000000000000000000000000000000000000000000000000000000000000000000000000000000000000000000000000000",
      "type": "0x0",
      "transactionHash": "0x9c7dae67ccbe1cc0bdaa9ac79caccf169d74836c74390d44c313d1a021c415d8",
      "transactionIndex": "0xe",
      "blockHash": "0xe9f3a6dd3e9fff9dd7f570708f84aaa0ece9b8e56fc920908992868c390ebfe8",
      "blockNumber": "0x15",
      "gasUsed": "0x1bc576",
      "effectiveGasPrice": "0x410c5f9f",
      "blobGasPrice": "0x1",
      "from": "0xf39fd6e51aad88f6f4ce6ab8827279cfffb92266",
      "to": null,
      "contractAddress": "0xc0f115a19107322cfbf1cdbc7ea011c19ebdb4f8"
    },
    {
      "status": "0x1",
      "cumulativeGasUsed": "0x48b27f",
      "logs": [
        {
          "address": "0xf8e31cb472bc70500f08cd84917e5a1912ec8397",
          "topics": [
            "0xe5f9c5663822b3882e2fa8f5fcbc56db18ccc15ec0ad63010c1e27bff6eb9269",
            "0x3a54a9a690616fbc26cfc409bf11f89d51f1d57a4ab2791fb86026cee74ed2f3"
          ],
          "data": "0x00000000000000000000000066a17ec6720cf120ba9f6512b529d8d80e5cd1d7000000000000000000000000c0f115a19107322cfbf1cdbc7ea011c19ebdb4f8",
          "blockHash": "0xe9f3a6dd3e9fff9dd7f570708f84aaa0ece9b8e56fc920908992868c390ebfe8",
          "blockNumber": "0x15",
          "blockTimestamp": "0x69fccb3f",
          "transactionHash": "0x18bc97d25d109a3420cf52e7ba7bff68ddc48a60ddab20a42b123be58bf9b10c",
          "transactionIndex": "0xf",
          "logIndex": "0xc",
          "removed": false
        }
      ],
      "logsBloom": "0x00000000000000000000000000000000000000000000000000000000000000000000000000000000000000000000000000000000000000000002000000000000000000000000000000000000000000000000000000000000000000000000000000000000000000000000000000000000000000000000000000000000000000000000000000000000000000000000000000000000000000000000000000000000000000000000000400000000000000000100000000000000000000000000000000000000000000000000000001000000000800000000000000200000000000800000000000000000000000000000800000000100000000000000000000000000",
      "type": "0x0",
      "transactionHash": "0x18bc97d25d109a3420cf52e7ba7bff68ddc48a60ddab20a42b123be58bf9b10c",
      "transactionIndex": "0xf",
      "blockHash": "0xe9f3a6dd3e9fff9dd7f570708f84aaa0ece9b8e56fc920908992868c390ebfe8",
      "blockNumber": "0x15",
      "gasUsed": "0x380e4",
      "effectiveGasPrice": "0x410c5f9f",
      "blobGasPrice": "0x1",
      "from": "0xf39fd6e51aad88f6f4ce6ab8827279cfffb92266",
      "to": "0xf8e31cb472bc70500f08cd84917e5a1912ec8397",
      "contractAddress": null
    },
    {
      "status": "0x1",
      "cumulativeGasUsed": "0x49ca67",
      "logs": [
        {
          "address": "0xc0f115a19107322cfbf1cdbc7ea011c19ebdb4f8",
          "topics": [
            "0x9190ede1bbf154005e1cdc753cb24ff7912bf4412bf72342e5ab03ee770facf0",
            "0x3a54a9a690616fbc26cfc409bf11f89d51f1d57a4ab2791fb86026cee74ed2f3"
          ],
          "data": "0x000000000000000000000000000000000000000000000000000000000000004000000000000000000000000066a17ec6720cf120ba9f6512b529d8d80e5cd1d700000000000000000000000000000000000000000000000000000000000000044141504c00000000000000000000000000000000000000000000000000000000",
          "blockHash": "0xe9f3a6dd3e9fff9dd7f570708f84aaa0ece9b8e56fc920908992868c390ebfe8",
          "blockNumber": "0x15",
          "blockTimestamp": "0x69fccb3f",
          "transactionHash": "0x5e6ce41bccb206e5c6a59d24dffad7915c5b7f09c0942327ec1361861e38e808",
          "transactionIndex": "0x10",
          "logIndex": "0xd",
          "removed": false
        }
      ],
      "logsBloom": "0x00000010000000000000000000000000000000000000002000000000000000000000000000000000000000000000000000000000000000000002000000000000000000000000000100000000000000000000000000000000000000000000000000000000000000000000000000000000000000000000000000000000000000000000000000000000000000000000000000000000000000000000000000000000000000000000000000000000000000000100000000000000000000000000000000000008000000000000000001000000000000000000000000000000000000000000000000020000000000000008000000000000000000000000000000000000",
      "type": "0x0",
      "transactionHash": "0x5e6ce41bccb206e5c6a59d24dffad7915c5b7f09c0942327ec1361861e38e808",
      "transactionIndex": "0x10",
      "blockHash": "0xe9f3a6dd3e9fff9dd7f570708f84aaa0ece9b8e56fc920908992868c390ebfe8",
      "blockNumber": "0x15",
      "gasUsed": "0x117e8",
      "effectiveGasPrice": "0x410c5f9f",
      "blobGasPrice": "0x1",
      "from": "0xf39fd6e51aad88f6f4ce6ab8827279cfffb92266",
      "to": "0xc0f115a19107322cfbf1cdbc7ea011c19ebdb4f8",
      "contractAddress": null
    },
    {
      "status": "0x1",
      "cumulativeGasUsed": "0x4d087f",
      "logs": [
        {
          "address": "0xf8e31cb472bc70500f08cd84917e5a1912ec8397",
          "topics": [
            "0xe5f9c5663822b3882e2fa8f5fcbc56db18ccc15ec0ad63010c1e27bff6eb9269",
            "0x0a8f1f385fed9c77a2e0daa363ccc865e971bdbe4458bb570cc0acb068d7c0f2"
          ],
          "data": "0x00000000000000000000000093b87e23ae6f5345ecc1ff20323a2def3351f579000000000000000000000000c0f115a19107322cfbf1cdbc7ea011c19ebdb4f8",
          "blockHash": "0xe9f3a6dd3e9fff9dd7f570708f84aaa0ece9b8e56fc920908992868c390ebfe8",
          "blockNumber": "0x15",
          "blockTimestamp": "0x69fccb3f",
          "transactionHash": "0x5c2b7eaf902314722b0f81b7d15f00867f75deaba28e15692be07020d6055458",
          "transactionIndex": "0x11",
          "logIndex": "0xe",
          "removed": false
        }
      ],
      "logsBloom": "0x00000000000000000000000000000000000000000000000000000000000000000000000000000001000000000000000000000000000000000000000000000000000000000000000000000000000000000000000000000000000000000000000000000000000000000000000000000000000000000000000000000000000000000000000000000000000000000000000000000000000000000000000000000000000000000000000400000000000000000004002000000000000000000000000000000000000000000000000000000000000800000000000000200000000000800000000000000000000000000000800000000100000000000000000000000000",
      "type": "0x0",
      "transactionHash": "0x5c2b7eaf902314722b0f81b7d15f00867f75deaba28e15692be07020d6055458",
      "transactionIndex": "0x11",
      "blockHash": "0xe9f3a6dd3e9fff9dd7f570708f84aaa0ece9b8e56fc920908992868c390ebfe8",
      "blockNumber": "0x15",
      "gasUsed": "0x33e18",
      "effectiveGasPrice": "0x410c5f9f",
      "blobGasPrice": "0x1",
      "from": "0xf39fd6e51aad88f6f4ce6ab8827279cfffb92266",
      "to": "0xf8e31cb472bc70500f08cd84917e5a1912ec8397",
      "contractAddress": null
    },
    {
      "status": "0x1",
      "cumulativeGasUsed": "0x4e2067",
      "logs": [
        {
          "address": "0xc0f115a19107322cfbf1cdbc7ea011c19ebdb4f8",
          "topics": [
            "0x9190ede1bbf154005e1cdc753cb24ff7912bf4412bf72342e5ab03ee770facf0",
            "0x0a8f1f385fed9c77a2e0daa363ccc865e971bdbe4458bb570cc0acb068d7c0f2"
          ],
          "data": "0x000000000000000000000000000000000000000000000000000000000000004000000000000000000000000093b87e23ae6f5345ecc1ff20323a2def3351f579000000000000000000000000000000000000000000000000000000000000000454534c4100000000000000000000000000000000000000000000000000000000",
          "blockHash": "0xe9f3a6dd3e9fff9dd7f570708f84aaa0ece9b8e56fc920908992868c390ebfe8",
          "blockNumber": "0x15",
          "blockTimestamp": "0x69fccb3f",
          "transactionHash": "0xcbec35e088c5b69c5349f81e090db74c0eaa0802e2e9a8104c63e9d665036bbc",
          "transactionIndex": "0x12",
          "logIndex": "0xf",
          "removed": false
        }
      ],
      "logsBloom": "0x00000010000000000000000000000000000000000000002000000000000000000000000000000001000000000000000000000000000000000000000000000000000000000000000100000000000000000000000000000000000000000000000000000000000000000000000000000000000000000000000000000000000000000000000000000000000000000000000000000000000000000000000000000000000000000000000000000000000000000004002000000000000000000000000000000008000000000000000000000000000000000000000000000000000000000000000000020000000000000008000000000000000000000000000000000000",
      "type": "0x0",
      "transactionHash": "0xcbec35e088c5b69c5349f81e090db74c0eaa0802e2e9a8104c63e9d665036bbc",
      "transactionIndex": "0x12",
      "blockHash": "0xe9f3a6dd3e9fff9dd7f570708f84aaa0ece9b8e56fc920908992868c390ebfe8",
      "blockNumber": "0x15",
      "gasUsed": "0x117e8",
      "effectiveGasPrice": "0x410c5f9f",
      "blobGasPrice": "0x1",
      "from": "0xf39fd6e51aad88f6f4ce6ab8827279cfffb92266",
      "to": "0xc0f115a19107322cfbf1cdbc7ea011c19ebdb4f8",
      "contractAddress": null
    },
    {
      "status": "0x1",
      "cumulativeGasUsed": "0x515e97",
      "logs": [
        {
          "address": "0xf8e31cb472bc70500f08cd84917e5a1912ec8397",
          "topics": [
            "0xe5f9c5663822b3882e2fa8f5fcbc56db18ccc15ec0ad63010c1e27bff6eb9269",
            "0xe108948b9667048232851f26a1427d3a908b22da622562906ca50ea536c2ecfb"
          ],
          "data": "0x0000000000000000000000003008c1e01962fbfb8df578bf5b881d5ab9ae49b1000000000000000000000000c0f115a19107322cfbf1cdbc7ea011c19ebdb4f8",
          "blockHash": "0xe9f3a6dd3e9fff9dd7f570708f84aaa0ece9b8e56fc920908992868c390ebfe8",
          "blockNumber": "0x15",
          "blockTimestamp": "0x69fccb3f",
          "transactionHash": "0x17e118fce8e8212dcb1122be021a2f54cf4595597c3810f1d6c4d7429d60a461",
          "transactionIndex": "0x13",
          "logIndex": "0x10",
          "removed": false
        }
      ],
      "logsBloom": "0x00000000000000000000000000000000000000000000000000000000000000000000000000000000000000000000000000000000000000000000000000000000000000000000000000000000000000000000000000000000000000000000000000480000000000000000000000000000000000000000000000000000000000000000000000000000000000000000000000000000000000000000000000000000000000000000000400000000000000000000000000000000000000000000000000000000000000000000000000000000000800000000000000200000000000801000000000000000000000000000800000000100000000000000000000000000",
      "type": "0x0",
      "transactionHash": "0x17e118fce8e8212dcb1122be021a2f54cf4595597c3810f1d6c4d7429d60a461",
      "transactionIndex": "0x13",
      "blockHash": "0xe9f3a6dd3e9fff9dd7f570708f84aaa0ece9b8e56fc920908992868c390ebfe8",
      "blockNumber": "0x15",
      "gasUsed": "0x33e30",
      "effectiveGasPrice": "0x410c5f9f",
      "blobGasPrice": "0x1",
      "from": "0xf39fd6e51aad88f6f4ce6ab8827279cfffb92266",
      "to": "0xf8e31cb472bc70500f08cd84917e5a1912ec8397",
      "contractAddress": null
    },
    {
      "status": "0x1",
      "cumulativeGasUsed": "0x52767f",
      "logs": [
        {
          "address": "0xc0f115a19107322cfbf1cdbc7ea011c19ebdb4f8",
          "topics": [
            "0x9190ede1bbf154005e1cdc753cb24ff7912bf4412bf72342e5ab03ee770facf0",
            "0xe108948b9667048232851f26a1427d3a908b22da622562906ca50ea536c2ecfb"
          ],
          "data": "0x00000000000000000000000000000000000000000000000000000000000000400000000000000000000000003008c1e01962fbfb8df578bf5b881d5ab9ae49b100000000000000000000000000000000000000000000000000000000000000044e56444100000000000000000000000000000000000000000000000000000000",
          "blockHash": "0xe9f3a6dd3e9fff9dd7f570708f84aaa0ece9b8e56fc920908992868c390ebfe8",
          "blockNumber": "0x15",
          "blockTimestamp": "0x69fccb3f",
          "transactionHash": "0xd09cf22d96965ec7bf06025a4024368c96fe86c83dc270c852fe1ef035d41c0f",
          "transactionIndex": "0x14",
          "logIndex": "0x11",
          "removed": false
        }
      ],
      "logsBloom": "0x00000010000000000000000000000000000000000000002000000000000000000000000000000000000000000000000000000000000000000000000000000000000000000000000100000000000000000000000000000000000000000000000000480000000000000000000000000000000000000000000000000000000000000000000000000000000000000000000000000000000000000000000000000000000000000000000000000000000000000000000000000000000000000000000000000008000000000000000000000000000000000000000000000000000000001000000000020000000000000008000000000000000000000000000000000000",
      "type": "0x0",
      "transactionHash": "0xd09cf22d96965ec7bf06025a4024368c96fe86c83dc270c852fe1ef035d41c0f",
      "transactionIndex": "0x14",
      "blockHash": "0xe9f3a6dd3e9fff9dd7f570708f84aaa0ece9b8e56fc920908992868c390ebfe8",
      "blockNumber": "0x15",
      "gasUsed": "0x117e8",
      "effectiveGasPrice": "0x410c5f9f",
      "blobGasPrice": "0x1",
      "from": "0xf39fd6e51aad88f6f4ce6ab8827279cfffb92266",
      "to": "0xc0f115a19107322cfbf1cdbc7ea011c19ebdb4f8",
      "contractAddress": null
    },
    {
      "status": "0x1",
      "cumulativeGasUsed": "0x55b4d3",
      "logs": [
        {
          "address": "0xf8e31cb472bc70500f08cd84917e5a1912ec8397",
          "topics": [
            "0xe5f9c5663822b3882e2fa8f5fcbc56db18ccc15ec0ad63010c1e27bff6eb9269",
            "0xb2023082f01404dd0ce6937cab03c4f5d6db9ba8b1fac7e7ee6d8d6d899f4e3d"
          ],
          "data": "0x0000000000000000000000003843bf082cdcb54f1003727bd6a0e92aa599709d000000000000000000000000c0f115a19107322cfbf1cdbc7ea011c19ebdb4f8",
          "blockHash": "0xe9f3a6dd3e9fff9dd7f570708f84aaa0ece9b8e56fc920908992868c390ebfe8",
          "blockNumber": "0x15",
          "blockTimestamp": "0x69fccb3f",
          "transactionHash": "0x066061fb9dfde96d01b7d6ff9b42510763afc263d1132a5a6709af2e39126cce",
          "transactionIndex": "0x15",
          "logIndex": "0x12",
          "removed": false
        }
      ],
      "logsBloom": "0x00000000000000000000000000080000000000000000000000000000000000000000000000000000000000000000000000000000000000000000000000000000000000000000000000000000000000000000000000000000000000000000000000000000000000000000000000000000000000000000000000000000000000000000000000000000000000000000000000000000000000000000000000200000000000000000000400000000000000000000000000000000000000000000000000000000000000000000000000000000000800000000020000200000000000800000000000000000000000000000800000000100000000000000000000000000",
      "type": "0x0",
      "transactionHash": "0x066061fb9dfde96d01b7d6ff9b42510763afc263d1132a5a6709af2e39126cce",
      "transactionIndex": "0x15",
      "blockHash": "0xe9f3a6dd3e9fff9dd7f570708f84aaa0ece9b8e56fc920908992868c390ebfe8",
      "blockNumber": "0x15",
      "gasUsed": "0x33e54",
      "effectiveGasPrice": "0x410c5f9f",
      "blobGasPrice": "0x1",
      "from": "0xf39fd6e51aad88f6f4ce6ab8827279cfffb92266",
      "to": "0xf8e31cb472bc70500f08cd84917e5a1912ec8397",
      "contractAddress": null
    },
    {
      "status": "0x1",
      "cumulativeGasUsed": "0x56ccbb",
      "logs": [
        {
          "address": "0xc0f115a19107322cfbf1cdbc7ea011c19ebdb4f8",
          "topics": [
            "0x9190ede1bbf154005e1cdc753cb24ff7912bf4412bf72342e5ab03ee770facf0",
            "0xb2023082f01404dd0ce6937cab03c4f5d6db9ba8b1fac7e7ee6d8d6d899f4e3d"
          ],
          "data": "0x00000000000000000000000000000000000000000000000000000000000000400000000000000000000000003843bf082cdcb54f1003727bd6a0e92aa599709d00000000000000000000000000000000000000000000000000000000000000044d53465400000000000000000000000000000000000000000000000000000000",
          "blockHash": "0xe9f3a6dd3e9fff9dd7f570708f84aaa0ece9b8e56fc920908992868c390ebfe8",
          "blockNumber": "0x15",
          "blockTimestamp": "0x69fccb3f",
          "transactionHash": "0x02f6530e91054ed948d9295a9ec9ccf6f2911766033bfcd7924dee7cf6b1686d",
          "transactionIndex": "0x16",
          "logIndex": "0x13",
          "removed": false
        }
      ],
      "logsBloom": "0x00000010000000000000000000080000000000000000002000000000000000000000000000000000000000000000000000000000000000000000000000000000000000000000000100000000000000000000000000000000000000000000000000000000000000000000000000000000000000000000000000000000000000000000000000000000000000000000000000000000000000000000000000200000000000000000000000000000000000000000000000000000000000000000000000000008000000000000000000000000000000000000020000000000000000000000000000020000000000000008000000000000000000000000000000000000",
      "type": "0x0",
      "transactionHash": "0x02f6530e91054ed948d9295a9ec9ccf6f2911766033bfcd7924dee7cf6b1686d",
      "transactionIndex": "0x16",
      "blockHash": "0xe9f3a6dd3e9fff9dd7f570708f84aaa0ece9b8e56fc920908992868c390ebfe8",
      "blockNumber": "0x15",
      "gasUsed": "0x117e8",
      "effectiveGasPrice": "0x410c5f9f",
      "blobGasPrice": "0x1",
      "from": "0xf39fd6e51aad88f6f4ce6ab8827279cfffb92266",
      "to": "0xc0f115a19107322cfbf1cdbc7ea011c19ebdb4f8",
      "contractAddress": null
    },
    {
      "status": "0x1",
      "cumulativeGasUsed": "0x5a0b0f",
      "logs": [
        {
          "address": "0xf8e31cb472bc70500f08cd84917e5a1912ec8397",
          "topics": [
            "0xe5f9c5663822b3882e2fa8f5fcbc56db18ccc15ec0ad63010c1e27bff6eb9269",
            "0x6c755094f1cdd95e2e4170549dc12e7555151536b32029b8d94678134de2ef0d"
          ],
          "data": "0x000000000000000000000000e9ee6273f0b362c12731ea72fe4d54ad4d7cc66e000000000000000000000000c0f115a19107322cfbf1cdbc7ea011c19ebdb4f8",
          "blockHash": "0xe9f3a6dd3e9fff9dd7f570708f84aaa0ece9b8e56fc920908992868c390ebfe8",
          "blockNumber": "0x15",
          "blockTimestamp": "0x69fccb3f",
          "transactionHash": "0x042590e4fc94a652fb503737473b0d3db6869b3c55d8cef303d34e49296eb7c9",
          "transactionIndex": "0x17",
          "logIndex": "0x14",
          "removed": false
        }
      ],
      "logsBloom": "0x00000000000000000000000000000000000000000000000000000000000000000000000000000000000000000000000000000000000000000000000000000000000000000000080000000000000000000000000000000001000000000000000000000000000000000000000000000000000000000000000000000000000000000000000000000000000000000000000000000000000000000000000000000000000000000000000400000000000000000000000000000000000000000000000000000000000000000000000000000000000800000000000000200000000000800000000000004000000000000000800000000100000000000000000000000000",
      "type": "0x0",
      "transactionHash": "0x042590e4fc94a652fb503737473b0d3db6869b3c55d8cef303d34e49296eb7c9",
      "transactionIndex": "0x17",
      "blockHash": "0xe9f3a6dd3e9fff9dd7f570708f84aaa0ece9b8e56fc920908992868c390ebfe8",
      "blockNumber": "0x15",
      "gasUsed": "0x33e54",
      "effectiveGasPrice": "0x410c5f9f",
      "blobGasPrice": "0x1",
      "from": "0xf39fd6e51aad88f6f4ce6ab8827279cfffb92266",
      "to": "0xf8e31cb472bc70500f08cd84917e5a1912ec8397",
      "contractAddress": null
    },
    {
      "status": "0x1",
      "cumulativeGasUsed": "0x5b22f7",
      "logs": [
        {
          "address": "0xc0f115a19107322cfbf1cdbc7ea011c19ebdb4f8",
          "topics": [
            "0x9190ede1bbf154005e1cdc753cb24ff7912bf4412bf72342e5ab03ee770facf0",
            "0x6c755094f1cdd95e2e4170549dc12e7555151536b32029b8d94678134de2ef0d"
          ],
          "data": "0x0000000000000000000000000000000000000000000000000000000000000040000000000000000000000000e9ee6273f0b362c12731ea72fe4d54ad4d7cc66e0000000000000000000000000000000000000000000000000000000000000004414d5a4e00000000000000000000000000000000000000000000000000000000",
          "blockHash": "0xe9f3a6dd3e9fff9dd7f570708f84aaa0ece9b8e56fc920908992868c390ebfe8",
          "blockNumber": "0x15",
          "blockTimestamp": "0x69fccb3f",
          "transactionHash": "0xf1ef0a08d0a45bc1a862e539c4f439ca405164791b8815a575da909f6a07ebe1",
          "transactionIndex": "0x18",
          "logIndex": "0x15",
          "removed": false
        }
      ],
      "logsBloom": "0x00000010000000000000000000000000000000000000002000000000000000000000000000000000000000000000000000000000000000000000000000000000000000000000080100000000000000000000000000000001000000000000000000000000000000000000000000000000000000000000000000000000000000000000000000000000000000000000000000000000000000000000000000000000000000000000000000000000000000000000000000000000000000000000000000000008000000000000000000000000000000000000000000000000000000000000000000024000000000000008000000000000000000000000000000000000",
      "type": "0x0",
      "transactionHash": "0xf1ef0a08d0a45bc1a862e539c4f439ca405164791b8815a575da909f6a07ebe1",
      "transactionIndex": "0x18",
      "blockHash": "0xe9f3a6dd3e9fff9dd7f570708f84aaa0ece9b8e56fc920908992868c390ebfe8",
      "blockNumber": "0x15",
      "gasUsed": "0x117e8",
      "effectiveGasPrice": "0x410c5f9f",
      "blobGasPrice": "0x1",
      "from": "0xf39fd6e51aad88f6f4ce6ab8827279cfffb92266",
      "to": "0xc0f115a19107322cfbf1cdbc7ea011c19ebdb4f8",
      "contractAddress": null
    },
    {
      "status": "0x1",
      "cumulativeGasUsed": "0x5e613f",
      "logs": [
        {
          "address": "0xf8e31cb472bc70500f08cd84917e5a1912ec8397",
          "topics": [
            "0xe5f9c5663822b3882e2fa8f5fcbc56db18ccc15ec0ad63010c1e27bff6eb9269",
            "0x5480d4740314d9a5fa65eac6dab758c3c95d65be45311b45c3551575d760e7d8"
          ],
          "data": "0x000000000000000000000000f77a3843cd026fc37f0c85525470bc71288bf452000000000000000000000000c0f115a19107322cfbf1cdbc7ea011c19ebdb4f8",
          "blockHash": "0xe9f3a6dd3e9fff9dd7f570708f84aaa0ece9b8e56fc920908992868c390ebfe8",
          "blockNumber": "0x15",
          "blockTimestamp": "0x69fccb3f",
          "transactionHash": "0x92ffdd39852498f69a4136228d1ee5015a7e388dad8c0bacbceba6852a899c3e",
          "transactionIndex": "0x19",
          "logIndex": "0x16",
          "removed": false
        }
      ],
      "logsBloom": "0x00000000000000000000000000000000000000000000000000000000000000000000000000000000000000000000000000000000000000000000000000000000000000000000000000000000000000000000000000000000000000000008000000000000000000000000000000000000000000000000000000000000000000000000000000000000000000000000000000000000000000000000000000000000000000000000000400000000000000000000100000000000000800000000000000000000000000000000000000000000000800000000000000200000000000800000000000000000000000000000800000000100000000000000000000000000",
      "type": "0x0",
      "transactionHash": "0x92ffdd39852498f69a4136228d1ee5015a7e388dad8c0bacbceba6852a899c3e",
      "transactionIndex": "0x19",
      "blockHash": "0xe9f3a6dd3e9fff9dd7f570708f84aaa0ece9b8e56fc920908992868c390ebfe8",
      "blockNumber": "0x15",
      "gasUsed": "0x33e48",
      "effectiveGasPrice": "0x410c5f9f",
      "blobGasPrice": "0x1",
      "from": "0xf39fd6e51aad88f6f4ce6ab8827279cfffb92266",
      "to": "0xf8e31cb472bc70500f08cd84917e5a1912ec8397",
      "contractAddress": null
    },
    {
      "status": "0x1",
      "cumulativeGasUsed": "0x5f7933",
      "logs": [
        {
          "address": "0xc0f115a19107322cfbf1cdbc7ea011c19ebdb4f8",
          "topics": [
            "0x9190ede1bbf154005e1cdc753cb24ff7912bf4412bf72342e5ab03ee770facf0",
            "0x5480d4740314d9a5fa65eac6dab758c3c95d65be45311b45c3551575d760e7d8"
          ],
          "data": "0x0000000000000000000000000000000000000000000000000000000000000040000000000000000000000000f77a3843cd026fc37f0c85525470bc71288bf4520000000000000000000000000000000000000000000000000000000000000005474f4f474c000000000000000000000000000000000000000000000000000000",
          "blockHash": "0xe9f3a6dd3e9fff9dd7f570708f84aaa0ece9b8e56fc920908992868c390ebfe8",
          "blockNumber": "0x15",
          "blockTimestamp": "0x69fccb3f",
          "transactionHash": "0x53cdb73e4de3d74aaa14995f7be370b31bc808be6689ce0360d56c07486c11a4",
          "transactionIndex": "0x1a",
          "logIndex": "0x17",
          "removed": false
        }
      ],
      "logsBloom": "0x00000010000000000000000000000000000000000000002000000000000000000000000000000000000000000000000000000000000000000000000000000000000000000000000100000000000000000000000000000000000000000008000000000000000000000000000000000000000000000000000000000000000000000000000000000000000000000000000000000000000000000000000000000000000000000000000000000000000000000000100000000000000800000000000000000008000000000000000000000000000000000000000000000000000000000000000000020000000000000008000000000000000000000000000000000000",
      "type": "0x0",
      "transactionHash": "0x53cdb73e4de3d74aaa14995f7be370b31bc808be6689ce0360d56c07486c11a4",
      "transactionIndex": "0x1a",
      "blockHash": "0xe9f3a6dd3e9fff9dd7f570708f84aaa0ece9b8e56fc920908992868c390ebfe8",
      "blockNumber": "0x15",
      "gasUsed": "0x117f4",
      "effectiveGasPrice": "0x410c5f9f",
      "blobGasPrice": "0x1",
      "from": "0xf39fd6e51aad88f6f4ce6ab8827279cfffb92266",
      "to": "0xc0f115a19107322cfbf1cdbc7ea011c19ebdb4f8",
      "contractAddress": null
    },
    {
      "status": "0x1",
      "cumulativeGasUsed": "0x62b77b",
      "logs": [
        {
          "address": "0xf8e31cb472bc70500f08cd84917e5a1912ec8397",
          "topics": [
            "0xe5f9c5663822b3882e2fa8f5fcbc56db18ccc15ec0ad63010c1e27bff6eb9269",
            "0x0057355892fab25ddc63a7482ec1696d6ada670339b1ae464da8f6b958ddbee8"
          ],
          "data": "0x000000000000000000000000444f3cd6da9827f64c37ffe0db6d25c521742127000000000000000000000000c0f115a19107322cfbf1cdbc7ea011c19ebdb4f8",
          "blockHash": "0xe9f3a6dd3e9fff9dd7f570708f84aaa0ece9b8e56fc920908992868c390ebfe8",
          "blockNumber": "0x15",
          "blockTimestamp": "0x69fccb3f",
          "transactionHash": "0x62991081ea2e02d3152dd9072c99fb6222b91640fa883b59ef6b04e8059d530c",
          "transactionIndex": "0x1b",
          "logIndex": "0x18",
          "removed": false
        }
      ],
      "logsBloom": "0x00000000000000000000000000000000000000000000000000000000000000000000000000000000000000000000000000000000000000000000000000000000000000000000000000000000000000000000000000000000000000000000000000000000100000000000000008000000000000000000000000000000000000000000000000000000000000000000000000000000000000000000000000000000000000000000000400000000000000000000000000000000000000000000000000000000000000000000000000000000000800000000000000200000000000c00000000000000000000000000000800000000100000000000000000000000000",
      "type": "0x0",
      "transactionHash": "0x62991081ea2e02d3152dd9072c99fb6222b91640fa883b59ef6b04e8059d530c",
      "transactionIndex": "0x1b",
      "blockHash": "0xe9f3a6dd3e9fff9dd7f570708f84aaa0ece9b8e56fc920908992868c390ebfe8",
      "blockNumber": "0x15",
      "gasUsed": "0x33e48",
      "effectiveGasPrice": "0x410c5f9f",
      "blobGasPrice": "0x1",
      "from": "0xf39fd6e51aad88f6f4ce6ab8827279cfffb92266",
      "to": "0xf8e31cb472bc70500f08cd84917e5a1912ec8397",
      "contractAddress": null
    },
    {
      "status": "0x1",
      "cumulativeGasUsed": "0x63cf63",
      "logs": [
        {
          "address": "0xc0f115a19107322cfbf1cdbc7ea011c19ebdb4f8",
          "topics": [
            "0x9190ede1bbf154005e1cdc753cb24ff7912bf4412bf72342e5ab03ee770facf0",
            "0x0057355892fab25ddc63a7482ec1696d6ada670339b1ae464da8f6b958ddbee8"
          ],
          "data": "0x0000000000000000000000000000000000000000000000000000000000000040000000000000000000000000444f3cd6da9827f64c37ffe0db6d25c52174212700000000000000000000000000000000000000000000000000000000000000044d45544100000000000000000000000000000000000000000000000000000000",
          "blockHash": "0xe9f3a6dd3e9fff9dd7f570708f84aaa0ece9b8e56fc920908992868c390ebfe8",
          "blockNumber": "0x15",
          "blockTimestamp": "0x69fccb3f",
          "transactionHash": "0xbcaab2684670d7b527c132ef50c131fe6239a50c119e5c25f5a4f5f62a2db708",
          "transactionIndex": "0x1c",
          "logIndex": "0x19",
          "removed": false
        }
      ],
      "logsBloom": "0x00000010000000000000000000000000000000000000002000000000000000000000000000000000000000000000000000000000000000000000000000000000000000000000000100000000000000000000000000000000000000000000000000000000100000000000000008000000000000000000000000000000000000000000000000000000000000000000000000000000000000000000000000000000000000000000000000000000000000000000000000000000000000000000000000000008000000000000000000000000000000000000000000000000000000400000000000020000000000000008000000000000000000000000000000000000",
      "type": "0x0",
      "transactionHash": "0xbcaab2684670d7b527c132ef50c131fe6239a50c119e5c25f5a4f5f62a2db708",
      "transactionIndex": "0x1c",
      "blockHash": "0xe9f3a6dd3e9fff9dd7f570708f84aaa0ece9b8e56fc920908992868c390ebfe8",
      "blockNumber": "0x15",
      "gasUsed": "0x117e8",
      "effectiveGasPrice": "0x410c5f9f",
      "blobGasPrice": "0x1",
      "from": "0xf39fd6e51aad88f6f4ce6ab8827279cfffb92266",
      "to": "0xc0f115a19107322cfbf1cdbc7ea011c19ebdb4f8",
      "contractAddress": null
    },
    {
      "status": "0x1",
      "cumulativeGasUsed": "0x670d9f",
      "logs": [
        {
          "address": "0xf8e31cb472bc70500f08cd84917e5a1912ec8397",
          "topics": [
            "0xe5f9c5663822b3882e2fa8f5fcbc56db18ccc15ec0ad63010c1e27bff6eb9269",
            "0x7c66dfce614e9a88c33dd01ffd47e917575e527015d5ead8069719869ba53f20"
          ],
          "data": "0x000000000000000000000000bc32f9e9bec6c4b009abf918961846a3214e03fe000000000000000000000000c0f115a19107322cfbf1cdbc7ea011c19ebdb4f8",
          "blockHash": "0xe9f3a6dd3e9fff9dd7f570708f84aaa0ece9b8e56fc920908992868c390ebfe8",
          "blockNumber": "0x15",
          "blockTimestamp": "0x69fccb3f",
          "transactionHash": "0x2c052710f45632dd7498a864419543c5865e2f39daef284ca6f098fb0ff19109",
          "transactionIndex": "0x1d",
          "logIndex": "0x1a",
          "removed": false
        }
      ],
      "logsBloom": "0x00000000000000000000000000000000000000000000000000000000000000000000000000004000000000000000000080000000000000000000000000000000000000000000000000000000000000000000000000000000000000000000000000000000000000000000000000000000000000000000000000000000000000000000000000000000000000000000000000000000000000000000000000000000000000000000000400000000000000000000000000000000000000000000010000000000000000000000000000000000000800000000000000200000000000800000000000000000000000000000800000000100000000000000000000000000",
      "type": "0x0",
      "transactionHash": "0x2c052710f45632dd7498a864419543c5865e2f39daef284ca6f098fb0ff19109",
      "transactionIndex": "0x1d",
      "blockHash": "0xe9f3a6dd3e9fff9dd7f570708f84aaa0ece9b8e56fc920908992868c390ebfe8",
      "blockNumber": "0x15",
      "gasUsed": "0x33e3c",
      "effectiveGasPrice": "0x410c5f9f",
      "blobGasPrice": "0x1",
      "from": "0xf39fd6e51aad88f6f4ce6ab8827279cfffb92266",
      "to": "0xf8e31cb472bc70500f08cd84917e5a1912ec8397",
      "contractAddress": null
    },
    {
      "status": "0x1",
      "cumulativeGasUsed": "0x68257b",
      "logs": [
        {
          "address": "0xc0f115a19107322cfbf1cdbc7ea011c19ebdb4f8",
          "topics": [
            "0x9190ede1bbf154005e1cdc753cb24ff7912bf4412bf72342e5ab03ee770facf0",
            "0x7c66dfce614e9a88c33dd01ffd47e917575e527015d5ead8069719869ba53f20"
          ],
          "data": "0x0000000000000000000000000000000000000000000000000000000000000040000000000000000000000000bc32f9e9bec6c4b009abf918961846a3214e03fe00000000000000000000000000000000000000000000000000000000000000034a504d0000000000000000000000000000000000000000000000000000000000",
          "blockHash": "0xe9f3a6dd3e9fff9dd7f570708f84aaa0ece9b8e56fc920908992868c390ebfe8",
          "blockNumber": "0x15",
          "blockTimestamp": "0x69fccb3f",
          "transactionHash": "0x626711618c25e1c2ac2d01b896ef6b877577049e03cddb3a9c1a7aa295002f7e",
          "transactionIndex": "0x1e",
          "logIndex": "0x1b",
          "removed": false
        }
      ],
      "logsBloom": "0x00000010000000000000000000000000000000000000002000000000000000000000000000004000000000000000000080000000000000000000000000000000000000000000000100000000000000000000000000000000000000000000000000000000000000000000000000000000000000000000000000000000000000000000000000000000000000000000000000000000000000000000000000000000000000000000000000000000000000000000000000000000000000000000010000000008000000000000000000000000000000000000000000000000000000000000000000020000000000000008000000000000000000000000000000000000",
      "type": "0x0",
      "transactionHash": "0x626711618c25e1c2ac2d01b896ef6b877577049e03cddb3a9c1a7aa295002f7e",
      "transactionIndex": "0x1e",
      "blockHash": "0xe9f3a6dd3e9fff9dd7f570708f84aaa0ece9b8e56fc920908992868c390ebfe8",
      "blockNumber": "0x15",
      "gasUsed": "0x117dc",
      "effectiveGasPrice": "0x410c5f9f",
      "blobGasPrice": "0x1",
      "from": "0xf39fd6e51aad88f6f4ce6ab8827279cfffb92266",
      "to": "0xc0f115a19107322cfbf1cdbc7ea011c19ebdb4f8",
      "contractAddress": null
    },
    {
      "status": "0x1",
      "cumulativeGasUsed": "0x6b6363",
      "logs": [
        {
          "address": "0xf8e31cb472bc70500f08cd84917e5a1912ec8397",
          "topics": [
            "0xe5f9c5663822b3882e2fa8f5fcbc56db18ccc15ec0ad63010c1e27bff6eb9269",
            "0xf0da850a6b7c61a66cdd43ac7529affc6000442af1c1bdda1db3bb7220bf7613"
          ],
          "data": "0x000000000000000000000000e3e30530c5d638c706f3de8cbc4cf8cfae290687000000000000000000000000c0f115a19107322cfbf1cdbc7ea011c19ebdb4f8",
          "blockHash": "0xe9f3a6dd3e9fff9dd7f570708f84aaa0ece9b8e56fc920908992868c390ebfe8",
          "blockNumber": "0x15",
          "blockTimestamp": "0x69fccb3f",
          "transactionHash": "0x5c9211cb138f0b31560c197de647c2be349a05e2cfb366906d333cb87dd23eb1",
          "transactionIndex": "0x1f",
          "logIndex": "0x1c",
          "removed": false
        }
      ],
      "logsBloom": "0x00000000000000000008000000000000000000000000000000000000000000000000000000000000000000000000000000000000000000000000000000000000000000000000000000000000000000000000000000000000000000000000000000000000000000000000000000000000000000000000000000000000000000000000000000000000000200000400000000000000000000000000000000000000000000000000000400000000000000000000000000000000000000000000000000000000000000000000000000000000000800000000000000200000000000800000000000000000000000000000800000000100000000000000000000000000",
      "type": "0x0",
      "transactionHash": "0x5c9211cb138f0b31560c197de647c2be349a05e2cfb366906d333cb87dd23eb1",
      "transactionIndex": "0x1f",
      "blockHash": "0xe9f3a6dd3e9fff9dd7f570708f84aaa0ece9b8e56fc920908992868c390ebfe8",
      "blockNumber": "0x15",
      "gasUsed": "0x33de8",
      "effectiveGasPrice": "0x410c5f9f",
      "blobGasPrice": "0x1",
      "from": "0xf39fd6e51aad88f6f4ce6ab8827279cfffb92266",
      "to": "0xf8e31cb472bc70500f08cd84917e5a1912ec8397",
      "contractAddress": null
    },
    {
      "status": "0x1",
      "cumulativeGasUsed": "0x6c7b27",
      "logs": [
        {
          "address": "0xc0f115a19107322cfbf1cdbc7ea011c19ebdb4f8",
          "topics": [
            "0x9190ede1bbf154005e1cdc753cb24ff7912bf4412bf72342e5ab03ee770facf0",
            "0xf0da850a6b7c61a66cdd43ac7529affc6000442af1c1bdda1db3bb7220bf7613"
          ],
          "data": "0x0000000000000000000000000000000000000000000000000000000000000040000000000000000000000000e3e30530c5d638c706f3de8cbc4cf8cfae29068700000000000000000000000000000000000000000000000000000000000000015600000000000000000000000000000000000000000000000000000000000000",
          "blockHash": "0xe9f3a6dd3e9fff9dd7f570708f84aaa0ece9b8e56fc920908992868c390ebfe8",
          "blockNumber": "0x15",
          "blockTimestamp": "0x69fccb3f",
          "transactionHash": "0x55f739a65a09ee9b698846a5b0e09d2ad873976ff5b047ce9d982442aac7db3a",
          "transactionIndex": "0x20",
          "logIndex": "0x1d",
          "removed": false
        }
      ],
      "logsBloom": "0x00000010000000000008000000000000000000000000002000000000000000000000000000000000000000000000000000000000000000000000000000000000000000000000000100000000000000000000000000000000000000000000000000000000000000000000000000000000000000000000000000000000000000000000000000000000000200000400000000000000000000000000000000000000000000000000000000000000000000000000000000000000000000000000000000000008000000000000000000000000000000000000000000000000000000000000000000020000000000000008000000000000000000000000000000000000",
      "type": "0x0",
      "transactionHash": "0x55f739a65a09ee9b698846a5b0e09d2ad873976ff5b047ce9d982442aac7db3a",
      "transactionIndex": "0x20",
      "blockHash": "0xe9f3a6dd3e9fff9dd7f570708f84aaa0ece9b8e56fc920908992868c390ebfe8",
      "blockNumber": "0x15",
      "gasUsed": "0x117c4",
      "effectiveGasPrice": "0x410c5f9f",
      "blobGasPrice": "0x1",
      "from": "0xf39fd6e51aad88f6f4ce6ab8827279cfffb92266",
      "to": "0xc0f115a19107322cfbf1cdbc7ea011c19ebdb4f8",
      "contractAddress": null
    },
    {
      "status": "0x1",
      "cumulativeGasUsed": "0x6fb96f",
      "logs": [
        {
          "address": "0xf8e31cb472bc70500f08cd84917e5a1912ec8397",
          "topics": [
            "0xe5f9c5663822b3882e2fa8f5fcbc56db18ccc15ec0ad63010c1e27bff6eb9269",
            "0x1ee390a6c6917753ffa9bb0bd83cc313e935b13e3daaba67038caf0e47f928f1"
          ],
          "data": "0x0000000000000000000000003b5f00239c25710de6f7196d10e3bca4941e7d03000000000000000000000000c0f115a19107322cfbf1cdbc7ea011c19ebdb4f8",
          "blockHash": "0xe9f3a6dd3e9fff9dd7f570708f84aaa0ece9b8e56fc920908992868c390ebfe8",
          "blockNumber": "0x15",
          "blockTimestamp": "0x69fccb3f",
          "transactionHash": "0x50889d0b8dd120a2d74b9cfd42b15ee6fdacd891911f1355d366666384250e6d",
          "transactionIndex": "0x21",
          "logIndex": "0x1e",
          "removed": false
        }
      ],
      "logsBloom": "0x00000000000000000000000000000000000000000000000000000000000000000000000000000000000000000000000000000000000000000000000000000000000000000000000000000000000000000000000000000000000000000000000000000000000000000000000000000000000000000000000000000000000000000000000000000000000000000000000000000000000000000000000000000200000000000000000500000000000000010000000000000000000000000000000000000000000000000000000000000000000800000000000000200000000000800000000000000000000000000000800000000100000000000000000000000000",
      "type": "0x0",
      "transactionHash": "0x50889d0b8dd120a2d74b9cfd42b15ee6fdacd891911f1355d366666384250e6d",
      "transactionIndex": "0x21",
      "blockHash": "0xe9f3a6dd3e9fff9dd7f570708f84aaa0ece9b8e56fc920908992868c390ebfe8",
      "blockNumber": "0x15",
      "gasUsed": "0x33e48",
      "effectiveGasPrice": "0x410c5f9f",
      "blobGasPrice": "0x1",
      "from": "0xf39fd6e51aad88f6f4ce6ab8827279cfffb92266",
      "to": "0xf8e31cb472bc70500f08cd84917e5a1912ec8397",
      "contractAddress": null
    },
    {
      "status": "0x1",
      "cumulativeGasUsed": "0x70d13f",
      "logs": [
        {
          "address": "0xc0f115a19107322cfbf1cdbc7ea011c19ebdb4f8",
          "topics": [
            "0x9190ede1bbf154005e1cdc753cb24ff7912bf4412bf72342e5ab03ee770facf0",
            "0x1ee390a6c6917753ffa9bb0bd83cc313e935b13e3daaba67038caf0e47f928f1"
          ],
          "data": "0x00000000000000000000000000000000000000000000000000000000000000400000000000000000000000003b5f00239c25710de6f7196d10e3bca4941e7d0300000000000000000000000000000000000000000000000000000000000000034449530000000000000000000000000000000000000000000000000000000000",
          "blockHash": "0xe9f3a6dd3e9fff9dd7f570708f84aaa0ece9b8e56fc920908992868c390ebfe8",
          "blockNumber": "0x15",
          "blockTimestamp": "0x69fccb3f",
          "transactionHash": "0xd19ca1ef434b063688c152e5cd01cf26a9e2ce8cdbc0fe62719b3a9dc7f285f7",
          "transactionIndex": "0x22",
          "logIndex": "0x1f",
          "removed": false
        }
      ],
      "logsBloom": "0x00000010000000000000000000000000000000000000002000000000000000000000000000000000000000000000000000000000000000000000000000000000000000000000000100000000000000000000000000000000000000000000000000000000000000000000000000000000000000000000000000000000000000000000000000000000000000000000000000000000000000000000000000000200000000000000000100000000000000010000000000000000000000000000000000000008000000000000000000000000000000000000000000000000000000000000000000020000000000000008000000000000000000000000000000000000",
      "type": "0x0",
      "transactionHash": "0xd19ca1ef434b063688c152e5cd01cf26a9e2ce8cdbc0fe62719b3a9dc7f285f7",
      "transactionIndex": "0x22",
      "blockHash": "0xe9f3a6dd3e9fff9dd7f570708f84aaa0ece9b8e56fc920908992868c390ebfe8",
      "blockNumber": "0x15",
      "gasUsed": "0x117d0",
      "effectiveGasPrice": "0x410c5f9f",
      "blobGasPrice": "0x1",
      "from": "0xf39fd6e51aad88f6f4ce6ab8827279cfffb92266",
      "to": "0xc0f115a19107322cfbf1cdbc7ea011c19ebdb4f8",
      "contractAddress": null
    },
    {
      "status": "0x1",
      "cumulativeGasUsed": "0x740f6f",
      "logs": [
        {
          "address": "0xf8e31cb472bc70500f08cd84917e5a1912ec8397",
          "topics": [
            "0xe5f9c5663822b3882e2fa8f5fcbc56db18ccc15ec0ad63010c1e27bff6eb9269",
            "0x93524d81bcb78d74875943b3fa28cf64070d7736f6e1b17397c7ff43eaf73cfb"
          ],
          "data": "0x0000000000000000000000008f52a941289e8571752e2df6457e8b9859140d8c000000000000000000000000c0f115a19107322cfbf1cdbc7ea011c19ebdb4f8",
          "blockHash": "0xe9f3a6dd3e9fff9dd7f570708f84aaa0ece9b8e56fc920908992868c390ebfe8",
          "blockNumber": "0x15",
          "blockTimestamp": "0x69fccb3f",
          "transactionHash": "0x796e99945207446c94b4f13931722a4d9997b99533a2a98192626d4e796d0398",
          "transactionIndex": "0x23",
          "logIndex": "0x20",
          "removed": false
        }
      ],
      "logsBloom": "0x00200000000000000000000000000000000000000000000000000000000000000000000000000000000000000000000000000000000000000000000000000000000000000000000000000000000000000000000000000000000000000000000000000000000000000000000000000000000000000000000000000000000000000000000000000000000000000000000000000000000000000000000000000000000000000000000400800000000000000000000000000000000000000000000000000000000000000000000000000000000800000000000000200000000000800000000000000000000000000000800000000100000000000100000000000000",
      "type": "0x0",
      "transactionHash": "0x796e99945207446c94b4f13931722a4d9997b99533a2a98192626d4e796d0398",
      "transactionIndex": "0x23",
      "blockHash": "0xe9f3a6dd3e9fff9dd7f570708f84aaa0ece9b8e56fc920908992868c390ebfe8",
      "blockNumber": "0x15",
      "gasUsed": "0x33e30",
      "effectiveGasPrice": "0x410c5f9f",
      "blobGasPrice": "0x1",
      "from": "0xf39fd6e51aad88f6f4ce6ab8827279cfffb92266",
      "to": "0xf8e31cb472bc70500f08cd84917e5a1912ec8397",
      "contractAddress": null
    },
    {
      "status": "0x1",
      "cumulativeGasUsed": "0x752757",
      "logs": [
        {
          "address": "0xc0f115a19107322cfbf1cdbc7ea011c19ebdb4f8",
          "topics": [
            "0x9190ede1bbf154005e1cdc753cb24ff7912bf4412bf72342e5ab03ee770facf0",
            "0x93524d81bcb78d74875943b3fa28cf64070d7736f6e1b17397c7ff43eaf73cfb"
          ],
          "data": "0x00000000000000000000000000000000000000000000000000000000000000400000000000000000000000008f52a941289e8571752e2df6457e8b9859140d8c00000000000000000000000000000000000000000000000000000000000000044e464c5800000000000000000000000000000000000000000000000000000000",
          "blockHash": "0xe9f3a6dd3e9fff9dd7f570708f84aaa0ece9b8e56fc920908992868c390ebfe8",
          "blockNumber": "0x15",
          "blockTimestamp": "0x69fccb3f",
          "transactionHash": "0x525311edabf9dfed19605a3a26c63d539610a07d1cf1d047f78adb0984fc3861",
          "transactionIndex": "0x24",
          "logIndex": "0x21",
          "removed": false
        }
      ],
      "logsBloom": "0x00200010000000000000000000000000000000000000002000000000000000000000000000000000000000000000000000000000000000000000000000000000000000000000000100000000000000000000000000000000000000000000000000000000000000000000000000000000000000000000000000000000000000000000000000000000000000000000000000000000000000000000000000000000000000000000000000800000000000000000000000000000000000000000000000000008000000000000000000000000000000000000000000000000000000000000000000020000000000000008000000000000000000000100000000000000",
      "type": "0x0",
      "transactionHash": "0x525311edabf9dfed19605a3a26c63d539610a07d1cf1d047f78adb0984fc3861",
      "transactionIndex": "0x24",
      "blockHash": "0xe9f3a6dd3e9fff9dd7f570708f84aaa0ece9b8e56fc920908992868c390ebfe8",
      "blockNumber": "0x15",
      "gasUsed": "0x117e8",
      "effectiveGasPrice": "0x410c5f9f",
      "blobGasPrice": "0x1",
      "from": "0xf39fd6e51aad88f6f4ce6ab8827279cfffb92266",
      "to": "0xc0f115a19107322cfbf1cdbc7ea011c19ebdb4f8",
      "contractAddress": null
    },
    {
      "status": "0x1",
      "cumulativeGasUsed": "0x78bcaa",
      "logs": [
        {
          "address": "0xf8e31cb472bc70500f08cd84917e5a1912ec8397",
          "topics": [
            "0xe5f9c5663822b3882e2fa8f5fcbc56db18ccc15ec0ad63010c1e27bff6eb9269",
            "0x7dc334e1540f8915732d66591fe866306abf9102ccd56a9c3bebab2f76f305fb"
          ],
          "data": "0x000000000000000000000000ee95273b1c7f7fbb6ee669ef9d7a1ec388a86434000000000000000000000000c0f115a19107322cfbf1cdbc7ea011c19ebdb4f8",
          "blockHash": "0xe9f3a6dd3e9fff9dd7f570708f84aaa0ece9b8e56fc920908992868c390ebfe8",
          "blockNumber": "0x15",
          "blockTimestamp": "0x69fccb3f",
          "transactionHash": "0x04343ace16a04b0b58ddb40deeca4e8052b18b567c6ea33e4debacaa1bd98b96",
          "transactionIndex": "0x25",
          "logIndex": "0x22",
          "removed": false
        }
      ],
      "logsBloom": "0x00000000000000000000000000000000000000000400000000000000000000000000000000000000000000000000000000000000000000000000000000000000000000000000000000000000000000000000000000000000000000000000000000000000000000000000000000000000000000000000000000000000000000000000000000000000000000000000000000000000000000000000004000000000000000000000000400000000000000000000000000000000000000000000000000000000000000000000000000000000000800000000000000200000000000800000000000000000000000000000800000000100000000002000000000000000",
      "type": "0x0",
      "transactionHash": "0x04343ace16a04b0b58ddb40deeca4e8052b18b567c6ea33e4debacaa1bd98b96",
      "transactionIndex": "0x25",
      "blockHash": "0xe9f3a6dd3e9fff9dd7f570708f84aaa0ece9b8e56fc920908992868c390ebfe8",
      "blockNumber": "0x15",
      "gasUsed": "0x39553",
      "effectiveGasPrice": "0x410c5f9f",
      "blobGasPrice": "0x1",
      "from": "0xf39fd6e51aad88f6f4ce6ab8827279cfffb92266",
      "to": "0xf8e31cb472bc70500f08cd84917e5a1912ec8397",
      "contractAddress": null
    },
    {
      "status": "0x1",
      "cumulativeGasUsed": "0x79d486",
      "logs": [
        {
          "address": "0xc0f115a19107322cfbf1cdbc7ea011c19ebdb4f8",
          "topics": [
            "0x9190ede1bbf154005e1cdc753cb24ff7912bf4412bf72342e5ab03ee770facf0",
            "0x7dc334e1540f8915732d66591fe866306abf9102ccd56a9c3bebab2f76f305fb"
          ],
          "data": "0x0000000000000000000000000000000000000000000000000000000000000040000000000000000000000000ee95273b1c7f7fbb6ee669ef9d7a1ec388a864340000000000000000000000000000000000000000000000000000000000000003414d440000000000000000000000000000000000000000000000000000000000",
          "blockHash": "0xe9f3a6dd3e9fff9dd7f570708f84aaa0ece9b8e56fc920908992868c390ebfe8",
          "blockNumber": "0x15",
          "blockTimestamp": "0x69fccb3f",
          "transactionHash": "0xadccdca80d6de7b1cf62249785839f181ba0c61e33fa1133e1e51d59198874ea",
          "transactionIndex": "0x26",
          "logIndex": "0x23",
          "removed": false
        }
      ],
      "logsBloom": "0x00000010000000000000000000000000000000000400002000000000000000000000000000000000000000000000000000000000000000000000000000000000000000000000000100000000000000000000000000000000000000000000000000000000000000000000000000000000000000000000000000000000000000000000000000000000000000000000000000000000000000000000004000000000000000000000000000000000000000000000000000000000000000000000000000000008000000000000000000000000000000000000000000000000000000000000000000020000000000000008000000000000000000002000000000000000",
      "type": "0x0",
      "transactionHash": "0xadccdca80d6de7b1cf62249785839f181ba0c61e33fa1133e1e51d59198874ea",
      "transactionIndex": "0x26",
      "blockHash": "0xe9f3a6dd3e9fff9dd7f570708f84aaa0ece9b8e56fc920908992868c390ebfe8",
      "blockNumber": "0x15",
      "gasUsed": "0x117dc",
      "effectiveGasPrice": "0x410c5f9f",
      "blobGasPrice": "0x1",
      "from": "0xf39fd6e51aad88f6f4ce6ab8827279cfffb92266",
      "to": "0xc0f115a19107322cfbf1cdbc7ea011c19ebdb4f8",
      "contractAddress": null
    }
  ],
  "libraries": [],
  "pending": [],
  "returns": {},
  "timestamp": 1778174784113,
  "chain": 42069,
  "commit": "34edb5e"
}