{
  "transactions": [
    {
      "hash": "0x98d64fb1b3edcd176d162da3d72b772059e7270f7c1b83350278c874b0595584",
      "transactionType": "CALL",
      "contractName": null,
      "contractAddress": "0x5eb3bc0a489c5a8288765d2336659ebca68fcd00",
      "function": "mint(address,uint256)",
      "arguments": [
        "0xf39Fd6e51aad88F6F4ce6aB8827279cffFb92266",
        "3000000000000000000000"
      ],
      "transaction": {
        "from": "0xf39fd6e51aad88f6f4ce6ab8827279cfffb92266",
        "to": "0x5eb3bc0a489c5a8288765d2336659ebca68fcd00",
        "gas": "0x11383",
        "value": "0x0",
        "input": "0x40c10f19000000000000000000000000f39fd6e51aad88f6f4ce6ab8827279cfffb922660000000000000000000000000000000000000000000000a2a15d09519be00000",
        "nonce": "0x44",
        "chainId": "0xa455"
      },
      "additionalContracts": [],
      "isFixedGasLimit": false
    },
    {
      "hash": "0x8f1ebf28c4c1629c36935e47dff80c17e388c29b0ad9d612a087335cb275b7dc",
      "transactionType": "CALL",
      "contractName": null,
      "contractAddress": "0x5eb3bc0a489c5a8288765d2336659ebca68fcd00",
      "function": "approve(address,uint256)",
      "arguments": [
        "0x922D6956C99E12DFeB3224DEA977D0939758A1Fe",
        "3000000000000000000000"
      ],
      "transaction": {
        "from": "0xf39fd6e51aad88f6f4ce6ab8827279cfffb92266",
        "to": "0x5eb3bc0a489c5a8288765d2336659ebca68fcd00",
        "gas": "0xf7ea",
        "value": "0x0",
        "input": "0x095ea7b3000000000000000000000000922d6956c99e12dfeb3224dea977d0939758a1fe0000000000000000000000000000000000000000000000a2a15d09519be00000",
        "nonce": "0x45",
        "chainId": "0xa455"
      },
      "additionalContracts": [],
      "isFixedGasLimit": false
    },
    {
      "hash": "0x5ace8a9e2d57f34c0dc5c712b338ba16bbeb5bc781e276cd42579cae2d9e127e",
      "transactionType": "CALL",
      "contractName": null,
      "contractAddress": "0x922d6956c99e12dfeb3224dea977d0939758a1fe",
      "function": "swapExactTokensForTokens(uint256,uint256,address[],address,uint256)",
      "arguments": [
        "3000000000000000000000",
        "996006981039903216",
        "[0x5eb3Bc0a489C5A8288765d2336659EbCA68FCd00, 0x809d550fca64d94Bd9F66E60752A544199cfAC3D]",
        "0xf39Fd6e51aad88F6F4ce6aB8827279cffFb92266",
        "1778497707"
      ],
      "transaction": {
        "from": "0xf39fd6e51aad88f6f4ce6ab8827279cfffb92266",
        "to": "0x922d6956c99e12dfeb3224dea977d0939758a1fe",
        "gas": "0x2f9bb",
        "value": "0x0",
        "input": "0x38ed17390000000000000000000000000000000000000000000000a2a15d09519be000000000000000000000000000000000000000000000000000000dd287127ab151f000000000000000000000000000000000000000000000000000000000000000a0000000000000000000000000f39fd6e51aad88f6f4ce6ab8827279cfffb92266000000000000000000000000000000000000000000000000000000006a01b8ab00000000000000000000000000000000000000000000000000000000000000020000000000000000000000005eb3bc0a489c5a8288765d2336659ebca68fcd00000000000000000000000000809d550fca64d94bd9f66e60752a544199cfac3d",
        "nonce": "0x46",
        "chainId": "0xa455"
      },
      "additionalContracts": [],
      "isFixedGasLimit": false
    }
  ],
  "receipts": [
    {
      "status": "0x1",
      "cumulativeGasUsed": "0xc778",
      "logs": [
        {
          "address": "0x5eb3bc0a489c5a8288765d2336659ebca68fcd00",
          "topics": [
            "0xddf252ad1be2c89b69c2b068fc378daa952ba7f163c4a11628f55a4df523b3ef",
            "0x0000000000000000000000000000000000000000000000000000000000000000",
            "0x000000000000000000000000f39fd6e51aad88f6f4ce6ab8827279cfffb92266"
          ],
          "data": "0x0000000000000000000000000000000000000000000000a2a15d09519be00000",
          "blockHash": "0xdc3e39a912908f0fd5f27257322c4bdd92c5c8f2c309811403e1063493a363db",
          "blockNumber": "0x3d3c",
          "blockTimestamp": "0x6a01aa9d",
          "transactionHash": "0x98d64fb1b3edcd176d162da3d72b772059e7270f7c1b83350278c874b0595584",
          "transactionIndex": "0x0",
          "logIndex": "0x0",
          "removed": false
        }
      ],
      "logsBloom": "0x00000000000000000000000000000008000000000000000000000000000000000000000000000000000000000000000000000000000000000000000000000000004000000000000000000008000000000000000000000000004000000000000000000000020000000000000100000800000000000000000000000010000000000000000000000000000000000000000000000000000000000000000000000000000000000000000000000000000000000000000000000000000000000000000000000002000000200000000000000000000000002000000000000000000020000000000000000000000000000000000000000000000000000000000000000000",
      "type": "0x2",
      "transactionHash": "0x98d64fb1b3edcd176d162da3d72b772059e7270f7c1b83350278c874b0595584",
      "transactionIndex": "0x0",
      "blockHash": "0xdc3e39a912908f0fd5f27257322c4bdd92c5c8f2c309811403e1063493a363db",
      "blockNumber": "0x3d3c",
      "gasUsed": "0xc778",
      "effectiveGasPrice": "0x8",
      "blobGasPrice": "0x1",
      "from": "0xf39fd6e51aad88f6f4ce6ab8827279cfffb92266",
      "to": "0x5eb3bc0a489c5a8288765d2336659ebca68fcd00",
      "contractAddress": null
    },
    {
      "status": "0x1",
      "cumulativeGasUsed": "0x17af5",
      "logs": [
        {
          "address": "0x5eb3bc0a489c5a8288765d2336659ebca68fcd00",
          "topics": [
            "0x8c5be1e5ebec7d5bd14f71427d1e84f3dd0314c0f7b2291e5b200ac8c7c3b925",
            "0x000000000000000000000000f39fd6e51aad88f6f4ce6ab8827279cfffb92266",
            "0x000000000000000000000000922d6956c99e12dfeb3224dea977d0939758a1fe"
          ],
          "data": "0x0000000000000000000000000000000000000000000000a2a15d09519be00000",
          "blockHash": "0xdc3e39a912908f0fd5f27257322c4bdd92c5c8f2c309811403e1063493a363db",
          "blockNumber": "0x3d3c",
          "blockTimestamp": "0x6a01aa9d",
          "transactionHash": "0x5ace8a9e2d57f34c0dc5c712b338ba16bbeb5bc781e276cd42579cae2d9e127e",
          "transactionIndex": "0x1",
          "logIndex": "0x1",
          "removed": false
        }
      ],
      "logsBloom": "0x00000000000002000000000000000008000000000000000000000000000000000000000000000000000000000000000000000000000000000000000000200000004000000000000000000000000000000000000000000000004000000000000000000000000000000000000100000000000000000000000000000000000000000000000000000000000000000000000000000000000000000000000000000000020000000000000000000000000000000000000000000000000000000000100000000000000000200000000000000000000000002000000000000000000000000010000000000000000000000000000000000000000000000000000000000008",
      "type": "0x2",
      "transactionHash": "0x5ace8a9e2d57f34c0dc5c712b338ba16bbeb5bc781e276cd42579cae2d9e127e",
      "transactionIndex": "0x1",
      "blockHash": "0xdc3e39a912908f0fd5f27257322c4bdd92c5c8f2c309811403e1063493a363db",
      "blockNumber": "0x3d3c",
      "gasUsed": "0xb37d",
      "effectiveGasPrice": "0x8",
      "blobGasPrice": "0x1",
      "from": "0xf39fd6e51aad88f6f4ce6ab8827279cfffb92266",
      "to": "0x5eb3bc0a489c5a8288765d2336659ebca68fcd00",
      "contractAddress": null
    },
    {
      "status": "0x1",
      "cumulativeGasUsed": "0x3a271",
      "logs": [
        {
          "address": "0x5eb3bc0a489c5a8288765d2336659ebca68fcd00",
          "topics": [
            "0xddf252ad1be2c89b69c2b068fc378daa952ba7f163c4a11628f55a4df523b3ef",
            "0x000000000000000000000000f39fd6e51aad88f6f4ce6ab8827279cfffb92266",
            "0x000000000000000000000000922d6956c99e12dfeb3224dea977d0939758a1fe"
          ],
          "data": "0x0000000000000000000000000000000000000000000000a2a15d09519be00000",
          "blockHash": "0xdc3e39a912908f0fd5f27257322c4bdd92c5c8f2c309811403e1063493a363db",
          "blockNumber": "0x3d3c",
          "blockTimestamp": "0x6a01aa9d",
          "transactionHash": "0x8f1ebf28c4c1629c36935e47dff80c17e388c29b0ad9d612a087335cb275b7dc",
          "transactionIndex": "0x2",
          "logIndex": "0x2",
          "removed": false
        },
        {
          "address": "0x5eb3bc0a489c5a8288765d2336659ebca68fcd00",
          "topics": [
            "0x8c5be1e5ebec7d5bd14f71427d1e84f3dd0314c0f7b2291e5b200ac8c7c3b925",
            "0x000000000000000000000000922d6956c99e12dfeb3224dea977d0939758a1fe",
            "0x000000000000000000000000b7278a61aa25c888815afc32ad3cc52ff24fe575"
          ],
          "data": "0x0000000000000000000000000000000000000000000000a2a15d09519be00000",
          "blockHash": "0xdc3e39a912908f0fd5f27257322c4bdd92c5c8f2c309811403e1063493a363db",
          "blockNumber": "0x3d3c",
          "blockTimestamp": "0x6a01aa9d",
          "transactionHash": "0x8f1ebf28c4c1629c36935e47dff80c17e388c29b0ad9d612a087335cb275b7dc",
          "transactionIndex": "0x2",
          "logIndex": "0x3",
          "removed": false
        },
        {
          "address": "0x5eb3bc0a489c5a8288765d2336659ebca68fcd00",
          "topics": [
            "0xddf252ad1be2c89b69c2b068fc378daa952ba7f163c4a11628f55a4df523b3ef",
            "0x000000000000000000000000922d6956c99e12dfeb3224dea977d0939758a1fe",
            "0x000000000000000000000000b7278a61aa25c888815afc32ad3cc52ff24fe575"
          ],
          "data": "0x0000000000000000000000000000000000000000000000a2a15d09519be00000",
          "blockHash": "0xdc3e39a912908f0fd5f27257322c4bdd92c5c8f2c309811403e1063493a363db",
          "blockNumber": "0x3d3c",
          "blockTimestamp": "0x6a01aa9d",
          "transactionHash": "0x8f1ebf28c4c1629c36935e47dff80c17e388c29b0ad9d612a087335cb275b7dc",
          "transactionIndex": "0x2",
          "logIndex": "0x4",
          "removed": false
        },
        {
          "address": "0x809d550fca64d94bd9f66e60752a544199cfac3d",
          "topics": [
            "0xddf252ad1be2c89b69c2b068fc378daa952ba7f163c4a11628f55a4df523b3ef",
            "0x000000000000000000000000b7278a61aa25c888815afc32ad3cc52ff24fe575",
            "0x000000000000000000000000922d6956c99e12dfeb3224dea977d0939758a1fe"
          ],
          "data": "0x0000000000000000000000000000000000000000000000000dd287127ab151f0",
          "blockHash": "0xdc3e39a912908f0fd5f27257322c4bdd92c5c8f2c309811403e1063493a363db",
          "blockNumber": "0x3d3c",
          "blockTimestamp": "0x6a01aa9d",
          "transactionHash": "0x8f1ebf28c4c1629c36935e47dff80c17e388c29b0ad9d612a087335cb275b7dc",
          "transactionIndex": "0x2",
          "logIndex": "0x5",
          "removed": false
        },
        {
          "address": "0xb7278a61aa25c888815afc32ad3cc52ff24fe575",
          "topics": [
            "0x9734819749a91fc3be03ea83205f924ee08479bd3f0da48efc91d94d050cac1e",
            "0x000000000000000000000000922d6956c99e12dfeb3224dea977d0939758a1fe"
          ],
          "data": "0x0000000000000000000000005eb3bc0a489c5a8288765d2336659ebca68fcd000000000000000000000000000000000000000000000000a2a15d09519be000000000000000000000000000000000000000000000000000000dd287127ab151f00000000000000000000000000000000000000000000000007ce66c50e2840000",
          "blockHash": "0xdc3e39a912908f0fd5f27257322c4bdd92c5c8f2c309811403e1063493a363db",
          "blockNumber": "0x3d3c",
          "blockTimestamp": "0x6a01aa9d",
          "transactionHash": "0x8f1ebf28c4c1629c36935e47dff80c17e388c29b0ad9d612a087335cb275b7dc",
          "transactionIndex": "0x2",
          "logIndex": "0x6",
          "removed": false
        },
        {
          "address": "0x809d550fca64d94bd9f66e60752a544199cfac3d",
          "topics": [
            "0xddf252ad1be2c89b69c2b068fc378daa952ba7f163c4a11628f55a4df523b3ef",
            "0x000000000000000000000000922d6956c99e12dfeb3224dea977d0939758a1fe",
            "0x000000000000000000000000f39fd6e51aad88f6f4ce6ab8827279cfffb92266"
          ],
          "data": "0x0000000000000000000000000000000000000000000000000dd287127ab151f0",
          "blockHash": "0xdc3e39a912908f0fd5f27257322c4bdd92c5c8f2c309811403e1063493a363db",
          "blockNumber": "0x3d3c",
          "blockTimestamp": "0x6a01aa9d",
          "transactionHash": "0x8f1ebf28c4c1629c36935e47dff80c17e388c29b0ad9d612a087335cb275b7dc",
          "transactionIndex": "0x2",
          "logIndex": "0x7",
          "removed": false
        },
        {
          "address": "0x922d6956c99e12dfeb3224dea977d0939758a1fe",
          "topics": [
            "0xb39c9bc43f811e1a7ce159c5f147458fdb80266bf23c17322013316e27e086d0",
            "0x0000000000000000000000005eb3bc0a489c5a8288765d2336659ebca68fcd00",
            "0x000000000000000000000000809d550fca64d94bd9f66e60752a544199cfac3d",
            "0x000000000000000000000000f39fd6e51aad88f6f4ce6ab8827279cfffb92266"
          ],
          "data": "0x0000000000000000000000000000000000000000000000a2a15d09519be000000000000000000000000000000000000000000000000000000dd287127ab151f0",
          "blockHash": "0xdc3e39a912908f0fd5f27257322c4bdd92c5c8f2c309811403e1063493a363db",
          "blockNumber": "0x3d3c",
          "blockTimestamp": "0x6a01aa9d",
          "transactionHash": "0x8f1ebf28c4c1629c36935e47dff80c17e388c29b0ad9d612a087335cb275b7dc",
          "transactionIndex": "0x2",
          "logIndex": "0x8",
          "removed": false
        }
      ],
      "logsBloom": "0x00000000000002000000000001000008000000000010000000000000000000000000000000000000000000001000000000000000000000002000000000200000004000000000000400000008800000001000000000000000004000400000000000000000008000000000000100000000800000080000000000000010000000000000000000000000000000000000000000000000000000000000000000004000020000000000000000200000000000000100000000080000000000000000904000000002000000200000000001000000000000002080000200000000000000000010000000400000800000000000000000000000000000000000000000000008",
      "type": "0x2",
      "transactionHash": "0x8f1ebf28c4c1629c36935e47dff80c17e388c29b0ad9d612a087335cb275b7dc",
      "transactionIndex": "0x2",
      "blockHash": "0xdc3e39a912908f0fd5f27257322c4bdd92c5c8f2c309811403e1063493a363db",
      "blockNumber": "0x3d3c",
      "gasUsed": "0x2277c",
      "effectiveGasPrice": "0x8",
      "blobGasPrice": "0x1",
      "from": "0xf39fd6e51aad88f6f4ce6ab8827279cfffb92266",
      "to": "0x922d6956c99e12dfeb3224dea977d0939758a1fe",
      "contractAddress": null
    }
  ],
  "libraries": [],
  "pending": [],
  "returns": {},
  "timestamp": 1778494109842,
  "chain": 42069,
  "commit": "34edb5e"
}