{
  "transactions": [
    {
      "hash": "0xcb2e3c03f6b38fbf3776df7f7eb817efa6be0cb3f53a370ef64d03bb5d980ee9",
      "transactionType": "CALL",
      "contractName": null,
      "contractAddress": "0x547382c0d1b23f707918d3c83a77317b71aa8470",
      "function": "mint(address,uint256)",
      "arguments": [
        "0xf39Fd6e51aad88F6F4ce6aB8827279cffFb92266",
        "3000000000000000000000"
      ],
      "transaction": {
        "from": "0xf39fd6e51aad88f6f4ce6ab8827279cfffb92266",
        "to": "0x547382c0d1b23f707918d3c83a77317b71aa8470",
        "gas": "0x11383",
        "value": "0x0",
        "input": "0x40c10f19000000000000000000000000f39fd6e51aad88f6f4ce6ab8827279cfffb922660000000000000000000000000000000000000000000000a2a15d09519be00000",
        "nonce": "0x11c",
        "chainId": "0xa455"
      },
      "additionalContracts": [],
      "isFixedGasLimit": false
    },
    {
      "hash": "0xc7b6907f21406161b8e47fed3ee25ff56b3016458cd086e9e3805cbfa75a787f",
      "transactionType": "CALL",
      "contractName": null,
      "contractAddress": "0x547382c0d1b23f707918d3c83a77317b71aa8470",
      "function": "approve(address,uint256)",
      "arguments": [
        "0x975Ab64F4901Af5f0C96636deA0b9de3419D0c2F",
        "3000000000000000000000"
      ],
      "transaction": {
        "from": "0xf39fd6e51aad88f6f4ce6ab8827279cfffb92266",
        "to": "0x547382c0d1b23f707918d3c83a77317b71aa8470",
        "gas": "0xf7ea",
        "value": "0x0",
        "input": "0x095ea7b3000000000000000000000000975ab64f4901af5f0c96636dea0b9de3419d0c2f0000000000000000000000000000000000000000000000a2a15d09519be00000",
        "nonce": "0x11d",
        "chainId": "0xa455"
      },
      "additionalContracts": [],
      "isFixedGasLimit": false
    },
    {
      "hash": "0x293194ab2403d5a8304bb1079f39152ade6d354df9706929f40455d8e3821fb8",
      "transactionType": "CALL",
      "contractName": null,
      "contractAddress": "0x975ab64f4901af5f0c96636dea0b9de3419d0c2f",
      "function": "swapExactTokensForTokens(uint256,uint256,address[],address,uint256)",
      "arguments": [
        "3000000000000000000000",
        "996006981039903216",
        "[0x547382C0D1b23f707918D3c83A77317B71Aa8470, 0x7C8BaafA542c57fF9B2B90612bf8aB9E86e22C09]",
        "0xf39Fd6e51aad88F6F4ce6aB8827279cffFb92266",
        "1775360350"
      ],
      "transaction": {
        "from": "0xf39fd6e51aad88f6f4ce6ab8827279cfffb92266",
        "to": "0x975ab64f4901af5f0c96636dea0b9de3419d0c2f",
        "gas": "0x39af0",
        "value": "0x0",
        "input": "0x38ed17390000000000000000000000000000000000000000000000a2a15d09519be000000000000000000000000000000000000000000000000000000dd287127ab151f000000000000000000000000000000000000000000000000000000000000000a0000000000000000000000000f39fd6e51aad88f6f4ce6ab8827279cfffb922660000000000000000000000000000000000000000000000000000000069d1d95e0000000000000000000000000000000000000000000000000000000000000002000000000000000000000000547382c0d1b23f707918d3c83a77317b71aa84700000000000000000000000007c8baafa542c57ff9b2b90612bf8ab9e86e22c09",
        "nonce": "0x11e",
        "chainId": "0xa455"
      },
      "additionalContracts": [],
      "isFixedGasLimit": false
    }
  ],
  "receipts": [
    {
      "status": "0x1",
      "cumulativeGasUsed": "0xc778",
      "logs": [
        {
          "address": "0x547382c0d1b23f707918d3c83a77317b71aa8470",
          "topics": [
            "0xddf252ad1be2c89b69c2b068fc378daa952ba7f163c4a11628f55a4df523b3ef",
            "0x0000000000000000000000000000000000000000000000000000000000000000",
            "0x000000000000000000000000f39fd6e51aad88f6f4ce6ab8827279cfffb92266"
          ],
          "data": "0x0000000000000000000000000000000000000000000000a2a15d09519be00000",
          "blockHash": "0xee5acdcc9fe9eb986f2095bcfe1886efe569a8c34f7de108c17680dc41dba1a3",
          "blockNumber": "0x3999",
          "blockTimestamp": "0x69d1cb50",
          "transactionHash": "0xcb2e3c03f6b38fbf3776df7f7eb817efa6be0cb3f53a370ef64d03bb5d980ee9",
          "transactionIndex": "0x0",
          "logIndex": "0x0",
          "removed": false
        }
      ],
      "logsBloom": "0x00000000000000000020000000000000000000000000000000000000000000000000000000000000800000000000000000000000000000000000000000000000000000000000000000000008000000000000000000000000000000000000000000000000020000000000000100000800000000000000000000000010000000000000000000000000000000000000000000000000000000000000000000000000000000000000002000000000000000000000000000000000000000000000000000000002000000200000000000000000000000002000000000000000000020000000000000000000000000000000000000000000000000000000000000000000",
      "type": "0x0",
      "transactionHash": "0xcb2e3c03f6b38fbf3776df7f7eb817efa6be0cb3f53a370ef64d03bb5d980ee9",
      "transactionIndex": "0x0",
      "blockHash": "0xee5acdcc9fe9eb986f2095bcfe1886efe569a8c34f7de108c17680dc41dba1a3",
      "blockNumber": "0x3999",
      "gasUsed": "0xc778",
      "effectiveGasPrice": "0x3b9aca07",
      "blobGasPrice": "0x1",
      "from": "0xf39fd6e51aad88f6f4ce6ab8827279cfffb92266",
      "to": "0x547382c0d1b23f707918d3c83a77317b71aa8470",
      "contractAddress": null,
      "blockTimestamp": 1775356752
    },
    {
      "status": "0x1",
      "cumulativeGasUsed": "0x17af5",
      "logs": [
        {
          "address": "0x547382c0d1b23f707918d3c83a77317b71aa8470",
          "topics": [
            "0x8c5be1e5ebec7d5bd14f71427d1e84f3dd0314c0f7b2291e5b200ac8c7c3b925",
            "0x000000000000000000000000f39fd6e51aad88f6f4ce6ab8827279cfffb92266",
            "0x000000000000000000000000975ab64f4901af5f0c96636dea0b9de3419d0c2f"
          ],
          "data": "0x0000000000000000000000000000000000000000000000a2a15d09519be00000",
          "blockHash": "0xee5acdcc9fe9eb986f2095bcfe1886efe569a8c34f7de108c17680dc41dba1a3",
          "blockNumber": "0x3999",
          "blockTimestamp": "0x69d1cb50",
          "transactionHash": "0x293194ab2403d5a8304bb1079f39152ade6d354df9706929f40455d8e3821fb8",
          "transactionIndex": "0x1",
          "logIndex": "0x1",
          "removed": false
        }
      ],
      "logsBloom": "0x00000000000000000020000000000000000040000000000000000000000000000000000000000000800000000000000000000000000000000000100000200000000000000000000000000000000000000000000000000400000000000000000000000000000000000000000100000000000000000000000000000000000000000000000000000000000000000000000000000000000000000000000000000000020000000000002000000000000000000000000000000000000000000000000000000000000000200000000000000000000000002000000000000000000000000010000000000000000000000000000000000000000000000000000000000000",
      "type": "0x0",
      "transactionHash": "0x293194ab2403d5a8304bb1079f39152ade6d354df9706929f40455d8e3821fb8",
      "transactionIndex": "0x1",
      "blockHash": "0xee5acdcc9fe9eb986f2095bcfe1886efe569a8c34f7de108c17680dc41dba1a3",
      "blockNumber": "0x3999",
      "gasUsed": "0xb37d",
      "effectiveGasPrice": "0x3b9aca07",
      "blobGasPrice": "0x1",
      "from": "0xf39fd6e51aad88f6f4ce6ab8827279cfffb92266",
      "to": "0x547382c0d1b23f707918d3c83a77317b71aa8470",
      "contractAddress": null,
      "blockTimestamp": 1775356752
    },
    {
      "status": "0x1",
      "cumulativeGasUsed": "0x3f207",
      "logs": [
        {
          "address": "0x547382c0d1b23f707918d3c83a77317b71aa8470",
          "topics": [
            "0xddf252ad1be2c89b69c2b068fc378daa952ba7f163c4a11628f55a4df523b3ef",
            "0x000000000000000000000000f39fd6e51aad88f6f4ce6ab8827279cfffb92266",
            "0x000000000000000000000000975ab64f4901af5f0c96636dea0b9de3419d0c2f"
          ],
          "data": "0x0000000000000000000000000000000000000000000000a2a15d09519be00000",
          "blockHash": "0xee5acdcc9fe9eb986f2095bcfe1886efe569a8c34f7de108c17680dc41dba1a3",
          "blockNumber": "0x3999",
          "blockTimestamp": "0x69d1cb50",
          "transactionHash": "0xc7b6907f21406161b8e47fed3ee25ff56b3016458cd086e9e3805cbfa75a787f",
          "transactionIndex": "0x2",
          "logIndex": "0x2",
          "removed": false
        },
        {
          "address": "0x547382c0d1b23f707918d3c83a77317b71aa8470",
          "topics": [
            "0x8c5be1e5ebec7d5bd14f71427d1e84f3dd0314c0f7b2291e5b200ac8c7c3b925",
            "0x000000000000000000000000975ab64f4901af5f0c96636dea0b9de3419d0c2f",
            "0x000000000000000000000000ead789bd8ce8b9e94f5d0fca99f8787c7e758817"
          ],
          "data": "0x0000000000000000000000000000000000000000000000a2a15d09519be00000",
          "blockHash": "0xee5acdcc9fe9eb986f2095bcfe1886efe569a8c34f7de108c17680dc41dba1a3",
          "blockNumber": "0x3999",
          "blockTimestamp": "0x69d1cb50",
          "transactionHash": "0xc7b6907f21406161b8e47fed3ee25ff56b3016458cd086e9e3805cbfa75a787f",
          "transactionIndex": "0x2",
          "logIndex": "0x3",
          "removed": false
        },
        {
          "address": "0x547382c0d1b23f707918d3c83a77317b71aa8470",
          "topics": [
            "0xddf252ad1be2c89b69c2b068fc378daa952ba7f163c4a11628f55a4df523b3ef",
            "0x000000000000000000000000975ab64f4901af5f0c96636dea0b9de3419d0c2f",
            "0x000000000000000000000000ead789bd8ce8b9e94f5d0fca99f8787c7e758817"
          ],
          "data": "0x0000000000000000000000000000000000000000000000a2a15d09519be00000",
          "blockHash": "0xee5acdcc9fe9eb986f2095bcfe1886efe569a8c34f7de108c17680dc41dba1a3",
          "blockNumber": "0x3999",
          "blockTimestamp": "0x69d1cb50",
          "transactionHash": "0xc7b6907f21406161b8e47fed3ee25ff56b3016458cd086e9e3805cbfa75a787f",
          "transactionIndex": "0x2",
          "logIndex": "0x4",
          "removed": false
        },
        {
          "address": "0x547382c0d1b23f707918d3c83a77317b71aa8470",
          "topics": [
            "0xddf252ad1be2c89b69c2b068fc378daa952ba7f163c4a11628f55a4df523b3ef",
            "0x000000000000000000000000ead789bd8ce8b9e94f5d0fca99f8787c7e758817",
            "0x000000000000000000000000976fcd02f7c4773dd89c309fbf55d5923b4c98a1"
          ],
          "data": "0x00000000000000000000000000000000000000000000000029a11341c4bd4000",
          "blockHash": "0xee5acdcc9fe9eb986f2095bcfe1886efe569a8c34f7de108c17680dc41dba1a3",
          "blockNumber": "0x3999",
          "blockTimestamp": "0x69d1cb50",
          "transactionHash": "0xc7b6907f21406161b8e47fed3ee25ff56b3016458cd086e9e3805cbfa75a787f",
          "transactionIndex": "0x2",
          "logIndex": "0x5",
          "removed": false
        },
        {
          "address": "0x7c8baafa542c57ff9b2b90612bf8ab9e86e22c09",
          "topics": [
            "0xddf252ad1be2c89b69c2b068fc378daa952ba7f163c4a11628f55a4df523b3ef",
            "0x000000000000000000000000ead789bd8ce8b9e94f5d0fca99f8787c7e758817",
            "0x000000000000000000000000975ab64f4901af5f0c96636dea0b9de3419d0c2f"
          ],
          "data": "0x0000000000000000000000000000000000000000000000000dd287127ab151f0",
          "blockHash": "0xee5acdcc9fe9eb986f2095bcfe1886efe569a8c34f7de108c17680dc41dba1a3",
          "blockNumber": "0x3999",
          "blockTimestamp": "0x69d1cb50",
          "transactionHash": "0xc7b6907f21406161b8e47fed3ee25ff56b3016458cd086e9e3805cbfa75a787f",
          "transactionIndex": "0x2",
          "logIndex": "0x6",
          "removed": false
        },
        {
          "address": "0xead789bd8ce8b9e94f5d0fca99f8787c7e758817",
          "topics": [
            "0x9734819749a91fc3be03ea83205f924ee08479bd3f0da48efc91d94d050cac1e",
            "0x000000000000000000000000975ab64f4901af5f0c96636dea0b9de3419d0c2f"
          ],
          "data": "0x000000000000000000000000547382c0d1b23f707918d3c83a77317b71aa84700000000000000000000000000000000000000000000000a2a15d09519be000000000000000000000000000000000000000000000000000000dd287127ab151f00000000000000000000000000000000000000000000000005345590f1dc6c000",
          "blockHash": "0xee5acdcc9fe9eb986f2095bcfe1886efe569a8c34f7de108c17680dc41dba1a3",
          "blockNumber": "0x3999",
          "blockTimestamp": "0x69d1cb50",
          "transactionHash": "0xc7b6907f21406161b8e47fed3ee25ff56b3016458cd086e9e3805cbfa75a787f",
          "transactionIndex": "0x2",
          "logIndex": "0x7",
          "removed": false
        },
        {
          "address": "0x7c8baafa542c57ff9b2b90612bf8ab9e86e22c09",
          "topics": [
            "0xddf252ad1be2c89b69c2b068fc378daa952ba7f163c4a11628f55a4df523b3ef",
            "0x000000000000000000000000975ab64f4901af5f0c96636dea0b9de3419d0c2f",
            "0x000000000000000000000000f39fd6e51aad88f6f4ce6ab8827279cfffb92266"
          ],
          "data": "0x0000000000000000000000000000000000000000000000000dd287127ab151f0",
          "blockHash": "0xee5acdcc9fe9eb986f2095bcfe1886efe569a8c34f7de108c17680dc41dba1a3",
          "blockNumber": "0x3999",
          "blockTimestamp": "0x69d1cb50",
          "transactionHash": "0xc7b6907f21406161b8e47fed3ee25ff56b3016458cd086e9e3805cbfa75a787f",
          "transactionIndex": "0x2",
          "logIndex": "0x8",
          "removed": false
        },
        {
          "address": "0x975ab64f4901af5f0c96636dea0b9de3419d0c2f",
          "topics": [
            "0xb39c9bc43f811e1a7ce159c5f147458fdb80266bf23c17322013316e27e086d0",
            "0x000000000000000000000000547382c0d1b23f707918d3c83a77317b71aa8470",
            "0x0000000000000000000000007c8baafa542c57ff9b2b90612bf8ab9e86e22c09",
            "0x000000000000000000000000f39fd6e51aad88f6f4ce6ab8827279cfffb92266"
          ],
          "data": "0x0000000000000000000000000000000000000000000000a2a15d09519be000000000000000000000000000000000000000000000000000000dd287127ab151f0",
          "blockHash": "0xee5acdcc9fe9eb986f2095bcfe1886efe569a8c34f7de108c17680dc41dba1a3",
          "blockNumber": "0x3999",
          "blockTimestamp": "0x69d1cb50",
          "transactionHash": "0xc7b6907f21406161b8e47fed3ee25ff56b3016458cd086e9e3805cbfa75a787f",
          "transactionIndex": "0x2",
          "logIndex": "0x9",
          "removed": false
        }
      ],
      "logsBloom": "0x00000000000001000020000000000000000040000090000000800000000000000000000010000000800000101000000000000000000000002000100000200000000000000000000000000008800000000000000000000400000400010000000000000000000000001000000100001000800100000000000000400010000000000000000000000200000000000000000000000000000000800000080820000000020010040000002000000000000000000000000000000000000000000000800000000002000000200200000000000000000000002000000000000000000000000010000000000000000000002000000000000000000000000000000000000000",
      "type": "0x0",
      "transactionHash": "0xc7b6907f21406161b8e47fed3ee25ff56b3016458cd086e9e3805cbfa75a787f",
      "transactionIndex": "0x2",
      "blockHash": "0xee5acdcc9fe9eb986f2095bcfe1886efe569a8c34f7de108c17680dc41dba1a3",
      "blockNumber": "0x3999",
      "gasUsed": "0x27712",
      "effectiveGasPrice": "0x3b9aca07",
      "blobGasPrice": "0x1",
      "from": "0xf39fd6e51aad88f6f4ce6ab8827279cfffb92266",
      "to": "0x975ab64f4901af5f0c96636dea0b9de3419d0c2f",
      "contractAddress": null,
      "blockTimestamp": 1775356752
    }
  ],
  "libraries": [],
  "pending": [],
  "returns": {},
  "timestamp": 1775356753119,
  "chain": 42069,
  "commit": "28d59aa"
}