{
  "transactions": [
    {
      "hash": "0xc652e7b8a68dd0f048f9662de44dedca85c4bb2f905e909bb4ec239fe218ce64",
      "transactionType": "CALL",
      "contractName": null,
      "contractAddress": "0xf5c4a909455c00b99a90d93b48736f3196db5621",
      "function": "registerMarket(bytes32)",
      "arguments": [
        "0xe98e2830be1a7e4156d656a7505e65d08c67660dc618072422e9c78053c261e9"
      ],
      "transaction": {
        "from": "0xf39fd6e51aad88f6f4ce6ab8827279cfffb92266",
        "to": "0xf5c4a909455c00b99a90d93b48736f3196db5621",
        "gas": "0x9341",
        "value": "0x0",
        "input": "0x0df1d5ede98e2830be1a7e4156d656a7505e65d08c67660dc618072422e9c78053c261e9",
        "nonce": "0x2bd",
        "chainId": "0xa455"
      },
      "additionalContracts": [],
      "isFixedGasLimit": false
    },
    {
      "hash": "0xc2a7cd45a963bef9678fd6643e4f2d1141fbbdde20ee2a8f207b1a8b68e87c0a",
      "transactionType": "CALL",
      "contractName": null,
      "contractAddress": "0xf5c4a909455c00b99a90d93b48736f3196db5621",
      "function": "setManualPrice(bytes32,uint256,uint256)",
      "arguments": [
        "0xe98e2830be1a7e4156d656a7505e65d08c67660dc618072422e9c78053c261e9",
        "6500000000000",
        "6498000000000"
      ],
      "transaction": {
        "from": "0xf39fd6e51aad88f6f4ce6ab8827279cfffb92266",
        "to": "0xf5c4a909455c00b99a90d93b48736f3196db5621",
        "gas": "0xe8f4",
        "value": "0x0",
        "input": "0xf229fecee98e2830be1a7e4156d656a7505e65d08c67660dc618072422e9c78053c261e9000000000000000000000000000000000000000000000000000005e96630e800000000000000000000000000000000000000000000000000000005e8eefb5400",
        "nonce": "0x2be",
        "chainId": "0xa455"
      },
      "additionalContracts": [],
      "isFixedGasLimit": false
    },
    {
      "hash": "0x5d58c86963059fae36776aece5e28ae69ec339d4074c9075ef8d0208a3dda725",
      "transactionType": "CALL",
      "contractName": null,
      "contractAddress": "0xf5c4a909455c00b99a90d93b48736f3196db5621",
      "function": "registerMarket(bytes32)",
      "arguments": [
        "0xaaaebeba3810b1e6b70781f14b2d72c1cb89c0b2b320c43bb67ff79f562f5ff4"
      ],
      "transaction": {
        "from": "0xf39fd6e51aad88f6f4ce6ab8827279cfffb92266",
        "to": "0xf5c4a909455c00b99a90d93b48736f3196db5621",
        "gas": "0x9341",
        "value": "0x0",
        "input": "0x0df1d5edaaaebeba3810b1e6b70781f14b2d72c1cb89c0b2b320c43bb67ff79f562f5ff4",
        "nonce": "0x2bf",
        "chainId": "0xa455"
      },
      "additionalContracts": [],
      "isFixedGasLimit": false
    },
    {
      "hash": "0x2d8cece285212f1dd180c79ba81e9a08c58cdeb18f4ad8e674e869c9b73a9038",
      "transactionType": "CALL",
      "contractName": null,
      "contractAddress": "0xf5c4a909455c00b99a90d93b48736f3196db5621",
      "function": "setManualPrice(bytes32,uint256,uint256)",
      "arguments": [
        "0xaaaebeba3810b1e6b70781f14b2d72c1cb89c0b2b320c43bb67ff79f562f5ff4",
        "320000000000",
        "319800000000"
      ],
      "transaction": {
        "from": "0xf39fd6e51aad88f6f4ce6ab8827279cfffb92266",
        "to": "0xf5c4a909455c00b99a90d93b48736f3196db5621",
        "gas": "0xe8d1",
        "value": "0x0",
        "input": "0xf229feceaaaebeba3810b1e6b70781f14b2d72c1cb89c0b2b320c43bb67ff79f562f5ff40000000000000000000000000000000000000000000000000000004a817c80000000000000000000000000000000000000000000000000000000004a7590be00",
        "nonce": "0x2c0",
        "chainId": "0xa455"
      },
      "additionalContracts": [],
      "isFixedGasLimit": false
    },
    {
      "hash": "0x051fc0c598f16535856cf478fec5935b35a9d17b295d835f558ce60e52a9665e",
      "transactionType": "CALL",
      "contractName": null,
      "contractAddress": "0xf5c4a909455c00b99a90d93b48736f3196db5621",
      "function": "registerMarket(bytes32)",
      "arguments": [
        "0x0a3ec4fc70eaf64faf6eeda4e9b2bd4742a785464053aa23afad8bd24650e86f"
      ],
      "transaction": {
        "from": "0xf39fd6e51aad88f6f4ce6ab8827279cfffb92266",
        "to": "0xf5c4a909455c00b99a90d93b48736f3196db5621",
        "gas": "0x9341",
        "value": "0x0",
        "input": "0x0df1d5ed0a3ec4fc70eaf64faf6eeda4e9b2bd4742a785464053aa23afad8bd24650e86f",
        "nonce": "0x2c1",
        "chainId": "0xa455"
      },
      "additionalContracts": [],
      "isFixedGasLimit": false
    },
    {
      "hash": "0x9e6a131a8040bfc325478c4a6a80da05506fa83548c0cccb56102156135804c8",
      "transactionType": "CALL",
      "contractName": null,
      "contractAddress": "0xf5c4a909455c00b99a90d93b48736f3196db5621",
      "function": "setManualPrice(bytes32,uint256,uint256)",
      "arguments": [
        "0x0a3ec4fc70eaf64faf6eeda4e9b2bd4742a785464053aa23afad8bd24650e86f",
        "18000000000",
        "17990000000"
      ],
      "transaction": {
        "from": "0xf39fd6e51aad88f6f4ce6ab8827279cfffb92266",
        "to": "0xf5c4a909455c00b99a90d93b48736f3196db5621",
        "gas": "0xdbf1",
        "value": "0x0",
        "input": "0xf229fece0a3ec4fc70eaf64faf6eeda4e9b2bd4742a785464053aa23afad8bd24650e86f0000000000000000000000000000000000000000000000000000000430e234000000000000000000000000000000000000000000000000000000000430499d80",
        "nonce": "0x2c2",
        "chainId": "0xa455"
      },
      "additionalContracts": [],
      "isFixedGasLimit": false
    },
    {
      "hash": "0x95643e601fe4134923379fc0714e5ae4eb7948e215b8fa3e783282930ab1c56c",
      "transactionType": "CALL",
      "contractName": null,
      "contractAddress": "0xf5c4a909455c00b99a90d93b48736f3196db5621",
      "function": "registerMarket(bytes32)",
      "arguments": [
        "0x3ed03c38e59dc60c7b69c2a4bf68f9214acd953252b5a90e8f5f59583e9bc3ae"
      ],
      "transaction": {
        "from": "0xf39fd6e51aad88f6f4ce6ab8827279cfffb92266",
        "to": "0xf5c4a909455c00b99a90d93b48736f3196db5621",
        "gas": "0x9341",
        "value": "0x0",
        "input": "0x0df1d5ed3ed03c38e59dc60c7b69c2a4bf68f9214acd953252b5a90e8f5f59583e9bc3ae",
        "nonce": "0x2c3",
        "chainId": "0xa455"
      },
      "additionalContracts": [],
      "isFixedGasLimit": false
    },
    {
      "hash": "0x86462af0925adf3c60938089d72b6f580bbdf028eeb90379d09d8e254ba516c4",
      "transactionType": "CALL",
      "contractName": null,
      "contractAddress": "0xf5c4a909455c00b99a90d93b48736f3196db5621",
      "function": "setManualPrice(bytes32,uint256,uint256)",
      "arguments": [
        "0x3ed03c38e59dc60c7b69c2a4bf68f9214acd953252b5a90e8f5f59583e9bc3ae",
        "60000000000",
        "59980000000"
      ],
      "transaction": {
        "from": "0xf39fd6e51aad88f6f4ce6ab8827279cfffb92266",
        "to": "0xf5c4a909455c00b99a90d93b48736f3196db5621",
        "gas": "0xe8d1",
        "value": "0x0",
        "input": "0xf229fece3ed03c38e59dc60c7b69c2a4bf68f9214acd953252b5a90e8f5f59583e9bc3ae0000000000000000000000000000000000000000000000000000000df84758000000000000000000000000000000000000000000000000000000000df7162b00",
        "nonce": "0x2c4",
        "chainId": "0xa455"
      },
      "additionalContracts": [],
      "isFixedGasLimit": false
    },
    {
      "hash": "0xf840963ae89c2cd0953d7204906de708527ab484cc13016eb1e6240da5b4d1f8",
      "transactionType": "CALL",
      "contractName": null,
      "contractAddress": "0xf5c4a909455c00b99a90d93b48736f3196db5621",
      "function": "registerMarket(bytes32)",
      "arguments": [
        "0xa6a7de01e8b7ba6a4a61c782a73188d808fc1f3cf5743fadb68a02ed884b594f"
      ],
      "transaction": {
        "from": "0xf39fd6e51aad88f6f4ce6ab8827279cfffb92266",
        "to": "0xf5c4a909455c00b99a90d93b48736f3196db5621",
        "gas": "0x9341",
        "value": "0x0",
        "input": "0x0df1d5eda6a7de01e8b7ba6a4a61c782a73188d808fc1f3cf5743fadb68a02ed884b594f",
        "nonce": "0x2c5",
        "chainId": "0xa455"
      },
      "additionalContracts": [],
      "isFixedGasLimit": false
    },
    {
      "hash": "0x610bbd82e17e2dcec33003a14757970e38dec7c9e1685e210f5869c4bd30cf8d",
      "transactionType": "CALL",
      "contractName": null,
      "contractAddress": "0xf5c4a909455c00b99a90d93b48736f3196db5621",
      "function": "setManualPrice(bytes32,uint256,uint256)",
      "arguments": [
        "0xa6a7de01e8b7ba6a4a61c782a73188d808fc1f3cf5743fadb68a02ed884b594f",
        "90000000",
        "89500000"
      ],
      "transaction": {
        "from": "0xf39fd6e51aad88f6f4ce6ab8827279cfffb92266",
        "to": "0xf5c4a909455c00b99a90d93b48736f3196db5621",
        "gas": "0xe8d1",
        "value": "0x0",
        "input": "0xf229fecea6a7de01e8b7ba6a4a61c782a73188d808fc1f3cf5743fadb68a02ed884b594f00000000000000000000000000000000000000000000000000000000055d4a80000000000000000000000000000000000000000000000000000000000555a960",
        "nonce": "0x2c6",
        "chainId": "0xa455"
      },
      "additionalContracts": [],
      "isFixedGasLimit": false
    },
    {
      "hash": "0x63154a1054754b5bfa9d7af6ac2dda5a524e828a7b2a2189d2cd42be0eba49b5",
      "transactionType": "CALL",
      "contractName": null,
      "contractAddress": "0xf5c4a909455c00b99a90d93b48736f3196db5621",
      "function": "registerMarket(bytes32)",
      "arguments": [
        "0xc07524b7a4eecc2784fc7ac17ff2730f877f3cf7a2ceb4e2375fa40a103115d0"
      ],
      "transaction": {
        "from": "0xf39fd6e51aad88f6f4ce6ab8827279cfffb92266",
        "to": "0xf5c4a909455c00b99a90d93b48736f3196db5621",
        "gas": "0x9341",
        "value": "0x0",
        "input": "0x0df1d5edc07524b7a4eecc2784fc7ac17ff2730f877f3cf7a2ceb4e2375fa40a103115d0",
        "nonce": "0x2c7",
        "chainId": "0xa455"
      },
      "additionalContracts": [],
      "isFixedGasLimit": false
    },
    {
      "hash": "0xa1c067b6e73247eb9ab60ce5a39bbda9536d6e54733b4b6e6dad6c9048b405a6",
      "transactionType": "CALL",
      "contractName": null,
      "contractAddress": "0xf5c4a909455c00b99a90d93b48736f3196db5621",
      "function": "setManualPrice(bytes32,uint256,uint256)",
      "arguments": [
        "0xc07524b7a4eecc2784fc7ac17ff2730f877f3cf7a2ceb4e2375fa40a103115d0",
        "120000000",
        "119800000"
      ],
      "transaction": {
        "from": "0xf39fd6e51aad88f6f4ce6ab8827279cfffb92266",
        "to": "0xf5c4a909455c00b99a90d93b48736f3196db5621",
        "gas": "0xe8ae",
        "value": "0x0",
        "input": "0xf229fecec07524b7a4eecc2784fc7ac17ff2730f877f3cf7a2ceb4e2375fa40a103115d00000000000000000000000000000000000000000000000000000000007270e0000000000000000000000000000000000000000000000000000000000072400c0",
        "nonce": "0x2c8",
        "chainId": "0xa455"
      },
      "additionalContracts": [],
      "isFixedGasLimit": false
    }
  ],
  "receipts": [
    {
      "status": "0x1",
      "cumulativeGasUsed": "0x6a9d",
      "logs": [
        {
          "address": "0xf5c4a909455c00b99a90d93b48736f3196db5621",
          "topics": [
            "0xd4a2ffd4212ea97bb981aae1f4a20d5170df470d2ed811c1b393882bc1d9f0fa",
            "0xe98e2830be1a7e4156d656a7505e65d08c67660dc618072422e9c78053c261e9"
          ],
          "data": "0x",
          "blockHash": "0x62c47f5d577a613363269b1954af95249f66fdf004760f2ccf7e818312cfe1cd",
          "blockNumber": "0xdf93",
          "blockTimestamp": "0x69d3174f",
          "transactionHash": "0xc652e7b8a68dd0f048f9662de44dedca85c4bb2f905e909bb4ec239fe218ce64",
          "transactionIndex": "0x0",
          "logIndex": "0x0",
          "removed": false
        }
      ],
      "logsBloom": "0x00000000000000000000000000000000000000000000000000000000000000000000000000000000002000000000000000000000000000000000000001000000000000000000000000000000000000000000080000000000000000000000000000000400000000000000000000000000000000000000000000000000000000000000000000000000000000000000000000000000000000000000000000000000004000000000000000000000000000000000000000000000000000000000000000000000000000000000000000200000000000000000000000000000000000000000000000000000000500000000000000000000000000000000000000400000",
      "type": "0x2",
      "transactionHash": "0xc652e7b8a68dd0f048f9662de44dedca85c4bb2f905e909bb4ec239fe218ce64",
      "transactionIndex": "0x0",
      "blockHash": "0x62c47f5d577a613363269b1954af95249f66fdf004760f2ccf7e818312cfe1cd",
      "blockNumber": "0xdf93",
      "gasUsed": "0x6a9d",
      "effectiveGasPrice": "0x8",
      "blobGasPrice": "0x1",
      "from": "0xf39fd6e51aad88f6f4ce6ab8827279cfffb92266",
      "to": "0xf5c4a909455c00b99a90d93b48736f3196db5621",
      "contractAddress": null,
      "blockTimestamp": 1775441743
    },
    {
      "status": "0x1",
      "cumulativeGasUsed": "0x109e6",
      "logs": [
        {
          "address": "0xf5c4a909455c00b99a90d93b48736f3196db5621",
          "topics": [
            "0xd1e0ff31b5a8e9db7a93db8b63d84e896cce257bc637e6d369f43178eedd98ce",
            "0xe98e2830be1a7e4156d656a7505e65d08c67660dc618072422e9c78053c261e9"
          ],
          "data": "0x000000000000000000000000000000000000000000000000000005e96630e800000000000000000000000000000000000000000000000000000005e8eefb5400",
          "blockHash": "0x62c47f5d577a613363269b1954af95249f66fdf004760f2ccf7e818312cfe1cd",
          "blockNumber": "0xdf93",
          "blockTimestamp": "0x69d3174f",
          "transactionHash": "0x051fc0c598f16535856cf478fec5935b35a9d17b295d835f558ce60e52a9665e",
          "transactionIndex": "0x1",
          "logIndex": "0x1",
          "removed": false
        }
      ],
      "logsBloom": "0x00000000000000000000000000000000000000000000000000000000000000000000000000000000002000000000000000000000000000000000000001000000000000000000000000000000000000000000000000000000000000001000000000000400000000000000000000000000000000000000000000000000000000000001000000000000000000000000000000000000000000000000000000000000000000000000000000000000020000000000000000000000000000000000000000000000000000000000000000200000000000000000000000000000000000000000000000000000000100000000000000000000000000000000000000400000",
      "type": "0x2",
      "transactionHash": "0x051fc0c598f16535856cf478fec5935b35a9d17b295d835f558ce60e52a9665e",
      "transactionIndex": "0x1",
      "blockHash": "0x62c47f5d577a613363269b1954af95249f66fdf004760f2ccf7e818312cfe1cd",
      "blockNumber": "0xdf93",
      "gasUsed": "0x9f49",
      "effectiveGasPrice": "0x8",
      "blobGasPrice": "0x1",
      "from": "0xf39fd6e51aad88f6f4ce6ab8827279cfffb92266",
      "to": "0xf5c4a909455c00b99a90d93b48736f3196db5621",
      "contractAddress": null,
      "blockTimestamp": 1775441743
    },
    {
      "status": "0x1",
      "cumulativeGasUsed": "0x17483",
      "logs": [
        {
          "address": "0xf5c4a909455c00b99a90d93b48736f3196db5621",
          "topics": [
            "0xd4a2ffd4212ea97bb981aae1f4a20d5170df470d2ed811c1b393882bc1d9f0fa",
            "0xaaaebeba3810b1e6b70781f14b2d72c1cb89c0b2b320c43bb67ff79f562f5ff4"
          ],
          "data": "0x",
          "blockHash": "0x62c47f5d577a613363269b1954af95249f66fdf004760f2ccf7e818312cfe1cd",
          "blockNumber": "0xdf93",
          "blockTimestamp": "0x69d3174f",
          "transactionHash": "0x610bbd82e17e2dcec33003a14757970e38dec7c9e1685e210f5869c4bd30cf8d",
          "transactionIndex": "0x2",
          "logIndex": "0x2",
          "removed": false
        }
      ],
      "logsBloom": "0x00000000000000000000000000000000000000000000000000000000000000000000000000000000000000000000000000000000000000000000000001000000000000000000000000000000000000000000080000000000000000000000000000000400000000000000000000000000000000040000000000000000000000000000000000000000000000008000000000000000000000000000000000000000004000000000000000000000000000000000000000000000000000000000000000000000000000000000000000200000000000000000000000001000000000000000000000000000000400000000000000000000000000000000000000000000",
      "type": "0x2",
      "transactionHash": "0x610bbd82e17e2dcec33003a14757970e38dec7c9e1685e210f5869c4bd30cf8d",
      "transactionIndex": "0x2",
      "blockHash": "0x62c47f5d577a613363269b1954af95249f66fdf004760f2ccf7e818312cfe1cd",
      "blockNumber": "0xdf93",
      "gasUsed": "0x6a9d",
      "effectiveGasPrice": "0x8",
      "blobGasPrice": "0x1",
      "from": "0xf39fd6e51aad88f6f4ce6ab8827279cfffb92266",
      "to": "0xf5c4a909455c00b99a90d93b48736f3196db5621",
      "contractAddress": null,
      "blockTimestamp": 1775441743
    },
    {
      "status": "0x1",
      "cumulativeGasUsed": "0x213b4",
      "logs": [
        {
          "address": "0xf5c4a909455c00b99a90d93b48736f3196db5621",
          "topics": [
            "0xd1e0ff31b5a8e9db7a93db8b63d84e896cce257bc637e6d369f43178eedd98ce",
            "0xaaaebeba3810b1e6b70781f14b2d72c1cb89c0b2b320c43bb67ff79f562f5ff4"
          ],
          "data": "0x0000000000000000000000000000000000000000000000000000004a817c80000000000000000000000000000000000000000000000000000000004a7590be00",
          "blockHash": "0x62c47f5d577a613363269b1954af95249f66fdf004760f2ccf7e818312cfe1cd",
          "blockNumber": "0xdf93",
          "blockTimestamp": "0x69d3174f",
          "transactionHash": "0x86462af0925adf3c60938089d72b6f580bbdf028eeb90379d09d8e254ba516c4",
          "transactionIndex": "0x3",
          "logIndex": "0x3",
          "removed": false
        }
      ],
      "logsBloom": "0x00000000000000000000000000000000000000000000000000000000000000000000000000000000000000000000000000000000000000000000000001000000000000000000000000000000000000000000000000000000000000001000000000000400000000000000000000000000000000040000000000000000000000000001000000000000000000008000000000000000000000000000000000000000000000000000000000000000020000000000000000000000000000000000000000000000000000000000000000200000000000000000000000001000000000000000000000000000000000000000000000000000000000000000000000000000",
      "type": "0x2",
      "transactionHash": "0x86462af0925adf3c60938089d72b6f580bbdf028eeb90379d09d8e254ba516c4",
      "transactionIndex": "0x3",
      "blockHash": "0x62c47f5d577a613363269b1954af95249f66fdf004760f2ccf7e818312cfe1cd",
      "blockNumber": "0xdf93",
      "gasUsed": "0x9f31",
      "effectiveGasPrice": "0x8",
      "blobGasPrice": "0x1",
      "from": "0xf39fd6e51aad88f6f4ce6ab8827279cfffb92266",
      "to": "0xf5c4a909455c00b99a90d93b48736f3196db5621",
      "contractAddress": null,
      "blockTimestamp": 1775441743
    },
    {
      "status": "0x1",
      "cumulativeGasUsed": "0x27e51",
      "logs": [
        {
          "address": "0xf5c4a909455c00b99a90d93b48736f3196db5621",
          "topics": [
            "0xd4a2ffd4212ea97bb981aae1f4a20d5170df470d2ed811c1b393882bc1d9f0fa",
            "0x0a3ec4fc70eaf64faf6eeda4e9b2bd4742a785464053aa23afad8bd24650e86f"
          ],
          "data": "0x",
          "blockHash": "0x62c47f5d577a613363269b1954af95249f66fdf004760f2ccf7e818312cfe1cd",
          "blockNumber": "0xdf93",
          "blockTimestamp": "0x69d3174f",
          "transactionHash": "0xc2a7cd45a963bef9678fd6643e4f2d1141fbbdde20ee2a8f207b1a8b68e87c0a",
          "transactionIndex": "0x4",
          "logIndex": "0x4",
          "removed": false
        }
      ],
      "logsBloom": "0x00000000000000000000000000000000000000000000000000000000000000000000000000000002000000000000000000000000000000000000000001000000000000000000000000000000000000000000080000000000000000000000000000000400000000000000000000000000000000000000000000000000000000000000000000000000000000000000000000000000000000000000000000000000004000000000000000000000000000000000000000000000000000000000000000000000000000000000000000200000000008000000000000000000000040000000000000000000000400000000000000000000000000000000000000000000",
      "type": "0x2",
      "transactionHash": "0xc2a7cd45a963bef9678fd6643e4f2d1141fbbdde20ee2a8f207b1a8b68e87c0a",
      "transactionIndex": "0x4",
      "blockHash": "0x62c47f5d577a613363269b1954af95249f66fdf004760f2ccf7e818312cfe1cd",
      "blockNumber": "0xdf93",
      "gasUsed": "0x6a9d",
      "effectiveGasPrice": "0x8",
      "blobGasPrice": "0x1",
      "from": "0xf39fd6e51aad88f6f4ce6ab8827279cfffb92266",
      "to": "0xf5c4a909455c00b99a90d93b48736f3196db5621",
      "contractAddress": null,
      "blockTimestamp": 1775441743
    },
    {
      "status": "0x1",
      "cumulativeGasUsed": "0x31d8e",
      "logs": [
        {
          "address": "0xf5c4a909455c00b99a90d93b48736f3196db5621",
          "topics": [
            "0xd1e0ff31b5a8e9db7a93db8b63d84e896cce257bc637e6d369f43178eedd98ce",
            "0x0a3ec4fc70eaf64faf6eeda4e9b2bd4742a785464053aa23afad8bd24650e86f"
          ],
          "data": "0x0000000000000000000000000000000000000000000000000000000430e234000000000000000000000000000000000000000000000000000000000430499d80",
          "blockHash": "0x62c47f5d577a613363269b1954af95249f66fdf004760f2ccf7e818312cfe1cd",
          "blockNumber": "0xdf93",
          "blockTimestamp": "0x69d3174f",
          "transactionHash": "0x63154a1054754b5bfa9d7af6ac2dda5a524e828a7b2a2189d2cd42be0eba49b5",
          "transactionIndex": "0x5",
          "logIndex": "0x5",
          "removed": false
        }
      ],
      "logsBloom": "0x00000000000000000000000000000000000000000000000000000000000000000000000000000002000000000000000000000000000000000000000001000000000000000000000000000000000000000000000000000000000000001000000000000400000000000000000000000000000000000000000000000000000000000001000000000000000000000000000000000000000000000000000000000000000000000000000000000000020000000000000000000000000000000000000000000000000000000000000000200000000008000000000000000000000040000000000000000000000000000000000000000000000000000000000000000000",
      "type": "0x2",
      "transactionHash": "0x63154a1054754b5bfa9d7af6ac2dda5a524e828a7b2a2189d2cd42be0eba49b5",
      "transactionIndex": "0x5",
      "blockHash": "0x62c47f5d577a613363269b1954af95249f66fdf004760f2ccf7e818312cfe1cd",
      "blockNumber": "0xdf93",
      "gasUsed": "0x9f3d",
      "effectiveGasPrice": "0x8",
      "blobGasPrice": "0x1",
      "from": "0xf39fd6e51aad88f6f4ce6ab8827279cfffb92266",
      "to": "0xf5c4a909455c00b99a90d93b48736f3196db5621",
      "contractAddress": null,
      "blockTimestamp": 1775441743
    },
    {
      "status": "0x1",
      "cumulativeGasUsed": "0x3882b",
      "logs": [
        {
          "address": "0xf5c4a909455c00b99a90d93b48736f3196db5621",
          "topics": [
            "0xd4a2ffd4212ea97bb981aae1f4a20d5170df470d2ed811c1b393882bc1d9f0fa",
            "0x3ed03c38e59dc60c7b69c2a4bf68f9214acd953252b5a90e8f5f59583e9bc3ae"
          ],
          "data": "0x",
          "blockHash": "0x62c47f5d577a613363269b1954af95249f66fdf004760f2ccf7e818312cfe1cd",
          "blockNumber": "0xdf93",
          "blockTimestamp": "0x69d3174f",
          "transactionHash": "0xf840963ae89c2cd0953d7204906de708527ab484cc13016eb1e6240da5b4d1f8",
          "transactionIndex": "0x6",
          "logIndex": "0x6",
          "removed": false
        }
      ],
      "logsBloom": "0x00000000000000000000000000000000000000000000000000000000000000000000000000000000000100000000000000000000000000000000000001000000000000000000000000000000000000000000080000000000000000000000000000000400000000000000000000000000000000000000000000000000000000000020000000000000000000000000000000000000000000000000000000008000004000000000000000000000000000000000000000000000000000000000000000000000000000000000000000200000000000000000000000000000000000000000000000000000000400000000000000000000000000000000000000000000",
      "type": "0x2",
      "transactionHash": "0xf840963ae89c2cd0953d7204906de708527ab484cc13016eb1e6240da5b4d1f8",
      "transactionIndex": "0x6",
      "blockHash": "0x62c47f5d577a613363269b1954af95249f66fdf004760f2ccf7e818312cfe1cd",
      "blockNumber": "0xdf93",
      "gasUsed": "0x6a9d",
      "effectiveGasPrice": "0x8",
      "blobGasPrice": "0x1",
      "from": "0xf39fd6e51aad88f6f4ce6ab8827279cfffb92266",
      "to": "0xf5c4a909455c00b99a90d93b48736f3196db5621",
      "contractAddress": null,
      "blockTimestamp": 1775441743
    },
    {
      "status": "0x1",
      "cumulativeGasUsed": "0x4275c",
      "logs": [
        {
          "address": "0xf5c4a909455c00b99a90d93b48736f3196db5621",
          "topics": [
            "0xd1e0ff31b5a8e9db7a93db8b63d84e896cce257bc637e6d369f43178eedd98ce",
            "0x3ed03c38e59dc60c7b69c2a4bf68f9214acd953252b5a90e8f5f59583e9bc3ae"
          ],
          "data": "0x0000000000000000000000000000000000000000000000000000000df84758000000000000000000000000000000000000000000000000000000000df7162b00",
          "blockHash": "0x62c47f5d577a613363269b1954af95249f66fdf004760f2ccf7e818312cfe1cd",
          "blockNumber": "0xdf93",
          "blockTimestamp": "0x69d3174f",
          "transactionHash": "0x95643e601fe4134923379fc0714e5ae4eb7948e215b8fa3e783282930ab1c56c",
          "transactionIndex": "0x7",
          "logIndex": "0x7",
          "removed": false
        }
      ],
      "logsBloom": "0x00000000000000000000000000000000000000000000000000000000000000000000000000000000000100000000000000000000000000000000000001000000000000000000000000000000000000000000000000000000000000001000000000000400000000000000000000000000000000000000000000000000000000000021000000000000000000000000000000000000000000000000000000008000000000000000000000000000020000000000000000000000000000000000000000000000000000000000000000200000000000000000000000000000000000000000000000000000000000000000000000000000000000000000000000000000",
      "type": "0x2",
      "transactionHash": "0x95643e601fe4134923379fc0714e5ae4eb7948e215b8fa3e783282930ab1c56c",
      "transactionIndex": "0x7",
      "blockHash": "0x62c47f5d577a613363269b1954af95249f66fdf004760f2ccf7e818312cfe1cd",
      "blockNumber": "0xdf93",
      "gasUsed": "0x9f31",
      "effectiveGasPrice": "0x8",
      "blobGasPrice": "0x1",
      "from": "0xf39fd6e51aad88f6f4ce6ab8827279cfffb92266",
      "to": "0xf5c4a909455c00b99a90d93b48736f3196db5621",
      "contractAddress": null,
      "blockTimestamp": 1775441743
    },
    {
      "status": "0x1",
      "cumulativeGasUsed": "0x491f9",
      "logs": [
        {
          "address": "0xf5c4a909455c00b99a90d93b48736f3196db5621",
          "topics": [
            "0xd4a2ffd4212ea97bb981aae1f4a20d5170df470d2ed811c1b393882bc1d9f0fa",
            "0xa6a7de01e8b7ba6a4a61c782a73188d808fc1f3cf5743fadb68a02ed884b594f"
          ],
          "data": "0x",
          "blockHash": "0x62c47f5d577a613363269b1954af95249f66fdf004760f2ccf7e818312cfe1cd",
          "blockNumber": "0xdf93",
          "blockTimestamp": "0x69d3174f",
          "transactionHash": "0x5d58c86963059fae36776aece5e28ae69ec339d4074c9075ef8d0208a3dda725",
          "transactionIndex": "0x8",
          "logIndex": "0x8",
          "removed": false
        }
      ],
      "logsBloom": "0x00000000000000000000000000000000000000000000000000000000000000000000000000000000000000000000000000000000000000000000000001000000000000000000000000000000000000000000080000000000000000000000400000000400000000000000000000000000000000000000000000000040000000000000000000000000000000000000000000000000000000000000000000000000004000000000000000000000000000000000000000000000000000000000000000000000000000000000000000210000000000000000000000000000000000000000000000000000000400000000000000000000000000000000000000000000",
      "type": "0x2",
      "transactionHash": "0x5d58c86963059fae36776aece5e28ae69ec339d4074c9075ef8d0208a3dda725",
      "transactionIndex": "0x8",
      "blockHash": "0x62c47f5d577a613363269b1954af95249f66fdf004760f2ccf7e818312cfe1cd",
      "blockNumber": "0xdf93",
      "gasUsed": "0x6a9d",
      "effectiveGasPrice": "0x8",
      "blobGasPrice": "0x1",
      "from": "0xf39fd6e51aad88f6f4ce6ab8827279cfffb92266",
      "to": "0xf5c4a909455c00b99a90d93b48736f3196db5621",
      "contractAddress": null,
      "blockTimestamp": 1775441743
    },
    {
      "status": "0x1",
      "cumulativeGasUsed": "0x5312a",
      "logs": [
        {
          "address": "0xf5c4a909455c00b99a90d93b48736f3196db5621",
          "topics": [
            "0xd1e0ff31b5a8e9db7a93db8b63d84e896cce257bc637e6d369f43178eedd98ce",
            "0xa6a7de01e8b7ba6a4a61c782a73188d808fc1f3cf5743fadb68a02ed884b594f"
          ],
          "data": "0x00000000000000000000000000000000000000000000000000000000055d4a80000000000000000000000000000000000000000000000000000000000555a960",
          "blockHash": "0x62c47f5d577a613363269b1954af95249f66fdf004760f2ccf7e818312cfe1cd",
          "blockNumber": "0xdf93",
          "blockTimestamp": "0x69d3174f",
          "transactionHash": "0x9e6a131a8040bfc325478c4a6a80da05506fa83548c0cccb56102156135804c8",
          "transactionIndex": "0x9",
          "logIndex": "0x9",
          "removed": false
        }
      ],
      "logsBloom": "0x00000000000000000000000000000000000000000000000000000000000000000000000000000000000000000000000000000000000000000000000001000000000000000000000000000000000000000000000000000000000000001000400000000400000000000000000000000000000000000000000000000040000000000001000000000000000000000000000000000000000000000000000000000000000000000000000000000000020000000000000000000000000000000000000000000000000000000000000000210000000000000000000000000000000000000000000000000000000000000000000000000000000000000000000000000000",
      "type": "0x2",
      "transactionHash": "0x9e6a131a8040bfc325478c4a6a80da05506fa83548c0cccb56102156135804c8",
      "transactionIndex": "0x9",
      "blockHash": "0x62c47f5d577a613363269b1954af95249f66fdf004760f2ccf7e818312cfe1cd",
      "blockNumber": "0xdf93",
      "gasUsed": "0x9f31",
      "effectiveGasPrice": "0x8",
      "blobGasPrice": "0x1",
      "from": "0xf39fd6e51aad88f6f4ce6ab8827279cfffb92266",
      "to": "0xf5c4a909455c00b99a90d93b48736f3196db5621",
      "contractAddress": null,
      "blockTimestamp": 1775441743
    },
    {
      "status": "0x1",
      "cumulativeGasUsed": "0x59bc7",
      "logs": [
        {
          "address": "0xf5c4a909455c00b99a90d93b48736f3196db5621",
          "topics": [
            "0xd4a2ffd4212ea97bb981aae1f4a20d5170df470d2ed811c1b393882bc1d9f0fa",
            "0xc07524b7a4eecc2784fc7ac17ff2730f877f3cf7a2ceb4e2375fa40a103115d0"
          ],
          "data": "0x",
          "blockHash": "0x62c47f5d577a613363269b1954af95249f66fdf004760f2ccf7e818312cfe1cd",
          "blockNumber": "0xdf93",
          "blockTimestamp": "0x69d3174f",
          "transactionHash": "0xa1c067b6e73247eb9ab60ce5a39bbda9536d6e54733b4b6e6dad6c9048b405a6",
          "transactionIndex": "0xa",
          "logIndex": "0xa",
          "removed": false
        }
      ],
      "logsBloom": "0x00000000000000000000000000000000000000000000000000000000000000000000000000000000000000000000000000000000000000000000000001000000000000000000000000000000000000000000080000000000000000000000000000000400000000000000000000000000000000000000000000000000000000000000000000000000000000000000000000000000000000000000004000000000004000000000000000000000000000000000000000000000002000000000000000000000000000000000000000200000000000000000080000000000000000000000000000000000000400000000000000000000000000000000000000000000",
      "type": "0x2",
      "transactionHash": "0xa1c067b6e73247eb9ab60ce5a39bbda9536d6e54733b4b6e6dad6c9048b405a6",
      "transactionIndex": "0xa",
      "blockHash": "0x62c47f5d577a613363269b1954af95249f66fdf004760f2ccf7e818312cfe1cd",
      "blockNumber": "0xdf93",
      "gasUsed": "0x6a9d",
      "effectiveGasPrice": "0x8",
      "blobGasPrice": "0x1",
      "from": "0xf39fd6e51aad88f6f4ce6ab8827279cfffb92266",
      "to": "0xf5c4a909455c00b99a90d93b48736f3196db5621",
      "contractAddress": null,
      "blockTimestamp": 1775441743
    },
    {
      "status": "0x1",
      "cumulativeGasUsed": "0x63ae0",
      "logs": [
        {
          "address": "0xf5c4a909455c00b99a90d93b48736f3196db5621",
          "topics": [
            "0xd1e0ff31b5a8e9db7a93db8b63d84e896cce257bc637e6d369f43178eedd98ce",
            "0xc07524b7a4eecc2784fc7ac17ff2730f877f3cf7a2ceb4e2375fa40a103115d0"
          ],
          "data": "0x0000000000000000000000000000000000000000000000000000000007270e0000000000000000000000000000000000000000000000000000000000072400c0",
          "blockHash": "0x62c47f5d577a613363269b1954af95249f66fdf004760f2ccf7e818312cfe1cd",
          "blockNumber": "0xdf93",
          "blockTimestamp": "0x69d3174f",
          "transactionHash": "0x2d8cece285212f1dd180c79ba81e9a08c58cdeb18f4ad8e674e869c9b73a9038",
          "transactionIndex": "0xb",
          "logIndex": "0xb",
          "removed": false
        }
      ],
      "logsBloom": "0x00000000000000000000000000000000000000000000000000000000000000000000000000000000000000000000000000000000000000000000000001000000000000000000000000000000000000000000000000000000000000001000000000000400000000000000000000000000000000000000000000000000000000000001000000000000000000000000000000000000000000000000004000000000000000000000000000000000020000000000000000000000002000000000000000000000000000000000000000200000000000000000080000000000000000000000000000000000000000000000000000000000000000000000000000000000",
      "type": "0x2",
      "transactionHash": "0x2d8cece285212f1dd180c79ba81e9a08c58cdeb18f4ad8e674e869c9b73a9038",
      "transactionIndex": "0xb",
      "blockHash": "0x62c47f5d577a613363269b1954af95249f66fdf004760f2ccf7e818312cfe1cd",
      "blockNumber": "0xdf93",
      "gasUsed": "0x9f19",
      "effectiveGasPrice": "0x8",
      "blobGasPrice": "0x1",
      "from": "0xf39fd6e51aad88f6f4ce6ab8827279cfffb92266",
      "to": "0xf5c4a909455c00b99a90d93b48736f3196db5621",
      "contractAddress": null,
      "blockTimestamp": 1775441743
    }
  ],
  "libraries": [],
  "pending": [],
  "returns": {},
  "timestamp": 1775441743704,
  "chain": 42069,
  "commit": "3c7e1b4"
}