{
  "transactions": [
    {
      "hash": "0x16161e824256fa28a547fa6aec803c595f9841a3dc341da2bb3f4291a4537bda",
      "transactionType": "CREATE",
      "contractName": "GoodSwapRouter",
      "contractAddress": "0x975cdd867acb99f0195be09c269e2440aa1b1fa8",
      "function": null,
      "arguments": [
        "0xf39Fd6e51aad88F6F4ce6aB8827279cffFb92266"
      ],
      "transaction": {
        "from": "0xf39fd6e51aad88f6f4ce6ab8827279cfffb92266",
        "gas": "0x11835a",
        "value": "0x0",
        "input": "0x608034608857601f610ec638819003918201601f19168301916001600160401b03831184841017608c57808492602094604052833981010312608857516001600160a01b0381169081900360885760015f558015607957600180546001600160a01b031916919091179055604051610e2590816100a18239f35b63d92e233d60e01b5f5260045ffd5b5f80fd5b634e487b7160e01b5f52604160045260245ffdfe60806040526004361015610011575f80fd5b5f3560e01c80630a9a2b721461097f57806338ed1739146106f2578063531aa03e146106b45780635e1e6325146105f0578063744b92e2146105625780638803dbee146102895780638da5cb5b14610261578063abd9084614610128578063b5217bb4146100f65763f2fde38b14610087575f80fd5b346100f25760203660031901126100f2576100a06109a0565b600154906001600160a01b03821633036100e3576001600160a01b03169081156100d4576001600160a01b03191617600155005b63d92e233d60e01b5f5260045ffd5b6330cd747160e01b5f5260045ffd5b5f80fd5b346100f25760203660031901126100f2576004355f526002602052602060018060a01b0360405f205416604051908152f35b346100f25760203660031901126100f2576101416109a0565b6001546001600160a01b031633036100e3576001600160a01b031680156100d45760405162fc63d160e41b8152602081600481855afa908115610237575f91610242575b50604051635f64b55b60e01b8152602081600481865afa908115610237575f91610208575b506101b58183610d89565b5f90815260026020526040812080546001600160a01b031916851790556001600160a01b0391821692909116907f61afef2e121f71511fab2583c5ac49a5dc1d7a8ad8ad91c44c8465f073a73ac49080a4005b61022a915060203d602011610230575b6102228183610ca4565b810190610d16565b836101aa565b503d610218565b6040513d5f823e3d90fd5b61025b915060203d602011610230576102228183610ca4565b82610185565b346100f2575f3660031901126100f2576001546040516001600160a01b039091168152602090f35b346100f25761029736610a06565b94929091944211610553576102aa610d35565b60028503610544578415610530576102c181610c90565b94600110156105305760206102d69101610c90565b6001600160a01b038216929083156100d4576102f3818784610a7a565b948511610521576103048187610cf2565b6040516323b872dd60e01b8152336004820152306024820152604481018790526001600160a01b0388169391906020816064815f895af1908115610237575f91610502575b50156104625760405163095ea7b360e01b81526001600160a01b0382166004820152602481018890526020816044815f895af1908115610237575f916104e3575b501561046257604051639f1d0f5960e01b81526001600160a01b039889166004820152602481018890526044810183905297602091899160649183915f91165af1968715610237575f976104af575b5086106104a05760405163a9059cbb60e01b81526001600160a01b039384166004820152602481018790529216916020816044815f875af1908115610237575f91610471575b5015610462577fb39c9bc43f811e1a7ce159c5f147458fdb80266bf23c17322013316e27e086d0604060209681519087825288820152a460015f55604051908152f35b6312171d8360e31b5f5260045ffd5b610493915060203d602011610499575b61048b8183610ca4565b810190610cda565b8661041f565b503d610481565b6342301c2360e01b5f5260045ffd5b9096506020813d6020116104db575b816104cb60209383610ca4565b810103126100f2575195876103d9565b3d91506104be565b6104fc915060203d6020116104995761048b8183610ca4565b8961038a565b61051b915060203d6020116104995761048b8183610ca4565b89610349565b63e1b0da4f60e01b5f5260045ffd5b634e487b7160e01b5f52603260045260245ffd5b6320db826760e01b5f5260045ffd5b630407b05b60e31b5f5260045ffd5b346100f25760403660031901126100f25761057b6109a0565b6105836109b6565b6001546001600160a01b031633036100e35761059f8183610d89565b5f90815260026020526040812080546001600160a01b03191690556001600160a01b0391821692909116907f987eb3c2f78454541205f72f34839b434c306c9eaf4922efd7c0c3060fdb2e4c9080a3005b346100f2576105fe366109cc565b906001600160a01b036106118383610cf2565b169182156106905760405163ca706bcf60e01b81526001600160a01b038316600482015260248101859052602081604481875afa8015610237575f9061065d575b602090604051908152f35b506020813d602011610688575b8161067760209383610ca4565b810103126100f25760209051610652565b3d915061066a565b631b27a82d60e11b5f9081526001600160a01b039283166004529116602452604490fd5b346100f25760403660031901126100f25760206106e06106d26109a0565b6106da6109b6565b90610cf2565b6040516001600160a01b039091168152f35b346100f25761070036610a06565b9392909193421161055357610713610d35565b600284036105445783156105305761072a81610c90565b936001101561053057602061073f9101610c90565b6001600160a01b038216929083156100d45761075b8186610cf2565b916001600160a01b038316801561095b576040516323b872dd60e01b8152336004820152306024820152604481018990526001600160a01b03881694906020816064815f8a5af1908115610237575f9161093c575b50156104625760405163095ea7b360e01b81526001600160a01b03919091166004820152602481018990526020816044815f895af1908115610237575f9161091d575b501561046257604051639f1d0f5960e01b81526001600160a01b039790971660048801526024870188905260448701829052602090879060649082905f905af1958615610237575f966108e9575b5085106104a05760405163a9059cbb60e01b81526001600160a01b039384166004820152602481018690529216916020816044815f875af1908115610237575f916108ca575b5015610462577fb39c9bc43f811e1a7ce159c5f147458fdb80266bf23c17322013316e27e086d0604060209681519081528688820152a460015f55604051908152f35b6108e3915060203d6020116104995761048b8183610ca4565b86610887565b9095506020813d602011610915575b8161090560209383610ca4565b810103126100f257519487610841565b3d91506108f8565b610936915060203d6020116104995761048b8183610ca4565b896107f3565b610955915060203d6020116104995761048b8183610ca4565b8a6107b0565b631b27a82d60e11b5f9081526001600160a01b038089166004528416602452604490fd5b346100f2576020610998610992366109cc565b91610a7a565b604051908152f35b600435906001600160a01b03821682036100f257565b602435906001600160a01b03821682036100f257565b60609060031901126100f257600435906024356001600160a01b03811681036100f257906044356001600160a01b03811681036100f25790565b9060a06003198301126100f257600435916024359160443567ffffffffffffffff81116100f257826023820112156100f25780600401359267ffffffffffffffff84116100f25760248460051b830101116100f25760240191906064356001600160a01b03811681036100f2579060843590565b91906001600160a01b03610a8e8383610cf2565b16918215610690575060405163dc5fa6c560e01b815290602082600481865afa918215610237575f92610c5c575b506040516319e36f3b60e01b815292602084600481845afa938415610237575f94610c27575b5060206004916040519283809262fc63d160e41b82525afa908115610237575f91610c08575b506001600160a01b03918216911603610c0357905b80831015610bb057818302918383041483151715610b9c576127108202918083046127101490151715610b9c5782810392818411610b9c576126f284029384046126f21491141715610b9c57818101809111610b9c575f198101908111610b9c578115610b88570490565b634e487b7160e01b5f52601260045260245ffd5b634e487b7160e01b5f52601160045260245ffd5b60405162461bcd60e51b815260206004820152602560248201527f476f6f6453776170526f757465723a20696e73756666696369656e7420726573604482015264657276657360d81b6064820152608490fd5b610b1d565b610c21915060203d602011610230576102228183610ca4565b5f610b08565b9093506020813d602011610c54575b81610c4360209383610ca4565b810103126100f25751926020610ae2565b3d9150610c36565b9091506020813d602011610c88575b81610c7860209383610ca4565b810103126100f25751905f610abc565b3d9150610c6b565b356001600160a01b03811681036100f25790565b90601f8019910116810190811067ffffffffffffffff821117610cc657604052565b634e487b7160e01b5f52604160045260245ffd5b908160209103126100f2575180151581036100f25790565b90610cfc91610d89565b5f908152600260205260409020546001600160a01b031690565b908160209103126100f257516001600160a01b03811681036100f25790565b60025f5414610d445760025f55565b60405162461bcd60e51b815260206004820152601f60248201527f5265656e7472616e637947756172643a207265656e7472616e742063616c6c006044820152606490fd5b6001600160a01b038281169082161015610dea57905b6040519060208201926bffffffffffffffffffffffff199060601b1683526bffffffffffffffffffffffff199060601b16603482015260288152610de4604882610ca4565b51902090565b610d9f56fea26469706673582212204cf8494f996c52b76393e4ad5bc3e527e659727fa9cebb948dd68b1afffb53de64736f6c63430008210033000000000000000000000000f39fd6e51aad88f6f4ce6ab8827279cfffb92266",
        "nonce": "0x245",
        "chainId": "0xa455"
      },
      "additionalContracts": [],
      "isFixedGasLimit": false
    },
    {
      "hash": "0xbff709b7dd4ea06deb88671ef8052a3ca16a58ecfa8f30ff365abc064a213f3f",
      "transactionType": "CREATE",
      "contractName": "GoodPool",
      "contractAddress": "0xd6096fbed8bcc461d06b0c468c8b1cf7d45dc92d",
      "function": null,
      "arguments": [
        "0x8f86403A4DE0BB5791fa46B8e795C547942fE4Cf",
        "0xCD8a1C3ba11CF5ECfa6267617243239504a98d90",
        "0xf39Fd6e51aad88F6F4ce6aB8827279cffFb92266"
      ],
      "transaction": {
        "from": "0xf39fd6e51aad88f6f4ce6ab8827279cfffb92266",
        "gas": "0x114f78",
        "value": "0x0",
        "input": "0x60c03461014d57601f610fd538819003918201601f19168301916001600160401b038311848410176101515780849260609460405283398101031261014d5761004781610165565b90610060604061005960208401610165565b9201610165565b916001600160a01b0382811690821680821461010857101561010357905b60a052608052600180546001600160a01b0319166001600160a01b0392909216919091179055604051610e5b908161017a823960805181818160f60152818161023601528181610673015281816109840152610c76015260a0518181816101b201528181610298015281816105ee015281816106d2015281816109de0152610b330152f35b61007e565b60405162461bcd60e51b815260206004820152601a60248201527f476f6f64506f6f6c3a206964656e746963616c20746f6b656e730000000000006044820152606490fd5b5f80fd5b634e487b7160e01b5f52604160045260245ffd5b51906001600160a01b038216820361014d5756fe6080806040526004361015610012575f80fd5b5f3560e01c9081630fc63d1014610c645750806315770f9214610c4757806319e36f3b14610c2a578063398482d814610c10578063492fb34314610be95780635a0a3d8214610b625780635f64b55b14610b1e5780638da5cb5b14610af65780639c8f9f23146108c35780639cd441da1461061d5780639f1d0f591461021b578063b8c876b1146101e3578063ca706bcf146100d75763dc5fa6c5146100b6575f80fd5b346100d3575f3660031901126100d3576020600254604051908152f35b5f80fd5b346100d35760403660031901126100d3576100f0610ca5565b602435907f00000000000000000000000000000000000000000000000000000000000000006001600160a01b0390811691169081149061013990829081156101b0575b50610d93565b156101a35760025490600354915b601e8202828104601e148315171561018f5760209361017b61017461018795612710610181950490610d2b565b8092610cbb565b92610d86565b90610cce565b604051908152f35b634e487b7160e01b5f52601160045260245ffd5b6003549060025491610147565b7f00000000000000000000000000000000000000000000000000000000000000006001600160a01b031614905084610133565b346100d35760203660031901126100d3576001600160a01b03610204610ca5565b165f526005602052602060405f2054604051908152f35b346100d35760603660031901126100d357610234610ca5565b7f00000000000000000000000000000000000000000000000000000000000000006001600160a01b038181169216918214916024358380156105eb575b61027a90610d93565b80156105af5783156105a25760025490600354935b851561059c57507f0000000000000000000000000000000000000000000000000000000000000000945b6040516323b872dd60e01b8152336004820152306024820152604481018390526020816064815f895af180156104225761057f575b50601e8202828104601e0361018f5761271090049261031f6103108585610d2b565b916101818361017b818b610cbb565b95604435871061053a578610156104f5575f548492906001600160a01b031680610459575b501561042d5761035f9161035791610d86565b600254610d86565b60025561036e84600354610d2b565b6003555b60405163a9059cbb60e01b81523360048201526024810185905294602090869060449082905f906001600160a01b03165af1948515610422576020956103f7575b506040519283528483015282604083015260608201527f9734819749a91fc3be03ea83205f924ee08479bd3f0da48efc91d94d050cac1e60803392a2604051908152f35b61041690863d881161041b575b61040e8183610d38565b810190610d6e565b6103b3565b503d610404565b6040513d5f823e3d90fd5b6104429161043a91610d86565b600354610d86565b60035561045184600254610d2b565b600255610372565b909192610d0502858104610d05148615171561018f5761271090049081610485575b8593929150610344565b60405163a9059cbb60e01b81526001600160a01b039190911660048201526024810182905292949192916020836044815f8b5af1928315610422576104cf936104d8575b50610d2b565b9290878061047b565b6104f09060203d60201161041b5761040e8183610d38565b6104c9565b60405162461bcd60e51b815260206004820152601f60248201527f476f6f64506f6f6c3a20696e73756666696369656e74207265736572766573006044820152606490fd5b60405162461bcd60e51b815260206004820152601b60248201527f476f6f64506f6f6c3a20736c69707061676520657863656564656400000000006044820152606490fd5b6105979060203d60201161041b5761040e8183610d38565b6102ee565b946102b9565b600354906002549361028f565b60405162461bcd60e51b815260206004820152601460248201527311dbdbd9141bdbdb0e881e995c9bc81a5b9c1d5d60621b6044820152606490fd5b507f00000000000000000000000000000000000000000000000000000000000000006001600160a01b03168214610271565b346100d35760403660031901126100d357600435602435811515806108ba575b1561087d576040516323b872dd60e01b8152336004820152306024820152604481018390526020816064815f6001600160a01b037f0000000000000000000000000000000000000000000000000000000000000000165af1801561042257610860575b506040516323b872dd60e01b8152336004820152306024820152604481018290526020816064815f6001600160a01b037f0000000000000000000000000000000000000000000000000000000000000000165af1801561042257610843575b5060045491826108005761071b6107168383610cbb565b610ddf565b915b82156107ab57827f64b83944e79c3ce8d4c297411de637c3e102d064677aac0c163976ebdcd6f50e916107708260209761075987600254610d86565b60025561076884600354610d86565b600355610d86565b600455335f526005865260405f20610789838254610d86565b90556040805194855260208501919091528301523391606090a2604051908152f35b60405162461bcd60e51b815260206004820152602760248201527f476f6f64506f6f6c3a20696e73756666696369656e74206c6971756964697479604482015266081b5a5b9d195960ca1b6064820152608490fd5b61081661080d8483610cbb565b60025490610cce565b61082c6108238585610cbb565b60035490610cce565b8082101561083c57505b9161071d565b9050610836565b61085b9060203d60201161041b5761040e8183610d38565b6106ff565b6108789060203d60201161041b5761040e8183610d38565b6106a0565b60405162461bcd60e51b815260206004820152601560248201527411dbdbd9141bdbdb0e881e995c9bc8185b5bdd5b9d605a1b6044820152606490fd5b5080151561063d565b346100d35760203660031901126100d35760043580151580610ae0575b15610a9b576108f160025482610cbb565b6109136109016004548093610cce565b9161090e60035485610cbb565b610cce565b335f52600560205260405f2061092a848254610d2b565b905561093883600454610d2b565b60045561094782600254610d2b565b60025561095681600354610d2b565b60035560405163a9059cbb60e01b8152336004820152602481018390526020816044815f6001600160a01b037f0000000000000000000000000000000000000000000000000000000000000000165af1801561042257610a7e575b5060405163a9059cbb60e01b815233600482015260248101829052926020846044815f6001600160a01b037f0000000000000000000000000000000000000000000000000000000000000000165af193841561042257604094610a61575b507f1dc8bb69df2b8e91fbdcbfcf93d951b3f0000f085a95fe3f7946d6161439245d845180610a5233948688846040919493926060820195825260208201520152565b0390a282519182526020820152f35b610a799060203d60201161041b5761040e8183610d38565b610a0f565b610a969060203d60201161041b5761040e8183610d38565b6109b1565b60405162461bcd60e51b815260206004820152601760248201527f476f6f64506f6f6c3a20626164206c7020616d6f756e740000000000000000006044820152606490fd5b50335f52600560205260405f20548111156108e0565b346100d3575f3660031901126100d3576001546040516001600160a01b039091168152602090f35b346100d3575f3660031901126100d3576040517f00000000000000000000000000000000000000000000000000000000000000006001600160a01b03168152602090f35b346100d35760203660031901126100d357610b7b610ca5565b6001546001600160a01b03163303610bae575f80546001600160a01b0319166001600160a01b0392909216919091179055005b60405162461bcd60e51b815260206004820152601360248201527223b7b7b22837b7b61d103737ba1037bbb732b960691b6044820152606490fd5b346100d3575f3660031901126100d3575f546040516001600160a01b039091168152602090f35b346100d3575f3660031901126100d3576020610187610cec565b346100d3575f3660031901126100d3576020600354604051908152f35b346100d3575f3660031901126100d3576020600454604051908152f35b346100d3575f3660031901126100d3577f00000000000000000000000000000000000000000000000000000000000000006001600160a01b03168152602090f35b600435906001600160a01b03821682036100d357565b8181029291811591840414171561018f57565b8115610cd8570490565b634e487b7160e01b5f52601260045260245ffd5b6002548015610d265760035490670de0b6b3a7640000820291808304670de0b6b3a7640000149015171561018f57610d2391610cce565b90565b505f90565b9190820391821161018f57565b90601f8019910116810190811067ffffffffffffffff821117610d5a57604052565b634e487b7160e01b5f52604160045260245ffd5b908160209103126100d3575180151581036100d35790565b9190820180921161018f57565b15610d9a57565b60405162461bcd60e51b815260206004820152601760248201527f476f6f64506f6f6c3a20696e76616c696420746f6b656e0000000000000000006044820152606490fd5b908115610e20576001820180831161018f5760011c825b838210610e01575050565b909250610e1783610e128184610cce565b610d86565b60011c90610df6565b5f915056fea264697066735822122042b9d6e6250d342ead8c97d2eb646815647b52699eefe564696c15430799253064736f6c634300082100330000000000000000000000008f86403a4de0bb5791fa46b8e795c547942fe4cf000000000000000000000000cd8a1c3ba11cf5ecfa6267617243239504a98d90000000000000000000000000f39fd6e51aad88f6f4ce6ab8827279cfffb92266",
        "nonce": "0x246",
        "chainId": "0xa455"
      },
      "additionalContracts": [],
      "isFixedGasLimit": false
    },
    {
      "hash": "0xf27b67b72eee43036e3eb2fcc2c8c0f548f09a4eb21d377b3d26af853ed76a90",
      "transactionType": "CREATE",
      "contractName": "GoodPool",
      "contractAddress": "0x0ad6371dd7e9923d9968d63eb8b9858c700abd9d",
      "function": null,
      "arguments": [
        "0x8f86403A4DE0BB5791fa46B8e795C547942fE4Cf",
        "0xb7278A61aa25c888815aFC32Ad3cC52fF24fE575",
        "0xf39Fd6e51aad88F6F4ce6aB8827279cffFb92266"
      ],
      "transaction": {
        "from": "0xf39fd6e51aad88f6f4ce6ab8827279cfffb92266",
        "gas": "0x114f78",
        "value": "0x0",
        "input": "0x60c03461014d57601f610fd538819003918201601f19168301916001600160401b038311848410176101515780849260609460405283398101031261014d5761004781610165565b90610060604061005960208401610165565b9201610165565b916001600160a01b0382811690821680821461010857101561010357905b60a052608052600180546001600160a01b0319166001600160a01b0392909216919091179055604051610e5b908161017a823960805181818160f60152818161023601528181610673015281816109840152610c76015260a0518181816101b201528181610298015281816105ee015281816106d2015281816109de0152610b330152f35b61007e565b60405162461bcd60e51b815260206004820152601a60248201527f476f6f64506f6f6c3a206964656e746963616c20746f6b656e730000000000006044820152606490fd5b5f80fd5b634e487b7160e01b5f52604160045260245ffd5b51906001600160a01b038216820361014d5756fe6080806040526004361015610012575f80fd5b5f3560e01c9081630fc63d1014610c645750806315770f9214610c4757806319e36f3b14610c2a578063398482d814610c10578063492fb34314610be95780635a0a3d8214610b625780635f64b55b14610b1e5780638da5cb5b14610af65780639c8f9f23146108c35780639cd441da1461061d5780639f1d0f591461021b578063b8c876b1146101e3578063ca706bcf146100d75763dc5fa6c5146100b6575f80fd5b346100d3575f3660031901126100d3576020600254604051908152f35b5f80fd5b346100d35760403660031901126100d3576100f0610ca5565b602435907f00000000000000000000000000000000000000000000000000000000000000006001600160a01b0390811691169081149061013990829081156101b0575b50610d93565b156101a35760025490600354915b601e8202828104601e148315171561018f5760209361017b61017461018795612710610181950490610d2b565b8092610cbb565b92610d86565b90610cce565b604051908152f35b634e487b7160e01b5f52601160045260245ffd5b6003549060025491610147565b7f00000000000000000000000000000000000000000000000000000000000000006001600160a01b031614905084610133565b346100d35760203660031901126100d3576001600160a01b03610204610ca5565b165f526005602052602060405f2054604051908152f35b346100d35760603660031901126100d357610234610ca5565b7f00000000000000000000000000000000000000000000000000000000000000006001600160a01b038181169216918214916024358380156105eb575b61027a90610d93565b80156105af5783156105a25760025490600354935b851561059c57507f0000000000000000000000000000000000000000000000000000000000000000945b6040516323b872dd60e01b8152336004820152306024820152604481018390526020816064815f895af180156104225761057f575b50601e8202828104601e0361018f5761271090049261031f6103108585610d2b565b916101818361017b818b610cbb565b95604435871061053a578610156104f5575f548492906001600160a01b031680610459575b501561042d5761035f9161035791610d86565b600254610d86565b60025561036e84600354610d2b565b6003555b60405163a9059cbb60e01b81523360048201526024810185905294602090869060449082905f906001600160a01b03165af1948515610422576020956103f7575b506040519283528483015282604083015260608201527f9734819749a91fc3be03ea83205f924ee08479bd3f0da48efc91d94d050cac1e60803392a2604051908152f35b61041690863d881161041b575b61040e8183610d38565b810190610d6e565b6103b3565b503d610404565b6040513d5f823e3d90fd5b6104429161043a91610d86565b600354610d86565b60035561045184600254610d2b565b600255610372565b909192610d0502858104610d05148615171561018f5761271090049081610485575b8593929150610344565b60405163a9059cbb60e01b81526001600160a01b039190911660048201526024810182905292949192916020836044815f8b5af1928315610422576104cf936104d8575b50610d2b565b9290878061047b565b6104f09060203d60201161041b5761040e8183610d38565b6104c9565b60405162461bcd60e51b815260206004820152601f60248201527f476f6f64506f6f6c3a20696e73756666696369656e74207265736572766573006044820152606490fd5b60405162461bcd60e51b815260206004820152601b60248201527f476f6f64506f6f6c3a20736c69707061676520657863656564656400000000006044820152606490fd5b6105979060203d60201161041b5761040e8183610d38565b6102ee565b946102b9565b600354906002549361028f565b60405162461bcd60e51b815260206004820152601460248201527311dbdbd9141bdbdb0e881e995c9bc81a5b9c1d5d60621b6044820152606490fd5b507f00000000000000000000000000000000000000000000000000000000000000006001600160a01b03168214610271565b346100d35760403660031901126100d357600435602435811515806108ba575b1561087d576040516323b872dd60e01b8152336004820152306024820152604481018390526020816064815f6001600160a01b037f0000000000000000000000000000000000000000000000000000000000000000165af1801561042257610860575b506040516323b872dd60e01b8152336004820152306024820152604481018290526020816064815f6001600160a01b037f0000000000000000000000000000000000000000000000000000000000000000165af1801561042257610843575b5060045491826108005761071b6107168383610cbb565b610ddf565b915b82156107ab57827f64b83944e79c3ce8d4c297411de637c3e102d064677aac0c163976ebdcd6f50e916107708260209761075987600254610d86565b60025561076884600354610d86565b600355610d86565b600455335f526005865260405f20610789838254610d86565b90556040805194855260208501919091528301523391606090a2604051908152f35b60405162461bcd60e51b815260206004820152602760248201527f476f6f64506f6f6c3a20696e73756666696369656e74206c6971756964697479604482015266081b5a5b9d195960ca1b6064820152608490fd5b61081661080d8483610cbb565b60025490610cce565b61082c6108238585610cbb565b60035490610cce565b8082101561083c57505b9161071d565b9050610836565b61085b9060203d60201161041b5761040e8183610d38565b6106ff565b6108789060203d60201161041b5761040e8183610d38565b6106a0565b60405162461bcd60e51b815260206004820152601560248201527411dbdbd9141bdbdb0e881e995c9bc8185b5bdd5b9d605a1b6044820152606490fd5b5080151561063d565b346100d35760203660031901126100d35760043580151580610ae0575b15610a9b576108f160025482610cbb565b6109136109016004548093610cce565b9161090e60035485610cbb565b610cce565b335f52600560205260405f2061092a848254610d2b565b905561093883600454610d2b565b60045561094782600254610d2b565b60025561095681600354610d2b565b60035560405163a9059cbb60e01b8152336004820152602481018390526020816044815f6001600160a01b037f0000000000000000000000000000000000000000000000000000000000000000165af1801561042257610a7e575b5060405163a9059cbb60e01b815233600482015260248101829052926020846044815f6001600160a01b037f0000000000000000000000000000000000000000000000000000000000000000165af193841561042257604094610a61575b507f1dc8bb69df2b8e91fbdcbfcf93d951b3f0000f085a95fe3f7946d6161439245d845180610a5233948688846040919493926060820195825260208201520152565b0390a282519182526020820152f35b610a799060203d60201161041b5761040e8183610d38565b610a0f565b610a969060203d60201161041b5761040e8183610d38565b6109b1565b60405162461bcd60e51b815260206004820152601760248201527f476f6f64506f6f6c3a20626164206c7020616d6f756e740000000000000000006044820152606490fd5b50335f52600560205260405f20548111156108e0565b346100d3575f3660031901126100d3576001546040516001600160a01b039091168152602090f35b346100d3575f3660031901126100d3576040517f00000000000000000000000000000000000000000000000000000000000000006001600160a01b03168152602090f35b346100d35760203660031901126100d357610b7b610ca5565b6001546001600160a01b03163303610bae575f80546001600160a01b0319166001600160a01b0392909216919091179055005b60405162461bcd60e51b815260206004820152601360248201527223b7b7b22837b7b61d103737ba1037bbb732b960691b6044820152606490fd5b346100d3575f3660031901126100d3575f546040516001600160a01b039091168152602090f35b346100d3575f3660031901126100d3576020610187610cec565b346100d3575f3660031901126100d3576020600354604051908152f35b346100d3575f3660031901126100d3576020600454604051908152f35b346100d3575f3660031901126100d3577f00000000000000000000000000000000000000000000000000000000000000006001600160a01b03168152602090f35b600435906001600160a01b03821682036100d357565b8181029291811591840414171561018f57565b8115610cd8570490565b634e487b7160e01b5f52601260045260245ffd5b6002548015610d265760035490670de0b6b3a7640000820291808304670de0b6b3a7640000149015171561018f57610d2391610cce565b90565b505f90565b9190820391821161018f57565b90601f8019910116810190811067ffffffffffffffff821117610d5a57604052565b634e487b7160e01b5f52604160045260245ffd5b908160209103126100d3575180151581036100d35790565b9190820180921161018f57565b15610d9a57565b60405162461bcd60e51b815260206004820152601760248201527f476f6f64506f6f6c3a20696e76616c696420746f6b656e0000000000000000006044820152606490fd5b908115610e20576001820180831161018f5760011c825b838210610e01575050565b909250610e1783610e128184610cce565b610d86565b60011c90610df6565b5f915056fea264697066735822122042b9d6e6250d342ead8c97d2eb646815647b52699eefe564696c15430799253064736f6c634300082100330000000000000000000000008f86403a4de0bb5791fa46b8e795c547942fe4cf000000000000000000000000b7278a61aa25c888815afc32ad3cc52ff24fe575000000000000000000000000f39fd6e51aad88f6f4ce6ab8827279cfffb92266",
        "nonce": "0x247",
        "chainId": "0xa455"
      },
      "additionalContracts": [],
      "isFixedGasLimit": false
    },
    {
      "hash": "0x187fa9e38d146f14d27687760e0cf78eb690245054f06c88f54431c373946dc6",
      "transactionType": "CREATE",
      "contractName": "GoodPool",
      "contractAddress": "0xaa5c5496e2586f81d8d2d0b970eb85ab088639c2",
      "function": null,
      "arguments": [
        "0xCD8a1C3ba11CF5ECfa6267617243239504a98d90",
        "0xb7278A61aa25c888815aFC32Ad3cC52fF24fE575",
        "0xf39Fd6e51aad88F6F4ce6aB8827279cffFb92266"
      ],
      "transaction": {
        "from": "0xf39fd6e51aad88f6f4ce6ab8827279cfffb92266",
        "gas": "0x114f84",
        "value": "0x0",
        "input": "0x60c03461014d57601f610fd538819003918201601f19168301916001600160401b038311848410176101515780849260609460405283398101031261014d5761004781610165565b90610060604061005960208401610165565b9201610165565b916001600160a01b0382811690821680821461010857101561010357905b60a052608052600180546001600160a01b0319166001600160a01b0392909216919091179055604051610e5b908161017a823960805181818160f60152818161023601528181610673015281816109840152610c76015260a0518181816101b201528181610298015281816105ee015281816106d2015281816109de0152610b330152f35b61007e565b60405162461bcd60e51b815260206004820152601a60248201527f476f6f64506f6f6c3a206964656e746963616c20746f6b656e730000000000006044820152606490fd5b5f80fd5b634e487b7160e01b5f52604160045260245ffd5b51906001600160a01b038216820361014d5756fe6080806040526004361015610012575f80fd5b5f3560e01c9081630fc63d1014610c645750806315770f9214610c4757806319e36f3b14610c2a578063398482d814610c10578063492fb34314610be95780635a0a3d8214610b625780635f64b55b14610b1e5780638da5cb5b14610af65780639c8f9f23146108c35780639cd441da1461061d5780639f1d0f591461021b578063b8c876b1146101e3578063ca706bcf146100d75763dc5fa6c5146100b6575f80fd5b346100d3575f3660031901126100d3576020600254604051908152f35b5f80fd5b346100d35760403660031901126100d3576100f0610ca5565b602435907f00000000000000000000000000000000000000000000000000000000000000006001600160a01b0390811691169081149061013990829081156101b0575b50610d93565b156101a35760025490600354915b601e8202828104601e148315171561018f5760209361017b61017461018795612710610181950490610d2b565b8092610cbb565b92610d86565b90610cce565b604051908152f35b634e487b7160e01b5f52601160045260245ffd5b6003549060025491610147565b7f00000000000000000000000000000000000000000000000000000000000000006001600160a01b031614905084610133565b346100d35760203660031901126100d3576001600160a01b03610204610ca5565b165f526005602052602060405f2054604051908152f35b346100d35760603660031901126100d357610234610ca5565b7f00000000000000000000000000000000000000000000000000000000000000006001600160a01b038181169216918214916024358380156105eb575b61027a90610d93565b80156105af5783156105a25760025490600354935b851561059c57507f0000000000000000000000000000000000000000000000000000000000000000945b6040516323b872dd60e01b8152336004820152306024820152604481018390526020816064815f895af180156104225761057f575b50601e8202828104601e0361018f5761271090049261031f6103108585610d2b565b916101818361017b818b610cbb565b95604435871061053a578610156104f5575f548492906001600160a01b031680610459575b501561042d5761035f9161035791610d86565b600254610d86565b60025561036e84600354610d2b565b6003555b60405163a9059cbb60e01b81523360048201526024810185905294602090869060449082905f906001600160a01b03165af1948515610422576020956103f7575b506040519283528483015282604083015260608201527f9734819749a91fc3be03ea83205f924ee08479bd3f0da48efc91d94d050cac1e60803392a2604051908152f35b61041690863d881161041b575b61040e8183610d38565b810190610d6e565b6103b3565b503d610404565b6040513d5f823e3d90fd5b6104429161043a91610d86565b600354610d86565b60035561045184600254610d2b565b600255610372565b909192610d0502858104610d05148615171561018f5761271090049081610485575b8593929150610344565b60405163a9059cbb60e01b81526001600160a01b039190911660048201526024810182905292949192916020836044815f8b5af1928315610422576104cf936104d8575b50610d2b565b9290878061047b565b6104f09060203d60201161041b5761040e8183610d38565b6104c9565b60405162461bcd60e51b815260206004820152601f60248201527f476f6f64506f6f6c3a20696e73756666696369656e74207265736572766573006044820152606490fd5b60405162461bcd60e51b815260206004820152601b60248201527f476f6f64506f6f6c3a20736c69707061676520657863656564656400000000006044820152606490fd5b6105979060203d60201161041b5761040e8183610d38565b6102ee565b946102b9565b600354906002549361028f565b60405162461bcd60e51b815260206004820152601460248201527311dbdbd9141bdbdb0e881e995c9bc81a5b9c1d5d60621b6044820152606490fd5b507f00000000000000000000000000000000000000000000000000000000000000006001600160a01b03168214610271565b346100d35760403660031901126100d357600435602435811515806108ba575b1561087d576040516323b872dd60e01b8152336004820152306024820152604481018390526020816064815f6001600160a01b037f0000000000000000000000000000000000000000000000000000000000000000165af1801561042257610860575b506040516323b872dd60e01b8152336004820152306024820152604481018290526020816064815f6001600160a01b037f0000000000000000000000000000000000000000000000000000000000000000165af1801561042257610843575b5060045491826108005761071b6107168383610cbb565b610ddf565b915b82156107ab57827f64b83944e79c3ce8d4c297411de637c3e102d064677aac0c163976ebdcd6f50e916107708260209761075987600254610d86565b60025561076884600354610d86565b600355610d86565b600455335f526005865260405f20610789838254610d86565b90556040805194855260208501919091528301523391606090a2604051908152f35b60405162461bcd60e51b815260206004820152602760248201527f476f6f64506f6f6c3a20696e73756666696369656e74206c6971756964697479604482015266081b5a5b9d195960ca1b6064820152608490fd5b61081661080d8483610cbb565b60025490610cce565b61082c6108238585610cbb565b60035490610cce565b8082101561083c57505b9161071d565b9050610836565b61085b9060203d60201161041b5761040e8183610d38565b6106ff565b6108789060203d60201161041b5761040e8183610d38565b6106a0565b60405162461bcd60e51b815260206004820152601560248201527411dbdbd9141bdbdb0e881e995c9bc8185b5bdd5b9d605a1b6044820152606490fd5b5080151561063d565b346100d35760203660031901126100d35760043580151580610ae0575b15610a9b576108f160025482610cbb565b6109136109016004548093610cce565b9161090e60035485610cbb565b610cce565b335f52600560205260405f2061092a848254610d2b565b905561093883600454610d2b565b60045561094782600254610d2b565b60025561095681600354610d2b565b60035560405163a9059cbb60e01b8152336004820152602481018390526020816044815f6001600160a01b037f0000000000000000000000000000000000000000000000000000000000000000165af1801561042257610a7e575b5060405163a9059cbb60e01b815233600482015260248101829052926020846044815f6001600160a01b037f0000000000000000000000000000000000000000000000000000000000000000165af193841561042257604094610a61575b507f1dc8bb69df2b8e91fbdcbfcf93d951b3f0000f085a95fe3f7946d6161439245d845180610a5233948688846040919493926060820195825260208201520152565b0390a282519182526020820152f35b610a799060203d60201161041b5761040e8183610d38565b610a0f565b610a969060203d60201161041b5761040e8183610d38565b6109b1565b60405162461bcd60e51b815260206004820152601760248201527f476f6f64506f6f6c3a20626164206c7020616d6f756e740000000000000000006044820152606490fd5b50335f52600560205260405f20548111156108e0565b346100d3575f3660031901126100d3576001546040516001600160a01b039091168152602090f35b346100d3575f3660031901126100d3576040517f00000000000000000000000000000000000000000000000000000000000000006001600160a01b03168152602090f35b346100d35760203660031901126100d357610b7b610ca5565b6001546001600160a01b03163303610bae575f80546001600160a01b0319166001600160a01b0392909216919091179055005b60405162461bcd60e51b815260206004820152601360248201527223b7b7b22837b7b61d103737ba1037bbb732b960691b6044820152606490fd5b346100d3575f3660031901126100d3575f546040516001600160a01b039091168152602090f35b346100d3575f3660031901126100d3576020610187610cec565b346100d3575f3660031901126100d3576020600354604051908152f35b346100d3575f3660031901126100d3576020600454604051908152f35b346100d3575f3660031901126100d3577f00000000000000000000000000000000000000000000000000000000000000006001600160a01b03168152602090f35b600435906001600160a01b03821682036100d357565b8181029291811591840414171561018f57565b8115610cd8570490565b634e487b7160e01b5f52601260045260245ffd5b6002548015610d265760035490670de0b6b3a7640000820291808304670de0b6b3a7640000149015171561018f57610d2391610cce565b90565b505f90565b9190820391821161018f57565b90601f8019910116810190811067ffffffffffffffff821117610d5a57604052565b634e487b7160e01b5f52604160045260245ffd5b908160209103126100d3575180151581036100d35790565b9190820180921161018f57565b15610d9a57565b60405162461bcd60e51b815260206004820152601760248201527f476f6f64506f6f6c3a20696e76616c696420746f6b656e0000000000000000006044820152606490fd5b908115610e20576001820180831161018f5760011c825b838210610e01575050565b909250610e1783610e128184610cce565b610d86565b60011c90610df6565b5f915056fea264697066735822122042b9d6e6250d342ead8c97d2eb646815647b52699eefe564696c15430799253064736f6c63430008210033000000000000000000000000cd8a1c3ba11cf5ecfa6267617243239504a98d90000000000000000000000000b7278a61aa25c888815afc32ad3cc52ff24fe575000000000000000000000000f39fd6e51aad88f6f4ce6ab8827279cfffb92266",
        "nonce": "0x248",
        "chainId": "0xa455"
      },
      "additionalContracts": [],
      "isFixedGasLimit": false
    },
    {
      "hash": "0x7a05d81a03280108ae87a2d0d9123a8fe7c908680938cf367bfcae74708afae6",
      "transactionType": "CALL",
      "contractName": "GoodPool",
      "contractAddress": "0xd6096fbed8bcc461d06b0c468c8b1cf7d45dc92d",
      "function": "setFeeBeneficiary(address)",
      "arguments": [
        "0x809d550fca64d94Bd9F66E60752A544199cfAC3D"
      ],
      "transaction": {
        "from": "0xf39fd6e51aad88f6f4ce6ab8827279cfffb92266",
        "to": "0xd6096fbed8bcc461d06b0c468c8b1cf7d45dc92d",
        "gas": "0xf879",
        "value": "0x0",
        "input": "0x5a0a3d82000000000000000000000000809d550fca64d94bd9f66e60752a544199cfac3d",
        "nonce": "0x249",
        "chainId": "0xa455"
      },
      "additionalContracts": [],
      "isFixedGasLimit": false
    },
    {
      "hash": "0x44ea9885526b5e54e5f88dafa6f8d3e8b1cb3792c70cc0bee722e7bf572bb8b4",
      "transactionType": "CALL",
      "contractName": "GoodPool",
      "contractAddress": "0x0ad6371dd7e9923d9968d63eb8b9858c700abd9d",
      "function": "setFeeBeneficiary(address)",
      "arguments": [
        "0x809d550fca64d94Bd9F66E60752A544199cfAC3D"
      ],
      "transaction": {
        "from": "0xf39fd6e51aad88f6f4ce6ab8827279cfffb92266",
        "to": "0x0ad6371dd7e9923d9968d63eb8b9858c700abd9d",
        "gas": "0xf879",
        "value": "0x0",
        "input": "0x5a0a3d82000000000000000000000000809d550fca64d94bd9f66e60752a544199cfac3d",
        "nonce": "0x24a",
        "chainId": "0xa455"
      },
      "additionalContracts": [],
      "isFixedGasLimit": false
    },
    {
      "hash": "0x94fdc69e584dc64b15ba859de1bce5a95cd737552c8a01bbda446c3f5f35b9eb",
      "transactionType": "CALL",
      "contractName": "GoodPool",
      "contractAddress": "0xaa5c5496e2586f81d8d2d0b970eb85ab088639c2",
      "function": "setFeeBeneficiary(address)",
      "arguments": [
        "0x809d550fca64d94Bd9F66E60752A544199cfAC3D"
      ],
      "transaction": {
        "from": "0xf39fd6e51aad88f6f4ce6ab8827279cfffb92266",
        "to": "0xaa5c5496e2586f81d8d2d0b970eb85ab088639c2",
        "gas": "0xf879",
        "value": "0x0",
        "input": "0x5a0a3d82000000000000000000000000809d550fca64d94bd9f66e60752a544199cfac3d",
        "nonce": "0x24b",
        "chainId": "0xa455"
      },
      "additionalContracts": [],
      "isFixedGasLimit": false
    },
    {
      "hash": "0x7960114e2de56141ecbf721f5de7708009074a6f0c9e52a1af7591f46e62c77d",
      "transactionType": "CALL",
      "contractName": null,
      "contractAddress": "0x8f86403a4de0bb5791fa46b8e795c547942fe4cf",
      "function": "approve(address,uint256)",
      "arguments": [
        "0xd6096fbEd8bCc461d06b0C468C8b1cF7d45dC92d",
        "500000000000000000000000"
      ],
      "transaction": {
        "from": "0xf39fd6e51aad88f6f4ce6ab8827279cfffb92266",
        "to": "0x8f86403a4de0bb5791fa46b8e795c547942fe4cf",
        "gas": "0xf824",
        "value": "0x0",
        "input": "0x095ea7b3000000000000000000000000d6096fbed8bcc461d06b0c468c8b1cf7d45dc92d0000000000000000000000000000000000000000000069e10de76676d0800000",
        "nonce": "0x24c",
        "chainId": "0xa455"
      },
      "additionalContracts": [],
      "isFixedGasLimit": false
    },
    {
      "hash": "0xa76ab07ef145d3416ef30f42087ef4e84797e9c6a3f2b32757cbb6b8445a6b2c",
      "transactionType": "CALL",
      "contractName": null,
      "contractAddress": "0xcd8a1c3ba11cf5ecfa6267617243239504a98d90",
      "function": "approve(address,uint256)",
      "arguments": [
        "0xd6096fbEd8bCc461d06b0C468C8b1cF7d45dC92d",
        "500000000000000000000"
      ],
      "transaction": {
        "from": "0xf39fd6e51aad88f6f4ce6ab8827279cfffb92266",
        "to": "0xcd8a1c3ba11cf5ecfa6267617243239504a98d90",
        "gas": "0xee22",
        "value": "0x0",
        "input": "0x095ea7b3000000000000000000000000d6096fbed8bcc461d06b0c468c8b1cf7d45dc92d00000000000000000000000000000000000000000000001b1ae4d6e2ef500000",
        "nonce": "0x24d",
        "chainId": "0xa455"
      },
      "additionalContracts": [],
      "isFixedGasLimit": false
    },
    {
      "hash": "0x268511028a081a1cf35373937ba12a4c16cec0a4a5b5927031ef6bc19d0c00aa",
      "transactionType": "CALL",
      "contractName": "GoodPool",
      "contractAddress": "0xd6096fbed8bcc461d06b0c468c8b1cf7d45dc92d",
      "function": "addLiquidity(uint256,uint256)",
      "arguments": [
        "500000000000000000000000",
        "500000000000000000000"
      ],
      "transaction": {
        "from": "0xf39fd6e51aad88f6f4ce6ab8827279cfffb92266",
        "to": "0xd6096fbed8bcc461d06b0c468c8b1cf7d45dc92d",
        "gas": "0x44ede",
        "value": "0x0",
        "input": "0x9cd441da0000000000000000000000000000000000000000000069e10de76676d080000000000000000000000000000000000000000000000000001b1ae4d6e2ef500000",
        "nonce": "0x24e",
        "chainId": "0xa455"
      },
      "additionalContracts": [],
      "isFixedGasLimit": false
    },
    {
      "hash": "0x6eaf57f7973269f27011ce6c5e22203ba76fd451821167c508b122a2f1bb9800",
      "transactionType": "CALL",
      "contractName": null,
      "contractAddress": "0x8f86403a4de0bb5791fa46b8e795c547942fe4cf",
      "function": "approve(address,uint256)",
      "arguments": [
        "0x0aD6371dd7E9923d9968D63Eb8B9858c700abD9d",
        "500000000000000000000000"
      ],
      "transaction": {
        "from": "0xf39fd6e51aad88f6f4ce6ab8827279cfffb92266",
        "to": "0x8f86403a4de0bb5791fa46b8e795c547942fe4cf",
        "gas": "0xf824",
        "value": "0x0",
        "input": "0x095ea7b30000000000000000000000000ad6371dd7e9923d9968d63eb8b9858c700abd9d0000000000000000000000000000000000000000000069e10de76676d0800000",
        "nonce": "0x24f",
        "chainId": "0xa455"
      },
      "additionalContracts": [],
      "isFixedGasLimit": false
    },
    {
      "hash": "0x06ef41c14701698b4795672d0ad4c3f1f5b5533c190a779c6d78ab992c44a9f7",
      "transactionType": "CALL",
      "contractName": null,
      "contractAddress": "0xb7278a61aa25c888815afc32ad3cc52ff24fe575",
      "function": "approve(address,uint256)",
      "arguments": [
        "0x0aD6371dd7E9923d9968D63Eb8B9858c700abD9d",
        "500000000000"
      ],
      "transaction": {
        "from": "0xf39fd6e51aad88f6f4ce6ab8827279cfffb92266",
        "to": "0xb7278a61aa25c888815afc32ad3cc52ff24fe575",
        "gas": "0xedf0",
        "value": "0x0",
        "input": "0x095ea7b30000000000000000000000000ad6371dd7e9923d9968d63eb8b9858c700abd9d000000000000000000000000000000000000000000000000000000746a528800",
        "nonce": "0x250",
        "chainId": "0xa455"
      },
      "additionalContracts": [],
      "isFixedGasLimit": false
    },
    {
      "hash": "0x580960142ef7d45b23318794be7317dbf7b60f214ad026d4515dcd47d2d108c3",
      "transactionType": "CALL",
      "contractName": "GoodPool",
      "contractAddress": "0x0ad6371dd7e9923d9968d63eb8b9858c700abd9d",
      "function": "addLiquidity(uint256,uint256)",
      "arguments": [
        "500000000000000000000000",
        "500000000000"
      ],
      "transaction": {
        "from": "0xf39fd6e51aad88f6f4ce6ab8827279cfffb92266",
        "to": "0x0ad6371dd7e9923d9968d63eb8b9858c700abd9d",
        "gas": "0x403a3",
        "value": "0x0",
        "input": "0x9cd441da0000000000000000000000000000000000000000000069e10de76676d0800000000000000000000000000000000000000000000000000000000000746a528800",
        "nonce": "0x251",
        "chainId": "0xa455"
      },
      "additionalContracts": [],
      "isFixedGasLimit": false
    },
    {
      "hash": "0x991b1dbe173b4762d82ad4f34ca8976d26bdff0a9036dd45285cfd8d5a281870",
      "transactionType": "CALL",
      "contractName": null,
      "contractAddress": "0xcd8a1c3ba11cf5ecfa6267617243239504a98d90",
      "function": "approve(address,uint256)",
      "arguments": [
        "0xAA5c5496e2586F81d8d2d0B970eB85aB088639c2",
        "100000000000000000000"
      ],
      "transaction": {
        "from": "0xf39fd6e51aad88f6f4ce6ab8827279cfffb92266",
        "to": "0xcd8a1c3ba11cf5ecfa6267617243239504a98d90",
        "gas": "0xee22",
        "value": "0x0",
        "input": "0x095ea7b3000000000000000000000000aa5c5496e2586f81d8d2d0b970eb85ab088639c20000000000000000000000000000000000000000000000056bc75e2d63100000",
        "nonce": "0x252",
        "chainId": "0xa455"
      },
      "additionalContracts": [],
      "isFixedGasLimit": false
    },
    {
      "hash": "0xa12111bbf45a33a1b5e8b38cca4cedc517b496dc8cfdaa9e242b37204120f775",
      "transactionType": "CALL",
      "contractName": null,
      "contractAddress": "0xb7278a61aa25c888815afc32ad3cc52ff24fe575",
      "function": "approve(address,uint256)",
      "arguments": [
        "0xAA5c5496e2586F81d8d2d0B970eB85aB088639c2",
        "300000000000"
      ],
      "transaction": {
        "from": "0xf39fd6e51aad88f6f4ce6ab8827279cfffb92266",
        "to": "0xb7278a61aa25c888815afc32ad3cc52ff24fe575",
        "gas": "0xedf0",
        "value": "0x0",
        "input": "0x095ea7b3000000000000000000000000aa5c5496e2586f81d8d2d0b970eb85ab088639c200000000000000000000000000000000000000000000000000000045d964b800",
        "nonce": "0x253",
        "chainId": "0xa455"
      },
      "additionalContracts": [],
      "isFixedGasLimit": false
    },
    {
      "hash": "0xa3f2e720925db93054501506f705f7365c5f0ae3248252c1ac9b9f46a5859fa3",
      "transactionType": "CALL",
      "contractName": "GoodPool",
      "contractAddress": "0xaa5c5496e2586f81d8d2d0b970eb85ab088639c2",
      "function": "addLiquidity(uint256,uint256)",
      "arguments": [
        "300000000000",
        "100000000000000000000"
      ],
      "transaction": {
        "from": "0xf39fd6e51aad88f6f4ce6ab8827279cfffb92266",
        "to": "0xaa5c5496e2586f81d8d2d0b970eb85ab088639c2",
        "gas": "0x4389c",
        "value": "0x0",
        "input": "0x9cd441da00000000000000000000000000000000000000000000000000000045d964b8000000000000000000000000000000000000000000000000056bc75e2d63100000",
        "nonce": "0x254",
        "chainId": "0xa455"
      },
      "additionalContracts": [],
      "isFixedGasLimit": false
    },
    {
      "hash": "0x24d83d2a0dc36497df42f1f61ff2d5710c44b683ee5385fdc802d90f114b3d01",
      "transactionType": "CALL",
      "contractName": "GoodSwapRouter",
      "contractAddress": "0x975cdd867acb99f0195be09c269e2440aa1b1fa8",
      "function": "registerPool(address)",
      "arguments": [
        "0xd6096fbEd8bCc461d06b0C468C8b1cF7d45dC92d"
      ],
      "transaction": {
        "from": "0xf39fd6e51aad88f6f4ce6ab8827279cfffb92266",
        "to": "0x975cdd867acb99f0195be09c269e2440aa1b1fa8",
        "gas": "0x119ee",
        "value": "0x0",
        "input": "0xabd90846000000000000000000000000d6096fbed8bcc461d06b0c468c8b1cf7d45dc92d",
        "nonce": "0x255",
        "chainId": "0xa455"
      },
      "additionalContracts": [],
      "isFixedGasLimit": false
    },
    {
      "hash": "0x4f52af6eb8ae318831cd03e7ff765090994ed3a30b4d3e0787a531d917bc580e",
      "transactionType": "CALL",
      "contractName": "GoodSwapRouter",
      "contractAddress": "0x975cdd867acb99f0195be09c269e2440aa1b1fa8",
      "function": "registerPool(address)",
      "arguments": [
        "0x0aD6371dd7E9923d9968D63Eb8B9858c700abD9d"
      ],
      "transaction": {
        "from": "0xf39fd6e51aad88f6f4ce6ab8827279cfffb92266",
        "to": "0x975cdd867acb99f0195be09c269e2440aa1b1fa8",
        "gas": "0x119ee",
        "value": "0x0",
        "input": "0xabd908460000000000000000000000000ad6371dd7e9923d9968d63eb8b9858c700abd9d",
        "nonce": "0x256",
        "chainId": "0xa455"
      },
      "additionalContracts": [],
      "isFixedGasLimit": false
    },
    {
      "hash": "0xa09c72e363739531e1e279ec6e68686de6bf9561b56b3fe6cd3cea516de781c0",
      "transactionType": "CALL",
      "contractName": "GoodSwapRouter",
      "contractAddress": "0x975cdd867acb99f0195be09c269e2440aa1b1fa8",
      "function": "registerPool(address)",
      "arguments": [
        "0xAA5c5496e2586F81d8d2d0B970eB85aB088639c2"
      ],
      "transaction": {
        "from": "0xf39fd6e51aad88f6f4ce6ab8827279cfffb92266",
        "to": "0x975cdd867acb99f0195be09c269e2440aa1b1fa8",
        "gas": "0x119ee",
        "value": "0x0",
        "input": "0xabd90846000000000000000000000000aa5c5496e2586f81d8d2d0b970eb85ab088639c2",
        "nonce": "0x257",
        "chainId": "0xa455"
      },
      "additionalContracts": [],
      "isFixedGasLimit": false
    }
  ],
  "receipts": [
    {
      "status": "0x1",
      "cumulativeGasUsed": "0xd78bc",
      "logs": [],
      "logsBloom": "0x00000000000000000000000000000000000000000000000000000000000000000000000000000000000000000000000000000000000000000000000000000000000000000000000000000000000000000000000000000000000000000000000000000000000000000000000000000000000000000000000000000000000000000000000000000000000000000000000000000000000000000000000000000000000000000000000000000000000000000000000000000000000000000000000000000000000000000000000000000000000000000000000000000000000000000000000000000000000000000000000000000000000000000000000000000000",
      "type": "0x0",
      "transactionHash": "0x16161e824256fa28a547fa6aec803c595f9841a3dc341da2bb3f4291a4537bda",
      "transactionIndex": "0x0",
      "blockHash": "0xb56ddaeb8c3570e6e2ae11784f7e03e6f699f58ba8f5edf32f6ddccb221407cc",
      "blockNumber": "0x13de7",
      "gasUsed": "0xd78bc",
      "effectiveGasPrice": "0x3b9aca07",
      "blobGasPrice": "0x1",
      "from": "0xf39fd6e51aad88f6f4ce6ab8827279cfffb92266",
      "to": null,
      "contractAddress": "0x975cdd867acb99f0195be09c269e2440aa1b1fa8",
      "blockTimestamp": 1778864538
    },
    {
      "status": "0x1",
      "cumulativeGasUsed": "0x1ac98f",
      "logs": [],
      "logsBloom": "0x00000000000000000000000000000000000000000000000000000000000000000000000000000000000000000000000000000000000000000000000000000000000000000000000000000000000000000000000000000000000000000000000000000000000000000000000000000000000000000000000000000000000000000000000000000000000000000000000000000000000000000000000000000000000000000000000000000000000000000000000000000000000000000000000000000000000000000000000000000000000000000000000000000000000000000000000000000000000000000000000000000000000000000000000000000000",
      "type": "0x0",
      "transactionHash": "0xa3f2e720925db93054501506f705f7365c5f0ae3248252c1ac9b9f46a5859fa3",
      "transactionIndex": "0x1",
      "blockHash": "0xb56ddaeb8c3570e6e2ae11784f7e03e6f699f58ba8f5edf32f6ddccb221407cc",
      "blockNumber": "0x13de7",
      "gasUsed": "0xd50d3",
      "effectiveGasPrice": "0x3b9aca07",
      "blobGasPrice": "0x1",
      "from": "0xf39fd6e51aad88f6f4ce6ab8827279cfffb92266",
      "to": null,
      "contractAddress": "0xd6096fbed8bcc461d06b0c468c8b1cf7d45dc92d",
      "blockTimestamp": 1778864538
    },
    {
      "status": "0x1",
      "cumulativeGasUsed": "0x281a62",
      "logs": [],
      "logsBloom": "0x00000000000000000000000000000000000000000000000000000000000000000000000000000000000000000000000000000000000000000000000000000000000000000000000000000000000000000000000000000000000000000000000000000000000000000000000000000000000000000000000000000000000000000000000000000000000000000000000000000000000000000000000000000000000000000000000000000000000000000000000000000000000000000000000000000000000000000000000000000000000000000000000000000000000000000000000000000000000000000000000000000000000000000000000000000000",
      "type": "0x0",
      "transactionHash": "0x4f52af6eb8ae318831cd03e7ff765090994ed3a30b4d3e0787a531d917bc580e",
      "transactionIndex": "0x2",
      "blockHash": "0xb56ddaeb8c3570e6e2ae11784f7e03e6f699f58ba8f5edf32f6ddccb221407cc",
      "blockNumber": "0x13de7",
      "gasUsed": "0xd50d3",
      "effectiveGasPrice": "0x3b9aca07",
      "blobGasPrice": "0x1",
      "from": "0xf39fd6e51aad88f6f4ce6ab8827279cfffb92266",
      "to": null,
      "contractAddress": "0x0ad6371dd7e9923d9968d63eb8b9858c700abd9d",
      "blockTimestamp": 1778864538
    },
    {
      "status": "0x1",
      "cumulativeGasUsed": "0x356b3e",
      "logs": [],
      "logsBloom": "0x00000000000000000000000000000000000000000000000000000000000000000000000000000000000000000000000000000000000000000000000000000000000000000000000000000000000000000000000000000000000000000000000000000000000000000000000000000000000000000000000000000000000000000000000000000000000000000000000000000000000000000000000000000000000000000000000000000000000000000000000000000000000000000000000000000000000000000000000000000000000000000000000000000000000000000000000000000000000000000000000000000000000000000000000000000000",
      "type": "0x0",
      "transactionHash": "0x7960114e2de56141ecbf721f5de7708009074a6f0c9e52a1af7591f46e62c77d",
      "transactionIndex": "0x3",
      "blockHash": "0xb56ddaeb8c3570e6e2ae11784f7e03e6f699f58ba8f5edf32f6ddccb221407cc",
      "blockNumber": "0x13de7",
      "gasUsed": "0xd50dc",
      "effectiveGasPrice": "0x3b9aca07",
      "blobGasPrice": "0x1",
      "from": "0xf39fd6e51aad88f6f4ce6ab8827279cfffb92266",
      "to": null,
      "contractAddress": "0xaa5c5496e2586f81d8d2d0b970eb85ab088639c2",
      "blockTimestamp": 1778864538
    },
    {
      "status": "0x1",
      "cumulativeGasUsed": "0x361f22",
      "logs": [],
      "logsBloom": "0x00000000000000000000000000000000000000000000000000000000000000000000000000000000000000000000000000000000000000000000000000000000000000000000000000000000000000000000000000000000000000000000000000000000000000000000000000000000000000000000000000000000000000000000000000000000000000000000000000000000000000000000000000000000000000000000000000000000000000000000000000000000000000000000000000000000000000000000000000000000000000000000000000000000000000000000000000000000000000000000000000000000000000000000000000000000",
      "type": "0x0",
      "transactionHash": "0x268511028a081a1cf35373937ba12a4c16cec0a4a5b5927031ef6bc19d0c00aa",
      "transactionIndex": "0x4",
      "blockHash": "0xb56ddaeb8c3570e6e2ae11784f7e03e6f699f58ba8f5edf32f6ddccb221407cc",
      "blockNumber": "0x13de7",
      "gasUsed": "0xb3e4",
      "effectiveGasPrice": "0x3b9aca07",
      "blobGasPrice": "0x1",
      "from": "0xf39fd6e51aad88f6f4ce6ab8827279cfffb92266",
      "to": "0xd6096fbed8bcc461d06b0c468c8b1cf7d45dc92d",
      "contractAddress": null,
      "blockTimestamp": 1778864538
    },
    {
      "status": "0x1",
      "cumulativeGasUsed": "0x36d306",
      "logs": [],
      "logsBloom": "0x00000000000000000000000000000000000000000000000000000000000000000000000000000000000000000000000000000000000000000000000000000000000000000000000000000000000000000000000000000000000000000000000000000000000000000000000000000000000000000000000000000000000000000000000000000000000000000000000000000000000000000000000000000000000000000000000000000000000000000000000000000000000000000000000000000000000000000000000000000000000000000000000000000000000000000000000000000000000000000000000000000000000000000000000000000000",
      "type": "0x0",
      "transactionHash": "0x44ea9885526b5e54e5f88dafa6f8d3e8b1cb3792c70cc0bee722e7bf572bb8b4",
      "transactionIndex": "0x5",
      "blockHash": "0xb56ddaeb8c3570e6e2ae11784f7e03e6f699f58ba8f5edf32f6ddccb221407cc",
      "blockNumber": "0x13de7",
      "gasUsed": "0xb3e4",
      "effectiveGasPrice": "0x3b9aca07",
      "blobGasPrice": "0x1",
      "from": "0xf39fd6e51aad88f6f4ce6ab8827279cfffb92266",
      "to": "0x0ad6371dd7e9923d9968d63eb8b9858c700abd9d",
      "contractAddress": null,
      "blockTimestamp": 1778864538
    },
    {
      "status": "0x1",
      "cumulativeGasUsed": "0x3786ea",
      "logs": [],
      "logsBloom": "0x00000000000000000000000000000000000000000000000000000000000000000000000000000000000000000000000000000000000000000000000000000000000000000000000000000000000000000000000000000000000000000000000000000000000000000000000000000000000000000000000000000000000000000000000000000000000000000000000000000000000000000000000000000000000000000000000000000000000000000000000000000000000000000000000000000000000000000000000000000000000000000000000000000000000000000000000000000000000000000000000000000000000000000000000000000000",
      "type": "0x0",
      "transactionHash": "0xf27b67b72eee43036e3eb2fcc2c8c0f548f09a4eb21d377b3d26af853ed76a90",
      "transactionIndex": "0x6",
      "blockHash": "0xb56ddaeb8c3570e6e2ae11784f7e03e6f699f58ba8f5edf32f6ddccb221407cc",
      "blockNumber": "0x13de7",
      "gasUsed": "0xb3e4",
      "effectiveGasPrice": "0x3b9aca07",
      "blobGasPrice": "0x1",
      "from": "0xf39fd6e51aad88f6f4ce6ab8827279cfffb92266",
      "to": "0xaa5c5496e2586f81d8d2d0b970eb85ab088639c2",
      "contractAddress": null,
      "blockTimestamp": 1778864538
    },
    {
      "status": "0x1",
      "cumulativeGasUsed": "0x383a91",
      "logs": [
        {
          "address": "0x8f86403a4de0bb5791fa46b8e795c547942fe4cf",
          "topics": [
            "0x8c5be1e5ebec7d5bd14f71427d1e84f3dd0314c0f7b2291e5b200ac8c7c3b925",
            "0x000000000000000000000000f39fd6e51aad88f6f4ce6ab8827279cfffb92266",
            "0x000000000000000000000000d6096fbed8bcc461d06b0c468c8b1cf7d45dc92d"
          ],
          "data": "0x0000000000000000000000000000000000000000000069e10de76676d0800000",
          "blockHash": "0xb56ddaeb8c3570e6e2ae11784f7e03e6f699f58ba8f5edf32f6ddccb221407cc",
          "blockNumber": "0x13de7",
          "blockTimestamp": "0x6a07519a",
          "transactionHash": "0xa12111bbf45a33a1b5e8b38cca4cedc517b496dc8cfdaa9e242b37204120f775",
          "transactionIndex": "0x7",
          "logIndex": "0x0",
          "removed": false
        }
      ],
      "logsBloom": "0x00000000000000000000000000000000000000000000000000000000000000000000000000000800000000000000000000000000000000000000000000200040000000000000000000000000000000000000000000000000000000000000000000000000000000000000040100000000000000000000000000000000000000000000000000000000000000000000000000000000000000000000000000000000028000000400000000000000000000000000000000000000000000000000000000000000000000200000000000000000000000002000000000000000000000000010000000000000000000020000000000000000000000000000000000000000",
      "type": "0x0",
      "transactionHash": "0xa12111bbf45a33a1b5e8b38cca4cedc517b496dc8cfdaa9e242b37204120f775",
      "transactionIndex": "0x7",
      "blockHash": "0xb56ddaeb8c3570e6e2ae11784f7e03e6f699f58ba8f5edf32f6ddccb221407cc",
      "blockNumber": "0x13de7",
      "gasUsed": "0xb3a7",
      "effectiveGasPrice": "0x3b9aca07",
      "blobGasPrice": "0x1",
      "from": "0xf39fd6e51aad88f6f4ce6ab8827279cfffb92266",
      "to": "0x8f86403a4de0bb5791fa46b8e795c547942fe4cf",
      "contractAddress": null,
      "blockTimestamp": 1778864538
    },
    {
      "status": "0x1",
      "cumulativeGasUsed": "0x38e6f9",
      "logs": [],
      "logsBloom": "0x00000000000000000000000000000000000000000000000000000000000000000000000000000000000000000000000000000000000000000000000000000000000000000000000000000000000000000000000000000000000000000000000000000000000000000000000000000000000000000000000000000000000000000000000000000000000000000000000000000000000000000000000000000000000000000000000000000000000000000000000000000000000000000000000000000000000000000000000000000000000000000000000000000000000000000000000000000000000000000000000000000000000000000000000000000000",
      "type": "0x0",
      "transactionHash": "0xbff709b7dd4ea06deb88671ef8052a3ca16a58ecfa8f30ff365abc064a213f3f",
      "transactionIndex": "0x8",
      "blockHash": "0xb56ddaeb8c3570e6e2ae11784f7e03e6f699f58ba8f5edf32f6ddccb221407cc",
      "blockNumber": "0x13de7",
      "gasUsed": "0xac68",
      "effectiveGasPrice": "0x3b9aca07",
      "blobGasPrice": "0x1",
      "from": "0xf39fd6e51aad88f6f4ce6ab8827279cfffb92266",
      "to": "0xcd8a1c3ba11cf5ecfa6267617243239504a98d90",
      "contractAddress": null,
      "blockTimestamp": 1778864538
    },
    {
      "status": "0x1",
      "cumulativeGasUsed": "0x3bd912",
      "logs": [
        {
          "address": "0x8f86403a4de0bb5791fa46b8e795c547942fe4cf",
          "topics": [
            "0xddf252ad1be2c89b69c2b068fc378daa952ba7f163c4a11628f55a4df523b3ef",
            "0x000000000000000000000000f39fd6e51aad88f6f4ce6ab8827279cfffb92266",
            "0x000000000000000000000000d6096fbed8bcc461d06b0c468c8b1cf7d45dc92d"
          ],
          "data": "0x0000000000000000000000000000000000000000000069e10de76676d0800000",
          "blockHash": "0xb56ddaeb8c3570e6e2ae11784f7e03e6f699f58ba8f5edf32f6ddccb221407cc",
          "blockNumber": "0x13de7",
          "blockTimestamp": "0x6a07519a",
          "transactionHash": "0x7a05d81a03280108ae87a2d0d9123a8fe7c908680938cf367bfcae74708afae6",
          "transactionIndex": "0x9",
          "logIndex": "0x1",
          "removed": false
        },
        {
          "address": "0xcd8a1c3ba11cf5ecfa6267617243239504a98d90",
          "topics": [
            "0xddf252ad1be2c89b69c2b068fc378daa952ba7f163c4a11628f55a4df523b3ef",
            "0x000000000000000000000000f39fd6e51aad88f6f4ce6ab8827279cfffb92266",
            "0x000000000000000000000000d6096fbed8bcc461d06b0c468c8b1cf7d45dc92d"
          ],
          "data": "0x00000000000000000000000000000000000000000000001b1ae4d6e2ef500000",
          "blockHash": "0xb56ddaeb8c3570e6e2ae11784f7e03e6f699f58ba8f5edf32f6ddccb221407cc",
          "blockNumber": "0x13de7",
          "blockTimestamp": "0x6a07519a",
          "transactionHash": "0x7a05d81a03280108ae87a2d0d9123a8fe7c908680938cf367bfcae74708afae6",
          "transactionIndex": "0x9",
          "logIndex": "0x2",
          "removed": false
        },
        {
          "address": "0xd6096fbed8bcc461d06b0c468c8b1cf7d45dc92d",
          "topics": [
            "0x64b83944e79c3ce8d4c297411de637c3e102d064677aac0c163976ebdcd6f50e",
            "0x000000000000000000000000f39fd6e51aad88f6f4ce6ab8827279cfffb92266"
          ],
          "data": "0x0000000000000000000000000000000000000000000069e10de76676d080000000000000000000000000000000000000000000000000001b1ae4d6e2ef50000000000000000000000000000000000000000000000000035923177f4a48684c1a",
          "blockHash": "0xb56ddaeb8c3570e6e2ae11784f7e03e6f699f58ba8f5edf32f6ddccb221407cc",
          "blockNumber": "0x13de7",
          "blockTimestamp": "0x6a07519a",
          "transactionHash": "0x7a05d81a03280108ae87a2d0d9123a8fe7c908680938cf367bfcae74708afae6",
          "transactionIndex": "0x9",
          "logIndex": "0x3",
          "removed": false
        }
      ],
      "logsBloom": "0x00000000000000000000008000000000002000000000000004000000000000000000000000000804000010000000000000000000000000000000000000000040000001000000000000000008800000000000000000000000000000000000000000000000000000000000040100000000000000000000000000000010000000000000000000000000000000000000000000000000000000000000000000000000008000000400000000000000000000000000000000000000000000000000000000000002000000200000000000000000000000002000000000000000020000000000000000000000000000020000000000000400000000000000000000000000",
      "type": "0x0",
      "transactionHash": "0x7a05d81a03280108ae87a2d0d9123a8fe7c908680938cf367bfcae74708afae6",
      "transactionIndex": "0x9",
      "blockHash": "0xb56ddaeb8c3570e6e2ae11784f7e03e6f699f58ba8f5edf32f6ddccb221407cc",
      "blockNumber": "0x13de7",
      "gasUsed": "0x2f219",
      "effectiveGasPrice": "0x3b9aca07",
      "blobGasPrice": "0x1",
      "from": "0xf39fd6e51aad88f6f4ce6ab8827279cfffb92266",
      "to": "0xd6096fbed8bcc461d06b0c468c8b1cf7d45dc92d",
      "contractAddress": null,
      "blockTimestamp": 1778864538
    },
    {
      "status": "0x1",
      "cumulativeGasUsed": "0x3c8cb9",
      "logs": [
        {
          "address": "0x8f86403a4de0bb5791fa46b8e795c547942fe4cf",
          "topics": [
            "0x8c5be1e5ebec7d5bd14f71427d1e84f3dd0314c0f7b2291e5b200ac8c7c3b925",
            "0x000000000000000000000000f39fd6e51aad88f6f4ce6ab8827279cfffb92266",
            "0x0000000000000000000000000ad6371dd7e9923d9968d63eb8b9858c700abd9d"
          ],
          "data": "0x0000000000000000000000000000000000000000000069e10de76676d0800000",
          "blockHash": "0xb56ddaeb8c3570e6e2ae11784f7e03e6f699f58ba8f5edf32f6ddccb221407cc",
          "blockNumber": "0x13de7",
          "blockTimestamp": "0x6a07519a",
          "transactionHash": "0xa76ab07ef145d3416ef30f42087ef4e84797e9c6a3f2b32757cbb6b8445a6b2c",
          "transactionIndex": "0xa",
          "logIndex": "0x4",
          "removed": false
        }
      ],
      "logsBloom": "0x00000000000000000000000000000000000000000000000000000000000000000000000000000000000000000000000000000000000000000000000000200040000000000000000000400000000000000000000000000000000000000000000000000000000000000200040100000000000800000000000000000000000000000000000000000000000000000000000000000000000000000000000000000000020000000000000000000000000000000000000000000000000000000000000000000000000000200000000000000000000000002000000000000000000000000010000000000000000000020000000000000000000000000000000000000000",
      "type": "0x0",
      "transactionHash": "0xa76ab07ef145d3416ef30f42087ef4e84797e9c6a3f2b32757cbb6b8445a6b2c",
      "transactionIndex": "0xa",
      "blockHash": "0xb56ddaeb8c3570e6e2ae11784f7e03e6f699f58ba8f5edf32f6ddccb221407cc",
      "blockNumber": "0x13de7",
      "gasUsed": "0xb3a7",
      "effectiveGasPrice": "0x3b9aca07",
      "blobGasPrice": "0x1",
      "from": "0xf39fd6e51aad88f6f4ce6ab8827279cfffb92266",
      "to": "0x8f86403a4de0bb5791fa46b8e795c547942fe4cf",
      "contractAddress": null,
      "blockTimestamp": 1778864538
    },
    {
      "status": "0x1",
      "cumulativeGasUsed": "0x3d38fd",
      "logs": [],
      "logsBloom": "0x00000000000000000000000000000000000000000000000000000000000000000000000000000000000000000000000000000000000000000000000000000000000000000000000000000000000000000000000000000000000000000000000000000000000000000000000000000000000000000000000000000000000000000000000000000000000000000000000000000000000000000000000000000000000000000000000000000000000000000000000000000000000000000000000000000000000000000000000000000000000000000000000000000000000000000000000000000000000000000000000000000000000000000000000000000000",
      "type": "0x0",
      "transactionHash": "0x187fa9e38d146f14d27687760e0cf78eb690245054f06c88f54431c373946dc6",
      "transactionIndex": "0xb",
      "blockHash": "0xb56ddaeb8c3570e6e2ae11784f7e03e6f699f58ba8f5edf32f6ddccb221407cc",
      "blockNumber": "0x13de7",
      "gasUsed": "0xac44",
      "effectiveGasPrice": "0x3b9aca07",
      "blobGasPrice": "0x1",
      "from": "0xf39fd6e51aad88f6f4ce6ab8827279cfffb92266",
      "to": "0xb7278a61aa25c888815afc32ad3cc52ff24fe575",
      "contractAddress": null,
      "blockTimestamp": 1778864538
    },
    {
      "status": "0x1",
      "cumulativeGasUsed": "0x4020fc",
      "logs": [
        {
          "address": "0x8f86403a4de0bb5791fa46b8e795c547942fe4cf",
          "topics": [
            "0xddf252ad1be2c89b69c2b068fc378daa952ba7f163c4a11628f55a4df523b3ef",
            "0x000000000000000000000000f39fd6e51aad88f6f4ce6ab8827279cfffb92266",
            "0x0000000000000000000000000ad6371dd7e9923d9968d63eb8b9858c700abd9d"
          ],
          "data": "0x0000000000000000000000000000000000000000000069e10de76676d0800000",
          "blockHash": "0xb56ddaeb8c3570e6e2ae11784f7e03e6f699f58ba8f5edf32f6ddccb221407cc",
          "blockNumber": "0x13de7",
          "blockTimestamp": "0x6a07519a",
          "transactionHash": "0x6eaf57f7973269f27011ce6c5e22203ba76fd451821167c508b122a2f1bb9800",
          "transactionIndex": "0xc",
          "logIndex": "0x5",
          "removed": false
        },
        {
          "address": "0xb7278a61aa25c888815afc32ad3cc52ff24fe575",
          "topics": [
            "0xddf252ad1be2c89b69c2b068fc378daa952ba7f163c4a11628f55a4df523b3ef",
            "0x000000000000000000000000f39fd6e51aad88f6f4ce6ab8827279cfffb92266",
            "0x0000000000000000000000000ad6371dd7e9923d9968d63eb8b9858c700abd9d"
          ],
          "data": "0x000000000000000000000000000000000000000000000000000000746a528800",
          "blockHash": "0xb56ddaeb8c3570e6e2ae11784f7e03e6f699f58ba8f5edf32f6ddccb221407cc",
          "blockNumber": "0x13de7",
          "blockTimestamp": "0x6a07519a",
          "transactionHash": "0x6eaf57f7973269f27011ce6c5e22203ba76fd451821167c508b122a2f1bb9800",
          "transactionIndex": "0xc",
          "logIndex": "0x6",
          "removed": false
        },
        {
          "address": "0x0ad6371dd7e9923d9968d63eb8b9858c700abd9d",
          "topics": [
            "0x64b83944e79c3ce8d4c297411de637c3e102d064677aac0c163976ebdcd6f50e",
            "0x000000000000000000000000f39fd6e51aad88f6f4ce6ab8827279cfffb92266"
          ],
          "data": "0x0000000000000000000000000000000000000000000069e10de76676d0800000000000000000000000000000000000000000000000000000000000746a52880000000000000000000000000000000000000000000000000006f05b59d3b20000",
          "blockHash": "0xb56ddaeb8c3570e6e2ae11784f7e03e6f699f58ba8f5edf32f6ddccb221407cc",
          "blockNumber": "0x13de7",
          "blockTimestamp": "0x6a07519a",
          "transactionHash": "0x6eaf57f7973269f27011ce6c5e22203ba76fd451821167c508b122a2f1bb9800",
          "transactionIndex": "0xc",
          "logIndex": "0x7",
          "removed": false
        }
      ],
      "logsBloom": "0x00000000000000000000000000000000000000000000000000000000000000040000000000000000000000000000000000000000000000000200000000000040000001000000000000400008800000001000000000000000000000000000008000000000000000000200040100000000000800000000000000000010000000000000000000000000000000000000000000000000000000000000000000000000000000000000000000000000000000000000000000080000000000000000000000000002000000200000000000000000000000002080000000000000020000000000000000000000000000020000000000000000000000000000000000000000",
      "type": "0x0",
      "transactionHash": "0x6eaf57f7973269f27011ce6c5e22203ba76fd451821167c508b122a2f1bb9800",
      "transactionIndex": "0xc",
      "blockHash": "0xb56ddaeb8c3570e6e2ae11784f7e03e6f699f58ba8f5edf32f6ddccb221407cc",
      "blockNumber": "0x13de7",
      "gasUsed": "0x2e7ff",
      "effectiveGasPrice": "0x3b9aca07",
      "blobGasPrice": "0x1",
      "from": "0xf39fd6e51aad88f6f4ce6ab8827279cfffb92266",
      "to": "0x0ad6371dd7e9923d9968d63eb8b9858c700abd9d",
      "contractAddress": null,
      "blockTimestamp": 1778864538
    },
    {
      "status": "0x1",
      "cumulativeGasUsed": "0x40cd64",
      "logs": [],
      "logsBloom": "0x00000000000000000000000000000000000000000000000000000000000000000000000000000000000000000000000000000000000000000000000000000000000000000000000000000000000000000000000000000000000000000000000000000000000000000000000000000000000000000000000000000000000000000000000000000000000000000000000000000000000000000000000000000000000000000000000000000000000000000000000000000000000000000000000000000000000000000000000000000000000000000000000000000000000000000000000000000000000000000000000000000000000000000000000000000000",
      "type": "0x0",
      "transactionHash": "0x94fdc69e584dc64b15ba859de1bce5a95cd737552c8a01bbda446c3f5f35b9eb",
      "transactionIndex": "0xd",
      "blockHash": "0xb56ddaeb8c3570e6e2ae11784f7e03e6f699f58ba8f5edf32f6ddccb221407cc",
      "blockNumber": "0x13de7",
      "gasUsed": "0xac68",
      "effectiveGasPrice": "0x3b9aca07",
      "blobGasPrice": "0x1",
      "from": "0xf39fd6e51aad88f6f4ce6ab8827279cfffb92266",
      "to": "0xcd8a1c3ba11cf5ecfa6267617243239504a98d90",
      "contractAddress": null,
      "blockTimestamp": 1778864538
    },
    {
      "status": "0x1",
      "cumulativeGasUsed": "0x4179a8",
      "logs": [],
      "logsBloom": "0x00000000000000000000000000000000000000000000000000000000000000000000000000000000000000000000000000000000000000000000000000000000000000000000000000000000000000000000000000000000000000000000000000000000000000000000000000000000000000000000000000000000000000000000000000000000000000000000000000000000000000000000000000000000000000000000000000000000000000000000000000000000000000000000000000000000000000000000000000000000000000000000000000000000000000000000000000000000000000000000000000000000000000000000000000000000",
      "type": "0x0",
      "transactionHash": "0x991b1dbe173b4762d82ad4f34ca8976d26bdff0a9036dd45285cfd8d5a281870",
      "transactionIndex": "0xe",
      "blockHash": "0xb56ddaeb8c3570e6e2ae11784f7e03e6f699f58ba8f5edf32f6ddccb221407cc",
      "blockNumber": "0x13de7",
      "gasUsed": "0xac44",
      "effectiveGasPrice": "0x3b9aca07",
      "blobGasPrice": "0x1",
      "from": "0xf39fd6e51aad88f6f4ce6ab8827279cfffb92266",
      "to": "0xb7278a61aa25c888815afc32ad3cc52ff24fe575",
      "contractAddress": null,
      "blockTimestamp": 1778864538
    },
    {
      "status": "0x1",
      "cumulativeGasUsed": "0x445c89",
      "logs": [
        {
          "address": "0xb7278a61aa25c888815afc32ad3cc52ff24fe575",
          "topics": [
            "0xddf252ad1be2c89b69c2b068fc378daa952ba7f163c4a11628f55a4df523b3ef",
            "0x000000000000000000000000f39fd6e51aad88f6f4ce6ab8827279cfffb92266",
            "0x000000000000000000000000aa5c5496e2586f81d8d2d0b970eb85ab088639c2"
          ],
          "data": "0x00000000000000000000000000000000000000000000000000000045d964b800",
          "blockHash": "0xb56ddaeb8c3570e6e2ae11784f7e03e6f699f58ba8f5edf32f6ddccb221407cc",
          "blockNumber": "0x13de7",
          "blockTimestamp": "0x6a07519a",
          "transactionHash": "0xa09c72e363739531e1e279ec6e68686de6bf9561b56b3fe6cd3cea516de781c0",
          "transactionIndex": "0xf",
          "logIndex": "0x8",
          "removed": false
        },
        {
          "address": "0xcd8a1c3ba11cf5ecfa6267617243239504a98d90",
          "topics": [
            "0xddf252ad1be2c89b69c2b068fc378daa952ba7f163c4a11628f55a4df523b3ef",
            "0x000000000000000000000000f39fd6e51aad88f6f4ce6ab8827279cfffb92266",
            "0x000000000000000000000000aa5c5496e2586f81d8d2d0b970eb85ab088639c2"
          ],
          "data": "0x0000000000000000000000000000000000000000000000056bc75e2d63100000",
          "blockHash": "0xb56ddaeb8c3570e6e2ae11784f7e03e6f699f58ba8f5edf32f6ddccb221407cc",
          "blockNumber": "0x13de7",
          "blockTimestamp": "0x6a07519a",
          "transactionHash": "0xa09c72e363739531e1e279ec6e68686de6bf9561b56b3fe6cd3cea516de781c0",
          "transactionIndex": "0xf",
          "logIndex": "0x9",
          "removed": false
        },
        {
          "address": "0xaa5c5496e2586f81d8d2d0b970eb85ab088639c2",
          "topics": [
            "0x64b83944e79c3ce8d4c297411de637c3e102d064677aac0c163976ebdcd6f50e",
            "0x000000000000000000000000f39fd6e51aad88f6f4ce6ab8827279cfffb92266"
          ],
          "data": "0x00000000000000000000000000000000000000000000000000000045d964b8000000000000000000000000000000000000000000000000056bc75e2d6310000000000000000000000000000000000000000000000000000000137581f4c1718d",
          "blockHash": "0xb56ddaeb8c3570e6e2ae11784f7e03e6f699f58ba8f5edf32f6ddccb221407cc",
          "blockNumber": "0x13de7",
          "blockTimestamp": "0x6a07519a",
          "transactionHash": "0xa09c72e363739531e1e279ec6e68686de6bf9561b56b3fe6cd3cea516de781c0",
          "transactionIndex": "0xf",
          "logIndex": "0xa",
          "removed": false
        }
      ],
      "logsBloom": "0x00000000000000000200008000000000002000000000000000000000000000000000000000000004000000000000000000000000000000000000000000000000000001000000000000000008800000001000000000000000000000000000000000000000000020000000000100000000000000800000000000000010000000000000000000000000000000000000000000000000000000000000000000000000000000000000000000000000000000000000000002080000000000000000000000000002000000200000000000000000040000002080000000000000020000000000000000000000000000000000000000000100000000000000000000000000",
      "type": "0x0",
      "transactionHash": "0xa09c72e363739531e1e279ec6e68686de6bf9561b56b3fe6cd3cea516de781c0",
      "transactionIndex": "0xf",
      "blockHash": "0xb56ddaeb8c3570e6e2ae11784f7e03e6f699f58ba8f5edf32f6ddccb221407cc",
      "blockNumber": "0x13de7",
      "gasUsed": "0x2e2e1",
      "effectiveGasPrice": "0x3b9aca07",
      "blobGasPrice": "0x1",
      "from": "0xf39fd6e51aad88f6f4ce6ab8827279cfffb92266",
      "to": "0xaa5c5496e2586f81d8d2d0b970eb85ab088639c2",
      "contractAddress": null,
      "blockTimestamp": 1778864538
    },
    {
      "status": "0x1",
      "cumulativeGasUsed": "0x4528a7",
      "logs": [
        {
          "address": "0x975cdd867acb99f0195be09c269e2440aa1b1fa8",
          "topics": [
            "0x61afef2e121f71511fab2583c5ac49a5dc1d7a8ad8ad91c44c8465f073a73ac4",
            "0x0000000000000000000000008f86403a4de0bb5791fa46b8e795c547942fe4cf",
            "0x000000000000000000000000cd8a1c3ba11cf5ecfa6267617243239504a98d90",
            "0x000000000000000000000000d6096fbed8bcc461d06b0c468c8b1cf7d45dc92d"
          ],
          "data": "0x",
          "blockHash": "0xb56ddaeb8c3570e6e2ae11784f7e03e6f699f58ba8f5edf32f6ddccb221407cc",
          "blockNumber": "0x13de7",
          "blockTimestamp": "0x6a07519a",
          "transactionHash": "0x24d83d2a0dc36497df42f1f61ff2d5710c44b683ee5385fdc802d90f114b3d01",
          "transactionIndex": "0x10",
          "logIndex": "0xb",
          "removed": false
        }
      ],
      "logsBloom": "0x00000000000000000000000000000000000000000000000000000000000000000000000000000800000000000000000000000000008000000000000000000000000000000000000000000000000000000000000000000000000000000000000000000000000000000000000000000000000000000000000000000800000000000000000000000000000000000000800000000000000000000000000000000000008000000400000000000000000000000000000000000000200000000000000020000000000000000000000002400000000040000000000000400000000000000200100000000000000000000000000000000000000000000000000000000000",
      "type": "0x0",
      "transactionHash": "0x24d83d2a0dc36497df42f1f61ff2d5710c44b683ee5385fdc802d90f114b3d01",
      "transactionIndex": "0x10",
      "blockHash": "0xb56ddaeb8c3570e6e2ae11784f7e03e6f699f58ba8f5edf32f6ddccb221407cc",
      "blockNumber": "0x13de7",
      "gasUsed": "0xcc1e",
      "effectiveGasPrice": "0x3b9aca07",
      "blobGasPrice": "0x1",
      "from": "0xf39fd6e51aad88f6f4ce6ab8827279cfffb92266",
      "to": "0x975cdd867acb99f0195be09c269e2440aa1b1fa8",
      "contractAddress": null,
      "blockTimestamp": 1778864538
    },
    {
      "status": "0x1",
      "cumulativeGasUsed": "0x45f4c5",
      "logs": [
        {
          "address": "0x975cdd867acb99f0195be09c269e2440aa1b1fa8",
          "topics": [
            "0x61afef2e121f71511fab2583c5ac49a5dc1d7a8ad8ad91c44c8465f073a73ac4",
            "0x0000000000000000000000008f86403a4de0bb5791fa46b8e795c547942fe4cf",
            "0x000000000000000000000000b7278a61aa25c888815afc32ad3cc52ff24fe575",
            "0x0000000000000000000000000ad6371dd7e9923d9968d63eb8b9858c700abd9d"
          ],
          "data": "0x",
          "blockHash": "0xb56ddaeb8c3570e6e2ae11784f7e03e6f699f58ba8f5edf32f6ddccb221407cc",
          "blockNumber": "0x13de7",
          "blockTimestamp": "0x6a07519a",
          "transactionHash": "0x580960142ef7d45b23318794be7317dbf7b60f214ad026d4515dcd47d2d108c3",
          "transactionIndex": "0x11",
          "logIndex": "0xc",
          "removed": false
        }
      ],
      "logsBloom": "0x00000000000000000000000000000000000000000000000000000000000000000000000000000000000000000000000000000000008000000000000000200000000000000000000400400000000000000000000000000000000000000000000000000000000000000200000000000000000800000000000000000800000000000000000000000000000000000000800000000000000000000000000000000000000000000000000000000000000000000000000000000000000000000000000020000000000000000000000002400000000000000000000000400000000000000200100000000000800000000000000000000000000000000000000000000000",
      "type": "0x0",
      "transactionHash": "0x580960142ef7d45b23318794be7317dbf7b60f214ad026d4515dcd47d2d108c3",
      "transactionIndex": "0x11",
      "blockHash": "0xb56ddaeb8c3570e6e2ae11784f7e03e6f699f58ba8f5edf32f6ddccb221407cc",
      "blockNumber": "0x13de7",
      "gasUsed": "0xcc1e",
      "effectiveGasPrice": "0x3b9aca07",
      "blobGasPrice": "0x1",
      "from": "0xf39fd6e51aad88f6f4ce6ab8827279cfffb92266",
      "to": "0x975cdd867acb99f0195be09c269e2440aa1b1fa8",
      "contractAddress": null,
      "blockTimestamp": 1778864538
    },
    {
      "status": "0x1",
      "cumulativeGasUsed": "0x46c0e3",
      "logs": [
        {
          "address": "0x975cdd867acb99f0195be09c269e2440aa1b1fa8",
          "topics": [
            "0x61afef2e121f71511fab2583c5ac49a5dc1d7a8ad8ad91c44c8465f073a73ac4",
            "0x000000000000000000000000b7278a61aa25c888815afc32ad3cc52ff24fe575",
            "0x000000000000000000000000cd8a1c3ba11cf5ecfa6267617243239504a98d90",
            "0x000000000000000000000000aa5c5496e2586f81d8d2d0b970eb85ab088639c2"
          ],
          "data": "0x",
          "blockHash": "0xb56ddaeb8c3570e6e2ae11784f7e03e6f699f58ba8f5edf32f6ddccb221407cc",
          "blockNumber": "0x13de7",
          "blockTimestamp": "0x6a07519a",
          "transactionHash": "0x06ef41c14701698b4795672d0ad4c3f1f5b5533c190a779c6d78ab992c44a9f7",
          "transactionIndex": "0x12",
          "logIndex": "0xd",
          "removed": false
        }
      ],
      "logsBloom": "0x00000000000000000000000000000000000000000000000000000000000000000000000000000000000000000000000000000000008000000000000000200000000000000000000400000000000000000000000000000000000000000000000000000000000000000000000000000000000000800000000000000800000000000000000000000000000000000000800000000000000000000000000000000000000000000000000000000000000000000000000000000000200000000000000020000000000000000000000000000000040040000000000000400000000000000200000000000000800000000000000000000100000000000000000000000000",
      "type": "0x0",
      "transactionHash": "0x06ef41c14701698b4795672d0ad4c3f1f5b5533c190a779c6d78ab992c44a9f7",
      "transactionIndex": "0x12",
      "blockHash": "0xb56ddaeb8c3570e6e2ae11784f7e03e6f699f58ba8f5edf32f6ddccb221407cc",
      "blockNumber": "0x13de7",
      "gasUsed": "0xcc1e",
      "effectiveGasPrice": "0x3b9aca07",
      "blobGasPrice": "0x1",
      "from": "0xf39fd6e51aad88f6f4ce6ab8827279cfffb92266",
      "to": "0x975cdd867acb99f0195be09c269e2440aa1b1fa8",
      "contractAddress": null,
      "blockTimestamp": 1778864538
    }
  ],
  "libraries": [],
  "pending": [],
  "returns": {},
  "timestamp": 1778864538531,
  "chain": 42069,
  "commit": "7736a73"
}