{
  "transactions": [
    {
      "hash": "0x584fc2c68d120010d02c4ee7eecc5fc59a0d128ad0a0686977fe264f10a2f46e",
      "transactionType": "CALL",
      "contractName": null,
      "contractAddress": "0xf5c4a909455c00b99a90d93b48736f3196db5621",
      "function": "registerMarket(bytes32)",
      "arguments": [
        "0xe98e2830be1a7e4156d656a7505e65d08c67660dc618072422e9c78053c261e9"
      ],
      "transaction": {
        "from": "0xf39fd6e51aad88f6f4ce6ab8827279cfffb92266",
        "to": "0xf5c4a909455c00b99a90d93b48736f3196db5621",
        "gas": "0x9341",
        "value": "0x0",
        "input": "0x0df1d5ede98e2830be1a7e4156d656a7505e65d08c67660dc618072422e9c78053c261e9",
        "nonce": "0x225",
        "chainId": "0xa455"
      },
      "additionalContracts": [],
      "isFixedGasLimit": false
    },
    {
      "hash": "0xc89eb7b77fd7f716141bc6a4b2aeea86a27e1d61a51e8e4b1bc716d10438d67f",
      "transactionType": "CALL",
      "contractName": null,
      "contractAddress": "0xf5c4a909455c00b99a90d93b48736f3196db5621",
      "function": "setManualPrice(bytes32,uint256,uint256)",
      "arguments": [
        "0xe98e2830be1a7e4156d656a7505e65d08c67660dc618072422e9c78053c261e9",
        "6500000000000",
        "6498000000000"
      ],
      "transaction": {
        "from": "0xf39fd6e51aad88f6f4ce6ab8827279cfffb92266",
        "to": "0xf5c4a909455c00b99a90d93b48736f3196db5621",
        "gas": "0xe8f4",
        "value": "0x0",
        "input": "0xf229fecee98e2830be1a7e4156d656a7505e65d08c67660dc618072422e9c78053c261e9000000000000000000000000000000000000000000000000000005e96630e800000000000000000000000000000000000000000000000000000005e8eefb5400",
        "nonce": "0x226",
        "chainId": "0xa455"
      },
      "additionalContracts": [],
      "isFixedGasLimit": false
    },
    {
      "hash": "0xea8a5666615ee99fb751e33d32a87d43031b2a9c5682a945e52784d9a601394b",
      "transactionType": "CALL",
      "contractName": null,
      "contractAddress": "0xf5c4a909455c00b99a90d93b48736f3196db5621",
      "function": "registerMarket(bytes32)",
      "arguments": [
        "0xaaaebeba3810b1e6b70781f14b2d72c1cb89c0b2b320c43bb67ff79f562f5ff4"
      ],
      "transaction": {
        "from": "0xf39fd6e51aad88f6f4ce6ab8827279cfffb92266",
        "to": "0xf5c4a909455c00b99a90d93b48736f3196db5621",
        "gas": "0x9341",
        "value": "0x0",
        "input": "0x0df1d5edaaaebeba3810b1e6b70781f14b2d72c1cb89c0b2b320c43bb67ff79f562f5ff4",
        "nonce": "0x227",
        "chainId": "0xa455"
      },
      "additionalContracts": [],
      "isFixedGasLimit": false
    },
    {
      "hash": "0xc2f400d3f4760803d6975db6982396f90c36959238948e4ffc15f9eb3f726c94",
      "transactionType": "CALL",
      "contractName": null,
      "contractAddress": "0xf5c4a909455c00b99a90d93b48736f3196db5621",
      "function": "setManualPrice(bytes32,uint256,uint256)",
      "arguments": [
        "0xaaaebeba3810b1e6b70781f14b2d72c1cb89c0b2b320c43bb67ff79f562f5ff4",
        "320000000000",
        "319800000000"
      ],
      "transaction": {
        "from": "0xf39fd6e51aad88f6f4ce6ab8827279cfffb92266",
        "to": "0xf5c4a909455c00b99a90d93b48736f3196db5621",
        "gas": "0xe8d1",
        "value": "0x0",
        "input": "0xf229feceaaaebeba3810b1e6b70781f14b2d72c1cb89c0b2b320c43bb67ff79f562f5ff40000000000000000000000000000000000000000000000000000004a817c80000000000000000000000000000000000000000000000000000000004a7590be00",
        "nonce": "0x228",
        "chainId": "0xa455"
      },
      "additionalContracts": [],
      "isFixedGasLimit": false
    },
    {
      "hash": "0x6fd4ee1e326673189eb108856b161693fdf2a291d9c68c140cf06a5d7263f957",
      "transactionType": "CALL",
      "contractName": null,
      "contractAddress": "0xf5c4a909455c00b99a90d93b48736f3196db5621",
      "function": "registerMarket(bytes32)",
      "arguments": [
        "0x0a3ec4fc70eaf64faf6eeda4e9b2bd4742a785464053aa23afad8bd24650e86f"
      ],
      "transaction": {
        "from": "0xf39fd6e51aad88f6f4ce6ab8827279cfffb92266",
        "to": "0xf5c4a909455c00b99a90d93b48736f3196db5621",
        "gas": "0x9341",
        "value": "0x0",
        "input": "0x0df1d5ed0a3ec4fc70eaf64faf6eeda4e9b2bd4742a785464053aa23afad8bd24650e86f",
        "nonce": "0x229",
        "chainId": "0xa455"
      },
      "additionalContracts": [],
      "isFixedGasLimit": false
    },
    {
      "hash": "0xb8db213a4b849d1c6f24a63774171734e6b00ad8596694803c3d41776aa1432e",
      "transactionType": "CALL",
      "contractName": null,
      "contractAddress": "0xf5c4a909455c00b99a90d93b48736f3196db5621",
      "function": "setManualPrice(bytes32,uint256,uint256)",
      "arguments": [
        "0x0a3ec4fc70eaf64faf6eeda4e9b2bd4742a785464053aa23afad8bd24650e86f",
        "18000000000",
        "17990000000"
      ],
      "transaction": {
        "from": "0xf39fd6e51aad88f6f4ce6ab8827279cfffb92266",
        "to": "0xf5c4a909455c00b99a90d93b48736f3196db5621",
        "gas": "0xdbf1",
        "value": "0x0",
        "input": "0xf229fece0a3ec4fc70eaf64faf6eeda4e9b2bd4742a785464053aa23afad8bd24650e86f0000000000000000000000000000000000000000000000000000000430e234000000000000000000000000000000000000000000000000000000000430499d80",
        "nonce": "0x22a",
        "chainId": "0xa455"
      },
      "additionalContracts": [],
      "isFixedGasLimit": false
    },
    {
      "hash": "0xd6efa22c9ddb5e0c86c410153a60494bb3369d8f01f076f2bf700561203102be",
      "transactionType": "CALL",
      "contractName": null,
      "contractAddress": "0xf5c4a909455c00b99a90d93b48736f3196db5621",
      "function": "registerMarket(bytes32)",
      "arguments": [
        "0x3ed03c38e59dc60c7b69c2a4bf68f9214acd953252b5a90e8f5f59583e9bc3ae"
      ],
      "transaction": {
        "from": "0xf39fd6e51aad88f6f4ce6ab8827279cfffb92266",
        "to": "0xf5c4a909455c00b99a90d93b48736f3196db5621",
        "gas": "0x9341",
        "value": "0x0",
        "input": "0x0df1d5ed3ed03c38e59dc60c7b69c2a4bf68f9214acd953252b5a90e8f5f59583e9bc3ae",
        "nonce": "0x22b",
        "chainId": "0xa455"
      },
      "additionalContracts": [],
      "isFixedGasLimit": false
    },
    {
      "hash": "0x45b30259cecb1e778626ff8d802328941aca83f6068eb92ed0d58f9c2fcaeedf",
      "transactionType": "CALL",
      "contractName": null,
      "contractAddress": "0xf5c4a909455c00b99a90d93b48736f3196db5621",
      "function": "setManualPrice(bytes32,uint256,uint256)",
      "arguments": [
        "0x3ed03c38e59dc60c7b69c2a4bf68f9214acd953252b5a90e8f5f59583e9bc3ae",
        "60000000000",
        "59980000000"
      ],
      "transaction": {
        "from": "0xf39fd6e51aad88f6f4ce6ab8827279cfffb92266",
        "to": "0xf5c4a909455c00b99a90d93b48736f3196db5621",
        "gas": "0xe8d1",
        "value": "0x0",
        "input": "0xf229fece3ed03c38e59dc60c7b69c2a4bf68f9214acd953252b5a90e8f5f59583e9bc3ae0000000000000000000000000000000000000000000000000000000df84758000000000000000000000000000000000000000000000000000000000df7162b00",
        "nonce": "0x22c",
        "chainId": "0xa455"
      },
      "additionalContracts": [],
      "isFixedGasLimit": false
    },
    {
      "hash": "0x05b1808bd7abd67fd746d1dfac7181138682076040542c1ba90de92ce2e5f7e4",
      "transactionType": "CALL",
      "contractName": null,
      "contractAddress": "0xf5c4a909455c00b99a90d93b48736f3196db5621",
      "function": "registerMarket(bytes32)",
      "arguments": [
        "0xa6a7de01e8b7ba6a4a61c782a73188d808fc1f3cf5743fadb68a02ed884b594f"
      ],
      "transaction": {
        "from": "0xf39fd6e51aad88f6f4ce6ab8827279cfffb92266",
        "to": "0xf5c4a909455c00b99a90d93b48736f3196db5621",
        "gas": "0x9341",
        "value": "0x0",
        "input": "0x0df1d5eda6a7de01e8b7ba6a4a61c782a73188d808fc1f3cf5743fadb68a02ed884b594f",
        "nonce": "0x22d",
        "chainId": "0xa455"
      },
      "additionalContracts": [],
      "isFixedGasLimit": false
    },
    {
      "hash": "0x788a92aa6467ecb76f245d8237c257d92d6fb592c36015dd099e04d512147ac2",
      "transactionType": "CALL",
      "contractName": null,
      "contractAddress": "0xf5c4a909455c00b99a90d93b48736f3196db5621",
      "function": "setManualPrice(bytes32,uint256,uint256)",
      "arguments": [
        "0xa6a7de01e8b7ba6a4a61c782a73188d808fc1f3cf5743fadb68a02ed884b594f",
        "90000000",
        "89500000"
      ],
      "transaction": {
        "from": "0xf39fd6e51aad88f6f4ce6ab8827279cfffb92266",
        "to": "0xf5c4a909455c00b99a90d93b48736f3196db5621",
        "gas": "0xe8d1",
        "value": "0x0",
        "input": "0xf229fecea6a7de01e8b7ba6a4a61c782a73188d808fc1f3cf5743fadb68a02ed884b594f00000000000000000000000000000000000000000000000000000000055d4a80000000000000000000000000000000000000000000000000000000000555a960",
        "nonce": "0x22e",
        "chainId": "0xa455"
      },
      "additionalContracts": [],
      "isFixedGasLimit": false
    },
    {
      "hash": "0xeb1334c401503d2aef4359a6caeb298d00fd9c1f7a04a88f84d759b45d231bd2",
      "transactionType": "CALL",
      "contractName": null,
      "contractAddress": "0xf5c4a909455c00b99a90d93b48736f3196db5621",
      "function": "registerMarket(bytes32)",
      "arguments": [
        "0xc07524b7a4eecc2784fc7ac17ff2730f877f3cf7a2ceb4e2375fa40a103115d0"
      ],
      "transaction": {
        "from": "0xf39fd6e51aad88f6f4ce6ab8827279cfffb92266",
        "to": "0xf5c4a909455c00b99a90d93b48736f3196db5621",
        "gas": "0x9341",
        "value": "0x0",
        "input": "0x0df1d5edc07524b7a4eecc2784fc7ac17ff2730f877f3cf7a2ceb4e2375fa40a103115d0",
        "nonce": "0x22f",
        "chainId": "0xa455"
      },
      "additionalContracts": [],
      "isFixedGasLimit": false
    },
    {
      "hash": "0x8914387f3f9de2cab5e90fcaca18c8384a8ed88f7a43def4a8477ef15eadf8a5",
      "transactionType": "CALL",
      "contractName": null,
      "contractAddress": "0xf5c4a909455c00b99a90d93b48736f3196db5621",
      "function": "setManualPrice(bytes32,uint256,uint256)",
      "arguments": [
        "0xc07524b7a4eecc2784fc7ac17ff2730f877f3cf7a2ceb4e2375fa40a103115d0",
        "120000000",
        "119800000"
      ],
      "transaction": {
        "from": "0xf39fd6e51aad88f6f4ce6ab8827279cfffb92266",
        "to": "0xf5c4a909455c00b99a90d93b48736f3196db5621",
        "gas": "0xe8ae",
        "value": "0x0",
        "input": "0xf229fecec07524b7a4eecc2784fc7ac17ff2730f877f3cf7a2ceb4e2375fa40a103115d00000000000000000000000000000000000000000000000000000000007270e0000000000000000000000000000000000000000000000000000000000072400c0",
        "nonce": "0x230",
        "chainId": "0xa455"
      },
      "additionalContracts": [],
      "isFixedGasLimit": false
    }
  ],
  "receipts": [
    {
      "status": "0x1",
      "cumulativeGasUsed": "0x6a9d",
      "logs": [
        {
          "address": "0xf5c4a909455c00b99a90d93b48736f3196db5621",
          "topics": [
            "0xd4a2ffd4212ea97bb981aae1f4a20d5170df470d2ed811c1b393882bc1d9f0fa",
            "0xe98e2830be1a7e4156d656a7505e65d08c67660dc618072422e9c78053c261e9"
          ],
          "data": "0x",
          "blockHash": "0x0b72c4a1153e563ea4242dabb91cf549615e3f1ed51544080c9f96edd3543a96",
          "blockNumber": "0xabe4",
          "blockTimestamp": "0x69d2afea",
          "transactionHash": "0xc89eb7b77fd7f716141bc6a4b2aeea86a27e1d61a51e8e4b1bc716d10438d67f",
          "transactionIndex": "0x0",
          "logIndex": "0x0",
          "removed": false
        }
      ],
      "logsBloom": "0x00000000000000000000000000000000000000000000000000000000000000000000000000000000002000000000000000000000000000000000000001000000000000000000000000000000000000000000080000000000000000000000000000000400000000000000000000000000000000000000000000000000000000000000000000000000000000000000000000000000000000000000000000000000004000000000000000000000000000000000000000000000000000000000000000000000000000000000000000200000000000000000000000000000000000000000000000000000000500000000000000000000000000000000000000400000",
      "type": "0x0",
      "transactionHash": "0xc89eb7b77fd7f716141bc6a4b2aeea86a27e1d61a51e8e4b1bc716d10438d67f",
      "transactionIndex": "0x0",
      "blockHash": "0x0b72c4a1153e563ea4242dabb91cf549615e3f1ed51544080c9f96edd3543a96",
      "blockNumber": "0xabe4",
      "gasUsed": "0x6a9d",
      "effectiveGasPrice": "0x3b9aca07",
      "blobGasPrice": "0x1",
      "from": "0xf39fd6e51aad88f6f4ce6ab8827279cfffb92266",
      "to": "0xf5c4a909455c00b99a90d93b48736f3196db5621",
      "contractAddress": null,
      "blockTimestamp": 1775415274
    },
    {
      "status": "0x1",
      "cumulativeGasUsed": "0x109e6",
      "logs": [
        {
          "address": "0xf5c4a909455c00b99a90d93b48736f3196db5621",
          "topics": [
            "0xd1e0ff31b5a8e9db7a93db8b63d84e896cce257bc637e6d369f43178eedd98ce",
            "0xe98e2830be1a7e4156d656a7505e65d08c67660dc618072422e9c78053c261e9"
          ],
          "data": "0x000000000000000000000000000000000000000000000000000005e96630e800000000000000000000000000000000000000000000000000000005e8eefb5400",
          "blockHash": "0x0b72c4a1153e563ea4242dabb91cf549615e3f1ed51544080c9f96edd3543a96",
          "blockNumber": "0xabe4",
          "blockTimestamp": "0x69d2afea",
          "transactionHash": "0xb8db213a4b849d1c6f24a63774171734e6b00ad8596694803c3d41776aa1432e",
          "transactionIndex": "0x1",
          "logIndex": "0x1",
          "removed": false
        }
      ],
      "logsBloom": "0x00000000000000000000000000000000000000000000000000000000000000000000000000000000002000000000000000000000000000000000000001000000000000000000000000000000000000000000000000000000000000001000000000000400000000000000000000000000000000000000000000000000000000000001000000000000000000000000000000000000000000000000000000000000000000000000000000000000020000000000000000000000000000000000000000000000000000000000000000200000000000000000000000000000000000000000000000000000000100000000000000000000000000000000000000400000",
      "type": "0x0",
      "transactionHash": "0xb8db213a4b849d1c6f24a63774171734e6b00ad8596694803c3d41776aa1432e",
      "transactionIndex": "0x1",
      "blockHash": "0x0b72c4a1153e563ea4242dabb91cf549615e3f1ed51544080c9f96edd3543a96",
      "blockNumber": "0xabe4",
      "gasUsed": "0x9f49",
      "effectiveGasPrice": "0x3b9aca07",
      "blobGasPrice": "0x1",
      "from": "0xf39fd6e51aad88f6f4ce6ab8827279cfffb92266",
      "to": "0xf5c4a909455c00b99a90d93b48736f3196db5621",
      "contractAddress": null,
      "blockTimestamp": 1775415274
    },
    {
      "status": "0x1",
      "cumulativeGasUsed": "0x17483",
      "logs": [
        {
          "address": "0xf5c4a909455c00b99a90d93b48736f3196db5621",
          "topics": [
            "0xd4a2ffd4212ea97bb981aae1f4a20d5170df470d2ed811c1b393882bc1d9f0fa",
            "0xaaaebeba3810b1e6b70781f14b2d72c1cb89c0b2b320c43bb67ff79f562f5ff4"
          ],
          "data": "0x",
          "blockHash": "0x0b72c4a1153e563ea4242dabb91cf549615e3f1ed51544080c9f96edd3543a96",
          "blockNumber": "0xabe4",
          "blockTimestamp": "0x69d2afea",
          "transactionHash": "0xea8a5666615ee99fb751e33d32a87d43031b2a9c5682a945e52784d9a601394b",
          "transactionIndex": "0x2",
          "logIndex": "0x2",
          "removed": false
        }
      ],
      "logsBloom": "0x00000000000000000000000000000000000000000000000000000000000000000000000000000000000000000000000000000000000000000000000001000000000000000000000000000000000000000000080000000000000000000000000000000400000000000000000000000000000000040000000000000000000000000000000000000000000000008000000000000000000000000000000000000000004000000000000000000000000000000000000000000000000000000000000000000000000000000000000000200000000000000000000000001000000000000000000000000000000400000000000000000000000000000000000000000000",
      "type": "0x0",
      "transactionHash": "0xea8a5666615ee99fb751e33d32a87d43031b2a9c5682a945e52784d9a601394b",
      "transactionIndex": "0x2",
      "blockHash": "0x0b72c4a1153e563ea4242dabb91cf549615e3f1ed51544080c9f96edd3543a96",
      "blockNumber": "0xabe4",
      "gasUsed": "0x6a9d",
      "effectiveGasPrice": "0x3b9aca07",
      "blobGasPrice": "0x1",
      "from": "0xf39fd6e51aad88f6f4ce6ab8827279cfffb92266",
      "to": "0xf5c4a909455c00b99a90d93b48736f3196db5621",
      "contractAddress": null,
      "blockTimestamp": 1775415274
    },
    {
      "status": "0x1",
      "cumulativeGasUsed": "0x213b4",
      "logs": [
        {
          "address": "0xf5c4a909455c00b99a90d93b48736f3196db5621",
          "topics": [
            "0xd1e0ff31b5a8e9db7a93db8b63d84e896cce257bc637e6d369f43178eedd98ce",
            "0xaaaebeba3810b1e6b70781f14b2d72c1cb89c0b2b320c43bb67ff79f562f5ff4"
          ],
          "data": "0x0000000000000000000000000000000000000000000000000000004a817c80000000000000000000000000000000000000000000000000000000004a7590be00",
          "blockHash": "0x0b72c4a1153e563ea4242dabb91cf549615e3f1ed51544080c9f96edd3543a96",
          "blockNumber": "0xabe4",
          "blockTimestamp": "0x69d2afea",
          "transactionHash": "0x584fc2c68d120010d02c4ee7eecc5fc59a0d128ad0a0686977fe264f10a2f46e",
          "transactionIndex": "0x3",
          "logIndex": "0x3",
          "removed": false
        }
      ],
      "logsBloom": "0x00000000000000000000000000000000000000000000000000000000000000000000000000000000000000000000000000000000000000000000000001000000000000000000000000000000000000000000000000000000000000001000000000000400000000000000000000000000000000040000000000000000000000000001000000000000000000008000000000000000000000000000000000000000000000000000000000000000020000000000000000000000000000000000000000000000000000000000000000200000000000000000000000001000000000000000000000000000000000000000000000000000000000000000000000000000",
      "type": "0x0",
      "transactionHash": "0x584fc2c68d120010d02c4ee7eecc5fc59a0d128ad0a0686977fe264f10a2f46e",
      "transactionIndex": "0x3",
      "blockHash": "0x0b72c4a1153e563ea4242dabb91cf549615e3f1ed51544080c9f96edd3543a96",
      "blockNumber": "0xabe4",
      "gasUsed": "0x9f31",
      "effectiveGasPrice": "0x3b9aca07",
      "blobGasPrice": "0x1",
      "from": "0xf39fd6e51aad88f6f4ce6ab8827279cfffb92266",
      "to": "0xf5c4a909455c00b99a90d93b48736f3196db5621",
      "contractAddress": null,
      "blockTimestamp": 1775415274
    },
    {
      "status": "0x1",
      "cumulativeGasUsed": "0x27e51",
      "logs": [
        {
          "address": "0xf5c4a909455c00b99a90d93b48736f3196db5621",
          "topics": [
            "0xd4a2ffd4212ea97bb981aae1f4a20d5170df470d2ed811c1b393882bc1d9f0fa",
            "0x0a3ec4fc70eaf64faf6eeda4e9b2bd4742a785464053aa23afad8bd24650e86f"
          ],
          "data": "0x",
          "blockHash": "0x0b72c4a1153e563ea4242dabb91cf549615e3f1ed51544080c9f96edd3543a96",
          "blockNumber": "0xabe4",
          "blockTimestamp": "0x69d2afea",
          "transactionHash": "0xc2f400d3f4760803d6975db6982396f90c36959238948e4ffc15f9eb3f726c94",
          "transactionIndex": "0x4",
          "logIndex": "0x4",
          "removed": false
        }
      ],
      "logsBloom": "0x00000000000000000000000000000000000000000000000000000000000000000000000000000002000000000000000000000000000000000000000001000000000000000000000000000000000000000000080000000000000000000000000000000400000000000000000000000000000000000000000000000000000000000000000000000000000000000000000000000000000000000000000000000000004000000000000000000000000000000000000000000000000000000000000000000000000000000000000000200000000008000000000000000000000040000000000000000000000400000000000000000000000000000000000000000000",
      "type": "0x0",
      "transactionHash": "0xc2f400d3f4760803d6975db6982396f90c36959238948e4ffc15f9eb3f726c94",
      "transactionIndex": "0x4",
      "blockHash": "0x0b72c4a1153e563ea4242dabb91cf549615e3f1ed51544080c9f96edd3543a96",
      "blockNumber": "0xabe4",
      "gasUsed": "0x6a9d",
      "effectiveGasPrice": "0x3b9aca07",
      "blobGasPrice": "0x1",
      "from": "0xf39fd6e51aad88f6f4ce6ab8827279cfffb92266",
      "to": "0xf5c4a909455c00b99a90d93b48736f3196db5621",
      "contractAddress": null,
      "blockTimestamp": 1775415274
    },
    {
      "status": "0x1",
      "cumulativeGasUsed": "0x31d8e",
      "logs": [
        {
          "address": "0xf5c4a909455c00b99a90d93b48736f3196db5621",
          "topics": [
            "0xd1e0ff31b5a8e9db7a93db8b63d84e896cce257bc637e6d369f43178eedd98ce",
            "0x0a3ec4fc70eaf64faf6eeda4e9b2bd4742a785464053aa23afad8bd24650e86f"
          ],
          "data": "0x0000000000000000000000000000000000000000000000000000000430e234000000000000000000000000000000000000000000000000000000000430499d80",
          "blockHash": "0x0b72c4a1153e563ea4242dabb91cf549615e3f1ed51544080c9f96edd3543a96",
          "blockNumber": "0xabe4",
          "blockTimestamp": "0x69d2afea",
          "transactionHash": "0xeb1334c401503d2aef4359a6caeb298d00fd9c1f7a04a88f84d759b45d231bd2",
          "transactionIndex": "0x5",
          "logIndex": "0x5",
          "removed": false
        }
      ],
      "logsBloom": "0x00000000000000000000000000000000000000000000000000000000000000000000000000000002000000000000000000000000000000000000000001000000000000000000000000000000000000000000000000000000000000001000000000000400000000000000000000000000000000000000000000000000000000000001000000000000000000000000000000000000000000000000000000000000000000000000000000000000020000000000000000000000000000000000000000000000000000000000000000200000000008000000000000000000000040000000000000000000000000000000000000000000000000000000000000000000",
      "type": "0x0",
      "transactionHash": "0xeb1334c401503d2aef4359a6caeb298d00fd9c1f7a04a88f84d759b45d231bd2",
      "transactionIndex": "0x5",
      "blockHash": "0x0b72c4a1153e563ea4242dabb91cf549615e3f1ed51544080c9f96edd3543a96",
      "blockNumber": "0xabe4",
      "gasUsed": "0x9f3d",
      "effectiveGasPrice": "0x3b9aca07",
      "blobGasPrice": "0x1",
      "from": "0xf39fd6e51aad88f6f4ce6ab8827279cfffb92266",
      "to": "0xf5c4a909455c00b99a90d93b48736f3196db5621",
      "contractAddress": null,
      "blockTimestamp": 1775415274
    },
    {
      "status": "0x1",
      "cumulativeGasUsed": "0x3882b",
      "logs": [
        {
          "address": "0xf5c4a909455c00b99a90d93b48736f3196db5621",
          "topics": [
            "0xd4a2ffd4212ea97bb981aae1f4a20d5170df470d2ed811c1b393882bc1d9f0fa",
            "0x3ed03c38e59dc60c7b69c2a4bf68f9214acd953252b5a90e8f5f59583e9bc3ae"
          ],
          "data": "0x",
          "blockHash": "0x0b72c4a1153e563ea4242dabb91cf549615e3f1ed51544080c9f96edd3543a96",
          "blockNumber": "0xabe4",
          "blockTimestamp": "0x69d2afea",
          "transactionHash": "0x8914387f3f9de2cab5e90fcaca18c8384a8ed88f7a43def4a8477ef15eadf8a5",
          "transactionIndex": "0x6",
          "logIndex": "0x6",
          "removed": false
        }
      ],
      "logsBloom": "0x00000000000000000000000000000000000000000000000000000000000000000000000000000000000100000000000000000000000000000000000001000000000000000000000000000000000000000000080000000000000000000000000000000400000000000000000000000000000000000000000000000000000000000020000000000000000000000000000000000000000000000000000000008000004000000000000000000000000000000000000000000000000000000000000000000000000000000000000000200000000000000000000000000000000000000000000000000000000400000000000000000000000000000000000000000000",
      "type": "0x0",
      "transactionHash": "0x8914387f3f9de2cab5e90fcaca18c8384a8ed88f7a43def4a8477ef15eadf8a5",
      "transactionIndex": "0x6",
      "blockHash": "0x0b72c4a1153e563ea4242dabb91cf549615e3f1ed51544080c9f96edd3543a96",
      "blockNumber": "0xabe4",
      "gasUsed": "0x6a9d",
      "effectiveGasPrice": "0x3b9aca07",
      "blobGasPrice": "0x1",
      "from": "0xf39fd6e51aad88f6f4ce6ab8827279cfffb92266",
      "to": "0xf5c4a909455c00b99a90d93b48736f3196db5621",
      "contractAddress": null,
      "blockTimestamp": 1775415274
    },
    {
      "status": "0x1",
      "cumulativeGasUsed": "0x4275c",
      "logs": [
        {
          "address": "0xf5c4a909455c00b99a90d93b48736f3196db5621",
          "topics": [
            "0xd1e0ff31b5a8e9db7a93db8b63d84e896cce257bc637e6d369f43178eedd98ce",
            "0x3ed03c38e59dc60c7b69c2a4bf68f9214acd953252b5a90e8f5f59583e9bc3ae"
          ],
          "data": "0x0000000000000000000000000000000000000000000000000000000df84758000000000000000000000000000000000000000000000000000000000df7162b00",
          "blockHash": "0x0b72c4a1153e563ea4242dabb91cf549615e3f1ed51544080c9f96edd3543a96",
          "blockNumber": "0xabe4",
          "blockTimestamp": "0x69d2afea",
          "transactionHash": "0xd6efa22c9ddb5e0c86c410153a60494bb3369d8f01f076f2bf700561203102be",
          "transactionIndex": "0x7",
          "logIndex": "0x7",
          "removed": false
        }
      ],
      "logsBloom": "0x00000000000000000000000000000000000000000000000000000000000000000000000000000000000100000000000000000000000000000000000001000000000000000000000000000000000000000000000000000000000000001000000000000400000000000000000000000000000000000000000000000000000000000021000000000000000000000000000000000000000000000000000000008000000000000000000000000000020000000000000000000000000000000000000000000000000000000000000000200000000000000000000000000000000000000000000000000000000000000000000000000000000000000000000000000000",
      "type": "0x0",
      "transactionHash": "0xd6efa22c9ddb5e0c86c410153a60494bb3369d8f01f076f2bf700561203102be",
      "transactionIndex": "0x7",
      "blockHash": "0x0b72c4a1153e563ea4242dabb91cf549615e3f1ed51544080c9f96edd3543a96",
      "blockNumber": "0xabe4",
      "gasUsed": "0x9f31",
      "effectiveGasPrice": "0x3b9aca07",
      "blobGasPrice": "0x1",
      "from": "0xf39fd6e51aad88f6f4ce6ab8827279cfffb92266",
      "to": "0xf5c4a909455c00b99a90d93b48736f3196db5621",
      "contractAddress": null,
      "blockTimestamp": 1775415274
    },
    {
      "status": "0x1",
      "cumulativeGasUsed": "0x491f9",
      "logs": [
        {
          "address": "0xf5c4a909455c00b99a90d93b48736f3196db5621",
          "topics": [
            "0xd4a2ffd4212ea97bb981aae1f4a20d5170df470d2ed811c1b393882bc1d9f0fa",
            "0xa6a7de01e8b7ba6a4a61c782a73188d808fc1f3cf5743fadb68a02ed884b594f"
          ],
          "data": "0x",
          "blockHash": "0x0b72c4a1153e563ea4242dabb91cf549615e3f1ed51544080c9f96edd3543a96",
          "blockNumber": "0xabe4",
          "blockTimestamp": "0x69d2afea",
          "transactionHash": "0x45b30259cecb1e778626ff8d802328941aca83f6068eb92ed0d58f9c2fcaeedf",
          "transactionIndex": "0x8",
          "logIndex": "0x8",
          "removed": false
        }
      ],
      "logsBloom": "0x00000000000000000000000000000000000000000000000000000000000000000000000000000000000000000000000000000000000000000000000001000000000000000000000000000000000000000000080000000000000000000000400000000400000000000000000000000000000000000000000000000040000000000000000000000000000000000000000000000000000000000000000000000000004000000000000000000000000000000000000000000000000000000000000000000000000000000000000000210000000000000000000000000000000000000000000000000000000400000000000000000000000000000000000000000000",
      "type": "0x0",
      "transactionHash": "0x45b30259cecb1e778626ff8d802328941aca83f6068eb92ed0d58f9c2fcaeedf",
      "transactionIndex": "0x8",
      "blockHash": "0x0b72c4a1153e563ea4242dabb91cf549615e3f1ed51544080c9f96edd3543a96",
      "blockNumber": "0xabe4",
      "gasUsed": "0x6a9d",
      "effectiveGasPrice": "0x3b9aca07",
      "blobGasPrice": "0x1",
      "from": "0xf39fd6e51aad88f6f4ce6ab8827279cfffb92266",
      "to": "0xf5c4a909455c00b99a90d93b48736f3196db5621",
      "contractAddress": null,
      "blockTimestamp": 1775415274
    },
    {
      "status": "0x1",
      "cumulativeGasUsed": "0x5312a",
      "logs": [
        {
          "address": "0xf5c4a909455c00b99a90d93b48736f3196db5621",
          "topics": [
            "0xd1e0ff31b5a8e9db7a93db8b63d84e896cce257bc637e6d369f43178eedd98ce",
            "0xa6a7de01e8b7ba6a4a61c782a73188d808fc1f3cf5743fadb68a02ed884b594f"
          ],
          "data": "0x00000000000000000000000000000000000000000000000000000000055d4a80000000000000000000000000000000000000000000000000000000000555a960",
          "blockHash": "0x0b72c4a1153e563ea4242dabb91cf549615e3f1ed51544080c9f96edd3543a96",
          "blockNumber": "0xabe4",
          "blockTimestamp": "0x69d2afea",
          "transactionHash": "0x05b1808bd7abd67fd746d1dfac7181138682076040542c1ba90de92ce2e5f7e4",
          "transactionIndex": "0x9",
          "logIndex": "0x9",
          "removed": false
        }
      ],
      "logsBloom": "0x00000000000000000000000000000000000000000000000000000000000000000000000000000000000000000000000000000000000000000000000001000000000000000000000000000000000000000000000000000000000000001000400000000400000000000000000000000000000000000000000000000040000000000001000000000000000000000000000000000000000000000000000000000000000000000000000000000000020000000000000000000000000000000000000000000000000000000000000000210000000000000000000000000000000000000000000000000000000000000000000000000000000000000000000000000000",
      "type": "0x0",
      "transactionHash": "0x05b1808bd7abd67fd746d1dfac7181138682076040542c1ba90de92ce2e5f7e4",
      "transactionIndex": "0x9",
      "blockHash": "0x0b72c4a1153e563ea4242dabb91cf549615e3f1ed51544080c9f96edd3543a96",
      "blockNumber": "0xabe4",
      "gasUsed": "0x9f31",
      "effectiveGasPrice": "0x3b9aca07",
      "blobGasPrice": "0x1",
      "from": "0xf39fd6e51aad88f6f4ce6ab8827279cfffb92266",
      "to": "0xf5c4a909455c00b99a90d93b48736f3196db5621",
      "contractAddress": null,
      "blockTimestamp": 1775415274
    },
    {
      "status": "0x1",
      "cumulativeGasUsed": "0x59bc7",
      "logs": [
        {
          "address": "0xf5c4a909455c00b99a90d93b48736f3196db5621",
          "topics": [
            "0xd4a2ffd4212ea97bb981aae1f4a20d5170df470d2ed811c1b393882bc1d9f0fa",
            "0xc07524b7a4eecc2784fc7ac17ff2730f877f3cf7a2ceb4e2375fa40a103115d0"
          ],
          "data": "0x",
          "blockHash": "0x0b72c4a1153e563ea4242dabb91cf549615e3f1ed51544080c9f96edd3543a96",
          "blockNumber": "0xabe4",
          "blockTimestamp": "0x69d2afea",
          "transactionHash": "0x788a92aa6467ecb76f245d8237c257d92d6fb592c36015dd099e04d512147ac2",
          "transactionIndex": "0xa",
          "logIndex": "0xa",
          "removed": false
        }
      ],
      "logsBloom": "0x00000000000000000000000000000000000000000000000000000000000000000000000000000000000000000000000000000000000000000000000001000000000000000000000000000000000000000000080000000000000000000000000000000400000000000000000000000000000000000000000000000000000000000000000000000000000000000000000000000000000000000000004000000000004000000000000000000000000000000000000000000000002000000000000000000000000000000000000000200000000000000000080000000000000000000000000000000000000400000000000000000000000000000000000000000000",
      "type": "0x0",
      "transactionHash": "0x788a92aa6467ecb76f245d8237c257d92d6fb592c36015dd099e04d512147ac2",
      "transactionIndex": "0xa",
      "blockHash": "0x0b72c4a1153e563ea4242dabb91cf549615e3f1ed51544080c9f96edd3543a96",
      "blockNumber": "0xabe4",
      "gasUsed": "0x6a9d",
      "effectiveGasPrice": "0x3b9aca07",
      "blobGasPrice": "0x1",
      "from": "0xf39fd6e51aad88f6f4ce6ab8827279cfffb92266",
      "to": "0xf5c4a909455c00b99a90d93b48736f3196db5621",
      "contractAddress": null,
      "blockTimestamp": 1775415274
    },
    {
      "status": "0x1",
      "cumulativeGasUsed": "0x63ae0",
      "logs": [
        {
          "address": "0xf5c4a909455c00b99a90d93b48736f3196db5621",
          "topics": [
            "0xd1e0ff31b5a8e9db7a93db8b63d84e896cce257bc637e6d369f43178eedd98ce",
            "0xc07524b7a4eecc2784fc7ac17ff2730f877f3cf7a2ceb4e2375fa40a103115d0"
          ],
          "data": "0x0000000000000000000000000000000000000000000000000000000007270e0000000000000000000000000000000000000000000000000000000000072400c0",
          "blockHash": "0x0b72c4a1153e563ea4242dabb91cf549615e3f1ed51544080c9f96edd3543a96",
          "blockNumber": "0xabe4",
          "blockTimestamp": "0x69d2afea",
          "transactionHash": "0x6fd4ee1e326673189eb108856b161693fdf2a291d9c68c140cf06a5d7263f957",
          "transactionIndex": "0xb",
          "logIndex": "0xb",
          "removed": false
        }
      ],
      "logsBloom": "0x00000000000000000000000000000000000000000000000000000000000000000000000000000000000000000000000000000000000000000000000001000000000000000000000000000000000000000000000000000000000000001000000000000400000000000000000000000000000000000000000000000000000000000001000000000000000000000000000000000000000000000000004000000000000000000000000000000000020000000000000000000000002000000000000000000000000000000000000000200000000000000000080000000000000000000000000000000000000000000000000000000000000000000000000000000000",
      "type": "0x0",
      "transactionHash": "0x6fd4ee1e326673189eb108856b161693fdf2a291d9c68c140cf06a5d7263f957",
      "transactionIndex": "0xb",
      "blockHash": "0x0b72c4a1153e563ea4242dabb91cf549615e3f1ed51544080c9f96edd3543a96",
      "blockNumber": "0xabe4",
      "gasUsed": "0x9f19",
      "effectiveGasPrice": "0x3b9aca07",
      "blobGasPrice": "0x1",
      "from": "0xf39fd6e51aad88f6f4ce6ab8827279cfffb92266",
      "to": "0xf5c4a909455c00b99a90d93b48736f3196db5621",
      "contractAddress": null,
      "blockTimestamp": 1775415274
    }
  ],
  "libraries": [],
  "pending": [],
  "returns": {},
  "timestamp": 1775415274447,
  "chain": 42069,
  "commit": "f6d582d"
}