{
  "transactions": [
    {
      "hash": "0x0fe8f973d893f50dc1cc99ae67e90abdcb22176585c757f7674b40be3af7af0f",
      "transactionType": "CREATE",
      "contractName": "SwapMockERC20",
      "contractAddress": "0x547382c0d1b23f707918d3c83a77317b71aa8470",
      "function": null,
      "arguments": [
        "GoodDollar Swap",
        "G$-S",
        "18"
      ],
      "transaction": {
        "from": "0xf39fd6e51aad88f6f4ce6ab8827279cfffb92266",
        "gas": "0x99643",
        "value": "0x0",
        "input": "0x608060405234610341576109fd8038038061001981610345565b9283398101906060818303126103415780516001600160401b038111610341578261004591830161036a565b60208201519092906001600160401b0381116103415760409161006991840161036a565b91015160ff81168091036103415782516001600160401b03811161024a575f54600181811c91168015610337575b602082101461022c57601f81116102ca575b506020601f821160011461026957819293945f9261025e575b50508160011b915f199060031b1c1916175f555b81516001600160401b03811161024a57600154600181811c91168015610240575b602082101461022c57601f81116101be575b50602092601f821160011461015d57928192935f92610152575b50508160011b915f199060031b1c1916176001555b60ff19600254161760025560405161064190816103bc8239f35b015190505f80610123565b601f1982169360015f52805f20915f5b8681106101a6575083600195961061018e575b505050811b01600155610138565b01515f1960f88460031b161c191690555f8080610180565b9192602060018192868501518155019401920161016d565b818111156101095760015f52601f820160051c7fb10e2d527612073b26eecdfd717e6a320cf44b4afac2b0732d9fcbe2b7fa0cf660208410610224575b81601f9101920160051c03905f5b828110610217575050610109565b5f82820155600101610209565b5f91506101fb565b634e487b7160e01b5f52602260045260245ffd5b90607f16906100f7565b634e487b7160e01b5f52604160045260245ffd5b015190505f806100c2565b601f198216905f8052805f20915f5b8181106102b25750958360019596971061029a575b505050811b015f556100d6565b01515f1960f88460031b161c191690555f808061028d565b9192602060018192868b015181550194019201610278565b818111156100a9575f8052601f820160051c7f290decd9548b62a8d60345a988386fc84ba6bc95484008f6362f93160ef3e5636020841061032f575b81601f9101920160051c03905f5b8281106103225750506100a9565b5f82820155600101610314565b5f9150610306565b90607f1690610097565b5f80fd5b6040519190601f01601f191682016001600160401b0381118382101761024a57604052565b81601f82011215610341578051906001600160401b03821161024a57610399601f8301601f1916602001610345565b928284526020838301011161034157815f9260208093018386015e830101529056fe60806040526004361015610011575f80fd5b5f3560e01c806306fdde03146104b5578063095ea7b31461043c57806318160ddd1461041f57806323b872dd1461035a578063313ce5671461033a57806340c10f19146102c057806370a082311461028857806395d89b411461016a578063a9059cbb146100db5763dd62ed3e14610087575f80fd5b346100d75760403660031901126100d7576100a06105b1565b6100a86105c7565b6001600160a01b039182165f908152600560209081526040808320949093168252928352819020549051908152f35b5f80fd5b346100d75760403660031901126100d7576100f46105b1565b60243590335f52600460205260405f2061010f8382546105dd565b905560018060a01b031690815f52600460205260405f206101318282546105fe565b90556040519081527fddf252ad1be2c89b69c2b068fc378daa952ba7f163c4a11628f55a4df523b3ef60203392a3602060405160018152f35b346100d7575f3660031901126100d7576040515f6001548060011c9060018116801561027e575b60208310811461026a5782855290811561024e57506001146101f8575b50819003601f01601f191681019067ffffffffffffffff8211818310176101e457604082905281906101e09082610587565b0390f35b634e487b7160e01b5f52604160045260245ffd5b60015f9081529091507fb10e2d527612073b26eecdfd717e6a320cf44b4afac2b0732d9fcbe2b7fa0cf65b828210610238575060209150820101826101ae565b6001816020925483858801015201910190610223565b90506020925060ff191682840152151560051b820101826101ae565b634e487b7160e01b5f52602260045260245ffd5b91607f1691610191565b346100d75760203660031901126100d7576001600160a01b036102a96105b1565b165f526004602052602060405f2054604051908152f35b346100d75760403660031901126100d7576102d96105b1565b5f7fddf252ad1be2c89b69c2b068fc378daa952ba7f163c4a11628f55a4df523b3ef60206024359361030d856003546105fe565b60035560018060a01b031693848452600482526040842061032f8282546105fe565b9055604051908152a3005b346100d7575f3660031901126100d757602060ff60025416604051908152f35b346100d75760603660031901126100d7576103736105b1565b61037b6105c7565b7fddf252ad1be2c89b69c2b068fc378daa952ba7f163c4a11628f55a4df523b3ef60206044359360018060a01b031692835f526005825260405f2060018060a01b0333165f52825260405f206103d28682546105dd565b9055835f526004825260405f206103ea8682546105dd565b905560018060a01b031693845f526004825260405f2061040b8282546105fe565b9055604051908152a3602060405160018152f35b346100d7575f3660031901126100d7576020600354604051908152f35b346100d75760403660031901126100d7576104556105b1565b335f8181526005602090815260408083206001600160a01b03909516808452948252918290206024359081905591519182527f8c5be1e5ebec7d5bd14f71427d1e84f3dd0314c0f7b2291e5b200ac8c7c3b92591a3602060405160018152f35b346100d7575f3660031901126100d7576040515f5f548060011c9060018116801561057d575b60208310811461026a5782855290811561024e57506001146105295750819003601f01601f191681019067ffffffffffffffff8211818310176101e457604082905281906101e09082610587565b5f8080529091507f290decd9548b62a8d60345a988386fc84ba6bc95484008f6362f93160ef3e5635b828210610567575060209150820101826101ae565b6001816020925483858801015201910190610552565b91607f16916104db565b602060409281835280519182918282860152018484015e5f828201840152601f01601f1916010190565b600435906001600160a01b03821682036100d757565b602435906001600160a01b03821682036100d757565b919082039182116105ea57565b634e487b7160e01b5f52601160045260245ffd5b919082018092116105ea5756fea2646970667358221220cad941b9d7e9becfce8dfa10b2d5565e7919b6efb8a55095389b94714c700f9664736f6c63430008210033000000000000000000000000000000000000000000000000000000000000006000000000000000000000000000000000000000000000000000000000000000a00000000000000000000000000000000000000000000000000000000000000012000000000000000000000000000000000000000000000000000000000000000f476f6f64446f6c6c617220537761700000000000000000000000000000000000000000000000000000000000000000000000000000000000000000000000000447242d5300000000000000000000000000000000000000000000000000000000",
        "nonce": "0x103",
        "chainId": "0xa455"
      },
      "additionalContracts": [],
      "isFixedGasLimit": false
    },
    {
      "hash": "0x63992c05e5e4c06e95a1706db29e9d35b9897356858d629f8df0789c25f2e5db",
      "transactionType": "CREATE",
      "contractName": "SwapMockERC20",
      "contractAddress": "0x7c8baafa542c57ff9b2b90612bf8ab9e86e22c09",
      "function": null,
      "arguments": [
        "Wrapped Ether",
        "WETH",
        "18"
      ],
      "transaction": {
        "from": "0xf39fd6e51aad88f6f4ce6ab8827279cfffb92266",
        "gas": "0x99624",
        "value": "0x0",
        "input": "0x608060405234610341576109fd8038038061001981610345565b9283398101906060818303126103415780516001600160401b038111610341578261004591830161036a565b60208201519092906001600160401b0381116103415760409161006991840161036a565b91015160ff81168091036103415782516001600160401b03811161024a575f54600181811c91168015610337575b602082101461022c57601f81116102ca575b506020601f821160011461026957819293945f9261025e575b50508160011b915f199060031b1c1916175f555b81516001600160401b03811161024a57600154600181811c91168015610240575b602082101461022c57601f81116101be575b50602092601f821160011461015d57928192935f92610152575b50508160011b915f199060031b1c1916176001555b60ff19600254161760025560405161064190816103bc8239f35b015190505f80610123565b601f1982169360015f52805f20915f5b8681106101a6575083600195961061018e575b505050811b01600155610138565b01515f1960f88460031b161c191690555f8080610180565b9192602060018192868501518155019401920161016d565b818111156101095760015f52601f820160051c7fb10e2d527612073b26eecdfd717e6a320cf44b4afac2b0732d9fcbe2b7fa0cf660208410610224575b81601f9101920160051c03905f5b828110610217575050610109565b5f82820155600101610209565b5f91506101fb565b634e487b7160e01b5f52602260045260245ffd5b90607f16906100f7565b634e487b7160e01b5f52604160045260245ffd5b015190505f806100c2565b601f198216905f8052805f20915f5b8181106102b25750958360019596971061029a575b505050811b015f556100d6565b01515f1960f88460031b161c191690555f808061028d565b9192602060018192868b015181550194019201610278565b818111156100a9575f8052601f820160051c7f290decd9548b62a8d60345a988386fc84ba6bc95484008f6362f93160ef3e5636020841061032f575b81601f9101920160051c03905f5b8281106103225750506100a9565b5f82820155600101610314565b5f9150610306565b90607f1690610097565b5f80fd5b6040519190601f01601f191682016001600160401b0381118382101761024a57604052565b81601f82011215610341578051906001600160401b03821161024a57610399601f8301601f1916602001610345565b928284526020838301011161034157815f9260208093018386015e830101529056fe60806040526004361015610011575f80fd5b5f3560e01c806306fdde03146104b5578063095ea7b31461043c57806318160ddd1461041f57806323b872dd1461035a578063313ce5671461033a57806340c10f19146102c057806370a082311461028857806395d89b411461016a578063a9059cbb146100db5763dd62ed3e14610087575f80fd5b346100d75760403660031901126100d7576100a06105b1565b6100a86105c7565b6001600160a01b039182165f908152600560209081526040808320949093168252928352819020549051908152f35b5f80fd5b346100d75760403660031901126100d7576100f46105b1565b60243590335f52600460205260405f2061010f8382546105dd565b905560018060a01b031690815f52600460205260405f206101318282546105fe565b90556040519081527fddf252ad1be2c89b69c2b068fc378daa952ba7f163c4a11628f55a4df523b3ef60203392a3602060405160018152f35b346100d7575f3660031901126100d7576040515f6001548060011c9060018116801561027e575b60208310811461026a5782855290811561024e57506001146101f8575b50819003601f01601f191681019067ffffffffffffffff8211818310176101e457604082905281906101e09082610587565b0390f35b634e487b7160e01b5f52604160045260245ffd5b60015f9081529091507fb10e2d527612073b26eecdfd717e6a320cf44b4afac2b0732d9fcbe2b7fa0cf65b828210610238575060209150820101826101ae565b6001816020925483858801015201910190610223565b90506020925060ff191682840152151560051b820101826101ae565b634e487b7160e01b5f52602260045260245ffd5b91607f1691610191565b346100d75760203660031901126100d7576001600160a01b036102a96105b1565b165f526004602052602060405f2054604051908152f35b346100d75760403660031901126100d7576102d96105b1565b5f7fddf252ad1be2c89b69c2b068fc378daa952ba7f163c4a11628f55a4df523b3ef60206024359361030d856003546105fe565b60035560018060a01b031693848452600482526040842061032f8282546105fe565b9055604051908152a3005b346100d7575f3660031901126100d757602060ff60025416604051908152f35b346100d75760603660031901126100d7576103736105b1565b61037b6105c7565b7fddf252ad1be2c89b69c2b068fc378daa952ba7f163c4a11628f55a4df523b3ef60206044359360018060a01b031692835f526005825260405f2060018060a01b0333165f52825260405f206103d28682546105dd565b9055835f526004825260405f206103ea8682546105dd565b905560018060a01b031693845f526004825260405f2061040b8282546105fe565b9055604051908152a3602060405160018152f35b346100d7575f3660031901126100d7576020600354604051908152f35b346100d75760403660031901126100d7576104556105b1565b335f8181526005602090815260408083206001600160a01b03909516808452948252918290206024359081905591519182527f8c5be1e5ebec7d5bd14f71427d1e84f3dd0314c0f7b2291e5b200ac8c7c3b92591a3602060405160018152f35b346100d7575f3660031901126100d7576040515f5f548060011c9060018116801561057d575b60208310811461026a5782855290811561024e57506001146105295750819003601f01601f191681019067ffffffffffffffff8211818310176101e457604082905281906101e09082610587565b5f8080529091507f290decd9548b62a8d60345a988386fc84ba6bc95484008f6362f93160ef3e5635b828210610567575060209150820101826101ae565b6001816020925483858801015201910190610552565b91607f16916104db565b602060409281835280519182918282860152018484015e5f828201840152601f01601f1916010190565b600435906001600160a01b03821682036100d757565b602435906001600160a01b03821682036100d757565b919082039182116105ea57565b634e487b7160e01b5f52601160045260245ffd5b919082018092116105ea5756fea2646970667358221220cad941b9d7e9becfce8dfa10b2d5565e7919b6efb8a55095389b94714c700f9664736f6c63430008210033000000000000000000000000000000000000000000000000000000000000006000000000000000000000000000000000000000000000000000000000000000a00000000000000000000000000000000000000000000000000000000000000012000000000000000000000000000000000000000000000000000000000000000d577261707065642045746865720000000000000000000000000000000000000000000000000000000000000000000000000000000000000000000000000000045745544800000000000000000000000000000000000000000000000000000000",
        "nonce": "0x104",
        "chainId": "0xa455"
      },
      "additionalContracts": [],
      "isFixedGasLimit": false
    },
    {
      "hash": "0x8710ea3b67fb682d43a391167c199cb40203482722d58530015c47428fc71bd1",
      "transactionType": "CREATE",
      "contractName": "SwapMockERC20",
      "contractAddress": "0x0a17fabea4633ce714f1fa4a2dca62c3bac4758d",
      "function": null,
      "arguments": [
        "USD Coin",
        "USDC",
        "6"
      ],
      "transaction": {
        "from": "0xf39fd6e51aad88f6f4ce6ab8827279cfffb92266",
        "gas": "0x995d6",
        "value": "0x0",
        "input": "0x608060405234610341576109fd8038038061001981610345565b9283398101906060818303126103415780516001600160401b038111610341578261004591830161036a565b60208201519092906001600160401b0381116103415760409161006991840161036a565b91015160ff81168091036103415782516001600160401b03811161024a575f54600181811c91168015610337575b602082101461022c57601f81116102ca575b506020601f821160011461026957819293945f9261025e575b50508160011b915f199060031b1c1916175f555b81516001600160401b03811161024a57600154600181811c91168015610240575b602082101461022c57601f81116101be575b50602092601f821160011461015d57928192935f92610152575b50508160011b915f199060031b1c1916176001555b60ff19600254161760025560405161064190816103bc8239f35b015190505f80610123565b601f1982169360015f52805f20915f5b8681106101a6575083600195961061018e575b505050811b01600155610138565b01515f1960f88460031b161c191690555f8080610180565b9192602060018192868501518155019401920161016d565b818111156101095760015f52601f820160051c7fb10e2d527612073b26eecdfd717e6a320cf44b4afac2b0732d9fcbe2b7fa0cf660208410610224575b81601f9101920160051c03905f5b828110610217575050610109565b5f82820155600101610209565b5f91506101fb565b634e487b7160e01b5f52602260045260245ffd5b90607f16906100f7565b634e487b7160e01b5f52604160045260245ffd5b015190505f806100c2565b601f198216905f8052805f20915f5b8181106102b25750958360019596971061029a575b505050811b015f556100d6565b01515f1960f88460031b161c191690555f808061028d565b9192602060018192868b015181550194019201610278565b818111156100a9575f8052601f820160051c7f290decd9548b62a8d60345a988386fc84ba6bc95484008f6362f93160ef3e5636020841061032f575b81601f9101920160051c03905f5b8281106103225750506100a9565b5f82820155600101610314565b5f9150610306565b90607f1690610097565b5f80fd5b6040519190601f01601f191682016001600160401b0381118382101761024a57604052565b81601f82011215610341578051906001600160401b03821161024a57610399601f8301601f1916602001610345565b928284526020838301011161034157815f9260208093018386015e830101529056fe60806040526004361015610011575f80fd5b5f3560e01c806306fdde03146104b5578063095ea7b31461043c57806318160ddd1461041f57806323b872dd1461035a578063313ce5671461033a57806340c10f19146102c057806370a082311461028857806395d89b411461016a578063a9059cbb146100db5763dd62ed3e14610087575f80fd5b346100d75760403660031901126100d7576100a06105b1565b6100a86105c7565b6001600160a01b039182165f908152600560209081526040808320949093168252928352819020549051908152f35b5f80fd5b346100d75760403660031901126100d7576100f46105b1565b60243590335f52600460205260405f2061010f8382546105dd565b905560018060a01b031690815f52600460205260405f206101318282546105fe565b90556040519081527fddf252ad1be2c89b69c2b068fc378daa952ba7f163c4a11628f55a4df523b3ef60203392a3602060405160018152f35b346100d7575f3660031901126100d7576040515f6001548060011c9060018116801561027e575b60208310811461026a5782855290811561024e57506001146101f8575b50819003601f01601f191681019067ffffffffffffffff8211818310176101e457604082905281906101e09082610587565b0390f35b634e487b7160e01b5f52604160045260245ffd5b60015f9081529091507fb10e2d527612073b26eecdfd717e6a320cf44b4afac2b0732d9fcbe2b7fa0cf65b828210610238575060209150820101826101ae565b6001816020925483858801015201910190610223565b90506020925060ff191682840152151560051b820101826101ae565b634e487b7160e01b5f52602260045260245ffd5b91607f1691610191565b346100d75760203660031901126100d7576001600160a01b036102a96105b1565b165f526004602052602060405f2054604051908152f35b346100d75760403660031901126100d7576102d96105b1565b5f7fddf252ad1be2c89b69c2b068fc378daa952ba7f163c4a11628f55a4df523b3ef60206024359361030d856003546105fe565b60035560018060a01b031693848452600482526040842061032f8282546105fe565b9055604051908152a3005b346100d7575f3660031901126100d757602060ff60025416604051908152f35b346100d75760603660031901126100d7576103736105b1565b61037b6105c7565b7fddf252ad1be2c89b69c2b068fc378daa952ba7f163c4a11628f55a4df523b3ef60206044359360018060a01b031692835f526005825260405f2060018060a01b0333165f52825260405f206103d28682546105dd565b9055835f526004825260405f206103ea8682546105dd565b905560018060a01b031693845f526004825260405f2061040b8282546105fe565b9055604051908152a3602060405160018152f35b346100d7575f3660031901126100d7576020600354604051908152f35b346100d75760403660031901126100d7576104556105b1565b335f8181526005602090815260408083206001600160a01b03909516808452948252918290206024359081905591519182527f8c5be1e5ebec7d5bd14f71427d1e84f3dd0314c0f7b2291e5b200ac8c7c3b92591a3602060405160018152f35b346100d7575f3660031901126100d7576040515f5f548060011c9060018116801561057d575b60208310811461026a5782855290811561024e57506001146105295750819003601f01601f191681019067ffffffffffffffff8211818310176101e457604082905281906101e09082610587565b5f8080529091507f290decd9548b62a8d60345a988386fc84ba6bc95484008f6362f93160ef3e5635b828210610567575060209150820101826101ae565b6001816020925483858801015201910190610552565b91607f16916104db565b602060409281835280519182918282860152018484015e5f828201840152601f01601f1916010190565b600435906001600160a01b03821682036100d757565b602435906001600160a01b03821682036100d757565b919082039182116105ea57565b634e487b7160e01b5f52601160045260245ffd5b919082018092116105ea5756fea2646970667358221220cad941b9d7e9becfce8dfa10b2d5565e7919b6efb8a55095389b94714c700f9664736f6c63430008210033000000000000000000000000000000000000000000000000000000000000006000000000000000000000000000000000000000000000000000000000000000a00000000000000000000000000000000000000000000000000000000000000006000000000000000000000000000000000000000000000000000000000000000855534420436f696e00000000000000000000000000000000000000000000000000000000000000000000000000000000000000000000000000000000000000045553444300000000000000000000000000000000000000000000000000000000",
        "nonce": "0x105",
        "chainId": "0xa455"
      },
      "additionalContracts": [],
      "isFixedGasLimit": false
    },
    {
      "hash": "0x839b9e5409daa5065eb1d1539e957be57255905ceb2da3cc1c7935cbdf6a2850",
      "transactionType": "CALL",
      "contractName": "SwapMockERC20",
      "contractAddress": "0x547382c0d1b23f707918d3c83a77317b71aa8470",
      "function": "mint(address,uint256)",
      "arguments": [
        "0xf39Fd6e51aad88F6F4ce6aB8827279cffFb92266",
        "4000000000000000000000000"
      ],
      "transaction": {
        "from": "0xf39fd6e51aad88f6f4ce6ab8827279cfffb92266",
        "to": "0x547382c0d1b23f707918d3c83a77317b71aa8470",
        "gas": "0x16fd8",
        "value": "0x0",
        "input": "0x40c10f19000000000000000000000000f39fd6e51aad88f6f4ce6ab8827279cfffb92266000000000000000000000000000000000000000000034f086f3b33b684000000",
        "nonce": "0x106",
        "chainId": "0xa455"
      },
      "additionalContracts": [],
      "isFixedGasLimit": false
    },
    {
      "hash": "0xfe87c42fbe3b36cfe35bb242cc0bc7331bba12bbdf993b798cf259b22b279907",
      "transactionType": "CALL",
      "contractName": "SwapMockERC20",
      "contractAddress": "0x7c8baafa542c57ff9b2b90612bf8ab9e86e22c09",
      "function": "mint(address,uint256)",
      "arguments": [
        "0xf39Fd6e51aad88F6F4ce6aB8827279cffFb92266",
        "2000000000000000000000"
      ],
      "transaction": {
        "from": "0xf39fd6e51aad88f6f4ce6ab8827279cfffb92266",
        "to": "0x7c8baafa542c57ff9b2b90612bf8ab9e86e22c09",
        "gas": "0x16fc7",
        "value": "0x0",
        "input": "0x40c10f19000000000000000000000000f39fd6e51aad88f6f4ce6ab8827279cfffb9226600000000000000000000000000000000000000000000006c6b935b8bbd400000",
        "nonce": "0x107",
        "chainId": "0xa455"
      },
      "additionalContracts": [],
      "isFixedGasLimit": false
    },
    {
      "hash": "0xa8e3a920b9dbf88de3c6a1fe166fa10b575cd12d74550880517d32eecbd2a5d6",
      "transactionType": "CALL",
      "contractName": "SwapMockERC20",
      "contractAddress": "0x0a17fabea4633ce714f1fa4a2dca62c3bac4758d",
      "function": "mint(address,uint256)",
      "arguments": [
        "0xf39Fd6e51aad88F6F4ce6aB8827279cffFb92266",
        "4000000000000"
      ],
      "transaction": {
        "from": "0xf39fd6e51aad88f6f4ce6ab8827279cfffb92266",
        "to": "0x0a17fabea4633ce714f1fa4a2dca62c3bac4758d",
        "gas": "0x16fa5",
        "value": "0x0",
        "input": "0x40c10f19000000000000000000000000f39fd6e51aad88f6f4ce6ab8827279cfffb92266000000000000000000000000000000000000000000000000000003a352944000",
        "nonce": "0x108",
        "chainId": "0xa455"
      },
      "additionalContracts": [],
      "isFixedGasLimit": false
    },
    {
      "hash": "0x7c85633c9ab0ded5da4ce08cbfaa9179fd07452ce783b68961c5749f1e2dd7af",
      "transactionType": "CREATE",
      "contractName": "SwapGoodPool",
      "contractAddress": "0xead789bd8ce8b9e94f5d0fca99f8787c7e758817",
      "function": null,
      "arguments": [
        "0x547382C0D1b23f707918D3c83A77317B71Aa8470",
        "0x7C8BaafA542c57fF9B2B90612bf8aB9E86e22C09",
        "0xf39Fd6e51aad88F6F4ce6aB8827279cffFb92266"
      ],
      "transaction": {
        "from": "0xf39fd6e51aad88f6f4ce6ab8827279cfffb92266",
        "gas": "0x114f78",
        "value": "0x0",
        "input": "0x60c03461014d57601f610fd538819003918201601f19168301916001600160401b038311848410176101515780849260609460405283398101031261014d5761004781610165565b90610060604061005960208401610165565b9201610165565b916001600160a01b0382811690821680821461010857101561010357905b60a052608052600180546001600160a01b0319166001600160a01b0392909216919091179055604051610e5b908161017a823960805181818160f60152818161023601528181610673015281816109840152610c76015260a0518181816101b201528181610298015281816105ee015281816106d2015281816109de0152610b330152f35b61007e565b60405162461bcd60e51b815260206004820152601a60248201527f476f6f64506f6f6c3a206964656e746963616c20746f6b656e730000000000006044820152606490fd5b5f80fd5b634e487b7160e01b5f52604160045260245ffd5b51906001600160a01b038216820361014d5756fe6080806040526004361015610012575f80fd5b5f3560e01c9081630fc63d1014610c645750806315770f9214610c4757806319e36f3b14610c2a578063398482d814610c10578063492fb34314610be95780635a0a3d8214610b625780635f64b55b14610b1e5780638da5cb5b14610af65780639c8f9f23146108c35780639cd441da1461061d5780639f1d0f591461021b578063b8c876b1146101e3578063ca706bcf146100d75763dc5fa6c5146100b6575f80fd5b346100d3575f3660031901126100d3576020600254604051908152f35b5f80fd5b346100d35760403660031901126100d3576100f0610ca5565b602435907f00000000000000000000000000000000000000000000000000000000000000006001600160a01b0390811691169081149061013990829081156101b0575b50610d93565b156101a35760025490600354915b601e8202828104601e148315171561018f5760209361017b61017461018795612710610181950490610d2b565b8092610cbb565b92610d86565b90610cce565b604051908152f35b634e487b7160e01b5f52601160045260245ffd5b6003549060025491610147565b7f00000000000000000000000000000000000000000000000000000000000000006001600160a01b031614905084610133565b346100d35760203660031901126100d3576001600160a01b03610204610ca5565b165f526005602052602060405f2054604051908152f35b346100d35760603660031901126100d357610234610ca5565b7f00000000000000000000000000000000000000000000000000000000000000006001600160a01b038181169216918214916024358380156105eb575b61027a90610d93565b80156105af5783156105a25760025490600354935b851561059c57507f0000000000000000000000000000000000000000000000000000000000000000945b6040516323b872dd60e01b8152336004820152306024820152604481018390526020816064815f895af180156104225761057f575b50601e8202828104601e0361018f5761271090049261031f6103108585610d2b565b916101818361017b818b610cbb565b95604435871061053a578610156104f5575f548492906001600160a01b031680610459575b501561042d5761035f9161035791610d86565b600254610d86565b60025561036e84600354610d2b565b6003555b60405163a9059cbb60e01b81523360048201526024810185905294602090869060449082905f906001600160a01b03165af1948515610422576020956103f7575b506040519283528483015282604083015260608201527f9734819749a91fc3be03ea83205f924ee08479bd3f0da48efc91d94d050cac1e60803392a2604051908152f35b61041690863d881161041b575b61040e8183610d38565b810190610d6e565b6103b3565b503d610404565b6040513d5f823e3d90fd5b6104429161043a91610d86565b600354610d86565b60035561045184600254610d2b565b600255610372565b909192610d0502858104610d05148615171561018f5761271090049081610485575b8593929150610344565b60405163a9059cbb60e01b81526001600160a01b039190911660048201526024810182905292949192916020836044815f8b5af1928315610422576104cf936104d8575b50610d2b565b9290878061047b565b6104f09060203d60201161041b5761040e8183610d38565b6104c9565b60405162461bcd60e51b815260206004820152601f60248201527f476f6f64506f6f6c3a20696e73756666696369656e74207265736572766573006044820152606490fd5b60405162461bcd60e51b815260206004820152601b60248201527f476f6f64506f6f6c3a20736c69707061676520657863656564656400000000006044820152606490fd5b6105979060203d60201161041b5761040e8183610d38565b6102ee565b946102b9565b600354906002549361028f565b60405162461bcd60e51b815260206004820152601460248201527311dbdbd9141bdbdb0e881e995c9bc81a5b9c1d5d60621b6044820152606490fd5b507f00000000000000000000000000000000000000000000000000000000000000006001600160a01b03168214610271565b346100d35760403660031901126100d357600435602435811515806108ba575b1561087d576040516323b872dd60e01b8152336004820152306024820152604481018390526020816064815f6001600160a01b037f0000000000000000000000000000000000000000000000000000000000000000165af1801561042257610860575b506040516323b872dd60e01b8152336004820152306024820152604481018290526020816064815f6001600160a01b037f0000000000000000000000000000000000000000000000000000000000000000165af1801561042257610843575b5060045491826108005761071b6107168383610cbb565b610ddf565b915b82156107ab57827f64b83944e79c3ce8d4c297411de637c3e102d064677aac0c163976ebdcd6f50e916107708260209761075987600254610d86565b60025561076884600354610d86565b600355610d86565b600455335f526005865260405f20610789838254610d86565b90556040805194855260208501919091528301523391606090a2604051908152f35b60405162461bcd60e51b815260206004820152602760248201527f476f6f64506f6f6c3a20696e73756666696369656e74206c6971756964697479604482015266081b5a5b9d195960ca1b6064820152608490fd5b61081661080d8483610cbb565b60025490610cce565b61082c6108238585610cbb565b60035490610cce565b8082101561083c57505b9161071d565b9050610836565b61085b9060203d60201161041b5761040e8183610d38565b6106ff565b6108789060203d60201161041b5761040e8183610d38565b6106a0565b60405162461bcd60e51b815260206004820152601560248201527411dbdbd9141bdbdb0e881e995c9bc8185b5bdd5b9d605a1b6044820152606490fd5b5080151561063d565b346100d35760203660031901126100d35760043580151580610ae0575b15610a9b576108f160025482610cbb565b6109136109016004548093610cce565b9161090e60035485610cbb565b610cce565b335f52600560205260405f2061092a848254610d2b565b905561093883600454610d2b565b60045561094782600254610d2b565b60025561095681600354610d2b565b60035560405163a9059cbb60e01b8152336004820152602481018390526020816044815f6001600160a01b037f0000000000000000000000000000000000000000000000000000000000000000165af1801561042257610a7e575b5060405163a9059cbb60e01b815233600482015260248101829052926020846044815f6001600160a01b037f0000000000000000000000000000000000000000000000000000000000000000165af193841561042257604094610a61575b507f1dc8bb69df2b8e91fbdcbfcf93d951b3f0000f085a95fe3f7946d6161439245d845180610a5233948688846040919493926060820195825260208201520152565b0390a282519182526020820152f35b610a799060203d60201161041b5761040e8183610d38565b610a0f565b610a969060203d60201161041b5761040e8183610d38565b6109b1565b60405162461bcd60e51b815260206004820152601760248201527f476f6f64506f6f6c3a20626164206c7020616d6f756e740000000000000000006044820152606490fd5b50335f52600560205260405f20548111156108e0565b346100d3575f3660031901126100d3576001546040516001600160a01b039091168152602090f35b346100d3575f3660031901126100d3576040517f00000000000000000000000000000000000000000000000000000000000000006001600160a01b03168152602090f35b346100d35760203660031901126100d357610b7b610ca5565b6001546001600160a01b03163303610bae575f80546001600160a01b0319166001600160a01b0392909216919091179055005b60405162461bcd60e51b815260206004820152601360248201527223b7b7b22837b7b61d103737ba1037bbb732b960691b6044820152606490fd5b346100d3575f3660031901126100d3575f546040516001600160a01b039091168152602090f35b346100d3575f3660031901126100d3576020610187610cec565b346100d3575f3660031901126100d3576020600354604051908152f35b346100d3575f3660031901126100d3576020600454604051908152f35b346100d3575f3660031901126100d3577f00000000000000000000000000000000000000000000000000000000000000006001600160a01b03168152602090f35b600435906001600160a01b03821682036100d357565b8181029291811591840414171561018f57565b8115610cd8570490565b634e487b7160e01b5f52601260045260245ffd5b6002548015610d265760035490670de0b6b3a7640000820291808304670de0b6b3a7640000149015171561018f57610d2391610cce565b90565b505f90565b9190820391821161018f57565b90601f8019910116810190811067ffffffffffffffff821117610d5a57604052565b634e487b7160e01b5f52604160045260245ffd5b908160209103126100d3575180151581036100d35790565b9190820180921161018f57565b15610d9a57565b60405162461bcd60e51b815260206004820152601760248201527f476f6f64506f6f6c3a20696e76616c696420746f6b656e0000000000000000006044820152606490fd5b908115610e20576001820180831161018f5760011c825b838210610e01575050565b909250610e1783610e128184610cce565b610d86565b60011c90610df6565b5f915056fea2646970667358221220fe1df444607b6dd09cf913196d287782c4db83684391edc53e824a69c98ee64864736f6c63430008210033000000000000000000000000547382c0d1b23f707918d3c83a77317b71aa84700000000000000000000000007c8baafa542c57ff9b2b90612bf8ab9e86e22c09000000000000000000000000f39fd6e51aad88f6f4ce6ab8827279cfffb92266",
        "nonce": "0x109",
        "chainId": "0xa455"
      },
      "additionalContracts": [],
      "isFixedGasLimit": false
    },
    {
      "hash": "0x3c1f563abb3aa8a4b2385e6a4ea1ccdf80e37dd1c6cc0b47ebb4edad6c1eb0ce",
      "transactionType": "CREATE",
      "contractName": "SwapGoodPool",
      "contractAddress": "0x95775fd3afb1f4072794ca4dda27f2444bcf8ac3",
      "function": null,
      "arguments": [
        "0x547382C0D1b23f707918D3c83A77317B71Aa8470",
        "0x0a17FabeA4633ce714F1Fa4a2dcA62C3bAc4758d",
        "0xf39Fd6e51aad88F6F4ce6aB8827279cffFb92266"
      ],
      "transaction": {
        "from": "0xf39fd6e51aad88f6f4ce6ab8827279cfffb92266",
        "gas": "0x114f84",
        "value": "0x0",
        "input": "0x60c03461014d57601f610fd538819003918201601f19168301916001600160401b038311848410176101515780849260609460405283398101031261014d5761004781610165565b90610060604061005960208401610165565b9201610165565b916001600160a01b0382811690821680821461010857101561010357905b60a052608052600180546001600160a01b0319166001600160a01b0392909216919091179055604051610e5b908161017a823960805181818160f60152818161023601528181610673015281816109840152610c76015260a0518181816101b201528181610298015281816105ee015281816106d2015281816109de0152610b330152f35b61007e565b60405162461bcd60e51b815260206004820152601a60248201527f476f6f64506f6f6c3a206964656e746963616c20746f6b656e730000000000006044820152606490fd5b5f80fd5b634e487b7160e01b5f52604160045260245ffd5b51906001600160a01b038216820361014d5756fe6080806040526004361015610012575f80fd5b5f3560e01c9081630fc63d1014610c645750806315770f9214610c4757806319e36f3b14610c2a578063398482d814610c10578063492fb34314610be95780635a0a3d8214610b625780635f64b55b14610b1e5780638da5cb5b14610af65780639c8f9f23146108c35780639cd441da1461061d5780639f1d0f591461021b578063b8c876b1146101e3578063ca706bcf146100d75763dc5fa6c5146100b6575f80fd5b346100d3575f3660031901126100d3576020600254604051908152f35b5f80fd5b346100d35760403660031901126100d3576100f0610ca5565b602435907f00000000000000000000000000000000000000000000000000000000000000006001600160a01b0390811691169081149061013990829081156101b0575b50610d93565b156101a35760025490600354915b601e8202828104601e148315171561018f5760209361017b61017461018795612710610181950490610d2b565b8092610cbb565b92610d86565b90610cce565b604051908152f35b634e487b7160e01b5f52601160045260245ffd5b6003549060025491610147565b7f00000000000000000000000000000000000000000000000000000000000000006001600160a01b031614905084610133565b346100d35760203660031901126100d3576001600160a01b03610204610ca5565b165f526005602052602060405f2054604051908152f35b346100d35760603660031901126100d357610234610ca5565b7f00000000000000000000000000000000000000000000000000000000000000006001600160a01b038181169216918214916024358380156105eb575b61027a90610d93565b80156105af5783156105a25760025490600354935b851561059c57507f0000000000000000000000000000000000000000000000000000000000000000945b6040516323b872dd60e01b8152336004820152306024820152604481018390526020816064815f895af180156104225761057f575b50601e8202828104601e0361018f5761271090049261031f6103108585610d2b565b916101818361017b818b610cbb565b95604435871061053a578610156104f5575f548492906001600160a01b031680610459575b501561042d5761035f9161035791610d86565b600254610d86565b60025561036e84600354610d2b565b6003555b60405163a9059cbb60e01b81523360048201526024810185905294602090869060449082905f906001600160a01b03165af1948515610422576020956103f7575b506040519283528483015282604083015260608201527f9734819749a91fc3be03ea83205f924ee08479bd3f0da48efc91d94d050cac1e60803392a2604051908152f35b61041690863d881161041b575b61040e8183610d38565b810190610d6e565b6103b3565b503d610404565b6040513d5f823e3d90fd5b6104429161043a91610d86565b600354610d86565b60035561045184600254610d2b565b600255610372565b909192610d0502858104610d05148615171561018f5761271090049081610485575b8593929150610344565b60405163a9059cbb60e01b81526001600160a01b039190911660048201526024810182905292949192916020836044815f8b5af1928315610422576104cf936104d8575b50610d2b565b9290878061047b565b6104f09060203d60201161041b5761040e8183610d38565b6104c9565b60405162461bcd60e51b815260206004820152601f60248201527f476f6f64506f6f6c3a20696e73756666696369656e74207265736572766573006044820152606490fd5b60405162461bcd60e51b815260206004820152601b60248201527f476f6f64506f6f6c3a20736c69707061676520657863656564656400000000006044820152606490fd5b6105979060203d60201161041b5761040e8183610d38565b6102ee565b946102b9565b600354906002549361028f565b60405162461bcd60e51b815260206004820152601460248201527311dbdbd9141bdbdb0e881e995c9bc81a5b9c1d5d60621b6044820152606490fd5b507f00000000000000000000000000000000000000000000000000000000000000006001600160a01b03168214610271565b346100d35760403660031901126100d357600435602435811515806108ba575b1561087d576040516323b872dd60e01b8152336004820152306024820152604481018390526020816064815f6001600160a01b037f0000000000000000000000000000000000000000000000000000000000000000165af1801561042257610860575b506040516323b872dd60e01b8152336004820152306024820152604481018290526020816064815f6001600160a01b037f0000000000000000000000000000000000000000000000000000000000000000165af1801561042257610843575b5060045491826108005761071b6107168383610cbb565b610ddf565b915b82156107ab57827f64b83944e79c3ce8d4c297411de637c3e102d064677aac0c163976ebdcd6f50e916107708260209761075987600254610d86565b60025561076884600354610d86565b600355610d86565b600455335f526005865260405f20610789838254610d86565b90556040805194855260208501919091528301523391606090a2604051908152f35b60405162461bcd60e51b815260206004820152602760248201527f476f6f64506f6f6c3a20696e73756666696369656e74206c6971756964697479604482015266081b5a5b9d195960ca1b6064820152608490fd5b61081661080d8483610cbb565b60025490610cce565b61082c6108238585610cbb565b60035490610cce565b8082101561083c57505b9161071d565b9050610836565b61085b9060203d60201161041b5761040e8183610d38565b6106ff565b6108789060203d60201161041b5761040e8183610d38565b6106a0565b60405162461bcd60e51b815260206004820152601560248201527411dbdbd9141bdbdb0e881e995c9bc8185b5bdd5b9d605a1b6044820152606490fd5b5080151561063d565b346100d35760203660031901126100d35760043580151580610ae0575b15610a9b576108f160025482610cbb565b6109136109016004548093610cce565b9161090e60035485610cbb565b610cce565b335f52600560205260405f2061092a848254610d2b565b905561093883600454610d2b565b60045561094782600254610d2b565b60025561095681600354610d2b565b60035560405163a9059cbb60e01b8152336004820152602481018390526020816044815f6001600160a01b037f0000000000000000000000000000000000000000000000000000000000000000165af1801561042257610a7e575b5060405163a9059cbb60e01b815233600482015260248101829052926020846044815f6001600160a01b037f0000000000000000000000000000000000000000000000000000000000000000165af193841561042257604094610a61575b507f1dc8bb69df2b8e91fbdcbfcf93d951b3f0000f085a95fe3f7946d6161439245d845180610a5233948688846040919493926060820195825260208201520152565b0390a282519182526020820152f35b610a799060203d60201161041b5761040e8183610d38565b610a0f565b610a969060203d60201161041b5761040e8183610d38565b6109b1565b60405162461bcd60e51b815260206004820152601760248201527f476f6f64506f6f6c3a20626164206c7020616d6f756e740000000000000000006044820152606490fd5b50335f52600560205260405f20548111156108e0565b346100d3575f3660031901126100d3576001546040516001600160a01b039091168152602090f35b346100d3575f3660031901126100d3576040517f00000000000000000000000000000000000000000000000000000000000000006001600160a01b03168152602090f35b346100d35760203660031901126100d357610b7b610ca5565b6001546001600160a01b03163303610bae575f80546001600160a01b0319166001600160a01b0392909216919091179055005b60405162461bcd60e51b815260206004820152601360248201527223b7b7b22837b7b61d103737ba1037bbb732b960691b6044820152606490fd5b346100d3575f3660031901126100d3575f546040516001600160a01b039091168152602090f35b346100d3575f3660031901126100d3576020610187610cec565b346100d3575f3660031901126100d3576020600354604051908152f35b346100d3575f3660031901126100d3576020600454604051908152f35b346100d3575f3660031901126100d3577f00000000000000000000000000000000000000000000000000000000000000006001600160a01b03168152602090f35b600435906001600160a01b03821682036100d357565b8181029291811591840414171561018f57565b8115610cd8570490565b634e487b7160e01b5f52601260045260245ffd5b6002548015610d265760035490670de0b6b3a7640000820291808304670de0b6b3a7640000149015171561018f57610d2391610cce565b90565b505f90565b9190820391821161018f57565b90601f8019910116810190811067ffffffffffffffff821117610d5a57604052565b634e487b7160e01b5f52604160045260245ffd5b908160209103126100d3575180151581036100d35790565b9190820180921161018f57565b15610d9a57565b60405162461bcd60e51b815260206004820152601760248201527f476f6f64506f6f6c3a20696e76616c696420746f6b656e0000000000000000006044820152606490fd5b908115610e20576001820180831161018f5760011c825b838210610e01575050565b909250610e1783610e128184610cce565b610d86565b60011c90610df6565b5f915056fea2646970667358221220fe1df444607b6dd09cf913196d287782c4db83684391edc53e824a69c98ee64864736f6c63430008210033000000000000000000000000547382c0d1b23f707918d3c83a77317b71aa84700000000000000000000000000a17fabea4633ce714f1fa4a2dca62c3bac4758d000000000000000000000000f39fd6e51aad88f6f4ce6ab8827279cfffb92266",
        "nonce": "0x10a",
        "chainId": "0xa455"
      },
      "additionalContracts": [],
      "isFixedGasLimit": false
    },
    {
      "hash": "0xeefd9810c833ce96215d2aa265e75f339a2000a540268fb148523a02932bf4d3",
      "transactionType": "CREATE",
      "contractName": "SwapGoodPool",
      "contractAddress": "0xd9fec8238711935d6c8d79bef2b9546ef23fc046",
      "function": null,
      "arguments": [
        "0x7C8BaafA542c57fF9B2B90612bf8aB9E86e22C09",
        "0x0a17FabeA4633ce714F1Fa4a2dcA62C3bAc4758d",
        "0xf39Fd6e51aad88F6F4ce6aB8827279cffFb92266"
      ],
      "transaction": {
        "from": "0xf39fd6e51aad88f6f4ce6ab8827279cfffb92266",
        "gas": "0x114f84",
        "value": "0x0",
        "input": "0x60c03461014d57601f610fd538819003918201601f19168301916001600160401b038311848410176101515780849260609460405283398101031261014d5761004781610165565b90610060604061005960208401610165565b9201610165565b916001600160a01b0382811690821680821461010857101561010357905b60a052608052600180546001600160a01b0319166001600160a01b0392909216919091179055604051610e5b908161017a823960805181818160f60152818161023601528181610673015281816109840152610c76015260a0518181816101b201528181610298015281816105ee015281816106d2015281816109de0152610b330152f35b61007e565b60405162461bcd60e51b815260206004820152601a60248201527f476f6f64506f6f6c3a206964656e746963616c20746f6b656e730000000000006044820152606490fd5b5f80fd5b634e487b7160e01b5f52604160045260245ffd5b51906001600160a01b038216820361014d5756fe6080806040526004361015610012575f80fd5b5f3560e01c9081630fc63d1014610c645750806315770f9214610c4757806319e36f3b14610c2a578063398482d814610c10578063492fb34314610be95780635a0a3d8214610b625780635f64b55b14610b1e5780638da5cb5b14610af65780639c8f9f23146108c35780639cd441da1461061d5780639f1d0f591461021b578063b8c876b1146101e3578063ca706bcf146100d75763dc5fa6c5146100b6575f80fd5b346100d3575f3660031901126100d3576020600254604051908152f35b5f80fd5b346100d35760403660031901126100d3576100f0610ca5565b602435907f00000000000000000000000000000000000000000000000000000000000000006001600160a01b0390811691169081149061013990829081156101b0575b50610d93565b156101a35760025490600354915b601e8202828104601e148315171561018f5760209361017b61017461018795612710610181950490610d2b565b8092610cbb565b92610d86565b90610cce565b604051908152f35b634e487b7160e01b5f52601160045260245ffd5b6003549060025491610147565b7f00000000000000000000000000000000000000000000000000000000000000006001600160a01b031614905084610133565b346100d35760203660031901126100d3576001600160a01b03610204610ca5565b165f526005602052602060405f2054604051908152f35b346100d35760603660031901126100d357610234610ca5565b7f00000000000000000000000000000000000000000000000000000000000000006001600160a01b038181169216918214916024358380156105eb575b61027a90610d93565b80156105af5783156105a25760025490600354935b851561059c57507f0000000000000000000000000000000000000000000000000000000000000000945b6040516323b872dd60e01b8152336004820152306024820152604481018390526020816064815f895af180156104225761057f575b50601e8202828104601e0361018f5761271090049261031f6103108585610d2b565b916101818361017b818b610cbb565b95604435871061053a578610156104f5575f548492906001600160a01b031680610459575b501561042d5761035f9161035791610d86565b600254610d86565b60025561036e84600354610d2b565b6003555b60405163a9059cbb60e01b81523360048201526024810185905294602090869060449082905f906001600160a01b03165af1948515610422576020956103f7575b506040519283528483015282604083015260608201527f9734819749a91fc3be03ea83205f924ee08479bd3f0da48efc91d94d050cac1e60803392a2604051908152f35b61041690863d881161041b575b61040e8183610d38565b810190610d6e565b6103b3565b503d610404565b6040513d5f823e3d90fd5b6104429161043a91610d86565b600354610d86565b60035561045184600254610d2b565b600255610372565b909192610d0502858104610d05148615171561018f5761271090049081610485575b8593929150610344565b60405163a9059cbb60e01b81526001600160a01b039190911660048201526024810182905292949192916020836044815f8b5af1928315610422576104cf936104d8575b50610d2b565b9290878061047b565b6104f09060203d60201161041b5761040e8183610d38565b6104c9565b60405162461bcd60e51b815260206004820152601f60248201527f476f6f64506f6f6c3a20696e73756666696369656e74207265736572766573006044820152606490fd5b60405162461bcd60e51b815260206004820152601b60248201527f476f6f64506f6f6c3a20736c69707061676520657863656564656400000000006044820152606490fd5b6105979060203d60201161041b5761040e8183610d38565b6102ee565b946102b9565b600354906002549361028f565b60405162461bcd60e51b815260206004820152601460248201527311dbdbd9141bdbdb0e881e995c9bc81a5b9c1d5d60621b6044820152606490fd5b507f00000000000000000000000000000000000000000000000000000000000000006001600160a01b03168214610271565b346100d35760403660031901126100d357600435602435811515806108ba575b1561087d576040516323b872dd60e01b8152336004820152306024820152604481018390526020816064815f6001600160a01b037f0000000000000000000000000000000000000000000000000000000000000000165af1801561042257610860575b506040516323b872dd60e01b8152336004820152306024820152604481018290526020816064815f6001600160a01b037f0000000000000000000000000000000000000000000000000000000000000000165af1801561042257610843575b5060045491826108005761071b6107168383610cbb565b610ddf565b915b82156107ab57827f64b83944e79c3ce8d4c297411de637c3e102d064677aac0c163976ebdcd6f50e916107708260209761075987600254610d86565b60025561076884600354610d86565b600355610d86565b600455335f526005865260405f20610789838254610d86565b90556040805194855260208501919091528301523391606090a2604051908152f35b60405162461bcd60e51b815260206004820152602760248201527f476f6f64506f6f6c3a20696e73756666696369656e74206c6971756964697479604482015266081b5a5b9d195960ca1b6064820152608490fd5b61081661080d8483610cbb565b60025490610cce565b61082c6108238585610cbb565b60035490610cce565b8082101561083c57505b9161071d565b9050610836565b61085b9060203d60201161041b5761040e8183610d38565b6106ff565b6108789060203d60201161041b5761040e8183610d38565b6106a0565b60405162461bcd60e51b815260206004820152601560248201527411dbdbd9141bdbdb0e881e995c9bc8185b5bdd5b9d605a1b6044820152606490fd5b5080151561063d565b346100d35760203660031901126100d35760043580151580610ae0575b15610a9b576108f160025482610cbb565b6109136109016004548093610cce565b9161090e60035485610cbb565b610cce565b335f52600560205260405f2061092a848254610d2b565b905561093883600454610d2b565b60045561094782600254610d2b565b60025561095681600354610d2b565b60035560405163a9059cbb60e01b8152336004820152602481018390526020816044815f6001600160a01b037f0000000000000000000000000000000000000000000000000000000000000000165af1801561042257610a7e575b5060405163a9059cbb60e01b815233600482015260248101829052926020846044815f6001600160a01b037f0000000000000000000000000000000000000000000000000000000000000000165af193841561042257604094610a61575b507f1dc8bb69df2b8e91fbdcbfcf93d951b3f0000f085a95fe3f7946d6161439245d845180610a5233948688846040919493926060820195825260208201520152565b0390a282519182526020820152f35b610a799060203d60201161041b5761040e8183610d38565b610a0f565b610a969060203d60201161041b5761040e8183610d38565b6109b1565b60405162461bcd60e51b815260206004820152601760248201527f476f6f64506f6f6c3a20626164206c7020616d6f756e740000000000000000006044820152606490fd5b50335f52600560205260405f20548111156108e0565b346100d3575f3660031901126100d3576001546040516001600160a01b039091168152602090f35b346100d3575f3660031901126100d3576040517f00000000000000000000000000000000000000000000000000000000000000006001600160a01b03168152602090f35b346100d35760203660031901126100d357610b7b610ca5565b6001546001600160a01b03163303610bae575f80546001600160a01b0319166001600160a01b0392909216919091179055005b60405162461bcd60e51b815260206004820152601360248201527223b7b7b22837b7b61d103737ba1037bbb732b960691b6044820152606490fd5b346100d3575f3660031901126100d3575f546040516001600160a01b039091168152602090f35b346100d3575f3660031901126100d3576020610187610cec565b346100d3575f3660031901126100d3576020600354604051908152f35b346100d3575f3660031901126100d3576020600454604051908152f35b346100d3575f3660031901126100d3577f00000000000000000000000000000000000000000000000000000000000000006001600160a01b03168152602090f35b600435906001600160a01b03821682036100d357565b8181029291811591840414171561018f57565b8115610cd8570490565b634e487b7160e01b5f52601260045260245ffd5b6002548015610d265760035490670de0b6b3a7640000820291808304670de0b6b3a7640000149015171561018f57610d2391610cce565b90565b505f90565b9190820391821161018f57565b90601f8019910116810190811067ffffffffffffffff821117610d5a57604052565b634e487b7160e01b5f52604160045260245ffd5b908160209103126100d3575180151581036100d35790565b9190820180921161018f57565b15610d9a57565b60405162461bcd60e51b815260206004820152601760248201527f476f6f64506f6f6c3a20696e76616c696420746f6b656e0000000000000000006044820152606490fd5b908115610e20576001820180831161018f5760011c825b838210610e01575050565b909250610e1783610e128184610cce565b610d86565b60011c90610df6565b5f915056fea2646970667358221220fe1df444607b6dd09cf913196d287782c4db83684391edc53e824a69c98ee64864736f6c634300082100330000000000000000000000007c8baafa542c57ff9b2b90612bf8ab9e86e22c090000000000000000000000000a17fabea4633ce714f1fa4a2dca62c3bac4758d000000000000000000000000f39fd6e51aad88f6f4ce6ab8827279cfffb92266",
        "nonce": "0x10b",
        "chainId": "0xa455"
      },
      "additionalContracts": [],
      "isFixedGasLimit": false
    },
    {
      "hash": "0x613d5fbd1183098919a53609e9053212beea8c8e9a49ed245f3727ed64a52ade",
      "transactionType": "CALL",
      "contractName": "SwapGoodPool",
      "contractAddress": "0xead789bd8ce8b9e94f5d0fca99f8787c7e758817",
      "function": "setFeeBeneficiary(address)",
      "arguments": [
        "0x976fcd02f7C4773dd89C309fBF55D5923B4c98a1"
      ],
      "transaction": {
        "from": "0xf39fd6e51aad88f6f4ce6ab8827279cfffb92266",
        "to": "0xead789bd8ce8b9e94f5d0fca99f8787c7e758817",
        "gas": "0xf879",
        "value": "0x0",
        "input": "0x5a0a3d82000000000000000000000000976fcd02f7c4773dd89c309fbf55d5923b4c98a1",
        "nonce": "0x10c",
        "chainId": "0xa455"
      },
      "additionalContracts": [],
      "isFixedGasLimit": false
    },
    {
      "hash": "0xac9bb2dee4cac71fb16f53d0bd747c19f5bae03924bed30d51e94f81733093c6",
      "transactionType": "CALL",
      "contractName": "SwapGoodPool",
      "contractAddress": "0x95775fd3afb1f4072794ca4dda27f2444bcf8ac3",
      "function": "setFeeBeneficiary(address)",
      "arguments": [
        "0x976fcd02f7C4773dd89C309fBF55D5923B4c98a1"
      ],
      "transaction": {
        "from": "0xf39fd6e51aad88f6f4ce6ab8827279cfffb92266",
        "to": "0x95775fd3afb1f4072794ca4dda27f2444bcf8ac3",
        "gas": "0xf879",
        "value": "0x0",
        "input": "0x5a0a3d82000000000000000000000000976fcd02f7c4773dd89c309fbf55d5923b4c98a1",
        "nonce": "0x10d",
        "chainId": "0xa455"
      },
      "additionalContracts": [],
      "isFixedGasLimit": false
    },
    {
      "hash": "0x6a698eecc1222b639cc628f66b3af6b2bf24920db63a04e91aa224292c7f7999",
      "transactionType": "CALL",
      "contractName": "SwapGoodPool",
      "contractAddress": "0xd9fec8238711935d6c8d79bef2b9546ef23fc046",
      "function": "setFeeBeneficiary(address)",
      "arguments": [
        "0x976fcd02f7C4773dd89C309fBF55D5923B4c98a1"
      ],
      "transaction": {
        "from": "0xf39fd6e51aad88f6f4ce6ab8827279cfffb92266",
        "to": "0xd9fec8238711935d6c8d79bef2b9546ef23fc046",
        "gas": "0xf879",
        "value": "0x0",
        "input": "0x5a0a3d82000000000000000000000000976fcd02f7c4773dd89c309fbf55d5923b4c98a1",
        "nonce": "0x10e",
        "chainId": "0xa455"
      },
      "additionalContracts": [],
      "isFixedGasLimit": false
    },
    {
      "hash": "0x5e7efa535d6efc0c56213795621891d9ed3f8158994832508da3bd396315a848",
      "transactionType": "CALL",
      "contractName": "SwapMockERC20",
      "contractAddress": "0x547382c0d1b23f707918d3c83a77317b71aa8470",
      "function": "approve(address,uint256)",
      "arguments": [
        "0xeAd789bd8Ce8b9E94F5D0FCa99F8787c7e758817",
        "3000000000000000000000000"
      ],
      "transaction": {
        "from": "0xf39fd6e51aad88f6f4ce6ab8827279cfffb92266",
        "to": "0x547382c0d1b23f707918d3c83a77317b71aa8470",
        "gas": "0x10691",
        "value": "0x0",
        "input": "0x095ea7b3000000000000000000000000ead789bd8ce8b9e94f5d0fca99f8787c7e758817000000000000000000000000000000000000000000027b46536c66c8e3000000",
        "nonce": "0x10f",
        "chainId": "0xa455"
      },
      "additionalContracts": [],
      "isFixedGasLimit": false
    },
    {
      "hash": "0xaf38dd2fa093ad591a17874256715dab8b9f93c3dd1d4bbe1cbd862ccf45246a",
      "transactionType": "CALL",
      "contractName": "SwapMockERC20",
      "contractAddress": "0x7c8baafa542c57ff9b2b90612bf8ab9e86e22c09",
      "function": "approve(address,uint256)",
      "arguments": [
        "0xeAd789bd8Ce8b9E94F5D0FCa99F8787c7e758817",
        "1000000000000000000000"
      ],
      "transaction": {
        "from": "0xf39fd6e51aad88f6f4ce6ab8827279cfffb92266",
        "to": "0x7c8baafa542c57ff9b2b90612bf8ab9e86e22c09",
        "gas": "0xf7ea",
        "value": "0x0",
        "input": "0x095ea7b3000000000000000000000000ead789bd8ce8b9e94f5d0fca99f8787c7e75881700000000000000000000000000000000000000000000003635c9adc5dea00000",
        "nonce": "0x110",
        "chainId": "0xa455"
      },
      "additionalContracts": [],
      "isFixedGasLimit": false
    },
    {
      "hash": "0x661e59b2db10fe9580946c211b994ef4f75f1f5f3db45754ea0434f9b56108dc",
      "transactionType": "CALL",
      "contractName": "SwapGoodPool",
      "contractAddress": "0xead789bd8ce8b9e94f5d0fca99f8787c7e758817",
      "function": "addLiquidity(uint256,uint256)",
      "arguments": [
        "3000000000000000000000000",
        "1000000000000000000000"
      ],
      "transaction": {
        "from": "0xf39fd6e51aad88f6f4ce6ab8827279cfffb92266",
        "to": "0xead789bd8ce8b9e94f5d0fca99f8787c7e758817",
        "gas": "0x44bc5",
        "value": "0x0",
        "input": "0x9cd441da000000000000000000000000000000000000000000027b46536c66c8e300000000000000000000000000000000000000000000000000003635c9adc5dea00000",
        "nonce": "0x111",
        "chainId": "0xa455"
      },
      "additionalContracts": [],
      "isFixedGasLimit": false
    },
    {
      "hash": "0x94d32be8c10ec539cbd673312bfb9fc3f08e31df65f51b49ad5b2e200f43f68e",
      "transactionType": "CALL",
      "contractName": "SwapMockERC20",
      "contractAddress": "0x547382c0d1b23f707918d3c83a77317b71aa8470",
      "function": "approve(address,uint256)",
      "arguments": [
        "0x95775fD3Afb1F4072794CA4ddA27F2444BCf8Ac3",
        "1000000000000000000000000"
      ],
      "transaction": {
        "from": "0xf39fd6e51aad88f6f4ce6ab8827279cfffb92266",
        "to": "0x547382c0d1b23f707918d3c83a77317b71aa8470",
        "gas": "0xf7ea",
        "value": "0x0",
        "input": "0x095ea7b300000000000000000000000095775fd3afb1f4072794ca4dda27f2444bcf8ac300000000000000000000000000000000000000000000d3c21bcecceda1000000",
        "nonce": "0x112",
        "chainId": "0xa455"
      },
      "additionalContracts": [],
      "isFixedGasLimit": false
    },
    {
      "hash": "0xb6d83cd5e2dd4a324f6dcc898eb8523cbec44040d18b1754868636562d44c552",
      "transactionType": "CALL",
      "contractName": "SwapMockERC20",
      "contractAddress": "0x0a17fabea4633ce714f1fa4a2dca62c3bac4758d",
      "function": "approve(address,uint256)",
      "arguments": [
        "0x95775fD3Afb1F4072794CA4ddA27F2444BCf8Ac3",
        "1000000000000"
      ],
      "transaction": {
        "from": "0xf39fd6e51aad88f6f4ce6ab8827279cfffb92266",
        "to": "0x0a17fabea4633ce714f1fa4a2dca62c3bac4758d",
        "gas": "0x1064b",
        "value": "0x0",
        "input": "0x095ea7b300000000000000000000000095775fd3afb1f4072794ca4dda27f2444bcf8ac3000000000000000000000000000000000000000000000000000000e8d4a51000",
        "nonce": "0x113",
        "chainId": "0xa455"
      },
      "additionalContracts": [],
      "isFixedGasLimit": false
    },
    {
      "hash": "0xa38fc5661b0e28e49266000c1db19d29f9092d50433008e96fc279f92c3a8518",
      "transactionType": "CALL",
      "contractName": "SwapGoodPool",
      "contractAddress": "0x95775fd3afb1f4072794ca4dda27f2444bcf8ac3",
      "function": "addLiquidity(uint256,uint256)",
      "arguments": [
        "1000000000000",
        "1000000000000000000000000"
      ],
      "transaction": {
        "from": "0xf39fd6e51aad88f6f4ce6ab8827279cfffb92266",
        "to": "0x95775fd3afb1f4072794ca4dda27f2444bcf8ac3",
        "gas": "0x42088",
        "value": "0x0",
        "input": "0x9cd441da000000000000000000000000000000000000000000000000000000e8d4a5100000000000000000000000000000000000000000000000d3c21bcecceda1000000",
        "nonce": "0x114",
        "chainId": "0xa455"
      },
      "additionalContracts": [],
      "isFixedGasLimit": false
    },
    {
      "hash": "0xd58a1a1b161fff7394ce20960c44a3903d36efbf92d85ead4f49cd3d79d2d2a9",
      "transactionType": "CALL",
      "contractName": "SwapMockERC20",
      "contractAddress": "0x7c8baafa542c57ff9b2b90612bf8ab9e86e22c09",
      "function": "approve(address,uint256)",
      "arguments": [
        "0xd9fEc8238711935D6c8d79Bef2B9546ef23FC046",
        "1000000000000000000000"
      ],
      "transaction": {
        "from": "0xf39fd6e51aad88f6f4ce6ab8827279cfffb92266",
        "to": "0x7c8baafa542c57ff9b2b90612bf8ab9e86e22c09",
        "gas": "0xf7ea",
        "value": "0x0",
        "input": "0x095ea7b3000000000000000000000000d9fec8238711935d6c8d79bef2b9546ef23fc04600000000000000000000000000000000000000000000003635c9adc5dea00000",
        "nonce": "0x115",
        "chainId": "0xa455"
      },
      "additionalContracts": [],
      "isFixedGasLimit": false
    },
    {
      "hash": "0x2bbaed333f32feec43c2ecb64190ef6cccc4a6c1ad177f2d1ca708b8e16a7bd8",
      "transactionType": "CALL",
      "contractName": "SwapMockERC20",
      "contractAddress": "0x0a17fabea4633ce714f1fa4a2dca62c3bac4758d",
      "function": "approve(address,uint256)",
      "arguments": [
        "0xd9fEc8238711935D6c8d79Bef2B9546ef23FC046",
        "3000000000000"
      ],
      "transaction": {
        "from": "0xf39fd6e51aad88f6f4ce6ab8827279cfffb92266",
        "to": "0x0a17fabea4633ce714f1fa4a2dca62c3bac4758d",
        "gas": "0xf7c9",
        "value": "0x0",
        "input": "0x095ea7b3000000000000000000000000d9fec8238711935d6c8d79bef2b9546ef23fc046000000000000000000000000000000000000000000000000000002ba7def3000",
        "nonce": "0x116",
        "chainId": "0xa455"
      },
      "additionalContracts": [],
      "isFixedGasLimit": false
    },
    {
      "hash": "0xddc864e50afbf6642378cec78aed6b2f0c86bf82310b8c19d6e5a2ea99c256a8",
      "transactionType": "CALL",
      "contractName": "SwapGoodPool",
      "contractAddress": "0xd9fec8238711935d6c8d79bef2b9546ef23fc046",
      "function": "addLiquidity(uint256,uint256)",
      "arguments": [
        "3000000000000",
        "1000000000000000000000"
      ],
      "transaction": {
        "from": "0xf39fd6e51aad88f6f4ce6ab8827279cfffb92266",
        "to": "0xd9fec8238711935d6c8d79bef2b9546ef23fc046",
        "gas": "0x3c76b",
        "value": "0x0",
        "input": "0x9cd441da000000000000000000000000000000000000000000000000000002ba7def300000000000000000000000000000000000000000000000003635c9adc5dea00000",
        "nonce": "0x117",
        "chainId": "0xa455"
      },
      "additionalContracts": [],
      "isFixedGasLimit": false
    },
    {
      "hash": "0xcb6321d6e6491cc9e39dfa7e021fcde1f3e214dac5f8184fdaa2b49c38aee089",
      "transactionType": "CREATE",
      "contractName": "GoodSwapRouter",
      "contractAddress": "0x975ab64f4901af5f0c96636dea0b9de3419d0c2f",
      "function": null,
      "arguments": [
        "0xf39Fd6e51aad88F6F4ce6aB8827279cffFb92266"
      ],
      "transaction": {
        "from": "0xf39fd6e51aad88f6f4ce6ab8827279cfffb92266",
        "gas": "0x109682",
        "value": "0x0",
        "input": "0x608034608357601f610e5038819003918201601f19168301916001600160401b03831184841017608757808492602094604052833981010312608357516001600160a01b0381169081900360835780156074575f80546001600160a01b031916919091179055604051610db4908161009c8239f35b63d92e233d60e01b5f5260045ffd5b5f80fd5b634e487b7160e01b5f52604160045260245ffdfe60806040526004361015610011575f80fd5b5f3560e01c80630a9a2b721461096257806338ed1739146106e1578063531aa03e146106a35780635e1e6325146105df578063744b92e2146105525780638803dbee146102855780638da5cb5b1461025e578063abd9084614610126578063b5217bb4146100f45763f2fde38b14610087575f80fd5b346100f05760203660031901126100f0576100a0610983565b5f54906001600160a01b03821633036100e1576001600160a01b03169081156100d2576001600160a01b031916175f55005b63d92e233d60e01b5f5260045ffd5b6330cd747160e01b5f5260045ffd5b5f80fd5b346100f05760203660031901126100f0576004355f526001602052602060018060a01b0360405f205416604051908152f35b346100f05760203660031901126100f05761013f610983565b5f546001600160a01b031633036100e1576001600160a01b031680156100d25760405162fc63d160e41b8152602081600481855afa908115610234575f9161023f575b50604051635f64b55b60e01b8152602081600481865afa908115610234575f91610205575b506101b28183610d18565b5f90815260016020526040812080546001600160a01b031916851790556001600160a01b0391821692909116907f61afef2e121f71511fab2583c5ac49a5dc1d7a8ad8ad91c44c8465f073a73ac49080a4005b610227915060203d60201161022d575b61021f8183610c87565b810190610cf9565b836101a7565b503d610215565b6040513d5f823e3d90fd5b610258915060203d60201161022d5761021f8183610c87565b82610182565b346100f0575f3660031901126100f0575f546040516001600160a01b039091168152602090f35b346100f057610293366109e9565b949290919442116105435760028503610534578415610520576102b581610c73565b94600110156105205760206102ca9101610c73565b6001600160a01b038216929083156100d2576102e7818784610a5d565b948511610511576102f88187610cd5565b6040516323b872dd60e01b8152336004820152306024820152604481018790526001600160a01b0388169391906020816064815f895af1908115610234575f916104f2575b50156104525760405163095ea7b360e01b81526001600160a01b0382166004820152602481018890526020816044815f895af1908115610234575f916104d3575b501561045257604051639f1d0f5960e01b81526001600160a01b039889166004820152602481018890526044810183905297602091899160649183915f91165af1968715610234575f9761049f575b5086106104905760405163a9059cbb60e01b81526001600160a01b039384166004820152602481018790529216916020816044815f875af1908115610234575f91610461575b5015610452577fb39c9bc43f811e1a7ce159c5f147458fdb80266bf23c17322013316e27e086d0604060209681519087825288820152a4604051908152f35b6312171d8360e31b5f5260045ffd5b610483915060203d602011610489575b61047b8183610c87565b810190610cbd565b86610413565b503d610471565b6342301c2360e01b5f5260045ffd5b9096506020813d6020116104cb575b816104bb60209383610c87565b810103126100f0575195876103cd565b3d91506104ae565b6104ec915060203d6020116104895761047b8183610c87565b8961037e565b61050b915060203d6020116104895761047b8183610c87565b8961033d565b63e1b0da4f60e01b5f5260045ffd5b634e487b7160e01b5f52603260045260245ffd5b6320db826760e01b5f5260045ffd5b630407b05b60e31b5f5260045ffd5b346100f05760403660031901126100f05761056b610983565b610573610999565b5f546001600160a01b031633036100e15761058e8183610d18565b5f90815260016020526040812080546001600160a01b03191690556001600160a01b0391821692909116907f987eb3c2f78454541205f72f34839b434c306c9eaf4922efd7c0c3060fdb2e4c9080a3005b346100f0576105ed366109af565b906001600160a01b036106008383610cd5565b1691821561067f5760405163ca706bcf60e01b81526001600160a01b038316600482015260248101859052602081604481875afa8015610234575f9061064c575b602090604051908152f35b506020813d602011610677575b8161066660209383610c87565b810103126100f05760209051610641565b3d9150610659565b631b27a82d60e11b5f9081526001600160a01b039283166004529116602452604490fd5b346100f05760403660031901126100f05760206106cf6106c1610983565b6106c9610999565b90610cd5565b6040516001600160a01b039091168152f35b346100f0576106ef366109e9565b9392909193421161054357600284036105345783156105205761071181610c73565b93600110156105205760206107269101610c73565b6001600160a01b038216929083156100d2576107428186610cd5565b916001600160a01b038316801561093e576040516323b872dd60e01b8152336004820152306024820152604481018990526001600160a01b03881694906020816064815f8a5af1908115610234575f9161091f575b50156104525760405163095ea7b360e01b81526001600160a01b03919091166004820152602481018990526020816044815f895af1908115610234575f91610900575b501561045257604051639f1d0f5960e01b81526001600160a01b039790971660048801526024870188905260448701829052602090879060649082905f905af1958615610234575f966108cc575b5085106104905760405163a9059cbb60e01b81526001600160a01b039384166004820152602481018690529216916020816044815f875af1908115610234575f916108ad575b5015610452577fb39c9bc43f811e1a7ce159c5f147458fdb80266bf23c17322013316e27e086d0604060209681519081528688820152a4604051908152f35b6108c6915060203d6020116104895761047b8183610c87565b8661086e565b9095506020813d6020116108f8575b816108e860209383610c87565b810103126100f057519487610828565b3d91506108db565b610919915060203d6020116104895761047b8183610c87565b896107da565b610938915060203d6020116104895761047b8183610c87565b8a610797565b631b27a82d60e11b5f9081526001600160a01b038089166004528416602452604490fd5b346100f057602061097b610975366109af565b91610a5d565b604051908152f35b600435906001600160a01b03821682036100f057565b602435906001600160a01b03821682036100f057565b60609060031901126100f057600435906024356001600160a01b03811681036100f057906044356001600160a01b03811681036100f05790565b9060a06003198301126100f057600435916024359160443567ffffffffffffffff81116100f057826023820112156100f05780600401359267ffffffffffffffff84116100f05760248460051b830101116100f05760240191906064356001600160a01b03811681036100f0579060843590565b91906001600160a01b03610a718383610cd5565b1691821561067f575060405163dc5fa6c560e01b815290602082600481865afa918215610234575f92610c3f575b506040516319e36f3b60e01b815292602084600481845afa938415610234575f94610c0a575b5060206004916040519283809262fc63d160e41b82525afa908115610234575f91610beb575b506001600160a01b03918216911603610be657905b80831015610b9357818302918383041483151715610b7f576127108202918083046127101490151715610b7f5782810392818411610b7f576126f284029384046126f21491141715610b7f57818101809111610b7f575f198101908111610b7f578115610b6b570490565b634e487b7160e01b5f52601260045260245ffd5b634e487b7160e01b5f52601160045260245ffd5b60405162461bcd60e51b815260206004820152602560248201527f476f6f6453776170526f757465723a20696e73756666696369656e7420726573604482015264657276657360d81b6064820152608490fd5b610b00565b610c04915060203d60201161022d5761021f8183610c87565b5f610aeb565b9093506020813d602011610c37575b81610c2660209383610c87565b810103126100f05751926020610ac5565b3d9150610c19565b9091506020813d602011610c6b575b81610c5b60209383610c87565b810103126100f05751905f610a9f565b3d9150610c4e565b356001600160a01b03811681036100f05790565b90601f8019910116810190811067ffffffffffffffff821117610ca957604052565b634e487b7160e01b5f52604160045260245ffd5b908160209103126100f0575180151581036100f05790565b90610cdf91610d18565b5f908152600160205260409020546001600160a01b031690565b908160209103126100f057516001600160a01b03811681036100f05790565b6001600160a01b038281169082161015610d7957905b6040519060208201926bffffffffffffffffffffffff199060601b1683526bffffffffffffffffffffffff199060601b16603482015260288152610d73604882610c87565b51902090565b610d2e56fea2646970667358221220d81f851e4dcb152acb4092ed256572c37947f68f75d1193eaa9eb7390fdc7cf564736f6c63430008210033000000000000000000000000f39fd6e51aad88f6f4ce6ab8827279cfffb92266",
        "nonce": "0x118",
        "chainId": "0xa455"
      },
      "additionalContracts": [],
      "isFixedGasLimit": false
    },
    {
      "hash": "0x9fde1088b941fb3eda3bb3aef5f828bc2d8f183aa0c50929cdc64d96007afbd0",
      "transactionType": "CALL",
      "contractName": "GoodSwapRouter",
      "contractAddress": "0x975ab64f4901af5f0c96636dea0b9de3419d0c2f",
      "function": "registerPool(address)",
      "arguments": [
        "0xeAd789bd8Ce8b9E94F5D0FCa99F8787c7e758817"
      ],
      "transaction": {
        "from": "0xf39fd6e51aad88f6f4ce6ab8827279cfffb92266",
        "to": "0x975ab64f4901af5f0c96636dea0b9de3419d0c2f",
        "gas": "0x119ed",
        "value": "0x0",
        "input": "0xabd90846000000000000000000000000ead789bd8ce8b9e94f5d0fca99f8787c7e758817",
        "nonce": "0x119",
        "chainId": "0xa455"
      },
      "additionalContracts": [],
      "isFixedGasLimit": false
    },
    {
      "hash": "0x13f85846576ab37c4556cf12a8ef2e62773cb0c22ee691f2fd8623314111daab",
      "transactionType": "CALL",
      "contractName": "GoodSwapRouter",
      "contractAddress": "0x975ab64f4901af5f0c96636dea0b9de3419d0c2f",
      "function": "registerPool(address)",
      "arguments": [
        "0x95775fD3Afb1F4072794CA4ddA27F2444BCf8Ac3"
      ],
      "transaction": {
        "from": "0xf39fd6e51aad88f6f4ce6ab8827279cfffb92266",
        "to": "0x975ab64f4901af5f0c96636dea0b9de3419d0c2f",
        "gas": "0x119ed",
        "value": "0x0",
        "input": "0xabd9084600000000000000000000000095775fd3afb1f4072794ca4dda27f2444bcf8ac3",
        "nonce": "0x11a",
        "chainId": "0xa455"
      },
      "additionalContracts": [],
      "isFixedGasLimit": false
    },
    {
      "hash": "0xd2c8c9d9c34ac3b411662679e3d852def0021b005b7dcdd3611ed28bff1b9f2f",
      "transactionType": "CALL",
      "contractName": "GoodSwapRouter",
      "contractAddress": "0x975ab64f4901af5f0c96636dea0b9de3419d0c2f",
      "function": "registerPool(address)",
      "arguments": [
        "0xd9fEc8238711935D6c8d79Bef2B9546ef23FC046"
      ],
      "transaction": {
        "from": "0xf39fd6e51aad88f6f4ce6ab8827279cfffb92266",
        "to": "0x975ab64f4901af5f0c96636dea0b9de3419d0c2f",
        "gas": "0x119ed",
        "value": "0x0",
        "input": "0xabd90846000000000000000000000000d9fec8238711935d6c8d79bef2b9546ef23fc046",
        "nonce": "0x11b",
        "chainId": "0xa455"
      },
      "additionalContracts": [],
      "isFixedGasLimit": false
    }
  ],
  "receipts": [
    {
      "status": "0x1",
      "cumulativeGasUsed": "0x75fe5",
      "logs": [],
      "logsBloom": "0x00000000000000000000000000000000000000000000000000000000000000000000000000000000000000000000000000000000000000000000000000000000000000000000000000000000000000000000000000000000000000000000000000000000000000000000000000000000000000000000000000000000000000000000000000000000000000000000000000000000000000000000000000000000000000000000000000000000000000000000000000000000000000000000000000000000000000000000000000000000000000000000000000000000000000000000000000000000000000000000000000000000000000000000000000000000",
      "type": "0x0",
      "transactionHash": "0x7c85633c9ab0ded5da4ce08cbfaa9179fd07452ce783b68961c5749f1e2dd7af",
      "transactionIndex": "0x0",
      "blockHash": "0x3607f3044451c80b439fa676b66b918106e9042804190eb5c144953e69352a9d",
      "blockNumber": "0x3976",
      "gasUsed": "0x75fe5",
      "effectiveGasPrice": "0x3b9aca07",
      "blobGasPrice": "0x1",
      "from": "0xf39fd6e51aad88f6f4ce6ab8827279cfffb92266",
      "to": null,
      "contractAddress": "0x547382c0d1b23f707918d3c83a77317b71aa8470",
      "blockTimestamp": 1775356682
    },
    {
      "status": "0x1",
      "cumulativeGasUsed": "0xebfb2",
      "logs": [],
      "logsBloom": "0x00000000000000000000000000000000000000000000000000000000000000000000000000000000000000000000000000000000000000000000000000000000000000000000000000000000000000000000000000000000000000000000000000000000000000000000000000000000000000000000000000000000000000000000000000000000000000000000000000000000000000000000000000000000000000000000000000000000000000000000000000000000000000000000000000000000000000000000000000000000000000000000000000000000000000000000000000000000000000000000000000000000000000000000000000000000",
      "type": "0x0",
      "transactionHash": "0x63992c05e5e4c06e95a1706db29e9d35b9897356858d629f8df0789c25f2e5db",
      "transactionIndex": "0x1",
      "blockHash": "0x3607f3044451c80b439fa676b66b918106e9042804190eb5c144953e69352a9d",
      "blockNumber": "0x3976",
      "gasUsed": "0x75fcd",
      "effectiveGasPrice": "0x3b9aca07",
      "blobGasPrice": "0x1",
      "from": "0xf39fd6e51aad88f6f4ce6ab8827279cfffb92266",
      "to": null,
      "contractAddress": "0x7c8baafa542c57ff9b2b90612bf8ab9e86e22c09",
      "blockTimestamp": 1775356682
    },
    {
      "status": "0x1",
      "cumulativeGasUsed": "0x161f43",
      "logs": [],
      "logsBloom": "0x00000000000000000000000000000000000000000000000000000000000000000000000000000000000000000000000000000000000000000000000000000000000000000000000000000000000000000000000000000000000000000000000000000000000000000000000000000000000000000000000000000000000000000000000000000000000000000000000000000000000000000000000000000000000000000000000000000000000000000000000000000000000000000000000000000000000000000000000000000000000000000000000000000000000000000000000000000000000000000000000000000000000000000000000000000000",
      "type": "0x0",
      "transactionHash": "0x0fe8f973d893f50dc1cc99ae67e90abdcb22176585c757f7674b40be3af7af0f",
      "transactionIndex": "0x2",
      "blockHash": "0x3607f3044451c80b439fa676b66b918106e9042804190eb5c144953e69352a9d",
      "blockNumber": "0x3976",
      "gasUsed": "0x75f91",
      "effectiveGasPrice": "0x3b9aca07",
      "blobGasPrice": "0x1",
      "from": "0xf39fd6e51aad88f6f4ce6ab8827279cfffb92266",
      "to": null,
      "contractAddress": "0x0a17fabea4633ce714f1fa4a2dca62c3bac4758d",
      "blockTimestamp": 1775356682
    },
    {
      "status": "0x1",
      "cumulativeGasUsed": "0x172993",
      "logs": [
        {
          "address": "0x547382c0d1b23f707918d3c83a77317b71aa8470",
          "topics": [
            "0xddf252ad1be2c89b69c2b068fc378daa952ba7f163c4a11628f55a4df523b3ef",
            "0x0000000000000000000000000000000000000000000000000000000000000000",
            "0x000000000000000000000000f39fd6e51aad88f6f4ce6ab8827279cfffb92266"
          ],
          "data": "0x000000000000000000000000000000000000000000034f086f3b33b684000000",
          "blockHash": "0x3607f3044451c80b439fa676b66b918106e9042804190eb5c144953e69352a9d",
          "blockNumber": "0x3976",
          "blockTimestamp": "0x69d1cb0a",
          "transactionHash": "0x661e59b2db10fe9580946c211b994ef4f75f1f5f3db45754ea0434f9b56108dc",
          "transactionIndex": "0x3",
          "logIndex": "0x0",
          "removed": false
        }
      ],
      "logsBloom": "0x00000000000000000020000000000000000000000000000000000000000000000000000000000000800000000000000000000000000000000000000000000000000000000000000000000008000000000000000000000000000000000000000000000000020000000000000100000800000000000000000000000010000000000000000000000000000000000000000000000000000000000000000000000000000000000000002000000000000000000000000000000000000000000000000000000002000000200000000000000000000000002000000000000000000020000000000000000000000000000000000000000000000000000000000000000000",
      "type": "0x0",
      "transactionHash": "0x661e59b2db10fe9580946c211b994ef4f75f1f5f3db45754ea0434f9b56108dc",
      "transactionIndex": "0x3",
      "blockHash": "0x3607f3044451c80b439fa676b66b918106e9042804190eb5c144953e69352a9d",
      "blockNumber": "0x3976",
      "gasUsed": "0x10a50",
      "effectiveGasPrice": "0x3b9aca07",
      "blobGasPrice": "0x1",
      "from": "0xf39fd6e51aad88f6f4ce6ab8827279cfffb92266",
      "to": "0x547382c0d1b23f707918d3c83a77317b71aa8470",
      "contractAddress": null,
      "blockTimestamp": 1775356682
    },
    {
      "status": "0x1",
      "cumulativeGasUsed": "0x1833d7",
      "logs": [
        {
          "address": "0x7c8baafa542c57ff9b2b90612bf8ab9e86e22c09",
          "topics": [
            "0xddf252ad1be2c89b69c2b068fc378daa952ba7f163c4a11628f55a4df523b3ef",
            "0x0000000000000000000000000000000000000000000000000000000000000000",
            "0x000000000000000000000000f39fd6e51aad88f6f4ce6ab8827279cfffb92266"
          ],
          "data": "0x00000000000000000000000000000000000000000000006c6b935b8bbd400000",
          "blockHash": "0x3607f3044451c80b439fa676b66b918106e9042804190eb5c144953e69352a9d",
          "blockNumber": "0x3976",
          "blockTimestamp": "0x69d1cb0a",
          "transactionHash": "0x8710ea3b67fb682d43a391167c199cb40203482722d58530015c47428fc71bd1",
          "transactionIndex": "0x4",
          "logIndex": "0x1",
          "removed": false
        }
      ],
      "logsBloom": "0x00000000000001000000000000000000000000000000000000000000000000000000000000000000000000000000000000000000000000000000000000000000000000000000000000000008000000000000000000000000000000000000000000000000020000000000000100001800000000000000000000000010000000000000000000000000000000000000000000000000000000000000000000000000000000000000000000000000000000000000000000000000000000000000000000000002000000200200000000000000000000002000000000000000000020000000000000000000000000000000000000000000000000000000000000000000",
      "type": "0x0",
      "transactionHash": "0x8710ea3b67fb682d43a391167c199cb40203482722d58530015c47428fc71bd1",
      "transactionIndex": "0x4",
      "blockHash": "0x3607f3044451c80b439fa676b66b918106e9042804190eb5c144953e69352a9d",
      "blockNumber": "0x3976",
      "gasUsed": "0x10a44",
      "effectiveGasPrice": "0x3b9aca07",
      "blobGasPrice": "0x1",
      "from": "0xf39fd6e51aad88f6f4ce6ab8827279cfffb92266",
      "to": "0x7c8baafa542c57ff9b2b90612bf8ab9e86e22c09",
      "contractAddress": null,
      "blockTimestamp": 1775356682
    },
    {
      "status": "0x1",
      "cumulativeGasUsed": "0x193e03",
      "logs": [
        {
          "address": "0x0a17fabea4633ce714f1fa4a2dca62c3bac4758d",
          "topics": [
            "0xddf252ad1be2c89b69c2b068fc378daa952ba7f163c4a11628f55a4df523b3ef",
            "0x0000000000000000000000000000000000000000000000000000000000000000",
            "0x000000000000000000000000f39fd6e51aad88f6f4ce6ab8827279cfffb92266"
          ],
          "data": "0x000000000000000000000000000000000000000000000000000003a352944000",
          "blockHash": "0x3607f3044451c80b439fa676b66b918106e9042804190eb5c144953e69352a9d",
          "blockNumber": "0x3976",
          "blockTimestamp": "0x69d1cb0a",
          "transactionHash": "0x839b9e5409daa5065eb1d1539e957be57255905ceb2da3cc1c7935cbdf6a2850",
          "transactionIndex": "0x5",
          "logIndex": "0x2",
          "removed": false
        }
      ],
      "logsBloom": "0x00000000000000000000000000000000000000000000000000000000000000000000000000000000000000000000000000000000000000000000000000000000000000000000000000000008000000000000000100000000000000000000000000000000020000000000000100000800000000000000400000000010000000200000000000000000000000000000000000000000000000000000000000000000000000000000000000000000000000000000000000000000000000000000000000000002000000200000000000000000000000002000000000000000000020000000000000000000000000000000000000000000000000000000000000000000",
      "type": "0x0",
      "transactionHash": "0x839b9e5409daa5065eb1d1539e957be57255905ceb2da3cc1c7935cbdf6a2850",
      "transactionIndex": "0x5",
      "blockHash": "0x3607f3044451c80b439fa676b66b918106e9042804190eb5c144953e69352a9d",
      "blockNumber": "0x3976",
      "gasUsed": "0x10a2c",
      "effectiveGasPrice": "0x3b9aca07",
      "blobGasPrice": "0x1",
      "from": "0xf39fd6e51aad88f6f4ce6ab8827279cfffb92266",
      "to": "0x0a17fabea4633ce714f1fa4a2dca62c3bac4758d",
      "contractAddress": null,
      "blockTimestamp": 1775356682
    },
    {
      "status": "0x1",
      "cumulativeGasUsed": "0x268ed6",
      "logs": [],
      "logsBloom": "0x00000000000000000000000000000000000000000000000000000000000000000000000000000000000000000000000000000000000000000000000000000000000000000000000000000000000000000000000000000000000000000000000000000000000000000000000000000000000000000000000000000000000000000000000000000000000000000000000000000000000000000000000000000000000000000000000000000000000000000000000000000000000000000000000000000000000000000000000000000000000000000000000000000000000000000000000000000000000000000000000000000000000000000000000000000000",
      "type": "0x0",
      "transactionHash": "0xfe87c42fbe3b36cfe35bb242cc0bc7331bba12bbdf993b798cf259b22b279907",
      "transactionIndex": "0x6",
      "blockHash": "0x3607f3044451c80b439fa676b66b918106e9042804190eb5c144953e69352a9d",
      "blockNumber": "0x3976",
      "gasUsed": "0xd50d3",
      "effectiveGasPrice": "0x3b9aca07",
      "blobGasPrice": "0x1",
      "from": "0xf39fd6e51aad88f6f4ce6ab8827279cfffb92266",
      "to": null,
      "contractAddress": "0xead789bd8ce8b9e94f5d0fca99f8787c7e758817",
      "blockTimestamp": 1775356682
    },
    {
      "status": "0x1",
      "cumulativeGasUsed": "0x33dfb2",
      "logs": [],
      "logsBloom": "0x00000000000000000000000000000000000000000000000000000000000000000000000000000000000000000000000000000000000000000000000000000000000000000000000000000000000000000000000000000000000000000000000000000000000000000000000000000000000000000000000000000000000000000000000000000000000000000000000000000000000000000000000000000000000000000000000000000000000000000000000000000000000000000000000000000000000000000000000000000000000000000000000000000000000000000000000000000000000000000000000000000000000000000000000000000000",
      "type": "0x0",
      "transactionHash": "0xa8e3a920b9dbf88de3c6a1fe166fa10b575cd12d74550880517d32eecbd2a5d6",
      "transactionIndex": "0x7",
      "blockHash": "0x3607f3044451c80b439fa676b66b918106e9042804190eb5c144953e69352a9d",
      "blockNumber": "0x3976",
      "gasUsed": "0xd50dc",
      "effectiveGasPrice": "0x3b9aca07",
      "blobGasPrice": "0x1",
      "from": "0xf39fd6e51aad88f6f4ce6ab8827279cfffb92266",
      "to": null,
      "contractAddress": "0x95775fd3afb1f4072794ca4dda27f2444bcf8ac3",
      "blockTimestamp": 1775356682
    },
    {
      "status": "0x1",
      "cumulativeGasUsed": "0x41308e",
      "logs": [],
      "logsBloom": "0x00000000000000000000000000000000000000000000000000000000000000000000000000000000000000000000000000000000000000000000000000000000000000000000000000000000000000000000000000000000000000000000000000000000000000000000000000000000000000000000000000000000000000000000000000000000000000000000000000000000000000000000000000000000000000000000000000000000000000000000000000000000000000000000000000000000000000000000000000000000000000000000000000000000000000000000000000000000000000000000000000000000000000000000000000000000",
      "type": "0x0",
      "transactionHash": "0xeefd9810c833ce96215d2aa265e75f339a2000a540268fb148523a02932bf4d3",
      "transactionIndex": "0x8",
      "blockHash": "0x3607f3044451c80b439fa676b66b918106e9042804190eb5c144953e69352a9d",
      "blockNumber": "0x3976",
      "gasUsed": "0xd50dc",
      "effectiveGasPrice": "0x3b9aca07",
      "blobGasPrice": "0x1",
      "from": "0xf39fd6e51aad88f6f4ce6ab8827279cfffb92266",
      "to": null,
      "contractAddress": "0xd9fec8238711935d6c8d79bef2b9546ef23fc046",
      "blockTimestamp": 1775356682
    },
    {
      "status": "0x1",
      "cumulativeGasUsed": "0x41e472",
      "logs": [],
      "logsBloom": "0x00000000000000000000000000000000000000000000000000000000000000000000000000000000000000000000000000000000000000000000000000000000000000000000000000000000000000000000000000000000000000000000000000000000000000000000000000000000000000000000000000000000000000000000000000000000000000000000000000000000000000000000000000000000000000000000000000000000000000000000000000000000000000000000000000000000000000000000000000000000000000000000000000000000000000000000000000000000000000000000000000000000000000000000000000000000",
      "type": "0x0",
      "transactionHash": "0x613d5fbd1183098919a53609e9053212beea8c8e9a49ed245f3727ed64a52ade",
      "transactionIndex": "0x9",
      "blockHash": "0x3607f3044451c80b439fa676b66b918106e9042804190eb5c144953e69352a9d",
      "blockNumber": "0x3976",
      "gasUsed": "0xb3e4",
      "effectiveGasPrice": "0x3b9aca07",
      "blobGasPrice": "0x1",
      "from": "0xf39fd6e51aad88f6f4ce6ab8827279cfffb92266",
      "to": "0xead789bd8ce8b9e94f5d0fca99f8787c7e758817",
      "contractAddress": null,
      "blockTimestamp": 1775356682
    },
    {
      "status": "0x1",
      "cumulativeGasUsed": "0x429856",
      "logs": [],
      "logsBloom": "0x00000000000000000000000000000000000000000000000000000000000000000000000000000000000000000000000000000000000000000000000000000000000000000000000000000000000000000000000000000000000000000000000000000000000000000000000000000000000000000000000000000000000000000000000000000000000000000000000000000000000000000000000000000000000000000000000000000000000000000000000000000000000000000000000000000000000000000000000000000000000000000000000000000000000000000000000000000000000000000000000000000000000000000000000000000000",
      "type": "0x0",
      "transactionHash": "0x3c1f563abb3aa8a4b2385e6a4ea1ccdf80e37dd1c6cc0b47ebb4edad6c1eb0ce",
      "transactionIndex": "0xa",
      "blockHash": "0x3607f3044451c80b439fa676b66b918106e9042804190eb5c144953e69352a9d",
      "blockNumber": "0x3976",
      "gasUsed": "0xb3e4",
      "effectiveGasPrice": "0x3b9aca07",
      "blobGasPrice": "0x1",
      "from": "0xf39fd6e51aad88f6f4ce6ab8827279cfffb92266",
      "to": "0x95775fd3afb1f4072794ca4dda27f2444bcf8ac3",
      "contractAddress": null,
      "blockTimestamp": 1775356682
    },
    {
      "status": "0x1",
      "cumulativeGasUsed": "0x434c3a",
      "logs": [],
      "logsBloom": "0x00000000000000000000000000000000000000000000000000000000000000000000000000000000000000000000000000000000000000000000000000000000000000000000000000000000000000000000000000000000000000000000000000000000000000000000000000000000000000000000000000000000000000000000000000000000000000000000000000000000000000000000000000000000000000000000000000000000000000000000000000000000000000000000000000000000000000000000000000000000000000000000000000000000000000000000000000000000000000000000000000000000000000000000000000000000",
      "type": "0x0",
      "transactionHash": "0xaf38dd2fa093ad591a17874256715dab8b9f93c3dd1d4bbe1cbd862ccf45246a",
      "transactionIndex": "0xb",
      "blockHash": "0x3607f3044451c80b439fa676b66b918106e9042804190eb5c144953e69352a9d",
      "blockNumber": "0x3976",
      "gasUsed": "0xb3e4",
      "effectiveGasPrice": "0x3b9aca07",
      "blobGasPrice": "0x1",
      "from": "0xf39fd6e51aad88f6f4ce6ab8827279cfffb92266",
      "to": "0xd9fec8238711935d6c8d79bef2b9546ef23fc046",
      "contractAddress": null,
      "blockTimestamp": 1775356682
    },
    {
      "status": "0x1",
      "cumulativeGasUsed": "0x43ffc3",
      "logs": [
        {
          "address": "0x547382c0d1b23f707918d3c83a77317b71aa8470",
          "topics": [
            "0x8c5be1e5ebec7d5bd14f71427d1e84f3dd0314c0f7b2291e5b200ac8c7c3b925",
            "0x000000000000000000000000f39fd6e51aad88f6f4ce6ab8827279cfffb92266",
            "0x000000000000000000000000ead789bd8ce8b9e94f5d0fca99f8787c7e758817"
          ],
          "data": "0x000000000000000000000000000000000000000000027b46536c66c8e3000000",
          "blockHash": "0x3607f3044451c80b439fa676b66b918106e9042804190eb5c144953e69352a9d",
          "blockNumber": "0x3976",
          "blockTimestamp": "0x69d1cb0a",
          "transactionHash": "0x5e7efa535d6efc0c56213795621891d9ed3f8158994832508da3bd396315a848",
          "transactionIndex": "0xc",
          "logIndex": "0x3",
          "removed": false
        }
      ],
      "logsBloom": "0x00000000000000000020000000000000000000000000000000800000000000000000000000000000800000100000000000000000000000000000000000200000000000000000000000000000000000000000000000000000000000000000000000000000000000000000000100000000000100000000000000000000000000000000000000000000000000000000000000000000000000000000000000000000020000000000002000000000000000000000000000000000000000000000000000000000000000200000000000000000000000002000000000000000000000000010000000000000000000000000000000000000000000000000000000000000",
      "type": "0x0",
      "transactionHash": "0x5e7efa535d6efc0c56213795621891d9ed3f8158994832508da3bd396315a848",
      "transactionIndex": "0xc",
      "blockHash": "0x3607f3044451c80b439fa676b66b918106e9042804190eb5c144953e69352a9d",
      "blockNumber": "0x3976",
      "gasUsed": "0xb389",
      "effectiveGasPrice": "0x3b9aca07",
      "blobGasPrice": "0x1",
      "from": "0xf39fd6e51aad88f6f4ce6ab8827279cfffb92266",
      "to": "0x547382c0d1b23f707918d3c83a77317b71aa8470",
      "contractAddress": null,
      "blockTimestamp": 1775356682
    },
    {
      "status": "0x1",
      "cumulativeGasUsed": "0x44b340",
      "logs": [
        {
          "address": "0x7c8baafa542c57ff9b2b90612bf8ab9e86e22c09",
          "topics": [
            "0x8c5be1e5ebec7d5bd14f71427d1e84f3dd0314c0f7b2291e5b200ac8c7c3b925",
            "0x000000000000000000000000f39fd6e51aad88f6f4ce6ab8827279cfffb92266",
            "0x000000000000000000000000ead789bd8ce8b9e94f5d0fca99f8787c7e758817"
          ],
          "data": "0x00000000000000000000000000000000000000000000003635c9adc5dea00000",
          "blockHash": "0x3607f3044451c80b439fa676b66b918106e9042804190eb5c144953e69352a9d",
          "blockNumber": "0x3976",
          "blockTimestamp": "0x69d1cb0a",
          "transactionHash": "0xd58a1a1b161fff7394ce20960c44a3903d36efbf92d85ead4f49cd3d79d2d2a9",
          "transactionIndex": "0xd",
          "logIndex": "0x4",
          "removed": false
        }
      ],
      "logsBloom": "0x00000000000001000000000000000000000000000000000000800000000000000000000000000000000000100000000000000000000000000000000000200000000000000000000000000000000000000000000000000000000000000000000000000000000000000000000100001000000100000000000000000000000000000000000000000000000000000000000000000000000000000000000000000000020000000000000000000000000000000000000000000000000000000000000000000000000000200200000000000000000000002000000000000000000000000010000000000000000000000000000000000000000000000000000000000000",
      "type": "0x0",
      "transactionHash": "0xd58a1a1b161fff7394ce20960c44a3903d36efbf92d85ead4f49cd3d79d2d2a9",
      "transactionIndex": "0xd",
      "blockHash": "0x3607f3044451c80b439fa676b66b918106e9042804190eb5c144953e69352a9d",
      "blockNumber": "0x3976",
      "gasUsed": "0xb37d",
      "effectiveGasPrice": "0x3b9aca07",
      "blobGasPrice": "0x1",
      "from": "0xf39fd6e51aad88f6f4ce6ab8827279cfffb92266",
      "to": "0x7c8baafa542c57ff9b2b90612bf8ab9e86e22c09",
      "contractAddress": null,
      "blockTimestamp": 1775356682
    },
    {
      "status": "0x1",
      "cumulativeGasUsed": "0x47a33b",
      "logs": [
        {
          "address": "0x547382c0d1b23f707918d3c83a77317b71aa8470",
          "topics": [
            "0xddf252ad1be2c89b69c2b068fc378daa952ba7f163c4a11628f55a4df523b3ef",
            "0x000000000000000000000000f39fd6e51aad88f6f4ce6ab8827279cfffb92266",
            "0x000000000000000000000000ead789bd8ce8b9e94f5d0fca99f8787c7e758817"
          ],
          "data": "0x000000000000000000000000000000000000000000027b46536c66c8e3000000",
          "blockHash": "0x3607f3044451c80b439fa676b66b918106e9042804190eb5c144953e69352a9d",
          "blockNumber": "0x3976",
          "blockTimestamp": "0x69d1cb0a",
          "transactionHash": "0x2bbaed333f32feec43c2ecb64190ef6cccc4a6c1ad177f2d1ca708b8e16a7bd8",
          "transactionIndex": "0xe",
          "logIndex": "0x5",
          "removed": false
        },
        {
          "address": "0x7c8baafa542c57ff9b2b90612bf8ab9e86e22c09",
          "topics": [
            "0xddf252ad1be2c89b69c2b068fc378daa952ba7f163c4a11628f55a4df523b3ef",
            "0x000000000000000000000000f39fd6e51aad88f6f4ce6ab8827279cfffb92266",
            "0x000000000000000000000000ead789bd8ce8b9e94f5d0fca99f8787c7e758817"
          ],
          "data": "0x00000000000000000000000000000000000000000000003635c9adc5dea00000",
          "blockHash": "0x3607f3044451c80b439fa676b66b918106e9042804190eb5c144953e69352a9d",
          "blockNumber": "0x3976",
          "blockTimestamp": "0x69d1cb0a",
          "transactionHash": "0x2bbaed333f32feec43c2ecb64190ef6cccc4a6c1ad177f2d1ca708b8e16a7bd8",
          "transactionIndex": "0xe",
          "logIndex": "0x6",
          "removed": false
        },
        {
          "address": "0xead789bd8ce8b9e94f5d0fca99f8787c7e758817",
          "topics": [
            "0x64b83944e79c3ce8d4c297411de637c3e102d064677aac0c163976ebdcd6f50e",
            "0x000000000000000000000000f39fd6e51aad88f6f4ce6ab8827279cfffb92266"
          ],
          "data": "0x000000000000000000000000000000000000000000027b46536c66c8e300000000000000000000000000000000000000000000000000003635c9adc5dea00000000000000000000000000000000000000000000000000b9935be393f250ded20",
          "blockHash": "0x3607f3044451c80b439fa676b66b918106e9042804190eb5c144953e69352a9d",
          "blockNumber": "0x3976",
          "blockTimestamp": "0x69d1cb0a",
          "transactionHash": "0x2bbaed333f32feec43c2ecb64190ef6cccc4a6c1ad177f2d1ca708b8e16a7bd8",
          "transactionIndex": "0xe",
          "logIndex": "0x7",
          "removed": false
        }
      ],
      "logsBloom": "0x00000000000001000020000000000000000000000000000000800000000000000000000000000000800000100000000000000000000000000000000000000000000001000000000000000008800000000000000000000000000000000000000000000000000000000000000100001000000100000000000000400010000000000000000000000000000000000000000000000000000000800000000000000000000000000000002000000000000000000000000000000000000000000000000000000002000000200200000000000000000000002000000000000000020000000000000000000000000000002000000000000000000000000000000000000000",
      "type": "0x0",
      "transactionHash": "0x2bbaed333f32feec43c2ecb64190ef6cccc4a6c1ad177f2d1ca708b8e16a7bd8",
      "transactionIndex": "0xe",
      "blockHash": "0x3607f3044451c80b439fa676b66b918106e9042804190eb5c144953e69352a9d",
      "blockNumber": "0x3976",
      "gasUsed": "0x2effb",
      "effectiveGasPrice": "0x3b9aca07",
      "blobGasPrice": "0x1",
      "from": "0xf39fd6e51aad88f6f4ce6ab8827279cfffb92266",
      "to": "0xead789bd8ce8b9e94f5d0fca99f8787c7e758817",
      "contractAddress": null,
      "blockTimestamp": 1775356682
    },
    {
      "status": "0x1",
      "cumulativeGasUsed": "0x4856b8",
      "logs": [
        {
          "address": "0x547382c0d1b23f707918d3c83a77317b71aa8470",
          "topics": [
            "0x8c5be1e5ebec7d5bd14f71427d1e84f3dd0314c0f7b2291e5b200ac8c7c3b925",
            "0x000000000000000000000000f39fd6e51aad88f6f4ce6ab8827279cfffb92266",
            "0x00000000000000000000000095775fd3afb1f4072794ca4dda27f2444bcf8ac3"
          ],
          "data": "0x00000000000000000000000000000000000000000000d3c21bcecceda1000000",
          "blockHash": "0x3607f3044451c80b439fa676b66b918106e9042804190eb5c144953e69352a9d",
          "blockNumber": "0x3976",
          "blockTimestamp": "0x69d1cb0a",
          "transactionHash": "0xddc864e50afbf6642378cec78aed6b2f0c86bf82310b8c19d6e5a2ea99c256a8",
          "transactionIndex": "0xf",
          "logIndex": "0x8",
          "removed": false
        }
      ],
      "logsBloom": "0x00000000000000000020000000000000000000000000000000000000000000000000000000000000800000000000000000000000000001000000000100200000000000000000000000000000000000000000000000000000000000000000000000000000000000000000000100000000000000000000000000000000000000000000000000000000000000000000000000000000000000000000000000000000020000000000002000000000000000000000000000000000000000000000000000000000000000200000000000000000000000002000000000000000000200000010000000000000000000000000000000000000000000000000000000000000",
      "type": "0x0",
      "transactionHash": "0xddc864e50afbf6642378cec78aed6b2f0c86bf82310b8c19d6e5a2ea99c256a8",
      "transactionIndex": "0xf",
      "blockHash": "0x3607f3044451c80b439fa676b66b918106e9042804190eb5c144953e69352a9d",
      "blockNumber": "0x3976",
      "gasUsed": "0xb37d",
      "effectiveGasPrice": "0x3b9aca07",
      "blobGasPrice": "0x1",
      "from": "0xf39fd6e51aad88f6f4ce6ab8827279cfffb92266",
      "to": "0x547382c0d1b23f707918d3c83a77317b71aa8470",
      "contractAddress": null,
      "blockTimestamp": 1775356682
    },
    {
      "status": "0x1",
      "cumulativeGasUsed": "0x490a11",
      "logs": [
        {
          "address": "0x0a17fabea4633ce714f1fa4a2dca62c3bac4758d",
          "topics": [
            "0x8c5be1e5ebec7d5bd14f71427d1e84f3dd0314c0f7b2291e5b200ac8c7c3b925",
            "0x000000000000000000000000f39fd6e51aad88f6f4ce6ab8827279cfffb92266",
            "0x00000000000000000000000095775fd3afb1f4072794ca4dda27f2444bcf8ac3"
          ],
          "data": "0x000000000000000000000000000000000000000000000000000000e8d4a51000",
          "blockHash": "0x3607f3044451c80b439fa676b66b918106e9042804190eb5c144953e69352a9d",
          "blockNumber": "0x3976",
          "blockTimestamp": "0x69d1cb0a",
          "transactionHash": "0xcb6321d6e6491cc9e39dfa7e021fcde1f3e214dac5f8184fdaa2b49c38aee089",
          "transactionIndex": "0x10",
          "logIndex": "0x9",
          "removed": false
        }
      ],
      "logsBloom": "0x00000000000000000000000000000000000000000000000000000000000000000000000000000000000000000000000000000000000001000000000100200000000000000000000000000000000000000000000100000000000000000000000000000000000000000000000100000000000000000000400000000000000000200000000000000000000000000000000000000000000000000000000000000000020000000000000000000000000000000000000000000000000000000000000000000000000000200000000000000000000000002000000000000000000200000010000000000000000000000000000000000000000000000000000000000000",
      "type": "0x0",
      "transactionHash": "0xcb6321d6e6491cc9e39dfa7e021fcde1f3e214dac5f8184fdaa2b49c38aee089",
      "transactionIndex": "0x10",
      "blockHash": "0x3607f3044451c80b439fa676b66b918106e9042804190eb5c144953e69352a9d",
      "blockNumber": "0x3976",
      "gasUsed": "0xb359",
      "effectiveGasPrice": "0x3b9aca07",
      "blobGasPrice": "0x1",
      "from": "0xf39fd6e51aad88f6f4ce6ab8827279cfffb92266",
      "to": "0x0a17fabea4633ce714f1fa4a2dca62c3bac4758d",
      "contractAddress": null,
      "blockTimestamp": 1775356682
    },
    {
      "status": "0x1",
      "cumulativeGasUsed": "0x4bdc7c",
      "logs": [
        {
          "address": "0x0a17fabea4633ce714f1fa4a2dca62c3bac4758d",
          "topics": [
            "0xddf252ad1be2c89b69c2b068fc378daa952ba7f163c4a11628f55a4df523b3ef",
            "0x000000000000000000000000f39fd6e51aad88f6f4ce6ab8827279cfffb92266",
            "0x00000000000000000000000095775fd3afb1f4072794ca4dda27f2444bcf8ac3"
          ],
          "data": "0x000000000000000000000000000000000000000000000000000000e8d4a51000",
          "blockHash": "0x3607f3044451c80b439fa676b66b918106e9042804190eb5c144953e69352a9d",
          "blockNumber": "0x3976",
          "blockTimestamp": "0x69d1cb0a",
          "transactionHash": "0xac9bb2dee4cac71fb16f53d0bd747c19f5bae03924bed30d51e94f81733093c6",
          "transactionIndex": "0x11",
          "logIndex": "0xa",
          "removed": false
        },
        {
          "address": "0x547382c0d1b23f707918d3c83a77317b71aa8470",
          "topics": [
            "0xddf252ad1be2c89b69c2b068fc378daa952ba7f163c4a11628f55a4df523b3ef",
            "0x000000000000000000000000f39fd6e51aad88f6f4ce6ab8827279cfffb92266",
            "0x00000000000000000000000095775fd3afb1f4072794ca4dda27f2444bcf8ac3"
          ],
          "data": "0x00000000000000000000000000000000000000000000d3c21bcecceda1000000",
          "blockHash": "0x3607f3044451c80b439fa676b66b918106e9042804190eb5c144953e69352a9d",
          "blockNumber": "0x3976",
          "blockTimestamp": "0x69d1cb0a",
          "transactionHash": "0xac9bb2dee4cac71fb16f53d0bd747c19f5bae03924bed30d51e94f81733093c6",
          "transactionIndex": "0x11",
          "logIndex": "0xb",
          "removed": false
        },
        {
          "address": "0x95775fd3afb1f4072794ca4dda27f2444bcf8ac3",
          "topics": [
            "0x64b83944e79c3ce8d4c297411de637c3e102d064677aac0c163976ebdcd6f50e",
            "0x000000000000000000000000f39fd6e51aad88f6f4ce6ab8827279cfffb92266"
          ],
          "data": "0x000000000000000000000000000000000000000000000000000000e8d4a5100000000000000000000000000000000000000000000000d3c21bcecceda10000000000000000000000000000000000000000000000000000000de0b6b3a7640000",
          "blockHash": "0x3607f3044451c80b439fa676b66b918106e9042804190eb5c144953e69352a9d",
          "blockNumber": "0x3976",
          "blockTimestamp": "0x69d1cb0a",
          "transactionHash": "0xac9bb2dee4cac71fb16f53d0bd747c19f5bae03924bed30d51e94f81733093c6",
          "transactionIndex": "0x11",
          "logIndex": "0xc",
          "removed": false
        }
      ],
      "logsBloom": "0x00000000000000000020000000000000000000000000000000000000000000000000000000000000800000000000000000000000000001000000000100000000000001000000000000000008800000000000000100000000000000000000000000000000000000000000004100000000000020040000400000000010000000200000000000000000000000000000000000000000000000000000000000000000000000000000002000000000000000000000000000000000000000000000000000000002000000200000000000000000000000002000000000000000020200000000000000000000000000000000000000000000000000000000000000000000",
      "type": "0x0",
      "transactionHash": "0xac9bb2dee4cac71fb16f53d0bd747c19f5bae03924bed30d51e94f81733093c6",
      "transactionIndex": "0x11",
      "blockHash": "0x3607f3044451c80b439fa676b66b918106e9042804190eb5c144953e69352a9d",
      "blockNumber": "0x3976",
      "gasUsed": "0x2d26b",
      "effectiveGasPrice": "0x3b9aca07",
      "blobGasPrice": "0x1",
      "from": "0xf39fd6e51aad88f6f4ce6ab8827279cfffb92266",
      "to": "0x95775fd3afb1f4072794ca4dda27f2444bcf8ac3",
      "contractAddress": null,
      "blockTimestamp": 1775356682
    },
    {
      "status": "0x1",
      "cumulativeGasUsed": "0x4c8ff9",
      "logs": [
        {
          "address": "0x7c8baafa542c57ff9b2b90612bf8ab9e86e22c09",
          "topics": [
            "0x8c5be1e5ebec7d5bd14f71427d1e84f3dd0314c0f7b2291e5b200ac8c7c3b925",
            "0x000000000000000000000000f39fd6e51aad88f6f4ce6ab8827279cfffb92266",
            "0x000000000000000000000000d9fec8238711935d6c8d79bef2b9546ef23fc046"
          ],
          "data": "0x00000000000000000000000000000000000000000000003635c9adc5dea00000",
          "blockHash": "0x3607f3044451c80b439fa676b66b918106e9042804190eb5c144953e69352a9d",
          "blockNumber": "0x3976",
          "blockTimestamp": "0x69d1cb0a",
          "transactionHash": "0x6a698eecc1222b639cc628f66b3af6b2bf24920db63a04e91aa224292c7f7999",
          "transactionIndex": "0x12",
          "logIndex": "0xd",
          "removed": false
        }
      ],
      "logsBloom": "0x00000000000001000000100000000000000000000000000000000000000000000000000000000000000000000000000000000000000000000000000000280000000000000000000000000000000000000000000000000000000000000000000000000000000000000000000100001000000000000000000000000000000000000000000000000000000000000000000000000000000000000000000000000000020000000000000000000000000000000000000000000000000000000000000000000000000000200200000000001000000000002000000000000000000000000010000000000000000000000000000000000000000000000000000000000000",
      "type": "0x0",
      "transactionHash": "0x6a698eecc1222b639cc628f66b3af6b2bf24920db63a04e91aa224292c7f7999",
      "transactionIndex": "0x12",
      "blockHash": "0x3607f3044451c80b439fa676b66b918106e9042804190eb5c144953e69352a9d",
      "blockNumber": "0x3976",
      "gasUsed": "0xb37d",
      "effectiveGasPrice": "0x3b9aca07",
      "blobGasPrice": "0x1",
      "from": "0xf39fd6e51aad88f6f4ce6ab8827279cfffb92266",
      "to": "0x7c8baafa542c57ff9b2b90612bf8ab9e86e22c09",
      "contractAddress": null,
      "blockTimestamp": 1775356682
    },
    {
      "status": "0x1",
      "cumulativeGasUsed": "0x4d435e",
      "logs": [
        {
          "address": "0x0a17fabea4633ce714f1fa4a2dca62c3bac4758d",
          "topics": [
            "0x8c5be1e5ebec7d5bd14f71427d1e84f3dd0314c0f7b2291e5b200ac8c7c3b925",
            "0x000000000000000000000000f39fd6e51aad88f6f4ce6ab8827279cfffb92266",
            "0x000000000000000000000000d9fec8238711935d6c8d79bef2b9546ef23fc046"
          ],
          "data": "0x000000000000000000000000000000000000000000000000000002ba7def3000",
          "blockHash": "0x3607f3044451c80b439fa676b66b918106e9042804190eb5c144953e69352a9d",
          "blockNumber": "0x3976",
          "blockTimestamp": "0x69d1cb0a",
          "transactionHash": "0x9fde1088b941fb3eda3bb3aef5f828bc2d8f183aa0c50929cdc64d96007afbd0",
          "transactionIndex": "0x13",
          "logIndex": "0xe",
          "removed": false
        }
      ],
      "logsBloom": "0x00000000000000000000100000000000000000000000000000000000000000000000000000000000000000000000000000000000000000000000000000280000000000000000000000000000000000000000000100000000000000000000000000000000000000000000000100000000000000000000400000000000000000200000000000000000000000000000000000000000000000000000000000000000020000000000000000000000000000000000000000000000000000000000000000000000000000200000000000001000000000002000000000000000000000000010000000000000000000000000000000000000000000000000000000000000",
      "type": "0x0",
      "transactionHash": "0x9fde1088b941fb3eda3bb3aef5f828bc2d8f183aa0c50929cdc64d96007afbd0",
      "transactionIndex": "0x13",
      "blockHash": "0x3607f3044451c80b439fa676b66b918106e9042804190eb5c144953e69352a9d",
      "blockNumber": "0x3976",
      "gasUsed": "0xb365",
      "effectiveGasPrice": "0x3b9aca07",
      "blobGasPrice": "0x1",
      "from": "0xf39fd6e51aad88f6f4ce6ab8827279cfffb92266",
      "to": "0x0a17fabea4633ce714f1fa4a2dca62c3bac4758d",
      "contractAddress": null,
      "blockTimestamp": 1775356682
    },
    {
      "status": "0x1",
      "cumulativeGasUsed": "0x4fffc3",
      "logs": [
        {
          "address": "0x0a17fabea4633ce714f1fa4a2dca62c3bac4758d",
          "topics": [
            "0xddf252ad1be2c89b69c2b068fc378daa952ba7f163c4a11628f55a4df523b3ef",
            "0x000000000000000000000000f39fd6e51aad88f6f4ce6ab8827279cfffb92266",
            "0x000000000000000000000000d9fec8238711935d6c8d79bef2b9546ef23fc046"
          ],
          "data": "0x000000000000000000000000000000000000000000000000000002ba7def3000",
          "blockHash": "0x3607f3044451c80b439fa676b66b918106e9042804190eb5c144953e69352a9d",
          "blockNumber": "0x3976",
          "blockTimestamp": "0x69d1cb0a",
          "transactionHash": "0xd2c8c9d9c34ac3b411662679e3d852def0021b005b7dcdd3611ed28bff1b9f2f",
          "transactionIndex": "0x14",
          "logIndex": "0xf",
          "removed": false
        },
        {
          "address": "0x7c8baafa542c57ff9b2b90612bf8ab9e86e22c09",
          "topics": [
            "0xddf252ad1be2c89b69c2b068fc378daa952ba7f163c4a11628f55a4df523b3ef",
            "0x000000000000000000000000f39fd6e51aad88f6f4ce6ab8827279cfffb92266",
            "0x000000000000000000000000d9fec8238711935d6c8d79bef2b9546ef23fc046"
          ],
          "data": "0x00000000000000000000000000000000000000000000003635c9adc5dea00000",
          "blockHash": "0x3607f3044451c80b439fa676b66b918106e9042804190eb5c144953e69352a9d",
          "blockNumber": "0x3976",
          "blockTimestamp": "0x69d1cb0a",
          "transactionHash": "0xd2c8c9d9c34ac3b411662679e3d852def0021b005b7dcdd3611ed28bff1b9f2f",
          "transactionIndex": "0x14",
          "logIndex": "0x10",
          "removed": false
        },
        {
          "address": "0xd9fec8238711935d6c8d79bef2b9546ef23fc046",
          "topics": [
            "0x64b83944e79c3ce8d4c297411de637c3e102d064677aac0c163976ebdcd6f50e",
            "0x000000000000000000000000f39fd6e51aad88f6f4ce6ab8827279cfffb92266"
          ],
          "data": "0x000000000000000000000000000000000000000000000000000002ba7def300000000000000000000000000000000000000000000000003635c9adc5dea0000000000000000000000000000000000000000000000000000000c297138f8e6f83",
          "blockHash": "0x3607f3044451c80b439fa676b66b918106e9042804190eb5c144953e69352a9d",
          "blockNumber": "0x3976",
          "blockTimestamp": "0x69d1cb0a",
          "transactionHash": "0xd2c8c9d9c34ac3b411662679e3d852def0021b005b7dcdd3611ed28bff1b9f2f",
          "transactionIndex": "0x14",
          "logIndex": "0x11",
          "removed": false
        }
      ],
      "logsBloom": "0x00000000000001000000100000000000000000000000000000000000000000000000000000000000000000000000000000000000000000000000000000080000000001000000000000000008800000000000000100000000000000000000000000000000000000000000000100001000000000000000400000000010000000200000000000000000000000000000000000000000000000000000000000000000000000000000000000000000000000000000000000000000000000000000000000000002000000200200000000001000000000002000000000000000020000000000400000000000000000000000000000000000000000000000000000000c00",
      "type": "0x0",
      "transactionHash": "0xd2c8c9d9c34ac3b411662679e3d852def0021b005b7dcdd3611ed28bff1b9f2f",
      "transactionIndex": "0x14",
      "blockHash": "0x3607f3044451c80b439fa676b66b918106e9042804190eb5c144953e69352a9d",
      "blockNumber": "0x3976",
      "gasUsed": "0x2bc65",
      "effectiveGasPrice": "0x3b9aca07",
      "blobGasPrice": "0x1",
      "from": "0xf39fd6e51aad88f6f4ce6ab8827279cfffb92266",
      "to": "0xd9fec8238711935d6c8d79bef2b9546ef23fc046",
      "contractAddress": null,
      "blockTimestamp": 1775356682
    },
    {
      "status": "0x1",
      "cumulativeGasUsed": "0x5cc24f",
      "logs": [],
      "logsBloom": "0x00000000000000000000000000000000000000000000000000000000000000000000000000000000000000000000000000000000000000000000000000000000000000000000000000000000000000000000000000000000000000000000000000000000000000000000000000000000000000000000000000000000000000000000000000000000000000000000000000000000000000000000000000000000000000000000000000000000000000000000000000000000000000000000000000000000000000000000000000000000000000000000000000000000000000000000000000000000000000000000000000000000000000000000000000000000",
      "type": "0x0",
      "transactionHash": "0x13f85846576ab37c4556cf12a8ef2e62773cb0c22ee691f2fd8623314111daab",
      "transactionIndex": "0x15",
      "blockHash": "0x3607f3044451c80b439fa676b66b918106e9042804190eb5c144953e69352a9d",
      "blockNumber": "0x3976",
      "gasUsed": "0xcc28c",
      "effectiveGasPrice": "0x3b9aca07",
      "blobGasPrice": "0x1",
      "from": "0xf39fd6e51aad88f6f4ce6ab8827279cfffb92266",
      "to": null,
      "contractAddress": "0x975ab64f4901af5f0c96636dea0b9de3419d0c2f",
      "blockTimestamp": 1775356682
    },
    {
      "status": "0x1",
      "cumulativeGasUsed": "0x5d8e6c",
      "logs": [
        {
          "address": "0x975ab64f4901af5f0c96636dea0b9de3419d0c2f",
          "topics": [
            "0x61afef2e121f71511fab2583c5ac49a5dc1d7a8ad8ad91c44c8465f073a73ac4",
            "0x000000000000000000000000547382c0d1b23f707918d3c83a77317b71aa8470",
            "0x0000000000000000000000007c8baafa542c57ff9b2b90612bf8ab9e86e22c09",
            "0x000000000000000000000000ead789bd8ce8b9e94f5d0fca99f8787c7e758817"
          ],
          "data": "0x",
          "blockHash": "0x3607f3044451c80b439fa676b66b918106e9042804190eb5c144953e69352a9d",
          "blockNumber": "0x3976",
          "blockTimestamp": "0x69d1cb0a",
          "transactionHash": "0x94d32be8c10ec539cbd673312bfb9fc3f08e31df65f51b49ad5b2e200f43f68e",
          "transactionIndex": "0x16",
          "logIndex": "0x12",
          "removed": false
        }
      ],
      "logsBloom": "0x00000000000000000020000000000000000000000080000000800000000000000000000010000000000000100000000000000000000000000000000000000000000000000000000000000000000000000000000000000000000400010000000000000000000000000000000000000000000100000000000000000800000000000000000000000200000000000000800000000000000000000000080020000000000010000000000000000000000000000000000000000000000000000000000000000000000000000000000000000000000000000000000000000000000000000200000000000000000000000000000000000000000000000000000000000000",
      "type": "0x0",
      "transactionHash": "0x94d32be8c10ec539cbd673312bfb9fc3f08e31df65f51b49ad5b2e200f43f68e",
      "transactionIndex": "0x16",
      "blockHash": "0x3607f3044451c80b439fa676b66b918106e9042804190eb5c144953e69352a9d",
      "blockNumber": "0x3976",
      "gasUsed": "0xcc1d",
      "effectiveGasPrice": "0x3b9aca07",
      "blobGasPrice": "0x1",
      "from": "0xf39fd6e51aad88f6f4ce6ab8827279cfffb92266",
      "to": "0x975ab64f4901af5f0c96636dea0b9de3419d0c2f",
      "contractAddress": null,
      "blockTimestamp": 1775356682
    },
    {
      "status": "0x1",
      "cumulativeGasUsed": "0x5e5a89",
      "logs": [
        {
          "address": "0x975ab64f4901af5f0c96636dea0b9de3419d0c2f",
          "topics": [
            "0x61afef2e121f71511fab2583c5ac49a5dc1d7a8ad8ad91c44c8465f073a73ac4",
            "0x0000000000000000000000000a17fabea4633ce714f1fa4a2dca62c3bac4758d",
            "0x000000000000000000000000547382c0d1b23f707918d3c83a77317b71aa8470",
            "0x00000000000000000000000095775fd3afb1f4072794ca4dda27f2444bcf8ac3"
          ],
          "data": "0x",
          "blockHash": "0x3607f3044451c80b439fa676b66b918106e9042804190eb5c144953e69352a9d",
          "blockNumber": "0x3976",
          "blockTimestamp": "0x69d1cb0a",
          "transactionHash": "0xb6d83cd5e2dd4a324f6dcc898eb8523cbec44040d18b1754868636562d44c552",
          "transactionIndex": "0x17",
          "logIndex": "0x13",
          "removed": false
        }
      ],
      "logsBloom": "0x00000000000000000020000000000000000000000080000000000000000000000000000010000000000000000000000000000000000001000000000100000000000000000000000000000000000000000000000000000000000000000000000000000000000000000000000000000000000000000000000000040800000000000000000000000000000000000000800000000000000000000000080020000000000010000000000000000000000000000000000000000000000000000000004000000000000000000000000000000000000000000000000000000000000200000200000000000000000000020000000000000000000000000000000000000000",
      "type": "0x0",
      "transactionHash": "0xb6d83cd5e2dd4a324f6dcc898eb8523cbec44040d18b1754868636562d44c552",
      "transactionIndex": "0x17",
      "blockHash": "0x3607f3044451c80b439fa676b66b918106e9042804190eb5c144953e69352a9d",
      "blockNumber": "0x3976",
      "gasUsed": "0xcc1d",
      "effectiveGasPrice": "0x3b9aca07",
      "blobGasPrice": "0x1",
      "from": "0xf39fd6e51aad88f6f4ce6ab8827279cfffb92266",
      "to": "0x975ab64f4901af5f0c96636dea0b9de3419d0c2f",
      "contractAddress": null,
      "blockTimestamp": 1775356682
    },
    {
      "status": "0x1",
      "cumulativeGasUsed": "0x5f26a6",
      "logs": [
        {
          "address": "0x975ab64f4901af5f0c96636dea0b9de3419d0c2f",
          "topics": [
            "0x61afef2e121f71511fab2583c5ac49a5dc1d7a8ad8ad91c44c8465f073a73ac4",
            "0x0000000000000000000000000a17fabea4633ce714f1fa4a2dca62c3bac4758d",
            "0x0000000000000000000000007c8baafa542c57ff9b2b90612bf8ab9e86e22c09",
            "0x000000000000000000000000d9fec8238711935d6c8d79bef2b9546ef23fc046"
          ],
          "data": "0x",
          "blockHash": "0x3607f3044451c80b439fa676b66b918106e9042804190eb5c144953e69352a9d",
          "blockNumber": "0x3976",
          "blockTimestamp": "0x69d1cb0a",
          "transactionHash": "0xa38fc5661b0e28e49266000c1db19d29f9092d50433008e96fc279f92c3a8518",
          "transactionIndex": "0x18",
          "logIndex": "0x14",
          "removed": false
        }
      ],
      "logsBloom": "0x00000000000000000020100000000000000000000000000000000000000000000000000000000000000000000000000000000000000000000000000000080000000000000000000000000000000000000000000000000000000400010000000000000000000000000000000000000000000000000000000000040800000000000000000000000200000000000000800000000000000000000000080020000000000000000000000000000000000000000000000000000000000000000000004000000000000000000000000000001000000000000000000000000000000000000200000000000000000000020000000000000000000000000000000000000000",
      "type": "0x0",
      "transactionHash": "0xa38fc5661b0e28e49266000c1db19d29f9092d50433008e96fc279f92c3a8518",
      "transactionIndex": "0x18",
      "blockHash": "0x3607f3044451c80b439fa676b66b918106e9042804190eb5c144953e69352a9d",
      "blockNumber": "0x3976",
      "gasUsed": "0xcc1d",
      "effectiveGasPrice": "0x3b9aca07",
      "blobGasPrice": "0x1",
      "from": "0xf39fd6e51aad88f6f4ce6ab8827279cfffb92266",
      "to": "0x975ab64f4901af5f0c96636dea0b9de3419d0c2f",
      "contractAddress": null,
      "blockTimestamp": 1775356682
    }
  ],
  "libraries": [],
  "pending": [],
  "returns": {},
  "timestamp": 1775356683465,
  "chain": 42069,
  "commit": "28d59aa"
}