{
  "transactions": [
    {
      "hash": "0xf6e88825310886e8f995e7fb68dab4fa1c4202eff2a591ad60bad3bb3406a067",
      "transactionType": "CREATE",
      "contractName": "SwapMockERC20",
      "contractAddress": "0x816c1209974ffac86cf3639ba11ed299e587754b",
      "function": null,
      "arguments": [
        "GoodDollar Swap",
        "G$-S",
        "18"
      ],
      "transaction": {
        "from": "0xf39fd6e51aad88f6f4ce6ab8827279cfffb92266",
        "gas": "0x99643",
        "value": "0x0",
        "input": "0x608060405234610341576109fd8038038061001981610345565b9283398101906060818303126103415780516001600160401b038111610341578261004591830161036a565b60208201519092906001600160401b0381116103415760409161006991840161036a565b91015160ff81168091036103415782516001600160401b03811161024a575f54600181811c91168015610337575b602082101461022c57601f81116102ca575b506020601f821160011461026957819293945f9261025e575b50508160011b915f199060031b1c1916175f555b81516001600160401b03811161024a57600154600181811c91168015610240575b602082101461022c57601f81116101be575b50602092601f821160011461015d57928192935f92610152575b50508160011b915f199060031b1c1916176001555b60ff19600254161760025560405161064190816103bc8239f35b015190505f80610123565b601f1982169360015f52805f20915f5b8681106101a6575083600195961061018e575b505050811b01600155610138565b01515f1960f88460031b161c191690555f8080610180565b9192602060018192868501518155019401920161016d565b818111156101095760015f52601f820160051c7fb10e2d527612073b26eecdfd717e6a320cf44b4afac2b0732d9fcbe2b7fa0cf660208410610224575b81601f9101920160051c03905f5b828110610217575050610109565b5f82820155600101610209565b5f91506101fb565b634e487b7160e01b5f52602260045260245ffd5b90607f16906100f7565b634e487b7160e01b5f52604160045260245ffd5b015190505f806100c2565b601f198216905f8052805f20915f5b8181106102b25750958360019596971061029a575b505050811b015f556100d6565b01515f1960f88460031b161c191690555f808061028d565b9192602060018192868b015181550194019201610278565b818111156100a9575f8052601f820160051c7f290decd9548b62a8d60345a988386fc84ba6bc95484008f6362f93160ef3e5636020841061032f575b81601f9101920160051c03905f5b8281106103225750506100a9565b5f82820155600101610314565b5f9150610306565b90607f1690610097565b5f80fd5b6040519190601f01601f191682016001600160401b0381118382101761024a57604052565b81601f82011215610341578051906001600160401b03821161024a57610399601f8301601f1916602001610345565b928284526020838301011161034157815f9260208093018386015e830101529056fe60806040526004361015610011575f80fd5b5f3560e01c806306fdde03146104b5578063095ea7b31461043c57806318160ddd1461041f57806323b872dd1461035a578063313ce5671461033a57806340c10f19146102c057806370a082311461028857806395d89b411461016a578063a9059cbb146100db5763dd62ed3e14610087575f80fd5b346100d75760403660031901126100d7576100a06105b1565b6100a86105c7565b6001600160a01b039182165f908152600560209081526040808320949093168252928352819020549051908152f35b5f80fd5b346100d75760403660031901126100d7576100f46105b1565b60243590335f52600460205260405f2061010f8382546105dd565b905560018060a01b031690815f52600460205260405f206101318282546105fe565b90556040519081527fddf252ad1be2c89b69c2b068fc378daa952ba7f163c4a11628f55a4df523b3ef60203392a3602060405160018152f35b346100d7575f3660031901126100d7576040515f6001548060011c9060018116801561027e575b60208310811461026a5782855290811561024e57506001146101f8575b50819003601f01601f191681019067ffffffffffffffff8211818310176101e457604082905281906101e09082610587565b0390f35b634e487b7160e01b5f52604160045260245ffd5b60015f9081529091507fb10e2d527612073b26eecdfd717e6a320cf44b4afac2b0732d9fcbe2b7fa0cf65b828210610238575060209150820101826101ae565b6001816020925483858801015201910190610223565b90506020925060ff191682840152151560051b820101826101ae565b634e487b7160e01b5f52602260045260245ffd5b91607f1691610191565b346100d75760203660031901126100d7576001600160a01b036102a96105b1565b165f526004602052602060405f2054604051908152f35b346100d75760403660031901126100d7576102d96105b1565b5f7fddf252ad1be2c89b69c2b068fc378daa952ba7f163c4a11628f55a4df523b3ef60206024359361030d856003546105fe565b60035560018060a01b031693848452600482526040842061032f8282546105fe565b9055604051908152a3005b346100d7575f3660031901126100d757602060ff60025416604051908152f35b346100d75760603660031901126100d7576103736105b1565b61037b6105c7565b7fddf252ad1be2c89b69c2b068fc378daa952ba7f163c4a11628f55a4df523b3ef60206044359360018060a01b031692835f526005825260405f2060018060a01b0333165f52825260405f206103d28682546105dd565b9055835f526004825260405f206103ea8682546105dd565b905560018060a01b031693845f526004825260405f2061040b8282546105fe565b9055604051908152a3602060405160018152f35b346100d7575f3660031901126100d7576020600354604051908152f35b346100d75760403660031901126100d7576104556105b1565b335f8181526005602090815260408083206001600160a01b03909516808452948252918290206024359081905591519182527f8c5be1e5ebec7d5bd14f71427d1e84f3dd0314c0f7b2291e5b200ac8c7c3b92591a3602060405160018152f35b346100d7575f3660031901126100d7576040515f5f548060011c9060018116801561057d575b60208310811461026a5782855290811561024e57506001146105295750819003601f01601f191681019067ffffffffffffffff8211818310176101e457604082905281906101e09082610587565b5f8080529091507f290decd9548b62a8d60345a988386fc84ba6bc95484008f6362f93160ef3e5635b828210610567575060209150820101826101ae565b6001816020925483858801015201910190610552565b91607f16916104db565b602060409281835280519182918282860152018484015e5f828201840152601f01601f1916010190565b600435906001600160a01b03821682036100d757565b602435906001600160a01b03821682036100d757565b919082039182116105ea57565b634e487b7160e01b5f52601160045260245ffd5b919082018092116105ea5756fea2646970667358221220cad941b9d7e9becfce8dfa10b2d5565e7919b6efb8a55095389b94714c700f9664736f6c63430008210033000000000000000000000000000000000000000000000000000000000000006000000000000000000000000000000000000000000000000000000000000000a00000000000000000000000000000000000000000000000000000000000000012000000000000000000000000000000000000000000000000000000000000000f476f6f64446f6c6c617220537761700000000000000000000000000000000000000000000000000000000000000000000000000000000000000000000000000447242d5300000000000000000000000000000000000000000000000000000000",
        "nonce": "0x54a",
        "chainId": "0xa455"
      },
      "additionalContracts": [],
      "isFixedGasLimit": false
    },
    {
      "hash": "0xc868134580171ef72b796d92cef1c068d5477c2021dd77edf8e0e8b90b226110",
      "transactionType": "CREATE",
      "contractName": "SwapMockERC20",
      "contractAddress": "0x45a755b058492558351f188e4362f0546bc3d140",
      "function": null,
      "arguments": [
        "Wrapped Ether",
        "WETH",
        "18"
      ],
      "transaction": {
        "from": "0xf39fd6e51aad88f6f4ce6ab8827279cfffb92266",
        "gas": "0x99624",
        "value": "0x0",
        "input": "0x608060405234610341576109fd8038038061001981610345565b9283398101906060818303126103415780516001600160401b038111610341578261004591830161036a565b60208201519092906001600160401b0381116103415760409161006991840161036a565b91015160ff81168091036103415782516001600160401b03811161024a575f54600181811c91168015610337575b602082101461022c57601f81116102ca575b506020601f821160011461026957819293945f9261025e575b50508160011b915f199060031b1c1916175f555b81516001600160401b03811161024a57600154600181811c91168015610240575b602082101461022c57601f81116101be575b50602092601f821160011461015d57928192935f92610152575b50508160011b915f199060031b1c1916176001555b60ff19600254161760025560405161064190816103bc8239f35b015190505f80610123565b601f1982169360015f52805f20915f5b8681106101a6575083600195961061018e575b505050811b01600155610138565b01515f1960f88460031b161c191690555f8080610180565b9192602060018192868501518155019401920161016d565b818111156101095760015f52601f820160051c7fb10e2d527612073b26eecdfd717e6a320cf44b4afac2b0732d9fcbe2b7fa0cf660208410610224575b81601f9101920160051c03905f5b828110610217575050610109565b5f82820155600101610209565b5f91506101fb565b634e487b7160e01b5f52602260045260245ffd5b90607f16906100f7565b634e487b7160e01b5f52604160045260245ffd5b015190505f806100c2565b601f198216905f8052805f20915f5b8181106102b25750958360019596971061029a575b505050811b015f556100d6565b01515f1960f88460031b161c191690555f808061028d565b9192602060018192868b015181550194019201610278565b818111156100a9575f8052601f820160051c7f290decd9548b62a8d60345a988386fc84ba6bc95484008f6362f93160ef3e5636020841061032f575b81601f9101920160051c03905f5b8281106103225750506100a9565b5f82820155600101610314565b5f9150610306565b90607f1690610097565b5f80fd5b6040519190601f01601f191682016001600160401b0381118382101761024a57604052565b81601f82011215610341578051906001600160401b03821161024a57610399601f8301601f1916602001610345565b928284526020838301011161034157815f9260208093018386015e830101529056fe60806040526004361015610011575f80fd5b5f3560e01c806306fdde03146104b5578063095ea7b31461043c57806318160ddd1461041f57806323b872dd1461035a578063313ce5671461033a57806340c10f19146102c057806370a082311461028857806395d89b411461016a578063a9059cbb146100db5763dd62ed3e14610087575f80fd5b346100d75760403660031901126100d7576100a06105b1565b6100a86105c7565b6001600160a01b039182165f908152600560209081526040808320949093168252928352819020549051908152f35b5f80fd5b346100d75760403660031901126100d7576100f46105b1565b60243590335f52600460205260405f2061010f8382546105dd565b905560018060a01b031690815f52600460205260405f206101318282546105fe565b90556040519081527fddf252ad1be2c89b69c2b068fc378daa952ba7f163c4a11628f55a4df523b3ef60203392a3602060405160018152f35b346100d7575f3660031901126100d7576040515f6001548060011c9060018116801561027e575b60208310811461026a5782855290811561024e57506001146101f8575b50819003601f01601f191681019067ffffffffffffffff8211818310176101e457604082905281906101e09082610587565b0390f35b634e487b7160e01b5f52604160045260245ffd5b60015f9081529091507fb10e2d527612073b26eecdfd717e6a320cf44b4afac2b0732d9fcbe2b7fa0cf65b828210610238575060209150820101826101ae565b6001816020925483858801015201910190610223565b90506020925060ff191682840152151560051b820101826101ae565b634e487b7160e01b5f52602260045260245ffd5b91607f1691610191565b346100d75760203660031901126100d7576001600160a01b036102a96105b1565b165f526004602052602060405f2054604051908152f35b346100d75760403660031901126100d7576102d96105b1565b5f7fddf252ad1be2c89b69c2b068fc378daa952ba7f163c4a11628f55a4df523b3ef60206024359361030d856003546105fe565b60035560018060a01b031693848452600482526040842061032f8282546105fe565b9055604051908152a3005b346100d7575f3660031901126100d757602060ff60025416604051908152f35b346100d75760603660031901126100d7576103736105b1565b61037b6105c7565b7fddf252ad1be2c89b69c2b068fc378daa952ba7f163c4a11628f55a4df523b3ef60206044359360018060a01b031692835f526005825260405f2060018060a01b0333165f52825260405f206103d28682546105dd565b9055835f526004825260405f206103ea8682546105dd565b905560018060a01b031693845f526004825260405f2061040b8282546105fe565b9055604051908152a3602060405160018152f35b346100d7575f3660031901126100d7576020600354604051908152f35b346100d75760403660031901126100d7576104556105b1565b335f8181526005602090815260408083206001600160a01b03909516808452948252918290206024359081905591519182527f8c5be1e5ebec7d5bd14f71427d1e84f3dd0314c0f7b2291e5b200ac8c7c3b92591a3602060405160018152f35b346100d7575f3660031901126100d7576040515f5f548060011c9060018116801561057d575b60208310811461026a5782855290811561024e57506001146105295750819003601f01601f191681019067ffffffffffffffff8211818310176101e457604082905281906101e09082610587565b5f8080529091507f290decd9548b62a8d60345a988386fc84ba6bc95484008f6362f93160ef3e5635b828210610567575060209150820101826101ae565b6001816020925483858801015201910190610552565b91607f16916104db565b602060409281835280519182918282860152018484015e5f828201840152601f01601f1916010190565b600435906001600160a01b03821682036100d757565b602435906001600160a01b03821682036100d757565b919082039182116105ea57565b634e487b7160e01b5f52601160045260245ffd5b919082018092116105ea5756fea2646970667358221220cad941b9d7e9becfce8dfa10b2d5565e7919b6efb8a55095389b94714c700f9664736f6c63430008210033000000000000000000000000000000000000000000000000000000000000006000000000000000000000000000000000000000000000000000000000000000a00000000000000000000000000000000000000000000000000000000000000012000000000000000000000000000000000000000000000000000000000000000d577261707065642045746865720000000000000000000000000000000000000000000000000000000000000000000000000000000000000000000000000000045745544800000000000000000000000000000000000000000000000000000000",
        "nonce": "0x54b",
        "chainId": "0xa455"
      },
      "additionalContracts": [],
      "isFixedGasLimit": false
    },
    {
      "hash": "0x4ada56df48d602455180caeacf14ebcf6022a9bca6a02a98c1a051054d6765f0",
      "transactionType": "CREATE",
      "contractName": "SwapMockERC20",
      "contractAddress": "0x229e614bc82229b423921efdc4c6e498d7876bc1",
      "function": null,
      "arguments": [
        "USD Coin",
        "USDC",
        "6"
      ],
      "transaction": {
        "from": "0xf39fd6e51aad88f6f4ce6ab8827279cfffb92266",
        "gas": "0x995d6",
        "value": "0x0",
        "input": "0x608060405234610341576109fd8038038061001981610345565b9283398101906060818303126103415780516001600160401b038111610341578261004591830161036a565b60208201519092906001600160401b0381116103415760409161006991840161036a565b91015160ff81168091036103415782516001600160401b03811161024a575f54600181811c91168015610337575b602082101461022c57601f81116102ca575b506020601f821160011461026957819293945f9261025e575b50508160011b915f199060031b1c1916175f555b81516001600160401b03811161024a57600154600181811c91168015610240575b602082101461022c57601f81116101be575b50602092601f821160011461015d57928192935f92610152575b50508160011b915f199060031b1c1916176001555b60ff19600254161760025560405161064190816103bc8239f35b015190505f80610123565b601f1982169360015f52805f20915f5b8681106101a6575083600195961061018e575b505050811b01600155610138565b01515f1960f88460031b161c191690555f8080610180565b9192602060018192868501518155019401920161016d565b818111156101095760015f52601f820160051c7fb10e2d527612073b26eecdfd717e6a320cf44b4afac2b0732d9fcbe2b7fa0cf660208410610224575b81601f9101920160051c03905f5b828110610217575050610109565b5f82820155600101610209565b5f91506101fb565b634e487b7160e01b5f52602260045260245ffd5b90607f16906100f7565b634e487b7160e01b5f52604160045260245ffd5b015190505f806100c2565b601f198216905f8052805f20915f5b8181106102b25750958360019596971061029a575b505050811b015f556100d6565b01515f1960f88460031b161c191690555f808061028d565b9192602060018192868b015181550194019201610278565b818111156100a9575f8052601f820160051c7f290decd9548b62a8d60345a988386fc84ba6bc95484008f6362f93160ef3e5636020841061032f575b81601f9101920160051c03905f5b8281106103225750506100a9565b5f82820155600101610314565b5f9150610306565b90607f1690610097565b5f80fd5b6040519190601f01601f191682016001600160401b0381118382101761024a57604052565b81601f82011215610341578051906001600160401b03821161024a57610399601f8301601f1916602001610345565b928284526020838301011161034157815f9260208093018386015e830101529056fe60806040526004361015610011575f80fd5b5f3560e01c806306fdde03146104b5578063095ea7b31461043c57806318160ddd1461041f57806323b872dd1461035a578063313ce5671461033a57806340c10f19146102c057806370a082311461028857806395d89b411461016a578063a9059cbb146100db5763dd62ed3e14610087575f80fd5b346100d75760403660031901126100d7576100a06105b1565b6100a86105c7565b6001600160a01b039182165f908152600560209081526040808320949093168252928352819020549051908152f35b5f80fd5b346100d75760403660031901126100d7576100f46105b1565b60243590335f52600460205260405f2061010f8382546105dd565b905560018060a01b031690815f52600460205260405f206101318282546105fe565b90556040519081527fddf252ad1be2c89b69c2b068fc378daa952ba7f163c4a11628f55a4df523b3ef60203392a3602060405160018152f35b346100d7575f3660031901126100d7576040515f6001548060011c9060018116801561027e575b60208310811461026a5782855290811561024e57506001146101f8575b50819003601f01601f191681019067ffffffffffffffff8211818310176101e457604082905281906101e09082610587565b0390f35b634e487b7160e01b5f52604160045260245ffd5b60015f9081529091507fb10e2d527612073b26eecdfd717e6a320cf44b4afac2b0732d9fcbe2b7fa0cf65b828210610238575060209150820101826101ae565b6001816020925483858801015201910190610223565b90506020925060ff191682840152151560051b820101826101ae565b634e487b7160e01b5f52602260045260245ffd5b91607f1691610191565b346100d75760203660031901126100d7576001600160a01b036102a96105b1565b165f526004602052602060405f2054604051908152f35b346100d75760403660031901126100d7576102d96105b1565b5f7fddf252ad1be2c89b69c2b068fc378daa952ba7f163c4a11628f55a4df523b3ef60206024359361030d856003546105fe565b60035560018060a01b031693848452600482526040842061032f8282546105fe565b9055604051908152a3005b346100d7575f3660031901126100d757602060ff60025416604051908152f35b346100d75760603660031901126100d7576103736105b1565b61037b6105c7565b7fddf252ad1be2c89b69c2b068fc378daa952ba7f163c4a11628f55a4df523b3ef60206044359360018060a01b031692835f526005825260405f2060018060a01b0333165f52825260405f206103d28682546105dd565b9055835f526004825260405f206103ea8682546105dd565b905560018060a01b031693845f526004825260405f2061040b8282546105fe565b9055604051908152a3602060405160018152f35b346100d7575f3660031901126100d7576020600354604051908152f35b346100d75760403660031901126100d7576104556105b1565b335f8181526005602090815260408083206001600160a01b03909516808452948252918290206024359081905591519182527f8c5be1e5ebec7d5bd14f71427d1e84f3dd0314c0f7b2291e5b200ac8c7c3b92591a3602060405160018152f35b346100d7575f3660031901126100d7576040515f5f548060011c9060018116801561057d575b60208310811461026a5782855290811561024e57506001146105295750819003601f01601f191681019067ffffffffffffffff8211818310176101e457604082905281906101e09082610587565b5f8080529091507f290decd9548b62a8d60345a988386fc84ba6bc95484008f6362f93160ef3e5635b828210610567575060209150820101826101ae565b6001816020925483858801015201910190610552565b91607f16916104db565b602060409281835280519182918282860152018484015e5f828201840152601f01601f1916010190565b600435906001600160a01b03821682036100d757565b602435906001600160a01b03821682036100d757565b919082039182116105ea57565b634e487b7160e01b5f52601160045260245ffd5b919082018092116105ea5756fea2646970667358221220cad941b9d7e9becfce8dfa10b2d5565e7919b6efb8a55095389b94714c700f9664736f6c63430008210033000000000000000000000000000000000000000000000000000000000000006000000000000000000000000000000000000000000000000000000000000000a00000000000000000000000000000000000000000000000000000000000000006000000000000000000000000000000000000000000000000000000000000000855534420436f696e00000000000000000000000000000000000000000000000000000000000000000000000000000000000000000000000000000000000000045553444300000000000000000000000000000000000000000000000000000000",
        "nonce": "0x54c",
        "chainId": "0xa455"
      },
      "additionalContracts": [],
      "isFixedGasLimit": false
    },
    {
      "hash": "0x9cffee3b8888c4f2ab36375cc78bd0a132919df0752bd1b9733a8dfcca1c0707",
      "transactionType": "CALL",
      "contractName": "SwapMockERC20",
      "contractAddress": "0x816c1209974ffac86cf3639ba11ed299e587754b",
      "function": "mint(address,uint256)",
      "arguments": [
        "0xf39Fd6e51aad88F6F4ce6aB8827279cffFb92266",
        "4000000000000000000000000"
      ],
      "transaction": {
        "from": "0xf39fd6e51aad88f6f4ce6ab8827279cfffb92266",
        "to": "0x816c1209974ffac86cf3639ba11ed299e587754b",
        "gas": "0x16fd8",
        "value": "0x0",
        "input": "0x40c10f19000000000000000000000000f39fd6e51aad88f6f4ce6ab8827279cfffb92266000000000000000000000000000000000000000000034f086f3b33b684000000",
        "nonce": "0x54d",
        "chainId": "0xa455"
      },
      "additionalContracts": [],
      "isFixedGasLimit": false
    },
    {
      "hash": "0x2bab4fbdc416339fe3efa4ae945701c322ca00488a9e9fc29ab084b8603ef061",
      "transactionType": "CALL",
      "contractName": "SwapMockERC20",
      "contractAddress": "0x45a755b058492558351f188e4362f0546bc3d140",
      "function": "mint(address,uint256)",
      "arguments": [
        "0xf39Fd6e51aad88F6F4ce6aB8827279cffFb92266",
        "2000000000000000000000"
      ],
      "transaction": {
        "from": "0xf39fd6e51aad88f6f4ce6ab8827279cfffb92266",
        "to": "0x45a755b058492558351f188e4362f0546bc3d140",
        "gas": "0x16fc7",
        "value": "0x0",
        "input": "0x40c10f19000000000000000000000000f39fd6e51aad88f6f4ce6ab8827279cfffb9226600000000000000000000000000000000000000000000006c6b935b8bbd400000",
        "nonce": "0x54e",
        "chainId": "0xa455"
      },
      "additionalContracts": [],
      "isFixedGasLimit": false
    },
    {
      "hash": "0xde98025b15d6fd551ced57dd3e99df1f0bce12ce1e935748d8d479129119e40d",
      "transactionType": "CALL",
      "contractName": "SwapMockERC20",
      "contractAddress": "0x229e614bc82229b423921efdc4c6e498d7876bc1",
      "function": "mint(address,uint256)",
      "arguments": [
        "0xf39Fd6e51aad88F6F4ce6aB8827279cffFb92266",
        "4000000000000"
      ],
      "transaction": {
        "from": "0xf39fd6e51aad88f6f4ce6ab8827279cfffb92266",
        "to": "0x229e614bc82229b423921efdc4c6e498d7876bc1",
        "gas": "0x16fa5",
        "value": "0x0",
        "input": "0x40c10f19000000000000000000000000f39fd6e51aad88f6f4ce6ab8827279cfffb92266000000000000000000000000000000000000000000000000000003a352944000",
        "nonce": "0x54f",
        "chainId": "0xa455"
      },
      "additionalContracts": [],
      "isFixedGasLimit": false
    },
    {
      "hash": "0x836c8b2eb2daab591c55ddfa4a489841a7a7fa5b52fc469ff78e16f75fa62096",
      "transactionType": "CREATE",
      "contractName": "SwapGoodPool",
      "contractAddress": "0x62dd46d2a01a202a66d4ec6947fe88c5ac309232",
      "function": null,
      "arguments": [
        "0x816C1209974fFac86Cf3639bA11ED299E587754B",
        "0x45A755B058492558351f188e4362F0546Bc3d140",
        "0xf39Fd6e51aad88F6F4ce6aB8827279cffFb92266"
      ],
      "transaction": {
        "from": "0xf39fd6e51aad88f6f4ce6ab8827279cfffb92266",
        "gas": "0x114f84",
        "value": "0x0",
        "input": "0x60c03461014d57601f610fd538819003918201601f19168301916001600160401b038311848410176101515780849260609460405283398101031261014d5761004781610165565b90610060604061005960208401610165565b9201610165565b916001600160a01b0382811690821680821461010857101561010357905b60a052608052600180546001600160a01b0319166001600160a01b0392909216919091179055604051610e5b908161017a823960805181818160f60152818161023601528181610673015281816109840152610c76015260a0518181816101b201528181610298015281816105ee015281816106d2015281816109de0152610b330152f35b61007e565b60405162461bcd60e51b815260206004820152601a60248201527f476f6f64506f6f6c3a206964656e746963616c20746f6b656e730000000000006044820152606490fd5b5f80fd5b634e487b7160e01b5f52604160045260245ffd5b51906001600160a01b038216820361014d5756fe6080806040526004361015610012575f80fd5b5f3560e01c9081630fc63d1014610c645750806315770f9214610c4757806319e36f3b14610c2a578063398482d814610c10578063492fb34314610be95780635a0a3d8214610b625780635f64b55b14610b1e5780638da5cb5b14610af65780639c8f9f23146108c35780639cd441da1461061d5780639f1d0f591461021b578063b8c876b1146101e3578063ca706bcf146100d75763dc5fa6c5146100b6575f80fd5b346100d3575f3660031901126100d3576020600254604051908152f35b5f80fd5b346100d35760403660031901126100d3576100f0610ca5565b602435907f00000000000000000000000000000000000000000000000000000000000000006001600160a01b0390811691169081149061013990829081156101b0575b50610d93565b156101a35760025490600354915b601e8202828104601e148315171561018f5760209361017b61017461018795612710610181950490610d2b565b8092610cbb565b92610d86565b90610cce565b604051908152f35b634e487b7160e01b5f52601160045260245ffd5b6003549060025491610147565b7f00000000000000000000000000000000000000000000000000000000000000006001600160a01b031614905084610133565b346100d35760203660031901126100d3576001600160a01b03610204610ca5565b165f526005602052602060405f2054604051908152f35b346100d35760603660031901126100d357610234610ca5565b7f00000000000000000000000000000000000000000000000000000000000000006001600160a01b038181169216918214916024358380156105eb575b61027a90610d93565b80156105af5783156105a25760025490600354935b851561059c57507f0000000000000000000000000000000000000000000000000000000000000000945b6040516323b872dd60e01b8152336004820152306024820152604481018390526020816064815f895af180156104225761057f575b50601e8202828104601e0361018f5761271090049261031f6103108585610d2b565b916101818361017b818b610cbb565b95604435871061053a578610156104f5575f548492906001600160a01b031680610459575b501561042d5761035f9161035791610d86565b600254610d86565b60025561036e84600354610d2b565b6003555b60405163a9059cbb60e01b81523360048201526024810185905294602090869060449082905f906001600160a01b03165af1948515610422576020956103f7575b506040519283528483015282604083015260608201527f9734819749a91fc3be03ea83205f924ee08479bd3f0da48efc91d94d050cac1e60803392a2604051908152f35b61041690863d881161041b575b61040e8183610d38565b810190610d6e565b6103b3565b503d610404565b6040513d5f823e3d90fd5b6104429161043a91610d86565b600354610d86565b60035561045184600254610d2b565b600255610372565b909192610d0502858104610d05148615171561018f5761271090049081610485575b8593929150610344565b60405163a9059cbb60e01b81526001600160a01b039190911660048201526024810182905292949192916020836044815f8b5af1928315610422576104cf936104d8575b50610d2b565b9290878061047b565b6104f09060203d60201161041b5761040e8183610d38565b6104c9565b60405162461bcd60e51b815260206004820152601f60248201527f476f6f64506f6f6c3a20696e73756666696369656e74207265736572766573006044820152606490fd5b60405162461bcd60e51b815260206004820152601b60248201527f476f6f64506f6f6c3a20736c69707061676520657863656564656400000000006044820152606490fd5b6105979060203d60201161041b5761040e8183610d38565b6102ee565b946102b9565b600354906002549361028f565b60405162461bcd60e51b815260206004820152601460248201527311dbdbd9141bdbdb0e881e995c9bc81a5b9c1d5d60621b6044820152606490fd5b507f00000000000000000000000000000000000000000000000000000000000000006001600160a01b03168214610271565b346100d35760403660031901126100d357600435602435811515806108ba575b1561087d576040516323b872dd60e01b8152336004820152306024820152604481018390526020816064815f6001600160a01b037f0000000000000000000000000000000000000000000000000000000000000000165af1801561042257610860575b506040516323b872dd60e01b8152336004820152306024820152604481018290526020816064815f6001600160a01b037f0000000000000000000000000000000000000000000000000000000000000000165af1801561042257610843575b5060045491826108005761071b6107168383610cbb565b610ddf565b915b82156107ab57827f64b83944e79c3ce8d4c297411de637c3e102d064677aac0c163976ebdcd6f50e916107708260209761075987600254610d86565b60025561076884600354610d86565b600355610d86565b600455335f526005865260405f20610789838254610d86565b90556040805194855260208501919091528301523391606090a2604051908152f35b60405162461bcd60e51b815260206004820152602760248201527f476f6f64506f6f6c3a20696e73756666696369656e74206c6971756964697479604482015266081b5a5b9d195960ca1b6064820152608490fd5b61081661080d8483610cbb565b60025490610cce565b61082c6108238585610cbb565b60035490610cce565b8082101561083c57505b9161071d565b9050610836565b61085b9060203d60201161041b5761040e8183610d38565b6106ff565b6108789060203d60201161041b5761040e8183610d38565b6106a0565b60405162461bcd60e51b815260206004820152601560248201527411dbdbd9141bdbdb0e881e995c9bc8185b5bdd5b9d605a1b6044820152606490fd5b5080151561063d565b346100d35760203660031901126100d35760043580151580610ae0575b15610a9b576108f160025482610cbb565b6109136109016004548093610cce565b9161090e60035485610cbb565b610cce565b335f52600560205260405f2061092a848254610d2b565b905561093883600454610d2b565b60045561094782600254610d2b565b60025561095681600354610d2b565b60035560405163a9059cbb60e01b8152336004820152602481018390526020816044815f6001600160a01b037f0000000000000000000000000000000000000000000000000000000000000000165af1801561042257610a7e575b5060405163a9059cbb60e01b815233600482015260248101829052926020846044815f6001600160a01b037f0000000000000000000000000000000000000000000000000000000000000000165af193841561042257604094610a61575b507f1dc8bb69df2b8e91fbdcbfcf93d951b3f0000f085a95fe3f7946d6161439245d845180610a5233948688846040919493926060820195825260208201520152565b0390a282519182526020820152f35b610a799060203d60201161041b5761040e8183610d38565b610a0f565b610a969060203d60201161041b5761040e8183610d38565b6109b1565b60405162461bcd60e51b815260206004820152601760248201527f476f6f64506f6f6c3a20626164206c7020616d6f756e740000000000000000006044820152606490fd5b50335f52600560205260405f20548111156108e0565b346100d3575f3660031901126100d3576001546040516001600160a01b039091168152602090f35b346100d3575f3660031901126100d3576040517f00000000000000000000000000000000000000000000000000000000000000006001600160a01b03168152602090f35b346100d35760203660031901126100d357610b7b610ca5565b6001546001600160a01b03163303610bae575f80546001600160a01b0319166001600160a01b0392909216919091179055005b60405162461bcd60e51b815260206004820152601360248201527223b7b7b22837b7b61d103737ba1037bbb732b960691b6044820152606490fd5b346100d3575f3660031901126100d3575f546040516001600160a01b039091168152602090f35b346100d3575f3660031901126100d3576020610187610cec565b346100d3575f3660031901126100d3576020600354604051908152f35b346100d3575f3660031901126100d3576020600454604051908152f35b346100d3575f3660031901126100d3577f00000000000000000000000000000000000000000000000000000000000000006001600160a01b03168152602090f35b600435906001600160a01b03821682036100d357565b8181029291811591840414171561018f57565b8115610cd8570490565b634e487b7160e01b5f52601260045260245ffd5b6002548015610d265760035490670de0b6b3a7640000820291808304670de0b6b3a7640000149015171561018f57610d2391610cce565b90565b505f90565b9190820391821161018f57565b90601f8019910116810190811067ffffffffffffffff821117610d5a57604052565b634e487b7160e01b5f52604160045260245ffd5b908160209103126100d3575180151581036100d35790565b9190820180921161018f57565b15610d9a57565b60405162461bcd60e51b815260206004820152601760248201527f476f6f64506f6f6c3a20696e76616c696420746f6b656e0000000000000000006044820152606490fd5b908115610e20576001820180831161018f5760011c825b838210610e01575050565b909250610e1783610e128184610cce565b610d86565b60011c90610df6565b5f915056fea2646970667358221220fe1df444607b6dd09cf913196d287782c4db83684391edc53e824a69c98ee64864736f6c63430008210033000000000000000000000000816c1209974ffac86cf3639ba11ed299e587754b00000000000000000000000045a755b058492558351f188e4362f0546bc3d140000000000000000000000000f39fd6e51aad88f6f4ce6ab8827279cfffb92266",
        "nonce": "0x550",
        "chainId": "0xa455"
      },
      "additionalContracts": [],
      "isFixedGasLimit": false
    },
    {
      "hash": "0x77d8f92b5d3b0361537c57f2d5a9bc4ac1b9d1150455b406463eb9ba8e8b7eeb",
      "transactionType": "CREATE",
      "contractName": "SwapGoodPool",
      "contractAddress": "0xf2e1d9e3845b9321381877f7886f941a9539d739",
      "function": null,
      "arguments": [
        "0x816C1209974fFac86Cf3639bA11ED299E587754B",
        "0x229e614Bc82229b423921Efdc4C6E498D7876BC1",
        "0xf39Fd6e51aad88F6F4ce6aB8827279cffFb92266"
      ],
      "transaction": {
        "from": "0xf39fd6e51aad88f6f4ce6ab8827279cfffb92266",
        "gas": "0x114f84",
        "value": "0x0",
        "input": "0x60c03461014d57601f610fd538819003918201601f19168301916001600160401b038311848410176101515780849260609460405283398101031261014d5761004781610165565b90610060604061005960208401610165565b9201610165565b916001600160a01b0382811690821680821461010857101561010357905b60a052608052600180546001600160a01b0319166001600160a01b0392909216919091179055604051610e5b908161017a823960805181818160f60152818161023601528181610673015281816109840152610c76015260a0518181816101b201528181610298015281816105ee015281816106d2015281816109de0152610b330152f35b61007e565b60405162461bcd60e51b815260206004820152601a60248201527f476f6f64506f6f6c3a206964656e746963616c20746f6b656e730000000000006044820152606490fd5b5f80fd5b634e487b7160e01b5f52604160045260245ffd5b51906001600160a01b038216820361014d5756fe6080806040526004361015610012575f80fd5b5f3560e01c9081630fc63d1014610c645750806315770f9214610c4757806319e36f3b14610c2a578063398482d814610c10578063492fb34314610be95780635a0a3d8214610b625780635f64b55b14610b1e5780638da5cb5b14610af65780639c8f9f23146108c35780639cd441da1461061d5780639f1d0f591461021b578063b8c876b1146101e3578063ca706bcf146100d75763dc5fa6c5146100b6575f80fd5b346100d3575f3660031901126100d3576020600254604051908152f35b5f80fd5b346100d35760403660031901126100d3576100f0610ca5565b602435907f00000000000000000000000000000000000000000000000000000000000000006001600160a01b0390811691169081149061013990829081156101b0575b50610d93565b156101a35760025490600354915b601e8202828104601e148315171561018f5760209361017b61017461018795612710610181950490610d2b565b8092610cbb565b92610d86565b90610cce565b604051908152f35b634e487b7160e01b5f52601160045260245ffd5b6003549060025491610147565b7f00000000000000000000000000000000000000000000000000000000000000006001600160a01b031614905084610133565b346100d35760203660031901126100d3576001600160a01b03610204610ca5565b165f526005602052602060405f2054604051908152f35b346100d35760603660031901126100d357610234610ca5565b7f00000000000000000000000000000000000000000000000000000000000000006001600160a01b038181169216918214916024358380156105eb575b61027a90610d93565b80156105af5783156105a25760025490600354935b851561059c57507f0000000000000000000000000000000000000000000000000000000000000000945b6040516323b872dd60e01b8152336004820152306024820152604481018390526020816064815f895af180156104225761057f575b50601e8202828104601e0361018f5761271090049261031f6103108585610d2b565b916101818361017b818b610cbb565b95604435871061053a578610156104f5575f548492906001600160a01b031680610459575b501561042d5761035f9161035791610d86565b600254610d86565b60025561036e84600354610d2b565b6003555b60405163a9059cbb60e01b81523360048201526024810185905294602090869060449082905f906001600160a01b03165af1948515610422576020956103f7575b506040519283528483015282604083015260608201527f9734819749a91fc3be03ea83205f924ee08479bd3f0da48efc91d94d050cac1e60803392a2604051908152f35b61041690863d881161041b575b61040e8183610d38565b810190610d6e565b6103b3565b503d610404565b6040513d5f823e3d90fd5b6104429161043a91610d86565b600354610d86565b60035561045184600254610d2b565b600255610372565b909192610d0502858104610d05148615171561018f5761271090049081610485575b8593929150610344565b60405163a9059cbb60e01b81526001600160a01b039190911660048201526024810182905292949192916020836044815f8b5af1928315610422576104cf936104d8575b50610d2b565b9290878061047b565b6104f09060203d60201161041b5761040e8183610d38565b6104c9565b60405162461bcd60e51b815260206004820152601f60248201527f476f6f64506f6f6c3a20696e73756666696369656e74207265736572766573006044820152606490fd5b60405162461bcd60e51b815260206004820152601b60248201527f476f6f64506f6f6c3a20736c69707061676520657863656564656400000000006044820152606490fd5b6105979060203d60201161041b5761040e8183610d38565b6102ee565b946102b9565b600354906002549361028f565b60405162461bcd60e51b815260206004820152601460248201527311dbdbd9141bdbdb0e881e995c9bc81a5b9c1d5d60621b6044820152606490fd5b507f00000000000000000000000000000000000000000000000000000000000000006001600160a01b03168214610271565b346100d35760403660031901126100d357600435602435811515806108ba575b1561087d576040516323b872dd60e01b8152336004820152306024820152604481018390526020816064815f6001600160a01b037f0000000000000000000000000000000000000000000000000000000000000000165af1801561042257610860575b506040516323b872dd60e01b8152336004820152306024820152604481018290526020816064815f6001600160a01b037f0000000000000000000000000000000000000000000000000000000000000000165af1801561042257610843575b5060045491826108005761071b6107168383610cbb565b610ddf565b915b82156107ab57827f64b83944e79c3ce8d4c297411de637c3e102d064677aac0c163976ebdcd6f50e916107708260209761075987600254610d86565b60025561076884600354610d86565b600355610d86565b600455335f526005865260405f20610789838254610d86565b90556040805194855260208501919091528301523391606090a2604051908152f35b60405162461bcd60e51b815260206004820152602760248201527f476f6f64506f6f6c3a20696e73756666696369656e74206c6971756964697479604482015266081b5a5b9d195960ca1b6064820152608490fd5b61081661080d8483610cbb565b60025490610cce565b61082c6108238585610cbb565b60035490610cce565b8082101561083c57505b9161071d565b9050610836565b61085b9060203d60201161041b5761040e8183610d38565b6106ff565b6108789060203d60201161041b5761040e8183610d38565b6106a0565b60405162461bcd60e51b815260206004820152601560248201527411dbdbd9141bdbdb0e881e995c9bc8185b5bdd5b9d605a1b6044820152606490fd5b5080151561063d565b346100d35760203660031901126100d35760043580151580610ae0575b15610a9b576108f160025482610cbb565b6109136109016004548093610cce565b9161090e60035485610cbb565b610cce565b335f52600560205260405f2061092a848254610d2b565b905561093883600454610d2b565b60045561094782600254610d2b565b60025561095681600354610d2b565b60035560405163a9059cbb60e01b8152336004820152602481018390526020816044815f6001600160a01b037f0000000000000000000000000000000000000000000000000000000000000000165af1801561042257610a7e575b5060405163a9059cbb60e01b815233600482015260248101829052926020846044815f6001600160a01b037f0000000000000000000000000000000000000000000000000000000000000000165af193841561042257604094610a61575b507f1dc8bb69df2b8e91fbdcbfcf93d951b3f0000f085a95fe3f7946d6161439245d845180610a5233948688846040919493926060820195825260208201520152565b0390a282519182526020820152f35b610a799060203d60201161041b5761040e8183610d38565b610a0f565b610a969060203d60201161041b5761040e8183610d38565b6109b1565b60405162461bcd60e51b815260206004820152601760248201527f476f6f64506f6f6c3a20626164206c7020616d6f756e740000000000000000006044820152606490fd5b50335f52600560205260405f20548111156108e0565b346100d3575f3660031901126100d3576001546040516001600160a01b039091168152602090f35b346100d3575f3660031901126100d3576040517f00000000000000000000000000000000000000000000000000000000000000006001600160a01b03168152602090f35b346100d35760203660031901126100d357610b7b610ca5565b6001546001600160a01b03163303610bae575f80546001600160a01b0319166001600160a01b0392909216919091179055005b60405162461bcd60e51b815260206004820152601360248201527223b7b7b22837b7b61d103737ba1037bbb732b960691b6044820152606490fd5b346100d3575f3660031901126100d3575f546040516001600160a01b039091168152602090f35b346100d3575f3660031901126100d3576020610187610cec565b346100d3575f3660031901126100d3576020600354604051908152f35b346100d3575f3660031901126100d3576020600454604051908152f35b346100d3575f3660031901126100d3577f00000000000000000000000000000000000000000000000000000000000000006001600160a01b03168152602090f35b600435906001600160a01b03821682036100d357565b8181029291811591840414171561018f57565b8115610cd8570490565b634e487b7160e01b5f52601260045260245ffd5b6002548015610d265760035490670de0b6b3a7640000820291808304670de0b6b3a7640000149015171561018f57610d2391610cce565b90565b505f90565b9190820391821161018f57565b90601f8019910116810190811067ffffffffffffffff821117610d5a57604052565b634e487b7160e01b5f52604160045260245ffd5b908160209103126100d3575180151581036100d35790565b9190820180921161018f57565b15610d9a57565b60405162461bcd60e51b815260206004820152601760248201527f476f6f64506f6f6c3a20696e76616c696420746f6b656e0000000000000000006044820152606490fd5b908115610e20576001820180831161018f5760011c825b838210610e01575050565b909250610e1783610e128184610cce565b610d86565b60011c90610df6565b5f915056fea2646970667358221220fe1df444607b6dd09cf913196d287782c4db83684391edc53e824a69c98ee64864736f6c63430008210033000000000000000000000000816c1209974ffac86cf3639ba11ed299e587754b000000000000000000000000229e614bc82229b423921efdc4c6e498d7876bc1000000000000000000000000f39fd6e51aad88f6f4ce6ab8827279cfffb92266",
        "nonce": "0x551",
        "chainId": "0xa455"
      },
      "additionalContracts": [],
      "isFixedGasLimit": false
    },
    {
      "hash": "0x65fa97f4c11f6fb97f08ed0fb7c92bc60cba1071c67ed1cd26782ba1533414a3",
      "transactionType": "CREATE",
      "contractName": "SwapGoodPool",
      "contractAddress": "0xcd55135cc103d7568056a828100d96603380ddbe",
      "function": null,
      "arguments": [
        "0x45A755B058492558351f188e4362F0546Bc3d140",
        "0x229e614Bc82229b423921Efdc4C6E498D7876BC1",
        "0xf39Fd6e51aad88F6F4ce6aB8827279cffFb92266"
      ],
      "transaction": {
        "from": "0xf39fd6e51aad88f6f4ce6ab8827279cfffb92266",
        "gas": "0x114f84",
        "value": "0x0",
        "input": "0x60c03461014d57601f610fd538819003918201601f19168301916001600160401b038311848410176101515780849260609460405283398101031261014d5761004781610165565b90610060604061005960208401610165565b9201610165565b916001600160a01b0382811690821680821461010857101561010357905b60a052608052600180546001600160a01b0319166001600160a01b0392909216919091179055604051610e5b908161017a823960805181818160f60152818161023601528181610673015281816109840152610c76015260a0518181816101b201528181610298015281816105ee015281816106d2015281816109de0152610b330152f35b61007e565b60405162461bcd60e51b815260206004820152601a60248201527f476f6f64506f6f6c3a206964656e746963616c20746f6b656e730000000000006044820152606490fd5b5f80fd5b634e487b7160e01b5f52604160045260245ffd5b51906001600160a01b038216820361014d5756fe6080806040526004361015610012575f80fd5b5f3560e01c9081630fc63d1014610c645750806315770f9214610c4757806319e36f3b14610c2a578063398482d814610c10578063492fb34314610be95780635a0a3d8214610b625780635f64b55b14610b1e5780638da5cb5b14610af65780639c8f9f23146108c35780639cd441da1461061d5780639f1d0f591461021b578063b8c876b1146101e3578063ca706bcf146100d75763dc5fa6c5146100b6575f80fd5b346100d3575f3660031901126100d3576020600254604051908152f35b5f80fd5b346100d35760403660031901126100d3576100f0610ca5565b602435907f00000000000000000000000000000000000000000000000000000000000000006001600160a01b0390811691169081149061013990829081156101b0575b50610d93565b156101a35760025490600354915b601e8202828104601e148315171561018f5760209361017b61017461018795612710610181950490610d2b565b8092610cbb565b92610d86565b90610cce565b604051908152f35b634e487b7160e01b5f52601160045260245ffd5b6003549060025491610147565b7f00000000000000000000000000000000000000000000000000000000000000006001600160a01b031614905084610133565b346100d35760203660031901126100d3576001600160a01b03610204610ca5565b165f526005602052602060405f2054604051908152f35b346100d35760603660031901126100d357610234610ca5565b7f00000000000000000000000000000000000000000000000000000000000000006001600160a01b038181169216918214916024358380156105eb575b61027a90610d93565b80156105af5783156105a25760025490600354935b851561059c57507f0000000000000000000000000000000000000000000000000000000000000000945b6040516323b872dd60e01b8152336004820152306024820152604481018390526020816064815f895af180156104225761057f575b50601e8202828104601e0361018f5761271090049261031f6103108585610d2b565b916101818361017b818b610cbb565b95604435871061053a578610156104f5575f548492906001600160a01b031680610459575b501561042d5761035f9161035791610d86565b600254610d86565b60025561036e84600354610d2b565b6003555b60405163a9059cbb60e01b81523360048201526024810185905294602090869060449082905f906001600160a01b03165af1948515610422576020956103f7575b506040519283528483015282604083015260608201527f9734819749a91fc3be03ea83205f924ee08479bd3f0da48efc91d94d050cac1e60803392a2604051908152f35b61041690863d881161041b575b61040e8183610d38565b810190610d6e565b6103b3565b503d610404565b6040513d5f823e3d90fd5b6104429161043a91610d86565b600354610d86565b60035561045184600254610d2b565b600255610372565b909192610d0502858104610d05148615171561018f5761271090049081610485575b8593929150610344565b60405163a9059cbb60e01b81526001600160a01b039190911660048201526024810182905292949192916020836044815f8b5af1928315610422576104cf936104d8575b50610d2b565b9290878061047b565b6104f09060203d60201161041b5761040e8183610d38565b6104c9565b60405162461bcd60e51b815260206004820152601f60248201527f476f6f64506f6f6c3a20696e73756666696369656e74207265736572766573006044820152606490fd5b60405162461bcd60e51b815260206004820152601b60248201527f476f6f64506f6f6c3a20736c69707061676520657863656564656400000000006044820152606490fd5b6105979060203d60201161041b5761040e8183610d38565b6102ee565b946102b9565b600354906002549361028f565b60405162461bcd60e51b815260206004820152601460248201527311dbdbd9141bdbdb0e881e995c9bc81a5b9c1d5d60621b6044820152606490fd5b507f00000000000000000000000000000000000000000000000000000000000000006001600160a01b03168214610271565b346100d35760403660031901126100d357600435602435811515806108ba575b1561087d576040516323b872dd60e01b8152336004820152306024820152604481018390526020816064815f6001600160a01b037f0000000000000000000000000000000000000000000000000000000000000000165af1801561042257610860575b506040516323b872dd60e01b8152336004820152306024820152604481018290526020816064815f6001600160a01b037f0000000000000000000000000000000000000000000000000000000000000000165af1801561042257610843575b5060045491826108005761071b6107168383610cbb565b610ddf565b915b82156107ab57827f64b83944e79c3ce8d4c297411de637c3e102d064677aac0c163976ebdcd6f50e916107708260209761075987600254610d86565b60025561076884600354610d86565b600355610d86565b600455335f526005865260405f20610789838254610d86565b90556040805194855260208501919091528301523391606090a2604051908152f35b60405162461bcd60e51b815260206004820152602760248201527f476f6f64506f6f6c3a20696e73756666696369656e74206c6971756964697479604482015266081b5a5b9d195960ca1b6064820152608490fd5b61081661080d8483610cbb565b60025490610cce565b61082c6108238585610cbb565b60035490610cce565b8082101561083c57505b9161071d565b9050610836565b61085b9060203d60201161041b5761040e8183610d38565b6106ff565b6108789060203d60201161041b5761040e8183610d38565b6106a0565b60405162461bcd60e51b815260206004820152601560248201527411dbdbd9141bdbdb0e881e995c9bc8185b5bdd5b9d605a1b6044820152606490fd5b5080151561063d565b346100d35760203660031901126100d35760043580151580610ae0575b15610a9b576108f160025482610cbb565b6109136109016004548093610cce565b9161090e60035485610cbb565b610cce565b335f52600560205260405f2061092a848254610d2b565b905561093883600454610d2b565b60045561094782600254610d2b565b60025561095681600354610d2b565b60035560405163a9059cbb60e01b8152336004820152602481018390526020816044815f6001600160a01b037f0000000000000000000000000000000000000000000000000000000000000000165af1801561042257610a7e575b5060405163a9059cbb60e01b815233600482015260248101829052926020846044815f6001600160a01b037f0000000000000000000000000000000000000000000000000000000000000000165af193841561042257604094610a61575b507f1dc8bb69df2b8e91fbdcbfcf93d951b3f0000f085a95fe3f7946d6161439245d845180610a5233948688846040919493926060820195825260208201520152565b0390a282519182526020820152f35b610a799060203d60201161041b5761040e8183610d38565b610a0f565b610a969060203d60201161041b5761040e8183610d38565b6109b1565b60405162461bcd60e51b815260206004820152601760248201527f476f6f64506f6f6c3a20626164206c7020616d6f756e740000000000000000006044820152606490fd5b50335f52600560205260405f20548111156108e0565b346100d3575f3660031901126100d3576001546040516001600160a01b039091168152602090f35b346100d3575f3660031901126100d3576040517f00000000000000000000000000000000000000000000000000000000000000006001600160a01b03168152602090f35b346100d35760203660031901126100d357610b7b610ca5565b6001546001600160a01b03163303610bae575f80546001600160a01b0319166001600160a01b0392909216919091179055005b60405162461bcd60e51b815260206004820152601360248201527223b7b7b22837b7b61d103737ba1037bbb732b960691b6044820152606490fd5b346100d3575f3660031901126100d3575f546040516001600160a01b039091168152602090f35b346100d3575f3660031901126100d3576020610187610cec565b346100d3575f3660031901126100d3576020600354604051908152f35b346100d3575f3660031901126100d3576020600454604051908152f35b346100d3575f3660031901126100d3577f00000000000000000000000000000000000000000000000000000000000000006001600160a01b03168152602090f35b600435906001600160a01b03821682036100d357565b8181029291811591840414171561018f57565b8115610cd8570490565b634e487b7160e01b5f52601260045260245ffd5b6002548015610d265760035490670de0b6b3a7640000820291808304670de0b6b3a7640000149015171561018f57610d2391610cce565b90565b505f90565b9190820391821161018f57565b90601f8019910116810190811067ffffffffffffffff821117610d5a57604052565b634e487b7160e01b5f52604160045260245ffd5b908160209103126100d3575180151581036100d35790565b9190820180921161018f57565b15610d9a57565b60405162461bcd60e51b815260206004820152601760248201527f476f6f64506f6f6c3a20696e76616c696420746f6b656e0000000000000000006044820152606490fd5b908115610e20576001820180831161018f5760011c825b838210610e01575050565b909250610e1783610e128184610cce565b610d86565b60011c90610df6565b5f915056fea2646970667358221220fe1df444607b6dd09cf913196d287782c4db83684391edc53e824a69c98ee64864736f6c6343000821003300000000000000000000000045a755b058492558351f188e4362f0546bc3d140000000000000000000000000229e614bc82229b423921efdc4c6e498d7876bc1000000000000000000000000f39fd6e51aad88f6f4ce6ab8827279cfffb92266",
        "nonce": "0x552",
        "chainId": "0xa455"
      },
      "additionalContracts": [],
      "isFixedGasLimit": false
    },
    {
      "hash": "0xafdafb1bb6bb307045660be5092ec30f93637234c8c385cf23321da1f0ed9215",
      "transactionType": "CALL",
      "contractName": "SwapGoodPool",
      "contractAddress": "0x62dd46d2a01a202a66d4ec6947fe88c5ac309232",
      "function": "setFeeBeneficiary(address)",
      "arguments": [
        "0x976fcd02f7C4773dd89C309fBF55D5923B4c98a1"
      ],
      "transaction": {
        "from": "0xf39fd6e51aad88f6f4ce6ab8827279cfffb92266",
        "to": "0x62dd46d2a01a202a66d4ec6947fe88c5ac309232",
        "gas": "0xf879",
        "value": "0x0",
        "input": "0x5a0a3d82000000000000000000000000976fcd02f7c4773dd89c309fbf55d5923b4c98a1",
        "nonce": "0x553",
        "chainId": "0xa455"
      },
      "additionalContracts": [],
      "isFixedGasLimit": false
    },
    {
      "hash": "0x2a22d35db0f3c3a600735afe1c60fef599d5206a4e4a70d7f705ca11cbd64751",
      "transactionType": "CALL",
      "contractName": "SwapGoodPool",
      "contractAddress": "0xf2e1d9e3845b9321381877f7886f941a9539d739",
      "function": "setFeeBeneficiary(address)",
      "arguments": [
        "0x976fcd02f7C4773dd89C309fBF55D5923B4c98a1"
      ],
      "transaction": {
        "from": "0xf39fd6e51aad88f6f4ce6ab8827279cfffb92266",
        "to": "0xf2e1d9e3845b9321381877f7886f941a9539d739",
        "gas": "0xf879",
        "value": "0x0",
        "input": "0x5a0a3d82000000000000000000000000976fcd02f7c4773dd89c309fbf55d5923b4c98a1",
        "nonce": "0x554",
        "chainId": "0xa455"
      },
      "additionalContracts": [],
      "isFixedGasLimit": false
    },
    {
      "hash": "0xa22c900c319ad77835d97249cb1002d209f8ea97a644749c2d1280b1b3cf06bd",
      "transactionType": "CALL",
      "contractName": "SwapGoodPool",
      "contractAddress": "0xcd55135cc103d7568056a828100d96603380ddbe",
      "function": "setFeeBeneficiary(address)",
      "arguments": [
        "0x976fcd02f7C4773dd89C309fBF55D5923B4c98a1"
      ],
      "transaction": {
        "from": "0xf39fd6e51aad88f6f4ce6ab8827279cfffb92266",
        "to": "0xcd55135cc103d7568056a828100d96603380ddbe",
        "gas": "0xf879",
        "value": "0x0",
        "input": "0x5a0a3d82000000000000000000000000976fcd02f7c4773dd89c309fbf55d5923b4c98a1",
        "nonce": "0x555",
        "chainId": "0xa455"
      },
      "additionalContracts": [],
      "isFixedGasLimit": false
    },
    {
      "hash": "0x98044f8bf574c51b7960c0a96ec8a2600c617227aa7ef35c9fc7e68059ea120e",
      "transactionType": "CALL",
      "contractName": "SwapMockERC20",
      "contractAddress": "0x816c1209974ffac86cf3639ba11ed299e587754b",
      "function": "approve(address,uint256)",
      "arguments": [
        "0x62Dd46d2a01A202a66d4eC6947fe88c5ac309232",
        "3000000000000000000000000"
      ],
      "transaction": {
        "from": "0xf39fd6e51aad88f6f4ce6ab8827279cfffb92266",
        "to": "0x816c1209974ffac86cf3639ba11ed299e587754b",
        "gas": "0x10691",
        "value": "0x0",
        "input": "0x095ea7b300000000000000000000000062dd46d2a01a202a66d4ec6947fe88c5ac309232000000000000000000000000000000000000000000027b46536c66c8e3000000",
        "nonce": "0x556",
        "chainId": "0xa455"
      },
      "additionalContracts": [],
      "isFixedGasLimit": false
    },
    {
      "hash": "0xeebbc2907cb5de441310e30baf593d6bf886ab4cdf28fe1b889202c8810f7c5f",
      "transactionType": "CALL",
      "contractName": "SwapMockERC20",
      "contractAddress": "0x45a755b058492558351f188e4362f0546bc3d140",
      "function": "approve(address,uint256)",
      "arguments": [
        "0x62Dd46d2a01A202a66d4eC6947fe88c5ac309232",
        "1000000000000000000000"
      ],
      "transaction": {
        "from": "0xf39fd6e51aad88f6f4ce6ab8827279cfffb92266",
        "to": "0x45a755b058492558351f188e4362f0546bc3d140",
        "gas": "0xf7ea",
        "value": "0x0",
        "input": "0x095ea7b300000000000000000000000062dd46d2a01a202a66d4ec6947fe88c5ac30923200000000000000000000000000000000000000000000003635c9adc5dea00000",
        "nonce": "0x557",
        "chainId": "0xa455"
      },
      "additionalContracts": [],
      "isFixedGasLimit": false
    },
    {
      "hash": "0x9a2d14e8914270a684be551290bc092bb3cb13439b8196a41132e126f7cfc6d7",
      "transactionType": "CALL",
      "contractName": "SwapGoodPool",
      "contractAddress": "0x62dd46d2a01a202a66d4ec6947fe88c5ac309232",
      "function": "addLiquidity(uint256,uint256)",
      "arguments": [
        "1000000000000000000000",
        "3000000000000000000000000"
      ],
      "transaction": {
        "from": "0xf39fd6e51aad88f6f4ce6ab8827279cfffb92266",
        "to": "0x62dd46d2a01a202a66d4ec6947fe88c5ac309232",
        "gas": "0x44bc5",
        "value": "0x0",
        "input": "0x9cd441da00000000000000000000000000000000000000000000003635c9adc5dea00000000000000000000000000000000000000000000000027b46536c66c8e3000000",
        "nonce": "0x558",
        "chainId": "0xa455"
      },
      "additionalContracts": [],
      "isFixedGasLimit": false
    },
    {
      "hash": "0x4d9eba33ae469244d2bde2a17e3898135faacd8947045081ca510aadee624cfa",
      "transactionType": "CALL",
      "contractName": "SwapMockERC20",
      "contractAddress": "0x816c1209974ffac86cf3639ba11ed299e587754b",
      "function": "approve(address,uint256)",
      "arguments": [
        "0xf2e1D9e3845b9321381877F7886f941A9539d739",
        "1000000000000000000000000"
      ],
      "transaction": {
        "from": "0xf39fd6e51aad88f6f4ce6ab8827279cfffb92266",
        "to": "0x816c1209974ffac86cf3639ba11ed299e587754b",
        "gas": "0xf7ea",
        "value": "0x0",
        "input": "0x095ea7b3000000000000000000000000f2e1d9e3845b9321381877f7886f941a9539d73900000000000000000000000000000000000000000000d3c21bcecceda1000000",
        "nonce": "0x559",
        "chainId": "0xa455"
      },
      "additionalContracts": [],
      "isFixedGasLimit": false
    },
    {
      "hash": "0xf644ff6c373816bfe0ead86ce35f3137534d86079c514363dc9d6cad768c87bb",
      "transactionType": "CALL",
      "contractName": "SwapMockERC20",
      "contractAddress": "0x229e614bc82229b423921efdc4c6e498d7876bc1",
      "function": "approve(address,uint256)",
      "arguments": [
        "0xf2e1D9e3845b9321381877F7886f941A9539d739",
        "1000000000000"
      ],
      "transaction": {
        "from": "0xf39fd6e51aad88f6f4ce6ab8827279cfffb92266",
        "to": "0x229e614bc82229b423921efdc4c6e498d7876bc1",
        "gas": "0x1064b",
        "value": "0x0",
        "input": "0x095ea7b3000000000000000000000000f2e1d9e3845b9321381877f7886f941a9539d739000000000000000000000000000000000000000000000000000000e8d4a51000",
        "nonce": "0x55a",
        "chainId": "0xa455"
      },
      "additionalContracts": [],
      "isFixedGasLimit": false
    },
    {
      "hash": "0x7b82fa7ba8585ed9b30826d6f4f7a79f99f95dc12868bab850cf5e6e107194af",
      "transactionType": "CALL",
      "contractName": "SwapGoodPool",
      "contractAddress": "0xf2e1d9e3845b9321381877f7886f941a9539d739",
      "function": "addLiquidity(uint256,uint256)",
      "arguments": [
        "1000000000000",
        "1000000000000000000000000"
      ],
      "transaction": {
        "from": "0xf39fd6e51aad88f6f4ce6ab8827279cfffb92266",
        "to": "0xf2e1d9e3845b9321381877f7886f941a9539d739",
        "gas": "0x42088",
        "value": "0x0",
        "input": "0x9cd441da000000000000000000000000000000000000000000000000000000e8d4a5100000000000000000000000000000000000000000000000d3c21bcecceda1000000",
        "nonce": "0x55b",
        "chainId": "0xa455"
      },
      "additionalContracts": [],
      "isFixedGasLimit": false
    },
    {
      "hash": "0x1aa688dcbe5d146dfd4ed634de5dfb290eb79d02694783ba958a5db21db20609",
      "transactionType": "CALL",
      "contractName": "SwapMockERC20",
      "contractAddress": "0x45a755b058492558351f188e4362f0546bc3d140",
      "function": "approve(address,uint256)",
      "arguments": [
        "0xCd55135cC103D7568056a828100D96603380DDbE",
        "1000000000000000000000"
      ],
      "transaction": {
        "from": "0xf39fd6e51aad88f6f4ce6ab8827279cfffb92266",
        "to": "0x45a755b058492558351f188e4362f0546bc3d140",
        "gas": "0xf7ea",
        "value": "0x0",
        "input": "0x095ea7b3000000000000000000000000cd55135cc103d7568056a828100d96603380ddbe00000000000000000000000000000000000000000000003635c9adc5dea00000",
        "nonce": "0x55c",
        "chainId": "0xa455"
      },
      "additionalContracts": [],
      "isFixedGasLimit": false
    },
    {
      "hash": "0x143191d680666ca217acdbd3d90131dd5337dfcadb1bf81b96df87d0f3e0a6c7",
      "transactionType": "CALL",
      "contractName": "SwapMockERC20",
      "contractAddress": "0x229e614bc82229b423921efdc4c6e498d7876bc1",
      "function": "approve(address,uint256)",
      "arguments": [
        "0xCd55135cC103D7568056a828100D96603380DDbE",
        "3000000000000"
      ],
      "transaction": {
        "from": "0xf39fd6e51aad88f6f4ce6ab8827279cfffb92266",
        "to": "0x229e614bc82229b423921efdc4c6e498d7876bc1",
        "gas": "0xf7c9",
        "value": "0x0",
        "input": "0x095ea7b3000000000000000000000000cd55135cc103d7568056a828100d96603380ddbe000000000000000000000000000000000000000000000000000002ba7def3000",
        "nonce": "0x55d",
        "chainId": "0xa455"
      },
      "additionalContracts": [],
      "isFixedGasLimit": false
    },
    {
      "hash": "0x54e63bb43233b6bd6ab0107a0612eeb4293b2bef48bb4e88fa3aec84704b8034",
      "transactionType": "CALL",
      "contractName": "SwapGoodPool",
      "contractAddress": "0xcd55135cc103d7568056a828100d96603380ddbe",
      "function": "addLiquidity(uint256,uint256)",
      "arguments": [
        "3000000000000",
        "1000000000000000000000"
      ],
      "transaction": {
        "from": "0xf39fd6e51aad88f6f4ce6ab8827279cfffb92266",
        "to": "0xcd55135cc103d7568056a828100d96603380ddbe",
        "gas": "0x3c76b",
        "value": "0x0",
        "input": "0x9cd441da000000000000000000000000000000000000000000000000000002ba7def300000000000000000000000000000000000000000000000003635c9adc5dea00000",
        "nonce": "0x55e",
        "chainId": "0xa455"
      },
      "additionalContracts": [],
      "isFixedGasLimit": false
    },
    {
      "hash": "0x0f4c2fe549eedf4c795b3c107d194385542fb39f64820ed77b6e707b4e810120",
      "transactionType": "CREATE",
      "contractName": "GoodSwapRouter",
      "contractAddress": "0x287b17d9a505d3e08bcc2e32a563751784d7d9cf",
      "function": null,
      "arguments": [
        "0xf39Fd6e51aad88F6F4ce6aB8827279cffFb92266"
      ],
      "transaction": {
        "from": "0xf39fd6e51aad88f6f4ce6ab8827279cfffb92266",
        "gas": "0x109682",
        "value": "0x0",
        "input": "0x608034608357601f610e5038819003918201601f19168301916001600160401b03831184841017608757808492602094604052833981010312608357516001600160a01b0381169081900360835780156074575f80546001600160a01b031916919091179055604051610db4908161009c8239f35b63d92e233d60e01b5f5260045ffd5b5f80fd5b634e487b7160e01b5f52604160045260245ffdfe60806040526004361015610011575f80fd5b5f3560e01c80630a9a2b721461096257806338ed1739146106e1578063531aa03e146106a35780635e1e6325146105df578063744b92e2146105525780638803dbee146102855780638da5cb5b1461025e578063abd9084614610126578063b5217bb4146100f45763f2fde38b14610087575f80fd5b346100f05760203660031901126100f0576100a0610983565b5f54906001600160a01b03821633036100e1576001600160a01b03169081156100d2576001600160a01b031916175f55005b63d92e233d60e01b5f5260045ffd5b6330cd747160e01b5f5260045ffd5b5f80fd5b346100f05760203660031901126100f0576004355f526001602052602060018060a01b0360405f205416604051908152f35b346100f05760203660031901126100f05761013f610983565b5f546001600160a01b031633036100e1576001600160a01b031680156100d25760405162fc63d160e41b8152602081600481855afa908115610234575f9161023f575b50604051635f64b55b60e01b8152602081600481865afa908115610234575f91610205575b506101b28183610d18565b5f90815260016020526040812080546001600160a01b031916851790556001600160a01b0391821692909116907f61afef2e121f71511fab2583c5ac49a5dc1d7a8ad8ad91c44c8465f073a73ac49080a4005b610227915060203d60201161022d575b61021f8183610c87565b810190610cf9565b836101a7565b503d610215565b6040513d5f823e3d90fd5b610258915060203d60201161022d5761021f8183610c87565b82610182565b346100f0575f3660031901126100f0575f546040516001600160a01b039091168152602090f35b346100f057610293366109e9565b949290919442116105435760028503610534578415610520576102b581610c73565b94600110156105205760206102ca9101610c73565b6001600160a01b038216929083156100d2576102e7818784610a5d565b948511610511576102f88187610cd5565b6040516323b872dd60e01b8152336004820152306024820152604481018790526001600160a01b0388169391906020816064815f895af1908115610234575f916104f2575b50156104525760405163095ea7b360e01b81526001600160a01b0382166004820152602481018890526020816044815f895af1908115610234575f916104d3575b501561045257604051639f1d0f5960e01b81526001600160a01b039889166004820152602481018890526044810183905297602091899160649183915f91165af1968715610234575f9761049f575b5086106104905760405163a9059cbb60e01b81526001600160a01b039384166004820152602481018790529216916020816044815f875af1908115610234575f91610461575b5015610452577fb39c9bc43f811e1a7ce159c5f147458fdb80266bf23c17322013316e27e086d0604060209681519087825288820152a4604051908152f35b6312171d8360e31b5f5260045ffd5b610483915060203d602011610489575b61047b8183610c87565b810190610cbd565b86610413565b503d610471565b6342301c2360e01b5f5260045ffd5b9096506020813d6020116104cb575b816104bb60209383610c87565b810103126100f0575195876103cd565b3d91506104ae565b6104ec915060203d6020116104895761047b8183610c87565b8961037e565b61050b915060203d6020116104895761047b8183610c87565b8961033d565b63e1b0da4f60e01b5f5260045ffd5b634e487b7160e01b5f52603260045260245ffd5b6320db826760e01b5f5260045ffd5b630407b05b60e31b5f5260045ffd5b346100f05760403660031901126100f05761056b610983565b610573610999565b5f546001600160a01b031633036100e15761058e8183610d18565b5f90815260016020526040812080546001600160a01b03191690556001600160a01b0391821692909116907f987eb3c2f78454541205f72f34839b434c306c9eaf4922efd7c0c3060fdb2e4c9080a3005b346100f0576105ed366109af565b906001600160a01b036106008383610cd5565b1691821561067f5760405163ca706bcf60e01b81526001600160a01b038316600482015260248101859052602081604481875afa8015610234575f9061064c575b602090604051908152f35b506020813d602011610677575b8161066660209383610c87565b810103126100f05760209051610641565b3d9150610659565b631b27a82d60e11b5f9081526001600160a01b039283166004529116602452604490fd5b346100f05760403660031901126100f05760206106cf6106c1610983565b6106c9610999565b90610cd5565b6040516001600160a01b039091168152f35b346100f0576106ef366109e9565b9392909193421161054357600284036105345783156105205761071181610c73565b93600110156105205760206107269101610c73565b6001600160a01b038216929083156100d2576107428186610cd5565b916001600160a01b038316801561093e576040516323b872dd60e01b8152336004820152306024820152604481018990526001600160a01b03881694906020816064815f8a5af1908115610234575f9161091f575b50156104525760405163095ea7b360e01b81526001600160a01b03919091166004820152602481018990526020816044815f895af1908115610234575f91610900575b501561045257604051639f1d0f5960e01b81526001600160a01b039790971660048801526024870188905260448701829052602090879060649082905f905af1958615610234575f966108cc575b5085106104905760405163a9059cbb60e01b81526001600160a01b039384166004820152602481018690529216916020816044815f875af1908115610234575f916108ad575b5015610452577fb39c9bc43f811e1a7ce159c5f147458fdb80266bf23c17322013316e27e086d0604060209681519081528688820152a4604051908152f35b6108c6915060203d6020116104895761047b8183610c87565b8661086e565b9095506020813d6020116108f8575b816108e860209383610c87565b810103126100f057519487610828565b3d91506108db565b610919915060203d6020116104895761047b8183610c87565b896107da565b610938915060203d6020116104895761047b8183610c87565b8a610797565b631b27a82d60e11b5f9081526001600160a01b038089166004528416602452604490fd5b346100f057602061097b610975366109af565b91610a5d565b604051908152f35b600435906001600160a01b03821682036100f057565b602435906001600160a01b03821682036100f057565b60609060031901126100f057600435906024356001600160a01b03811681036100f057906044356001600160a01b03811681036100f05790565b9060a06003198301126100f057600435916024359160443567ffffffffffffffff81116100f057826023820112156100f05780600401359267ffffffffffffffff84116100f05760248460051b830101116100f05760240191906064356001600160a01b03811681036100f0579060843590565b91906001600160a01b03610a718383610cd5565b1691821561067f575060405163dc5fa6c560e01b815290602082600481865afa918215610234575f92610c3f575b506040516319e36f3b60e01b815292602084600481845afa938415610234575f94610c0a575b5060206004916040519283809262fc63d160e41b82525afa908115610234575f91610beb575b506001600160a01b03918216911603610be657905b80831015610b9357818302918383041483151715610b7f576127108202918083046127101490151715610b7f5782810392818411610b7f576126f284029384046126f21491141715610b7f57818101809111610b7f575f198101908111610b7f578115610b6b570490565b634e487b7160e01b5f52601260045260245ffd5b634e487b7160e01b5f52601160045260245ffd5b60405162461bcd60e51b815260206004820152602560248201527f476f6f6453776170526f757465723a20696e73756666696369656e7420726573604482015264657276657360d81b6064820152608490fd5b610b00565b610c04915060203d60201161022d5761021f8183610c87565b5f610aeb565b9093506020813d602011610c37575b81610c2660209383610c87565b810103126100f05751926020610ac5565b3d9150610c19565b9091506020813d602011610c6b575b81610c5b60209383610c87565b810103126100f05751905f610a9f565b3d9150610c4e565b356001600160a01b03811681036100f05790565b90601f8019910116810190811067ffffffffffffffff821117610ca957604052565b634e487b7160e01b5f52604160045260245ffd5b908160209103126100f0575180151581036100f05790565b90610cdf91610d18565b5f908152600160205260409020546001600160a01b031690565b908160209103126100f057516001600160a01b03811681036100f05790565b6001600160a01b038281169082161015610d7957905b6040519060208201926bffffffffffffffffffffffff199060601b1683526bffffffffffffffffffffffff199060601b16603482015260288152610d73604882610c87565b51902090565b610d2e56fea2646970667358221220d81f851e4dcb152acb4092ed256572c37947f68f75d1193eaa9eb7390fdc7cf564736f6c63430008210033000000000000000000000000f39fd6e51aad88f6f4ce6ab8827279cfffb92266",
        "nonce": "0x55f",
        "chainId": "0xa455"
      },
      "additionalContracts": [],
      "isFixedGasLimit": false
    },
    {
      "hash": "0x0ad4779e4e88cf7136db1e9126915a7fd58f5030e43e795d21326b5d52ce735e",
      "transactionType": "CALL",
      "contractName": "GoodSwapRouter",
      "contractAddress": "0x287b17d9a505d3e08bcc2e32a563751784d7d9cf",
      "function": "registerPool(address)",
      "arguments": [
        "0x62Dd46d2a01A202a66d4eC6947fe88c5ac309232"
      ],
      "transaction": {
        "from": "0xf39fd6e51aad88f6f4ce6ab8827279cfffb92266",
        "to": "0x287b17d9a505d3e08bcc2e32a563751784d7d9cf",
        "gas": "0x119ed",
        "value": "0x0",
        "input": "0xabd9084600000000000000000000000062dd46d2a01a202a66d4ec6947fe88c5ac309232",
        "nonce": "0x560",
        "chainId": "0xa455"
      },
      "additionalContracts": [],
      "isFixedGasLimit": false
    },
    {
      "hash": "0x5755fabbfe92c80c1f5d3e34e22484af84cb479e6ae21ce216f75cd92f141637",
      "transactionType": "CALL",
      "contractName": "GoodSwapRouter",
      "contractAddress": "0x287b17d9a505d3e08bcc2e32a563751784d7d9cf",
      "function": "registerPool(address)",
      "arguments": [
        "0xf2e1D9e3845b9321381877F7886f941A9539d739"
      ],
      "transaction": {
        "from": "0xf39fd6e51aad88f6f4ce6ab8827279cfffb92266",
        "to": "0x287b17d9a505d3e08bcc2e32a563751784d7d9cf",
        "gas": "0x119ed",
        "value": "0x0",
        "input": "0xabd90846000000000000000000000000f2e1d9e3845b9321381877f7886f941a9539d739",
        "nonce": "0x561",
        "chainId": "0xa455"
      },
      "additionalContracts": [],
      "isFixedGasLimit": false
    },
    {
      "hash": "0x026ab44a38f47013fff946744793cbfd0411c589c75b62a400da01143e8fd19d",
      "transactionType": "CALL",
      "contractName": "GoodSwapRouter",
      "contractAddress": "0x287b17d9a505d3e08bcc2e32a563751784d7d9cf",
      "function": "registerPool(address)",
      "arguments": [
        "0xCd55135cC103D7568056a828100D96603380DDbE"
      ],
      "transaction": {
        "from": "0xf39fd6e51aad88f6f4ce6ab8827279cfffb92266",
        "to": "0x287b17d9a505d3e08bcc2e32a563751784d7d9cf",
        "gas": "0x119ed",
        "value": "0x0",
        "input": "0xabd90846000000000000000000000000cd55135cc103d7568056a828100d96603380ddbe",
        "nonce": "0x562",
        "chainId": "0xa455"
      },
      "additionalContracts": [],
      "isFixedGasLimit": false
    }
  ],
  "receipts": [
    {
      "status": "0x1",
      "cumulativeGasUsed": "0x75fe5",
      "logs": [],
      "logsBloom": "0x00000000000000000000000000000000000000000000000000000000000000000000000000000000000000000000000000000000000000000000000000000000000000000000000000000000000000000000000000000000000000000000000000000000000000000000000000000000000000000000000000000000000000000000000000000000000000000000000000000000000000000000000000000000000000000000000000000000000000000000000000000000000000000000000000000000000000000000000000000000000000000000000000000000000000000000000000000000000000000000000000000000000000000000000000000000",
      "type": "0x0",
      "transactionHash": "0xf6e88825310886e8f995e7fb68dab4fa1c4202eff2a591ad60bad3bb3406a067",
      "transactionIndex": "0x0",
      "blockHash": "0x57de203e77a2309c6fe99d18b14058e4e7693706bcc5762e8cf0cea131b1a1df",
      "blockNumber": "0x5c8e5",
      "gasUsed": "0x75fe5",
      "effectiveGasPrice": "0x3b9aca07",
      "blobGasPrice": "0x1",
      "from": "0xf39fd6e51aad88f6f4ce6ab8827279cfffb92266",
      "to": null,
      "contractAddress": "0x816c1209974ffac86cf3639ba11ed299e587754b",
      "blockTimestamp": 1776252585
    },
    {
      "status": "0x1",
      "cumulativeGasUsed": "0xebfb2",
      "logs": [],
      "logsBloom": "0x00000000000000000000000000000000000000000000000000000000000000000000000000000000000000000000000000000000000000000000000000000000000000000000000000000000000000000000000000000000000000000000000000000000000000000000000000000000000000000000000000000000000000000000000000000000000000000000000000000000000000000000000000000000000000000000000000000000000000000000000000000000000000000000000000000000000000000000000000000000000000000000000000000000000000000000000000000000000000000000000000000000000000000000000000000000",
      "type": "0x0",
      "transactionHash": "0x54e63bb43233b6bd6ab0107a0612eeb4293b2bef48bb4e88fa3aec84704b8034",
      "transactionIndex": "0x1",
      "blockHash": "0x57de203e77a2309c6fe99d18b14058e4e7693706bcc5762e8cf0cea131b1a1df",
      "blockNumber": "0x5c8e5",
      "gasUsed": "0x75fcd",
      "effectiveGasPrice": "0x3b9aca07",
      "blobGasPrice": "0x1",
      "from": "0xf39fd6e51aad88f6f4ce6ab8827279cfffb92266",
      "to": null,
      "contractAddress": "0x45a755b058492558351f188e4362f0546bc3d140",
      "blockTimestamp": 1776252585
    },
    {
      "status": "0x1",
      "cumulativeGasUsed": "0x161f43",
      "logs": [],
      "logsBloom": "0x00000000000000000000000000000000000000000000000000000000000000000000000000000000000000000000000000000000000000000000000000000000000000000000000000000000000000000000000000000000000000000000000000000000000000000000000000000000000000000000000000000000000000000000000000000000000000000000000000000000000000000000000000000000000000000000000000000000000000000000000000000000000000000000000000000000000000000000000000000000000000000000000000000000000000000000000000000000000000000000000000000000000000000000000000000000",
      "type": "0x0",
      "transactionHash": "0x5755fabbfe92c80c1f5d3e34e22484af84cb479e6ae21ce216f75cd92f141637",
      "transactionIndex": "0x2",
      "blockHash": "0x57de203e77a2309c6fe99d18b14058e4e7693706bcc5762e8cf0cea131b1a1df",
      "blockNumber": "0x5c8e5",
      "gasUsed": "0x75f91",
      "effectiveGasPrice": "0x3b9aca07",
      "blobGasPrice": "0x1",
      "from": "0xf39fd6e51aad88f6f4ce6ab8827279cfffb92266",
      "to": null,
      "contractAddress": "0x229e614bc82229b423921efdc4c6e498d7876bc1",
      "blockTimestamp": 1776252585
    },
    {
      "status": "0x1",
      "cumulativeGasUsed": "0x172993",
      "logs": [
        {
          "address": "0x816c1209974ffac86cf3639ba11ed299e587754b",
          "topics": [
            "0xddf252ad1be2c89b69c2b068fc378daa952ba7f163c4a11628f55a4df523b3ef",
            "0x0000000000000000000000000000000000000000000000000000000000000000",
            "0x000000000000000000000000f39fd6e51aad88f6f4ce6ab8827279cfffb92266"
          ],
          "data": "0x000000000000000000000000000000000000000000034f086f3b33b684000000",
          "blockHash": "0x57de203e77a2309c6fe99d18b14058e4e7693706bcc5762e8cf0cea131b1a1df",
          "blockNumber": "0x5c8e5",
          "blockTimestamp": "0x69df76a9",
          "transactionHash": "0x0f4c2fe549eedf4c795b3c107d194385542fb39f64820ed77b6e707b4e810120",
          "transactionIndex": "0x3",
          "logIndex": "0x0",
          "removed": false
        }
      ],
      "logsBloom": "0x00000000000000000000000000000000000000000000000000000000000000002000000000000000000000000000000000000000000000000000000000000000000000000000000000000008000000000000000000000000000000000000000000000000020000000000000100000800000000000000000000000010000000000000000000000000000000000000000000000000000001000000000000000000000000000000000000000000000000000000000000000000000000000000000000000002000000200000000000000000000000102000000000000000000020000000000000000000000000000000000000000000000000000000000000000000",
      "type": "0x0",
      "transactionHash": "0x0f4c2fe549eedf4c795b3c107d194385542fb39f64820ed77b6e707b4e810120",
      "transactionIndex": "0x3",
      "blockHash": "0x57de203e77a2309c6fe99d18b14058e4e7693706bcc5762e8cf0cea131b1a1df",
      "blockNumber": "0x5c8e5",
      "gasUsed": "0x10a50",
      "effectiveGasPrice": "0x3b9aca07",
      "blobGasPrice": "0x1",
      "from": "0xf39fd6e51aad88f6f4ce6ab8827279cfffb92266",
      "to": "0x816c1209974ffac86cf3639ba11ed299e587754b",
      "contractAddress": null,
      "blockTimestamp": 1776252585
    },
    {
      "status": "0x1",
      "cumulativeGasUsed": "0x1833d7",
      "logs": [
        {
          "address": "0x45a755b058492558351f188e4362f0546bc3d140",
          "topics": [
            "0xddf252ad1be2c89b69c2b068fc378daa952ba7f163c4a11628f55a4df523b3ef",
            "0x0000000000000000000000000000000000000000000000000000000000000000",
            "0x000000000000000000000000f39fd6e51aad88f6f4ce6ab8827279cfffb92266"
          ],
          "data": "0x00000000000000000000000000000000000000000000006c6b935b8bbd400000",
          "blockHash": "0x57de203e77a2309c6fe99d18b14058e4e7693706bcc5762e8cf0cea131b1a1df",
          "blockNumber": "0x5c8e5",
          "blockTimestamp": "0x69df76a9",
          "transactionHash": "0x0ad4779e4e88cf7136db1e9126915a7fd58f5030e43e795d21326b5d52ce735e",
          "transactionIndex": "0x4",
          "logIndex": "0x1",
          "removed": false
        }
      ],
      "logsBloom": "0x00000000000000000000000000000000000000000000000000000000000000000000000000000000000000000000000000000000000000000000000000000000000000000000000000000008000000000000000000000000000000000000000000000000020000000000000100000800000000000000000000000010000000000000000000000000000000000000000000004000000000000000000000000000000000000000000000000000000000000000000000000000000000000000000000000002000000200000000000000000000000002000000000000000000020000040000040000000000000000000000000000000000000000000000000000000",
      "type": "0x0",
      "transactionHash": "0x0ad4779e4e88cf7136db1e9126915a7fd58f5030e43e795d21326b5d52ce735e",
      "transactionIndex": "0x4",
      "blockHash": "0x57de203e77a2309c6fe99d18b14058e4e7693706bcc5762e8cf0cea131b1a1df",
      "blockNumber": "0x5c8e5",
      "gasUsed": "0x10a44",
      "effectiveGasPrice": "0x3b9aca07",
      "blobGasPrice": "0x1",
      "from": "0xf39fd6e51aad88f6f4ce6ab8827279cfffb92266",
      "to": "0x45a755b058492558351f188e4362f0546bc3d140",
      "contractAddress": null,
      "blockTimestamp": 1776252585
    },
    {
      "status": "0x1",
      "cumulativeGasUsed": "0x193e03",
      "logs": [
        {
          "address": "0x229e614bc82229b423921efdc4c6e498d7876bc1",
          "topics": [
            "0xddf252ad1be2c89b69c2b068fc378daa952ba7f163c4a11628f55a4df523b3ef",
            "0x0000000000000000000000000000000000000000000000000000000000000000",
            "0x000000000000000000000000f39fd6e51aad88f6f4ce6ab8827279cfffb92266"
          ],
          "data": "0x000000000000000000000000000000000000000000000000000003a352944000",
          "blockHash": "0x57de203e77a2309c6fe99d18b14058e4e7693706bcc5762e8cf0cea131b1a1df",
          "blockNumber": "0x5c8e5",
          "blockTimestamp": "0x69df76a9",
          "transactionHash": "0x9cffee3b8888c4f2ab36375cc78bd0a132919df0752bd1b9733a8dfcca1c0707",
          "transactionIndex": "0x5",
          "logIndex": "0x2",
          "removed": false
        }
      ],
      "logsBloom": "0x00000000000000000000000000000000000000000000000000000000000000000000000000000000000000000000000000000000000000000000000000000000000000000000000000000008000000000000000000000000000000000000000000000000020000000000000100000800000000000000000000200010000000000000000800000000000000000000000000000000000000000000000000000000000000000000000000000000000000000000000000000000000000000010000000000002000000200000000000000000000000002000000000000000000020000000000000000000000000000000000000000000000000000000000000000000",
      "type": "0x0",
      "transactionHash": "0x9cffee3b8888c4f2ab36375cc78bd0a132919df0752bd1b9733a8dfcca1c0707",
      "transactionIndex": "0x5",
      "blockHash": "0x57de203e77a2309c6fe99d18b14058e4e7693706bcc5762e8cf0cea131b1a1df",
      "blockNumber": "0x5c8e5",
      "gasUsed": "0x10a2c",
      "effectiveGasPrice": "0x3b9aca07",
      "blobGasPrice": "0x1",
      "from": "0xf39fd6e51aad88f6f4ce6ab8827279cfffb92266",
      "to": "0x229e614bc82229b423921efdc4c6e498d7876bc1",
      "contractAddress": null,
      "blockTimestamp": 1776252585
    },
    {
      "status": "0x1",
      "cumulativeGasUsed": "0x268edf",
      "logs": [],
      "logsBloom": "0x00000000000000000000000000000000000000000000000000000000000000000000000000000000000000000000000000000000000000000000000000000000000000000000000000000000000000000000000000000000000000000000000000000000000000000000000000000000000000000000000000000000000000000000000000000000000000000000000000000000000000000000000000000000000000000000000000000000000000000000000000000000000000000000000000000000000000000000000000000000000000000000000000000000000000000000000000000000000000000000000000000000000000000000000000000000",
      "type": "0x0",
      "transactionHash": "0xde98025b15d6fd551ced57dd3e99df1f0bce12ce1e935748d8d479129119e40d",
      "transactionIndex": "0x6",
      "blockHash": "0x57de203e77a2309c6fe99d18b14058e4e7693706bcc5762e8cf0cea131b1a1df",
      "blockNumber": "0x5c8e5",
      "gasUsed": "0xd50dc",
      "effectiveGasPrice": "0x3b9aca07",
      "blobGasPrice": "0x1",
      "from": "0xf39fd6e51aad88f6f4ce6ab8827279cfffb92266",
      "to": null,
      "contractAddress": "0x62dd46d2a01a202a66d4ec6947fe88c5ac309232",
      "blockTimestamp": 1776252585
    },
    {
      "status": "0x1",
      "cumulativeGasUsed": "0x33dfbb",
      "logs": [],
      "logsBloom": "0x00000000000000000000000000000000000000000000000000000000000000000000000000000000000000000000000000000000000000000000000000000000000000000000000000000000000000000000000000000000000000000000000000000000000000000000000000000000000000000000000000000000000000000000000000000000000000000000000000000000000000000000000000000000000000000000000000000000000000000000000000000000000000000000000000000000000000000000000000000000000000000000000000000000000000000000000000000000000000000000000000000000000000000000000000000000",
      "type": "0x0",
      "transactionHash": "0x026ab44a38f47013fff946744793cbfd0411c589c75b62a400da01143e8fd19d",
      "transactionIndex": "0x7",
      "blockHash": "0x57de203e77a2309c6fe99d18b14058e4e7693706bcc5762e8cf0cea131b1a1df",
      "blockNumber": "0x5c8e5",
      "gasUsed": "0xd50dc",
      "effectiveGasPrice": "0x3b9aca07",
      "blobGasPrice": "0x1",
      "from": "0xf39fd6e51aad88f6f4ce6ab8827279cfffb92266",
      "to": null,
      "contractAddress": "0xf2e1d9e3845b9321381877f7886f941a9539d739",
      "blockTimestamp": 1776252585
    },
    {
      "status": "0x1",
      "cumulativeGasUsed": "0x413097",
      "logs": [],
      "logsBloom": "0x00000000000000000000000000000000000000000000000000000000000000000000000000000000000000000000000000000000000000000000000000000000000000000000000000000000000000000000000000000000000000000000000000000000000000000000000000000000000000000000000000000000000000000000000000000000000000000000000000000000000000000000000000000000000000000000000000000000000000000000000000000000000000000000000000000000000000000000000000000000000000000000000000000000000000000000000000000000000000000000000000000000000000000000000000000000",
      "type": "0x0",
      "transactionHash": "0x2bab4fbdc416339fe3efa4ae945701c322ca00488a9e9fc29ab084b8603ef061",
      "transactionIndex": "0x8",
      "blockHash": "0x57de203e77a2309c6fe99d18b14058e4e7693706bcc5762e8cf0cea131b1a1df",
      "blockNumber": "0x5c8e5",
      "gasUsed": "0xd50dc",
      "effectiveGasPrice": "0x3b9aca07",
      "blobGasPrice": "0x1",
      "from": "0xf39fd6e51aad88f6f4ce6ab8827279cfffb92266",
      "to": null,
      "contractAddress": "0xcd55135cc103d7568056a828100d96603380ddbe",
      "blockTimestamp": 1776252585
    },
    {
      "status": "0x1",
      "cumulativeGasUsed": "0x41e47b",
      "logs": [],
      "logsBloom": "0x00000000000000000000000000000000000000000000000000000000000000000000000000000000000000000000000000000000000000000000000000000000000000000000000000000000000000000000000000000000000000000000000000000000000000000000000000000000000000000000000000000000000000000000000000000000000000000000000000000000000000000000000000000000000000000000000000000000000000000000000000000000000000000000000000000000000000000000000000000000000000000000000000000000000000000000000000000000000000000000000000000000000000000000000000000000",
      "type": "0x0",
      "transactionHash": "0x836c8b2eb2daab591c55ddfa4a489841a7a7fa5b52fc469ff78e16f75fa62096",
      "transactionIndex": "0x9",
      "blockHash": "0x57de203e77a2309c6fe99d18b14058e4e7693706bcc5762e8cf0cea131b1a1df",
      "blockNumber": "0x5c8e5",
      "gasUsed": "0xb3e4",
      "effectiveGasPrice": "0x3b9aca07",
      "blobGasPrice": "0x1",
      "from": "0xf39fd6e51aad88f6f4ce6ab8827279cfffb92266",
      "to": "0x62dd46d2a01a202a66d4ec6947fe88c5ac309232",
      "contractAddress": null,
      "blockTimestamp": 1776252585
    },
    {
      "status": "0x1",
      "cumulativeGasUsed": "0x42985f",
      "logs": [],
      "logsBloom": "0x00000000000000000000000000000000000000000000000000000000000000000000000000000000000000000000000000000000000000000000000000000000000000000000000000000000000000000000000000000000000000000000000000000000000000000000000000000000000000000000000000000000000000000000000000000000000000000000000000000000000000000000000000000000000000000000000000000000000000000000000000000000000000000000000000000000000000000000000000000000000000000000000000000000000000000000000000000000000000000000000000000000000000000000000000000000",
      "type": "0x0",
      "transactionHash": "0x4ada56df48d602455180caeacf14ebcf6022a9bca6a02a98c1a051054d6765f0",
      "transactionIndex": "0xa",
      "blockHash": "0x57de203e77a2309c6fe99d18b14058e4e7693706bcc5762e8cf0cea131b1a1df",
      "blockNumber": "0x5c8e5",
      "gasUsed": "0xb3e4",
      "effectiveGasPrice": "0x3b9aca07",
      "blobGasPrice": "0x1",
      "from": "0xf39fd6e51aad88f6f4ce6ab8827279cfffb92266",
      "to": "0xf2e1d9e3845b9321381877f7886f941a9539d739",
      "contractAddress": null,
      "blockTimestamp": 1776252585
    },
    {
      "status": "0x1",
      "cumulativeGasUsed": "0x434c43",
      "logs": [],
      "logsBloom": "0x00000000000000000000000000000000000000000000000000000000000000000000000000000000000000000000000000000000000000000000000000000000000000000000000000000000000000000000000000000000000000000000000000000000000000000000000000000000000000000000000000000000000000000000000000000000000000000000000000000000000000000000000000000000000000000000000000000000000000000000000000000000000000000000000000000000000000000000000000000000000000000000000000000000000000000000000000000000000000000000000000000000000000000000000000000000",
      "type": "0x0",
      "transactionHash": "0x77d8f92b5d3b0361537c57f2d5a9bc4ac1b9d1150455b406463eb9ba8e8b7eeb",
      "transactionIndex": "0xb",
      "blockHash": "0x57de203e77a2309c6fe99d18b14058e4e7693706bcc5762e8cf0cea131b1a1df",
      "blockNumber": "0x5c8e5",
      "gasUsed": "0xb3e4",
      "effectiveGasPrice": "0x3b9aca07",
      "blobGasPrice": "0x1",
      "from": "0xf39fd6e51aad88f6f4ce6ab8827279cfffb92266",
      "to": "0xcd55135cc103d7568056a828100d96603380ddbe",
      "contractAddress": null,
      "blockTimestamp": 1776252585
    },
    {
      "status": "0x1",
      "cumulativeGasUsed": "0x43ffcc",
      "logs": [
        {
          "address": "0x816c1209974ffac86cf3639ba11ed299e587754b",
          "topics": [
            "0x8c5be1e5ebec7d5bd14f71427d1e84f3dd0314c0f7b2291e5b200ac8c7c3b925",
            "0x000000000000000000000000f39fd6e51aad88f6f4ce6ab8827279cfffb92266",
            "0x00000000000000000000000062dd46d2a01a202a66d4ec6947fe88c5ac309232"
          ],
          "data": "0x000000000000000000000000000000000000000000027b46536c66c8e3000000",
          "blockHash": "0x57de203e77a2309c6fe99d18b14058e4e7693706bcc5762e8cf0cea131b1a1df",
          "blockNumber": "0x5c8e5",
          "blockTimestamp": "0x69df76a9",
          "transactionHash": "0x65fa97f4c11f6fb97f08ed0fb7c92bc60cba1071c67ed1cd26782ba1533414a3",
          "transactionIndex": "0xc",
          "logIndex": "0x3",
          "removed": false
        }
      ],
      "logsBloom": "0x00000000000000000000000000000000000000000000000000000000000000002000000000000000000000000000000000000000000000000000000000200000000000000000000000000000000000000000000000000000000000000002000000000000000000000000000100000000000000000000000000000000000000000000000000000000000000000000000000000000000001000000000000000000020000000000000000000000000000000000000000000000000000000000000000000000000040200000000000000000000000102000000000000000000000000010000000000000000000000000000800000000000000000000000000000000",
      "type": "0x0",
      "transactionHash": "0x65fa97f4c11f6fb97f08ed0fb7c92bc60cba1071c67ed1cd26782ba1533414a3",
      "transactionIndex": "0xc",
      "blockHash": "0x57de203e77a2309c6fe99d18b14058e4e7693706bcc5762e8cf0cea131b1a1df",
      "blockNumber": "0x5c8e5",
      "gasUsed": "0xb389",
      "effectiveGasPrice": "0x3b9aca07",
      "blobGasPrice": "0x1",
      "from": "0xf39fd6e51aad88f6f4ce6ab8827279cfffb92266",
      "to": "0x816c1209974ffac86cf3639ba11ed299e587754b",
      "contractAddress": null,
      "blockTimestamp": 1776252585
    },
    {
      "status": "0x1",
      "cumulativeGasUsed": "0x44b349",
      "logs": [
        {
          "address": "0x45a755b058492558351f188e4362f0546bc3d140",
          "topics": [
            "0x8c5be1e5ebec7d5bd14f71427d1e84f3dd0314c0f7b2291e5b200ac8c7c3b925",
            "0x000000000000000000000000f39fd6e51aad88f6f4ce6ab8827279cfffb92266",
            "0x00000000000000000000000062dd46d2a01a202a66d4ec6947fe88c5ac309232"
          ],
          "data": "0x00000000000000000000000000000000000000000000003635c9adc5dea00000",
          "blockHash": "0x57de203e77a2309c6fe99d18b14058e4e7693706bcc5762e8cf0cea131b1a1df",
          "blockNumber": "0x5c8e5",
          "blockTimestamp": "0x69df76a9",
          "transactionHash": "0xafdafb1bb6bb307045660be5092ec30f93637234c8c385cf23321da1f0ed9215",
          "transactionIndex": "0xd",
          "logIndex": "0x4",
          "removed": false
        }
      ],
      "logsBloom": "0x00000000000000000000000000000000000000000000000000000000000000000000000000000000000000000000000000000000000000000000000000200000000000000000000000000000000000000000000000000000000000000002000000000000000000000000000100000000000000000000000000000000000000000000000000000000000000000000000000004000000000000000000000000000020000000000000000000000000000000000000000000000000000000000000000000000000040200000000000000000000000002000000000000000000000000050000040000000000000000000000800000000000000000000000000000000",
      "type": "0x0",
      "transactionHash": "0xafdafb1bb6bb307045660be5092ec30f93637234c8c385cf23321da1f0ed9215",
      "transactionIndex": "0xd",
      "blockHash": "0x57de203e77a2309c6fe99d18b14058e4e7693706bcc5762e8cf0cea131b1a1df",
      "blockNumber": "0x5c8e5",
      "gasUsed": "0xb37d",
      "effectiveGasPrice": "0x3b9aca07",
      "blobGasPrice": "0x1",
      "from": "0xf39fd6e51aad88f6f4ce6ab8827279cfffb92266",
      "to": "0x45a755b058492558351f188e4362f0546bc3d140",
      "contractAddress": null,
      "blockTimestamp": 1776252585
    },
    {
      "status": "0x1",
      "cumulativeGasUsed": "0x47a344",
      "logs": [
        {
          "address": "0x45a755b058492558351f188e4362f0546bc3d140",
          "topics": [
            "0xddf252ad1be2c89b69c2b068fc378daa952ba7f163c4a11628f55a4df523b3ef",
            "0x000000000000000000000000f39fd6e51aad88f6f4ce6ab8827279cfffb92266",
            "0x00000000000000000000000062dd46d2a01a202a66d4ec6947fe88c5ac309232"
          ],
          "data": "0x00000000000000000000000000000000000000000000003635c9adc5dea00000",
          "blockHash": "0x57de203e77a2309c6fe99d18b14058e4e7693706bcc5762e8cf0cea131b1a1df",
          "blockNumber": "0x5c8e5",
          "blockTimestamp": "0x69df76a9",
          "transactionHash": "0xa22c900c319ad77835d97249cb1002d209f8ea97a644749c2d1280b1b3cf06bd",
          "transactionIndex": "0xe",
          "logIndex": "0x5",
          "removed": false
        },
        {
          "address": "0x816c1209974ffac86cf3639ba11ed299e587754b",
          "topics": [
            "0xddf252ad1be2c89b69c2b068fc378daa952ba7f163c4a11628f55a4df523b3ef",
            "0x000000000000000000000000f39fd6e51aad88f6f4ce6ab8827279cfffb92266",
            "0x00000000000000000000000062dd46d2a01a202a66d4ec6947fe88c5ac309232"
          ],
          "data": "0x000000000000000000000000000000000000000000027b46536c66c8e3000000",
          "blockHash": "0x57de203e77a2309c6fe99d18b14058e4e7693706bcc5762e8cf0cea131b1a1df",
          "blockNumber": "0x5c8e5",
          "blockTimestamp": "0x69df76a9",
          "transactionHash": "0xa22c900c319ad77835d97249cb1002d209f8ea97a644749c2d1280b1b3cf06bd",
          "transactionIndex": "0xe",
          "logIndex": "0x6",
          "removed": false
        },
        {
          "address": "0x62dd46d2a01a202a66d4ec6947fe88c5ac309232",
          "topics": [
            "0x64b83944e79c3ce8d4c297411de637c3e102d064677aac0c163976ebdcd6f50e",
            "0x000000000000000000000000f39fd6e51aad88f6f4ce6ab8827279cfffb92266"
          ],
          "data": "0x00000000000000000000000000000000000000000000003635c9adc5dea00000000000000000000000000000000000000000000000027b46536c66c8e3000000000000000000000000000000000000000000000000000b9935be393f250ded20",
          "blockHash": "0x57de203e77a2309c6fe99d18b14058e4e7693706bcc5762e8cf0cea131b1a1df",
          "blockNumber": "0x5c8e5",
          "blockTimestamp": "0x69df76a9",
          "transactionHash": "0xa22c900c319ad77835d97249cb1002d209f8ea97a644749c2d1280b1b3cf06bd",
          "transactionIndex": "0xe",
          "logIndex": "0x7",
          "removed": false
        }
      ],
      "logsBloom": "0x00000000000000000000000000000000000000000000040000000000000000002000000000000000000000000000000000000000000000000000000000000000000001000000000000000008800000000000000000000000000000000002000000100000000000000000000100000000000000000000000000000010000000000000000000000000000000000000000000004002000001000000000000000000000000000000000000000000000000000000000000000000000000000000000000000002000040200000000000000000000000102000000000000000020000000040000040000000000000000000000800000000000000000000000000000000",
      "type": "0x0",
      "transactionHash": "0xa22c900c319ad77835d97249cb1002d209f8ea97a644749c2d1280b1b3cf06bd",
      "transactionIndex": "0xe",
      "blockHash": "0x57de203e77a2309c6fe99d18b14058e4e7693706bcc5762e8cf0cea131b1a1df",
      "blockNumber": "0x5c8e5",
      "gasUsed": "0x2effb",
      "effectiveGasPrice": "0x3b9aca07",
      "blobGasPrice": "0x1",
      "from": "0xf39fd6e51aad88f6f4ce6ab8827279cfffb92266",
      "to": "0x62dd46d2a01a202a66d4ec6947fe88c5ac309232",
      "contractAddress": null,
      "blockTimestamp": 1776252585
    },
    {
      "status": "0x1",
      "cumulativeGasUsed": "0x4856c1",
      "logs": [
        {
          "address": "0x816c1209974ffac86cf3639ba11ed299e587754b",
          "topics": [
            "0x8c5be1e5ebec7d5bd14f71427d1e84f3dd0314c0f7b2291e5b200ac8c7c3b925",
            "0x000000000000000000000000f39fd6e51aad88f6f4ce6ab8827279cfffb92266",
            "0x000000000000000000000000f2e1d9e3845b9321381877f7886f941a9539d739"
          ],
          "data": "0x00000000000000000000000000000000000000000000d3c21bcecceda1000000",
          "blockHash": "0x57de203e77a2309c6fe99d18b14058e4e7693706bcc5762e8cf0cea131b1a1df",
          "blockNumber": "0x5c8e5",
          "blockTimestamp": "0x69df76a9",
          "transactionHash": "0x2a22d35db0f3c3a600735afe1c60fef599d5206a4e4a70d7f705ca11cbd64751",
          "transactionIndex": "0xf",
          "logIndex": "0x8",
          "removed": false
        }
      ],
      "logsBloom": "0x00000000000000000000000000000000000000000000000000000000000000002000000000000000000000000000000000000000000000000002000000200000000000000000000000000000000000000000000000000000000000000000000000000000000000000000000100000000000000000000000000000000000000000000000000000000000000000000000000000000000001000000000000000000020000010000000000000000000000000000000000000000000000000000000000000000000000200000000000000000000000102000000000000000000000000010000000000000000000000000000000000000000000000000020000000000",
      "type": "0x0",
      "transactionHash": "0x2a22d35db0f3c3a600735afe1c60fef599d5206a4e4a70d7f705ca11cbd64751",
      "transactionIndex": "0xf",
      "blockHash": "0x57de203e77a2309c6fe99d18b14058e4e7693706bcc5762e8cf0cea131b1a1df",
      "blockNumber": "0x5c8e5",
      "gasUsed": "0xb37d",
      "effectiveGasPrice": "0x3b9aca07",
      "blobGasPrice": "0x1",
      "from": "0xf39fd6e51aad88f6f4ce6ab8827279cfffb92266",
      "to": "0x816c1209974ffac86cf3639ba11ed299e587754b",
      "contractAddress": null,
      "blockTimestamp": 1776252585
    },
    {
      "status": "0x1",
      "cumulativeGasUsed": "0x490a1a",
      "logs": [
        {
          "address": "0x229e614bc82229b423921efdc4c6e498d7876bc1",
          "topics": [
            "0x8c5be1e5ebec7d5bd14f71427d1e84f3dd0314c0f7b2291e5b200ac8c7c3b925",
            "0x000000000000000000000000f39fd6e51aad88f6f4ce6ab8827279cfffb92266",
            "0x000000000000000000000000f2e1d9e3845b9321381877f7886f941a9539d739"
          ],
          "data": "0x000000000000000000000000000000000000000000000000000000e8d4a51000",
          "blockHash": "0x57de203e77a2309c6fe99d18b14058e4e7693706bcc5762e8cf0cea131b1a1df",
          "blockNumber": "0x5c8e5",
          "blockTimestamp": "0x69df76a9",
          "transactionHash": "0x98044f8bf574c51b7960c0a96ec8a2600c617227aa7ef35c9fc7e68059ea120e",
          "transactionIndex": "0x10",
          "logIndex": "0x9",
          "removed": false
        }
      ],
      "logsBloom": "0x00000000000000000000000000000000000000000000000000000000000000000000000000000000000000000000000000000000000000000002000000200000000000000000000000000000000000000000000000000000000000000000000000000000000000000000000100000000000000000000000000200000000000000000000800000000000000000000000000000000000000000000000000000000020000010000000000000000000000000000000000000000000000000010000000000000000000200000000000000000000000002000000000000000000000000010000000000000000000000000000000000000000000000000020000000000",
      "type": "0x0",
      "transactionHash": "0x98044f8bf574c51b7960c0a96ec8a2600c617227aa7ef35c9fc7e68059ea120e",
      "transactionIndex": "0x10",
      "blockHash": "0x57de203e77a2309c6fe99d18b14058e4e7693706bcc5762e8cf0cea131b1a1df",
      "blockNumber": "0x5c8e5",
      "gasUsed": "0xb359",
      "effectiveGasPrice": "0x3b9aca07",
      "blobGasPrice": "0x1",
      "from": "0xf39fd6e51aad88f6f4ce6ab8827279cfffb92266",
      "to": "0x229e614bc82229b423921efdc4c6e498d7876bc1",
      "contractAddress": null,
      "blockTimestamp": 1776252585
    },
    {
      "status": "0x1",
      "cumulativeGasUsed": "0x4bdc85",
      "logs": [
        {
          "address": "0x229e614bc82229b423921efdc4c6e498d7876bc1",
          "topics": [
            "0xddf252ad1be2c89b69c2b068fc378daa952ba7f163c4a11628f55a4df523b3ef",
            "0x000000000000000000000000f39fd6e51aad88f6f4ce6ab8827279cfffb92266",
            "0x000000000000000000000000f2e1d9e3845b9321381877f7886f941a9539d739"
          ],
          "data": "0x000000000000000000000000000000000000000000000000000000e8d4a51000",
          "blockHash": "0x57de203e77a2309c6fe99d18b14058e4e7693706bcc5762e8cf0cea131b1a1df",
          "blockNumber": "0x5c8e5",
          "blockTimestamp": "0x69df76a9",
          "transactionHash": "0xeebbc2907cb5de441310e30baf593d6bf886ab4cdf28fe1b889202c8810f7c5f",
          "transactionIndex": "0x11",
          "logIndex": "0xa",
          "removed": false
        },
        {
          "address": "0x816c1209974ffac86cf3639ba11ed299e587754b",
          "topics": [
            "0xddf252ad1be2c89b69c2b068fc378daa952ba7f163c4a11628f55a4df523b3ef",
            "0x000000000000000000000000f39fd6e51aad88f6f4ce6ab8827279cfffb92266",
            "0x000000000000000000000000f2e1d9e3845b9321381877f7886f941a9539d739"
          ],
          "data": "0x00000000000000000000000000000000000000000000d3c21bcecceda1000000",
          "blockHash": "0x57de203e77a2309c6fe99d18b14058e4e7693706bcc5762e8cf0cea131b1a1df",
          "blockNumber": "0x5c8e5",
          "blockTimestamp": "0x69df76a9",
          "transactionHash": "0xeebbc2907cb5de441310e30baf593d6bf886ab4cdf28fe1b889202c8810f7c5f",
          "transactionIndex": "0x11",
          "logIndex": "0xb",
          "removed": false
        },
        {
          "address": "0xf2e1d9e3845b9321381877f7886f941a9539d739",
          "topics": [
            "0x64b83944e79c3ce8d4c297411de637c3e102d064677aac0c163976ebdcd6f50e",
            "0x000000000000000000000000f39fd6e51aad88f6f4ce6ab8827279cfffb92266"
          ],
          "data": "0x000000000000000000000000000000000000000000000000000000e8d4a5100000000000000000000000000000000000000000000000d3c21bcecceda10000000000000000000000000000000000000000000000000000000de0b6b3a7640000",
          "blockHash": "0x57de203e77a2309c6fe99d18b14058e4e7693706bcc5762e8cf0cea131b1a1df",
          "blockNumber": "0x5c8e5",
          "blockTimestamp": "0x69df76a9",
          "transactionHash": "0xeebbc2907cb5de441310e30baf593d6bf886ab4cdf28fe1b889202c8810f7c5f",
          "transactionIndex": "0x11",
          "logIndex": "0xc",
          "removed": false
        }
      ],
      "logsBloom": "0x00000000000000000000000000000000000000000000000000000000000000002000000000000000000000000000000000000000000000000002000000000000000001000000000000000008800000000000000000000000000000000000000000000000000000000000000100000000000000000000000000200010010000000000000800000000000000000000000000000000000001000000000000000000000000010000000000000000000000000000000000000000000000000010000000000002000000200000000004000000000000102200000000000000020000000000000000000000000000000000000000000000000000000000020000000000",
      "type": "0x0",
      "transactionHash": "0xeebbc2907cb5de441310e30baf593d6bf886ab4cdf28fe1b889202c8810f7c5f",
      "transactionIndex": "0x11",
      "blockHash": "0x57de203e77a2309c6fe99d18b14058e4e7693706bcc5762e8cf0cea131b1a1df",
      "blockNumber": "0x5c8e5",
      "gasUsed": "0x2d26b",
      "effectiveGasPrice": "0x3b9aca07",
      "blobGasPrice": "0x1",
      "from": "0xf39fd6e51aad88f6f4ce6ab8827279cfffb92266",
      "to": "0xf2e1d9e3845b9321381877f7886f941a9539d739",
      "contractAddress": null,
      "blockTimestamp": 1776252585
    },
    {
      "status": "0x1",
      "cumulativeGasUsed": "0x4c9002",
      "logs": [
        {
          "address": "0x45a755b058492558351f188e4362f0546bc3d140",
          "topics": [
            "0x8c5be1e5ebec7d5bd14f71427d1e84f3dd0314c0f7b2291e5b200ac8c7c3b925",
            "0x000000000000000000000000f39fd6e51aad88f6f4ce6ab8827279cfffb92266",
            "0x000000000000000000000000cd55135cc103d7568056a828100d96603380ddbe"
          ],
          "data": "0x00000000000000000000000000000000000000000000003635c9adc5dea00000",
          "blockHash": "0x57de203e77a2309c6fe99d18b14058e4e7693706bcc5762e8cf0cea131b1a1df",
          "blockNumber": "0x5c8e5",
          "blockTimestamp": "0x69df76a9",
          "transactionHash": "0x9a2d14e8914270a684be551290bc092bb3cb13439b8196a41132e126f7cfc6d7",
          "transactionIndex": "0x12",
          "logIndex": "0xd",
          "removed": false
        }
      ],
      "logsBloom": "0x00000000000000000000000000000000000000000000000000000000000000000000000000000000000000000000000000000000000000000000004000200000000000000000000000000000000000000000000000000000000000000000000000000000000000000000008100000000000000000000000000000000000000000000000000000000000000000000000000004000000000000000000000000000020000000000000000000000000000000000000000000000000000000000000000000000000000200000000000000000000000002000000000000000000008000050000040000000000000000000000000000000000000000000000000000000",
      "type": "0x0",
      "transactionHash": "0x9a2d14e8914270a684be551290bc092bb3cb13439b8196a41132e126f7cfc6d7",
      "transactionIndex": "0x12",
      "blockHash": "0x57de203e77a2309c6fe99d18b14058e4e7693706bcc5762e8cf0cea131b1a1df",
      "blockNumber": "0x5c8e5",
      "gasUsed": "0xb37d",
      "effectiveGasPrice": "0x3b9aca07",
      "blobGasPrice": "0x1",
      "from": "0xf39fd6e51aad88f6f4ce6ab8827279cfffb92266",
      "to": "0x45a755b058492558351f188e4362f0546bc3d140",
      "contractAddress": null,
      "blockTimestamp": 1776252585
    },
    {
      "status": "0x1",
      "cumulativeGasUsed": "0x4d4367",
      "logs": [
        {
          "address": "0x229e614bc82229b423921efdc4c6e498d7876bc1",
          "topics": [
            "0x8c5be1e5ebec7d5bd14f71427d1e84f3dd0314c0f7b2291e5b200ac8c7c3b925",
            "0x000000000000000000000000f39fd6e51aad88f6f4ce6ab8827279cfffb92266",
            "0x000000000000000000000000cd55135cc103d7568056a828100d96603380ddbe"
          ],
          "data": "0x000000000000000000000000000000000000000000000000000002ba7def3000",
          "blockHash": "0x57de203e77a2309c6fe99d18b14058e4e7693706bcc5762e8cf0cea131b1a1df",
          "blockNumber": "0x5c8e5",
          "blockTimestamp": "0x69df76a9",
          "transactionHash": "0x4d9eba33ae469244d2bde2a17e3898135faacd8947045081ca510aadee624cfa",
          "transactionIndex": "0x13",
          "logIndex": "0xe",
          "removed": false
        }
      ],
      "logsBloom": "0x00000000000000000000000000000000000000000000000000000000000000000000000000000000000000000000000000000000000000000000004000200000000000000000000000000000000000000000000000000000000000000000000000000000000000000000008100000000000000000000000000200000000000000000000800000000000000000000000000000000000000000000000000000000020000000000000000000000000000000000000000000000000000000010000000000000000000200000000000000000000000002000000000000000000008000010000000000000000000000000000000000000000000000000000000000000",
      "type": "0x0",
      "transactionHash": "0x4d9eba33ae469244d2bde2a17e3898135faacd8947045081ca510aadee624cfa",
      "transactionIndex": "0x13",
      "blockHash": "0x57de203e77a2309c6fe99d18b14058e4e7693706bcc5762e8cf0cea131b1a1df",
      "blockNumber": "0x5c8e5",
      "gasUsed": "0xb365",
      "effectiveGasPrice": "0x3b9aca07",
      "blobGasPrice": "0x1",
      "from": "0xf39fd6e51aad88f6f4ce6ab8827279cfffb92266",
      "to": "0x229e614bc82229b423921efdc4c6e498d7876bc1",
      "contractAddress": null,
      "blockTimestamp": 1776252585
    },
    {
      "status": "0x1",
      "cumulativeGasUsed": "0x4fffcc",
      "logs": [
        {
          "address": "0x229e614bc82229b423921efdc4c6e498d7876bc1",
          "topics": [
            "0xddf252ad1be2c89b69c2b068fc378daa952ba7f163c4a11628f55a4df523b3ef",
            "0x000000000000000000000000f39fd6e51aad88f6f4ce6ab8827279cfffb92266",
            "0x000000000000000000000000cd55135cc103d7568056a828100d96603380ddbe"
          ],
          "data": "0x000000000000000000000000000000000000000000000000000002ba7def3000",
          "blockHash": "0x57de203e77a2309c6fe99d18b14058e4e7693706bcc5762e8cf0cea131b1a1df",
          "blockNumber": "0x5c8e5",
          "blockTimestamp": "0x69df76a9",
          "transactionHash": "0xf644ff6c373816bfe0ead86ce35f3137534d86079c514363dc9d6cad768c87bb",
          "transactionIndex": "0x14",
          "logIndex": "0xf",
          "removed": false
        },
        {
          "address": "0x45a755b058492558351f188e4362f0546bc3d140",
          "topics": [
            "0xddf252ad1be2c89b69c2b068fc378daa952ba7f163c4a11628f55a4df523b3ef",
            "0x000000000000000000000000f39fd6e51aad88f6f4ce6ab8827279cfffb92266",
            "0x000000000000000000000000cd55135cc103d7568056a828100d96603380ddbe"
          ],
          "data": "0x00000000000000000000000000000000000000000000003635c9adc5dea00000",
          "blockHash": "0x57de203e77a2309c6fe99d18b14058e4e7693706bcc5762e8cf0cea131b1a1df",
          "blockNumber": "0x5c8e5",
          "blockTimestamp": "0x69df76a9",
          "transactionHash": "0xf644ff6c373816bfe0ead86ce35f3137534d86079c514363dc9d6cad768c87bb",
          "transactionIndex": "0x14",
          "logIndex": "0x10",
          "removed": false
        },
        {
          "address": "0xcd55135cc103d7568056a828100d96603380ddbe",
          "topics": [
            "0x64b83944e79c3ce8d4c297411de637c3e102d064677aac0c163976ebdcd6f50e",
            "0x000000000000000000000000f39fd6e51aad88f6f4ce6ab8827279cfffb92266"
          ],
          "data": "0x000000000000000000000000000000000000000000000000000002ba7def300000000000000000000000000000000000000000000000003635c9adc5dea0000000000000000000000000000000000000000000000000000000c297138f8e6f83",
          "blockHash": "0x57de203e77a2309c6fe99d18b14058e4e7693706bcc5762e8cf0cea131b1a1df",
          "blockNumber": "0x5c8e5",
          "blockTimestamp": "0x69df76a9",
          "transactionHash": "0xf644ff6c373816bfe0ead86ce35f3137534d86079c514363dc9d6cad768c87bb",
          "transactionIndex": "0x14",
          "logIndex": "0x11",
          "removed": false
        }
      ],
      "logsBloom": "0x00000000000000000000000000000000000000000000000000000000000020000000000000000000000000000000000000000000000000000000004000000000000001000000000000000008800000000000000000000000000000000000000000000000000000000000008140000000040000000000000000200010000000000000000800000000000000000000000000004000000000000000000000000000000000000000000000000000000000000000000000000000000000000010000000000002000000200000000000000000000000002000000000000000020008000040000040000000000000000000000000000000000000000000000000000000",
      "type": "0x0",
      "transactionHash": "0xf644ff6c373816bfe0ead86ce35f3137534d86079c514363dc9d6cad768c87bb",
      "transactionIndex": "0x14",
      "blockHash": "0x57de203e77a2309c6fe99d18b14058e4e7693706bcc5762e8cf0cea131b1a1df",
      "blockNumber": "0x5c8e5",
      "gasUsed": "0x2bc65",
      "effectiveGasPrice": "0x3b9aca07",
      "blobGasPrice": "0x1",
      "from": "0xf39fd6e51aad88f6f4ce6ab8827279cfffb92266",
      "to": "0xcd55135cc103d7568056a828100d96603380ddbe",
      "contractAddress": null,
      "blockTimestamp": 1776252585
    },
    {
      "status": "0x1",
      "cumulativeGasUsed": "0x5cc258",
      "logs": [],
      "logsBloom": "0x00000000000000000000000000000000000000000000000000000000000000000000000000000000000000000000000000000000000000000000000000000000000000000000000000000000000000000000000000000000000000000000000000000000000000000000000000000000000000000000000000000000000000000000000000000000000000000000000000000000000000000000000000000000000000000000000000000000000000000000000000000000000000000000000000000000000000000000000000000000000000000000000000000000000000000000000000000000000000000000000000000000000000000000000000000000",
      "type": "0x0",
      "transactionHash": "0x7b82fa7ba8585ed9b30826d6f4f7a79f99f95dc12868bab850cf5e6e107194af",
      "transactionIndex": "0x15",
      "blockHash": "0x57de203e77a2309c6fe99d18b14058e4e7693706bcc5762e8cf0cea131b1a1df",
      "blockNumber": "0x5c8e5",
      "gasUsed": "0xcc28c",
      "effectiveGasPrice": "0x3b9aca07",
      "blobGasPrice": "0x1",
      "from": "0xf39fd6e51aad88f6f4ce6ab8827279cfffb92266",
      "to": null,
      "contractAddress": "0x287b17d9a505d3e08bcc2e32a563751784d7d9cf",
      "blockTimestamp": 1776252585
    },
    {
      "status": "0x1",
      "cumulativeGasUsed": "0x5d8e75",
      "logs": [
        {
          "address": "0x287b17d9a505d3e08bcc2e32a563751784d7d9cf",
          "topics": [
            "0x61afef2e121f71511fab2583c5ac49a5dc1d7a8ad8ad91c44c8465f073a73ac4",
            "0x00000000000000000000000045a755b058492558351f188e4362f0546bc3d140",
            "0x000000000000000000000000816c1209974ffac86cf3639ba11ed299e587754b",
            "0x00000000000000000000000062dd46d2a01a202a66d4ec6947fe88c5ac309232"
          ],
          "data": "0x",
          "blockHash": "0x57de203e77a2309c6fe99d18b14058e4e7693706bcc5762e8cf0cea131b1a1df",
          "blockNumber": "0x5c8e5",
          "blockTimestamp": "0x69df76a9",
          "transactionHash": "0x1aa688dcbe5d146dfd4ed634de5dfb290eb79d02694783ba958a5db21db20609",
          "transactionIndex": "0x16",
          "logIndex": "0x12",
          "removed": false
        }
      ],
      "logsBloom": "0x00000000020000000000000000000000000000000000000000000000000000000000000000000010000000000000000000000000000000000000000000000000000000000000000000000000000000000000000000000000000000000002000000100000000000000100800000000000000000000000000000000800000000000000000000000000000000000000800000000000800002000000000000000000000000001000000000000000000000000000000000000000000000000000000000000000000040000000001000000000000000000000000000000000000000000200000000000000000000000000000800000000000000000000000000000000",
      "type": "0x0",
      "transactionHash": "0x1aa688dcbe5d146dfd4ed634de5dfb290eb79d02694783ba958a5db21db20609",
      "transactionIndex": "0x16",
      "blockHash": "0x57de203e77a2309c6fe99d18b14058e4e7693706bcc5762e8cf0cea131b1a1df",
      "blockNumber": "0x5c8e5",
      "gasUsed": "0xcc1d",
      "effectiveGasPrice": "0x3b9aca07",
      "blobGasPrice": "0x1",
      "from": "0xf39fd6e51aad88f6f4ce6ab8827279cfffb92266",
      "to": "0x287b17d9a505d3e08bcc2e32a563751784d7d9cf",
      "contractAddress": null,
      "blockTimestamp": 1776252585
    },
    {
      "status": "0x1",
      "cumulativeGasUsed": "0x5e5a92",
      "logs": [
        {
          "address": "0x287b17d9a505d3e08bcc2e32a563751784d7d9cf",
          "topics": [
            "0x61afef2e121f71511fab2583c5ac49a5dc1d7a8ad8ad91c44c8465f073a73ac4",
            "0x000000000000000000000000229e614bc82229b423921efdc4c6e498d7876bc1",
            "0x000000000000000000000000816c1209974ffac86cf3639ba11ed299e587754b",
            "0x000000000000000000000000f2e1d9e3845b9321381877f7886f941a9539d739"
          ],
          "data": "0x",
          "blockHash": "0x57de203e77a2309c6fe99d18b14058e4e7693706bcc5762e8cf0cea131b1a1df",
          "blockNumber": "0x5c8e5",
          "blockTimestamp": "0x69df76a9",
          "transactionHash": "0x143191d680666ca217acdbd3d90131dd5337dfcadb1bf81b96df87d0f3e0a6c7",
          "transactionIndex": "0x17",
          "logIndex": "0x13",
          "removed": false
        }
      ],
      "logsBloom": "0x00020000000000000000000000000000000000000000000000000000000000000000000000000000000000000000000000000000000000100002000000000000000000000000000000000000000000000000000000000000000000000000000000100000000000000100800000000000000000000000000000000800000000000000000000000000000000000000800000000000800002000000000000000000000000011000000000000000000000000000000000000000000000000000000000000000000000000000000000000000000000000000000000000000000000000200000001000000000000000000000000000000000000000000020000000000",
      "type": "0x0",
      "transactionHash": "0x143191d680666ca217acdbd3d90131dd5337dfcadb1bf81b96df87d0f3e0a6c7",
      "transactionIndex": "0x17",
      "blockHash": "0x57de203e77a2309c6fe99d18b14058e4e7693706bcc5762e8cf0cea131b1a1df",
      "blockNumber": "0x5c8e5",
      "gasUsed": "0xcc1d",
      "effectiveGasPrice": "0x3b9aca07",
      "blobGasPrice": "0x1",
      "from": "0xf39fd6e51aad88f6f4ce6ab8827279cfffb92266",
      "to": "0x287b17d9a505d3e08bcc2e32a563751784d7d9cf",
      "contractAddress": null,
      "blockTimestamp": 1776252585
    },
    {
      "status": "0x1",
      "cumulativeGasUsed": "0x5f26af",
      "logs": [
        {
          "address": "0x287b17d9a505d3e08bcc2e32a563751784d7d9cf",
          "topics": [
            "0x61afef2e121f71511fab2583c5ac49a5dc1d7a8ad8ad91c44c8465f073a73ac4",
            "0x000000000000000000000000229e614bc82229b423921efdc4c6e498d7876bc1",
            "0x00000000000000000000000045a755b058492558351f188e4362f0546bc3d140",
            "0x000000000000000000000000cd55135cc103d7568056a828100d96603380ddbe"
          ],
          "data": "0x",
          "blockHash": "0x57de203e77a2309c6fe99d18b14058e4e7693706bcc5762e8cf0cea131b1a1df",
          "blockNumber": "0x5c8e5",
          "blockTimestamp": "0x69df76a9",
          "transactionHash": "0xc868134580171ef72b796d92cef1c068d5477c2021dd77edf8e0e8b90b226110",
          "transactionIndex": "0x18",
          "logIndex": "0x14",
          "removed": false
        }
      ],
      "logsBloom": "0x00020000020000000000000000000000000000000000000000000000000000000000000000000010000000000000000000000000000000100000004000000000000000000000000000000000000000000000000000000000000000000000000000100000000000000100808000000000000000000000000000000800000000000000000000000000000000000000800000000000000000000000000000000000000000000000000000000000000000000000000000000000000000000000000000000000000000000000001000000000000000000000000000000000000008000200000001000000000000000000000000000000000000000000000000000000",
      "type": "0x0",
      "transactionHash": "0xc868134580171ef72b796d92cef1c068d5477c2021dd77edf8e0e8b90b226110",
      "transactionIndex": "0x18",
      "blockHash": "0x57de203e77a2309c6fe99d18b14058e4e7693706bcc5762e8cf0cea131b1a1df",
      "blockNumber": "0x5c8e5",
      "gasUsed": "0xcc1d",
      "effectiveGasPrice": "0x3b9aca07",
      "blobGasPrice": "0x1",
      "from": "0xf39fd6e51aad88f6f4ce6ab8827279cfffb92266",
      "to": "0x287b17d9a505d3e08bcc2e32a563751784d7d9cf",
      "contractAddress": null,
      "blockTimestamp": 1776252585
    }
  ],
  "libraries": [],
  "pending": [],
  "returns": {},
  "timestamp": 1776252586247,
  "chain": 42069,
  "commit": "bf07638"
}