{
  "transactions": [
    {
      "hash": "0x4660989895e51f51bab76dd11d60ee84efc02d4ce59ba4cb341d6f0c09c24518",
      "transactionType": "CALL",
      "contractName": null,
      "contractAddress": "0x5fbdb2315678afecb367f032d93f642f64180aa3",
      "function": "approve(address,uint256)",
      "arguments": [
        "0xD28F3246f047Efd4059B24FA1fa587eD9fa3e77F",
        "115792089237316195423570985008687907853269984665640564039457584007913129639935"
      ],
      "transaction": {
        "from": "0xf39fd6e51aad88f6f4ce6ab8827279cfffb92266",
        "to": "0x5fbdb2315678afecb367f032d93f642f64180aa3",
        "gas": "0xf9b2",
        "value": "0x0",
        "input": "0x095ea7b3000000000000000000000000d28f3246f047efd4059b24fa1fa587ed9fa3e77fffffffffffffffffffffffffffffffffffffffffffffffffffffffffffffffff",
        "nonce": "0x268",
        "chainId": "0xa455"
      },
      "additionalContracts": [],
      "isFixedGasLimit": false
    },
    {
      "hash": "0x0a87dc7483a8f1992b72b17544d96b43e690ab545f6929a68c8ee454f3203245",
      "transactionType": "CALL",
      "contractName": null,
      "contractAddress": "0xd28f3246f047efd4059b24fa1fa587ed9fa3e77f",
      "function": "createMarket(string,uint256,address)",
      "arguments": [
        "Will Bitcoin reach $150K by end of 2026?",
        "1798761599",
        "0xf39Fd6e51aad88F6F4ce6aB8827279cffFb92266"
      ],
      "transaction": {
        "from": "0xf39fd6e51aad88f6f4ce6ab8827279cfffb92266",
        "to": "0xd28f3246f047efd4059b24fa1fa587ed9fa3e77f",
        "gas": "0x39b84",
        "value": "0x0",
        "input": "0x576cf9d00000000000000000000000000000000000000000000000000000000000000060000000000000000000000000000000000000000000000000000000006b36ec7f000000000000000000000000f39fd6e51aad88f6f4ce6ab8827279cfffb92266000000000000000000000000000000000000000000000000000000000000002857696c6c20426974636f696e20726561636820243135304b20627920656e64206f6620323032363f000000000000000000000000000000000000000000000000",
        "nonce": "0x269",
        "chainId": "0xa455"
      },
      "additionalContracts": [],
      "isFixedGasLimit": false
    },
    {
      "hash": "0x97602aed4f2eb7feaacfb16e7bcdae433ac81454ba3ecac8d7d0923e239b15a6",
      "transactionType": "CALL",
      "contractName": null,
      "contractAddress": "0xd28f3246f047efd4059b24fa1fa587ed9fa3e77f",
      "function": "buy(uint256,bool,uint256)",
      "arguments": [
        "0",
        "true",
        "7200000000000000000000"
      ],
      "transaction": {
        "from": "0xf39fd6e51aad88f6f4ce6ab8827279cfffb92266",
        "to": "0xd28f3246f047efd4059b24fa1fa587ed9fa3e77f",
        "gas": "0x31659",
        "value": "0x0",
        "input": "0x438af9240000000000000000000000000000000000000000000000000000000000000000000000000000000000000000000000000000000000000000000000000000000100000000000000000000000000000000000000000000018650127cc3dc800000",
        "nonce": "0x26a",
        "chainId": "0xa455"
      },
      "additionalContracts": [],
      "isFixedGasLimit": false
    },
    {
      "hash": "0x213538d66e197a717cfa4d09e657c8b1042f67442567665235adb808bfc8d235",
      "transactionType": "CALL",
      "contractName": null,
      "contractAddress": "0xd28f3246f047efd4059b24fa1fa587ed9fa3e77f",
      "function": "buy(uint256,bool,uint256)",
      "arguments": [
        "0",
        "false",
        "2800000000000000000000"
      ],
      "transaction": {
        "from": "0xf39fd6e51aad88f6f4ce6ab8827279cfffb92266",
        "to": "0xd28f3246f047efd4059b24fa1fa587ed9fa3e77f",
        "gas": "0x23215",
        "value": "0x0",
        "input": "0x438af92400000000000000000000000000000000000000000000000000000000000000000000000000000000000000000000000000000000000000000000000000000000000000000000000000000000000000000000000000000097c9ce4cf6d5c00000",
        "nonce": "0x26b",
        "chainId": "0xa455"
      },
      "additionalContracts": [],
      "isFixedGasLimit": false
    },
    {
      "hash": "0x1d224c9af275bb64ba26cd226f6fa618dccd7de5fc15dc9069ca35bd7efeaef1",
      "transactionType": "CALL",
      "contractName": null,
      "contractAddress": "0xd28f3246f047efd4059b24fa1fa587ed9fa3e77f",
      "function": "createMarket(string,uint256,address)",
      "arguments": [
        "Will Ethereum trade above $10,000 in 2026?",
        "1798761599",
        "0xf39Fd6e51aad88F6F4ce6aB8827279cffFb92266"
      ],
      "transaction": {
        "from": "0xf39fd6e51aad88f6f4ce6ab8827279cfffb92266",
        "to": "0xd28f3246f047efd4059b24fa1fa587ed9fa3e77f",
        "gas": "0x3704b",
        "value": "0x0",
        "input": "0x576cf9d00000000000000000000000000000000000000000000000000000000000000060000000000000000000000000000000000000000000000000000000006b36ec7f000000000000000000000000f39fd6e51aad88f6f4ce6ab8827279cfffb92266000000000000000000000000000000000000000000000000000000000000002a57696c6c20457468657265756d2074726164652061626f7665202431302c30303020696e20323032363f00000000000000000000000000000000000000000000",
        "nonce": "0x26c",
        "chainId": "0xa455"
      },
      "additionalContracts": [],
      "isFixedGasLimit": false
    },
    {
      "hash": "0x4b08837dadd02dd40b8c41617650c29096a566070ffe565f4be78dd2da822b5e",
      "transactionType": "CALL",
      "contractName": null,
      "contractAddress": "0xd28f3246f047efd4059b24fa1fa587ed9fa3e77f",
      "function": "buy(uint256,bool,uint256)",
      "arguments": [
        "1",
        "true",
        "5500000000000000000000"
      ],
      "transaction": {
        "from": "0xf39fd6e51aad88f6f4ce6ab8827279cfffb92266",
        "to": "0xd28f3246f047efd4059b24fa1fa587ed9fa3e77f",
        "gas": "0x2b4ba",
        "value": "0x0",
        "input": "0x438af9240000000000000000000000000000000000000000000000000000000000000001000000000000000000000000000000000000000000000000000000000000000100000000000000000000000000000000000000000000012a27d53bc048700000",
        "nonce": "0x26d",
        "chainId": "0xa455"
      },
      "additionalContracts": [],
      "isFixedGasLimit": false
    },
    {
      "hash": "0x91ac4d944f4c3b1a4f1d10ca196b757820bb32e25a36596a3c0b3bb9b5c5d5c0",
      "transactionType": "CALL",
      "contractName": null,
      "contractAddress": "0xd28f3246f047efd4059b24fa1fa587ed9fa3e77f",
      "function": "buy(uint256,bool,uint256)",
      "arguments": [
        "1",
        "false",
        "4500000000000000000000"
      ],
      "transaction": {
        "from": "0xf39fd6e51aad88f6f4ce6ab8827279cfffb92266",
        "to": "0xd28f3246f047efd4059b24fa1fa587ed9fa3e77f",
        "gas": "0x23224",
        "value": "0x0",
        "input": "0x438af924000000000000000000000000000000000000000000000000000000000000000100000000000000000000000000000000000000000000000000000000000000000000000000000000000000000000000000000000000000f3f20b8dfa69d00000",
        "nonce": "0x26e",
        "chainId": "0xa455"
      },
      "additionalContracts": [],
      "isFixedGasLimit": false
    },
    {
      "hash": "0x9b01e64808611ea963e8483bc8401c4017031fd33fd018a42abc38c53bc29dcc",
      "transactionType": "CALL",
      "contractName": null,
      "contractAddress": "0xd28f3246f047efd4059b24fa1fa587ed9fa3e77f",
      "function": "createMarket(string,uint256,address)",
      "arguments": [
        "Will GoodDollar reach 1M daily claimers by 2027?",
        "1830297599",
        "0xf39Fd6e51aad88F6F4ce6aB8827279cffFb92266"
      ],
      "transaction": {
        "from": "0xf39fd6e51aad88f6f4ce6ab8827279cfffb92266",
        "to": "0xd28f3246f047efd4059b24fa1fa587ed9fa3e77f",
        "gas": "0x370b4",
        "value": "0x0",
        "input": "0x576cf9d00000000000000000000000000000000000000000000000000000000000000060000000000000000000000000000000000000000000000000000000006d181fff000000000000000000000000f39fd6e51aad88f6f4ce6ab8827279cfffb92266000000000000000000000000000000000000000000000000000000000000003057696c6c20476f6f64446f6c6c617220726561636820314d206461696c7920636c61696d65727320627920323032373f00000000000000000000000000000000",
        "nonce": "0x26f",
        "chainId": "0xa455"
      },
      "additionalContracts": [],
      "isFixedGasLimit": false
    },
    {
      "hash": "0xb5b757f0a35a09c40630197df880696dea848861cc730442b7c53f843ca62cbe",
      "transactionType": "CALL",
      "contractName": null,
      "contractAddress": "0xd28f3246f047efd4059b24fa1fa587ed9fa3e77f",
      "function": "buy(uint256,bool,uint256)",
      "arguments": [
        "2",
        "true",
        "3500000000000000000000"
      ],
      "transaction": {
        "from": "0xf39fd6e51aad88f6f4ce6ab8827279cfffb92266",
        "to": "0xd28f3246f047efd4059b24fa1fa587ed9fa3e77f",
        "gas": "0x28e2c",
        "value": "0x0",
        "input": "0x438af924000000000000000000000000000000000000000000000000000000000000000200000000000000000000000000000000000000000000000000000000000000010000000000000000000000000000000000000000000000bdbc41e0348b300000",
        "nonce": "0x270",
        "chainId": "0xa455"
      },
      "additionalContracts": [],
      "isFixedGasLimit": false
    },
    {
      "hash": "0x175af5660c913896004009a6f9d3b70734b56f1f0d0c7e60bfc3781cd38fb007",
      "transactionType": "CALL",
      "contractName": null,
      "contractAddress": "0xd28f3246f047efd4059b24fa1fa587ed9fa3e77f",
      "function": "buy(uint256,bool,uint256)",
      "arguments": [
        "2",
        "false",
        "6500000000000000000000"
      ],
      "transaction": {
        "from": "0xf39fd6e51aad88f6f4ce6ab8827279cfffb92266",
        "to": "0xd28f3246f047efd4059b24fa1fa587ed9fa3e77f",
        "gas": "0x23235",
        "value": "0x0",
        "input": "0x438af924000000000000000000000000000000000000000000000000000000000000000200000000000000000000000000000000000000000000000000000000000000000000000000000000000000000000000000000000000001605d9ee98627100000",
        "nonce": "0x271",
        "chainId": "0xa455"
      },
      "additionalContracts": [],
      "isFixedGasLimit": false
    },
    {
      "hash": "0xa6067c950fa6d9e59283a14466b65068b9291811cb832c36dc512324e4364ed0",
      "transactionType": "CALL",
      "contractName": null,
      "contractAddress": "0xd28f3246f047efd4059b24fa1fa587ed9fa3e77f",
      "function": "createMarket(string,uint256,address)",
      "arguments": [
        "Will the Fed Funds rate be below 3% by Dec 2026?",
        "1798761599",
        "0xf39Fd6e51aad88F6F4ce6aB8827279cffFb92266"
      ],
      "transaction": {
        "from": "0xf39fd6e51aad88f6f4ce6ab8827279cfffb92266",
        "to": "0xd28f3246f047efd4059b24fa1fa587ed9fa3e77f",
        "gas": "0x370b4",
        "value": "0x0",
        "input": "0x576cf9d00000000000000000000000000000000000000000000000000000000000000060000000000000000000000000000000000000000000000000000000006b36ec7f000000000000000000000000f39fd6e51aad88f6f4ce6ab8827279cfffb92266000000000000000000000000000000000000000000000000000000000000003057696c6c20746865204665642046756e647320726174652062652062656c6f772033252062792044656320323032363f00000000000000000000000000000000",
        "nonce": "0x272",
        "chainId": "0xa455"
      },
      "additionalContracts": [],
      "isFixedGasLimit": false
    },
    {
      "hash": "0x2d90cdf2ee62381fa778c8e3045a0af642b642d0750b0fd4a2ef2ca540622655",
      "transactionType": "CALL",
      "contractName": null,
      "contractAddress": "0xd28f3246f047efd4059b24fa1fa587ed9fa3e77f",
      "function": "buy(uint256,bool,uint256)",
      "arguments": [
        "3",
        "true",
        "4200000000000000000000"
      ],
      "transaction": {
        "from": "0xf39fd6e51aad88f6f4ce6ab8827279cfffb92266",
        "to": "0xd28f3246f047efd4059b24fa1fa587ed9fa3e77f",
        "gas": "0x28e2c",
        "value": "0x0",
        "input": "0x438af924000000000000000000000000000000000000000000000000000000000000000300000000000000000000000000000000000000000000000000000000000000010000000000000000000000000000000000000000000000e3aeb5737240a00000",
        "nonce": "0x273",
        "chainId": "0xa455"
      },
      "additionalContracts": [],
      "isFixedGasLimit": false
    },
    {
      "hash": "0x1b48ffb78b33e48d6fc744db1e2c27f95f4fa279985605b651719dfede91aa94",
      "transactionType": "CALL",
      "contractName": null,
      "contractAddress": "0xd28f3246f047efd4059b24fa1fa587ed9fa3e77f",
      "function": "buy(uint256,bool,uint256)",
      "arguments": [
        "3",
        "false",
        "5800000000000000000000"
      ],
      "transaction": {
        "from": "0xf39fd6e51aad88f6f4ce6ab8827279cfffb92266",
        "to": "0xd28f3246f047efd4059b24fa1fa587ed9fa3e77f",
        "gas": "0x23235",
        "value": "0x0",
        "input": "0x438af9240000000000000000000000000000000000000000000000000000000000000003000000000000000000000000000000000000000000000000000000000000000000000000000000000000000000000000000000000000013a6b2b564871a00000",
        "nonce": "0x274",
        "chainId": "0xa455"
      },
      "additionalContracts": [],
      "isFixedGasLimit": false
    },
    {
      "hash": "0x7b13a538ce248954defa61a8b6c26b0c3dd0ade44485c5c54bfd479c6dde98f0",
      "transactionType": "CALL",
      "contractName": null,
      "contractAddress": "0xd28f3246f047efd4059b24fa1fa587ed9fa3e77f",
      "function": "createMarket(string,uint256,address)",
      "arguments": [
        "Will AGI be achieved by 2030?",
        "1924991999",
        "0xf39Fd6e51aad88F6F4ce6aB8827279cffFb92266"
      ],
      "transaction": {
        "from": "0xf39fd6e51aad88f6f4ce6ab8827279cfffb92266",
        "to": "0xd28f3246f047efd4059b24fa1fa587ed9fa3e77f",
        "gas": "0x26f5c",
        "value": "0x0",
        "input": "0x576cf9d000000000000000000000000000000000000000000000000000000000000000600000000000000000000000000000000000000000000000000000000072bd0bff000000000000000000000000f39fd6e51aad88f6f4ce6ab8827279cfffb92266000000000000000000000000000000000000000000000000000000000000001d57696c6c2041474920626520616368696576656420627920323033303f000000",
        "nonce": "0x275",
        "chainId": "0xa455"
      },
      "additionalContracts": [],
      "isFixedGasLimit": false
    },
    {
      "hash": "0x29fd3772a2ef484e28af9adff10ca8af8e78624901ea13f876f67c5aedb139da",
      "transactionType": "CALL",
      "contractName": null,
      "contractAddress": "0xd28f3246f047efd4059b24fa1fa587ed9fa3e77f",
      "function": "buy(uint256,bool,uint256)",
      "arguments": [
        "4",
        "true",
        "1800000000000000000000"
      ],
      "transaction": {
        "from": "0xf39fd6e51aad88f6f4ce6ab8827279cfffb92266",
        "to": "0xd28f3246f047efd4059b24fa1fa587ed9fa3e77f",
        "gas": "0x28e2c",
        "value": "0x0",
        "input": "0x438af9240000000000000000000000000000000000000000000000000000000000000004000000000000000000000000000000000000000000000000000000000000000100000000000000000000000000000000000000000000006194049f30f7200000",
        "nonce": "0x276",
        "chainId": "0xa455"
      },
      "additionalContracts": [],
      "isFixedGasLimit": false
    },
    {
      "hash": "0x090460ab0a4188ffd92e6e111724f0fe5728b7dde4668655552e166832c15725",
      "transactionType": "CALL",
      "contractName": null,
      "contractAddress": "0xd28f3246f047efd4059b24fa1fa587ed9fa3e77f",
      "function": "buy(uint256,bool,uint256)",
      "arguments": [
        "4",
        "false",
        "8200000000000000000000"
      ],
      "transaction": {
        "from": "0xf39fd6e51aad88f6f4ce6ab8827279cfffb92266",
        "to": "0xd28f3246f047efd4059b24fa1fa587ed9fa3e77f",
        "gas": "0x23235",
        "value": "0x0",
        "input": "0x438af924000000000000000000000000000000000000000000000000000000000000000400000000000000000000000000000000000000000000000000000000000000000000000000000000000000000000000000000000000001bc85dc2a89bb200000",
        "nonce": "0x277",
        "chainId": "0xa455"
      },
      "additionalContracts": [],
      "isFixedGasLimit": false
    },
    {
      "hash": "0xd8a33a13266a341ed3bad2691d5543c2be4ae002e56cd0acdac7984e24fd8426",
      "transactionType": "CALL",
      "contractName": null,
      "contractAddress": "0xd28f3246f047efd4059b24fa1fa587ed9fa3e77f",
      "function": "createMarket(string,uint256,address)",
      "arguments": [
        "Will eToro (ETOR) trade above $100 by end of 2026?",
        "1798761599",
        "0xf39Fd6e51aad88F6F4ce6aB8827279cffFb92266"
      ],
      "transaction": {
        "from": "0xf39fd6e51aad88f6f4ce6ab8827279cfffb92266",
        "to": "0xd28f3246f047efd4059b24fa1fa587ed9fa3e77f",
        "gas": "0x370d7",
        "value": "0x0",
        "input": "0x576cf9d00000000000000000000000000000000000000000000000000000000000000060000000000000000000000000000000000000000000000000000000006b36ec7f000000000000000000000000f39fd6e51aad88f6f4ce6ab8827279cfffb92266000000000000000000000000000000000000000000000000000000000000003257696c6c2065546f726f202845544f52292074726164652061626f7665202431303020627920656e64206f6620323032363f0000000000000000000000000000",
        "nonce": "0x278",
        "chainId": "0xa455"
      },
      "additionalContracts": [],
      "isFixedGasLimit": false
    },
    {
      "hash": "0x25bdd58c9ded4e5905f333a4eb72e1b8088532c6f155c1b75224cbccd25c6c3b",
      "transactionType": "CALL",
      "contractName": null,
      "contractAddress": "0xd28f3246f047efd4059b24fa1fa587ed9fa3e77f",
      "function": "buy(uint256,bool,uint256)",
      "arguments": [
        "5",
        "true",
        "6000000000000000000000"
      ],
      "transaction": {
        "from": "0xf39fd6e51aad88f6f4ce6ab8827279cfffb92266",
        "to": "0xd28f3246f047efd4059b24fa1fa587ed9fa3e77f",
        "gas": "0x2b4ba",
        "value": "0x0",
        "input": "0x438af9240000000000000000000000000000000000000000000000000000000000000005000000000000000000000000000000000000000000000000000000000000000100000000000000000000000000000000000000000000014542ba12a337c00000",
        "nonce": "0x279",
        "chainId": "0xa455"
      },
      "additionalContracts": [],
      "isFixedGasLimit": false
    },
    {
      "hash": "0x8aa2a55aac0ede9214f8f9902c23bbd40fca17af006456c4ff1a26232f5ad5fa",
      "transactionType": "CALL",
      "contractName": null,
      "contractAddress": "0xd28f3246f047efd4059b24fa1fa587ed9fa3e77f",
      "function": "buy(uint256,bool,uint256)",
      "arguments": [
        "5",
        "false",
        "4000000000000000000000"
      ],
      "transaction": {
        "from": "0xf39fd6e51aad88f6f4ce6ab8827279cfffb92266",
        "to": "0xd28f3246f047efd4059b24fa1fa587ed9fa3e77f",
        "gas": "0x23224",
        "value": "0x0",
        "input": "0x438af924000000000000000000000000000000000000000000000000000000000000000500000000000000000000000000000000000000000000000000000000000000000000000000000000000000000000000000000000000000d8d726b7177a800000",
        "nonce": "0x27a",
        "chainId": "0xa455"
      },
      "additionalContracts": [],
      "isFixedGasLimit": false
    },
    {
      "hash": "0xd5dc590c735a60394fe28faec88782c6445f9cb01108dc36e98c3916afae2324",
      "transactionType": "CALL",
      "contractName": null,
      "contractAddress": "0xd28f3246f047efd4059b24fa1fa587ed9fa3e77f",
      "function": "createMarket(string,uint256,address)",
      "arguments": [
        "Will an AI trading agent manage over $1B AUM by 2027?",
        "1830297599",
        "0xf39Fd6e51aad88F6F4ce6aB8827279cffFb92266"
      ],
      "transaction": {
        "from": "0xf39fd6e51aad88f6f4ce6ab8827279cfffb92266",
        "to": "0xd28f3246f047efd4059b24fa1fa587ed9fa3e77f",
        "gas": "0x34018",
        "value": "0x0",
        "input": "0x576cf9d00000000000000000000000000000000000000000000000000000000000000060000000000000000000000000000000000000000000000000000000006d181fff000000000000000000000000f39fd6e51aad88f6f4ce6ab8827279cfffb92266000000000000000000000000000000000000000000000000000000000000003557696c6c20616e2041492074726164696e67206167656e74206d616e616765206f766572202431422041554d20627920323032373f0000000000000000000000",
        "nonce": "0x27b",
        "chainId": "0xa455"
      },
      "additionalContracts": [],
      "isFixedGasLimit": false
    },
    {
      "hash": "0x5bb5e4511cd252545385aacb42738827fc4589c2fbdd6cf81423276f6b0f5f17",
      "transactionType": "CALL",
      "contractName": null,
      "contractAddress": "0xd28f3246f047efd4059b24fa1fa587ed9fa3e77f",
      "function": "buy(uint256,bool,uint256)",
      "arguments": [
        "6",
        "true",
        "2500000000000000000000"
      ],
      "transaction": {
        "from": "0xf39fd6e51aad88f6f4ce6ab8827279cfffb92266",
        "to": "0xd28f3246f047efd4059b24fa1fa587ed9fa3e77f",
        "gas": "0x28e2c",
        "value": "0x0",
        "input": "0x438af924000000000000000000000000000000000000000000000000000000000000000600000000000000000000000000000000000000000000000000000000000000010000000000000000000000000000000000000000000000878678326eac900000",
        "nonce": "0x27c",
        "chainId": "0xa455"
      },
      "additionalContracts": [],
      "isFixedGasLimit": false
    },
    {
      "hash": "0xc98227f545b91357ef53677cd64fd3c240ddda6efa1ad72d6d0705cc35ae7abe",
      "transactionType": "CALL",
      "contractName": null,
      "contractAddress": "0xd28f3246f047efd4059b24fa1fa587ed9fa3e77f",
      "function": "buy(uint256,bool,uint256)",
      "arguments": [
        "6",
        "false",
        "7500000000000000000000"
      ],
      "transaction": {
        "from": "0xf39fd6e51aad88f6f4ce6ab8827279cfffb92266",
        "to": "0xd28f3246f047efd4059b24fa1fa587ed9fa3e77f",
        "gas": "0x23235",
        "value": "0x0",
        "input": "0x438af924000000000000000000000000000000000000000000000000000000000000000600000000000000000000000000000000000000000000000000000000000000000000000000000000000000000000000000000000000001969368974c05b00000",
        "nonce": "0x27d",
        "chainId": "0xa455"
      },
      "additionalContracts": [],
      "isFixedGasLimit": false
    },
    {
      "hash": "0xa767f569a42df2c44f5b46c27cc6a2bdab3b8bb83f0132e94759a2fb5eacf83d",
      "transactionType": "CALL",
      "contractName": null,
      "contractAddress": "0xd28f3246f047efd4059b24fa1fa587ed9fa3e77f",
      "function": "createMarket(string,uint256,address)",
      "arguments": [
        "Will SpaceX launch a crewed Mars mission by 2030?",
        "1924991999",
        "0xf39Fd6e51aad88F6F4ce6aB8827279cffFb92266"
      ],
      "transaction": {
        "from": "0xf39fd6e51aad88f6f4ce6ab8827279cfffb92266",
        "to": "0xd28f3246f047efd4059b24fa1fa587ed9fa3e77f",
        "gas": "0x33fd6",
        "value": "0x0",
        "input": "0x576cf9d000000000000000000000000000000000000000000000000000000000000000600000000000000000000000000000000000000000000000000000000072bd0bff000000000000000000000000f39fd6e51aad88f6f4ce6ab8827279cfffb92266000000000000000000000000000000000000000000000000000000000000003157696c6c20537061636558206c61756e6368206120637265776564204d617273206d697373696f6e20627920323033303f000000000000000000000000000000",
        "nonce": "0x27e",
        "chainId": "0xa455"
      },
      "additionalContracts": [],
      "isFixedGasLimit": false
    },
    {
      "hash": "0x7fd9ad3d92219456c706a94dfc27755e335b2eb501ca9e60521f4dc4aeaf782e",
      "transactionType": "CALL",
      "contractName": null,
      "contractAddress": "0xd28f3246f047efd4059b24fa1fa587ed9fa3e77f",
      "function": "buy(uint256,bool,uint256)",
      "arguments": [
        "7",
        "true",
        "1200000000000000000000"
      ],
      "transaction": {
        "from": "0xf39fd6e51aad88f6f4ce6ab8827279cfffb92266",
        "to": "0xd28f3246f047efd4059b24fa1fa587ed9fa3e77f",
        "gas": "0x28e2c",
        "value": "0x0",
        "input": "0x438af924000000000000000000000000000000000000000000000000000000000000000700000000000000000000000000000000000000000000000000000000000000010000000000000000000000000000000000000000000000410d586a20a4c00000",
        "nonce": "0x27f",
        "chainId": "0xa455"
      },
      "additionalContracts": [],
      "isFixedGasLimit": false
    },
    {
      "hash": "0xd1ff00055f8215cac511d79670fa7aea5eabc45c23343b0e3deb9fd6091d5f75",
      "transactionType": "CALL",
      "contractName": null,
      "contractAddress": "0xd28f3246f047efd4059b24fa1fa587ed9fa3e77f",
      "function": "buy(uint256,bool,uint256)",
      "arguments": [
        "7",
        "false",
        "8800000000000000000000"
      ],
      "transaction": {
        "from": "0xf39fd6e51aad88f6f4ce6ab8827279cfffb92266",
        "to": "0xd28f3246f047efd4059b24fa1fa587ed9fa3e77f",
        "gas": "0x23235",
        "value": "0x0",
        "input": "0x438af924000000000000000000000000000000000000000000000000000000000000000700000000000000000000000000000000000000000000000000000000000000000000000000000000000000000000000000000000000001dd0c885f9a0d800000",
        "nonce": "0x280",
        "chainId": "0xa455"
      },
      "additionalContracts": [],
      "isFixedGasLimit": false
    },
    {
      "hash": "0x551fa7cb9415aedc2bb494c0e2353a9fa3401130dd629105fff4c1dedb4881ec",
      "transactionType": "CALL",
      "contractName": null,
      "contractAddress": "0xd28f3246f047efd4059b24fa1fa587ed9fa3e77f",
      "function": "createMarket(string,uint256,address)",
      "arguments": [
        "Will the US pass comprehensive stablecoin legislation in 2026?",
        "1798761599",
        "0xf39Fd6e51aad88F6F4ce6aB8827279cffFb92266"
      ],
      "transaction": {
        "from": "0xf39fd6e51aad88f6f4ce6ab8827279cfffb92266",
        "to": "0xd28f3246f047efd4059b24fa1fa587ed9fa3e77f",
        "gas": "0x371aa",
        "value": "0x0",
        "input": "0x576cf9d00000000000000000000000000000000000000000000000000000000000000060000000000000000000000000000000000000000000000000000000006b36ec7f000000000000000000000000f39fd6e51aad88f6f4ce6ab8827279cfffb92266000000000000000000000000000000000000000000000000000000000000003e57696c6c20746865205553207061737320636f6d70726568656e7369766520737461626c65636f696e206c656769736c6174696f6e20696e20323032363f0000",
        "nonce": "0x281",
        "chainId": "0xa455"
      },
      "additionalContracts": [],
      "isFixedGasLimit": false
    },
    {
      "hash": "0x1b9e187cb54f8f3f4789958cc4328508d37ff65e4a4b813c07ebac95887f28f7",
      "transactionType": "CALL",
      "contractName": null,
      "contractAddress": "0xd28f3246f047efd4059b24fa1fa587ed9fa3e77f",
      "function": "buy(uint256,bool,uint256)",
      "arguments": [
        "8",
        "true",
        "6800000000000000000000"
      ],
      "transaction": {
        "from": "0xf39fd6e51aad88f6f4ce6ab8827279cfffb92266",
        "to": "0xd28f3246f047efd4059b24fa1fa587ed9fa3e77f",
        "gas": "0x2b4ba",
        "value": "0x0",
        "input": "0x438af92400000000000000000000000000000000000000000000000000000000000000080000000000000000000000000000000000000000000000000000000000000001000000000000000000000000000000000000000000000170a0f5040e50400000",
        "nonce": "0x282",
        "chainId": "0xa455"
      },
      "additionalContracts": [],
      "isFixedGasLimit": false
    },
    {
      "hash": "0x4ecbb0e7b798db500d7ba7a3784290a73269165eb09fd5194518a5071a973c5c",
      "transactionType": "CALL",
      "contractName": null,
      "contractAddress": "0xd28f3246f047efd4059b24fa1fa587ed9fa3e77f",
      "function": "buy(uint256,bool,uint256)",
      "arguments": [
        "8",
        "false",
        "3200000000000000000000"
      ],
      "transaction": {
        "from": "0xf39fd6e51aad88f6f4ce6ab8827279cfffb92266",
        "to": "0xd28f3246f047efd4059b24fa1fa587ed9fa3e77f",
        "gas": "0x23215",
        "value": "0x0",
        "input": "0x438af924000000000000000000000000000000000000000000000000000000000000000800000000000000000000000000000000000000000000000000000000000000000000000000000000000000000000000000000000000000ad78ebc5ac62000000",
        "nonce": "0x283",
        "chainId": "0xa455"
      },
      "additionalContracts": [],
      "isFixedGasLimit": false
    },
    {
      "hash": "0x32774b0b4b6d7f0f74cb29ca72b926041164c31b43eb8e95481f4e9814edcd31",
      "transactionType": "CALL",
      "contractName": null,
      "contractAddress": "0xd28f3246f047efd4059b24fa1fa587ed9fa3e77f",
      "function": "createMarket(string,uint256,address)",
      "arguments": [
        "Will NVIDIA surpass $5 trillion market cap in 2026?",
        "1798761599",
        "0xf39Fd6e51aad88F6F4ce6aB8827279cffFb92266"
      ],
      "transaction": {
        "from": "0xf39fd6e51aad88f6f4ce6ab8827279cfffb92266",
        "to": "0xd28f3246f047efd4059b24fa1fa587ed9fa3e77f",
        "gas": "0x33ff8",
        "value": "0x0",
        "input": "0x576cf9d00000000000000000000000000000000000000000000000000000000000000060000000000000000000000000000000000000000000000000000000006b36ec7f000000000000000000000000f39fd6e51aad88f6f4ce6ab8827279cfffb92266000000000000000000000000000000000000000000000000000000000000003357696c6c204e56494449412073757270617373202435207472696c6c696f6e206d61726b65742063617020696e20323032363f00000000000000000000000000",
        "nonce": "0x284",
        "chainId": "0xa455"
      },
      "additionalContracts": [],
      "isFixedGasLimit": false
    },
    {
      "hash": "0xda64341bc55647a2fe866e753519a625716b74662c43d2b14aa80e34aab10ee4",
      "transactionType": "CALL",
      "contractName": null,
      "contractAddress": "0xd28f3246f047efd4059b24fa1fa587ed9fa3e77f",
      "function": "buy(uint256,bool,uint256)",
      "arguments": [
        "9",
        "true",
        "4500000000000000000000"
      ],
      "transaction": {
        "from": "0xf39fd6e51aad88f6f4ce6ab8827279cfffb92266",
        "to": "0xd28f3246f047efd4059b24fa1fa587ed9fa3e77f",
        "gas": "0x28e2c",
        "value": "0x0",
        "input": "0x438af924000000000000000000000000000000000000000000000000000000000000000900000000000000000000000000000000000000000000000000000000000000010000000000000000000000000000000000000000000000f3f20b8dfa69d00000",
        "nonce": "0x285",
        "chainId": "0xa455"
      },
      "additionalContracts": [],
      "isFixedGasLimit": false
    },
    {
      "hash": "0xd66a97d3ef7c120568ad597990aba63879ad98b5d07713280e5fcdd4cc02c1d7",
      "transactionType": "CALL",
      "contractName": null,
      "contractAddress": "0xd28f3246f047efd4059b24fa1fa587ed9fa3e77f",
      "function": "buy(uint256,bool,uint256)",
      "arguments": [
        "9",
        "false",
        "5500000000000000000000"
      ],
      "transaction": {
        "from": "0xf39fd6e51aad88f6f4ce6ab8827279cfffb92266",
        "to": "0xd28f3246f047efd4059b24fa1fa587ed9fa3e77f",
        "gas": "0x23235",
        "value": "0x0",
        "input": "0x438af9240000000000000000000000000000000000000000000000000000000000000009000000000000000000000000000000000000000000000000000000000000000000000000000000000000000000000000000000000000012a27d53bc048700000",
        "nonce": "0x286",
        "chainId": "0xa455"
      },
      "additionalContracts": [],
      "isFixedGasLimit": false
    }
  ],
  "receipts": [
    {
      "status": "0x1",
      "cumulativeGasUsed": "0xb4c7",
      "logs": [
        {
          "address": "0x5fbdb2315678afecb367f032d93f642f64180aa3",
          "topics": [
            "0x8c5be1e5ebec7d5bd14f71427d1e84f3dd0314c0f7b2291e5b200ac8c7c3b925",
            "0x000000000000000000000000f39fd6e51aad88f6f4ce6ab8827279cfffb92266",
            "0x000000000000000000000000d28f3246f047efd4059b24fa1fa587ed9fa3e77f"
          ],
          "data": "0xffffffffffffffffffffffffffffffffffffffffffffffffffffffffffffffff",
          "blockHash": "0xbc448c449d390aa981633f2cc01a036935648437012ed39f6e7d7e25f11b727b",
          "blockNumber": "0xb8f6",
          "blockTimestamp": "0x69d2ca10",
          "transactionHash": "0x4660989895e51f51bab76dd11d60ee84efc02d4ce59ba4cb341d6f0c09c24518",
          "transactionIndex": "0x0",
          "logIndex": "0x0",
          "removed": false
        }
      ],
      "logsBloom": "0x40000000000000000000000000000000000000000000000000000000000000000000000000000000000000000000000000000000000000000000000000200000000000000000000000000000000000000000000000000000000000000000000000000040000000000000000100000000000000000000000000000000000000000000000000000000000000000000000000000000000000000000000200000000020000000000000000000000000000000000000000000000000000000000200000000040000000200000000000000000000000002000000000000000000000000012000000000000000000000000000000000000000000000000000000000000",
      "type": "0x0",
      "transactionHash": "0x4660989895e51f51bab76dd11d60ee84efc02d4ce59ba4cb341d6f0c09c24518",
      "transactionIndex": "0x0",
      "blockHash": "0xbc448c449d390aa981633f2cc01a036935648437012ed39f6e7d7e25f11b727b",
      "blockNumber": "0xb8f6",
      "gasUsed": "0xb4c7",
      "effectiveGasPrice": "0x3b9aca07",
      "blobGasPrice": "0x1",
      "from": "0xf39fd6e51aad88f6f4ce6ab8827279cfffb92266",
      "to": "0x5fbdb2315678afecb367f032d93f642f64180aa3",
      "contractAddress": null,
      "blockTimestamp": 1775421968
    },
    {
      "status": "0x1",
      "cumulativeGasUsed": "0x35164",
      "logs": [
        {
          "address": "0xd28f3246f047efd4059b24fa1fa587ed9fa3e77f",
          "topics": [
            "0x57d0d124b72f81ed1da0dc728fc33db342705974792928796f6577b8db5c3d53",
            "0x0000000000000000000000000000000000000000000000000000000000000000"
          ],
          "data": "0x0000000000000000000000000000000000000000000000000000000000000060000000000000000000000000000000000000000000000000000000006b36ec7f000000000000000000000000f39fd6e51aad88f6f4ce6ab8827279cfffb92266000000000000000000000000000000000000000000000000000000000000002857696c6c20426974636f696e20726561636820243135304b20627920656e64206f6620323032363f000000000000000000000000000000000000000000000000",
          "blockHash": "0xbc448c449d390aa981633f2cc01a036935648437012ed39f6e7d7e25f11b727b",
          "blockNumber": "0xb8f6",
          "blockTimestamp": "0x69d2ca10",
          "transactionHash": "0x25bdd58c9ded4e5905f333a4eb72e1b8088532c6f155c1b75224cbccd25c6c3b",
          "transactionIndex": "0x1",
          "logIndex": "0x1",
          "removed": false
        }
      ],
      "logsBloom": "0x00000000000000000000000000000000000000000000000000000000000000000000000000000000000000000000000000000000000000000000000000000000000000000000000000000000000000000000000000000000000000000000000000000000020000000000000000000800000000000000000000000000000000000000000000000000800080000000000000000000000000000000000000000000000000000000000000000000000800000000000000000000000000000000200000000000000000000000000000000000000000000000000000000000000020000006000000000000000000000000000000000000000000000000000000000000",
      "type": "0x0",
      "transactionHash": "0x25bdd58c9ded4e5905f333a4eb72e1b8088532c6f155c1b75224cbccd25c6c3b",
      "transactionIndex": "0x1",
      "blockHash": "0xbc448c449d390aa981633f2cc01a036935648437012ed39f6e7d7e25f11b727b",
      "blockNumber": "0xb8f6",
      "gasUsed": "0x29c9d",
      "effectiveGasPrice": "0x3b9aca07",
      "blobGasPrice": "0x1",
      "from": "0xf39fd6e51aad88f6f4ce6ab8827279cfffb92266",
      "to": "0xd28f3246f047efd4059b24fa1fa587ed9fa3e77f",
      "contractAddress": null,
      "blockTimestamp": 1775421968
    },
    {
      "status": "0x1",
      "cumulativeGasUsed": "0x56dcd",
      "logs": [
        {
          "address": "0x5fbdb2315678afecb367f032d93f642f64180aa3",
          "topics": [
            "0xddf252ad1be2c89b69c2b068fc378daa952ba7f163c4a11628f55a4df523b3ef",
            "0x000000000000000000000000f39fd6e51aad88f6f4ce6ab8827279cfffb92266",
            "0x000000000000000000000000d28f3246f047efd4059b24fa1fa587ed9fa3e77f"
          ],
          "data": "0x00000000000000000000000000000000000000000000018650127cc3dc800000",
          "blockHash": "0xbc448c449d390aa981633f2cc01a036935648437012ed39f6e7d7e25f11b727b",
          "blockNumber": "0xb8f6",
          "blockTimestamp": "0x69d2ca10",
          "transactionHash": "0x97602aed4f2eb7feaacfb16e7bcdae433ac81454ba3ecac8d7d0923e239b15a6",
          "transactionIndex": "0x2",
          "logIndex": "0x2",
          "removed": false
        },
        {
          "address": "0x332de1995e0d7e340255833b95ae33f2fe844287",
          "topics": [
            "0xc3d58168c5ae7397731d063d5bbf3d657854427343f4c083240f7aacaa2d0f62",
            "0x000000000000000000000000d28f3246f047efd4059b24fa1fa587ed9fa3e77f",
            "0x0000000000000000000000000000000000000000000000000000000000000000",
            "0x000000000000000000000000f39fd6e51aad88f6f4ce6ab8827279cfffb92266"
          ],
          "data": "0x000000000000000000000000000000000000000000000000000000000000000000000000000000000000000000000000000000000000018650127cc3dc800000",
          "blockHash": "0xbc448c449d390aa981633f2cc01a036935648437012ed39f6e7d7e25f11b727b",
          "blockNumber": "0xb8f6",
          "blockTimestamp": "0x69d2ca10",
          "transactionHash": "0x97602aed4f2eb7feaacfb16e7bcdae433ac81454ba3ecac8d7d0923e239b15a6",
          "transactionIndex": "0x2",
          "logIndex": "0x3",
          "removed": false
        },
        {
          "address": "0xd28f3246f047efd4059b24fa1fa587ed9fa3e77f",
          "topics": [
            "0x94b749af8a24a9e71a160cea1a268a96ec3299200f809d63344a0f668c0f0349",
            "0x0000000000000000000000000000000000000000000000000000000000000000",
            "0x000000000000000000000000f39fd6e51aad88f6f4ce6ab8827279cfffb92266"
          ],
          "data": "0x000000000000000000000000000000000000000000000000000000000000000100000000000000000000000000000000000000000000018650127cc3dc80000000000000000000000000000000000000000000000000018650127cc3dc800000",
          "blockHash": "0xbc448c449d390aa981633f2cc01a036935648437012ed39f6e7d7e25f11b727b",
          "blockNumber": "0xb8f6",
          "blockTimestamp": "0x69d2ca10",
          "transactionHash": "0x97602aed4f2eb7feaacfb16e7bcdae433ac81454ba3ecac8d7d0923e239b15a6",
          "transactionIndex": "0x2",
          "logIndex": "0x4",
          "removed": false
        }
      ],
      "logsBloom": "0x40000000000000000000000000000000000000000000000000000000000000000000000000000000000000000000000000000000000000000000000000002000000000000000000000000008000000000000000000000000000000000400000000000040020000000802000100000800000000000000000000000010000000000000000000000000000000000000000000000000000000000000000200000000000000000000000000000000000800000000000000000000000000000000200000000042000000200000000010000000000000002018000000000000000020000002000000000000000000000000000000000000000000010000080000000000",
      "type": "0x0",
      "transactionHash": "0x97602aed4f2eb7feaacfb16e7bcdae433ac81454ba3ecac8d7d0923e239b15a6",
      "transactionIndex": "0x2",
      "blockHash": "0xbc448c449d390aa981633f2cc01a036935648437012ed39f6e7d7e25f11b727b",
      "blockNumber": "0xb8f6",
      "gasUsed": "0x21c69",
      "effectiveGasPrice": "0x3b9aca07",
      "blobGasPrice": "0x1",
      "from": "0xf39fd6e51aad88f6f4ce6ab8827279cfffb92266",
      "to": "0xd28f3246f047efd4059b24fa1fa587ed9fa3e77f",
      "contractAddress": null,
      "blockTimestamp": 1775421968
    },
    {
      "status": "0x1",
      "cumulativeGasUsed": "0x704bd",
      "logs": [
        {
          "address": "0x5fbdb2315678afecb367f032d93f642f64180aa3",
          "topics": [
            "0xddf252ad1be2c89b69c2b068fc378daa952ba7f163c4a11628f55a4df523b3ef",
            "0x000000000000000000000000f39fd6e51aad88f6f4ce6ab8827279cfffb92266",
            "0x000000000000000000000000d28f3246f047efd4059b24fa1fa587ed9fa3e77f"
          ],
          "data": "0x000000000000000000000000000000000000000000000097c9ce4cf6d5c00000",
          "blockHash": "0xbc448c449d390aa981633f2cc01a036935648437012ed39f6e7d7e25f11b727b",
          "blockNumber": "0xb8f6",
          "blockTimestamp": "0x69d2ca10",
          "transactionHash": "0x1d224c9af275bb64ba26cd226f6fa618dccd7de5fc15dc9069ca35bd7efeaef1",
          "transactionIndex": "0x3",
          "logIndex": "0x5",
          "removed": false
        },
        {
          "address": "0x332de1995e0d7e340255833b95ae33f2fe844287",
          "topics": [
            "0xc3d58168c5ae7397731d063d5bbf3d657854427343f4c083240f7aacaa2d0f62",
            "0x000000000000000000000000d28f3246f047efd4059b24fa1fa587ed9fa3e77f",
            "0x0000000000000000000000000000000000000000000000000000000000000000",
            "0x000000000000000000000000f39fd6e51aad88f6f4ce6ab8827279cfffb92266"
          ],
          "data": "0x0000000000000000000000000000000000000000000000000000000000000001000000000000000000000000000000000000000000000097c9ce4cf6d5c00000",
          "blockHash": "0xbc448c449d390aa981633f2cc01a036935648437012ed39f6e7d7e25f11b727b",
          "blockNumber": "0xb8f6",
          "blockTimestamp": "0x69d2ca10",
          "transactionHash": "0x1d224c9af275bb64ba26cd226f6fa618dccd7de5fc15dc9069ca35bd7efeaef1",
          "transactionIndex": "0x3",
          "logIndex": "0x6",
          "removed": false
        },
        {
          "address": "0xd28f3246f047efd4059b24fa1fa587ed9fa3e77f",
          "topics": [
            "0x94b749af8a24a9e71a160cea1a268a96ec3299200f809d63344a0f668c0f0349",
            "0x0000000000000000000000000000000000000000000000000000000000000000",
            "0x000000000000000000000000f39fd6e51aad88f6f4ce6ab8827279cfffb92266"
          ],
          "data": "0x0000000000000000000000000000000000000000000000000000000000000000000000000000000000000000000000000000000000000097c9ce4cf6d5c00000000000000000000000000000000000000000000000000097c9ce4cf6d5c00000",
          "blockHash": "0xbc448c449d390aa981633f2cc01a036935648437012ed39f6e7d7e25f11b727b",
          "blockNumber": "0xb8f6",
          "blockTimestamp": "0x69d2ca10",
          "transactionHash": "0x1d224c9af275bb64ba26cd226f6fa618dccd7de5fc15dc9069ca35bd7efeaef1",
          "transactionIndex": "0x3",
          "logIndex": "0x7",
          "removed": false
        }
      ],
      "logsBloom": "0x40000000000000000000000000000000000000000000000000000000000000000000000000000000000000000000000000000000000000000000000000002000000000000000000000000008000000000000000000000000000000000400000000000040020000000802000100000800000000000000000000000010000000000000000000000000000000000000000000000000000000000000000200000000000000000000000000000000000800000000000000000000000000000000200000000042000000200000000010000000000000002018000000000000000020000002000000000000000000000000000000000000000000010000080000000000",
      "type": "0x0",
      "transactionHash": "0x1d224c9af275bb64ba26cd226f6fa618dccd7de5fc15dc9069ca35bd7efeaef1",
      "transactionIndex": "0x3",
      "blockHash": "0xbc448c449d390aa981633f2cc01a036935648437012ed39f6e7d7e25f11b727b",
      "blockNumber": "0xb8f6",
      "gasUsed": "0x196f0",
      "effectiveGasPrice": "0x3b9aca07",
      "blobGasPrice": "0x1",
      "from": "0xf39fd6e51aad88f6f4ce6ab8827279cfffb92266",
      "to": "0xd28f3246f047efd4059b24fa1fa587ed9fa3e77f",
      "contractAddress": null,
      "blockTimestamp": 1775421968
    },
    {
      "status": "0x1",
      "cumulativeGasUsed": "0x95ea6",
      "logs": [
        {
          "address": "0xd28f3246f047efd4059b24fa1fa587ed9fa3e77f",
          "topics": [
            "0x57d0d124b72f81ed1da0dc728fc33db342705974792928796f6577b8db5c3d53",
            "0x0000000000000000000000000000000000000000000000000000000000000001"
          ],
          "data": "0x0000000000000000000000000000000000000000000000000000000000000060000000000000000000000000000000000000000000000000000000006b36ec7f000000000000000000000000f39fd6e51aad88f6f4ce6ab8827279cfffb92266000000000000000000000000000000000000000000000000000000000000002a57696c6c20457468657265756d2074726164652061626f7665202431302c30303020696e20323032363f00000000000000000000000000000000000000000000",
          "blockHash": "0xbc448c449d390aa981633f2cc01a036935648437012ed39f6e7d7e25f11b727b",
          "blockNumber": "0xb8f6",
          "blockTimestamp": "0x69d2ca10",
          "transactionHash": "0x0a87dc7483a8f1992b72b17544d96b43e690ab545f6929a68c8ee454f3203245",
          "transactionIndex": "0x4",
          "logIndex": "0x8",
          "removed": false
        }
      ],
      "logsBloom": "0x00000000000000000000000000000000000000000000000000000000000000000000000000000000000000000000000000000000000000000000000000040000000000000000000000000000000000000000000000040000000000000000000000000000000000000000000000000000000000000000000000000000000000000000000000000000800080000000000000000000000000000000000000000000000000000000000000000000000800000000000000000000000000000000200000000000000000000000000000000000000000000000000000000000000040000006000000000000000000000000000000000000000000000000000000000000",
      "type": "0x0",
      "transactionHash": "0x0a87dc7483a8f1992b72b17544d96b43e690ab545f6929a68c8ee454f3203245",
      "transactionIndex": "0x4",
      "blockHash": "0xbc448c449d390aa981633f2cc01a036935648437012ed39f6e7d7e25f11b727b",
      "blockNumber": "0xb8f6",
      "gasUsed": "0x259e9",
      "effectiveGasPrice": "0x3b9aca07",
      "blobGasPrice": "0x1",
      "from": "0xf39fd6e51aad88f6f4ce6ab8827279cfffb92266",
      "to": "0xd28f3246f047efd4059b24fa1fa587ed9fa3e77f",
      "contractAddress": null,
      "blockTimestamp": 1775421968
    },
    {
      "status": "0x1",
      "cumulativeGasUsed": "0xb384f",
      "logs": [
        {
          "address": "0x5fbdb2315678afecb367f032d93f642f64180aa3",
          "topics": [
            "0xddf252ad1be2c89b69c2b068fc378daa952ba7f163c4a11628f55a4df523b3ef",
            "0x000000000000000000000000f39fd6e51aad88f6f4ce6ab8827279cfffb92266",
            "0x000000000000000000000000d28f3246f047efd4059b24fa1fa587ed9fa3e77f"
          ],
          "data": "0x00000000000000000000000000000000000000000000012a27d53bc048700000",
          "blockHash": "0xbc448c449d390aa981633f2cc01a036935648437012ed39f6e7d7e25f11b727b",
          "blockNumber": "0xb8f6",
          "blockTimestamp": "0x69d2ca10",
          "transactionHash": "0x213538d66e197a717cfa4d09e657c8b1042f67442567665235adb808bfc8d235",
          "transactionIndex": "0x5",
          "logIndex": "0x9",
          "removed": false
        },
        {
          "address": "0x332de1995e0d7e340255833b95ae33f2fe844287",
          "topics": [
            "0xc3d58168c5ae7397731d063d5bbf3d657854427343f4c083240f7aacaa2d0f62",
            "0x000000000000000000000000d28f3246f047efd4059b24fa1fa587ed9fa3e77f",
            "0x0000000000000000000000000000000000000000000000000000000000000000",
            "0x000000000000000000000000f39fd6e51aad88f6f4ce6ab8827279cfffb92266"
          ],
          "data": "0x000000000000000000000000000000000000000000000000000000000000000200000000000000000000000000000000000000000000012a27d53bc048700000",
          "blockHash": "0xbc448c449d390aa981633f2cc01a036935648437012ed39f6e7d7e25f11b727b",
          "blockNumber": "0xb8f6",
          "blockTimestamp": "0x69d2ca10",
          "transactionHash": "0x213538d66e197a717cfa4d09e657c8b1042f67442567665235adb808bfc8d235",
          "transactionIndex": "0x5",
          "logIndex": "0xa",
          "removed": false
        },
        {
          "address": "0xd28f3246f047efd4059b24fa1fa587ed9fa3e77f",
          "topics": [
            "0x94b749af8a24a9e71a160cea1a268a96ec3299200f809d63344a0f668c0f0349",
            "0x0000000000000000000000000000000000000000000000000000000000000001",
            "0x000000000000000000000000f39fd6e51aad88f6f4ce6ab8827279cfffb92266"
          ],
          "data": "0x000000000000000000000000000000000000000000000000000000000000000100000000000000000000000000000000000000000000012a27d53bc04870000000000000000000000000000000000000000000000000012a27d53bc048700000",
          "blockHash": "0xbc448c449d390aa981633f2cc01a036935648437012ed39f6e7d7e25f11b727b",
          "blockNumber": "0xb8f6",
          "blockTimestamp": "0x69d2ca10",
          "transactionHash": "0x213538d66e197a717cfa4d09e657c8b1042f67442567665235adb808bfc8d235",
          "transactionIndex": "0x5",
          "logIndex": "0xb",
          "removed": false
        }
      ],
      "logsBloom": "0x40000000000000000000000000000000000000000000000000000000000000000000000000000000000000000000000000000000000000000000000000042000000000000000000000000008000000000000000000040000000000000400000000000040020000000802000100000800000000000000000000000010000000000000000000000000000000000000000000000000000000000000000200000000000000000000000000000000000800000000000000000000000000000000200000000042000000200000000010000000000000002018000000000000000060000002000000000000000000000000000000000000000000010000080000000000",
      "type": "0x0",
      "transactionHash": "0x213538d66e197a717cfa4d09e657c8b1042f67442567665235adb808bfc8d235",
      "transactionIndex": "0x5",
      "blockHash": "0xbc448c449d390aa981633f2cc01a036935648437012ed39f6e7d7e25f11b727b",
      "blockNumber": "0xb8f6",
      "gasUsed": "0x1d9a9",
      "effectiveGasPrice": "0x3b9aca07",
      "blobGasPrice": "0x1",
      "from": "0xf39fd6e51aad88f6f4ce6ab8827279cfffb92266",
      "to": "0xd28f3246f047efd4059b24fa1fa587ed9fa3e77f",
      "contractAddress": null,
      "blockTimestamp": 1775421968
    },
    {
      "status": "0x1",
      "cumulativeGasUsed": "0xccf4b",
      "logs": [
        {
          "address": "0x5fbdb2315678afecb367f032d93f642f64180aa3",
          "topics": [
            "0xddf252ad1be2c89b69c2b068fc378daa952ba7f163c4a11628f55a4df523b3ef",
            "0x000000000000000000000000f39fd6e51aad88f6f4ce6ab8827279cfffb92266",
            "0x000000000000000000000000d28f3246f047efd4059b24fa1fa587ed9fa3e77f"
          ],
          "data": "0x0000000000000000000000000000000000000000000000f3f20b8dfa69d00000",
          "blockHash": "0xbc448c449d390aa981633f2cc01a036935648437012ed39f6e7d7e25f11b727b",
          "blockNumber": "0xb8f6",
          "blockTimestamp": "0x69d2ca10",
          "transactionHash": "0x4b08837dadd02dd40b8c41617650c29096a566070ffe565f4be78dd2da822b5e",
          "transactionIndex": "0x6",
          "logIndex": "0xc",
          "removed": false
        },
        {
          "address": "0x332de1995e0d7e340255833b95ae33f2fe844287",
          "topics": [
            "0xc3d58168c5ae7397731d063d5bbf3d657854427343f4c083240f7aacaa2d0f62",
            "0x000000000000000000000000d28f3246f047efd4059b24fa1fa587ed9fa3e77f",
            "0x0000000000000000000000000000000000000000000000000000000000000000",
            "0x000000000000000000000000f39fd6e51aad88f6f4ce6ab8827279cfffb92266"
          ],
          "data": "0x00000000000000000000000000000000000000000000000000000000000000030000000000000000000000000000000000000000000000f3f20b8dfa69d00000",
          "blockHash": "0xbc448c449d390aa981633f2cc01a036935648437012ed39f6e7d7e25f11b727b",
          "blockNumber": "0xb8f6",
          "blockTimestamp": "0x69d2ca10",
          "transactionHash": "0x4b08837dadd02dd40b8c41617650c29096a566070ffe565f4be78dd2da822b5e",
          "transactionIndex": "0x6",
          "logIndex": "0xd",
          "removed": false
        },
        {
          "address": "0xd28f3246f047efd4059b24fa1fa587ed9fa3e77f",
          "topics": [
            "0x94b749af8a24a9e71a160cea1a268a96ec3299200f809d63344a0f668c0f0349",
            "0x0000000000000000000000000000000000000000000000000000000000000001",
            "0x000000000000000000000000f39fd6e51aad88f6f4ce6ab8827279cfffb92266"
          ],
          "data": "0x00000000000000000000000000000000000000000000000000000000000000000000000000000000000000000000000000000000000000f3f20b8dfa69d000000000000000000000000000000000000000000000000000f3f20b8dfa69d00000",
          "blockHash": "0xbc448c449d390aa981633f2cc01a036935648437012ed39f6e7d7e25f11b727b",
          "blockNumber": "0xb8f6",
          "blockTimestamp": "0x69d2ca10",
          "transactionHash": "0x4b08837dadd02dd40b8c41617650c29096a566070ffe565f4be78dd2da822b5e",
          "transactionIndex": "0x6",
          "logIndex": "0xe",
          "removed": false
        }
      ],
      "logsBloom": "0x40000000000000000000000000000000000000000000000000000000000000000000000000000000000000000000000000000000000000000000000000042000000000000000000000000008000000000000000000040000000000000400000000000040020000000802000100000800000000000000000000000010000000000000000000000000000000000000000000000000000000000000000200000000000000000000000000000000000800000000000000000000000000000000200000000042000000200000000010000000000000002018000000000000000060000002000000000000000000000000000000000000000000010000080000000000",
      "type": "0x0",
      "transactionHash": "0x4b08837dadd02dd40b8c41617650c29096a566070ffe565f4be78dd2da822b5e",
      "transactionIndex": "0x6",
      "blockHash": "0xbc448c449d390aa981633f2cc01a036935648437012ed39f6e7d7e25f11b727b",
      "blockNumber": "0xb8f6",
      "gasUsed": "0x196fc",
      "effectiveGasPrice": "0x3b9aca07",
      "blobGasPrice": "0x1",
      "from": "0xf39fd6e51aad88f6f4ce6ab8827279cfffb92266",
      "to": "0xd28f3246f047efd4059b24fa1fa587ed9fa3e77f",
      "contractAddress": null,
      "blockTimestamp": 1775421968
    },
    {
      "status": "0x1",
      "cumulativeGasUsed": "0xf297c",
      "logs": [
        {
          "address": "0xd28f3246f047efd4059b24fa1fa587ed9fa3e77f",
          "topics": [
            "0x57d0d124b72f81ed1da0dc728fc33db342705974792928796f6577b8db5c3d53",
            "0x0000000000000000000000000000000000000000000000000000000000000002"
          ],
          "data": "0x0000000000000000000000000000000000000000000000000000000000000060000000000000000000000000000000000000000000000000000000006d181fff000000000000000000000000f39fd6e51aad88f6f4ce6ab8827279cfffb92266000000000000000000000000000000000000000000000000000000000000003057696c6c20476f6f64446f6c6c617220726561636820314d206461696c7920636c61696d65727320627920323032373f00000000000000000000000000000000",
          "blockHash": "0xbc448c449d390aa981633f2cc01a036935648437012ed39f6e7d7e25f11b727b",
          "blockNumber": "0xb8f6",
          "blockTimestamp": "0x69d2ca10",
          "transactionHash": "0x91ac4d944f4c3b1a4f1d10ca196b757820bb32e25a36596a3c0b3bb9b5c5d5c0",
          "transactionIndex": "0x7",
          "logIndex": "0xf",
          "removed": false
        }
      ],
      "logsBloom": "0x04000000000000000000000000000000000000000000000000000000000000000000000000000000000000000000000000000000000000000000000000000000000000000000000000000000000000000000000000000000000000000000000000000000000000000000000000000000000000000000000000000000000000000000000000000000800080000000000000000000000000000000000000000000000000000000000000000100000800000000000000000000000000000000200000000000000000000000000000000000000000000000000000000000000000000006000000000000000000000000000000000000008000000000000000000000",
      "type": "0x0",
      "transactionHash": "0x91ac4d944f4c3b1a4f1d10ca196b757820bb32e25a36596a3c0b3bb9b5c5d5c0",
      "transactionIndex": "0x7",
      "blockHash": "0xbc448c449d390aa981633f2cc01a036935648437012ed39f6e7d7e25f11b727b",
      "blockNumber": "0xb8f6",
      "gasUsed": "0x25a31",
      "effectiveGasPrice": "0x3b9aca07",
      "blobGasPrice": "0x1",
      "from": "0xf39fd6e51aad88f6f4ce6ab8827279cfffb92266",
      "to": "0xd28f3246f047efd4059b24fa1fa587ed9fa3e77f",
      "contractAddress": null,
      "blockTimestamp": 1775421968
    },
    {
      "status": "0x1",
      "cumulativeGasUsed": "0x110319",
      "logs": [
        {
          "address": "0x5fbdb2315678afecb367f032d93f642f64180aa3",
          "topics": [
            "0xddf252ad1be2c89b69c2b068fc378daa952ba7f163c4a11628f55a4df523b3ef",
            "0x000000000000000000000000f39fd6e51aad88f6f4ce6ab8827279cfffb92266",
            "0x000000000000000000000000d28f3246f047efd4059b24fa1fa587ed9fa3e77f"
          ],
          "data": "0x0000000000000000000000000000000000000000000000bdbc41e0348b300000",
          "blockHash": "0xbc448c449d390aa981633f2cc01a036935648437012ed39f6e7d7e25f11b727b",
          "blockNumber": "0xb8f6",
          "blockTimestamp": "0x69d2ca10",
          "transactionHash": "0x1b48ffb78b33e48d6fc744db1e2c27f95f4fa279985605b651719dfede91aa94",
          "transactionIndex": "0x8",
          "logIndex": "0x10",
          "removed": false
        },
        {
          "address": "0x332de1995e0d7e340255833b95ae33f2fe844287",
          "topics": [
            "0xc3d58168c5ae7397731d063d5bbf3d657854427343f4c083240f7aacaa2d0f62",
            "0x000000000000000000000000d28f3246f047efd4059b24fa1fa587ed9fa3e77f",
            "0x0000000000000000000000000000000000000000000000000000000000000000",
            "0x000000000000000000000000f39fd6e51aad88f6f4ce6ab8827279cfffb92266"
          ],
          "data": "0x00000000000000000000000000000000000000000000000000000000000000040000000000000000000000000000000000000000000000bdbc41e0348b300000",
          "blockHash": "0xbc448c449d390aa981633f2cc01a036935648437012ed39f6e7d7e25f11b727b",
          "blockNumber": "0xb8f6",
          "blockTimestamp": "0x69d2ca10",
          "transactionHash": "0x1b48ffb78b33e48d6fc744db1e2c27f95f4fa279985605b651719dfede91aa94",
          "transactionIndex": "0x8",
          "logIndex": "0x11",
          "removed": false
        },
        {
          "address": "0xd28f3246f047efd4059b24fa1fa587ed9fa3e77f",
          "topics": [
            "0x94b749af8a24a9e71a160cea1a268a96ec3299200f809d63344a0f668c0f0349",
            "0x0000000000000000000000000000000000000000000000000000000000000002",
            "0x000000000000000000000000f39fd6e51aad88f6f4ce6ab8827279cfffb92266"
          ],
          "data": "0x00000000000000000000000000000000000000000000000000000000000000010000000000000000000000000000000000000000000000bdbc41e0348b3000000000000000000000000000000000000000000000000000bdbc41e0348b300000",
          "blockHash": "0xbc448c449d390aa981633f2cc01a036935648437012ed39f6e7d7e25f11b727b",
          "blockNumber": "0xb8f6",
          "blockTimestamp": "0x69d2ca10",
          "transactionHash": "0x1b48ffb78b33e48d6fc744db1e2c27f95f4fa279985605b651719dfede91aa94",
          "transactionIndex": "0x8",
          "logIndex": "0x12",
          "removed": false
        }
      ],
      "logsBloom": "0x44000000000000000000000000000000000000000000000000000000000000000000000000000000000000000000000000000000000000000000000000002000000000000000000000000008000000000000000000000000000000000400000000000040020000000802000100000800000000000000000000000010000000000000000000000000000000000000000000000000000000000000000200000000000000000000000000000100000800000000000000000000000000000000200000000042000000200000000010000000000000002018000000000000000020000002000000000000000000000000000000000000008000010000080000000000",
      "type": "0x0",
      "transactionHash": "0x1b48ffb78b33e48d6fc744db1e2c27f95f4fa279985605b651719dfede91aa94",
      "transactionIndex": "0x8",
      "blockHash": "0xbc448c449d390aa981633f2cc01a036935648437012ed39f6e7d7e25f11b727b",
      "blockNumber": "0xb8f6",
      "gasUsed": "0x1d99d",
      "effectiveGasPrice": "0x3b9aca07",
      "blobGasPrice": "0x1",
      "from": "0xf39fd6e51aad88f6f4ce6ab8827279cfffb92266",
      "to": "0xd28f3246f047efd4059b24fa1fa587ed9fa3e77f",
      "contractAddress": null,
      "blockTimestamp": 1775421968
    },
    {
      "status": "0x1",
      "cumulativeGasUsed": "0x129a21",
      "logs": [
        {
          "address": "0x5fbdb2315678afecb367f032d93f642f64180aa3",
          "topics": [
            "0xddf252ad1be2c89b69c2b068fc378daa952ba7f163c4a11628f55a4df523b3ef",
            "0x000000000000000000000000f39fd6e51aad88f6f4ce6ab8827279cfffb92266",
            "0x000000000000000000000000d28f3246f047efd4059b24fa1fa587ed9fa3e77f"
          ],
          "data": "0x0000000000000000000000000000000000000000000001605d9ee98627100000",
          "blockHash": "0xbc448c449d390aa981633f2cc01a036935648437012ed39f6e7d7e25f11b727b",
          "blockNumber": "0xb8f6",
          "blockTimestamp": "0x69d2ca10",
          "transactionHash": "0x9b01e64808611ea963e8483bc8401c4017031fd33fd018a42abc38c53bc29dcc",
          "transactionIndex": "0x9",
          "logIndex": "0x13",
          "removed": false
        },
        {
          "address": "0x332de1995e0d7e340255833b95ae33f2fe844287",
          "topics": [
            "0xc3d58168c5ae7397731d063d5bbf3d657854427343f4c083240f7aacaa2d0f62",
            "0x000000000000000000000000d28f3246f047efd4059b24fa1fa587ed9fa3e77f",
            "0x0000000000000000000000000000000000000000000000000000000000000000",
            "0x000000000000000000000000f39fd6e51aad88f6f4ce6ab8827279cfffb92266"
          ],
          "data": "0x00000000000000000000000000000000000000000000000000000000000000050000000000000000000000000000000000000000000001605d9ee98627100000",
          "blockHash": "0xbc448c449d390aa981633f2cc01a036935648437012ed39f6e7d7e25f11b727b",
          "blockNumber": "0xb8f6",
          "blockTimestamp": "0x69d2ca10",
          "transactionHash": "0x9b01e64808611ea963e8483bc8401c4017031fd33fd018a42abc38c53bc29dcc",
          "transactionIndex": "0x9",
          "logIndex": "0x14",
          "removed": false
        },
        {
          "address": "0xd28f3246f047efd4059b24fa1fa587ed9fa3e77f",
          "topics": [
            "0x94b749af8a24a9e71a160cea1a268a96ec3299200f809d63344a0f668c0f0349",
            "0x0000000000000000000000000000000000000000000000000000000000000002",
            "0x000000000000000000000000f39fd6e51aad88f6f4ce6ab8827279cfffb92266"
          ],
          "data": "0x00000000000000000000000000000000000000000000000000000000000000000000000000000000000000000000000000000000000001605d9ee986271000000000000000000000000000000000000000000000000001605d9ee98627100000",
          "blockHash": "0xbc448c449d390aa981633f2cc01a036935648437012ed39f6e7d7e25f11b727b",
          "blockNumber": "0xb8f6",
          "blockTimestamp": "0x69d2ca10",
          "transactionHash": "0x9b01e64808611ea963e8483bc8401c4017031fd33fd018a42abc38c53bc29dcc",
          "transactionIndex": "0x9",
          "logIndex": "0x15",
          "removed": false
        }
      ],
      "logsBloom": "0x44000000000000000000000000000000000000000000000000000000000000000000000000000000000000000000000000000000000000000000000000002000000000000000000000000008000000000000000000000000000000000400000000000040020000000802000100000800000000000000000000000010000000000000000000000000000000000000000000000000000000000000000200000000000000000000000000000100000800000000000000000000000000000000200000000042000000200000000010000000000000002018000000000000000020000002000000000000000000000000000000000000008000010000080000000000",
      "type": "0x0",
      "transactionHash": "0x9b01e64808611ea963e8483bc8401c4017031fd33fd018a42abc38c53bc29dcc",
      "transactionIndex": "0x9",
      "blockHash": "0xbc448c449d390aa981633f2cc01a036935648437012ed39f6e7d7e25f11b727b",
      "blockNumber": "0xb8f6",
      "gasUsed": "0x19708",
      "effectiveGasPrice": "0x3b9aca07",
      "blobGasPrice": "0x1",
      "from": "0xf39fd6e51aad88f6f4ce6ab8827279cfffb92266",
      "to": "0xd28f3246f047efd4059b24fa1fa587ed9fa3e77f",
      "contractAddress": null,
      "blockTimestamp": 1775421968
    },
    {
      "status": "0x1",
      "cumulativeGasUsed": "0x14f452",
      "logs": [
        {
          "address": "0xd28f3246f047efd4059b24fa1fa587ed9fa3e77f",
          "topics": [
            "0x57d0d124b72f81ed1da0dc728fc33db342705974792928796f6577b8db5c3d53",
            "0x0000000000000000000000000000000000000000000000000000000000000003"
          ],
          "data": "0x0000000000000000000000000000000000000000000000000000000000000060000000000000000000000000000000000000000000000000000000006b36ec7f000000000000000000000000f39fd6e51aad88f6f4ce6ab8827279cfffb92266000000000000000000000000000000000000000000000000000000000000003057696c6c20746865204665642046756e647320726174652062652062656c6f772033252062792044656320323032363f00000000000000000000000000000000",
          "blockHash": "0xbc448c449d390aa981633f2cc01a036935648437012ed39f6e7d7e25f11b727b",
          "blockNumber": "0xb8f6",
          "blockTimestamp": "0x69d2ca10",
          "transactionHash": "0xd66a97d3ef7c120568ad597990aba63879ad98b5d07713280e5fcdd4cc02c1d7",
          "transactionIndex": "0xa",
          "logIndex": "0x16",
          "removed": false
        }
      ],
      "logsBloom": "0x00000000000000000000000000000000000000000000000000000000000000000000000000000000000000000000000000000000020000000000000000000000000000000000000000000000000000000000000000000000000000000000000000000000000000000000000000000000000000000000000000000000000000000000000000000000800080000000000000000000000000000000000000000000000000000000000000000000000800000000000000800000000000000000600000000000000000000000000000000000000000000000000000000000000000000006000000000000000000000000000000000000000000000000000000000000",
      "type": "0x0",
      "transactionHash": "0xd66a97d3ef7c120568ad597990aba63879ad98b5d07713280e5fcdd4cc02c1d7",
      "transactionIndex": "0xa",
      "blockHash": "0xbc448c449d390aa981633f2cc01a036935648437012ed39f6e7d7e25f11b727b",
      "blockNumber": "0xb8f6",
      "gasUsed": "0x25a31",
      "effectiveGasPrice": "0x3b9aca07",
      "blobGasPrice": "0x1",
      "from": "0xf39fd6e51aad88f6f4ce6ab8827279cfffb92266",
      "to": "0xd28f3246f047efd4059b24fa1fa587ed9fa3e77f",
      "contractAddress": null,
      "blockTimestamp": 1775421968
    },
    {
      "status": "0x1",
      "cumulativeGasUsed": "0x16cdef",
      "logs": [
        {
          "address": "0x5fbdb2315678afecb367f032d93f642f64180aa3",
          "topics": [
            "0xddf252ad1be2c89b69c2b068fc378daa952ba7f163c4a11628f55a4df523b3ef",
            "0x000000000000000000000000f39fd6e51aad88f6f4ce6ab8827279cfffb92266",
            "0x000000000000000000000000d28f3246f047efd4059b24fa1fa587ed9fa3e77f"
          ],
          "data": "0x0000000000000000000000000000000000000000000000e3aeb5737240a00000",
          "blockHash": "0xbc448c449d390aa981633f2cc01a036935648437012ed39f6e7d7e25f11b727b",
          "blockNumber": "0xb8f6",
          "blockTimestamp": "0x69d2ca10",
          "transactionHash": "0x4ecbb0e7b798db500d7ba7a3784290a73269165eb09fd5194518a5071a973c5c",
          "transactionIndex": "0xb",
          "logIndex": "0x17",
          "removed": false
        },
        {
          "address": "0x332de1995e0d7e340255833b95ae33f2fe844287",
          "topics": [
            "0xc3d58168c5ae7397731d063d5bbf3d657854427343f4c083240f7aacaa2d0f62",
            "0x000000000000000000000000d28f3246f047efd4059b24fa1fa587ed9fa3e77f",
            "0x0000000000000000000000000000000000000000000000000000000000000000",
            "0x000000000000000000000000f39fd6e51aad88f6f4ce6ab8827279cfffb92266"
          ],
          "data": "0x00000000000000000000000000000000000000000000000000000000000000060000000000000000000000000000000000000000000000e3aeb5737240a00000",
          "blockHash": "0xbc448c449d390aa981633f2cc01a036935648437012ed39f6e7d7e25f11b727b",
          "blockNumber": "0xb8f6",
          "blockTimestamp": "0x69d2ca10",
          "transactionHash": "0x4ecbb0e7b798db500d7ba7a3784290a73269165eb09fd5194518a5071a973c5c",
          "transactionIndex": "0xb",
          "logIndex": "0x18",
          "removed": false
        },
        {
          "address": "0xd28f3246f047efd4059b24fa1fa587ed9fa3e77f",
          "topics": [
            "0x94b749af8a24a9e71a160cea1a268a96ec3299200f809d63344a0f668c0f0349",
            "0x0000000000000000000000000000000000000000000000000000000000000003",
            "0x000000000000000000000000f39fd6e51aad88f6f4ce6ab8827279cfffb92266"
          ],
          "data": "0x00000000000000000000000000000000000000000000000000000000000000010000000000000000000000000000000000000000000000e3aeb5737240a000000000000000000000000000000000000000000000000000e3aeb5737240a00000",
          "blockHash": "0xbc448c449d390aa981633f2cc01a036935648437012ed39f6e7d7e25f11b727b",
          "blockNumber": "0xb8f6",
          "blockTimestamp": "0x69d2ca10",
          "transactionHash": "0x4ecbb0e7b798db500d7ba7a3784290a73269165eb09fd5194518a5071a973c5c",
          "transactionIndex": "0xb",
          "logIndex": "0x19",
          "removed": false
        }
      ],
      "logsBloom": "0x40000000000000000000000000000000000000000000000000000000000000000000000000000000000000000000000000000000020000000000000000002000000000000000000000000008000000000000000000000000000000000400000000000040020000000802000100000800000000000000000000000010000000000000000000000000000000000000000000000000000000000000000200000000000000000000000000000000000800000000000000800000000000000000600000000042000000200000000010000000000000002018000000000000000020000002000000000000000000000000000000000000000000010000080000000000",
      "type": "0x0",
      "transactionHash": "0x4ecbb0e7b798db500d7ba7a3784290a73269165eb09fd5194518a5071a973c5c",
      "transactionIndex": "0xb",
      "blockHash": "0xbc448c449d390aa981633f2cc01a036935648437012ed39f6e7d7e25f11b727b",
      "blockNumber": "0xb8f6",
      "gasUsed": "0x1d99d",
      "effectiveGasPrice": "0x3b9aca07",
      "blobGasPrice": "0x1",
      "from": "0xf39fd6e51aad88f6f4ce6ab8827279cfffb92266",
      "to": "0xd28f3246f047efd4059b24fa1fa587ed9fa3e77f",
      "contractAddress": null,
      "blockTimestamp": 1775421968
    },
    {
      "status": "0x1",
      "cumulativeGasUsed": "0x1864f7",
      "logs": [
        {
          "address": "0x5fbdb2315678afecb367f032d93f642f64180aa3",
          "topics": [
            "0xddf252ad1be2c89b69c2b068fc378daa952ba7f163c4a11628f55a4df523b3ef",
            "0x000000000000000000000000f39fd6e51aad88f6f4ce6ab8827279cfffb92266",
            "0x000000000000000000000000d28f3246f047efd4059b24fa1fa587ed9fa3e77f"
          ],
          "data": "0x00000000000000000000000000000000000000000000013a6b2b564871a00000",
          "blockHash": "0xbc448c449d390aa981633f2cc01a036935648437012ed39f6e7d7e25f11b727b",
          "blockNumber": "0xb8f6",
          "blockTimestamp": "0x69d2ca10",
          "transactionHash": "0x7fd9ad3d92219456c706a94dfc27755e335b2eb501ca9e60521f4dc4aeaf782e",
          "transactionIndex": "0xc",
          "logIndex": "0x1a",
          "removed": false
        },
        {
          "address": "0x332de1995e0d7e340255833b95ae33f2fe844287",
          "topics": [
            "0xc3d58168c5ae7397731d063d5bbf3d657854427343f4c083240f7aacaa2d0f62",
            "0x000000000000000000000000d28f3246f047efd4059b24fa1fa587ed9fa3e77f",
            "0x0000000000000000000000000000000000000000000000000000000000000000",
            "0x000000000000000000000000f39fd6e51aad88f6f4ce6ab8827279cfffb92266"
          ],
          "data": "0x000000000000000000000000000000000000000000000000000000000000000700000000000000000000000000000000000000000000013a6b2b564871a00000",
          "blockHash": "0xbc448c449d390aa981633f2cc01a036935648437012ed39f6e7d7e25f11b727b",
          "blockNumber": "0xb8f6",
          "blockTimestamp": "0x69d2ca10",
          "transactionHash": "0x7fd9ad3d92219456c706a94dfc27755e335b2eb501ca9e60521f4dc4aeaf782e",
          "transactionIndex": "0xc",
          "logIndex": "0x1b",
          "removed": false
        },
        {
          "address": "0xd28f3246f047efd4059b24fa1fa587ed9fa3e77f",
          "topics": [
            "0x94b749af8a24a9e71a160cea1a268a96ec3299200f809d63344a0f668c0f0349",
            "0x0000000000000000000000000000000000000000000000000000000000000003",
            "0x000000000000000000000000f39fd6e51aad88f6f4ce6ab8827279cfffb92266"
          ],
          "data": "0x000000000000000000000000000000000000000000000000000000000000000000000000000000000000000000000000000000000000013a6b2b564871a0000000000000000000000000000000000000000000000000013a6b2b564871a00000",
          "blockHash": "0xbc448c449d390aa981633f2cc01a036935648437012ed39f6e7d7e25f11b727b",
          "blockNumber": "0xb8f6",
          "blockTimestamp": "0x69d2ca10",
          "transactionHash": "0x7fd9ad3d92219456c706a94dfc27755e335b2eb501ca9e60521f4dc4aeaf782e",
          "transactionIndex": "0xc",
          "logIndex": "0x1c",
          "removed": false
        }
      ],
      "logsBloom": "0x40000000000000000000000000000000000000000000000000000000000000000000000000000000000000000000000000000000020000000000000000002000000000000000000000000008000000000000000000000000000000000400000000000040020000000802000100000800000000000000000000000010000000000000000000000000000000000000000000000000000000000000000200000000000000000000000000000000000800000000000000800000000000000000600000000042000000200000000010000000000000002018000000000000000020000002000000000000000000000000000000000000000000010000080000000000",
      "type": "0x0",
      "transactionHash": "0x7fd9ad3d92219456c706a94dfc27755e335b2eb501ca9e60521f4dc4aeaf782e",
      "transactionIndex": "0xc",
      "blockHash": "0xbc448c449d390aa981633f2cc01a036935648437012ed39f6e7d7e25f11b727b",
      "blockNumber": "0xb8f6",
      "gasUsed": "0x19708",
      "effectiveGasPrice": "0x3b9aca07",
      "blobGasPrice": "0x1",
      "from": "0xf39fd6e51aad88f6f4ce6ab8827279cfffb92266",
      "to": "0xd28f3246f047efd4059b24fa1fa587ed9fa3e77f",
      "contractAddress": null,
      "blockTimestamp": 1775421968
    },
    {
      "status": "0x1",
      "cumulativeGasUsed": "0x1a0f32",
      "logs": [
        {
          "address": "0xd28f3246f047efd4059b24fa1fa587ed9fa3e77f",
          "topics": [
            "0x57d0d124b72f81ed1da0dc728fc33db342705974792928796f6577b8db5c3d53",
            "0x0000000000000000000000000000000000000000000000000000000000000004"
          ],
          "data": "0x00000000000000000000000000000000000000000000000000000000000000600000000000000000000000000000000000000000000000000000000072bd0bff000000000000000000000000f39fd6e51aad88f6f4ce6ab8827279cfffb92266000000000000000000000000000000000000000000000000000000000000001d57696c6c2041474920626520616368696576656420627920323033303f000000",
          "blockHash": "0xbc448c449d390aa981633f2cc01a036935648437012ed39f6e7d7e25f11b727b",
          "blockNumber": "0xb8f6",
          "blockTimestamp": "0x69d2ca10",
          "transactionHash": "0x551fa7cb9415aedc2bb494c0e2353a9fa3401130dd629105fff4c1dedb4881ec",
          "transactionIndex": "0xd",
          "logIndex": "0x1d",
          "removed": false
        }
      ],
      "logsBloom": "0x00000000000000000000000000000000000000000000000000000000000000000000000000000000000000000000000000000000000000000000000000000000000000000000000000000000000000000000000000000000000000000000000008000000000000000000000000000000000000000000000000000000000000000000000000000000800080000000000000000000000000000000000000000000000000000000000000000000000800000000000000000000002000000000200000000000000000000000000000000000000000008000000000000000000000000006000000000000000000000000000000000000000000000000000000000000",
      "type": "0x0",
      "transactionHash": "0x551fa7cb9415aedc2bb494c0e2353a9fa3401130dd629105fff4c1dedb4881ec",
      "transactionIndex": "0xd",
      "blockHash": "0xbc448c449d390aa981633f2cc01a036935648437012ed39f6e7d7e25f11b727b",
      "blockNumber": "0xb8f6",
      "gasUsed": "0x1aa3b",
      "effectiveGasPrice": "0x3b9aca07",
      "blobGasPrice": "0x1",
      "from": "0xf39fd6e51aad88f6f4ce6ab8827279cfffb92266",
      "to": "0xd28f3246f047efd4059b24fa1fa587ed9fa3e77f",
      "contractAddress": null,
      "blockTimestamp": 1775421968
    },
    {
      "status": "0x1",
      "cumulativeGasUsed": "0x1be8cf",
      "logs": [
        {
          "address": "0x5fbdb2315678afecb367f032d93f642f64180aa3",
          "topics": [
            "0xddf252ad1be2c89b69c2b068fc378daa952ba7f163c4a11628f55a4df523b3ef",
            "0x000000000000000000000000f39fd6e51aad88f6f4ce6ab8827279cfffb92266",
            "0x000000000000000000000000d28f3246f047efd4059b24fa1fa587ed9fa3e77f"
          ],
          "data": "0x00000000000000000000000000000000000000000000006194049f30f7200000",
          "blockHash": "0xbc448c449d390aa981633f2cc01a036935648437012ed39f6e7d7e25f11b727b",
          "blockNumber": "0xb8f6",
          "blockTimestamp": "0x69d2ca10",
          "transactionHash": "0x8aa2a55aac0ede9214f8f9902c23bbd40fca17af006456c4ff1a26232f5ad5fa",
          "transactionIndex": "0xe",
          "logIndex": "0x1e",
          "removed": false
        },
        {
          "address": "0x332de1995e0d7e340255833b95ae33f2fe844287",
          "topics": [
            "0xc3d58168c5ae7397731d063d5bbf3d657854427343f4c083240f7aacaa2d0f62",
            "0x000000000000000000000000d28f3246f047efd4059b24fa1fa587ed9fa3e77f",
            "0x0000000000000000000000000000000000000000000000000000000000000000",
            "0x000000000000000000000000f39fd6e51aad88f6f4ce6ab8827279cfffb92266"
          ],
          "data": "0x000000000000000000000000000000000000000000000000000000000000000800000000000000000000000000000000000000000000006194049f30f7200000",
          "blockHash": "0xbc448c449d390aa981633f2cc01a036935648437012ed39f6e7d7e25f11b727b",
          "blockNumber": "0xb8f6",
          "blockTimestamp": "0x69d2ca10",
          "transactionHash": "0x8aa2a55aac0ede9214f8f9902c23bbd40fca17af006456c4ff1a26232f5ad5fa",
          "transactionIndex": "0xe",
          "logIndex": "0x1f",
          "removed": false
        },
        {
          "address": "0xd28f3246f047efd4059b24fa1fa587ed9fa3e77f",
          "topics": [
            "0x94b749af8a24a9e71a160cea1a268a96ec3299200f809d63344a0f668c0f0349",
            "0x0000000000000000000000000000000000000000000000000000000000000004",
            "0x000000000000000000000000f39fd6e51aad88f6f4ce6ab8827279cfffb92266"
          ],
          "data": "0x000000000000000000000000000000000000000000000000000000000000000100000000000000000000000000000000000000000000006194049f30f720000000000000000000000000000000000000000000000000006194049f30f7200000",
          "blockHash": "0xbc448c449d390aa981633f2cc01a036935648437012ed39f6e7d7e25f11b727b",
          "blockNumber": "0xb8f6",
          "blockTimestamp": "0x69d2ca10",
          "transactionHash": "0x8aa2a55aac0ede9214f8f9902c23bbd40fca17af006456c4ff1a26232f5ad5fa",
          "transactionIndex": "0xe",
          "logIndex": "0x20",
          "removed": false
        }
      ],
      "logsBloom": "0x4000000000000000000000000000000000000000000000000000000000000000000000000000000000000000000000000000000000000000000000000000200000000000000000000000000800000000000000000000000000000000040000000800004002000000080200010000080000000000000000000000001000000000000000000000000000000000000000000000000000000000000000020000000000000000000000000000000000080000000000000000000000200000000020000000004200000020000000001000000000000000a018000000000000000020000002000000000000000000000000000000000000000000010000080000000000",
      "type": "0x0",
      "transactionHash": "0x8aa2a55aac0ede9214f8f9902c23bbd40fca17af006456c4ff1a26232f5ad5fa",
      "transactionIndex": "0xe",
      "blockHash": "0xbc448c449d390aa981633f2cc01a036935648437012ed39f6e7d7e25f11b727b",
      "blockNumber": "0xb8f6",
      "gasUsed": "0x1d99d",
      "effectiveGasPrice": "0x3b9aca07",
      "blobGasPrice": "0x1",
      "from": "0xf39fd6e51aad88f6f4ce6ab8827279cfffb92266",
      "to": "0xd28f3246f047efd4059b24fa1fa587ed9fa3e77f",
      "contractAddress": null,
      "blockTimestamp": 1775421968
    },
    {
      "status": "0x1",
      "cumulativeGasUsed": "0x1d7fd7",
      "logs": [
        {
          "address": "0x5fbdb2315678afecb367f032d93f642f64180aa3",
          "topics": [
            "0xddf252ad1be2c89b69c2b068fc378daa952ba7f163c4a11628f55a4df523b3ef",
            "0x000000000000000000000000f39fd6e51aad88f6f4ce6ab8827279cfffb92266",
            "0x000000000000000000000000d28f3246f047efd4059b24fa1fa587ed9fa3e77f"
          ],
          "data": "0x0000000000000000000000000000000000000000000001bc85dc2a89bb200000",
          "blockHash": "0xbc448c449d390aa981633f2cc01a036935648437012ed39f6e7d7e25f11b727b",
          "blockNumber": "0xb8f6",
          "blockTimestamp": "0x69d2ca10",
          "transactionHash": "0x1b9e187cb54f8f3f4789958cc4328508d37ff65e4a4b813c07ebac95887f28f7",
          "transactionIndex": "0xf",
          "logIndex": "0x21",
          "removed": false
        },
        {
          "address": "0x332de1995e0d7e340255833b95ae33f2fe844287",
          "topics": [
            "0xc3d58168c5ae7397731d063d5bbf3d657854427343f4c083240f7aacaa2d0f62",
            "0x000000000000000000000000d28f3246f047efd4059b24fa1fa587ed9fa3e77f",
            "0x0000000000000000000000000000000000000000000000000000000000000000",
            "0x000000000000000000000000f39fd6e51aad88f6f4ce6ab8827279cfffb92266"
          ],
          "data": "0x00000000000000000000000000000000000000000000000000000000000000090000000000000000000000000000000000000000000001bc85dc2a89bb200000",
          "blockHash": "0xbc448c449d390aa981633f2cc01a036935648437012ed39f6e7d7e25f11b727b",
          "blockNumber": "0xb8f6",
          "blockTimestamp": "0x69d2ca10",
          "transactionHash": "0x1b9e187cb54f8f3f4789958cc4328508d37ff65e4a4b813c07ebac95887f28f7",
          "transactionIndex": "0xf",
          "logIndex": "0x22",
          "removed": false
        },
        {
          "address": "0xd28f3246f047efd4059b24fa1fa587ed9fa3e77f",
          "topics": [
            "0x94b749af8a24a9e71a160cea1a268a96ec3299200f809d63344a0f668c0f0349",
            "0x0000000000000000000000000000000000000000000000000000000000000004",
            "0x000000000000000000000000f39fd6e51aad88f6f4ce6ab8827279cfffb92266"
          ],
          "data": "0x00000000000000000000000000000000000000000000000000000000000000000000000000000000000000000000000000000000000001bc85dc2a89bb2000000000000000000000000000000000000000000000000001bc85dc2a89bb200000",
          "blockHash": "0xbc448c449d390aa981633f2cc01a036935648437012ed39f6e7d7e25f11b727b",
          "blockNumber": "0xb8f6",
          "blockTimestamp": "0x69d2ca10",
          "transactionHash": "0x1b9e187cb54f8f3f4789958cc4328508d37ff65e4a4b813c07ebac95887f28f7",
          "transactionIndex": "0xf",
          "logIndex": "0x23",
          "removed": false
        }
      ],
      "logsBloom": "0x4000000000000000000000000000000000000000000000000000000000000000000000000000000000000000000000000000000000000000000000000000200000000000000000000000000800000000000000000000000000000000040000000800004002000000080200010000080000000000000000000000001000000000000000000000000000000000000000000000000000000000000000020000000000000000000000000000000000080000000000000000000000200000000020000000004200000020000000001000000000000000a018000000000000000020000002000000000000000000000000000000000000000000010000080000000000",
      "type": "0x0",
      "transactionHash": "0x1b9e187cb54f8f3f4789958cc4328508d37ff65e4a4b813c07ebac95887f28f7",
      "transactionIndex": "0xf",
      "blockHash": "0xbc448c449d390aa981633f2cc01a036935648437012ed39f6e7d7e25f11b727b",
      "blockNumber": "0xb8f6",
      "gasUsed": "0x19708",
      "effectiveGasPrice": "0x3b9aca07",
      "blobGasPrice": "0x1",
      "from": "0xf39fd6e51aad88f6f4ce6ab8827279cfffb92266",
      "to": "0xd28f3246f047efd4059b24fa1fa587ed9fa3e77f",
      "contractAddress": null,
      "blockTimestamp": 1775421968
    },
    {
      "status": "0x1",
      "cumulativeGasUsed": "0x1fda20",
      "logs": [
        {
          "address": "0xd28f3246f047efd4059b24fa1fa587ed9fa3e77f",
          "topics": [
            "0x57d0d124b72f81ed1da0dc728fc33db342705974792928796f6577b8db5c3d53",
            "0x0000000000000000000000000000000000000000000000000000000000000005"
          ],
          "data": "0x0000000000000000000000000000000000000000000000000000000000000060000000000000000000000000000000000000000000000000000000006b36ec7f000000000000000000000000f39fd6e51aad88f6f4ce6ab8827279cfffb92266000000000000000000000000000000000000000000000000000000000000003257696c6c2065546f726f202845544f52292074726164652061626f7665202431303020627920656e64206f6620323032363f0000000000000000000000000000",
          "blockHash": "0xbc448c449d390aa981633f2cc01a036935648437012ed39f6e7d7e25f11b727b",
          "blockNumber": "0xb8f6",
          "blockTimestamp": "0x69d2ca10",
          "transactionHash": "0x7b13a538ce248954defa61a8b6c26b0c3dd0ade44485c5c54bfd479c6dde98f0",
          "transactionIndex": "0x10",
          "logIndex": "0x24",
          "removed": false
        }
      ],
      "logsBloom": "0x00000000000000000000000000000000000000000000000000000000000000000000000000000000000000000000000000000000000000000000000000000000000010000000000000000000000000000000000000000000000000000000000000000000000000000000000000000000000000000000000000000000000000000000000000000000800080000000001000000800000000000000000000000000000000000000000000000000000800000000000000000000000000000000200000000000000000000000000000000000000000000000000000000000000000000006000000000000000000000000000000000000000000000000000000000000",
      "type": "0x0",
      "transactionHash": "0x7b13a538ce248954defa61a8b6c26b0c3dd0ade44485c5c54bfd479c6dde98f0",
      "transactionIndex": "0x10",
      "blockHash": "0xbc448c449d390aa981633f2cc01a036935648437012ed39f6e7d7e25f11b727b",
      "blockNumber": "0xb8f6",
      "gasUsed": "0x25a49",
      "effectiveGasPrice": "0x3b9aca07",
      "blobGasPrice": "0x1",
      "from": "0xf39fd6e51aad88f6f4ce6ab8827279cfffb92266",
      "to": "0xd28f3246f047efd4059b24fa1fa587ed9fa3e77f",
      "contractAddress": null,
      "blockTimestamp": 1775421968
    },
    {
      "status": "0x1",
      "cumulativeGasUsed": "0x21b3c9",
      "logs": [
        {
          "address": "0x5fbdb2315678afecb367f032d93f642f64180aa3",
          "topics": [
            "0xddf252ad1be2c89b69c2b068fc378daa952ba7f163c4a11628f55a4df523b3ef",
            "0x000000000000000000000000f39fd6e51aad88f6f4ce6ab8827279cfffb92266",
            "0x000000000000000000000000d28f3246f047efd4059b24fa1fa587ed9fa3e77f"
          ],
          "data": "0x00000000000000000000000000000000000000000000014542ba12a337c00000",
          "blockHash": "0xbc448c449d390aa981633f2cc01a036935648437012ed39f6e7d7e25f11b727b",
          "blockNumber": "0xb8f6",
          "blockTimestamp": "0x69d2ca10",
          "transactionHash": "0xa6067c950fa6d9e59283a14466b65068b9291811cb832c36dc512324e4364ed0",
          "transactionIndex": "0x11",
          "logIndex": "0x25",
          "removed": false
        },
        {
          "address": "0x332de1995e0d7e340255833b95ae33f2fe844287",
          "topics": [
            "0xc3d58168c5ae7397731d063d5bbf3d657854427343f4c083240f7aacaa2d0f62",
            "0x000000000000000000000000d28f3246f047efd4059b24fa1fa587ed9fa3e77f",
            "0x0000000000000000000000000000000000000000000000000000000000000000",
            "0x000000000000000000000000f39fd6e51aad88f6f4ce6ab8827279cfffb92266"
          ],
          "data": "0x000000000000000000000000000000000000000000000000000000000000000a00000000000000000000000000000000000000000000014542ba12a337c00000",
          "blockHash": "0xbc448c449d390aa981633f2cc01a036935648437012ed39f6e7d7e25f11b727b",
          "blockNumber": "0xb8f6",
          "blockTimestamp": "0x69d2ca10",
          "transactionHash": "0xa6067c950fa6d9e59283a14466b65068b9291811cb832c36dc512324e4364ed0",
          "transactionIndex": "0x11",
          "logIndex": "0x26",
          "removed": false
        },
        {
          "address": "0xd28f3246f047efd4059b24fa1fa587ed9fa3e77f",
          "topics": [
            "0x94b749af8a24a9e71a160cea1a268a96ec3299200f809d63344a0f668c0f0349",
            "0x0000000000000000000000000000000000000000000000000000000000000005",
            "0x000000000000000000000000f39fd6e51aad88f6f4ce6ab8827279cfffb92266"
          ],
          "data": "0x000000000000000000000000000000000000000000000000000000000000000100000000000000000000000000000000000000000000014542ba12a337c0000000000000000000000000000000000000000000000000014542ba12a337c00000",
          "blockHash": "0xbc448c449d390aa981633f2cc01a036935648437012ed39f6e7d7e25f11b727b",
          "blockNumber": "0xb8f6",
          "blockTimestamp": "0x69d2ca10",
          "transactionHash": "0xa6067c950fa6d9e59283a14466b65068b9291811cb832c36dc512324e4364ed0",
          "transactionIndex": "0x11",
          "logIndex": "0x27",
          "removed": false
        }
      ],
      "logsBloom": "0x40000000000000000000000000000000000000000000000000000000000000000000000000000000000000000000000000000000000000000000000000002000000010000000000000000008000000000000000000000000000000000400000000000040020000000802000100000800000000000000000000000010000000000000000000000000000000000000001000000800000000000000000200000000000000000000000000000000000800000000000000000000000000000000200000000042000000200000000010000000000000002018000000000000000020000002000000000000000000000000000000000000000000010000080000000000",
      "type": "0x0",
      "transactionHash": "0xa6067c950fa6d9e59283a14466b65068b9291811cb832c36dc512324e4364ed0",
      "transactionIndex": "0x11",
      "blockHash": "0xbc448c449d390aa981633f2cc01a036935648437012ed39f6e7d7e25f11b727b",
      "blockNumber": "0xb8f6",
      "gasUsed": "0x1d9a9",
      "effectiveGasPrice": "0x3b9aca07",
      "blobGasPrice": "0x1",
      "from": "0xf39fd6e51aad88f6f4ce6ab8827279cfffb92266",
      "to": "0xd28f3246f047efd4059b24fa1fa587ed9fa3e77f",
      "contractAddress": null,
      "blockTimestamp": 1775421968
    },
    {
      "status": "0x1",
      "cumulativeGasUsed": "0x234ac5",
      "logs": [
        {
          "address": "0x5fbdb2315678afecb367f032d93f642f64180aa3",
          "topics": [
            "0xddf252ad1be2c89b69c2b068fc378daa952ba7f163c4a11628f55a4df523b3ef",
            "0x000000000000000000000000f39fd6e51aad88f6f4ce6ab8827279cfffb92266",
            "0x000000000000000000000000d28f3246f047efd4059b24fa1fa587ed9fa3e77f"
          ],
          "data": "0x0000000000000000000000000000000000000000000000d8d726b7177a800000",
          "blockHash": "0xbc448c449d390aa981633f2cc01a036935648437012ed39f6e7d7e25f11b727b",
          "blockNumber": "0xb8f6",
          "blockTimestamp": "0x69d2ca10",
          "transactionHash": "0x2d90cdf2ee62381fa778c8e3045a0af642b642d0750b0fd4a2ef2ca540622655",
          "transactionIndex": "0x12",
          "logIndex": "0x28",
          "removed": false
        },
        {
          "address": "0x332de1995e0d7e340255833b95ae33f2fe844287",
          "topics": [
            "0xc3d58168c5ae7397731d063d5bbf3d657854427343f4c083240f7aacaa2d0f62",
            "0x000000000000000000000000d28f3246f047efd4059b24fa1fa587ed9fa3e77f",
            "0x0000000000000000000000000000000000000000000000000000000000000000",
            "0x000000000000000000000000f39fd6e51aad88f6f4ce6ab8827279cfffb92266"
          ],
          "data": "0x000000000000000000000000000000000000000000000000000000000000000b0000000000000000000000000000000000000000000000d8d726b7177a800000",
          "blockHash": "0xbc448c449d390aa981633f2cc01a036935648437012ed39f6e7d7e25f11b727b",
          "blockNumber": "0xb8f6",
          "blockTimestamp": "0x69d2ca10",
          "transactionHash": "0x2d90cdf2ee62381fa778c8e3045a0af642b642d0750b0fd4a2ef2ca540622655",
          "transactionIndex": "0x12",
          "logIndex": "0x29",
          "removed": false
        },
        {
          "address": "0xd28f3246f047efd4059b24fa1fa587ed9fa3e77f",
          "topics": [
            "0x94b749af8a24a9e71a160cea1a268a96ec3299200f809d63344a0f668c0f0349",
            "0x0000000000000000000000000000000000000000000000000000000000000005",
            "0x000000000000000000000000f39fd6e51aad88f6f4ce6ab8827279cfffb92266"
          ],
          "data": "0x00000000000000000000000000000000000000000000000000000000000000000000000000000000000000000000000000000000000000d8d726b7177a8000000000000000000000000000000000000000000000000000d8d726b7177a800000",
          "blockHash": "0xbc448c449d390aa981633f2cc01a036935648437012ed39f6e7d7e25f11b727b",
          "blockNumber": "0xb8f6",
          "blockTimestamp": "0x69d2ca10",
          "transactionHash": "0x2d90cdf2ee62381fa778c8e3045a0af642b642d0750b0fd4a2ef2ca540622655",
          "transactionIndex": "0x12",
          "logIndex": "0x2a",
          "removed": false
        }
      ],
      "logsBloom": "0x40000000000000000000000000000000000000000000000000000000000000000000000000000000000000000000000000000000000000000000000000002000000010000000000000000008000000000000000000000000000000000400000000000040020000000802000100000800000000000000000000000010000000000000000000000000000000000000001000000800000000000000000200000000000000000000000000000000000800000000000000000000000000000000200000000042000000200000000010000000000000002018000000000000000020000002000000000000000000000000000000000000000000010000080000000000",
      "type": "0x0",
      "transactionHash": "0x2d90cdf2ee62381fa778c8e3045a0af642b642d0750b0fd4a2ef2ca540622655",
      "transactionIndex": "0x12",
      "blockHash": "0xbc448c449d390aa981633f2cc01a036935648437012ed39f6e7d7e25f11b727b",
      "blockNumber": "0xb8f6",
      "gasUsed": "0x196fc",
      "effectiveGasPrice": "0x3b9aca07",
      "blobGasPrice": "0x1",
      "from": "0xf39fd6e51aad88f6f4ce6ab8827279cfffb92266",
      "to": "0xd28f3246f047efd4059b24fa1fa587ed9fa3e77f",
      "contractAddress": null,
      "blockTimestamp": 1775421968
    },
    {
      "status": "0x1",
      "cumulativeGasUsed": "0x25a532",
      "logs": [
        {
          "address": "0xd28f3246f047efd4059b24fa1fa587ed9fa3e77f",
          "topics": [
            "0x57d0d124b72f81ed1da0dc728fc33db342705974792928796f6577b8db5c3d53",
            "0x0000000000000000000000000000000000000000000000000000000000000006"
          ],
          "data": "0x0000000000000000000000000000000000000000000000000000000000000060000000000000000000000000000000000000000000000000000000006d181fff000000000000000000000000f39fd6e51aad88f6f4ce6ab8827279cfffb92266000000000000000000000000000000000000000000000000000000000000003557696c6c20616e2041492074726164696e67206167656e74206d616e616765206f766572202431422041554d20627920323032373f0000000000000000000000",
          "blockHash": "0xbc448c449d390aa981633f2cc01a036935648437012ed39f6e7d7e25f11b727b",
          "blockNumber": "0xb8f6",
          "blockTimestamp": "0x69d2ca10",
          "transactionHash": "0x090460ab0a4188ffd92e6e111724f0fe5728b7dde4668655552e166832c15725",
          "transactionIndex": "0x13",
          "logIndex": "0x2b",
          "removed": false
        }
      ],
      "logsBloom": "0x00000000000000000000000000000000000000000000000000000000000000000000000000000000000000000000000000000000000400000000000000000000000000000000000000000000000000000000000000000000000000000000000000000000000000000000000000000000000000000000000000000000000000000000000400000000800080000000000000000000000000000000000000000000000000000000000000000000000800000000000000000000000000080000200000000000000000000000000000000000000000000000000000000000000000000006000000000000000000000000000000000000000000000000000000000000",
      "type": "0x0",
      "transactionHash": "0x090460ab0a4188ffd92e6e111724f0fe5728b7dde4668655552e166832c15725",
      "transactionIndex": "0x13",
      "blockHash": "0xbc448c449d390aa981633f2cc01a036935648437012ed39f6e7d7e25f11b727b",
      "blockNumber": "0xb8f6",
      "gasUsed": "0x25a6d",
      "effectiveGasPrice": "0x3b9aca07",
      "blobGasPrice": "0x1",
      "from": "0xf39fd6e51aad88f6f4ce6ab8827279cfffb92266",
      "to": "0xd28f3246f047efd4059b24fa1fa587ed9fa3e77f",
      "contractAddress": null,
      "blockTimestamp": 1775421968
    },
    {
      "status": "0x1",
      "cumulativeGasUsed": "0x277ecf",
      "logs": [
        {
          "address": "0x5fbdb2315678afecb367f032d93f642f64180aa3",
          "topics": [
            "0xddf252ad1be2c89b69c2b068fc378daa952ba7f163c4a11628f55a4df523b3ef",
            "0x000000000000000000000000f39fd6e51aad88f6f4ce6ab8827279cfffb92266",
            "0x000000000000000000000000d28f3246f047efd4059b24fa1fa587ed9fa3e77f"
          ],
          "data": "0x0000000000000000000000000000000000000000000000878678326eac900000",
          "blockHash": "0xbc448c449d390aa981633f2cc01a036935648437012ed39f6e7d7e25f11b727b",
          "blockNumber": "0xb8f6",
          "blockTimestamp": "0x69d2ca10",
          "transactionHash": "0xd5dc590c735a60394fe28faec88782c6445f9cb01108dc36e98c3916afae2324",
          "transactionIndex": "0x14",
          "logIndex": "0x2c",
          "removed": false
        },
        {
          "address": "0x332de1995e0d7e340255833b95ae33f2fe844287",
          "topics": [
            "0xc3d58168c5ae7397731d063d5bbf3d657854427343f4c083240f7aacaa2d0f62",
            "0x000000000000000000000000d28f3246f047efd4059b24fa1fa587ed9fa3e77f",
            "0x0000000000000000000000000000000000000000000000000000000000000000",
            "0x000000000000000000000000f39fd6e51aad88f6f4ce6ab8827279cfffb92266"
          ],
          "data": "0x000000000000000000000000000000000000000000000000000000000000000c0000000000000000000000000000000000000000000000878678326eac900000",
          "blockHash": "0xbc448c449d390aa981633f2cc01a036935648437012ed39f6e7d7e25f11b727b",
          "blockNumber": "0xb8f6",
          "blockTimestamp": "0x69d2ca10",
          "transactionHash": "0xd5dc590c735a60394fe28faec88782c6445f9cb01108dc36e98c3916afae2324",
          "transactionIndex": "0x14",
          "logIndex": "0x2d",
          "removed": false
        },
        {
          "address": "0xd28f3246f047efd4059b24fa1fa587ed9fa3e77f",
          "topics": [
            "0x94b749af8a24a9e71a160cea1a268a96ec3299200f809d63344a0f668c0f0349",
            "0x0000000000000000000000000000000000000000000000000000000000000006",
            "0x000000000000000000000000f39fd6e51aad88f6f4ce6ab8827279cfffb92266"
          ],
          "data": "0x00000000000000000000000000000000000000000000000000000000000000010000000000000000000000000000000000000000000000878678326eac9000000000000000000000000000000000000000000000000000878678326eac900000",
          "blockHash": "0xbc448c449d390aa981633f2cc01a036935648437012ed39f6e7d7e25f11b727b",
          "blockNumber": "0xb8f6",
          "blockTimestamp": "0x69d2ca10",
          "transactionHash": "0xd5dc590c735a60394fe28faec88782c6445f9cb01108dc36e98c3916afae2324",
          "transactionIndex": "0x14",
          "logIndex": "0x2e",
          "removed": false
        }
      ],
      "logsBloom": "0x40000000000000000000000000000000000000000000000000000000000000000000000000000000000000000000000000000000000400000000000000002000000000000000000000000008000000000000000000000000000000000400000000000040020000000802000100000800000000000000000000000010000000000000000400000000000000000000000000000000000000000000000200000000000000000000000000000000000800000000000000000000000000080000200000000042000000200000000010000000000000002018000000000000000020000002000000000000000000000000000000000000000000010000080000000000",
      "type": "0x0",
      "transactionHash": "0xd5dc590c735a60394fe28faec88782c6445f9cb01108dc36e98c3916afae2324",
      "transactionIndex": "0x14",
      "blockHash": "0xbc448c449d390aa981633f2cc01a036935648437012ed39f6e7d7e25f11b727b",
      "blockNumber": "0xb8f6",
      "gasUsed": "0x1d99d",
      "effectiveGasPrice": "0x3b9aca07",
      "blobGasPrice": "0x1",
      "from": "0xf39fd6e51aad88f6f4ce6ab8827279cfffb92266",
      "to": "0xd28f3246f047efd4059b24fa1fa587ed9fa3e77f",
      "contractAddress": null,
      "blockTimestamp": 1775421968
    },
    {
      "status": "0x1",
      "cumulativeGasUsed": "0x2915d7",
      "logs": [
        {
          "address": "0x5fbdb2315678afecb367f032d93f642f64180aa3",
          "topics": [
            "0xddf252ad1be2c89b69c2b068fc378daa952ba7f163c4a11628f55a4df523b3ef",
            "0x000000000000000000000000f39fd6e51aad88f6f4ce6ab8827279cfffb92266",
            "0x000000000000000000000000d28f3246f047efd4059b24fa1fa587ed9fa3e77f"
          ],
          "data": "0x0000000000000000000000000000000000000000000001969368974c05b00000",
          "blockHash": "0xbc448c449d390aa981633f2cc01a036935648437012ed39f6e7d7e25f11b727b",
          "blockNumber": "0xb8f6",
          "blockTimestamp": "0x69d2ca10",
          "transactionHash": "0xb5b757f0a35a09c40630197df880696dea848861cc730442b7c53f843ca62cbe",
          "transactionIndex": "0x15",
          "logIndex": "0x2f",
          "removed": false
        },
        {
          "address": "0x332de1995e0d7e340255833b95ae33f2fe844287",
          "topics": [
            "0xc3d58168c5ae7397731d063d5bbf3d657854427343f4c083240f7aacaa2d0f62",
            "0x000000000000000000000000d28f3246f047efd4059b24fa1fa587ed9fa3e77f",
            "0x0000000000000000000000000000000000000000000000000000000000000000",
            "0x000000000000000000000000f39fd6e51aad88f6f4ce6ab8827279cfffb92266"
          ],
          "data": "0x000000000000000000000000000000000000000000000000000000000000000d0000000000000000000000000000000000000000000001969368974c05b00000",
          "blockHash": "0xbc448c449d390aa981633f2cc01a036935648437012ed39f6e7d7e25f11b727b",
          "blockNumber": "0xb8f6",
          "blockTimestamp": "0x69d2ca10",
          "transactionHash": "0xb5b757f0a35a09c40630197df880696dea848861cc730442b7c53f843ca62cbe",
          "transactionIndex": "0x15",
          "logIndex": "0x30",
          "removed": false
        },
        {
          "address": "0xd28f3246f047efd4059b24fa1fa587ed9fa3e77f",
          "topics": [
            "0x94b749af8a24a9e71a160cea1a268a96ec3299200f809d63344a0f668c0f0349",
            "0x0000000000000000000000000000000000000000000000000000000000000006",
            "0x000000000000000000000000f39fd6e51aad88f6f4ce6ab8827279cfffb92266"
          ],
          "data": "0x00000000000000000000000000000000000000000000000000000000000000000000000000000000000000000000000000000000000001969368974c05b000000000000000000000000000000000000000000000000001969368974c05b00000",
          "blockHash": "0xbc448c449d390aa981633f2cc01a036935648437012ed39f6e7d7e25f11b727b",
          "blockNumber": "0xb8f6",
          "blockTimestamp": "0x69d2ca10",
          "transactionHash": "0xb5b757f0a35a09c40630197df880696dea848861cc730442b7c53f843ca62cbe",
          "transactionIndex": "0x15",
          "logIndex": "0x31",
          "removed": false
        }
      ],
      "logsBloom": "0x40000000000000000000000000000000000000000000000000000000000000000000000000000000000000000000000000000000000400000000000000002000000000000000000000000008000000000000000000000000000000000400000000000040020000000802000100000800000000000000000000000010000000000000000400000000000000000000000000000000000000000000000200000000000000000000000000000000000800000000000000000000000000080000200000000042000000200000000010000000000000002018000000000000000020000002000000000000000000000000000000000000000000010000080000000000",
      "type": "0x0",
      "transactionHash": "0xb5b757f0a35a09c40630197df880696dea848861cc730442b7c53f843ca62cbe",
      "transactionIndex": "0x15",
      "blockHash": "0xbc448c449d390aa981633f2cc01a036935648437012ed39f6e7d7e25f11b727b",
      "blockNumber": "0xb8f6",
      "gasUsed": "0x19708",
      "effectiveGasPrice": "0x3b9aca07",
      "blobGasPrice": "0x1",
      "from": "0xf39fd6e51aad88f6f4ce6ab8827279cfffb92266",
      "to": "0xd28f3246f047efd4059b24fa1fa587ed9fa3e77f",
      "contractAddress": null,
      "blockTimestamp": 1775421968
    },
    {
      "status": "0x1",
      "cumulativeGasUsed": "0x2b7014",
      "logs": [
        {
          "address": "0xd28f3246f047efd4059b24fa1fa587ed9fa3e77f",
          "topics": [
            "0x57d0d124b72f81ed1da0dc728fc33db342705974792928796f6577b8db5c3d53",
            "0x0000000000000000000000000000000000000000000000000000000000000007"
          ],
          "data": "0x00000000000000000000000000000000000000000000000000000000000000600000000000000000000000000000000000000000000000000000000072bd0bff000000000000000000000000f39fd6e51aad88f6f4ce6ab8827279cfffb92266000000000000000000000000000000000000000000000000000000000000003157696c6c20537061636558206c61756e6368206120637265776564204d617273206d697373696f6e20627920323033303f000000000000000000000000000000",
          "blockHash": "0xbc448c449d390aa981633f2cc01a036935648437012ed39f6e7d7e25f11b727b",
          "blockNumber": "0xb8f6",
          "blockTimestamp": "0x69d2ca10",
          "transactionHash": "0x5bb5e4511cd252545385aacb42738827fc4589c2fbdd6cf81423276f6b0f5f17",
          "transactionIndex": "0x16",
          "logIndex": "0x32",
          "removed": false
        }
      ],
      "logsBloom": "0x00000000000000000000000000000000000000000000000000000000000000000000000000000000000000000000000000001000000000000000000000000000000020000000000000000000000000000000000000000000000000000000000000000000000000000000000000000000000000000000000000000000000000000000000000000000800080000000000000000000000000000000000000000000000000000000000000000000000800000000000000000000000000000000200000000000000000000000000000000000000000000000000000000100000000000006000000000000000000000000000000000000000000000000000000000000",
      "type": "0x0",
      "transactionHash": "0x5bb5e4511cd252545385aacb42738827fc4589c2fbdd6cf81423276f6b0f5f17",
      "transactionIndex": "0x16",
      "blockHash": "0xbc448c449d390aa981633f2cc01a036935648437012ed39f6e7d7e25f11b727b",
      "blockNumber": "0xb8f6",
      "gasUsed": "0x25a3d",
      "effectiveGasPrice": "0x3b9aca07",
      "blobGasPrice": "0x1",
      "from": "0xf39fd6e51aad88f6f4ce6ab8827279cfffb92266",
      "to": "0xd28f3246f047efd4059b24fa1fa587ed9fa3e77f",
      "contractAddress": null,
      "blockTimestamp": 1775421968
    },
    {
      "status": "0x1",
      "cumulativeGasUsed": "0x2d49b1",
      "logs": [
        {
          "address": "0x5fbdb2315678afecb367f032d93f642f64180aa3",
          "topics": [
            "0xddf252ad1be2c89b69c2b068fc378daa952ba7f163c4a11628f55a4df523b3ef",
            "0x000000000000000000000000f39fd6e51aad88f6f4ce6ab8827279cfffb92266",
            "0x000000000000000000000000d28f3246f047efd4059b24fa1fa587ed9fa3e77f"
          ],
          "data": "0x0000000000000000000000000000000000000000000000410d586a20a4c00000",
          "blockHash": "0xbc448c449d390aa981633f2cc01a036935648437012ed39f6e7d7e25f11b727b",
          "blockNumber": "0xb8f6",
          "blockTimestamp": "0x69d2ca10",
          "transactionHash": "0x29fd3772a2ef484e28af9adff10ca8af8e78624901ea13f876f67c5aedb139da",
          "transactionIndex": "0x17",
          "logIndex": "0x33",
          "removed": false
        },
        {
          "address": "0x332de1995e0d7e340255833b95ae33f2fe844287",
          "topics": [
            "0xc3d58168c5ae7397731d063d5bbf3d657854427343f4c083240f7aacaa2d0f62",
            "0x000000000000000000000000d28f3246f047efd4059b24fa1fa587ed9fa3e77f",
            "0x0000000000000000000000000000000000000000000000000000000000000000",
            "0x000000000000000000000000f39fd6e51aad88f6f4ce6ab8827279cfffb92266"
          ],
          "data": "0x000000000000000000000000000000000000000000000000000000000000000e0000000000000000000000000000000000000000000000410d586a20a4c00000",
          "blockHash": "0xbc448c449d390aa981633f2cc01a036935648437012ed39f6e7d7e25f11b727b",
          "blockNumber": "0xb8f6",
          "blockTimestamp": "0x69d2ca10",
          "transactionHash": "0x29fd3772a2ef484e28af9adff10ca8af8e78624901ea13f876f67c5aedb139da",
          "transactionIndex": "0x17",
          "logIndex": "0x34",
          "removed": false
        },
        {
          "address": "0xd28f3246f047efd4059b24fa1fa587ed9fa3e77f",
          "topics": [
            "0x94b749af8a24a9e71a160cea1a268a96ec3299200f809d63344a0f668c0f0349",
            "0x0000000000000000000000000000000000000000000000000000000000000007",
            "0x000000000000000000000000f39fd6e51aad88f6f4ce6ab8827279cfffb92266"
          ],
          "data": "0x00000000000000000000000000000000000000000000000000000000000000010000000000000000000000000000000000000000000000410d586a20a4c000000000000000000000000000000000000000000000000000410d586a20a4c00000",
          "blockHash": "0xbc448c449d390aa981633f2cc01a036935648437012ed39f6e7d7e25f11b727b",
          "blockNumber": "0xb8f6",
          "blockTimestamp": "0x69d2ca10",
          "transactionHash": "0x29fd3772a2ef484e28af9adff10ca8af8e78624901ea13f876f67c5aedb139da",
          "transactionIndex": "0x17",
          "logIndex": "0x35",
          "removed": false
        }
      ],
      "logsBloom": "0x40000000000000000000000000000000000000000000000000000000000000000000000000000000000000000000000000001000000000000000000000002000000020000000000000000008000000000000000000000000000000000400000000000040020000000802000100000800000000000000000000000010000000000000000000000000000000000000000000000000000000000000000200000000000000000000000000000000000800000000000000000000000000000000200000000042000000200000000010000000000000002018000000000100000020000002000000000000000000000000000000000000000000010000080000000000",
      "type": "0x0",
      "transactionHash": "0x29fd3772a2ef484e28af9adff10ca8af8e78624901ea13f876f67c5aedb139da",
      "transactionIndex": "0x17",
      "blockHash": "0xbc448c449d390aa981633f2cc01a036935648437012ed39f6e7d7e25f11b727b",
      "blockNumber": "0xb8f6",
      "gasUsed": "0x1d99d",
      "effectiveGasPrice": "0x3b9aca07",
      "blobGasPrice": "0x1",
      "from": "0xf39fd6e51aad88f6f4ce6ab8827279cfffb92266",
      "to": "0xd28f3246f047efd4059b24fa1fa587ed9fa3e77f",
      "contractAddress": null,
      "blockTimestamp": 1775421968
    },
    {
      "status": "0x1",
      "cumulativeGasUsed": "0x2ee0b9",
      "logs": [
        {
          "address": "0x5fbdb2315678afecb367f032d93f642f64180aa3",
          "topics": [
            "0xddf252ad1be2c89b69c2b068fc378daa952ba7f163c4a11628f55a4df523b3ef",
            "0x000000000000000000000000f39fd6e51aad88f6f4ce6ab8827279cfffb92266",
            "0x000000000000000000000000d28f3246f047efd4059b24fa1fa587ed9fa3e77f"
          ],
          "data": "0x0000000000000000000000000000000000000000000001dd0c885f9a0d800000",
          "blockHash": "0xbc448c449d390aa981633f2cc01a036935648437012ed39f6e7d7e25f11b727b",
          "blockNumber": "0xb8f6",
          "blockTimestamp": "0x69d2ca10",
          "transactionHash": "0xd1ff00055f8215cac511d79670fa7aea5eabc45c23343b0e3deb9fd6091d5f75",
          "transactionIndex": "0x18",
          "logIndex": "0x36",
          "removed": false
        },
        {
          "address": "0x332de1995e0d7e340255833b95ae33f2fe844287",
          "topics": [
            "0xc3d58168c5ae7397731d063d5bbf3d657854427343f4c083240f7aacaa2d0f62",
            "0x000000000000000000000000d28f3246f047efd4059b24fa1fa587ed9fa3e77f",
            "0x0000000000000000000000000000000000000000000000000000000000000000",
            "0x000000000000000000000000f39fd6e51aad88f6f4ce6ab8827279cfffb92266"
          ],
          "data": "0x000000000000000000000000000000000000000000000000000000000000000f0000000000000000000000000000000000000000000001dd0c885f9a0d800000",
          "blockHash": "0xbc448c449d390aa981633f2cc01a036935648437012ed39f6e7d7e25f11b727b",
          "blockNumber": "0xb8f6",
          "blockTimestamp": "0x69d2ca10",
          "transactionHash": "0xd1ff00055f8215cac511d79670fa7aea5eabc45c23343b0e3deb9fd6091d5f75",
          "transactionIndex": "0x18",
          "logIndex": "0x37",
          "removed": false
        },
        {
          "address": "0xd28f3246f047efd4059b24fa1fa587ed9fa3e77f",
          "topics": [
            "0x94b749af8a24a9e71a160cea1a268a96ec3299200f809d63344a0f668c0f0349",
            "0x0000000000000000000000000000000000000000000000000000000000000007",
            "0x000000000000000000000000f39fd6e51aad88f6f4ce6ab8827279cfffb92266"
          ],
          "data": "0x00000000000000000000000000000000000000000000000000000000000000000000000000000000000000000000000000000000000001dd0c885f9a0d8000000000000000000000000000000000000000000000000001dd0c885f9a0d800000",
          "blockHash": "0xbc448c449d390aa981633f2cc01a036935648437012ed39f6e7d7e25f11b727b",
          "blockNumber": "0xb8f6",
          "blockTimestamp": "0x69d2ca10",
          "transactionHash": "0xd1ff00055f8215cac511d79670fa7aea5eabc45c23343b0e3deb9fd6091d5f75",
          "transactionIndex": "0x18",
          "logIndex": "0x38",
          "removed": false
        }
      ],
      "logsBloom": "0x40000000000000000000000000000000000000000000000000000000000000000000000000000000000000000000000000001000000000000000000000002000000020000000000000000008000000000000000000000000000000000400000000000040020000000802000100000800000000000000000000000010000000000000000000000000000000000000000000000000000000000000000200000000000000000000000000000000000800000000000000000000000000000000200000000042000000200000000010000000000000002018000000000100000020000002000000000000000000000000000000000000000000010000080000000000",
      "type": "0x0",
      "transactionHash": "0xd1ff00055f8215cac511d79670fa7aea5eabc45c23343b0e3deb9fd6091d5f75",
      "transactionIndex": "0x18",
      "blockHash": "0xbc448c449d390aa981633f2cc01a036935648437012ed39f6e7d7e25f11b727b",
      "blockNumber": "0xb8f6",
      "gasUsed": "0x19708",
      "effectiveGasPrice": "0x3b9aca07",
      "blobGasPrice": "0x1",
      "from": "0xf39fd6e51aad88f6f4ce6ab8827279cfffb92266",
      "to": "0xd28f3246f047efd4059b24fa1fa587ed9fa3e77f",
      "contractAddress": null,
      "blockTimestamp": 1775421968
    },
    {
      "status": "0x1",
      "cumulativeGasUsed": "0x313b92",
      "logs": [
        {
          "address": "0xd28f3246f047efd4059b24fa1fa587ed9fa3e77f",
          "topics": [
            "0x57d0d124b72f81ed1da0dc728fc33db342705974792928796f6577b8db5c3d53",
            "0x0000000000000000000000000000000000000000000000000000000000000008"
          ],
          "data": "0x0000000000000000000000000000000000000000000000000000000000000060000000000000000000000000000000000000000000000000000000006b36ec7f000000000000000000000000f39fd6e51aad88f6f4ce6ab8827279cfffb92266000000000000000000000000000000000000000000000000000000000000003e57696c6c20746865205553207061737320636f6d70726568656e7369766520737461626c65636f696e206c656769736c6174696f6e20696e20323032363f0000",
          "blockHash": "0xbc448c449d390aa981633f2cc01a036935648437012ed39f6e7d7e25f11b727b",
          "blockNumber": "0xb8f6",
          "blockTimestamp": "0x69d2ca10",
          "transactionHash": "0xa767f569a42df2c44f5b46c27cc6a2bdab3b8bb83f0132e94759a2fb5eacf83d",
          "transactionIndex": "0x19",
          "logIndex": "0x39",
          "removed": false
        }
      ],
      "logsBloom": "0x00000000000000000000000000000000000000000000000000000000000000000000000000000000000000000000000000000000000080000000000000000000000000000000000000000000000000000000000000000000000000000000000000000000000000000000000000000000000000000000000000000000000000000080000000000000800080000000000000000000000000000000000000000000000000000000000000000000000800000000000000000000000000000000200040000000000000000000000000000000000000000000000000000000000000000006000000000000000000000000000000000000000000000000000000000000",
      "type": "0x0",
      "transactionHash": "0xa767f569a42df2c44f5b46c27cc6a2bdab3b8bb83f0132e94759a2fb5eacf83d",
      "transactionIndex": "0x19",
      "blockHash": "0xbc448c449d390aa981633f2cc01a036935648437012ed39f6e7d7e25f11b727b",
      "blockNumber": "0xb8f6",
      "gasUsed": "0x25ad9",
      "effectiveGasPrice": "0x3b9aca07",
      "blobGasPrice": "0x1",
      "from": "0xf39fd6e51aad88f6f4ce6ab8827279cfffb92266",
      "to": "0xd28f3246f047efd4059b24fa1fa587ed9fa3e77f",
      "contractAddress": null,
      "blockTimestamp": 1775421968
    },
    {
      "status": "0x1",
      "cumulativeGasUsed": "0x33153b",
      "logs": [
        {
          "address": "0x5fbdb2315678afecb367f032d93f642f64180aa3",
          "topics": [
            "0xddf252ad1be2c89b69c2b068fc378daa952ba7f163c4a11628f55a4df523b3ef",
            "0x000000000000000000000000f39fd6e51aad88f6f4ce6ab8827279cfffb92266",
            "0x000000000000000000000000d28f3246f047efd4059b24fa1fa587ed9fa3e77f"
          ],
          "data": "0x000000000000000000000000000000000000000000000170a0f5040e50400000",
          "blockHash": "0xbc448c449d390aa981633f2cc01a036935648437012ed39f6e7d7e25f11b727b",
          "blockNumber": "0xb8f6",
          "blockTimestamp": "0x69d2ca10",
          "transactionHash": "0x175af5660c913896004009a6f9d3b70734b56f1f0d0c7e60bfc3781cd38fb007",
          "transactionIndex": "0x1a",
          "logIndex": "0x3a",
          "removed": false
        },
        {
          "address": "0x332de1995e0d7e340255833b95ae33f2fe844287",
          "topics": [
            "0xc3d58168c5ae7397731d063d5bbf3d657854427343f4c083240f7aacaa2d0f62",
            "0x000000000000000000000000d28f3246f047efd4059b24fa1fa587ed9fa3e77f",
            "0x0000000000000000000000000000000000000000000000000000000000000000",
            "0x000000000000000000000000f39fd6e51aad88f6f4ce6ab8827279cfffb92266"
          ],
          "data": "0x0000000000000000000000000000000000000000000000000000000000000010000000000000000000000000000000000000000000000170a0f5040e50400000",
          "blockHash": "0xbc448c449d390aa981633f2cc01a036935648437012ed39f6e7d7e25f11b727b",
          "blockNumber": "0xb8f6",
          "blockTimestamp": "0x69d2ca10",
          "transactionHash": "0x175af5660c913896004009a6f9d3b70734b56f1f0d0c7e60bfc3781cd38fb007",
          "transactionIndex": "0x1a",
          "logIndex": "0x3b",
          "removed": false
        },
        {
          "address": "0xd28f3246f047efd4059b24fa1fa587ed9fa3e77f",
          "topics": [
            "0x94b749af8a24a9e71a160cea1a268a96ec3299200f809d63344a0f668c0f0349",
            "0x0000000000000000000000000000000000000000000000000000000000000008",
            "0x000000000000000000000000f39fd6e51aad88f6f4ce6ab8827279cfffb92266"
          ],
          "data": "0x0000000000000000000000000000000000000000000000000000000000000001000000000000000000000000000000000000000000000170a0f5040e50400000000000000000000000000000000000000000000000000170a0f5040e50400000",
          "blockHash": "0xbc448c449d390aa981633f2cc01a036935648437012ed39f6e7d7e25f11b727b",
          "blockNumber": "0xb8f6",
          "blockTimestamp": "0x69d2ca10",
          "transactionHash": "0x175af5660c913896004009a6f9d3b70734b56f1f0d0c7e60bfc3781cd38fb007",
          "transactionIndex": "0x1a",
          "logIndex": "0x3c",
          "removed": false
        }
      ],
      "logsBloom": "0x40000000000000000000000000000000000000000000000000000000000000000000000000000000000000000000000000000000000080000000000000002000000000000000000000000008000000000000000000000000000000000400000000000040020000000802000100000800000000000000000000000010000000000080000000000000000000000000000000000000000000000000000200000000000000000000000000000000000800000000000000000000000000000000200040000042000000200000000010000000000000002018000000000000000020000002000000000000000000000000000000000000000000010000080000000000",
      "type": "0x0",
      "transactionHash": "0x175af5660c913896004009a6f9d3b70734b56f1f0d0c7e60bfc3781cd38fb007",
      "transactionIndex": "0x1a",
      "blockHash": "0xbc448c449d390aa981633f2cc01a036935648437012ed39f6e7d7e25f11b727b",
      "blockNumber": "0xb8f6",
      "gasUsed": "0x1d9a9",
      "effectiveGasPrice": "0x3b9aca07",
      "blobGasPrice": "0x1",
      "from": "0xf39fd6e51aad88f6f4ce6ab8827279cfffb92266",
      "to": "0xd28f3246f047efd4059b24fa1fa587ed9fa3e77f",
      "contractAddress": null,
      "blockTimestamp": 1775421968
    },
    {
      "status": "0x1",
      "cumulativeGasUsed": "0x34ac2b",
      "logs": [
        {
          "address": "0x5fbdb2315678afecb367f032d93f642f64180aa3",
          "topics": [
            "0xddf252ad1be2c89b69c2b068fc378daa952ba7f163c4a11628f55a4df523b3ef",
            "0x000000000000000000000000f39fd6e51aad88f6f4ce6ab8827279cfffb92266",
            "0x000000000000000000000000d28f3246f047efd4059b24fa1fa587ed9fa3e77f"
          ],
          "data": "0x0000000000000000000000000000000000000000000000ad78ebc5ac62000000",
          "blockHash": "0xbc448c449d390aa981633f2cc01a036935648437012ed39f6e7d7e25f11b727b",
          "blockNumber": "0xb8f6",
          "blockTimestamp": "0x69d2ca10",
          "transactionHash": "0xda64341bc55647a2fe866e753519a625716b74662c43d2b14aa80e34aab10ee4",
          "transactionIndex": "0x1b",
          "logIndex": "0x3d",
          "removed": false
        },
        {
          "address": "0x332de1995e0d7e340255833b95ae33f2fe844287",
          "topics": [
            "0xc3d58168c5ae7397731d063d5bbf3d657854427343f4c083240f7aacaa2d0f62",
            "0x000000000000000000000000d28f3246f047efd4059b24fa1fa587ed9fa3e77f",
            "0x0000000000000000000000000000000000000000000000000000000000000000",
            "0x000000000000000000000000f39fd6e51aad88f6f4ce6ab8827279cfffb92266"
          ],
          "data": "0x00000000000000000000000000000000000000000000000000000000000000110000000000000000000000000000000000000000000000ad78ebc5ac62000000",
          "blockHash": "0xbc448c449d390aa981633f2cc01a036935648437012ed39f6e7d7e25f11b727b",
          "blockNumber": "0xb8f6",
          "blockTimestamp": "0x69d2ca10",
          "transactionHash": "0xda64341bc55647a2fe866e753519a625716b74662c43d2b14aa80e34aab10ee4",
          "transactionIndex": "0x1b",
          "logIndex": "0x3e",
          "removed": false
        },
        {
          "address": "0xd28f3246f047efd4059b24fa1fa587ed9fa3e77f",
          "topics": [
            "0x94b749af8a24a9e71a160cea1a268a96ec3299200f809d63344a0f668c0f0349",
            "0x0000000000000000000000000000000000000000000000000000000000000008",
            "0x000000000000000000000000f39fd6e51aad88f6f4ce6ab8827279cfffb92266"
          ],
          "data": "0x00000000000000000000000000000000000000000000000000000000000000000000000000000000000000000000000000000000000000ad78ebc5ac620000000000000000000000000000000000000000000000000000ad78ebc5ac62000000",
          "blockHash": "0xbc448c449d390aa981633f2cc01a036935648437012ed39f6e7d7e25f11b727b",
          "blockNumber": "0xb8f6",
          "blockTimestamp": "0x69d2ca10",
          "transactionHash": "0xda64341bc55647a2fe866e753519a625716b74662c43d2b14aa80e34aab10ee4",
          "transactionIndex": "0x1b",
          "logIndex": "0x3f",
          "removed": false
        }
      ],
      "logsBloom": "0x40000000000000000000000000000000000000000000000000000000000000000000000000000000000000000000000000000000000080000000000000002000000000000000000000000008000000000000000000000000000000000400000000000040020000000802000100000800000000000000000000000010000000000080000000000000000000000000000000000000000000000000000200000000000000000000000000000000000800000000000000000000000000000000200040000042000000200000000010000000000000002018000000000000000020000002000000000000000000000000000000000000000000010000080000000000",
      "type": "0x0",
      "transactionHash": "0xda64341bc55647a2fe866e753519a625716b74662c43d2b14aa80e34aab10ee4",
      "transactionIndex": "0x1b",
      "blockHash": "0xbc448c449d390aa981633f2cc01a036935648437012ed39f6e7d7e25f11b727b",
      "blockNumber": "0xb8f6",
      "gasUsed": "0x196f0",
      "effectiveGasPrice": "0x3b9aca07",
      "blobGasPrice": "0x1",
      "from": "0xf39fd6e51aad88f6f4ce6ab8827279cfffb92266",
      "to": "0xd28f3246f047efd4059b24fa1fa587ed9fa3e77f",
      "contractAddress": null,
      "blockTimestamp": 1775421968
    },
    {
      "status": "0x1",
      "cumulativeGasUsed": "0x370680",
      "logs": [
        {
          "address": "0xd28f3246f047efd4059b24fa1fa587ed9fa3e77f",
          "topics": [
            "0x57d0d124b72f81ed1da0dc728fc33db342705974792928796f6577b8db5c3d53",
            "0x0000000000000000000000000000000000000000000000000000000000000009"
          ],
          "data": "0x0000000000000000000000000000000000000000000000000000000000000060000000000000000000000000000000000000000000000000000000006b36ec7f000000000000000000000000f39fd6e51aad88f6f4ce6ab8827279cfffb92266000000000000000000000000000000000000000000000000000000000000003357696c6c204e56494449412073757270617373202435207472696c6c696f6e206d61726b65742063617020696e20323032363f00000000000000000000000000",
          "blockHash": "0xbc448c449d390aa981633f2cc01a036935648437012ed39f6e7d7e25f11b727b",
          "blockNumber": "0xb8f6",
          "blockTimestamp": "0x69d2ca10",
          "transactionHash": "0xc98227f545b91357ef53677cd64fd3c240ddda6efa1ad72d6d0705cc35ae7abe",
          "transactionIndex": "0x1c",
          "logIndex": "0x40",
          "removed": false
        }
      ],
      "logsBloom": "0x00000000000000000000000000000000000000000000000000000000000000000000000000000000000000000000000000000000000000000000000000200000000000000000000000000000000000000000000000000000000000000000000000000000000000000000000000000000000000000000000000000000000000000000000000000000800080000000000000001000000000000000000000000000000000000000000000000000000800000000000000000000000000000000200000000000000000000000000000000000000000000000000000000000000000000006000000000000000000000000000000000000000000000000000000800000",
      "type": "0x0",
      "transactionHash": "0xc98227f545b91357ef53677cd64fd3c240ddda6efa1ad72d6d0705cc35ae7abe",
      "transactionIndex": "0x1c",
      "blockHash": "0xbc448c449d390aa981633f2cc01a036935648437012ed39f6e7d7e25f11b727b",
      "blockNumber": "0xb8f6",
      "gasUsed": "0x25a55",
      "effectiveGasPrice": "0x3b9aca07",
      "blobGasPrice": "0x1",
      "from": "0xf39fd6e51aad88f6f4ce6ab8827279cfffb92266",
      "to": "0xd28f3246f047efd4059b24fa1fa587ed9fa3e77f",
      "contractAddress": null,
      "blockTimestamp": 1775421968
    },
    {
      "status": "0x1",
      "cumulativeGasUsed": "0x38e01d",
      "logs": [
        {
          "address": "0x5fbdb2315678afecb367f032d93f642f64180aa3",
          "topics": [
            "0xddf252ad1be2c89b69c2b068fc378daa952ba7f163c4a11628f55a4df523b3ef",
            "0x000000000000000000000000f39fd6e51aad88f6f4ce6ab8827279cfffb92266",
            "0x000000000000000000000000d28f3246f047efd4059b24fa1fa587ed9fa3e77f"
          ],
          "data": "0x0000000000000000000000000000000000000000000000f3f20b8dfa69d00000",
          "blockHash": "0xbc448c449d390aa981633f2cc01a036935648437012ed39f6e7d7e25f11b727b",
          "blockNumber": "0xb8f6",
          "blockTimestamp": "0x69d2ca10",
          "transactionHash": "0x32774b0b4b6d7f0f74cb29ca72b926041164c31b43eb8e95481f4e9814edcd31",
          "transactionIndex": "0x1d",
          "logIndex": "0x41",
          "removed": false
        },
        {
          "address": "0x332de1995e0d7e340255833b95ae33f2fe844287",
          "topics": [
            "0xc3d58168c5ae7397731d063d5bbf3d657854427343f4c083240f7aacaa2d0f62",
            "0x000000000000000000000000d28f3246f047efd4059b24fa1fa587ed9fa3e77f",
            "0x0000000000000000000000000000000000000000000000000000000000000000",
            "0x000000000000000000000000f39fd6e51aad88f6f4ce6ab8827279cfffb92266"
          ],
          "data": "0x00000000000000000000000000000000000000000000000000000000000000120000000000000000000000000000000000000000000000f3f20b8dfa69d00000",
          "blockHash": "0xbc448c449d390aa981633f2cc01a036935648437012ed39f6e7d7e25f11b727b",
          "blockNumber": "0xb8f6",
          "blockTimestamp": "0x69d2ca10",
          "transactionHash": "0x32774b0b4b6d7f0f74cb29ca72b926041164c31b43eb8e95481f4e9814edcd31",
          "transactionIndex": "0x1d",
          "logIndex": "0x42",
          "removed": false
        },
        {
          "address": "0xd28f3246f047efd4059b24fa1fa587ed9fa3e77f",
          "topics": [
            "0x94b749af8a24a9e71a160cea1a268a96ec3299200f809d63344a0f668c0f0349",
            "0x0000000000000000000000000000000000000000000000000000000000000009",
            "0x000000000000000000000000f39fd6e51aad88f6f4ce6ab8827279cfffb92266"
          ],
          "data": "0x00000000000000000000000000000000000000000000000000000000000000010000000000000000000000000000000000000000000000f3f20b8dfa69d000000000000000000000000000000000000000000000000000f3f20b8dfa69d00000",
          "blockHash": "0xbc448c449d390aa981633f2cc01a036935648437012ed39f6e7d7e25f11b727b",
          "blockNumber": "0xb8f6",
          "blockTimestamp": "0x69d2ca10",
          "transactionHash": "0x32774b0b4b6d7f0f74cb29ca72b926041164c31b43eb8e95481f4e9814edcd31",
          "transactionIndex": "0x1d",
          "logIndex": "0x43",
          "removed": false
        }
      ],
      "logsBloom": "0x40000000000000000000000000000000000000000000000000000000000000000000000000000000000000000000000000000000000000000000000000202000000000000000000000000008000000000000000000000000000000000400000000000040020000000802000100000800000000000000000000000010000000000000000000000000000000000000000000001000000000000000000200000000000000000000000000000000000800000000000000000000000000000000200000000042000000200000000010000000000000002018000000000000000020000002000000000000000000000000000000000000000000010000080000800000",
      "type": "0x0",
      "transactionHash": "0x32774b0b4b6d7f0f74cb29ca72b926041164c31b43eb8e95481f4e9814edcd31",
      "transactionIndex": "0x1d",
      "blockHash": "0xbc448c449d390aa981633f2cc01a036935648437012ed39f6e7d7e25f11b727b",
      "blockNumber": "0xb8f6",
      "gasUsed": "0x1d99d",
      "effectiveGasPrice": "0x3b9aca07",
      "blobGasPrice": "0x1",
      "from": "0xf39fd6e51aad88f6f4ce6ab8827279cfffb92266",
      "to": "0xd28f3246f047efd4059b24fa1fa587ed9fa3e77f",
      "contractAddress": null,
      "blockTimestamp": 1775421968
    },
    {
      "status": "0x1",
      "cumulativeGasUsed": "0x3a7725",
      "logs": [
        {
          "address": "0x5fbdb2315678afecb367f032d93f642f64180aa3",
          "topics": [
            "0xddf252ad1be2c89b69c2b068fc378daa952ba7f163c4a11628f55a4df523b3ef",
            "0x000000000000000000000000f39fd6e51aad88f6f4ce6ab8827279cfffb92266",
            "0x000000000000000000000000d28f3246f047efd4059b24fa1fa587ed9fa3e77f"
          ],
          "data": "0x00000000000000000000000000000000000000000000012a27d53bc048700000",
          "blockHash": "0xbc448c449d390aa981633f2cc01a036935648437012ed39f6e7d7e25f11b727b",
          "blockNumber": "0xb8f6",
          "blockTimestamp": "0x69d2ca10",
          "transactionHash": "0xd8a33a13266a341ed3bad2691d5543c2be4ae002e56cd0acdac7984e24fd8426",
          "transactionIndex": "0x1e",
          "logIndex": "0x44",
          "removed": false
        },
        {
          "address": "0x332de1995e0d7e340255833b95ae33f2fe844287",
          "topics": [
            "0xc3d58168c5ae7397731d063d5bbf3d657854427343f4c083240f7aacaa2d0f62",
            "0x000000000000000000000000d28f3246f047efd4059b24fa1fa587ed9fa3e77f",
            "0x0000000000000000000000000000000000000000000000000000000000000000",
            "0x000000000000000000000000f39fd6e51aad88f6f4ce6ab8827279cfffb92266"
          ],
          "data": "0x000000000000000000000000000000000000000000000000000000000000001300000000000000000000000000000000000000000000012a27d53bc048700000",
          "blockHash": "0xbc448c449d390aa981633f2cc01a036935648437012ed39f6e7d7e25f11b727b",
          "blockNumber": "0xb8f6",
          "blockTimestamp": "0x69d2ca10",
          "transactionHash": "0xd8a33a13266a341ed3bad2691d5543c2be4ae002e56cd0acdac7984e24fd8426",
          "transactionIndex": "0x1e",
          "logIndex": "0x45",
          "removed": false
        },
        {
          "address": "0xd28f3246f047efd4059b24fa1fa587ed9fa3e77f",
          "topics": [
            "0x94b749af8a24a9e71a160cea1a268a96ec3299200f809d63344a0f668c0f0349",
            "0x0000000000000000000000000000000000000000000000000000000000000009",
            "0x000000000000000000000000f39fd6e51aad88f6f4ce6ab8827279cfffb92266"
          ],
          "data": "0x000000000000000000000000000000000000000000000000000000000000000000000000000000000000000000000000000000000000012a27d53bc04870000000000000000000000000000000000000000000000000012a27d53bc048700000",
          "blockHash": "0xbc448c449d390aa981633f2cc01a036935648437012ed39f6e7d7e25f11b727b",
          "blockNumber": "0xb8f6",
          "blockTimestamp": "0x69d2ca10",
          "transactionHash": "0xd8a33a13266a341ed3bad2691d5543c2be4ae002e56cd0acdac7984e24fd8426",
          "transactionIndex": "0x1e",
          "logIndex": "0x46",
          "removed": false
        }
      ],
      "logsBloom": "0x40000000000000000000000000000000000000000000000000000000000000000000000000000000000000000000000000000000000000000000000000202000000000000000000000000008000000000000000000000000000000000400000000000040020000000802000100000800000000000000000000000010000000000000000000000000000000000000000000001000000000000000000200000000000000000000000000000000000800000000000000000000000000000000200000000042000000200000000010000000000000002018000000000000000020000002000000000000000000000000000000000000000000010000080000800000",
      "type": "0x0",
      "transactionHash": "0xd8a33a13266a341ed3bad2691d5543c2be4ae002e56cd0acdac7984e24fd8426",
      "transactionIndex": "0x1e",
      "blockHash": "0xbc448c449d390aa981633f2cc01a036935648437012ed39f6e7d7e25f11b727b",
      "blockNumber": "0xb8f6",
      "gasUsed": "0x19708",
      "effectiveGasPrice": "0x3b9aca07",
      "blobGasPrice": "0x1",
      "from": "0xf39fd6e51aad88f6f4ce6ab8827279cfffb92266",
      "to": "0xd28f3246f047efd4059b24fa1fa587ed9fa3e77f",
      "contractAddress": null,
      "blockTimestamp": 1775421968
    }
  ],
  "libraries": [],
  "pending": [],
  "returns": {},
  "timestamp": 1775421968941,
  "chain": 42069,
  "commit": "faa163d"
}